{
	"hito2/hito2.sol": {
		"Fundraiser": {
			"abi": [
				{
					"anonymous": false,
					"inputs": [
						{
							"indexed": false,
							"internalType": "address",
							"name": "donator",
							"type": "address"
						},
						{
							"indexed": false,
							"internalType": "uint256",
							"name": "amount",
							"type": "uint256"
						},
						{
							"indexed": false,
							"internalType": "uint256",
							"name": "id",
							"type": "uint256"
						}
					],
					"name": "Donation",
					"type": "event"
				},
				{
					"anonymous": false,
					"inputs": [
						{
							"indexed": false,
							"internalType": "address",
							"name": "creator",
							"type": "address"
						},
						{
							"indexed": false,
							"internalType": "uint256",
							"name": "goal",
							"type": "uint256"
						},
						{
							"indexed": false,
							"internalType": "uint256",
							"name": "id",
							"type": "uint256"
						}
					],
					"name": "FundCreated",
					"type": "event"
				},
				{
					"anonymous": false,
					"inputs": [],
					"name": "FundEnded",
					"type": "event"
				},
				{
					"anonymous": false,
					"inputs": [
						{
							"indexed": false,
							"internalType": "address",
							"name": "donator",
							"type": "address"
						},
						{
							"indexed": false,
							"internalType": "uint256",
							"name": "amount",
							"type": "uint256"
						},
						{
							"indexed": false,
							"internalType": "uint256",
							"name": "id",
							"type": "uint256"
						}
					],
					"name": "RemoveDonation",
					"type": "event"
				},
				{
					"inputs": [
						{
							"internalType": "uint256",
							"name": "",
							"type": "uint256"
						}
					],
					"name": "campaigns",
					"outputs": [
						{
							"internalType": "uint256",
							"name": "goal",
							"type": "uint256"
						},
						{
							"internalType": "address",
							"name": "creator",
							"type": "address"
						},
						{
							"internalType": "uint256",
							"name": "id",
							"type": "uint256"
						},
						{
							"internalType": "bool",
							"name": "ended",
							"type": "bool"
						},
						{
							"internalType": "bool",
							"name": "closed",
							"type": "bool"
						}
					],
					"stateMutability": "view",
					"type": "function"
				},
				{
					"inputs": [
						{
							"internalType": "uint256",
							"name": "_goal",
							"type": "uint256"
						}
					],
					"name": "createFunding",
					"outputs": [],
					"stateMutability": "nonpayable",
					"type": "function"
				},
				{
					"inputs": [
						{
							"internalType": "uint256",
							"name": "",
							"type": "uint256"
						}
					],
					"name": "donations",
					"outputs": [
						{
							"internalType": "address",
							"name": "donator",
							"type": "address"
						},
						{
							"internalType": "uint256",
							"name": "amount",
							"type": "uint256"
						},
						{
							"internalType": "uint256",
							"name": "id",
							"type": "uint256"
						}
					],
					"stateMutability": "view",
					"type": "function"
				},
				{
					"inputs": [
						{
							"internalType": "uint256",
							"name": "_fundingId",
							"type": "uint256"
						}
					],
					"name": "endFund",
					"outputs": [],
					"stateMutability": "nonpayable",
					"type": "function"
				},
				{
					"inputs": [
						{
							"internalType": "uint256",
							"name": "_fundingId",
							"type": "uint256"
						}
					],
					"name": "fund",
					"outputs": [],
					"stateMutability": "payable",
					"type": "function"
				},
				{
					"inputs": [
						{
							"internalType": "uint256",
							"name": "_fundingId",
							"type": "uint256"
						}
					],
					"name": "removeFund",
					"outputs": [],
					"stateMutability": "nonpayable",
					"type": "function"
				}
			],
			"devdoc": {
				"kind": "dev",
				"methods": {},
				"version": 1
			},
			"evm": {
				"assembly": "    /* \"hito2/hito2.sol\":89:2896  contract Fundraiser{... */\n  mstore(0x40, 0x80)\n  callvalue\n  dup1\n  iszero\n  tag_1\n  jumpi\n  0x00\n  dup1\n  revert\ntag_1:\n  pop\n  dataSize(sub_0)\n  dup1\n  dataOffset(sub_0)\n  0x00\n  codecopy\n  0x00\n  return\nstop\n\nsub_0: assembly {\n        /* \"hito2/hito2.sol\":89:2896  contract Fundraiser{... */\n      mstore(0x40, 0x80)\n      jumpi(tag_1, lt(calldatasize, 0x04))\n      shr(0xe0, calldataload(0x00))\n      dup1\n      0x141961bc\n      eq\n      tag_2\n      jumpi\n      dup1\n      0x1be6d8d7\n      eq\n      tag_3\n      jumpi\n      dup1\n      0x3af388e0\n      eq\n      tag_4\n      jumpi\n      dup1\n      0xc80e4dfd\n      eq\n      tag_5\n      jumpi\n      dup1\n      0xca1d209d\n      eq\n      tag_6\n      jumpi\n      dup1\n      0xf8626af8\n      eq\n      tag_7\n      jumpi\n    tag_1:\n      0x00\n      dup1\n      revert\n        /* \"hito2/hito2.sol\":638:665  campaign[] public campaigns */\n    tag_2:\n      callvalue\n      dup1\n      iszero\n      tag_8\n      jumpi\n      0x00\n      dup1\n      revert\n    tag_8:\n      pop\n      tag_9\n      0x04\n      dup1\n      calldatasize\n      sub\n      dup2\n      add\n      swap1\n      tag_10\n      swap2\n      swap1\n      tag_11\n      jump\t// in\n    tag_10:\n      tag_12\n      jump\t// in\n    tag_9:\n      mload(0x40)\n      tag_13\n      swap6\n      swap5\n      swap4\n      swap3\n      swap2\n      swap1\n      tag_14\n      jump\t// in\n    tag_13:\n      mload(0x40)\n      dup1\n      swap2\n      sub\n      swap1\n      return\n        /* \"hito2/hito2.sol\":2579:2891  function endFund(uint _fundingId) public{... */\n    tag_3:\n      callvalue\n      dup1\n      iszero\n      tag_15\n      jumpi\n      0x00\n      dup1\n      revert\n    tag_15:\n      pop\n      tag_16\n      0x04\n      dup1\n      calldatasize\n      sub\n      dup2\n      add\n      swap1\n      tag_17\n      swap2\n      swap1\n      tag_11\n      jump\t// in\n    tag_17:\n      tag_18\n      jump\t// in\n    tag_16:\n      stop\n        /* \"hito2/hito2.sol\":1807:2574  function removeFund(uint _fundingId) public {... */\n    tag_4:\n      callvalue\n      dup1\n      iszero\n      tag_19\n      jumpi\n      0x00\n      dup1\n      revert\n    tag_19:\n      pop\n      tag_20\n      0x04\n      dup1\n      calldatasize\n      sub\n      dup2\n      add\n      swap1\n      tag_21\n      swap2\n      swap1\n      tag_11\n      jump\t// in\n    tag_21:\n      tag_22\n      jump\t// in\n    tag_20:\n      stop\n        /* \"hito2/hito2.sol\":717:1150  function createFunding(uint _goal) public {... */\n    tag_5:\n      callvalue\n      dup1\n      iszero\n      tag_23\n      jumpi\n      0x00\n      dup1\n      revert\n    tag_23:\n      pop\n      tag_24\n      0x04\n      dup1\n      calldatasize\n      sub\n      dup2\n      add\n      swap1\n      tag_25\n      swap2\n      swap1\n      tag_11\n      jump\t// in\n    tag_25:\n      tag_26\n      jump\t// in\n    tag_24:\n      stop\n        /* \"hito2/hito2.sol\":1157:1801  function fund(uint _fundingId) public payable {... */\n    tag_6:\n      tag_27\n      0x04\n      dup1\n      calldatasize\n      sub\n      dup2\n      add\n      swap1\n      tag_28\n      swap2\n      swap1\n      tag_11\n      jump\t// in\n    tag_28:\n      tag_29\n      jump\t// in\n    tag_27:\n      stop\n        /* \"hito2/hito2.sol\":606:633  donation[] public donations */\n    tag_7:\n      callvalue\n      dup1\n      iszero\n      tag_30\n      jumpi\n      0x00\n      dup1\n      revert\n    tag_30:\n      pop\n      tag_31\n      0x04\n      dup1\n      calldatasize\n      sub\n      dup2\n      add\n      swap1\n      tag_32\n      swap2\n      swap1\n      tag_11\n      jump\t// in\n    tag_32:\n      tag_33\n      jump\t// in\n    tag_31:\n      mload(0x40)\n      tag_34\n      swap4\n      swap3\n      swap2\n      swap1\n      tag_35\n      jump\t// in\n    tag_34:\n      mload(0x40)\n      dup1\n      swap2\n      sub\n      swap1\n      return\n        /* \"hito2/hito2.sol\":638:665  campaign[] public campaigns */\n    tag_12:\n      0x01\n      dup2\n      dup2\n      sload\n      dup2\n      lt\n      tag_36\n      jumpi\n      0x00\n      dup1\n      revert\n    tag_36:\n      swap1\n      0x00\n      mstore\n      keccak256(0x00, 0x20)\n      swap1\n      0x04\n      mul\n      add\n      0x00\n      swap2\n      pop\n      swap1\n      pop\n      dup1\n      0x00\n      add\n      sload\n      swap1\n      dup1\n      0x01\n      add\n      0x00\n      swap1\n      sload\n      swap1\n      0x0100\n      exp\n      swap1\n      div\n      0xffffffffffffffffffffffffffffffffffffffff\n      and\n      swap1\n      dup1\n      0x02\n      add\n      sload\n      swap1\n      dup1\n      0x03\n      add\n      0x00\n      swap1\n      sload\n      swap1\n      0x0100\n      exp\n      swap1\n      div\n      0xff\n      and\n      swap1\n      dup1\n      0x03\n      add\n      0x01\n      swap1\n      sload\n      swap1\n      0x0100\n      exp\n      swap1\n      div\n      0xff\n      and\n      swap1\n      pop\n      dup6\n      jump\t// out\n        /* \"hito2/hito2.sol\":2579:2891  function endFund(uint _fundingId) public{... */\n    tag_18:\n        /* \"hito2/hito2.sol\":2668:2673  false */\n      0x00\n        /* \"hito2/hito2.sol\":2637:2673  campaigns[_fundingId].closed ==false */\n      iszero\n      iszero\n        /* \"hito2/hito2.sol\":2637:2646  campaigns */\n      0x01\n        /* \"hito2/hito2.sol\":2647:2657  _fundingId */\n      dup3\n        /* \"hito2/hito2.sol\":2637:2658  campaigns[_fundingId] */\n      dup2\n      sload\n      dup2\n      lt\n      tag_39\n      jumpi\n      tag_40\n      tag_41\n      jump\t// in\n    tag_40:\n    tag_39:\n      swap1\n      0x00\n      mstore\n      keccak256(0x00, 0x20)\n      swap1\n      0x04\n      mul\n      add\n        /* \"hito2/hito2.sol\":2637:2665  campaigns[_fundingId].closed */\n      0x03\n      add\n      0x01\n      swap1\n      sload\n      swap1\n      0x0100\n      exp\n      swap1\n      div\n      0xff\n      and\n        /* \"hito2/hito2.sol\":2637:2673  campaigns[_fundingId].closed ==false */\n      iszero\n      iszero\n      eq\n        /* \"hito2/hito2.sol\":2629:2684  require(campaigns[_fundingId].closed ==false,\"Cerrado\") */\n      tag_43\n      jumpi\n      mload(0x40)\n      0x08c379a000000000000000000000000000000000000000000000000000000000\n      dup2\n      mstore\n      0x04\n      add\n      tag_44\n      swap1\n      tag_45\n      jump\t// in\n    tag_44:\n      mload(0x40)\n      dup1\n      swap2\n      sub\n      swap1\n      revert\n    tag_43:\n        /* \"hito2/hito2.sol\":2716:2725  campaigns */\n      0x01\n        /* \"hito2/hito2.sol\":2726:2736  _fundingId */\n      dup2\n        /* \"hito2/hito2.sol\":2716:2737  campaigns[_fundingId] */\n      dup2\n      sload\n      dup2\n      lt\n      tag_46\n      jumpi\n      tag_47\n      tag_41\n      jump\t// in\n    tag_47:\n    tag_46:\n      swap1\n      0x00\n      mstore\n      keccak256(0x00, 0x20)\n      swap1\n      0x04\n      mul\n      add\n        /* \"hito2/hito2.sol\":2716:2745  campaigns[_fundingId].creator */\n      0x01\n      add\n      0x00\n      swap1\n      sload\n      swap1\n      0x0100\n      exp\n      swap1\n      div\n      0xffffffffffffffffffffffffffffffffffffffff\n      and\n        /* \"hito2/hito2.sol\":2702:2745  msg.sender == campaigns[_fundingId].creator */\n      0xffffffffffffffffffffffffffffffffffffffff\n      and\n        /* \"hito2/hito2.sol\":2702:2712  msg.sender */\n      caller\n        /* \"hito2/hito2.sol\":2702:2745  msg.sender == campaigns[_fundingId].creator */\n      0xffffffffffffffffffffffffffffffffffffffff\n      and\n      eq\n        /* \"hito2/hito2.sol\":2694:2746  require(msg.sender == campaigns[_fundingId].creator) */\n      tag_49\n      jumpi\n      0x00\n      dup1\n      revert\n    tag_49:\n        /* \"hito2/hito2.sol\":2794:2799  false */\n      0x00\n        /* \"hito2/hito2.sol\":2764:2799  campaigns[_fundingId].ended ==false */\n      iszero\n      iszero\n        /* \"hito2/hito2.sol\":2764:2773  campaigns */\n      0x01\n        /* \"hito2/hito2.sol\":2774:2784  _fundingId */\n      dup3\n        /* \"hito2/hito2.sol\":2764:2785  campaigns[_fundingId] */\n      dup2\n      sload\n      dup2\n      lt\n      tag_50\n      jumpi\n      tag_51\n      tag_41\n      jump\t// in\n    tag_51:\n    tag_50:\n      swap1\n      0x00\n      mstore\n      keccak256(0x00, 0x20)\n      swap1\n      0x04\n      mul\n      add\n        /* \"hito2/hito2.sol\":2764:2791  campaigns[_fundingId].ended */\n      0x03\n      add\n      0x00\n      swap1\n      sload\n      swap1\n      0x0100\n      exp\n      swap1\n      div\n      0xff\n      and\n        /* \"hito2/hito2.sol\":2764:2799  campaigns[_fundingId].ended ==false */\n      iszero\n      iszero\n      eq\n        /* \"hito2/hito2.sol\":2756:2812  require(campaigns[_fundingId].ended ==false,\"Terminado\") */\n      tag_53\n      jumpi\n      mload(0x40)\n      0x08c379a000000000000000000000000000000000000000000000000000000000\n      dup2\n      mstore\n      0x04\n      add\n      tag_54\n      swap1\n      tag_55\n      jump\t// in\n    tag_54:\n      mload(0x40)\n      dup1\n      swap2\n      sub\n      swap1\n      revert\n    tag_53:\n        /* \"hito2/hito2.sol\":2853:2857  true */\n      0x01\n        /* \"hito2/hito2.sol\":2823:2832  campaigns */\n      dup1\n        /* \"hito2/hito2.sol\":2833:2843  _fundingId */\n      dup3\n        /* \"hito2/hito2.sol\":2823:2844  campaigns[_fundingId] */\n      dup2\n      sload\n      dup2\n      lt\n      tag_56\n      jumpi\n      tag_57\n      tag_41\n      jump\t// in\n    tag_57:\n    tag_56:\n      swap1\n      0x00\n      mstore\n      keccak256(0x00, 0x20)\n      swap1\n      0x04\n      mul\n      add\n        /* \"hito2/hito2.sol\":2823:2850  campaigns[_fundingId].ended */\n      0x03\n      add\n      0x00\n        /* \"hito2/hito2.sol\":2823:2857  campaigns[_fundingId].ended = true */\n      0x0100\n      exp\n      dup2\n      sload\n      dup2\n      0xff\n      mul\n      not\n      and\n      swap1\n      dup4\n      iszero\n      iszero\n      mul\n      or\n      swap1\n      sstore\n      pop\n        /* \"hito2/hito2.sol\":2873:2884  FundEnded() */\n      0x5579456f254abe3839da281d094dba193ef6572b2ba4e7b21d27abda3879f4d7\n      mload(0x40)\n      mload(0x40)\n      dup1\n      swap2\n      sub\n      swap1\n      log1\n        /* \"hito2/hito2.sol\":2579:2891  function endFund(uint _fundingId) public{... */\n      pop\n      jump\t// out\n        /* \"hito2/hito2.sol\":1807:2574  function removeFund(uint _fundingId) public {... */\n    tag_22:\n        /* \"hito2/hito2.sol\":1882:1891  campaigns */\n      0x01\n        /* \"hito2/hito2.sol\":1882:1898  campaigns.length */\n      dup1\n      sload\n      swap1\n      pop\n        /* \"hito2/hito2.sol\":1869:1879  _fundingId */\n      dup2\n        /* \"hito2/hito2.sol\":1869:1898  _fundingId < campaigns.length */\n      lt\n        /* \"hito2/hito2.sol\":1861:1916  require(_fundingId < campaigns.length, \"ID incorrecto\") */\n      tag_60\n      jumpi\n      mload(0x40)\n      0x08c379a000000000000000000000000000000000000000000000000000000000\n      dup2\n      mstore\n      0x04\n      add\n      tag_61\n      swap1\n      tag_62\n      jump\t// in\n    tag_61:\n      mload(0x40)\n      dup1\n      swap2\n      sub\n      swap1\n      revert\n    tag_60:\n        /* \"hito2/hito2.sol\":1964:1969  false */\n      0x00\n        /* \"hito2/hito2.sol\":1934:1969  campaigns[_fundingId].ended ==false */\n      iszero\n      iszero\n        /* \"hito2/hito2.sol\":1934:1943  campaigns */\n      0x01\n        /* \"hito2/hito2.sol\":1944:1954  _fundingId */\n      dup3\n        /* \"hito2/hito2.sol\":1934:1955  campaigns[_fundingId] */\n      dup2\n      sload\n      dup2\n      lt\n      tag_63\n      jumpi\n      tag_64\n      tag_41\n      jump\t// in\n    tag_64:\n    tag_63:\n      swap1\n      0x00\n      mstore\n      keccak256(0x00, 0x20)\n      swap1\n      0x04\n      mul\n      add\n        /* \"hito2/hito2.sol\":1934:1961  campaigns[_fundingId].ended */\n      0x03\n      add\n      0x00\n      swap1\n      sload\n      swap1\n      0x0100\n      exp\n      swap1\n      div\n      0xff\n      and\n        /* \"hito2/hito2.sol\":1934:1969  campaigns[_fundingId].ended ==false */\n      iszero\n      iszero\n      eq\n        /* \"hito2/hito2.sol\":1926:1982  require(campaigns[_fundingId].ended ==false,\"Terminado\") */\n      tag_66\n      jumpi\n      mload(0x40)\n      0x08c379a000000000000000000000000000000000000000000000000000000000\n      dup2\n      mstore\n      0x04\n      add\n      tag_67\n      swap1\n      tag_55\n      jump\t// in\n    tag_67:\n      mload(0x40)\n      dup1\n      swap2\n      sub\n      swap1\n      revert\n    tag_66:\n        /* \"hito2/hito2.sol\":2031:2036  false */\n      0x00\n        /* \"hito2/hito2.sol\":2000:2036  campaigns[_fundingId].closed ==false */\n      iszero\n      iszero\n        /* \"hito2/hito2.sol\":2000:2009  campaigns */\n      0x01\n        /* \"hito2/hito2.sol\":2010:2020  _fundingId */\n      dup3\n        /* \"hito2/hito2.sol\":2000:2021  campaigns[_fundingId] */\n      dup2\n      sload\n      dup2\n      lt\n      tag_68\n      jumpi\n      tag_69\n      tag_41\n      jump\t// in\n    tag_69:\n    tag_68:\n      swap1\n      0x00\n      mstore\n      keccak256(0x00, 0x20)\n      swap1\n      0x04\n      mul\n      add\n        /* \"hito2/hito2.sol\":2000:2028  campaigns[_fundingId].closed */\n      0x03\n      add\n      0x01\n      swap1\n      sload\n      swap1\n      0x0100\n      exp\n      swap1\n      div\n      0xff\n      and\n        /* \"hito2/hito2.sol\":2000:2036  campaigns[_fundingId].closed ==false */\n      iszero\n      iszero\n      eq\n        /* \"hito2/hito2.sol\":1992:2047  require(campaigns[_fundingId].closed ==false,\"Cerrado\") */\n      tag_71\n      jumpi\n      mload(0x40)\n      0x08c379a000000000000000000000000000000000000000000000000000000000\n      dup2\n      mstore\n      0x04\n      add\n      tag_72\n      swap1\n      tag_45\n      jump\t// in\n    tag_72:\n      mload(0x40)\n      dup1\n      swap2\n      sub\n      swap1\n      revert\n    tag_71:\n        /* \"hito2/hito2.sol\":2057:2077  uint256 refundAmount */\n      0x00\n        /* \"hito2/hito2.sol\":2097:2106  uint256 i */\n      dup1\n        /* \"hito2/hito2.sol\":2092:2341  for (uint256 i = 0; i < donations.length; i++) {... */\n    tag_73:\n        /* \"hito2/hito2.sol\":2116:2125  donations */\n      0x00\n        /* \"hito2/hito2.sol\":2116:2132  donations.length */\n      dup1\n      sload\n      swap1\n      pop\n        /* \"hito2/hito2.sol\":2112:2113  i */\n      dup2\n        /* \"hito2/hito2.sol\":2112:2132  i < donations.length */\n      lt\n        /* \"hito2/hito2.sol\":2092:2341  for (uint256 i = 0; i < donations.length; i++) {... */\n      iszero\n      tag_74\n      jumpi\n        /* \"hito2/hito2.sol\":2181:2191  msg.sender */\n      caller\n        /* \"hito2/hito2.sol\":2157:2191  donations[i].donator == msg.sender */\n      0xffffffffffffffffffffffffffffffffffffffff\n      and\n        /* \"hito2/hito2.sol\":2157:2166  donations */\n      0x00\n        /* \"hito2/hito2.sol\":2167:2168  i */\n      dup3\n        /* \"hito2/hito2.sol\":2157:2169  donations[i] */\n      dup2\n      sload\n      dup2\n      lt\n      tag_76\n      jumpi\n      tag_77\n      tag_41\n      jump\t// in\n    tag_77:\n    tag_76:\n      swap1\n      0x00\n      mstore\n      keccak256(0x00, 0x20)\n      swap1\n      0x03\n      mul\n      add\n        /* \"hito2/hito2.sol\":2157:2177  donations[i].donator */\n      0x00\n      add\n      0x00\n      swap1\n      sload\n      swap1\n      0x0100\n      exp\n      swap1\n      div\n      0xffffffffffffffffffffffffffffffffffffffff\n      and\n        /* \"hito2/hito2.sol\":2157:2191  donations[i].donator == msg.sender */\n      0xffffffffffffffffffffffffffffffffffffffff\n      and\n      eq\n        /* \"hito2/hito2.sol\":2157:2224  donations[i].donator == msg.sender && donations[i].id == _fundingId */\n      dup1\n      iszero\n      tag_79\n      jumpi\n      pop\n        /* \"hito2/hito2.sol\":2214:2224  _fundingId */\n      dup3\n        /* \"hito2/hito2.sol\":2195:2204  donations */\n      0x00\n        /* \"hito2/hito2.sol\":2205:2206  i */\n      dup3\n        /* \"hito2/hito2.sol\":2195:2207  donations[i] */\n      dup2\n      sload\n      dup2\n      lt\n      tag_80\n      jumpi\n      tag_81\n      tag_41\n      jump\t// in\n    tag_81:\n    tag_80:\n      swap1\n      0x00\n      mstore\n      keccak256(0x00, 0x20)\n      swap1\n      0x03\n      mul\n      add\n        /* \"hito2/hito2.sol\":2195:2210  donations[i].id */\n      0x02\n      add\n      sload\n        /* \"hito2/hito2.sol\":2195:2224  donations[i].id == _fundingId */\n      eq\n        /* \"hito2/hito2.sol\":2157:2224  donations[i].donator == msg.sender && donations[i].id == _fundingId */\n    tag_79:\n        /* \"hito2/hito2.sol\":2153:2331  if (donations[i].donator == msg.sender && donations[i].id == _fundingId) {... */\n      iszero\n      tag_83\n      jumpi\n        /* \"hito2/hito2.sol\":2260:2269  donations */\n      0x00\n        /* \"hito2/hito2.sol\":2270:2271  i */\n      dup2\n        /* \"hito2/hito2.sol\":2260:2272  donations[i] */\n      dup2\n      sload\n      dup2\n      lt\n      tag_84\n      jumpi\n      tag_85\n      tag_41\n      jump\t// in\n    tag_85:\n    tag_84:\n      swap1\n      0x00\n      mstore\n      keccak256(0x00, 0x20)\n      swap1\n      0x03\n      mul\n      add\n        /* \"hito2/hito2.sol\":2260:2279  donations[i].amount */\n      0x01\n      add\n      sload\n        /* \"hito2/hito2.sol\":2244:2279  refundAmount += donations[i].amount */\n      dup3\n      tag_87\n      swap2\n      swap1\n      tag_88\n      jump\t// in\n    tag_87:\n      swap2\n      pop\n        /* \"hito2/hito2.sol\":2304:2313  donations */\n      0x00\n        /* \"hito2/hito2.sol\":2314:2315  i */\n      dup2\n        /* \"hito2/hito2.sol\":2304:2316  donations[i] */\n      dup2\n      sload\n      dup2\n      lt\n      tag_89\n      jumpi\n      tag_90\n      tag_41\n      jump\t// in\n    tag_90:\n    tag_89:\n      swap1\n      0x00\n      mstore\n      keccak256(0x00, 0x20)\n      swap1\n      0x03\n      mul\n      add\n      0x00\n        /* \"hito2/hito2.sol\":2297:2316  delete donations[i] */\n      dup1\n      dup3\n      add\n      exp(0x0100, 0x00)\n      dup2\n      sload\n      swap1\n      0xffffffffffffffffffffffffffffffffffffffff\n      mul\n      not\n      and\n      swap1\n      sstore\n      0x01\n      dup3\n      add\n      0x00\n      swap1\n      sstore\n      0x02\n      dup3\n      add\n      0x00\n      swap1\n      sstore\n      pop\n      pop\n        /* \"hito2/hito2.sol\":2153:2331  if (donations[i].donator == msg.sender && donations[i].id == _fundingId) {... */\n    tag_83:\n        /* \"hito2/hito2.sol\":2134:2137  i++ */\n      dup1\n      dup1\n      tag_92\n      swap1\n      tag_93\n      jump\t// in\n    tag_92:\n      swap2\n      pop\n      pop\n        /* \"hito2/hito2.sol\":2092:2341  for (uint256 i = 0; i < donations.length; i++) {... */\n      jump(tag_73)\n    tag_74:\n      pop\n        /* \"hito2/hito2.sol\":2374:2375  0 */\n      0x00\n        /* \"hito2/hito2.sol\":2359:2371  refundAmount */\n      dup2\n        /* \"hito2/hito2.sol\":2359:2375  refundAmount > 0 */\n      gt\n        /* \"hito2/hito2.sol\":2351:2405  require(refundAmount > 0, \"No hay fondos que retirar\") */\n      tag_94\n      jumpi\n      mload(0x40)\n      0x08c379a000000000000000000000000000000000000000000000000000000000\n      dup2\n      mstore\n      0x04\n      add\n      tag_95\n      swap1\n      tag_96\n      jump\t// in\n    tag_95:\n      mload(0x40)\n      dup1\n      swap2\n      sub\n      swap1\n      revert\n    tag_94:\n        /* \"hito2/hito2.sol\":2439:2451  refundAmount */\n      dup1\n        /* \"hito2/hito2.sol\":2416:2423  amounts */\n      0x02\n        /* \"hito2/hito2.sol\":2416:2435  amounts[_fundingId] */\n      0x00\n        /* \"hito2/hito2.sol\":2424:2434  _fundingId */\n      dup5\n        /* \"hito2/hito2.sol\":2416:2435  amounts[_fundingId] */\n      dup2\n      mstore\n      0x20\n      add\n      swap1\n      dup2\n      mstore\n      0x20\n      add\n      0x00\n      keccak256\n      0x00\n        /* \"hito2/hito2.sol\":2416:2451  amounts[_fundingId] -= refundAmount */\n      dup3\n      dup3\n      sload\n      tag_97\n      swap2\n      swap1\n      tag_98\n      jump\t// in\n    tag_97:\n      swap3\n      pop\n      pop\n      dup2\n      swap1\n      sstore\n      pop\n        /* \"hito2/hito2.sol\":2469:2479  msg.sender */\n      caller\n        /* \"hito2/hito2.sol\":2461:2489  payable(msg.sender).transfer */\n      0xffffffffffffffffffffffffffffffffffffffff\n      and\n        /* \"hito2/hito2.sol\":2461:2503  payable(msg.sender).transfer(refundAmount) */\n      0x08fc\n        /* \"hito2/hito2.sol\":2490:2502  refundAmount */\n      dup3\n        /* \"hito2/hito2.sol\":2461:2503  payable(msg.sender).transfer(refundAmount) */\n      swap1\n      dup2\n      iszero\n      mul\n      swap1\n      mload(0x40)\n      0x00\n      mload(0x40)\n      dup1\n      dup4\n      sub\n      dup2\n      dup6\n      dup9\n      dup9\n      call\n      swap4\n      pop\n      pop\n      pop\n      pop\n      iszero\n      dup1\n      iszero\n      tag_100\n      jumpi\n      returndatasize\n      0x00\n      dup1\n      returndatacopy\n      revert(0x00, returndatasize)\n    tag_100:\n      pop\n        /* \"hito2/hito2.sol\":2519:2571  RemoveDonation(msg.sender, refundAmount, _fundingId) */\n      0x2f0e46a202460f7a9cd67d82c93e5b7caaa58eedb8b7b8bb139cd384ccae9164\n        /* \"hito2/hito2.sol\":2534:2544  msg.sender */\n      caller\n        /* \"hito2/hito2.sol\":2546:2558  refundAmount */\n      dup3\n        /* \"hito2/hito2.sol\":2560:2570  _fundingId */\n      dup5\n        /* \"hito2/hito2.sol\":2519:2571  RemoveDonation(msg.sender, refundAmount, _fundingId) */\n      mload(0x40)\n      tag_101\n      swap4\n      swap3\n      swap2\n      swap1\n      tag_35\n      jump\t// in\n    tag_101:\n      mload(0x40)\n      dup1\n      swap2\n      sub\n      swap1\n      log1\n        /* \"hito2/hito2.sol\":1851:2574  {... */\n      pop\n        /* \"hito2/hito2.sol\":1807:2574  function removeFund(uint _fundingId) public {... */\n      pop\n      jump\t// out\n        /* \"hito2/hito2.sol\":717:1150  function createFunding(uint _goal) public {... */\n    tag_26:\n        /* \"hito2/hito2.sol\":769:784  address creator */\n      0x00\n        /* \"hito2/hito2.sol\":787:797  msg.sender */\n      caller\n        /* \"hito2/hito2.sol\":769:797  address creator = msg.sender */\n      swap1\n      pop\n        /* \"hito2/hito2.sol\":807:819  uint256 goal */\n      0x00\n        /* \"hito2/hito2.sol\":822:827  _goal */\n      dup3\n        /* \"hito2/hito2.sol\":807:827  uint256 goal = _goal */\n      swap1\n      pop\n        /* \"hito2/hito2.sol\":837:847  uint256 id */\n      0x00\n        /* \"hito2/hito2.sol\":850:859  campaigns */\n      0x01\n        /* \"hito2/hito2.sol\":850:866  campaigns.length */\n      dup1\n      sload\n      swap1\n      pop\n        /* \"hito2/hito2.sol\":837:866  uint256 id = campaigns.length */\n      swap1\n      pop\n        /* \"hito2/hito2.sol\":876:903  campaign memory newCampaign */\n      0x00\n        /* \"hito2/hito2.sol\":906:1053  campaign({... */\n      mload(0x40)\n      dup1\n      0xa0\n      add\n      0x40\n      mstore\n      dup1\n        /* \"hito2/hito2.sol\":935:939  goal */\n      dup5\n        /* \"hito2/hito2.sol\":906:1053  campaign({... */\n      dup2\n      mstore\n      0x20\n      add\n        /* \"hito2/hito2.sol\":962:969  creator */\n      dup6\n        /* \"hito2/hito2.sol\":906:1053  campaign({... */\n      0xffffffffffffffffffffffffffffffffffffffff\n      and\n      dup2\n      mstore\n      0x20\n      add\n        /* \"hito2/hito2.sol\":987:989  id */\n      dup4\n        /* \"hito2/hito2.sol\":906:1053  campaign({... */\n      dup2\n      mstore\n      0x20\n      add\n        /* \"hito2/hito2.sol\":1010:1015  false */\n      0x00\n        /* \"hito2/hito2.sol\":906:1053  campaign({... */\n      iszero\n      iszero\n      dup2\n      mstore\n      0x20\n      add\n        /* \"hito2/hito2.sol\":1037:1042  false */\n      0x00\n        /* \"hito2/hito2.sol\":906:1053  campaign({... */\n      iszero\n      iszero\n      dup2\n      mstore\n      pop\n        /* \"hito2/hito2.sol\":876:1053  campaign memory newCampaign = campaign({... */\n      swap1\n      pop\n        /* \"hito2/hito2.sol\":1063:1072  campaigns */\n      0x01\n        /* \"hito2/hito2.sol\":1078:1089  newCampaign */\n      dup2\n        /* \"hito2/hito2.sol\":1063:1090  campaigns.push(newCampaign) */\n      swap1\n      dup1\n      0x01\n      dup2\n      sload\n      add\n      dup1\n      dup3\n      sstore\n      dup1\n      swap2\n      pop\n      pop\n      0x01\n      swap1\n      sub\n      swap1\n      0x00\n      mstore\n      keccak256(0x00, 0x20)\n      swap1\n      0x04\n      mul\n      add\n      0x00\n      swap1\n      swap2\n      swap1\n      swap2\n      swap1\n      swap2\n      pop\n      0x00\n      dup3\n      add\n      mload\n      dup2\n      0x00\n      add\n      sstore\n      0x20\n      dup3\n      add\n      mload\n      dup2\n      0x01\n      add\n      exp(0x0100, 0x00)\n      dup2\n      sload\n      dup2\n      0xffffffffffffffffffffffffffffffffffffffff\n      mul\n      not\n      and\n      swap1\n      dup4\n      0xffffffffffffffffffffffffffffffffffffffff\n      and\n      mul\n      or\n      swap1\n      sstore\n      pop\n      0x40\n      dup3\n      add\n      mload\n      dup2\n      0x02\n      add\n      sstore\n      0x60\n      dup3\n      add\n      mload\n      dup2\n      0x03\n      add\n      exp(0x0100, 0x00)\n      dup2\n      sload\n      dup2\n      0xff\n      mul\n      not\n      and\n      swap1\n      dup4\n      iszero\n      iszero\n      mul\n      or\n      swap1\n      sstore\n      pop\n      0x80\n      dup3\n      add\n      mload\n      dup2\n      0x03\n      add\n      exp(0x0100, 0x01)\n      dup2\n      sload\n      dup2\n      0xff\n      mul\n      not\n      and\n      swap1\n      dup4\n      iszero\n      iszero\n      mul\n      or\n      swap1\n      sstore\n      pop\n      pop\n      pop\n        /* \"hito2/hito2.sol\":1114:1142  FundCreated(creator,goal,id) */\n      0xf18ce1b70b1a4044491b54196c83d95e67aae09483ce0d2e1c2a8189faca7644\n        /* \"hito2/hito2.sol\":1126:1133  creator */\n      dup5\n        /* \"hito2/hito2.sol\":1134:1138  goal */\n      dup5\n        /* \"hito2/hito2.sol\":1139:1141  id */\n      dup5\n        /* \"hito2/hito2.sol\":1114:1142  FundCreated(creator,goal,id) */\n      mload(0x40)\n      tag_104\n      swap4\n      swap3\n      swap2\n      swap1\n      tag_35\n      jump\t// in\n    tag_104:\n      mload(0x40)\n      dup1\n      swap2\n      sub\n      swap1\n      log1\n        /* \"hito2/hito2.sol\":759:1150  {... */\n      pop\n      pop\n      pop\n      pop\n        /* \"hito2/hito2.sol\":717:1150  function createFunding(uint _goal) public {... */\n      pop\n      jump\t// out\n        /* \"hito2/hito2.sol\":1157:1801  function fund(uint _fundingId) public payable {... */\n    tag_29:\n        /* \"hito2/hito2.sol\":1251:1256  false */\n      0x00\n        /* \"hito2/hito2.sol\":1221:1256  campaigns[_fundingId].ended ==false */\n      iszero\n      iszero\n        /* \"hito2/hito2.sol\":1221:1230  campaigns */\n      0x01\n        /* \"hito2/hito2.sol\":1231:1241  _fundingId */\n      dup3\n        /* \"hito2/hito2.sol\":1221:1242  campaigns[_fundingId] */\n      dup2\n      sload\n      dup2\n      lt\n      tag_106\n      jumpi\n      tag_107\n      tag_41\n      jump\t// in\n    tag_107:\n    tag_106:\n      swap1\n      0x00\n      mstore\n      keccak256(0x00, 0x20)\n      swap1\n      0x04\n      mul\n      add\n        /* \"hito2/hito2.sol\":1221:1248  campaigns[_fundingId].ended */\n      0x03\n      add\n      0x00\n      swap1\n      sload\n      swap1\n      0x0100\n      exp\n      swap1\n      div\n      0xff\n      and\n        /* \"hito2/hito2.sol\":1221:1256  campaigns[_fundingId].ended ==false */\n      iszero\n      iszero\n      eq\n        /* \"hito2/hito2.sol\":1213:1269  require(campaigns[_fundingId].ended ==false,\"Terminado\") */\n      tag_109\n      jumpi\n      mload(0x40)\n      0x08c379a000000000000000000000000000000000000000000000000000000000\n      dup2\n      mstore\n      0x04\n      add\n      tag_110\n      swap1\n      tag_55\n      jump\t// in\n    tag_110:\n      mload(0x40)\n      dup1\n      swap2\n      sub\n      swap1\n      revert\n    tag_109:\n        /* \"hito2/hito2.sol\":1318:1323  false */\n      0x00\n        /* \"hito2/hito2.sol\":1287:1323  campaigns[_fundingId].closed ==false */\n      iszero\n      iszero\n        /* \"hito2/hito2.sol\":1287:1296  campaigns */\n      0x01\n        /* \"hito2/hito2.sol\":1297:1307  _fundingId */\n      dup3\n        /* \"hito2/hito2.sol\":1287:1308  campaigns[_fundingId] */\n      dup2\n      sload\n      dup2\n      lt\n      tag_111\n      jumpi\n      tag_112\n      tag_41\n      jump\t// in\n    tag_112:\n    tag_111:\n      swap1\n      0x00\n      mstore\n      keccak256(0x00, 0x20)\n      swap1\n      0x04\n      mul\n      add\n        /* \"hito2/hito2.sol\":1287:1315  campaigns[_fundingId].closed */\n      0x03\n      add\n      0x01\n      swap1\n      sload\n      swap1\n      0x0100\n      exp\n      swap1\n      div\n      0xff\n      and\n        /* \"hito2/hito2.sol\":1287:1323  campaigns[_fundingId].closed ==false */\n      iszero\n      iszero\n      eq\n        /* \"hito2/hito2.sol\":1279:1334  require(campaigns[_fundingId].closed ==false,\"Cerrado\") */\n      tag_114\n      jumpi\n      mload(0x40)\n      0x08c379a000000000000000000000000000000000000000000000000000000000\n      dup2\n      mstore\n      0x04\n      add\n      tag_115\n      swap1\n      tag_45\n      jump\t// in\n    tag_115:\n      mload(0x40)\n      dup1\n      swap2\n      sub\n      swap1\n      revert\n    tag_114:\n        /* \"hito2/hito2.sol\":1365:1374  campaigns */\n      0x01\n        /* \"hito2/hito2.sol\":1365:1381  campaigns.length */\n      dup1\n      sload\n      swap1\n      pop\n        /* \"hito2/hito2.sol\":1352:1362  _fundingId */\n      dup2\n        /* \"hito2/hito2.sol\":1352:1381  _fundingId < campaigns.length */\n      lt\n        /* \"hito2/hito2.sol\":1344:1399  require(_fundingId < campaigns.length, \"ID incorrecto\") */\n      tag_116\n      jumpi\n      mload(0x40)\n      0x08c379a000000000000000000000000000000000000000000000000000000000\n      dup2\n      mstore\n      0x04\n      add\n      tag_117\n      swap1\n      tag_62\n      jump\t// in\n    tag_117:\n      mload(0x40)\n      dup1\n      swap2\n      sub\n      swap1\n      revert\n    tag_116:\n        /* \"hito2/hito2.sol\":1409:1423  uint256 amount */\n      0x00\n        /* \"hito2/hito2.sol\":1426:1435  msg.value */\n      callvalue\n        /* \"hito2/hito2.sol\":1409:1435  uint256 amount = msg.value */\n      swap1\n      pop\n        /* \"hito2/hito2.sol\":1445:1460  address donator */\n      0x00\n        /* \"hito2/hito2.sol\":1463:1473  msg.sender */\n      caller\n        /* \"hito2/hito2.sol\":1445:1473  address donator = msg.sender */\n      swap1\n      pop\n        /* \"hito2/hito2.sol\":1483:1493  uint256 id */\n      0x00\n        /* \"hito2/hito2.sol\":1496:1506  _fundingId */\n      dup4\n        /* \"hito2/hito2.sol\":1483:1506  uint256 id = _fundingId */\n      swap1\n      pop\n        /* \"hito2/hito2.sol\":1559:1565  amount */\n      dup3\n        /* \"hito2/hito2.sol\":1545:1552  amounts */\n      0x02\n        /* \"hito2/hito2.sol\":1545:1556  amounts[id] */\n      0x00\n        /* \"hito2/hito2.sol\":1553:1555  id */\n      dup4\n        /* \"hito2/hito2.sol\":1545:1556  amounts[id] */\n      dup2\n      mstore\n      0x20\n      add\n      swap1\n      dup2\n      mstore\n      0x20\n      add\n      0x00\n      keccak256\n      sload\n        /* \"hito2/hito2.sol\":1545:1565  amounts[id] + amount */\n      tag_118\n      swap2\n      swap1\n      tag_88\n      jump\t// in\n    tag_118:\n        /* \"hito2/hito2.sol\":1524:1533  campaigns */\n      0x01\n        /* \"hito2/hito2.sol\":1534:1536  id */\n      dup3\n        /* \"hito2/hito2.sol\":1524:1537  campaigns[id] */\n      dup2\n      sload\n      dup2\n      lt\n      tag_119\n      jumpi\n      tag_120\n      tag_41\n      jump\t// in\n    tag_120:\n    tag_119:\n      swap1\n      0x00\n      mstore\n      keccak256(0x00, 0x20)\n      swap1\n      0x04\n      mul\n      add\n        /* \"hito2/hito2.sol\":1524:1542  campaigns[id].goal */\n      0x00\n      add\n      sload\n        /* \"hito2/hito2.sol\":1524:1565  campaigns[id].goal > amounts[id] + amount */\n      gt\n        /* \"hito2/hito2.sol\":1516:1614  require(campaigns[id].goal > amounts[id] + amount, \"La meta de financiamiento ya se ha alcanzado\") */\n      tag_122\n      jumpi\n      mload(0x40)\n      0x08c379a000000000000000000000000000000000000000000000000000000000\n      dup2\n      mstore\n      0x04\n      add\n      tag_123\n      swap1\n      tag_124\n      jump\t// in\n    tag_123:\n      mload(0x40)\n      dup1\n      swap2\n      sub\n      swap1\n      revert\n    tag_122:\n        /* \"hito2/hito2.sol\":1625:1652  donation memory newDonation */\n      0x00\n        /* \"hito2/hito2.sol\":1655:1682  donation(donator,amount,id) */\n      mload(0x40)\n      dup1\n      0x60\n      add\n      0x40\n      mstore\n      dup1\n        /* \"hito2/hito2.sol\":1664:1671  donator */\n      dup5\n        /* \"hito2/hito2.sol\":1655:1682  donation(donator,amount,id) */\n      0xffffffffffffffffffffffffffffffffffffffff\n      and\n      dup2\n      mstore\n      0x20\n      add\n        /* \"hito2/hito2.sol\":1672:1678  amount */\n      dup6\n        /* \"hito2/hito2.sol\":1655:1682  donation(donator,amount,id) */\n      dup2\n      mstore\n      0x20\n      add\n        /* \"hito2/hito2.sol\":1679:1681  id */\n      dup4\n        /* \"hito2/hito2.sol\":1655:1682  donation(donator,amount,id) */\n      dup2\n      mstore\n      pop\n        /* \"hito2/hito2.sol\":1625:1682  donation memory newDonation = donation(donator,amount,id) */\n      swap1\n      pop\n        /* \"hito2/hito2.sol\":1692:1701  donations */\n      0x00\n        /* \"hito2/hito2.sol\":1707:1718  newDonation */\n      dup2\n        /* \"hito2/hito2.sol\":1692:1719  donations.push(newDonation) */\n      swap1\n      dup1\n      0x01\n      dup2\n      sload\n      add\n      dup1\n      dup3\n      sstore\n      dup1\n      swap2\n      pop\n      pop\n      0x01\n      swap1\n      sub\n      swap1\n      0x00\n      mstore\n      keccak256(0x00, 0x20)\n      swap1\n      0x03\n      mul\n      add\n      0x00\n      swap1\n      swap2\n      swap1\n      swap2\n      swap1\n      swap2\n      pop\n      0x00\n      dup3\n      add\n      mload\n      dup2\n      0x00\n      add\n      exp(0x0100, 0x00)\n      dup2\n      sload\n      dup2\n      0xffffffffffffffffffffffffffffffffffffffff\n      mul\n      not\n      and\n      swap1\n      dup4\n      0xffffffffffffffffffffffffffffffffffffffff\n      and\n      mul\n      or\n      swap1\n      sstore\n      pop\n      0x20\n      dup3\n      add\n      mload\n      dup2\n      0x01\n      add\n      sstore\n      0x40\n      dup3\n      add\n      mload\n      dup2\n      0x02\n      add\n      sstore\n      pop\n      pop\n        /* \"hito2/hito2.sol\":1745:1751  amount */\n      dup4\n        /* \"hito2/hito2.sol\":1730:1737  amounts */\n      0x02\n        /* \"hito2/hito2.sol\":1730:1741  amounts[id] */\n      0x00\n        /* \"hito2/hito2.sol\":1738:1740  id */\n      dup5\n        /* \"hito2/hito2.sol\":1730:1741  amounts[id] */\n      dup2\n      mstore\n      0x20\n      add\n      swap1\n      dup2\n      mstore\n      0x20\n      add\n      0x00\n      keccak256\n      0x00\n        /* \"hito2/hito2.sol\":1730:1751  amounts[id] += amount */\n      dup3\n      dup3\n      sload\n      tag_126\n      swap2\n      swap1\n      tag_88\n      jump\t// in\n    tag_126:\n      swap3\n      pop\n      pop\n      dup2\n      swap1\n      sstore\n      pop\n        /* \"hito2/hito2.sol\":1767:1794  Donation(donator,amount,id) */\n      0x106aac375bbcf013d1e52338bbf9e740009a1a3a6869f8daa1b72aa1620f5fec\n        /* \"hito2/hito2.sol\":1776:1783  donator */\n      dup4\n        /* \"hito2/hito2.sol\":1784:1790  amount */\n      dup6\n        /* \"hito2/hito2.sol\":1791:1793  id */\n      dup5\n        /* \"hito2/hito2.sol\":1767:1794  Donation(donator,amount,id) */\n      mload(0x40)\n      tag_127\n      swap4\n      swap3\n      swap2\n      swap1\n      tag_35\n      jump\t// in\n    tag_127:\n      mload(0x40)\n      dup1\n      swap2\n      sub\n      swap1\n      log1\n        /* \"hito2/hito2.sol\":1203:1801  {... */\n      pop\n      pop\n      pop\n      pop\n        /* \"hito2/hito2.sol\":1157:1801  function fund(uint _fundingId) public payable {... */\n      pop\n      jump\t// out\n        /* \"hito2/hito2.sol\":606:633  donation[] public donations */\n    tag_33:\n      0x00\n      dup2\n      dup2\n      sload\n      dup2\n      lt\n      tag_128\n      jumpi\n      0x00\n      dup1\n      revert\n    tag_128:\n      swap1\n      0x00\n      mstore\n      keccak256(0x00, 0x20)\n      swap1\n      0x03\n      mul\n      add\n      0x00\n      swap2\n      pop\n      swap1\n      pop\n      dup1\n      0x00\n      add\n      0x00\n      swap1\n      sload\n      swap1\n      0x0100\n      exp\n      swap1\n      div\n      0xffffffffffffffffffffffffffffffffffffffff\n      and\n      swap1\n      dup1\n      0x01\n      add\n      sload\n      swap1\n      dup1\n      0x02\n      add\n      sload\n      swap1\n      pop\n      dup4\n      jump\t// out\n        /* \"#utility.yul\":88:205   */\n    tag_131:\n        /* \"#utility.yul\":197:198   */\n      0x00\n        /* \"#utility.yul\":194:195   */\n      dup1\n        /* \"#utility.yul\":187:199   */\n      revert\n        /* \"#utility.yul\":334:411   */\n    tag_133:\n        /* \"#utility.yul\":371:378   */\n      0x00\n        /* \"#utility.yul\":400:405   */\n      dup2\n        /* \"#utility.yul\":389:405   */\n      swap1\n      pop\n        /* \"#utility.yul\":334:411   */\n      swap2\n      swap1\n      pop\n      jump\t// out\n        /* \"#utility.yul\":417:539   */\n    tag_134:\n        /* \"#utility.yul\":490:514   */\n      tag_160\n        /* \"#utility.yul\":508:513   */\n      dup2\n        /* \"#utility.yul\":490:514   */\n      tag_133\n      jump\t// in\n    tag_160:\n        /* \"#utility.yul\":483:488   */\n      dup2\n        /* \"#utility.yul\":480:515   */\n      eq\n        /* \"#utility.yul\":470:533   */\n      tag_161\n      jumpi\n        /* \"#utility.yul\":529:530   */\n      0x00\n        /* \"#utility.yul\":526:527   */\n      dup1\n        /* \"#utility.yul\":519:531   */\n      revert\n        /* \"#utility.yul\":470:533   */\n    tag_161:\n        /* \"#utility.yul\":417:539   */\n      pop\n      jump\t// out\n        /* \"#utility.yul\":545:684   */\n    tag_135:\n        /* \"#utility.yul\":591:596   */\n      0x00\n        /* \"#utility.yul\":629:635   */\n      dup2\n        /* \"#utility.yul\":616:636   */\n      calldataload\n        /* \"#utility.yul\":607:636   */\n      swap1\n      pop\n        /* \"#utility.yul\":645:678   */\n      tag_163\n        /* \"#utility.yul\":672:677   */\n      dup2\n        /* \"#utility.yul\":645:678   */\n      tag_134\n      jump\t// in\n    tag_163:\n        /* \"#utility.yul\":545:684   */\n      swap3\n      swap2\n      pop\n      pop\n      jump\t// out\n        /* \"#utility.yul\":690:1019   */\n    tag_11:\n        /* \"#utility.yul\":749:755   */\n      0x00\n        /* \"#utility.yul\":798:800   */\n      0x20\n        /* \"#utility.yul\":786:795   */\n      dup3\n        /* \"#utility.yul\":777:784   */\n      dup5\n        /* \"#utility.yul\":773:796   */\n      sub\n        /* \"#utility.yul\":769:801   */\n      slt\n        /* \"#utility.yul\":766:885   */\n      iszero\n      tag_165\n      jumpi\n        /* \"#utility.yul\":804:883   */\n      tag_166\n      tag_131\n      jump\t// in\n    tag_166:\n        /* \"#utility.yul\":766:885   */\n    tag_165:\n        /* \"#utility.yul\":924:925   */\n      0x00\n        /* \"#utility.yul\":949:1002   */\n      tag_167\n        /* \"#utility.yul\":994:1001   */\n      dup5\n        /* \"#utility.yul\":985:991   */\n      dup3\n        /* \"#utility.yul\":974:983   */\n      dup6\n        /* \"#utility.yul\":970:992   */\n      add\n        /* \"#utility.yul\":949:1002   */\n      tag_135\n      jump\t// in\n    tag_167:\n        /* \"#utility.yul\":939:1002   */\n      swap2\n      pop\n        /* \"#utility.yul\":895:1012   */\n      pop\n        /* \"#utility.yul\":690:1019   */\n      swap3\n      swap2\n      pop\n      pop\n      jump\t// out\n        /* \"#utility.yul\":1025:1143   */\n    tag_136:\n        /* \"#utility.yul\":1112:1136   */\n      tag_169\n        /* \"#utility.yul\":1130:1135   */\n      dup2\n        /* \"#utility.yul\":1112:1136   */\n      tag_133\n      jump\t// in\n    tag_169:\n        /* \"#utility.yul\":1107:1110   */\n      dup3\n        /* \"#utility.yul\":1100:1137   */\n      mstore\n        /* \"#utility.yul\":1025:1143   */\n      pop\n      pop\n      jump\t// out\n        /* \"#utility.yul\":1149:1275   */\n    tag_137:\n        /* \"#utility.yul\":1186:1193   */\n      0x00\n        /* \"#utility.yul\":1226:1268   */\n      0xffffffffffffffffffffffffffffffffffffffff\n        /* \"#utility.yul\":1219:1224   */\n      dup3\n        /* \"#utility.yul\":1215:1269   */\n      and\n        /* \"#utility.yul\":1204:1269   */\n      swap1\n      pop\n        /* \"#utility.yul\":1149:1275   */\n      swap2\n      swap1\n      pop\n      jump\t// out\n        /* \"#utility.yul\":1281:1377   */\n    tag_138:\n        /* \"#utility.yul\":1318:1325   */\n      0x00\n        /* \"#utility.yul\":1347:1371   */\n      tag_172\n        /* \"#utility.yul\":1365:1370   */\n      dup3\n        /* \"#utility.yul\":1347:1371   */\n      tag_137\n      jump\t// in\n    tag_172:\n        /* \"#utility.yul\":1336:1371   */\n      swap1\n      pop\n        /* \"#utility.yul\":1281:1377   */\n      swap2\n      swap1\n      pop\n      jump\t// out\n        /* \"#utility.yul\":1383:1501   */\n    tag_139:\n        /* \"#utility.yul\":1470:1494   */\n      tag_174\n        /* \"#utility.yul\":1488:1493   */\n      dup2\n        /* \"#utility.yul\":1470:1494   */\n      tag_138\n      jump\t// in\n    tag_174:\n        /* \"#utility.yul\":1465:1468   */\n      dup3\n        /* \"#utility.yul\":1458:1495   */\n      mstore\n        /* \"#utility.yul\":1383:1501   */\n      pop\n      pop\n      jump\t// out\n        /* \"#utility.yul\":1507:1597   */\n    tag_140:\n        /* \"#utility.yul\":1541:1548   */\n      0x00\n        /* \"#utility.yul\":1584:1589   */\n      dup2\n        /* \"#utility.yul\":1577:1590   */\n      iszero\n        /* \"#utility.yul\":1570:1591   */\n      iszero\n        /* \"#utility.yul\":1559:1591   */\n      swap1\n      pop\n        /* \"#utility.yul\":1507:1597   */\n      swap2\n      swap1\n      pop\n      jump\t// out\n        /* \"#utility.yul\":1603:1712   */\n    tag_141:\n        /* \"#utility.yul\":1684:1705   */\n      tag_177\n        /* \"#utility.yul\":1699:1704   */\n      dup2\n        /* \"#utility.yul\":1684:1705   */\n      tag_140\n      jump\t// in\n    tag_177:\n        /* \"#utility.yul\":1679:1682   */\n      dup3\n        /* \"#utility.yul\":1672:1706   */\n      mstore\n        /* \"#utility.yul\":1603:1712   */\n      pop\n      pop\n      jump\t// out\n        /* \"#utility.yul\":1718:2358   */\n    tag_14:\n        /* \"#utility.yul\":1911:1915   */\n      0x00\n        /* \"#utility.yul\":1949:1952   */\n      0xa0\n        /* \"#utility.yul\":1938:1947   */\n      dup3\n        /* \"#utility.yul\":1934:1953   */\n      add\n        /* \"#utility.yul\":1926:1953   */\n      swap1\n      pop\n        /* \"#utility.yul\":1963:2034   */\n      tag_179\n        /* \"#utility.yul\":2031:2032   */\n      0x00\n        /* \"#utility.yul\":2020:2029   */\n      dup4\n        /* \"#utility.yul\":2016:2033   */\n      add\n        /* \"#utility.yul\":2007:2013   */\n      dup9\n        /* \"#utility.yul\":1963:2034   */\n      tag_136\n      jump\t// in\n    tag_179:\n        /* \"#utility.yul\":2044:2116   */\n      tag_180\n        /* \"#utility.yul\":2112:2114   */\n      0x20\n        /* \"#utility.yul\":2101:2110   */\n      dup4\n        /* \"#utility.yul\":2097:2115   */\n      add\n        /* \"#utility.yul\":2088:2094   */\n      dup8\n        /* \"#utility.yul\":2044:2116   */\n      tag_139\n      jump\t// in\n    tag_180:\n        /* \"#utility.yul\":2126:2198   */\n      tag_181\n        /* \"#utility.yul\":2194:2196   */\n      0x40\n        /* \"#utility.yul\":2183:2192   */\n      dup4\n        /* \"#utility.yul\":2179:2197   */\n      add\n        /* \"#utility.yul\":2170:2176   */\n      dup7\n        /* \"#utility.yul\":2126:2198   */\n      tag_136\n      jump\t// in\n    tag_181:\n        /* \"#utility.yul\":2208:2274   */\n      tag_182\n        /* \"#utility.yul\":2270:2272   */\n      0x60\n        /* \"#utility.yul\":2259:2268   */\n      dup4\n        /* \"#utility.yul\":2255:2273   */\n      add\n        /* \"#utility.yul\":2246:2252   */\n      dup6\n        /* \"#utility.yul\":2208:2274   */\n      tag_141\n      jump\t// in\n    tag_182:\n        /* \"#utility.yul\":2284:2351   */\n      tag_183\n        /* \"#utility.yul\":2346:2349   */\n      0x80\n        /* \"#utility.yul\":2335:2344   */\n      dup4\n        /* \"#utility.yul\":2331:2350   */\n      add\n        /* \"#utility.yul\":2322:2328   */\n      dup5\n        /* \"#utility.yul\":2284:2351   */\n      tag_141\n      jump\t// in\n    tag_183:\n        /* \"#utility.yul\":1718:2358   */\n      swap7\n      swap6\n      pop\n      pop\n      pop\n      pop\n      pop\n      pop\n      jump\t// out\n        /* \"#utility.yul\":2364:2806   */\n    tag_35:\n        /* \"#utility.yul\":2513:2517   */\n      0x00\n        /* \"#utility.yul\":2551:2553   */\n      0x60\n        /* \"#utility.yul\":2540:2549   */\n      dup3\n        /* \"#utility.yul\":2536:2554   */\n      add\n        /* \"#utility.yul\":2528:2554   */\n      swap1\n      pop\n        /* \"#utility.yul\":2564:2635   */\n      tag_185\n        /* \"#utility.yul\":2632:2633   */\n      0x00\n        /* \"#utility.yul\":2621:2630   */\n      dup4\n        /* \"#utility.yul\":2617:2634   */\n      add\n        /* \"#utility.yul\":2608:2614   */\n      dup7\n        /* \"#utility.yul\":2564:2635   */\n      tag_139\n      jump\t// in\n    tag_185:\n        /* \"#utility.yul\":2645:2717   */\n      tag_186\n        /* \"#utility.yul\":2713:2715   */\n      0x20\n        /* \"#utility.yul\":2702:2711   */\n      dup4\n        /* \"#utility.yul\":2698:2716   */\n      add\n        /* \"#utility.yul\":2689:2695   */\n      dup6\n        /* \"#utility.yul\":2645:2717   */\n      tag_136\n      jump\t// in\n    tag_186:\n        /* \"#utility.yul\":2727:2799   */\n      tag_187\n        /* \"#utility.yul\":2795:2797   */\n      0x40\n        /* \"#utility.yul\":2784:2793   */\n      dup4\n        /* \"#utility.yul\":2780:2798   */\n      add\n        /* \"#utility.yul\":2771:2777   */\n      dup5\n        /* \"#utility.yul\":2727:2799   */\n      tag_136\n      jump\t// in\n    tag_187:\n        /* \"#utility.yul\":2364:2806   */\n      swap5\n      swap4\n      pop\n      pop\n      pop\n      pop\n      jump\t// out\n        /* \"#utility.yul\":2812:2992   */\n    tag_41:\n        /* \"#utility.yul\":2860:2937   */\n      0x4e487b7100000000000000000000000000000000000000000000000000000000\n        /* \"#utility.yul\":2857:2858   */\n      0x00\n        /* \"#utility.yul\":2850:2938   */\n      mstore\n        /* \"#utility.yul\":2957:2961   */\n      0x32\n        /* \"#utility.yul\":2954:2955   */\n      0x04\n        /* \"#utility.yul\":2947:2962   */\n      mstore\n        /* \"#utility.yul\":2981:2985   */\n      0x24\n        /* \"#utility.yul\":2978:2979   */\n      0x00\n        /* \"#utility.yul\":2971:2986   */\n      revert\n        /* \"#utility.yul\":2998:3167   */\n    tag_142:\n        /* \"#utility.yul\":3082:3093   */\n      0x00\n        /* \"#utility.yul\":3116:3122   */\n      dup3\n        /* \"#utility.yul\":3111:3114   */\n      dup3\n        /* \"#utility.yul\":3104:3123   */\n      mstore\n        /* \"#utility.yul\":3156:3160   */\n      0x20\n        /* \"#utility.yul\":3151:3154   */\n      dup3\n        /* \"#utility.yul\":3147:3161   */\n      add\n        /* \"#utility.yul\":3132:3161   */\n      swap1\n      pop\n        /* \"#utility.yul\":2998:3167   */\n      swap3\n      swap2\n      pop\n      pop\n      jump\t// out\n        /* \"#utility.yul\":3173:3330   */\n    tag_143:\n        /* \"#utility.yul\":3313:3322   */\n      0x4365727261646f00000000000000000000000000000000000000000000000000\n        /* \"#utility.yul\":3309:3310   */\n      0x00\n        /* \"#utility.yul\":3301:3307   */\n      dup3\n        /* \"#utility.yul\":3297:3311   */\n      add\n        /* \"#utility.yul\":3290:3323   */\n      mstore\n        /* \"#utility.yul\":3173:3330   */\n      pop\n      jump\t// out\n        /* \"#utility.yul\":3336:3701   */\n    tag_144:\n        /* \"#utility.yul\":3478:3481   */\n      0x00\n        /* \"#utility.yul\":3499:3565   */\n      tag_192\n        /* \"#utility.yul\":3563:3564   */\n      0x07\n        /* \"#utility.yul\":3558:3561   */\n      dup4\n        /* \"#utility.yul\":3499:3565   */\n      tag_142\n      jump\t// in\n    tag_192:\n        /* \"#utility.yul\":3492:3565   */\n      swap2\n      pop\n        /* \"#utility.yul\":3574:3667   */\n      tag_193\n        /* \"#utility.yul\":3663:3666   */\n      dup3\n        /* \"#utility.yul\":3574:3667   */\n      tag_143\n      jump\t// in\n    tag_193:\n        /* \"#utility.yul\":3692:3694   */\n      0x20\n        /* \"#utility.yul\":3687:3690   */\n      dup3\n        /* \"#utility.yul\":3683:3695   */\n      add\n        /* \"#utility.yul\":3676:3695   */\n      swap1\n      pop\n        /* \"#utility.yul\":3336:3701   */\n      swap2\n      swap1\n      pop\n      jump\t// out\n        /* \"#utility.yul\":3707:4126   */\n    tag_45:\n        /* \"#utility.yul\":3873:3877   */\n      0x00\n        /* \"#utility.yul\":3911:3913   */\n      0x20\n        /* \"#utility.yul\":3900:3909   */\n      dup3\n        /* \"#utility.yul\":3896:3914   */\n      add\n        /* \"#utility.yul\":3888:3914   */\n      swap1\n      pop\n        /* \"#utility.yul\":3960:3969   */\n      dup2\n        /* \"#utility.yul\":3954:3958   */\n      dup2\n        /* \"#utility.yul\":3950:3970   */\n      sub\n        /* \"#utility.yul\":3946:3947   */\n      0x00\n        /* \"#utility.yul\":3935:3944   */\n      dup4\n        /* \"#utility.yul\":3931:3948   */\n      add\n        /* \"#utility.yul\":3924:3971   */\n      mstore\n        /* \"#utility.yul\":3988:4119   */\n      tag_195\n        /* \"#utility.yul\":4114:4118   */\n      dup2\n        /* \"#utility.yul\":3988:4119   */\n      tag_144\n      jump\t// in\n    tag_195:\n        /* \"#utility.yul\":3980:4119   */\n      swap1\n      pop\n        /* \"#utility.yul\":3707:4126   */\n      swap2\n      swap1\n      pop\n      jump\t// out\n        /* \"#utility.yul\":4132:4291   */\n    tag_145:\n        /* \"#utility.yul\":4272:4283   */\n      0x5465726d696e61646f0000000000000000000000000000000000000000000000\n        /* \"#utility.yul\":4268:4269   */\n      0x00\n        /* \"#utility.yul\":4260:4266   */\n      dup3\n        /* \"#utility.yul\":4256:4270   */\n      add\n        /* \"#utility.yul\":4249:4284   */\n      mstore\n        /* \"#utility.yul\":4132:4291   */\n      pop\n      jump\t// out\n        /* \"#utility.yul\":4297:4662   */\n    tag_146:\n        /* \"#utility.yul\":4439:4442   */\n      0x00\n        /* \"#utility.yul\":4460:4526   */\n      tag_198\n        /* \"#utility.yul\":4524:4525   */\n      0x09\n        /* \"#utility.yul\":4519:4522   */\n      dup4\n        /* \"#utility.yul\":4460:4526   */\n      tag_142\n      jump\t// in\n    tag_198:\n        /* \"#utility.yul\":4453:4526   */\n      swap2\n      pop\n        /* \"#utility.yul\":4535:4628   */\n      tag_199\n        /* \"#utility.yul\":4624:4627   */\n      dup3\n        /* \"#utility.yul\":4535:4628   */\n      tag_145\n      jump\t// in\n    tag_199:\n        /* \"#utility.yul\":4653:4655   */\n      0x20\n        /* \"#utility.yul\":4648:4651   */\n      dup3\n        /* \"#utility.yul\":4644:4656   */\n      add\n        /* \"#utility.yul\":4637:4656   */\n      swap1\n      pop\n        /* \"#utility.yul\":4297:4662   */\n      swap2\n      swap1\n      pop\n      jump\t// out\n        /* \"#utility.yul\":4668:5087   */\n    tag_55:\n        /* \"#utility.yul\":4834:4838   */\n      0x00\n        /* \"#utility.yul\":4872:4874   */\n      0x20\n        /* \"#utility.yul\":4861:4870   */\n      dup3\n        /* \"#utility.yul\":4857:4875   */\n      add\n        /* \"#utility.yul\":4849:4875   */\n      swap1\n      pop\n        /* \"#utility.yul\":4921:4930   */\n      dup2\n        /* \"#utility.yul\":4915:4919   */\n      dup2\n        /* \"#utility.yul\":4911:4931   */\n      sub\n        /* \"#utility.yul\":4907:4908   */\n      0x00\n        /* \"#utility.yul\":4896:4905   */\n      dup4\n        /* \"#utility.yul\":4892:4909   */\n      add\n        /* \"#utility.yul\":4885:4932   */\n      mstore\n        /* \"#utility.yul\":4949:5080   */\n      tag_201\n        /* \"#utility.yul\":5075:5079   */\n      dup2\n        /* \"#utility.yul\":4949:5080   */\n      tag_146\n      jump\t// in\n    tag_201:\n        /* \"#utility.yul\":4941:5080   */\n      swap1\n      pop\n        /* \"#utility.yul\":4668:5087   */\n      swap2\n      swap1\n      pop\n      jump\t// out\n        /* \"#utility.yul\":5093:5256   */\n    tag_147:\n        /* \"#utility.yul\":5233:5248   */\n      0x494420696e636f72726563746f00000000000000000000000000000000000000\n        /* \"#utility.yul\":5229:5230   */\n      0x00\n        /* \"#utility.yul\":5221:5227   */\n      dup3\n        /* \"#utility.yul\":5217:5231   */\n      add\n        /* \"#utility.yul\":5210:5249   */\n      mstore\n        /* \"#utility.yul\":5093:5256   */\n      pop\n      jump\t// out\n        /* \"#utility.yul\":5262:5628   */\n    tag_148:\n        /* \"#utility.yul\":5404:5407   */\n      0x00\n        /* \"#utility.yul\":5425:5492   */\n      tag_204\n        /* \"#utility.yul\":5489:5491   */\n      0x0d\n        /* \"#utility.yul\":5484:5487   */\n      dup4\n        /* \"#utility.yul\":5425:5492   */\n      tag_142\n      jump\t// in\n    tag_204:\n        /* \"#utility.yul\":5418:5492   */\n      swap2\n      pop\n        /* \"#utility.yul\":5501:5594   */\n      tag_205\n        /* \"#utility.yul\":5590:5593   */\n      dup3\n        /* \"#utility.yul\":5501:5594   */\n      tag_147\n      jump\t// in\n    tag_205:\n        /* \"#utility.yul\":5619:5621   */\n      0x20\n        /* \"#utility.yul\":5614:5617   */\n      dup3\n        /* \"#utility.yul\":5610:5622   */\n      add\n        /* \"#utility.yul\":5603:5622   */\n      swap1\n      pop\n        /* \"#utility.yul\":5262:5628   */\n      swap2\n      swap1\n      pop\n      jump\t// out\n        /* \"#utility.yul\":5634:6053   */\n    tag_62:\n        /* \"#utility.yul\":5800:5804   */\n      0x00\n        /* \"#utility.yul\":5838:5840   */\n      0x20\n        /* \"#utility.yul\":5827:5836   */\n      dup3\n        /* \"#utility.yul\":5823:5841   */\n      add\n        /* \"#utility.yul\":5815:5841   */\n      swap1\n      pop\n        /* \"#utility.yul\":5887:5896   */\n      dup2\n        /* \"#utility.yul\":5881:5885   */\n      dup2\n        /* \"#utility.yul\":5877:5897   */\n      sub\n        /* \"#utility.yul\":5873:5874   */\n      0x00\n        /* \"#utility.yul\":5862:5871   */\n      dup4\n        /* \"#utility.yul\":5858:5875   */\n      add\n        /* \"#utility.yul\":5851:5898   */\n      mstore\n        /* \"#utility.yul\":5915:6046   */\n      tag_207\n        /* \"#utility.yul\":6041:6045   */\n      dup2\n        /* \"#utility.yul\":5915:6046   */\n      tag_148\n      jump\t// in\n    tag_207:\n        /* \"#utility.yul\":5907:6046   */\n      swap1\n      pop\n        /* \"#utility.yul\":5634:6053   */\n      swap2\n      swap1\n      pop\n      jump\t// out\n        /* \"#utility.yul\":6059:6239   */\n    tag_149:\n        /* \"#utility.yul\":6107:6184   */\n      0x4e487b7100000000000000000000000000000000000000000000000000000000\n        /* \"#utility.yul\":6104:6105   */\n      0x00\n        /* \"#utility.yul\":6097:6185   */\n      mstore\n        /* \"#utility.yul\":6204:6208   */\n      0x11\n        /* \"#utility.yul\":6201:6202   */\n      0x04\n        /* \"#utility.yul\":6194:6209   */\n      mstore\n        /* \"#utility.yul\":6228:6232   */\n      0x24\n        /* \"#utility.yul\":6225:6226   */\n      0x00\n        /* \"#utility.yul\":6218:6233   */\n      revert\n        /* \"#utility.yul\":6245:6436   */\n    tag_88:\n        /* \"#utility.yul\":6285:6288   */\n      0x00\n        /* \"#utility.yul\":6304:6324   */\n      tag_210\n        /* \"#utility.yul\":6322:6323   */\n      dup3\n        /* \"#utility.yul\":6304:6324   */\n      tag_133\n      jump\t// in\n    tag_210:\n        /* \"#utility.yul\":6299:6324   */\n      swap2\n      pop\n        /* \"#utility.yul\":6338:6358   */\n      tag_211\n        /* \"#utility.yul\":6356:6357   */\n      dup4\n        /* \"#utility.yul\":6338:6358   */\n      tag_133\n      jump\t// in\n    tag_211:\n        /* \"#utility.yul\":6333:6358   */\n      swap3\n      pop\n        /* \"#utility.yul\":6381:6382   */\n      dup3\n        /* \"#utility.yul\":6378:6379   */\n      dup3\n        /* \"#utility.yul\":6374:6383   */\n      add\n        /* \"#utility.yul\":6367:6383   */\n      swap1\n      pop\n        /* \"#utility.yul\":6402:6405   */\n      dup1\n        /* \"#utility.yul\":6399:6400   */\n      dup3\n        /* \"#utility.yul\":6396:6406   */\n      gt\n        /* \"#utility.yul\":6393:6429   */\n      iszero\n      tag_212\n      jumpi\n        /* \"#utility.yul\":6409:6427   */\n      tag_213\n      tag_149\n      jump\t// in\n    tag_213:\n        /* \"#utility.yul\":6393:6429   */\n    tag_212:\n        /* \"#utility.yul\":6245:6436   */\n      swap3\n      swap2\n      pop\n      pop\n      jump\t// out\n        /* \"#utility.yul\":6442:6675   */\n    tag_93:\n        /* \"#utility.yul\":6481:6484   */\n      0x00\n        /* \"#utility.yul\":6504:6528   */\n      tag_215\n        /* \"#utility.yul\":6522:6527   */\n      dup3\n        /* \"#utility.yul\":6504:6528   */\n      tag_133\n      jump\t// in\n    tag_215:\n        /* \"#utility.yul\":6495:6528   */\n      swap2\n      pop\n        /* \"#utility.yul\":6550:6616   */\n      0xffffffffffffffffffffffffffffffffffffffffffffffffffffffffffffffff\n        /* \"#utility.yul\":6543:6548   */\n      dup3\n        /* \"#utility.yul\":6540:6617   */\n      sub\n        /* \"#utility.yul\":6537:6640   */\n      tag_216\n      jumpi\n        /* \"#utility.yul\":6620:6638   */\n      tag_217\n      tag_149\n      jump\t// in\n    tag_217:\n        /* \"#utility.yul\":6537:6640   */\n    tag_216:\n        /* \"#utility.yul\":6667:6668   */\n      0x01\n        /* \"#utility.yul\":6660:6665   */\n      dup3\n        /* \"#utility.yul\":6656:6669   */\n      add\n        /* \"#utility.yul\":6649:6669   */\n      swap1\n      pop\n        /* \"#utility.yul\":6442:6675   */\n      swap2\n      swap1\n      pop\n      jump\t// out\n        /* \"#utility.yul\":6681:6856   */\n    tag_150:\n        /* \"#utility.yul\":6821:6848   */\n      0x4e6f2068617920666f6e646f7320717565207265746972617200000000000000\n        /* \"#utility.yul\":6817:6818   */\n      0x00\n        /* \"#utility.yul\":6809:6815   */\n      dup3\n        /* \"#utility.yul\":6805:6819   */\n      add\n        /* \"#utility.yul\":6798:6849   */\n      mstore\n        /* \"#utility.yul\":6681:6856   */\n      pop\n      jump\t// out\n        /* \"#utility.yul\":6862:7228   */\n    tag_151:\n        /* \"#utility.yul\":7004:7007   */\n      0x00\n        /* \"#utility.yul\":7025:7092   */\n      tag_220\n        /* \"#utility.yul\":7089:7091   */\n      0x19\n        /* \"#utility.yul\":7084:7087   */\n      dup4\n        /* \"#utility.yul\":7025:7092   */\n      tag_142\n      jump\t// in\n    tag_220:\n        /* \"#utility.yul\":7018:7092   */\n      swap2\n      pop\n        /* \"#utility.yul\":7101:7194   */\n      tag_221\n        /* \"#utility.yul\":7190:7193   */\n      dup3\n        /* \"#utility.yul\":7101:7194   */\n      tag_150\n      jump\t// in\n    tag_221:\n        /* \"#utility.yul\":7219:7221   */\n      0x20\n        /* \"#utility.yul\":7214:7217   */\n      dup3\n        /* \"#utility.yul\":7210:7222   */\n      add\n        /* \"#utility.yul\":7203:7222   */\n      swap1\n      pop\n        /* \"#utility.yul\":6862:7228   */\n      swap2\n      swap1\n      pop\n      jump\t// out\n        /* \"#utility.yul\":7234:7653   */\n    tag_96:\n        /* \"#utility.yul\":7400:7404   */\n      0x00\n        /* \"#utility.yul\":7438:7440   */\n      0x20\n        /* \"#utility.yul\":7427:7436   */\n      dup3\n        /* \"#utility.yul\":7423:7441   */\n      add\n        /* \"#utility.yul\":7415:7441   */\n      swap1\n      pop\n        /* \"#utility.yul\":7487:7496   */\n      dup2\n        /* \"#utility.yul\":7481:7485   */\n      dup2\n        /* \"#utility.yul\":7477:7497   */\n      sub\n        /* \"#utility.yul\":7473:7474   */\n      0x00\n        /* \"#utility.yul\":7462:7471   */\n      dup4\n        /* \"#utility.yul\":7458:7475   */\n      add\n        /* \"#utility.yul\":7451:7498   */\n      mstore\n        /* \"#utility.yul\":7515:7646   */\n      tag_223\n        /* \"#utility.yul\":7641:7645   */\n      dup2\n        /* \"#utility.yul\":7515:7646   */\n      tag_151\n      jump\t// in\n    tag_223:\n        /* \"#utility.yul\":7507:7646   */\n      swap1\n      pop\n        /* \"#utility.yul\":7234:7653   */\n      swap2\n      swap1\n      pop\n      jump\t// out\n        /* \"#utility.yul\":7659:7853   */\n    tag_98:\n        /* \"#utility.yul\":7699:7703   */\n      0x00\n        /* \"#utility.yul\":7719:7739   */\n      tag_225\n        /* \"#utility.yul\":7737:7738   */\n      dup3\n        /* \"#utility.yul\":7719:7739   */\n      tag_133\n      jump\t// in\n    tag_225:\n        /* \"#utility.yul\":7714:7739   */\n      swap2\n      pop\n        /* \"#utility.yul\":7753:7773   */\n      tag_226\n        /* \"#utility.yul\":7771:7772   */\n      dup4\n        /* \"#utility.yul\":7753:7773   */\n      tag_133\n      jump\t// in\n    tag_226:\n        /* \"#utility.yul\":7748:7773   */\n      swap3\n      pop\n        /* \"#utility.yul\":7797:7798   */\n      dup3\n        /* \"#utility.yul\":7794:7795   */\n      dup3\n        /* \"#utility.yul\":7790:7799   */\n      sub\n        /* \"#utility.yul\":7782:7799   */\n      swap1\n      pop\n        /* \"#utility.yul\":7821:7822   */\n      dup2\n        /* \"#utility.yul\":7815:7819   */\n      dup2\n        /* \"#utility.yul\":7812:7823   */\n      gt\n        /* \"#utility.yul\":7809:7846   */\n      iszero\n      tag_227\n      jumpi\n        /* \"#utility.yul\":7826:7844   */\n      tag_228\n      tag_149\n      jump\t// in\n    tag_228:\n        /* \"#utility.yul\":7809:7846   */\n    tag_227:\n        /* \"#utility.yul\":7659:7853   */\n      swap3\n      swap2\n      pop\n      pop\n      jump\t// out\n        /* \"#utility.yul\":7859:8090   */\n    tag_152:\n        /* \"#utility.yul\":7999:8033   */\n      0x4c61206d6574612064652066696e616e6369616d69656e746f20796120736520\n        /* \"#utility.yul\":7995:7996   */\n      0x00\n        /* \"#utility.yul\":7987:7993   */\n      dup3\n        /* \"#utility.yul\":7983:7997   */\n      add\n        /* \"#utility.yul\":7976:8034   */\n      mstore\n        /* \"#utility.yul\":8068:8082   */\n      0x686120616c63616e7a61646f0000000000000000000000000000000000000000\n        /* \"#utility.yul\":8063:8065   */\n      0x20\n        /* \"#utility.yul\":8055:8061   */\n      dup3\n        /* \"#utility.yul\":8051:8066   */\n      add\n        /* \"#utility.yul\":8044:8083   */\n      mstore\n        /* \"#utility.yul\":7859:8090   */\n      pop\n      jump\t// out\n        /* \"#utility.yul\":8096:8462   */\n    tag_153:\n        /* \"#utility.yul\":8238:8241   */\n      0x00\n        /* \"#utility.yul\":8259:8326   */\n      tag_231\n        /* \"#utility.yul\":8323:8325   */\n      0x2c\n        /* \"#utility.yul\":8318:8321   */\n      dup4\n        /* \"#utility.yul\":8259:8326   */\n      tag_142\n      jump\t// in\n    tag_231:\n        /* \"#utility.yul\":8252:8326   */\n      swap2\n      pop\n        /* \"#utility.yul\":8335:8428   */\n      tag_232\n        /* \"#utility.yul\":8424:8427   */\n      dup3\n        /* \"#utility.yul\":8335:8428   */\n      tag_152\n      jump\t// in\n    tag_232:\n        /* \"#utility.yul\":8453:8455   */\n      0x40\n        /* \"#utility.yul\":8448:8451   */\n      dup3\n        /* \"#utility.yul\":8444:8456   */\n      add\n        /* \"#utility.yul\":8437:8456   */\n      swap1\n      pop\n        /* \"#utility.yul\":8096:8462   */\n      swap2\n      swap1\n      pop\n      jump\t// out\n        /* \"#utility.yul\":8468:8887   */\n    tag_124:\n        /* \"#utility.yul\":8634:8638   */\n      0x00\n        /* \"#utility.yul\":8672:8674   */\n      0x20\n        /* \"#utility.yul\":8661:8670   */\n      dup3\n        /* \"#utility.yul\":8657:8675   */\n      add\n        /* \"#utility.yul\":8649:8675   */\n      swap1\n      pop\n        /* \"#utility.yul\":8721:8730   */\n      dup2\n        /* \"#utility.yul\":8715:8719   */\n      dup2\n        /* \"#utility.yul\":8711:8731   */\n      sub\n        /* \"#utility.yul\":8707:8708   */\n      0x00\n        /* \"#utility.yul\":8696:8705   */\n      dup4\n        /* \"#utility.yul\":8692:8709   */\n      add\n        /* \"#utility.yul\":8685:8732   */\n      mstore\n        /* \"#utility.yul\":8749:8880   */\n      tag_234\n        /* \"#utility.yul\":8875:8879   */\n      dup2\n        /* \"#utility.yul\":8749:8880   */\n      tag_153\n      jump\t// in\n    tag_234:\n        /* \"#utility.yul\":8741:8880   */\n      swap1\n      pop\n        /* \"#utility.yul\":8468:8887   */\n      swap2\n      swap1\n      pop\n      jump\t// out\n\n    auxdata: 0xa2646970667358221220ba563be015a54cddf03831284a203146150c12c2ce759d0c2d19092e85d4047564736f6c63430008120033\n}\n",
				"bytecode": {
					"linkReferences": {},
					"object": "608060405234801561001057600080fd5b50611101806100206000396000f3fe6080604052600436106100555760003560e01c8063141961bc1461005a5780631be6d8d71461009b5780633af388e0146100c4578063c80e4dfd146100ed578063ca1d209d14610116578063f8626af814610132575b600080fd5b34801561006657600080fd5b50610081600480360381019061007c9190610c48565b610171565b604051610092959493929190610ce0565b60405180910390f35b3480156100a757600080fd5b506100c260048036038101906100bd9190610c48565b6101f1565b005b3480156100d057600080fd5b506100eb60048036038101906100e69190610c48565b6103cc565b005b3480156100f957600080fd5b50610114600480360381019061010f9190610c48565b610756565b005b610130600480360381019061012b9190610c48565b6108bc565b005b34801561013e57600080fd5b5061015960048036038101906101549190610c48565b610bb3565b60405161016893929190610d33565b60405180910390f35b6001818154811061018157600080fd5b90600052602060002090600402016000915090508060000154908060010160009054906101000a900473ffffffffffffffffffffffffffffffffffffffff16908060020154908060030160009054906101000a900460ff16908060030160019054906101000a900460ff16905085565b600015156001828154811061020957610208610d6a565b5b906000526020600020906004020160030160019054906101000a900460ff1615151461026a576040517f08c379a000000000000000000000000000000000000000000000000000000000815260040161026190610df6565b60405180910390fd5b6001818154811061027e5761027d610d6a565b5b906000526020600020906004020160010160009054906101000a900473ffffffffffffffffffffffffffffffffffffffff1673ffffffffffffffffffffffffffffffffffffffff163373ffffffffffffffffffffffffffffffffffffffff16146102e757600080fd5b60001515600182815481106102ff576102fe610d6a565b5b906000526020600020906004020160030160009054906101000a900460ff16151514610360576040517f08c379a000000000000000000000000000000000000000000000000000000000815260040161035790610e62565b60405180910390fd5b600180828154811061037557610374610d6a565b5b906000526020600020906004020160030160006101000a81548160ff0219169083151502179055507f5579456f254abe3839da281d094dba193ef6572b2ba4e7b21d27abda3879f4d760405160405180910390a150565b6001805490508110610413576040517f08c379a000000000000000000000000000000000000000000000000000000000815260040161040a90610ece565b60405180910390fd5b600015156001828154811061042b5761042a610d6a565b5b906000526020600020906004020160030160009054906101000a900460ff1615151461048c576040517f08c379a000000000000000000000000000000000000000000000000000000000815260040161048390610e62565b60405180910390fd5b60001515600182815481106104a4576104a3610d6a565b5b906000526020600020906004020160030160019054906101000a900460ff16151514610505576040517f08c379a00000000000000000000000000000000000000000000000000000000081526004016104fc90610df6565b60405180910390fd5b6000805b600080549050811015610662573373ffffffffffffffffffffffffffffffffffffffff166000828154811061054157610540610d6a565b5b906000526020600020906003020160000160009054906101000a900473ffffffffffffffffffffffffffffffffffffffff1673ffffffffffffffffffffffffffffffffffffffff161480156105ba575082600082815481106105a6576105a5610d6a565b5b906000526020600020906003020160020154145b1561064f57600081815481106105d3576105d2610d6a565b5b906000526020600020906003020160010154826105f09190610f1d565b91506000818154811061060657610605610d6a565b5b9060005260206000209060030201600080820160006101000a81549073ffffffffffffffffffffffffffffffffffffffff02191690556001820160009055600282016000905550505b808061065a90610f51565b915050610509565b50600081116106a6576040517f08c379a000000000000000000000000000000000000000000000000000000000815260040161069d90610fe5565b60405180910390fd5b806002600084815260200190815260200160002060008282546106c99190611005565b925050819055503373ffffffffffffffffffffffffffffffffffffffff166108fc829081150290604051600060405180830381858888f19350505050158015610716573d6000803e3d6000fd5b507f2f0e46a202460f7a9cd67d82c93e5b7caaa58eedb8b7b8bb139cd384ccae916433828460405161074a93929190610d33565b60405180910390a15050565b600033905060008290506000600180549050905060006040518060a001604052808481526020018573ffffffffffffffffffffffffffffffffffffffff16815260200183815260200160001515815260200160001515815250905060018190806001815401808255809150506001900390600052602060002090600402016000909190919091506000820151816000015560208201518160010160006101000a81548173ffffffffffffffffffffffffffffffffffffffff021916908373ffffffffffffffffffffffffffffffffffffffff1602179055506040820151816002015560608201518160030160006101000a81548160ff02191690831515021790555060808201518160030160016101000a81548160ff02191690831515021790555050507ff18ce1b70b1a4044491b54196c83d95e67aae09483ce0d2e1c2a8189faca76448484846040516108ad93929190610d33565b60405180910390a15050505050565b60001515600182815481106108d4576108d3610d6a565b5b906000526020600020906004020160030160009054906101000a900460ff16151514610935576040517f08c379a000000000000000000000000000000000000000000000000000000000815260040161092c90610e62565b60405180910390fd5b600015156001828154811061094d5761094c610d6a565b5b906000526020600020906004020160030160019054906101000a900460ff161515146109ae576040517f08c379a00000000000000000000000000000000000000000000000000000000081526004016109a590610df6565b60405180910390fd5b60018054905081106109f5576040517f08c379a00000000000000000000000000000000000000000000000000000000081526004016109ec90610ece565b60405180910390fd5b600034905060003390506000839050826002600083815260200190815260200160002054610a239190610f1d565b60018281548110610a3757610a36610d6a565b5b90600052602060002090600402016000015411610a89576040517f08c379a0000000000000000000000000000000000000000000000000000000008152600401610a80906110ab565b60405180910390fd5b600060405180606001604052808473ffffffffffffffffffffffffffffffffffffffff168152602001858152602001838152509050600081908060018154018082558091505060019003906000526020600020906003020160009091909190915060008201518160000160006101000a81548173ffffffffffffffffffffffffffffffffffffffff021916908373ffffffffffffffffffffffffffffffffffffffff1602179055506020820151816001015560408201518160020155505083600260008481526020019081526020016000206000828254610b6a9190610f1d565b925050819055507f106aac375bbcf013d1e52338bbf9e740009a1a3a6869f8daa1b72aa1620f5fec838584604051610ba493929190610d33565b60405180910390a15050505050565b60008181548110610bc357600080fd5b90600052602060002090600302016000915090508060000160009054906101000a900473ffffffffffffffffffffffffffffffffffffffff16908060010154908060020154905083565b600080fd5b6000819050919050565b610c2581610c12565b8114610c3057600080fd5b50565b600081359050610c4281610c1c565b92915050565b600060208284031215610c5e57610c5d610c0d565b5b6000610c6c84828501610c33565b91505092915050565b610c7e81610c12565b82525050565b600073ffffffffffffffffffffffffffffffffffffffff82169050919050565b6000610caf82610c84565b9050919050565b610cbf81610ca4565b82525050565b60008115159050919050565b610cda81610cc5565b82525050565b600060a082019050610cf56000830188610c75565b610d026020830187610cb6565b610d0f6040830186610c75565b610d1c6060830185610cd1565b610d296080830184610cd1565b9695505050505050565b6000606082019050610d486000830186610cb6565b610d556020830185610c75565b610d626040830184610c75565b949350505050565b7f4e487b7100000000000000000000000000000000000000000000000000000000600052603260045260246000fd5b600082825260208201905092915050565b7f4365727261646f00000000000000000000000000000000000000000000000000600082015250565b6000610de0600783610d99565b9150610deb82610daa565b602082019050919050565b60006020820190508181036000830152610e0f81610dd3565b9050919050565b7f5465726d696e61646f0000000000000000000000000000000000000000000000600082015250565b6000610e4c600983610d99565b9150610e5782610e16565b602082019050919050565b60006020820190508181036000830152610e7b81610e3f565b9050919050565b7f494420696e636f72726563746f00000000000000000000000000000000000000600082015250565b6000610eb8600d83610d99565b9150610ec382610e82565b602082019050919050565b60006020820190508181036000830152610ee781610eab565b9050919050565b7f4e487b7100000000000000000000000000000000000000000000000000000000600052601160045260246000fd5b6000610f2882610c12565b9150610f3383610c12565b9250828201905080821115610f4b57610f4a610eee565b5b92915050565b6000610f5c82610c12565b91507fffffffffffffffffffffffffffffffffffffffffffffffffffffffffffffffff8203610f8e57610f8d610eee565b5b600182019050919050565b7f4e6f2068617920666f6e646f7320717565207265746972617200000000000000600082015250565b6000610fcf601983610d99565b9150610fda82610f99565b602082019050919050565b60006020820190508181036000830152610ffe81610fc2565b9050919050565b600061101082610c12565b915061101b83610c12565b925082820390508181111561103357611032610eee565b5b92915050565b7f4c61206d6574612064652066696e616e6369616d69656e746f2079612073652060008201527f686120616c63616e7a61646f0000000000000000000000000000000000000000602082015250565b6000611095602c83610d99565b91506110a082611039565b604082019050919050565b600060208201905081810360008301526110c481611088565b905091905056fea2646970667358221220ba563be015a54cddf03831284a203146150c12c2ce759d0c2d19092e85d4047564736f6c63430008120033",
					"opcodes": "PUSH1 0x80 PUSH1 0x40 MSTORE CALLVALUE DUP1 ISZERO PUSH2 0x10 JUMPI PUSH1 0x0 DUP1 REVERT JUMPDEST POP PUSH2 0x1101 DUP1 PUSH2 0x20 PUSH1 0x0 CODECOPY PUSH1 0x0 RETURN INVALID PUSH1 0x80 PUSH1 0x40 MSTORE PUSH1 0x4 CALLDATASIZE LT PUSH2 0x55 JUMPI PUSH1 0x0 CALLDATALOAD PUSH1 0xE0 SHR DUP1 PUSH4 0x141961BC EQ PUSH2 0x5A JUMPI DUP1 PUSH4 0x1BE6D8D7 EQ PUSH2 0x9B JUMPI DUP1 PUSH4 0x3AF388E0 EQ PUSH2 0xC4 JUMPI DUP1 PUSH4 0xC80E4DFD EQ PUSH2 0xED JUMPI DUP1 PUSH4 0xCA1D209D EQ PUSH2 0x116 JUMPI DUP1 PUSH4 0xF8626AF8 EQ PUSH2 0x132 JUMPI JUMPDEST PUSH1 0x0 DUP1 REVERT JUMPDEST CALLVALUE DUP1 ISZERO PUSH2 0x66 JUMPI PUSH1 0x0 DUP1 REVERT JUMPDEST POP PUSH2 0x81 PUSH1 0x4 DUP1 CALLDATASIZE SUB DUP2 ADD SWAP1 PUSH2 0x7C SWAP2 SWAP1 PUSH2 0xC48 JUMP JUMPDEST PUSH2 0x171 JUMP JUMPDEST PUSH1 0x40 MLOAD PUSH2 0x92 SWAP6 SWAP5 SWAP4 SWAP3 SWAP2 SWAP1 PUSH2 0xCE0 JUMP JUMPDEST PUSH1 0x40 MLOAD DUP1 SWAP2 SUB SWAP1 RETURN JUMPDEST CALLVALUE DUP1 ISZERO PUSH2 0xA7 JUMPI PUSH1 0x0 DUP1 REVERT JUMPDEST POP PUSH2 0xC2 PUSH1 0x4 DUP1 CALLDATASIZE SUB DUP2 ADD SWAP1 PUSH2 0xBD SWAP2 SWAP1 PUSH2 0xC48 JUMP JUMPDEST PUSH2 0x1F1 JUMP JUMPDEST STOP JUMPDEST CALLVALUE DUP1 ISZERO PUSH2 0xD0 JUMPI PUSH1 0x0 DUP1 REVERT JUMPDEST POP PUSH2 0xEB PUSH1 0x4 DUP1 CALLDATASIZE SUB DUP2 ADD SWAP1 PUSH2 0xE6 SWAP2 SWAP1 PUSH2 0xC48 JUMP JUMPDEST PUSH2 0x3CC JUMP JUMPDEST STOP JUMPDEST CALLVALUE DUP1 ISZERO PUSH2 0xF9 JUMPI PUSH1 0x0 DUP1 REVERT JUMPDEST POP PUSH2 0x114 PUSH1 0x4 DUP1 CALLDATASIZE SUB DUP2 ADD SWAP1 PUSH2 0x10F SWAP2 SWAP1 PUSH2 0xC48 JUMP JUMPDEST PUSH2 0x756 JUMP JUMPDEST STOP JUMPDEST PUSH2 0x130 PUSH1 0x4 DUP1 CALLDATASIZE SUB DUP2 ADD SWAP1 PUSH2 0x12B SWAP2 SWAP1 PUSH2 0xC48 JUMP JUMPDEST PUSH2 0x8BC JUMP JUMPDEST STOP JUMPDEST CALLVALUE DUP1 ISZERO PUSH2 0x13E JUMPI PUSH1 0x0 DUP1 REVERT JUMPDEST POP PUSH2 0x159 PUSH1 0x4 DUP1 CALLDATASIZE SUB DUP2 ADD SWAP1 PUSH2 0x154 SWAP2 SWAP1 PUSH2 0xC48 JUMP JUMPDEST PUSH2 0xBB3 JUMP JUMPDEST PUSH1 0x40 MLOAD PUSH2 0x168 SWAP4 SWAP3 SWAP2 SWAP1 PUSH2 0xD33 JUMP JUMPDEST PUSH1 0x40 MLOAD DUP1 SWAP2 SUB SWAP1 RETURN JUMPDEST PUSH1 0x1 DUP2 DUP2 SLOAD DUP2 LT PUSH2 0x181 JUMPI PUSH1 0x0 DUP1 REVERT JUMPDEST SWAP1 PUSH1 0x0 MSTORE PUSH1 0x20 PUSH1 0x0 KECCAK256 SWAP1 PUSH1 0x4 MUL ADD PUSH1 0x0 SWAP2 POP SWAP1 POP DUP1 PUSH1 0x0 ADD SLOAD SWAP1 DUP1 PUSH1 0x1 ADD PUSH1 0x0 SWAP1 SLOAD SWAP1 PUSH2 0x100 EXP SWAP1 DIV PUSH20 0xFFFFFFFFFFFFFFFFFFFFFFFFFFFFFFFFFFFFFFFF AND SWAP1 DUP1 PUSH1 0x2 ADD SLOAD SWAP1 DUP1 PUSH1 0x3 ADD PUSH1 0x0 SWAP1 SLOAD SWAP1 PUSH2 0x100 EXP SWAP1 DIV PUSH1 0xFF AND SWAP1 DUP1 PUSH1 0x3 ADD PUSH1 0x1 SWAP1 SLOAD SWAP1 PUSH2 0x100 EXP SWAP1 DIV PUSH1 0xFF AND SWAP1 POP DUP6 JUMP JUMPDEST PUSH1 0x0 ISZERO ISZERO PUSH1 0x1 DUP3 DUP2 SLOAD DUP2 LT PUSH2 0x209 JUMPI PUSH2 0x208 PUSH2 0xD6A JUMP JUMPDEST JUMPDEST SWAP1 PUSH1 0x0 MSTORE PUSH1 0x20 PUSH1 0x0 KECCAK256 SWAP1 PUSH1 0x4 MUL ADD PUSH1 0x3 ADD PUSH1 0x1 SWAP1 SLOAD SWAP1 PUSH2 0x100 EXP SWAP1 DIV PUSH1 0xFF AND ISZERO ISZERO EQ PUSH2 0x26A JUMPI PUSH1 0x40 MLOAD PUSH32 0x8C379A000000000000000000000000000000000000000000000000000000000 DUP2 MSTORE PUSH1 0x4 ADD PUSH2 0x261 SWAP1 PUSH2 0xDF6 JUMP JUMPDEST PUSH1 0x40 MLOAD DUP1 SWAP2 SUB SWAP1 REVERT JUMPDEST PUSH1 0x1 DUP2 DUP2 SLOAD DUP2 LT PUSH2 0x27E JUMPI PUSH2 0x27D PUSH2 0xD6A JUMP JUMPDEST JUMPDEST SWAP1 PUSH1 0x0 MSTORE PUSH1 0x20 PUSH1 0x0 KECCAK256 SWAP1 PUSH1 0x4 MUL ADD PUSH1 0x1 ADD PUSH1 0x0 SWAP1 SLOAD SWAP1 PUSH2 0x100 EXP SWAP1 DIV PUSH20 0xFFFFFFFFFFFFFFFFFFFFFFFFFFFFFFFFFFFFFFFF AND PUSH20 0xFFFFFFFFFFFFFFFFFFFFFFFFFFFFFFFFFFFFFFFF AND CALLER PUSH20 0xFFFFFFFFFFFFFFFFFFFFFFFFFFFFFFFFFFFFFFFF AND EQ PUSH2 0x2E7 JUMPI PUSH1 0x0 DUP1 REVERT JUMPDEST PUSH1 0x0 ISZERO ISZERO PUSH1 0x1 DUP3 DUP2 SLOAD DUP2 LT PUSH2 0x2FF JUMPI PUSH2 0x2FE PUSH2 0xD6A JUMP JUMPDEST JUMPDEST SWAP1 PUSH1 0x0 MSTORE PUSH1 0x20 PUSH1 0x0 KECCAK256 SWAP1 PUSH1 0x4 MUL ADD PUSH1 0x3 ADD PUSH1 0x0 SWAP1 SLOAD SWAP1 PUSH2 0x100 EXP SWAP1 DIV PUSH1 0xFF AND ISZERO ISZERO EQ PUSH2 0x360 JUMPI PUSH1 0x40 MLOAD PUSH32 0x8C379A000000000000000000000000000000000000000000000000000000000 DUP2 MSTORE PUSH1 0x4 ADD PUSH2 0x357 SWAP1 PUSH2 0xE62 JUMP JUMPDEST PUSH1 0x40 MLOAD DUP1 SWAP2 SUB SWAP1 REVERT JUMPDEST PUSH1 0x1 DUP1 DUP3 DUP2 SLOAD DUP2 LT PUSH2 0x375 JUMPI PUSH2 0x374 PUSH2 0xD6A JUMP JUMPDEST JUMPDEST SWAP1 PUSH1 0x0 MSTORE PUSH1 0x20 PUSH1 0x0 KECCAK256 SWAP1 PUSH1 0x4 MUL ADD PUSH1 0x3 ADD PUSH1 0x0 PUSH2 0x100 EXP DUP2 SLOAD DUP2 PUSH1 0xFF MUL NOT AND SWAP1 DUP4 ISZERO ISZERO MUL OR SWAP1 SSTORE POP PUSH32 0x5579456F254ABE3839DA281D094DBA193EF6572B2BA4E7B21D27ABDA3879F4D7 PUSH1 0x40 MLOAD PUSH1 0x40 MLOAD DUP1 SWAP2 SUB SWAP1 LOG1 POP JUMP JUMPDEST PUSH1 0x1 DUP1 SLOAD SWAP1 POP DUP2 LT PUSH2 0x413 JUMPI PUSH1 0x40 MLOAD PUSH32 0x8C379A000000000000000000000000000000000000000000000000000000000 DUP2 MSTORE PUSH1 0x4 ADD PUSH2 0x40A SWAP1 PUSH2 0xECE JUMP JUMPDEST PUSH1 0x40 MLOAD DUP1 SWAP2 SUB SWAP1 REVERT JUMPDEST PUSH1 0x0 ISZERO ISZERO PUSH1 0x1 DUP3 DUP2 SLOAD DUP2 LT PUSH2 0x42B JUMPI PUSH2 0x42A PUSH2 0xD6A JUMP JUMPDEST JUMPDEST SWAP1 PUSH1 0x0 MSTORE PUSH1 0x20 PUSH1 0x0 KECCAK256 SWAP1 PUSH1 0x4 MUL ADD PUSH1 0x3 ADD PUSH1 0x0 SWAP1 SLOAD SWAP1 PUSH2 0x100 EXP SWAP1 DIV PUSH1 0xFF AND ISZERO ISZERO EQ PUSH2 0x48C JUMPI PUSH1 0x40 MLOAD PUSH32 0x8C379A000000000000000000000000000000000000000000000000000000000 DUP2 MSTORE PUSH1 0x4 ADD PUSH2 0x483 SWAP1 PUSH2 0xE62 JUMP JUMPDEST PUSH1 0x40 MLOAD DUP1 SWAP2 SUB SWAP1 REVERT JUMPDEST PUSH1 0x0 ISZERO ISZERO PUSH1 0x1 DUP3 DUP2 SLOAD DUP2 LT PUSH2 0x4A4 JUMPI PUSH2 0x4A3 PUSH2 0xD6A JUMP JUMPDEST JUMPDEST SWAP1 PUSH1 0x0 MSTORE PUSH1 0x20 PUSH1 0x0 KECCAK256 SWAP1 PUSH1 0x4 MUL ADD PUSH1 0x3 ADD PUSH1 0x1 SWAP1 SLOAD SWAP1 PUSH2 0x100 EXP SWAP1 DIV PUSH1 0xFF AND ISZERO ISZERO EQ PUSH2 0x505 JUMPI PUSH1 0x40 MLOAD PUSH32 0x8C379A000000000000000000000000000000000000000000000000000000000 DUP2 MSTORE PUSH1 0x4 ADD PUSH2 0x4FC SWAP1 PUSH2 0xDF6 JUMP JUMPDEST PUSH1 0x40 MLOAD DUP1 SWAP2 SUB SWAP1 REVERT JUMPDEST PUSH1 0x0 DUP1 JUMPDEST PUSH1 0x0 DUP1 SLOAD SWAP1 POP DUP2 LT ISZERO PUSH2 0x662 JUMPI CALLER PUSH20 0xFFFFFFFFFFFFFFFFFFFFFFFFFFFFFFFFFFFFFFFF AND PUSH1 0x0 DUP3 DUP2 SLOAD DUP2 LT PUSH2 0x541 JUMPI PUSH2 0x540 PUSH2 0xD6A JUMP JUMPDEST JUMPDEST SWAP1 PUSH1 0x0 MSTORE PUSH1 0x20 PUSH1 0x0 KECCAK256 SWAP1 PUSH1 0x3 MUL ADD PUSH1 0x0 ADD PUSH1 0x0 SWAP1 SLOAD SWAP1 PUSH2 0x100 EXP SWAP1 DIV PUSH20 0xFFFFFFFFFFFFFFFFFFFFFFFFFFFFFFFFFFFFFFFF AND PUSH20 0xFFFFFFFFFFFFFFFFFFFFFFFFFFFFFFFFFFFFFFFF AND EQ DUP1 ISZERO PUSH2 0x5BA JUMPI POP DUP3 PUSH1 0x0 DUP3 DUP2 SLOAD DUP2 LT PUSH2 0x5A6 JUMPI PUSH2 0x5A5 PUSH2 0xD6A JUMP JUMPDEST JUMPDEST SWAP1 PUSH1 0x0 MSTORE PUSH1 0x20 PUSH1 0x0 KECCAK256 SWAP1 PUSH1 0x3 MUL ADD PUSH1 0x2 ADD SLOAD EQ JUMPDEST ISZERO PUSH2 0x64F JUMPI PUSH1 0x0 DUP2 DUP2 SLOAD DUP2 LT PUSH2 0x5D3 JUMPI PUSH2 0x5D2 PUSH2 0xD6A JUMP JUMPDEST JUMPDEST SWAP1 PUSH1 0x0 MSTORE PUSH1 0x20 PUSH1 0x0 KECCAK256 SWAP1 PUSH1 0x3 MUL ADD PUSH1 0x1 ADD SLOAD DUP3 PUSH2 0x5F0 SWAP2 SWAP1 PUSH2 0xF1D JUMP JUMPDEST SWAP2 POP PUSH1 0x0 DUP2 DUP2 SLOAD DUP2 LT PUSH2 0x606 JUMPI PUSH2 0x605 PUSH2 0xD6A JUMP JUMPDEST JUMPDEST SWAP1 PUSH1 0x0 MSTORE PUSH1 0x20 PUSH1 0x0 KECCAK256 SWAP1 PUSH1 0x3 MUL ADD PUSH1 0x0 DUP1 DUP3 ADD PUSH1 0x0 PUSH2 0x100 EXP DUP2 SLOAD SWAP1 PUSH20 0xFFFFFFFFFFFFFFFFFFFFFFFFFFFFFFFFFFFFFFFF MUL NOT AND SWAP1 SSTORE PUSH1 0x1 DUP3 ADD PUSH1 0x0 SWAP1 SSTORE PUSH1 0x2 DUP3 ADD PUSH1 0x0 SWAP1 SSTORE POP POP JUMPDEST DUP1 DUP1 PUSH2 0x65A SWAP1 PUSH2 0xF51 JUMP JUMPDEST SWAP2 POP POP PUSH2 0x509 JUMP JUMPDEST POP PUSH1 0x0 DUP2 GT PUSH2 0x6A6 JUMPI PUSH1 0x40 MLOAD PUSH32 0x8C379A000000000000000000000000000000000000000000000000000000000 DUP2 MSTORE PUSH1 0x4 ADD PUSH2 0x69D SWAP1 PUSH2 0xFE5 JUMP JUMPDEST PUSH1 0x40 MLOAD DUP1 SWAP2 SUB SWAP1 REVERT JUMPDEST DUP1 PUSH1 0x2 PUSH1 0x0 DUP5 DUP2 MSTORE PUSH1 0x20 ADD SWAP1 DUP2 MSTORE PUSH1 0x20 ADD PUSH1 0x0 KECCAK256 PUSH1 0x0 DUP3 DUP3 SLOAD PUSH2 0x6C9 SWAP2 SWAP1 PUSH2 0x1005 JUMP JUMPDEST SWAP3 POP POP DUP2 SWAP1 SSTORE POP CALLER PUSH20 0xFFFFFFFFFFFFFFFFFFFFFFFFFFFFFFFFFFFFFFFF AND PUSH2 0x8FC DUP3 SWAP1 DUP2 ISZERO MUL SWAP1 PUSH1 0x40 MLOAD PUSH1 0x0 PUSH1 0x40 MLOAD DUP1 DUP4 SUB DUP2 DUP6 DUP9 DUP9 CALL SWAP4 POP POP POP POP ISZERO DUP1 ISZERO PUSH2 0x716 JUMPI RETURNDATASIZE PUSH1 0x0 DUP1 RETURNDATACOPY RETURNDATASIZE PUSH1 0x0 REVERT JUMPDEST POP PUSH32 0x2F0E46A202460F7A9CD67D82C93E5B7CAAA58EEDB8B7B8BB139CD384CCAE9164 CALLER DUP3 DUP5 PUSH1 0x40 MLOAD PUSH2 0x74A SWAP4 SWAP3 SWAP2 SWAP1 PUSH2 0xD33 JUMP JUMPDEST PUSH1 0x40 MLOAD DUP1 SWAP2 SUB SWAP1 LOG1 POP POP JUMP JUMPDEST PUSH1 0x0 CALLER SWAP1 POP PUSH1 0x0 DUP3 SWAP1 POP PUSH1 0x0 PUSH1 0x1 DUP1 SLOAD SWAP1 POP SWAP1 POP PUSH1 0x0 PUSH1 0x40 MLOAD DUP1 PUSH1 0xA0 ADD PUSH1 0x40 MSTORE DUP1 DUP5 DUP2 MSTORE PUSH1 0x20 ADD DUP6 PUSH20 0xFFFFFFFFFFFFFFFFFFFFFFFFFFFFFFFFFFFFFFFF AND DUP2 MSTORE PUSH1 0x20 ADD DUP4 DUP2 MSTORE PUSH1 0x20 ADD PUSH1 0x0 ISZERO ISZERO DUP2 MSTORE PUSH1 0x20 ADD PUSH1 0x0 ISZERO ISZERO DUP2 MSTORE POP SWAP1 POP PUSH1 0x1 DUP2 SWAP1 DUP1 PUSH1 0x1 DUP2 SLOAD ADD DUP1 DUP3 SSTORE DUP1 SWAP2 POP POP PUSH1 0x1 SWAP1 SUB SWAP1 PUSH1 0x0 MSTORE PUSH1 0x20 PUSH1 0x0 KECCAK256 SWAP1 PUSH1 0x4 MUL ADD PUSH1 0x0 SWAP1 SWAP2 SWAP1 SWAP2 SWAP1 SWAP2 POP PUSH1 0x0 DUP3 ADD MLOAD DUP2 PUSH1 0x0 ADD SSTORE PUSH1 0x20 DUP3 ADD MLOAD DUP2 PUSH1 0x1 ADD PUSH1 0x0 PUSH2 0x100 EXP DUP2 SLOAD DUP2 PUSH20 0xFFFFFFFFFFFFFFFFFFFFFFFFFFFFFFFFFFFFFFFF MUL NOT AND SWAP1 DUP4 PUSH20 0xFFFFFFFFFFFFFFFFFFFFFFFFFFFFFFFFFFFFFFFF AND MUL OR SWAP1 SSTORE POP PUSH1 0x40 DUP3 ADD MLOAD DUP2 PUSH1 0x2 ADD SSTORE PUSH1 0x60 DUP3 ADD MLOAD DUP2 PUSH1 0x3 ADD PUSH1 0x0 PUSH2 0x100 EXP DUP2 SLOAD DUP2 PUSH1 0xFF MUL NOT AND SWAP1 DUP4 ISZERO ISZERO MUL OR SWAP1 SSTORE POP PUSH1 0x80 DUP3 ADD MLOAD DUP2 PUSH1 0x3 ADD PUSH1 0x1 PUSH2 0x100 EXP DUP2 SLOAD DUP2 PUSH1 0xFF MUL NOT AND SWAP1 DUP4 ISZERO ISZERO MUL OR SWAP1 SSTORE POP POP POP PUSH32 0xF18CE1B70B1A4044491B54196C83D95E67AAE09483CE0D2E1C2A8189FACA7644 DUP5 DUP5 DUP5 PUSH1 0x40 MLOAD PUSH2 0x8AD SWAP4 SWAP3 SWAP2 SWAP1 PUSH2 0xD33 JUMP JUMPDEST PUSH1 0x40 MLOAD DUP1 SWAP2 SUB SWAP1 LOG1 POP POP POP POP POP JUMP JUMPDEST PUSH1 0x0 ISZERO ISZERO PUSH1 0x1 DUP3 DUP2 SLOAD DUP2 LT PUSH2 0x8D4 JUMPI PUSH2 0x8D3 PUSH2 0xD6A JUMP JUMPDEST JUMPDEST SWAP1 PUSH1 0x0 MSTORE PUSH1 0x20 PUSH1 0x0 KECCAK256 SWAP1 PUSH1 0x4 MUL ADD PUSH1 0x3 ADD PUSH1 0x0 SWAP1 SLOAD SWAP1 PUSH2 0x100 EXP SWAP1 DIV PUSH1 0xFF AND ISZERO ISZERO EQ PUSH2 0x935 JUMPI PUSH1 0x40 MLOAD PUSH32 0x8C379A000000000000000000000000000000000000000000000000000000000 DUP2 MSTORE PUSH1 0x4 ADD PUSH2 0x92C SWAP1 PUSH2 0xE62 JUMP JUMPDEST PUSH1 0x40 MLOAD DUP1 SWAP2 SUB SWAP1 REVERT JUMPDEST PUSH1 0x0 ISZERO ISZERO PUSH1 0x1 DUP3 DUP2 SLOAD DUP2 LT PUSH2 0x94D JUMPI PUSH2 0x94C PUSH2 0xD6A JUMP JUMPDEST JUMPDEST SWAP1 PUSH1 0x0 MSTORE PUSH1 0x20 PUSH1 0x0 KECCAK256 SWAP1 PUSH1 0x4 MUL ADD PUSH1 0x3 ADD PUSH1 0x1 SWAP1 SLOAD SWAP1 PUSH2 0x100 EXP SWAP1 DIV PUSH1 0xFF AND ISZERO ISZERO EQ PUSH2 0x9AE JUMPI PUSH1 0x40 MLOAD PUSH32 0x8C379A000000000000000000000000000000000000000000000000000000000 DUP2 MSTORE PUSH1 0x4 ADD PUSH2 0x9A5 SWAP1 PUSH2 0xDF6 JUMP JUMPDEST PUSH1 0x40 MLOAD DUP1 SWAP2 SUB SWAP1 REVERT JUMPDEST PUSH1 0x1 DUP1 SLOAD SWAP1 POP DUP2 LT PUSH2 0x9F5 JUMPI PUSH1 0x40 MLOAD PUSH32 0x8C379A000000000000000000000000000000000000000000000000000000000 DUP2 MSTORE PUSH1 0x4 ADD PUSH2 0x9EC SWAP1 PUSH2 0xECE JUMP JUMPDEST PUSH1 0x40 MLOAD DUP1 SWAP2 SUB SWAP1 REVERT JUMPDEST PUSH1 0x0 CALLVALUE SWAP1 POP PUSH1 0x0 CALLER SWAP1 POP PUSH1 0x0 DUP4 SWAP1 POP DUP3 PUSH1 0x2 PUSH1 0x0 DUP4 DUP2 MSTORE PUSH1 0x20 ADD SWAP1 DUP2 MSTORE PUSH1 0x20 ADD PUSH1 0x0 KECCAK256 SLOAD PUSH2 0xA23 SWAP2 SWAP1 PUSH2 0xF1D JUMP JUMPDEST PUSH1 0x1 DUP3 DUP2 SLOAD DUP2 LT PUSH2 0xA37 JUMPI PUSH2 0xA36 PUSH2 0xD6A JUMP JUMPDEST JUMPDEST SWAP1 PUSH1 0x0 MSTORE PUSH1 0x20 PUSH1 0x0 KECCAK256 SWAP1 PUSH1 0x4 MUL ADD PUSH1 0x0 ADD SLOAD GT PUSH2 0xA89 JUMPI PUSH1 0x40 MLOAD PUSH32 0x8C379A000000000000000000000000000000000000000000000000000000000 DUP2 MSTORE PUSH1 0x4 ADD PUSH2 0xA80 SWAP1 PUSH2 0x10AB JUMP JUMPDEST PUSH1 0x40 MLOAD DUP1 SWAP2 SUB SWAP1 REVERT JUMPDEST PUSH1 0x0 PUSH1 0x40 MLOAD DUP1 PUSH1 0x60 ADD PUSH1 0x40 MSTORE DUP1 DUP5 PUSH20 0xFFFFFFFFFFFFFFFFFFFFFFFFFFFFFFFFFFFFFFFF AND DUP2 MSTORE PUSH1 0x20 ADD DUP6 DUP2 MSTORE PUSH1 0x20 ADD DUP4 DUP2 MSTORE POP SWAP1 POP PUSH1 0x0 DUP2 SWAP1 DUP1 PUSH1 0x1 DUP2 SLOAD ADD DUP1 DUP3 SSTORE DUP1 SWAP2 POP POP PUSH1 0x1 SWAP1 SUB SWAP1 PUSH1 0x0 MSTORE PUSH1 0x20 PUSH1 0x0 KECCAK256 SWAP1 PUSH1 0x3 MUL ADD PUSH1 0x0 SWAP1 SWAP2 SWAP1 SWAP2 SWAP1 SWAP2 POP PUSH1 0x0 DUP3 ADD MLOAD DUP2 PUSH1 0x0 ADD PUSH1 0x0 PUSH2 0x100 EXP DUP2 SLOAD DUP2 PUSH20 0xFFFFFFFFFFFFFFFFFFFFFFFFFFFFFFFFFFFFFFFF MUL NOT AND SWAP1 DUP4 PUSH20 0xFFFFFFFFFFFFFFFFFFFFFFFFFFFFFFFFFFFFFFFF AND MUL OR SWAP1 SSTORE POP PUSH1 0x20 DUP3 ADD MLOAD DUP2 PUSH1 0x1 ADD SSTORE PUSH1 0x40 DUP3 ADD MLOAD DUP2 PUSH1 0x2 ADD SSTORE POP POP DUP4 PUSH1 0x2 PUSH1 0x0 DUP5 DUP2 MSTORE PUSH1 0x20 ADD SWAP1 DUP2 MSTORE PUSH1 0x20 ADD PUSH1 0x0 KECCAK256 PUSH1 0x0 DUP3 DUP3 SLOAD PUSH2 0xB6A SWAP2 SWAP1 PUSH2 0xF1D JUMP JUMPDEST SWAP3 POP POP DUP2 SWAP1 SSTORE POP PUSH32 0x106AAC375BBCF013D1E52338BBF9E740009A1A3A6869F8DAA1B72AA1620F5FEC DUP4 DUP6 DUP5 PUSH1 0x40 MLOAD PUSH2 0xBA4 SWAP4 SWAP3 SWAP2 SWAP1 PUSH2 0xD33 JUMP JUMPDEST PUSH1 0x40 MLOAD DUP1 SWAP2 SUB SWAP1 LOG1 POP POP POP POP POP JUMP JUMPDEST PUSH1 0x0 DUP2 DUP2 SLOAD DUP2 LT PUSH2 0xBC3 JUMPI PUSH1 0x0 DUP1 REVERT JUMPDEST SWAP1 PUSH1 0x0 MSTORE PUSH1 0x20 PUSH1 0x0 KECCAK256 SWAP1 PUSH1 0x3 MUL ADD PUSH1 0x0 SWAP2 POP SWAP1 POP DUP1 PUSH1 0x0 ADD PUSH1 0x0 SWAP1 SLOAD SWAP1 PUSH2 0x100 EXP SWAP1 DIV PUSH20 0xFFFFFFFFFFFFFFFFFFFFFFFFFFFFFFFFFFFFFFFF AND SWAP1 DUP1 PUSH1 0x1 ADD SLOAD SWAP1 DUP1 PUSH1 0x2 ADD SLOAD SWAP1 POP DUP4 JUMP JUMPDEST PUSH1 0x0 DUP1 REVERT JUMPDEST PUSH1 0x0 DUP2 SWAP1 POP SWAP2 SWAP1 POP JUMP JUMPDEST PUSH2 0xC25 DUP2 PUSH2 0xC12 JUMP JUMPDEST DUP2 EQ PUSH2 0xC30 JUMPI PUSH1 0x0 DUP1 REVERT JUMPDEST POP JUMP JUMPDEST PUSH1 0x0 DUP2 CALLDATALOAD SWAP1 POP PUSH2 0xC42 DUP2 PUSH2 0xC1C JUMP JUMPDEST SWAP3 SWAP2 POP POP JUMP JUMPDEST PUSH1 0x0 PUSH1 0x20 DUP3 DUP5 SUB SLT ISZERO PUSH2 0xC5E JUMPI PUSH2 0xC5D PUSH2 0xC0D JUMP JUMPDEST JUMPDEST PUSH1 0x0 PUSH2 0xC6C DUP5 DUP3 DUP6 ADD PUSH2 0xC33 JUMP JUMPDEST SWAP2 POP POP SWAP3 SWAP2 POP POP JUMP JUMPDEST PUSH2 0xC7E DUP2 PUSH2 0xC12 JUMP JUMPDEST DUP3 MSTORE POP POP JUMP JUMPDEST PUSH1 0x0 PUSH20 0xFFFFFFFFFFFFFFFFFFFFFFFFFFFFFFFFFFFFFFFF DUP3 AND SWAP1 POP SWAP2 SWAP1 POP JUMP JUMPDEST PUSH1 0x0 PUSH2 0xCAF DUP3 PUSH2 0xC84 JUMP JUMPDEST SWAP1 POP SWAP2 SWAP1 POP JUMP JUMPDEST PUSH2 0xCBF DUP2 PUSH2 0xCA4 JUMP JUMPDEST DUP3 MSTORE POP POP JUMP JUMPDEST PUSH1 0x0 DUP2 ISZERO ISZERO SWAP1 POP SWAP2 SWAP1 POP JUMP JUMPDEST PUSH2 0xCDA DUP2 PUSH2 0xCC5 JUMP JUMPDEST DUP3 MSTORE POP POP JUMP JUMPDEST PUSH1 0x0 PUSH1 0xA0 DUP3 ADD SWAP1 POP PUSH2 0xCF5 PUSH1 0x0 DUP4 ADD DUP9 PUSH2 0xC75 JUMP JUMPDEST PUSH2 0xD02 PUSH1 0x20 DUP4 ADD DUP8 PUSH2 0xCB6 JUMP JUMPDEST PUSH2 0xD0F PUSH1 0x40 DUP4 ADD DUP7 PUSH2 0xC75 JUMP JUMPDEST PUSH2 0xD1C PUSH1 0x60 DUP4 ADD DUP6 PUSH2 0xCD1 JUMP JUMPDEST PUSH2 0xD29 PUSH1 0x80 DUP4 ADD DUP5 PUSH2 0xCD1 JUMP JUMPDEST SWAP7 SWAP6 POP POP POP POP POP POP JUMP JUMPDEST PUSH1 0x0 PUSH1 0x60 DUP3 ADD SWAP1 POP PUSH2 0xD48 PUSH1 0x0 DUP4 ADD DUP7 PUSH2 0xCB6 JUMP JUMPDEST PUSH2 0xD55 PUSH1 0x20 DUP4 ADD DUP6 PUSH2 0xC75 JUMP JUMPDEST PUSH2 0xD62 PUSH1 0x40 DUP4 ADD DUP5 PUSH2 0xC75 JUMP JUMPDEST SWAP5 SWAP4 POP POP POP POP JUMP JUMPDEST PUSH32 0x4E487B7100000000000000000000000000000000000000000000000000000000 PUSH1 0x0 MSTORE PUSH1 0x32 PUSH1 0x4 MSTORE PUSH1 0x24 PUSH1 0x0 REVERT JUMPDEST PUSH1 0x0 DUP3 DUP3 MSTORE PUSH1 0x20 DUP3 ADD SWAP1 POP SWAP3 SWAP2 POP POP JUMP JUMPDEST PUSH32 0x4365727261646F00000000000000000000000000000000000000000000000000 PUSH1 0x0 DUP3 ADD MSTORE POP JUMP JUMPDEST PUSH1 0x0 PUSH2 0xDE0 PUSH1 0x7 DUP4 PUSH2 0xD99 JUMP JUMPDEST SWAP2 POP PUSH2 0xDEB DUP3 PUSH2 0xDAA JUMP JUMPDEST PUSH1 0x20 DUP3 ADD SWAP1 POP SWAP2 SWAP1 POP JUMP JUMPDEST PUSH1 0x0 PUSH1 0x20 DUP3 ADD SWAP1 POP DUP2 DUP2 SUB PUSH1 0x0 DUP4 ADD MSTORE PUSH2 0xE0F DUP2 PUSH2 0xDD3 JUMP JUMPDEST SWAP1 POP SWAP2 SWAP1 POP JUMP JUMPDEST PUSH32 0x5465726D696E61646F0000000000000000000000000000000000000000000000 PUSH1 0x0 DUP3 ADD MSTORE POP JUMP JUMPDEST PUSH1 0x0 PUSH2 0xE4C PUSH1 0x9 DUP4 PUSH2 0xD99 JUMP JUMPDEST SWAP2 POP PUSH2 0xE57 DUP3 PUSH2 0xE16 JUMP JUMPDEST PUSH1 0x20 DUP3 ADD SWAP1 POP SWAP2 SWAP1 POP JUMP JUMPDEST PUSH1 0x0 PUSH1 0x20 DUP3 ADD SWAP1 POP DUP2 DUP2 SUB PUSH1 0x0 DUP4 ADD MSTORE PUSH2 0xE7B DUP2 PUSH2 0xE3F JUMP JUMPDEST SWAP1 POP SWAP2 SWAP1 POP JUMP JUMPDEST PUSH32 0x494420696E636F72726563746F00000000000000000000000000000000000000 PUSH1 0x0 DUP3 ADD MSTORE POP JUMP JUMPDEST PUSH1 0x0 PUSH2 0xEB8 PUSH1 0xD DUP4 PUSH2 0xD99 JUMP JUMPDEST SWAP2 POP PUSH2 0xEC3 DUP3 PUSH2 0xE82 JUMP JUMPDEST PUSH1 0x20 DUP3 ADD SWAP1 POP SWAP2 SWAP1 POP JUMP JUMPDEST PUSH1 0x0 PUSH1 0x20 DUP3 ADD SWAP1 POP DUP2 DUP2 SUB PUSH1 0x0 DUP4 ADD MSTORE PUSH2 0xEE7 DUP2 PUSH2 0xEAB JUMP JUMPDEST SWAP1 POP SWAP2 SWAP1 POP JUMP JUMPDEST PUSH32 0x4E487B7100000000000000000000000000000000000000000000000000000000 PUSH1 0x0 MSTORE PUSH1 0x11 PUSH1 0x4 MSTORE PUSH1 0x24 PUSH1 0x0 REVERT JUMPDEST PUSH1 0x0 PUSH2 0xF28 DUP3 PUSH2 0xC12 JUMP JUMPDEST SWAP2 POP PUSH2 0xF33 DUP4 PUSH2 0xC12 JUMP JUMPDEST SWAP3 POP DUP3 DUP3 ADD SWAP1 POP DUP1 DUP3 GT ISZERO PUSH2 0xF4B JUMPI PUSH2 0xF4A PUSH2 0xEEE JUMP JUMPDEST JUMPDEST SWAP3 SWAP2 POP POP JUMP JUMPDEST PUSH1 0x0 PUSH2 0xF5C DUP3 PUSH2 0xC12 JUMP JUMPDEST SWAP2 POP PUSH32 0xFFFFFFFFFFFFFFFFFFFFFFFFFFFFFFFFFFFFFFFFFFFFFFFFFFFFFFFFFFFFFFFF DUP3 SUB PUSH2 0xF8E JUMPI PUSH2 0xF8D PUSH2 0xEEE JUMP JUMPDEST JUMPDEST PUSH1 0x1 DUP3 ADD SWAP1 POP SWAP2 SWAP1 POP JUMP JUMPDEST PUSH32 0x4E6F2068617920666F6E646F7320717565207265746972617200000000000000 PUSH1 0x0 DUP3 ADD MSTORE POP JUMP JUMPDEST PUSH1 0x0 PUSH2 0xFCF PUSH1 0x19 DUP4 PUSH2 0xD99 JUMP JUMPDEST SWAP2 POP PUSH2 0xFDA DUP3 PUSH2 0xF99 JUMP JUMPDEST PUSH1 0x20 DUP3 ADD SWAP1 POP SWAP2 SWAP1 POP JUMP JUMPDEST PUSH1 0x0 PUSH1 0x20 DUP3 ADD SWAP1 POP DUP2 DUP2 SUB PUSH1 0x0 DUP4 ADD MSTORE PUSH2 0xFFE DUP2 PUSH2 0xFC2 JUMP JUMPDEST SWAP1 POP SWAP2 SWAP1 POP JUMP JUMPDEST PUSH1 0x0 PUSH2 0x1010 DUP3 PUSH2 0xC12 JUMP JUMPDEST SWAP2 POP PUSH2 0x101B DUP4 PUSH2 0xC12 JUMP JUMPDEST SWAP3 POP DUP3 DUP3 SUB SWAP1 POP DUP2 DUP2 GT ISZERO PUSH2 0x1033 JUMPI PUSH2 0x1032 PUSH2 0xEEE JUMP JUMPDEST JUMPDEST SWAP3 SWAP2 POP POP JUMP JUMPDEST PUSH32 0x4C61206D6574612064652066696E616E6369616D69656E746F20796120736520 PUSH1 0x0 DUP3 ADD MSTORE PUSH32 0x686120616C63616E7A61646F0000000000000000000000000000000000000000 PUSH1 0x20 DUP3 ADD MSTORE POP JUMP JUMPDEST PUSH1 0x0 PUSH2 0x1095 PUSH1 0x2C DUP4 PUSH2 0xD99 JUMP JUMPDEST SWAP2 POP PUSH2 0x10A0 DUP3 PUSH2 0x1039 JUMP JUMPDEST PUSH1 0x40 DUP3 ADD SWAP1 POP SWAP2 SWAP1 POP JUMP JUMPDEST PUSH1 0x0 PUSH1 0x20 DUP3 ADD SWAP1 POP DUP2 DUP2 SUB PUSH1 0x0 DUP4 ADD MSTORE PUSH2 0x10C4 DUP2 PUSH2 0x1088 JUMP JUMPDEST SWAP1 POP SWAP2 SWAP1 POP JUMP INVALID LOG2 PUSH5 0x6970667358 0x22 SLT KECCAK256 0xBA JUMP EXTCODESIZE 0xE0 ISZERO 0xA5 0x4C 0xDD CREATE CODESIZE BALANCE 0x28 0x4A KECCAK256 BALANCE CHAINID ISZERO 0xC SLT 0xC2 0xCE PUSH22 0x9D0C2D19092E85D4047564736F6C6343000812003300 "
				},
				"gasEstimates": {
					"creation": {
						"codeDepositCost": "870600",
						"executionCost": "909",
						"totalCost": "871509"
					},
					"external": {
						"campaigns(uint256)": "infinite",
						"createFunding(uint256)": "infinite",
						"donations(uint256)": "infinite",
						"endFund(uint256)": "40800",
						"fund(uint256)": "infinite",
						"removeFund(uint256)": "infinite"
					}
				},
				"methodIdentifiers": {
					"campaigns(uint256)": "141961bc",
					"createFunding(uint256)": "c80e4dfd",
					"donations(uint256)": "f8626af8",
					"endFund(uint256)": "1be6d8d7",
					"fund(uint256)": "ca1d209d",
					"removeFund(uint256)": "3af388e0"
				}
			},
			"storageLayout": {
				"storage": [
					{
						"astId": 49,
						"contract": "hito2/hito2.sol:Fundraiser",
						"label": "donations",
						"offset": 0,
						"slot": "0",
						"type": "t_array(t_struct(donation)45_storage)dyn_storage"
					},
					{
						"astId": 53,
						"contract": "hito2/hito2.sol:Fundraiser",
						"label": "campaigns",
						"offset": 0,
						"slot": "1",
						"type": "t_array(t_struct(campaign)38_storage)dyn_storage"
					},
					{
						"astId": 57,
						"contract": "hito2/hito2.sol:Fundraiser",
						"label": "amounts",
						"offset": 0,
						"slot": "2",
						"type": "t_mapping(t_uint256,t_uint256)"
					}
				],
				"types": {
					"t_address": {
						"encoding": "inplace",
						"label": "address",
						"numberOfBytes": "20"
					},
					"t_array(t_struct(campaign)38_storage)dyn_storage": {
						"base": "t_struct(campaign)38_storage",
						"encoding": "dynamic_array",
						"label": "struct Fundraiser.campaign[]",
						"numberOfBytes": "32"
					},
					"t_array(t_struct(donation)45_storage)dyn_storage": {
						"base": "t_struct(donation)45_storage",
						"encoding": "dynamic_array",
						"label": "struct Fundraiser.donation[]",
						"numberOfBytes": "32"
					},
					"t_bool": {
						"encoding": "inplace",
						"label": "bool",
						"numberOfBytes": "1"
					},
					"t_mapping(t_uint256,t_uint256)": {
						"encoding": "mapping",
						"key": "t_uint256",
						"label": "mapping(uint256 => uint256)",
						"numberOfBytes": "32",
						"value": "t_uint256"
					},
					"t_struct(campaign)38_storage": {
						"encoding": "inplace",
						"label": "struct Fundraiser.campaign",
						"members": [
							{
								"astId": 29,
								"contract": "hito2/hito2.sol:Fundraiser",
								"label": "goal",
								"offset": 0,
								"slot": "0",
								"type": "t_uint256"
							},
							{
								"astId": 31,
								"contract": "hito2/hito2.sol:Fundraiser",
								"label": "creator",
								"offset": 0,
								"slot": "1",
								"type": "t_address"
							},
							{
								"astId": 33,
								"contract": "hito2/hito2.sol:Fundraiser",
								"label": "id",
								"offset": 0,
								"slot": "2",
								"type": "t_uint256"
							},
							{
								"astId": 35,
								"contract": "hito2/hito2.sol:Fundraiser",
								"label": "ended",
								"offset": 0,
								"slot": "3",
								"type": "t_bool"
							},
							{
								"astId": 37,
								"contract": "hito2/hito2.sol:Fundraiser",
								"label": "closed",
								"offset": 1,
								"slot": "3",
								"type": "t_bool"
							}
						],
						"numberOfBytes": "128"
					},
					"t_struct(donation)45_storage": {
						"encoding": "inplace",
						"label": "struct Fundraiser.donation",
						"members": [
							{
								"astId": 40,
								"contract": "hito2/hito2.sol:Fundraiser",
								"label": "donator",
								"offset": 0,
								"slot": "0",
								"type": "t_address"
							},
							{
								"astId": 42,
								"contract": "hito2/hito2.sol:Fundraiser",
								"label": "amount",
								"offset": 0,
								"slot": "1",
								"type": "t_uint256"
							},
							{
								"astId": 44,
								"contract": "hito2/hito2.sol:Fundraiser",
								"label": "id",
								"offset": 0,
								"slot": "2",
								"type": "t_uint256"
							}
						],
						"numberOfBytes": "96"
					},
					"t_uint256": {
						"encoding": "inplace",
						"label": "uint256",
						"numberOfBytes": "32"
					}
				}
			},
			"userdoc": {
				"kind": "user",
				"methods": {},
				"version": 1
			}
		}
	}
}