{
	"levelup/newdex.sol": {
		"DEX_CTF": {
			"abi": [
				{
					"inputs": [
						{
							"internalType": "address",
							"name": "_tokenA",
							"type": "address"
						},
						{
							"internalType": "address",
							"name": "_tokenB",
							"type": "address"
						},
						{
							"internalType": "string",
							"name": "_flag",
							"type": "string"
						}
					],
					"stateMutability": "nonpayable",
					"type": "constructor"
				},
				{
					"anonymous": false,
					"inputs": [
						{
							"indexed": true,
							"internalType": "address",
							"name": "previousOwner",
							"type": "address"
						},
						{
							"indexed": true,
							"internalType": "address",
							"name": "newOwner",
							"type": "address"
						}
					],
					"name": "OwnershipTransferred",
					"type": "event"
				},
				{
					"inputs": [
						{
							"internalType": "uint256",
							"name": "amountA",
							"type": "uint256"
						},
						{
							"internalType": "uint256",
							"name": "amountB",
							"type": "uint256"
						}
					],
					"name": "createPool",
					"outputs": [],
					"stateMutability": "nonpayable",
					"type": "function"
				},
				{
					"inputs": [],
					"name": "getFlag",
					"outputs": [
						{
							"internalType": "string",
							"name": "",
							"type": "string"
						}
					],
					"stateMutability": "view",
					"type": "function"
				},
				{
					"inputs": [],
					"name": "liquidityA",
					"outputs": [
						{
							"internalType": "uint256",
							"name": "",
							"type": "uint256"
						}
					],
					"stateMutability": "view",
					"type": "function"
				},
				{
					"inputs": [],
					"name": "liquidityB",
					"outputs": [
						{
							"internalType": "uint256",
							"name": "",
							"type": "uint256"
						}
					],
					"stateMutability": "view",
					"type": "function"
				},
				{
					"inputs": [],
					"name": "liquidityProvider",
					"outputs": [
						{
							"internalType": "address",
							"name": "",
							"type": "address"
						}
					],
					"stateMutability": "view",
					"type": "function"
				},
				{
					"inputs": [],
					"name": "owner",
					"outputs": [
						{
							"internalType": "address",
							"name": "",
							"type": "address"
						}
					],
					"stateMutability": "view",
					"type": "function"
				},
				{
					"inputs": [],
					"name": "proportion",
					"outputs": [
						{
							"internalType": "uint256",
							"name": "",
							"type": "uint256"
						}
					],
					"stateMutability": "view",
					"type": "function"
				},
				{
					"inputs": [],
					"name": "renounceOwnership",
					"outputs": [],
					"stateMutability": "nonpayable",
					"type": "function"
				},
				{
					"inputs": [],
					"name": "swap",
					"outputs": [
						{
							"internalType": "bool",
							"name": "",
							"type": "bool"
						}
					],
					"stateMutability": "view",
					"type": "function"
				},
				{
					"inputs": [],
					"name": "swapAforB",
					"outputs": [],
					"stateMutability": "nonpayable",
					"type": "function"
				},
				{
					"inputs": [],
					"name": "swapBforA",
					"outputs": [],
					"stateMutability": "nonpayable",
					"type": "function"
				},
				{
					"inputs": [],
					"name": "tokenA",
					"outputs": [
						{
							"internalType": "contract Itoken",
							"name": "",
							"type": "address"
						}
					],
					"stateMutability": "view",
					"type": "function"
				},
				{
					"inputs": [],
					"name": "tokenB",
					"outputs": [
						{
							"internalType": "contract Itoken",
							"name": "",
							"type": "address"
						}
					],
					"stateMutability": "view",
					"type": "function"
				},
				{
					"inputs": [
						{
							"internalType": "address",
							"name": "newOwner",
							"type": "address"
						}
					],
					"name": "transferOwnership",
					"outputs": [],
					"stateMutability": "nonpayable",
					"type": "function"
				}
			],
			"devdoc": {
				"kind": "dev",
				"methods": {
					"owner()": {
						"details": "Returns the address of the current owner."
					},
					"renounceOwnership()": {
						"details": "Leaves the contract without owner. It will not be possible to call `onlyOwner` functions. Can only be called by the current owner. NOTE: Renouncing ownership will leave the contract without an owner, thereby disabling any functionality that is only available to the owner."
					},
					"transferOwnership(address)": {
						"details": "Transfers ownership of the contract to a new account (`newOwner`). Can only be called by the current owner."
					}
				},
				"version": 1
			},
			"evm": {
				"assembly": "    /* \"levelup/newdex.sol\":924:3418  contract DEX_CTF is Ownable {... */\n  mstore(0x40, 0x80)\n    /* \"levelup/newdex.sol\":1109:1110  0 */\n  0x00\n    /* \"levelup/newdex.sol\":1066:1111  address public liquidityProvider = address(0) */\n  0x05\n  exp(0x0100, 0x00)\n  dup2\n  sload\n  dup2\n  0xffffffffffffffffffffffffffffffffffffffff\n  mul\n  not\n  and\n  swap1\n  dup4\n  0xffffffffffffffffffffffffffffffffffffffff\n  and\n  mul\n  or\n  swap1\n  sstore\n  pop\n    /* \"levelup/newdex.sol\":1167:1173  tokenA */\n  0x01\n  0x00\n  swap1\n  sload\n  swap1\n  0x0100\n  exp\n  swap1\n  div\n  0xffffffffffffffffffffffffffffffffffffffff\n  and\n    /* \"levelup/newdex.sol\":1167:1183  tokenA.balanceOf */\n  0xffffffffffffffffffffffffffffffffffffffff\n  and\n  0x70a08231\n    /* \"levelup/newdex.sol\":1192:1196  this */\n  address\n    /* \"levelup/newdex.sol\":1167:1198  tokenA.balanceOf(address(this)) */\n  mload(0x40)\n  dup3\n  0xffffffff\n  and\n  0xe0\n  shl\n  dup2\n  mstore\n  0x04\n  add\n  tag_1\n  swap2\n  swap1\n  tag_2\n  jump\t// in\ntag_1:\n  0x20\n  mload(0x40)\n  dup1\n  dup4\n  sub\n  dup2\n  dup7\n  gas\n  staticcall\n  iszero\n  dup1\n  iszero\n  tag_4\n  jumpi\n  returndatasize\n  0x00\n  dup1\n  returndatacopy\n  revert(0x00, returndatasize)\ntag_4:\n  pop\n  pop\n  pop\n  pop\n  mload(0x40)\n  returndatasize\n  not(0x1f)\n  0x1f\n  dup3\n  add\n  and\n  dup3\n  add\n  dup1\n  0x40\n  mstore\n  pop\n  dup2\n  add\n  swap1\n  tag_5\n  swap2\n  swap1\n  tag_6\n  jump\t// in\ntag_5:\n    /* \"levelup/newdex.sol\":1139:1198  uint256 public liquidityA = tokenA.balanceOf(address(this)) */\n  0x06\n  sstore\n    /* \"levelup/newdex.sol\":1232:1238  tokenB */\n  0x02\n  0x00\n  swap1\n  sload\n  swap1\n  0x0100\n  exp\n  swap1\n  div\n  0xffffffffffffffffffffffffffffffffffffffff\n  and\n    /* \"levelup/newdex.sol\":1232:1248  tokenB.balanceOf */\n  0xffffffffffffffffffffffffffffffffffffffff\n  and\n  0x70a08231\n    /* \"levelup/newdex.sol\":1257:1261  this */\n  address\n    /* \"levelup/newdex.sol\":1232:1263  tokenB.balanceOf(address(this)) */\n  mload(0x40)\n  dup3\n  0xffffffff\n  and\n  0xe0\n  shl\n  dup2\n  mstore\n  0x04\n  add\n  tag_7\n  swap2\n  swap1\n  tag_2\n  jump\t// in\ntag_7:\n  0x20\n  mload(0x40)\n  dup1\n  dup4\n  sub\n  dup2\n  dup7\n  gas\n  staticcall\n  iszero\n  dup1\n  iszero\n  tag_9\n  jumpi\n  returndatasize\n  0x00\n  dup1\n  returndatacopy\n  revert(0x00, returndatasize)\ntag_9:\n  pop\n  pop\n  pop\n  pop\n  mload(0x40)\n  returndatasize\n  not(0x1f)\n  0x1f\n  dup3\n  add\n  and\n  dup3\n  add\n  dup1\n  0x40\n  mstore\n  pop\n  dup2\n  add\n  swap1\n  tag_10\n  swap2\n  swap1\n  tag_6\n  jump\t// in\ntag_10:\n    /* \"levelup/newdex.sol\":1204:1263  uint256 public liquidityB = tokenB.balanceOf(address(this)) */\n  0x07\n  sstore\n    /* \"levelup/newdex.sol\":1272:1436  constructor(address _tokenA, address _tokenB, string memory _flag) {... */\n  callvalue\n  dup1\n  iszero\n  tag_11\n  jumpi\n  0x00\n  dup1\n  revert\ntag_11:\n  pop\n  mload(0x40)\n  sub(codesize, bytecodeSize)\n  dup1\n  bytecodeSize\n  dup4\n  codecopy\n  dup2\n  dup2\n  add\n  0x40\n  mstore\n  dup2\n  add\n  swap1\n  tag_12\n  swap2\n  swap1\n  tag_13\n  jump\t// in\ntag_12:\n    /* \"@openzeppelin/contracts/access/Ownable.sol\":936:968  _transferOwnership(_msgSender()) */\n  tag_17\n    /* \"@openzeppelin/contracts/access/Ownable.sol\":955:967  _msgSender() */\n  tag_18\n    /* \"@openzeppelin/contracts/access/Ownable.sol\":955:965  _msgSender */\n  shl(0x20, tag_19)\n    /* \"@openzeppelin/contracts/access/Ownable.sol\":955:967  _msgSender() */\n  0x20\n  shr\n  jump\t// in\ntag_18:\n    /* \"@openzeppelin/contracts/access/Ownable.sol\":936:954  _transferOwnership */\n  shl(0x20, tag_20)\n    /* \"@openzeppelin/contracts/access/Ownable.sol\":936:968  _transferOwnership(_msgSender()) */\n  0x20\n  shr\n  jump\t// in\ntag_17:\n    /* \"levelup/newdex.sol\":1365:1372  _tokenA */\n  dup3\n    /* \"levelup/newdex.sol\":1349:1355  tokenA */\n  0x01\n  0x00\n    /* \"levelup/newdex.sol\":1349:1373  tokenA = Itoken(_tokenA) */\n  0x0100\n  exp\n  dup2\n  sload\n  dup2\n  0xffffffffffffffffffffffffffffffffffffffff\n  mul\n  not\n  and\n  swap1\n  dup4\n  0xffffffffffffffffffffffffffffffffffffffff\n  and\n  mul\n  or\n  swap1\n  sstore\n  pop\n    /* \"levelup/newdex.sol\":1399:1406  _tokenB */\n  dup2\n    /* \"levelup/newdex.sol\":1383:1389  tokenB */\n  0x02\n  0x00\n    /* \"levelup/newdex.sol\":1383:1407  tokenB = Itoken(_tokenB) */\n  0x0100\n  exp\n  dup2\n  sload\n  dup2\n  0xffffffffffffffffffffffffffffffffffffffff\n  mul\n  not\n  and\n  swap1\n  dup4\n  0xffffffffffffffffffffffffffffffffffffffff\n  and\n  mul\n  or\n  swap1\n  sstore\n  pop\n    /* \"levelup/newdex.sol\":1424:1429  _flag */\n  dup1\n    /* \"levelup/newdex.sol\":1417:1421  flag */\n  0x03\n    /* \"levelup/newdex.sol\":1417:1429  flag = _flag */\n  swap1\n  dup2\n  tag_22\n  swap2\n  swap1\n  tag_23\n  jump\t// in\ntag_22:\n  pop\n    /* \"levelup/newdex.sol\":1272:1436  constructor(address _tokenA, address _tokenB, string memory _flag) {... */\n  pop\n  pop\n  pop\n    /* \"levelup/newdex.sol\":924:3418  contract DEX_CTF is Ownable {... */\n  jump(tag_24)\n    /* \"@openzeppelin/contracts/utils/Context.sol\":640:736  function _msgSender() internal view virtual returns (address) {... */\ntag_19:\n    /* \"@openzeppelin/contracts/utils/Context.sol\":693:700  address */\n  0x00\n    /* \"@openzeppelin/contracts/utils/Context.sol\":719:729  msg.sender */\n  caller\n    /* \"@openzeppelin/contracts/utils/Context.sol\":712:729  return msg.sender */\n  swap1\n  pop\n    /* \"@openzeppelin/contracts/utils/Context.sol\":640:736  function _msgSender() internal view virtual returns (address) {... */\n  swap1\n  jump\t// out\n    /* \"@openzeppelin/contracts/access/Ownable.sol\":2426:2613  function _transferOwnership(address newOwner) internal virtual {... */\ntag_20:\n    /* \"@openzeppelin/contracts/access/Ownable.sol\":2499:2515  address oldOwner */\n  0x00\n    /* \"@openzeppelin/contracts/access/Ownable.sol\":2518:2524  _owner */\n  dup1\n  0x00\n  swap1\n  sload\n  swap1\n  0x0100\n  exp\n  swap1\n  div\n  0xffffffffffffffffffffffffffffffffffffffff\n  and\n    /* \"@openzeppelin/contracts/access/Ownable.sol\":2499:2524  address oldOwner = _owner */\n  swap1\n  pop\n    /* \"@openzeppelin/contracts/access/Ownable.sol\":2543:2551  newOwner */\n  dup2\n    /* \"@openzeppelin/contracts/access/Ownable.sol\":2534:2540  _owner */\n  0x00\n  dup1\n    /* \"@openzeppelin/contracts/access/Ownable.sol\":2534:2551  _owner = newOwner */\n  0x0100\n  exp\n  dup2\n  sload\n  dup2\n  0xffffffffffffffffffffffffffffffffffffffff\n  mul\n  not\n  and\n  swap1\n  dup4\n  0xffffffffffffffffffffffffffffffffffffffff\n  and\n  mul\n  or\n  swap1\n  sstore\n  pop\n    /* \"@openzeppelin/contracts/access/Ownable.sol\":2597:2605  newOwner */\n  dup2\n    /* \"@openzeppelin/contracts/access/Ownable.sol\":2566:2606  OwnershipTransferred(oldOwner, newOwner) */\n  0xffffffffffffffffffffffffffffffffffffffff\n  and\n    /* \"@openzeppelin/contracts/access/Ownable.sol\":2587:2595  oldOwner */\n  dup2\n    /* \"@openzeppelin/contracts/access/Ownable.sol\":2566:2606  OwnershipTransferred(oldOwner, newOwner) */\n  0xffffffffffffffffffffffffffffffffffffffff\n  and\n  0x8be0079c531659141344cd1fd0a4f28419497f9722a3daafe3b4186f6b6457e0\n  mload(0x40)\n  mload(0x40)\n  dup1\n  swap2\n  sub\n  swap1\n  log3\n    /* \"@openzeppelin/contracts/access/Ownable.sol\":2489:2613  {... */\n  pop\n    /* \"@openzeppelin/contracts/access/Ownable.sol\":2426:2613  function _transferOwnership(address newOwner) internal virtual {... */\n  pop\n  jump\t// out\n    /* \"#utility.yul\":7:133   */\ntag_27:\n    /* \"#utility.yul\":44:51   */\n  0x00\n    /* \"#utility.yul\":84:126   */\n  0xffffffffffffffffffffffffffffffffffffffff\n    /* \"#utility.yul\":77:82   */\n  dup3\n    /* \"#utility.yul\":73:127   */\n  and\n    /* \"#utility.yul\":62:127   */\n  swap1\n  pop\n    /* \"#utility.yul\":7:133   */\n  swap2\n  swap1\n  pop\n  jump\t// out\n    /* \"#utility.yul\":139:235   */\ntag_28:\n    /* \"#utility.yul\":176:183   */\n  0x00\n    /* \"#utility.yul\":205:229   */\n  tag_69\n    /* \"#utility.yul\":223:228   */\n  dup3\n    /* \"#utility.yul\":205:229   */\n  tag_27\n  jump\t// in\ntag_69:\n    /* \"#utility.yul\":194:229   */\n  swap1\n  pop\n    /* \"#utility.yul\":139:235   */\n  swap2\n  swap1\n  pop\n  jump\t// out\n    /* \"#utility.yul\":241:359   */\ntag_29:\n    /* \"#utility.yul\":328:352   */\n  tag_71\n    /* \"#utility.yul\":346:351   */\n  dup2\n    /* \"#utility.yul\":328:352   */\n  tag_28\n  jump\t// in\ntag_71:\n    /* \"#utility.yul\":323:326   */\n  dup3\n    /* \"#utility.yul\":316:353   */\n  mstore\n    /* \"#utility.yul\":241:359   */\n  pop\n  pop\n  jump\t// out\n    /* \"#utility.yul\":365:587   */\ntag_2:\n    /* \"#utility.yul\":458:462   */\n  0x00\n    /* \"#utility.yul\":496:498   */\n  0x20\n    /* \"#utility.yul\":485:494   */\n  dup3\n    /* \"#utility.yul\":481:499   */\n  add\n    /* \"#utility.yul\":473:499   */\n  swap1\n  pop\n    /* \"#utility.yul\":509:580   */\n  tag_73\n    /* \"#utility.yul\":577:578   */\n  0x00\n    /* \"#utility.yul\":566:575   */\n  dup4\n    /* \"#utility.yul\":562:579   */\n  add\n    /* \"#utility.yul\":553:559   */\n  dup5\n    /* \"#utility.yul\":509:580   */\n  tag_29\n  jump\t// in\ntag_73:\n    /* \"#utility.yul\":365:587   */\n  swap3\n  swap2\n  pop\n  pop\n  jump\t// out\n    /* \"#utility.yul\":593:668   */\ntag_30:\n    /* \"#utility.yul\":626:632   */\n  0x00\n    /* \"#utility.yul\":659:661   */\n  0x40\n    /* \"#utility.yul\":653:662   */\n  mload\n    /* \"#utility.yul\":643:662   */\n  swap1\n  pop\n    /* \"#utility.yul\":593:668   */\n  swap1\n  jump\t// out\n    /* \"#utility.yul\":674:791   */\ntag_31:\n    /* \"#utility.yul\":783:784   */\n  0x00\n    /* \"#utility.yul\":780:781   */\n  dup1\n    /* \"#utility.yul\":773:785   */\n  revert\n    /* \"#utility.yul\":797:914   */\ntag_32:\n    /* \"#utility.yul\":906:907   */\n  0x00\n    /* \"#utility.yul\":903:904   */\n  dup1\n    /* \"#utility.yul\":896:908   */\n  revert\n    /* \"#utility.yul\":920:997   */\ntag_33:\n    /* \"#utility.yul\":957:964   */\n  0x00\n    /* \"#utility.yul\":986:991   */\n  dup2\n    /* \"#utility.yul\":975:991   */\n  swap1\n  pop\n    /* \"#utility.yul\":920:997   */\n  swap2\n  swap1\n  pop\n  jump\t// out\n    /* \"#utility.yul\":1003:1125   */\ntag_34:\n    /* \"#utility.yul\":1076:1100   */\n  tag_79\n    /* \"#utility.yul\":1094:1099   */\n  dup2\n    /* \"#utility.yul\":1076:1100   */\n  tag_33\n  jump\t// in\ntag_79:\n    /* \"#utility.yul\":1069:1074   */\n  dup2\n    /* \"#utility.yul\":1066:1101   */\n  eq\n    /* \"#utility.yul\":1056:1119   */\n  tag_80\n  jumpi\n    /* \"#utility.yul\":1115:1116   */\n  0x00\n    /* \"#utility.yul\":1112:1113   */\n  dup1\n    /* \"#utility.yul\":1105:1117   */\n  revert\n    /* \"#utility.yul\":1056:1119   */\ntag_80:\n    /* \"#utility.yul\":1003:1125   */\n  pop\n  jump\t// out\n    /* \"#utility.yul\":1131:1274   */\ntag_35:\n    /* \"#utility.yul\":1188:1193   */\n  0x00\n    /* \"#utility.yul\":1219:1225   */\n  dup2\n    /* \"#utility.yul\":1213:1226   */\n  mload\n    /* \"#utility.yul\":1204:1226   */\n  swap1\n  pop\n    /* \"#utility.yul\":1235:1268   */\n  tag_82\n    /* \"#utility.yul\":1262:1267   */\n  dup2\n    /* \"#utility.yul\":1235:1268   */\n  tag_34\n  jump\t// in\ntag_82:\n    /* \"#utility.yul\":1131:1274   */\n  swap3\n  swap2\n  pop\n  pop\n  jump\t// out\n    /* \"#utility.yul\":1280:1631   */\ntag_6:\n    /* \"#utility.yul\":1350:1356   */\n  0x00\n    /* \"#utility.yul\":1399:1401   */\n  0x20\n    /* \"#utility.yul\":1387:1396   */\n  dup3\n    /* \"#utility.yul\":1378:1385   */\n  dup5\n    /* \"#utility.yul\":1374:1397   */\n  sub\n    /* \"#utility.yul\":1370:1402   */\n  slt\n    /* \"#utility.yul\":1367:1486   */\n  iszero\n  tag_84\n  jumpi\n    /* \"#utility.yul\":1405:1484   */\n  tag_85\n  tag_31\n  jump\t// in\ntag_85:\n    /* \"#utility.yul\":1367:1486   */\ntag_84:\n    /* \"#utility.yul\":1525:1526   */\n  0x00\n    /* \"#utility.yul\":1550:1614   */\n  tag_86\n    /* \"#utility.yul\":1606:1613   */\n  dup5\n    /* \"#utility.yul\":1597:1603   */\n  dup3\n    /* \"#utility.yul\":1586:1595   */\n  dup6\n    /* \"#utility.yul\":1582:1604   */\n  add\n    /* \"#utility.yul\":1550:1614   */\n  tag_35\n  jump\t// in\ntag_86:\n    /* \"#utility.yul\":1540:1614   */\n  swap2\n  pop\n    /* \"#utility.yul\":1496:1624   */\n  pop\n    /* \"#utility.yul\":1280:1631   */\n  swap3\n  swap2\n  pop\n  pop\n  jump\t// out\n    /* \"#utility.yul\":1637:1759   */\ntag_36:\n    /* \"#utility.yul\":1710:1734   */\n  tag_88\n    /* \"#utility.yul\":1728:1733   */\n  dup2\n    /* \"#utility.yul\":1710:1734   */\n  tag_28\n  jump\t// in\ntag_88:\n    /* \"#utility.yul\":1703:1708   */\n  dup2\n    /* \"#utility.yul\":1700:1735   */\n  eq\n    /* \"#utility.yul\":1690:1753   */\n  tag_89\n  jumpi\n    /* \"#utility.yul\":1749:1750   */\n  0x00\n    /* \"#utility.yul\":1746:1747   */\n  dup1\n    /* \"#utility.yul\":1739:1751   */\n  revert\n    /* \"#utility.yul\":1690:1753   */\ntag_89:\n    /* \"#utility.yul\":1637:1759   */\n  pop\n  jump\t// out\n    /* \"#utility.yul\":1765:1908   */\ntag_37:\n    /* \"#utility.yul\":1822:1827   */\n  0x00\n    /* \"#utility.yul\":1853:1859   */\n  dup2\n    /* \"#utility.yul\":1847:1860   */\n  mload\n    /* \"#utility.yul\":1838:1860   */\n  swap1\n  pop\n    /* \"#utility.yul\":1869:1902   */\n  tag_91\n    /* \"#utility.yul\":1896:1901   */\n  dup2\n    /* \"#utility.yul\":1869:1902   */\n  tag_36\n  jump\t// in\ntag_91:\n    /* \"#utility.yul\":1765:1908   */\n  swap3\n  swap2\n  pop\n  pop\n  jump\t// out\n    /* \"#utility.yul\":1914:2031   */\ntag_38:\n    /* \"#utility.yul\":2023:2024   */\n  0x00\n    /* \"#utility.yul\":2020:2021   */\n  dup1\n    /* \"#utility.yul\":2013:2025   */\n  revert\n    /* \"#utility.yul\":2037:2154   */\ntag_39:\n    /* \"#utility.yul\":2146:2147   */\n  0x00\n    /* \"#utility.yul\":2143:2144   */\n  dup1\n    /* \"#utility.yul\":2136:2148   */\n  revert\n    /* \"#utility.yul\":2160:2262   */\ntag_40:\n    /* \"#utility.yul\":2201:2207   */\n  0x00\n    /* \"#utility.yul\":2252:2254   */\n  0x1f\n    /* \"#utility.yul\":2248:2255   */\n  not\n    /* \"#utility.yul\":2243:2245   */\n  0x1f\n    /* \"#utility.yul\":2236:2241   */\n  dup4\n    /* \"#utility.yul\":2232:2246   */\n  add\n    /* \"#utility.yul\":2228:2256   */\n  and\n    /* \"#utility.yul\":2218:2256   */\n  swap1\n  pop\n    /* \"#utility.yul\":2160:2262   */\n  swap2\n  swap1\n  pop\n  jump\t// out\n    /* \"#utility.yul\":2268:2448   */\ntag_41:\n    /* \"#utility.yul\":2316:2393   */\n  0x4e487b7100000000000000000000000000000000000000000000000000000000\n    /* \"#utility.yul\":2313:2314   */\n  0x00\n    /* \"#utility.yul\":2306:2394   */\n  mstore\n    /* \"#utility.yul\":2413:2417   */\n  0x41\n    /* \"#utility.yul\":2410:2411   */\n  0x04\n    /* \"#utility.yul\":2403:2418   */\n  mstore\n    /* \"#utility.yul\":2437:2441   */\n  0x24\n    /* \"#utility.yul\":2434:2435   */\n  0x00\n    /* \"#utility.yul\":2427:2442   */\n  revert\n    /* \"#utility.yul\":2454:2735   */\ntag_42:\n    /* \"#utility.yul\":2537:2564   */\n  tag_97\n    /* \"#utility.yul\":2559:2563   */\n  dup3\n    /* \"#utility.yul\":2537:2564   */\n  tag_40\n  jump\t// in\ntag_97:\n    /* \"#utility.yul\":2529:2535   */\n  dup2\n    /* \"#utility.yul\":2525:2565   */\n  add\n    /* \"#utility.yul\":2667:2673   */\n  dup2\n    /* \"#utility.yul\":2655:2665   */\n  dup2\n    /* \"#utility.yul\":2652:2674   */\n  lt\n    /* \"#utility.yul\":2631:2649   */\n  0xffffffffffffffff\n    /* \"#utility.yul\":2619:2629   */\n  dup3\n    /* \"#utility.yul\":2616:2650   */\n  gt\n    /* \"#utility.yul\":2613:2675   */\n  or\n    /* \"#utility.yul\":2610:2698   */\n  iszero\n  tag_98\n  jumpi\n    /* \"#utility.yul\":2678:2696   */\n  tag_99\n  tag_41\n  jump\t// in\ntag_99:\n    /* \"#utility.yul\":2610:2698   */\ntag_98:\n    /* \"#utility.yul\":2718:2728   */\n  dup1\n    /* \"#utility.yul\":2714:2716   */\n  0x40\n    /* \"#utility.yul\":2707:2729   */\n  mstore\n    /* \"#utility.yul\":2497:2735   */\n  pop\n    /* \"#utility.yul\":2454:2735   */\n  pop\n  pop\n  jump\t// out\n    /* \"#utility.yul\":2741:2870   */\ntag_43:\n    /* \"#utility.yul\":2775:2781   */\n  0x00\n    /* \"#utility.yul\":2802:2822   */\n  tag_101\n  tag_30\n  jump\t// in\ntag_101:\n    /* \"#utility.yul\":2792:2822   */\n  swap1\n  pop\n    /* \"#utility.yul\":2831:2864   */\n  tag_102\n    /* \"#utility.yul\":2859:2863   */\n  dup3\n    /* \"#utility.yul\":2851:2857   */\n  dup3\n    /* \"#utility.yul\":2831:2864   */\n  tag_42\n  jump\t// in\ntag_102:\n    /* \"#utility.yul\":2741:2870   */\n  swap2\n  swap1\n  pop\n  jump\t// out\n    /* \"#utility.yul\":2876:3184   */\ntag_44:\n    /* \"#utility.yul\":2938:2942   */\n  0x00\n    /* \"#utility.yul\":3028:3046   */\n  0xffffffffffffffff\n    /* \"#utility.yul\":3020:3026   */\n  dup3\n    /* \"#utility.yul\":3017:3047   */\n  gt\n    /* \"#utility.yul\":3014:3070   */\n  iszero\n  tag_104\n  jumpi\n    /* \"#utility.yul\":3050:3068   */\n  tag_105\n  tag_41\n  jump\t// in\ntag_105:\n    /* \"#utility.yul\":3014:3070   */\ntag_104:\n    /* \"#utility.yul\":3088:3117   */\n  tag_106\n    /* \"#utility.yul\":3110:3116   */\n  dup3\n    /* \"#utility.yul\":3088:3117   */\n  tag_40\n  jump\t// in\ntag_106:\n    /* \"#utility.yul\":3080:3117   */\n  swap1\n  pop\n    /* \"#utility.yul\":3172:3176   */\n  0x20\n    /* \"#utility.yul\":3166:3170   */\n  dup2\n    /* \"#utility.yul\":3162:3177   */\n  add\n    /* \"#utility.yul\":3154:3177   */\n  swap1\n  pop\n    /* \"#utility.yul\":2876:3184   */\n  swap2\n  swap1\n  pop\n  jump\t// out\n    /* \"#utility.yul\":3190:3436   */\ntag_45:\n    /* \"#utility.yul\":3271:3272   */\n  0x00\n    /* \"#utility.yul\":3281:3394   */\ntag_108:\n    /* \"#utility.yul\":3295:3301   */\n  dup4\n    /* \"#utility.yul\":3292:3293   */\n  dup2\n    /* \"#utility.yul\":3289:3302   */\n  lt\n    /* \"#utility.yul\":3281:3394   */\n  iszero\n  tag_110\n  jumpi\n    /* \"#utility.yul\":3380:3381   */\n  dup1\n    /* \"#utility.yul\":3375:3378   */\n  dup3\n    /* \"#utility.yul\":3371:3382   */\n  add\n    /* \"#utility.yul\":3365:3383   */\n  mload\n    /* \"#utility.yul\":3361:3362   */\n  dup2\n    /* \"#utility.yul\":3356:3359   */\n  dup5\n    /* \"#utility.yul\":3352:3363   */\n  add\n    /* \"#utility.yul\":3345:3384   */\n  mstore\n    /* \"#utility.yul\":3317:3319   */\n  0x20\n    /* \"#utility.yul\":3314:3315   */\n  dup2\n    /* \"#utility.yul\":3310:3320   */\n  add\n    /* \"#utility.yul\":3305:3320   */\n  swap1\n  pop\n    /* \"#utility.yul\":3281:3394   */\n  jump(tag_108)\ntag_110:\n    /* \"#utility.yul\":3428:3429   */\n  0x00\n    /* \"#utility.yul\":3419:3425   */\n  dup5\n    /* \"#utility.yul\":3414:3417   */\n  dup5\n    /* \"#utility.yul\":3410:3426   */\n  add\n    /* \"#utility.yul\":3403:3430   */\n  mstore\n    /* \"#utility.yul\":3252:3436   */\n  pop\n    /* \"#utility.yul\":3190:3436   */\n  pop\n  pop\n  pop\n  jump\t// out\n    /* \"#utility.yul\":3442:3876   */\ntag_46:\n    /* \"#utility.yul\":3531:3536   */\n  0x00\n    /* \"#utility.yul\":3556:3622   */\n  tag_112\n    /* \"#utility.yul\":3572:3621   */\n  tag_113\n    /* \"#utility.yul\":3614:3620   */\n  dup5\n    /* \"#utility.yul\":3572:3621   */\n  tag_44\n  jump\t// in\ntag_113:\n    /* \"#utility.yul\":3556:3622   */\n  tag_43\n  jump\t// in\ntag_112:\n    /* \"#utility.yul\":3547:3622   */\n  swap1\n  pop\n    /* \"#utility.yul\":3645:3651   */\n  dup3\n    /* \"#utility.yul\":3638:3643   */\n  dup2\n    /* \"#utility.yul\":3631:3652   */\n  mstore\n    /* \"#utility.yul\":3683:3687   */\n  0x20\n    /* \"#utility.yul\":3676:3681   */\n  dup2\n    /* \"#utility.yul\":3672:3688   */\n  add\n    /* \"#utility.yul\":3721:3724   */\n  dup5\n    /* \"#utility.yul\":3712:3718   */\n  dup5\n    /* \"#utility.yul\":3707:3710   */\n  dup5\n    /* \"#utility.yul\":3703:3719   */\n  add\n    /* \"#utility.yul\":3700:3725   */\n  gt\n    /* \"#utility.yul\":3697:3809   */\n  iszero\n  tag_114\n  jumpi\n    /* \"#utility.yul\":3728:3807   */\n  tag_115\n  tag_39\n  jump\t// in\ntag_115:\n    /* \"#utility.yul\":3697:3809   */\ntag_114:\n    /* \"#utility.yul\":3818:3870   */\n  tag_116\n    /* \"#utility.yul\":3863:3869   */\n  dup5\n    /* \"#utility.yul\":3858:3861   */\n  dup3\n    /* \"#utility.yul\":3853:3856   */\n  dup6\n    /* \"#utility.yul\":3818:3870   */\n  tag_45\n  jump\t// in\ntag_116:\n    /* \"#utility.yul\":3537:3876   */\n  pop\n    /* \"#utility.yul\":3442:3876   */\n  swap4\n  swap3\n  pop\n  pop\n  pop\n  jump\t// out\n    /* \"#utility.yul\":3896:4251   */\ntag_47:\n    /* \"#utility.yul\":3963:3968   */\n  0x00\n    /* \"#utility.yul\":4012:4015   */\n  dup3\n    /* \"#utility.yul\":4005:4009   */\n  0x1f\n    /* \"#utility.yul\":3997:4003   */\n  dup4\n    /* \"#utility.yul\":3993:4010   */\n  add\n    /* \"#utility.yul\":3989:4016   */\n  slt\n    /* \"#utility.yul\":3979:4101   */\n  tag_118\n  jumpi\n    /* \"#utility.yul\":4020:4099   */\n  tag_119\n  tag_38\n  jump\t// in\ntag_119:\n    /* \"#utility.yul\":3979:4101   */\ntag_118:\n    /* \"#utility.yul\":4130:4136   */\n  dup2\n    /* \"#utility.yul\":4124:4137   */\n  mload\n    /* \"#utility.yul\":4155:4245   */\n  tag_120\n    /* \"#utility.yul\":4241:4244   */\n  dup5\n    /* \"#utility.yul\":4233:4239   */\n  dup3\n    /* \"#utility.yul\":4226:4230   */\n  0x20\n    /* \"#utility.yul\":4218:4224   */\n  dup7\n    /* \"#utility.yul\":4214:4231   */\n  add\n    /* \"#utility.yul\":4155:4245   */\n  tag_46\n  jump\t// in\ntag_120:\n    /* \"#utility.yul\":4146:4245   */\n  swap2\n  pop\n    /* \"#utility.yul\":3969:4251   */\n  pop\n    /* \"#utility.yul\":3896:4251   */\n  swap3\n  swap2\n  pop\n  pop\n  jump\t// out\n    /* \"#utility.yul\":4257:5093   */\ntag_13:\n    /* \"#utility.yul\":4355:4361   */\n  0x00\n    /* \"#utility.yul\":4363:4369   */\n  dup1\n    /* \"#utility.yul\":4371:4377   */\n  0x00\n    /* \"#utility.yul\":4420:4422   */\n  0x60\n    /* \"#utility.yul\":4408:4417   */\n  dup5\n    /* \"#utility.yul\":4399:4406   */\n  dup7\n    /* \"#utility.yul\":4395:4418   */\n  sub\n    /* \"#utility.yul\":4391:4423   */\n  slt\n    /* \"#utility.yul\":4388:4507   */\n  iszero\n  tag_122\n  jumpi\n    /* \"#utility.yul\":4426:4505   */\n  tag_123\n  tag_31\n  jump\t// in\ntag_123:\n    /* \"#utility.yul\":4388:4507   */\ntag_122:\n    /* \"#utility.yul\":4546:4547   */\n  0x00\n    /* \"#utility.yul\":4571:4635   */\n  tag_124\n    /* \"#utility.yul\":4627:4634   */\n  dup7\n    /* \"#utility.yul\":4618:4624   */\n  dup3\n    /* \"#utility.yul\":4607:4616   */\n  dup8\n    /* \"#utility.yul\":4603:4625   */\n  add\n    /* \"#utility.yul\":4571:4635   */\n  tag_37\n  jump\t// in\ntag_124:\n    /* \"#utility.yul\":4561:4635   */\n  swap4\n  pop\n    /* \"#utility.yul\":4517:4645   */\n  pop\n    /* \"#utility.yul\":4684:4686   */\n  0x20\n    /* \"#utility.yul\":4710:4774   */\n  tag_125\n    /* \"#utility.yul\":4766:4773   */\n  dup7\n    /* \"#utility.yul\":4757:4763   */\n  dup3\n    /* \"#utility.yul\":4746:4755   */\n  dup8\n    /* \"#utility.yul\":4742:4764   */\n  add\n    /* \"#utility.yul\":4710:4774   */\n  tag_37\n  jump\t// in\ntag_125:\n    /* \"#utility.yul\":4700:4774   */\n  swap3\n  pop\n    /* \"#utility.yul\":4655:4784   */\n  pop\n    /* \"#utility.yul\":4844:4846   */\n  0x40\n    /* \"#utility.yul\":4833:4842   */\n  dup5\n    /* \"#utility.yul\":4829:4847   */\n  add\n    /* \"#utility.yul\":4823:4848   */\n  mload\n    /* \"#utility.yul\":4875:4893   */\n  0xffffffffffffffff\n    /* \"#utility.yul\":4867:4873   */\n  dup2\n    /* \"#utility.yul\":4864:4894   */\n  gt\n    /* \"#utility.yul\":4861:4978   */\n  iszero\n  tag_126\n  jumpi\n    /* \"#utility.yul\":4897:4976   */\n  tag_127\n  tag_32\n  jump\t// in\ntag_127:\n    /* \"#utility.yul\":4861:4978   */\ntag_126:\n    /* \"#utility.yul\":5002:5076   */\n  tag_128\n    /* \"#utility.yul\":5068:5075   */\n  dup7\n    /* \"#utility.yul\":5059:5065   */\n  dup3\n    /* \"#utility.yul\":5048:5057   */\n  dup8\n    /* \"#utility.yul\":5044:5066   */\n  add\n    /* \"#utility.yul\":5002:5076   */\n  tag_47\n  jump\t// in\ntag_128:\n    /* \"#utility.yul\":4992:5076   */\n  swap2\n  pop\n    /* \"#utility.yul\":4794:5086   */\n  pop\n    /* \"#utility.yul\":4257:5093   */\n  swap3\n  pop\n  swap3\n  pop\n  swap3\n  jump\t// out\n    /* \"#utility.yul\":5099:5198   */\ntag_48:\n    /* \"#utility.yul\":5151:5157   */\n  0x00\n    /* \"#utility.yul\":5185:5190   */\n  dup2\n    /* \"#utility.yul\":5179:5191   */\n  mload\n    /* \"#utility.yul\":5169:5191   */\n  swap1\n  pop\n    /* \"#utility.yul\":5099:5198   */\n  swap2\n  swap1\n  pop\n  jump\t// out\n    /* \"#utility.yul\":5204:5384   */\ntag_49:\n    /* \"#utility.yul\":5252:5329   */\n  0x4e487b7100000000000000000000000000000000000000000000000000000000\n    /* \"#utility.yul\":5249:5250   */\n  0x00\n    /* \"#utility.yul\":5242:5330   */\n  mstore\n    /* \"#utility.yul\":5349:5353   */\n  0x22\n    /* \"#utility.yul\":5346:5347   */\n  0x04\n    /* \"#utility.yul\":5339:5354   */\n  mstore\n    /* \"#utility.yul\":5373:5377   */\n  0x24\n    /* \"#utility.yul\":5370:5371   */\n  0x00\n    /* \"#utility.yul\":5363:5378   */\n  revert\n    /* \"#utility.yul\":5390:5710   */\ntag_50:\n    /* \"#utility.yul\":5434:5440   */\n  0x00\n    /* \"#utility.yul\":5471:5472   */\n  0x02\n    /* \"#utility.yul\":5465:5469   */\n  dup3\n    /* \"#utility.yul\":5461:5473   */\n  div\n    /* \"#utility.yul\":5451:5473   */\n  swap1\n  pop\n    /* \"#utility.yul\":5518:5519   */\n  0x01\n    /* \"#utility.yul\":5512:5516   */\n  dup3\n    /* \"#utility.yul\":5508:5520   */\n  and\n    /* \"#utility.yul\":5539:5557   */\n  dup1\n    /* \"#utility.yul\":5529:5610   */\n  tag_132\n  jumpi\n    /* \"#utility.yul\":5595:5599   */\n  0x7f\n    /* \"#utility.yul\":5587:5593   */\n  dup3\n    /* \"#utility.yul\":5583:5600   */\n  and\n    /* \"#utility.yul\":5573:5600   */\n  swap2\n  pop\n    /* \"#utility.yul\":5529:5610   */\ntag_132:\n    /* \"#utility.yul\":5657:5659   */\n  0x20\n    /* \"#utility.yul\":5649:5655   */\n  dup3\n    /* \"#utility.yul\":5646:5660   */\n  lt\n    /* \"#utility.yul\":5626:5644   */\n  dup2\n    /* \"#utility.yul\":5623:5661   */\n  sub\n    /* \"#utility.yul\":5620:5704   */\n  tag_133\n  jumpi\n    /* \"#utility.yul\":5676:5694   */\n  tag_134\n  tag_49\n  jump\t// in\ntag_134:\n    /* \"#utility.yul\":5620:5704   */\ntag_133:\n    /* \"#utility.yul\":5441:5710   */\n  pop\n    /* \"#utility.yul\":5390:5710   */\n  swap2\n  swap1\n  pop\n  jump\t// out\n    /* \"#utility.yul\":5716:5857   */\ntag_51:\n    /* \"#utility.yul\":5765:5769   */\n  0x00\n    /* \"#utility.yul\":5788:5791   */\n  dup2\n    /* \"#utility.yul\":5780:5791   */\n  swap1\n  pop\n    /* \"#utility.yul\":5811:5814   */\n  dup2\n    /* \"#utility.yul\":5808:5809   */\n  0x00\n    /* \"#utility.yul\":5801:5815   */\n  mstore\n    /* \"#utility.yul\":5845:5849   */\n  0x20\n    /* \"#utility.yul\":5842:5843   */\n  0x00\n    /* \"#utility.yul\":5832:5850   */\n  keccak256\n    /* \"#utility.yul\":5824:5850   */\n  swap1\n  pop\n    /* \"#utility.yul\":5716:5857   */\n  swap2\n  swap1\n  pop\n  jump\t// out\n    /* \"#utility.yul\":5863:5956   */\ntag_52:\n    /* \"#utility.yul\":5900:5906   */\n  0x00\n    /* \"#utility.yul\":5947:5949   */\n  0x20\n    /* \"#utility.yul\":5942:5944   */\n  0x1f\n    /* \"#utility.yul\":5935:5940   */\n  dup4\n    /* \"#utility.yul\":5931:5945   */\n  add\n    /* \"#utility.yul\":5927:5950   */\n  div\n    /* \"#utility.yul\":5917:5950   */\n  swap1\n  pop\n    /* \"#utility.yul\":5863:5956   */\n  swap2\n  swap1\n  pop\n  jump\t// out\n    /* \"#utility.yul\":5962:6069   */\ntag_53:\n    /* \"#utility.yul\":6006:6014   */\n  0x00\n    /* \"#utility.yul\":6056:6061   */\n  dup3\n    /* \"#utility.yul\":6050:6054   */\n  dup3\n    /* \"#utility.yul\":6046:6062   */\n  shl\n    /* \"#utility.yul\":6025:6062   */\n  swap1\n  pop\n    /* \"#utility.yul\":5962:6069   */\n  swap3\n  swap2\n  pop\n  pop\n  jump\t// out\n    /* \"#utility.yul\":6075:6468   */\ntag_54:\n    /* \"#utility.yul\":6144:6150   */\n  0x00\n    /* \"#utility.yul\":6194:6195   */\n  0x08\n    /* \"#utility.yul\":6182:6192   */\n  dup4\n    /* \"#utility.yul\":6178:6196   */\n  mul\n    /* \"#utility.yul\":6217:6314   */\n  tag_139\n    /* \"#utility.yul\":6247:6313   */\n  0xffffffffffffffffffffffffffffffffffffffffffffffffffffffffffffffff\n    /* \"#utility.yul\":6236:6245   */\n  dup3\n    /* \"#utility.yul\":6217:6314   */\n  tag_53\n  jump\t// in\ntag_139:\n    /* \"#utility.yul\":6335:6374   */\n  tag_140\n    /* \"#utility.yul\":6365:6373   */\n  dup7\n    /* \"#utility.yul\":6354:6363   */\n  dup4\n    /* \"#utility.yul\":6335:6374   */\n  tag_53\n  jump\t// in\ntag_140:\n    /* \"#utility.yul\":6323:6374   */\n  swap6\n  pop\n    /* \"#utility.yul\":6407:6411   */\n  dup1\n    /* \"#utility.yul\":6403:6412   */\n  not\n    /* \"#utility.yul\":6396:6401   */\n  dup5\n    /* \"#utility.yul\":6392:6413   */\n  and\n    /* \"#utility.yul\":6383:6413   */\n  swap4\n  pop\n    /* \"#utility.yul\":6456:6460   */\n  dup1\n    /* \"#utility.yul\":6446:6454   */\n  dup7\n    /* \"#utility.yul\":6442:6461   */\n  and\n    /* \"#utility.yul\":6435:6440   */\n  dup5\n    /* \"#utility.yul\":6432:6462   */\n  or\n    /* \"#utility.yul\":6422:6462   */\n  swap3\n  pop\n    /* \"#utility.yul\":6151:6468   */\n  pop\n  pop\n    /* \"#utility.yul\":6075:6468   */\n  swap4\n  swap3\n  pop\n  pop\n  pop\n  jump\t// out\n    /* \"#utility.yul\":6474:6534   */\ntag_55:\n    /* \"#utility.yul\":6502:6505   */\n  0x00\n    /* \"#utility.yul\":6523:6528   */\n  dup2\n    /* \"#utility.yul\":6516:6528   */\n  swap1\n  pop\n    /* \"#utility.yul\":6474:6534   */\n  swap2\n  swap1\n  pop\n  jump\t// out\n    /* \"#utility.yul\":6540:6682   */\ntag_56:\n    /* \"#utility.yul\":6590:6599   */\n  0x00\n    /* \"#utility.yul\":6623:6676   */\n  tag_143\n    /* \"#utility.yul\":6641:6675   */\n  tag_144\n    /* \"#utility.yul\":6650:6674   */\n  tag_145\n    /* \"#utility.yul\":6668:6673   */\n  dup5\n    /* \"#utility.yul\":6650:6674   */\n  tag_33\n  jump\t// in\ntag_145:\n    /* \"#utility.yul\":6641:6675   */\n  tag_55\n  jump\t// in\ntag_144:\n    /* \"#utility.yul\":6623:6676   */\n  tag_33\n  jump\t// in\ntag_143:\n    /* \"#utility.yul\":6610:6676   */\n  swap1\n  pop\n    /* \"#utility.yul\":6540:6682   */\n  swap2\n  swap1\n  pop\n  jump\t// out\n    /* \"#utility.yul\":6688:6763   */\ntag_57:\n    /* \"#utility.yul\":6731:6734   */\n  0x00\n    /* \"#utility.yul\":6752:6757   */\n  dup2\n    /* \"#utility.yul\":6745:6757   */\n  swap1\n  pop\n    /* \"#utility.yul\":6688:6763   */\n  swap2\n  swap1\n  pop\n  jump\t// out\n    /* \"#utility.yul\":6769:7038   */\ntag_58:\n    /* \"#utility.yul\":6879:6918   */\n  tag_148\n    /* \"#utility.yul\":6910:6917   */\n  dup4\n    /* \"#utility.yul\":6879:6918   */\n  tag_56\n  jump\t// in\ntag_148:\n    /* \"#utility.yul\":6940:7031   */\n  tag_149\n    /* \"#utility.yul\":6989:7030   */\n  tag_150\n    /* \"#utility.yul\":7013:7029   */\n  dup3\n    /* \"#utility.yul\":6989:7030   */\n  tag_57\n  jump\t// in\ntag_150:\n    /* \"#utility.yul\":6981:6987   */\n  dup5\n    /* \"#utility.yul\":6974:6978   */\n  dup5\n    /* \"#utility.yul\":6968:6979   */\n  sload\n    /* \"#utility.yul\":6940:7031   */\n  tag_54\n  jump\t// in\ntag_149:\n    /* \"#utility.yul\":6934:6938   */\n  dup3\n    /* \"#utility.yul\":6927:7032   */\n  sstore\n    /* \"#utility.yul\":6845:7038   */\n  pop\n    /* \"#utility.yul\":6769:7038   */\n  pop\n  pop\n  pop\n  jump\t// out\n    /* \"#utility.yul\":7044:7117   */\ntag_59:\n    /* \"#utility.yul\":7089:7092   */\n  0x00\n    /* \"#utility.yul\":7044:7117   */\n  swap1\n  jump\t// out\n    /* \"#utility.yul\":7123:7312   */\ntag_60:\n    /* \"#utility.yul\":7200:7232   */\n  tag_153\n  tag_59\n  jump\t// in\ntag_153:\n    /* \"#utility.yul\":7241:7306   */\n  tag_154\n    /* \"#utility.yul\":7299:7305   */\n  dup2\n    /* \"#utility.yul\":7291:7297   */\n  dup5\n    /* \"#utility.yul\":7285:7289   */\n  dup5\n    /* \"#utility.yul\":7241:7306   */\n  tag_58\n  jump\t// in\ntag_154:\n    /* \"#utility.yul\":7176:7312   */\n  pop\n    /* \"#utility.yul\":7123:7312   */\n  pop\n  pop\n  jump\t// out\n    /* \"#utility.yul\":7318:7504   */\ntag_61:\n    /* \"#utility.yul\":7378:7498   */\ntag_156:\n    /* \"#utility.yul\":7395:7398   */\n  dup2\n    /* \"#utility.yul\":7388:7393   */\n  dup2\n    /* \"#utility.yul\":7385:7399   */\n  lt\n    /* \"#utility.yul\":7378:7498   */\n  iszero\n  tag_158\n  jumpi\n    /* \"#utility.yul\":7449:7488   */\n  tag_159\n    /* \"#utility.yul\":7486:7487   */\n  0x00\n    /* \"#utility.yul\":7479:7484   */\n  dup3\n    /* \"#utility.yul\":7449:7488   */\n  tag_60\n  jump\t// in\ntag_159:\n    /* \"#utility.yul\":7422:7423   */\n  0x01\n    /* \"#utility.yul\":7415:7420   */\n  dup2\n    /* \"#utility.yul\":7411:7424   */\n  add\n    /* \"#utility.yul\":7402:7424   */\n  swap1\n  pop\n    /* \"#utility.yul\":7378:7498   */\n  jump(tag_156)\ntag_158:\n    /* \"#utility.yul\":7318:7504   */\n  pop\n  pop\n  jump\t// out\n    /* \"#utility.yul\":7510:8053   */\ntag_62:\n    /* \"#utility.yul\":7611:7613   */\n  0x1f\n    /* \"#utility.yul\":7606:7609   */\n  dup3\n    /* \"#utility.yul\":7603:7614   */\n  gt\n    /* \"#utility.yul\":7600:8046   */\n  iszero\n  tag_161\n  jumpi\n    /* \"#utility.yul\":7645:7683   */\n  tag_162\n    /* \"#utility.yul\":7677:7682   */\n  dup2\n    /* \"#utility.yul\":7645:7683   */\n  tag_51\n  jump\t// in\ntag_162:\n    /* \"#utility.yul\":7729:7758   */\n  tag_163\n    /* \"#utility.yul\":7747:7757   */\n  dup5\n    /* \"#utility.yul\":7729:7758   */\n  tag_52\n  jump\t// in\ntag_163:\n    /* \"#utility.yul\":7719:7727   */\n  dup2\n    /* \"#utility.yul\":7715:7759   */\n  add\n    /* \"#utility.yul\":7912:7914   */\n  0x20\n    /* \"#utility.yul\":7900:7910   */\n  dup6\n    /* \"#utility.yul\":7897:7915   */\n  lt\n    /* \"#utility.yul\":7894:7943   */\n  iszero\n  tag_164\n  jumpi\n    /* \"#utility.yul\":7933:7941   */\n  dup2\n    /* \"#utility.yul\":7918:7941   */\n  swap1\n  pop\n    /* \"#utility.yul\":7894:7943   */\ntag_164:\n    /* \"#utility.yul\":7956:8036   */\n  tag_165\n    /* \"#utility.yul\":8012:8034   */\n  tag_166\n    /* \"#utility.yul\":8030:8033   */\n  dup6\n    /* \"#utility.yul\":8012:8034   */\n  tag_52\n  jump\t// in\ntag_166:\n    /* \"#utility.yul\":8002:8010   */\n  dup4\n    /* \"#utility.yul\":7998:8035   */\n  add\n    /* \"#utility.yul\":7985:7996   */\n  dup3\n    /* \"#utility.yul\":7956:8036   */\n  tag_61\n  jump\t// in\ntag_165:\n    /* \"#utility.yul\":7615:8046   */\n  pop\n  pop\n    /* \"#utility.yul\":7600:8046   */\ntag_161:\n    /* \"#utility.yul\":7510:8053   */\n  pop\n  pop\n  pop\n  jump\t// out\n    /* \"#utility.yul\":8059:8176   */\ntag_63:\n    /* \"#utility.yul\":8113:8121   */\n  0x00\n    /* \"#utility.yul\":8163:8168   */\n  dup3\n    /* \"#utility.yul\":8157:8161   */\n  dup3\n    /* \"#utility.yul\":8153:8169   */\n  shr\n    /* \"#utility.yul\":8132:8169   */\n  swap1\n  pop\n    /* \"#utility.yul\":8059:8176   */\n  swap3\n  swap2\n  pop\n  pop\n  jump\t// out\n    /* \"#utility.yul\":8182:8351   */\ntag_64:\n    /* \"#utility.yul\":8226:8232   */\n  0x00\n    /* \"#utility.yul\":8259:8310   */\n  tag_169\n    /* \"#utility.yul\":8307:8308   */\n  0x00\n    /* \"#utility.yul\":8303:8309   */\n  not\n    /* \"#utility.yul\":8295:8300   */\n  dup5\n    /* \"#utility.yul\":8292:8293   */\n  0x08\n    /* \"#utility.yul\":8288:8301   */\n  mul\n    /* \"#utility.yul\":8259:8310   */\n  tag_63\n  jump\t// in\ntag_169:\n    /* \"#utility.yul\":8255:8311   */\n  not\n    /* \"#utility.yul\":8340:8344   */\n  dup1\n    /* \"#utility.yul\":8334:8338   */\n  dup4\n    /* \"#utility.yul\":8330:8345   */\n  and\n    /* \"#utility.yul\":8320:8345   */\n  swap2\n  pop\n    /* \"#utility.yul\":8233:8351   */\n  pop\n    /* \"#utility.yul\":8182:8351   */\n  swap3\n  swap2\n  pop\n  pop\n  jump\t// out\n    /* \"#utility.yul\":8356:8651   */\ntag_65:\n    /* \"#utility.yul\":8432:8436   */\n  0x00\n    /* \"#utility.yul\":8578:8607   */\n  tag_171\n    /* \"#utility.yul\":8603:8606   */\n  dup4\n    /* \"#utility.yul\":8597:8601   */\n  dup4\n    /* \"#utility.yul\":8578:8607   */\n  tag_64\n  jump\t// in\ntag_171:\n    /* \"#utility.yul\":8570:8607   */\n  swap2\n  pop\n    /* \"#utility.yul\":8640:8643   */\n  dup3\n    /* \"#utility.yul\":8637:8638   */\n  0x02\n    /* \"#utility.yul\":8633:8644   */\n  mul\n    /* \"#utility.yul\":8627:8631   */\n  dup3\n    /* \"#utility.yul\":8624:8645   */\n  or\n    /* \"#utility.yul\":8616:8645   */\n  swap1\n  pop\n    /* \"#utility.yul\":8356:8651   */\n  swap3\n  swap2\n  pop\n  pop\n  jump\t// out\n    /* \"#utility.yul\":8656:10051   */\ntag_23:\n    /* \"#utility.yul\":8773:8810   */\n  tag_173\n    /* \"#utility.yul\":8806:8809   */\n  dup3\n    /* \"#utility.yul\":8773:8810   */\n  tag_48\n  jump\t// in\ntag_173:\n    /* \"#utility.yul\":8875:8893   */\n  0xffffffffffffffff\n    /* \"#utility.yul\":8867:8873   */\n  dup2\n    /* \"#utility.yul\":8864:8894   */\n  gt\n    /* \"#utility.yul\":8861:8917   */\n  iszero\n  tag_174\n  jumpi\n    /* \"#utility.yul\":8897:8915   */\n  tag_175\n  tag_41\n  jump\t// in\ntag_175:\n    /* \"#utility.yul\":8861:8917   */\ntag_174:\n    /* \"#utility.yul\":8941:8979   */\n  tag_176\n    /* \"#utility.yul\":8973:8977   */\n  dup3\n    /* \"#utility.yul\":8967:8978   */\n  sload\n    /* \"#utility.yul\":8941:8979   */\n  tag_50\n  jump\t// in\ntag_176:\n    /* \"#utility.yul\":9026:9093   */\n  tag_177\n    /* \"#utility.yul\":9086:9092   */\n  dup3\n    /* \"#utility.yul\":9078:9084   */\n  dup3\n    /* \"#utility.yul\":9072:9076   */\n  dup6\n    /* \"#utility.yul\":9026:9093   */\n  tag_62\n  jump\t// in\ntag_177:\n    /* \"#utility.yul\":9120:9121   */\n  0x00\n    /* \"#utility.yul\":9144:9148   */\n  0x20\n    /* \"#utility.yul\":9131:9148   */\n  swap1\n  pop\n    /* \"#utility.yul\":9176:9178   */\n  0x1f\n    /* \"#utility.yul\":9168:9174   */\n  dup4\n    /* \"#utility.yul\":9165:9179   */\n  gt\n    /* \"#utility.yul\":9193:9194   */\n  0x01\n    /* \"#utility.yul\":9188:9806   */\n  dup2\n  eq\n  tag_179\n  jumpi\n    /* \"#utility.yul\":9850:9851   */\n  0x00\n    /* \"#utility.yul\":9867:9873   */\n  dup5\n    /* \"#utility.yul\":9864:9941   */\n  iszero\n  tag_180\n  jumpi\n    /* \"#utility.yul\":9916:9925   */\n  dup3\n    /* \"#utility.yul\":9911:9914   */\n  dup8\n    /* \"#utility.yul\":9907:9926   */\n  add\n    /* \"#utility.yul\":9901:9927   */\n  mload\n    /* \"#utility.yul\":9892:9927   */\n  swap1\n  pop\n    /* \"#utility.yul\":9864:9941   */\ntag_180:\n    /* \"#utility.yul\":9967:10034   */\n  tag_181\n    /* \"#utility.yul\":10027:10033   */\n  dup6\n    /* \"#utility.yul\":10020:10025   */\n  dup3\n    /* \"#utility.yul\":9967:10034   */\n  tag_65\n  jump\t// in\ntag_181:\n    /* \"#utility.yul\":9961:9965   */\n  dup7\n    /* \"#utility.yul\":9954:10035   */\n  sstore\n    /* \"#utility.yul\":9823:10045   */\n  pop\n    /* \"#utility.yul\":9158:10045   */\n  jump(tag_178)\n    /* \"#utility.yul\":9188:9806   */\ntag_179:\n    /* \"#utility.yul\":9240:9244   */\n  0x1f\n    /* \"#utility.yul\":9236:9245   */\n  not\n    /* \"#utility.yul\":9228:9234   */\n  dup5\n    /* \"#utility.yul\":9224:9246   */\n  and\n    /* \"#utility.yul\":9274:9311   */\n  tag_182\n    /* \"#utility.yul\":9306:9310   */\n  dup7\n    /* \"#utility.yul\":9274:9311   */\n  tag_51\n  jump\t// in\ntag_182:\n    /* \"#utility.yul\":9333:9334   */\n  0x00\n    /* \"#utility.yul\":9347:9555   */\ntag_183:\n    /* \"#utility.yul\":9361:9368   */\n  dup3\n    /* \"#utility.yul\":9358:9359   */\n  dup2\n    /* \"#utility.yul\":9355:9369   */\n  lt\n    /* \"#utility.yul\":9347:9555   */\n  iszero\n  tag_185\n  jumpi\n    /* \"#utility.yul\":9440:9449   */\n  dup5\n    /* \"#utility.yul\":9435:9438   */\n  dup10\n    /* \"#utility.yul\":9431:9450   */\n  add\n    /* \"#utility.yul\":9425:9451   */\n  mload\n    /* \"#utility.yul\":9417:9423   */\n  dup3\n    /* \"#utility.yul\":9410:9452   */\n  sstore\n    /* \"#utility.yul\":9491:9492   */\n  0x01\n    /* \"#utility.yul\":9483:9489   */\n  dup3\n    /* \"#utility.yul\":9479:9493   */\n  add\n    /* \"#utility.yul\":9469:9493   */\n  swap2\n  pop\n    /* \"#utility.yul\":9538:9540   */\n  0x20\n    /* \"#utility.yul\":9527:9536   */\n  dup6\n    /* \"#utility.yul\":9523:9541   */\n  add\n    /* \"#utility.yul\":9510:9541   */\n  swap5\n  pop\n    /* \"#utility.yul\":9384:9388   */\n  0x20\n    /* \"#utility.yul\":9381:9382   */\n  dup2\n    /* \"#utility.yul\":9377:9389   */\n  add\n    /* \"#utility.yul\":9372:9389   */\n  swap1\n  pop\n    /* \"#utility.yul\":9347:9555   */\n  jump(tag_183)\ntag_185:\n    /* \"#utility.yul\":9583:9589   */\n  dup7\n    /* \"#utility.yul\":9574:9581   */\n  dup4\n    /* \"#utility.yul\":9571:9590   */\n  lt\n    /* \"#utility.yul\":9568:9747   */\n  iszero\n  tag_186\n  jumpi\n    /* \"#utility.yul\":9641:9650   */\n  dup5\n    /* \"#utility.yul\":9636:9639   */\n  dup10\n    /* \"#utility.yul\":9632:9651   */\n  add\n    /* \"#utility.yul\":9626:9652   */\n  mload\n    /* \"#utility.yul\":9684:9732   */\n  tag_187\n    /* \"#utility.yul\":9726:9730   */\n  0x1f\n    /* \"#utility.yul\":9718:9724   */\n  dup10\n    /* \"#utility.yul\":9714:9731   */\n  and\n    /* \"#utility.yul\":9703:9712   */\n  dup3\n    /* \"#utility.yul\":9684:9732   */\n  tag_64\n  jump\t// in\ntag_187:\n    /* \"#utility.yul\":9676:9682   */\n  dup4\n    /* \"#utility.yul\":9669:9733   */\n  sstore\n    /* \"#utility.yul\":9591:9747   */\n  pop\n    /* \"#utility.yul\":9568:9747   */\ntag_186:\n    /* \"#utility.yul\":9793:9794   */\n  0x01\n    /* \"#utility.yul\":9789:9790   */\n  0x02\n    /* \"#utility.yul\":9781:9787   */\n  dup9\n    /* \"#utility.yul\":9777:9791   */\n  mul\n    /* \"#utility.yul\":9773:9795   */\n  add\n    /* \"#utility.yul\":9767:9771   */\n  dup9\n    /* \"#utility.yul\":9760:9796   */\n  sstore\n    /* \"#utility.yul\":9195:9806   */\n  pop\n  pop\n  pop\n    /* \"#utility.yul\":9158:10045   */\ntag_178:\n  pop\n    /* \"#utility.yul\":8748:10051   */\n  pop\n  pop\n  pop\n    /* \"#utility.yul\":8656:10051   */\n  pop\n  pop\n  jump\t// out\n    /* \"levelup/newdex.sol\":924:3418  contract DEX_CTF is Ownable {... */\ntag_24:\n  dataSize(sub_0)\n  dup1\n  dataOffset(sub_0)\n  0x00\n  codecopy\n  0x00\n  return\nstop\n\nsub_0: assembly {\n        /* \"levelup/newdex.sol\":924:3418  contract DEX_CTF is Ownable {... */\n      mstore(0x40, 0x80)\n      callvalue\n      dup1\n      iszero\n      tag_1\n      jumpi\n      0x00\n      dup1\n      revert\n    tag_1:\n      pop\n      jumpi(tag_2, lt(calldatasize, 0x04))\n      shr(0xe0, calldataload(0x00))\n      dup1\n      0x79629b69\n      gt\n      tag_17\n      jumpi\n      dup1\n      0x8f325c02\n      gt\n      tag_18\n      jumpi\n      dup1\n      0x8f325c02\n      eq\n      tag_13\n      jumpi\n      dup1\n      0xb3a88f7b\n      eq\n      tag_14\n      jumpi\n      dup1\n      0xf2fde38b\n      eq\n      tag_15\n      jumpi\n      dup1\n      0xf9633930\n      eq\n      tag_16\n      jumpi\n      jump(tag_2)\n    tag_18:\n      dup1\n      0x79629b69\n      eq\n      tag_10\n      jumpi\n      dup1\n      0x8119c065\n      eq\n      tag_11\n      jumpi\n      dup1\n      0x8da5cb5b\n      eq\n      tag_12\n      jumpi\n      jump(tag_2)\n    tag_17:\n      dup1\n      0x5b8bec55\n      gt\n      tag_19\n      jumpi\n      dup1\n      0x5b8bec55\n      eq\n      tag_6\n      jumpi\n      dup1\n      0x5f64b55b\n      eq\n      tag_7\n      jumpi\n      dup1\n      0x715018a6\n      eq\n      tag_8\n      jumpi\n      dup1\n      0x74a110c2\n      eq\n      tag_9\n      jumpi\n      jump(tag_2)\n    tag_19:\n      dup1\n      0x0fc63d10\n      eq\n      tag_3\n      jumpi\n      dup1\n      0x24731cff\n      eq\n      tag_4\n      jumpi\n      dup1\n      0x5b4246d4\n      eq\n      tag_5\n      jumpi\n    tag_2:\n      0x00\n      dup1\n      revert\n        /* \"levelup/newdex.sol\":958:978  Itoken public tokenA */\n    tag_3:\n      tag_20\n      tag_21\n      jump\t// in\n    tag_20:\n      mload(0x40)\n      tag_22\n      swap2\n      swap1\n      tag_23\n      jump\t// in\n    tag_22:\n      mload(0x40)\n      dup1\n      swap2\n      sub\n      swap1\n      return\n        /* \"levelup/newdex.sol\":1204:1263  uint256 public liquidityB = tokenB.balanceOf(address(this)) */\n    tag_4:\n      tag_24\n      tag_25\n      jump\t// in\n    tag_24:\n      mload(0x40)\n      tag_26\n      swap2\n      swap1\n      tag_27\n      jump\t// in\n    tag_26:\n      mload(0x40)\n      dup1\n      swap2\n      sub\n      swap1\n      return\n        /* \"levelup/newdex.sol\":1035:1060  uint256 public proportion */\n    tag_5:\n      tag_28\n      tag_29\n      jump\t// in\n    tag_28:\n      mload(0x40)\n      tag_30\n      swap2\n      swap1\n      tag_27\n      jump\t// in\n    tag_30:\n      mload(0x40)\n      dup1\n      swap2\n      sub\n      swap1\n      return\n        /* \"levelup/newdex.sol\":1066:1111  address public liquidityProvider = address(0) */\n    tag_6:\n      tag_31\n      tag_32\n      jump\t// in\n    tag_31:\n      mload(0x40)\n      tag_33\n      swap2\n      swap1\n      tag_34\n      jump\t// in\n    tag_33:\n      mload(0x40)\n      dup1\n      swap2\n      sub\n      swap1\n      return\n        /* \"levelup/newdex.sol\":984:1004  Itoken public tokenB */\n    tag_7:\n      tag_35\n      tag_36\n      jump\t// in\n    tag_35:\n      mload(0x40)\n      tag_37\n      swap2\n      swap1\n      tag_23\n      jump\t// in\n    tag_37:\n      mload(0x40)\n      dup1\n      swap2\n      sub\n      swap1\n      return\n        /* \"@openzeppelin/contracts/access/Ownable.sol\":1824:1925  function renounceOwnership() public virtual onlyOwner {... */\n    tag_8:\n      tag_38\n      tag_39\n      jump\t// in\n    tag_38:\n      stop\n        /* \"levelup/newdex.sol\":1442:1604  function createPool(uint256 amountA, uint256 amountB) public onlyOwner {... */\n    tag_9:\n      tag_40\n      0x04\n      dup1\n      calldatasize\n      sub\n      dup2\n      add\n      swap1\n      tag_41\n      swap2\n      swap1\n      tag_42\n      jump\t// in\n    tag_41:\n      tag_43\n      jump\t// in\n    tag_40:\n      stop\n        /* \"levelup/newdex.sol\":1139:1198  uint256 public liquidityA = tokenA.balanceOf(address(this)) */\n    tag_10:\n      tag_44\n      tag_45\n      jump\t// in\n    tag_44:\n      mload(0x40)\n      tag_46\n      swap2\n      swap1\n      tag_27\n      jump\t// in\n    tag_46:\n      mload(0x40)\n      dup1\n      swap2\n      sub\n      swap1\n      return\n        /* \"levelup/newdex.sol\":1117:1133  bool public swap */\n    tag_11:\n      tag_47\n      tag_48\n      jump\t// in\n    tag_47:\n      mload(0x40)\n      tag_49\n      swap2\n      swap1\n      tag_50\n      jump\t// in\n    tag_49:\n      mload(0x40)\n      dup1\n      swap2\n      sub\n      swap1\n      return\n        /* \"@openzeppelin/contracts/access/Ownable.sol\":1201:1286  function owner() public view virtual returns (address) {... */\n    tag_12:\n      tag_51\n      tag_52\n      jump\t// in\n    tag_51:\n      mload(0x40)\n      tag_53\n      swap2\n      swap1\n      tag_34\n      jump\t// in\n    tag_53:\n      mload(0x40)\n      dup1\n      swap2\n      sub\n      swap1\n      return\n        /* \"levelup/newdex.sol\":1612:2398  function swapAforB() public  {... */\n    tag_13:\n      tag_54\n      tag_55\n      jump\t// in\n    tag_54:\n      stop\n        /* \"levelup/newdex.sol\":2403:3241  function swapBforA() public {... */\n    tag_14:\n      tag_56\n      tag_57\n      jump\t// in\n    tag_56:\n      stop\n        /* \"@openzeppelin/contracts/access/Ownable.sol\":2074:2272  function transferOwnership(address newOwner) public virtual onlyOwner {... */\n    tag_15:\n      tag_58\n      0x04\n      dup1\n      calldatasize\n      sub\n      dup2\n      add\n      swap1\n      tag_59\n      swap2\n      swap1\n      tag_60\n      jump\t// in\n    tag_59:\n      tag_61\n      jump\t// in\n    tag_58:\n      stop\n        /* \"levelup/newdex.sol\":3248:3413  function getFlag() public view returns(string memory){... */\n    tag_16:\n      tag_62\n      tag_63\n      jump\t// in\n    tag_62:\n      mload(0x40)\n      tag_64\n      swap2\n      swap1\n      tag_65\n      jump\t// in\n    tag_64:\n      mload(0x40)\n      dup1\n      swap2\n      sub\n      swap1\n      return\n        /* \"levelup/newdex.sol\":958:978  Itoken public tokenA */\n    tag_21:\n      0x01\n      0x00\n      swap1\n      sload\n      swap1\n      0x0100\n      exp\n      swap1\n      div\n      0xffffffffffffffffffffffffffffffffffffffff\n      and\n      dup2\n      jump\t// out\n        /* \"levelup/newdex.sol\":1204:1263  uint256 public liquidityB = tokenB.balanceOf(address(this)) */\n    tag_25:\n      sload(0x07)\n      dup2\n      jump\t// out\n        /* \"levelup/newdex.sol\":1035:1060  uint256 public proportion */\n    tag_29:\n      sload(0x04)\n      dup2\n      jump\t// out\n        /* \"levelup/newdex.sol\":1066:1111  address public liquidityProvider = address(0) */\n    tag_32:\n      0x05\n      0x00\n      swap1\n      sload\n      swap1\n      0x0100\n      exp\n      swap1\n      div\n      0xffffffffffffffffffffffffffffffffffffffff\n      and\n      dup2\n      jump\t// out\n        /* \"levelup/newdex.sol\":984:1004  Itoken public tokenB */\n    tag_36:\n      0x02\n      0x00\n      swap1\n      sload\n      swap1\n      0x0100\n      exp\n      swap1\n      div\n      0xffffffffffffffffffffffffffffffffffffffff\n      and\n      dup2\n      jump\t// out\n        /* \"@openzeppelin/contracts/access/Ownable.sol\":1824:1925  function renounceOwnership() public virtual onlyOwner {... */\n    tag_39:\n        /* \"@openzeppelin/contracts/access/Ownable.sol\":1094:1107  _checkOwner() */\n      tag_67\n        /* \"@openzeppelin/contracts/access/Ownable.sol\":1094:1105  _checkOwner */\n      tag_68\n        /* \"@openzeppelin/contracts/access/Ownable.sol\":1094:1107  _checkOwner() */\n      jump\t// in\n    tag_67:\n        /* \"@openzeppelin/contracts/access/Ownable.sol\":1888:1918  _transferOwnership(address(0)) */\n      tag_70\n        /* \"@openzeppelin/contracts/access/Ownable.sol\":1915:1916  0 */\n      0x00\n        /* \"@openzeppelin/contracts/access/Ownable.sol\":1888:1906  _transferOwnership */\n      tag_71\n        /* \"@openzeppelin/contracts/access/Ownable.sol\":1888:1918  _transferOwnership(address(0)) */\n      jump\t// in\n    tag_70:\n        /* \"@openzeppelin/contracts/access/Ownable.sol\":1824:1925  function renounceOwnership() public virtual onlyOwner {... */\n      jump\t// out\n        /* \"levelup/newdex.sol\":1442:1604  function createPool(uint256 amountA, uint256 amountB) public onlyOwner {... */\n    tag_43:\n        /* \"@openzeppelin/contracts/access/Ownable.sol\":1094:1107  _checkOwner() */\n      tag_73\n        /* \"@openzeppelin/contracts/access/Ownable.sol\":1094:1105  _checkOwner */\n      tag_68\n        /* \"@openzeppelin/contracts/access/Ownable.sol\":1094:1107  _checkOwner() */\n      jump\t// in\n    tag_73:\n        /* \"levelup/newdex.sol\":1523:1529  tokenA */\n      0x01\n      0x00\n      swap1\n      sload\n      swap1\n      0x0100\n      exp\n      swap1\n      div\n      0xffffffffffffffffffffffffffffffffffffffff\n      and\n        /* \"levelup/newdex.sol\":1523:1534  tokenA.mint */\n      0xffffffffffffffffffffffffffffffffffffffff\n      and\n      0x40c10f19\n        /* \"levelup/newdex.sol\":1535:1545  msg.sender */\n      caller\n        /* \"levelup/newdex.sol\":1547:1554  amountA */\n      dup5\n        /* \"levelup/newdex.sol\":1523:1555  tokenA.mint(msg.sender, amountA) */\n      mload(0x40)\n      dup4\n      0xffffffff\n      and\n      0xe0\n      shl\n      dup2\n      mstore\n      0x04\n      add\n      tag_75\n      swap3\n      swap2\n      swap1\n      tag_76\n      jump\t// in\n    tag_75:\n      0x20\n      mload(0x40)\n      dup1\n      dup4\n      sub\n      dup2\n      0x00\n      dup8\n      gas\n      call\n      iszero\n      dup1\n      iszero\n      tag_78\n      jumpi\n      returndatasize\n      0x00\n      dup1\n      returndatacopy\n      revert(0x00, returndatasize)\n    tag_78:\n      pop\n      pop\n      pop\n      pop\n      mload(0x40)\n      returndatasize\n      not(0x1f)\n      0x1f\n      dup3\n      add\n      and\n      dup3\n      add\n      dup1\n      0x40\n      mstore\n      pop\n      dup2\n      add\n      swap1\n      tag_79\n      swap2\n      swap1\n      tag_80\n      jump\t// in\n    tag_79:\n      pop\n        /* \"levelup/newdex.sol\":1565:1571  tokenB */\n      0x02\n      0x00\n      swap1\n      sload\n      swap1\n      0x0100\n      exp\n      swap1\n      div\n      0xffffffffffffffffffffffffffffffffffffffff\n      and\n        /* \"levelup/newdex.sol\":1565:1576  tokenB.mint */\n      0xffffffffffffffffffffffffffffffffffffffff\n      and\n      0x40c10f19\n        /* \"levelup/newdex.sol\":1577:1587  msg.sender */\n      caller\n        /* \"levelup/newdex.sol\":1589:1596  amountB */\n      dup4\n        /* \"levelup/newdex.sol\":1565:1597  tokenB.mint(msg.sender, amountB) */\n      mload(0x40)\n      dup4\n      0xffffffff\n      and\n      0xe0\n      shl\n      dup2\n      mstore\n      0x04\n      add\n      tag_81\n      swap3\n      swap2\n      swap1\n      tag_76\n      jump\t// in\n    tag_81:\n      0x20\n      mload(0x40)\n      dup1\n      dup4\n      sub\n      dup2\n      0x00\n      dup8\n      gas\n      call\n      iszero\n      dup1\n      iszero\n      tag_83\n      jumpi\n      returndatasize\n      0x00\n      dup1\n      returndatacopy\n      revert(0x00, returndatasize)\n    tag_83:\n      pop\n      pop\n      pop\n      pop\n      mload(0x40)\n      returndatasize\n      not(0x1f)\n      0x1f\n      dup3\n      add\n      and\n      dup3\n      add\n      dup1\n      0x40\n      mstore\n      pop\n      dup2\n      add\n      swap1\n      tag_84\n      swap2\n      swap1\n      tag_80\n      jump\t// in\n    tag_84:\n      pop\n        /* \"levelup/newdex.sol\":1442:1604  function createPool(uint256 amountA, uint256 amountB) public onlyOwner {... */\n      pop\n      pop\n      jump\t// out\n        /* \"levelup/newdex.sol\":1139:1198  uint256 public liquidityA = tokenA.balanceOf(address(this)) */\n    tag_45:\n      sload(0x06)\n      dup2\n      jump\t// out\n        /* \"levelup/newdex.sol\":1117:1133  bool public swap */\n    tag_48:\n      0x05\n      0x14\n      swap1\n      sload\n      swap1\n      0x0100\n      exp\n      swap1\n      div\n      0xff\n      and\n      dup2\n      jump\t// out\n        /* \"@openzeppelin/contracts/access/Ownable.sol\":1201:1286  function owner() public view virtual returns (address) {... */\n    tag_52:\n        /* \"@openzeppelin/contracts/access/Ownable.sol\":1247:1254  address */\n      0x00\n        /* \"@openzeppelin/contracts/access/Ownable.sol\":1273:1279  _owner */\n      dup1\n      0x00\n      swap1\n      sload\n      swap1\n      0x0100\n      exp\n      swap1\n      div\n      0xffffffffffffffffffffffffffffffffffffffff\n      and\n        /* \"@openzeppelin/contracts/access/Ownable.sol\":1266:1279  return _owner */\n      swap1\n      pop\n        /* \"@openzeppelin/contracts/access/Ownable.sol\":1201:1286  function owner() public view virtual returns (address) {... */\n      swap1\n      jump\t// out\n        /* \"levelup/newdex.sol\":1612:2398  function swapAforB() public  {... */\n    tag_55:\n        /* \"levelup/newdex.sol\":1690:1692  10 */\n      0x0a\n        /* \"levelup/newdex.sol\":1659:1665  tokenA */\n      0x01\n      0x00\n      swap1\n      sload\n      swap1\n      0x0100\n      exp\n      swap1\n      div\n      0xffffffffffffffffffffffffffffffffffffffff\n      and\n        /* \"levelup/newdex.sol\":1659:1675  tokenA.balanceOf */\n      0xffffffffffffffffffffffffffffffffffffffff\n      and\n      0x70a08231\n        /* \"levelup/newdex.sol\":1676:1686  msg.sender */\n      caller\n        /* \"levelup/newdex.sol\":1659:1687  tokenA.balanceOf(msg.sender) */\n      mload(0x40)\n      dup3\n      0xffffffff\n      and\n      0xe0\n      shl\n      dup2\n      mstore\n      0x04\n      add\n      tag_87\n      swap2\n      swap1\n      tag_34\n      jump\t// in\n    tag_87:\n      0x20\n      mload(0x40)\n      dup1\n      dup4\n      sub\n      dup2\n      dup7\n      gas\n      staticcall\n      iszero\n      dup1\n      iszero\n      tag_89\n      jumpi\n      returndatasize\n      0x00\n      dup1\n      returndatacopy\n      revert(0x00, returndatasize)\n    tag_89:\n      pop\n      pop\n      pop\n      pop\n      mload(0x40)\n      returndatasize\n      not(0x1f)\n      0x1f\n      dup3\n      add\n      and\n      dup3\n      add\n      dup1\n      0x40\n      mstore\n      pop\n      dup2\n      add\n      swap1\n      tag_90\n      swap2\n      swap1\n      tag_91\n      jump\t// in\n    tag_90:\n        /* \"levelup/newdex.sol\":1659:1692  tokenA.balanceOf(msg.sender)>= 10 */\n      lt\n      iszero\n        /* \"levelup/newdex.sol\":1651:1693  require(tokenA.balanceOf(msg.sender)>= 10) */\n      tag_92\n      jumpi\n      0x00\n      dup1\n      revert\n    tag_92:\n        /* \"levelup/newdex.sol\":1745:1747  99 */\n      0x63\n        /* \"levelup/newdex.sol\":1711:1717  tokenA */\n      0x01\n      0x00\n      swap1\n      sload\n      swap1\n      0x0100\n      exp\n      swap1\n      div\n      0xffffffffffffffffffffffffffffffffffffffff\n      and\n        /* \"levelup/newdex.sol\":1711:1727  tokenA.balanceOf */\n      0xffffffffffffffffffffffffffffffffffffffff\n      and\n      0x70a08231\n        /* \"levelup/newdex.sol\":1736:1740  this */\n      address\n        /* \"levelup/newdex.sol\":1711:1742  tokenA.balanceOf(address(this)) */\n      mload(0x40)\n      dup3\n      0xffffffff\n      and\n      0xe0\n      shl\n      dup2\n      mstore\n      0x04\n      add\n      tag_93\n      swap2\n      swap1\n      tag_34\n      jump\t// in\n    tag_93:\n      0x20\n      mload(0x40)\n      dup1\n      dup4\n      sub\n      dup2\n      dup7\n      gas\n      staticcall\n      iszero\n      dup1\n      iszero\n      tag_95\n      jumpi\n      returndatasize\n      0x00\n      dup1\n      returndatacopy\n      revert(0x00, returndatasize)\n    tag_95:\n      pop\n      pop\n      pop\n      pop\n      mload(0x40)\n      returndatasize\n      not(0x1f)\n      0x1f\n      dup3\n      add\n      and\n      dup3\n      add\n      dup1\n      0x40\n      mstore\n      pop\n      dup2\n      add\n      swap1\n      tag_96\n      swap2\n      swap1\n      tag_91\n      jump\t// in\n    tag_96:\n        /* \"levelup/newdex.sol\":1711:1747  tokenA.balanceOf(address(this)) > 99 */\n      gt\n        /* \"levelup/newdex.sol\":1703:1795  require(tokenA.balanceOf(address(this)) > 99, \"Insufficient tokenA balance in the contract\") */\n      tag_97\n      jumpi\n      mload(0x40)\n      0x08c379a000000000000000000000000000000000000000000000000000000000\n      dup2\n      mstore\n      0x04\n      add\n      tag_98\n      swap1\n      tag_99\n      jump\t// in\n    tag_98:\n      mload(0x40)\n      dup1\n      swap2\n      sub\n      swap1\n      revert\n    tag_97:\n        /* \"levelup/newdex.sol\":1847:1849  99 */\n      0x63\n        /* \"levelup/newdex.sol\":1813:1819  tokenB */\n      0x02\n      0x00\n      swap1\n      sload\n      swap1\n      0x0100\n      exp\n      swap1\n      div\n      0xffffffffffffffffffffffffffffffffffffffff\n      and\n        /* \"levelup/newdex.sol\":1813:1829  tokenB.balanceOf */\n      0xffffffffffffffffffffffffffffffffffffffff\n      and\n      0x70a08231\n        /* \"levelup/newdex.sol\":1838:1842  this */\n      address\n        /* \"levelup/newdex.sol\":1813:1844  tokenB.balanceOf(address(this)) */\n      mload(0x40)\n      dup3\n      0xffffffff\n      and\n      0xe0\n      shl\n      dup2\n      mstore\n      0x04\n      add\n      tag_100\n      swap2\n      swap1\n      tag_34\n      jump\t// in\n    tag_100:\n      0x20\n      mload(0x40)\n      dup1\n      dup4\n      sub\n      dup2\n      dup7\n      gas\n      staticcall\n      iszero\n      dup1\n      iszero\n      tag_102\n      jumpi\n      returndatasize\n      0x00\n      dup1\n      returndatacopy\n      revert(0x00, returndatasize)\n    tag_102:\n      pop\n      pop\n      pop\n      pop\n      mload(0x40)\n      returndatasize\n      not(0x1f)\n      0x1f\n      dup3\n      add\n      and\n      dup3\n      add\n      dup1\n      0x40\n      mstore\n      pop\n      dup2\n      add\n      swap1\n      tag_103\n      swap2\n      swap1\n      tag_91\n      jump\t// in\n    tag_103:\n        /* \"levelup/newdex.sol\":1813:1849  tokenB.balanceOf(address(this)) > 99 */\n      gt\n        /* \"levelup/newdex.sol\":1805:1897  require(tokenB.balanceOf(address(this)) > 99, \"Insufficient tokenB balance in the contract\") */\n      tag_104\n      jumpi\n      mload(0x40)\n      0x08c379a000000000000000000000000000000000000000000000000000000000\n      dup2\n      mstore\n      0x04\n      add\n      tag_105\n      swap1\n      tag_106\n      jump\t// in\n    tag_105:\n      mload(0x40)\n      dup1\n      swap2\n      sub\n      swap1\n      revert\n    tag_104:\n        /* \"levelup/newdex.sol\":1908:1914  tokenA */\n      0x01\n      0x00\n      swap1\n      sload\n      swap1\n      0x0100\n      exp\n      swap1\n      div\n      0xffffffffffffffffffffffffffffffffffffffff\n      and\n        /* \"levelup/newdex.sol\":1908:1927  tokenA.transferFrom */\n      0xffffffffffffffffffffffffffffffffffffffff\n      and\n      0x23b872dd\n        /* \"levelup/newdex.sol\":1928:1938  msg.sender */\n      caller\n        /* \"levelup/newdex.sol\":1948:1952  this */\n      address\n        /* \"levelup/newdex.sol\":1955:1957  10 */\n      0x0a\n        /* \"levelup/newdex.sol\":1908:1958  tokenA.transferFrom(msg.sender, address(this), 10) */\n      mload(0x40)\n      dup5\n      0xffffffff\n      and\n      0xe0\n      shl\n      dup2\n      mstore\n      0x04\n      add\n      tag_107\n      swap4\n      swap3\n      swap2\n      swap1\n      tag_108\n      jump\t// in\n    tag_107:\n      0x20\n      mload(0x40)\n      dup1\n      dup4\n      sub\n      dup2\n      0x00\n      dup8\n      gas\n      call\n      iszero\n      dup1\n      iszero\n      tag_110\n      jumpi\n      returndatasize\n      0x00\n      dup1\n      returndatacopy\n      revert(0x00, returndatasize)\n    tag_110:\n      pop\n      pop\n      pop\n      pop\n      mload(0x40)\n      returndatasize\n      not(0x1f)\n      0x1f\n      dup3\n      add\n      and\n      dup3\n      add\n      dup1\n      0x40\n      mstore\n      pop\n      dup2\n      add\n      swap1\n      tag_111\n      swap2\n      swap1\n      tag_80\n      jump\t// in\n    tag_111:\n      pop\n        /* \"levelup/newdex.sol\":1968:1985  uint256 newTokenB */\n      0x00\n        /* \"levelup/newdex.sol\":2002:2008  tokenA */\n      0x01\n      0x00\n      swap1\n      sload\n      swap1\n      0x0100\n      exp\n      swap1\n      div\n      0xffffffffffffffffffffffffffffffffffffffff\n      and\n        /* \"levelup/newdex.sol\":2002:2018  tokenA.balanceOf */\n      0xffffffffffffffffffffffffffffffffffffffff\n      and\n      0x70a08231\n        /* \"levelup/newdex.sol\":2027:2031  this */\n      address\n        /* \"levelup/newdex.sol\":2002:2033  tokenA.balanceOf(address(this)) */\n      mload(0x40)\n      dup3\n      0xffffffff\n      and\n      0xe0\n      shl\n      dup2\n      mstore\n      0x04\n      add\n      tag_112\n      swap2\n      swap1\n      tag_34\n      jump\t// in\n    tag_112:\n      0x20\n      mload(0x40)\n      dup1\n      dup4\n      sub\n      dup2\n      dup7\n      gas\n      staticcall\n      iszero\n      dup1\n      iszero\n      tag_114\n      jumpi\n      returndatasize\n      0x00\n      dup1\n      returndatacopy\n      revert(0x00, returndatasize)\n    tag_114:\n      pop\n      pop\n      pop\n      pop\n      mload(0x40)\n      returndatasize\n      not(0x1f)\n      0x1f\n      dup3\n      add\n      and\n      dup3\n      add\n      dup1\n      0x40\n      mstore\n      pop\n      dup2\n      add\n      swap1\n      tag_115\n      swap2\n      swap1\n      tag_91\n      jump\t// in\n    tag_115:\n        /* \"levelup/newdex.sol\":1989:1999  proportion */\n      sload(0x04)\n        /* \"levelup/newdex.sol\":1989:2033  proportion / tokenA.balanceOf(address(this)) */\n      tag_116\n      swap2\n      swap1\n      tag_117\n      jump\t// in\n    tag_116:\n        /* \"levelup/newdex.sol\":1968:2033  uint256 newTokenB =  proportion / tokenA.balanceOf(address(this)) */\n      swap1\n      pop\n        /* \"levelup/newdex.sol\":2043:2062  uint256 tokensBleft */\n      0x00\n        /* \"levelup/newdex.sol\":2099:2108  newTokenB */\n      dup2\n        /* \"levelup/newdex.sol\":2065:2071  tokenB */\n      0x02\n      0x00\n      swap1\n      sload\n      swap1\n      0x0100\n      exp\n      swap1\n      div\n      0xffffffffffffffffffffffffffffffffffffffff\n      and\n        /* \"levelup/newdex.sol\":2065:2081  tokenB.balanceOf */\n      0xffffffffffffffffffffffffffffffffffffffff\n      and\n      0x70a08231\n        /* \"levelup/newdex.sol\":2090:2094  this */\n      address\n        /* \"levelup/newdex.sol\":2065:2096  tokenB.balanceOf(address(this)) */\n      mload(0x40)\n      dup3\n      0xffffffff\n      and\n      0xe0\n      shl\n      dup2\n      mstore\n      0x04\n      add\n      tag_118\n      swap2\n      swap1\n      tag_34\n      jump\t// in\n    tag_118:\n      0x20\n      mload(0x40)\n      dup1\n      dup4\n      sub\n      dup2\n      dup7\n      gas\n      staticcall\n      iszero\n      dup1\n      iszero\n      tag_120\n      jumpi\n      returndatasize\n      0x00\n      dup1\n      returndatacopy\n      revert(0x00, returndatasize)\n    tag_120:\n      pop\n      pop\n      pop\n      pop\n      mload(0x40)\n      returndatasize\n      not(0x1f)\n      0x1f\n      dup3\n      add\n      and\n      dup3\n      add\n      dup1\n      0x40\n      mstore\n      pop\n      dup2\n      add\n      swap1\n      tag_121\n      swap2\n      swap1\n      tag_91\n      jump\t// in\n    tag_121:\n        /* \"levelup/newdex.sol\":2065:2108  tokenB.balanceOf(address(this)) - newTokenB */\n      tag_122\n      swap2\n      swap1\n      tag_123\n      jump\t// in\n    tag_122:\n        /* \"levelup/newdex.sol\":2043:2108  uint256 tokensBleft = tokenB.balanceOf(address(this)) - newTokenB */\n      swap1\n      pop\n        /* \"levelup/newdex.sol\":2118:2139  uint256 tokensSwapped */\n      0x00\n        /* \"levelup/newdex.sol\":2162:2164  10 */\n      0x0a\n        /* \"levelup/newdex.sol\":2157:2158  9 */\n      0x09\n        /* \"levelup/newdex.sol\":2143:2154  tokensBleft */\n      dup4\n        /* \"levelup/newdex.sol\":2143:2158  tokensBleft * 9 */\n      tag_124\n      swap2\n      swap1\n      tag_125\n      jump\t// in\n    tag_124:\n        /* \"levelup/newdex.sol\":2142:2164  (tokensBleft * 9) / 10 */\n      tag_126\n      swap2\n      swap1\n      tag_117\n      jump\t// in\n    tag_126:\n        /* \"levelup/newdex.sol\":2118:2164  uint256 tokensSwapped = (tokensBleft * 9) / 10 */\n      swap1\n      pop\n        /* \"levelup/newdex.sol\":2175:2193  uint256 commission */\n      0x00\n        /* \"levelup/newdex.sol\":2216:2218  10 */\n      0x0a\n        /* \"levelup/newdex.sol\":2211:2212  1 */\n      0x01\n        /* \"levelup/newdex.sol\":2197:2208  tokensBleft */\n      dup5\n        /* \"levelup/newdex.sol\":2197:2212  tokensBleft * 1 */\n      tag_127\n      swap2\n      swap1\n      tag_125\n      jump\t// in\n    tag_127:\n        /* \"levelup/newdex.sol\":2196:2218  (tokensBleft * 1) / 10 */\n      tag_128\n      swap2\n      swap1\n      tag_117\n      jump\t// in\n    tag_128:\n        /* \"levelup/newdex.sol\":2175:2218  uint256 commission = (tokensBleft * 1) / 10 */\n      swap1\n      pop\n        /* \"levelup/newdex.sol\":2231:2237  tokenB */\n      0x02\n      0x00\n      swap1\n      sload\n      swap1\n      0x0100\n      exp\n      swap1\n      div\n      0xffffffffffffffffffffffffffffffffffffffff\n      and\n        /* \"levelup/newdex.sol\":2231:2250  tokenB.transferFrom */\n      0xffffffffffffffffffffffffffffffffffffffff\n      and\n      0x23b872dd\n        /* \"levelup/newdex.sol\":2259:2263  this */\n      address\n        /* \"levelup/newdex.sol\":2265:2275  msg.sender */\n      caller\n        /* \"levelup/newdex.sol\":2277:2290  tokensSwapped */\n      dup6\n        /* \"levelup/newdex.sol\":2231:2291  tokenB.transferFrom(address(this),msg.sender, tokensSwapped) */\n      mload(0x40)\n      dup5\n      0xffffffff\n      and\n      0xe0\n      shl\n      dup2\n      mstore\n      0x04\n      add\n      tag_129\n      swap4\n      swap3\n      swap2\n      swap1\n      tag_130\n      jump\t// in\n    tag_129:\n      0x20\n      mload(0x40)\n      dup1\n      dup4\n      sub\n      dup2\n      0x00\n      dup8\n      gas\n      call\n      iszero\n      dup1\n      iszero\n      tag_132\n      jumpi\n      returndatasize\n      0x00\n      dup1\n      returndatacopy\n      revert(0x00, returndatasize)\n    tag_132:\n      pop\n      pop\n      pop\n      pop\n      mload(0x40)\n      returndatasize\n      not(0x1f)\n      0x1f\n      dup3\n      add\n      and\n      dup3\n      add\n      dup1\n      0x40\n      mstore\n      pop\n      dup2\n      add\n      swap1\n      tag_133\n      swap2\n      swap1\n      tag_80\n      jump\t// in\n    tag_133:\n      pop\n        /* \"levelup/newdex.sol\":2301:2307  tokenB */\n      0x02\n      0x00\n      swap1\n      sload\n      swap1\n      0x0100\n      exp\n      swap1\n      div\n      0xffffffffffffffffffffffffffffffffffffffff\n      and\n        /* \"levelup/newdex.sol\":2301:2320  tokenB.transferFrom */\n      0xffffffffffffffffffffffffffffffffffffffff\n      and\n      0x23b872dd\n        /* \"levelup/newdex.sol\":2329:2333  this */\n      address\n        /* \"levelup/newdex.sol\":2335:2352  liquidityProvider */\n      0x05\n      0x00\n      swap1\n      sload\n      swap1\n      0x0100\n      exp\n      swap1\n      div\n      0xffffffffffffffffffffffffffffffffffffffff\n      and\n        /* \"levelup/newdex.sol\":2353:2363  commission */\n      dup5\n        /* \"levelup/newdex.sol\":2301:2364  tokenB.transferFrom(address(this),liquidityProvider,commission) */\n      mload(0x40)\n      dup5\n      0xffffffff\n      and\n      0xe0\n      shl\n      dup2\n      mstore\n      0x04\n      add\n      tag_134\n      swap4\n      swap3\n      swap2\n      swap1\n      tag_130\n      jump\t// in\n    tag_134:\n      0x20\n      mload(0x40)\n      dup1\n      dup4\n      sub\n      dup2\n      0x00\n      dup8\n      gas\n      call\n      iszero\n      dup1\n      iszero\n      tag_136\n      jumpi\n      returndatasize\n      0x00\n      dup1\n      returndatacopy\n      revert(0x00, returndatasize)\n    tag_136:\n      pop\n      pop\n      pop\n      pop\n      mload(0x40)\n      returndatasize\n      not(0x1f)\n      0x1f\n      dup3\n      add\n      and\n      dup3\n      add\n      dup1\n      0x40\n      mstore\n      pop\n      dup2\n      add\n      swap1\n      tag_137\n      swap2\n      swap1\n      tag_80\n      jump\t// in\n    tag_137:\n      pop\n        /* \"levelup/newdex.sol\":2381:2385  true */\n      0x01\n        /* \"levelup/newdex.sol\":2374:2378  swap */\n      0x05\n      0x14\n        /* \"levelup/newdex.sol\":2374:2385  swap = true */\n      0x0100\n      exp\n      dup2\n      sload\n      dup2\n      0xff\n      mul\n      not\n      and\n      swap1\n      dup4\n      iszero\n      iszero\n      mul\n      or\n      swap1\n      sstore\n      pop\n        /* \"levelup/newdex.sol\":1641:2398  {... */\n      pop\n      pop\n      pop\n      pop\n        /* \"levelup/newdex.sol\":1612:2398  function swapAforB() public  {... */\n      jump\t// out\n        /* \"levelup/newdex.sol\":2403:3241  function swapBforA() public {... */\n    tag_57:\n        /* \"levelup/newdex.sol\":2481:2483  10 */\n      0x0a\n        /* \"levelup/newdex.sol\":2449:2455  tokenB */\n      0x02\n      0x00\n      swap1\n      sload\n      swap1\n      0x0100\n      exp\n      swap1\n      div\n      0xffffffffffffffffffffffffffffffffffffffff\n      and\n        /* \"levelup/newdex.sol\":2449:2465  tokenB.balanceOf */\n      0xffffffffffffffffffffffffffffffffffffffff\n      and\n      0x70a08231\n        /* \"levelup/newdex.sol\":2466:2476  msg.sender */\n      caller\n        /* \"levelup/newdex.sol\":2449:2477  tokenB.balanceOf(msg.sender) */\n      mload(0x40)\n      dup3\n      0xffffffff\n      and\n      0xe0\n      shl\n      dup2\n      mstore\n      0x04\n      add\n      tag_139\n      swap2\n      swap1\n      tag_34\n      jump\t// in\n    tag_139:\n      0x20\n      mload(0x40)\n      dup1\n      dup4\n      sub\n      dup2\n      dup7\n      gas\n      staticcall\n      iszero\n      dup1\n      iszero\n      tag_141\n      jumpi\n      returndatasize\n      0x00\n      dup1\n      returndatacopy\n      revert(0x00, returndatasize)\n    tag_141:\n      pop\n      pop\n      pop\n      pop\n      mload(0x40)\n      returndatasize\n      not(0x1f)\n      0x1f\n      dup3\n      add\n      and\n      dup3\n      add\n      dup1\n      0x40\n      mstore\n      pop\n      dup2\n      add\n      swap1\n      tag_142\n      swap2\n      swap1\n      tag_91\n      jump\t// in\n    tag_142:\n        /* \"levelup/newdex.sol\":2449:2483  tokenB.balanceOf(msg.sender) >= 10 */\n      lt\n      iszero\n        /* \"levelup/newdex.sol\":2441:2515  require(tokenB.balanceOf(msg.sender) >= 10, \"Insufficient tokenB balance\") */\n      tag_143\n      jumpi\n      mload(0x40)\n      0x08c379a000000000000000000000000000000000000000000000000000000000\n      dup2\n      mstore\n      0x04\n      add\n      tag_144\n      swap1\n      tag_145\n      jump\t// in\n    tag_144:\n      mload(0x40)\n      dup1\n      swap2\n      sub\n      swap1\n      revert\n    tag_143:\n        /* \"levelup/newdex.sol\":2567:2569  99 */\n      0x63\n        /* \"levelup/newdex.sol\":2533:2539  tokenB */\n      0x02\n      0x00\n      swap1\n      sload\n      swap1\n      0x0100\n      exp\n      swap1\n      div\n      0xffffffffffffffffffffffffffffffffffffffff\n      and\n        /* \"levelup/newdex.sol\":2533:2549  tokenB.balanceOf */\n      0xffffffffffffffffffffffffffffffffffffffff\n      and\n      0x70a08231\n        /* \"levelup/newdex.sol\":2558:2562  this */\n      address\n        /* \"levelup/newdex.sol\":2533:2564  tokenB.balanceOf(address(this)) */\n      mload(0x40)\n      dup3\n      0xffffffff\n      and\n      0xe0\n      shl\n      dup2\n      mstore\n      0x04\n      add\n      tag_146\n      swap2\n      swap1\n      tag_34\n      jump\t// in\n    tag_146:\n      0x20\n      mload(0x40)\n      dup1\n      dup4\n      sub\n      dup2\n      dup7\n      gas\n      staticcall\n      iszero\n      dup1\n      iszero\n      tag_148\n      jumpi\n      returndatasize\n      0x00\n      dup1\n      returndatacopy\n      revert(0x00, returndatasize)\n    tag_148:\n      pop\n      pop\n      pop\n      pop\n      mload(0x40)\n      returndatasize\n      not(0x1f)\n      0x1f\n      dup3\n      add\n      and\n      dup3\n      add\n      dup1\n      0x40\n      mstore\n      pop\n      dup2\n      add\n      swap1\n      tag_149\n      swap2\n      swap1\n      tag_91\n      jump\t// in\n    tag_149:\n        /* \"levelup/newdex.sol\":2533:2569  tokenB.balanceOf(address(this)) > 99 */\n      gt\n        /* \"levelup/newdex.sol\":2525:2617  require(tokenB.balanceOf(address(this)) > 99, \"Insufficient tokenB balance in the contract\") */\n      tag_150\n      jumpi\n      mload(0x40)\n      0x08c379a000000000000000000000000000000000000000000000000000000000\n      dup2\n      mstore\n      0x04\n      add\n      tag_151\n      swap1\n      tag_106\n      jump\t// in\n    tag_151:\n      mload(0x40)\n      dup1\n      swap2\n      sub\n      swap1\n      revert\n    tag_150:\n        /* \"levelup/newdex.sol\":2669:2671  99 */\n      0x63\n        /* \"levelup/newdex.sol\":2635:2641  tokenA */\n      0x01\n      0x00\n      swap1\n      sload\n      swap1\n      0x0100\n      exp\n      swap1\n      div\n      0xffffffffffffffffffffffffffffffffffffffff\n      and\n        /* \"levelup/newdex.sol\":2635:2651  tokenA.balanceOf */\n      0xffffffffffffffffffffffffffffffffffffffff\n      and\n      0x70a08231\n        /* \"levelup/newdex.sol\":2660:2664  this */\n      address\n        /* \"levelup/newdex.sol\":2635:2666  tokenA.balanceOf(address(this)) */\n      mload(0x40)\n      dup3\n      0xffffffff\n      and\n      0xe0\n      shl\n      dup2\n      mstore\n      0x04\n      add\n      tag_152\n      swap2\n      swap1\n      tag_34\n      jump\t// in\n    tag_152:\n      0x20\n      mload(0x40)\n      dup1\n      dup4\n      sub\n      dup2\n      dup7\n      gas\n      staticcall\n      iszero\n      dup1\n      iszero\n      tag_154\n      jumpi\n      returndatasize\n      0x00\n      dup1\n      returndatacopy\n      revert(0x00, returndatasize)\n    tag_154:\n      pop\n      pop\n      pop\n      pop\n      mload(0x40)\n      returndatasize\n      not(0x1f)\n      0x1f\n      dup3\n      add\n      and\n      dup3\n      add\n      dup1\n      0x40\n      mstore\n      pop\n      dup2\n      add\n      swap1\n      tag_155\n      swap2\n      swap1\n      tag_91\n      jump\t// in\n    tag_155:\n        /* \"levelup/newdex.sol\":2635:2671  tokenA.balanceOf(address(this)) > 99 */\n      gt\n        /* \"levelup/newdex.sol\":2627:2719  require(tokenA.balanceOf(address(this)) > 99, \"Insufficient tokenA balance in the contract\") */\n      tag_156\n      jumpi\n      mload(0x40)\n      0x08c379a000000000000000000000000000000000000000000000000000000000\n      dup2\n      mstore\n      0x04\n      add\n      tag_157\n      swap1\n      tag_99\n      jump\t// in\n    tag_157:\n      mload(0x40)\n      dup1\n      swap2\n      sub\n      swap1\n      revert\n    tag_156:\n        /* \"levelup/newdex.sol\":2738:2744  tokenB */\n      0x02\n      0x00\n      swap1\n      sload\n      swap1\n      0x0100\n      exp\n      swap1\n      div\n      0xffffffffffffffffffffffffffffffffffffffff\n      and\n        /* \"levelup/newdex.sol\":2738:2757  tokenB.transferFrom */\n      0xffffffffffffffffffffffffffffffffffffffff\n      and\n      0x23b872dd\n        /* \"levelup/newdex.sol\":2758:2768  msg.sender */\n      caller\n        /* \"levelup/newdex.sol\":2778:2782  this */\n      address\n        /* \"levelup/newdex.sol\":2785:2787  10 */\n      0x0a\n        /* \"levelup/newdex.sol\":2738:2788  tokenB.transferFrom(msg.sender, address(this), 10) */\n      mload(0x40)\n      dup5\n      0xffffffff\n      and\n      0xe0\n      shl\n      dup2\n      mstore\n      0x04\n      add\n      tag_158\n      swap4\n      swap3\n      swap2\n      swap1\n      tag_108\n      jump\t// in\n    tag_158:\n      0x20\n      mload(0x40)\n      dup1\n      dup4\n      sub\n      dup2\n      0x00\n      dup8\n      gas\n      call\n      iszero\n      dup1\n      iszero\n      tag_160\n      jumpi\n      returndatasize\n      0x00\n      dup1\n      returndatacopy\n      revert(0x00, returndatasize)\n    tag_160:\n      pop\n      pop\n      pop\n      pop\n      mload(0x40)\n      returndatasize\n      not(0x1f)\n      0x1f\n      dup3\n      add\n      and\n      dup3\n      add\n      dup1\n      0x40\n      mstore\n      pop\n      dup2\n      add\n      swap1\n      tag_161\n      swap2\n      swap1\n      tag_80\n      jump\t// in\n    tag_161:\n      pop\n        /* \"levelup/newdex.sol\":2807:2824  uint256 newTokenA */\n      0x00\n        /* \"levelup/newdex.sol\":2840:2846  tokenB */\n      0x02\n      0x00\n      swap1\n      sload\n      swap1\n      0x0100\n      exp\n      swap1\n      div\n      0xffffffffffffffffffffffffffffffffffffffff\n      and\n        /* \"levelup/newdex.sol\":2840:2856  tokenB.balanceOf */\n      0xffffffffffffffffffffffffffffffffffffffff\n      and\n      0x70a08231\n        /* \"levelup/newdex.sol\":2865:2869  this */\n      address\n        /* \"levelup/newdex.sol\":2840:2871  tokenB.balanceOf(address(this)) */\n      mload(0x40)\n      dup3\n      0xffffffff\n      and\n      0xe0\n      shl\n      dup2\n      mstore\n      0x04\n      add\n      tag_162\n      swap2\n      swap1\n      tag_34\n      jump\t// in\n    tag_162:\n      0x20\n      mload(0x40)\n      dup1\n      dup4\n      sub\n      dup2\n      dup7\n      gas\n      staticcall\n      iszero\n      dup1\n      iszero\n      tag_164\n      jumpi\n      returndatasize\n      0x00\n      dup1\n      returndatacopy\n      revert(0x00, returndatasize)\n    tag_164:\n      pop\n      pop\n      pop\n      pop\n      mload(0x40)\n      returndatasize\n      not(0x1f)\n      0x1f\n      dup3\n      add\n      and\n      dup3\n      add\n      dup1\n      0x40\n      mstore\n      pop\n      dup2\n      add\n      swap1\n      tag_165\n      swap2\n      swap1\n      tag_91\n      jump\t// in\n    tag_165:\n        /* \"levelup/newdex.sol\":2827:2837  proportion */\n      sload(0x04)\n        /* \"levelup/newdex.sol\":2827:2871  proportion / tokenB.balanceOf(address(this)) */\n      tag_166\n      swap2\n      swap1\n      tag_117\n      jump\t// in\n    tag_166:\n        /* \"levelup/newdex.sol\":2807:2871  uint256 newTokenA = proportion / tokenB.balanceOf(address(this)) */\n      swap1\n      pop\n        /* \"levelup/newdex.sol\":2881:2900  uint256 tokensAleft */\n      0x00\n        /* \"levelup/newdex.sol\":2937:2946  newTokenA */\n      dup2\n        /* \"levelup/newdex.sol\":2903:2909  tokenA */\n      0x01\n      0x00\n      swap1\n      sload\n      swap1\n      0x0100\n      exp\n      swap1\n      div\n      0xffffffffffffffffffffffffffffffffffffffff\n      and\n        /* \"levelup/newdex.sol\":2903:2919  tokenA.balanceOf */\n      0xffffffffffffffffffffffffffffffffffffffff\n      and\n      0x70a08231\n        /* \"levelup/newdex.sol\":2928:2932  this */\n      address\n        /* \"levelup/newdex.sol\":2903:2934  tokenA.balanceOf(address(this)) */\n      mload(0x40)\n      dup3\n      0xffffffff\n      and\n      0xe0\n      shl\n      dup2\n      mstore\n      0x04\n      add\n      tag_167\n      swap2\n      swap1\n      tag_34\n      jump\t// in\n    tag_167:\n      0x20\n      mload(0x40)\n      dup1\n      dup4\n      sub\n      dup2\n      dup7\n      gas\n      staticcall\n      iszero\n      dup1\n      iszero\n      tag_169\n      jumpi\n      returndatasize\n      0x00\n      dup1\n      returndatacopy\n      revert(0x00, returndatasize)\n    tag_169:\n      pop\n      pop\n      pop\n      pop\n      mload(0x40)\n      returndatasize\n      not(0x1f)\n      0x1f\n      dup3\n      add\n      and\n      dup3\n      add\n      dup1\n      0x40\n      mstore\n      pop\n      dup2\n      add\n      swap1\n      tag_170\n      swap2\n      swap1\n      tag_91\n      jump\t// in\n    tag_170:\n        /* \"levelup/newdex.sol\":2903:2946  tokenA.balanceOf(address(this)) - newTokenA */\n      tag_171\n      swap2\n      swap1\n      tag_123\n      jump\t// in\n    tag_171:\n        /* \"levelup/newdex.sol\":2881:2946  uint256 tokensAleft = tokenA.balanceOf(address(this)) - newTokenA */\n      swap1\n      pop\n        /* \"levelup/newdex.sol\":2956:2977  uint256 tokensSwapped */\n      0x00\n        /* \"levelup/newdex.sol\":3000:3002  10 */\n      0x0a\n        /* \"levelup/newdex.sol\":2995:2996  9 */\n      0x09\n        /* \"levelup/newdex.sol\":2981:2992  tokensAleft */\n      dup4\n        /* \"levelup/newdex.sol\":2981:2996  tokensAleft * 9 */\n      tag_172\n      swap2\n      swap1\n      tag_125\n      jump\t// in\n    tag_172:\n        /* \"levelup/newdex.sol\":2980:3002  (tokensAleft * 9) / 10 */\n      tag_173\n      swap2\n      swap1\n      tag_117\n      jump\t// in\n    tag_173:\n        /* \"levelup/newdex.sol\":2956:3002  uint256 tokensSwapped = (tokensAleft * 9) / 10 */\n      swap1\n      pop\n        /* \"levelup/newdex.sol\":3013:3031  uint256 commission */\n      0x00\n        /* \"levelup/newdex.sol\":3054:3056  10 */\n      0x0a\n        /* \"levelup/newdex.sol\":3049:3050  1 */\n      0x01\n        /* \"levelup/newdex.sol\":3035:3046  tokensAleft */\n      dup5\n        /* \"levelup/newdex.sol\":3035:3050  tokensAleft * 1 */\n      tag_174\n      swap2\n      swap1\n      tag_125\n      jump\t// in\n    tag_174:\n        /* \"levelup/newdex.sol\":3034:3056  (tokensAleft * 1) / 10 */\n      tag_175\n      swap2\n      swap1\n      tag_117\n      jump\t// in\n    tag_175:\n        /* \"levelup/newdex.sol\":3013:3056  uint256 commission = (tokensAleft * 1) / 10 */\n      swap1\n      pop\n        /* \"levelup/newdex.sol\":3077:3083  tokenA */\n      0x01\n      0x00\n      swap1\n      sload\n      swap1\n      0x0100\n      exp\n      swap1\n      div\n      0xffffffffffffffffffffffffffffffffffffffff\n      and\n        /* \"levelup/newdex.sol\":3077:3096  tokenA.transferFrom */\n      0xffffffffffffffffffffffffffffffffffffffff\n      and\n      0x23b872dd\n        /* \"levelup/newdex.sol\":3105:3109  this */\n      address\n        /* \"levelup/newdex.sol\":3112:3122  msg.sender */\n      caller\n        /* \"levelup/newdex.sol\":3124:3137  tokensSwapped */\n      dup6\n        /* \"levelup/newdex.sol\":3077:3138  tokenA.transferFrom(address(this), msg.sender, tokensSwapped) */\n      mload(0x40)\n      dup5\n      0xffffffff\n      and\n      0xe0\n      shl\n      dup2\n      mstore\n      0x04\n      add\n      tag_176\n      swap4\n      swap3\n      swap2\n      swap1\n      tag_130\n      jump\t// in\n    tag_176:\n      0x20\n      mload(0x40)\n      dup1\n      dup4\n      sub\n      dup2\n      0x00\n      dup8\n      gas\n      call\n      iszero\n      dup1\n      iszero\n      tag_178\n      jumpi\n      returndatasize\n      0x00\n      dup1\n      returndatacopy\n      revert(0x00, returndatasize)\n    tag_178:\n      pop\n      pop\n      pop\n      pop\n      mload(0x40)\n      returndatasize\n      not(0x1f)\n      0x1f\n      dup3\n      add\n      and\n      dup3\n      add\n      dup1\n      0x40\n      mstore\n      pop\n      dup2\n      add\n      swap1\n      tag_179\n      swap2\n      swap1\n      tag_80\n      jump\t// in\n    tag_179:\n      pop\n        /* \"levelup/newdex.sol\":3148:3154  tokenA */\n      0x01\n      0x00\n      swap1\n      sload\n      swap1\n      0x0100\n      exp\n      swap1\n      div\n      0xffffffffffffffffffffffffffffffffffffffff\n      and\n        /* \"levelup/newdex.sol\":3148:3167  tokenA.transferFrom */\n      0xffffffffffffffffffffffffffffffffffffffff\n      and\n      0x23b872dd\n        /* \"levelup/newdex.sol\":3176:3180  this */\n      address\n        /* \"levelup/newdex.sol\":3183:3200  liquidityProvider */\n      0x05\n      0x00\n      swap1\n      sload\n      swap1\n      0x0100\n      exp\n      swap1\n      div\n      0xffffffffffffffffffffffffffffffffffffffff\n      and\n        /* \"levelup/newdex.sol\":3202:3212  commission */\n      dup5\n        /* \"levelup/newdex.sol\":3148:3213  tokenA.transferFrom(address(this), liquidityProvider, commission) */\n      mload(0x40)\n      dup5\n      0xffffffff\n      and\n      0xe0\n      shl\n      dup2\n      mstore\n      0x04\n      add\n      tag_180\n      swap4\n      swap3\n      swap2\n      swap1\n      tag_130\n      jump\t// in\n    tag_180:\n      0x20\n      mload(0x40)\n      dup1\n      dup4\n      sub\n      dup2\n      0x00\n      dup8\n      gas\n      call\n      iszero\n      dup1\n      iszero\n      tag_182\n      jumpi\n      returndatasize\n      0x00\n      dup1\n      returndatacopy\n      revert(0x00, returndatasize)\n    tag_182:\n      pop\n      pop\n      pop\n      pop\n      mload(0x40)\n      returndatasize\n      not(0x1f)\n      0x1f\n      dup3\n      add\n      and\n      dup3\n      add\n      dup1\n      0x40\n      mstore\n      pop\n      dup2\n      add\n      swap1\n      tag_183\n      swap2\n      swap1\n      tag_80\n      jump\t// in\n    tag_183:\n      pop\n        /* \"levelup/newdex.sol\":3230:3234  true */\n      0x01\n        /* \"levelup/newdex.sol\":3223:3227  swap */\n      0x05\n      0x14\n        /* \"levelup/newdex.sol\":3223:3234  swap = true */\n      0x0100\n      exp\n      dup2\n      sload\n      dup2\n      0xff\n      mul\n      not\n      and\n      swap1\n      dup4\n      iszero\n      iszero\n      mul\n      or\n      swap1\n      sstore\n      pop\n        /* \"levelup/newdex.sol\":2431:3241  {... */\n      pop\n      pop\n      pop\n      pop\n        /* \"levelup/newdex.sol\":2403:3241  function swapBforA() public {... */\n      jump\t// out\n        /* \"@openzeppelin/contracts/access/Ownable.sol\":2074:2272  function transferOwnership(address newOwner) public virtual onlyOwner {... */\n    tag_61:\n        /* \"@openzeppelin/contracts/access/Ownable.sol\":1094:1107  _checkOwner() */\n      tag_185\n        /* \"@openzeppelin/contracts/access/Ownable.sol\":1094:1105  _checkOwner */\n      tag_68\n        /* \"@openzeppelin/contracts/access/Ownable.sol\":1094:1107  _checkOwner() */\n      jump\t// in\n    tag_185:\n        /* \"@openzeppelin/contracts/access/Ownable.sol\":2182:2183  0 */\n      0x00\n        /* \"@openzeppelin/contracts/access/Ownable.sol\":2162:2184  newOwner != address(0) */\n      0xffffffffffffffffffffffffffffffffffffffff\n      and\n        /* \"@openzeppelin/contracts/access/Ownable.sol\":2162:2170  newOwner */\n      dup2\n        /* \"@openzeppelin/contracts/access/Ownable.sol\":2162:2184  newOwner != address(0) */\n      0xffffffffffffffffffffffffffffffffffffffff\n      and\n      sub\n        /* \"@openzeppelin/contracts/access/Ownable.sol\":2154:2227  require(newOwner != address(0), \"Ownable: new owner is the zero address\") */\n      tag_187\n      jumpi\n      mload(0x40)\n      0x08c379a000000000000000000000000000000000000000000000000000000000\n      dup2\n      mstore\n      0x04\n      add\n      tag_188\n      swap1\n      tag_189\n      jump\t// in\n    tag_188:\n      mload(0x40)\n      dup1\n      swap2\n      sub\n      swap1\n      revert\n    tag_187:\n        /* \"@openzeppelin/contracts/access/Ownable.sol\":2237:2265  _transferOwnership(newOwner) */\n      tag_190\n        /* \"@openzeppelin/contracts/access/Ownable.sol\":2256:2264  newOwner */\n      dup2\n        /* \"@openzeppelin/contracts/access/Ownable.sol\":2237:2255  _transferOwnership */\n      tag_71\n        /* \"@openzeppelin/contracts/access/Ownable.sol\":2237:2265  _transferOwnership(newOwner) */\n      jump\t// in\n    tag_190:\n        /* \"@openzeppelin/contracts/access/Ownable.sol\":2074:2272  function transferOwnership(address newOwner) public virtual onlyOwner {... */\n      pop\n      jump\t// out\n        /* \"levelup/newdex.sol\":3248:3413  function getFlag() public view returns(string memory){... */\n    tag_63:\n        /* \"levelup/newdex.sol\":3287:3300  string memory */\n      0x60\n        /* \"levelup/newdex.sol\":3327:3331  true */\n      0x01\n        /* \"levelup/newdex.sol\":3319:3331  swap == true */\n      iszero\n      iszero\n        /* \"levelup/newdex.sol\":3319:3323  swap */\n      0x05\n      0x14\n      swap1\n      sload\n      swap1\n      0x0100\n      exp\n      swap1\n      div\n      0xff\n      and\n        /* \"levelup/newdex.sol\":3319:3331  swap == true */\n      iszero\n      iszero\n      eq\n        /* \"levelup/newdex.sol\":3311:3385  require(swap == true,\"El liquidityProvider no ha ganado ninguna comision\") */\n      tag_192\n      jumpi\n      mload(0x40)\n      0x08c379a000000000000000000000000000000000000000000000000000000000\n      dup2\n      mstore\n      0x04\n      add\n      tag_193\n      swap1\n      tag_194\n      jump\t// in\n    tag_193:\n      mload(0x40)\n      dup1\n      swap2\n      sub\n      swap1\n      revert\n    tag_192:\n        /* \"levelup/newdex.sol\":3402:3406  flag */\n      0x03\n        /* \"levelup/newdex.sol\":3395:3406  return flag */\n      dup1\n      sload\n      tag_195\n      swap1\n      tag_196\n      jump\t// in\n    tag_195:\n      dup1\n      0x1f\n      add\n      0x20\n      dup1\n      swap2\n      div\n      mul\n      0x20\n      add\n      mload(0x40)\n      swap1\n      dup2\n      add\n      0x40\n      mstore\n      dup1\n      swap3\n      swap2\n      swap1\n      dup2\n      dup2\n      mstore\n      0x20\n      add\n      dup3\n      dup1\n      sload\n      tag_197\n      swap1\n      tag_196\n      jump\t// in\n    tag_197:\n      dup1\n      iszero\n      tag_198\n      jumpi\n      dup1\n      0x1f\n      lt\n      tag_199\n      jumpi\n      0x0100\n      dup1\n      dup4\n      sload\n      div\n      mul\n      dup4\n      mstore\n      swap2\n      0x20\n      add\n      swap2\n      jump(tag_198)\n    tag_199:\n      dup3\n      add\n      swap2\n      swap1\n      0x00\n      mstore\n      keccak256(0x00, 0x20)\n      swap1\n    tag_200:\n      dup2\n      sload\n      dup2\n      mstore\n      swap1\n      0x01\n      add\n      swap1\n      0x20\n      add\n      dup1\n      dup4\n      gt\n      tag_200\n      jumpi\n      dup3\n      swap1\n      sub\n      0x1f\n      and\n      dup3\n      add\n      swap2\n    tag_198:\n      pop\n      pop\n      pop\n      pop\n      pop\n      swap1\n      pop\n        /* \"levelup/newdex.sol\":3248:3413  function getFlag() public view returns(string memory){... */\n      swap1\n      jump\t// out\n        /* \"@openzeppelin/contracts/access/Ownable.sol\":1359:1489  function _checkOwner() internal view virtual {... */\n    tag_68:\n        /* \"@openzeppelin/contracts/access/Ownable.sol\":1433:1445  _msgSender() */\n      tag_202\n        /* \"@openzeppelin/contracts/access/Ownable.sol\":1433:1443  _msgSender */\n      tag_203\n        /* \"@openzeppelin/contracts/access/Ownable.sol\":1433:1445  _msgSender() */\n      jump\t// in\n    tag_202:\n        /* \"@openzeppelin/contracts/access/Ownable.sol\":1422:1445  owner() == _msgSender() */\n      0xffffffffffffffffffffffffffffffffffffffff\n      and\n        /* \"@openzeppelin/contracts/access/Ownable.sol\":1422:1429  owner() */\n      tag_204\n        /* \"@openzeppelin/contracts/access/Ownable.sol\":1422:1427  owner */\n      tag_52\n        /* \"@openzeppelin/contracts/access/Ownable.sol\":1422:1429  owner() */\n      jump\t// in\n    tag_204:\n        /* \"@openzeppelin/contracts/access/Ownable.sol\":1422:1445  owner() == _msgSender() */\n      0xffffffffffffffffffffffffffffffffffffffff\n      and\n      eq\n        /* \"@openzeppelin/contracts/access/Ownable.sol\":1414:1482  require(owner() == _msgSender(), \"Ownable: caller is not the owner\") */\n      tag_205\n      jumpi\n      mload(0x40)\n      0x08c379a000000000000000000000000000000000000000000000000000000000\n      dup2\n      mstore\n      0x04\n      add\n      tag_206\n      swap1\n      tag_207\n      jump\t// in\n    tag_206:\n      mload(0x40)\n      dup1\n      swap2\n      sub\n      swap1\n      revert\n    tag_205:\n        /* \"@openzeppelin/contracts/access/Ownable.sol\":1359:1489  function _checkOwner() internal view virtual {... */\n      jump\t// out\n        /* \"@openzeppelin/contracts/access/Ownable.sol\":2426:2613  function _transferOwnership(address newOwner) internal virtual {... */\n    tag_71:\n        /* \"@openzeppelin/contracts/access/Ownable.sol\":2499:2515  address oldOwner */\n      0x00\n        /* \"@openzeppelin/contracts/access/Ownable.sol\":2518:2524  _owner */\n      dup1\n      0x00\n      swap1\n      sload\n      swap1\n      0x0100\n      exp\n      swap1\n      div\n      0xffffffffffffffffffffffffffffffffffffffff\n      and\n        /* \"@openzeppelin/contracts/access/Ownable.sol\":2499:2524  address oldOwner = _owner */\n      swap1\n      pop\n        /* \"@openzeppelin/contracts/access/Ownable.sol\":2543:2551  newOwner */\n      dup2\n        /* \"@openzeppelin/contracts/access/Ownable.sol\":2534:2540  _owner */\n      0x00\n      dup1\n        /* \"@openzeppelin/contracts/access/Ownable.sol\":2534:2551  _owner = newOwner */\n      0x0100\n      exp\n      dup2\n      sload\n      dup2\n      0xffffffffffffffffffffffffffffffffffffffff\n      mul\n      not\n      and\n      swap1\n      dup4\n      0xffffffffffffffffffffffffffffffffffffffff\n      and\n      mul\n      or\n      swap1\n      sstore\n      pop\n        /* \"@openzeppelin/contracts/access/Ownable.sol\":2597:2605  newOwner */\n      dup2\n        /* \"@openzeppelin/contracts/access/Ownable.sol\":2566:2606  OwnershipTransferred(oldOwner, newOwner) */\n      0xffffffffffffffffffffffffffffffffffffffff\n      and\n        /* \"@openzeppelin/contracts/access/Ownable.sol\":2587:2595  oldOwner */\n      dup2\n        /* \"@openzeppelin/contracts/access/Ownable.sol\":2566:2606  OwnershipTransferred(oldOwner, newOwner) */\n      0xffffffffffffffffffffffffffffffffffffffff\n      and\n      0x8be0079c531659141344cd1fd0a4f28419497f9722a3daafe3b4186f6b6457e0\n      mload(0x40)\n      mload(0x40)\n      dup1\n      swap2\n      sub\n      swap1\n      log3\n        /* \"@openzeppelin/contracts/access/Ownable.sol\":2489:2613  {... */\n      pop\n        /* \"@openzeppelin/contracts/access/Ownable.sol\":2426:2613  function _transferOwnership(address newOwner) internal virtual {... */\n      pop\n      jump\t// out\n        /* \"@openzeppelin/contracts/utils/Context.sol\":640:736  function _msgSender() internal view virtual returns (address) {... */\n    tag_203:\n        /* \"@openzeppelin/contracts/utils/Context.sol\":693:700  address */\n      0x00\n        /* \"@openzeppelin/contracts/utils/Context.sol\":719:729  msg.sender */\n      caller\n        /* \"@openzeppelin/contracts/utils/Context.sol\":712:729  return msg.sender */\n      swap1\n      pop\n        /* \"@openzeppelin/contracts/utils/Context.sol\":640:736  function _msgSender() internal view virtual returns (address) {... */\n      swap1\n      jump\t// out\n        /* \"#utility.yul\":7:133   */\n    tag_210:\n        /* \"#utility.yul\":44:51   */\n      0x00\n        /* \"#utility.yul\":84:126   */\n      0xffffffffffffffffffffffffffffffffffffffff\n        /* \"#utility.yul\":77:82   */\n      dup3\n        /* \"#utility.yul\":73:127   */\n      and\n        /* \"#utility.yul\":62:127   */\n      swap1\n      pop\n        /* \"#utility.yul\":7:133   */\n      swap2\n      swap1\n      pop\n      jump\t// out\n        /* \"#utility.yul\":139:199   */\n    tag_211:\n        /* \"#utility.yul\":167:170   */\n      0x00\n        /* \"#utility.yul\":188:193   */\n      dup2\n        /* \"#utility.yul\":181:193   */\n      swap1\n      pop\n        /* \"#utility.yul\":139:199   */\n      swap2\n      swap1\n      pop\n      jump\t// out\n        /* \"#utility.yul\":205:347   */\n    tag_212:\n        /* \"#utility.yul\":255:264   */\n      0x00\n        /* \"#utility.yul\":288:341   */\n      tag_259\n        /* \"#utility.yul\":306:340   */\n      tag_260\n        /* \"#utility.yul\":315:339   */\n      tag_261\n        /* \"#utility.yul\":333:338   */\n      dup5\n        /* \"#utility.yul\":315:339   */\n      tag_210\n      jump\t// in\n    tag_261:\n        /* \"#utility.yul\":306:340   */\n      tag_211\n      jump\t// in\n    tag_260:\n        /* \"#utility.yul\":288:341   */\n      tag_210\n      jump\t// in\n    tag_259:\n        /* \"#utility.yul\":275:341   */\n      swap1\n      pop\n        /* \"#utility.yul\":205:347   */\n      swap2\n      swap1\n      pop\n      jump\t// out\n        /* \"#utility.yul\":353:479   */\n    tag_213:\n        /* \"#utility.yul\":403:412   */\n      0x00\n        /* \"#utility.yul\":436:473   */\n      tag_263\n        /* \"#utility.yul\":467:472   */\n      dup3\n        /* \"#utility.yul\":436:473   */\n      tag_212\n      jump\t// in\n    tag_263:\n        /* \"#utility.yul\":423:473   */\n      swap1\n      pop\n        /* \"#utility.yul\":353:479   */\n      swap2\n      swap1\n      pop\n      jump\t// out\n        /* \"#utility.yul\":485:625   */\n    tag_214:\n        /* \"#utility.yul\":549:558   */\n      0x00\n        /* \"#utility.yul\":582:619   */\n      tag_265\n        /* \"#utility.yul\":613:618   */\n      dup3\n        /* \"#utility.yul\":582:619   */\n      tag_213\n      jump\t// in\n    tag_265:\n        /* \"#utility.yul\":569:619   */\n      swap1\n      pop\n        /* \"#utility.yul\":485:625   */\n      swap2\n      swap1\n      pop\n      jump\t// out\n        /* \"#utility.yul\":631:790   */\n    tag_215:\n        /* \"#utility.yul\":732:783   */\n      tag_267\n        /* \"#utility.yul\":777:782   */\n      dup2\n        /* \"#utility.yul\":732:783   */\n      tag_214\n      jump\t// in\n    tag_267:\n        /* \"#utility.yul\":727:730   */\n      dup3\n        /* \"#utility.yul\":720:784   */\n      mstore\n        /* \"#utility.yul\":631:790   */\n      pop\n      pop\n      jump\t// out\n        /* \"#utility.yul\":796:1046   */\n    tag_23:\n        /* \"#utility.yul\":903:907   */\n      0x00\n        /* \"#utility.yul\":941:943   */\n      0x20\n        /* \"#utility.yul\":930:939   */\n      dup3\n        /* \"#utility.yul\":926:944   */\n      add\n        /* \"#utility.yul\":918:944   */\n      swap1\n      pop\n        /* \"#utility.yul\":954:1039   */\n      tag_269\n        /* \"#utility.yul\":1036:1037   */\n      0x00\n        /* \"#utility.yul\":1025:1034   */\n      dup4\n        /* \"#utility.yul\":1021:1038   */\n      add\n        /* \"#utility.yul\":1012:1018   */\n      dup5\n        /* \"#utility.yul\":954:1039   */\n      tag_215\n      jump\t// in\n    tag_269:\n        /* \"#utility.yul\":796:1046   */\n      swap3\n      swap2\n      pop\n      pop\n      jump\t// out\n        /* \"#utility.yul\":1052:1129   */\n    tag_216:\n        /* \"#utility.yul\":1089:1096   */\n      0x00\n        /* \"#utility.yul\":1118:1123   */\n      dup2\n        /* \"#utility.yul\":1107:1123   */\n      swap1\n      pop\n        /* \"#utility.yul\":1052:1129   */\n      swap2\n      swap1\n      pop\n      jump\t// out\n        /* \"#utility.yul\":1135:1253   */\n    tag_217:\n        /* \"#utility.yul\":1222:1246   */\n      tag_272\n        /* \"#utility.yul\":1240:1245   */\n      dup2\n        /* \"#utility.yul\":1222:1246   */\n      tag_216\n      jump\t// in\n    tag_272:\n        /* \"#utility.yul\":1217:1220   */\n      dup3\n        /* \"#utility.yul\":1210:1247   */\n      mstore\n        /* \"#utility.yul\":1135:1253   */\n      pop\n      pop\n      jump\t// out\n        /* \"#utility.yul\":1259:1481   */\n    tag_27:\n        /* \"#utility.yul\":1352:1356   */\n      0x00\n        /* \"#utility.yul\":1390:1392   */\n      0x20\n        /* \"#utility.yul\":1379:1388   */\n      dup3\n        /* \"#utility.yul\":1375:1393   */\n      add\n        /* \"#utility.yul\":1367:1393   */\n      swap1\n      pop\n        /* \"#utility.yul\":1403:1474   */\n      tag_274\n        /* \"#utility.yul\":1471:1472   */\n      0x00\n        /* \"#utility.yul\":1460:1469   */\n      dup4\n        /* \"#utility.yul\":1456:1473   */\n      add\n        /* \"#utility.yul\":1447:1453   */\n      dup5\n        /* \"#utility.yul\":1403:1474   */\n      tag_217\n      jump\t// in\n    tag_274:\n        /* \"#utility.yul\":1259:1481   */\n      swap3\n      swap2\n      pop\n      pop\n      jump\t// out\n        /* \"#utility.yul\":1487:1583   */\n    tag_218:\n        /* \"#utility.yul\":1524:1531   */\n      0x00\n        /* \"#utility.yul\":1553:1577   */\n      tag_276\n        /* \"#utility.yul\":1571:1576   */\n      dup3\n        /* \"#utility.yul\":1553:1577   */\n      tag_210\n      jump\t// in\n    tag_276:\n        /* \"#utility.yul\":1542:1577   */\n      swap1\n      pop\n        /* \"#utility.yul\":1487:1583   */\n      swap2\n      swap1\n      pop\n      jump\t// out\n        /* \"#utility.yul\":1589:1707   */\n    tag_219:\n        /* \"#utility.yul\":1676:1700   */\n      tag_278\n        /* \"#utility.yul\":1694:1699   */\n      dup2\n        /* \"#utility.yul\":1676:1700   */\n      tag_218\n      jump\t// in\n    tag_278:\n        /* \"#utility.yul\":1671:1674   */\n      dup3\n        /* \"#utility.yul\":1664:1701   */\n      mstore\n        /* \"#utility.yul\":1589:1707   */\n      pop\n      pop\n      jump\t// out\n        /* \"#utility.yul\":1713:1935   */\n    tag_34:\n        /* \"#utility.yul\":1806:1810   */\n      0x00\n        /* \"#utility.yul\":1844:1846   */\n      0x20\n        /* \"#utility.yul\":1833:1842   */\n      dup3\n        /* \"#utility.yul\":1829:1847   */\n      add\n        /* \"#utility.yul\":1821:1847   */\n      swap1\n      pop\n        /* \"#utility.yul\":1857:1928   */\n      tag_280\n        /* \"#utility.yul\":1925:1926   */\n      0x00\n        /* \"#utility.yul\":1914:1923   */\n      dup4\n        /* \"#utility.yul\":1910:1927   */\n      add\n        /* \"#utility.yul\":1901:1907   */\n      dup5\n        /* \"#utility.yul\":1857:1928   */\n      tag_219\n      jump\t// in\n    tag_280:\n        /* \"#utility.yul\":1713:1935   */\n      swap3\n      swap2\n      pop\n      pop\n      jump\t// out\n        /* \"#utility.yul\":2022:2139   */\n    tag_221:\n        /* \"#utility.yul\":2131:2132   */\n      0x00\n        /* \"#utility.yul\":2128:2129   */\n      dup1\n        /* \"#utility.yul\":2121:2133   */\n      revert\n        /* \"#utility.yul\":2268:2390   */\n    tag_223:\n        /* \"#utility.yul\":2341:2365   */\n      tag_285\n        /* \"#utility.yul\":2359:2364   */\n      dup2\n        /* \"#utility.yul\":2341:2365   */\n      tag_216\n      jump\t// in\n    tag_285:\n        /* \"#utility.yul\":2334:2339   */\n      dup2\n        /* \"#utility.yul\":2331:2366   */\n      eq\n        /* \"#utility.yul\":2321:2384   */\n      tag_286\n      jumpi\n        /* \"#utility.yul\":2380:2381   */\n      0x00\n        /* \"#utility.yul\":2377:2378   */\n      dup1\n        /* \"#utility.yul\":2370:2382   */\n      revert\n        /* \"#utility.yul\":2321:2384   */\n    tag_286:\n        /* \"#utility.yul\":2268:2390   */\n      pop\n      jump\t// out\n        /* \"#utility.yul\":2396:2535   */\n    tag_224:\n        /* \"#utility.yul\":2442:2447   */\n      0x00\n        /* \"#utility.yul\":2480:2486   */\n      dup2\n        /* \"#utility.yul\":2467:2487   */\n      calldataload\n        /* \"#utility.yul\":2458:2487   */\n      swap1\n      pop\n        /* \"#utility.yul\":2496:2529   */\n      tag_288\n        /* \"#utility.yul\":2523:2528   */\n      dup2\n        /* \"#utility.yul\":2496:2529   */\n      tag_223\n      jump\t// in\n    tag_288:\n        /* \"#utility.yul\":2396:2535   */\n      swap3\n      swap2\n      pop\n      pop\n      jump\t// out\n        /* \"#utility.yul\":2541:3015   */\n    tag_42:\n        /* \"#utility.yul\":2609:2615   */\n      0x00\n        /* \"#utility.yul\":2617:2623   */\n      dup1\n        /* \"#utility.yul\":2666:2668   */\n      0x40\n        /* \"#utility.yul\":2654:2663   */\n      dup4\n        /* \"#utility.yul\":2645:2652   */\n      dup6\n        /* \"#utility.yul\":2641:2664   */\n      sub\n        /* \"#utility.yul\":2637:2669   */\n      slt\n        /* \"#utility.yul\":2634:2753   */\n      iszero\n      tag_290\n      jumpi\n        /* \"#utility.yul\":2672:2751   */\n      tag_291\n      tag_221\n      jump\t// in\n    tag_291:\n        /* \"#utility.yul\":2634:2753   */\n    tag_290:\n        /* \"#utility.yul\":2792:2793   */\n      0x00\n        /* \"#utility.yul\":2817:2870   */\n      tag_292\n        /* \"#utility.yul\":2862:2869   */\n      dup6\n        /* \"#utility.yul\":2853:2859   */\n      dup3\n        /* \"#utility.yul\":2842:2851   */\n      dup7\n        /* \"#utility.yul\":2838:2860   */\n      add\n        /* \"#utility.yul\":2817:2870   */\n      tag_224\n      jump\t// in\n    tag_292:\n        /* \"#utility.yul\":2807:2870   */\n      swap3\n      pop\n        /* \"#utility.yul\":2763:2880   */\n      pop\n        /* \"#utility.yul\":2919:2921   */\n      0x20\n        /* \"#utility.yul\":2945:2998   */\n      tag_293\n        /* \"#utility.yul\":2990:2997   */\n      dup6\n        /* \"#utility.yul\":2981:2987   */\n      dup3\n        /* \"#utility.yul\":2970:2979   */\n      dup7\n        /* \"#utility.yul\":2966:2988   */\n      add\n        /* \"#utility.yul\":2945:2998   */\n      tag_224\n      jump\t// in\n    tag_293:\n        /* \"#utility.yul\":2935:2998   */\n      swap2\n      pop\n        /* \"#utility.yul\":2890:3008   */\n      pop\n        /* \"#utility.yul\":2541:3015   */\n      swap3\n      pop\n      swap3\n      swap1\n      pop\n      jump\t// out\n        /* \"#utility.yul\":3021:3111   */\n    tag_225:\n        /* \"#utility.yul\":3055:3062   */\n      0x00\n        /* \"#utility.yul\":3098:3103   */\n      dup2\n        /* \"#utility.yul\":3091:3104   */\n      iszero\n        /* \"#utility.yul\":3084:3105   */\n      iszero\n        /* \"#utility.yul\":3073:3105   */\n      swap1\n      pop\n        /* \"#utility.yul\":3021:3111   */\n      swap2\n      swap1\n      pop\n      jump\t// out\n        /* \"#utility.yul\":3117:3226   */\n    tag_226:\n        /* \"#utility.yul\":3198:3219   */\n      tag_296\n        /* \"#utility.yul\":3213:3218   */\n      dup2\n        /* \"#utility.yul\":3198:3219   */\n      tag_225\n      jump\t// in\n    tag_296:\n        /* \"#utility.yul\":3193:3196   */\n      dup3\n        /* \"#utility.yul\":3186:3220   */\n      mstore\n        /* \"#utility.yul\":3117:3226   */\n      pop\n      pop\n      jump\t// out\n        /* \"#utility.yul\":3232:3442   */\n    tag_50:\n        /* \"#utility.yul\":3319:3323   */\n      0x00\n        /* \"#utility.yul\":3357:3359   */\n      0x20\n        /* \"#utility.yul\":3346:3355   */\n      dup3\n        /* \"#utility.yul\":3342:3360   */\n      add\n        /* \"#utility.yul\":3334:3360   */\n      swap1\n      pop\n        /* \"#utility.yul\":3370:3435   */\n      tag_298\n        /* \"#utility.yul\":3432:3433   */\n      0x00\n        /* \"#utility.yul\":3421:3430   */\n      dup4\n        /* \"#utility.yul\":3417:3434   */\n      add\n        /* \"#utility.yul\":3408:3414   */\n      dup5\n        /* \"#utility.yul\":3370:3435   */\n      tag_226\n      jump\t// in\n    tag_298:\n        /* \"#utility.yul\":3232:3442   */\n      swap3\n      swap2\n      pop\n      pop\n      jump\t// out\n        /* \"#utility.yul\":3448:3570   */\n    tag_227:\n        /* \"#utility.yul\":3521:3545   */\n      tag_300\n        /* \"#utility.yul\":3539:3544   */\n      dup2\n        /* \"#utility.yul\":3521:3545   */\n      tag_218\n      jump\t// in\n    tag_300:\n        /* \"#utility.yul\":3514:3519   */\n      dup2\n        /* \"#utility.yul\":3511:3546   */\n      eq\n        /* \"#utility.yul\":3501:3564   */\n      tag_301\n      jumpi\n        /* \"#utility.yul\":3560:3561   */\n      0x00\n        /* \"#utility.yul\":3557:3558   */\n      dup1\n        /* \"#utility.yul\":3550:3562   */\n      revert\n        /* \"#utility.yul\":3501:3564   */\n    tag_301:\n        /* \"#utility.yul\":3448:3570   */\n      pop\n      jump\t// out\n        /* \"#utility.yul\":3576:3715   */\n    tag_228:\n        /* \"#utility.yul\":3622:3627   */\n      0x00\n        /* \"#utility.yul\":3660:3666   */\n      dup2\n        /* \"#utility.yul\":3647:3667   */\n      calldataload\n        /* \"#utility.yul\":3638:3667   */\n      swap1\n      pop\n        /* \"#utility.yul\":3676:3709   */\n      tag_303\n        /* \"#utility.yul\":3703:3708   */\n      dup2\n        /* \"#utility.yul\":3676:3709   */\n      tag_227\n      jump\t// in\n    tag_303:\n        /* \"#utility.yul\":3576:3715   */\n      swap3\n      swap2\n      pop\n      pop\n      jump\t// out\n        /* \"#utility.yul\":3721:4050   */\n    tag_60:\n        /* \"#utility.yul\":3780:3786   */\n      0x00\n        /* \"#utility.yul\":3829:3831   */\n      0x20\n        /* \"#utility.yul\":3817:3826   */\n      dup3\n        /* \"#utility.yul\":3808:3815   */\n      dup5\n        /* \"#utility.yul\":3804:3827   */\n      sub\n        /* \"#utility.yul\":3800:3832   */\n      slt\n        /* \"#utility.yul\":3797:3916   */\n      iszero\n      tag_305\n      jumpi\n        /* \"#utility.yul\":3835:3914   */\n      tag_306\n      tag_221\n      jump\t// in\n    tag_306:\n        /* \"#utility.yul\":3797:3916   */\n    tag_305:\n        /* \"#utility.yul\":3955:3956   */\n      0x00\n        /* \"#utility.yul\":3980:4033   */\n      tag_307\n        /* \"#utility.yul\":4025:4032   */\n      dup5\n        /* \"#utility.yul\":4016:4022   */\n      dup3\n        /* \"#utility.yul\":4005:4014   */\n      dup6\n        /* \"#utility.yul\":4001:4023   */\n      add\n        /* \"#utility.yul\":3980:4033   */\n      tag_228\n      jump\t// in\n    tag_307:\n        /* \"#utility.yul\":3970:4033   */\n      swap2\n      pop\n        /* \"#utility.yul\":3926:4043   */\n      pop\n        /* \"#utility.yul\":3721:4050   */\n      swap3\n      swap2\n      pop\n      pop\n      jump\t// out\n        /* \"#utility.yul\":4056:4155   */\n    tag_229:\n        /* \"#utility.yul\":4108:4114   */\n      0x00\n        /* \"#utility.yul\":4142:4147   */\n      dup2\n        /* \"#utility.yul\":4136:4148   */\n      mload\n        /* \"#utility.yul\":4126:4148   */\n      swap1\n      pop\n        /* \"#utility.yul\":4056:4155   */\n      swap2\n      swap1\n      pop\n      jump\t// out\n        /* \"#utility.yul\":4161:4330   */\n    tag_230:\n        /* \"#utility.yul\":4245:4256   */\n      0x00\n        /* \"#utility.yul\":4279:4285   */\n      dup3\n        /* \"#utility.yul\":4274:4277   */\n      dup3\n        /* \"#utility.yul\":4267:4286   */\n      mstore\n        /* \"#utility.yul\":4319:4323   */\n      0x20\n        /* \"#utility.yul\":4314:4317   */\n      dup3\n        /* \"#utility.yul\":4310:4324   */\n      add\n        /* \"#utility.yul\":4295:4324   */\n      swap1\n      pop\n        /* \"#utility.yul\":4161:4330   */\n      swap3\n      swap2\n      pop\n      pop\n      jump\t// out\n        /* \"#utility.yul\":4336:4582   */\n    tag_231:\n        /* \"#utility.yul\":4417:4418   */\n      0x00\n        /* \"#utility.yul\":4427:4540   */\n    tag_311:\n        /* \"#utility.yul\":4441:4447   */\n      dup4\n        /* \"#utility.yul\":4438:4439   */\n      dup2\n        /* \"#utility.yul\":4435:4448   */\n      lt\n        /* \"#utility.yul\":4427:4540   */\n      iszero\n      tag_313\n      jumpi\n        /* \"#utility.yul\":4526:4527   */\n      dup1\n        /* \"#utility.yul\":4521:4524   */\n      dup3\n        /* \"#utility.yul\":4517:4528   */\n      add\n        /* \"#utility.yul\":4511:4529   */\n      mload\n        /* \"#utility.yul\":4507:4508   */\n      dup2\n        /* \"#utility.yul\":4502:4505   */\n      dup5\n        /* \"#utility.yul\":4498:4509   */\n      add\n        /* \"#utility.yul\":4491:4530   */\n      mstore\n        /* \"#utility.yul\":4463:4465   */\n      0x20\n        /* \"#utility.yul\":4460:4461   */\n      dup2\n        /* \"#utility.yul\":4456:4466   */\n      add\n        /* \"#utility.yul\":4451:4466   */\n      swap1\n      pop\n        /* \"#utility.yul\":4427:4540   */\n      jump(tag_311)\n    tag_313:\n        /* \"#utility.yul\":4574:4575   */\n      0x00\n        /* \"#utility.yul\":4565:4571   */\n      dup5\n        /* \"#utility.yul\":4560:4563   */\n      dup5\n        /* \"#utility.yul\":4556:4572   */\n      add\n        /* \"#utility.yul\":4549:4576   */\n      mstore\n        /* \"#utility.yul\":4398:4582   */\n      pop\n        /* \"#utility.yul\":4336:4582   */\n      pop\n      pop\n      pop\n      jump\t// out\n        /* \"#utility.yul\":4588:4690   */\n    tag_232:\n        /* \"#utility.yul\":4629:4635   */\n      0x00\n        /* \"#utility.yul\":4680:4682   */\n      0x1f\n        /* \"#utility.yul\":4676:4683   */\n      not\n        /* \"#utility.yul\":4671:4673   */\n      0x1f\n        /* \"#utility.yul\":4664:4669   */\n      dup4\n        /* \"#utility.yul\":4660:4674   */\n      add\n        /* \"#utility.yul\":4656:4684   */\n      and\n        /* \"#utility.yul\":4646:4684   */\n      swap1\n      pop\n        /* \"#utility.yul\":4588:4690   */\n      swap2\n      swap1\n      pop\n      jump\t// out\n        /* \"#utility.yul\":4696:5073   */\n    tag_233:\n        /* \"#utility.yul\":4784:4787   */\n      0x00\n        /* \"#utility.yul\":4812:4851   */\n      tag_316\n        /* \"#utility.yul\":4845:4850   */\n      dup3\n        /* \"#utility.yul\":4812:4851   */\n      tag_229\n      jump\t// in\n    tag_316:\n        /* \"#utility.yul\":4867:4938   */\n      tag_317\n        /* \"#utility.yul\":4931:4937   */\n      dup2\n        /* \"#utility.yul\":4926:4929   */\n      dup6\n        /* \"#utility.yul\":4867:4938   */\n      tag_230\n      jump\t// in\n    tag_317:\n        /* \"#utility.yul\":4860:4938   */\n      swap4\n      pop\n        /* \"#utility.yul\":4947:5012   */\n      tag_318\n        /* \"#utility.yul\":5005:5011   */\n      dup2\n        /* \"#utility.yul\":5000:5003   */\n      dup6\n        /* \"#utility.yul\":4993:4997   */\n      0x20\n        /* \"#utility.yul\":4986:4991   */\n      dup7\n        /* \"#utility.yul\":4982:4998   */\n      add\n        /* \"#utility.yul\":4947:5012   */\n      tag_231\n      jump\t// in\n    tag_318:\n        /* \"#utility.yul\":5037:5066   */\n      tag_319\n        /* \"#utility.yul\":5059:5065   */\n      dup2\n        /* \"#utility.yul\":5037:5066   */\n      tag_232\n      jump\t// in\n    tag_319:\n        /* \"#utility.yul\":5032:5035   */\n      dup5\n        /* \"#utility.yul\":5028:5067   */\n      add\n        /* \"#utility.yul\":5021:5067   */\n      swap2\n      pop\n        /* \"#utility.yul\":4788:5073   */\n      pop\n        /* \"#utility.yul\":4696:5073   */\n      swap3\n      swap2\n      pop\n      pop\n      jump\t// out\n        /* \"#utility.yul\":5079:5392   */\n    tag_65:\n        /* \"#utility.yul\":5192:5196   */\n      0x00\n        /* \"#utility.yul\":5230:5232   */\n      0x20\n        /* \"#utility.yul\":5219:5228   */\n      dup3\n        /* \"#utility.yul\":5215:5233   */\n      add\n        /* \"#utility.yul\":5207:5233   */\n      swap1\n      pop\n        /* \"#utility.yul\":5279:5288   */\n      dup2\n        /* \"#utility.yul\":5273:5277   */\n      dup2\n        /* \"#utility.yul\":5269:5289   */\n      sub\n        /* \"#utility.yul\":5265:5266   */\n      0x00\n        /* \"#utility.yul\":5254:5263   */\n      dup4\n        /* \"#utility.yul\":5250:5267   */\n      add\n        /* \"#utility.yul\":5243:5290   */\n      mstore\n        /* \"#utility.yul\":5307:5385   */\n      tag_321\n        /* \"#utility.yul\":5380:5384   */\n      dup2\n        /* \"#utility.yul\":5371:5377   */\n      dup5\n        /* \"#utility.yul\":5307:5385   */\n      tag_233\n      jump\t// in\n    tag_321:\n        /* \"#utility.yul\":5299:5385   */\n      swap1\n      pop\n        /* \"#utility.yul\":5079:5392   */\n      swap3\n      swap2\n      pop\n      pop\n      jump\t// out\n        /* \"#utility.yul\":5398:5730   */\n    tag_76:\n        /* \"#utility.yul\":5519:5523   */\n      0x00\n        /* \"#utility.yul\":5557:5559   */\n      0x40\n        /* \"#utility.yul\":5546:5555   */\n      dup3\n        /* \"#utility.yul\":5542:5560   */\n      add\n        /* \"#utility.yul\":5534:5560   */\n      swap1\n      pop\n        /* \"#utility.yul\":5570:5641   */\n      tag_323\n        /* \"#utility.yul\":5638:5639   */\n      0x00\n        /* \"#utility.yul\":5627:5636   */\n      dup4\n        /* \"#utility.yul\":5623:5640   */\n      add\n        /* \"#utility.yul\":5614:5620   */\n      dup6\n        /* \"#utility.yul\":5570:5641   */\n      tag_219\n      jump\t// in\n    tag_323:\n        /* \"#utility.yul\":5651:5723   */\n      tag_324\n        /* \"#utility.yul\":5719:5721   */\n      0x20\n        /* \"#utility.yul\":5708:5717   */\n      dup4\n        /* \"#utility.yul\":5704:5722   */\n      add\n        /* \"#utility.yul\":5695:5701   */\n      dup5\n        /* \"#utility.yul\":5651:5723   */\n      tag_217\n      jump\t// in\n    tag_324:\n        /* \"#utility.yul\":5398:5730   */\n      swap4\n      swap3\n      pop\n      pop\n      pop\n      jump\t// out\n        /* \"#utility.yul\":5736:5852   */\n    tag_234:\n        /* \"#utility.yul\":5806:5827   */\n      tag_326\n        /* \"#utility.yul\":5821:5826   */\n      dup2\n        /* \"#utility.yul\":5806:5827   */\n      tag_225\n      jump\t// in\n    tag_326:\n        /* \"#utility.yul\":5799:5804   */\n      dup2\n        /* \"#utility.yul\":5796:5828   */\n      eq\n        /* \"#utility.yul\":5786:5846   */\n      tag_327\n      jumpi\n        /* \"#utility.yul\":5842:5843   */\n      0x00\n        /* \"#utility.yul\":5839:5840   */\n      dup1\n        /* \"#utility.yul\":5832:5844   */\n      revert\n        /* \"#utility.yul\":5786:5846   */\n    tag_327:\n        /* \"#utility.yul\":5736:5852   */\n      pop\n      jump\t// out\n        /* \"#utility.yul\":5858:5995   */\n    tag_235:\n        /* \"#utility.yul\":5912:5917   */\n      0x00\n        /* \"#utility.yul\":5943:5949   */\n      dup2\n        /* \"#utility.yul\":5937:5950   */\n      mload\n        /* \"#utility.yul\":5928:5950   */\n      swap1\n      pop\n        /* \"#utility.yul\":5959:5989   */\n      tag_329\n        /* \"#utility.yul\":5983:5988   */\n      dup2\n        /* \"#utility.yul\":5959:5989   */\n      tag_234\n      jump\t// in\n    tag_329:\n        /* \"#utility.yul\":5858:5995   */\n      swap3\n      swap2\n      pop\n      pop\n      jump\t// out\n        /* \"#utility.yul\":6001:6346   */\n    tag_80:\n        /* \"#utility.yul\":6068:6074   */\n      0x00\n        /* \"#utility.yul\":6117:6119   */\n      0x20\n        /* \"#utility.yul\":6105:6114   */\n      dup3\n        /* \"#utility.yul\":6096:6103   */\n      dup5\n        /* \"#utility.yul\":6092:6115   */\n      sub\n        /* \"#utility.yul\":6088:6120   */\n      slt\n        /* \"#utility.yul\":6085:6204   */\n      iszero\n      tag_331\n      jumpi\n        /* \"#utility.yul\":6123:6202   */\n      tag_332\n      tag_221\n      jump\t// in\n    tag_332:\n        /* \"#utility.yul\":6085:6204   */\n    tag_331:\n        /* \"#utility.yul\":6243:6244   */\n      0x00\n        /* \"#utility.yul\":6268:6329   */\n      tag_333\n        /* \"#utility.yul\":6321:6328   */\n      dup5\n        /* \"#utility.yul\":6312:6318   */\n      dup3\n        /* \"#utility.yul\":6301:6310   */\n      dup6\n        /* \"#utility.yul\":6297:6319   */\n      add\n        /* \"#utility.yul\":6268:6329   */\n      tag_235\n      jump\t// in\n    tag_333:\n        /* \"#utility.yul\":6258:6329   */\n      swap2\n      pop\n        /* \"#utility.yul\":6214:6339   */\n      pop\n        /* \"#utility.yul\":6001:6346   */\n      swap3\n      swap2\n      pop\n      pop\n      jump\t// out\n        /* \"#utility.yul\":6352:6495   */\n    tag_236:\n        /* \"#utility.yul\":6409:6414   */\n      0x00\n        /* \"#utility.yul\":6440:6446   */\n      dup2\n        /* \"#utility.yul\":6434:6447   */\n      mload\n        /* \"#utility.yul\":6425:6447   */\n      swap1\n      pop\n        /* \"#utility.yul\":6456:6489   */\n      tag_335\n        /* \"#utility.yul\":6483:6488   */\n      dup2\n        /* \"#utility.yul\":6456:6489   */\n      tag_223\n      jump\t// in\n    tag_335:\n        /* \"#utility.yul\":6352:6495   */\n      swap3\n      swap2\n      pop\n      pop\n      jump\t// out\n        /* \"#utility.yul\":6501:6852   */\n    tag_91:\n        /* \"#utility.yul\":6571:6577   */\n      0x00\n        /* \"#utility.yul\":6620:6622   */\n      0x20\n        /* \"#utility.yul\":6608:6617   */\n      dup3\n        /* \"#utility.yul\":6599:6606   */\n      dup5\n        /* \"#utility.yul\":6595:6618   */\n      sub\n        /* \"#utility.yul\":6591:6623   */\n      slt\n        /* \"#utility.yul\":6588:6707   */\n      iszero\n      tag_337\n      jumpi\n        /* \"#utility.yul\":6626:6705   */\n      tag_338\n      tag_221\n      jump\t// in\n    tag_338:\n        /* \"#utility.yul\":6588:6707   */\n    tag_337:\n        /* \"#utility.yul\":6746:6747   */\n      0x00\n        /* \"#utility.yul\":6771:6835   */\n      tag_339\n        /* \"#utility.yul\":6827:6834   */\n      dup5\n        /* \"#utility.yul\":6818:6824   */\n      dup3\n        /* \"#utility.yul\":6807:6816   */\n      dup6\n        /* \"#utility.yul\":6803:6825   */\n      add\n        /* \"#utility.yul\":6771:6835   */\n      tag_236\n      jump\t// in\n    tag_339:\n        /* \"#utility.yul\":6761:6835   */\n      swap2\n      pop\n        /* \"#utility.yul\":6717:6845   */\n      pop\n        /* \"#utility.yul\":6501:6852   */\n      swap3\n      swap2\n      pop\n      pop\n      jump\t// out\n        /* \"#utility.yul\":6858:7088   */\n    tag_237:\n        /* \"#utility.yul\":6998:7032   */\n      0x496e73756666696369656e7420746f6b656e412062616c616e636520696e2074\n        /* \"#utility.yul\":6994:6995   */\n      0x00\n        /* \"#utility.yul\":6986:6992   */\n      dup3\n        /* \"#utility.yul\":6982:6996   */\n      add\n        /* \"#utility.yul\":6975:7033   */\n      mstore\n        /* \"#utility.yul\":7067:7080   */\n      0x686520636f6e7472616374000000000000000000000000000000000000000000\n        /* \"#utility.yul\":7062:7064   */\n      0x20\n        /* \"#utility.yul\":7054:7060   */\n      dup3\n        /* \"#utility.yul\":7050:7065   */\n      add\n        /* \"#utility.yul\":7043:7081   */\n      mstore\n        /* \"#utility.yul\":6858:7088   */\n      pop\n      jump\t// out\n        /* \"#utility.yul\":7094:7460   */\n    tag_238:\n        /* \"#utility.yul\":7236:7239   */\n      0x00\n        /* \"#utility.yul\":7257:7324   */\n      tag_342\n        /* \"#utility.yul\":7321:7323   */\n      0x2b\n        /* \"#utility.yul\":7316:7319   */\n      dup4\n        /* \"#utility.yul\":7257:7324   */\n      tag_230\n      jump\t// in\n    tag_342:\n        /* \"#utility.yul\":7250:7324   */\n      swap2\n      pop\n        /* \"#utility.yul\":7333:7426   */\n      tag_343\n        /* \"#utility.yul\":7422:7425   */\n      dup3\n        /* \"#utility.yul\":7333:7426   */\n      tag_237\n      jump\t// in\n    tag_343:\n        /* \"#utility.yul\":7451:7453   */\n      0x40\n        /* \"#utility.yul\":7446:7449   */\n      dup3\n        /* \"#utility.yul\":7442:7454   */\n      add\n        /* \"#utility.yul\":7435:7454   */\n      swap1\n      pop\n        /* \"#utility.yul\":7094:7460   */\n      swap2\n      swap1\n      pop\n      jump\t// out\n        /* \"#utility.yul\":7466:7885   */\n    tag_99:\n        /* \"#utility.yul\":7632:7636   */\n      0x00\n        /* \"#utility.yul\":7670:7672   */\n      0x20\n        /* \"#utility.yul\":7659:7668   */\n      dup3\n        /* \"#utility.yul\":7655:7673   */\n      add\n        /* \"#utility.yul\":7647:7673   */\n      swap1\n      pop\n        /* \"#utility.yul\":7719:7728   */\n      dup2\n        /* \"#utility.yul\":7713:7717   */\n      dup2\n        /* \"#utility.yul\":7709:7729   */\n      sub\n        /* \"#utility.yul\":7705:7706   */\n      0x00\n        /* \"#utility.yul\":7694:7703   */\n      dup4\n        /* \"#utility.yul\":7690:7707   */\n      add\n        /* \"#utility.yul\":7683:7730   */\n      mstore\n        /* \"#utility.yul\":7747:7878   */\n      tag_345\n        /* \"#utility.yul\":7873:7877   */\n      dup2\n        /* \"#utility.yul\":7747:7878   */\n      tag_238\n      jump\t// in\n    tag_345:\n        /* \"#utility.yul\":7739:7878   */\n      swap1\n      pop\n        /* \"#utility.yul\":7466:7885   */\n      swap2\n      swap1\n      pop\n      jump\t// out\n        /* \"#utility.yul\":7891:8121   */\n    tag_239:\n        /* \"#utility.yul\":8031:8065   */\n      0x496e73756666696369656e7420746f6b656e422062616c616e636520696e2074\n        /* \"#utility.yul\":8027:8028   */\n      0x00\n        /* \"#utility.yul\":8019:8025   */\n      dup3\n        /* \"#utility.yul\":8015:8029   */\n      add\n        /* \"#utility.yul\":8008:8066   */\n      mstore\n        /* \"#utility.yul\":8100:8113   */\n      0x686520636f6e7472616374000000000000000000000000000000000000000000\n        /* \"#utility.yul\":8095:8097   */\n      0x20\n        /* \"#utility.yul\":8087:8093   */\n      dup3\n        /* \"#utility.yul\":8083:8098   */\n      add\n        /* \"#utility.yul\":8076:8114   */\n      mstore\n        /* \"#utility.yul\":7891:8121   */\n      pop\n      jump\t// out\n        /* \"#utility.yul\":8127:8493   */\n    tag_240:\n        /* \"#utility.yul\":8269:8272   */\n      0x00\n        /* \"#utility.yul\":8290:8357   */\n      tag_348\n        /* \"#utility.yul\":8354:8356   */\n      0x2b\n        /* \"#utility.yul\":8349:8352   */\n      dup4\n        /* \"#utility.yul\":8290:8357   */\n      tag_230\n      jump\t// in\n    tag_348:\n        /* \"#utility.yul\":8283:8357   */\n      swap2\n      pop\n        /* \"#utility.yul\":8366:8459   */\n      tag_349\n        /* \"#utility.yul\":8455:8458   */\n      dup3\n        /* \"#utility.yul\":8366:8459   */\n      tag_239\n      jump\t// in\n    tag_349:\n        /* \"#utility.yul\":8484:8486   */\n      0x40\n        /* \"#utility.yul\":8479:8482   */\n      dup3\n        /* \"#utility.yul\":8475:8487   */\n      add\n        /* \"#utility.yul\":8468:8487   */\n      swap1\n      pop\n        /* \"#utility.yul\":8127:8493   */\n      swap2\n      swap1\n      pop\n      jump\t// out\n        /* \"#utility.yul\":8499:8918   */\n    tag_106:\n        /* \"#utility.yul\":8665:8669   */\n      0x00\n        /* \"#utility.yul\":8703:8705   */\n      0x20\n        /* \"#utility.yul\":8692:8701   */\n      dup3\n        /* \"#utility.yul\":8688:8706   */\n      add\n        /* \"#utility.yul\":8680:8706   */\n      swap1\n      pop\n        /* \"#utility.yul\":8752:8761   */\n      dup2\n        /* \"#utility.yul\":8746:8750   */\n      dup2\n        /* \"#utility.yul\":8742:8762   */\n      sub\n        /* \"#utility.yul\":8738:8739   */\n      0x00\n        /* \"#utility.yul\":8727:8736   */\n      dup4\n        /* \"#utility.yul\":8723:8740   */\n      add\n        /* \"#utility.yul\":8716:8763   */\n      mstore\n        /* \"#utility.yul\":8780:8911   */\n      tag_351\n        /* \"#utility.yul\":8906:8910   */\n      dup2\n        /* \"#utility.yul\":8780:8911   */\n      tag_240\n      jump\t// in\n    tag_351:\n        /* \"#utility.yul\":8772:8911   */\n      swap1\n      pop\n        /* \"#utility.yul\":8499:8918   */\n      swap2\n      swap1\n      pop\n      jump\t// out\n        /* \"#utility.yul\":8924:9010   */\n    tag_241:\n        /* \"#utility.yul\":8970:8977   */\n      0x00\n        /* \"#utility.yul\":8999:9004   */\n      dup2\n        /* \"#utility.yul\":8988:9004   */\n      swap1\n      pop\n        /* \"#utility.yul\":8924:9010   */\n      swap2\n      swap1\n      pop\n      jump\t// out\n        /* \"#utility.yul\":9016:9176   */\n    tag_242:\n        /* \"#utility.yul\":9075:9084   */\n      0x00\n        /* \"#utility.yul\":9108:9170   */\n      tag_354\n        /* \"#utility.yul\":9126:9169   */\n      tag_355\n        /* \"#utility.yul\":9135:9168   */\n      tag_356\n        /* \"#utility.yul\":9162:9167   */\n      dup5\n        /* \"#utility.yul\":9135:9168   */\n      tag_241\n      jump\t// in\n    tag_356:\n        /* \"#utility.yul\":9126:9169   */\n      tag_211\n      jump\t// in\n    tag_355:\n        /* \"#utility.yul\":9108:9170   */\n      tag_216\n      jump\t// in\n    tag_354:\n        /* \"#utility.yul\":9095:9170   */\n      swap1\n      pop\n        /* \"#utility.yul\":9016:9176   */\n      swap2\n      swap1\n      pop\n      jump\t// out\n        /* \"#utility.yul\":9182:9331   */\n    tag_243:\n        /* \"#utility.yul\":9278:9324   */\n      tag_358\n        /* \"#utility.yul\":9318:9323   */\n      dup2\n        /* \"#utility.yul\":9278:9324   */\n      tag_242\n      jump\t// in\n    tag_358:\n        /* \"#utility.yul\":9273:9276   */\n      dup3\n        /* \"#utility.yul\":9266:9325   */\n      mstore\n        /* \"#utility.yul\":9182:9331   */\n      pop\n      pop\n      jump\t// out\n        /* \"#utility.yul\":9337:9797   */\n    tag_108:\n        /* \"#utility.yul\":9495:9499   */\n      0x00\n        /* \"#utility.yul\":9533:9535   */\n      0x60\n        /* \"#utility.yul\":9522:9531   */\n      dup3\n        /* \"#utility.yul\":9518:9536   */\n      add\n        /* \"#utility.yul\":9510:9536   */\n      swap1\n      pop\n        /* \"#utility.yul\":9546:9617   */\n      tag_360\n        /* \"#utility.yul\":9614:9615   */\n      0x00\n        /* \"#utility.yul\":9603:9612   */\n      dup4\n        /* \"#utility.yul\":9599:9616   */\n      add\n        /* \"#utility.yul\":9590:9596   */\n      dup7\n        /* \"#utility.yul\":9546:9617   */\n      tag_219\n      jump\t// in\n    tag_360:\n        /* \"#utility.yul\":9627:9699   */\n      tag_361\n        /* \"#utility.yul\":9695:9697   */\n      0x20\n        /* \"#utility.yul\":9684:9693   */\n      dup4\n        /* \"#utility.yul\":9680:9698   */\n      add\n        /* \"#utility.yul\":9671:9677   */\n      dup6\n        /* \"#utility.yul\":9627:9699   */\n      tag_219\n      jump\t// in\n    tag_361:\n        /* \"#utility.yul\":9709:9790   */\n      tag_362\n        /* \"#utility.yul\":9786:9788   */\n      0x40\n        /* \"#utility.yul\":9775:9784   */\n      dup4\n        /* \"#utility.yul\":9771:9789   */\n      add\n        /* \"#utility.yul\":9762:9768   */\n      dup5\n        /* \"#utility.yul\":9709:9790   */\n      tag_243\n      jump\t// in\n    tag_362:\n        /* \"#utility.yul\":9337:9797   */\n      swap5\n      swap4\n      pop\n      pop\n      pop\n      pop\n      jump\t// out\n        /* \"#utility.yul\":9803:9983   */\n    tag_244:\n        /* \"#utility.yul\":9851:9928   */\n      0x4e487b7100000000000000000000000000000000000000000000000000000000\n        /* \"#utility.yul\":9848:9849   */\n      0x00\n        /* \"#utility.yul\":9841:9929   */\n      mstore\n        /* \"#utility.yul\":9948:9952   */\n      0x12\n        /* \"#utility.yul\":9945:9946   */\n      0x04\n        /* \"#utility.yul\":9938:9953   */\n      mstore\n        /* \"#utility.yul\":9972:9976   */\n      0x24\n        /* \"#utility.yul\":9969:9970   */\n      0x00\n        /* \"#utility.yul\":9962:9977   */\n      revert\n        /* \"#utility.yul\":9989:10169   */\n    tag_245:\n        /* \"#utility.yul\":10037:10114   */\n      0x4e487b7100000000000000000000000000000000000000000000000000000000\n        /* \"#utility.yul\":10034:10035   */\n      0x00\n        /* \"#utility.yul\":10027:10115   */\n      mstore\n        /* \"#utility.yul\":10134:10138   */\n      0x11\n        /* \"#utility.yul\":10131:10132   */\n      0x04\n        /* \"#utility.yul\":10124:10139   */\n      mstore\n        /* \"#utility.yul\":10158:10162   */\n      0x24\n        /* \"#utility.yul\":10155:10156   */\n      0x00\n        /* \"#utility.yul\":10148:10163   */\n      revert\n        /* \"#utility.yul\":10175:10360   */\n    tag_117:\n        /* \"#utility.yul\":10215:10216   */\n      0x00\n        /* \"#utility.yul\":10232:10252   */\n      tag_366\n        /* \"#utility.yul\":10250:10251   */\n      dup3\n        /* \"#utility.yul\":10232:10252   */\n      tag_216\n      jump\t// in\n    tag_366:\n        /* \"#utility.yul\":10227:10252   */\n      swap2\n      pop\n        /* \"#utility.yul\":10266:10286   */\n      tag_367\n        /* \"#utility.yul\":10284:10285   */\n      dup4\n        /* \"#utility.yul\":10266:10286   */\n      tag_216\n      jump\t// in\n    tag_367:\n        /* \"#utility.yul\":10261:10286   */\n      swap3\n      pop\n        /* \"#utility.yul\":10305:10306   */\n      dup3\n        /* \"#utility.yul\":10295:10330   */\n      tag_368\n      jumpi\n        /* \"#utility.yul\":10310:10328   */\n      tag_369\n      tag_244\n      jump\t// in\n    tag_369:\n        /* \"#utility.yul\":10295:10330   */\n    tag_368:\n        /* \"#utility.yul\":10352:10353   */\n      dup3\n        /* \"#utility.yul\":10349:10350   */\n      dup3\n        /* \"#utility.yul\":10345:10354   */\n      div\n        /* \"#utility.yul\":10340:10354   */\n      swap1\n      pop\n        /* \"#utility.yul\":10175:10360   */\n      swap3\n      swap2\n      pop\n      pop\n      jump\t// out\n        /* \"#utility.yul\":10366:10560   */\n    tag_123:\n        /* \"#utility.yul\":10406:10410   */\n      0x00\n        /* \"#utility.yul\":10426:10446   */\n      tag_371\n        /* \"#utility.yul\":10444:10445   */\n      dup3\n        /* \"#utility.yul\":10426:10446   */\n      tag_216\n      jump\t// in\n    tag_371:\n        /* \"#utility.yul\":10421:10446   */\n      swap2\n      pop\n        /* \"#utility.yul\":10460:10480   */\n      tag_372\n        /* \"#utility.yul\":10478:10479   */\n      dup4\n        /* \"#utility.yul\":10460:10480   */\n      tag_216\n      jump\t// in\n    tag_372:\n        /* \"#utility.yul\":10455:10480   */\n      swap3\n      pop\n        /* \"#utility.yul\":10504:10505   */\n      dup3\n        /* \"#utility.yul\":10501:10502   */\n      dup3\n        /* \"#utility.yul\":10497:10506   */\n      sub\n        /* \"#utility.yul\":10489:10506   */\n      swap1\n      pop\n        /* \"#utility.yul\":10528:10529   */\n      dup2\n        /* \"#utility.yul\":10522:10526   */\n      dup2\n        /* \"#utility.yul\":10519:10530   */\n      gt\n        /* \"#utility.yul\":10516:10553   */\n      iszero\n      tag_373\n      jumpi\n        /* \"#utility.yul\":10533:10551   */\n      tag_374\n      tag_245\n      jump\t// in\n    tag_374:\n        /* \"#utility.yul\":10516:10553   */\n    tag_373:\n        /* \"#utility.yul\":10366:10560   */\n      swap3\n      swap2\n      pop\n      pop\n      jump\t// out\n        /* \"#utility.yul\":10566:10976   */\n    tag_125:\n        /* \"#utility.yul\":10606:10613   */\n      0x00\n        /* \"#utility.yul\":10629:10649   */\n      tag_376\n        /* \"#utility.yul\":10647:10648   */\n      dup3\n        /* \"#utility.yul\":10629:10649   */\n      tag_216\n      jump\t// in\n    tag_376:\n        /* \"#utility.yul\":10624:10649   */\n      swap2\n      pop\n        /* \"#utility.yul\":10663:10683   */\n      tag_377\n        /* \"#utility.yul\":10681:10682   */\n      dup4\n        /* \"#utility.yul\":10663:10683   */\n      tag_216\n      jump\t// in\n    tag_377:\n        /* \"#utility.yul\":10658:10683   */\n      swap3\n      pop\n        /* \"#utility.yul\":10718:10719   */\n      dup3\n        /* \"#utility.yul\":10715:10716   */\n      dup3\n        /* \"#utility.yul\":10711:10720   */\n      mul\n        /* \"#utility.yul\":10740:10770   */\n      tag_378\n        /* \"#utility.yul\":10758:10769   */\n      dup2\n        /* \"#utility.yul\":10740:10770   */\n      tag_216\n      jump\t// in\n    tag_378:\n        /* \"#utility.yul\":10729:10770   */\n      swap2\n      pop\n        /* \"#utility.yul\":10919:10920   */\n      dup3\n        /* \"#utility.yul\":10910:10917   */\n      dup3\n        /* \"#utility.yul\":10906:10921   */\n      div\n        /* \"#utility.yul\":10903:10904   */\n      dup5\n        /* \"#utility.yul\":10900:10922   */\n      eq\n        /* \"#utility.yul\":10880:10881   */\n      dup4\n        /* \"#utility.yul\":10873:10882   */\n      iszero\n        /* \"#utility.yul\":10853:10936   */\n      or\n        /* \"#utility.yul\":10830:10969   */\n      tag_379\n      jumpi\n        /* \"#utility.yul\":10949:10967   */\n      tag_380\n      tag_245\n      jump\t// in\n    tag_380:\n        /* \"#utility.yul\":10830:10969   */\n    tag_379:\n        /* \"#utility.yul\":10614:10976   */\n      pop\n        /* \"#utility.yul\":10566:10976   */\n      swap3\n      swap2\n      pop\n      pop\n      jump\t// out\n        /* \"#utility.yul\":10982:11424   */\n    tag_130:\n        /* \"#utility.yul\":11131:11135   */\n      0x00\n        /* \"#utility.yul\":11169:11171   */\n      0x60\n        /* \"#utility.yul\":11158:11167   */\n      dup3\n        /* \"#utility.yul\":11154:11172   */\n      add\n        /* \"#utility.yul\":11146:11172   */\n      swap1\n      pop\n        /* \"#utility.yul\":11182:11253   */\n      tag_382\n        /* \"#utility.yul\":11250:11251   */\n      0x00\n        /* \"#utility.yul\":11239:11248   */\n      dup4\n        /* \"#utility.yul\":11235:11252   */\n      add\n        /* \"#utility.yul\":11226:11232   */\n      dup7\n        /* \"#utility.yul\":11182:11253   */\n      tag_219\n      jump\t// in\n    tag_382:\n        /* \"#utility.yul\":11263:11335   */\n      tag_383\n        /* \"#utility.yul\":11331:11333   */\n      0x20\n        /* \"#utility.yul\":11320:11329   */\n      dup4\n        /* \"#utility.yul\":11316:11334   */\n      add\n        /* \"#utility.yul\":11307:11313   */\n      dup6\n        /* \"#utility.yul\":11263:11335   */\n      tag_219\n      jump\t// in\n    tag_383:\n        /* \"#utility.yul\":11345:11417   */\n      tag_384\n        /* \"#utility.yul\":11413:11415   */\n      0x40\n        /* \"#utility.yul\":11402:11411   */\n      dup4\n        /* \"#utility.yul\":11398:11416   */\n      add\n        /* \"#utility.yul\":11389:11395   */\n      dup5\n        /* \"#utility.yul\":11345:11417   */\n      tag_217\n      jump\t// in\n    tag_384:\n        /* \"#utility.yul\":10982:11424   */\n      swap5\n      swap4\n      pop\n      pop\n      pop\n      pop\n      jump\t// out\n        /* \"#utility.yul\":11430:11607   */\n    tag_246:\n        /* \"#utility.yul\":11570:11599   */\n      0x496e73756666696369656e7420746f6b656e422062616c616e63650000000000\n        /* \"#utility.yul\":11566:11567   */\n      0x00\n        /* \"#utility.yul\":11558:11564   */\n      dup3\n        /* \"#utility.yul\":11554:11568   */\n      add\n        /* \"#utility.yul\":11547:11600   */\n      mstore\n        /* \"#utility.yul\":11430:11607   */\n      pop\n      jump\t// out\n        /* \"#utility.yul\":11613:11979   */\n    tag_247:\n        /* \"#utility.yul\":11755:11758   */\n      0x00\n        /* \"#utility.yul\":11776:11843   */\n      tag_387\n        /* \"#utility.yul\":11840:11842   */\n      0x1b\n        /* \"#utility.yul\":11835:11838   */\n      dup4\n        /* \"#utility.yul\":11776:11843   */\n      tag_230\n      jump\t// in\n    tag_387:\n        /* \"#utility.yul\":11769:11843   */\n      swap2\n      pop\n        /* \"#utility.yul\":11852:11945   */\n      tag_388\n        /* \"#utility.yul\":11941:11944   */\n      dup3\n        /* \"#utility.yul\":11852:11945   */\n      tag_246\n      jump\t// in\n    tag_388:\n        /* \"#utility.yul\":11970:11972   */\n      0x20\n        /* \"#utility.yul\":11965:11968   */\n      dup3\n        /* \"#utility.yul\":11961:11973   */\n      add\n        /* \"#utility.yul\":11954:11973   */\n      swap1\n      pop\n        /* \"#utility.yul\":11613:11979   */\n      swap2\n      swap1\n      pop\n      jump\t// out\n        /* \"#utility.yul\":11985:12404   */\n    tag_145:\n        /* \"#utility.yul\":12151:12155   */\n      0x00\n        /* \"#utility.yul\":12189:12191   */\n      0x20\n        /* \"#utility.yul\":12178:12187   */\n      dup3\n        /* \"#utility.yul\":12174:12192   */\n      add\n        /* \"#utility.yul\":12166:12192   */\n      swap1\n      pop\n        /* \"#utility.yul\":12238:12247   */\n      dup2\n        /* \"#utility.yul\":12232:12236   */\n      dup2\n        /* \"#utility.yul\":12228:12248   */\n      sub\n        /* \"#utility.yul\":12224:12225   */\n      0x00\n        /* \"#utility.yul\":12213:12222   */\n      dup4\n        /* \"#utility.yul\":12209:12226   */\n      add\n        /* \"#utility.yul\":12202:12249   */\n      mstore\n        /* \"#utility.yul\":12266:12397   */\n      tag_390\n        /* \"#utility.yul\":12392:12396   */\n      dup2\n        /* \"#utility.yul\":12266:12397   */\n      tag_247\n      jump\t// in\n    tag_390:\n        /* \"#utility.yul\":12258:12397   */\n      swap1\n      pop\n        /* \"#utility.yul\":11985:12404   */\n      swap2\n      swap1\n      pop\n      jump\t// out\n        /* \"#utility.yul\":12410:12635   */\n    tag_248:\n        /* \"#utility.yul\":12550:12584   */\n      0x4f776e61626c653a206e6577206f776e657220697320746865207a65726f2061\n        /* \"#utility.yul\":12546:12547   */\n      0x00\n        /* \"#utility.yul\":12538:12544   */\n      dup3\n        /* \"#utility.yul\":12534:12548   */\n      add\n        /* \"#utility.yul\":12527:12585   */\n      mstore\n        /* \"#utility.yul\":12619:12627   */\n      0x6464726573730000000000000000000000000000000000000000000000000000\n        /* \"#utility.yul\":12614:12616   */\n      0x20\n        /* \"#utility.yul\":12606:12612   */\n      dup3\n        /* \"#utility.yul\":12602:12617   */\n      add\n        /* \"#utility.yul\":12595:12628   */\n      mstore\n        /* \"#utility.yul\":12410:12635   */\n      pop\n      jump\t// out\n        /* \"#utility.yul\":12641:13007   */\n    tag_249:\n        /* \"#utility.yul\":12783:12786   */\n      0x00\n        /* \"#utility.yul\":12804:12871   */\n      tag_393\n        /* \"#utility.yul\":12868:12870   */\n      0x26\n        /* \"#utility.yul\":12863:12866   */\n      dup4\n        /* \"#utility.yul\":12804:12871   */\n      tag_230\n      jump\t// in\n    tag_393:\n        /* \"#utility.yul\":12797:12871   */\n      swap2\n      pop\n        /* \"#utility.yul\":12880:12973   */\n      tag_394\n        /* \"#utility.yul\":12969:12972   */\n      dup3\n        /* \"#utility.yul\":12880:12973   */\n      tag_248\n      jump\t// in\n    tag_394:\n        /* \"#utility.yul\":12998:13000   */\n      0x40\n        /* \"#utility.yul\":12993:12996   */\n      dup3\n        /* \"#utility.yul\":12989:13001   */\n      add\n        /* \"#utility.yul\":12982:13001   */\n      swap1\n      pop\n        /* \"#utility.yul\":12641:13007   */\n      swap2\n      swap1\n      pop\n      jump\t// out\n        /* \"#utility.yul\":13013:13432   */\n    tag_189:\n        /* \"#utility.yul\":13179:13183   */\n      0x00\n        /* \"#utility.yul\":13217:13219   */\n      0x20\n        /* \"#utility.yul\":13206:13215   */\n      dup3\n        /* \"#utility.yul\":13202:13220   */\n      add\n        /* \"#utility.yul\":13194:13220   */\n      swap1\n      pop\n        /* \"#utility.yul\":13266:13275   */\n      dup2\n        /* \"#utility.yul\":13260:13264   */\n      dup2\n        /* \"#utility.yul\":13256:13276   */\n      sub\n        /* \"#utility.yul\":13252:13253   */\n      0x00\n        /* \"#utility.yul\":13241:13250   */\n      dup4\n        /* \"#utility.yul\":13237:13254   */\n      add\n        /* \"#utility.yul\":13230:13277   */\n      mstore\n        /* \"#utility.yul\":13294:13425   */\n      tag_396\n        /* \"#utility.yul\":13420:13424   */\n      dup2\n        /* \"#utility.yul\":13294:13425   */\n      tag_249\n      jump\t// in\n    tag_396:\n        /* \"#utility.yul\":13286:13425   */\n      swap1\n      pop\n        /* \"#utility.yul\":13013:13432   */\n      swap2\n      swap1\n      pop\n      jump\t// out\n        /* \"#utility.yul\":13438:13675   */\n    tag_250:\n        /* \"#utility.yul\":13578:13612   */\n      0x456c206c697175696469747950726f7669646572206e6f2068612067616e6164\n        /* \"#utility.yul\":13574:13575   */\n      0x00\n        /* \"#utility.yul\":13566:13572   */\n      dup3\n        /* \"#utility.yul\":13562:13576   */\n      add\n        /* \"#utility.yul\":13555:13613   */\n      mstore\n        /* \"#utility.yul\":13647:13667   */\n      0x6f206e696e67756e6120636f6d6973696f6e0000000000000000000000000000\n        /* \"#utility.yul\":13642:13644   */\n      0x20\n        /* \"#utility.yul\":13634:13640   */\n      dup3\n        /* \"#utility.yul\":13630:13645   */\n      add\n        /* \"#utility.yul\":13623:13668   */\n      mstore\n        /* \"#utility.yul\":13438:13675   */\n      pop\n      jump\t// out\n        /* \"#utility.yul\":13681:14047   */\n    tag_251:\n        /* \"#utility.yul\":13823:13826   */\n      0x00\n        /* \"#utility.yul\":13844:13911   */\n      tag_399\n        /* \"#utility.yul\":13908:13910   */\n      0x32\n        /* \"#utility.yul\":13903:13906   */\n      dup4\n        /* \"#utility.yul\":13844:13911   */\n      tag_230\n      jump\t// in\n    tag_399:\n        /* \"#utility.yul\":13837:13911   */\n      swap2\n      pop\n        /* \"#utility.yul\":13920:14013   */\n      tag_400\n        /* \"#utility.yul\":14009:14012   */\n      dup3\n        /* \"#utility.yul\":13920:14013   */\n      tag_250\n      jump\t// in\n    tag_400:\n        /* \"#utility.yul\":14038:14040   */\n      0x40\n        /* \"#utility.yul\":14033:14036   */\n      dup3\n        /* \"#utility.yul\":14029:14041   */\n      add\n        /* \"#utility.yul\":14022:14041   */\n      swap1\n      pop\n        /* \"#utility.yul\":13681:14047   */\n      swap2\n      swap1\n      pop\n      jump\t// out\n        /* \"#utility.yul\":14053:14472   */\n    tag_194:\n        /* \"#utility.yul\":14219:14223   */\n      0x00\n        /* \"#utility.yul\":14257:14259   */\n      0x20\n        /* \"#utility.yul\":14246:14255   */\n      dup3\n        /* \"#utility.yul\":14242:14260   */\n      add\n        /* \"#utility.yul\":14234:14260   */\n      swap1\n      pop\n        /* \"#utility.yul\":14306:14315   */\n      dup2\n        /* \"#utility.yul\":14300:14304   */\n      dup2\n        /* \"#utility.yul\":14296:14316   */\n      sub\n        /* \"#utility.yul\":14292:14293   */\n      0x00\n        /* \"#utility.yul\":14281:14290   */\n      dup4\n        /* \"#utility.yul\":14277:14294   */\n      add\n        /* \"#utility.yul\":14270:14317   */\n      mstore\n        /* \"#utility.yul\":14334:14465   */\n      tag_402\n        /* \"#utility.yul\":14460:14464   */\n      dup2\n        /* \"#utility.yul\":14334:14465   */\n      tag_251\n      jump\t// in\n    tag_402:\n        /* \"#utility.yul\":14326:14465   */\n      swap1\n      pop\n        /* \"#utility.yul\":14053:14472   */\n      swap2\n      swap1\n      pop\n      jump\t// out\n        /* \"#utility.yul\":14478:14658   */\n    tag_252:\n        /* \"#utility.yul\":14526:14603   */\n      0x4e487b7100000000000000000000000000000000000000000000000000000000\n        /* \"#utility.yul\":14523:14524   */\n      0x00\n        /* \"#utility.yul\":14516:14604   */\n      mstore\n        /* \"#utility.yul\":14623:14627   */\n      0x22\n        /* \"#utility.yul\":14620:14621   */\n      0x04\n        /* \"#utility.yul\":14613:14628   */\n      mstore\n        /* \"#utility.yul\":14647:14651   */\n      0x24\n        /* \"#utility.yul\":14644:14645   */\n      0x00\n        /* \"#utility.yul\":14637:14652   */\n      revert\n        /* \"#utility.yul\":14664:14984   */\n    tag_196:\n        /* \"#utility.yul\":14708:14714   */\n      0x00\n        /* \"#utility.yul\":14745:14746   */\n      0x02\n        /* \"#utility.yul\":14739:14743   */\n      dup3\n        /* \"#utility.yul\":14735:14747   */\n      div\n        /* \"#utility.yul\":14725:14747   */\n      swap1\n      pop\n        /* \"#utility.yul\":14792:14793   */\n      0x01\n        /* \"#utility.yul\":14786:14790   */\n      dup3\n        /* \"#utility.yul\":14782:14794   */\n      and\n        /* \"#utility.yul\":14813:14831   */\n      dup1\n        /* \"#utility.yul\":14803:14884   */\n      tag_405\n      jumpi\n        /* \"#utility.yul\":14869:14873   */\n      0x7f\n        /* \"#utility.yul\":14861:14867   */\n      dup3\n        /* \"#utility.yul\":14857:14874   */\n      and\n        /* \"#utility.yul\":14847:14874   */\n      swap2\n      pop\n        /* \"#utility.yul\":14803:14884   */\n    tag_405:\n        /* \"#utility.yul\":14931:14933   */\n      0x20\n        /* \"#utility.yul\":14923:14929   */\n      dup3\n        /* \"#utility.yul\":14920:14934   */\n      lt\n        /* \"#utility.yul\":14900:14918   */\n      dup2\n        /* \"#utility.yul\":14897:14935   */\n      sub\n        /* \"#utility.yul\":14894:14978   */\n      tag_406\n      jumpi\n        /* \"#utility.yul\":14950:14968   */\n      tag_407\n      tag_252\n      jump\t// in\n    tag_407:\n        /* \"#utility.yul\":14894:14978   */\n    tag_406:\n        /* \"#utility.yul\":14715:14984   */\n      pop\n        /* \"#utility.yul\":14664:14984   */\n      swap2\n      swap1\n      pop\n      jump\t// out\n        /* \"#utility.yul\":14990:15172   */\n    tag_253:\n        /* \"#utility.yul\":15130:15164   */\n      0x4f776e61626c653a2063616c6c6572206973206e6f7420746865206f776e6572\n        /* \"#utility.yul\":15126:15127   */\n      0x00\n        /* \"#utility.yul\":15118:15124   */\n      dup3\n        /* \"#utility.yul\":15114:15128   */\n      add\n        /* \"#utility.yul\":15107:15165   */\n      mstore\n        /* \"#utility.yul\":14990:15172   */\n      pop\n      jump\t// out\n        /* \"#utility.yul\":15178:15544   */\n    tag_254:\n        /* \"#utility.yul\":15320:15323   */\n      0x00\n        /* \"#utility.yul\":15341:15408   */\n      tag_410\n        /* \"#utility.yul\":15405:15407   */\n      0x20\n        /* \"#utility.yul\":15400:15403   */\n      dup4\n        /* \"#utility.yul\":15341:15408   */\n      tag_230\n      jump\t// in\n    tag_410:\n        /* \"#utility.yul\":15334:15408   */\n      swap2\n      pop\n        /* \"#utility.yul\":15417:15510   */\n      tag_411\n        /* \"#utility.yul\":15506:15509   */\n      dup3\n        /* \"#utility.yul\":15417:15510   */\n      tag_253\n      jump\t// in\n    tag_411:\n        /* \"#utility.yul\":15535:15537   */\n      0x20\n        /* \"#utility.yul\":15530:15533   */\n      dup3\n        /* \"#utility.yul\":15526:15538   */\n      add\n        /* \"#utility.yul\":15519:15538   */\n      swap1\n      pop\n        /* \"#utility.yul\":15178:15544   */\n      swap2\n      swap1\n      pop\n      jump\t// out\n        /* \"#utility.yul\":15550:15969   */\n    tag_207:\n        /* \"#utility.yul\":15716:15720   */\n      0x00\n        /* \"#utility.yul\":15754:15756   */\n      0x20\n        /* \"#utility.yul\":15743:15752   */\n      dup3\n        /* \"#utility.yul\":15739:15757   */\n      add\n        /* \"#utility.yul\":15731:15757   */\n      swap1\n      pop\n        /* \"#utility.yul\":15803:15812   */\n      dup2\n        /* \"#utility.yul\":15797:15801   */\n      dup2\n        /* \"#utility.yul\":15793:15813   */\n      sub\n        /* \"#utility.yul\":15789:15790   */\n      0x00\n        /* \"#utility.yul\":15778:15787   */\n      dup4\n        /* \"#utility.yul\":15774:15791   */\n      add\n        /* \"#utility.yul\":15767:15814   */\n      mstore\n        /* \"#utility.yul\":15831:15962   */\n      tag_413\n        /* \"#utility.yul\":15957:15961   */\n      dup2\n        /* \"#utility.yul\":15831:15962   */\n      tag_254\n      jump\t// in\n    tag_413:\n        /* \"#utility.yul\":15823:15962   */\n      swap1\n      pop\n        /* \"#utility.yul\":15550:15969   */\n      swap2\n      swap1\n      pop\n      jump\t// out\n\n    auxdata: 0xa26469706673582212203fab2407b23e7ddeb118de8d209b9c2fd3249f8e86c970b771f3f1172842713664736f6c63430008130033\n}\n",
				"bytecode": {
					"linkReferences": {},
					"object": "60806040526000600560006101000a81548173ffffffffffffffffffffffffffffffffffffffff021916908373ffffffffffffffffffffffffffffffffffffffff160217905550600160009054906101000a900473ffffffffffffffffffffffffffffffffffffffff1673ffffffffffffffffffffffffffffffffffffffff166370a08231306040518263ffffffff1660e01b8152600401620000a391906200038f565b602060405180830381865afa158015620000c1573d6000803e3d6000fd5b505050506040513d601f19601f82011682018060405250810190620000e79190620003fb565b600655600260009054906101000a900473ffffffffffffffffffffffffffffffffffffffff1673ffffffffffffffffffffffffffffffffffffffff166370a08231306040518263ffffffff1660e01b81526004016200014791906200038f565b602060405180830381865afa15801562000165573d6000803e3d6000fd5b505050506040513d601f19601f820116820180604052508101906200018b9190620003fb565b6007553480156200019b57600080fd5b506040516200261c3803806200261c8339818101604052810190620001c19190620005dd565b620001e1620001d56200027e60201b60201c565b6200028660201b60201c565b82600160006101000a81548173ffffffffffffffffffffffffffffffffffffffff021916908373ffffffffffffffffffffffffffffffffffffffff16021790555081600260006101000a81548173ffffffffffffffffffffffffffffffffffffffff021916908373ffffffffffffffffffffffffffffffffffffffff160217905550806003908162000274919062000899565b5050505062000980565b600033905090565b60008060009054906101000a900473ffffffffffffffffffffffffffffffffffffffff169050816000806101000a81548173ffffffffffffffffffffffffffffffffffffffff021916908373ffffffffffffffffffffffffffffffffffffffff1602179055508173ffffffffffffffffffffffffffffffffffffffff168173ffffffffffffffffffffffffffffffffffffffff167f8be0079c531659141344cd1fd0a4f28419497f9722a3daafe3b4186f6b6457e060405160405180910390a35050565b600073ffffffffffffffffffffffffffffffffffffffff82169050919050565b600062000377826200034a565b9050919050565b62000389816200036a565b82525050565b6000602082019050620003a660008301846200037e565b92915050565b6000604051905090565b600080fd5b600080fd5b6000819050919050565b620003d581620003c0565b8114620003e157600080fd5b50565b600081519050620003f581620003ca565b92915050565b600060208284031215620004145762000413620003b6565b5b60006200042484828501620003e4565b91505092915050565b62000438816200036a565b81146200044457600080fd5b50565b60008151905062000458816200042d565b92915050565b600080fd5b600080fd5b6000601f19601f8301169050919050565b7f4e487b7100000000000000000000000000000000000000000000000000000000600052604160045260246000fd5b620004b38262000468565b810181811067ffffffffffffffff82111715620004d557620004d462000479565b5b80604052505050565b6000620004ea620003ac565b9050620004f88282620004a8565b919050565b600067ffffffffffffffff8211156200051b576200051a62000479565b5b620005268262000468565b9050602081019050919050565b60005b838110156200055357808201518184015260208101905062000536565b60008484015250505050565b6000620005766200057084620004fd565b620004de565b90508281526020810184848401111562000595576200059462000463565b5b620005a284828562000533565b509392505050565b600082601f830112620005c257620005c16200045e565b5b8151620005d48482602086016200055f565b91505092915050565b600080600060608486031215620005f957620005f8620003b6565b5b6000620006098682870162000447565b93505060206200061c8682870162000447565b925050604084015167ffffffffffffffff81111562000640576200063f620003bb565b5b6200064e86828701620005aa565b9150509250925092565b600081519050919050565b7f4e487b7100000000000000000000000000000000000000000000000000000000600052602260045260246000fd5b60006002820490506001821680620006ab57607f821691505b602082108103620006c157620006c062000663565b5b50919050565b60008190508160005260206000209050919050565b60006020601f8301049050919050565b600082821b905092915050565b6000600883026200072b7fffffffffffffffffffffffffffffffffffffffffffffffffffffffffffffffff82620006ec565b620007378683620006ec565b95508019841693508086168417925050509392505050565b6000819050919050565b60006200077a620007746200076e84620003c0565b6200074f565b620003c0565b9050919050565b6000819050919050565b620007968362000759565b620007ae620007a58262000781565b848454620006f9565b825550505050565b600090565b620007c5620007b6565b620007d28184846200078b565b505050565b5b81811015620007fa57620007ee600082620007bb565b600181019050620007d8565b5050565b601f82111562000849576200081381620006c7565b6200081e84620006dc565b810160208510156200082e578190505b620008466200083d85620006dc565b830182620007d7565b50505b505050565b600082821c905092915050565b60006200086e600019846008026200084e565b1980831691505092915050565b60006200088983836200085b565b9150826002028217905092915050565b620008a48262000658565b67ffffffffffffffff811115620008c057620008bf62000479565b5b620008cc825462000692565b620008d9828285620007fe565b600060209050601f831160018114620009115760008415620008fc578287015190505b6200090885826200087b565b86555062000978565b601f1984166200092186620006c7565b60005b828110156200094b5784890151825560018201915060208501945060208101905062000924565b868310156200096b578489015162000967601f8916826200085b565b8355505b6001600288020188555050505b505050505050565b611c8c80620009906000396000f3fe608060405234801561001057600080fd5b50600436106100ea5760003560e01c806379629b691161008c5780638f325c02116100665780638f325c0214610205578063b3a88f7b1461020f578063f2fde38b14610219578063f963393014610235576100ea565b806379629b69146101ab5780638119c065146101c95780638da5cb5b146101e7576100ea565b80635b8bec55116100c85780635b8bec55146101495780635f64b55b14610167578063715018a61461018557806374a110c21461018f576100ea565b80630fc63d10146100ef57806324731cff1461010d5780635b4246d41461012b575b600080fd5b6100f7610253565b6040516101049190611427565b60405180910390f35b610115610279565b604051610122919061145b565b60405180910390f35b61013361027f565b604051610140919061145b565b60405180910390f35b610151610285565b60405161015e9190611497565b60405180910390f35b61016f6102ab565b60405161017c9190611427565b60405180910390f35b61018d6102d1565b005b6101a960048036038101906101a491906114e3565b6102e5565b005b6101b3610433565b6040516101c0919061145b565b60405180910390f35b6101d1610439565b6040516101de919061153e565b60405180910390f35b6101ef61044c565b6040516101fc9190611497565b60405180910390f35b61020d610475565b005b610217610a99565b005b610233600480360381019061022e9190611585565b6110f3565b005b61023d611176565b60405161024a9190611642565b60405180910390f35b600160009054906101000a900473ffffffffffffffffffffffffffffffffffffffff1681565b60075481565b60045481565b600560009054906101000a900473ffffffffffffffffffffffffffffffffffffffff1681565b600260009054906101000a900473ffffffffffffffffffffffffffffffffffffffff1681565b6102d961125e565b6102e360006112dc565b565b6102ed61125e565b600160009054906101000a900473ffffffffffffffffffffffffffffffffffffffff1673ffffffffffffffffffffffffffffffffffffffff166340c10f1933846040518363ffffffff1660e01b815260040161034a929190611664565b6020604051808303816000875af1158015610369573d6000803e3d6000fd5b505050506040513d601f19601f8201168201806040525081019061038d91906116b9565b50600260009054906101000a900473ffffffffffffffffffffffffffffffffffffffff1673ffffffffffffffffffffffffffffffffffffffff166340c10f1933836040518363ffffffff1660e01b81526004016103eb929190611664565b6020604051808303816000875af115801561040a573d6000803e3d6000fd5b505050506040513d601f19601f8201168201806040525081019061042e91906116b9565b505050565b60065481565b600560149054906101000a900460ff1681565b60008060009054906101000a900473ffffffffffffffffffffffffffffffffffffffff16905090565b600a600160009054906101000a900473ffffffffffffffffffffffffffffffffffffffff1673ffffffffffffffffffffffffffffffffffffffff166370a08231336040518263ffffffff1660e01b81526004016104d29190611497565b602060405180830381865afa1580156104ef573d6000803e3d6000fd5b505050506040513d601f19601f8201168201806040525081019061051391906116fb565b101561051e57600080fd5b6063600160009054906101000a900473ffffffffffffffffffffffffffffffffffffffff1673ffffffffffffffffffffffffffffffffffffffff166370a08231306040518263ffffffff1660e01b815260040161057b9190611497565b602060405180830381865afa158015610598573d6000803e3d6000fd5b505050506040513d601f19601f820116820180604052508101906105bc91906116fb565b116105fc576040517f08c379a00000000000000000000000000000000000000000000000000000000081526004016105f39061179a565b60405180910390fd5b6063600260009054906101000a900473ffffffffffffffffffffffffffffffffffffffff1673ffffffffffffffffffffffffffffffffffffffff166370a08231306040518263ffffffff1660e01b81526004016106599190611497565b602060405180830381865afa158015610676573d6000803e3d6000fd5b505050506040513d601f19601f8201168201806040525081019061069a91906116fb565b116106da576040517f08c379a00000000000000000000000000000000000000000000000000000000081526004016106d19061182c565b60405180910390fd5b600160009054906101000a900473ffffffffffffffffffffffffffffffffffffffff1673ffffffffffffffffffffffffffffffffffffffff166323b872dd3330600a6040518463ffffffff1660e01b815260040161073a93929190611887565b6020604051808303816000875af1158015610759573d6000803e3d6000fd5b505050506040513d601f19601f8201168201806040525081019061077d91906116b9565b506000600160009054906101000a900473ffffffffffffffffffffffffffffffffffffffff1673ffffffffffffffffffffffffffffffffffffffff166370a08231306040518263ffffffff1660e01b81526004016107db9190611497565b602060405180830381865afa1580156107f8573d6000803e3d6000fd5b505050506040513d601f19601f8201168201806040525081019061081c91906116fb565b600454610829919061191c565b9050600081600260009054906101000a900473ffffffffffffffffffffffffffffffffffffffff1673ffffffffffffffffffffffffffffffffffffffff166370a08231306040518263ffffffff1660e01b81526004016108899190611497565b602060405180830381865afa1580156108a6573d6000803e3d6000fd5b505050506040513d601f19601f820116820180604052508101906108ca91906116fb565b6108d4919061194d565b90506000600a6009836108e79190611981565b6108f1919061191c565b90506000600a6001846109049190611981565b61090e919061191c565b9050600260009054906101000a900473ffffffffffffffffffffffffffffffffffffffff1673ffffffffffffffffffffffffffffffffffffffff166323b872dd3033856040518463ffffffff1660e01b815260040161096f939291906119c3565b6020604051808303816000875af115801561098e573d6000803e3d6000fd5b505050506040513d601f19601f820116820180604052508101906109b291906116b9565b50600260009054906101000a900473ffffffffffffffffffffffffffffffffffffffff1673ffffffffffffffffffffffffffffffffffffffff166323b872dd30600560009054906101000a900473ffffffffffffffffffffffffffffffffffffffff16846040518463ffffffff1660e01b8152600401610a34939291906119c3565b6020604051808303816000875af1158015610a53573d6000803e3d6000fd5b505050506040513d601f19601f82011682018060405250810190610a7791906116b9565b506001600560146101000a81548160ff02191690831515021790555050505050565b600a600260009054906101000a900473ffffffffffffffffffffffffffffffffffffffff1673ffffffffffffffffffffffffffffffffffffffff166370a08231336040518263ffffffff1660e01b8152600401610af69190611497565b602060405180830381865afa158015610b13573d6000803e3d6000fd5b505050506040513d601f19601f82011682018060405250810190610b3791906116fb565b1015610b78576040517f08c379a0000000000000000000000000000000000000000000000000000000008152600401610b6f90611a46565b60405180910390fd5b6063600260009054906101000a900473ffffffffffffffffffffffffffffffffffffffff1673ffffffffffffffffffffffffffffffffffffffff166370a08231306040518263ffffffff1660e01b8152600401610bd59190611497565b602060405180830381865afa158015610bf2573d6000803e3d6000fd5b505050506040513d601f19601f82011682018060405250810190610c1691906116fb565b11610c56576040517f08c379a0000000000000000000000000000000000000000000000000000000008152600401610c4d9061182c565b60405180910390fd5b6063600160009054906101000a900473ffffffffffffffffffffffffffffffffffffffff1673ffffffffffffffffffffffffffffffffffffffff166370a08231306040518263ffffffff1660e01b8152600401610cb39190611497565b602060405180830381865afa158015610cd0573d6000803e3d6000fd5b505050506040513d601f19601f82011682018060405250810190610cf491906116fb565b11610d34576040517f08c379a0000000000000000000000000000000000000000000000000000000008152600401610d2b9061179a565b60405180910390fd5b600260009054906101000a900473ffffffffffffffffffffffffffffffffffffffff1673ffffffffffffffffffffffffffffffffffffffff166323b872dd3330600a6040518463ffffffff1660e01b8152600401610d9493929190611887565b6020604051808303816000875af1158015610db3573d6000803e3d6000fd5b505050506040513d601f19601f82011682018060405250810190610dd791906116b9565b506000600260009054906101000a900473ffffffffffffffffffffffffffffffffffffffff1673ffffffffffffffffffffffffffffffffffffffff166370a08231306040518263ffffffff1660e01b8152600401610e359190611497565b602060405180830381865afa158015610e52573d6000803e3d6000fd5b505050506040513d601f19601f82011682018060405250810190610e7691906116fb565b600454610e83919061191c565b9050600081600160009054906101000a900473ffffffffffffffffffffffffffffffffffffffff1673ffffffffffffffffffffffffffffffffffffffff166370a08231306040518263ffffffff1660e01b8152600401610ee39190611497565b602060405180830381865afa158015610f00573d6000803e3d6000fd5b505050506040513d601f19601f82011682018060405250810190610f2491906116fb565b610f2e919061194d565b90506000600a600983610f419190611981565b610f4b919061191c565b90506000600a600184610f5e9190611981565b610f68919061191c565b9050600160009054906101000a900473ffffffffffffffffffffffffffffffffffffffff1673ffffffffffffffffffffffffffffffffffffffff166323b872dd3033856040518463ffffffff1660e01b8152600401610fc9939291906119c3565b6020604051808303816000875af1158015610fe8573d6000803e3d6000fd5b505050506040513d601f19601f8201168201806040525081019061100c91906116b9565b50600160009054906101000a900473ffffffffffffffffffffffffffffffffffffffff1673ffffffffffffffffffffffffffffffffffffffff166323b872dd30600560009054906101000a900473ffffffffffffffffffffffffffffffffffffffff16846040518463ffffffff1660e01b815260040161108e939291906119c3565b6020604051808303816000875af11580156110ad573d6000803e3d6000fd5b505050506040513d601f19601f820116820180604052508101906110d191906116b9565b506001600560146101000a81548160ff02191690831515021790555050505050565b6110fb61125e565b600073ffffffffffffffffffffffffffffffffffffffff168173ffffffffffffffffffffffffffffffffffffffff160361116a576040517f08c379a000000000000000000000000000000000000000000000000000000000815260040161116190611ad8565b60405180910390fd5b611173816112dc565b50565b606060011515600560149054906101000a900460ff161515146111ce576040517f08c379a00000000000000000000000000000000000000000000000000000000081526004016111c590611b6a565b60405180910390fd5b600380546111db90611bb9565b80601f016020809104026020016040519081016040528092919081815260200182805461120790611bb9565b80156112545780601f1061122957610100808354040283529160200191611254565b820191906000526020600020905b81548152906001019060200180831161123757829003601f168201915b5050505050905090565b6112666113a0565b73ffffffffffffffffffffffffffffffffffffffff1661128461044c565b73ffffffffffffffffffffffffffffffffffffffff16146112da576040517f08c379a00000000000000000000000000000000000000000000000000000000081526004016112d190611c36565b60405180910390fd5b565b60008060009054906101000a900473ffffffffffffffffffffffffffffffffffffffff169050816000806101000a81548173ffffffffffffffffffffffffffffffffffffffff021916908373ffffffffffffffffffffffffffffffffffffffff1602179055508173ffffffffffffffffffffffffffffffffffffffff168173ffffffffffffffffffffffffffffffffffffffff167f8be0079c531659141344cd1fd0a4f28419497f9722a3daafe3b4186f6b6457e060405160405180910390a35050565b600033905090565b600073ffffffffffffffffffffffffffffffffffffffff82169050919050565b6000819050919050565b60006113ed6113e86113e3846113a8565b6113c8565b6113a8565b9050919050565b60006113ff826113d2565b9050919050565b6000611411826113f4565b9050919050565b61142181611406565b82525050565b600060208201905061143c6000830184611418565b92915050565b6000819050919050565b61145581611442565b82525050565b6000602082019050611470600083018461144c565b92915050565b6000611481826113a8565b9050919050565b61149181611476565b82525050565b60006020820190506114ac6000830184611488565b92915050565b600080fd5b6114c081611442565b81146114cb57600080fd5b50565b6000813590506114dd816114b7565b92915050565b600080604083850312156114fa576114f96114b2565b5b6000611508858286016114ce565b9250506020611519858286016114ce565b9150509250929050565b60008115159050919050565b61153881611523565b82525050565b6000602082019050611553600083018461152f565b92915050565b61156281611476565b811461156d57600080fd5b50565b60008135905061157f81611559565b92915050565b60006020828403121561159b5761159a6114b2565b5b60006115a984828501611570565b91505092915050565b600081519050919050565b600082825260208201905092915050565b60005b838110156115ec5780820151818401526020810190506115d1565b60008484015250505050565b6000601f19601f8301169050919050565b6000611614826115b2565b61161e81856115bd565b935061162e8185602086016115ce565b611637816115f8565b840191505092915050565b6000602082019050818103600083015261165c8184611609565b905092915050565b60006040820190506116796000830185611488565b611686602083018461144c565b9392505050565b61169681611523565b81146116a157600080fd5b50565b6000815190506116b38161168d565b92915050565b6000602082840312156116cf576116ce6114b2565b5b60006116dd848285016116a4565b91505092915050565b6000815190506116f5816114b7565b92915050565b600060208284031215611711576117106114b2565b5b600061171f848285016116e6565b91505092915050565b7f496e73756666696369656e7420746f6b656e412062616c616e636520696e207460008201527f686520636f6e7472616374000000000000000000000000000000000000000000602082015250565b6000611784602b836115bd565b915061178f82611728565b604082019050919050565b600060208201905081810360008301526117b381611777565b9050919050565b7f496e73756666696369656e7420746f6b656e422062616c616e636520696e207460008201527f686520636f6e7472616374000000000000000000000000000000000000000000602082015250565b6000611816602b836115bd565b9150611821826117ba565b604082019050919050565b6000602082019050818103600083015261184581611809565b9050919050565b6000819050919050565b600061187161186c6118678461184c565b6113c8565b611442565b9050919050565b61188181611856565b82525050565b600060608201905061189c6000830186611488565b6118a96020830185611488565b6118b66040830184611878565b949350505050565b7f4e487b7100000000000000000000000000000000000000000000000000000000600052601260045260246000fd5b7f4e487b7100000000000000000000000000000000000000000000000000000000600052601160045260246000fd5b600061192782611442565b915061193283611442565b925082611942576119416118be565b5b828204905092915050565b600061195882611442565b915061196383611442565b925082820390508181111561197b5761197a6118ed565b5b92915050565b600061198c82611442565b915061199783611442565b92508282026119a581611442565b915082820484148315176119bc576119bb6118ed565b5b5092915050565b60006060820190506119d86000830186611488565b6119e56020830185611488565b6119f2604083018461144c565b949350505050565b7f496e73756666696369656e7420746f6b656e422062616c616e63650000000000600082015250565b6000611a30601b836115bd565b9150611a3b826119fa565b602082019050919050565b60006020820190508181036000830152611a5f81611a23565b9050919050565b7f4f776e61626c653a206e6577206f776e657220697320746865207a65726f206160008201527f6464726573730000000000000000000000000000000000000000000000000000602082015250565b6000611ac26026836115bd565b9150611acd82611a66565b604082019050919050565b60006020820190508181036000830152611af181611ab5565b9050919050565b7f456c206c697175696469747950726f7669646572206e6f2068612067616e616460008201527f6f206e696e67756e6120636f6d6973696f6e0000000000000000000000000000602082015250565b6000611b546032836115bd565b9150611b5f82611af8565b604082019050919050565b60006020820190508181036000830152611b8381611b47565b9050919050565b7f4e487b7100000000000000000000000000000000000000000000000000000000600052602260045260246000fd5b60006002820490506001821680611bd157607f821691505b602082108103611be457611be3611b8a565b5b50919050565b7f4f776e61626c653a2063616c6c6572206973206e6f7420746865206f776e6572600082015250565b6000611c206020836115bd565b9150611c2b82611bea565b602082019050919050565b60006020820190508181036000830152611c4f81611c13565b905091905056fea26469706673582212203fab2407b23e7ddeb118de8d209b9c2fd3249f8e86c970b771f3f1172842713664736f6c63430008130033",
					"opcodes": "PUSH1 0x80 PUSH1 0x40 MSTORE PUSH1 0x0 PUSH1 0x5 PUSH1 0x0 PUSH2 0x100 EXP DUP2 SLOAD DUP2 PUSH20 0xFFFFFFFFFFFFFFFFFFFFFFFFFFFFFFFFFFFFFFFF MUL NOT AND SWAP1 DUP4 PUSH20 0xFFFFFFFFFFFFFFFFFFFFFFFFFFFFFFFFFFFFFFFF AND MUL OR SWAP1 SSTORE POP PUSH1 0x1 PUSH1 0x0 SWAP1 SLOAD SWAP1 PUSH2 0x100 EXP SWAP1 DIV PUSH20 0xFFFFFFFFFFFFFFFFFFFFFFFFFFFFFFFFFFFFFFFF AND PUSH20 0xFFFFFFFFFFFFFFFFFFFFFFFFFFFFFFFFFFFFFFFF AND PUSH4 0x70A08231 ADDRESS PUSH1 0x40 MLOAD DUP3 PUSH4 0xFFFFFFFF AND PUSH1 0xE0 SHL DUP2 MSTORE PUSH1 0x4 ADD PUSH3 0xA3 SWAP2 SWAP1 PUSH3 0x38F JUMP JUMPDEST PUSH1 0x20 PUSH1 0x40 MLOAD DUP1 DUP4 SUB DUP2 DUP7 GAS STATICCALL ISZERO DUP1 ISZERO PUSH3 0xC1 JUMPI RETURNDATASIZE PUSH1 0x0 DUP1 RETURNDATACOPY RETURNDATASIZE PUSH1 0x0 REVERT JUMPDEST POP POP POP POP PUSH1 0x40 MLOAD RETURNDATASIZE PUSH1 0x1F NOT PUSH1 0x1F DUP3 ADD AND DUP3 ADD DUP1 PUSH1 0x40 MSTORE POP DUP2 ADD SWAP1 PUSH3 0xE7 SWAP2 SWAP1 PUSH3 0x3FB JUMP JUMPDEST PUSH1 0x6 SSTORE PUSH1 0x2 PUSH1 0x0 SWAP1 SLOAD SWAP1 PUSH2 0x100 EXP SWAP1 DIV PUSH20 0xFFFFFFFFFFFFFFFFFFFFFFFFFFFFFFFFFFFFFFFF AND PUSH20 0xFFFFFFFFFFFFFFFFFFFFFFFFFFFFFFFFFFFFFFFF AND PUSH4 0x70A08231 ADDRESS PUSH1 0x40 MLOAD DUP3 PUSH4 0xFFFFFFFF AND PUSH1 0xE0 SHL DUP2 MSTORE PUSH1 0x4 ADD PUSH3 0x147 SWAP2 SWAP1 PUSH3 0x38F JUMP JUMPDEST PUSH1 0x20 PUSH1 0x40 MLOAD DUP1 DUP4 SUB DUP2 DUP7 GAS STATICCALL ISZERO DUP1 ISZERO PUSH3 0x165 JUMPI RETURNDATASIZE PUSH1 0x0 DUP1 RETURNDATACOPY RETURNDATASIZE PUSH1 0x0 REVERT JUMPDEST POP POP POP POP PUSH1 0x40 MLOAD RETURNDATASIZE PUSH1 0x1F NOT PUSH1 0x1F DUP3 ADD AND DUP3 ADD DUP1 PUSH1 0x40 MSTORE POP DUP2 ADD SWAP1 PUSH3 0x18B SWAP2 SWAP1 PUSH3 0x3FB JUMP JUMPDEST PUSH1 0x7 SSTORE CALLVALUE DUP1 ISZERO PUSH3 0x19B JUMPI PUSH1 0x0 DUP1 REVERT JUMPDEST POP PUSH1 0x40 MLOAD PUSH3 0x261C CODESIZE SUB DUP1 PUSH3 0x261C DUP4 CODECOPY DUP2 DUP2 ADD PUSH1 0x40 MSTORE DUP2 ADD SWAP1 PUSH3 0x1C1 SWAP2 SWAP1 PUSH3 0x5DD JUMP JUMPDEST PUSH3 0x1E1 PUSH3 0x1D5 PUSH3 0x27E PUSH1 0x20 SHL PUSH1 0x20 SHR JUMP JUMPDEST PUSH3 0x286 PUSH1 0x20 SHL PUSH1 0x20 SHR JUMP JUMPDEST DUP3 PUSH1 0x1 PUSH1 0x0 PUSH2 0x100 EXP DUP2 SLOAD DUP2 PUSH20 0xFFFFFFFFFFFFFFFFFFFFFFFFFFFFFFFFFFFFFFFF MUL NOT AND SWAP1 DUP4 PUSH20 0xFFFFFFFFFFFFFFFFFFFFFFFFFFFFFFFFFFFFFFFF AND MUL OR SWAP1 SSTORE POP DUP2 PUSH1 0x2 PUSH1 0x0 PUSH2 0x100 EXP DUP2 SLOAD DUP2 PUSH20 0xFFFFFFFFFFFFFFFFFFFFFFFFFFFFFFFFFFFFFFFF MUL NOT AND SWAP1 DUP4 PUSH20 0xFFFFFFFFFFFFFFFFFFFFFFFFFFFFFFFFFFFFFFFF AND MUL OR SWAP1 SSTORE POP DUP1 PUSH1 0x3 SWAP1 DUP2 PUSH3 0x274 SWAP2 SWAP1 PUSH3 0x899 JUMP JUMPDEST POP POP POP POP PUSH3 0x980 JUMP JUMPDEST PUSH1 0x0 CALLER SWAP1 POP SWAP1 JUMP JUMPDEST PUSH1 0x0 DUP1 PUSH1 0x0 SWAP1 SLOAD SWAP1 PUSH2 0x100 EXP SWAP1 DIV PUSH20 0xFFFFFFFFFFFFFFFFFFFFFFFFFFFFFFFFFFFFFFFF AND SWAP1 POP DUP2 PUSH1 0x0 DUP1 PUSH2 0x100 EXP DUP2 SLOAD DUP2 PUSH20 0xFFFFFFFFFFFFFFFFFFFFFFFFFFFFFFFFFFFFFFFF MUL NOT AND SWAP1 DUP4 PUSH20 0xFFFFFFFFFFFFFFFFFFFFFFFFFFFFFFFFFFFFFFFF AND MUL OR SWAP1 SSTORE POP DUP2 PUSH20 0xFFFFFFFFFFFFFFFFFFFFFFFFFFFFFFFFFFFFFFFF AND DUP2 PUSH20 0xFFFFFFFFFFFFFFFFFFFFFFFFFFFFFFFFFFFFFFFF AND PUSH32 0x8BE0079C531659141344CD1FD0A4F28419497F9722A3DAAFE3B4186F6B6457E0 PUSH1 0x40 MLOAD PUSH1 0x40 MLOAD DUP1 SWAP2 SUB SWAP1 LOG3 POP POP JUMP JUMPDEST PUSH1 0x0 PUSH20 0xFFFFFFFFFFFFFFFFFFFFFFFFFFFFFFFFFFFFFFFF DUP3 AND SWAP1 POP SWAP2 SWAP1 POP JUMP JUMPDEST PUSH1 0x0 PUSH3 0x377 DUP3 PUSH3 0x34A JUMP JUMPDEST SWAP1 POP SWAP2 SWAP1 POP JUMP JUMPDEST PUSH3 0x389 DUP2 PUSH3 0x36A JUMP JUMPDEST DUP3 MSTORE POP POP JUMP JUMPDEST PUSH1 0x0 PUSH1 0x20 DUP3 ADD SWAP1 POP PUSH3 0x3A6 PUSH1 0x0 DUP4 ADD DUP5 PUSH3 0x37E JUMP JUMPDEST SWAP3 SWAP2 POP POP JUMP JUMPDEST PUSH1 0x0 PUSH1 0x40 MLOAD SWAP1 POP SWAP1 JUMP JUMPDEST PUSH1 0x0 DUP1 REVERT JUMPDEST PUSH1 0x0 DUP1 REVERT JUMPDEST PUSH1 0x0 DUP2 SWAP1 POP SWAP2 SWAP1 POP JUMP JUMPDEST PUSH3 0x3D5 DUP2 PUSH3 0x3C0 JUMP JUMPDEST DUP2 EQ PUSH3 0x3E1 JUMPI PUSH1 0x0 DUP1 REVERT JUMPDEST POP JUMP JUMPDEST PUSH1 0x0 DUP2 MLOAD SWAP1 POP PUSH3 0x3F5 DUP2 PUSH3 0x3CA JUMP JUMPDEST SWAP3 SWAP2 POP POP JUMP JUMPDEST PUSH1 0x0 PUSH1 0x20 DUP3 DUP5 SUB SLT ISZERO PUSH3 0x414 JUMPI PUSH3 0x413 PUSH3 0x3B6 JUMP JUMPDEST JUMPDEST PUSH1 0x0 PUSH3 0x424 DUP5 DUP3 DUP6 ADD PUSH3 0x3E4 JUMP JUMPDEST SWAP2 POP POP SWAP3 SWAP2 POP POP JUMP JUMPDEST PUSH3 0x438 DUP2 PUSH3 0x36A JUMP JUMPDEST DUP2 EQ PUSH3 0x444 JUMPI PUSH1 0x0 DUP1 REVERT JUMPDEST POP JUMP JUMPDEST PUSH1 0x0 DUP2 MLOAD SWAP1 POP PUSH3 0x458 DUP2 PUSH3 0x42D JUMP JUMPDEST SWAP3 SWAP2 POP POP JUMP JUMPDEST PUSH1 0x0 DUP1 REVERT JUMPDEST PUSH1 0x0 DUP1 REVERT JUMPDEST PUSH1 0x0 PUSH1 0x1F NOT PUSH1 0x1F DUP4 ADD AND SWAP1 POP SWAP2 SWAP1 POP JUMP JUMPDEST PUSH32 0x4E487B7100000000000000000000000000000000000000000000000000000000 PUSH1 0x0 MSTORE PUSH1 0x41 PUSH1 0x4 MSTORE PUSH1 0x24 PUSH1 0x0 REVERT JUMPDEST PUSH3 0x4B3 DUP3 PUSH3 0x468 JUMP JUMPDEST DUP2 ADD DUP2 DUP2 LT PUSH8 0xFFFFFFFFFFFFFFFF DUP3 GT OR ISZERO PUSH3 0x4D5 JUMPI PUSH3 0x4D4 PUSH3 0x479 JUMP JUMPDEST JUMPDEST DUP1 PUSH1 0x40 MSTORE POP POP POP JUMP JUMPDEST PUSH1 0x0 PUSH3 0x4EA PUSH3 0x3AC JUMP JUMPDEST SWAP1 POP PUSH3 0x4F8 DUP3 DUP3 PUSH3 0x4A8 JUMP JUMPDEST SWAP2 SWAP1 POP JUMP JUMPDEST PUSH1 0x0 PUSH8 0xFFFFFFFFFFFFFFFF DUP3 GT ISZERO PUSH3 0x51B JUMPI PUSH3 0x51A PUSH3 0x479 JUMP JUMPDEST JUMPDEST PUSH3 0x526 DUP3 PUSH3 0x468 JUMP JUMPDEST SWAP1 POP PUSH1 0x20 DUP2 ADD SWAP1 POP SWAP2 SWAP1 POP JUMP JUMPDEST PUSH1 0x0 JUMPDEST DUP4 DUP2 LT ISZERO PUSH3 0x553 JUMPI DUP1 DUP3 ADD MLOAD DUP2 DUP5 ADD MSTORE PUSH1 0x20 DUP2 ADD SWAP1 POP PUSH3 0x536 JUMP JUMPDEST PUSH1 0x0 DUP5 DUP5 ADD MSTORE POP POP POP POP JUMP JUMPDEST PUSH1 0x0 PUSH3 0x576 PUSH3 0x570 DUP5 PUSH3 0x4FD JUMP JUMPDEST PUSH3 0x4DE JUMP JUMPDEST SWAP1 POP DUP3 DUP2 MSTORE PUSH1 0x20 DUP2 ADD DUP5 DUP5 DUP5 ADD GT ISZERO PUSH3 0x595 JUMPI PUSH3 0x594 PUSH3 0x463 JUMP JUMPDEST JUMPDEST PUSH3 0x5A2 DUP5 DUP3 DUP6 PUSH3 0x533 JUMP JUMPDEST POP SWAP4 SWAP3 POP POP POP JUMP JUMPDEST PUSH1 0x0 DUP3 PUSH1 0x1F DUP4 ADD SLT PUSH3 0x5C2 JUMPI PUSH3 0x5C1 PUSH3 0x45E JUMP JUMPDEST JUMPDEST DUP2 MLOAD PUSH3 0x5D4 DUP5 DUP3 PUSH1 0x20 DUP7 ADD PUSH3 0x55F JUMP JUMPDEST SWAP2 POP POP SWAP3 SWAP2 POP POP JUMP JUMPDEST PUSH1 0x0 DUP1 PUSH1 0x0 PUSH1 0x60 DUP5 DUP7 SUB SLT ISZERO PUSH3 0x5F9 JUMPI PUSH3 0x5F8 PUSH3 0x3B6 JUMP JUMPDEST JUMPDEST PUSH1 0x0 PUSH3 0x609 DUP7 DUP3 DUP8 ADD PUSH3 0x447 JUMP JUMPDEST SWAP4 POP POP PUSH1 0x20 PUSH3 0x61C DUP7 DUP3 DUP8 ADD PUSH3 0x447 JUMP JUMPDEST SWAP3 POP POP PUSH1 0x40 DUP5 ADD MLOAD PUSH8 0xFFFFFFFFFFFFFFFF DUP2 GT ISZERO PUSH3 0x640 JUMPI PUSH3 0x63F PUSH3 0x3BB JUMP JUMPDEST JUMPDEST PUSH3 0x64E DUP7 DUP3 DUP8 ADD PUSH3 0x5AA JUMP JUMPDEST SWAP2 POP POP SWAP3 POP SWAP3 POP SWAP3 JUMP JUMPDEST PUSH1 0x0 DUP2 MLOAD SWAP1 POP SWAP2 SWAP1 POP JUMP JUMPDEST PUSH32 0x4E487B7100000000000000000000000000000000000000000000000000000000 PUSH1 0x0 MSTORE PUSH1 0x22 PUSH1 0x4 MSTORE PUSH1 0x24 PUSH1 0x0 REVERT JUMPDEST PUSH1 0x0 PUSH1 0x2 DUP3 DIV SWAP1 POP PUSH1 0x1 DUP3 AND DUP1 PUSH3 0x6AB JUMPI PUSH1 0x7F DUP3 AND SWAP2 POP JUMPDEST PUSH1 0x20 DUP3 LT DUP2 SUB PUSH3 0x6C1 JUMPI PUSH3 0x6C0 PUSH3 0x663 JUMP JUMPDEST JUMPDEST POP SWAP2 SWAP1 POP JUMP JUMPDEST PUSH1 0x0 DUP2 SWAP1 POP DUP2 PUSH1 0x0 MSTORE PUSH1 0x20 PUSH1 0x0 KECCAK256 SWAP1 POP SWAP2 SWAP1 POP JUMP JUMPDEST PUSH1 0x0 PUSH1 0x20 PUSH1 0x1F DUP4 ADD DIV SWAP1 POP SWAP2 SWAP1 POP JUMP JUMPDEST PUSH1 0x0 DUP3 DUP3 SHL SWAP1 POP SWAP3 SWAP2 POP POP JUMP JUMPDEST PUSH1 0x0 PUSH1 0x8 DUP4 MUL PUSH3 0x72B PUSH32 0xFFFFFFFFFFFFFFFFFFFFFFFFFFFFFFFFFFFFFFFFFFFFFFFFFFFFFFFFFFFFFFFF DUP3 PUSH3 0x6EC JUMP JUMPDEST PUSH3 0x737 DUP7 DUP4 PUSH3 0x6EC JUMP JUMPDEST SWAP6 POP DUP1 NOT DUP5 AND SWAP4 POP DUP1 DUP7 AND DUP5 OR SWAP3 POP POP POP SWAP4 SWAP3 POP POP POP JUMP JUMPDEST PUSH1 0x0 DUP2 SWAP1 POP SWAP2 SWAP1 POP JUMP JUMPDEST PUSH1 0x0 PUSH3 0x77A PUSH3 0x774 PUSH3 0x76E DUP5 PUSH3 0x3C0 JUMP JUMPDEST PUSH3 0x74F JUMP JUMPDEST PUSH3 0x3C0 JUMP JUMPDEST SWAP1 POP SWAP2 SWAP1 POP JUMP JUMPDEST PUSH1 0x0 DUP2 SWAP1 POP SWAP2 SWAP1 POP JUMP JUMPDEST PUSH3 0x796 DUP4 PUSH3 0x759 JUMP JUMPDEST PUSH3 0x7AE PUSH3 0x7A5 DUP3 PUSH3 0x781 JUMP JUMPDEST DUP5 DUP5 SLOAD PUSH3 0x6F9 JUMP JUMPDEST DUP3 SSTORE POP POP POP POP JUMP JUMPDEST PUSH1 0x0 SWAP1 JUMP JUMPDEST PUSH3 0x7C5 PUSH3 0x7B6 JUMP JUMPDEST PUSH3 0x7D2 DUP2 DUP5 DUP5 PUSH3 0x78B JUMP JUMPDEST POP POP POP JUMP JUMPDEST JUMPDEST DUP2 DUP2 LT ISZERO PUSH3 0x7FA JUMPI PUSH3 0x7EE PUSH1 0x0 DUP3 PUSH3 0x7BB JUMP JUMPDEST PUSH1 0x1 DUP2 ADD SWAP1 POP PUSH3 0x7D8 JUMP JUMPDEST POP POP JUMP JUMPDEST PUSH1 0x1F DUP3 GT ISZERO PUSH3 0x849 JUMPI PUSH3 0x813 DUP2 PUSH3 0x6C7 JUMP JUMPDEST PUSH3 0x81E DUP5 PUSH3 0x6DC JUMP JUMPDEST DUP2 ADD PUSH1 0x20 DUP6 LT ISZERO PUSH3 0x82E JUMPI DUP2 SWAP1 POP JUMPDEST PUSH3 0x846 PUSH3 0x83D DUP6 PUSH3 0x6DC JUMP JUMPDEST DUP4 ADD DUP3 PUSH3 0x7D7 JUMP JUMPDEST POP POP JUMPDEST POP POP POP JUMP JUMPDEST PUSH1 0x0 DUP3 DUP3 SHR SWAP1 POP SWAP3 SWAP2 POP POP JUMP JUMPDEST PUSH1 0x0 PUSH3 0x86E PUSH1 0x0 NOT DUP5 PUSH1 0x8 MUL PUSH3 0x84E JUMP JUMPDEST NOT DUP1 DUP4 AND SWAP2 POP POP SWAP3 SWAP2 POP POP JUMP JUMPDEST PUSH1 0x0 PUSH3 0x889 DUP4 DUP4 PUSH3 0x85B JUMP JUMPDEST SWAP2 POP DUP3 PUSH1 0x2 MUL DUP3 OR SWAP1 POP SWAP3 SWAP2 POP POP JUMP JUMPDEST PUSH3 0x8A4 DUP3 PUSH3 0x658 JUMP JUMPDEST PUSH8 0xFFFFFFFFFFFFFFFF DUP2 GT ISZERO PUSH3 0x8C0 JUMPI PUSH3 0x8BF PUSH3 0x479 JUMP JUMPDEST JUMPDEST PUSH3 0x8CC DUP3 SLOAD PUSH3 0x692 JUMP JUMPDEST PUSH3 0x8D9 DUP3 DUP3 DUP6 PUSH3 0x7FE JUMP JUMPDEST PUSH1 0x0 PUSH1 0x20 SWAP1 POP PUSH1 0x1F DUP4 GT PUSH1 0x1 DUP2 EQ PUSH3 0x911 JUMPI PUSH1 0x0 DUP5 ISZERO PUSH3 0x8FC JUMPI DUP3 DUP8 ADD MLOAD SWAP1 POP JUMPDEST PUSH3 0x908 DUP6 DUP3 PUSH3 0x87B JUMP JUMPDEST DUP7 SSTORE POP PUSH3 0x978 JUMP JUMPDEST PUSH1 0x1F NOT DUP5 AND PUSH3 0x921 DUP7 PUSH3 0x6C7 JUMP JUMPDEST PUSH1 0x0 JUMPDEST DUP3 DUP2 LT ISZERO PUSH3 0x94B JUMPI DUP5 DUP10 ADD MLOAD DUP3 SSTORE PUSH1 0x1 DUP3 ADD SWAP2 POP PUSH1 0x20 DUP6 ADD SWAP5 POP PUSH1 0x20 DUP2 ADD SWAP1 POP PUSH3 0x924 JUMP JUMPDEST DUP7 DUP4 LT ISZERO PUSH3 0x96B JUMPI DUP5 DUP10 ADD MLOAD PUSH3 0x967 PUSH1 0x1F DUP10 AND DUP3 PUSH3 0x85B JUMP JUMPDEST DUP4 SSTORE POP JUMPDEST PUSH1 0x1 PUSH1 0x2 DUP9 MUL ADD DUP9 SSTORE POP POP POP JUMPDEST POP POP POP POP POP POP JUMP JUMPDEST PUSH2 0x1C8C DUP1 PUSH3 0x990 PUSH1 0x0 CODECOPY PUSH1 0x0 RETURN INVALID PUSH1 0x80 PUSH1 0x40 MSTORE CALLVALUE DUP1 ISZERO PUSH2 0x10 JUMPI PUSH1 0x0 DUP1 REVERT JUMPDEST POP PUSH1 0x4 CALLDATASIZE LT PUSH2 0xEA JUMPI PUSH1 0x0 CALLDATALOAD PUSH1 0xE0 SHR DUP1 PUSH4 0x79629B69 GT PUSH2 0x8C JUMPI DUP1 PUSH4 0x8F325C02 GT PUSH2 0x66 JUMPI DUP1 PUSH4 0x8F325C02 EQ PUSH2 0x205 JUMPI DUP1 PUSH4 0xB3A88F7B EQ PUSH2 0x20F JUMPI DUP1 PUSH4 0xF2FDE38B EQ PUSH2 0x219 JUMPI DUP1 PUSH4 0xF9633930 EQ PUSH2 0x235 JUMPI PUSH2 0xEA JUMP JUMPDEST DUP1 PUSH4 0x79629B69 EQ PUSH2 0x1AB JUMPI DUP1 PUSH4 0x8119C065 EQ PUSH2 0x1C9 JUMPI DUP1 PUSH4 0x8DA5CB5B EQ PUSH2 0x1E7 JUMPI PUSH2 0xEA JUMP JUMPDEST DUP1 PUSH4 0x5B8BEC55 GT PUSH2 0xC8 JUMPI DUP1 PUSH4 0x5B8BEC55 EQ PUSH2 0x149 JUMPI DUP1 PUSH4 0x5F64B55B EQ PUSH2 0x167 JUMPI DUP1 PUSH4 0x715018A6 EQ PUSH2 0x185 JUMPI DUP1 PUSH4 0x74A110C2 EQ PUSH2 0x18F JUMPI PUSH2 0xEA JUMP JUMPDEST DUP1 PUSH4 0xFC63D10 EQ PUSH2 0xEF JUMPI DUP1 PUSH4 0x24731CFF EQ PUSH2 0x10D JUMPI DUP1 PUSH4 0x5B4246D4 EQ PUSH2 0x12B JUMPI JUMPDEST PUSH1 0x0 DUP1 REVERT JUMPDEST PUSH2 0xF7 PUSH2 0x253 JUMP JUMPDEST PUSH1 0x40 MLOAD PUSH2 0x104 SWAP2 SWAP1 PUSH2 0x1427 JUMP JUMPDEST PUSH1 0x40 MLOAD DUP1 SWAP2 SUB SWAP1 RETURN JUMPDEST PUSH2 0x115 PUSH2 0x279 JUMP JUMPDEST PUSH1 0x40 MLOAD PUSH2 0x122 SWAP2 SWAP1 PUSH2 0x145B JUMP JUMPDEST PUSH1 0x40 MLOAD DUP1 SWAP2 SUB SWAP1 RETURN JUMPDEST PUSH2 0x133 PUSH2 0x27F JUMP JUMPDEST PUSH1 0x40 MLOAD PUSH2 0x140 SWAP2 SWAP1 PUSH2 0x145B JUMP JUMPDEST PUSH1 0x40 MLOAD DUP1 SWAP2 SUB SWAP1 RETURN JUMPDEST PUSH2 0x151 PUSH2 0x285 JUMP JUMPDEST PUSH1 0x40 MLOAD PUSH2 0x15E SWAP2 SWAP1 PUSH2 0x1497 JUMP JUMPDEST PUSH1 0x40 MLOAD DUP1 SWAP2 SUB SWAP1 RETURN JUMPDEST PUSH2 0x16F PUSH2 0x2AB JUMP JUMPDEST PUSH1 0x40 MLOAD PUSH2 0x17C SWAP2 SWAP1 PUSH2 0x1427 JUMP JUMPDEST PUSH1 0x40 MLOAD DUP1 SWAP2 SUB SWAP1 RETURN JUMPDEST PUSH2 0x18D PUSH2 0x2D1 JUMP JUMPDEST STOP JUMPDEST PUSH2 0x1A9 PUSH1 0x4 DUP1 CALLDATASIZE SUB DUP2 ADD SWAP1 PUSH2 0x1A4 SWAP2 SWAP1 PUSH2 0x14E3 JUMP JUMPDEST PUSH2 0x2E5 JUMP JUMPDEST STOP JUMPDEST PUSH2 0x1B3 PUSH2 0x433 JUMP JUMPDEST PUSH1 0x40 MLOAD PUSH2 0x1C0 SWAP2 SWAP1 PUSH2 0x145B JUMP JUMPDEST PUSH1 0x40 MLOAD DUP1 SWAP2 SUB SWAP1 RETURN JUMPDEST PUSH2 0x1D1 PUSH2 0x439 JUMP JUMPDEST PUSH1 0x40 MLOAD PUSH2 0x1DE SWAP2 SWAP1 PUSH2 0x153E JUMP JUMPDEST PUSH1 0x40 MLOAD DUP1 SWAP2 SUB SWAP1 RETURN JUMPDEST PUSH2 0x1EF PUSH2 0x44C JUMP JUMPDEST PUSH1 0x40 MLOAD PUSH2 0x1FC SWAP2 SWAP1 PUSH2 0x1497 JUMP JUMPDEST PUSH1 0x40 MLOAD DUP1 SWAP2 SUB SWAP1 RETURN JUMPDEST PUSH2 0x20D PUSH2 0x475 JUMP JUMPDEST STOP JUMPDEST PUSH2 0x217 PUSH2 0xA99 JUMP JUMPDEST STOP JUMPDEST PUSH2 0x233 PUSH1 0x4 DUP1 CALLDATASIZE SUB DUP2 ADD SWAP1 PUSH2 0x22E SWAP2 SWAP1 PUSH2 0x1585 JUMP JUMPDEST PUSH2 0x10F3 JUMP JUMPDEST STOP JUMPDEST PUSH2 0x23D PUSH2 0x1176 JUMP JUMPDEST PUSH1 0x40 MLOAD PUSH2 0x24A SWAP2 SWAP1 PUSH2 0x1642 JUMP JUMPDEST PUSH1 0x40 MLOAD DUP1 SWAP2 SUB SWAP1 RETURN JUMPDEST PUSH1 0x1 PUSH1 0x0 SWAP1 SLOAD SWAP1 PUSH2 0x100 EXP SWAP1 DIV PUSH20 0xFFFFFFFFFFFFFFFFFFFFFFFFFFFFFFFFFFFFFFFF AND DUP2 JUMP JUMPDEST PUSH1 0x7 SLOAD DUP2 JUMP JUMPDEST PUSH1 0x4 SLOAD DUP2 JUMP JUMPDEST PUSH1 0x5 PUSH1 0x0 SWAP1 SLOAD SWAP1 PUSH2 0x100 EXP SWAP1 DIV PUSH20 0xFFFFFFFFFFFFFFFFFFFFFFFFFFFFFFFFFFFFFFFF AND DUP2 JUMP JUMPDEST PUSH1 0x2 PUSH1 0x0 SWAP1 SLOAD SWAP1 PUSH2 0x100 EXP SWAP1 DIV PUSH20 0xFFFFFFFFFFFFFFFFFFFFFFFFFFFFFFFFFFFFFFFF AND DUP2 JUMP JUMPDEST PUSH2 0x2D9 PUSH2 0x125E JUMP JUMPDEST PUSH2 0x2E3 PUSH1 0x0 PUSH2 0x12DC JUMP JUMPDEST JUMP JUMPDEST PUSH2 0x2ED PUSH2 0x125E JUMP JUMPDEST PUSH1 0x1 PUSH1 0x0 SWAP1 SLOAD SWAP1 PUSH2 0x100 EXP SWAP1 DIV PUSH20 0xFFFFFFFFFFFFFFFFFFFFFFFFFFFFFFFFFFFFFFFF AND PUSH20 0xFFFFFFFFFFFFFFFFFFFFFFFFFFFFFFFFFFFFFFFF AND PUSH4 0x40C10F19 CALLER DUP5 PUSH1 0x40 MLOAD DUP4 PUSH4 0xFFFFFFFF AND PUSH1 0xE0 SHL DUP2 MSTORE PUSH1 0x4 ADD PUSH2 0x34A SWAP3 SWAP2 SWAP1 PUSH2 0x1664 JUMP JUMPDEST PUSH1 0x20 PUSH1 0x40 MLOAD DUP1 DUP4 SUB DUP2 PUSH1 0x0 DUP8 GAS CALL ISZERO DUP1 ISZERO PUSH2 0x369 JUMPI RETURNDATASIZE PUSH1 0x0 DUP1 RETURNDATACOPY RETURNDATASIZE PUSH1 0x0 REVERT JUMPDEST POP POP POP POP PUSH1 0x40 MLOAD RETURNDATASIZE PUSH1 0x1F NOT PUSH1 0x1F DUP3 ADD AND DUP3 ADD DUP1 PUSH1 0x40 MSTORE POP DUP2 ADD SWAP1 PUSH2 0x38D SWAP2 SWAP1 PUSH2 0x16B9 JUMP JUMPDEST POP PUSH1 0x2 PUSH1 0x0 SWAP1 SLOAD SWAP1 PUSH2 0x100 EXP SWAP1 DIV PUSH20 0xFFFFFFFFFFFFFFFFFFFFFFFFFFFFFFFFFFFFFFFF AND PUSH20 0xFFFFFFFFFFFFFFFFFFFFFFFFFFFFFFFFFFFFFFFF AND PUSH4 0x40C10F19 CALLER DUP4 PUSH1 0x40 MLOAD DUP4 PUSH4 0xFFFFFFFF AND PUSH1 0xE0 SHL DUP2 MSTORE PUSH1 0x4 ADD PUSH2 0x3EB SWAP3 SWAP2 SWAP1 PUSH2 0x1664 JUMP JUMPDEST PUSH1 0x20 PUSH1 0x40 MLOAD DUP1 DUP4 SUB DUP2 PUSH1 0x0 DUP8 GAS CALL ISZERO DUP1 ISZERO PUSH2 0x40A JUMPI RETURNDATASIZE PUSH1 0x0 DUP1 RETURNDATACOPY RETURNDATASIZE PUSH1 0x0 REVERT JUMPDEST POP POP POP POP PUSH1 0x40 MLOAD RETURNDATASIZE PUSH1 0x1F NOT PUSH1 0x1F DUP3 ADD AND DUP3 ADD DUP1 PUSH1 0x40 MSTORE POP DUP2 ADD SWAP1 PUSH2 0x42E SWAP2 SWAP1 PUSH2 0x16B9 JUMP JUMPDEST POP POP POP JUMP JUMPDEST PUSH1 0x6 SLOAD DUP2 JUMP JUMPDEST PUSH1 0x5 PUSH1 0x14 SWAP1 SLOAD SWAP1 PUSH2 0x100 EXP SWAP1 DIV PUSH1 0xFF AND DUP2 JUMP JUMPDEST PUSH1 0x0 DUP1 PUSH1 0x0 SWAP1 SLOAD SWAP1 PUSH2 0x100 EXP SWAP1 DIV PUSH20 0xFFFFFFFFFFFFFFFFFFFFFFFFFFFFFFFFFFFFFFFF AND SWAP1 POP SWAP1 JUMP JUMPDEST PUSH1 0xA PUSH1 0x1 PUSH1 0x0 SWAP1 SLOAD SWAP1 PUSH2 0x100 EXP SWAP1 DIV PUSH20 0xFFFFFFFFFFFFFFFFFFFFFFFFFFFFFFFFFFFFFFFF AND PUSH20 0xFFFFFFFFFFFFFFFFFFFFFFFFFFFFFFFFFFFFFFFF AND PUSH4 0x70A08231 CALLER PUSH1 0x40 MLOAD DUP3 PUSH4 0xFFFFFFFF AND PUSH1 0xE0 SHL DUP2 MSTORE PUSH1 0x4 ADD PUSH2 0x4D2 SWAP2 SWAP1 PUSH2 0x1497 JUMP JUMPDEST PUSH1 0x20 PUSH1 0x40 MLOAD DUP1 DUP4 SUB DUP2 DUP7 GAS STATICCALL ISZERO DUP1 ISZERO PUSH2 0x4EF JUMPI RETURNDATASIZE PUSH1 0x0 DUP1 RETURNDATACOPY RETURNDATASIZE PUSH1 0x0 REVERT JUMPDEST POP POP POP POP PUSH1 0x40 MLOAD RETURNDATASIZE PUSH1 0x1F NOT PUSH1 0x1F DUP3 ADD AND DUP3 ADD DUP1 PUSH1 0x40 MSTORE POP DUP2 ADD SWAP1 PUSH2 0x513 SWAP2 SWAP1 PUSH2 0x16FB JUMP JUMPDEST LT ISZERO PUSH2 0x51E JUMPI PUSH1 0x0 DUP1 REVERT JUMPDEST PUSH1 0x63 PUSH1 0x1 PUSH1 0x0 SWAP1 SLOAD SWAP1 PUSH2 0x100 EXP SWAP1 DIV PUSH20 0xFFFFFFFFFFFFFFFFFFFFFFFFFFFFFFFFFFFFFFFF AND PUSH20 0xFFFFFFFFFFFFFFFFFFFFFFFFFFFFFFFFFFFFFFFF AND PUSH4 0x70A08231 ADDRESS PUSH1 0x40 MLOAD DUP3 PUSH4 0xFFFFFFFF AND PUSH1 0xE0 SHL DUP2 MSTORE PUSH1 0x4 ADD PUSH2 0x57B SWAP2 SWAP1 PUSH2 0x1497 JUMP JUMPDEST PUSH1 0x20 PUSH1 0x40 MLOAD DUP1 DUP4 SUB DUP2 DUP7 GAS STATICCALL ISZERO DUP1 ISZERO PUSH2 0x598 JUMPI RETURNDATASIZE PUSH1 0x0 DUP1 RETURNDATACOPY RETURNDATASIZE PUSH1 0x0 REVERT JUMPDEST POP POP POP POP PUSH1 0x40 MLOAD RETURNDATASIZE PUSH1 0x1F NOT PUSH1 0x1F DUP3 ADD AND DUP3 ADD DUP1 PUSH1 0x40 MSTORE POP DUP2 ADD SWAP1 PUSH2 0x5BC SWAP2 SWAP1 PUSH2 0x16FB JUMP JUMPDEST GT PUSH2 0x5FC JUMPI PUSH1 0x40 MLOAD PUSH32 0x8C379A000000000000000000000000000000000000000000000000000000000 DUP2 MSTORE PUSH1 0x4 ADD PUSH2 0x5F3 SWAP1 PUSH2 0x179A JUMP JUMPDEST PUSH1 0x40 MLOAD DUP1 SWAP2 SUB SWAP1 REVERT JUMPDEST PUSH1 0x63 PUSH1 0x2 PUSH1 0x0 SWAP1 SLOAD SWAP1 PUSH2 0x100 EXP SWAP1 DIV PUSH20 0xFFFFFFFFFFFFFFFFFFFFFFFFFFFFFFFFFFFFFFFF AND PUSH20 0xFFFFFFFFFFFFFFFFFFFFFFFFFFFFFFFFFFFFFFFF AND PUSH4 0x70A08231 ADDRESS PUSH1 0x40 MLOAD DUP3 PUSH4 0xFFFFFFFF AND PUSH1 0xE0 SHL DUP2 MSTORE PUSH1 0x4 ADD PUSH2 0x659 SWAP2 SWAP1 PUSH2 0x1497 JUMP JUMPDEST PUSH1 0x20 PUSH1 0x40 MLOAD DUP1 DUP4 SUB DUP2 DUP7 GAS STATICCALL ISZERO DUP1 ISZERO PUSH2 0x676 JUMPI RETURNDATASIZE PUSH1 0x0 DUP1 RETURNDATACOPY RETURNDATASIZE PUSH1 0x0 REVERT JUMPDEST POP POP POP POP PUSH1 0x40 MLOAD RETURNDATASIZE PUSH1 0x1F NOT PUSH1 0x1F DUP3 ADD AND DUP3 ADD DUP1 PUSH1 0x40 MSTORE POP DUP2 ADD SWAP1 PUSH2 0x69A SWAP2 SWAP1 PUSH2 0x16FB JUMP JUMPDEST GT PUSH2 0x6DA JUMPI PUSH1 0x40 MLOAD PUSH32 0x8C379A000000000000000000000000000000000000000000000000000000000 DUP2 MSTORE PUSH1 0x4 ADD PUSH2 0x6D1 SWAP1 PUSH2 0x182C JUMP JUMPDEST PUSH1 0x40 MLOAD DUP1 SWAP2 SUB SWAP1 REVERT JUMPDEST PUSH1 0x1 PUSH1 0x0 SWAP1 SLOAD SWAP1 PUSH2 0x100 EXP SWAP1 DIV PUSH20 0xFFFFFFFFFFFFFFFFFFFFFFFFFFFFFFFFFFFFFFFF AND PUSH20 0xFFFFFFFFFFFFFFFFFFFFFFFFFFFFFFFFFFFFFFFF AND PUSH4 0x23B872DD CALLER ADDRESS PUSH1 0xA PUSH1 0x40 MLOAD DUP5 PUSH4 0xFFFFFFFF AND PUSH1 0xE0 SHL DUP2 MSTORE PUSH1 0x4 ADD PUSH2 0x73A SWAP4 SWAP3 SWAP2 SWAP1 PUSH2 0x1887 JUMP JUMPDEST PUSH1 0x20 PUSH1 0x40 MLOAD DUP1 DUP4 SUB DUP2 PUSH1 0x0 DUP8 GAS CALL ISZERO DUP1 ISZERO PUSH2 0x759 JUMPI RETURNDATASIZE PUSH1 0x0 DUP1 RETURNDATACOPY RETURNDATASIZE PUSH1 0x0 REVERT JUMPDEST POP POP POP POP PUSH1 0x40 MLOAD RETURNDATASIZE PUSH1 0x1F NOT PUSH1 0x1F DUP3 ADD AND DUP3 ADD DUP1 PUSH1 0x40 MSTORE POP DUP2 ADD SWAP1 PUSH2 0x77D SWAP2 SWAP1 PUSH2 0x16B9 JUMP JUMPDEST POP PUSH1 0x0 PUSH1 0x1 PUSH1 0x0 SWAP1 SLOAD SWAP1 PUSH2 0x100 EXP SWAP1 DIV PUSH20 0xFFFFFFFFFFFFFFFFFFFFFFFFFFFFFFFFFFFFFFFF AND PUSH20 0xFFFFFFFFFFFFFFFFFFFFFFFFFFFFFFFFFFFFFFFF AND PUSH4 0x70A08231 ADDRESS PUSH1 0x40 MLOAD DUP3 PUSH4 0xFFFFFFFF AND PUSH1 0xE0 SHL DUP2 MSTORE PUSH1 0x4 ADD PUSH2 0x7DB SWAP2 SWAP1 PUSH2 0x1497 JUMP JUMPDEST PUSH1 0x20 PUSH1 0x40 MLOAD DUP1 DUP4 SUB DUP2 DUP7 GAS STATICCALL ISZERO DUP1 ISZERO PUSH2 0x7F8 JUMPI RETURNDATASIZE PUSH1 0x0 DUP1 RETURNDATACOPY RETURNDATASIZE PUSH1 0x0 REVERT JUMPDEST POP POP POP POP PUSH1 0x40 MLOAD RETURNDATASIZE PUSH1 0x1F NOT PUSH1 0x1F DUP3 ADD AND DUP3 ADD DUP1 PUSH1 0x40 MSTORE POP DUP2 ADD SWAP1 PUSH2 0x81C SWAP2 SWAP1 PUSH2 0x16FB JUMP JUMPDEST PUSH1 0x4 SLOAD PUSH2 0x829 SWAP2 SWAP1 PUSH2 0x191C JUMP JUMPDEST SWAP1 POP PUSH1 0x0 DUP2 PUSH1 0x2 PUSH1 0x0 SWAP1 SLOAD SWAP1 PUSH2 0x100 EXP SWAP1 DIV PUSH20 0xFFFFFFFFFFFFFFFFFFFFFFFFFFFFFFFFFFFFFFFF AND PUSH20 0xFFFFFFFFFFFFFFFFFFFFFFFFFFFFFFFFFFFFFFFF AND PUSH4 0x70A08231 ADDRESS PUSH1 0x40 MLOAD DUP3 PUSH4 0xFFFFFFFF AND PUSH1 0xE0 SHL DUP2 MSTORE PUSH1 0x4 ADD PUSH2 0x889 SWAP2 SWAP1 PUSH2 0x1497 JUMP JUMPDEST PUSH1 0x20 PUSH1 0x40 MLOAD DUP1 DUP4 SUB DUP2 DUP7 GAS STATICCALL ISZERO DUP1 ISZERO PUSH2 0x8A6 JUMPI RETURNDATASIZE PUSH1 0x0 DUP1 RETURNDATACOPY RETURNDATASIZE PUSH1 0x0 REVERT JUMPDEST POP POP POP POP PUSH1 0x40 MLOAD RETURNDATASIZE PUSH1 0x1F NOT PUSH1 0x1F DUP3 ADD AND DUP3 ADD DUP1 PUSH1 0x40 MSTORE POP DUP2 ADD SWAP1 PUSH2 0x8CA SWAP2 SWAP1 PUSH2 0x16FB JUMP JUMPDEST PUSH2 0x8D4 SWAP2 SWAP1 PUSH2 0x194D JUMP JUMPDEST SWAP1 POP PUSH1 0x0 PUSH1 0xA PUSH1 0x9 DUP4 PUSH2 0x8E7 SWAP2 SWAP1 PUSH2 0x1981 JUMP JUMPDEST PUSH2 0x8F1 SWAP2 SWAP1 PUSH2 0x191C JUMP JUMPDEST SWAP1 POP PUSH1 0x0 PUSH1 0xA PUSH1 0x1 DUP5 PUSH2 0x904 SWAP2 SWAP1 PUSH2 0x1981 JUMP JUMPDEST PUSH2 0x90E SWAP2 SWAP1 PUSH2 0x191C JUMP JUMPDEST SWAP1 POP PUSH1 0x2 PUSH1 0x0 SWAP1 SLOAD SWAP1 PUSH2 0x100 EXP SWAP1 DIV PUSH20 0xFFFFFFFFFFFFFFFFFFFFFFFFFFFFFFFFFFFFFFFF AND PUSH20 0xFFFFFFFFFFFFFFFFFFFFFFFFFFFFFFFFFFFFFFFF AND PUSH4 0x23B872DD ADDRESS CALLER DUP6 PUSH1 0x40 MLOAD DUP5 PUSH4 0xFFFFFFFF AND PUSH1 0xE0 SHL DUP2 MSTORE PUSH1 0x4 ADD PUSH2 0x96F SWAP4 SWAP3 SWAP2 SWAP1 PUSH2 0x19C3 JUMP JUMPDEST PUSH1 0x20 PUSH1 0x40 MLOAD DUP1 DUP4 SUB DUP2 PUSH1 0x0 DUP8 GAS CALL ISZERO DUP1 ISZERO PUSH2 0x98E JUMPI RETURNDATASIZE PUSH1 0x0 DUP1 RETURNDATACOPY RETURNDATASIZE PUSH1 0x0 REVERT JUMPDEST POP POP POP POP PUSH1 0x40 MLOAD RETURNDATASIZE PUSH1 0x1F NOT PUSH1 0x1F DUP3 ADD AND DUP3 ADD DUP1 PUSH1 0x40 MSTORE POP DUP2 ADD SWAP1 PUSH2 0x9B2 SWAP2 SWAP1 PUSH2 0x16B9 JUMP JUMPDEST POP PUSH1 0x2 PUSH1 0x0 SWAP1 SLOAD SWAP1 PUSH2 0x100 EXP SWAP1 DIV PUSH20 0xFFFFFFFFFFFFFFFFFFFFFFFFFFFFFFFFFFFFFFFF AND PUSH20 0xFFFFFFFFFFFFFFFFFFFFFFFFFFFFFFFFFFFFFFFF AND PUSH4 0x23B872DD ADDRESS PUSH1 0x5 PUSH1 0x0 SWAP1 SLOAD SWAP1 PUSH2 0x100 EXP SWAP1 DIV PUSH20 0xFFFFFFFFFFFFFFFFFFFFFFFFFFFFFFFFFFFFFFFF AND DUP5 PUSH1 0x40 MLOAD DUP5 PUSH4 0xFFFFFFFF AND PUSH1 0xE0 SHL DUP2 MSTORE PUSH1 0x4 ADD PUSH2 0xA34 SWAP4 SWAP3 SWAP2 SWAP1 PUSH2 0x19C3 JUMP JUMPDEST PUSH1 0x20 PUSH1 0x40 MLOAD DUP1 DUP4 SUB DUP2 PUSH1 0x0 DUP8 GAS CALL ISZERO DUP1 ISZERO PUSH2 0xA53 JUMPI RETURNDATASIZE PUSH1 0x0 DUP1 RETURNDATACOPY RETURNDATASIZE PUSH1 0x0 REVERT JUMPDEST POP POP POP POP PUSH1 0x40 MLOAD RETURNDATASIZE PUSH1 0x1F NOT PUSH1 0x1F DUP3 ADD AND DUP3 ADD DUP1 PUSH1 0x40 MSTORE POP DUP2 ADD SWAP1 PUSH2 0xA77 SWAP2 SWAP1 PUSH2 0x16B9 JUMP JUMPDEST POP PUSH1 0x1 PUSH1 0x5 PUSH1 0x14 PUSH2 0x100 EXP DUP2 SLOAD DUP2 PUSH1 0xFF MUL NOT AND SWAP1 DUP4 ISZERO ISZERO MUL OR SWAP1 SSTORE POP POP POP POP POP JUMP JUMPDEST PUSH1 0xA PUSH1 0x2 PUSH1 0x0 SWAP1 SLOAD SWAP1 PUSH2 0x100 EXP SWAP1 DIV PUSH20 0xFFFFFFFFFFFFFFFFFFFFFFFFFFFFFFFFFFFFFFFF AND PUSH20 0xFFFFFFFFFFFFFFFFFFFFFFFFFFFFFFFFFFFFFFFF AND PUSH4 0x70A08231 CALLER PUSH1 0x40 MLOAD DUP3 PUSH4 0xFFFFFFFF AND PUSH1 0xE0 SHL DUP2 MSTORE PUSH1 0x4 ADD PUSH2 0xAF6 SWAP2 SWAP1 PUSH2 0x1497 JUMP JUMPDEST PUSH1 0x20 PUSH1 0x40 MLOAD DUP1 DUP4 SUB DUP2 DUP7 GAS STATICCALL ISZERO DUP1 ISZERO PUSH2 0xB13 JUMPI RETURNDATASIZE PUSH1 0x0 DUP1 RETURNDATACOPY RETURNDATASIZE PUSH1 0x0 REVERT JUMPDEST POP POP POP POP PUSH1 0x40 MLOAD RETURNDATASIZE PUSH1 0x1F NOT PUSH1 0x1F DUP3 ADD AND DUP3 ADD DUP1 PUSH1 0x40 MSTORE POP DUP2 ADD SWAP1 PUSH2 0xB37 SWAP2 SWAP1 PUSH2 0x16FB JUMP JUMPDEST LT ISZERO PUSH2 0xB78 JUMPI PUSH1 0x40 MLOAD PUSH32 0x8C379A000000000000000000000000000000000000000000000000000000000 DUP2 MSTORE PUSH1 0x4 ADD PUSH2 0xB6F SWAP1 PUSH2 0x1A46 JUMP JUMPDEST PUSH1 0x40 MLOAD DUP1 SWAP2 SUB SWAP1 REVERT JUMPDEST PUSH1 0x63 PUSH1 0x2 PUSH1 0x0 SWAP1 SLOAD SWAP1 PUSH2 0x100 EXP SWAP1 DIV PUSH20 0xFFFFFFFFFFFFFFFFFFFFFFFFFFFFFFFFFFFFFFFF AND PUSH20 0xFFFFFFFFFFFFFFFFFFFFFFFFFFFFFFFFFFFFFFFF AND PUSH4 0x70A08231 ADDRESS PUSH1 0x40 MLOAD DUP3 PUSH4 0xFFFFFFFF AND PUSH1 0xE0 SHL DUP2 MSTORE PUSH1 0x4 ADD PUSH2 0xBD5 SWAP2 SWAP1 PUSH2 0x1497 JUMP JUMPDEST PUSH1 0x20 PUSH1 0x40 MLOAD DUP1 DUP4 SUB DUP2 DUP7 GAS STATICCALL ISZERO DUP1 ISZERO PUSH2 0xBF2 JUMPI RETURNDATASIZE PUSH1 0x0 DUP1 RETURNDATACOPY RETURNDATASIZE PUSH1 0x0 REVERT JUMPDEST POP POP POP POP PUSH1 0x40 MLOAD RETURNDATASIZE PUSH1 0x1F NOT PUSH1 0x1F DUP3 ADD AND DUP3 ADD DUP1 PUSH1 0x40 MSTORE POP DUP2 ADD SWAP1 PUSH2 0xC16 SWAP2 SWAP1 PUSH2 0x16FB JUMP JUMPDEST GT PUSH2 0xC56 JUMPI PUSH1 0x40 MLOAD PUSH32 0x8C379A000000000000000000000000000000000000000000000000000000000 DUP2 MSTORE PUSH1 0x4 ADD PUSH2 0xC4D SWAP1 PUSH2 0x182C JUMP JUMPDEST PUSH1 0x40 MLOAD DUP1 SWAP2 SUB SWAP1 REVERT JUMPDEST PUSH1 0x63 PUSH1 0x1 PUSH1 0x0 SWAP1 SLOAD SWAP1 PUSH2 0x100 EXP SWAP1 DIV PUSH20 0xFFFFFFFFFFFFFFFFFFFFFFFFFFFFFFFFFFFFFFFF AND PUSH20 0xFFFFFFFFFFFFFFFFFFFFFFFFFFFFFFFFFFFFFFFF AND PUSH4 0x70A08231 ADDRESS PUSH1 0x40 MLOAD DUP3 PUSH4 0xFFFFFFFF AND PUSH1 0xE0 SHL DUP2 MSTORE PUSH1 0x4 ADD PUSH2 0xCB3 SWAP2 SWAP1 PUSH2 0x1497 JUMP JUMPDEST PUSH1 0x20 PUSH1 0x40 MLOAD DUP1 DUP4 SUB DUP2 DUP7 GAS STATICCALL ISZERO DUP1 ISZERO PUSH2 0xCD0 JUMPI RETURNDATASIZE PUSH1 0x0 DUP1 RETURNDATACOPY RETURNDATASIZE PUSH1 0x0 REVERT JUMPDEST POP POP POP POP PUSH1 0x40 MLOAD RETURNDATASIZE PUSH1 0x1F NOT PUSH1 0x1F DUP3 ADD AND DUP3 ADD DUP1 PUSH1 0x40 MSTORE POP DUP2 ADD SWAP1 PUSH2 0xCF4 SWAP2 SWAP1 PUSH2 0x16FB JUMP JUMPDEST GT PUSH2 0xD34 JUMPI PUSH1 0x40 MLOAD PUSH32 0x8C379A000000000000000000000000000000000000000000000000000000000 DUP2 MSTORE PUSH1 0x4 ADD PUSH2 0xD2B SWAP1 PUSH2 0x179A JUMP JUMPDEST PUSH1 0x40 MLOAD DUP1 SWAP2 SUB SWAP1 REVERT JUMPDEST PUSH1 0x2 PUSH1 0x0 SWAP1 SLOAD SWAP1 PUSH2 0x100 EXP SWAP1 DIV PUSH20 0xFFFFFFFFFFFFFFFFFFFFFFFFFFFFFFFFFFFFFFFF AND PUSH20 0xFFFFFFFFFFFFFFFFFFFFFFFFFFFFFFFFFFFFFFFF AND PUSH4 0x23B872DD CALLER ADDRESS PUSH1 0xA PUSH1 0x40 MLOAD DUP5 PUSH4 0xFFFFFFFF AND PUSH1 0xE0 SHL DUP2 MSTORE PUSH1 0x4 ADD PUSH2 0xD94 SWAP4 SWAP3 SWAP2 SWAP1 PUSH2 0x1887 JUMP JUMPDEST PUSH1 0x20 PUSH1 0x40 MLOAD DUP1 DUP4 SUB DUP2 PUSH1 0x0 DUP8 GAS CALL ISZERO DUP1 ISZERO PUSH2 0xDB3 JUMPI RETURNDATASIZE PUSH1 0x0 DUP1 RETURNDATACOPY RETURNDATASIZE PUSH1 0x0 REVERT JUMPDEST POP POP POP POP PUSH1 0x40 MLOAD RETURNDATASIZE PUSH1 0x1F NOT PUSH1 0x1F DUP3 ADD AND DUP3 ADD DUP1 PUSH1 0x40 MSTORE POP DUP2 ADD SWAP1 PUSH2 0xDD7 SWAP2 SWAP1 PUSH2 0x16B9 JUMP JUMPDEST POP PUSH1 0x0 PUSH1 0x2 PUSH1 0x0 SWAP1 SLOAD SWAP1 PUSH2 0x100 EXP SWAP1 DIV PUSH20 0xFFFFFFFFFFFFFFFFFFFFFFFFFFFFFFFFFFFFFFFF AND PUSH20 0xFFFFFFFFFFFFFFFFFFFFFFFFFFFFFFFFFFFFFFFF AND PUSH4 0x70A08231 ADDRESS PUSH1 0x40 MLOAD DUP3 PUSH4 0xFFFFFFFF AND PUSH1 0xE0 SHL DUP2 MSTORE PUSH1 0x4 ADD PUSH2 0xE35 SWAP2 SWAP1 PUSH2 0x1497 JUMP JUMPDEST PUSH1 0x20 PUSH1 0x40 MLOAD DUP1 DUP4 SUB DUP2 DUP7 GAS STATICCALL ISZERO DUP1 ISZERO PUSH2 0xE52 JUMPI RETURNDATASIZE PUSH1 0x0 DUP1 RETURNDATACOPY RETURNDATASIZE PUSH1 0x0 REVERT JUMPDEST POP POP POP POP PUSH1 0x40 MLOAD RETURNDATASIZE PUSH1 0x1F NOT PUSH1 0x1F DUP3 ADD AND DUP3 ADD DUP1 PUSH1 0x40 MSTORE POP DUP2 ADD SWAP1 PUSH2 0xE76 SWAP2 SWAP1 PUSH2 0x16FB JUMP JUMPDEST PUSH1 0x4 SLOAD PUSH2 0xE83 SWAP2 SWAP1 PUSH2 0x191C JUMP JUMPDEST SWAP1 POP PUSH1 0x0 DUP2 PUSH1 0x1 PUSH1 0x0 SWAP1 SLOAD SWAP1 PUSH2 0x100 EXP SWAP1 DIV PUSH20 0xFFFFFFFFFFFFFFFFFFFFFFFFFFFFFFFFFFFFFFFF AND PUSH20 0xFFFFFFFFFFFFFFFFFFFFFFFFFFFFFFFFFFFFFFFF AND PUSH4 0x70A08231 ADDRESS PUSH1 0x40 MLOAD DUP3 PUSH4 0xFFFFFFFF AND PUSH1 0xE0 SHL DUP2 MSTORE PUSH1 0x4 ADD PUSH2 0xEE3 SWAP2 SWAP1 PUSH2 0x1497 JUMP JUMPDEST PUSH1 0x20 PUSH1 0x40 MLOAD DUP1 DUP4 SUB DUP2 DUP7 GAS STATICCALL ISZERO DUP1 ISZERO PUSH2 0xF00 JUMPI RETURNDATASIZE PUSH1 0x0 DUP1 RETURNDATACOPY RETURNDATASIZE PUSH1 0x0 REVERT JUMPDEST POP POP POP POP PUSH1 0x40 MLOAD RETURNDATASIZE PUSH1 0x1F NOT PUSH1 0x1F DUP3 ADD AND DUP3 ADD DUP1 PUSH1 0x40 MSTORE POP DUP2 ADD SWAP1 PUSH2 0xF24 SWAP2 SWAP1 PUSH2 0x16FB JUMP JUMPDEST PUSH2 0xF2E SWAP2 SWAP1 PUSH2 0x194D JUMP JUMPDEST SWAP1 POP PUSH1 0x0 PUSH1 0xA PUSH1 0x9 DUP4 PUSH2 0xF41 SWAP2 SWAP1 PUSH2 0x1981 JUMP JUMPDEST PUSH2 0xF4B SWAP2 SWAP1 PUSH2 0x191C JUMP JUMPDEST SWAP1 POP PUSH1 0x0 PUSH1 0xA PUSH1 0x1 DUP5 PUSH2 0xF5E SWAP2 SWAP1 PUSH2 0x1981 JUMP JUMPDEST PUSH2 0xF68 SWAP2 SWAP1 PUSH2 0x191C JUMP JUMPDEST SWAP1 POP PUSH1 0x1 PUSH1 0x0 SWAP1 SLOAD SWAP1 PUSH2 0x100 EXP SWAP1 DIV PUSH20 0xFFFFFFFFFFFFFFFFFFFFFFFFFFFFFFFFFFFFFFFF AND PUSH20 0xFFFFFFFFFFFFFFFFFFFFFFFFFFFFFFFFFFFFFFFF AND PUSH4 0x23B872DD ADDRESS CALLER DUP6 PUSH1 0x40 MLOAD DUP5 PUSH4 0xFFFFFFFF AND PUSH1 0xE0 SHL DUP2 MSTORE PUSH1 0x4 ADD PUSH2 0xFC9 SWAP4 SWAP3 SWAP2 SWAP1 PUSH2 0x19C3 JUMP JUMPDEST PUSH1 0x20 PUSH1 0x40 MLOAD DUP1 DUP4 SUB DUP2 PUSH1 0x0 DUP8 GAS CALL ISZERO DUP1 ISZERO PUSH2 0xFE8 JUMPI RETURNDATASIZE PUSH1 0x0 DUP1 RETURNDATACOPY RETURNDATASIZE PUSH1 0x0 REVERT JUMPDEST POP POP POP POP PUSH1 0x40 MLOAD RETURNDATASIZE PUSH1 0x1F NOT PUSH1 0x1F DUP3 ADD AND DUP3 ADD DUP1 PUSH1 0x40 MSTORE POP DUP2 ADD SWAP1 PUSH2 0x100C SWAP2 SWAP1 PUSH2 0x16B9 JUMP JUMPDEST POP PUSH1 0x1 PUSH1 0x0 SWAP1 SLOAD SWAP1 PUSH2 0x100 EXP SWAP1 DIV PUSH20 0xFFFFFFFFFFFFFFFFFFFFFFFFFFFFFFFFFFFFFFFF AND PUSH20 0xFFFFFFFFFFFFFFFFFFFFFFFFFFFFFFFFFFFFFFFF AND PUSH4 0x23B872DD ADDRESS PUSH1 0x5 PUSH1 0x0 SWAP1 SLOAD SWAP1 PUSH2 0x100 EXP SWAP1 DIV PUSH20 0xFFFFFFFFFFFFFFFFFFFFFFFFFFFFFFFFFFFFFFFF AND DUP5 PUSH1 0x40 MLOAD DUP5 PUSH4 0xFFFFFFFF AND PUSH1 0xE0 SHL DUP2 MSTORE PUSH1 0x4 ADD PUSH2 0x108E SWAP4 SWAP3 SWAP2 SWAP1 PUSH2 0x19C3 JUMP JUMPDEST PUSH1 0x20 PUSH1 0x40 MLOAD DUP1 DUP4 SUB DUP2 PUSH1 0x0 DUP8 GAS CALL ISZERO DUP1 ISZERO PUSH2 0x10AD JUMPI RETURNDATASIZE PUSH1 0x0 DUP1 RETURNDATACOPY RETURNDATASIZE PUSH1 0x0 REVERT JUMPDEST POP POP POP POP PUSH1 0x40 MLOAD RETURNDATASIZE PUSH1 0x1F NOT PUSH1 0x1F DUP3 ADD AND DUP3 ADD DUP1 PUSH1 0x40 MSTORE POP DUP2 ADD SWAP1 PUSH2 0x10D1 SWAP2 SWAP1 PUSH2 0x16B9 JUMP JUMPDEST POP PUSH1 0x1 PUSH1 0x5 PUSH1 0x14 PUSH2 0x100 EXP DUP2 SLOAD DUP2 PUSH1 0xFF MUL NOT AND SWAP1 DUP4 ISZERO ISZERO MUL OR SWAP1 SSTORE POP POP POP POP POP JUMP JUMPDEST PUSH2 0x10FB PUSH2 0x125E JUMP JUMPDEST PUSH1 0x0 PUSH20 0xFFFFFFFFFFFFFFFFFFFFFFFFFFFFFFFFFFFFFFFF AND DUP2 PUSH20 0xFFFFFFFFFFFFFFFFFFFFFFFFFFFFFFFFFFFFFFFF AND SUB PUSH2 0x116A JUMPI PUSH1 0x40 MLOAD PUSH32 0x8C379A000000000000000000000000000000000000000000000000000000000 DUP2 MSTORE PUSH1 0x4 ADD PUSH2 0x1161 SWAP1 PUSH2 0x1AD8 JUMP JUMPDEST PUSH1 0x40 MLOAD DUP1 SWAP2 SUB SWAP1 REVERT JUMPDEST PUSH2 0x1173 DUP2 PUSH2 0x12DC JUMP JUMPDEST POP JUMP JUMPDEST PUSH1 0x60 PUSH1 0x1 ISZERO ISZERO PUSH1 0x5 PUSH1 0x14 SWAP1 SLOAD SWAP1 PUSH2 0x100 EXP SWAP1 DIV PUSH1 0xFF AND ISZERO ISZERO EQ PUSH2 0x11CE JUMPI PUSH1 0x40 MLOAD PUSH32 0x8C379A000000000000000000000000000000000000000000000000000000000 DUP2 MSTORE PUSH1 0x4 ADD PUSH2 0x11C5 SWAP1 PUSH2 0x1B6A JUMP JUMPDEST PUSH1 0x40 MLOAD DUP1 SWAP2 SUB SWAP1 REVERT JUMPDEST PUSH1 0x3 DUP1 SLOAD PUSH2 0x11DB SWAP1 PUSH2 0x1BB9 JUMP JUMPDEST DUP1 PUSH1 0x1F ADD PUSH1 0x20 DUP1 SWAP2 DIV MUL PUSH1 0x20 ADD PUSH1 0x40 MLOAD SWAP1 DUP2 ADD PUSH1 0x40 MSTORE DUP1 SWAP3 SWAP2 SWAP1 DUP2 DUP2 MSTORE PUSH1 0x20 ADD DUP3 DUP1 SLOAD PUSH2 0x1207 SWAP1 PUSH2 0x1BB9 JUMP JUMPDEST DUP1 ISZERO PUSH2 0x1254 JUMPI DUP1 PUSH1 0x1F LT PUSH2 0x1229 JUMPI PUSH2 0x100 DUP1 DUP4 SLOAD DIV MUL DUP4 MSTORE SWAP2 PUSH1 0x20 ADD SWAP2 PUSH2 0x1254 JUMP JUMPDEST DUP3 ADD SWAP2 SWAP1 PUSH1 0x0 MSTORE PUSH1 0x20 PUSH1 0x0 KECCAK256 SWAP1 JUMPDEST DUP2 SLOAD DUP2 MSTORE SWAP1 PUSH1 0x1 ADD SWAP1 PUSH1 0x20 ADD DUP1 DUP4 GT PUSH2 0x1237 JUMPI DUP3 SWAP1 SUB PUSH1 0x1F AND DUP3 ADD SWAP2 JUMPDEST POP POP POP POP POP SWAP1 POP SWAP1 JUMP JUMPDEST PUSH2 0x1266 PUSH2 0x13A0 JUMP JUMPDEST PUSH20 0xFFFFFFFFFFFFFFFFFFFFFFFFFFFFFFFFFFFFFFFF AND PUSH2 0x1284 PUSH2 0x44C JUMP JUMPDEST PUSH20 0xFFFFFFFFFFFFFFFFFFFFFFFFFFFFFFFFFFFFFFFF AND EQ PUSH2 0x12DA JUMPI PUSH1 0x40 MLOAD PUSH32 0x8C379A000000000000000000000000000000000000000000000000000000000 DUP2 MSTORE PUSH1 0x4 ADD PUSH2 0x12D1 SWAP1 PUSH2 0x1C36 JUMP JUMPDEST PUSH1 0x40 MLOAD DUP1 SWAP2 SUB SWAP1 REVERT JUMPDEST JUMP JUMPDEST PUSH1 0x0 DUP1 PUSH1 0x0 SWAP1 SLOAD SWAP1 PUSH2 0x100 EXP SWAP1 DIV PUSH20 0xFFFFFFFFFFFFFFFFFFFFFFFFFFFFFFFFFFFFFFFF AND SWAP1 POP DUP2 PUSH1 0x0 DUP1 PUSH2 0x100 EXP DUP2 SLOAD DUP2 PUSH20 0xFFFFFFFFFFFFFFFFFFFFFFFFFFFFFFFFFFFFFFFF MUL NOT AND SWAP1 DUP4 PUSH20 0xFFFFFFFFFFFFFFFFFFFFFFFFFFFFFFFFFFFFFFFF AND MUL OR SWAP1 SSTORE POP DUP2 PUSH20 0xFFFFFFFFFFFFFFFFFFFFFFFFFFFFFFFFFFFFFFFF AND DUP2 PUSH20 0xFFFFFFFFFFFFFFFFFFFFFFFFFFFFFFFFFFFFFFFF AND PUSH32 0x8BE0079C531659141344CD1FD0A4F28419497F9722A3DAAFE3B4186F6B6457E0 PUSH1 0x40 MLOAD PUSH1 0x40 MLOAD DUP1 SWAP2 SUB SWAP1 LOG3 POP POP JUMP JUMPDEST PUSH1 0x0 CALLER SWAP1 POP SWAP1 JUMP JUMPDEST PUSH1 0x0 PUSH20 0xFFFFFFFFFFFFFFFFFFFFFFFFFFFFFFFFFFFFFFFF DUP3 AND SWAP1 POP SWAP2 SWAP1 POP JUMP JUMPDEST PUSH1 0x0 DUP2 SWAP1 POP SWAP2 SWAP1 POP JUMP JUMPDEST PUSH1 0x0 PUSH2 0x13ED PUSH2 0x13E8 PUSH2 0x13E3 DUP5 PUSH2 0x13A8 JUMP JUMPDEST PUSH2 0x13C8 JUMP JUMPDEST PUSH2 0x13A8 JUMP JUMPDEST SWAP1 POP SWAP2 SWAP1 POP JUMP JUMPDEST PUSH1 0x0 PUSH2 0x13FF DUP3 PUSH2 0x13D2 JUMP JUMPDEST SWAP1 POP SWAP2 SWAP1 POP JUMP JUMPDEST PUSH1 0x0 PUSH2 0x1411 DUP3 PUSH2 0x13F4 JUMP JUMPDEST SWAP1 POP SWAP2 SWAP1 POP JUMP JUMPDEST PUSH2 0x1421 DUP2 PUSH2 0x1406 JUMP JUMPDEST DUP3 MSTORE POP POP JUMP JUMPDEST PUSH1 0x0 PUSH1 0x20 DUP3 ADD SWAP1 POP PUSH2 0x143C PUSH1 0x0 DUP4 ADD DUP5 PUSH2 0x1418 JUMP JUMPDEST SWAP3 SWAP2 POP POP JUMP JUMPDEST PUSH1 0x0 DUP2 SWAP1 POP SWAP2 SWAP1 POP JUMP JUMPDEST PUSH2 0x1455 DUP2 PUSH2 0x1442 JUMP JUMPDEST DUP3 MSTORE POP POP JUMP JUMPDEST PUSH1 0x0 PUSH1 0x20 DUP3 ADD SWAP1 POP PUSH2 0x1470 PUSH1 0x0 DUP4 ADD DUP5 PUSH2 0x144C JUMP JUMPDEST SWAP3 SWAP2 POP POP JUMP JUMPDEST PUSH1 0x0 PUSH2 0x1481 DUP3 PUSH2 0x13A8 JUMP JUMPDEST SWAP1 POP SWAP2 SWAP1 POP JUMP JUMPDEST PUSH2 0x1491 DUP2 PUSH2 0x1476 JUMP JUMPDEST DUP3 MSTORE POP POP JUMP JUMPDEST PUSH1 0x0 PUSH1 0x20 DUP3 ADD SWAP1 POP PUSH2 0x14AC PUSH1 0x0 DUP4 ADD DUP5 PUSH2 0x1488 JUMP JUMPDEST SWAP3 SWAP2 POP POP JUMP JUMPDEST PUSH1 0x0 DUP1 REVERT JUMPDEST PUSH2 0x14C0 DUP2 PUSH2 0x1442 JUMP JUMPDEST DUP2 EQ PUSH2 0x14CB JUMPI PUSH1 0x0 DUP1 REVERT JUMPDEST POP JUMP JUMPDEST PUSH1 0x0 DUP2 CALLDATALOAD SWAP1 POP PUSH2 0x14DD DUP2 PUSH2 0x14B7 JUMP JUMPDEST SWAP3 SWAP2 POP POP JUMP JUMPDEST PUSH1 0x0 DUP1 PUSH1 0x40 DUP4 DUP6 SUB SLT ISZERO PUSH2 0x14FA JUMPI PUSH2 0x14F9 PUSH2 0x14B2 JUMP JUMPDEST JUMPDEST PUSH1 0x0 PUSH2 0x1508 DUP6 DUP3 DUP7 ADD PUSH2 0x14CE JUMP JUMPDEST SWAP3 POP POP PUSH1 0x20 PUSH2 0x1519 DUP6 DUP3 DUP7 ADD PUSH2 0x14CE JUMP JUMPDEST SWAP2 POP POP SWAP3 POP SWAP3 SWAP1 POP JUMP JUMPDEST PUSH1 0x0 DUP2 ISZERO ISZERO SWAP1 POP SWAP2 SWAP1 POP JUMP JUMPDEST PUSH2 0x1538 DUP2 PUSH2 0x1523 JUMP JUMPDEST DUP3 MSTORE POP POP JUMP JUMPDEST PUSH1 0x0 PUSH1 0x20 DUP3 ADD SWAP1 POP PUSH2 0x1553 PUSH1 0x0 DUP4 ADD DUP5 PUSH2 0x152F JUMP JUMPDEST SWAP3 SWAP2 POP POP JUMP JUMPDEST PUSH2 0x1562 DUP2 PUSH2 0x1476 JUMP JUMPDEST DUP2 EQ PUSH2 0x156D JUMPI PUSH1 0x0 DUP1 REVERT JUMPDEST POP JUMP JUMPDEST PUSH1 0x0 DUP2 CALLDATALOAD SWAP1 POP PUSH2 0x157F DUP2 PUSH2 0x1559 JUMP JUMPDEST SWAP3 SWAP2 POP POP JUMP JUMPDEST PUSH1 0x0 PUSH1 0x20 DUP3 DUP5 SUB SLT ISZERO PUSH2 0x159B JUMPI PUSH2 0x159A PUSH2 0x14B2 JUMP JUMPDEST JUMPDEST PUSH1 0x0 PUSH2 0x15A9 DUP5 DUP3 DUP6 ADD PUSH2 0x1570 JUMP JUMPDEST SWAP2 POP POP SWAP3 SWAP2 POP POP JUMP JUMPDEST PUSH1 0x0 DUP2 MLOAD SWAP1 POP SWAP2 SWAP1 POP JUMP JUMPDEST PUSH1 0x0 DUP3 DUP3 MSTORE PUSH1 0x20 DUP3 ADD SWAP1 POP SWAP3 SWAP2 POP POP JUMP JUMPDEST PUSH1 0x0 JUMPDEST DUP4 DUP2 LT ISZERO PUSH2 0x15EC JUMPI DUP1 DUP3 ADD MLOAD DUP2 DUP5 ADD MSTORE PUSH1 0x20 DUP2 ADD SWAP1 POP PUSH2 0x15D1 JUMP JUMPDEST PUSH1 0x0 DUP5 DUP5 ADD MSTORE POP POP POP POP JUMP JUMPDEST PUSH1 0x0 PUSH1 0x1F NOT PUSH1 0x1F DUP4 ADD AND SWAP1 POP SWAP2 SWAP1 POP JUMP JUMPDEST PUSH1 0x0 PUSH2 0x1614 DUP3 PUSH2 0x15B2 JUMP JUMPDEST PUSH2 0x161E DUP2 DUP6 PUSH2 0x15BD JUMP JUMPDEST SWAP4 POP PUSH2 0x162E DUP2 DUP6 PUSH1 0x20 DUP7 ADD PUSH2 0x15CE JUMP JUMPDEST PUSH2 0x1637 DUP2 PUSH2 0x15F8 JUMP JUMPDEST DUP5 ADD SWAP2 POP POP SWAP3 SWAP2 POP POP JUMP JUMPDEST PUSH1 0x0 PUSH1 0x20 DUP3 ADD SWAP1 POP DUP2 DUP2 SUB PUSH1 0x0 DUP4 ADD MSTORE PUSH2 0x165C DUP2 DUP5 PUSH2 0x1609 JUMP JUMPDEST SWAP1 POP SWAP3 SWAP2 POP POP JUMP JUMPDEST PUSH1 0x0 PUSH1 0x40 DUP3 ADD SWAP1 POP PUSH2 0x1679 PUSH1 0x0 DUP4 ADD DUP6 PUSH2 0x1488 JUMP JUMPDEST PUSH2 0x1686 PUSH1 0x20 DUP4 ADD DUP5 PUSH2 0x144C JUMP JUMPDEST SWAP4 SWAP3 POP POP POP JUMP JUMPDEST PUSH2 0x1696 DUP2 PUSH2 0x1523 JUMP JUMPDEST DUP2 EQ PUSH2 0x16A1 JUMPI PUSH1 0x0 DUP1 REVERT JUMPDEST POP JUMP JUMPDEST PUSH1 0x0 DUP2 MLOAD SWAP1 POP PUSH2 0x16B3 DUP2 PUSH2 0x168D JUMP JUMPDEST SWAP3 SWAP2 POP POP JUMP JUMPDEST PUSH1 0x0 PUSH1 0x20 DUP3 DUP5 SUB SLT ISZERO PUSH2 0x16CF JUMPI PUSH2 0x16CE PUSH2 0x14B2 JUMP JUMPDEST JUMPDEST PUSH1 0x0 PUSH2 0x16DD DUP5 DUP3 DUP6 ADD PUSH2 0x16A4 JUMP JUMPDEST SWAP2 POP POP SWAP3 SWAP2 POP POP JUMP JUMPDEST PUSH1 0x0 DUP2 MLOAD SWAP1 POP PUSH2 0x16F5 DUP2 PUSH2 0x14B7 JUMP JUMPDEST SWAP3 SWAP2 POP POP JUMP JUMPDEST PUSH1 0x0 PUSH1 0x20 DUP3 DUP5 SUB SLT ISZERO PUSH2 0x1711 JUMPI PUSH2 0x1710 PUSH2 0x14B2 JUMP JUMPDEST JUMPDEST PUSH1 0x0 PUSH2 0x171F DUP5 DUP3 DUP6 ADD PUSH2 0x16E6 JUMP JUMPDEST SWAP2 POP POP SWAP3 SWAP2 POP POP JUMP JUMPDEST PUSH32 0x496E73756666696369656E7420746F6B656E412062616C616E636520696E2074 PUSH1 0x0 DUP3 ADD MSTORE PUSH32 0x686520636F6E7472616374000000000000000000000000000000000000000000 PUSH1 0x20 DUP3 ADD MSTORE POP JUMP JUMPDEST PUSH1 0x0 PUSH2 0x1784 PUSH1 0x2B DUP4 PUSH2 0x15BD JUMP JUMPDEST SWAP2 POP PUSH2 0x178F DUP3 PUSH2 0x1728 JUMP JUMPDEST PUSH1 0x40 DUP3 ADD SWAP1 POP SWAP2 SWAP1 POP JUMP JUMPDEST PUSH1 0x0 PUSH1 0x20 DUP3 ADD SWAP1 POP DUP2 DUP2 SUB PUSH1 0x0 DUP4 ADD MSTORE PUSH2 0x17B3 DUP2 PUSH2 0x1777 JUMP JUMPDEST SWAP1 POP SWAP2 SWAP1 POP JUMP JUMPDEST PUSH32 0x496E73756666696369656E7420746F6B656E422062616C616E636520696E2074 PUSH1 0x0 DUP3 ADD MSTORE PUSH32 0x686520636F6E7472616374000000000000000000000000000000000000000000 PUSH1 0x20 DUP3 ADD MSTORE POP JUMP JUMPDEST PUSH1 0x0 PUSH2 0x1816 PUSH1 0x2B DUP4 PUSH2 0x15BD JUMP JUMPDEST SWAP2 POP PUSH2 0x1821 DUP3 PUSH2 0x17BA JUMP JUMPDEST PUSH1 0x40 DUP3 ADD SWAP1 POP SWAP2 SWAP1 POP JUMP JUMPDEST PUSH1 0x0 PUSH1 0x20 DUP3 ADD SWAP1 POP DUP2 DUP2 SUB PUSH1 0x0 DUP4 ADD MSTORE PUSH2 0x1845 DUP2 PUSH2 0x1809 JUMP JUMPDEST SWAP1 POP SWAP2 SWAP1 POP JUMP JUMPDEST PUSH1 0x0 DUP2 SWAP1 POP SWAP2 SWAP1 POP JUMP JUMPDEST PUSH1 0x0 PUSH2 0x1871 PUSH2 0x186C PUSH2 0x1867 DUP5 PUSH2 0x184C JUMP JUMPDEST PUSH2 0x13C8 JUMP JUMPDEST PUSH2 0x1442 JUMP JUMPDEST SWAP1 POP SWAP2 SWAP1 POP JUMP JUMPDEST PUSH2 0x1881 DUP2 PUSH2 0x1856 JUMP JUMPDEST DUP3 MSTORE POP POP JUMP JUMPDEST PUSH1 0x0 PUSH1 0x60 DUP3 ADD SWAP1 POP PUSH2 0x189C PUSH1 0x0 DUP4 ADD DUP7 PUSH2 0x1488 JUMP JUMPDEST PUSH2 0x18A9 PUSH1 0x20 DUP4 ADD DUP6 PUSH2 0x1488 JUMP JUMPDEST PUSH2 0x18B6 PUSH1 0x40 DUP4 ADD DUP5 PUSH2 0x1878 JUMP JUMPDEST SWAP5 SWAP4 POP POP POP POP JUMP JUMPDEST PUSH32 0x4E487B7100000000000000000000000000000000000000000000000000000000 PUSH1 0x0 MSTORE PUSH1 0x12 PUSH1 0x4 MSTORE PUSH1 0x24 PUSH1 0x0 REVERT JUMPDEST PUSH32 0x4E487B7100000000000000000000000000000000000000000000000000000000 PUSH1 0x0 MSTORE PUSH1 0x11 PUSH1 0x4 MSTORE PUSH1 0x24 PUSH1 0x0 REVERT JUMPDEST PUSH1 0x0 PUSH2 0x1927 DUP3 PUSH2 0x1442 JUMP JUMPDEST SWAP2 POP PUSH2 0x1932 DUP4 PUSH2 0x1442 JUMP JUMPDEST SWAP3 POP DUP3 PUSH2 0x1942 JUMPI PUSH2 0x1941 PUSH2 0x18BE JUMP JUMPDEST JUMPDEST DUP3 DUP3 DIV SWAP1 POP SWAP3 SWAP2 POP POP JUMP JUMPDEST PUSH1 0x0 PUSH2 0x1958 DUP3 PUSH2 0x1442 JUMP JUMPDEST SWAP2 POP PUSH2 0x1963 DUP4 PUSH2 0x1442 JUMP JUMPDEST SWAP3 POP DUP3 DUP3 SUB SWAP1 POP DUP2 DUP2 GT ISZERO PUSH2 0x197B JUMPI PUSH2 0x197A PUSH2 0x18ED JUMP JUMPDEST JUMPDEST SWAP3 SWAP2 POP POP JUMP JUMPDEST PUSH1 0x0 PUSH2 0x198C DUP3 PUSH2 0x1442 JUMP JUMPDEST SWAP2 POP PUSH2 0x1997 DUP4 PUSH2 0x1442 JUMP JUMPDEST SWAP3 POP DUP3 DUP3 MUL PUSH2 0x19A5 DUP2 PUSH2 0x1442 JUMP JUMPDEST SWAP2 POP DUP3 DUP3 DIV DUP5 EQ DUP4 ISZERO OR PUSH2 0x19BC JUMPI PUSH2 0x19BB PUSH2 0x18ED JUMP JUMPDEST JUMPDEST POP SWAP3 SWAP2 POP POP JUMP JUMPDEST PUSH1 0x0 PUSH1 0x60 DUP3 ADD SWAP1 POP PUSH2 0x19D8 PUSH1 0x0 DUP4 ADD DUP7 PUSH2 0x1488 JUMP JUMPDEST PUSH2 0x19E5 PUSH1 0x20 DUP4 ADD DUP6 PUSH2 0x1488 JUMP JUMPDEST PUSH2 0x19F2 PUSH1 0x40 DUP4 ADD DUP5 PUSH2 0x144C JUMP JUMPDEST SWAP5 SWAP4 POP POP POP POP JUMP JUMPDEST PUSH32 0x496E73756666696369656E7420746F6B656E422062616C616E63650000000000 PUSH1 0x0 DUP3 ADD MSTORE POP JUMP JUMPDEST PUSH1 0x0 PUSH2 0x1A30 PUSH1 0x1B DUP4 PUSH2 0x15BD JUMP JUMPDEST SWAP2 POP PUSH2 0x1A3B DUP3 PUSH2 0x19FA JUMP JUMPDEST PUSH1 0x20 DUP3 ADD SWAP1 POP SWAP2 SWAP1 POP JUMP JUMPDEST PUSH1 0x0 PUSH1 0x20 DUP3 ADD SWAP1 POP DUP2 DUP2 SUB PUSH1 0x0 DUP4 ADD MSTORE PUSH2 0x1A5F DUP2 PUSH2 0x1A23 JUMP JUMPDEST SWAP1 POP SWAP2 SWAP1 POP JUMP JUMPDEST PUSH32 0x4F776E61626C653A206E6577206F776E657220697320746865207A65726F2061 PUSH1 0x0 DUP3 ADD MSTORE PUSH32 0x6464726573730000000000000000000000000000000000000000000000000000 PUSH1 0x20 DUP3 ADD MSTORE POP JUMP JUMPDEST PUSH1 0x0 PUSH2 0x1AC2 PUSH1 0x26 DUP4 PUSH2 0x15BD JUMP JUMPDEST SWAP2 POP PUSH2 0x1ACD DUP3 PUSH2 0x1A66 JUMP JUMPDEST PUSH1 0x40 DUP3 ADD SWAP1 POP SWAP2 SWAP1 POP JUMP JUMPDEST PUSH1 0x0 PUSH1 0x20 DUP3 ADD SWAP1 POP DUP2 DUP2 SUB PUSH1 0x0 DUP4 ADD MSTORE PUSH2 0x1AF1 DUP2 PUSH2 0x1AB5 JUMP JUMPDEST SWAP1 POP SWAP2 SWAP1 POP JUMP JUMPDEST PUSH32 0x456C206C697175696469747950726F7669646572206E6F2068612067616E6164 PUSH1 0x0 DUP3 ADD MSTORE PUSH32 0x6F206E696E67756E6120636F6D6973696F6E0000000000000000000000000000 PUSH1 0x20 DUP3 ADD MSTORE POP JUMP JUMPDEST PUSH1 0x0 PUSH2 0x1B54 PUSH1 0x32 DUP4 PUSH2 0x15BD JUMP JUMPDEST SWAP2 POP PUSH2 0x1B5F DUP3 PUSH2 0x1AF8 JUMP JUMPDEST PUSH1 0x40 DUP3 ADD SWAP1 POP SWAP2 SWAP1 POP JUMP JUMPDEST PUSH1 0x0 PUSH1 0x20 DUP3 ADD SWAP1 POP DUP2 DUP2 SUB PUSH1 0x0 DUP4 ADD MSTORE PUSH2 0x1B83 DUP2 PUSH2 0x1B47 JUMP JUMPDEST SWAP1 POP SWAP2 SWAP1 POP JUMP JUMPDEST PUSH32 0x4E487B7100000000000000000000000000000000000000000000000000000000 PUSH1 0x0 MSTORE PUSH1 0x22 PUSH1 0x4 MSTORE PUSH1 0x24 PUSH1 0x0 REVERT JUMPDEST PUSH1 0x0 PUSH1 0x2 DUP3 DIV SWAP1 POP PUSH1 0x1 DUP3 AND DUP1 PUSH2 0x1BD1 JUMPI PUSH1 0x7F DUP3 AND SWAP2 POP JUMPDEST PUSH1 0x20 DUP3 LT DUP2 SUB PUSH2 0x1BE4 JUMPI PUSH2 0x1BE3 PUSH2 0x1B8A JUMP JUMPDEST JUMPDEST POP SWAP2 SWAP1 POP JUMP JUMPDEST PUSH32 0x4F776E61626C653A2063616C6C6572206973206E6F7420746865206F776E6572 PUSH1 0x0 DUP3 ADD MSTORE POP JUMP JUMPDEST PUSH1 0x0 PUSH2 0x1C20 PUSH1 0x20 DUP4 PUSH2 0x15BD JUMP JUMPDEST SWAP2 POP PUSH2 0x1C2B DUP3 PUSH2 0x1BEA JUMP JUMPDEST PUSH1 0x20 DUP3 ADD SWAP1 POP SWAP2 SWAP1 POP JUMP JUMPDEST PUSH1 0x0 PUSH1 0x20 DUP3 ADD SWAP1 POP DUP2 DUP2 SUB PUSH1 0x0 DUP4 ADD MSTORE PUSH2 0x1C4F DUP2 PUSH2 0x1C13 JUMP JUMPDEST SWAP1 POP SWAP2 SWAP1 POP JUMP INVALID LOG2 PUSH5 0x6970667358 0x22 SLT KECCAK256 EXTCODEHASH 0xAB 0x24 SMOD 0xB2 RETURNDATACOPY PUSH30 0xDEB118DE8D209B9C2FD3249F8E86C970B771F3F1172842713664736F6C63 NUMBER STOP ADDMOD SGT STOP CALLER "
				},
				"gasEstimates": {
					"creation": {
						"codeDepositCost": "1461600",
						"executionCost": "infinite",
						"totalCost": "infinite"
					},
					"external": {
						"createPool(uint256,uint256)": "infinite",
						"getFlag()": "infinite",
						"liquidityA()": "2452",
						"liquidityB()": "2475",
						"liquidityProvider()": "2537",
						"owner()": "2589",
						"proportion()": "2497",
						"renounceOwnership()": "30465",
						"swap()": "2566",
						"swapAforB()": "infinite",
						"swapBforA()": "infinite",
						"tokenA()": "infinite",
						"tokenB()": "infinite",
						"transferOwnership(address)": "30810"
					}
				},
				"methodIdentifiers": {
					"createPool(uint256,uint256)": "74a110c2",
					"getFlag()": "f9633930",
					"liquidityA()": "79629b69",
					"liquidityB()": "24731cff",
					"liquidityProvider()": "5b8bec55",
					"owner()": "8da5cb5b",
					"proportion()": "5b4246d4",
					"renounceOwnership()": "715018a6",
					"swap()": "8119c065",
					"swapAforB()": "8f325c02",
					"swapBforA()": "b3a88f7b",
					"tokenA()": "0fc63d10",
					"tokenB()": "5f64b55b",
					"transferOwnership(address)": "f2fde38b"
				}
			},
			"storageLayout": {
				"storage": [
					{
						"astId": 7,
						"contract": "levelup/newdex.sol:DEX_CTF",
						"label": "_owner",
						"offset": 0,
						"slot": "0",
						"type": "t_address"
					},
					{
						"astId": 225,
						"contract": "levelup/newdex.sol:DEX_CTF",
						"label": "tokenA",
						"offset": 0,
						"slot": "1",
						"type": "t_contract(Itoken)220"
					},
					{
						"astId": 228,
						"contract": "levelup/newdex.sol:DEX_CTF",
						"label": "tokenB",
						"offset": 0,
						"slot": "2",
						"type": "t_contract(Itoken)220"
					},
					{
						"astId": 230,
						"contract": "levelup/newdex.sol:DEX_CTF",
						"label": "flag",
						"offset": 0,
						"slot": "3",
						"type": "t_string_storage"
					},
					{
						"astId": 232,
						"contract": "levelup/newdex.sol:DEX_CTF",
						"label": "proportion",
						"offset": 0,
						"slot": "4",
						"type": "t_uint256"
					},
					{
						"astId": 238,
						"contract": "levelup/newdex.sol:DEX_CTF",
						"label": "liquidityProvider",
						"offset": 0,
						"slot": "5",
						"type": "t_address"
					},
					{
						"astId": 240,
						"contract": "levelup/newdex.sol:DEX_CTF",
						"label": "swap",
						"offset": 20,
						"slot": "5",
						"type": "t_bool"
					},
					{
						"astId": 249,
						"contract": "levelup/newdex.sol:DEX_CTF",
						"label": "liquidityA",
						"offset": 0,
						"slot": "6",
						"type": "t_uint256"
					},
					{
						"astId": 258,
						"contract": "levelup/newdex.sol:DEX_CTF",
						"label": "liquidityB",
						"offset": 0,
						"slot": "7",
						"type": "t_uint256"
					}
				],
				"types": {
					"t_address": {
						"encoding": "inplace",
						"label": "address",
						"numberOfBytes": "20"
					},
					"t_bool": {
						"encoding": "inplace",
						"label": "bool",
						"numberOfBytes": "1"
					},
					"t_contract(Itoken)220": {
						"encoding": "inplace",
						"label": "contract Itoken",
						"numberOfBytes": "20"
					},
					"t_string_storage": {
						"encoding": "bytes",
						"label": "string",
						"numberOfBytes": "32"
					},
					"t_uint256": {
						"encoding": "inplace",
						"label": "uint256",
						"numberOfBytes": "32"
					}
				}
			},
			"userdoc": {
				"kind": "user",
				"methods": {},
				"version": 1
			}
		}
	}
}