{
	"levelup/newdex.sol": {
		"DEX_CTF": {
			"abi": [
				{
					"inputs": [
						{
							"internalType": "address",
							"name": "_tokenA",
							"type": "address"
						},
						{
							"internalType": "address",
							"name": "_tokenB",
							"type": "address"
						},
						{
							"internalType": "string",
							"name": "_flag",
							"type": "string"
						}
					],
					"stateMutability": "nonpayable",
					"type": "constructor"
				},
				{
					"inputs": [],
					"name": "commissionEarned",
					"outputs": [
						{
							"internalType": "bool",
							"name": "",
							"type": "bool"
						}
					],
					"stateMutability": "view",
					"type": "function"
				},
				{
					"inputs": [],
					"name": "getFlag",
					"outputs": [
						{
							"internalType": "string",
							"name": "",
							"type": "string"
						}
					],
					"stateMutability": "view",
					"type": "function"
				},
				{
					"inputs": [],
					"name": "liquidityA",
					"outputs": [
						{
							"internalType": "uint256",
							"name": "",
							"type": "uint256"
						}
					],
					"stateMutability": "view",
					"type": "function"
				},
				{
					"inputs": [],
					"name": "liquidityB",
					"outputs": [
						{
							"internalType": "uint256",
							"name": "",
							"type": "uint256"
						}
					],
					"stateMutability": "view",
					"type": "function"
				},
				{
					"inputs": [],
					"name": "liquidityProvider",
					"outputs": [
						{
							"internalType": "address",
							"name": "",
							"type": "address"
						}
					],
					"stateMutability": "view",
					"type": "function"
				},
				{
					"inputs": [],
					"name": "proportion",
					"outputs": [
						{
							"internalType": "uint256",
							"name": "",
							"type": "uint256"
						}
					],
					"stateMutability": "view",
					"type": "function"
				},
				{
					"inputs": [
						{
							"internalType": "uint256",
							"name": "amountA",
							"type": "uint256"
						},
						{
							"internalType": "uint256",
							"name": "amountB",
							"type": "uint256"
						}
					],
					"name": "provideLiquidity",
					"outputs": [],
					"stateMutability": "nonpayable",
					"type": "function"
				},
				{
					"inputs": [],
					"name": "swapAforB",
					"outputs": [],
					"stateMutability": "nonpayable",
					"type": "function"
				},
				{
					"inputs": [],
					"name": "swapBforA",
					"outputs": [],
					"stateMutability": "nonpayable",
					"type": "function"
				},
				{
					"inputs": [],
					"name": "tokenA",
					"outputs": [
						{
							"internalType": "contract IERC20",
							"name": "",
							"type": "address"
						}
					],
					"stateMutability": "view",
					"type": "function"
				},
				{
					"inputs": [],
					"name": "tokenB",
					"outputs": [
						{
							"internalType": "contract IERC20",
							"name": "",
							"type": "address"
						}
					],
					"stateMutability": "view",
					"type": "function"
				}
			],
			"devdoc": {
				"kind": "dev",
				"methods": {},
				"version": 1
			},
			"evm": {
				"assembly": "    /* \"levelup/newdex.sol\":737:3771  contract DEX_CTF  {... */\n  mstore(0x40, 0x80)\n    /* \"levelup/newdex.sol\":912:913  0 */\n  0x00\n    /* \"levelup/newdex.sol\":869:914  address public liquidityProvider = address(0) */\n  0x04\n  exp(0x0100, 0x00)\n  dup2\n  sload\n  dup2\n  0xffffffffffffffffffffffffffffffffffffffff\n  mul\n  not\n  and\n  swap1\n  dup4\n  0xffffffffffffffffffffffffffffffffffffffff\n  and\n  mul\n  or\n  swap1\n  sstore\n  pop\n    /* \"levelup/newdex.sol\":982:988  tokenA */\n  0x00\n  dup1\n  sload\n  swap1\n  0x0100\n  exp\n  swap1\n  div\n  0xffffffffffffffffffffffffffffffffffffffff\n  and\n    /* \"levelup/newdex.sol\":982:998  tokenA.balanceOf */\n  0xffffffffffffffffffffffffffffffffffffffff\n  and\n  0x70a08231\n    /* \"levelup/newdex.sol\":1007:1011  this */\n  address\n    /* \"levelup/newdex.sol\":982:1013  tokenA.balanceOf(address(this)) */\n  mload(0x40)\n  dup3\n  0xffffffff\n  and\n  0xe0\n  shl\n  dup2\n  mstore\n  0x04\n  add\n  tag_1\n  swap2\n  swap1\n  tag_2\n  jump\t// in\ntag_1:\n  0x20\n  mload(0x40)\n  dup1\n  dup4\n  sub\n  dup2\n  dup7\n  dup1\n  extcodesize\n  iszero\n  dup1\n  iszero\n  tag_3\n  jumpi\n  0x00\n  dup1\n  revert\ntag_3:\n  pop\n  gas\n  staticcall\n  iszero\n  dup1\n  iszero\n  tag_5\n  jumpi\n  returndatasize\n  0x00\n  dup1\n  returndatacopy\n  revert(0x00, returndatasize)\ntag_5:\n  pop\n  pop\n  pop\n  pop\n  mload(0x40)\n  returndatasize\n  not(0x1f)\n  0x1f\n  dup3\n  add\n  and\n  dup3\n  add\n  dup1\n  0x40\n  mstore\n  pop\n  dup2\n  add\n  swap1\n  tag_6\n  swap2\n  swap1\n  tag_7\n  jump\t// in\ntag_6:\n    /* \"levelup/newdex.sol\":954:1013  uint256 public liquidityA = tokenA.balanceOf(address(this)) */\n  0x05\n  sstore\n    /* \"levelup/newdex.sol\":1047:1053  tokenB */\n  0x01\n  0x00\n  swap1\n  sload\n  swap1\n  0x0100\n  exp\n  swap1\n  div\n  0xffffffffffffffffffffffffffffffffffffffff\n  and\n    /* \"levelup/newdex.sol\":1047:1063  tokenB.balanceOf */\n  0xffffffffffffffffffffffffffffffffffffffff\n  and\n  0x70a08231\n    /* \"levelup/newdex.sol\":1072:1076  this */\n  address\n    /* \"levelup/newdex.sol\":1047:1078  tokenB.balanceOf(address(this)) */\n  mload(0x40)\n  dup3\n  0xffffffff\n  and\n  0xe0\n  shl\n  dup2\n  mstore\n  0x04\n  add\n  tag_8\n  swap2\n  swap1\n  tag_2\n  jump\t// in\ntag_8:\n  0x20\n  mload(0x40)\n  dup1\n  dup4\n  sub\n  dup2\n  dup7\n  dup1\n  extcodesize\n  iszero\n  dup1\n  iszero\n  tag_9\n  jumpi\n  0x00\n  dup1\n  revert\ntag_9:\n  pop\n  gas\n  staticcall\n  iszero\n  dup1\n  iszero\n  tag_11\n  jumpi\n  returndatasize\n  0x00\n  dup1\n  returndatacopy\n  revert(0x00, returndatasize)\ntag_11:\n  pop\n  pop\n  pop\n  pop\n  mload(0x40)\n  returndatasize\n  not(0x1f)\n  0x1f\n  dup3\n  add\n  and\n  dup3\n  add\n  dup1\n  0x40\n  mstore\n  pop\n  dup2\n  add\n  swap1\n  tag_12\n  swap2\n  swap1\n  tag_7\n  jump\t// in\ntag_12:\n    /* \"levelup/newdex.sol\":1019:1078  uint256 public liquidityB = tokenB.balanceOf(address(this)) */\n  0x06\n  sstore\n    /* \"levelup/newdex.sol\":1087:1251  constructor(address _tokenA, address _tokenB, string memory _flag) {... */\n  callvalue\n  dup1\n  iszero\n  tag_13\n  jumpi\n  0x00\n  dup1\n  revert\ntag_13:\n  pop\n  mload(0x40)\n  sub(codesize, bytecodeSize)\n  dup1\n  bytecodeSize\n  dup4\n  codecopy\n  dup2\n  dup2\n  add\n  0x40\n  mstore\n  dup2\n  add\n  swap1\n  tag_14\n  swap2\n  swap1\n  tag_15\n  jump\t// in\ntag_14:\n    /* \"levelup/newdex.sol\":1180:1187  _tokenA */\n  dup3\n    /* \"levelup/newdex.sol\":1164:1170  tokenA */\n  0x00\n  dup1\n    /* \"levelup/newdex.sol\":1164:1188  tokenA = IERC20(_tokenA) */\n  0x0100\n  exp\n  dup2\n  sload\n  dup2\n  0xffffffffffffffffffffffffffffffffffffffff\n  mul\n  not\n  and\n  swap1\n  dup4\n  0xffffffffffffffffffffffffffffffffffffffff\n  and\n  mul\n  or\n  swap1\n  sstore\n  pop\n    /* \"levelup/newdex.sol\":1214:1221  _tokenB */\n  dup2\n    /* \"levelup/newdex.sol\":1198:1204  tokenB */\n  0x01\n  0x00\n    /* \"levelup/newdex.sol\":1198:1222  tokenB = IERC20(_tokenB) */\n  0x0100\n  exp\n  dup2\n  sload\n  dup2\n  0xffffffffffffffffffffffffffffffffffffffff\n  mul\n  not\n  and\n  swap1\n  dup4\n  0xffffffffffffffffffffffffffffffffffffffff\n  and\n  mul\n  or\n  swap1\n  sstore\n  pop\n    /* \"levelup/newdex.sol\":1239:1244  _flag */\n  dup1\n    /* \"levelup/newdex.sol\":1232:1236  flag */\n  0x02\n    /* \"levelup/newdex.sol\":1232:1244  flag = _flag */\n  swap1\n  dup1\n  mload\n  swap1\n  0x20\n  add\n  swap1\n  tag_18\n  swap3\n  swap2\n  swap1\n  tag_19\n  jump\t// in\ntag_18:\n  pop\n    /* \"levelup/newdex.sol\":1087:1251  constructor(address _tokenA, address _tokenB, string memory _flag) {... */\n  pop\n  pop\n  pop\n    /* \"levelup/newdex.sol\":737:3771  contract DEX_CTF  {... */\n  jump(tag_20)\ntag_19:\n  dup3\n  dup1\n  sload\n  tag_21\n  swap1\n  tag_22\n  jump\t// in\ntag_21:\n  swap1\n  0x00\n  mstore\n  keccak256(0x00, 0x20)\n  swap1\n  0x1f\n  add\n  0x20\n  swap1\n  div\n  dup2\n  add\n  swap3\n  dup3\n  tag_24\n  jumpi\n  0x00\n  dup6\n  sstore\n  jump(tag_23)\ntag_24:\n  dup3\n  0x1f\n  lt\n  tag_25\n  jumpi\n  dup1\n  mload\n  not(0xff)\n  and\n  dup4\n  dup1\n  add\n  or\n  dup6\n  sstore\n  jump(tag_23)\ntag_25:\n  dup3\n  dup1\n  add\n  0x01\n  add\n  dup6\n  sstore\n  dup3\n  iszero\n  tag_23\n  jumpi\n  swap2\n  dup3\n  add\ntag_26:\n  dup3\n  dup2\n  gt\n  iszero\n  tag_27\n  jumpi\n  dup3\n  mload\n  dup3\n  sstore\n  swap2\n  0x20\n  add\n  swap2\n  swap1\n  0x01\n  add\n  swap1\n  jump(tag_26)\ntag_27:\ntag_23:\n  pop\n  swap1\n  pop\n  tag_28\n  swap2\n  swap1\n  tag_29\n  jump\t// in\ntag_28:\n  pop\n  swap1\n  jump\t// out\ntag_29:\ntag_30:\n  dup1\n  dup3\n  gt\n  iszero\n  tag_31\n  jumpi\n  0x00\n  dup2\n  0x00\n  swap1\n  sstore\n  pop\n  0x01\n  add\n  jump(tag_30)\ntag_31:\n  pop\n  swap1\n  jump\t// out\n    /* \"#utility.yul\":7:361   */\ntag_33:\n    /* \"#utility.yul\":96:101   */\n  0x00\n    /* \"#utility.yul\":121:187   */\n  tag_35\n    /* \"#utility.yul\":137:186   */\n  tag_36\n    /* \"#utility.yul\":179:185   */\n  dup5\n    /* \"#utility.yul\":137:186   */\n  tag_37\n  jump\t// in\ntag_36:\n    /* \"#utility.yul\":121:187   */\n  tag_38\n  jump\t// in\ntag_35:\n    /* \"#utility.yul\":112:187   */\n  swap1\n  pop\n    /* \"#utility.yul\":210:216   */\n  dup3\n    /* \"#utility.yul\":203:208   */\n  dup2\n    /* \"#utility.yul\":196:217   */\n  mstore\n    /* \"#utility.yul\":248:252   */\n  0x20\n    /* \"#utility.yul\":241:246   */\n  dup2\n    /* \"#utility.yul\":237:253   */\n  add\n    /* \"#utility.yul\":286:289   */\n  dup5\n    /* \"#utility.yul\":277:283   */\n  dup5\n    /* \"#utility.yul\":272:275   */\n  dup5\n    /* \"#utility.yul\":268:284   */\n  add\n    /* \"#utility.yul\":265:290   */\n  gt\n    /* \"#utility.yul\":262:264   */\n  iszero\n  tag_39\n  jumpi\n    /* \"#utility.yul\":303:304   */\n  0x00\n    /* \"#utility.yul\":300:301   */\n  dup1\n    /* \"#utility.yul\":293:305   */\n  revert\n    /* \"#utility.yul\":262:264   */\ntag_39:\n    /* \"#utility.yul\":316:355   */\n  tag_40\n    /* \"#utility.yul\":348:354   */\n  dup5\n    /* \"#utility.yul\":343:346   */\n  dup3\n    /* \"#utility.yul\":338:341   */\n  dup6\n    /* \"#utility.yul\":316:355   */\n  tag_41\n  jump\t// in\ntag_40:\n    /* \"#utility.yul\":102:361   */\n  pop\n  swap4\n  swap3\n  pop\n  pop\n  pop\n  jump\t// out\n    /* \"#utility.yul\":367:510   */\ntag_42:\n    /* \"#utility.yul\":424:429   */\n  0x00\n    /* \"#utility.yul\":455:461   */\n  dup2\n    /* \"#utility.yul\":449:462   */\n  mload\n    /* \"#utility.yul\":440:462   */\n  swap1\n  pop\n    /* \"#utility.yul\":471:504   */\n  tag_44\n    /* \"#utility.yul\":498:503   */\n  dup2\n    /* \"#utility.yul\":471:504   */\n  tag_45\n  jump\t// in\ntag_44:\n    /* \"#utility.yul\":430:510   */\n  swap3\n  swap2\n  pop\n  pop\n  jump\t// out\n    /* \"#utility.yul\":530:818   */\ntag_46:\n    /* \"#utility.yul\":597:602   */\n  0x00\n    /* \"#utility.yul\":646:649   */\n  dup3\n    /* \"#utility.yul\":639:643   */\n  0x1f\n    /* \"#utility.yul\":631:637   */\n  dup4\n    /* \"#utility.yul\":627:644   */\n  add\n    /* \"#utility.yul\":623:650   */\n  slt\n    /* \"#utility.yul\":613:615   */\n  tag_48\n  jumpi\n    /* \"#utility.yul\":664:665   */\n  0x00\n    /* \"#utility.yul\":661:662   */\n  dup1\n    /* \"#utility.yul\":654:666   */\n  revert\n    /* \"#utility.yul\":613:615   */\ntag_48:\n    /* \"#utility.yul\":697:703   */\n  dup2\n    /* \"#utility.yul\":691:704   */\n  mload\n    /* \"#utility.yul\":722:812   */\n  tag_49\n    /* \"#utility.yul\":808:811   */\n  dup5\n    /* \"#utility.yul\":800:806   */\n  dup3\n    /* \"#utility.yul\":793:797   */\n  0x20\n    /* \"#utility.yul\":785:791   */\n  dup7\n    /* \"#utility.yul\":781:798   */\n  add\n    /* \"#utility.yul\":722:812   */\n  tag_33\n  jump\t// in\ntag_49:\n    /* \"#utility.yul\":713:812   */\n  swap2\n  pop\n    /* \"#utility.yul\":603:818   */\n  pop\n  swap3\n  swap2\n  pop\n  pop\n  jump\t// out\n    /* \"#utility.yul\":824:967   */\ntag_50:\n    /* \"#utility.yul\":881:886   */\n  0x00\n    /* \"#utility.yul\":912:918   */\n  dup2\n    /* \"#utility.yul\":906:919   */\n  mload\n    /* \"#utility.yul\":897:919   */\n  swap1\n  pop\n    /* \"#utility.yul\":928:961   */\n  tag_52\n    /* \"#utility.yul\":955:960   */\n  dup2\n    /* \"#utility.yul\":928:961   */\n  tag_53\n  jump\t// in\ntag_52:\n    /* \"#utility.yul\":887:967   */\n  swap3\n  swap2\n  pop\n  pop\n  jump\t// out\n    /* \"#utility.yul\":973:1675   */\ntag_15:\n    /* \"#utility.yul\":1071:1077   */\n  0x00\n    /* \"#utility.yul\":1079:1085   */\n  dup1\n    /* \"#utility.yul\":1087:1093   */\n  0x00\n    /* \"#utility.yul\":1136:1138   */\n  0x60\n    /* \"#utility.yul\":1124:1133   */\n  dup5\n    /* \"#utility.yul\":1115:1122   */\n  dup7\n    /* \"#utility.yul\":1111:1134   */\n  sub\n    /* \"#utility.yul\":1107:1139   */\n  slt\n    /* \"#utility.yul\":1104:1106   */\n  iszero\n  tag_55\n  jumpi\n    /* \"#utility.yul\":1152:1153   */\n  0x00\n    /* \"#utility.yul\":1149:1150   */\n  dup1\n    /* \"#utility.yul\":1142:1154   */\n  revert\n    /* \"#utility.yul\":1104:1106   */\ntag_55:\n    /* \"#utility.yul\":1195:1196   */\n  0x00\n    /* \"#utility.yul\":1220:1284   */\n  tag_56\n    /* \"#utility.yul\":1276:1283   */\n  dup7\n    /* \"#utility.yul\":1267:1273   */\n  dup3\n    /* \"#utility.yul\":1256:1265   */\n  dup8\n    /* \"#utility.yul\":1252:1274   */\n  add\n    /* \"#utility.yul\":1220:1284   */\n  tag_42\n  jump\t// in\ntag_56:\n    /* \"#utility.yul\":1210:1284   */\n  swap4\n  pop\n    /* \"#utility.yul\":1166:1294   */\n  pop\n    /* \"#utility.yul\":1333:1335   */\n  0x20\n    /* \"#utility.yul\":1359:1423   */\n  tag_57\n    /* \"#utility.yul\":1415:1422   */\n  dup7\n    /* \"#utility.yul\":1406:1412   */\n  dup3\n    /* \"#utility.yul\":1395:1404   */\n  dup8\n    /* \"#utility.yul\":1391:1413   */\n  add\n    /* \"#utility.yul\":1359:1423   */\n  tag_42\n  jump\t// in\ntag_57:\n    /* \"#utility.yul\":1349:1423   */\n  swap3\n  pop\n    /* \"#utility.yul\":1304:1433   */\n  pop\n    /* \"#utility.yul\":1493:1495   */\n  0x40\n    /* \"#utility.yul\":1482:1491   */\n  dup5\n    /* \"#utility.yul\":1478:1496   */\n  add\n    /* \"#utility.yul\":1472:1497   */\n  mload\n    /* \"#utility.yul\":1524:1542   */\n  0xffffffffffffffff\n    /* \"#utility.yul\":1516:1522   */\n  dup2\n    /* \"#utility.yul\":1513:1543   */\n  gt\n    /* \"#utility.yul\":1510:1512   */\n  iszero\n  tag_58\n  jumpi\n    /* \"#utility.yul\":1556:1557   */\n  0x00\n    /* \"#utility.yul\":1553:1554   */\n  dup1\n    /* \"#utility.yul\":1546:1558   */\n  revert\n    /* \"#utility.yul\":1510:1512   */\ntag_58:\n    /* \"#utility.yul\":1584:1658   */\n  tag_59\n    /* \"#utility.yul\":1650:1657   */\n  dup7\n    /* \"#utility.yul\":1641:1647   */\n  dup3\n    /* \"#utility.yul\":1630:1639   */\n  dup8\n    /* \"#utility.yul\":1626:1648   */\n  add\n    /* \"#utility.yul\":1584:1658   */\n  tag_46\n  jump\t// in\ntag_59:\n    /* \"#utility.yul\":1574:1658   */\n  swap2\n  pop\n    /* \"#utility.yul\":1443:1668   */\n  pop\n    /* \"#utility.yul\":1094:1675   */\n  swap3\n  pop\n  swap3\n  pop\n  swap3\n  jump\t// out\n    /* \"#utility.yul\":1681:1965   */\ntag_7:\n    /* \"#utility.yul\":1751:1757   */\n  0x00\n    /* \"#utility.yul\":1800:1802   */\n  0x20\n    /* \"#utility.yul\":1788:1797   */\n  dup3\n    /* \"#utility.yul\":1779:1786   */\n  dup5\n    /* \"#utility.yul\":1775:1798   */\n  sub\n    /* \"#utility.yul\":1771:1803   */\n  slt\n    /* \"#utility.yul\":1768:1770   */\n  iszero\n  tag_61\n  jumpi\n    /* \"#utility.yul\":1816:1817   */\n  0x00\n    /* \"#utility.yul\":1813:1814   */\n  dup1\n    /* \"#utility.yul\":1806:1818   */\n  revert\n    /* \"#utility.yul\":1768:1770   */\ntag_61:\n    /* \"#utility.yul\":1859:1860   */\n  0x00\n    /* \"#utility.yul\":1884:1948   */\n  tag_62\n    /* \"#utility.yul\":1940:1947   */\n  dup5\n    /* \"#utility.yul\":1931:1937   */\n  dup3\n    /* \"#utility.yul\":1920:1929   */\n  dup6\n    /* \"#utility.yul\":1916:1938   */\n  add\n    /* \"#utility.yul\":1884:1948   */\n  tag_50\n  jump\t// in\ntag_62:\n    /* \"#utility.yul\":1874:1948   */\n  swap2\n  pop\n    /* \"#utility.yul\":1830:1958   */\n  pop\n    /* \"#utility.yul\":1758:1965   */\n  swap3\n  swap2\n  pop\n  pop\n  jump\t// out\n    /* \"#utility.yul\":1971:2089   */\ntag_63:\n    /* \"#utility.yul\":2058:2082   */\n  tag_65\n    /* \"#utility.yul\":2076:2081   */\n  dup2\n    /* \"#utility.yul\":2058:2082   */\n  tag_66\n  jump\t// in\ntag_65:\n    /* \"#utility.yul\":2053:2056   */\n  dup3\n    /* \"#utility.yul\":2046:2083   */\n  mstore\n    /* \"#utility.yul\":2036:2089   */\n  pop\n  pop\n  jump\t// out\n    /* \"#utility.yul\":2095:2317   */\ntag_2:\n    /* \"#utility.yul\":2188:2192   */\n  0x00\n    /* \"#utility.yul\":2226:2228   */\n  0x20\n    /* \"#utility.yul\":2215:2224   */\n  dup3\n    /* \"#utility.yul\":2211:2229   */\n  add\n    /* \"#utility.yul\":2203:2229   */\n  swap1\n  pop\n    /* \"#utility.yul\":2239:2310   */\n  tag_68\n    /* \"#utility.yul\":2307:2308   */\n  0x00\n    /* \"#utility.yul\":2296:2305   */\n  dup4\n    /* \"#utility.yul\":2292:2309   */\n  add\n    /* \"#utility.yul\":2283:2289   */\n  dup5\n    /* \"#utility.yul\":2239:2310   */\n  tag_63\n  jump\t// in\ntag_68:\n    /* \"#utility.yul\":2193:2317   */\n  swap3\n  swap2\n  pop\n  pop\n  jump\t// out\n    /* \"#utility.yul\":2323:2452   */\ntag_38:\n    /* \"#utility.yul\":2357:2363   */\n  0x00\n    /* \"#utility.yul\":2384:2404   */\n  tag_70\n  tag_71\n  jump\t// in\ntag_70:\n    /* \"#utility.yul\":2374:2404   */\n  swap1\n  pop\n    /* \"#utility.yul\":2413:2446   */\n  tag_72\n    /* \"#utility.yul\":2441:2445   */\n  dup3\n    /* \"#utility.yul\":2433:2439   */\n  dup3\n    /* \"#utility.yul\":2413:2446   */\n  tag_73\n  jump\t// in\ntag_72:\n    /* \"#utility.yul\":2364:2452   */\n  swap2\n  swap1\n  pop\n  jump\t// out\n    /* \"#utility.yul\":2458:2533   */\ntag_71:\n    /* \"#utility.yul\":2491:2497   */\n  0x00\n    /* \"#utility.yul\":2524:2526   */\n  0x40\n    /* \"#utility.yul\":2518:2527   */\n  mload\n    /* \"#utility.yul\":2508:2527   */\n  swap1\n  pop\n    /* \"#utility.yul\":2498:2533   */\n  swap1\n  jump\t// out\n    /* \"#utility.yul\":2539:2847   */\ntag_37:\n    /* \"#utility.yul\":2601:2605   */\n  0x00\n    /* \"#utility.yul\":2691:2709   */\n  0xffffffffffffffff\n    /* \"#utility.yul\":2683:2689   */\n  dup3\n    /* \"#utility.yul\":2680:2710   */\n  gt\n    /* \"#utility.yul\":2677:2679   */\n  iszero\n  tag_76\n  jumpi\n    /* \"#utility.yul\":2713:2731   */\n  tag_77\n  tag_78\n  jump\t// in\ntag_77:\n    /* \"#utility.yul\":2677:2679   */\ntag_76:\n    /* \"#utility.yul\":2751:2780   */\n  tag_79\n    /* \"#utility.yul\":2773:2779   */\n  dup3\n    /* \"#utility.yul\":2751:2780   */\n  tag_80\n  jump\t// in\ntag_79:\n    /* \"#utility.yul\":2743:2780   */\n  swap1\n  pop\n    /* \"#utility.yul\":2835:2839   */\n  0x20\n    /* \"#utility.yul\":2829:2833   */\n  dup2\n    /* \"#utility.yul\":2825:2840   */\n  add\n    /* \"#utility.yul\":2817:2840   */\n  swap1\n  pop\n    /* \"#utility.yul\":2606:2847   */\n  swap2\n  swap1\n  pop\n  jump\t// out\n    /* \"#utility.yul\":2853:2949   */\ntag_66:\n    /* \"#utility.yul\":2890:2897   */\n  0x00\n    /* \"#utility.yul\":2919:2943   */\n  tag_82\n    /* \"#utility.yul\":2937:2942   */\n  dup3\n    /* \"#utility.yul\":2919:2943   */\n  tag_83\n  jump\t// in\ntag_82:\n    /* \"#utility.yul\":2908:2943   */\n  swap1\n  pop\n    /* \"#utility.yul\":2898:2949   */\n  swap2\n  swap1\n  pop\n  jump\t// out\n    /* \"#utility.yul\":2955:3081   */\ntag_83:\n    /* \"#utility.yul\":2992:2999   */\n  0x00\n    /* \"#utility.yul\":3032:3074   */\n  0xffffffffffffffffffffffffffffffffffffffff\n    /* \"#utility.yul\":3025:3030   */\n  dup3\n    /* \"#utility.yul\":3021:3075   */\n  and\n    /* \"#utility.yul\":3010:3075   */\n  swap1\n  pop\n    /* \"#utility.yul\":3000:3081   */\n  swap2\n  swap1\n  pop\n  jump\t// out\n    /* \"#utility.yul\":3087:3164   */\ntag_85:\n    /* \"#utility.yul\":3124:3131   */\n  0x00\n    /* \"#utility.yul\":3153:3158   */\n  dup2\n    /* \"#utility.yul\":3142:3158   */\n  swap1\n  pop\n    /* \"#utility.yul\":3132:3164   */\n  swap2\n  swap1\n  pop\n  jump\t// out\n    /* \"#utility.yul\":3170:3477   */\ntag_41:\n    /* \"#utility.yul\":3238:3239   */\n  0x00\n    /* \"#utility.yul\":3248:3361   */\ntag_88:\n    /* \"#utility.yul\":3262:3268   */\n  dup4\n    /* \"#utility.yul\":3259:3260   */\n  dup2\n    /* \"#utility.yul\":3256:3269   */\n  lt\n    /* \"#utility.yul\":3248:3361   */\n  iszero\n  tag_90\n  jumpi\n    /* \"#utility.yul\":3347:3348   */\n  dup1\n    /* \"#utility.yul\":3342:3345   */\n  dup3\n    /* \"#utility.yul\":3338:3349   */\n  add\n    /* \"#utility.yul\":3332:3350   */\n  mload\n    /* \"#utility.yul\":3328:3329   */\n  dup2\n    /* \"#utility.yul\":3323:3326   */\n  dup5\n    /* \"#utility.yul\":3319:3330   */\n  add\n    /* \"#utility.yul\":3312:3351   */\n  mstore\n    /* \"#utility.yul\":3284:3286   */\n  0x20\n    /* \"#utility.yul\":3281:3282   */\n  dup2\n    /* \"#utility.yul\":3277:3287   */\n  add\n    /* \"#utility.yul\":3272:3287   */\n  swap1\n  pop\n    /* \"#utility.yul\":3248:3361   */\n  jump(tag_88)\ntag_90:\n    /* \"#utility.yul\":3379:3385   */\n  dup4\n    /* \"#utility.yul\":3376:3377   */\n  dup2\n    /* \"#utility.yul\":3373:3386   */\n  gt\n    /* \"#utility.yul\":3370:3372   */\n  iszero\n  tag_91\n  jumpi\n    /* \"#utility.yul\":3459:3460   */\n  0x00\n    /* \"#utility.yul\":3450:3456   */\n  dup5\n    /* \"#utility.yul\":3445:3448   */\n  dup5\n    /* \"#utility.yul\":3441:3457   */\n  add\n    /* \"#utility.yul\":3434:3461   */\n  mstore\n    /* \"#utility.yul\":3370:3372   */\ntag_91:\n    /* \"#utility.yul\":3219:3477   */\n  pop\n  pop\n  pop\n  pop\n  jump\t// out\n    /* \"#utility.yul\":3483:3803   */\ntag_22:\n    /* \"#utility.yul\":3527:3533   */\n  0x00\n    /* \"#utility.yul\":3564:3565   */\n  0x02\n    /* \"#utility.yul\":3558:3562   */\n  dup3\n    /* \"#utility.yul\":3554:3566   */\n  div\n    /* \"#utility.yul\":3544:3566   */\n  swap1\n  pop\n    /* \"#utility.yul\":3611:3612   */\n  0x01\n    /* \"#utility.yul\":3605:3609   */\n  dup3\n    /* \"#utility.yul\":3601:3613   */\n  and\n    /* \"#utility.yul\":3632:3650   */\n  dup1\n    /* \"#utility.yul\":3622:3624   */\n  tag_93\n  jumpi\n    /* \"#utility.yul\":3688:3692   */\n  0x7f\n    /* \"#utility.yul\":3680:3686   */\n  dup3\n    /* \"#utility.yul\":3676:3693   */\n  and\n    /* \"#utility.yul\":3666:3693   */\n  swap2\n  pop\n    /* \"#utility.yul\":3622:3624   */\ntag_93:\n    /* \"#utility.yul\":3750:3752   */\n  0x20\n    /* \"#utility.yul\":3742:3748   */\n  dup3\n    /* \"#utility.yul\":3739:3753   */\n  lt\n    /* \"#utility.yul\":3719:3737   */\n  dup2\n    /* \"#utility.yul\":3716:3754   */\n  eq\n    /* \"#utility.yul\":3713:3715   */\n  iszero\n  tag_94\n  jumpi\n    /* \"#utility.yul\":3769:3787   */\n  tag_95\n  tag_96\n  jump\t// in\ntag_95:\n    /* \"#utility.yul\":3713:3715   */\ntag_94:\n    /* \"#utility.yul\":3534:3803   */\n  pop\n  swap2\n  swap1\n  pop\n  jump\t// out\n    /* \"#utility.yul\":3809:4090   */\ntag_73:\n    /* \"#utility.yul\":3892:3919   */\n  tag_98\n    /* \"#utility.yul\":3914:3918   */\n  dup3\n    /* \"#utility.yul\":3892:3919   */\n  tag_80\n  jump\t// in\ntag_98:\n    /* \"#utility.yul\":3884:3890   */\n  dup2\n    /* \"#utility.yul\":3880:3920   */\n  add\n    /* \"#utility.yul\":4022:4028   */\n  dup2\n    /* \"#utility.yul\":4010:4020   */\n  dup2\n    /* \"#utility.yul\":4007:4029   */\n  lt\n    /* \"#utility.yul\":3986:4004   */\n  0xffffffffffffffff\n    /* \"#utility.yul\":3974:3984   */\n  dup3\n    /* \"#utility.yul\":3971:4005   */\n  gt\n    /* \"#utility.yul\":3968:4030   */\n  or\n    /* \"#utility.yul\":3965:3967   */\n  iszero\n  tag_99\n  jumpi\n    /* \"#utility.yul\":4033:4051   */\n  tag_100\n  tag_78\n  jump\t// in\ntag_100:\n    /* \"#utility.yul\":3965:3967   */\ntag_99:\n    /* \"#utility.yul\":4073:4083   */\n  dup1\n    /* \"#utility.yul\":4069:4071   */\n  0x40\n    /* \"#utility.yul\":4062:4084   */\n  mstore\n    /* \"#utility.yul\":3852:4090   */\n  pop\n  pop\n  pop\n  jump\t// out\n    /* \"#utility.yul\":4096:4276   */\ntag_96:\n    /* \"#utility.yul\":4144:4221   */\n  0x4e487b7100000000000000000000000000000000000000000000000000000000\n    /* \"#utility.yul\":4141:4142   */\n  0x00\n    /* \"#utility.yul\":4134:4222   */\n  mstore\n    /* \"#utility.yul\":4241:4245   */\n  0x22\n    /* \"#utility.yul\":4238:4239   */\n  0x04\n    /* \"#utility.yul\":4231:4246   */\n  mstore\n    /* \"#utility.yul\":4265:4269   */\n  0x24\n    /* \"#utility.yul\":4262:4263   */\n  0x00\n    /* \"#utility.yul\":4255:4270   */\n  revert\n    /* \"#utility.yul\":4282:4462   */\ntag_78:\n    /* \"#utility.yul\":4330:4407   */\n  0x4e487b7100000000000000000000000000000000000000000000000000000000\n    /* \"#utility.yul\":4327:4328   */\n  0x00\n    /* \"#utility.yul\":4320:4408   */\n  mstore\n    /* \"#utility.yul\":4427:4431   */\n  0x41\n    /* \"#utility.yul\":4424:4425   */\n  0x04\n    /* \"#utility.yul\":4417:4432   */\n  mstore\n    /* \"#utility.yul\":4451:4455   */\n  0x24\n    /* \"#utility.yul\":4448:4449   */\n  0x00\n    /* \"#utility.yul\":4441:4456   */\n  revert\n    /* \"#utility.yul\":4468:4570   */\ntag_80:\n    /* \"#utility.yul\":4509:4515   */\n  0x00\n    /* \"#utility.yul\":4560:4562   */\n  0x1f\n    /* \"#utility.yul\":4556:4563   */\n  not\n    /* \"#utility.yul\":4551:4553   */\n  0x1f\n    /* \"#utility.yul\":4544:4549   */\n  dup4\n    /* \"#utility.yul\":4540:4554   */\n  add\n    /* \"#utility.yul\":4536:4564   */\n  and\n    /* \"#utility.yul\":4526:4564   */\n  swap1\n  pop\n    /* \"#utility.yul\":4516:4570   */\n  swap2\n  swap1\n  pop\n  jump\t// out\n    /* \"#utility.yul\":4576:4698   */\ntag_45:\n    /* \"#utility.yul\":4649:4673   */\n  tag_105\n    /* \"#utility.yul\":4667:4672   */\n  dup2\n    /* \"#utility.yul\":4649:4673   */\n  tag_66\n  jump\t// in\ntag_105:\n    /* \"#utility.yul\":4642:4647   */\n  dup2\n    /* \"#utility.yul\":4639:4674   */\n  eq\n    /* \"#utility.yul\":4629:4631   */\n  tag_106\n  jumpi\n    /* \"#utility.yul\":4688:4689   */\n  0x00\n    /* \"#utility.yul\":4685:4686   */\n  dup1\n    /* \"#utility.yul\":4678:4690   */\n  revert\n    /* \"#utility.yul\":4629:4631   */\ntag_106:\n    /* \"#utility.yul\":4619:4698   */\n  pop\n  jump\t// out\n    /* \"#utility.yul\":4704:4826   */\ntag_53:\n    /* \"#utility.yul\":4777:4801   */\n  tag_108\n    /* \"#utility.yul\":4795:4800   */\n  dup2\n    /* \"#utility.yul\":4777:4801   */\n  tag_85\n  jump\t// in\ntag_108:\n    /* \"#utility.yul\":4770:4775   */\n  dup2\n    /* \"#utility.yul\":4767:4802   */\n  eq\n    /* \"#utility.yul\":4757:4759   */\n  tag_109\n  jumpi\n    /* \"#utility.yul\":4816:4817   */\n  0x00\n    /* \"#utility.yul\":4813:4814   */\n  dup1\n    /* \"#utility.yul\":4806:4818   */\n  revert\n    /* \"#utility.yul\":4757:4759   */\ntag_109:\n    /* \"#utility.yul\":4747:4826   */\n  pop\n  jump\t// out\n    /* \"levelup/newdex.sol\":737:3771  contract DEX_CTF  {... */\ntag_20:\n  dataSize(sub_0)\n  dup1\n  dataOffset(sub_0)\n  0x00\n  codecopy\n  0x00\n  return\nstop\n\nsub_0: assembly {\n        /* \"levelup/newdex.sol\":737:3771  contract DEX_CTF  {... */\n      mstore(0x40, 0x80)\n      callvalue\n      dup1\n      iszero\n      tag_1\n      jumpi\n      0x00\n      dup1\n      revert\n    tag_1:\n      pop\n      jumpi(tag_2, lt(calldatasize, 0x04))\n      shr(0xe0, calldataload(0x00))\n      dup1\n      0x5f64b55b\n      gt\n      tag_14\n      jumpi\n      dup1\n      0x5f64b55b\n      eq\n      tag_8\n      jumpi\n      dup1\n      0x79629b69\n      eq\n      tag_9\n      jumpi\n      dup1\n      0x7a16af7f\n      eq\n      tag_10\n      jumpi\n      dup1\n      0x8f325c02\n      eq\n      tag_11\n      jumpi\n      dup1\n      0xb3a88f7b\n      eq\n      tag_12\n      jumpi\n      dup1\n      0xf9633930\n      eq\n      tag_13\n      jumpi\n      jump(tag_2)\n    tag_14:\n      dup1\n      0x0aefecb5\n      eq\n      tag_3\n      jumpi\n      dup1\n      0x0fc63d10\n      eq\n      tag_4\n      jumpi\n      dup1\n      0x24731cff\n      eq\n      tag_5\n      jumpi\n      dup1\n      0x5b4246d4\n      eq\n      tag_6\n      jumpi\n      dup1\n      0x5b8bec55\n      eq\n      tag_7\n      jumpi\n    tag_2:\n      0x00\n      dup1\n      revert\n        /* \"levelup/newdex.sol\":920:948  bool public commissionEarned */\n    tag_3:\n      tag_15\n      tag_16\n      jump\t// in\n    tag_15:\n      mload(0x40)\n      tag_17\n      swap2\n      swap1\n      tag_18\n      jump\t// in\n    tag_17:\n      mload(0x40)\n      dup1\n      swap2\n      sub\n      swap1\n      return\n        /* \"levelup/newdex.sol\":761:781  IERC20 public tokenA */\n    tag_4:\n      tag_19\n      tag_20\n      jump\t// in\n    tag_19:\n      mload(0x40)\n      tag_21\n      swap2\n      swap1\n      tag_22\n      jump\t// in\n    tag_21:\n      mload(0x40)\n      dup1\n      swap2\n      sub\n      swap1\n      return\n        /* \"levelup/newdex.sol\":1019:1078  uint256 public liquidityB = tokenB.balanceOf(address(this)) */\n    tag_5:\n      tag_23\n      tag_24\n      jump\t// in\n    tag_23:\n      mload(0x40)\n      tag_25\n      swap2\n      swap1\n      tag_26\n      jump\t// in\n    tag_25:\n      mload(0x40)\n      dup1\n      swap2\n      sub\n      swap1\n      return\n        /* \"levelup/newdex.sol\":838:863  uint256 public proportion */\n    tag_6:\n      tag_27\n      tag_28\n      jump\t// in\n    tag_27:\n      mload(0x40)\n      tag_29\n      swap2\n      swap1\n      tag_26\n      jump\t// in\n    tag_29:\n      mload(0x40)\n      dup1\n      swap2\n      sub\n      swap1\n      return\n        /* \"levelup/newdex.sol\":869:914  address public liquidityProvider = address(0) */\n    tag_7:\n      tag_30\n      tag_31\n      jump\t// in\n    tag_30:\n      mload(0x40)\n      tag_32\n      swap2\n      swap1\n      tag_33\n      jump\t// in\n    tag_32:\n      mload(0x40)\n      dup1\n      swap2\n      sub\n      swap1\n      return\n        /* \"levelup/newdex.sol\":787:807  IERC20 public tokenB */\n    tag_8:\n      tag_34\n      tag_35\n      jump\t// in\n    tag_34:\n      mload(0x40)\n      tag_36\n      swap2\n      swap1\n      tag_22\n      jump\t// in\n    tag_36:\n      mload(0x40)\n      dup1\n      swap2\n      sub\n      swap1\n      return\n        /* \"levelup/newdex.sol\":954:1013  uint256 public liquidityA = tokenA.balanceOf(address(this)) */\n    tag_9:\n      tag_37\n      tag_38\n      jump\t// in\n    tag_37:\n      mload(0x40)\n      tag_39\n      swap2\n      swap1\n      tag_26\n      jump\t// in\n    tag_39:\n      mload(0x40)\n      dup1\n      swap2\n      sub\n      swap1\n      return\n        /* \"levelup/newdex.sol\":1294:1924  function provideLiquidity(uint256 amountA, uint256 amountB) external {... */\n    tag_10:\n      tag_40\n      0x04\n      dup1\n      calldatasize\n      sub\n      dup2\n      add\n      swap1\n      tag_41\n      swap2\n      swap1\n      tag_42\n      jump\t// in\n    tag_41:\n      tag_43\n      jump\t// in\n    tag_40:\n      stop\n        /* \"levelup/newdex.sol\":1930:2728  function swapAforB() public  {... */\n    tag_11:\n      tag_44\n      tag_45\n      jump\t// in\n    tag_44:\n      stop\n        /* \"levelup/newdex.sol\":2733:3583  function swapBforA() public {... */\n    tag_12:\n      tag_46\n      tag_47\n      jump\t// in\n    tag_46:\n      stop\n        /* \"levelup/newdex.sol\":3589:3766  function getFlag() public view returns(string memory){... */\n    tag_13:\n      tag_48\n      tag_49\n      jump\t// in\n    tag_48:\n      mload(0x40)\n      tag_50\n      swap2\n      swap1\n      tag_51\n      jump\t// in\n    tag_50:\n      mload(0x40)\n      dup1\n      swap2\n      sub\n      swap1\n      return\n        /* \"levelup/newdex.sol\":920:948  bool public commissionEarned */\n    tag_16:\n      0x04\n      0x14\n      swap1\n      sload\n      swap1\n      0x0100\n      exp\n      swap1\n      div\n      0xff\n      and\n      dup2\n      jump\t// out\n        /* \"levelup/newdex.sol\":761:781  IERC20 public tokenA */\n    tag_20:\n      0x00\n      dup1\n      sload\n      swap1\n      0x0100\n      exp\n      swap1\n      div\n      0xffffffffffffffffffffffffffffffffffffffff\n      and\n      dup2\n      jump\t// out\n        /* \"levelup/newdex.sol\":1019:1078  uint256 public liquidityB = tokenB.balanceOf(address(this)) */\n    tag_24:\n      sload(0x06)\n      dup2\n      jump\t// out\n        /* \"levelup/newdex.sol\":838:863  uint256 public proportion */\n    tag_28:\n      sload(0x03)\n      dup2\n      jump\t// out\n        /* \"levelup/newdex.sol\":869:914  address public liquidityProvider = address(0) */\n    tag_31:\n      0x04\n      0x00\n      swap1\n      sload\n      swap1\n      0x0100\n      exp\n      swap1\n      div\n      0xffffffffffffffffffffffffffffffffffffffff\n      and\n      dup2\n      jump\t// out\n        /* \"levelup/newdex.sol\":787:807  IERC20 public tokenB */\n    tag_35:\n      0x01\n      0x00\n      swap1\n      sload\n      swap1\n      0x0100\n      exp\n      swap1\n      div\n      0xffffffffffffffffffffffffffffffffffffffff\n      and\n      dup2\n      jump\t// out\n        /* \"levelup/newdex.sol\":954:1013  uint256 public liquidityA = tokenA.balanceOf(address(this)) */\n    tag_38:\n      sload(0x05)\n      dup2\n      jump\t// out\n        /* \"levelup/newdex.sol\":1294:1924  function provideLiquidity(uint256 amountA, uint256 amountB) external {... */\n    tag_43:\n        /* \"levelup/newdex.sol\":1392:1395  100 */\n      0x64\n        /* \"levelup/newdex.sol\":1381:1388  amountA */\n      dup3\n        /* \"levelup/newdex.sol\":1381:1395  amountA >= 100 */\n      lt\n      iszero\n        /* \"levelup/newdex.sol\":1381:1413  amountA >= 100 && amountB >= 100 */\n      dup1\n      iszero\n      tag_53\n      jumpi\n      pop\n        /* \"levelup/newdex.sol\":1410:1413  100 */\n      0x64\n        /* \"levelup/newdex.sol\":1399:1406  amountB */\n      dup2\n        /* \"levelup/newdex.sol\":1399:1413  amountB >= 100 */\n      lt\n      iszero\n        /* \"levelup/newdex.sol\":1381:1413  amountA >= 100 && amountB >= 100 */\n    tag_53:\n        /* \"levelup/newdex.sol\":1373:1448  require(amountA >= 100 && amountB >= 100, \"Amounts must be greater than 0\") */\n      tag_54\n      jumpi\n      mload(0x40)\n      0x08c379a000000000000000000000000000000000000000000000000000000000\n      dup2\n      mstore\n      0x04\n      add\n      tag_55\n      swap1\n      tag_56\n      jump\t// in\n    tag_55:\n      mload(0x40)\n      dup1\n      swap2\n      sub\n      swap1\n      revert\n    tag_54:\n        /* \"levelup/newdex.sol\":1479:1485  tokenA */\n      0x00\n      dup1\n      sload\n      swap1\n      0x0100\n      exp\n      swap1\n      div\n      0xffffffffffffffffffffffffffffffffffffffff\n      and\n        /* \"levelup/newdex.sol\":1479:1498  tokenA.transferFrom */\n      0xffffffffffffffffffffffffffffffffffffffff\n      and\n      0x23b872dd\n        /* \"levelup/newdex.sol\":1499:1509  msg.sender */\n      caller\n        /* \"levelup/newdex.sol\":1519:1523  this */\n      address\n        /* \"levelup/newdex.sol\":1526:1533  amountA */\n      dup6\n        /* \"levelup/newdex.sol\":1479:1534  tokenA.transferFrom(msg.sender, address(this), amountA) */\n      mload(0x40)\n      dup5\n      0xffffffff\n      and\n      0xe0\n      shl\n      dup2\n      mstore\n      0x04\n      add\n      tag_57\n      swap4\n      swap3\n      swap2\n      swap1\n      tag_58\n      jump\t// in\n    tag_57:\n      0x20\n      mload(0x40)\n      dup1\n      dup4\n      sub\n      dup2\n      0x00\n      dup8\n      dup1\n      extcodesize\n      iszero\n      dup1\n      iszero\n      tag_59\n      jumpi\n      0x00\n      dup1\n      revert\n    tag_59:\n      pop\n      gas\n      call\n      iszero\n      dup1\n      iszero\n      tag_61\n      jumpi\n      returndatasize\n      0x00\n      dup1\n      returndatacopy\n      revert(0x00, returndatasize)\n    tag_61:\n      pop\n      pop\n      pop\n      pop\n      mload(0x40)\n      returndatasize\n      not(0x1f)\n      0x1f\n      dup3\n      add\n      and\n      dup3\n      add\n      dup1\n      0x40\n      mstore\n      pop\n      dup2\n      add\n      swap1\n      tag_62\n      swap2\n      swap1\n      tag_63\n      jump\t// in\n    tag_62:\n        /* \"levelup/newdex.sol\":1479:1609  tokenA.transferFrom(msg.sender, address(this), amountA) &&... */\n      dup1\n      iszero\n      tag_64\n      jumpi\n      pop\n        /* \"levelup/newdex.sol\":1554:1560  tokenB */\n      0x01\n      0x00\n      swap1\n      sload\n      swap1\n      0x0100\n      exp\n      swap1\n      div\n      0xffffffffffffffffffffffffffffffffffffffff\n      and\n        /* \"levelup/newdex.sol\":1554:1573  tokenB.transferFrom */\n      0xffffffffffffffffffffffffffffffffffffffff\n      and\n      0x23b872dd\n        /* \"levelup/newdex.sol\":1574:1584  msg.sender */\n      caller\n        /* \"levelup/newdex.sol\":1594:1598  this */\n      address\n        /* \"levelup/newdex.sol\":1601:1608  amountB */\n      dup5\n        /* \"levelup/newdex.sol\":1554:1609  tokenB.transferFrom(msg.sender, address(this), amountB) */\n      mload(0x40)\n      dup5\n      0xffffffff\n      and\n      0xe0\n      shl\n      dup2\n      mstore\n      0x04\n      add\n      tag_65\n      swap4\n      swap3\n      swap2\n      swap1\n      tag_58\n      jump\t// in\n    tag_65:\n      0x20\n      mload(0x40)\n      dup1\n      dup4\n      sub\n      dup2\n      0x00\n      dup8\n      dup1\n      extcodesize\n      iszero\n      dup1\n      iszero\n      tag_66\n      jumpi\n      0x00\n      dup1\n      revert\n    tag_66:\n      pop\n      gas\n      call\n      iszero\n      dup1\n      iszero\n      tag_68\n      jumpi\n      returndatasize\n      0x00\n      dup1\n      returndatacopy\n      revert(0x00, returndatasize)\n    tag_68:\n      pop\n      pop\n      pop\n      pop\n      mload(0x40)\n      returndatasize\n      not(0x1f)\n      0x1f\n      dup3\n      add\n      and\n      dup3\n      add\n      dup1\n      0x40\n      mstore\n      pop\n      dup2\n      add\n      swap1\n      tag_69\n      swap2\n      swap1\n      tag_63\n      jump\t// in\n    tag_69:\n        /* \"levelup/newdex.sol\":1479:1609  tokenA.transferFrom(msg.sender, address(this), amountA) &&... */\n    tag_64:\n        /* \"levelup/newdex.sol\":1458:1660  require(... */\n      tag_70\n      jumpi\n      mload(0x40)\n      0x08c379a000000000000000000000000000000000000000000000000000000000\n      dup2\n      mstore\n      0x04\n      add\n      tag_71\n      swap1\n      tag_72\n      jump\t// in\n    tag_71:\n      mload(0x40)\n      dup1\n      swap2\n      sub\n      swap1\n      revert\n    tag_70:\n        /* \"levelup/newdex.sol\":1702:1703  0 */\n      0x00\n        /* \"levelup/newdex.sol\":1673:1704  liquidityProvider == address(0) */\n      0xffffffffffffffffffffffffffffffffffffffff\n      and\n        /* \"levelup/newdex.sol\":1673:1690  liquidityProvider */\n      0x04\n      0x00\n      swap1\n      sload\n      swap1\n      0x0100\n      exp\n      swap1\n      div\n      0xffffffffffffffffffffffffffffffffffffffff\n      and\n        /* \"levelup/newdex.sol\":1673:1704  liquidityProvider == address(0) */\n      0xffffffffffffffffffffffffffffffffffffffff\n      and\n      eq\n        /* \"levelup/newdex.sol\":1670:1830  if(liquidityProvider == address(0)){... */\n      iszero\n      tag_73\n      jumpi\n        /* \"levelup/newdex.sol\":1737:1747  msg.sender */\n      caller\n        /* \"levelup/newdex.sol\":1719:1736  liquidityProvider */\n      0x04\n      0x00\n        /* \"levelup/newdex.sol\":1719:1747  liquidityProvider=msg.sender */\n      0x0100\n      exp\n      dup2\n      sload\n      dup2\n      0xffffffffffffffffffffffffffffffffffffffff\n      mul\n      not\n      and\n      swap1\n      dup4\n      0xffffffffffffffffffffffffffffffffffffffff\n      and\n      mul\n      or\n      swap1\n      sstore\n      pop\n        /* \"levelup/newdex.sol\":1670:1830  if(liquidityProvider == address(0)){... */\n      jump(tag_74)\n    tag_73:\n        /* \"levelup/newdex.sol\":1777:1819  revert(\"Liquidity provider already exist\") */\n      mload(0x40)\n      0x08c379a000000000000000000000000000000000000000000000000000000000\n      dup2\n      mstore\n      0x04\n      add\n      tag_75\n      swap1\n      tag_76\n      jump\t// in\n    tag_75:\n      mload(0x40)\n      dup1\n      swap2\n      sub\n      swap1\n      revert\n        /* \"levelup/newdex.sol\":1670:1830  if(liquidityProvider == address(0)){... */\n    tag_74:\n        /* \"levelup/newdex.sol\":1886:1892  tokenB */\n      0x01\n      0x00\n      swap1\n      sload\n      swap1\n      0x0100\n      exp\n      swap1\n      div\n      0xffffffffffffffffffffffffffffffffffffffff\n      and\n        /* \"levelup/newdex.sol\":1886:1902  tokenB.balanceOf */\n      0xffffffffffffffffffffffffffffffffffffffff\n      and\n      0x70a08231\n        /* \"levelup/newdex.sol\":1911:1915  this */\n      address\n        /* \"levelup/newdex.sol\":1886:1917  tokenB.balanceOf(address(this)) */\n      mload(0x40)\n      dup3\n      0xffffffff\n      and\n      0xe0\n      shl\n      dup2\n      mstore\n      0x04\n      add\n      tag_77\n      swap2\n      swap1\n      tag_33\n      jump\t// in\n    tag_77:\n      0x20\n      mload(0x40)\n      dup1\n      dup4\n      sub\n      dup2\n      dup7\n      dup1\n      extcodesize\n      iszero\n      dup1\n      iszero\n      tag_78\n      jumpi\n      0x00\n      dup1\n      revert\n    tag_78:\n      pop\n      gas\n      staticcall\n      iszero\n      dup1\n      iszero\n      tag_80\n      jumpi\n      returndatasize\n      0x00\n      dup1\n      returndatacopy\n      revert(0x00, returndatasize)\n    tag_80:\n      pop\n      pop\n      pop\n      pop\n      mload(0x40)\n      returndatasize\n      not(0x1f)\n      0x1f\n      dup3\n      add\n      and\n      dup3\n      add\n      dup1\n      0x40\n      mstore\n      pop\n      dup2\n      add\n      swap1\n      tag_81\n      swap2\n      swap1\n      tag_82\n      jump\t// in\n    tag_81:\n        /* \"levelup/newdex.sol\":1852:1858  tokenA */\n      0x00\n      dup1\n      sload\n      swap1\n      0x0100\n      exp\n      swap1\n      div\n      0xffffffffffffffffffffffffffffffffffffffff\n      and\n        /* \"levelup/newdex.sol\":1852:1868  tokenA.balanceOf */\n      0xffffffffffffffffffffffffffffffffffffffff\n      and\n      0x70a08231\n        /* \"levelup/newdex.sol\":1877:1881  this */\n      address\n        /* \"levelup/newdex.sol\":1852:1883  tokenA.balanceOf(address(this)) */\n      mload(0x40)\n      dup3\n      0xffffffff\n      and\n      0xe0\n      shl\n      dup2\n      mstore\n      0x04\n      add\n      tag_83\n      swap2\n      swap1\n      tag_33\n      jump\t// in\n    tag_83:\n      0x20\n      mload(0x40)\n      dup1\n      dup4\n      sub\n      dup2\n      dup7\n      dup1\n      extcodesize\n      iszero\n      dup1\n      iszero\n      tag_84\n      jumpi\n      0x00\n      dup1\n      revert\n    tag_84:\n      pop\n      gas\n      staticcall\n      iszero\n      dup1\n      iszero\n      tag_86\n      jumpi\n      returndatasize\n      0x00\n      dup1\n      returndatacopy\n      revert(0x00, returndatasize)\n    tag_86:\n      pop\n      pop\n      pop\n      pop\n      mload(0x40)\n      returndatasize\n      not(0x1f)\n      0x1f\n      dup3\n      add\n      and\n      dup3\n      add\n      dup1\n      0x40\n      mstore\n      pop\n      dup2\n      add\n      swap1\n      tag_87\n      swap2\n      swap1\n      tag_82\n      jump\t// in\n    tag_87:\n        /* \"levelup/newdex.sol\":1852:1917  tokenA.balanceOf(address(this)) * tokenB.balanceOf(address(this)) */\n      tag_88\n      swap2\n      swap1\n      tag_89\n      jump\t// in\n    tag_88:\n        /* \"levelup/newdex.sol\":1839:1849  proportion */\n      0x03\n        /* \"levelup/newdex.sol\":1839:1917  proportion = tokenA.balanceOf(address(this)) * tokenB.balanceOf(address(this)) */\n      dup2\n      swap1\n      sstore\n      pop\n        /* \"levelup/newdex.sol\":1294:1924  function provideLiquidity(uint256 amountA, uint256 amountB) external {... */\n      pop\n      pop\n      jump\t// out\n        /* \"levelup/newdex.sol\":1930:2728  function swapAforB() public  {... */\n    tag_45:\n        /* \"levelup/newdex.sol\":2008:2010  10 */\n      0x0a\n        /* \"levelup/newdex.sol\":1977:1983  tokenA */\n      0x00\n      dup1\n      sload\n      swap1\n      0x0100\n      exp\n      swap1\n      div\n      0xffffffffffffffffffffffffffffffffffffffff\n      and\n        /* \"levelup/newdex.sol\":1977:1993  tokenA.balanceOf */\n      0xffffffffffffffffffffffffffffffffffffffff\n      and\n      0x70a08231\n        /* \"levelup/newdex.sol\":1994:2004  msg.sender */\n      caller\n        /* \"levelup/newdex.sol\":1977:2005  tokenA.balanceOf(msg.sender) */\n      mload(0x40)\n      dup3\n      0xffffffff\n      and\n      0xe0\n      shl\n      dup2\n      mstore\n      0x04\n      add\n      tag_91\n      swap2\n      swap1\n      tag_33\n      jump\t// in\n    tag_91:\n      0x20\n      mload(0x40)\n      dup1\n      dup4\n      sub\n      dup2\n      dup7\n      dup1\n      extcodesize\n      iszero\n      dup1\n      iszero\n      tag_92\n      jumpi\n      0x00\n      dup1\n      revert\n    tag_92:\n      pop\n      gas\n      staticcall\n      iszero\n      dup1\n      iszero\n      tag_94\n      jumpi\n      returndatasize\n      0x00\n      dup1\n      returndatacopy\n      revert(0x00, returndatasize)\n    tag_94:\n      pop\n      pop\n      pop\n      pop\n      mload(0x40)\n      returndatasize\n      not(0x1f)\n      0x1f\n      dup3\n      add\n      and\n      dup3\n      add\n      dup1\n      0x40\n      mstore\n      pop\n      dup2\n      add\n      swap1\n      tag_95\n      swap2\n      swap1\n      tag_82\n      jump\t// in\n    tag_95:\n        /* \"levelup/newdex.sol\":1977:2010  tokenA.balanceOf(msg.sender)>= 10 */\n      lt\n      iszero\n        /* \"levelup/newdex.sol\":1969:2011  require(tokenA.balanceOf(msg.sender)>= 10) */\n      tag_96\n      jumpi\n      0x00\n      dup1\n      revert\n    tag_96:\n        /* \"levelup/newdex.sol\":2063:2065  99 */\n      0x63\n        /* \"levelup/newdex.sol\":2029:2035  tokenA */\n      0x00\n      dup1\n      sload\n      swap1\n      0x0100\n      exp\n      swap1\n      div\n      0xffffffffffffffffffffffffffffffffffffffff\n      and\n        /* \"levelup/newdex.sol\":2029:2045  tokenA.balanceOf */\n      0xffffffffffffffffffffffffffffffffffffffff\n      and\n      0x70a08231\n        /* \"levelup/newdex.sol\":2054:2058  this */\n      address\n        /* \"levelup/newdex.sol\":2029:2060  tokenA.balanceOf(address(this)) */\n      mload(0x40)\n      dup3\n      0xffffffff\n      and\n      0xe0\n      shl\n      dup2\n      mstore\n      0x04\n      add\n      tag_97\n      swap2\n      swap1\n      tag_33\n      jump\t// in\n    tag_97:\n      0x20\n      mload(0x40)\n      dup1\n      dup4\n      sub\n      dup2\n      dup7\n      dup1\n      extcodesize\n      iszero\n      dup1\n      iszero\n      tag_98\n      jumpi\n      0x00\n      dup1\n      revert\n    tag_98:\n      pop\n      gas\n      staticcall\n      iszero\n      dup1\n      iszero\n      tag_100\n      jumpi\n      returndatasize\n      0x00\n      dup1\n      returndatacopy\n      revert(0x00, returndatasize)\n    tag_100:\n      pop\n      pop\n      pop\n      pop\n      mload(0x40)\n      returndatasize\n      not(0x1f)\n      0x1f\n      dup3\n      add\n      and\n      dup3\n      add\n      dup1\n      0x40\n      mstore\n      pop\n      dup2\n      add\n      swap1\n      tag_101\n      swap2\n      swap1\n      tag_82\n      jump\t// in\n    tag_101:\n        /* \"levelup/newdex.sol\":2029:2065  tokenA.balanceOf(address(this)) > 99 */\n      gt\n        /* \"levelup/newdex.sol\":2021:2113  require(tokenA.balanceOf(address(this)) > 99, \"Insufficient tokenA balance in the contract\") */\n      tag_102\n      jumpi\n      mload(0x40)\n      0x08c379a000000000000000000000000000000000000000000000000000000000\n      dup2\n      mstore\n      0x04\n      add\n      tag_103\n      swap1\n      tag_104\n      jump\t// in\n    tag_103:\n      mload(0x40)\n      dup1\n      swap2\n      sub\n      swap1\n      revert\n    tag_102:\n        /* \"levelup/newdex.sol\":2165:2167  99 */\n      0x63\n        /* \"levelup/newdex.sol\":2131:2137  tokenB */\n      0x01\n      0x00\n      swap1\n      sload\n      swap1\n      0x0100\n      exp\n      swap1\n      div\n      0xffffffffffffffffffffffffffffffffffffffff\n      and\n        /* \"levelup/newdex.sol\":2131:2147  tokenB.balanceOf */\n      0xffffffffffffffffffffffffffffffffffffffff\n      and\n      0x70a08231\n        /* \"levelup/newdex.sol\":2156:2160  this */\n      address\n        /* \"levelup/newdex.sol\":2131:2162  tokenB.balanceOf(address(this)) */\n      mload(0x40)\n      dup3\n      0xffffffff\n      and\n      0xe0\n      shl\n      dup2\n      mstore\n      0x04\n      add\n      tag_105\n      swap2\n      swap1\n      tag_33\n      jump\t// in\n    tag_105:\n      0x20\n      mload(0x40)\n      dup1\n      dup4\n      sub\n      dup2\n      dup7\n      dup1\n      extcodesize\n      iszero\n      dup1\n      iszero\n      tag_106\n      jumpi\n      0x00\n      dup1\n      revert\n    tag_106:\n      pop\n      gas\n      staticcall\n      iszero\n      dup1\n      iszero\n      tag_108\n      jumpi\n      returndatasize\n      0x00\n      dup1\n      returndatacopy\n      revert(0x00, returndatasize)\n    tag_108:\n      pop\n      pop\n      pop\n      pop\n      mload(0x40)\n      returndatasize\n      not(0x1f)\n      0x1f\n      dup3\n      add\n      and\n      dup3\n      add\n      dup1\n      0x40\n      mstore\n      pop\n      dup2\n      add\n      swap1\n      tag_109\n      swap2\n      swap1\n      tag_82\n      jump\t// in\n    tag_109:\n        /* \"levelup/newdex.sol\":2131:2167  tokenB.balanceOf(address(this)) > 99 */\n      gt\n        /* \"levelup/newdex.sol\":2123:2215  require(tokenB.balanceOf(address(this)) > 99, \"Insufficient tokenB balance in the contract\") */\n      tag_110\n      jumpi\n      mload(0x40)\n      0x08c379a000000000000000000000000000000000000000000000000000000000\n      dup2\n      mstore\n      0x04\n      add\n      tag_111\n      swap1\n      tag_112\n      jump\t// in\n    tag_111:\n      mload(0x40)\n      dup1\n      swap2\n      sub\n      swap1\n      revert\n    tag_110:\n        /* \"levelup/newdex.sol\":2226:2232  tokenA */\n      0x00\n      dup1\n      sload\n      swap1\n      0x0100\n      exp\n      swap1\n      div\n      0xffffffffffffffffffffffffffffffffffffffff\n      and\n        /* \"levelup/newdex.sol\":2226:2245  tokenA.transferFrom */\n      0xffffffffffffffffffffffffffffffffffffffff\n      and\n      0x23b872dd\n        /* \"levelup/newdex.sol\":2246:2256  msg.sender */\n      caller\n        /* \"levelup/newdex.sol\":2266:2270  this */\n      address\n        /* \"levelup/newdex.sol\":2273:2275  10 */\n      0x0a\n        /* \"levelup/newdex.sol\":2226:2276  tokenA.transferFrom(msg.sender, address(this), 10) */\n      mload(0x40)\n      dup5\n      0xffffffff\n      and\n      0xe0\n      shl\n      dup2\n      mstore\n      0x04\n      add\n      tag_113\n      swap4\n      swap3\n      swap2\n      swap1\n      tag_114\n      jump\t// in\n    tag_113:\n      0x20\n      mload(0x40)\n      dup1\n      dup4\n      sub\n      dup2\n      0x00\n      dup8\n      dup1\n      extcodesize\n      iszero\n      dup1\n      iszero\n      tag_115\n      jumpi\n      0x00\n      dup1\n      revert\n    tag_115:\n      pop\n      gas\n      call\n      iszero\n      dup1\n      iszero\n      tag_117\n      jumpi\n      returndatasize\n      0x00\n      dup1\n      returndatacopy\n      revert(0x00, returndatasize)\n    tag_117:\n      pop\n      pop\n      pop\n      pop\n      mload(0x40)\n      returndatasize\n      not(0x1f)\n      0x1f\n      dup3\n      add\n      and\n      dup3\n      add\n      dup1\n      0x40\n      mstore\n      pop\n      dup2\n      add\n      swap1\n      tag_118\n      swap2\n      swap1\n      tag_63\n      jump\t// in\n    tag_118:\n      pop\n        /* \"levelup/newdex.sol\":2286:2303  uint256 newTokenB */\n      0x00\n        /* \"levelup/newdex.sol\":2320:2326  tokenA */\n      dup1\n      0x00\n      swap1\n      sload\n      swap1\n      0x0100\n      exp\n      swap1\n      div\n      0xffffffffffffffffffffffffffffffffffffffff\n      and\n        /* \"levelup/newdex.sol\":2320:2336  tokenA.balanceOf */\n      0xffffffffffffffffffffffffffffffffffffffff\n      and\n      0x70a08231\n        /* \"levelup/newdex.sol\":2345:2349  this */\n      address\n        /* \"levelup/newdex.sol\":2320:2351  tokenA.balanceOf(address(this)) */\n      mload(0x40)\n      dup3\n      0xffffffff\n      and\n      0xe0\n      shl\n      dup2\n      mstore\n      0x04\n      add\n      tag_119\n      swap2\n      swap1\n      tag_33\n      jump\t// in\n    tag_119:\n      0x20\n      mload(0x40)\n      dup1\n      dup4\n      sub\n      dup2\n      dup7\n      dup1\n      extcodesize\n      iszero\n      dup1\n      iszero\n      tag_120\n      jumpi\n      0x00\n      dup1\n      revert\n    tag_120:\n      pop\n      gas\n      staticcall\n      iszero\n      dup1\n      iszero\n      tag_122\n      jumpi\n      returndatasize\n      0x00\n      dup1\n      returndatacopy\n      revert(0x00, returndatasize)\n    tag_122:\n      pop\n      pop\n      pop\n      pop\n      mload(0x40)\n      returndatasize\n      not(0x1f)\n      0x1f\n      dup3\n      add\n      and\n      dup3\n      add\n      dup1\n      0x40\n      mstore\n      pop\n      dup2\n      add\n      swap1\n      tag_123\n      swap2\n      swap1\n      tag_82\n      jump\t// in\n    tag_123:\n        /* \"levelup/newdex.sol\":2307:2317  proportion */\n      sload(0x03)\n        /* \"levelup/newdex.sol\":2307:2351  proportion / tokenA.balanceOf(address(this)) */\n      tag_124\n      swap2\n      swap1\n      tag_125\n      jump\t// in\n    tag_124:\n        /* \"levelup/newdex.sol\":2286:2351  uint256 newTokenB =  proportion / tokenA.balanceOf(address(this)) */\n      swap1\n      pop\n        /* \"levelup/newdex.sol\":2361:2380  uint256 tokensBleft */\n      0x00\n        /* \"levelup/newdex.sol\":2417:2426  newTokenB */\n      dup2\n        /* \"levelup/newdex.sol\":2383:2389  tokenB */\n      0x01\n      0x00\n      swap1\n      sload\n      swap1\n      0x0100\n      exp\n      swap1\n      div\n      0xffffffffffffffffffffffffffffffffffffffff\n      and\n        /* \"levelup/newdex.sol\":2383:2399  tokenB.balanceOf */\n      0xffffffffffffffffffffffffffffffffffffffff\n      and\n      0x70a08231\n        /* \"levelup/newdex.sol\":2408:2412  this */\n      address\n        /* \"levelup/newdex.sol\":2383:2414  tokenB.balanceOf(address(this)) */\n      mload(0x40)\n      dup3\n      0xffffffff\n      and\n      0xe0\n      shl\n      dup2\n      mstore\n      0x04\n      add\n      tag_126\n      swap2\n      swap1\n      tag_33\n      jump\t// in\n    tag_126:\n      0x20\n      mload(0x40)\n      dup1\n      dup4\n      sub\n      dup2\n      dup7\n      dup1\n      extcodesize\n      iszero\n      dup1\n      iszero\n      tag_127\n      jumpi\n      0x00\n      dup1\n      revert\n    tag_127:\n      pop\n      gas\n      staticcall\n      iszero\n      dup1\n      iszero\n      tag_129\n      jumpi\n      returndatasize\n      0x00\n      dup1\n      returndatacopy\n      revert(0x00, returndatasize)\n    tag_129:\n      pop\n      pop\n      pop\n      pop\n      mload(0x40)\n      returndatasize\n      not(0x1f)\n      0x1f\n      dup3\n      add\n      and\n      dup3\n      add\n      dup1\n      0x40\n      mstore\n      pop\n      dup2\n      add\n      swap1\n      tag_130\n      swap2\n      swap1\n      tag_82\n      jump\t// in\n    tag_130:\n        /* \"levelup/newdex.sol\":2383:2426  tokenB.balanceOf(address(this)) - newTokenB */\n      tag_131\n      swap2\n      swap1\n      tag_132\n      jump\t// in\n    tag_131:\n        /* \"levelup/newdex.sol\":2361:2426  uint256 tokensBleft = tokenB.balanceOf(address(this)) - newTokenB */\n      swap1\n      pop\n        /* \"levelup/newdex.sol\":2436:2457  uint256 tokensSwapped */\n      0x00\n        /* \"levelup/newdex.sol\":2480:2482  10 */\n      0x0a\n        /* \"levelup/newdex.sol\":2475:2476  9 */\n      0x09\n        /* \"levelup/newdex.sol\":2461:2472  tokensBleft */\n      dup4\n        /* \"levelup/newdex.sol\":2461:2476  tokensBleft * 9 */\n      tag_133\n      swap2\n      swap1\n      tag_89\n      jump\t// in\n    tag_133:\n        /* \"levelup/newdex.sol\":2460:2482  (tokensBleft * 9) / 10 */\n      tag_134\n      swap2\n      swap1\n      tag_125\n      jump\t// in\n    tag_134:\n        /* \"levelup/newdex.sol\":2436:2482  uint256 tokensSwapped = (tokensBleft * 9) / 10 */\n      swap1\n      pop\n        /* \"levelup/newdex.sol\":2493:2511  uint256 commission */\n      0x00\n        /* \"levelup/newdex.sol\":2534:2536  10 */\n      0x0a\n        /* \"levelup/newdex.sol\":2529:2530  1 */\n      0x01\n        /* \"levelup/newdex.sol\":2515:2526  tokensBleft */\n      dup5\n        /* \"levelup/newdex.sol\":2515:2530  tokensBleft * 1 */\n      tag_135\n      swap2\n      swap1\n      tag_89\n      jump\t// in\n    tag_135:\n        /* \"levelup/newdex.sol\":2514:2536  (tokensBleft * 1) / 10 */\n      tag_136\n      swap2\n      swap1\n      tag_125\n      jump\t// in\n    tag_136:\n        /* \"levelup/newdex.sol\":2493:2536  uint256 commission = (tokensBleft * 1) / 10 */\n      swap1\n      pop\n        /* \"levelup/newdex.sol\":2549:2555  tokenB */\n      0x01\n      0x00\n      swap1\n      sload\n      swap1\n      0x0100\n      exp\n      swap1\n      div\n      0xffffffffffffffffffffffffffffffffffffffff\n      and\n        /* \"levelup/newdex.sol\":2549:2568  tokenB.transferFrom */\n      0xffffffffffffffffffffffffffffffffffffffff\n      and\n      0x23b872dd\n        /* \"levelup/newdex.sol\":2577:2581  this */\n      address\n        /* \"levelup/newdex.sol\":2583:2593  msg.sender */\n      caller\n        /* \"levelup/newdex.sol\":2595:2608  tokensSwapped */\n      dup6\n        /* \"levelup/newdex.sol\":2549:2609  tokenB.transferFrom(address(this),msg.sender, tokensSwapped) */\n      mload(0x40)\n      dup5\n      0xffffffff\n      and\n      0xe0\n      shl\n      dup2\n      mstore\n      0x04\n      add\n      tag_137\n      swap4\n      swap3\n      swap2\n      swap1\n      tag_58\n      jump\t// in\n    tag_137:\n      0x20\n      mload(0x40)\n      dup1\n      dup4\n      sub\n      dup2\n      0x00\n      dup8\n      dup1\n      extcodesize\n      iszero\n      dup1\n      iszero\n      tag_138\n      jumpi\n      0x00\n      dup1\n      revert\n    tag_138:\n      pop\n      gas\n      call\n      iszero\n      dup1\n      iszero\n      tag_140\n      jumpi\n      returndatasize\n      0x00\n      dup1\n      returndatacopy\n      revert(0x00, returndatasize)\n    tag_140:\n      pop\n      pop\n      pop\n      pop\n      mload(0x40)\n      returndatasize\n      not(0x1f)\n      0x1f\n      dup3\n      add\n      and\n      dup3\n      add\n      dup1\n      0x40\n      mstore\n      pop\n      dup2\n      add\n      swap1\n      tag_141\n      swap2\n      swap1\n      tag_63\n      jump\t// in\n    tag_141:\n      pop\n        /* \"levelup/newdex.sol\":2619:2625  tokenB */\n      0x01\n      0x00\n      swap1\n      sload\n      swap1\n      0x0100\n      exp\n      swap1\n      div\n      0xffffffffffffffffffffffffffffffffffffffff\n      and\n        /* \"levelup/newdex.sol\":2619:2638  tokenB.transferFrom */\n      0xffffffffffffffffffffffffffffffffffffffff\n      and\n      0x23b872dd\n        /* \"levelup/newdex.sol\":2647:2651  this */\n      address\n        /* \"levelup/newdex.sol\":2653:2670  liquidityProvider */\n      0x04\n      0x00\n      swap1\n      sload\n      swap1\n      0x0100\n      exp\n      swap1\n      div\n      0xffffffffffffffffffffffffffffffffffffffff\n      and\n        /* \"levelup/newdex.sol\":2671:2681  commission */\n      dup5\n        /* \"levelup/newdex.sol\":2619:2682  tokenB.transferFrom(address(this),liquidityProvider,commission) */\n      mload(0x40)\n      dup5\n      0xffffffff\n      and\n      0xe0\n      shl\n      dup2\n      mstore\n      0x04\n      add\n      tag_142\n      swap4\n      swap3\n      swap2\n      swap1\n      tag_58\n      jump\t// in\n    tag_142:\n      0x20\n      mload(0x40)\n      dup1\n      dup4\n      sub\n      dup2\n      0x00\n      dup8\n      dup1\n      extcodesize\n      iszero\n      dup1\n      iszero\n      tag_143\n      jumpi\n      0x00\n      dup1\n      revert\n    tag_143:\n      pop\n      gas\n      call\n      iszero\n      dup1\n      iszero\n      tag_145\n      jumpi\n      returndatasize\n      0x00\n      dup1\n      returndatacopy\n      revert(0x00, returndatasize)\n    tag_145:\n      pop\n      pop\n      pop\n      pop\n      mload(0x40)\n      returndatasize\n      not(0x1f)\n      0x1f\n      dup3\n      add\n      and\n      dup3\n      add\n      dup1\n      0x40\n      mstore\n      pop\n      dup2\n      add\n      swap1\n      tag_146\n      swap2\n      swap1\n      tag_63\n      jump\t// in\n    tag_146:\n      pop\n        /* \"levelup/newdex.sol\":2711:2715  true */\n      0x01\n        /* \"levelup/newdex.sol\":2692:2708  commissionEarned */\n      0x04\n      0x14\n        /* \"levelup/newdex.sol\":2692:2715  commissionEarned = true */\n      0x0100\n      exp\n      dup2\n      sload\n      dup2\n      0xff\n      mul\n      not\n      and\n      swap1\n      dup4\n      iszero\n      iszero\n      mul\n      or\n      swap1\n      sstore\n      pop\n        /* \"levelup/newdex.sol\":1930:2728  function swapAforB() public  {... */\n      pop\n      pop\n      pop\n      pop\n      jump\t// out\n        /* \"levelup/newdex.sol\":2733:3583  function swapBforA() public {... */\n    tag_47:\n        /* \"levelup/newdex.sol\":2811:2813  10 */\n      0x0a\n        /* \"levelup/newdex.sol\":2779:2785  tokenB */\n      0x01\n      0x00\n      swap1\n      sload\n      swap1\n      0x0100\n      exp\n      swap1\n      div\n      0xffffffffffffffffffffffffffffffffffffffff\n      and\n        /* \"levelup/newdex.sol\":2779:2795  tokenB.balanceOf */\n      0xffffffffffffffffffffffffffffffffffffffff\n      and\n      0x70a08231\n        /* \"levelup/newdex.sol\":2796:2806  msg.sender */\n      caller\n        /* \"levelup/newdex.sol\":2779:2807  tokenB.balanceOf(msg.sender) */\n      mload(0x40)\n      dup3\n      0xffffffff\n      and\n      0xe0\n      shl\n      dup2\n      mstore\n      0x04\n      add\n      tag_148\n      swap2\n      swap1\n      tag_33\n      jump\t// in\n    tag_148:\n      0x20\n      mload(0x40)\n      dup1\n      dup4\n      sub\n      dup2\n      dup7\n      dup1\n      extcodesize\n      iszero\n      dup1\n      iszero\n      tag_149\n      jumpi\n      0x00\n      dup1\n      revert\n    tag_149:\n      pop\n      gas\n      staticcall\n      iszero\n      dup1\n      iszero\n      tag_151\n      jumpi\n      returndatasize\n      0x00\n      dup1\n      returndatacopy\n      revert(0x00, returndatasize)\n    tag_151:\n      pop\n      pop\n      pop\n      pop\n      mload(0x40)\n      returndatasize\n      not(0x1f)\n      0x1f\n      dup3\n      add\n      and\n      dup3\n      add\n      dup1\n      0x40\n      mstore\n      pop\n      dup2\n      add\n      swap1\n      tag_152\n      swap2\n      swap1\n      tag_82\n      jump\t// in\n    tag_152:\n        /* \"levelup/newdex.sol\":2779:2813  tokenB.balanceOf(msg.sender) >= 10 */\n      lt\n      iszero\n        /* \"levelup/newdex.sol\":2771:2845  require(tokenB.balanceOf(msg.sender) >= 10, \"Insufficient tokenB balance\") */\n      tag_153\n      jumpi\n      mload(0x40)\n      0x08c379a000000000000000000000000000000000000000000000000000000000\n      dup2\n      mstore\n      0x04\n      add\n      tag_154\n      swap1\n      tag_155\n      jump\t// in\n    tag_154:\n      mload(0x40)\n      dup1\n      swap2\n      sub\n      swap1\n      revert\n    tag_153:\n        /* \"levelup/newdex.sol\":2897:2899  99 */\n      0x63\n        /* \"levelup/newdex.sol\":2863:2869  tokenB */\n      0x01\n      0x00\n      swap1\n      sload\n      swap1\n      0x0100\n      exp\n      swap1\n      div\n      0xffffffffffffffffffffffffffffffffffffffff\n      and\n        /* \"levelup/newdex.sol\":2863:2879  tokenB.balanceOf */\n      0xffffffffffffffffffffffffffffffffffffffff\n      and\n      0x70a08231\n        /* \"levelup/newdex.sol\":2888:2892  this */\n      address\n        /* \"levelup/newdex.sol\":2863:2894  tokenB.balanceOf(address(this)) */\n      mload(0x40)\n      dup3\n      0xffffffff\n      and\n      0xe0\n      shl\n      dup2\n      mstore\n      0x04\n      add\n      tag_156\n      swap2\n      swap1\n      tag_33\n      jump\t// in\n    tag_156:\n      0x20\n      mload(0x40)\n      dup1\n      dup4\n      sub\n      dup2\n      dup7\n      dup1\n      extcodesize\n      iszero\n      dup1\n      iszero\n      tag_157\n      jumpi\n      0x00\n      dup1\n      revert\n    tag_157:\n      pop\n      gas\n      staticcall\n      iszero\n      dup1\n      iszero\n      tag_159\n      jumpi\n      returndatasize\n      0x00\n      dup1\n      returndatacopy\n      revert(0x00, returndatasize)\n    tag_159:\n      pop\n      pop\n      pop\n      pop\n      mload(0x40)\n      returndatasize\n      not(0x1f)\n      0x1f\n      dup3\n      add\n      and\n      dup3\n      add\n      dup1\n      0x40\n      mstore\n      pop\n      dup2\n      add\n      swap1\n      tag_160\n      swap2\n      swap1\n      tag_82\n      jump\t// in\n    tag_160:\n        /* \"levelup/newdex.sol\":2863:2899  tokenB.balanceOf(address(this)) > 99 */\n      gt\n        /* \"levelup/newdex.sol\":2855:2947  require(tokenB.balanceOf(address(this)) > 99, \"Insufficient tokenB balance in the contract\") */\n      tag_161\n      jumpi\n      mload(0x40)\n      0x08c379a000000000000000000000000000000000000000000000000000000000\n      dup2\n      mstore\n      0x04\n      add\n      tag_162\n      swap1\n      tag_112\n      jump\t// in\n    tag_162:\n      mload(0x40)\n      dup1\n      swap2\n      sub\n      swap1\n      revert\n    tag_161:\n        /* \"levelup/newdex.sol\":2999:3001  99 */\n      0x63\n        /* \"levelup/newdex.sol\":2965:2971  tokenA */\n      0x00\n      dup1\n      sload\n      swap1\n      0x0100\n      exp\n      swap1\n      div\n      0xffffffffffffffffffffffffffffffffffffffff\n      and\n        /* \"levelup/newdex.sol\":2965:2981  tokenA.balanceOf */\n      0xffffffffffffffffffffffffffffffffffffffff\n      and\n      0x70a08231\n        /* \"levelup/newdex.sol\":2990:2994  this */\n      address\n        /* \"levelup/newdex.sol\":2965:2996  tokenA.balanceOf(address(this)) */\n      mload(0x40)\n      dup3\n      0xffffffff\n      and\n      0xe0\n      shl\n      dup2\n      mstore\n      0x04\n      add\n      tag_163\n      swap2\n      swap1\n      tag_33\n      jump\t// in\n    tag_163:\n      0x20\n      mload(0x40)\n      dup1\n      dup4\n      sub\n      dup2\n      dup7\n      dup1\n      extcodesize\n      iszero\n      dup1\n      iszero\n      tag_164\n      jumpi\n      0x00\n      dup1\n      revert\n    tag_164:\n      pop\n      gas\n      staticcall\n      iszero\n      dup1\n      iszero\n      tag_166\n      jumpi\n      returndatasize\n      0x00\n      dup1\n      returndatacopy\n      revert(0x00, returndatasize)\n    tag_166:\n      pop\n      pop\n      pop\n      pop\n      mload(0x40)\n      returndatasize\n      not(0x1f)\n      0x1f\n      dup3\n      add\n      and\n      dup3\n      add\n      dup1\n      0x40\n      mstore\n      pop\n      dup2\n      add\n      swap1\n      tag_167\n      swap2\n      swap1\n      tag_82\n      jump\t// in\n    tag_167:\n        /* \"levelup/newdex.sol\":2965:3001  tokenA.balanceOf(address(this)) > 99 */\n      gt\n        /* \"levelup/newdex.sol\":2957:3049  require(tokenA.balanceOf(address(this)) > 99, \"Insufficient tokenA balance in the contract\") */\n      tag_168\n      jumpi\n      mload(0x40)\n      0x08c379a000000000000000000000000000000000000000000000000000000000\n      dup2\n      mstore\n      0x04\n      add\n      tag_169\n      swap1\n      tag_104\n      jump\t// in\n    tag_169:\n      mload(0x40)\n      dup1\n      swap2\n      sub\n      swap1\n      revert\n    tag_168:\n        /* \"levelup/newdex.sol\":3068:3074  tokenB */\n      0x01\n      0x00\n      swap1\n      sload\n      swap1\n      0x0100\n      exp\n      swap1\n      div\n      0xffffffffffffffffffffffffffffffffffffffff\n      and\n        /* \"levelup/newdex.sol\":3068:3087  tokenB.transferFrom */\n      0xffffffffffffffffffffffffffffffffffffffff\n      and\n      0x23b872dd\n        /* \"levelup/newdex.sol\":3088:3098  msg.sender */\n      caller\n        /* \"levelup/newdex.sol\":3108:3112  this */\n      address\n        /* \"levelup/newdex.sol\":3115:3117  10 */\n      0x0a\n        /* \"levelup/newdex.sol\":3068:3118  tokenB.transferFrom(msg.sender, address(this), 10) */\n      mload(0x40)\n      dup5\n      0xffffffff\n      and\n      0xe0\n      shl\n      dup2\n      mstore\n      0x04\n      add\n      tag_170\n      swap4\n      swap3\n      swap2\n      swap1\n      tag_114\n      jump\t// in\n    tag_170:\n      0x20\n      mload(0x40)\n      dup1\n      dup4\n      sub\n      dup2\n      0x00\n      dup8\n      dup1\n      extcodesize\n      iszero\n      dup1\n      iszero\n      tag_171\n      jumpi\n      0x00\n      dup1\n      revert\n    tag_171:\n      pop\n      gas\n      call\n      iszero\n      dup1\n      iszero\n      tag_173\n      jumpi\n      returndatasize\n      0x00\n      dup1\n      returndatacopy\n      revert(0x00, returndatasize)\n    tag_173:\n      pop\n      pop\n      pop\n      pop\n      mload(0x40)\n      returndatasize\n      not(0x1f)\n      0x1f\n      dup3\n      add\n      and\n      dup3\n      add\n      dup1\n      0x40\n      mstore\n      pop\n      dup2\n      add\n      swap1\n      tag_174\n      swap2\n      swap1\n      tag_63\n      jump\t// in\n    tag_174:\n      pop\n        /* \"levelup/newdex.sol\":3137:3154  uint256 newTokenA */\n      0x00\n        /* \"levelup/newdex.sol\":3170:3176  tokenB */\n      0x01\n      0x00\n      swap1\n      sload\n      swap1\n      0x0100\n      exp\n      swap1\n      div\n      0xffffffffffffffffffffffffffffffffffffffff\n      and\n        /* \"levelup/newdex.sol\":3170:3186  tokenB.balanceOf */\n      0xffffffffffffffffffffffffffffffffffffffff\n      and\n      0x70a08231\n        /* \"levelup/newdex.sol\":3195:3199  this */\n      address\n        /* \"levelup/newdex.sol\":3170:3201  tokenB.balanceOf(address(this)) */\n      mload(0x40)\n      dup3\n      0xffffffff\n      and\n      0xe0\n      shl\n      dup2\n      mstore\n      0x04\n      add\n      tag_175\n      swap2\n      swap1\n      tag_33\n      jump\t// in\n    tag_175:\n      0x20\n      mload(0x40)\n      dup1\n      dup4\n      sub\n      dup2\n      dup7\n      dup1\n      extcodesize\n      iszero\n      dup1\n      iszero\n      tag_176\n      jumpi\n      0x00\n      dup1\n      revert\n    tag_176:\n      pop\n      gas\n      staticcall\n      iszero\n      dup1\n      iszero\n      tag_178\n      jumpi\n      returndatasize\n      0x00\n      dup1\n      returndatacopy\n      revert(0x00, returndatasize)\n    tag_178:\n      pop\n      pop\n      pop\n      pop\n      mload(0x40)\n      returndatasize\n      not(0x1f)\n      0x1f\n      dup3\n      add\n      and\n      dup3\n      add\n      dup1\n      0x40\n      mstore\n      pop\n      dup2\n      add\n      swap1\n      tag_179\n      swap2\n      swap1\n      tag_82\n      jump\t// in\n    tag_179:\n        /* \"levelup/newdex.sol\":3157:3167  proportion */\n      sload(0x03)\n        /* \"levelup/newdex.sol\":3157:3201  proportion / tokenB.balanceOf(address(this)) */\n      tag_180\n      swap2\n      swap1\n      tag_125\n      jump\t// in\n    tag_180:\n        /* \"levelup/newdex.sol\":3137:3201  uint256 newTokenA = proportion / tokenB.balanceOf(address(this)) */\n      swap1\n      pop\n        /* \"levelup/newdex.sol\":3211:3230  uint256 tokensAleft */\n      0x00\n        /* \"levelup/newdex.sol\":3267:3276  newTokenA */\n      dup2\n        /* \"levelup/newdex.sol\":3233:3239  tokenA */\n      0x00\n      dup1\n      sload\n      swap1\n      0x0100\n      exp\n      swap1\n      div\n      0xffffffffffffffffffffffffffffffffffffffff\n      and\n        /* \"levelup/newdex.sol\":3233:3249  tokenA.balanceOf */\n      0xffffffffffffffffffffffffffffffffffffffff\n      and\n      0x70a08231\n        /* \"levelup/newdex.sol\":3258:3262  this */\n      address\n        /* \"levelup/newdex.sol\":3233:3264  tokenA.balanceOf(address(this)) */\n      mload(0x40)\n      dup3\n      0xffffffff\n      and\n      0xe0\n      shl\n      dup2\n      mstore\n      0x04\n      add\n      tag_181\n      swap2\n      swap1\n      tag_33\n      jump\t// in\n    tag_181:\n      0x20\n      mload(0x40)\n      dup1\n      dup4\n      sub\n      dup2\n      dup7\n      dup1\n      extcodesize\n      iszero\n      dup1\n      iszero\n      tag_182\n      jumpi\n      0x00\n      dup1\n      revert\n    tag_182:\n      pop\n      gas\n      staticcall\n      iszero\n      dup1\n      iszero\n      tag_184\n      jumpi\n      returndatasize\n      0x00\n      dup1\n      returndatacopy\n      revert(0x00, returndatasize)\n    tag_184:\n      pop\n      pop\n      pop\n      pop\n      mload(0x40)\n      returndatasize\n      not(0x1f)\n      0x1f\n      dup3\n      add\n      and\n      dup3\n      add\n      dup1\n      0x40\n      mstore\n      pop\n      dup2\n      add\n      swap1\n      tag_185\n      swap2\n      swap1\n      tag_82\n      jump\t// in\n    tag_185:\n        /* \"levelup/newdex.sol\":3233:3276  tokenA.balanceOf(address(this)) - newTokenA */\n      tag_186\n      swap2\n      swap1\n      tag_132\n      jump\t// in\n    tag_186:\n        /* \"levelup/newdex.sol\":3211:3276  uint256 tokensAleft = tokenA.balanceOf(address(this)) - newTokenA */\n      swap1\n      pop\n        /* \"levelup/newdex.sol\":3286:3307  uint256 tokensSwapped */\n      0x00\n        /* \"levelup/newdex.sol\":3330:3332  10 */\n      0x0a\n        /* \"levelup/newdex.sol\":3325:3326  9 */\n      0x09\n        /* \"levelup/newdex.sol\":3311:3322  tokensAleft */\n      dup4\n        /* \"levelup/newdex.sol\":3311:3326  tokensAleft * 9 */\n      tag_187\n      swap2\n      swap1\n      tag_89\n      jump\t// in\n    tag_187:\n        /* \"levelup/newdex.sol\":3310:3332  (tokensAleft * 9) / 10 */\n      tag_188\n      swap2\n      swap1\n      tag_125\n      jump\t// in\n    tag_188:\n        /* \"levelup/newdex.sol\":3286:3332  uint256 tokensSwapped = (tokensAleft * 9) / 10 */\n      swap1\n      pop\n        /* \"levelup/newdex.sol\":3343:3361  uint256 commission */\n      0x00\n        /* \"levelup/newdex.sol\":3384:3386  10 */\n      0x0a\n        /* \"levelup/newdex.sol\":3379:3380  1 */\n      0x01\n        /* \"levelup/newdex.sol\":3365:3376  tokensAleft */\n      dup5\n        /* \"levelup/newdex.sol\":3365:3380  tokensAleft * 1 */\n      tag_189\n      swap2\n      swap1\n      tag_89\n      jump\t// in\n    tag_189:\n        /* \"levelup/newdex.sol\":3364:3386  (tokensAleft * 1) / 10 */\n      tag_190\n      swap2\n      swap1\n      tag_125\n      jump\t// in\n    tag_190:\n        /* \"levelup/newdex.sol\":3343:3386  uint256 commission = (tokensAleft * 1) / 10 */\n      swap1\n      pop\n        /* \"levelup/newdex.sol\":3407:3413  tokenA */\n      0x00\n      dup1\n      sload\n      swap1\n      0x0100\n      exp\n      swap1\n      div\n      0xffffffffffffffffffffffffffffffffffffffff\n      and\n        /* \"levelup/newdex.sol\":3407:3426  tokenA.transferFrom */\n      0xffffffffffffffffffffffffffffffffffffffff\n      and\n      0x23b872dd\n        /* \"levelup/newdex.sol\":3435:3439  this */\n      address\n        /* \"levelup/newdex.sol\":3442:3452  msg.sender */\n      caller\n        /* \"levelup/newdex.sol\":3454:3467  tokensSwapped */\n      dup6\n        /* \"levelup/newdex.sol\":3407:3468  tokenA.transferFrom(address(this), msg.sender, tokensSwapped) */\n      mload(0x40)\n      dup5\n      0xffffffff\n      and\n      0xe0\n      shl\n      dup2\n      mstore\n      0x04\n      add\n      tag_191\n      swap4\n      swap3\n      swap2\n      swap1\n      tag_58\n      jump\t// in\n    tag_191:\n      0x20\n      mload(0x40)\n      dup1\n      dup4\n      sub\n      dup2\n      0x00\n      dup8\n      dup1\n      extcodesize\n      iszero\n      dup1\n      iszero\n      tag_192\n      jumpi\n      0x00\n      dup1\n      revert\n    tag_192:\n      pop\n      gas\n      call\n      iszero\n      dup1\n      iszero\n      tag_194\n      jumpi\n      returndatasize\n      0x00\n      dup1\n      returndatacopy\n      revert(0x00, returndatasize)\n    tag_194:\n      pop\n      pop\n      pop\n      pop\n      mload(0x40)\n      returndatasize\n      not(0x1f)\n      0x1f\n      dup3\n      add\n      and\n      dup3\n      add\n      dup1\n      0x40\n      mstore\n      pop\n      dup2\n      add\n      swap1\n      tag_195\n      swap2\n      swap1\n      tag_63\n      jump\t// in\n    tag_195:\n      pop\n        /* \"levelup/newdex.sol\":3478:3484  tokenA */\n      0x00\n      dup1\n      sload\n      swap1\n      0x0100\n      exp\n      swap1\n      div\n      0xffffffffffffffffffffffffffffffffffffffff\n      and\n        /* \"levelup/newdex.sol\":3478:3497  tokenA.transferFrom */\n      0xffffffffffffffffffffffffffffffffffffffff\n      and\n      0x23b872dd\n        /* \"levelup/newdex.sol\":3506:3510  this */\n      address\n        /* \"levelup/newdex.sol\":3513:3530  liquidityProvider */\n      0x04\n      0x00\n      swap1\n      sload\n      swap1\n      0x0100\n      exp\n      swap1\n      div\n      0xffffffffffffffffffffffffffffffffffffffff\n      and\n        /* \"levelup/newdex.sol\":3532:3542  commission */\n      dup5\n        /* \"levelup/newdex.sol\":3478:3543  tokenA.transferFrom(address(this), liquidityProvider, commission) */\n      mload(0x40)\n      dup5\n      0xffffffff\n      and\n      0xe0\n      shl\n      dup2\n      mstore\n      0x04\n      add\n      tag_196\n      swap4\n      swap3\n      swap2\n      swap1\n      tag_58\n      jump\t// in\n    tag_196:\n      0x20\n      mload(0x40)\n      dup1\n      dup4\n      sub\n      dup2\n      0x00\n      dup8\n      dup1\n      extcodesize\n      iszero\n      dup1\n      iszero\n      tag_197\n      jumpi\n      0x00\n      dup1\n      revert\n    tag_197:\n      pop\n      gas\n      call\n      iszero\n      dup1\n      iszero\n      tag_199\n      jumpi\n      returndatasize\n      0x00\n      dup1\n      returndatacopy\n      revert(0x00, returndatasize)\n    tag_199:\n      pop\n      pop\n      pop\n      pop\n      mload(0x40)\n      returndatasize\n      not(0x1f)\n      0x1f\n      dup3\n      add\n      and\n      dup3\n      add\n      dup1\n      0x40\n      mstore\n      pop\n      dup2\n      add\n      swap1\n      tag_200\n      swap2\n      swap1\n      tag_63\n      jump\t// in\n    tag_200:\n      pop\n        /* \"levelup/newdex.sol\":3572:3576  true */\n      0x01\n        /* \"levelup/newdex.sol\":3553:3569  commissionEarned */\n      0x04\n      0x14\n        /* \"levelup/newdex.sol\":3553:3576  commissionEarned = true */\n      0x0100\n      exp\n      dup2\n      sload\n      dup2\n      0xff\n      mul\n      not\n      and\n      swap1\n      dup4\n      iszero\n      iszero\n      mul\n      or\n      swap1\n      sstore\n      pop\n        /* \"levelup/newdex.sol\":2733:3583  function swapBforA() public {... */\n      pop\n      pop\n      pop\n      pop\n      jump\t// out\n        /* \"levelup/newdex.sol\":3589:3766  function getFlag() public view returns(string memory){... */\n    tag_49:\n        /* \"levelup/newdex.sol\":3628:3641  string memory */\n      0x60\n        /* \"levelup/newdex.sol\":3680:3684  true */\n      0x01\n        /* \"levelup/newdex.sol\":3660:3684  commissionEarned == true */\n      iszero\n      iszero\n        /* \"levelup/newdex.sol\":3660:3676  commissionEarned */\n      0x04\n      0x14\n      swap1\n      sload\n      swap1\n      0x0100\n      exp\n      swap1\n      div\n      0xff\n      and\n        /* \"levelup/newdex.sol\":3660:3684  commissionEarned == true */\n      iszero\n      iszero\n      eq\n        /* \"levelup/newdex.sol\":3652:3738  require(commissionEarned == true,\"El liquidityProvider no ha ganado ninguna comision\") */\n      tag_202\n      jumpi\n      mload(0x40)\n      0x08c379a000000000000000000000000000000000000000000000000000000000\n      dup2\n      mstore\n      0x04\n      add\n      tag_203\n      swap1\n      tag_204\n      jump\t// in\n    tag_203:\n      mload(0x40)\n      dup1\n      swap2\n      sub\n      swap1\n      revert\n    tag_202:\n        /* \"levelup/newdex.sol\":3755:3759  flag */\n      0x02\n        /* \"levelup/newdex.sol\":3748:3759  return flag */\n      dup1\n      sload\n      tag_205\n      swap1\n      tag_206\n      jump\t// in\n    tag_205:\n      dup1\n      0x1f\n      add\n      0x20\n      dup1\n      swap2\n      div\n      mul\n      0x20\n      add\n      mload(0x40)\n      swap1\n      dup2\n      add\n      0x40\n      mstore\n      dup1\n      swap3\n      swap2\n      swap1\n      dup2\n      dup2\n      mstore\n      0x20\n      add\n      dup3\n      dup1\n      sload\n      tag_207\n      swap1\n      tag_206\n      jump\t// in\n    tag_207:\n      dup1\n      iszero\n      tag_208\n      jumpi\n      dup1\n      0x1f\n      lt\n      tag_209\n      jumpi\n      0x0100\n      dup1\n      dup4\n      sload\n      div\n      mul\n      dup4\n      mstore\n      swap2\n      0x20\n      add\n      swap2\n      jump(tag_208)\n    tag_209:\n      dup3\n      add\n      swap2\n      swap1\n      0x00\n      mstore\n      keccak256(0x00, 0x20)\n      swap1\n    tag_210:\n      dup2\n      sload\n      dup2\n      mstore\n      swap1\n      0x01\n      add\n      swap1\n      0x20\n      add\n      dup1\n      dup4\n      gt\n      tag_210\n      jumpi\n      dup3\n      swap1\n      sub\n      0x1f\n      and\n      dup3\n      add\n      swap2\n    tag_208:\n      pop\n      pop\n      pop\n      pop\n      pop\n      swap1\n      pop\n        /* \"levelup/newdex.sol\":3589:3766  function getFlag() public view returns(string memory){... */\n      swap1\n      jump\t// out\n        /* \"#utility.yul\":7:144   */\n    tag_212:\n        /* \"#utility.yul\":61:66   */\n      0x00\n        /* \"#utility.yul\":92:98   */\n      dup2\n        /* \"#utility.yul\":86:99   */\n      mload\n        /* \"#utility.yul\":77:99   */\n      swap1\n      pop\n        /* \"#utility.yul\":108:138   */\n      tag_214\n        /* \"#utility.yul\":132:137   */\n      dup2\n        /* \"#utility.yul\":108:138   */\n      tag_215\n      jump\t// in\n    tag_214:\n        /* \"#utility.yul\":67:144   */\n      swap3\n      swap2\n      pop\n      pop\n      jump\t// out\n        /* \"#utility.yul\":150:289   */\n    tag_216:\n        /* \"#utility.yul\":196:201   */\n      0x00\n        /* \"#utility.yul\":234:240   */\n      dup2\n        /* \"#utility.yul\":221:241   */\n      calldataload\n        /* \"#utility.yul\":212:241   */\n      swap1\n      pop\n        /* \"#utility.yul\":250:283   */\n      tag_218\n        /* \"#utility.yul\":277:282   */\n      dup2\n        /* \"#utility.yul\":250:283   */\n      tag_219\n      jump\t// in\n    tag_218:\n        /* \"#utility.yul\":202:289   */\n      swap3\n      swap2\n      pop\n      pop\n      jump\t// out\n        /* \"#utility.yul\":295:438   */\n    tag_220:\n        /* \"#utility.yul\":352:357   */\n      0x00\n        /* \"#utility.yul\":383:389   */\n      dup2\n        /* \"#utility.yul\":377:390   */\n      mload\n        /* \"#utility.yul\":368:390   */\n      swap1\n      pop\n        /* \"#utility.yul\":399:432   */\n      tag_222\n        /* \"#utility.yul\":426:431   */\n      dup2\n        /* \"#utility.yul\":399:432   */\n      tag_219\n      jump\t// in\n    tag_222:\n        /* \"#utility.yul\":358:438   */\n      swap3\n      swap2\n      pop\n      pop\n      jump\t// out\n        /* \"#utility.yul\":444:722   */\n    tag_63:\n        /* \"#utility.yul\":511:517   */\n      0x00\n        /* \"#utility.yul\":560:562   */\n      0x20\n        /* \"#utility.yul\":548:557   */\n      dup3\n        /* \"#utility.yul\":539:546   */\n      dup5\n        /* \"#utility.yul\":535:558   */\n      sub\n        /* \"#utility.yul\":531:563   */\n      slt\n        /* \"#utility.yul\":528:530   */\n      iszero\n      tag_224\n      jumpi\n        /* \"#utility.yul\":576:577   */\n      0x00\n        /* \"#utility.yul\":573:574   */\n      dup1\n        /* \"#utility.yul\":566:578   */\n      revert\n        /* \"#utility.yul\":528:530   */\n    tag_224:\n        /* \"#utility.yul\":619:620   */\n      0x00\n        /* \"#utility.yul\":644:705   */\n      tag_225\n        /* \"#utility.yul\":697:704   */\n      dup5\n        /* \"#utility.yul\":688:694   */\n      dup3\n        /* \"#utility.yul\":677:686   */\n      dup6\n        /* \"#utility.yul\":673:695   */\n      add\n        /* \"#utility.yul\":644:705   */\n      tag_212\n      jump\t// in\n    tag_225:\n        /* \"#utility.yul\":634:705   */\n      swap2\n      pop\n        /* \"#utility.yul\":590:715   */\n      pop\n        /* \"#utility.yul\":518:722   */\n      swap3\n      swap2\n      pop\n      pop\n      jump\t// out\n        /* \"#utility.yul\":728:1012   */\n    tag_82:\n        /* \"#utility.yul\":798:804   */\n      0x00\n        /* \"#utility.yul\":847:849   */\n      0x20\n        /* \"#utility.yul\":835:844   */\n      dup3\n        /* \"#utility.yul\":826:833   */\n      dup5\n        /* \"#utility.yul\":822:845   */\n      sub\n        /* \"#utility.yul\":818:850   */\n      slt\n        /* \"#utility.yul\":815:817   */\n      iszero\n      tag_227\n      jumpi\n        /* \"#utility.yul\":863:864   */\n      0x00\n        /* \"#utility.yul\":860:861   */\n      dup1\n        /* \"#utility.yul\":853:865   */\n      revert\n        /* \"#utility.yul\":815:817   */\n    tag_227:\n        /* \"#utility.yul\":906:907   */\n      0x00\n        /* \"#utility.yul\":931:995   */\n      tag_228\n        /* \"#utility.yul\":987:994   */\n      dup5\n        /* \"#utility.yul\":978:984   */\n      dup3\n        /* \"#utility.yul\":967:976   */\n      dup6\n        /* \"#utility.yul\":963:985   */\n      add\n        /* \"#utility.yul\":931:995   */\n      tag_220\n      jump\t// in\n    tag_228:\n        /* \"#utility.yul\":921:995   */\n      swap2\n      pop\n        /* \"#utility.yul\":877:1005   */\n      pop\n        /* \"#utility.yul\":805:1012   */\n      swap3\n      swap2\n      pop\n      pop\n      jump\t// out\n        /* \"#utility.yul\":1018:1425   */\n    tag_42:\n        /* \"#utility.yul\":1086:1092   */\n      0x00\n        /* \"#utility.yul\":1094:1100   */\n      dup1\n        /* \"#utility.yul\":1143:1145   */\n      0x40\n        /* \"#utility.yul\":1131:1140   */\n      dup4\n        /* \"#utility.yul\":1122:1129   */\n      dup6\n        /* \"#utility.yul\":1118:1141   */\n      sub\n        /* \"#utility.yul\":1114:1146   */\n      slt\n        /* \"#utility.yul\":1111:1113   */\n      iszero\n      tag_230\n      jumpi\n        /* \"#utility.yul\":1159:1160   */\n      0x00\n        /* \"#utility.yul\":1156:1157   */\n      dup1\n        /* \"#utility.yul\":1149:1161   */\n      revert\n        /* \"#utility.yul\":1111:1113   */\n    tag_230:\n        /* \"#utility.yul\":1202:1203   */\n      0x00\n        /* \"#utility.yul\":1227:1280   */\n      tag_231\n        /* \"#utility.yul\":1272:1279   */\n      dup6\n        /* \"#utility.yul\":1263:1269   */\n      dup3\n        /* \"#utility.yul\":1252:1261   */\n      dup7\n        /* \"#utility.yul\":1248:1270   */\n      add\n        /* \"#utility.yul\":1227:1280   */\n      tag_216\n      jump\t// in\n    tag_231:\n        /* \"#utility.yul\":1217:1280   */\n      swap3\n      pop\n        /* \"#utility.yul\":1173:1290   */\n      pop\n        /* \"#utility.yul\":1329:1331   */\n      0x20\n        /* \"#utility.yul\":1355:1408   */\n      tag_232\n        /* \"#utility.yul\":1400:1407   */\n      dup6\n        /* \"#utility.yul\":1391:1397   */\n      dup3\n        /* \"#utility.yul\":1380:1389   */\n      dup7\n        /* \"#utility.yul\":1376:1398   */\n      add\n        /* \"#utility.yul\":1355:1408   */\n      tag_216\n      jump\t// in\n    tag_232:\n        /* \"#utility.yul\":1345:1408   */\n      swap2\n      pop\n        /* \"#utility.yul\":1300:1418   */\n      pop\n        /* \"#utility.yul\":1101:1425   */\n      swap3\n      pop\n      swap3\n      swap1\n      pop\n      jump\t// out\n        /* \"#utility.yul\":1431:1549   */\n    tag_233:\n        /* \"#utility.yul\":1518:1542   */\n      tag_235\n        /* \"#utility.yul\":1536:1541   */\n      dup2\n        /* \"#utility.yul\":1518:1542   */\n      tag_236\n      jump\t// in\n    tag_235:\n        /* \"#utility.yul\":1513:1516   */\n      dup3\n        /* \"#utility.yul\":1506:1543   */\n      mstore\n        /* \"#utility.yul\":1496:1549   */\n      pop\n      pop\n      jump\t// out\n        /* \"#utility.yul\":1555:1664   */\n    tag_237:\n        /* \"#utility.yul\":1636:1657   */\n      tag_239\n        /* \"#utility.yul\":1651:1656   */\n      dup2\n        /* \"#utility.yul\":1636:1657   */\n      tag_240\n      jump\t// in\n    tag_239:\n        /* \"#utility.yul\":1631:1634   */\n      dup3\n        /* \"#utility.yul\":1624:1658   */\n      mstore\n        /* \"#utility.yul\":1614:1664   */\n      pop\n      pop\n      jump\t// out\n        /* \"#utility.yul\":1670:1827   */\n    tag_241:\n        /* \"#utility.yul\":1770:1820   */\n      tag_243\n        /* \"#utility.yul\":1814:1819   */\n      dup2\n        /* \"#utility.yul\":1770:1820   */\n      tag_244\n      jump\t// in\n    tag_243:\n        /* \"#utility.yul\":1765:1768   */\n      dup3\n        /* \"#utility.yul\":1758:1821   */\n      mstore\n        /* \"#utility.yul\":1748:1827   */\n      pop\n      pop\n      jump\t// out\n        /* \"#utility.yul\":1833:1982   */\n    tag_245:\n        /* \"#utility.yul\":1929:1975   */\n      tag_247\n        /* \"#utility.yul\":1969:1974   */\n      dup2\n        /* \"#utility.yul\":1929:1975   */\n      tag_248\n      jump\t// in\n    tag_247:\n        /* \"#utility.yul\":1924:1927   */\n      dup3\n        /* \"#utility.yul\":1917:1976   */\n      mstore\n        /* \"#utility.yul\":1907:1982   */\n      pop\n      pop\n      jump\t// out\n        /* \"#utility.yul\":1988:2352   */\n    tag_249:\n        /* \"#utility.yul\":2076:2079   */\n      0x00\n        /* \"#utility.yul\":2104:2143   */\n      tag_251\n        /* \"#utility.yul\":2137:2142   */\n      dup3\n        /* \"#utility.yul\":2104:2143   */\n      tag_252\n      jump\t// in\n    tag_251:\n        /* \"#utility.yul\":2159:2230   */\n      tag_253\n        /* \"#utility.yul\":2223:2229   */\n      dup2\n        /* \"#utility.yul\":2218:2221   */\n      dup6\n        /* \"#utility.yul\":2159:2230   */\n      tag_254\n      jump\t// in\n    tag_253:\n        /* \"#utility.yul\":2152:2230   */\n      swap4\n      pop\n        /* \"#utility.yul\":2239:2291   */\n      tag_255\n        /* \"#utility.yul\":2284:2290   */\n      dup2\n        /* \"#utility.yul\":2279:2282   */\n      dup6\n        /* \"#utility.yul\":2272:2276   */\n      0x20\n        /* \"#utility.yul\":2265:2270   */\n      dup7\n        /* \"#utility.yul\":2261:2277   */\n      add\n        /* \"#utility.yul\":2239:2291   */\n      tag_256\n      jump\t// in\n    tag_255:\n        /* \"#utility.yul\":2316:2345   */\n      tag_257\n        /* \"#utility.yul\":2338:2344   */\n      dup2\n        /* \"#utility.yul\":2316:2345   */\n      tag_258\n      jump\t// in\n    tag_257:\n        /* \"#utility.yul\":2311:2314   */\n      dup5\n        /* \"#utility.yul\":2307:2346   */\n      add\n        /* \"#utility.yul\":2300:2346   */\n      swap2\n      pop\n        /* \"#utility.yul\":2080:2352   */\n      pop\n      swap3\n      swap2\n      pop\n      pop\n      jump\t// out\n        /* \"#utility.yul\":2358:2724   */\n    tag_259:\n        /* \"#utility.yul\":2500:2503   */\n      0x00\n        /* \"#utility.yul\":2521:2588   */\n      tag_261\n        /* \"#utility.yul\":2585:2587   */\n      0x32\n        /* \"#utility.yul\":2580:2583   */\n      dup4\n        /* \"#utility.yul\":2521:2588   */\n      tag_254\n      jump\t// in\n    tag_261:\n        /* \"#utility.yul\":2514:2588   */\n      swap2\n      pop\n        /* \"#utility.yul\":2597:2690   */\n      tag_262\n        /* \"#utility.yul\":2686:2689   */\n      dup3\n        /* \"#utility.yul\":2597:2690   */\n      tag_263\n      jump\t// in\n    tag_262:\n        /* \"#utility.yul\":2715:2717   */\n      0x40\n        /* \"#utility.yul\":2710:2713   */\n      dup3\n        /* \"#utility.yul\":2706:2718   */\n      add\n        /* \"#utility.yul\":2699:2718   */\n      swap1\n      pop\n        /* \"#utility.yul\":2504:2724   */\n      swap2\n      swap1\n      pop\n      jump\t// out\n        /* \"#utility.yul\":2730:3096   */\n    tag_264:\n        /* \"#utility.yul\":2872:2875   */\n      0x00\n        /* \"#utility.yul\":2893:2960   */\n      tag_266\n        /* \"#utility.yul\":2957:2959   */\n      0x1b\n        /* \"#utility.yul\":2952:2955   */\n      dup4\n        /* \"#utility.yul\":2893:2960   */\n      tag_254\n      jump\t// in\n    tag_266:\n        /* \"#utility.yul\":2886:2960   */\n      swap2\n      pop\n        /* \"#utility.yul\":2969:3062   */\n      tag_267\n        /* \"#utility.yul\":3058:3061   */\n      dup3\n        /* \"#utility.yul\":2969:3062   */\n      tag_268\n      jump\t// in\n    tag_267:\n        /* \"#utility.yul\":3087:3089   */\n      0x20\n        /* \"#utility.yul\":3082:3085   */\n      dup3\n        /* \"#utility.yul\":3078:3090   */\n      add\n        /* \"#utility.yul\":3071:3090   */\n      swap1\n      pop\n        /* \"#utility.yul\":2876:3096   */\n      swap2\n      swap1\n      pop\n      jump\t// out\n        /* \"#utility.yul\":3102:3468   */\n    tag_269:\n        /* \"#utility.yul\":3244:3247   */\n      0x00\n        /* \"#utility.yul\":3265:3332   */\n      tag_271\n        /* \"#utility.yul\":3329:3331   */\n      0x20\n        /* \"#utility.yul\":3324:3327   */\n      dup4\n        /* \"#utility.yul\":3265:3332   */\n      tag_254\n      jump\t// in\n    tag_271:\n        /* \"#utility.yul\":3258:3332   */\n      swap2\n      pop\n        /* \"#utility.yul\":3341:3434   */\n      tag_272\n        /* \"#utility.yul\":3430:3433   */\n      dup3\n        /* \"#utility.yul\":3341:3434   */\n      tag_273\n      jump\t// in\n    tag_272:\n        /* \"#utility.yul\":3459:3461   */\n      0x20\n        /* \"#utility.yul\":3454:3457   */\n      dup3\n        /* \"#utility.yul\":3450:3462   */\n      add\n        /* \"#utility.yul\":3443:3462   */\n      swap1\n      pop\n        /* \"#utility.yul\":3248:3468   */\n      swap2\n      swap1\n      pop\n      jump\t// out\n        /* \"#utility.yul\":3474:3840   */\n    tag_274:\n        /* \"#utility.yul\":3616:3619   */\n      0x00\n        /* \"#utility.yul\":3637:3704   */\n      tag_276\n        /* \"#utility.yul\":3701:3703   */\n      0x2b\n        /* \"#utility.yul\":3696:3699   */\n      dup4\n        /* \"#utility.yul\":3637:3704   */\n      tag_254\n      jump\t// in\n    tag_276:\n        /* \"#utility.yul\":3630:3704   */\n      swap2\n      pop\n        /* \"#utility.yul\":3713:3806   */\n      tag_277\n        /* \"#utility.yul\":3802:3805   */\n      dup3\n        /* \"#utility.yul\":3713:3806   */\n      tag_278\n      jump\t// in\n    tag_277:\n        /* \"#utility.yul\":3831:3833   */\n      0x40\n        /* \"#utility.yul\":3826:3829   */\n      dup3\n        /* \"#utility.yul\":3822:3834   */\n      add\n        /* \"#utility.yul\":3815:3834   */\n      swap1\n      pop\n        /* \"#utility.yul\":3620:3840   */\n      swap2\n      swap1\n      pop\n      jump\t// out\n        /* \"#utility.yul\":3846:4212   */\n    tag_279:\n        /* \"#utility.yul\":3988:3991   */\n      0x00\n        /* \"#utility.yul\":4009:4076   */\n      tag_281\n        /* \"#utility.yul\":4073:4075   */\n      0x1e\n        /* \"#utility.yul\":4068:4071   */\n      dup4\n        /* \"#utility.yul\":4009:4076   */\n      tag_254\n      jump\t// in\n    tag_281:\n        /* \"#utility.yul\":4002:4076   */\n      swap2\n      pop\n        /* \"#utility.yul\":4085:4178   */\n      tag_282\n        /* \"#utility.yul\":4174:4177   */\n      dup3\n        /* \"#utility.yul\":4085:4178   */\n      tag_283\n      jump\t// in\n    tag_282:\n        /* \"#utility.yul\":4203:4205   */\n      0x20\n        /* \"#utility.yul\":4198:4201   */\n      dup3\n        /* \"#utility.yul\":4194:4206   */\n      add\n        /* \"#utility.yul\":4187:4206   */\n      swap1\n      pop\n        /* \"#utility.yul\":3992:4212   */\n      swap2\n      swap1\n      pop\n      jump\t// out\n        /* \"#utility.yul\":4218:4584   */\n    tag_284:\n        /* \"#utility.yul\":4360:4363   */\n      0x00\n        /* \"#utility.yul\":4381:4448   */\n      tag_286\n        /* \"#utility.yul\":4445:4447   */\n      0x19\n        /* \"#utility.yul\":4440:4443   */\n      dup4\n        /* \"#utility.yul\":4381:4448   */\n      tag_254\n      jump\t// in\n    tag_286:\n        /* \"#utility.yul\":4374:4448   */\n      swap2\n      pop\n        /* \"#utility.yul\":4457:4550   */\n      tag_287\n        /* \"#utility.yul\":4546:4549   */\n      dup3\n        /* \"#utility.yul\":4457:4550   */\n      tag_288\n      jump\t// in\n    tag_287:\n        /* \"#utility.yul\":4575:4577   */\n      0x20\n        /* \"#utility.yul\":4570:4573   */\n      dup3\n        /* \"#utility.yul\":4566:4578   */\n      add\n        /* \"#utility.yul\":4559:4578   */\n      swap1\n      pop\n        /* \"#utility.yul\":4364:4584   */\n      swap2\n      swap1\n      pop\n      jump\t// out\n        /* \"#utility.yul\":4590:4956   */\n    tag_289:\n        /* \"#utility.yul\":4732:4735   */\n      0x00\n        /* \"#utility.yul\":4753:4820   */\n      tag_291\n        /* \"#utility.yul\":4817:4819   */\n      0x2b\n        /* \"#utility.yul\":4812:4815   */\n      dup4\n        /* \"#utility.yul\":4753:4820   */\n      tag_254\n      jump\t// in\n    tag_291:\n        /* \"#utility.yul\":4746:4820   */\n      swap2\n      pop\n        /* \"#utility.yul\":4829:4922   */\n      tag_292\n        /* \"#utility.yul\":4918:4921   */\n      dup3\n        /* \"#utility.yul\":4829:4922   */\n      tag_293\n      jump\t// in\n    tag_292:\n        /* \"#utility.yul\":4947:4949   */\n      0x40\n        /* \"#utility.yul\":4942:4945   */\n      dup3\n        /* \"#utility.yul\":4938:4950   */\n      add\n        /* \"#utility.yul\":4931:4950   */\n      swap1\n      pop\n        /* \"#utility.yul\":4736:4956   */\n      swap2\n      swap1\n      pop\n      jump\t// out\n        /* \"#utility.yul\":4962:5080   */\n    tag_294:\n        /* \"#utility.yul\":5049:5073   */\n      tag_296\n        /* \"#utility.yul\":5067:5072   */\n      dup2\n        /* \"#utility.yul\":5049:5073   */\n      tag_297\n      jump\t// in\n    tag_296:\n        /* \"#utility.yul\":5044:5047   */\n      dup3\n        /* \"#utility.yul\":5037:5074   */\n      mstore\n        /* \"#utility.yul\":5027:5080   */\n      pop\n      pop\n      jump\t// out\n        /* \"#utility.yul\":5086:5308   */\n    tag_33:\n        /* \"#utility.yul\":5179:5183   */\n      0x00\n        /* \"#utility.yul\":5217:5219   */\n      0x20\n        /* \"#utility.yul\":5206:5215   */\n      dup3\n        /* \"#utility.yul\":5202:5220   */\n      add\n        /* \"#utility.yul\":5194:5220   */\n      swap1\n      pop\n        /* \"#utility.yul\":5230:5301   */\n      tag_299\n        /* \"#utility.yul\":5298:5299   */\n      0x00\n        /* \"#utility.yul\":5287:5296   */\n      dup4\n        /* \"#utility.yul\":5283:5300   */\n      add\n        /* \"#utility.yul\":5274:5280   */\n      dup5\n        /* \"#utility.yul\":5230:5301   */\n      tag_233\n      jump\t// in\n    tag_299:\n        /* \"#utility.yul\":5184:5308   */\n      swap3\n      swap2\n      pop\n      pop\n      jump\t// out\n        /* \"#utility.yul\":5314:5774   */\n    tag_114:\n        /* \"#utility.yul\":5472:5476   */\n      0x00\n        /* \"#utility.yul\":5510:5512   */\n      0x60\n        /* \"#utility.yul\":5499:5508   */\n      dup3\n        /* \"#utility.yul\":5495:5513   */\n      add\n        /* \"#utility.yul\":5487:5513   */\n      swap1\n      pop\n        /* \"#utility.yul\":5523:5594   */\n      tag_301\n        /* \"#utility.yul\":5591:5592   */\n      0x00\n        /* \"#utility.yul\":5580:5589   */\n      dup4\n        /* \"#utility.yul\":5576:5593   */\n      add\n        /* \"#utility.yul\":5567:5573   */\n      dup7\n        /* \"#utility.yul\":5523:5594   */\n      tag_233\n      jump\t// in\n    tag_301:\n        /* \"#utility.yul\":5604:5676   */\n      tag_302\n        /* \"#utility.yul\":5672:5674   */\n      0x20\n        /* \"#utility.yul\":5661:5670   */\n      dup4\n        /* \"#utility.yul\":5657:5675   */\n      add\n        /* \"#utility.yul\":5648:5654   */\n      dup6\n        /* \"#utility.yul\":5604:5676   */\n      tag_233\n      jump\t// in\n    tag_302:\n        /* \"#utility.yul\":5686:5767   */\n      tag_303\n        /* \"#utility.yul\":5763:5765   */\n      0x40\n        /* \"#utility.yul\":5752:5761   */\n      dup4\n        /* \"#utility.yul\":5748:5766   */\n      add\n        /* \"#utility.yul\":5739:5745   */\n      dup5\n        /* \"#utility.yul\":5686:5767   */\n      tag_245\n      jump\t// in\n    tag_303:\n        /* \"#utility.yul\":5477:5774   */\n      swap5\n      swap4\n      pop\n      pop\n      pop\n      pop\n      jump\t// out\n        /* \"#utility.yul\":5780:6222   */\n    tag_58:\n        /* \"#utility.yul\":5929:5933   */\n      0x00\n        /* \"#utility.yul\":5967:5969   */\n      0x60\n        /* \"#utility.yul\":5956:5965   */\n      dup3\n        /* \"#utility.yul\":5952:5970   */\n      add\n        /* \"#utility.yul\":5944:5970   */\n      swap1\n      pop\n        /* \"#utility.yul\":5980:6051   */\n      tag_305\n        /* \"#utility.yul\":6048:6049   */\n      0x00\n        /* \"#utility.yul\":6037:6046   */\n      dup4\n        /* \"#utility.yul\":6033:6050   */\n      add\n        /* \"#utility.yul\":6024:6030   */\n      dup7\n        /* \"#utility.yul\":5980:6051   */\n      tag_233\n      jump\t// in\n    tag_305:\n        /* \"#utility.yul\":6061:6133   */\n      tag_306\n        /* \"#utility.yul\":6129:6131   */\n      0x20\n        /* \"#utility.yul\":6118:6127   */\n      dup4\n        /* \"#utility.yul\":6114:6132   */\n      add\n        /* \"#utility.yul\":6105:6111   */\n      dup6\n        /* \"#utility.yul\":6061:6133   */\n      tag_233\n      jump\t// in\n    tag_306:\n        /* \"#utility.yul\":6143:6215   */\n      tag_307\n        /* \"#utility.yul\":6211:6213   */\n      0x40\n        /* \"#utility.yul\":6200:6209   */\n      dup4\n        /* \"#utility.yul\":6196:6214   */\n      add\n        /* \"#utility.yul\":6187:6193   */\n      dup5\n        /* \"#utility.yul\":6143:6215   */\n      tag_294\n      jump\t// in\n    tag_307:\n        /* \"#utility.yul\":5934:6222   */\n      swap5\n      swap4\n      pop\n      pop\n      pop\n      pop\n      jump\t// out\n        /* \"#utility.yul\":6228:6438   */\n    tag_18:\n        /* \"#utility.yul\":6315:6319   */\n      0x00\n        /* \"#utility.yul\":6353:6355   */\n      0x20\n        /* \"#utility.yul\":6342:6351   */\n      dup3\n        /* \"#utility.yul\":6338:6356   */\n      add\n        /* \"#utility.yul\":6330:6356   */\n      swap1\n      pop\n        /* \"#utility.yul\":6366:6431   */\n      tag_309\n        /* \"#utility.yul\":6428:6429   */\n      0x00\n        /* \"#utility.yul\":6417:6426   */\n      dup4\n        /* \"#utility.yul\":6413:6430   */\n      add\n        /* \"#utility.yul\":6404:6410   */\n      dup5\n        /* \"#utility.yul\":6366:6431   */\n      tag_237\n      jump\t// in\n    tag_309:\n        /* \"#utility.yul\":6320:6438   */\n      swap3\n      swap2\n      pop\n      pop\n      jump\t// out\n        /* \"#utility.yul\":6444:6692   */\n    tag_22:\n        /* \"#utility.yul\":6550:6554   */\n      0x00\n        /* \"#utility.yul\":6588:6590   */\n      0x20\n        /* \"#utility.yul\":6577:6586   */\n      dup3\n        /* \"#utility.yul\":6573:6591   */\n      add\n        /* \"#utility.yul\":6565:6591   */\n      swap1\n      pop\n        /* \"#utility.yul\":6601:6685   */\n      tag_311\n        /* \"#utility.yul\":6682:6683   */\n      0x00\n        /* \"#utility.yul\":6671:6680   */\n      dup4\n        /* \"#utility.yul\":6667:6684   */\n      add\n        /* \"#utility.yul\":6658:6664   */\n      dup5\n        /* \"#utility.yul\":6601:6685   */\n      tag_241\n      jump\t// in\n    tag_311:\n        /* \"#utility.yul\":6555:6692   */\n      swap3\n      swap2\n      pop\n      pop\n      jump\t// out\n        /* \"#utility.yul\":6698:7011   */\n    tag_51:\n        /* \"#utility.yul\":6811:6815   */\n      0x00\n        /* \"#utility.yul\":6849:6851   */\n      0x20\n        /* \"#utility.yul\":6838:6847   */\n      dup3\n        /* \"#utility.yul\":6834:6852   */\n      add\n        /* \"#utility.yul\":6826:6852   */\n      swap1\n      pop\n        /* \"#utility.yul\":6898:6907   */\n      dup2\n        /* \"#utility.yul\":6892:6896   */\n      dup2\n        /* \"#utility.yul\":6888:6908   */\n      sub\n        /* \"#utility.yul\":6884:6885   */\n      0x00\n        /* \"#utility.yul\":6873:6882   */\n      dup4\n        /* \"#utility.yul\":6869:6886   */\n      add\n        /* \"#utility.yul\":6862:6909   */\n      mstore\n        /* \"#utility.yul\":6926:7004   */\n      tag_313\n        /* \"#utility.yul\":6999:7003   */\n      dup2\n        /* \"#utility.yul\":6990:6996   */\n      dup5\n        /* \"#utility.yul\":6926:7004   */\n      tag_249\n      jump\t// in\n    tag_313:\n        /* \"#utility.yul\":6918:7004   */\n      swap1\n      pop\n        /* \"#utility.yul\":6816:7011   */\n      swap3\n      swap2\n      pop\n      pop\n      jump\t// out\n        /* \"#utility.yul\":7017:7436   */\n    tag_204:\n        /* \"#utility.yul\":7183:7187   */\n      0x00\n        /* \"#utility.yul\":7221:7223   */\n      0x20\n        /* \"#utility.yul\":7210:7219   */\n      dup3\n        /* \"#utility.yul\":7206:7224   */\n      add\n        /* \"#utility.yul\":7198:7224   */\n      swap1\n      pop\n        /* \"#utility.yul\":7270:7279   */\n      dup2\n        /* \"#utility.yul\":7264:7268   */\n      dup2\n        /* \"#utility.yul\":7260:7280   */\n      sub\n        /* \"#utility.yul\":7256:7257   */\n      0x00\n        /* \"#utility.yul\":7245:7254   */\n      dup4\n        /* \"#utility.yul\":7241:7258   */\n      add\n        /* \"#utility.yul\":7234:7281   */\n      mstore\n        /* \"#utility.yul\":7298:7429   */\n      tag_315\n        /* \"#utility.yul\":7424:7428   */\n      dup2\n        /* \"#utility.yul\":7298:7429   */\n      tag_259\n      jump\t// in\n    tag_315:\n        /* \"#utility.yul\":7290:7429   */\n      swap1\n      pop\n        /* \"#utility.yul\":7188:7436   */\n      swap2\n      swap1\n      pop\n      jump\t// out\n        /* \"#utility.yul\":7442:7861   */\n    tag_155:\n        /* \"#utility.yul\":7608:7612   */\n      0x00\n        /* \"#utility.yul\":7646:7648   */\n      0x20\n        /* \"#utility.yul\":7635:7644   */\n      dup3\n        /* \"#utility.yul\":7631:7649   */\n      add\n        /* \"#utility.yul\":7623:7649   */\n      swap1\n      pop\n        /* \"#utility.yul\":7695:7704   */\n      dup2\n        /* \"#utility.yul\":7689:7693   */\n      dup2\n        /* \"#utility.yul\":7685:7705   */\n      sub\n        /* \"#utility.yul\":7681:7682   */\n      0x00\n        /* \"#utility.yul\":7670:7679   */\n      dup4\n        /* \"#utility.yul\":7666:7683   */\n      add\n        /* \"#utility.yul\":7659:7706   */\n      mstore\n        /* \"#utility.yul\":7723:7854   */\n      tag_317\n        /* \"#utility.yul\":7849:7853   */\n      dup2\n        /* \"#utility.yul\":7723:7854   */\n      tag_264\n      jump\t// in\n    tag_317:\n        /* \"#utility.yul\":7715:7854   */\n      swap1\n      pop\n        /* \"#utility.yul\":7613:7861   */\n      swap2\n      swap1\n      pop\n      jump\t// out\n        /* \"#utility.yul\":7867:8286   */\n    tag_76:\n        /* \"#utility.yul\":8033:8037   */\n      0x00\n        /* \"#utility.yul\":8071:8073   */\n      0x20\n        /* \"#utility.yul\":8060:8069   */\n      dup3\n        /* \"#utility.yul\":8056:8074   */\n      add\n        /* \"#utility.yul\":8048:8074   */\n      swap1\n      pop\n        /* \"#utility.yul\":8120:8129   */\n      dup2\n        /* \"#utility.yul\":8114:8118   */\n      dup2\n        /* \"#utility.yul\":8110:8130   */\n      sub\n        /* \"#utility.yul\":8106:8107   */\n      0x00\n        /* \"#utility.yul\":8095:8104   */\n      dup4\n        /* \"#utility.yul\":8091:8108   */\n      add\n        /* \"#utility.yul\":8084:8131   */\n      mstore\n        /* \"#utility.yul\":8148:8279   */\n      tag_319\n        /* \"#utility.yul\":8274:8278   */\n      dup2\n        /* \"#utility.yul\":8148:8279   */\n      tag_269\n      jump\t// in\n    tag_319:\n        /* \"#utility.yul\":8140:8279   */\n      swap1\n      pop\n        /* \"#utility.yul\":8038:8286   */\n      swap2\n      swap1\n      pop\n      jump\t// out\n        /* \"#utility.yul\":8292:8711   */\n    tag_104:\n        /* \"#utility.yul\":8458:8462   */\n      0x00\n        /* \"#utility.yul\":8496:8498   */\n      0x20\n        /* \"#utility.yul\":8485:8494   */\n      dup3\n        /* \"#utility.yul\":8481:8499   */\n      add\n        /* \"#utility.yul\":8473:8499   */\n      swap1\n      pop\n        /* \"#utility.yul\":8545:8554   */\n      dup2\n        /* \"#utility.yul\":8539:8543   */\n      dup2\n        /* \"#utility.yul\":8535:8555   */\n      sub\n        /* \"#utility.yul\":8531:8532   */\n      0x00\n        /* \"#utility.yul\":8520:8529   */\n      dup4\n        /* \"#utility.yul\":8516:8533   */\n      add\n        /* \"#utility.yul\":8509:8556   */\n      mstore\n        /* \"#utility.yul\":8573:8704   */\n      tag_321\n        /* \"#utility.yul\":8699:8703   */\n      dup2\n        /* \"#utility.yul\":8573:8704   */\n      tag_274\n      jump\t// in\n    tag_321:\n        /* \"#utility.yul\":8565:8704   */\n      swap1\n      pop\n        /* \"#utility.yul\":8463:8711   */\n      swap2\n      swap1\n      pop\n      jump\t// out\n        /* \"#utility.yul\":8717:9136   */\n    tag_56:\n        /* \"#utility.yul\":8883:8887   */\n      0x00\n        /* \"#utility.yul\":8921:8923   */\n      0x20\n        /* \"#utility.yul\":8910:8919   */\n      dup3\n        /* \"#utility.yul\":8906:8924   */\n      add\n        /* \"#utility.yul\":8898:8924   */\n      swap1\n      pop\n        /* \"#utility.yul\":8970:8979   */\n      dup2\n        /* \"#utility.yul\":8964:8968   */\n      dup2\n        /* \"#utility.yul\":8960:8980   */\n      sub\n        /* \"#utility.yul\":8956:8957   */\n      0x00\n        /* \"#utility.yul\":8945:8954   */\n      dup4\n        /* \"#utility.yul\":8941:8958   */\n      add\n        /* \"#utility.yul\":8934:8981   */\n      mstore\n        /* \"#utility.yul\":8998:9129   */\n      tag_323\n        /* \"#utility.yul\":9124:9128   */\n      dup2\n        /* \"#utility.yul\":8998:9129   */\n      tag_279\n      jump\t// in\n    tag_323:\n        /* \"#utility.yul\":8990:9129   */\n      swap1\n      pop\n        /* \"#utility.yul\":8888:9136   */\n      swap2\n      swap1\n      pop\n      jump\t// out\n        /* \"#utility.yul\":9142:9561   */\n    tag_72:\n        /* \"#utility.yul\":9308:9312   */\n      0x00\n        /* \"#utility.yul\":9346:9348   */\n      0x20\n        /* \"#utility.yul\":9335:9344   */\n      dup3\n        /* \"#utility.yul\":9331:9349   */\n      add\n        /* \"#utility.yul\":9323:9349   */\n      swap1\n      pop\n        /* \"#utility.yul\":9395:9404   */\n      dup2\n        /* \"#utility.yul\":9389:9393   */\n      dup2\n        /* \"#utility.yul\":9385:9405   */\n      sub\n        /* \"#utility.yul\":9381:9382   */\n      0x00\n        /* \"#utility.yul\":9370:9379   */\n      dup4\n        /* \"#utility.yul\":9366:9383   */\n      add\n        /* \"#utility.yul\":9359:9406   */\n      mstore\n        /* \"#utility.yul\":9423:9554   */\n      tag_325\n        /* \"#utility.yul\":9549:9553   */\n      dup2\n        /* \"#utility.yul\":9423:9554   */\n      tag_284\n      jump\t// in\n    tag_325:\n        /* \"#utility.yul\":9415:9554   */\n      swap1\n      pop\n        /* \"#utility.yul\":9313:9561   */\n      swap2\n      swap1\n      pop\n      jump\t// out\n        /* \"#utility.yul\":9567:9986   */\n    tag_112:\n        /* \"#utility.yul\":9733:9737   */\n      0x00\n        /* \"#utility.yul\":9771:9773   */\n      0x20\n        /* \"#utility.yul\":9760:9769   */\n      dup3\n        /* \"#utility.yul\":9756:9774   */\n      add\n        /* \"#utility.yul\":9748:9774   */\n      swap1\n      pop\n        /* \"#utility.yul\":9820:9829   */\n      dup2\n        /* \"#utility.yul\":9814:9818   */\n      dup2\n        /* \"#utility.yul\":9810:9830   */\n      sub\n        /* \"#utility.yul\":9806:9807   */\n      0x00\n        /* \"#utility.yul\":9795:9804   */\n      dup4\n        /* \"#utility.yul\":9791:9808   */\n      add\n        /* \"#utility.yul\":9784:9831   */\n      mstore\n        /* \"#utility.yul\":9848:9979   */\n      tag_327\n        /* \"#utility.yul\":9974:9978   */\n      dup2\n        /* \"#utility.yul\":9848:9979   */\n      tag_289\n      jump\t// in\n    tag_327:\n        /* \"#utility.yul\":9840:9979   */\n      swap1\n      pop\n        /* \"#utility.yul\":9738:9986   */\n      swap2\n      swap1\n      pop\n      jump\t// out\n        /* \"#utility.yul\":9992:10214   */\n    tag_26:\n        /* \"#utility.yul\":10085:10089   */\n      0x00\n        /* \"#utility.yul\":10123:10125   */\n      0x20\n        /* \"#utility.yul\":10112:10121   */\n      dup3\n        /* \"#utility.yul\":10108:10126   */\n      add\n        /* \"#utility.yul\":10100:10126   */\n      swap1\n      pop\n        /* \"#utility.yul\":10136:10207   */\n      tag_329\n        /* \"#utility.yul\":10204:10205   */\n      0x00\n        /* \"#utility.yul\":10193:10202   */\n      dup4\n        /* \"#utility.yul\":10189:10206   */\n      add\n        /* \"#utility.yul\":10180:10186   */\n      dup5\n        /* \"#utility.yul\":10136:10207   */\n      tag_294\n      jump\t// in\n    tag_329:\n        /* \"#utility.yul\":10090:10214   */\n      swap3\n      swap2\n      pop\n      pop\n      jump\t// out\n        /* \"#utility.yul\":10220:10319   */\n    tag_252:\n        /* \"#utility.yul\":10272:10278   */\n      0x00\n        /* \"#utility.yul\":10306:10311   */\n      dup2\n        /* \"#utility.yul\":10300:10312   */\n      mload\n        /* \"#utility.yul\":10290:10312   */\n      swap1\n      pop\n        /* \"#utility.yul\":10279:10319   */\n      swap2\n      swap1\n      pop\n      jump\t// out\n        /* \"#utility.yul\":10325:10494   */\n    tag_254:\n        /* \"#utility.yul\":10409:10420   */\n      0x00\n        /* \"#utility.yul\":10443:10449   */\n      dup3\n        /* \"#utility.yul\":10438:10441   */\n      dup3\n        /* \"#utility.yul\":10431:10450   */\n      mstore\n        /* \"#utility.yul\":10483:10487   */\n      0x20\n        /* \"#utility.yul\":10478:10481   */\n      dup3\n        /* \"#utility.yul\":10474:10488   */\n      add\n        /* \"#utility.yul\":10459:10488   */\n      swap1\n      pop\n        /* \"#utility.yul\":10421:10494   */\n      swap3\n      swap2\n      pop\n      pop\n      jump\t// out\n        /* \"#utility.yul\":10500:10685   */\n    tag_125:\n        /* \"#utility.yul\":10540:10541   */\n      0x00\n        /* \"#utility.yul\":10557:10577   */\n      tag_333\n        /* \"#utility.yul\":10575:10576   */\n      dup3\n        /* \"#utility.yul\":10557:10577   */\n      tag_297\n      jump\t// in\n    tag_333:\n        /* \"#utility.yul\":10552:10577   */\n      swap2\n      pop\n        /* \"#utility.yul\":10591:10611   */\n      tag_334\n        /* \"#utility.yul\":10609:10610   */\n      dup4\n        /* \"#utility.yul\":10591:10611   */\n      tag_297\n      jump\t// in\n    tag_334:\n        /* \"#utility.yul\":10586:10611   */\n      swap3\n      pop\n        /* \"#utility.yul\":10630:10631   */\n      dup3\n        /* \"#utility.yul\":10620:10622   */\n      tag_335\n      jumpi\n        /* \"#utility.yul\":10635:10653   */\n      tag_336\n      tag_337\n      jump\t// in\n    tag_336:\n        /* \"#utility.yul\":10620:10622   */\n    tag_335:\n        /* \"#utility.yul\":10677:10678   */\n      dup3\n        /* \"#utility.yul\":10674:10675   */\n      dup3\n        /* \"#utility.yul\":10670:10679   */\n      div\n        /* \"#utility.yul\":10665:10679   */\n      swap1\n      pop\n        /* \"#utility.yul\":10542:10685   */\n      swap3\n      swap2\n      pop\n      pop\n      jump\t// out\n        /* \"#utility.yul\":10691:11039   */\n    tag_89:\n        /* \"#utility.yul\":10731:10738   */\n      0x00\n        /* \"#utility.yul\":10754:10774   */\n      tag_339\n        /* \"#utility.yul\":10772:10773   */\n      dup3\n        /* \"#utility.yul\":10754:10774   */\n      tag_297\n      jump\t// in\n    tag_339:\n        /* \"#utility.yul\":10749:10774   */\n      swap2\n      pop\n        /* \"#utility.yul\":10788:10808   */\n      tag_340\n        /* \"#utility.yul\":10806:10807   */\n      dup4\n        /* \"#utility.yul\":10788:10808   */\n      tag_297\n      jump\t// in\n    tag_340:\n        /* \"#utility.yul\":10783:10808   */\n      swap3\n      pop\n        /* \"#utility.yul\":10976:10977   */\n      dup2\n        /* \"#utility.yul\":10908:10974   */\n      0xffffffffffffffffffffffffffffffffffffffffffffffffffffffffffffffff\n        /* \"#utility.yul\":10904:10978   */\n      div\n        /* \"#utility.yul\":10901:10902   */\n      dup4\n        /* \"#utility.yul\":10898:10979   */\n      gt\n        /* \"#utility.yul\":10893:10894   */\n      dup3\n        /* \"#utility.yul\":10886:10895   */\n      iszero\n        /* \"#utility.yul\":10879:10896   */\n      iszero\n        /* \"#utility.yul\":10875:10980   */\n      and\n        /* \"#utility.yul\":10872:10874   */\n      iszero\n      tag_341\n      jumpi\n        /* \"#utility.yul\":10983:11001   */\n      tag_342\n      tag_343\n      jump\t// in\n    tag_342:\n        /* \"#utility.yul\":10872:10874   */\n    tag_341:\n        /* \"#utility.yul\":11031:11032   */\n      dup3\n        /* \"#utility.yul\":11028:11029   */\n      dup3\n        /* \"#utility.yul\":11024:11033   */\n      mul\n        /* \"#utility.yul\":11013:11033   */\n      swap1\n      pop\n        /* \"#utility.yul\":10739:11039   */\n      swap3\n      swap2\n      pop\n      pop\n      jump\t// out\n        /* \"#utility.yul\":11045:11236   */\n    tag_132:\n        /* \"#utility.yul\":11085:11089   */\n      0x00\n        /* \"#utility.yul\":11105:11125   */\n      tag_345\n        /* \"#utility.yul\":11123:11124   */\n      dup3\n        /* \"#utility.yul\":11105:11125   */\n      tag_297\n      jump\t// in\n    tag_345:\n        /* \"#utility.yul\":11100:11125   */\n      swap2\n      pop\n        /* \"#utility.yul\":11139:11159   */\n      tag_346\n        /* \"#utility.yul\":11157:11158   */\n      dup4\n        /* \"#utility.yul\":11139:11159   */\n      tag_297\n      jump\t// in\n    tag_346:\n        /* \"#utility.yul\":11134:11159   */\n      swap3\n      pop\n        /* \"#utility.yul\":11178:11179   */\n      dup3\n        /* \"#utility.yul\":11175:11176   */\n      dup3\n        /* \"#utility.yul\":11172:11180   */\n      lt\n        /* \"#utility.yul\":11169:11171   */\n      iszero\n      tag_347\n      jumpi\n        /* \"#utility.yul\":11183:11201   */\n      tag_348\n      tag_343\n      jump\t// in\n    tag_348:\n        /* \"#utility.yul\":11169:11171   */\n    tag_347:\n        /* \"#utility.yul\":11228:11229   */\n      dup3\n        /* \"#utility.yul\":11225:11226   */\n      dup3\n        /* \"#utility.yul\":11221:11230   */\n      sub\n        /* \"#utility.yul\":11213:11230   */\n      swap1\n      pop\n        /* \"#utility.yul\":11090:11236   */\n      swap3\n      swap2\n      pop\n      pop\n      jump\t// out\n        /* \"#utility.yul\":11242:11338   */\n    tag_236:\n        /* \"#utility.yul\":11279:11286   */\n      0x00\n        /* \"#utility.yul\":11308:11332   */\n      tag_350\n        /* \"#utility.yul\":11326:11331   */\n      dup3\n        /* \"#utility.yul\":11308:11332   */\n      tag_351\n      jump\t// in\n    tag_350:\n        /* \"#utility.yul\":11297:11332   */\n      swap1\n      pop\n        /* \"#utility.yul\":11287:11338   */\n      swap2\n      swap1\n      pop\n      jump\t// out\n        /* \"#utility.yul\":11344:11434   */\n    tag_240:\n        /* \"#utility.yul\":11378:11385   */\n      0x00\n        /* \"#utility.yul\":11421:11426   */\n      dup2\n        /* \"#utility.yul\":11414:11427   */\n      iszero\n        /* \"#utility.yul\":11407:11428   */\n      iszero\n        /* \"#utility.yul\":11396:11428   */\n      swap1\n      pop\n        /* \"#utility.yul\":11386:11434   */\n      swap2\n      swap1\n      pop\n      jump\t// out\n        /* \"#utility.yul\":11440:11566   */\n    tag_351:\n        /* \"#utility.yul\":11477:11484   */\n      0x00\n        /* \"#utility.yul\":11517:11559   */\n      0xffffffffffffffffffffffffffffffffffffffff\n        /* \"#utility.yul\":11510:11515   */\n      dup3\n        /* \"#utility.yul\":11506:11560   */\n      and\n        /* \"#utility.yul\":11495:11560   */\n      swap1\n      pop\n        /* \"#utility.yul\":11485:11566   */\n      swap2\n      swap1\n      pop\n      jump\t// out\n        /* \"#utility.yul\":11572:11649   */\n    tag_297:\n        /* \"#utility.yul\":11609:11616   */\n      0x00\n        /* \"#utility.yul\":11638:11643   */\n      dup2\n        /* \"#utility.yul\":11627:11643   */\n      swap1\n      pop\n        /* \"#utility.yul\":11617:11649   */\n      swap2\n      swap1\n      pop\n      jump\t// out\n        /* \"#utility.yul\":11655:11807   */\n    tag_244:\n        /* \"#utility.yul\":11718:11727   */\n      0x00\n        /* \"#utility.yul\":11751:11801   */\n      tag_356\n        /* \"#utility.yul\":11795:11800   */\n      dup3\n        /* \"#utility.yul\":11751:11801   */\n      tag_357\n      jump\t// in\n    tag_356:\n        /* \"#utility.yul\":11738:11801   */\n      swap1\n      pop\n        /* \"#utility.yul\":11728:11807   */\n      swap2\n      swap1\n      pop\n      jump\t// out\n        /* \"#utility.yul\":11813:11939   */\n    tag_357:\n        /* \"#utility.yul\":11876:11885   */\n      0x00\n        /* \"#utility.yul\":11909:11933   */\n      tag_359\n        /* \"#utility.yul\":11927:11932   */\n      dup3\n        /* \"#utility.yul\":11909:11933   */\n      tag_351\n      jump\t// in\n    tag_359:\n        /* \"#utility.yul\":11896:11933   */\n      swap1\n      pop\n        /* \"#utility.yul\":11886:11939   */\n      swap2\n      swap1\n      pop\n      jump\t// out\n        /* \"#utility.yul\":11945:12067   */\n    tag_248:\n        /* \"#utility.yul\":12004:12013   */\n      0x00\n        /* \"#utility.yul\":12037:12061   */\n      tag_361\n        /* \"#utility.yul\":12055:12060   */\n      dup3\n        /* \"#utility.yul\":12037:12061   */\n      tag_297\n      jump\t// in\n    tag_361:\n        /* \"#utility.yul\":12024:12061   */\n      swap1\n      pop\n        /* \"#utility.yul\":12014:12067   */\n      swap2\n      swap1\n      pop\n      jump\t// out\n        /* \"#utility.yul\":12073:12380   */\n    tag_256:\n        /* \"#utility.yul\":12141:12142   */\n      0x00\n        /* \"#utility.yul\":12151:12264   */\n    tag_363:\n        /* \"#utility.yul\":12165:12171   */\n      dup4\n        /* \"#utility.yul\":12162:12163   */\n      dup2\n        /* \"#utility.yul\":12159:12172   */\n      lt\n        /* \"#utility.yul\":12151:12264   */\n      iszero\n      tag_365\n      jumpi\n        /* \"#utility.yul\":12250:12251   */\n      dup1\n        /* \"#utility.yul\":12245:12248   */\n      dup3\n        /* \"#utility.yul\":12241:12252   */\n      add\n        /* \"#utility.yul\":12235:12253   */\n      mload\n        /* \"#utility.yul\":12231:12232   */\n      dup2\n        /* \"#utility.yul\":12226:12229   */\n      dup5\n        /* \"#utility.yul\":12222:12233   */\n      add\n        /* \"#utility.yul\":12215:12254   */\n      mstore\n        /* \"#utility.yul\":12187:12189   */\n      0x20\n        /* \"#utility.yul\":12184:12185   */\n      dup2\n        /* \"#utility.yul\":12180:12190   */\n      add\n        /* \"#utility.yul\":12175:12190   */\n      swap1\n      pop\n        /* \"#utility.yul\":12151:12264   */\n      jump(tag_363)\n    tag_365:\n        /* \"#utility.yul\":12282:12288   */\n      dup4\n        /* \"#utility.yul\":12279:12280   */\n      dup2\n        /* \"#utility.yul\":12276:12289   */\n      gt\n        /* \"#utility.yul\":12273:12275   */\n      iszero\n      tag_366\n      jumpi\n        /* \"#utility.yul\":12362:12363   */\n      0x00\n        /* \"#utility.yul\":12353:12359   */\n      dup5\n        /* \"#utility.yul\":12348:12351   */\n      dup5\n        /* \"#utility.yul\":12344:12360   */\n      add\n        /* \"#utility.yul\":12337:12364   */\n      mstore\n        /* \"#utility.yul\":12273:12275   */\n    tag_366:\n        /* \"#utility.yul\":12122:12380   */\n      pop\n      pop\n      pop\n      pop\n      jump\t// out\n        /* \"#utility.yul\":12386:12706   */\n    tag_206:\n        /* \"#utility.yul\":12430:12436   */\n      0x00\n        /* \"#utility.yul\":12467:12468   */\n      0x02\n        /* \"#utility.yul\":12461:12465   */\n      dup3\n        /* \"#utility.yul\":12457:12469   */\n      div\n        /* \"#utility.yul\":12447:12469   */\n      swap1\n      pop\n        /* \"#utility.yul\":12514:12515   */\n      0x01\n        /* \"#utility.yul\":12508:12512   */\n      dup3\n        /* \"#utility.yul\":12504:12516   */\n      and\n        /* \"#utility.yul\":12535:12553   */\n      dup1\n        /* \"#utility.yul\":12525:12527   */\n      tag_368\n      jumpi\n        /* \"#utility.yul\":12591:12595   */\n      0x7f\n        /* \"#utility.yul\":12583:12589   */\n      dup3\n        /* \"#utility.yul\":12579:12596   */\n      and\n        /* \"#utility.yul\":12569:12596   */\n      swap2\n      pop\n        /* \"#utility.yul\":12525:12527   */\n    tag_368:\n        /* \"#utility.yul\":12653:12655   */\n      0x20\n        /* \"#utility.yul\":12645:12651   */\n      dup3\n        /* \"#utility.yul\":12642:12656   */\n      lt\n        /* \"#utility.yul\":12622:12640   */\n      dup2\n        /* \"#utility.yul\":12619:12657   */\n      eq\n        /* \"#utility.yul\":12616:12618   */\n      iszero\n      tag_369\n      jumpi\n        /* \"#utility.yul\":12672:12690   */\n      tag_370\n      tag_371\n      jump\t// in\n    tag_370:\n        /* \"#utility.yul\":12616:12618   */\n    tag_369:\n        /* \"#utility.yul\":12437:12706   */\n      pop\n      swap2\n      swap1\n      pop\n      jump\t// out\n        /* \"#utility.yul\":12712:12892   */\n    tag_343:\n        /* \"#utility.yul\":12760:12837   */\n      0x4e487b7100000000000000000000000000000000000000000000000000000000\n        /* \"#utility.yul\":12757:12758   */\n      0x00\n        /* \"#utility.yul\":12750:12838   */\n      mstore\n        /* \"#utility.yul\":12857:12861   */\n      0x11\n        /* \"#utility.yul\":12854:12855   */\n      0x04\n        /* \"#utility.yul\":12847:12862   */\n      mstore\n        /* \"#utility.yul\":12881:12885   */\n      0x24\n        /* \"#utility.yul\":12878:12879   */\n      0x00\n        /* \"#utility.yul\":12871:12886   */\n      revert\n        /* \"#utility.yul\":12898:13078   */\n    tag_337:\n        /* \"#utility.yul\":12946:13023   */\n      0x4e487b7100000000000000000000000000000000000000000000000000000000\n        /* \"#utility.yul\":12943:12944   */\n      0x00\n        /* \"#utility.yul\":12936:13024   */\n      mstore\n        /* \"#utility.yul\":13043:13047   */\n      0x12\n        /* \"#utility.yul\":13040:13041   */\n      0x04\n        /* \"#utility.yul\":13033:13048   */\n      mstore\n        /* \"#utility.yul\":13067:13071   */\n      0x24\n        /* \"#utility.yul\":13064:13065   */\n      0x00\n        /* \"#utility.yul\":13057:13072   */\n      revert\n        /* \"#utility.yul\":13084:13264   */\n    tag_371:\n        /* \"#utility.yul\":13132:13209   */\n      0x4e487b7100000000000000000000000000000000000000000000000000000000\n        /* \"#utility.yul\":13129:13130   */\n      0x00\n        /* \"#utility.yul\":13122:13210   */\n      mstore\n        /* \"#utility.yul\":13229:13233   */\n      0x22\n        /* \"#utility.yul\":13226:13227   */\n      0x04\n        /* \"#utility.yul\":13219:13234   */\n      mstore\n        /* \"#utility.yul\":13253:13257   */\n      0x24\n        /* \"#utility.yul\":13250:13251   */\n      0x00\n        /* \"#utility.yul\":13243:13258   */\n      revert\n        /* \"#utility.yul\":13270:13372   */\n    tag_258:\n        /* \"#utility.yul\":13311:13317   */\n      0x00\n        /* \"#utility.yul\":13362:13364   */\n      0x1f\n        /* \"#utility.yul\":13358:13365   */\n      not\n        /* \"#utility.yul\":13353:13355   */\n      0x1f\n        /* \"#utility.yul\":13346:13351   */\n      dup4\n        /* \"#utility.yul\":13342:13356   */\n      add\n        /* \"#utility.yul\":13338:13366   */\n      and\n        /* \"#utility.yul\":13328:13366   */\n      swap1\n      pop\n        /* \"#utility.yul\":13318:13372   */\n      swap2\n      swap1\n      pop\n      jump\t// out\n        /* \"#utility.yul\":13378:13615   */\n    tag_263:\n        /* \"#utility.yul\":13518:13552   */\n      0x456c206c697175696469747950726f7669646572206e6f2068612067616e6164\n        /* \"#utility.yul\":13514:13515   */\n      0x00\n        /* \"#utility.yul\":13506:13512   */\n      dup3\n        /* \"#utility.yul\":13502:13516   */\n      add\n        /* \"#utility.yul\":13495:13553   */\n      mstore\n        /* \"#utility.yul\":13587:13607   */\n      0x6f206e696e67756e6120636f6d6973696f6e0000000000000000000000000000\n        /* \"#utility.yul\":13582:13584   */\n      0x20\n        /* \"#utility.yul\":13574:13580   */\n      dup3\n        /* \"#utility.yul\":13570:13585   */\n      add\n        /* \"#utility.yul\":13563:13608   */\n      mstore\n        /* \"#utility.yul\":13484:13615   */\n      pop\n      jump\t// out\n        /* \"#utility.yul\":13621:13798   */\n    tag_268:\n        /* \"#utility.yul\":13761:13790   */\n      0x496e73756666696369656e7420746f6b656e422062616c616e63650000000000\n        /* \"#utility.yul\":13757:13758   */\n      0x00\n        /* \"#utility.yul\":13749:13755   */\n      dup3\n        /* \"#utility.yul\":13745:13759   */\n      add\n        /* \"#utility.yul\":13738:13791   */\n      mstore\n        /* \"#utility.yul\":13727:13798   */\n      pop\n      jump\t// out\n        /* \"#utility.yul\":13804:13986   */\n    tag_273:\n        /* \"#utility.yul\":13944:13978   */\n      0x4c69717569646974792070726f766964657220616c7265616479206578697374\n        /* \"#utility.yul\":13940:13941   */\n      0x00\n        /* \"#utility.yul\":13932:13938   */\n      dup3\n        /* \"#utility.yul\":13928:13942   */\n      add\n        /* \"#utility.yul\":13921:13979   */\n      mstore\n        /* \"#utility.yul\":13910:13986   */\n      pop\n      jump\t// out\n        /* \"#utility.yul\":13992:14222   */\n    tag_278:\n        /* \"#utility.yul\":14132:14166   */\n      0x496e73756666696369656e7420746f6b656e412062616c616e636520696e2074\n        /* \"#utility.yul\":14128:14129   */\n      0x00\n        /* \"#utility.yul\":14120:14126   */\n      dup3\n        /* \"#utility.yul\":14116:14130   */\n      add\n        /* \"#utility.yul\":14109:14167   */\n      mstore\n        /* \"#utility.yul\":14201:14214   */\n      0x686520636f6e7472616374000000000000000000000000000000000000000000\n        /* \"#utility.yul\":14196:14198   */\n      0x20\n        /* \"#utility.yul\":14188:14194   */\n      dup3\n        /* \"#utility.yul\":14184:14199   */\n      add\n        /* \"#utility.yul\":14177:14215   */\n      mstore\n        /* \"#utility.yul\":14098:14222   */\n      pop\n      jump\t// out\n        /* \"#utility.yul\":14228:14408   */\n    tag_283:\n        /* \"#utility.yul\":14368:14400   */\n      0x416d6f756e7473206d7573742062652067726561746572207468616e20300000\n        /* \"#utility.yul\":14364:14365   */\n      0x00\n        /* \"#utility.yul\":14356:14362   */\n      dup3\n        /* \"#utility.yul\":14352:14366   */\n      add\n        /* \"#utility.yul\":14345:14401   */\n      mstore\n        /* \"#utility.yul\":14334:14408   */\n      pop\n      jump\t// out\n        /* \"#utility.yul\":14414:14589   */\n    tag_288:\n        /* \"#utility.yul\":14554:14581   */\n      0x5472616e73666572206f6620746f6b656e73206661696c656400000000000000\n        /* \"#utility.yul\":14550:14551   */\n      0x00\n        /* \"#utility.yul\":14542:14548   */\n      dup3\n        /* \"#utility.yul\":14538:14552   */\n      add\n        /* \"#utility.yul\":14531:14582   */\n      mstore\n        /* \"#utility.yul\":14520:14589   */\n      pop\n      jump\t// out\n        /* \"#utility.yul\":14595:14825   */\n    tag_293:\n        /* \"#utility.yul\":14735:14769   */\n      0x496e73756666696369656e7420746f6b656e422062616c616e636520696e2074\n        /* \"#utility.yul\":14731:14732   */\n      0x00\n        /* \"#utility.yul\":14723:14729   */\n      dup3\n        /* \"#utility.yul\":14719:14733   */\n      add\n        /* \"#utility.yul\":14712:14770   */\n      mstore\n        /* \"#utility.yul\":14804:14817   */\n      0x686520636f6e7472616374000000000000000000000000000000000000000000\n        /* \"#utility.yul\":14799:14801   */\n      0x20\n        /* \"#utility.yul\":14791:14797   */\n      dup3\n        /* \"#utility.yul\":14787:14802   */\n      add\n        /* \"#utility.yul\":14780:14818   */\n      mstore\n        /* \"#utility.yul\":14701:14825   */\n      pop\n      jump\t// out\n        /* \"#utility.yul\":14831:14947   */\n    tag_215:\n        /* \"#utility.yul\":14901:14922   */\n      tag_384\n        /* \"#utility.yul\":14916:14921   */\n      dup2\n        /* \"#utility.yul\":14901:14922   */\n      tag_240\n      jump\t// in\n    tag_384:\n        /* \"#utility.yul\":14894:14899   */\n      dup2\n        /* \"#utility.yul\":14891:14923   */\n      eq\n        /* \"#utility.yul\":14881:14883   */\n      tag_385\n      jumpi\n        /* \"#utility.yul\":14937:14938   */\n      0x00\n        /* \"#utility.yul\":14934:14935   */\n      dup1\n        /* \"#utility.yul\":14927:14939   */\n      revert\n        /* \"#utility.yul\":14881:14883   */\n    tag_385:\n        /* \"#utility.yul\":14871:14947   */\n      pop\n      jump\t// out\n        /* \"#utility.yul\":14953:15075   */\n    tag_219:\n        /* \"#utility.yul\":15026:15050   */\n      tag_387\n        /* \"#utility.yul\":15044:15049   */\n      dup2\n        /* \"#utility.yul\":15026:15050   */\n      tag_297\n      jump\t// in\n    tag_387:\n        /* \"#utility.yul\":15019:15024   */\n      dup2\n        /* \"#utility.yul\":15016:15051   */\n      eq\n        /* \"#utility.yul\":15006:15008   */\n      tag_388\n      jumpi\n        /* \"#utility.yul\":15065:15066   */\n      0x00\n        /* \"#utility.yul\":15062:15063   */\n      dup1\n        /* \"#utility.yul\":15055:15067   */\n      revert\n        /* \"#utility.yul\":15006:15008   */\n    tag_388:\n        /* \"#utility.yul\":14996:15075   */\n      pop\n      jump\t// out\n\n    auxdata: 0xa26469706673582212205dbfbc882a5b88b30bd4778ec261c976c9ee22926fed9397cd91e07f4d94a99564736f6c63430008040033\n}\n",
				"bytecode": {
					"linkReferences": {},
					"object": "60806040526000600460006101000a81548173ffffffffffffffffffffffffffffffffffffffff021916908373ffffffffffffffffffffffffffffffffffffffff16021790555060008054906101000a900473ffffffffffffffffffffffffffffffffffffffff1673ffffffffffffffffffffffffffffffffffffffff166370a08231306040518263ffffffff1660e01b8152600401620000a191906200047e565b60206040518083038186803b158015620000ba57600080fd5b505afa158015620000cf573d6000803e3d6000fd5b505050506040513d601f19601f82011682018060405250810190620000f5919062000441565b600555600160009054906101000a900473ffffffffffffffffffffffffffffffffffffffff1673ffffffffffffffffffffffffffffffffffffffff166370a08231306040518263ffffffff1660e01b81526004016200015591906200047e565b60206040518083038186803b1580156200016e57600080fd5b505afa15801562000183573d6000803e3d6000fd5b505050506040513d601f19601f82011682018060405250810190620001a9919062000441565b600655348015620001b957600080fd5b50604051620023e2380380620023e28339818101604052810190620001df9190620003d2565b826000806101000a81548173ffffffffffffffffffffffffffffffffffffffff021916908373ffffffffffffffffffffffffffffffffffffffff16021790555081600160006101000a81548173ffffffffffffffffffffffffffffffffffffffff021916908373ffffffffffffffffffffffffffffffffffffffff16021790555080600290805190602001906200027892919062000282565b505050506200067d565b82805462000290906200056e565b90600052602060002090601f016020900481019282620002b4576000855562000300565b82601f10620002cf57805160ff191683800117855562000300565b8280016001018555821562000300579182015b82811115620002ff578251825591602001919060010190620002e2565b5b5090506200030f919062000313565b5090565b5b808211156200032e57600081600090555060010162000314565b5090565b6000620003496200034384620004c4565b6200049b565b9050828152602081018484840111156200036257600080fd5b6200036f84828562000538565b509392505050565b600081519050620003888162000649565b92915050565b600082601f830112620003a057600080fd5b8151620003b284826020860162000332565b91505092915050565b600081519050620003cc8162000663565b92915050565b600080600060608486031215620003e857600080fd5b6000620003f88682870162000377565b93505060206200040b8682870162000377565b925050604084015167ffffffffffffffff8111156200042957600080fd5b62000437868287016200038e565b9150509250925092565b6000602082840312156200045457600080fd5b60006200046484828501620003bb565b91505092915050565b6200047881620004fa565b82525050565b60006020820190506200049560008301846200046d565b92915050565b6000620004a7620004ba565b9050620004b58282620005a4565b919050565b6000604051905090565b600067ffffffffffffffff821115620004e257620004e162000609565b5b620004ed8262000638565b9050602081019050919050565b600062000507826200050e565b9050919050565b600073ffffffffffffffffffffffffffffffffffffffff82169050919050565b6000819050919050565b60005b83811015620005585780820151818401526020810190506200053b565b8381111562000568576000848401525b50505050565b600060028204905060018216806200058757607f821691505b602082108114156200059e576200059d620005da565b5b50919050565b620005af8262000638565b810181811067ffffffffffffffff82111715620005d157620005d062000609565b5b80604052505050565b7f4e487b7100000000000000000000000000000000000000000000000000000000600052602260045260246000fd5b7f4e487b7100000000000000000000000000000000000000000000000000000000600052604160045260246000fd5b6000601f19601f8301169050919050565b6200065481620004fa565b81146200066057600080fd5b50565b6200066e816200052e565b81146200067a57600080fd5b50565b611d55806200068d6000396000f3fe608060405234801561001057600080fd5b50600436106100a95760003560e01c80635f64b55b116100715780635f64b55b1461014457806379629b69146101625780637a16af7f146101805780638f325c021461019c578063b3a88f7b146101a6578063f9633930146101b0576100a9565b80630aefecb5146100ae5780630fc63d10146100cc57806324731cff146100ea5780635b4246d4146101085780635b8bec5514610126575b600080fd5b6100b66101ce565b6040516100c391906117b1565b60405180910390f35b6100d46101e1565b6040516100e191906117cc565b60405180910390f35b6100f2610205565b6040516100ff91906118e9565b60405180910390f35b61011061020b565b60405161011d91906118e9565b60405180910390f35b61012e610211565b60405161013b9190611728565b60405180910390f35b61014c610237565b60405161015991906117cc565b60405180910390f35b61016a61025d565b60405161017791906118e9565b60405180910390f35b61019a60048036038101906101959190611573565b610263565b005b6101a461069b565b005b6101ae610d30565b005b6101b86113fa565b6040516101c591906117e7565b60405180910390f35b600460149054906101000a900460ff1681565b60008054906101000a900473ffffffffffffffffffffffffffffffffffffffff1681565b60065481565b60035481565b600460009054906101000a900473ffffffffffffffffffffffffffffffffffffffff1681565b600160009054906101000a900473ffffffffffffffffffffffffffffffffffffffff1681565b60055481565b60648210158015610275575060648110155b6102b4576040517f08c379a00000000000000000000000000000000000000000000000000000000081526004016102ab90611889565b60405180910390fd5b60008054906101000a900473ffffffffffffffffffffffffffffffffffffffff1673ffffffffffffffffffffffffffffffffffffffff166323b872dd3330856040518463ffffffff1660e01b81526004016103119392919061177a565b602060405180830381600087803b15801561032b57600080fd5b505af115801561033f573d6000803e3d6000fd5b505050506040513d601f19601f820116820180604052508101906103639190611521565b801561041c5750600160009054906101000a900473ffffffffffffffffffffffffffffffffffffffff1673ffffffffffffffffffffffffffffffffffffffff166323b872dd3330846040518463ffffffff1660e01b81526004016103c99392919061177a565b602060405180830381600087803b1580156103e357600080fd5b505af11580156103f7573d6000803e3d6000fd5b505050506040513d601f19601f8201168201806040525081019061041b9190611521565b5b61045b576040517f08c379a0000000000000000000000000000000000000000000000000000000008152600401610452906118a9565b60405180910390fd5b600073ffffffffffffffffffffffffffffffffffffffff16600460009054906101000a900473ffffffffffffffffffffffffffffffffffffffff1673ffffffffffffffffffffffffffffffffffffffff1614156104f85733600460006101000a81548173ffffffffffffffffffffffffffffffffffffffff021916908373ffffffffffffffffffffffffffffffffffffffff160217905550610533565b6040517f08c379a000000000000000000000000000000000000000000000000000000000815260040161052a90611849565b60405180910390fd5b600160009054906101000a900473ffffffffffffffffffffffffffffffffffffffff1673ffffffffffffffffffffffffffffffffffffffff166370a08231306040518263ffffffff1660e01b815260040161058e9190611728565b60206040518083038186803b1580156105a657600080fd5b505afa1580156105ba573d6000803e3d6000fd5b505050506040513d601f19601f820116820180604052508101906105de919061154a565b60008054906101000a900473ffffffffffffffffffffffffffffffffffffffff1673ffffffffffffffffffffffffffffffffffffffff166370a08231306040518263ffffffff1660e01b81526004016106379190611728565b60206040518083038186803b15801561064f57600080fd5b505afa158015610663573d6000803e3d6000fd5b505050506040513d601f19601f82011682018060405250810190610687919061154a565b6106919190611951565b6003819055505050565b600a60008054906101000a900473ffffffffffffffffffffffffffffffffffffffff1673ffffffffffffffffffffffffffffffffffffffff166370a08231336040518263ffffffff1660e01b81526004016106f69190611728565b60206040518083038186803b15801561070e57600080fd5b505afa158015610722573d6000803e3d6000fd5b505050506040513d601f19601f82011682018060405250810190610746919061154a565b101561075157600080fd5b606360008054906101000a900473ffffffffffffffffffffffffffffffffffffffff1673ffffffffffffffffffffffffffffffffffffffff166370a08231306040518263ffffffff1660e01b81526004016107ac9190611728565b60206040518083038186803b1580156107c457600080fd5b505afa1580156107d8573d6000803e3d6000fd5b505050506040513d601f19601f820116820180604052508101906107fc919061154a565b1161083c576040517f08c379a000000000000000000000000000000000000000000000000000000000815260040161083390611869565b60405180910390fd5b6063600160009054906101000a900473ffffffffffffffffffffffffffffffffffffffff1673ffffffffffffffffffffffffffffffffffffffff166370a08231306040518263ffffffff1660e01b81526004016108999190611728565b60206040518083038186803b1580156108b157600080fd5b505afa1580156108c5573d6000803e3d6000fd5b505050506040513d601f19601f820116820180604052508101906108e9919061154a565b11610929576040517f08c379a0000000000000000000000000000000000000000000000000000000008152600401610920906118c9565b60405180910390fd5b60008054906101000a900473ffffffffffffffffffffffffffffffffffffffff1673ffffffffffffffffffffffffffffffffffffffff166323b872dd3330600a6040518463ffffffff1660e01b815260040161098793929190611743565b602060405180830381600087803b1580156109a157600080fd5b505af11580156109b5573d6000803e3d6000fd5b505050506040513d601f19601f820116820180604052508101906109d99190611521565b5060008060009054906101000a900473ffffffffffffffffffffffffffffffffffffffff1673ffffffffffffffffffffffffffffffffffffffff166370a08231306040518263ffffffff1660e01b8152600401610a369190611728565b60206040518083038186803b158015610a4e57600080fd5b505afa158015610a62573d6000803e3d6000fd5b505050506040513d601f19601f82011682018060405250810190610a86919061154a565b600354610a939190611920565b9050600081600160009054906101000a900473ffffffffffffffffffffffffffffffffffffffff1673ffffffffffffffffffffffffffffffffffffffff166370a08231306040518263ffffffff1660e01b8152600401610af39190611728565b60206040518083038186803b158015610b0b57600080fd5b505afa158015610b1f573d6000803e3d6000fd5b505050506040513d601f19601f82011682018060405250810190610b43919061154a565b610b4d91906119ab565b90506000600a600983610b609190611951565b610b6a9190611920565b90506000600a600184610b7d9190611951565b610b879190611920565b9050600160009054906101000a900473ffffffffffffffffffffffffffffffffffffffff1673ffffffffffffffffffffffffffffffffffffffff166323b872dd3033856040518463ffffffff1660e01b8152600401610be89392919061177a565b602060405180830381600087803b158015610c0257600080fd5b505af1158015610c16573d6000803e3d6000fd5b505050506040513d601f19601f82011682018060405250810190610c3a9190611521565b50600160009054906101000a900473ffffffffffffffffffffffffffffffffffffffff1673ffffffffffffffffffffffffffffffffffffffff166323b872dd30600460009054906101000a900473ffffffffffffffffffffffffffffffffffffffff16846040518463ffffffff1660e01b8152600401610cbc9392919061177a565b602060405180830381600087803b158015610cd657600080fd5b505af1158015610cea573d6000803e3d6000fd5b505050506040513d601f19601f82011682018060405250810190610d0e9190611521565b506001600460146101000a81548160ff02191690831515021790555050505050565b600a600160009054906101000a900473ffffffffffffffffffffffffffffffffffffffff1673ffffffffffffffffffffffffffffffffffffffff166370a08231336040518263ffffffff1660e01b8152600401610d8d9190611728565b60206040518083038186803b158015610da557600080fd5b505afa158015610db9573d6000803e3d6000fd5b505050506040513d601f19601f82011682018060405250810190610ddd919061154a565b1015610e1e576040517f08c379a0000000000000000000000000000000000000000000000000000000008152600401610e1590611829565b60405180910390fd5b6063600160009054906101000a900473ffffffffffffffffffffffffffffffffffffffff1673ffffffffffffffffffffffffffffffffffffffff166370a08231306040518263ffffffff1660e01b8152600401610e7b9190611728565b60206040518083038186803b158015610e9357600080fd5b505afa158015610ea7573d6000803e3d6000fd5b505050506040513d601f19601f82011682018060405250810190610ecb919061154a565b11610f0b576040517f08c379a0000000000000000000000000000000000000000000000000000000008152600401610f02906118c9565b60405180910390fd5b606360008054906101000a900473ffffffffffffffffffffffffffffffffffffffff1673ffffffffffffffffffffffffffffffffffffffff166370a08231306040518263ffffffff1660e01b8152600401610f669190611728565b60206040518083038186803b158015610f7e57600080fd5b505afa158015610f92573d6000803e3d6000fd5b505050506040513d601f19601f82011682018060405250810190610fb6919061154a565b11610ff6576040517f08c379a0000000000000000000000000000000000000000000000000000000008152600401610fed90611869565b60405180910390fd5b600160009054906101000a900473ffffffffffffffffffffffffffffffffffffffff1673ffffffffffffffffffffffffffffffffffffffff166323b872dd3330600a6040518463ffffffff1660e01b815260040161105693929190611743565b602060405180830381600087803b15801561107057600080fd5b505af1158015611084573d6000803e3d6000fd5b505050506040513d601f19601f820116820180604052508101906110a89190611521565b506000600160009054906101000a900473ffffffffffffffffffffffffffffffffffffffff1673ffffffffffffffffffffffffffffffffffffffff166370a08231306040518263ffffffff1660e01b81526004016111069190611728565b60206040518083038186803b15801561111e57600080fd5b505afa158015611132573d6000803e3d6000fd5b505050506040513d601f19601f82011682018060405250810190611156919061154a565b6003546111639190611920565b905060008160008054906101000a900473ffffffffffffffffffffffffffffffffffffffff1673ffffffffffffffffffffffffffffffffffffffff166370a08231306040518263ffffffff1660e01b81526004016111c19190611728565b60206040518083038186803b1580156111d957600080fd5b505afa1580156111ed573d6000803e3d6000fd5b505050506040513d601f19601f82011682018060405250810190611211919061154a565b61121b91906119ab565b90506000600a60098361122e9190611951565b6112389190611920565b90506000600a60018461124b9190611951565b6112559190611920565b905060008054906101000a900473ffffffffffffffffffffffffffffffffffffffff1673ffffffffffffffffffffffffffffffffffffffff166323b872dd3033856040518463ffffffff1660e01b81526004016112b49392919061177a565b602060405180830381600087803b1580156112ce57600080fd5b505af11580156112e2573d6000803e3d6000fd5b505050506040513d601f19601f820116820180604052508101906113069190611521565b5060008054906101000a900473ffffffffffffffffffffffffffffffffffffffff1673ffffffffffffffffffffffffffffffffffffffff166323b872dd30600460009054906101000a900473ffffffffffffffffffffffffffffffffffffffff16846040518463ffffffff1660e01b81526004016113869392919061177a565b602060405180830381600087803b1580156113a057600080fd5b505af11580156113b4573d6000803e3d6000fd5b505050506040513d601f19601f820116820180604052508101906113d89190611521565b506001600460146101000a81548160ff02191690831515021790555050505050565b606060011515600460149054906101000a900460ff16151514611452576040517f08c379a000000000000000000000000000000000000000000000000000000000815260040161144990611809565b60405180910390fd5b6002805461145f90611a90565b80601f016020809104026020016040519081016040528092919081815260200182805461148b90611a90565b80156114d85780601f106114ad576101008083540402835291602001916114d8565b820191906000526020600020905b8154815290600101906020018083116114bb57829003601f168201915b5050505050905090565b6000815190506114f181611cf1565b92915050565b60008135905061150681611d08565b92915050565b60008151905061151b81611d08565b92915050565b60006020828403121561153357600080fd5b6000611541848285016114e2565b91505092915050565b60006020828403121561155c57600080fd5b600061156a8482850161150c565b91505092915050565b6000806040838503121561158657600080fd5b6000611594858286016114f7565b92505060206115a5858286016114f7565b9150509250929050565b6115b8816119df565b82525050565b6115c7816119f1565b82525050565b6115d681611a27565b82525050565b6115e581611a4b565b82525050565b60006115f682611904565b611600818561190f565b9350611610818560208601611a5d565b61161981611b4f565b840191505092915050565b600061163160328361190f565b915061163c82611b60565b604082019050919050565b6000611654601b8361190f565b915061165f82611baf565b602082019050919050565b600061167760208361190f565b915061168282611bd8565b602082019050919050565b600061169a602b8361190f565b91506116a582611c01565b604082019050919050565b60006116bd601e8361190f565b91506116c882611c50565b602082019050919050565b60006116e060198361190f565b91506116eb82611c79565b602082019050919050565b6000611703602b8361190f565b915061170e82611ca2565b604082019050919050565b61172281611a1d565b82525050565b600060208201905061173d60008301846115af565b92915050565b600060608201905061175860008301866115af565b61176560208301856115af565b61177260408301846115dc565b949350505050565b600060608201905061178f60008301866115af565b61179c60208301856115af565b6117a96040830184611719565b949350505050565b60006020820190506117c660008301846115be565b92915050565b60006020820190506117e160008301846115cd565b92915050565b6000602082019050818103600083015261180181846115eb565b905092915050565b6000602082019050818103600083015261182281611624565b9050919050565b6000602082019050818103600083015261184281611647565b9050919050565b600060208201905081810360008301526118628161166a565b9050919050565b600060208201905081810360008301526118828161168d565b9050919050565b600060208201905081810360008301526118a2816116b0565b9050919050565b600060208201905081810360008301526118c2816116d3565b9050919050565b600060208201905081810360008301526118e2816116f6565b9050919050565b60006020820190506118fe6000830184611719565b92915050565b600081519050919050565b600082825260208201905092915050565b600061192b82611a1d565b915061193683611a1d565b92508261194657611945611af1565b5b828204905092915050565b600061195c82611a1d565b915061196783611a1d565b9250817fffffffffffffffffffffffffffffffffffffffffffffffffffffffffffffffff04831182151516156119a05761199f611ac2565b5b828202905092915050565b60006119b682611a1d565b91506119c183611a1d565b9250828210156119d4576119d3611ac2565b5b828203905092915050565b60006119ea826119fd565b9050919050565b60008115159050919050565b600073ffffffffffffffffffffffffffffffffffffffff82169050919050565b6000819050919050565b6000611a3282611a39565b9050919050565b6000611a44826119fd565b9050919050565b6000611a5682611a1d565b9050919050565b60005b83811015611a7b578082015181840152602081019050611a60565b83811115611a8a576000848401525b50505050565b60006002820490506001821680611aa857607f821691505b60208210811415611abc57611abb611b20565b5b50919050565b7f4e487b7100000000000000000000000000000000000000000000000000000000600052601160045260246000fd5b7f4e487b7100000000000000000000000000000000000000000000000000000000600052601260045260246000fd5b7f4e487b7100000000000000000000000000000000000000000000000000000000600052602260045260246000fd5b6000601f19601f8301169050919050565b7f456c206c697175696469747950726f7669646572206e6f2068612067616e616460008201527f6f206e696e67756e6120636f6d6973696f6e0000000000000000000000000000602082015250565b7f496e73756666696369656e7420746f6b656e422062616c616e63650000000000600082015250565b7f4c69717569646974792070726f766964657220616c7265616479206578697374600082015250565b7f496e73756666696369656e7420746f6b656e412062616c616e636520696e207460008201527f686520636f6e7472616374000000000000000000000000000000000000000000602082015250565b7f416d6f756e7473206d7573742062652067726561746572207468616e20300000600082015250565b7f5472616e73666572206f6620746f6b656e73206661696c656400000000000000600082015250565b7f496e73756666696369656e7420746f6b656e422062616c616e636520696e207460008201527f686520636f6e7472616374000000000000000000000000000000000000000000602082015250565b611cfa816119f1565b8114611d0557600080fd5b50565b611d1181611a1d565b8114611d1c57600080fd5b5056fea26469706673582212205dbfbc882a5b88b30bd4778ec261c976c9ee22926fed9397cd91e07f4d94a99564736f6c63430008040033",
					"opcodes": "PUSH1 0x80 PUSH1 0x40 MSTORE PUSH1 0x0 PUSH1 0x4 PUSH1 0x0 PUSH2 0x100 EXP DUP2 SLOAD DUP2 PUSH20 0xFFFFFFFFFFFFFFFFFFFFFFFFFFFFFFFFFFFFFFFF MUL NOT AND SWAP1 DUP4 PUSH20 0xFFFFFFFFFFFFFFFFFFFFFFFFFFFFFFFFFFFFFFFF AND MUL OR SWAP1 SSTORE POP PUSH1 0x0 DUP1 SLOAD SWAP1 PUSH2 0x100 EXP SWAP1 DIV PUSH20 0xFFFFFFFFFFFFFFFFFFFFFFFFFFFFFFFFFFFFFFFF AND PUSH20 0xFFFFFFFFFFFFFFFFFFFFFFFFFFFFFFFFFFFFFFFF AND PUSH4 0x70A08231 ADDRESS PUSH1 0x40 MLOAD DUP3 PUSH4 0xFFFFFFFF AND PUSH1 0xE0 SHL DUP2 MSTORE PUSH1 0x4 ADD PUSH3 0xA1 SWAP2 SWAP1 PUSH3 0x47E JUMP JUMPDEST PUSH1 0x20 PUSH1 0x40 MLOAD DUP1 DUP4 SUB DUP2 DUP7 DUP1 EXTCODESIZE ISZERO DUP1 ISZERO PUSH3 0xBA JUMPI PUSH1 0x0 DUP1 REVERT JUMPDEST POP GAS STATICCALL ISZERO DUP1 ISZERO PUSH3 0xCF JUMPI RETURNDATASIZE PUSH1 0x0 DUP1 RETURNDATACOPY RETURNDATASIZE PUSH1 0x0 REVERT JUMPDEST POP POP POP POP PUSH1 0x40 MLOAD RETURNDATASIZE PUSH1 0x1F NOT PUSH1 0x1F DUP3 ADD AND DUP3 ADD DUP1 PUSH1 0x40 MSTORE POP DUP2 ADD SWAP1 PUSH3 0xF5 SWAP2 SWAP1 PUSH3 0x441 JUMP JUMPDEST PUSH1 0x5 SSTORE PUSH1 0x1 PUSH1 0x0 SWAP1 SLOAD SWAP1 PUSH2 0x100 EXP SWAP1 DIV PUSH20 0xFFFFFFFFFFFFFFFFFFFFFFFFFFFFFFFFFFFFFFFF AND PUSH20 0xFFFFFFFFFFFFFFFFFFFFFFFFFFFFFFFFFFFFFFFF AND PUSH4 0x70A08231 ADDRESS PUSH1 0x40 MLOAD DUP3 PUSH4 0xFFFFFFFF AND PUSH1 0xE0 SHL DUP2 MSTORE PUSH1 0x4 ADD PUSH3 0x155 SWAP2 SWAP1 PUSH3 0x47E JUMP JUMPDEST PUSH1 0x20 PUSH1 0x40 MLOAD DUP1 DUP4 SUB DUP2 DUP7 DUP1 EXTCODESIZE ISZERO DUP1 ISZERO PUSH3 0x16E JUMPI PUSH1 0x0 DUP1 REVERT JUMPDEST POP GAS STATICCALL ISZERO DUP1 ISZERO PUSH3 0x183 JUMPI RETURNDATASIZE PUSH1 0x0 DUP1 RETURNDATACOPY RETURNDATASIZE PUSH1 0x0 REVERT JUMPDEST POP POP POP POP PUSH1 0x40 MLOAD RETURNDATASIZE PUSH1 0x1F NOT PUSH1 0x1F DUP3 ADD AND DUP3 ADD DUP1 PUSH1 0x40 MSTORE POP DUP2 ADD SWAP1 PUSH3 0x1A9 SWAP2 SWAP1 PUSH3 0x441 JUMP JUMPDEST PUSH1 0x6 SSTORE CALLVALUE DUP1 ISZERO PUSH3 0x1B9 JUMPI PUSH1 0x0 DUP1 REVERT JUMPDEST POP PUSH1 0x40 MLOAD PUSH3 0x23E2 CODESIZE SUB DUP1 PUSH3 0x23E2 DUP4 CODECOPY DUP2 DUP2 ADD PUSH1 0x40 MSTORE DUP2 ADD SWAP1 PUSH3 0x1DF SWAP2 SWAP1 PUSH3 0x3D2 JUMP JUMPDEST DUP3 PUSH1 0x0 DUP1 PUSH2 0x100 EXP DUP2 SLOAD DUP2 PUSH20 0xFFFFFFFFFFFFFFFFFFFFFFFFFFFFFFFFFFFFFFFF MUL NOT AND SWAP1 DUP4 PUSH20 0xFFFFFFFFFFFFFFFFFFFFFFFFFFFFFFFFFFFFFFFF AND MUL OR SWAP1 SSTORE POP DUP2 PUSH1 0x1 PUSH1 0x0 PUSH2 0x100 EXP DUP2 SLOAD DUP2 PUSH20 0xFFFFFFFFFFFFFFFFFFFFFFFFFFFFFFFFFFFFFFFF MUL NOT AND SWAP1 DUP4 PUSH20 0xFFFFFFFFFFFFFFFFFFFFFFFFFFFFFFFFFFFFFFFF AND MUL OR SWAP1 SSTORE POP DUP1 PUSH1 0x2 SWAP1 DUP1 MLOAD SWAP1 PUSH1 0x20 ADD SWAP1 PUSH3 0x278 SWAP3 SWAP2 SWAP1 PUSH3 0x282 JUMP JUMPDEST POP POP POP POP PUSH3 0x67D JUMP JUMPDEST DUP3 DUP1 SLOAD PUSH3 0x290 SWAP1 PUSH3 0x56E JUMP JUMPDEST SWAP1 PUSH1 0x0 MSTORE PUSH1 0x20 PUSH1 0x0 KECCAK256 SWAP1 PUSH1 0x1F ADD PUSH1 0x20 SWAP1 DIV DUP2 ADD SWAP3 DUP3 PUSH3 0x2B4 JUMPI PUSH1 0x0 DUP6 SSTORE PUSH3 0x300 JUMP JUMPDEST DUP3 PUSH1 0x1F LT PUSH3 0x2CF JUMPI DUP1 MLOAD PUSH1 0xFF NOT AND DUP4 DUP1 ADD OR DUP6 SSTORE PUSH3 0x300 JUMP JUMPDEST DUP3 DUP1 ADD PUSH1 0x1 ADD DUP6 SSTORE DUP3 ISZERO PUSH3 0x300 JUMPI SWAP2 DUP3 ADD JUMPDEST DUP3 DUP2 GT ISZERO PUSH3 0x2FF JUMPI DUP3 MLOAD DUP3 SSTORE SWAP2 PUSH1 0x20 ADD SWAP2 SWAP1 PUSH1 0x1 ADD SWAP1 PUSH3 0x2E2 JUMP JUMPDEST JUMPDEST POP SWAP1 POP PUSH3 0x30F SWAP2 SWAP1 PUSH3 0x313 JUMP JUMPDEST POP SWAP1 JUMP JUMPDEST JUMPDEST DUP1 DUP3 GT ISZERO PUSH3 0x32E JUMPI PUSH1 0x0 DUP2 PUSH1 0x0 SWAP1 SSTORE POP PUSH1 0x1 ADD PUSH3 0x314 JUMP JUMPDEST POP SWAP1 JUMP JUMPDEST PUSH1 0x0 PUSH3 0x349 PUSH3 0x343 DUP5 PUSH3 0x4C4 JUMP JUMPDEST PUSH3 0x49B JUMP JUMPDEST SWAP1 POP DUP3 DUP2 MSTORE PUSH1 0x20 DUP2 ADD DUP5 DUP5 DUP5 ADD GT ISZERO PUSH3 0x362 JUMPI PUSH1 0x0 DUP1 REVERT JUMPDEST PUSH3 0x36F DUP5 DUP3 DUP6 PUSH3 0x538 JUMP JUMPDEST POP SWAP4 SWAP3 POP POP POP JUMP JUMPDEST PUSH1 0x0 DUP2 MLOAD SWAP1 POP PUSH3 0x388 DUP2 PUSH3 0x649 JUMP JUMPDEST SWAP3 SWAP2 POP POP JUMP JUMPDEST PUSH1 0x0 DUP3 PUSH1 0x1F DUP4 ADD SLT PUSH3 0x3A0 JUMPI PUSH1 0x0 DUP1 REVERT JUMPDEST DUP2 MLOAD PUSH3 0x3B2 DUP5 DUP3 PUSH1 0x20 DUP7 ADD PUSH3 0x332 JUMP JUMPDEST SWAP2 POP POP SWAP3 SWAP2 POP POP JUMP JUMPDEST PUSH1 0x0 DUP2 MLOAD SWAP1 POP PUSH3 0x3CC DUP2 PUSH3 0x663 JUMP JUMPDEST SWAP3 SWAP2 POP POP JUMP JUMPDEST PUSH1 0x0 DUP1 PUSH1 0x0 PUSH1 0x60 DUP5 DUP7 SUB SLT ISZERO PUSH3 0x3E8 JUMPI PUSH1 0x0 DUP1 REVERT JUMPDEST PUSH1 0x0 PUSH3 0x3F8 DUP7 DUP3 DUP8 ADD PUSH3 0x377 JUMP JUMPDEST SWAP4 POP POP PUSH1 0x20 PUSH3 0x40B DUP7 DUP3 DUP8 ADD PUSH3 0x377 JUMP JUMPDEST SWAP3 POP POP PUSH1 0x40 DUP5 ADD MLOAD PUSH8 0xFFFFFFFFFFFFFFFF DUP2 GT ISZERO PUSH3 0x429 JUMPI PUSH1 0x0 DUP1 REVERT JUMPDEST PUSH3 0x437 DUP7 DUP3 DUP8 ADD PUSH3 0x38E JUMP JUMPDEST SWAP2 POP POP SWAP3 POP SWAP3 POP SWAP3 JUMP JUMPDEST PUSH1 0x0 PUSH1 0x20 DUP3 DUP5 SUB SLT ISZERO PUSH3 0x454 JUMPI PUSH1 0x0 DUP1 REVERT JUMPDEST PUSH1 0x0 PUSH3 0x464 DUP5 DUP3 DUP6 ADD PUSH3 0x3BB JUMP JUMPDEST SWAP2 POP POP SWAP3 SWAP2 POP POP JUMP JUMPDEST PUSH3 0x478 DUP2 PUSH3 0x4FA JUMP JUMPDEST DUP3 MSTORE POP POP JUMP JUMPDEST PUSH1 0x0 PUSH1 0x20 DUP3 ADD SWAP1 POP PUSH3 0x495 PUSH1 0x0 DUP4 ADD DUP5 PUSH3 0x46D JUMP JUMPDEST SWAP3 SWAP2 POP POP JUMP JUMPDEST PUSH1 0x0 PUSH3 0x4A7 PUSH3 0x4BA JUMP JUMPDEST SWAP1 POP PUSH3 0x4B5 DUP3 DUP3 PUSH3 0x5A4 JUMP JUMPDEST SWAP2 SWAP1 POP JUMP JUMPDEST PUSH1 0x0 PUSH1 0x40 MLOAD SWAP1 POP SWAP1 JUMP JUMPDEST PUSH1 0x0 PUSH8 0xFFFFFFFFFFFFFFFF DUP3 GT ISZERO PUSH3 0x4E2 JUMPI PUSH3 0x4E1 PUSH3 0x609 JUMP JUMPDEST JUMPDEST PUSH3 0x4ED DUP3 PUSH3 0x638 JUMP JUMPDEST SWAP1 POP PUSH1 0x20 DUP2 ADD SWAP1 POP SWAP2 SWAP1 POP JUMP JUMPDEST PUSH1 0x0 PUSH3 0x507 DUP3 PUSH3 0x50E JUMP JUMPDEST SWAP1 POP SWAP2 SWAP1 POP JUMP JUMPDEST PUSH1 0x0 PUSH20 0xFFFFFFFFFFFFFFFFFFFFFFFFFFFFFFFFFFFFFFFF DUP3 AND SWAP1 POP SWAP2 SWAP1 POP JUMP JUMPDEST PUSH1 0x0 DUP2 SWAP1 POP SWAP2 SWAP1 POP JUMP JUMPDEST PUSH1 0x0 JUMPDEST DUP4 DUP2 LT ISZERO PUSH3 0x558 JUMPI DUP1 DUP3 ADD MLOAD DUP2 DUP5 ADD MSTORE PUSH1 0x20 DUP2 ADD SWAP1 POP PUSH3 0x53B JUMP JUMPDEST DUP4 DUP2 GT ISZERO PUSH3 0x568 JUMPI PUSH1 0x0 DUP5 DUP5 ADD MSTORE JUMPDEST POP POP POP POP JUMP JUMPDEST PUSH1 0x0 PUSH1 0x2 DUP3 DIV SWAP1 POP PUSH1 0x1 DUP3 AND DUP1 PUSH3 0x587 JUMPI PUSH1 0x7F DUP3 AND SWAP2 POP JUMPDEST PUSH1 0x20 DUP3 LT DUP2 EQ ISZERO PUSH3 0x59E JUMPI PUSH3 0x59D PUSH3 0x5DA JUMP JUMPDEST JUMPDEST POP SWAP2 SWAP1 POP JUMP JUMPDEST PUSH3 0x5AF DUP3 PUSH3 0x638 JUMP JUMPDEST DUP2 ADD DUP2 DUP2 LT PUSH8 0xFFFFFFFFFFFFFFFF DUP3 GT OR ISZERO PUSH3 0x5D1 JUMPI PUSH3 0x5D0 PUSH3 0x609 JUMP JUMPDEST JUMPDEST DUP1 PUSH1 0x40 MSTORE POP POP POP JUMP JUMPDEST PUSH32 0x4E487B7100000000000000000000000000000000000000000000000000000000 PUSH1 0x0 MSTORE PUSH1 0x22 PUSH1 0x4 MSTORE PUSH1 0x24 PUSH1 0x0 REVERT JUMPDEST PUSH32 0x4E487B7100000000000000000000000000000000000000000000000000000000 PUSH1 0x0 MSTORE PUSH1 0x41 PUSH1 0x4 MSTORE PUSH1 0x24 PUSH1 0x0 REVERT JUMPDEST PUSH1 0x0 PUSH1 0x1F NOT PUSH1 0x1F DUP4 ADD AND SWAP1 POP SWAP2 SWAP1 POP JUMP JUMPDEST PUSH3 0x654 DUP2 PUSH3 0x4FA JUMP JUMPDEST DUP2 EQ PUSH3 0x660 JUMPI PUSH1 0x0 DUP1 REVERT JUMPDEST POP JUMP JUMPDEST PUSH3 0x66E DUP2 PUSH3 0x52E JUMP JUMPDEST DUP2 EQ PUSH3 0x67A JUMPI PUSH1 0x0 DUP1 REVERT JUMPDEST POP JUMP JUMPDEST PUSH2 0x1D55 DUP1 PUSH3 0x68D PUSH1 0x0 CODECOPY PUSH1 0x0 RETURN INVALID PUSH1 0x80 PUSH1 0x40 MSTORE CALLVALUE DUP1 ISZERO PUSH2 0x10 JUMPI PUSH1 0x0 DUP1 REVERT JUMPDEST POP PUSH1 0x4 CALLDATASIZE LT PUSH2 0xA9 JUMPI PUSH1 0x0 CALLDATALOAD PUSH1 0xE0 SHR DUP1 PUSH4 0x5F64B55B GT PUSH2 0x71 JUMPI DUP1 PUSH4 0x5F64B55B EQ PUSH2 0x144 JUMPI DUP1 PUSH4 0x79629B69 EQ PUSH2 0x162 JUMPI DUP1 PUSH4 0x7A16AF7F EQ PUSH2 0x180 JUMPI DUP1 PUSH4 0x8F325C02 EQ PUSH2 0x19C JUMPI DUP1 PUSH4 0xB3A88F7B EQ PUSH2 0x1A6 JUMPI DUP1 PUSH4 0xF9633930 EQ PUSH2 0x1B0 JUMPI PUSH2 0xA9 JUMP JUMPDEST DUP1 PUSH4 0xAEFECB5 EQ PUSH2 0xAE JUMPI DUP1 PUSH4 0xFC63D10 EQ PUSH2 0xCC JUMPI DUP1 PUSH4 0x24731CFF EQ PUSH2 0xEA JUMPI DUP1 PUSH4 0x5B4246D4 EQ PUSH2 0x108 JUMPI DUP1 PUSH4 0x5B8BEC55 EQ PUSH2 0x126 JUMPI JUMPDEST PUSH1 0x0 DUP1 REVERT JUMPDEST PUSH2 0xB6 PUSH2 0x1CE JUMP JUMPDEST PUSH1 0x40 MLOAD PUSH2 0xC3 SWAP2 SWAP1 PUSH2 0x17B1 JUMP JUMPDEST PUSH1 0x40 MLOAD DUP1 SWAP2 SUB SWAP1 RETURN JUMPDEST PUSH2 0xD4 PUSH2 0x1E1 JUMP JUMPDEST PUSH1 0x40 MLOAD PUSH2 0xE1 SWAP2 SWAP1 PUSH2 0x17CC JUMP JUMPDEST PUSH1 0x40 MLOAD DUP1 SWAP2 SUB SWAP1 RETURN JUMPDEST PUSH2 0xF2 PUSH2 0x205 JUMP JUMPDEST PUSH1 0x40 MLOAD PUSH2 0xFF SWAP2 SWAP1 PUSH2 0x18E9 JUMP JUMPDEST PUSH1 0x40 MLOAD DUP1 SWAP2 SUB SWAP1 RETURN JUMPDEST PUSH2 0x110 PUSH2 0x20B JUMP JUMPDEST PUSH1 0x40 MLOAD PUSH2 0x11D SWAP2 SWAP1 PUSH2 0x18E9 JUMP JUMPDEST PUSH1 0x40 MLOAD DUP1 SWAP2 SUB SWAP1 RETURN JUMPDEST PUSH2 0x12E PUSH2 0x211 JUMP JUMPDEST PUSH1 0x40 MLOAD PUSH2 0x13B SWAP2 SWAP1 PUSH2 0x1728 JUMP JUMPDEST PUSH1 0x40 MLOAD DUP1 SWAP2 SUB SWAP1 RETURN JUMPDEST PUSH2 0x14C PUSH2 0x237 JUMP JUMPDEST PUSH1 0x40 MLOAD PUSH2 0x159 SWAP2 SWAP1 PUSH2 0x17CC JUMP JUMPDEST PUSH1 0x40 MLOAD DUP1 SWAP2 SUB SWAP1 RETURN JUMPDEST PUSH2 0x16A PUSH2 0x25D JUMP JUMPDEST PUSH1 0x40 MLOAD PUSH2 0x177 SWAP2 SWAP1 PUSH2 0x18E9 JUMP JUMPDEST PUSH1 0x40 MLOAD DUP1 SWAP2 SUB SWAP1 RETURN JUMPDEST PUSH2 0x19A PUSH1 0x4 DUP1 CALLDATASIZE SUB DUP2 ADD SWAP1 PUSH2 0x195 SWAP2 SWAP1 PUSH2 0x1573 JUMP JUMPDEST PUSH2 0x263 JUMP JUMPDEST STOP JUMPDEST PUSH2 0x1A4 PUSH2 0x69B JUMP JUMPDEST STOP JUMPDEST PUSH2 0x1AE PUSH2 0xD30 JUMP JUMPDEST STOP JUMPDEST PUSH2 0x1B8 PUSH2 0x13FA JUMP JUMPDEST PUSH1 0x40 MLOAD PUSH2 0x1C5 SWAP2 SWAP1 PUSH2 0x17E7 JUMP JUMPDEST PUSH1 0x40 MLOAD DUP1 SWAP2 SUB SWAP1 RETURN JUMPDEST PUSH1 0x4 PUSH1 0x14 SWAP1 SLOAD SWAP1 PUSH2 0x100 EXP SWAP1 DIV PUSH1 0xFF AND DUP2 JUMP JUMPDEST PUSH1 0x0 DUP1 SLOAD SWAP1 PUSH2 0x100 EXP SWAP1 DIV PUSH20 0xFFFFFFFFFFFFFFFFFFFFFFFFFFFFFFFFFFFFFFFF AND DUP2 JUMP JUMPDEST PUSH1 0x6 SLOAD DUP2 JUMP JUMPDEST PUSH1 0x3 SLOAD DUP2 JUMP JUMPDEST PUSH1 0x4 PUSH1 0x0 SWAP1 SLOAD SWAP1 PUSH2 0x100 EXP SWAP1 DIV PUSH20 0xFFFFFFFFFFFFFFFFFFFFFFFFFFFFFFFFFFFFFFFF AND DUP2 JUMP JUMPDEST PUSH1 0x1 PUSH1 0x0 SWAP1 SLOAD SWAP1 PUSH2 0x100 EXP SWAP1 DIV PUSH20 0xFFFFFFFFFFFFFFFFFFFFFFFFFFFFFFFFFFFFFFFF AND DUP2 JUMP JUMPDEST PUSH1 0x5 SLOAD DUP2 JUMP JUMPDEST PUSH1 0x64 DUP3 LT ISZERO DUP1 ISZERO PUSH2 0x275 JUMPI POP PUSH1 0x64 DUP2 LT ISZERO JUMPDEST PUSH2 0x2B4 JUMPI PUSH1 0x40 MLOAD PUSH32 0x8C379A000000000000000000000000000000000000000000000000000000000 DUP2 MSTORE PUSH1 0x4 ADD PUSH2 0x2AB SWAP1 PUSH2 0x1889 JUMP JUMPDEST PUSH1 0x40 MLOAD DUP1 SWAP2 SUB SWAP1 REVERT JUMPDEST PUSH1 0x0 DUP1 SLOAD SWAP1 PUSH2 0x100 EXP SWAP1 DIV PUSH20 0xFFFFFFFFFFFFFFFFFFFFFFFFFFFFFFFFFFFFFFFF AND PUSH20 0xFFFFFFFFFFFFFFFFFFFFFFFFFFFFFFFFFFFFFFFF AND PUSH4 0x23B872DD CALLER ADDRESS DUP6 PUSH1 0x40 MLOAD DUP5 PUSH4 0xFFFFFFFF AND PUSH1 0xE0 SHL DUP2 MSTORE PUSH1 0x4 ADD PUSH2 0x311 SWAP4 SWAP3 SWAP2 SWAP1 PUSH2 0x177A JUMP JUMPDEST PUSH1 0x20 PUSH1 0x40 MLOAD DUP1 DUP4 SUB DUP2 PUSH1 0x0 DUP8 DUP1 EXTCODESIZE ISZERO DUP1 ISZERO PUSH2 0x32B JUMPI PUSH1 0x0 DUP1 REVERT JUMPDEST POP GAS CALL ISZERO DUP1 ISZERO PUSH2 0x33F JUMPI RETURNDATASIZE PUSH1 0x0 DUP1 RETURNDATACOPY RETURNDATASIZE PUSH1 0x0 REVERT JUMPDEST POP POP POP POP PUSH1 0x40 MLOAD RETURNDATASIZE PUSH1 0x1F NOT PUSH1 0x1F DUP3 ADD AND DUP3 ADD DUP1 PUSH1 0x40 MSTORE POP DUP2 ADD SWAP1 PUSH2 0x363 SWAP2 SWAP1 PUSH2 0x1521 JUMP JUMPDEST DUP1 ISZERO PUSH2 0x41C JUMPI POP PUSH1 0x1 PUSH1 0x0 SWAP1 SLOAD SWAP1 PUSH2 0x100 EXP SWAP1 DIV PUSH20 0xFFFFFFFFFFFFFFFFFFFFFFFFFFFFFFFFFFFFFFFF AND PUSH20 0xFFFFFFFFFFFFFFFFFFFFFFFFFFFFFFFFFFFFFFFF AND PUSH4 0x23B872DD CALLER ADDRESS DUP5 PUSH1 0x40 MLOAD DUP5 PUSH4 0xFFFFFFFF AND PUSH1 0xE0 SHL DUP2 MSTORE PUSH1 0x4 ADD PUSH2 0x3C9 SWAP4 SWAP3 SWAP2 SWAP1 PUSH2 0x177A JUMP JUMPDEST PUSH1 0x20 PUSH1 0x40 MLOAD DUP1 DUP4 SUB DUP2 PUSH1 0x0 DUP8 DUP1 EXTCODESIZE ISZERO DUP1 ISZERO PUSH2 0x3E3 JUMPI PUSH1 0x0 DUP1 REVERT JUMPDEST POP GAS CALL ISZERO DUP1 ISZERO PUSH2 0x3F7 JUMPI RETURNDATASIZE PUSH1 0x0 DUP1 RETURNDATACOPY RETURNDATASIZE PUSH1 0x0 REVERT JUMPDEST POP POP POP POP PUSH1 0x40 MLOAD RETURNDATASIZE PUSH1 0x1F NOT PUSH1 0x1F DUP3 ADD AND DUP3 ADD DUP1 PUSH1 0x40 MSTORE POP DUP2 ADD SWAP1 PUSH2 0x41B SWAP2 SWAP1 PUSH2 0x1521 JUMP JUMPDEST JUMPDEST PUSH2 0x45B JUMPI PUSH1 0x40 MLOAD PUSH32 0x8C379A000000000000000000000000000000000000000000000000000000000 DUP2 MSTORE PUSH1 0x4 ADD PUSH2 0x452 SWAP1 PUSH2 0x18A9 JUMP JUMPDEST PUSH1 0x40 MLOAD DUP1 SWAP2 SUB SWAP1 REVERT JUMPDEST PUSH1 0x0 PUSH20 0xFFFFFFFFFFFFFFFFFFFFFFFFFFFFFFFFFFFFFFFF AND PUSH1 0x4 PUSH1 0x0 SWAP1 SLOAD SWAP1 PUSH2 0x100 EXP SWAP1 DIV PUSH20 0xFFFFFFFFFFFFFFFFFFFFFFFFFFFFFFFFFFFFFFFF AND PUSH20 0xFFFFFFFFFFFFFFFFFFFFFFFFFFFFFFFFFFFFFFFF AND EQ ISZERO PUSH2 0x4F8 JUMPI CALLER PUSH1 0x4 PUSH1 0x0 PUSH2 0x100 EXP DUP2 SLOAD DUP2 PUSH20 0xFFFFFFFFFFFFFFFFFFFFFFFFFFFFFFFFFFFFFFFF MUL NOT AND SWAP1 DUP4 PUSH20 0xFFFFFFFFFFFFFFFFFFFFFFFFFFFFFFFFFFFFFFFF AND MUL OR SWAP1 SSTORE POP PUSH2 0x533 JUMP JUMPDEST PUSH1 0x40 MLOAD PUSH32 0x8C379A000000000000000000000000000000000000000000000000000000000 DUP2 MSTORE PUSH1 0x4 ADD PUSH2 0x52A SWAP1 PUSH2 0x1849 JUMP JUMPDEST PUSH1 0x40 MLOAD DUP1 SWAP2 SUB SWAP1 REVERT JUMPDEST PUSH1 0x1 PUSH1 0x0 SWAP1 SLOAD SWAP1 PUSH2 0x100 EXP SWAP1 DIV PUSH20 0xFFFFFFFFFFFFFFFFFFFFFFFFFFFFFFFFFFFFFFFF AND PUSH20 0xFFFFFFFFFFFFFFFFFFFFFFFFFFFFFFFFFFFFFFFF AND PUSH4 0x70A08231 ADDRESS PUSH1 0x40 MLOAD DUP3 PUSH4 0xFFFFFFFF AND PUSH1 0xE0 SHL DUP2 MSTORE PUSH1 0x4 ADD PUSH2 0x58E SWAP2 SWAP1 PUSH2 0x1728 JUMP JUMPDEST PUSH1 0x20 PUSH1 0x40 MLOAD DUP1 DUP4 SUB DUP2 DUP7 DUP1 EXTCODESIZE ISZERO DUP1 ISZERO PUSH2 0x5A6 JUMPI PUSH1 0x0 DUP1 REVERT JUMPDEST POP GAS STATICCALL ISZERO DUP1 ISZERO PUSH2 0x5BA JUMPI RETURNDATASIZE PUSH1 0x0 DUP1 RETURNDATACOPY RETURNDATASIZE PUSH1 0x0 REVERT JUMPDEST POP POP POP POP PUSH1 0x40 MLOAD RETURNDATASIZE PUSH1 0x1F NOT PUSH1 0x1F DUP3 ADD AND DUP3 ADD DUP1 PUSH1 0x40 MSTORE POP DUP2 ADD SWAP1 PUSH2 0x5DE SWAP2 SWAP1 PUSH2 0x154A JUMP JUMPDEST PUSH1 0x0 DUP1 SLOAD SWAP1 PUSH2 0x100 EXP SWAP1 DIV PUSH20 0xFFFFFFFFFFFFFFFFFFFFFFFFFFFFFFFFFFFFFFFF AND PUSH20 0xFFFFFFFFFFFFFFFFFFFFFFFFFFFFFFFFFFFFFFFF AND PUSH4 0x70A08231 ADDRESS PUSH1 0x40 MLOAD DUP3 PUSH4 0xFFFFFFFF AND PUSH1 0xE0 SHL DUP2 MSTORE PUSH1 0x4 ADD PUSH2 0x637 SWAP2 SWAP1 PUSH2 0x1728 JUMP JUMPDEST PUSH1 0x20 PUSH1 0x40 MLOAD DUP1 DUP4 SUB DUP2 DUP7 DUP1 EXTCODESIZE ISZERO DUP1 ISZERO PUSH2 0x64F JUMPI PUSH1 0x0 DUP1 REVERT JUMPDEST POP GAS STATICCALL ISZERO DUP1 ISZERO PUSH2 0x663 JUMPI RETURNDATASIZE PUSH1 0x0 DUP1 RETURNDATACOPY RETURNDATASIZE PUSH1 0x0 REVERT JUMPDEST POP POP POP POP PUSH1 0x40 MLOAD RETURNDATASIZE PUSH1 0x1F NOT PUSH1 0x1F DUP3 ADD AND DUP3 ADD DUP1 PUSH1 0x40 MSTORE POP DUP2 ADD SWAP1 PUSH2 0x687 SWAP2 SWAP1 PUSH2 0x154A JUMP JUMPDEST PUSH2 0x691 SWAP2 SWAP1 PUSH2 0x1951 JUMP JUMPDEST PUSH1 0x3 DUP2 SWAP1 SSTORE POP POP POP JUMP JUMPDEST PUSH1 0xA PUSH1 0x0 DUP1 SLOAD SWAP1 PUSH2 0x100 EXP SWAP1 DIV PUSH20 0xFFFFFFFFFFFFFFFFFFFFFFFFFFFFFFFFFFFFFFFF AND PUSH20 0xFFFFFFFFFFFFFFFFFFFFFFFFFFFFFFFFFFFFFFFF AND PUSH4 0x70A08231 CALLER PUSH1 0x40 MLOAD DUP3 PUSH4 0xFFFFFFFF AND PUSH1 0xE0 SHL DUP2 MSTORE PUSH1 0x4 ADD PUSH2 0x6F6 SWAP2 SWAP1 PUSH2 0x1728 JUMP JUMPDEST PUSH1 0x20 PUSH1 0x40 MLOAD DUP1 DUP4 SUB DUP2 DUP7 DUP1 EXTCODESIZE ISZERO DUP1 ISZERO PUSH2 0x70E JUMPI PUSH1 0x0 DUP1 REVERT JUMPDEST POP GAS STATICCALL ISZERO DUP1 ISZERO PUSH2 0x722 JUMPI RETURNDATASIZE PUSH1 0x0 DUP1 RETURNDATACOPY RETURNDATASIZE PUSH1 0x0 REVERT JUMPDEST POP POP POP POP PUSH1 0x40 MLOAD RETURNDATASIZE PUSH1 0x1F NOT PUSH1 0x1F DUP3 ADD AND DUP3 ADD DUP1 PUSH1 0x40 MSTORE POP DUP2 ADD SWAP1 PUSH2 0x746 SWAP2 SWAP1 PUSH2 0x154A JUMP JUMPDEST LT ISZERO PUSH2 0x751 JUMPI PUSH1 0x0 DUP1 REVERT JUMPDEST PUSH1 0x63 PUSH1 0x0 DUP1 SLOAD SWAP1 PUSH2 0x100 EXP SWAP1 DIV PUSH20 0xFFFFFFFFFFFFFFFFFFFFFFFFFFFFFFFFFFFFFFFF AND PUSH20 0xFFFFFFFFFFFFFFFFFFFFFFFFFFFFFFFFFFFFFFFF AND PUSH4 0x70A08231 ADDRESS PUSH1 0x40 MLOAD DUP3 PUSH4 0xFFFFFFFF AND PUSH1 0xE0 SHL DUP2 MSTORE PUSH1 0x4 ADD PUSH2 0x7AC SWAP2 SWAP1 PUSH2 0x1728 JUMP JUMPDEST PUSH1 0x20 PUSH1 0x40 MLOAD DUP1 DUP4 SUB DUP2 DUP7 DUP1 EXTCODESIZE ISZERO DUP1 ISZERO PUSH2 0x7C4 JUMPI PUSH1 0x0 DUP1 REVERT JUMPDEST POP GAS STATICCALL ISZERO DUP1 ISZERO PUSH2 0x7D8 JUMPI RETURNDATASIZE PUSH1 0x0 DUP1 RETURNDATACOPY RETURNDATASIZE PUSH1 0x0 REVERT JUMPDEST POP POP POP POP PUSH1 0x40 MLOAD RETURNDATASIZE PUSH1 0x1F NOT PUSH1 0x1F DUP3 ADD AND DUP3 ADD DUP1 PUSH1 0x40 MSTORE POP DUP2 ADD SWAP1 PUSH2 0x7FC SWAP2 SWAP1 PUSH2 0x154A JUMP JUMPDEST GT PUSH2 0x83C JUMPI PUSH1 0x40 MLOAD PUSH32 0x8C379A000000000000000000000000000000000000000000000000000000000 DUP2 MSTORE PUSH1 0x4 ADD PUSH2 0x833 SWAP1 PUSH2 0x1869 JUMP JUMPDEST PUSH1 0x40 MLOAD DUP1 SWAP2 SUB SWAP1 REVERT JUMPDEST PUSH1 0x63 PUSH1 0x1 PUSH1 0x0 SWAP1 SLOAD SWAP1 PUSH2 0x100 EXP SWAP1 DIV PUSH20 0xFFFFFFFFFFFFFFFFFFFFFFFFFFFFFFFFFFFFFFFF AND PUSH20 0xFFFFFFFFFFFFFFFFFFFFFFFFFFFFFFFFFFFFFFFF AND PUSH4 0x70A08231 ADDRESS PUSH1 0x40 MLOAD DUP3 PUSH4 0xFFFFFFFF AND PUSH1 0xE0 SHL DUP2 MSTORE PUSH1 0x4 ADD PUSH2 0x899 SWAP2 SWAP1 PUSH2 0x1728 JUMP JUMPDEST PUSH1 0x20 PUSH1 0x40 MLOAD DUP1 DUP4 SUB DUP2 DUP7 DUP1 EXTCODESIZE ISZERO DUP1 ISZERO PUSH2 0x8B1 JUMPI PUSH1 0x0 DUP1 REVERT JUMPDEST POP GAS STATICCALL ISZERO DUP1 ISZERO PUSH2 0x8C5 JUMPI RETURNDATASIZE PUSH1 0x0 DUP1 RETURNDATACOPY RETURNDATASIZE PUSH1 0x0 REVERT JUMPDEST POP POP POP POP PUSH1 0x40 MLOAD RETURNDATASIZE PUSH1 0x1F NOT PUSH1 0x1F DUP3 ADD AND DUP3 ADD DUP1 PUSH1 0x40 MSTORE POP DUP2 ADD SWAP1 PUSH2 0x8E9 SWAP2 SWAP1 PUSH2 0x154A JUMP JUMPDEST GT PUSH2 0x929 JUMPI PUSH1 0x40 MLOAD PUSH32 0x8C379A000000000000000000000000000000000000000000000000000000000 DUP2 MSTORE PUSH1 0x4 ADD PUSH2 0x920 SWAP1 PUSH2 0x18C9 JUMP JUMPDEST PUSH1 0x40 MLOAD DUP1 SWAP2 SUB SWAP1 REVERT JUMPDEST PUSH1 0x0 DUP1 SLOAD SWAP1 PUSH2 0x100 EXP SWAP1 DIV PUSH20 0xFFFFFFFFFFFFFFFFFFFFFFFFFFFFFFFFFFFFFFFF AND PUSH20 0xFFFFFFFFFFFFFFFFFFFFFFFFFFFFFFFFFFFFFFFF AND PUSH4 0x23B872DD CALLER ADDRESS PUSH1 0xA PUSH1 0x40 MLOAD DUP5 PUSH4 0xFFFFFFFF AND PUSH1 0xE0 SHL DUP2 MSTORE PUSH1 0x4 ADD PUSH2 0x987 SWAP4 SWAP3 SWAP2 SWAP1 PUSH2 0x1743 JUMP JUMPDEST PUSH1 0x20 PUSH1 0x40 MLOAD DUP1 DUP4 SUB DUP2 PUSH1 0x0 DUP8 DUP1 EXTCODESIZE ISZERO DUP1 ISZERO PUSH2 0x9A1 JUMPI PUSH1 0x0 DUP1 REVERT JUMPDEST POP GAS CALL ISZERO DUP1 ISZERO PUSH2 0x9B5 JUMPI RETURNDATASIZE PUSH1 0x0 DUP1 RETURNDATACOPY RETURNDATASIZE PUSH1 0x0 REVERT JUMPDEST POP POP POP POP PUSH1 0x40 MLOAD RETURNDATASIZE PUSH1 0x1F NOT PUSH1 0x1F DUP3 ADD AND DUP3 ADD DUP1 PUSH1 0x40 MSTORE POP DUP2 ADD SWAP1 PUSH2 0x9D9 SWAP2 SWAP1 PUSH2 0x1521 JUMP JUMPDEST POP PUSH1 0x0 DUP1 PUSH1 0x0 SWAP1 SLOAD SWAP1 PUSH2 0x100 EXP SWAP1 DIV PUSH20 0xFFFFFFFFFFFFFFFFFFFFFFFFFFFFFFFFFFFFFFFF AND PUSH20 0xFFFFFFFFFFFFFFFFFFFFFFFFFFFFFFFFFFFFFFFF AND PUSH4 0x70A08231 ADDRESS PUSH1 0x40 MLOAD DUP3 PUSH4 0xFFFFFFFF AND PUSH1 0xE0 SHL DUP2 MSTORE PUSH1 0x4 ADD PUSH2 0xA36 SWAP2 SWAP1 PUSH2 0x1728 JUMP JUMPDEST PUSH1 0x20 PUSH1 0x40 MLOAD DUP1 DUP4 SUB DUP2 DUP7 DUP1 EXTCODESIZE ISZERO DUP1 ISZERO PUSH2 0xA4E JUMPI PUSH1 0x0 DUP1 REVERT JUMPDEST POP GAS STATICCALL ISZERO DUP1 ISZERO PUSH2 0xA62 JUMPI RETURNDATASIZE PUSH1 0x0 DUP1 RETURNDATACOPY RETURNDATASIZE PUSH1 0x0 REVERT JUMPDEST POP POP POP POP PUSH1 0x40 MLOAD RETURNDATASIZE PUSH1 0x1F NOT PUSH1 0x1F DUP3 ADD AND DUP3 ADD DUP1 PUSH1 0x40 MSTORE POP DUP2 ADD SWAP1 PUSH2 0xA86 SWAP2 SWAP1 PUSH2 0x154A JUMP JUMPDEST PUSH1 0x3 SLOAD PUSH2 0xA93 SWAP2 SWAP1 PUSH2 0x1920 JUMP JUMPDEST SWAP1 POP PUSH1 0x0 DUP2 PUSH1 0x1 PUSH1 0x0 SWAP1 SLOAD SWAP1 PUSH2 0x100 EXP SWAP1 DIV PUSH20 0xFFFFFFFFFFFFFFFFFFFFFFFFFFFFFFFFFFFFFFFF AND PUSH20 0xFFFFFFFFFFFFFFFFFFFFFFFFFFFFFFFFFFFFFFFF AND PUSH4 0x70A08231 ADDRESS PUSH1 0x40 MLOAD DUP3 PUSH4 0xFFFFFFFF AND PUSH1 0xE0 SHL DUP2 MSTORE PUSH1 0x4 ADD PUSH2 0xAF3 SWAP2 SWAP1 PUSH2 0x1728 JUMP JUMPDEST PUSH1 0x20 PUSH1 0x40 MLOAD DUP1 DUP4 SUB DUP2 DUP7 DUP1 EXTCODESIZE ISZERO DUP1 ISZERO PUSH2 0xB0B JUMPI PUSH1 0x0 DUP1 REVERT JUMPDEST POP GAS STATICCALL ISZERO DUP1 ISZERO PUSH2 0xB1F JUMPI RETURNDATASIZE PUSH1 0x0 DUP1 RETURNDATACOPY RETURNDATASIZE PUSH1 0x0 REVERT JUMPDEST POP POP POP POP PUSH1 0x40 MLOAD RETURNDATASIZE PUSH1 0x1F NOT PUSH1 0x1F DUP3 ADD AND DUP3 ADD DUP1 PUSH1 0x40 MSTORE POP DUP2 ADD SWAP1 PUSH2 0xB43 SWAP2 SWAP1 PUSH2 0x154A JUMP JUMPDEST PUSH2 0xB4D SWAP2 SWAP1 PUSH2 0x19AB JUMP JUMPDEST SWAP1 POP PUSH1 0x0 PUSH1 0xA PUSH1 0x9 DUP4 PUSH2 0xB60 SWAP2 SWAP1 PUSH2 0x1951 JUMP JUMPDEST PUSH2 0xB6A SWAP2 SWAP1 PUSH2 0x1920 JUMP JUMPDEST SWAP1 POP PUSH1 0x0 PUSH1 0xA PUSH1 0x1 DUP5 PUSH2 0xB7D SWAP2 SWAP1 PUSH2 0x1951 JUMP JUMPDEST PUSH2 0xB87 SWAP2 SWAP1 PUSH2 0x1920 JUMP JUMPDEST SWAP1 POP PUSH1 0x1 PUSH1 0x0 SWAP1 SLOAD SWAP1 PUSH2 0x100 EXP SWAP1 DIV PUSH20 0xFFFFFFFFFFFFFFFFFFFFFFFFFFFFFFFFFFFFFFFF AND PUSH20 0xFFFFFFFFFFFFFFFFFFFFFFFFFFFFFFFFFFFFFFFF AND PUSH4 0x23B872DD ADDRESS CALLER DUP6 PUSH1 0x40 MLOAD DUP5 PUSH4 0xFFFFFFFF AND PUSH1 0xE0 SHL DUP2 MSTORE PUSH1 0x4 ADD PUSH2 0xBE8 SWAP4 SWAP3 SWAP2 SWAP1 PUSH2 0x177A JUMP JUMPDEST PUSH1 0x20 PUSH1 0x40 MLOAD DUP1 DUP4 SUB DUP2 PUSH1 0x0 DUP8 DUP1 EXTCODESIZE ISZERO DUP1 ISZERO PUSH2 0xC02 JUMPI PUSH1 0x0 DUP1 REVERT JUMPDEST POP GAS CALL ISZERO DUP1 ISZERO PUSH2 0xC16 JUMPI RETURNDATASIZE PUSH1 0x0 DUP1 RETURNDATACOPY RETURNDATASIZE PUSH1 0x0 REVERT JUMPDEST POP POP POP POP PUSH1 0x40 MLOAD RETURNDATASIZE PUSH1 0x1F NOT PUSH1 0x1F DUP3 ADD AND DUP3 ADD DUP1 PUSH1 0x40 MSTORE POP DUP2 ADD SWAP1 PUSH2 0xC3A SWAP2 SWAP1 PUSH2 0x1521 JUMP JUMPDEST POP PUSH1 0x1 PUSH1 0x0 SWAP1 SLOAD SWAP1 PUSH2 0x100 EXP SWAP1 DIV PUSH20 0xFFFFFFFFFFFFFFFFFFFFFFFFFFFFFFFFFFFFFFFF AND PUSH20 0xFFFFFFFFFFFFFFFFFFFFFFFFFFFFFFFFFFFFFFFF AND PUSH4 0x23B872DD ADDRESS PUSH1 0x4 PUSH1 0x0 SWAP1 SLOAD SWAP1 PUSH2 0x100 EXP SWAP1 DIV PUSH20 0xFFFFFFFFFFFFFFFFFFFFFFFFFFFFFFFFFFFFFFFF AND DUP5 PUSH1 0x40 MLOAD DUP5 PUSH4 0xFFFFFFFF AND PUSH1 0xE0 SHL DUP2 MSTORE PUSH1 0x4 ADD PUSH2 0xCBC SWAP4 SWAP3 SWAP2 SWAP1 PUSH2 0x177A JUMP JUMPDEST PUSH1 0x20 PUSH1 0x40 MLOAD DUP1 DUP4 SUB DUP2 PUSH1 0x0 DUP8 DUP1 EXTCODESIZE ISZERO DUP1 ISZERO PUSH2 0xCD6 JUMPI PUSH1 0x0 DUP1 REVERT JUMPDEST POP GAS CALL ISZERO DUP1 ISZERO PUSH2 0xCEA JUMPI RETURNDATASIZE PUSH1 0x0 DUP1 RETURNDATACOPY RETURNDATASIZE PUSH1 0x0 REVERT JUMPDEST POP POP POP POP PUSH1 0x40 MLOAD RETURNDATASIZE PUSH1 0x1F NOT PUSH1 0x1F DUP3 ADD AND DUP3 ADD DUP1 PUSH1 0x40 MSTORE POP DUP2 ADD SWAP1 PUSH2 0xD0E SWAP2 SWAP1 PUSH2 0x1521 JUMP JUMPDEST POP PUSH1 0x1 PUSH1 0x4 PUSH1 0x14 PUSH2 0x100 EXP DUP2 SLOAD DUP2 PUSH1 0xFF MUL NOT AND SWAP1 DUP4 ISZERO ISZERO MUL OR SWAP1 SSTORE POP POP POP POP POP JUMP JUMPDEST PUSH1 0xA PUSH1 0x1 PUSH1 0x0 SWAP1 SLOAD SWAP1 PUSH2 0x100 EXP SWAP1 DIV PUSH20 0xFFFFFFFFFFFFFFFFFFFFFFFFFFFFFFFFFFFFFFFF AND PUSH20 0xFFFFFFFFFFFFFFFFFFFFFFFFFFFFFFFFFFFFFFFF AND PUSH4 0x70A08231 CALLER PUSH1 0x40 MLOAD DUP3 PUSH4 0xFFFFFFFF AND PUSH1 0xE0 SHL DUP2 MSTORE PUSH1 0x4 ADD PUSH2 0xD8D SWAP2 SWAP1 PUSH2 0x1728 JUMP JUMPDEST PUSH1 0x20 PUSH1 0x40 MLOAD DUP1 DUP4 SUB DUP2 DUP7 DUP1 EXTCODESIZE ISZERO DUP1 ISZERO PUSH2 0xDA5 JUMPI PUSH1 0x0 DUP1 REVERT JUMPDEST POP GAS STATICCALL ISZERO DUP1 ISZERO PUSH2 0xDB9 JUMPI RETURNDATASIZE PUSH1 0x0 DUP1 RETURNDATACOPY RETURNDATASIZE PUSH1 0x0 REVERT JUMPDEST POP POP POP POP PUSH1 0x40 MLOAD RETURNDATASIZE PUSH1 0x1F NOT PUSH1 0x1F DUP3 ADD AND DUP3 ADD DUP1 PUSH1 0x40 MSTORE POP DUP2 ADD SWAP1 PUSH2 0xDDD SWAP2 SWAP1 PUSH2 0x154A JUMP JUMPDEST LT ISZERO PUSH2 0xE1E JUMPI PUSH1 0x40 MLOAD PUSH32 0x8C379A000000000000000000000000000000000000000000000000000000000 DUP2 MSTORE PUSH1 0x4 ADD PUSH2 0xE15 SWAP1 PUSH2 0x1829 JUMP JUMPDEST PUSH1 0x40 MLOAD DUP1 SWAP2 SUB SWAP1 REVERT JUMPDEST PUSH1 0x63 PUSH1 0x1 PUSH1 0x0 SWAP1 SLOAD SWAP1 PUSH2 0x100 EXP SWAP1 DIV PUSH20 0xFFFFFFFFFFFFFFFFFFFFFFFFFFFFFFFFFFFFFFFF AND PUSH20 0xFFFFFFFFFFFFFFFFFFFFFFFFFFFFFFFFFFFFFFFF AND PUSH4 0x70A08231 ADDRESS PUSH1 0x40 MLOAD DUP3 PUSH4 0xFFFFFFFF AND PUSH1 0xE0 SHL DUP2 MSTORE PUSH1 0x4 ADD PUSH2 0xE7B SWAP2 SWAP1 PUSH2 0x1728 JUMP JUMPDEST PUSH1 0x20 PUSH1 0x40 MLOAD DUP1 DUP4 SUB DUP2 DUP7 DUP1 EXTCODESIZE ISZERO DUP1 ISZERO PUSH2 0xE93 JUMPI PUSH1 0x0 DUP1 REVERT JUMPDEST POP GAS STATICCALL ISZERO DUP1 ISZERO PUSH2 0xEA7 JUMPI RETURNDATASIZE PUSH1 0x0 DUP1 RETURNDATACOPY RETURNDATASIZE PUSH1 0x0 REVERT JUMPDEST POP POP POP POP PUSH1 0x40 MLOAD RETURNDATASIZE PUSH1 0x1F NOT PUSH1 0x1F DUP3 ADD AND DUP3 ADD DUP1 PUSH1 0x40 MSTORE POP DUP2 ADD SWAP1 PUSH2 0xECB SWAP2 SWAP1 PUSH2 0x154A JUMP JUMPDEST GT PUSH2 0xF0B JUMPI PUSH1 0x40 MLOAD PUSH32 0x8C379A000000000000000000000000000000000000000000000000000000000 DUP2 MSTORE PUSH1 0x4 ADD PUSH2 0xF02 SWAP1 PUSH2 0x18C9 JUMP JUMPDEST PUSH1 0x40 MLOAD DUP1 SWAP2 SUB SWAP1 REVERT JUMPDEST PUSH1 0x63 PUSH1 0x0 DUP1 SLOAD SWAP1 PUSH2 0x100 EXP SWAP1 DIV PUSH20 0xFFFFFFFFFFFFFFFFFFFFFFFFFFFFFFFFFFFFFFFF AND PUSH20 0xFFFFFFFFFFFFFFFFFFFFFFFFFFFFFFFFFFFFFFFF AND PUSH4 0x70A08231 ADDRESS PUSH1 0x40 MLOAD DUP3 PUSH4 0xFFFFFFFF AND PUSH1 0xE0 SHL DUP2 MSTORE PUSH1 0x4 ADD PUSH2 0xF66 SWAP2 SWAP1 PUSH2 0x1728 JUMP JUMPDEST PUSH1 0x20 PUSH1 0x40 MLOAD DUP1 DUP4 SUB DUP2 DUP7 DUP1 EXTCODESIZE ISZERO DUP1 ISZERO PUSH2 0xF7E JUMPI PUSH1 0x0 DUP1 REVERT JUMPDEST POP GAS STATICCALL ISZERO DUP1 ISZERO PUSH2 0xF92 JUMPI RETURNDATASIZE PUSH1 0x0 DUP1 RETURNDATACOPY RETURNDATASIZE PUSH1 0x0 REVERT JUMPDEST POP POP POP POP PUSH1 0x40 MLOAD RETURNDATASIZE PUSH1 0x1F NOT PUSH1 0x1F DUP3 ADD AND DUP3 ADD DUP1 PUSH1 0x40 MSTORE POP DUP2 ADD SWAP1 PUSH2 0xFB6 SWAP2 SWAP1 PUSH2 0x154A JUMP JUMPDEST GT PUSH2 0xFF6 JUMPI PUSH1 0x40 MLOAD PUSH32 0x8C379A000000000000000000000000000000000000000000000000000000000 DUP2 MSTORE PUSH1 0x4 ADD PUSH2 0xFED SWAP1 PUSH2 0x1869 JUMP JUMPDEST PUSH1 0x40 MLOAD DUP1 SWAP2 SUB SWAP1 REVERT JUMPDEST PUSH1 0x1 PUSH1 0x0 SWAP1 SLOAD SWAP1 PUSH2 0x100 EXP SWAP1 DIV PUSH20 0xFFFFFFFFFFFFFFFFFFFFFFFFFFFFFFFFFFFFFFFF AND PUSH20 0xFFFFFFFFFFFFFFFFFFFFFFFFFFFFFFFFFFFFFFFF AND PUSH4 0x23B872DD CALLER ADDRESS PUSH1 0xA PUSH1 0x40 MLOAD DUP5 PUSH4 0xFFFFFFFF AND PUSH1 0xE0 SHL DUP2 MSTORE PUSH1 0x4 ADD PUSH2 0x1056 SWAP4 SWAP3 SWAP2 SWAP1 PUSH2 0x1743 JUMP JUMPDEST PUSH1 0x20 PUSH1 0x40 MLOAD DUP1 DUP4 SUB DUP2 PUSH1 0x0 DUP8 DUP1 EXTCODESIZE ISZERO DUP1 ISZERO PUSH2 0x1070 JUMPI PUSH1 0x0 DUP1 REVERT JUMPDEST POP GAS CALL ISZERO DUP1 ISZERO PUSH2 0x1084 JUMPI RETURNDATASIZE PUSH1 0x0 DUP1 RETURNDATACOPY RETURNDATASIZE PUSH1 0x0 REVERT JUMPDEST POP POP POP POP PUSH1 0x40 MLOAD RETURNDATASIZE PUSH1 0x1F NOT PUSH1 0x1F DUP3 ADD AND DUP3 ADD DUP1 PUSH1 0x40 MSTORE POP DUP2 ADD SWAP1 PUSH2 0x10A8 SWAP2 SWAP1 PUSH2 0x1521 JUMP JUMPDEST POP PUSH1 0x0 PUSH1 0x1 PUSH1 0x0 SWAP1 SLOAD SWAP1 PUSH2 0x100 EXP SWAP1 DIV PUSH20 0xFFFFFFFFFFFFFFFFFFFFFFFFFFFFFFFFFFFFFFFF AND PUSH20 0xFFFFFFFFFFFFFFFFFFFFFFFFFFFFFFFFFFFFFFFF AND PUSH4 0x70A08231 ADDRESS PUSH1 0x40 MLOAD DUP3 PUSH4 0xFFFFFFFF AND PUSH1 0xE0 SHL DUP2 MSTORE PUSH1 0x4 ADD PUSH2 0x1106 SWAP2 SWAP1 PUSH2 0x1728 JUMP JUMPDEST PUSH1 0x20 PUSH1 0x40 MLOAD DUP1 DUP4 SUB DUP2 DUP7 DUP1 EXTCODESIZE ISZERO DUP1 ISZERO PUSH2 0x111E JUMPI PUSH1 0x0 DUP1 REVERT JUMPDEST POP GAS STATICCALL ISZERO DUP1 ISZERO PUSH2 0x1132 JUMPI RETURNDATASIZE PUSH1 0x0 DUP1 RETURNDATACOPY RETURNDATASIZE PUSH1 0x0 REVERT JUMPDEST POP POP POP POP PUSH1 0x40 MLOAD RETURNDATASIZE PUSH1 0x1F NOT PUSH1 0x1F DUP3 ADD AND DUP3 ADD DUP1 PUSH1 0x40 MSTORE POP DUP2 ADD SWAP1 PUSH2 0x1156 SWAP2 SWAP1 PUSH2 0x154A JUMP JUMPDEST PUSH1 0x3 SLOAD PUSH2 0x1163 SWAP2 SWAP1 PUSH2 0x1920 JUMP JUMPDEST SWAP1 POP PUSH1 0x0 DUP2 PUSH1 0x0 DUP1 SLOAD SWAP1 PUSH2 0x100 EXP SWAP1 DIV PUSH20 0xFFFFFFFFFFFFFFFFFFFFFFFFFFFFFFFFFFFFFFFF AND PUSH20 0xFFFFFFFFFFFFFFFFFFFFFFFFFFFFFFFFFFFFFFFF AND PUSH4 0x70A08231 ADDRESS PUSH1 0x40 MLOAD DUP3 PUSH4 0xFFFFFFFF AND PUSH1 0xE0 SHL DUP2 MSTORE PUSH1 0x4 ADD PUSH2 0x11C1 SWAP2 SWAP1 PUSH2 0x1728 JUMP JUMPDEST PUSH1 0x20 PUSH1 0x40 MLOAD DUP1 DUP4 SUB DUP2 DUP7 DUP1 EXTCODESIZE ISZERO DUP1 ISZERO PUSH2 0x11D9 JUMPI PUSH1 0x0 DUP1 REVERT JUMPDEST POP GAS STATICCALL ISZERO DUP1 ISZERO PUSH2 0x11ED JUMPI RETURNDATASIZE PUSH1 0x0 DUP1 RETURNDATACOPY RETURNDATASIZE PUSH1 0x0 REVERT JUMPDEST POP POP POP POP PUSH1 0x40 MLOAD RETURNDATASIZE PUSH1 0x1F NOT PUSH1 0x1F DUP3 ADD AND DUP3 ADD DUP1 PUSH1 0x40 MSTORE POP DUP2 ADD SWAP1 PUSH2 0x1211 SWAP2 SWAP1 PUSH2 0x154A JUMP JUMPDEST PUSH2 0x121B SWAP2 SWAP1 PUSH2 0x19AB JUMP JUMPDEST SWAP1 POP PUSH1 0x0 PUSH1 0xA PUSH1 0x9 DUP4 PUSH2 0x122E SWAP2 SWAP1 PUSH2 0x1951 JUMP JUMPDEST PUSH2 0x1238 SWAP2 SWAP1 PUSH2 0x1920 JUMP JUMPDEST SWAP1 POP PUSH1 0x0 PUSH1 0xA PUSH1 0x1 DUP5 PUSH2 0x124B SWAP2 SWAP1 PUSH2 0x1951 JUMP JUMPDEST PUSH2 0x1255 SWAP2 SWAP1 PUSH2 0x1920 JUMP JUMPDEST SWAP1 POP PUSH1 0x0 DUP1 SLOAD SWAP1 PUSH2 0x100 EXP SWAP1 DIV PUSH20 0xFFFFFFFFFFFFFFFFFFFFFFFFFFFFFFFFFFFFFFFF AND PUSH20 0xFFFFFFFFFFFFFFFFFFFFFFFFFFFFFFFFFFFFFFFF AND PUSH4 0x23B872DD ADDRESS CALLER DUP6 PUSH1 0x40 MLOAD DUP5 PUSH4 0xFFFFFFFF AND PUSH1 0xE0 SHL DUP2 MSTORE PUSH1 0x4 ADD PUSH2 0x12B4 SWAP4 SWAP3 SWAP2 SWAP1 PUSH2 0x177A JUMP JUMPDEST PUSH1 0x20 PUSH1 0x40 MLOAD DUP1 DUP4 SUB DUP2 PUSH1 0x0 DUP8 DUP1 EXTCODESIZE ISZERO DUP1 ISZERO PUSH2 0x12CE JUMPI PUSH1 0x0 DUP1 REVERT JUMPDEST POP GAS CALL ISZERO DUP1 ISZERO PUSH2 0x12E2 JUMPI RETURNDATASIZE PUSH1 0x0 DUP1 RETURNDATACOPY RETURNDATASIZE PUSH1 0x0 REVERT JUMPDEST POP POP POP POP PUSH1 0x40 MLOAD RETURNDATASIZE PUSH1 0x1F NOT PUSH1 0x1F DUP3 ADD AND DUP3 ADD DUP1 PUSH1 0x40 MSTORE POP DUP2 ADD SWAP1 PUSH2 0x1306 SWAP2 SWAP1 PUSH2 0x1521 JUMP JUMPDEST POP PUSH1 0x0 DUP1 SLOAD SWAP1 PUSH2 0x100 EXP SWAP1 DIV PUSH20 0xFFFFFFFFFFFFFFFFFFFFFFFFFFFFFFFFFFFFFFFF AND PUSH20 0xFFFFFFFFFFFFFFFFFFFFFFFFFFFFFFFFFFFFFFFF AND PUSH4 0x23B872DD ADDRESS PUSH1 0x4 PUSH1 0x0 SWAP1 SLOAD SWAP1 PUSH2 0x100 EXP SWAP1 DIV PUSH20 0xFFFFFFFFFFFFFFFFFFFFFFFFFFFFFFFFFFFFFFFF AND DUP5 PUSH1 0x40 MLOAD DUP5 PUSH4 0xFFFFFFFF AND PUSH1 0xE0 SHL DUP2 MSTORE PUSH1 0x4 ADD PUSH2 0x1386 SWAP4 SWAP3 SWAP2 SWAP1 PUSH2 0x177A JUMP JUMPDEST PUSH1 0x20 PUSH1 0x40 MLOAD DUP1 DUP4 SUB DUP2 PUSH1 0x0 DUP8 DUP1 EXTCODESIZE ISZERO DUP1 ISZERO PUSH2 0x13A0 JUMPI PUSH1 0x0 DUP1 REVERT JUMPDEST POP GAS CALL ISZERO DUP1 ISZERO PUSH2 0x13B4 JUMPI RETURNDATASIZE PUSH1 0x0 DUP1 RETURNDATACOPY RETURNDATASIZE PUSH1 0x0 REVERT JUMPDEST POP POP POP POP PUSH1 0x40 MLOAD RETURNDATASIZE PUSH1 0x1F NOT PUSH1 0x1F DUP3 ADD AND DUP3 ADD DUP1 PUSH1 0x40 MSTORE POP DUP2 ADD SWAP1 PUSH2 0x13D8 SWAP2 SWAP1 PUSH2 0x1521 JUMP JUMPDEST POP PUSH1 0x1 PUSH1 0x4 PUSH1 0x14 PUSH2 0x100 EXP DUP2 SLOAD DUP2 PUSH1 0xFF MUL NOT AND SWAP1 DUP4 ISZERO ISZERO MUL OR SWAP1 SSTORE POP POP POP POP POP JUMP JUMPDEST PUSH1 0x60 PUSH1 0x1 ISZERO ISZERO PUSH1 0x4 PUSH1 0x14 SWAP1 SLOAD SWAP1 PUSH2 0x100 EXP SWAP1 DIV PUSH1 0xFF AND ISZERO ISZERO EQ PUSH2 0x1452 JUMPI PUSH1 0x40 MLOAD PUSH32 0x8C379A000000000000000000000000000000000000000000000000000000000 DUP2 MSTORE PUSH1 0x4 ADD PUSH2 0x1449 SWAP1 PUSH2 0x1809 JUMP JUMPDEST PUSH1 0x40 MLOAD DUP1 SWAP2 SUB SWAP1 REVERT JUMPDEST PUSH1 0x2 DUP1 SLOAD PUSH2 0x145F SWAP1 PUSH2 0x1A90 JUMP JUMPDEST DUP1 PUSH1 0x1F ADD PUSH1 0x20 DUP1 SWAP2 DIV MUL PUSH1 0x20 ADD PUSH1 0x40 MLOAD SWAP1 DUP2 ADD PUSH1 0x40 MSTORE DUP1 SWAP3 SWAP2 SWAP1 DUP2 DUP2 MSTORE PUSH1 0x20 ADD DUP3 DUP1 SLOAD PUSH2 0x148B SWAP1 PUSH2 0x1A90 JUMP JUMPDEST DUP1 ISZERO PUSH2 0x14D8 JUMPI DUP1 PUSH1 0x1F LT PUSH2 0x14AD JUMPI PUSH2 0x100 DUP1 DUP4 SLOAD DIV MUL DUP4 MSTORE SWAP2 PUSH1 0x20 ADD SWAP2 PUSH2 0x14D8 JUMP JUMPDEST DUP3 ADD SWAP2 SWAP1 PUSH1 0x0 MSTORE PUSH1 0x20 PUSH1 0x0 KECCAK256 SWAP1 JUMPDEST DUP2 SLOAD DUP2 MSTORE SWAP1 PUSH1 0x1 ADD SWAP1 PUSH1 0x20 ADD DUP1 DUP4 GT PUSH2 0x14BB JUMPI DUP3 SWAP1 SUB PUSH1 0x1F AND DUP3 ADD SWAP2 JUMPDEST POP POP POP POP POP SWAP1 POP SWAP1 JUMP JUMPDEST PUSH1 0x0 DUP2 MLOAD SWAP1 POP PUSH2 0x14F1 DUP2 PUSH2 0x1CF1 JUMP JUMPDEST SWAP3 SWAP2 POP POP JUMP JUMPDEST PUSH1 0x0 DUP2 CALLDATALOAD SWAP1 POP PUSH2 0x1506 DUP2 PUSH2 0x1D08 JUMP JUMPDEST SWAP3 SWAP2 POP POP JUMP JUMPDEST PUSH1 0x0 DUP2 MLOAD SWAP1 POP PUSH2 0x151B DUP2 PUSH2 0x1D08 JUMP JUMPDEST SWAP3 SWAP2 POP POP JUMP JUMPDEST PUSH1 0x0 PUSH1 0x20 DUP3 DUP5 SUB SLT ISZERO PUSH2 0x1533 JUMPI PUSH1 0x0 DUP1 REVERT JUMPDEST PUSH1 0x0 PUSH2 0x1541 DUP5 DUP3 DUP6 ADD PUSH2 0x14E2 JUMP JUMPDEST SWAP2 POP POP SWAP3 SWAP2 POP POP JUMP JUMPDEST PUSH1 0x0 PUSH1 0x20 DUP3 DUP5 SUB SLT ISZERO PUSH2 0x155C JUMPI PUSH1 0x0 DUP1 REVERT JUMPDEST PUSH1 0x0 PUSH2 0x156A DUP5 DUP3 DUP6 ADD PUSH2 0x150C JUMP JUMPDEST SWAP2 POP POP SWAP3 SWAP2 POP POP JUMP JUMPDEST PUSH1 0x0 DUP1 PUSH1 0x40 DUP4 DUP6 SUB SLT ISZERO PUSH2 0x1586 JUMPI PUSH1 0x0 DUP1 REVERT JUMPDEST PUSH1 0x0 PUSH2 0x1594 DUP6 DUP3 DUP7 ADD PUSH2 0x14F7 JUMP JUMPDEST SWAP3 POP POP PUSH1 0x20 PUSH2 0x15A5 DUP6 DUP3 DUP7 ADD PUSH2 0x14F7 JUMP JUMPDEST SWAP2 POP POP SWAP3 POP SWAP3 SWAP1 POP JUMP JUMPDEST PUSH2 0x15B8 DUP2 PUSH2 0x19DF JUMP JUMPDEST DUP3 MSTORE POP POP JUMP JUMPDEST PUSH2 0x15C7 DUP2 PUSH2 0x19F1 JUMP JUMPDEST DUP3 MSTORE POP POP JUMP JUMPDEST PUSH2 0x15D6 DUP2 PUSH2 0x1A27 JUMP JUMPDEST DUP3 MSTORE POP POP JUMP JUMPDEST PUSH2 0x15E5 DUP2 PUSH2 0x1A4B JUMP JUMPDEST DUP3 MSTORE POP POP JUMP JUMPDEST PUSH1 0x0 PUSH2 0x15F6 DUP3 PUSH2 0x1904 JUMP JUMPDEST PUSH2 0x1600 DUP2 DUP6 PUSH2 0x190F JUMP JUMPDEST SWAP4 POP PUSH2 0x1610 DUP2 DUP6 PUSH1 0x20 DUP7 ADD PUSH2 0x1A5D JUMP JUMPDEST PUSH2 0x1619 DUP2 PUSH2 0x1B4F JUMP JUMPDEST DUP5 ADD SWAP2 POP POP SWAP3 SWAP2 POP POP JUMP JUMPDEST PUSH1 0x0 PUSH2 0x1631 PUSH1 0x32 DUP4 PUSH2 0x190F JUMP JUMPDEST SWAP2 POP PUSH2 0x163C DUP3 PUSH2 0x1B60 JUMP JUMPDEST PUSH1 0x40 DUP3 ADD SWAP1 POP SWAP2 SWAP1 POP JUMP JUMPDEST PUSH1 0x0 PUSH2 0x1654 PUSH1 0x1B DUP4 PUSH2 0x190F JUMP JUMPDEST SWAP2 POP PUSH2 0x165F DUP3 PUSH2 0x1BAF JUMP JUMPDEST PUSH1 0x20 DUP3 ADD SWAP1 POP SWAP2 SWAP1 POP JUMP JUMPDEST PUSH1 0x0 PUSH2 0x1677 PUSH1 0x20 DUP4 PUSH2 0x190F JUMP JUMPDEST SWAP2 POP PUSH2 0x1682 DUP3 PUSH2 0x1BD8 JUMP JUMPDEST PUSH1 0x20 DUP3 ADD SWAP1 POP SWAP2 SWAP1 POP JUMP JUMPDEST PUSH1 0x0 PUSH2 0x169A PUSH1 0x2B DUP4 PUSH2 0x190F JUMP JUMPDEST SWAP2 POP PUSH2 0x16A5 DUP3 PUSH2 0x1C01 JUMP JUMPDEST PUSH1 0x40 DUP3 ADD SWAP1 POP SWAP2 SWAP1 POP JUMP JUMPDEST PUSH1 0x0 PUSH2 0x16BD PUSH1 0x1E DUP4 PUSH2 0x190F JUMP JUMPDEST SWAP2 POP PUSH2 0x16C8 DUP3 PUSH2 0x1C50 JUMP JUMPDEST PUSH1 0x20 DUP3 ADD SWAP1 POP SWAP2 SWAP1 POP JUMP JUMPDEST PUSH1 0x0 PUSH2 0x16E0 PUSH1 0x19 DUP4 PUSH2 0x190F JUMP JUMPDEST SWAP2 POP PUSH2 0x16EB DUP3 PUSH2 0x1C79 JUMP JUMPDEST PUSH1 0x20 DUP3 ADD SWAP1 POP SWAP2 SWAP1 POP JUMP JUMPDEST PUSH1 0x0 PUSH2 0x1703 PUSH1 0x2B DUP4 PUSH2 0x190F JUMP JUMPDEST SWAP2 POP PUSH2 0x170E DUP3 PUSH2 0x1CA2 JUMP JUMPDEST PUSH1 0x40 DUP3 ADD SWAP1 POP SWAP2 SWAP1 POP JUMP JUMPDEST PUSH2 0x1722 DUP2 PUSH2 0x1A1D JUMP JUMPDEST DUP3 MSTORE POP POP JUMP JUMPDEST PUSH1 0x0 PUSH1 0x20 DUP3 ADD SWAP1 POP PUSH2 0x173D PUSH1 0x0 DUP4 ADD DUP5 PUSH2 0x15AF JUMP JUMPDEST SWAP3 SWAP2 POP POP JUMP JUMPDEST PUSH1 0x0 PUSH1 0x60 DUP3 ADD SWAP1 POP PUSH2 0x1758 PUSH1 0x0 DUP4 ADD DUP7 PUSH2 0x15AF JUMP JUMPDEST PUSH2 0x1765 PUSH1 0x20 DUP4 ADD DUP6 PUSH2 0x15AF JUMP JUMPDEST PUSH2 0x1772 PUSH1 0x40 DUP4 ADD DUP5 PUSH2 0x15DC JUMP JUMPDEST SWAP5 SWAP4 POP POP POP POP JUMP JUMPDEST PUSH1 0x0 PUSH1 0x60 DUP3 ADD SWAP1 POP PUSH2 0x178F PUSH1 0x0 DUP4 ADD DUP7 PUSH2 0x15AF JUMP JUMPDEST PUSH2 0x179C PUSH1 0x20 DUP4 ADD DUP6 PUSH2 0x15AF JUMP JUMPDEST PUSH2 0x17A9 PUSH1 0x40 DUP4 ADD DUP5 PUSH2 0x1719 JUMP JUMPDEST SWAP5 SWAP4 POP POP POP POP JUMP JUMPDEST PUSH1 0x0 PUSH1 0x20 DUP3 ADD SWAP1 POP PUSH2 0x17C6 PUSH1 0x0 DUP4 ADD DUP5 PUSH2 0x15BE JUMP JUMPDEST SWAP3 SWAP2 POP POP JUMP JUMPDEST PUSH1 0x0 PUSH1 0x20 DUP3 ADD SWAP1 POP PUSH2 0x17E1 PUSH1 0x0 DUP4 ADD DUP5 PUSH2 0x15CD JUMP JUMPDEST SWAP3 SWAP2 POP POP JUMP JUMPDEST PUSH1 0x0 PUSH1 0x20 DUP3 ADD SWAP1 POP DUP2 DUP2 SUB PUSH1 0x0 DUP4 ADD MSTORE PUSH2 0x1801 DUP2 DUP5 PUSH2 0x15EB JUMP JUMPDEST SWAP1 POP SWAP3 SWAP2 POP POP JUMP JUMPDEST PUSH1 0x0 PUSH1 0x20 DUP3 ADD SWAP1 POP DUP2 DUP2 SUB PUSH1 0x0 DUP4 ADD MSTORE PUSH2 0x1822 DUP2 PUSH2 0x1624 JUMP JUMPDEST SWAP1 POP SWAP2 SWAP1 POP JUMP JUMPDEST PUSH1 0x0 PUSH1 0x20 DUP3 ADD SWAP1 POP DUP2 DUP2 SUB PUSH1 0x0 DUP4 ADD MSTORE PUSH2 0x1842 DUP2 PUSH2 0x1647 JUMP JUMPDEST SWAP1 POP SWAP2 SWAP1 POP JUMP JUMPDEST PUSH1 0x0 PUSH1 0x20 DUP3 ADD SWAP1 POP DUP2 DUP2 SUB PUSH1 0x0 DUP4 ADD MSTORE PUSH2 0x1862 DUP2 PUSH2 0x166A JUMP JUMPDEST SWAP1 POP SWAP2 SWAP1 POP JUMP JUMPDEST PUSH1 0x0 PUSH1 0x20 DUP3 ADD SWAP1 POP DUP2 DUP2 SUB PUSH1 0x0 DUP4 ADD MSTORE PUSH2 0x1882 DUP2 PUSH2 0x168D JUMP JUMPDEST SWAP1 POP SWAP2 SWAP1 POP JUMP JUMPDEST PUSH1 0x0 PUSH1 0x20 DUP3 ADD SWAP1 POP DUP2 DUP2 SUB PUSH1 0x0 DUP4 ADD MSTORE PUSH2 0x18A2 DUP2 PUSH2 0x16B0 JUMP JUMPDEST SWAP1 POP SWAP2 SWAP1 POP JUMP JUMPDEST PUSH1 0x0 PUSH1 0x20 DUP3 ADD SWAP1 POP DUP2 DUP2 SUB PUSH1 0x0 DUP4 ADD MSTORE PUSH2 0x18C2 DUP2 PUSH2 0x16D3 JUMP JUMPDEST SWAP1 POP SWAP2 SWAP1 POP JUMP JUMPDEST PUSH1 0x0 PUSH1 0x20 DUP3 ADD SWAP1 POP DUP2 DUP2 SUB PUSH1 0x0 DUP4 ADD MSTORE PUSH2 0x18E2 DUP2 PUSH2 0x16F6 JUMP JUMPDEST SWAP1 POP SWAP2 SWAP1 POP JUMP JUMPDEST PUSH1 0x0 PUSH1 0x20 DUP3 ADD SWAP1 POP PUSH2 0x18FE PUSH1 0x0 DUP4 ADD DUP5 PUSH2 0x1719 JUMP JUMPDEST SWAP3 SWAP2 POP POP JUMP JUMPDEST PUSH1 0x0 DUP2 MLOAD SWAP1 POP SWAP2 SWAP1 POP JUMP JUMPDEST PUSH1 0x0 DUP3 DUP3 MSTORE PUSH1 0x20 DUP3 ADD SWAP1 POP SWAP3 SWAP2 POP POP JUMP JUMPDEST PUSH1 0x0 PUSH2 0x192B DUP3 PUSH2 0x1A1D JUMP JUMPDEST SWAP2 POP PUSH2 0x1936 DUP4 PUSH2 0x1A1D JUMP JUMPDEST SWAP3 POP DUP3 PUSH2 0x1946 JUMPI PUSH2 0x1945 PUSH2 0x1AF1 JUMP JUMPDEST JUMPDEST DUP3 DUP3 DIV SWAP1 POP SWAP3 SWAP2 POP POP JUMP JUMPDEST PUSH1 0x0 PUSH2 0x195C DUP3 PUSH2 0x1A1D JUMP JUMPDEST SWAP2 POP PUSH2 0x1967 DUP4 PUSH2 0x1A1D JUMP JUMPDEST SWAP3 POP DUP2 PUSH32 0xFFFFFFFFFFFFFFFFFFFFFFFFFFFFFFFFFFFFFFFFFFFFFFFFFFFFFFFFFFFFFFFF DIV DUP4 GT DUP3 ISZERO ISZERO AND ISZERO PUSH2 0x19A0 JUMPI PUSH2 0x199F PUSH2 0x1AC2 JUMP JUMPDEST JUMPDEST DUP3 DUP3 MUL SWAP1 POP SWAP3 SWAP2 POP POP JUMP JUMPDEST PUSH1 0x0 PUSH2 0x19B6 DUP3 PUSH2 0x1A1D JUMP JUMPDEST SWAP2 POP PUSH2 0x19C1 DUP4 PUSH2 0x1A1D JUMP JUMPDEST SWAP3 POP DUP3 DUP3 LT ISZERO PUSH2 0x19D4 JUMPI PUSH2 0x19D3 PUSH2 0x1AC2 JUMP JUMPDEST JUMPDEST DUP3 DUP3 SUB SWAP1 POP SWAP3 SWAP2 POP POP JUMP JUMPDEST PUSH1 0x0 PUSH2 0x19EA DUP3 PUSH2 0x19FD JUMP JUMPDEST SWAP1 POP SWAP2 SWAP1 POP JUMP JUMPDEST PUSH1 0x0 DUP2 ISZERO ISZERO SWAP1 POP SWAP2 SWAP1 POP JUMP JUMPDEST PUSH1 0x0 PUSH20 0xFFFFFFFFFFFFFFFFFFFFFFFFFFFFFFFFFFFFFFFF DUP3 AND SWAP1 POP SWAP2 SWAP1 POP JUMP JUMPDEST PUSH1 0x0 DUP2 SWAP1 POP SWAP2 SWAP1 POP JUMP JUMPDEST PUSH1 0x0 PUSH2 0x1A32 DUP3 PUSH2 0x1A39 JUMP JUMPDEST SWAP1 POP SWAP2 SWAP1 POP JUMP JUMPDEST PUSH1 0x0 PUSH2 0x1A44 DUP3 PUSH2 0x19FD JUMP JUMPDEST SWAP1 POP SWAP2 SWAP1 POP JUMP JUMPDEST PUSH1 0x0 PUSH2 0x1A56 DUP3 PUSH2 0x1A1D JUMP JUMPDEST SWAP1 POP SWAP2 SWAP1 POP JUMP JUMPDEST PUSH1 0x0 JUMPDEST DUP4 DUP2 LT ISZERO PUSH2 0x1A7B JUMPI DUP1 DUP3 ADD MLOAD DUP2 DUP5 ADD MSTORE PUSH1 0x20 DUP2 ADD SWAP1 POP PUSH2 0x1A60 JUMP JUMPDEST DUP4 DUP2 GT ISZERO PUSH2 0x1A8A JUMPI PUSH1 0x0 DUP5 DUP5 ADD MSTORE JUMPDEST POP POP POP POP JUMP JUMPDEST PUSH1 0x0 PUSH1 0x2 DUP3 DIV SWAP1 POP PUSH1 0x1 DUP3 AND DUP1 PUSH2 0x1AA8 JUMPI PUSH1 0x7F DUP3 AND SWAP2 POP JUMPDEST PUSH1 0x20 DUP3 LT DUP2 EQ ISZERO PUSH2 0x1ABC JUMPI PUSH2 0x1ABB PUSH2 0x1B20 JUMP JUMPDEST JUMPDEST POP SWAP2 SWAP1 POP JUMP JUMPDEST PUSH32 0x4E487B7100000000000000000000000000000000000000000000000000000000 PUSH1 0x0 MSTORE PUSH1 0x11 PUSH1 0x4 MSTORE PUSH1 0x24 PUSH1 0x0 REVERT JUMPDEST PUSH32 0x4E487B7100000000000000000000000000000000000000000000000000000000 PUSH1 0x0 MSTORE PUSH1 0x12 PUSH1 0x4 MSTORE PUSH1 0x24 PUSH1 0x0 REVERT JUMPDEST PUSH32 0x4E487B7100000000000000000000000000000000000000000000000000000000 PUSH1 0x0 MSTORE PUSH1 0x22 PUSH1 0x4 MSTORE PUSH1 0x24 PUSH1 0x0 REVERT JUMPDEST PUSH1 0x0 PUSH1 0x1F NOT PUSH1 0x1F DUP4 ADD AND SWAP1 POP SWAP2 SWAP1 POP JUMP JUMPDEST PUSH32 0x456C206C697175696469747950726F7669646572206E6F2068612067616E6164 PUSH1 0x0 DUP3 ADD MSTORE PUSH32 0x6F206E696E67756E6120636F6D6973696F6E0000000000000000000000000000 PUSH1 0x20 DUP3 ADD MSTORE POP JUMP JUMPDEST PUSH32 0x496E73756666696369656E7420746F6B656E422062616C616E63650000000000 PUSH1 0x0 DUP3 ADD MSTORE POP JUMP JUMPDEST PUSH32 0x4C69717569646974792070726F766964657220616C7265616479206578697374 PUSH1 0x0 DUP3 ADD MSTORE POP JUMP JUMPDEST PUSH32 0x496E73756666696369656E7420746F6B656E412062616C616E636520696E2074 PUSH1 0x0 DUP3 ADD MSTORE PUSH32 0x686520636F6E7472616374000000000000000000000000000000000000000000 PUSH1 0x20 DUP3 ADD MSTORE POP JUMP JUMPDEST PUSH32 0x416D6F756E7473206D7573742062652067726561746572207468616E20300000 PUSH1 0x0 DUP3 ADD MSTORE POP JUMP JUMPDEST PUSH32 0x5472616E73666572206F6620746F6B656E73206661696C656400000000000000 PUSH1 0x0 DUP3 ADD MSTORE POP JUMP JUMPDEST PUSH32 0x496E73756666696369656E7420746F6B656E422062616C616E636520696E2074 PUSH1 0x0 DUP3 ADD MSTORE PUSH32 0x686520636F6E7472616374000000000000000000000000000000000000000000 PUSH1 0x20 DUP3 ADD MSTORE POP JUMP JUMPDEST PUSH2 0x1CFA DUP2 PUSH2 0x19F1 JUMP JUMPDEST DUP2 EQ PUSH2 0x1D05 JUMPI PUSH1 0x0 DUP1 REVERT JUMPDEST POP JUMP JUMPDEST PUSH2 0x1D11 DUP2 PUSH2 0x1A1D JUMP JUMPDEST DUP2 EQ PUSH2 0x1D1C JUMPI PUSH1 0x0 DUP1 REVERT JUMPDEST POP JUMP INVALID LOG2 PUSH5 0x6970667358 0x22 SLT KECCAK256 0x5D 0xBF 0xBC DUP9 0x2A JUMPDEST DUP9 0xB3 SIGNEXTEND 0xD4 PUSH24 0x8EC261C976C9EE22926FED9397CD91E07F4D94A99564736F PUSH13 0x63430008040033000000000000 "
				},
				"gasEstimates": {
					"creation": {
						"codeDepositCost": "1501800",
						"executionCost": "infinite",
						"totalCost": "infinite"
					},
					"external": {
						"commissionEarned()": "1222",
						"getFlag()": "infinite",
						"liquidityA()": "1151",
						"liquidityB()": "1174",
						"liquidityProvider()": "1303",
						"proportion()": "1196",
						"provideLiquidity(uint256,uint256)": "infinite",
						"swapAforB()": "infinite",
						"swapBforA()": "infinite",
						"tokenA()": "1277",
						"tokenB()": "1257"
					}
				},
				"methodIdentifiers": {
					"commissionEarned()": "0aefecb5",
					"getFlag()": "f9633930",
					"liquidityA()": "79629b69",
					"liquidityB()": "24731cff",
					"liquidityProvider()": "5b8bec55",
					"proportion()": "5b4246d4",
					"provideLiquidity(uint256,uint256)": "7a16af7f",
					"swapAforB()": "8f325c02",
					"swapBforA()": "b3a88f7b",
					"tokenA()": "0fc63d10",
					"tokenB()": "5f64b55b"
				}
			},
			"storageLayout": {
				"storage": [
					{
						"astId": 71,
						"contract": "levelup/newdex.sol:DEX_CTF",
						"label": "tokenA",
						"offset": 0,
						"slot": "0",
						"type": "t_contract(IERC20)68"
					},
					{
						"astId": 74,
						"contract": "levelup/newdex.sol:DEX_CTF",
						"label": "tokenB",
						"offset": 0,
						"slot": "1",
						"type": "t_contract(IERC20)68"
					},
					{
						"astId": 76,
						"contract": "levelup/newdex.sol:DEX_CTF",
						"label": "flag",
						"offset": 0,
						"slot": "2",
						"type": "t_string_storage"
					},
					{
						"astId": 78,
						"contract": "levelup/newdex.sol:DEX_CTF",
						"label": "proportion",
						"offset": 0,
						"slot": "3",
						"type": "t_uint256"
					},
					{
						"astId": 84,
						"contract": "levelup/newdex.sol:DEX_CTF",
						"label": "liquidityProvider",
						"offset": 0,
						"slot": "4",
						"type": "t_address"
					},
					{
						"astId": 86,
						"contract": "levelup/newdex.sol:DEX_CTF",
						"label": "commissionEarned",
						"offset": 20,
						"slot": "4",
						"type": "t_bool"
					},
					{
						"astId": 95,
						"contract": "levelup/newdex.sol:DEX_CTF",
						"label": "liquidityA",
						"offset": 0,
						"slot": "5",
						"type": "t_uint256"
					},
					{
						"astId": 104,
						"contract": "levelup/newdex.sol:DEX_CTF",
						"label": "liquidityB",
						"offset": 0,
						"slot": "6",
						"type": "t_uint256"
					}
				],
				"types": {
					"t_address": {
						"encoding": "inplace",
						"label": "address",
						"numberOfBytes": "20"
					},
					"t_bool": {
						"encoding": "inplace",
						"label": "bool",
						"numberOfBytes": "1"
					},
					"t_contract(IERC20)68": {
						"encoding": "inplace",
						"label": "contract IERC20",
						"numberOfBytes": "20"
					},
					"t_string_storage": {
						"encoding": "bytes",
						"label": "string",
						"numberOfBytes": "32"
					},
					"t_uint256": {
						"encoding": "inplace",
						"label": "uint256",
						"numberOfBytes": "32"
					}
				}
			},
			"userdoc": {
				"kind": "user",
				"methods": {},
				"version": 1
			}
		}
	}
}