{
	"levelup/functions4.sol": {
		"functions4": {
			"abi": [
				{
					"inputs": [],
					"stateMutability": "nonpayable",
					"type": "constructor"
				},
				{
					"inputs": [
						{
							"internalType": "uint8",
							"name": "_stepNumber",
							"type": "uint8"
						}
					],
					"name": "addOil",
					"outputs": [],
					"stateMutability": "nonpayable",
					"type": "function"
				},
				{
					"inputs": [
						{
							"internalType": "uint8",
							"name": "_stepNumber",
							"type": "uint8"
						}
					],
					"name": "addSalt",
					"outputs": [],
					"stateMutability": "nonpayable",
					"type": "function"
				},
				{
					"inputs": [
						{
							"internalType": "uint8",
							"name": "_stepNumber",
							"type": "uint8"
						}
					],
					"name": "addTomatoe",
					"outputs": [],
					"stateMutability": "nonpayable",
					"type": "function"
				}
			],
			"devdoc": {
				"kind": "dev",
				"methods": {},
				"version": 1
			},
			"evm": {
				"assembly": "    /* \"levelup/functions4.sol\":74:752  contract functions4{... */\n  mstore(0x40, 0x80)\n    /* \"levelup/functions4.sol\":175:195  constructor(){... */\n  callvalue\n  dup1\n  iszero\n  tag_1\n  jumpi\n  0x00\n  dup1\n  revert\ntag_1:\n  pop\n    /* \"levelup/functions4.sol\":74:752  contract functions4{... */\n  dataSize(sub_0)\n  dup1\n  dataOffset(sub_0)\n  0x00\n  codecopy\n  0x00\n  return\nstop\n\nsub_0: assembly {\n        /* \"levelup/functions4.sol\":74:752  contract functions4{... */\n      mstore(0x40, 0x80)\n      callvalue\n      dup1\n      iszero\n      tag_1\n      jumpi\n      0x00\n      dup1\n      revert\n    tag_1:\n      pop\n      jumpi(tag_2, lt(calldatasize, 0x04))\n      shr(0xe0, calldataload(0x00))\n      dup1\n      0x5edf144c\n      eq\n      tag_3\n      jumpi\n      dup1\n      0xaecf6a42\n      eq\n      tag_4\n      jumpi\n      dup1\n      0xf0626e7a\n      eq\n      tag_5\n      jumpi\n    tag_2:\n      0x00\n      dup1\n      revert\n        /* \"levelup/functions4.sol\":201:381  function addTomatoe(uint8 _stepNumber) public{... */\n    tag_3:\n      tag_6\n      0x04\n      dup1\n      calldatasize\n      sub\n      dup2\n      add\n      swap1\n      tag_7\n      swap2\n      swap1\n      tag_8\n      jump\t// in\n    tag_7:\n      tag_9\n      jump\t// in\n    tag_6:\n      stop\n        /* \"levelup/functions4.sol\":391:566  function addSalt(uint8 _stepNumber) public {... */\n    tag_4:\n      tag_10\n      0x04\n      dup1\n      calldatasize\n      sub\n      dup2\n      add\n      swap1\n      tag_11\n      swap2\n      swap1\n      tag_8\n      jump\t// in\n    tag_11:\n      tag_12\n      jump\t// in\n    tag_10:\n      stop\n        /* \"levelup/functions4.sol\":572:745  function addOil(uint8 _stepNumber) public {... */\n    tag_5:\n      tag_13\n      0x04\n      dup1\n      calldatasize\n      sub\n      dup2\n      add\n      swap1\n      tag_14\n      swap2\n      swap1\n      tag_8\n      jump\t// in\n    tag_14:\n      tag_15\n      jump\t// in\n    tag_13:\n      stop\n        /* \"levelup/functions4.sol\":201:381  function addTomatoe(uint8 _stepNumber) public{... */\n    tag_9:\n        /* \"levelup/functions4.sol\":278:279  0 */\n      0x00\n        /* \"levelup/functions4.sol\":264:275  _stepNumber */\n      dup2\n        /* \"levelup/functions4.sol\":264:279  _stepNumber > 0 */\n      0xff\n      and\n      gt\n        /* \"levelup/functions4.sol\":264:298  _stepNumber > 0 && _stepNumber < 4 */\n      dup1\n      iszero\n      tag_17\n      jumpi\n      pop\n        /* \"levelup/functions4.sol\":297:298  4 */\n      0x04\n        /* \"levelup/functions4.sol\":283:294  _stepNumber */\n      dup2\n        /* \"levelup/functions4.sol\":283:298  _stepNumber < 4 */\n      0xff\n      and\n      lt\n        /* \"levelup/functions4.sol\":264:298  _stepNumber > 0 && _stepNumber < 4 */\n    tag_17:\n        /* \"levelup/functions4.sol\":256:343  require(_stepNumber > 0 && _stepNumber < 4, \"Ingredient order must be between 1 and 3\") */\n      tag_18\n      jumpi\n      mload(0x40)\n      0x08c379a000000000000000000000000000000000000000000000000000000000\n      dup2\n      mstore\n      0x04\n      add\n      tag_19\n      swap1\n      tag_20\n      jump\t// in\n    tag_19:\n      mload(0x40)\n      dup1\n      swap2\n      sub\n      swap1\n      revert\n    tag_18:\n        /* \"levelup/functions4.sol\":363:374  _stepNumber */\n      dup1\n        /* \"levelup/functions4.sol\":353:360  tomatoe */\n      0x00\n      0x02\n        /* \"levelup/functions4.sol\":353:374  tomatoe = _stepNumber */\n      0x0100\n      exp\n      dup2\n      sload\n      dup2\n      0xff\n      mul\n      not\n      and\n      swap1\n      dup4\n      0xff\n      and\n      mul\n      or\n      swap1\n      sstore\n      pop\n        /* \"levelup/functions4.sol\":201:381  function addTomatoe(uint8 _stepNumber) public{... */\n      pop\n      jump\t// out\n        /* \"levelup/functions4.sol\":391:566  function addSalt(uint8 _stepNumber) public {... */\n    tag_12:\n        /* \"levelup/functions4.sol\":466:467  0 */\n      0x00\n        /* \"levelup/functions4.sol\":452:463  _stepNumber */\n      dup2\n        /* \"levelup/functions4.sol\":452:467  _stepNumber > 0 */\n      0xff\n      and\n      gt\n        /* \"levelup/functions4.sol\":452:486  _stepNumber > 0 && _stepNumber < 4 */\n      dup1\n      iszero\n      tag_22\n      jumpi\n      pop\n        /* \"levelup/functions4.sol\":485:486  4 */\n      0x04\n        /* \"levelup/functions4.sol\":471:482  _stepNumber */\n      dup2\n        /* \"levelup/functions4.sol\":471:486  _stepNumber < 4 */\n      0xff\n      and\n      lt\n        /* \"levelup/functions4.sol\":452:486  _stepNumber > 0 && _stepNumber < 4 */\n    tag_22:\n        /* \"levelup/functions4.sol\":444:531  require(_stepNumber > 0 && _stepNumber < 4, \"Ingredient order must be between 1 and 3\") */\n      tag_23\n      jumpi\n      mload(0x40)\n      0x08c379a000000000000000000000000000000000000000000000000000000000\n      dup2\n      mstore\n      0x04\n      add\n      tag_24\n      swap1\n      tag_20\n      jump\t// in\n    tag_24:\n      mload(0x40)\n      dup1\n      swap2\n      sub\n      swap1\n      revert\n    tag_23:\n        /* \"levelup/functions4.sol\":548:559  _stepNumber */\n      dup1\n        /* \"levelup/functions4.sol\":541:545  salt */\n      0x00\n      0x01\n        /* \"levelup/functions4.sol\":541:559  salt = _stepNumber */\n      0x0100\n      exp\n      dup2\n      sload\n      dup2\n      0xff\n      mul\n      not\n      and\n      swap1\n      dup4\n      0xff\n      and\n      mul\n      or\n      swap1\n      sstore\n      pop\n        /* \"levelup/functions4.sol\":391:566  function addSalt(uint8 _stepNumber) public {... */\n      pop\n      jump\t// out\n        /* \"levelup/functions4.sol\":572:745  function addOil(uint8 _stepNumber) public {... */\n    tag_15:\n        /* \"levelup/functions4.sol\":646:647  0 */\n      0x00\n        /* \"levelup/functions4.sol\":632:643  _stepNumber */\n      dup2\n        /* \"levelup/functions4.sol\":632:647  _stepNumber > 0 */\n      0xff\n      and\n      gt\n        /* \"levelup/functions4.sol\":632:666  _stepNumber > 0 && _stepNumber < 4 */\n      dup1\n      iszero\n      tag_26\n      jumpi\n      pop\n        /* \"levelup/functions4.sol\":665:666  4 */\n      0x04\n        /* \"levelup/functions4.sol\":651:662  _stepNumber */\n      dup2\n        /* \"levelup/functions4.sol\":651:666  _stepNumber < 4 */\n      0xff\n      and\n      lt\n        /* \"levelup/functions4.sol\":632:666  _stepNumber > 0 && _stepNumber < 4 */\n    tag_26:\n        /* \"levelup/functions4.sol\":624:711  require(_stepNumber > 0 && _stepNumber < 4, \"Ingredient order must be between 1 and 3\") */\n      tag_27\n      jumpi\n      mload(0x40)\n      0x08c379a000000000000000000000000000000000000000000000000000000000\n      dup2\n      mstore\n      0x04\n      add\n      tag_28\n      swap1\n      tag_20\n      jump\t// in\n    tag_28:\n      mload(0x40)\n      dup1\n      swap2\n      sub\n      swap1\n      revert\n    tag_27:\n        /* \"levelup/functions4.sol\":727:738  _stepNumber */\n      dup1\n        /* \"levelup/functions4.sol\":721:724  oil */\n      0x00\n      dup1\n        /* \"levelup/functions4.sol\":721:738  oil = _stepNumber */\n      0x0100\n      exp\n      dup2\n      sload\n      dup2\n      0xff\n      mul\n      not\n      and\n      swap1\n      dup4\n      0xff\n      and\n      mul\n      or\n      swap1\n      sstore\n      pop\n        /* \"levelup/functions4.sol\":572:745  function addOil(uint8 _stepNumber) public {... */\n      pop\n      jump\t// out\n        /* \"#utility.yul\":88:205   */\n    tag_30:\n        /* \"#utility.yul\":197:198   */\n      0x00\n        /* \"#utility.yul\":194:195   */\n      dup1\n        /* \"#utility.yul\":187:199   */\n      revert\n        /* \"#utility.yul\":334:420   */\n    tag_32:\n        /* \"#utility.yul\":369:376   */\n      0x00\n        /* \"#utility.yul\":409:413   */\n      0xff\n        /* \"#utility.yul\":402:407   */\n      dup3\n        /* \"#utility.yul\":398:414   */\n      and\n        /* \"#utility.yul\":387:414   */\n      swap1\n      pop\n        /* \"#utility.yul\":334:420   */\n      swap2\n      swap1\n      pop\n      jump\t// out\n        /* \"#utility.yul\":426:544   */\n    tag_33:\n        /* \"#utility.yul\":497:519   */\n      tag_44\n        /* \"#utility.yul\":513:518   */\n      dup2\n        /* \"#utility.yul\":497:519   */\n      tag_32\n      jump\t// in\n    tag_44:\n        /* \"#utility.yul\":490:495   */\n      dup2\n        /* \"#utility.yul\":487:520   */\n      eq\n        /* \"#utility.yul\":477:538   */\n      tag_45\n      jumpi\n        /* \"#utility.yul\":534:535   */\n      0x00\n        /* \"#utility.yul\":531:532   */\n      dup1\n        /* \"#utility.yul\":524:536   */\n      revert\n        /* \"#utility.yul\":477:538   */\n    tag_45:\n        /* \"#utility.yul\":426:544   */\n      pop\n      jump\t// out\n        /* \"#utility.yul\":550:685   */\n    tag_34:\n        /* \"#utility.yul\":594:599   */\n      0x00\n        /* \"#utility.yul\":632:638   */\n      dup2\n        /* \"#utility.yul\":619:639   */\n      calldataload\n        /* \"#utility.yul\":610:639   */\n      swap1\n      pop\n        /* \"#utility.yul\":648:679   */\n      tag_47\n        /* \"#utility.yul\":673:678   */\n      dup2\n        /* \"#utility.yul\":648:679   */\n      tag_33\n      jump\t// in\n    tag_47:\n        /* \"#utility.yul\":550:685   */\n      swap3\n      swap2\n      pop\n      pop\n      jump\t// out\n        /* \"#utility.yul\":691:1016   */\n    tag_8:\n        /* \"#utility.yul\":748:754   */\n      0x00\n        /* \"#utility.yul\":797:799   */\n      0x20\n        /* \"#utility.yul\":785:794   */\n      dup3\n        /* \"#utility.yul\":776:783   */\n      dup5\n        /* \"#utility.yul\":772:795   */\n      sub\n        /* \"#utility.yul\":768:800   */\n      slt\n        /* \"#utility.yul\":765:884   */\n      iszero\n      tag_49\n      jumpi\n        /* \"#utility.yul\":803:882   */\n      tag_50\n      tag_30\n      jump\t// in\n    tag_50:\n        /* \"#utility.yul\":765:884   */\n    tag_49:\n        /* \"#utility.yul\":923:924   */\n      0x00\n        /* \"#utility.yul\":948:999   */\n      tag_51\n        /* \"#utility.yul\":991:998   */\n      dup5\n        /* \"#utility.yul\":982:988   */\n      dup3\n        /* \"#utility.yul\":971:980   */\n      dup6\n        /* \"#utility.yul\":967:989   */\n      add\n        /* \"#utility.yul\":948:999   */\n      tag_34\n      jump\t// in\n    tag_51:\n        /* \"#utility.yul\":938:999   */\n      swap2\n      pop\n        /* \"#utility.yul\":894:1009   */\n      pop\n        /* \"#utility.yul\":691:1016   */\n      swap3\n      swap2\n      pop\n      pop\n      jump\t// out\n        /* \"#utility.yul\":1022:1191   */\n    tag_35:\n        /* \"#utility.yul\":1106:1117   */\n      0x00\n        /* \"#utility.yul\":1140:1146   */\n      dup3\n        /* \"#utility.yul\":1135:1138   */\n      dup3\n        /* \"#utility.yul\":1128:1147   */\n      mstore\n        /* \"#utility.yul\":1180:1184   */\n      0x20\n        /* \"#utility.yul\":1175:1178   */\n      dup3\n        /* \"#utility.yul\":1171:1185   */\n      add\n        /* \"#utility.yul\":1156:1185   */\n      swap1\n      pop\n        /* \"#utility.yul\":1022:1191   */\n      swap3\n      swap2\n      pop\n      pop\n      jump\t// out\n        /* \"#utility.yul\":1197:1424   */\n    tag_36:\n        /* \"#utility.yul\":1337:1371   */\n      0x496e6772656469656e74206f72646572206d757374206265206265747765656e\n        /* \"#utility.yul\":1333:1334   */\n      0x00\n        /* \"#utility.yul\":1325:1331   */\n      dup3\n        /* \"#utility.yul\":1321:1335   */\n      add\n        /* \"#utility.yul\":1314:1372   */\n      mstore\n        /* \"#utility.yul\":1406:1416   */\n      0x203120616e642033000000000000000000000000000000000000000000000000\n        /* \"#utility.yul\":1401:1403   */\n      0x20\n        /* \"#utility.yul\":1393:1399   */\n      dup3\n        /* \"#utility.yul\":1389:1404   */\n      add\n        /* \"#utility.yul\":1382:1417   */\n      mstore\n        /* \"#utility.yul\":1197:1424   */\n      pop\n      jump\t// out\n        /* \"#utility.yul\":1430:1796   */\n    tag_37:\n        /* \"#utility.yul\":1572:1575   */\n      0x00\n        /* \"#utility.yul\":1593:1660   */\n      tag_55\n        /* \"#utility.yul\":1657:1659   */\n      0x28\n        /* \"#utility.yul\":1652:1655   */\n      dup4\n        /* \"#utility.yul\":1593:1660   */\n      tag_35\n      jump\t// in\n    tag_55:\n        /* \"#utility.yul\":1586:1660   */\n      swap2\n      pop\n        /* \"#utility.yul\":1669:1762   */\n      tag_56\n        /* \"#utility.yul\":1758:1761   */\n      dup3\n        /* \"#utility.yul\":1669:1762   */\n      tag_36\n      jump\t// in\n    tag_56:\n        /* \"#utility.yul\":1787:1789   */\n      0x40\n        /* \"#utility.yul\":1782:1785   */\n      dup3\n        /* \"#utility.yul\":1778:1790   */\n      add\n        /* \"#utility.yul\":1771:1790   */\n      swap1\n      pop\n        /* \"#utility.yul\":1430:1796   */\n      swap2\n      swap1\n      pop\n      jump\t// out\n        /* \"#utility.yul\":1802:2221   */\n    tag_20:\n        /* \"#utility.yul\":1968:1972   */\n      0x00\n        /* \"#utility.yul\":2006:2008   */\n      0x20\n        /* \"#utility.yul\":1995:2004   */\n      dup3\n        /* \"#utility.yul\":1991:2009   */\n      add\n        /* \"#utility.yul\":1983:2009   */\n      swap1\n      pop\n        /* \"#utility.yul\":2055:2064   */\n      dup2\n        /* \"#utility.yul\":2049:2053   */\n      dup2\n        /* \"#utility.yul\":2045:2065   */\n      sub\n        /* \"#utility.yul\":2041:2042   */\n      0x00\n        /* \"#utility.yul\":2030:2039   */\n      dup4\n        /* \"#utility.yul\":2026:2043   */\n      add\n        /* \"#utility.yul\":2019:2066   */\n      mstore\n        /* \"#utility.yul\":2083:2214   */\n      tag_58\n        /* \"#utility.yul\":2209:2213   */\n      dup2\n        /* \"#utility.yul\":2083:2214   */\n      tag_37\n      jump\t// in\n    tag_58:\n        /* \"#utility.yul\":2075:2214   */\n      swap1\n      pop\n        /* \"#utility.yul\":1802:2221   */\n      swap2\n      swap1\n      pop\n      jump\t// out\n\n    auxdata: 0xa264697066735822122009b25350cf1496becc04c467ae3c1eae90b0a6b76d44bfc4d8a003395f407b7064736f6c63430008170033\n}\n",
				"bytecode": {
					"linkReferences": {},
					"object": "608060405234801561000f575f80fd5b506103228061001d5f395ff3fe608060405234801561000f575f80fd5b506004361061003f575f3560e01c80635edf144c14610043578063aecf6a421461005f578063f0626e7a1461007b575b5f80fd5b61005d60048036038101906100589190610223565b610097565b005b61007960048036038101906100749190610223565b610108565b005b61009560048036038101906100909190610223565b610179565b005b5f8160ff161180156100ac575060048160ff16105b6100eb576040517f08c379a00000000000000000000000000000000000000000000000000000000081526004016100e2906102ce565b60405180910390fd5b805f60026101000a81548160ff021916908360ff16021790555050565b5f8160ff1611801561011d575060048160ff16105b61015c576040517f08c379a0000000000000000000000000000000000000000000000000000000008152600401610153906102ce565b60405180910390fd5b805f60016101000a81548160ff021916908360ff16021790555050565b5f8160ff1611801561018e575060048160ff16105b6101cd576040517f08c379a00000000000000000000000000000000000000000000000000000000081526004016101c4906102ce565b60405180910390fd5b805f806101000a81548160ff021916908360ff16021790555050565b5f80fd5b5f60ff82169050919050565b610202816101ed565b811461020c575f80fd5b50565b5f8135905061021d816101f9565b92915050565b5f60208284031215610238576102376101e9565b5b5f6102458482850161020f565b91505092915050565b5f82825260208201905092915050565b7f496e6772656469656e74206f72646572206d757374206265206265747765656e5f8201527f203120616e642033000000000000000000000000000000000000000000000000602082015250565b5f6102b860288361024e565b91506102c38261025e565b604082019050919050565b5f6020820190508181035f8301526102e5816102ac565b905091905056fea264697066735822122009b25350cf1496becc04c467ae3c1eae90b0a6b76d44bfc4d8a003395f407b7064736f6c63430008170033",
					"opcodes": "PUSH1 0x80 PUSH1 0x40 MSTORE CALLVALUE DUP1 ISZERO PUSH2 0xF JUMPI PUSH0 DUP1 REVERT JUMPDEST POP PUSH2 0x322 DUP1 PUSH2 0x1D PUSH0 CODECOPY PUSH0 RETURN INVALID PUSH1 0x80 PUSH1 0x40 MSTORE CALLVALUE DUP1 ISZERO PUSH2 0xF JUMPI PUSH0 DUP1 REVERT JUMPDEST POP PUSH1 0x4 CALLDATASIZE LT PUSH2 0x3F JUMPI PUSH0 CALLDATALOAD PUSH1 0xE0 SHR DUP1 PUSH4 0x5EDF144C EQ PUSH2 0x43 JUMPI DUP1 PUSH4 0xAECF6A42 EQ PUSH2 0x5F JUMPI DUP1 PUSH4 0xF0626E7A EQ PUSH2 0x7B JUMPI JUMPDEST PUSH0 DUP1 REVERT JUMPDEST PUSH2 0x5D PUSH1 0x4 DUP1 CALLDATASIZE SUB DUP2 ADD SWAP1 PUSH2 0x58 SWAP2 SWAP1 PUSH2 0x223 JUMP JUMPDEST PUSH2 0x97 JUMP JUMPDEST STOP JUMPDEST PUSH2 0x79 PUSH1 0x4 DUP1 CALLDATASIZE SUB DUP2 ADD SWAP1 PUSH2 0x74 SWAP2 SWAP1 PUSH2 0x223 JUMP JUMPDEST PUSH2 0x108 JUMP JUMPDEST STOP JUMPDEST PUSH2 0x95 PUSH1 0x4 DUP1 CALLDATASIZE SUB DUP2 ADD SWAP1 PUSH2 0x90 SWAP2 SWAP1 PUSH2 0x223 JUMP JUMPDEST PUSH2 0x179 JUMP JUMPDEST STOP JUMPDEST PUSH0 DUP2 PUSH1 0xFF AND GT DUP1 ISZERO PUSH2 0xAC JUMPI POP PUSH1 0x4 DUP2 PUSH1 0xFF AND LT JUMPDEST PUSH2 0xEB JUMPI PUSH1 0x40 MLOAD PUSH32 0x8C379A000000000000000000000000000000000000000000000000000000000 DUP2 MSTORE PUSH1 0x4 ADD PUSH2 0xE2 SWAP1 PUSH2 0x2CE JUMP JUMPDEST PUSH1 0x40 MLOAD DUP1 SWAP2 SUB SWAP1 REVERT JUMPDEST DUP1 PUSH0 PUSH1 0x2 PUSH2 0x100 EXP DUP2 SLOAD DUP2 PUSH1 0xFF MUL NOT AND SWAP1 DUP4 PUSH1 0xFF AND MUL OR SWAP1 SSTORE POP POP JUMP JUMPDEST PUSH0 DUP2 PUSH1 0xFF AND GT DUP1 ISZERO PUSH2 0x11D JUMPI POP PUSH1 0x4 DUP2 PUSH1 0xFF AND LT JUMPDEST PUSH2 0x15C JUMPI PUSH1 0x40 MLOAD PUSH32 0x8C379A000000000000000000000000000000000000000000000000000000000 DUP2 MSTORE PUSH1 0x4 ADD PUSH2 0x153 SWAP1 PUSH2 0x2CE JUMP JUMPDEST PUSH1 0x40 MLOAD DUP1 SWAP2 SUB SWAP1 REVERT JUMPDEST DUP1 PUSH0 PUSH1 0x1 PUSH2 0x100 EXP DUP2 SLOAD DUP2 PUSH1 0xFF MUL NOT AND SWAP1 DUP4 PUSH1 0xFF AND MUL OR SWAP1 SSTORE POP POP JUMP JUMPDEST PUSH0 DUP2 PUSH1 0xFF AND GT DUP1 ISZERO PUSH2 0x18E JUMPI POP PUSH1 0x4 DUP2 PUSH1 0xFF AND LT JUMPDEST PUSH2 0x1CD JUMPI PUSH1 0x40 MLOAD PUSH32 0x8C379A000000000000000000000000000000000000000000000000000000000 DUP2 MSTORE PUSH1 0x4 ADD PUSH2 0x1C4 SWAP1 PUSH2 0x2CE JUMP JUMPDEST PUSH1 0x40 MLOAD DUP1 SWAP2 SUB SWAP1 REVERT JUMPDEST DUP1 PUSH0 DUP1 PUSH2 0x100 EXP DUP2 SLOAD DUP2 PUSH1 0xFF MUL NOT AND SWAP1 DUP4 PUSH1 0xFF AND MUL OR SWAP1 SSTORE POP POP JUMP JUMPDEST PUSH0 DUP1 REVERT JUMPDEST PUSH0 PUSH1 0xFF DUP3 AND SWAP1 POP SWAP2 SWAP1 POP JUMP JUMPDEST PUSH2 0x202 DUP2 PUSH2 0x1ED JUMP JUMPDEST DUP2 EQ PUSH2 0x20C JUMPI PUSH0 DUP1 REVERT JUMPDEST POP JUMP JUMPDEST PUSH0 DUP2 CALLDATALOAD SWAP1 POP PUSH2 0x21D DUP2 PUSH2 0x1F9 JUMP JUMPDEST SWAP3 SWAP2 POP POP JUMP JUMPDEST PUSH0 PUSH1 0x20 DUP3 DUP5 SUB SLT ISZERO PUSH2 0x238 JUMPI PUSH2 0x237 PUSH2 0x1E9 JUMP JUMPDEST JUMPDEST PUSH0 PUSH2 0x245 DUP5 DUP3 DUP6 ADD PUSH2 0x20F JUMP JUMPDEST SWAP2 POP POP SWAP3 SWAP2 POP POP JUMP JUMPDEST PUSH0 DUP3 DUP3 MSTORE PUSH1 0x20 DUP3 ADD SWAP1 POP SWAP3 SWAP2 POP POP JUMP JUMPDEST PUSH32 0x496E6772656469656E74206F72646572206D757374206265206265747765656E PUSH0 DUP3 ADD MSTORE PUSH32 0x203120616E642033000000000000000000000000000000000000000000000000 PUSH1 0x20 DUP3 ADD MSTORE POP JUMP JUMPDEST PUSH0 PUSH2 0x2B8 PUSH1 0x28 DUP4 PUSH2 0x24E JUMP JUMPDEST SWAP2 POP PUSH2 0x2C3 DUP3 PUSH2 0x25E JUMP JUMPDEST PUSH1 0x40 DUP3 ADD SWAP1 POP SWAP2 SWAP1 POP JUMP JUMPDEST PUSH0 PUSH1 0x20 DUP3 ADD SWAP1 POP DUP2 DUP2 SUB PUSH0 DUP4 ADD MSTORE PUSH2 0x2E5 DUP2 PUSH2 0x2AC JUMP JUMPDEST SWAP1 POP SWAP2 SWAP1 POP JUMP INVALID LOG2 PUSH5 0x6970667358 0x22 SLT KECCAK256 MULMOD 0xB2 MSTORE8 POP 0xCF EQ SWAP7 0xBE 0xCC DIV 0xC4 PUSH8 0xAE3C1EAE90B0A6B7 PUSH14 0x44BFC4D8A003395F407B7064736F PUSH13 0x63430008170033000000000000 "
				},
				"gasEstimates": {
					"creation": {
						"codeDepositCost": "160400",
						"executionCost": "206",
						"totalCost": "160606"
					},
					"external": {
						"addOil(uint8)": "24760",
						"addSalt(uint8)": "24788",
						"addTomatoe(uint8)": "24766"
					}
				},
				"methodIdentifiers": {
					"addOil(uint8)": "f0626e7a",
					"addSalt(uint8)": "aecf6a42",
					"addTomatoe(uint8)": "5edf144c"
				}
			},
			"storageLayout": {
				"storage": [
					{
						"astId": 3,
						"contract": "levelup/functions4.sol:functions4",
						"label": "oil",
						"offset": 0,
						"slot": "0",
						"type": "t_uint8"
					},
					{
						"astId": 5,
						"contract": "levelup/functions4.sol:functions4",
						"label": "salt",
						"offset": 1,
						"slot": "0",
						"type": "t_uint8"
					},
					{
						"astId": 7,
						"contract": "levelup/functions4.sol:functions4",
						"label": "tomatoe",
						"offset": 2,
						"slot": "0",
						"type": "t_uint8"
					}
				],
				"types": {
					"t_uint8": {
						"encoding": "inplace",
						"label": "uint8",
						"numberOfBytes": "1"
					}
				}
			},
			"userdoc": {
				"kind": "user",
				"methods": {},
				"version": 1
			}
		}
	}
}