{
	"levelup/manageGas.sol": {
		"Gasolina": {
			"abi": [
				{
					"inputs": [
						{
							"internalType": "string",
							"name": "_flag",
							"type": "string"
						}
					],
					"stateMutability": "nonpayable",
					"type": "constructor"
				},
				{
					"inputs": [],
					"name": "calculame",
					"outputs": [],
					"stateMutability": "nonpayable",
					"type": "function"
				},
				{
					"inputs": [],
					"name": "gasfinal",
					"outputs": [
						{
							"internalType": "uint256",
							"name": "",
							"type": "uint256"
						}
					],
					"stateMutability": "view",
					"type": "function"
				},
				{
					"inputs": [],
					"name": "gass",
					"outputs": [],
					"stateMutability": "nonpayable",
					"type": "function"
				},
				{
					"inputs": [],
					"name": "getFlag",
					"outputs": [
						{
							"internalType": "string",
							"name": "",
							"type": "string"
						}
					],
					"stateMutability": "view",
					"type": "function"
				},
				{
					"inputs": [],
					"name": "ideasLocas",
					"outputs": [
						{
							"internalType": "string",
							"name": "",
							"type": "string"
						}
					],
					"stateMutability": "view",
					"type": "function"
				},
				{
					"inputs": [],
					"name": "iniciotx",
					"outputs": [
						{
							"internalType": "uint256",
							"name": "",
							"type": "uint256"
						}
					],
					"stateMutability": "view",
					"type": "function"
				},
				{
					"inputs": [],
					"name": "mitad2tx",
					"outputs": [
						{
							"internalType": "uint256",
							"name": "",
							"type": "uint256"
						}
					],
					"stateMutability": "view",
					"type": "function"
				},
				{
					"inputs": [],
					"name": "mitadtx",
					"outputs": [
						{
							"internalType": "uint256",
							"name": "",
							"type": "uint256"
						}
					],
					"stateMutability": "view",
					"type": "function"
				}
			],
			"devdoc": {
				"kind": "dev",
				"methods": {},
				"version": 1
			},
			"evm": {
				"assembly": "    /* \"levelup/manageGas.sol\":58:804  contract Gasolina{... */\n  mstore(0x40, 0x80)\n    /* \"levelup/manageGas.sol\":275:336  constructor(string memory _flag){... */\n  callvalue\n  dup1\n  iszero\n  tag_1\n  jumpi\n  0x00\n  dup1\n  revert\ntag_1:\n  pop\n  mload(0x40)\n  sub(codesize, bytecodeSize)\n  dup1\n  bytecodeSize\n  dup4\n  codecopy\n  dup2\n  dup2\n  add\n  0x40\n  mstore\n  dup2\n  add\n  swap1\n  tag_2\n  swap2\n  swap1\n  tag_3\n  jump\t// in\ntag_2:\n    /* \"levelup/manageGas.sol\":324:329  _flag */\n  dup1\n    /* \"levelup/manageGas.sol\":317:321  flag */\n  0x05\n    /* \"levelup/manageGas.sol\":317:329  flag = _flag */\n  swap1\n  dup1\n  mload\n  swap1\n  0x20\n  add\n  swap1\n  tag_6\n  swap3\n  swap2\n  swap1\n  tag_7\n  jump\t// in\ntag_6:\n  pop\n    /* \"levelup/manageGas.sol\":275:336  constructor(string memory _flag){... */\n  pop\n    /* \"levelup/manageGas.sol\":58:804  contract Gasolina{... */\n  jump(tag_8)\ntag_7:\n  dup3\n  dup1\n  sload\n  tag_9\n  swap1\n  tag_10\n  jump\t// in\ntag_9:\n  swap1\n  0x00\n  mstore\n  keccak256(0x00, 0x20)\n  swap1\n  0x1f\n  add\n  0x20\n  swap1\n  div\n  dup2\n  add\n  swap3\n  dup3\n  tag_12\n  jumpi\n  0x00\n  dup6\n  sstore\n  jump(tag_11)\ntag_12:\n  dup3\n  0x1f\n  lt\n  tag_13\n  jumpi\n  dup1\n  mload\n  not(0xff)\n  and\n  dup4\n  dup1\n  add\n  or\n  dup6\n  sstore\n  jump(tag_11)\ntag_13:\n  dup3\n  dup1\n  add\n  0x01\n  add\n  dup6\n  sstore\n  dup3\n  iszero\n  tag_11\n  jumpi\n  swap2\n  dup3\n  add\ntag_14:\n  dup3\n  dup2\n  gt\n  iszero\n  tag_15\n  jumpi\n  dup3\n  mload\n  dup3\n  sstore\n  swap2\n  0x20\n  add\n  swap2\n  swap1\n  0x01\n  add\n  swap1\n  jump(tag_14)\ntag_15:\ntag_11:\n  pop\n  swap1\n  pop\n  tag_16\n  swap2\n  swap1\n  tag_17\n  jump\t// in\ntag_16:\n  pop\n  swap1\n  jump\t// out\ntag_17:\ntag_18:\n  dup1\n  dup3\n  gt\n  iszero\n  tag_19\n  jumpi\n  0x00\n  dup2\n  0x00\n  swap1\n  sstore\n  pop\n  0x01\n  add\n  jump(tag_18)\ntag_19:\n  pop\n  swap1\n  jump\t// out\n    /* \"#utility.yul\":7:361   */\ntag_21:\n    /* \"#utility.yul\":96:101   */\n  0x00\n    /* \"#utility.yul\":121:187   */\n  tag_23\n    /* \"#utility.yul\":137:186   */\n  tag_24\n    /* \"#utility.yul\":179:185   */\n  dup5\n    /* \"#utility.yul\":137:186   */\n  tag_25\n  jump\t// in\ntag_24:\n    /* \"#utility.yul\":121:187   */\n  tag_26\n  jump\t// in\ntag_23:\n    /* \"#utility.yul\":112:187   */\n  swap1\n  pop\n    /* \"#utility.yul\":210:216   */\n  dup3\n    /* \"#utility.yul\":203:208   */\n  dup2\n    /* \"#utility.yul\":196:217   */\n  mstore\n    /* \"#utility.yul\":248:252   */\n  0x20\n    /* \"#utility.yul\":241:246   */\n  dup2\n    /* \"#utility.yul\":237:253   */\n  add\n    /* \"#utility.yul\":286:289   */\n  dup5\n    /* \"#utility.yul\":277:283   */\n  dup5\n    /* \"#utility.yul\":272:275   */\n  dup5\n    /* \"#utility.yul\":268:284   */\n  add\n    /* \"#utility.yul\":265:290   */\n  gt\n    /* \"#utility.yul\":262:264   */\n  iszero\n  tag_27\n  jumpi\n    /* \"#utility.yul\":303:304   */\n  0x00\n    /* \"#utility.yul\":300:301   */\n  dup1\n    /* \"#utility.yul\":293:305   */\n  revert\n    /* \"#utility.yul\":262:264   */\ntag_27:\n    /* \"#utility.yul\":316:355   */\n  tag_28\n    /* \"#utility.yul\":348:354   */\n  dup5\n    /* \"#utility.yul\":343:346   */\n  dup3\n    /* \"#utility.yul\":338:341   */\n  dup6\n    /* \"#utility.yul\":316:355   */\n  tag_29\n  jump\t// in\ntag_28:\n    /* \"#utility.yul\":102:361   */\n  pop\n  swap4\n  swap3\n  pop\n  pop\n  pop\n  jump\t// out\n    /* \"#utility.yul\":381:669   */\ntag_30:\n    /* \"#utility.yul\":448:453   */\n  0x00\n    /* \"#utility.yul\":497:500   */\n  dup3\n    /* \"#utility.yul\":490:494   */\n  0x1f\n    /* \"#utility.yul\":482:488   */\n  dup4\n    /* \"#utility.yul\":478:495   */\n  add\n    /* \"#utility.yul\":474:501   */\n  slt\n    /* \"#utility.yul\":464:466   */\n  tag_32\n  jumpi\n    /* \"#utility.yul\":515:516   */\n  0x00\n    /* \"#utility.yul\":512:513   */\n  dup1\n    /* \"#utility.yul\":505:517   */\n  revert\n    /* \"#utility.yul\":464:466   */\ntag_32:\n    /* \"#utility.yul\":548:554   */\n  dup2\n    /* \"#utility.yul\":542:555   */\n  mload\n    /* \"#utility.yul\":573:663   */\n  tag_33\n    /* \"#utility.yul\":659:662   */\n  dup5\n    /* \"#utility.yul\":651:657   */\n  dup3\n    /* \"#utility.yul\":644:648   */\n  0x20\n    /* \"#utility.yul\":636:642   */\n  dup7\n    /* \"#utility.yul\":632:649   */\n  add\n    /* \"#utility.yul\":573:663   */\n  tag_21\n  jump\t// in\ntag_33:\n    /* \"#utility.yul\":564:663   */\n  swap2\n  pop\n    /* \"#utility.yul\":454:669   */\n  pop\n  swap3\n  swap2\n  pop\n  pop\n  jump\t// out\n    /* \"#utility.yul\":675:1065   */\ntag_3:\n    /* \"#utility.yul\":755:761   */\n  0x00\n    /* \"#utility.yul\":804:806   */\n  0x20\n    /* \"#utility.yul\":792:801   */\n  dup3\n    /* \"#utility.yul\":783:790   */\n  dup5\n    /* \"#utility.yul\":779:802   */\n  sub\n    /* \"#utility.yul\":775:807   */\n  slt\n    /* \"#utility.yul\":772:774   */\n  iszero\n  tag_35\n  jumpi\n    /* \"#utility.yul\":820:821   */\n  0x00\n    /* \"#utility.yul\":817:818   */\n  dup1\n    /* \"#utility.yul\":810:822   */\n  revert\n    /* \"#utility.yul\":772:774   */\ntag_35:\n    /* \"#utility.yul\":884:885   */\n  0x00\n    /* \"#utility.yul\":873:882   */\n  dup3\n    /* \"#utility.yul\":869:886   */\n  add\n    /* \"#utility.yul\":863:887   */\n  mload\n    /* \"#utility.yul\":914:932   */\n  0xffffffffffffffff\n    /* \"#utility.yul\":906:912   */\n  dup2\n    /* \"#utility.yul\":903:933   */\n  gt\n    /* \"#utility.yul\":900:902   */\n  iszero\n  tag_36\n  jumpi\n    /* \"#utility.yul\":946:947   */\n  0x00\n    /* \"#utility.yul\":943:944   */\n  dup1\n    /* \"#utility.yul\":936:948   */\n  revert\n    /* \"#utility.yul\":900:902   */\ntag_36:\n    /* \"#utility.yul\":974:1048   */\n  tag_37\n    /* \"#utility.yul\":1040:1047   */\n  dup5\n    /* \"#utility.yul\":1031:1037   */\n  dup3\n    /* \"#utility.yul\":1020:1029   */\n  dup6\n    /* \"#utility.yul\":1016:1038   */\n  add\n    /* \"#utility.yul\":974:1048   */\n  tag_30\n  jump\t// in\ntag_37:\n    /* \"#utility.yul\":964:1048   */\n  swap2\n  pop\n    /* \"#utility.yul\":834:1058   */\n  pop\n    /* \"#utility.yul\":762:1065   */\n  swap3\n  swap2\n  pop\n  pop\n  jump\t// out\n    /* \"#utility.yul\":1071:1200   */\ntag_26:\n    /* \"#utility.yul\":1105:1111   */\n  0x00\n    /* \"#utility.yul\":1132:1152   */\n  tag_39\n  tag_40\n  jump\t// in\ntag_39:\n    /* \"#utility.yul\":1122:1152   */\n  swap1\n  pop\n    /* \"#utility.yul\":1161:1194   */\n  tag_41\n    /* \"#utility.yul\":1189:1193   */\n  dup3\n    /* \"#utility.yul\":1181:1187   */\n  dup3\n    /* \"#utility.yul\":1161:1194   */\n  tag_42\n  jump\t// in\ntag_41:\n    /* \"#utility.yul\":1112:1200   */\n  swap2\n  swap1\n  pop\n  jump\t// out\n    /* \"#utility.yul\":1206:1281   */\ntag_40:\n    /* \"#utility.yul\":1239:1245   */\n  0x00\n    /* \"#utility.yul\":1272:1274   */\n  0x40\n    /* \"#utility.yul\":1266:1275   */\n  mload\n    /* \"#utility.yul\":1256:1275   */\n  swap1\n  pop\n    /* \"#utility.yul\":1246:1281   */\n  swap1\n  jump\t// out\n    /* \"#utility.yul\":1287:1595   */\ntag_25:\n    /* \"#utility.yul\":1349:1353   */\n  0x00\n    /* \"#utility.yul\":1439:1457   */\n  0xffffffffffffffff\n    /* \"#utility.yul\":1431:1437   */\n  dup3\n    /* \"#utility.yul\":1428:1458   */\n  gt\n    /* \"#utility.yul\":1425:1427   */\n  iszero\n  tag_45\n  jumpi\n    /* \"#utility.yul\":1461:1479   */\n  tag_46\n  tag_47\n  jump\t// in\ntag_46:\n    /* \"#utility.yul\":1425:1427   */\ntag_45:\n    /* \"#utility.yul\":1499:1528   */\n  tag_48\n    /* \"#utility.yul\":1521:1527   */\n  dup3\n    /* \"#utility.yul\":1499:1528   */\n  tag_49\n  jump\t// in\ntag_48:\n    /* \"#utility.yul\":1491:1528   */\n  swap1\n  pop\n    /* \"#utility.yul\":1583:1587   */\n  0x20\n    /* \"#utility.yul\":1577:1581   */\n  dup2\n    /* \"#utility.yul\":1573:1588   */\n  add\n    /* \"#utility.yul\":1565:1588   */\n  swap1\n  pop\n    /* \"#utility.yul\":1354:1595   */\n  swap2\n  swap1\n  pop\n  jump\t// out\n    /* \"#utility.yul\":1601:1908   */\ntag_29:\n    /* \"#utility.yul\":1669:1670   */\n  0x00\n    /* \"#utility.yul\":1679:1792   */\ntag_51:\n    /* \"#utility.yul\":1693:1699   */\n  dup4\n    /* \"#utility.yul\":1690:1691   */\n  dup2\n    /* \"#utility.yul\":1687:1700   */\n  lt\n    /* \"#utility.yul\":1679:1792   */\n  iszero\n  tag_53\n  jumpi\n    /* \"#utility.yul\":1778:1779   */\n  dup1\n    /* \"#utility.yul\":1773:1776   */\n  dup3\n    /* \"#utility.yul\":1769:1780   */\n  add\n    /* \"#utility.yul\":1763:1781   */\n  mload\n    /* \"#utility.yul\":1759:1760   */\n  dup2\n    /* \"#utility.yul\":1754:1757   */\n  dup5\n    /* \"#utility.yul\":1750:1761   */\n  add\n    /* \"#utility.yul\":1743:1782   */\n  mstore\n    /* \"#utility.yul\":1715:1717   */\n  0x20\n    /* \"#utility.yul\":1712:1713   */\n  dup2\n    /* \"#utility.yul\":1708:1718   */\n  add\n    /* \"#utility.yul\":1703:1718   */\n  swap1\n  pop\n    /* \"#utility.yul\":1679:1792   */\n  jump(tag_51)\ntag_53:\n    /* \"#utility.yul\":1810:1816   */\n  dup4\n    /* \"#utility.yul\":1807:1808   */\n  dup2\n    /* \"#utility.yul\":1804:1817   */\n  gt\n    /* \"#utility.yul\":1801:1803   */\n  iszero\n  tag_54\n  jumpi\n    /* \"#utility.yul\":1890:1891   */\n  0x00\n    /* \"#utility.yul\":1881:1887   */\n  dup5\n    /* \"#utility.yul\":1876:1879   */\n  dup5\n    /* \"#utility.yul\":1872:1888   */\n  add\n    /* \"#utility.yul\":1865:1892   */\n  mstore\n    /* \"#utility.yul\":1801:1803   */\ntag_54:\n    /* \"#utility.yul\":1650:1908   */\n  pop\n  pop\n  pop\n  pop\n  jump\t// out\n    /* \"#utility.yul\":1914:2234   */\ntag_10:\n    /* \"#utility.yul\":1958:1964   */\n  0x00\n    /* \"#utility.yul\":1995:1996   */\n  0x02\n    /* \"#utility.yul\":1989:1993   */\n  dup3\n    /* \"#utility.yul\":1985:1997   */\n  div\n    /* \"#utility.yul\":1975:1997   */\n  swap1\n  pop\n    /* \"#utility.yul\":2042:2043   */\n  0x01\n    /* \"#utility.yul\":2036:2040   */\n  dup3\n    /* \"#utility.yul\":2032:2044   */\n  and\n    /* \"#utility.yul\":2063:2081   */\n  dup1\n    /* \"#utility.yul\":2053:2055   */\n  tag_56\n  jumpi\n    /* \"#utility.yul\":2119:2123   */\n  0x7f\n    /* \"#utility.yul\":2111:2117   */\n  dup3\n    /* \"#utility.yul\":2107:2124   */\n  and\n    /* \"#utility.yul\":2097:2124   */\n  swap2\n  pop\n    /* \"#utility.yul\":2053:2055   */\ntag_56:\n    /* \"#utility.yul\":2181:2183   */\n  0x20\n    /* \"#utility.yul\":2173:2179   */\n  dup3\n    /* \"#utility.yul\":2170:2184   */\n  lt\n    /* \"#utility.yul\":2150:2168   */\n  dup2\n    /* \"#utility.yul\":2147:2185   */\n  eq\n    /* \"#utility.yul\":2144:2146   */\n  iszero\n  tag_57\n  jumpi\n    /* \"#utility.yul\":2200:2218   */\n  tag_58\n  tag_59\n  jump\t// in\ntag_58:\n    /* \"#utility.yul\":2144:2146   */\ntag_57:\n    /* \"#utility.yul\":1965:2234   */\n  pop\n  swap2\n  swap1\n  pop\n  jump\t// out\n    /* \"#utility.yul\":2240:2521   */\ntag_42:\n    /* \"#utility.yul\":2323:2350   */\n  tag_61\n    /* \"#utility.yul\":2345:2349   */\n  dup3\n    /* \"#utility.yul\":2323:2350   */\n  tag_49\n  jump\t// in\ntag_61:\n    /* \"#utility.yul\":2315:2321   */\n  dup2\n    /* \"#utility.yul\":2311:2351   */\n  add\n    /* \"#utility.yul\":2453:2459   */\n  dup2\n    /* \"#utility.yul\":2441:2451   */\n  dup2\n    /* \"#utility.yul\":2438:2460   */\n  lt\n    /* \"#utility.yul\":2417:2435   */\n  0xffffffffffffffff\n    /* \"#utility.yul\":2405:2415   */\n  dup3\n    /* \"#utility.yul\":2402:2436   */\n  gt\n    /* \"#utility.yul\":2399:2461   */\n  or\n    /* \"#utility.yul\":2396:2398   */\n  iszero\n  tag_62\n  jumpi\n    /* \"#utility.yul\":2464:2482   */\n  tag_63\n  tag_47\n  jump\t// in\ntag_63:\n    /* \"#utility.yul\":2396:2398   */\ntag_62:\n    /* \"#utility.yul\":2504:2514   */\n  dup1\n    /* \"#utility.yul\":2500:2502   */\n  0x40\n    /* \"#utility.yul\":2493:2515   */\n  mstore\n    /* \"#utility.yul\":2283:2521   */\n  pop\n  pop\n  pop\n  jump\t// out\n    /* \"#utility.yul\":2527:2707   */\ntag_59:\n    /* \"#utility.yul\":2575:2652   */\n  0x4e487b7100000000000000000000000000000000000000000000000000000000\n    /* \"#utility.yul\":2572:2573   */\n  0x00\n    /* \"#utility.yul\":2565:2653   */\n  mstore\n    /* \"#utility.yul\":2672:2676   */\n  0x22\n    /* \"#utility.yul\":2669:2670   */\n  0x04\n    /* \"#utility.yul\":2662:2677   */\n  mstore\n    /* \"#utility.yul\":2696:2700   */\n  0x24\n    /* \"#utility.yul\":2693:2694   */\n  0x00\n    /* \"#utility.yul\":2686:2701   */\n  revert\n    /* \"#utility.yul\":2713:2893   */\ntag_47:\n    /* \"#utility.yul\":2761:2838   */\n  0x4e487b7100000000000000000000000000000000000000000000000000000000\n    /* \"#utility.yul\":2758:2759   */\n  0x00\n    /* \"#utility.yul\":2751:2839   */\n  mstore\n    /* \"#utility.yul\":2858:2862   */\n  0x41\n    /* \"#utility.yul\":2855:2856   */\n  0x04\n    /* \"#utility.yul\":2848:2863   */\n  mstore\n    /* \"#utility.yul\":2882:2886   */\n  0x24\n    /* \"#utility.yul\":2879:2880   */\n  0x00\n    /* \"#utility.yul\":2872:2887   */\n  revert\n    /* \"#utility.yul\":2899:3001   */\ntag_49:\n    /* \"#utility.yul\":2940:2946   */\n  0x00\n    /* \"#utility.yul\":2991:2993   */\n  0x1f\n    /* \"#utility.yul\":2987:2994   */\n  not\n    /* \"#utility.yul\":2982:2984   */\n  0x1f\n    /* \"#utility.yul\":2975:2980   */\n  dup4\n    /* \"#utility.yul\":2971:2985   */\n  add\n    /* \"#utility.yul\":2967:2995   */\n  and\n    /* \"#utility.yul\":2957:2995   */\n  swap1\n  pop\n    /* \"#utility.yul\":2947:3001   */\n  swap2\n  swap1\n  pop\n  jump\t// out\n    /* \"levelup/manageGas.sol\":58:804  contract Gasolina{... */\ntag_8:\n  dataSize(sub_0)\n  dup1\n  dataOffset(sub_0)\n  0x00\n  codecopy\n  0x00\n  return\nstop\n\nsub_0: assembly {\n        /* \"levelup/manageGas.sol\":58:804  contract Gasolina{... */\n      mstore(0x40, 0x80)\n      callvalue\n      dup1\n      iszero\n      tag_1\n      jumpi\n      0x00\n      dup1\n      revert\n    tag_1:\n      pop\n      jumpi(tag_2, lt(calldatasize, 0x04))\n      shr(0xe0, calldataload(0x00))\n      dup1\n      0x7d641dba\n      gt\n      tag_11\n      jumpi\n      dup1\n      0x7d641dba\n      eq\n      tag_7\n      jumpi\n      dup1\n      0xb95f9612\n      eq\n      tag_8\n      jumpi\n      dup1\n      0xc6b422da\n      eq\n      tag_9\n      jumpi\n      dup1\n      0xf9633930\n      eq\n      tag_10\n      jumpi\n      jump(tag_2)\n    tag_11:\n      dup1\n      0x0b6e7701\n      eq\n      tag_3\n      jumpi\n      dup1\n      0x30cb47fa\n      eq\n      tag_4\n      jumpi\n      dup1\n      0x4eeb44b3\n      eq\n      tag_5\n      jumpi\n      dup1\n      0x4ff67542\n      eq\n      tag_6\n      jumpi\n    tag_2:\n      0x00\n      dup1\n      revert\n        /* \"levelup/manageGas.sol\":409:657  function gass() public {... */\n    tag_3:\n      tag_12\n      tag_13\n      jump\t// in\n    tag_12:\n      stop\n        /* \"levelup/manageGas.sol\":139:162  uint256 public mitad2tx */\n    tag_4:\n      tag_14\n      tag_15\n      jump\t// in\n    tag_14:\n      mload(0x40)\n      tag_16\n      swap2\n      swap1\n      tag_17\n      jump\t// in\n    tag_16:\n      mload(0x40)\n      dup1\n      swap2\n      sub\n      swap1\n      return\n        /* \"levelup/manageGas.sol\":198:222  string public ideasLocas */\n    tag_5:\n      tag_18\n      tag_19\n      jump\t// in\n    tag_18:\n      mload(0x40)\n      tag_20\n      swap2\n      swap1\n      tag_21\n      jump\t// in\n    tag_20:\n      mload(0x40)\n      dup1\n      swap2\n      sub\n      swap1\n      return\n        /* \"levelup/manageGas.sol\":111:133  uint256 public mitadtx */\n    tag_6:\n      tag_22\n      tag_23\n      jump\t// in\n    tag_22:\n      mload(0x40)\n      tag_24\n      swap2\n      swap1\n      tag_17\n      jump\t// in\n    tag_24:\n      mload(0x40)\n      dup1\n      swap2\n      sub\n      swap1\n      return\n        /* \"levelup/manageGas.sol\":168:191  uint256 public gasfinal */\n    tag_7:\n      tag_25\n      tag_26\n      jump\t// in\n    tag_25:\n      mload(0x40)\n      tag_27\n      swap2\n      swap1\n      tag_17\n      jump\t// in\n    tag_27:\n      mload(0x40)\n      dup1\n      swap2\n      sub\n      swap1\n      return\n        /* \"levelup/manageGas.sol\":342:403  function calculame() public {... */\n    tag_8:\n      tag_28\n      tag_29\n      jump\t// in\n    tag_28:\n      stop\n        /* \"levelup/manageGas.sol\":82:105  uint256 public iniciotx */\n    tag_9:\n      tag_30\n      tag_31\n      jump\t// in\n    tag_30:\n      mload(0x40)\n      tag_32\n      swap2\n      swap1\n      tag_17\n      jump\t// in\n    tag_32:\n      mload(0x40)\n      dup1\n      swap2\n      sub\n      swap1\n      return\n        /* \"levelup/manageGas.sol\":663:801  function getFlag() public view returns(string memory){... */\n    tag_10:\n      tag_33\n      tag_34\n      jump\t// in\n    tag_33:\n      mload(0x40)\n      tag_35\n      swap2\n      swap1\n      tag_21\n      jump\t// in\n    tag_35:\n      mload(0x40)\n      dup1\n      swap2\n      sub\n      swap1\n      return\n        /* \"levelup/manageGas.sol\":409:657  function gass() public {... */\n    tag_13:\n        /* \"levelup/manageGas.sol\":452:461  gasleft() */\n      gas\n        /* \"levelup/manageGas.sol\":443:451  iniciotx */\n      0x00\n        /* \"levelup/manageGas.sol\":443:461  iniciotx=gasleft() */\n      dup2\n      swap1\n      sstore\n      pop\n        /* \"levelup/manageGas.sol\":491:497  500000 */\n      0x07a120\n        /* \"levelup/manageGas.sol\":479:488  gasleft() */\n      gas\n        /* \"levelup/manageGas.sol\":479:497  gasleft() < 500000 */\n      lt\n        /* \"levelup/manageGas.sol\":471:515  require(gasleft() < 500000, \"Demasiado gas\") */\n      tag_37\n      jumpi\n      mload(0x40)\n      0x08c379a000000000000000000000000000000000000000000000000000000000\n      dup2\n      mstore\n      0x04\n      add\n      tag_38\n      swap1\n      tag_39\n      jump\t// in\n    tag_38:\n      mload(0x40)\n      dup1\n      swap2\n      sub\n      swap1\n      revert\n    tag_37:\n        /* \"levelup/manageGas.sol\":525:545  ideasLocas = \" mola\" */\n      mload(0x40)\n      dup1\n      0x40\n      add\n      0x40\n      mstore\n      dup1\n      0x05\n      dup2\n      mstore\n      0x20\n      add\n      0x206d6f6c61000000000000000000000000000000000000000000000000000000\n      dup2\n      mstore\n      pop\n        /* \"levelup/manageGas.sol\":525:535  ideasLocas */\n      0x04\n        /* \"levelup/manageGas.sol\":525:545  ideasLocas = \" mola\" */\n      swap1\n      dup1\n      mload\n      swap1\n      0x20\n      add\n      swap1\n      tag_40\n      swap3\n      swap2\n      swap1\n      tag_41\n      jump\t// in\n    tag_40:\n      pop\n        /* \"levelup/manageGas.sol\":563:572  gasleft() */\n      gas\n        /* \"levelup/manageGas.sol\":555:562  mitadtx */\n      0x01\n        /* \"levelup/manageGas.sol\":555:572  mitadtx=gasleft() */\n      dup2\n      swap1\n      sstore\n      pop\n        /* \"levelup/manageGas.sol\":611:622  calculame() */\n      tag_42\n        /* \"levelup/manageGas.sol\":611:620  calculame */\n      tag_29\n        /* \"levelup/manageGas.sol\":611:622  calculame() */\n      jump\t// in\n    tag_42:\n        /* \"levelup/manageGas.sol\":641:650  gasleft() */\n      gas\n        /* \"levelup/manageGas.sol\":632:640  gasfinal */\n      0x03\n        /* \"levelup/manageGas.sol\":632:650  gasfinal=gasleft() */\n      dup2\n      swap1\n      sstore\n      pop\n        /* \"levelup/manageGas.sol\":409:657  function gass() public {... */\n      jump\t// out\n        /* \"levelup/manageGas.sol\":139:162  uint256 public mitad2tx */\n    tag_15:\n      sload(0x02)\n      dup2\n      jump\t// out\n        /* \"levelup/manageGas.sol\":198:222  string public ideasLocas */\n    tag_19:\n      0x04\n      dup1\n      sload\n      tag_43\n      swap1\n      tag_44\n      jump\t// in\n    tag_43:\n      dup1\n      0x1f\n      add\n      0x20\n      dup1\n      swap2\n      div\n      mul\n      0x20\n      add\n      mload(0x40)\n      swap1\n      dup2\n      add\n      0x40\n      mstore\n      dup1\n      swap3\n      swap2\n      swap1\n      dup2\n      dup2\n      mstore\n      0x20\n      add\n      dup3\n      dup1\n      sload\n      tag_45\n      swap1\n      tag_44\n      jump\t// in\n    tag_45:\n      dup1\n      iszero\n      tag_46\n      jumpi\n      dup1\n      0x1f\n      lt\n      tag_47\n      jumpi\n      0x0100\n      dup1\n      dup4\n      sload\n      div\n      mul\n      dup4\n      mstore\n      swap2\n      0x20\n      add\n      swap2\n      jump(tag_46)\n    tag_47:\n      dup3\n      add\n      swap2\n      swap1\n      0x00\n      mstore\n      keccak256(0x00, 0x20)\n      swap1\n    tag_48:\n      dup2\n      sload\n      dup2\n      mstore\n      swap1\n      0x01\n      add\n      swap1\n      0x20\n      add\n      dup1\n      dup4\n      gt\n      tag_48\n      jumpi\n      dup3\n      swap1\n      sub\n      0x1f\n      and\n      dup3\n      add\n      swap2\n    tag_46:\n      pop\n      pop\n      pop\n      pop\n      pop\n      dup2\n      jump\t// out\n        /* \"levelup/manageGas.sol\":111:133  uint256 public mitadtx */\n    tag_23:\n      sload(0x01)\n      dup2\n      jump\t// out\n        /* \"levelup/manageGas.sol\":168:191  uint256 public gasfinal */\n    tag_26:\n      sload(0x03)\n      dup2\n      jump\t// out\n        /* \"levelup/manageGas.sol\":342:403  function calculame() public {... */\n    tag_29:\n        /* \"levelup/manageGas.sol\":392:396  true */\n      0x01\n        /* \"levelup/manageGas.sol\":380:389  calculado */\n      0x06\n      0x00\n        /* \"levelup/manageGas.sol\":380:396  calculado = true */\n      0x0100\n      exp\n      dup2\n      sload\n      dup2\n      0xff\n      mul\n      not\n      and\n      swap1\n      dup4\n      iszero\n      iszero\n      mul\n      or\n      swap1\n      sstore\n      pop\n        /* \"levelup/manageGas.sol\":342:403  function calculame() public {... */\n      jump\t// out\n        /* \"levelup/manageGas.sol\":82:105  uint256 public iniciotx */\n    tag_31:\n      sload(0x00)\n      dup2\n      jump\t// out\n        /* \"levelup/manageGas.sol\":663:801  function getFlag() public view returns(string memory){... */\n    tag_34:\n        /* \"levelup/manageGas.sol\":702:715  string memory */\n      0x60\n        /* \"levelup/manageGas.sol\":744:747  100 */\n      0x64\n        /* \"levelup/manageGas.sol\":734:742  gasfinal */\n      sload(0x03)\n        /* \"levelup/manageGas.sol\":734:747  gasfinal==100 */\n      eq\n        /* \"levelup/manageGas.sol\":726:773  require(gasfinal==100, \"No has calculado bien\") */\n      tag_51\n      jumpi\n      mload(0x40)\n      0x08c379a000000000000000000000000000000000000000000000000000000000\n      dup2\n      mstore\n      0x04\n      add\n      tag_52\n      swap1\n      tag_53\n      jump\t// in\n    tag_52:\n      mload(0x40)\n      dup1\n      swap2\n      sub\n      swap1\n      revert\n    tag_51:\n        /* \"levelup/manageGas.sol\":790:794  flag */\n      0x05\n        /* \"levelup/manageGas.sol\":783:794  return flag */\n      dup1\n      sload\n      tag_54\n      swap1\n      tag_44\n      jump\t// in\n    tag_54:\n      dup1\n      0x1f\n      add\n      0x20\n      dup1\n      swap2\n      div\n      mul\n      0x20\n      add\n      mload(0x40)\n      swap1\n      dup2\n      add\n      0x40\n      mstore\n      dup1\n      swap3\n      swap2\n      swap1\n      dup2\n      dup2\n      mstore\n      0x20\n      add\n      dup3\n      dup1\n      sload\n      tag_55\n      swap1\n      tag_44\n      jump\t// in\n    tag_55:\n      dup1\n      iszero\n      tag_56\n      jumpi\n      dup1\n      0x1f\n      lt\n      tag_57\n      jumpi\n      0x0100\n      dup1\n      dup4\n      sload\n      div\n      mul\n      dup4\n      mstore\n      swap2\n      0x20\n      add\n      swap2\n      jump(tag_56)\n    tag_57:\n      dup3\n      add\n      swap2\n      swap1\n      0x00\n      mstore\n      keccak256(0x00, 0x20)\n      swap1\n    tag_58:\n      dup2\n      sload\n      dup2\n      mstore\n      swap1\n      0x01\n      add\n      swap1\n      0x20\n      add\n      dup1\n      dup4\n      gt\n      tag_58\n      jumpi\n      dup3\n      swap1\n      sub\n      0x1f\n      and\n      dup3\n      add\n      swap2\n    tag_56:\n      pop\n      pop\n      pop\n      pop\n      pop\n      swap1\n      pop\n        /* \"levelup/manageGas.sol\":663:801  function getFlag() public view returns(string memory){... */\n      swap1\n      jump\t// out\n    tag_41:\n      dup3\n      dup1\n      sload\n      tag_59\n      swap1\n      tag_44\n      jump\t// in\n    tag_59:\n      swap1\n      0x00\n      mstore\n      keccak256(0x00, 0x20)\n      swap1\n      0x1f\n      add\n      0x20\n      swap1\n      div\n      dup2\n      add\n      swap3\n      dup3\n      tag_61\n      jumpi\n      0x00\n      dup6\n      sstore\n      jump(tag_60)\n    tag_61:\n      dup3\n      0x1f\n      lt\n      tag_62\n      jumpi\n      dup1\n      mload\n      not(0xff)\n      and\n      dup4\n      dup1\n      add\n      or\n      dup6\n      sstore\n      jump(tag_60)\n    tag_62:\n      dup3\n      dup1\n      add\n      0x01\n      add\n      dup6\n      sstore\n      dup3\n      iszero\n      tag_60\n      jumpi\n      swap2\n      dup3\n      add\n    tag_63:\n      dup3\n      dup2\n      gt\n      iszero\n      tag_64\n      jumpi\n      dup3\n      mload\n      dup3\n      sstore\n      swap2\n      0x20\n      add\n      swap2\n      swap1\n      0x01\n      add\n      swap1\n      jump(tag_63)\n    tag_64:\n    tag_60:\n      pop\n      swap1\n      pop\n      tag_65\n      swap2\n      swap1\n      tag_66\n      jump\t// in\n    tag_65:\n      pop\n      swap1\n      jump\t// out\n    tag_66:\n    tag_67:\n      dup1\n      dup3\n      gt\n      iszero\n      tag_68\n      jumpi\n      0x00\n      dup2\n      0x00\n      swap1\n      sstore\n      pop\n      0x01\n      add\n      jump(tag_67)\n    tag_68:\n      pop\n      swap1\n      jump\t// out\n        /* \"#utility.yul\":7:371   */\n    tag_70:\n        /* \"#utility.yul\":95:98   */\n      0x00\n        /* \"#utility.yul\":123:162   */\n      tag_72\n        /* \"#utility.yul\":156:161   */\n      dup3\n        /* \"#utility.yul\":123:162   */\n      tag_73\n      jump\t// in\n    tag_72:\n        /* \"#utility.yul\":178:249   */\n      tag_74\n        /* \"#utility.yul\":242:248   */\n      dup2\n        /* \"#utility.yul\":237:240   */\n      dup6\n        /* \"#utility.yul\":178:249   */\n      tag_75\n      jump\t// in\n    tag_74:\n        /* \"#utility.yul\":171:249   */\n      swap4\n      pop\n        /* \"#utility.yul\":258:310   */\n      tag_76\n        /* \"#utility.yul\":303:309   */\n      dup2\n        /* \"#utility.yul\":298:301   */\n      dup6\n        /* \"#utility.yul\":291:295   */\n      0x20\n        /* \"#utility.yul\":284:289   */\n      dup7\n        /* \"#utility.yul\":280:296   */\n      add\n        /* \"#utility.yul\":258:310   */\n      tag_77\n      jump\t// in\n    tag_76:\n        /* \"#utility.yul\":335:364   */\n      tag_78\n        /* \"#utility.yul\":357:363   */\n      dup2\n        /* \"#utility.yul\":335:364   */\n      tag_79\n      jump\t// in\n    tag_78:\n        /* \"#utility.yul\":330:333   */\n      dup5\n        /* \"#utility.yul\":326:365   */\n      add\n        /* \"#utility.yul\":319:365   */\n      swap2\n      pop\n        /* \"#utility.yul\":99:371   */\n      pop\n      swap3\n      swap2\n      pop\n      pop\n      jump\t// out\n        /* \"#utility.yul\":377:743   */\n    tag_80:\n        /* \"#utility.yul\":519:522   */\n      0x00\n        /* \"#utility.yul\":540:607   */\n      tag_82\n        /* \"#utility.yul\":604:606   */\n      0x15\n        /* \"#utility.yul\":599:602   */\n      dup4\n        /* \"#utility.yul\":540:607   */\n      tag_75\n      jump\t// in\n    tag_82:\n        /* \"#utility.yul\":533:607   */\n      swap2\n      pop\n        /* \"#utility.yul\":616:709   */\n      tag_83\n        /* \"#utility.yul\":705:708   */\n      dup3\n        /* \"#utility.yul\":616:709   */\n      tag_84\n      jump\t// in\n    tag_83:\n        /* \"#utility.yul\":734:736   */\n      0x20\n        /* \"#utility.yul\":729:732   */\n      dup3\n        /* \"#utility.yul\":725:737   */\n      add\n        /* \"#utility.yul\":718:737   */\n      swap1\n      pop\n        /* \"#utility.yul\":523:743   */\n      swap2\n      swap1\n      pop\n      jump\t// out\n        /* \"#utility.yul\":749:1115   */\n    tag_85:\n        /* \"#utility.yul\":891:894   */\n      0x00\n        /* \"#utility.yul\":912:979   */\n      tag_87\n        /* \"#utility.yul\":976:978   */\n      0x0d\n        /* \"#utility.yul\":971:974   */\n      dup4\n        /* \"#utility.yul\":912:979   */\n      tag_75\n      jump\t// in\n    tag_87:\n        /* \"#utility.yul\":905:979   */\n      swap2\n      pop\n        /* \"#utility.yul\":988:1081   */\n      tag_88\n        /* \"#utility.yul\":1077:1080   */\n      dup3\n        /* \"#utility.yul\":988:1081   */\n      tag_89\n      jump\t// in\n    tag_88:\n        /* \"#utility.yul\":1106:1108   */\n      0x20\n        /* \"#utility.yul\":1101:1104   */\n      dup3\n        /* \"#utility.yul\":1097:1109   */\n      add\n        /* \"#utility.yul\":1090:1109   */\n      swap1\n      pop\n        /* \"#utility.yul\":895:1115   */\n      swap2\n      swap1\n      pop\n      jump\t// out\n        /* \"#utility.yul\":1121:1239   */\n    tag_90:\n        /* \"#utility.yul\":1208:1232   */\n      tag_92\n        /* \"#utility.yul\":1226:1231   */\n      dup2\n        /* \"#utility.yul\":1208:1232   */\n      tag_93\n      jump\t// in\n    tag_92:\n        /* \"#utility.yul\":1203:1206   */\n      dup3\n        /* \"#utility.yul\":1196:1233   */\n      mstore\n        /* \"#utility.yul\":1186:1239   */\n      pop\n      pop\n      jump\t// out\n        /* \"#utility.yul\":1245:1558   */\n    tag_21:\n        /* \"#utility.yul\":1358:1362   */\n      0x00\n        /* \"#utility.yul\":1396:1398   */\n      0x20\n        /* \"#utility.yul\":1385:1394   */\n      dup3\n        /* \"#utility.yul\":1381:1399   */\n      add\n        /* \"#utility.yul\":1373:1399   */\n      swap1\n      pop\n        /* \"#utility.yul\":1445:1454   */\n      dup2\n        /* \"#utility.yul\":1439:1443   */\n      dup2\n        /* \"#utility.yul\":1435:1455   */\n      sub\n        /* \"#utility.yul\":1431:1432   */\n      0x00\n        /* \"#utility.yul\":1420:1429   */\n      dup4\n        /* \"#utility.yul\":1416:1433   */\n      add\n        /* \"#utility.yul\":1409:1456   */\n      mstore\n        /* \"#utility.yul\":1473:1551   */\n      tag_95\n        /* \"#utility.yul\":1546:1550   */\n      dup2\n        /* \"#utility.yul\":1537:1543   */\n      dup5\n        /* \"#utility.yul\":1473:1551   */\n      tag_70\n      jump\t// in\n    tag_95:\n        /* \"#utility.yul\":1465:1551   */\n      swap1\n      pop\n        /* \"#utility.yul\":1363:1558   */\n      swap3\n      swap2\n      pop\n      pop\n      jump\t// out\n        /* \"#utility.yul\":1564:1983   */\n    tag_53:\n        /* \"#utility.yul\":1730:1734   */\n      0x00\n        /* \"#utility.yul\":1768:1770   */\n      0x20\n        /* \"#utility.yul\":1757:1766   */\n      dup3\n        /* \"#utility.yul\":1753:1771   */\n      add\n        /* \"#utility.yul\":1745:1771   */\n      swap1\n      pop\n        /* \"#utility.yul\":1817:1826   */\n      dup2\n        /* \"#utility.yul\":1811:1815   */\n      dup2\n        /* \"#utility.yul\":1807:1827   */\n      sub\n        /* \"#utility.yul\":1803:1804   */\n      0x00\n        /* \"#utility.yul\":1792:1801   */\n      dup4\n        /* \"#utility.yul\":1788:1805   */\n      add\n        /* \"#utility.yul\":1781:1828   */\n      mstore\n        /* \"#utility.yul\":1845:1976   */\n      tag_97\n        /* \"#utility.yul\":1971:1975   */\n      dup2\n        /* \"#utility.yul\":1845:1976   */\n      tag_80\n      jump\t// in\n    tag_97:\n        /* \"#utility.yul\":1837:1976   */\n      swap1\n      pop\n        /* \"#utility.yul\":1735:1983   */\n      swap2\n      swap1\n      pop\n      jump\t// out\n        /* \"#utility.yul\":1989:2408   */\n    tag_39:\n        /* \"#utility.yul\":2155:2159   */\n      0x00\n        /* \"#utility.yul\":2193:2195   */\n      0x20\n        /* \"#utility.yul\":2182:2191   */\n      dup3\n        /* \"#utility.yul\":2178:2196   */\n      add\n        /* \"#utility.yul\":2170:2196   */\n      swap1\n      pop\n        /* \"#utility.yul\":2242:2251   */\n      dup2\n        /* \"#utility.yul\":2236:2240   */\n      dup2\n        /* \"#utility.yul\":2232:2252   */\n      sub\n        /* \"#utility.yul\":2228:2229   */\n      0x00\n        /* \"#utility.yul\":2217:2226   */\n      dup4\n        /* \"#utility.yul\":2213:2230   */\n      add\n        /* \"#utility.yul\":2206:2253   */\n      mstore\n        /* \"#utility.yul\":2270:2401   */\n      tag_99\n        /* \"#utility.yul\":2396:2400   */\n      dup2\n        /* \"#utility.yul\":2270:2401   */\n      tag_85\n      jump\t// in\n    tag_99:\n        /* \"#utility.yul\":2262:2401   */\n      swap1\n      pop\n        /* \"#utility.yul\":2160:2408   */\n      swap2\n      swap1\n      pop\n      jump\t// out\n        /* \"#utility.yul\":2414:2636   */\n    tag_17:\n        /* \"#utility.yul\":2507:2511   */\n      0x00\n        /* \"#utility.yul\":2545:2547   */\n      0x20\n        /* \"#utility.yul\":2534:2543   */\n      dup3\n        /* \"#utility.yul\":2530:2548   */\n      add\n        /* \"#utility.yul\":2522:2548   */\n      swap1\n      pop\n        /* \"#utility.yul\":2558:2629   */\n      tag_101\n        /* \"#utility.yul\":2626:2627   */\n      0x00\n        /* \"#utility.yul\":2615:2624   */\n      dup4\n        /* \"#utility.yul\":2611:2628   */\n      add\n        /* \"#utility.yul\":2602:2608   */\n      dup5\n        /* \"#utility.yul\":2558:2629   */\n      tag_90\n      jump\t// in\n    tag_101:\n        /* \"#utility.yul\":2512:2636   */\n      swap3\n      swap2\n      pop\n      pop\n      jump\t// out\n        /* \"#utility.yul\":2642:2741   */\n    tag_73:\n        /* \"#utility.yul\":2694:2700   */\n      0x00\n        /* \"#utility.yul\":2728:2733   */\n      dup2\n        /* \"#utility.yul\":2722:2734   */\n      mload\n        /* \"#utility.yul\":2712:2734   */\n      swap1\n      pop\n        /* \"#utility.yul\":2701:2741   */\n      swap2\n      swap1\n      pop\n      jump\t// out\n        /* \"#utility.yul\":2747:2916   */\n    tag_75:\n        /* \"#utility.yul\":2831:2842   */\n      0x00\n        /* \"#utility.yul\":2865:2871   */\n      dup3\n        /* \"#utility.yul\":2860:2863   */\n      dup3\n        /* \"#utility.yul\":2853:2872   */\n      mstore\n        /* \"#utility.yul\":2905:2909   */\n      0x20\n        /* \"#utility.yul\":2900:2903   */\n      dup3\n        /* \"#utility.yul\":2896:2910   */\n      add\n        /* \"#utility.yul\":2881:2910   */\n      swap1\n      pop\n        /* \"#utility.yul\":2843:2916   */\n      swap3\n      swap2\n      pop\n      pop\n      jump\t// out\n        /* \"#utility.yul\":2922:2999   */\n    tag_93:\n        /* \"#utility.yul\":2959:2966   */\n      0x00\n        /* \"#utility.yul\":2988:2993   */\n      dup2\n        /* \"#utility.yul\":2977:2993   */\n      swap1\n      pop\n        /* \"#utility.yul\":2967:2999   */\n      swap2\n      swap1\n      pop\n      jump\t// out\n        /* \"#utility.yul\":3005:3312   */\n    tag_77:\n        /* \"#utility.yul\":3073:3074   */\n      0x00\n        /* \"#utility.yul\":3083:3196   */\n    tag_106:\n        /* \"#utility.yul\":3097:3103   */\n      dup4\n        /* \"#utility.yul\":3094:3095   */\n      dup2\n        /* \"#utility.yul\":3091:3104   */\n      lt\n        /* \"#utility.yul\":3083:3196   */\n      iszero\n      tag_108\n      jumpi\n        /* \"#utility.yul\":3182:3183   */\n      dup1\n        /* \"#utility.yul\":3177:3180   */\n      dup3\n        /* \"#utility.yul\":3173:3184   */\n      add\n        /* \"#utility.yul\":3167:3185   */\n      mload\n        /* \"#utility.yul\":3163:3164   */\n      dup2\n        /* \"#utility.yul\":3158:3161   */\n      dup5\n        /* \"#utility.yul\":3154:3165   */\n      add\n        /* \"#utility.yul\":3147:3186   */\n      mstore\n        /* \"#utility.yul\":3119:3121   */\n      0x20\n        /* \"#utility.yul\":3116:3117   */\n      dup2\n        /* \"#utility.yul\":3112:3122   */\n      add\n        /* \"#utility.yul\":3107:3122   */\n      swap1\n      pop\n        /* \"#utility.yul\":3083:3196   */\n      jump(tag_106)\n    tag_108:\n        /* \"#utility.yul\":3214:3220   */\n      dup4\n        /* \"#utility.yul\":3211:3212   */\n      dup2\n        /* \"#utility.yul\":3208:3221   */\n      gt\n        /* \"#utility.yul\":3205:3207   */\n      iszero\n      tag_109\n      jumpi\n        /* \"#utility.yul\":3294:3295   */\n      0x00\n        /* \"#utility.yul\":3285:3291   */\n      dup5\n        /* \"#utility.yul\":3280:3283   */\n      dup5\n        /* \"#utility.yul\":3276:3292   */\n      add\n        /* \"#utility.yul\":3269:3296   */\n      mstore\n        /* \"#utility.yul\":3205:3207   */\n    tag_109:\n        /* \"#utility.yul\":3054:3312   */\n      pop\n      pop\n      pop\n      pop\n      jump\t// out\n        /* \"#utility.yul\":3318:3638   */\n    tag_44:\n        /* \"#utility.yul\":3362:3368   */\n      0x00\n        /* \"#utility.yul\":3399:3400   */\n      0x02\n        /* \"#utility.yul\":3393:3397   */\n      dup3\n        /* \"#utility.yul\":3389:3401   */\n      div\n        /* \"#utility.yul\":3379:3401   */\n      swap1\n      pop\n        /* \"#utility.yul\":3446:3447   */\n      0x01\n        /* \"#utility.yul\":3440:3444   */\n      dup3\n        /* \"#utility.yul\":3436:3448   */\n      and\n        /* \"#utility.yul\":3467:3485   */\n      dup1\n        /* \"#utility.yul\":3457:3459   */\n      tag_111\n      jumpi\n        /* \"#utility.yul\":3523:3527   */\n      0x7f\n        /* \"#utility.yul\":3515:3521   */\n      dup3\n        /* \"#utility.yul\":3511:3528   */\n      and\n        /* \"#utility.yul\":3501:3528   */\n      swap2\n      pop\n        /* \"#utility.yul\":3457:3459   */\n    tag_111:\n        /* \"#utility.yul\":3585:3587   */\n      0x20\n        /* \"#utility.yul\":3577:3583   */\n      dup3\n        /* \"#utility.yul\":3574:3588   */\n      lt\n        /* \"#utility.yul\":3554:3572   */\n      dup2\n        /* \"#utility.yul\":3551:3589   */\n      eq\n        /* \"#utility.yul\":3548:3550   */\n      iszero\n      tag_112\n      jumpi\n        /* \"#utility.yul\":3604:3622   */\n      tag_113\n      tag_114\n      jump\t// in\n    tag_113:\n        /* \"#utility.yul\":3548:3550   */\n    tag_112:\n        /* \"#utility.yul\":3369:3638   */\n      pop\n      swap2\n      swap1\n      pop\n      jump\t// out\n        /* \"#utility.yul\":3644:3824   */\n    tag_114:\n        /* \"#utility.yul\":3692:3769   */\n      0x4e487b7100000000000000000000000000000000000000000000000000000000\n        /* \"#utility.yul\":3689:3690   */\n      0x00\n        /* \"#utility.yul\":3682:3770   */\n      mstore\n        /* \"#utility.yul\":3789:3793   */\n      0x22\n        /* \"#utility.yul\":3786:3787   */\n      0x04\n        /* \"#utility.yul\":3779:3794   */\n      mstore\n        /* \"#utility.yul\":3813:3817   */\n      0x24\n        /* \"#utility.yul\":3810:3811   */\n      0x00\n        /* \"#utility.yul\":3803:3818   */\n      revert\n        /* \"#utility.yul\":3830:3932   */\n    tag_79:\n        /* \"#utility.yul\":3871:3877   */\n      0x00\n        /* \"#utility.yul\":3922:3924   */\n      0x1f\n        /* \"#utility.yul\":3918:3925   */\n      not\n        /* \"#utility.yul\":3913:3915   */\n      0x1f\n        /* \"#utility.yul\":3906:3911   */\n      dup4\n        /* \"#utility.yul\":3902:3916   */\n      add\n        /* \"#utility.yul\":3898:3926   */\n      and\n        /* \"#utility.yul\":3888:3926   */\n      swap1\n      pop\n        /* \"#utility.yul\":3878:3932   */\n      swap2\n      swap1\n      pop\n      jump\t// out\n        /* \"#utility.yul\":3938:4109   */\n    tag_84:\n        /* \"#utility.yul\":4078:4101   */\n      0x4e6f206861732063616c63756c61646f206269656e0000000000000000000000\n        /* \"#utility.yul\":4074:4075   */\n      0x00\n        /* \"#utility.yul\":4066:4072   */\n      dup3\n        /* \"#utility.yul\":4062:4076   */\n      add\n        /* \"#utility.yul\":4055:4102   */\n      mstore\n        /* \"#utility.yul\":4044:4109   */\n      pop\n      jump\t// out\n        /* \"#utility.yul\":4115:4278   */\n    tag_89:\n        /* \"#utility.yul\":4255:4270   */\n      0x44656d61736961646f2067617300000000000000000000000000000000000000\n        /* \"#utility.yul\":4251:4252   */\n      0x00\n        /* \"#utility.yul\":4243:4249   */\n      dup3\n        /* \"#utility.yul\":4239:4253   */\n      add\n        /* \"#utility.yul\":4232:4271   */\n      mstore\n        /* \"#utility.yul\":4221:4278   */\n      pop\n      jump\t// out\n\n    auxdata: 0xa26469706673582212202909017b5fd7d6448ecee260d1b59f2e7ccaaa66c1fbea57f99e76a824e8c9e864736f6c63430008040033\n}\n",
				"bytecode": {
					"linkReferences": {},
					"object": "60806040523480156200001157600080fd5b50604051620009de380380620009de833981810160405281019062000037919062000179565b80600590805190602001906200004f92919062000057565b50506200032e565b828054620000659062000253565b90600052602060002090601f016020900481019282620000895760008555620000d5565b82601f10620000a457805160ff1916838001178555620000d5565b82800160010185558215620000d5579182015b82811115620000d4578251825591602001919060010190620000b7565b5b509050620000e49190620000e8565b5090565b5b8082111562000103576000816000905550600101620000e9565b5090565b60006200011e6200011884620001e7565b620001be565b9050828152602081018484840111156200013757600080fd5b620001448482856200021d565b509392505050565b600082601f8301126200015e57600080fd5b81516200017084826020860162000107565b91505092915050565b6000602082840312156200018c57600080fd5b600082015167ffffffffffffffff811115620001a757600080fd5b620001b5848285016200014c565b91505092915050565b6000620001ca620001dd565b9050620001d8828262000289565b919050565b6000604051905090565b600067ffffffffffffffff821115620002055762000204620002ee565b5b62000210826200031d565b9050602081019050919050565b60005b838110156200023d57808201518184015260208101905062000220565b838111156200024d576000848401525b50505050565b600060028204905060018216806200026c57607f821691505b60208210811415620002835762000282620002bf565b5b50919050565b62000294826200031d565b810181811067ffffffffffffffff82111715620002b657620002b5620002ee565b5b80604052505050565b7f4e487b7100000000000000000000000000000000000000000000000000000000600052602260045260246000fd5b7f4e487b7100000000000000000000000000000000000000000000000000000000600052604160045260246000fd5b6000601f19601f8301169050919050565b6106a0806200033e6000396000f3fe608060405234801561001057600080fd5b50600436106100885760003560e01c80637d641dba1161005b5780637d641dba146100f1578063b95f96121461010f578063c6b422da14610119578063f96339301461013757610088565b80630b6e77011461008d57806330cb47fa146100975780634eeb44b3146100b55780634ff67542146100d3575b600080fd5b610095610155565b005b61009f610205565b6040516100ac9190610532565b60405180910390f35b6100bd61020b565b6040516100ca91906104d0565b60405180910390f35b6100db610299565b6040516100e89190610532565b60405180910390f35b6100f961029f565b6040516101069190610532565b60405180910390f35b6101176102a5565b005b6101216102c2565b60405161012e9190610532565b60405180910390f35b61013f6102c8565b60405161014c91906104d0565b60405180910390f35b5a6000819055506207a1205a106101a1576040517f08c379a000000000000000000000000000000000000000000000000000000000815260040161019890610512565b60405180910390fd5b6040518060400160405280600581526020017f206d6f6c61000000000000000000000000000000000000000000000000000000815250600490805190602001906101ec92919061039f565b505a6001819055506101fc6102a5565b5a600381905550565b60025481565b60048054610218906105a6565b80601f0160208091040260200160405190810160405280929190818152602001828054610244906105a6565b80156102915780601f1061026657610100808354040283529160200191610291565b820191906000526020600020905b81548152906001019060200180831161027457829003601f168201915b505050505081565b60015481565b60035481565b6001600660006101000a81548160ff021916908315150217905550565b60005481565b606060646003541461030f576040517f08c379a0000000000000000000000000000000000000000000000000000000008152600401610306906104f2565b60405180910390fd5b6005805461031c906105a6565b80601f0160208091040260200160405190810160405280929190818152602001828054610348906105a6565b80156103955780601f1061036a57610100808354040283529160200191610395565b820191906000526020600020905b81548152906001019060200180831161037857829003601f168201915b5050505050905090565b8280546103ab906105a6565b90600052602060002090601f0160209004810192826103cd5760008555610414565b82601f106103e657805160ff1916838001178555610414565b82800160010185558215610414579182015b828111156104135782518255916020019190600101906103f8565b5b5090506104219190610425565b5090565b5b8082111561043e576000816000905550600101610426565b5090565b600061044d8261054d565b6104578185610558565b9350610467818560208601610573565b61047081610607565b840191505092915050565b6000610488601583610558565b915061049382610618565b602082019050919050565b60006104ab600d83610558565b91506104b682610641565b602082019050919050565b6104ca81610569565b82525050565b600060208201905081810360008301526104ea8184610442565b905092915050565b6000602082019050818103600083015261050b8161047b565b9050919050565b6000602082019050818103600083015261052b8161049e565b9050919050565b600060208201905061054760008301846104c1565b92915050565b600081519050919050565b600082825260208201905092915050565b6000819050919050565b60005b83811015610591578082015181840152602081019050610576565b838111156105a0576000848401525b50505050565b600060028204905060018216806105be57607f821691505b602082108114156105d2576105d16105d8565b5b50919050565b7f4e487b7100000000000000000000000000000000000000000000000000000000600052602260045260246000fd5b6000601f19601f8301169050919050565b7f4e6f206861732063616c63756c61646f206269656e0000000000000000000000600082015250565b7f44656d61736961646f206761730000000000000000000000000000000000000060008201525056fea26469706673582212202909017b5fd7d6448ecee260d1b59f2e7ccaaa66c1fbea57f99e76a824e8c9e864736f6c63430008040033",
					"opcodes": "PUSH1 0x80 PUSH1 0x40 MSTORE CALLVALUE DUP1 ISZERO PUSH3 0x11 JUMPI PUSH1 0x0 DUP1 REVERT JUMPDEST POP PUSH1 0x40 MLOAD PUSH3 0x9DE CODESIZE SUB DUP1 PUSH3 0x9DE DUP4 CODECOPY DUP2 DUP2 ADD PUSH1 0x40 MSTORE DUP2 ADD SWAP1 PUSH3 0x37 SWAP2 SWAP1 PUSH3 0x179 JUMP JUMPDEST DUP1 PUSH1 0x5 SWAP1 DUP1 MLOAD SWAP1 PUSH1 0x20 ADD SWAP1 PUSH3 0x4F SWAP3 SWAP2 SWAP1 PUSH3 0x57 JUMP JUMPDEST POP POP PUSH3 0x32E JUMP JUMPDEST DUP3 DUP1 SLOAD PUSH3 0x65 SWAP1 PUSH3 0x253 JUMP JUMPDEST SWAP1 PUSH1 0x0 MSTORE PUSH1 0x20 PUSH1 0x0 KECCAK256 SWAP1 PUSH1 0x1F ADD PUSH1 0x20 SWAP1 DIV DUP2 ADD SWAP3 DUP3 PUSH3 0x89 JUMPI PUSH1 0x0 DUP6 SSTORE PUSH3 0xD5 JUMP JUMPDEST DUP3 PUSH1 0x1F LT PUSH3 0xA4 JUMPI DUP1 MLOAD PUSH1 0xFF NOT AND DUP4 DUP1 ADD OR DUP6 SSTORE PUSH3 0xD5 JUMP JUMPDEST DUP3 DUP1 ADD PUSH1 0x1 ADD DUP6 SSTORE DUP3 ISZERO PUSH3 0xD5 JUMPI SWAP2 DUP3 ADD JUMPDEST DUP3 DUP2 GT ISZERO PUSH3 0xD4 JUMPI DUP3 MLOAD DUP3 SSTORE SWAP2 PUSH1 0x20 ADD SWAP2 SWAP1 PUSH1 0x1 ADD SWAP1 PUSH3 0xB7 JUMP JUMPDEST JUMPDEST POP SWAP1 POP PUSH3 0xE4 SWAP2 SWAP1 PUSH3 0xE8 JUMP JUMPDEST POP SWAP1 JUMP JUMPDEST JUMPDEST DUP1 DUP3 GT ISZERO PUSH3 0x103 JUMPI PUSH1 0x0 DUP2 PUSH1 0x0 SWAP1 SSTORE POP PUSH1 0x1 ADD PUSH3 0xE9 JUMP JUMPDEST POP SWAP1 JUMP JUMPDEST PUSH1 0x0 PUSH3 0x11E PUSH3 0x118 DUP5 PUSH3 0x1E7 JUMP JUMPDEST PUSH3 0x1BE JUMP JUMPDEST SWAP1 POP DUP3 DUP2 MSTORE PUSH1 0x20 DUP2 ADD DUP5 DUP5 DUP5 ADD GT ISZERO PUSH3 0x137 JUMPI PUSH1 0x0 DUP1 REVERT JUMPDEST PUSH3 0x144 DUP5 DUP3 DUP6 PUSH3 0x21D JUMP JUMPDEST POP SWAP4 SWAP3 POP POP POP JUMP JUMPDEST PUSH1 0x0 DUP3 PUSH1 0x1F DUP4 ADD SLT PUSH3 0x15E JUMPI PUSH1 0x0 DUP1 REVERT JUMPDEST DUP2 MLOAD PUSH3 0x170 DUP5 DUP3 PUSH1 0x20 DUP7 ADD PUSH3 0x107 JUMP JUMPDEST SWAP2 POP POP SWAP3 SWAP2 POP POP JUMP JUMPDEST PUSH1 0x0 PUSH1 0x20 DUP3 DUP5 SUB SLT ISZERO PUSH3 0x18C JUMPI PUSH1 0x0 DUP1 REVERT JUMPDEST PUSH1 0x0 DUP3 ADD MLOAD PUSH8 0xFFFFFFFFFFFFFFFF DUP2 GT ISZERO PUSH3 0x1A7 JUMPI PUSH1 0x0 DUP1 REVERT JUMPDEST PUSH3 0x1B5 DUP5 DUP3 DUP6 ADD PUSH3 0x14C JUMP JUMPDEST SWAP2 POP POP SWAP3 SWAP2 POP POP JUMP JUMPDEST PUSH1 0x0 PUSH3 0x1CA PUSH3 0x1DD JUMP JUMPDEST SWAP1 POP PUSH3 0x1D8 DUP3 DUP3 PUSH3 0x289 JUMP JUMPDEST SWAP2 SWAP1 POP JUMP JUMPDEST PUSH1 0x0 PUSH1 0x40 MLOAD SWAP1 POP SWAP1 JUMP JUMPDEST PUSH1 0x0 PUSH8 0xFFFFFFFFFFFFFFFF DUP3 GT ISZERO PUSH3 0x205 JUMPI PUSH3 0x204 PUSH3 0x2EE JUMP JUMPDEST JUMPDEST PUSH3 0x210 DUP3 PUSH3 0x31D JUMP JUMPDEST SWAP1 POP PUSH1 0x20 DUP2 ADD SWAP1 POP SWAP2 SWAP1 POP JUMP JUMPDEST PUSH1 0x0 JUMPDEST DUP4 DUP2 LT ISZERO PUSH3 0x23D JUMPI DUP1 DUP3 ADD MLOAD DUP2 DUP5 ADD MSTORE PUSH1 0x20 DUP2 ADD SWAP1 POP PUSH3 0x220 JUMP JUMPDEST DUP4 DUP2 GT ISZERO PUSH3 0x24D JUMPI PUSH1 0x0 DUP5 DUP5 ADD MSTORE JUMPDEST POP POP POP POP JUMP JUMPDEST PUSH1 0x0 PUSH1 0x2 DUP3 DIV SWAP1 POP PUSH1 0x1 DUP3 AND DUP1 PUSH3 0x26C JUMPI PUSH1 0x7F DUP3 AND SWAP2 POP JUMPDEST PUSH1 0x20 DUP3 LT DUP2 EQ ISZERO PUSH3 0x283 JUMPI PUSH3 0x282 PUSH3 0x2BF JUMP JUMPDEST JUMPDEST POP SWAP2 SWAP1 POP JUMP JUMPDEST PUSH3 0x294 DUP3 PUSH3 0x31D JUMP JUMPDEST DUP2 ADD DUP2 DUP2 LT PUSH8 0xFFFFFFFFFFFFFFFF DUP3 GT OR ISZERO PUSH3 0x2B6 JUMPI PUSH3 0x2B5 PUSH3 0x2EE JUMP JUMPDEST JUMPDEST DUP1 PUSH1 0x40 MSTORE POP POP POP JUMP JUMPDEST PUSH32 0x4E487B7100000000000000000000000000000000000000000000000000000000 PUSH1 0x0 MSTORE PUSH1 0x22 PUSH1 0x4 MSTORE PUSH1 0x24 PUSH1 0x0 REVERT JUMPDEST PUSH32 0x4E487B7100000000000000000000000000000000000000000000000000000000 PUSH1 0x0 MSTORE PUSH1 0x41 PUSH1 0x4 MSTORE PUSH1 0x24 PUSH1 0x0 REVERT JUMPDEST PUSH1 0x0 PUSH1 0x1F NOT PUSH1 0x1F DUP4 ADD AND SWAP1 POP SWAP2 SWAP1 POP JUMP JUMPDEST PUSH2 0x6A0 DUP1 PUSH3 0x33E PUSH1 0x0 CODECOPY PUSH1 0x0 RETURN INVALID PUSH1 0x80 PUSH1 0x40 MSTORE CALLVALUE DUP1 ISZERO PUSH2 0x10 JUMPI PUSH1 0x0 DUP1 REVERT JUMPDEST POP PUSH1 0x4 CALLDATASIZE LT PUSH2 0x88 JUMPI PUSH1 0x0 CALLDATALOAD PUSH1 0xE0 SHR DUP1 PUSH4 0x7D641DBA GT PUSH2 0x5B JUMPI DUP1 PUSH4 0x7D641DBA EQ PUSH2 0xF1 JUMPI DUP1 PUSH4 0xB95F9612 EQ PUSH2 0x10F JUMPI DUP1 PUSH4 0xC6B422DA EQ PUSH2 0x119 JUMPI DUP1 PUSH4 0xF9633930 EQ PUSH2 0x137 JUMPI PUSH2 0x88 JUMP JUMPDEST DUP1 PUSH4 0xB6E7701 EQ PUSH2 0x8D JUMPI DUP1 PUSH4 0x30CB47FA EQ PUSH2 0x97 JUMPI DUP1 PUSH4 0x4EEB44B3 EQ PUSH2 0xB5 JUMPI DUP1 PUSH4 0x4FF67542 EQ PUSH2 0xD3 JUMPI JUMPDEST PUSH1 0x0 DUP1 REVERT JUMPDEST PUSH2 0x95 PUSH2 0x155 JUMP JUMPDEST STOP JUMPDEST PUSH2 0x9F PUSH2 0x205 JUMP JUMPDEST PUSH1 0x40 MLOAD PUSH2 0xAC SWAP2 SWAP1 PUSH2 0x532 JUMP JUMPDEST PUSH1 0x40 MLOAD DUP1 SWAP2 SUB SWAP1 RETURN JUMPDEST PUSH2 0xBD PUSH2 0x20B JUMP JUMPDEST PUSH1 0x40 MLOAD PUSH2 0xCA SWAP2 SWAP1 PUSH2 0x4D0 JUMP JUMPDEST PUSH1 0x40 MLOAD DUP1 SWAP2 SUB SWAP1 RETURN JUMPDEST PUSH2 0xDB PUSH2 0x299 JUMP JUMPDEST PUSH1 0x40 MLOAD PUSH2 0xE8 SWAP2 SWAP1 PUSH2 0x532 JUMP JUMPDEST PUSH1 0x40 MLOAD DUP1 SWAP2 SUB SWAP1 RETURN JUMPDEST PUSH2 0xF9 PUSH2 0x29F JUMP JUMPDEST PUSH1 0x40 MLOAD PUSH2 0x106 SWAP2 SWAP1 PUSH2 0x532 JUMP JUMPDEST PUSH1 0x40 MLOAD DUP1 SWAP2 SUB SWAP1 RETURN JUMPDEST PUSH2 0x117 PUSH2 0x2A5 JUMP JUMPDEST STOP JUMPDEST PUSH2 0x121 PUSH2 0x2C2 JUMP JUMPDEST PUSH1 0x40 MLOAD PUSH2 0x12E SWAP2 SWAP1 PUSH2 0x532 JUMP JUMPDEST PUSH1 0x40 MLOAD DUP1 SWAP2 SUB SWAP1 RETURN JUMPDEST PUSH2 0x13F PUSH2 0x2C8 JUMP JUMPDEST PUSH1 0x40 MLOAD PUSH2 0x14C SWAP2 SWAP1 PUSH2 0x4D0 JUMP JUMPDEST PUSH1 0x40 MLOAD DUP1 SWAP2 SUB SWAP1 RETURN JUMPDEST GAS PUSH1 0x0 DUP2 SWAP1 SSTORE POP PUSH3 0x7A120 GAS LT PUSH2 0x1A1 JUMPI PUSH1 0x40 MLOAD PUSH32 0x8C379A000000000000000000000000000000000000000000000000000000000 DUP2 MSTORE PUSH1 0x4 ADD PUSH2 0x198 SWAP1 PUSH2 0x512 JUMP JUMPDEST PUSH1 0x40 MLOAD DUP1 SWAP2 SUB SWAP1 REVERT JUMPDEST PUSH1 0x40 MLOAD DUP1 PUSH1 0x40 ADD PUSH1 0x40 MSTORE DUP1 PUSH1 0x5 DUP2 MSTORE PUSH1 0x20 ADD PUSH32 0x206D6F6C61000000000000000000000000000000000000000000000000000000 DUP2 MSTORE POP PUSH1 0x4 SWAP1 DUP1 MLOAD SWAP1 PUSH1 0x20 ADD SWAP1 PUSH2 0x1EC SWAP3 SWAP2 SWAP1 PUSH2 0x39F JUMP JUMPDEST POP GAS PUSH1 0x1 DUP2 SWAP1 SSTORE POP PUSH2 0x1FC PUSH2 0x2A5 JUMP JUMPDEST GAS PUSH1 0x3 DUP2 SWAP1 SSTORE POP JUMP JUMPDEST PUSH1 0x2 SLOAD DUP2 JUMP JUMPDEST PUSH1 0x4 DUP1 SLOAD PUSH2 0x218 SWAP1 PUSH2 0x5A6 JUMP JUMPDEST DUP1 PUSH1 0x1F ADD PUSH1 0x20 DUP1 SWAP2 DIV MUL PUSH1 0x20 ADD PUSH1 0x40 MLOAD SWAP1 DUP2 ADD PUSH1 0x40 MSTORE DUP1 SWAP3 SWAP2 SWAP1 DUP2 DUP2 MSTORE PUSH1 0x20 ADD DUP3 DUP1 SLOAD PUSH2 0x244 SWAP1 PUSH2 0x5A6 JUMP JUMPDEST DUP1 ISZERO PUSH2 0x291 JUMPI DUP1 PUSH1 0x1F LT PUSH2 0x266 JUMPI PUSH2 0x100 DUP1 DUP4 SLOAD DIV MUL DUP4 MSTORE SWAP2 PUSH1 0x20 ADD SWAP2 PUSH2 0x291 JUMP JUMPDEST DUP3 ADD SWAP2 SWAP1 PUSH1 0x0 MSTORE PUSH1 0x20 PUSH1 0x0 KECCAK256 SWAP1 JUMPDEST DUP2 SLOAD DUP2 MSTORE SWAP1 PUSH1 0x1 ADD SWAP1 PUSH1 0x20 ADD DUP1 DUP4 GT PUSH2 0x274 JUMPI DUP3 SWAP1 SUB PUSH1 0x1F AND DUP3 ADD SWAP2 JUMPDEST POP POP POP POP POP DUP2 JUMP JUMPDEST PUSH1 0x1 SLOAD DUP2 JUMP JUMPDEST PUSH1 0x3 SLOAD DUP2 JUMP JUMPDEST PUSH1 0x1 PUSH1 0x6 PUSH1 0x0 PUSH2 0x100 EXP DUP2 SLOAD DUP2 PUSH1 0xFF MUL NOT AND SWAP1 DUP4 ISZERO ISZERO MUL OR SWAP1 SSTORE POP JUMP JUMPDEST PUSH1 0x0 SLOAD DUP2 JUMP JUMPDEST PUSH1 0x60 PUSH1 0x64 PUSH1 0x3 SLOAD EQ PUSH2 0x30F JUMPI PUSH1 0x40 MLOAD PUSH32 0x8C379A000000000000000000000000000000000000000000000000000000000 DUP2 MSTORE PUSH1 0x4 ADD PUSH2 0x306 SWAP1 PUSH2 0x4F2 JUMP JUMPDEST PUSH1 0x40 MLOAD DUP1 SWAP2 SUB SWAP1 REVERT JUMPDEST PUSH1 0x5 DUP1 SLOAD PUSH2 0x31C SWAP1 PUSH2 0x5A6 JUMP JUMPDEST DUP1 PUSH1 0x1F ADD PUSH1 0x20 DUP1 SWAP2 DIV MUL PUSH1 0x20 ADD PUSH1 0x40 MLOAD SWAP1 DUP2 ADD PUSH1 0x40 MSTORE DUP1 SWAP3 SWAP2 SWAP1 DUP2 DUP2 MSTORE PUSH1 0x20 ADD DUP3 DUP1 SLOAD PUSH2 0x348 SWAP1 PUSH2 0x5A6 JUMP JUMPDEST DUP1 ISZERO PUSH2 0x395 JUMPI DUP1 PUSH1 0x1F LT PUSH2 0x36A JUMPI PUSH2 0x100 DUP1 DUP4 SLOAD DIV MUL DUP4 MSTORE SWAP2 PUSH1 0x20 ADD SWAP2 PUSH2 0x395 JUMP JUMPDEST DUP3 ADD SWAP2 SWAP1 PUSH1 0x0 MSTORE PUSH1 0x20 PUSH1 0x0 KECCAK256 SWAP1 JUMPDEST DUP2 SLOAD DUP2 MSTORE SWAP1 PUSH1 0x1 ADD SWAP1 PUSH1 0x20 ADD DUP1 DUP4 GT PUSH2 0x378 JUMPI DUP3 SWAP1 SUB PUSH1 0x1F AND DUP3 ADD SWAP2 JUMPDEST POP POP POP POP POP SWAP1 POP SWAP1 JUMP JUMPDEST DUP3 DUP1 SLOAD PUSH2 0x3AB SWAP1 PUSH2 0x5A6 JUMP JUMPDEST SWAP1 PUSH1 0x0 MSTORE PUSH1 0x20 PUSH1 0x0 KECCAK256 SWAP1 PUSH1 0x1F ADD PUSH1 0x20 SWAP1 DIV DUP2 ADD SWAP3 DUP3 PUSH2 0x3CD JUMPI PUSH1 0x0 DUP6 SSTORE PUSH2 0x414 JUMP JUMPDEST DUP3 PUSH1 0x1F LT PUSH2 0x3E6 JUMPI DUP1 MLOAD PUSH1 0xFF NOT AND DUP4 DUP1 ADD OR DUP6 SSTORE PUSH2 0x414 JUMP JUMPDEST DUP3 DUP1 ADD PUSH1 0x1 ADD DUP6 SSTORE DUP3 ISZERO PUSH2 0x414 JUMPI SWAP2 DUP3 ADD JUMPDEST DUP3 DUP2 GT ISZERO PUSH2 0x413 JUMPI DUP3 MLOAD DUP3 SSTORE SWAP2 PUSH1 0x20 ADD SWAP2 SWAP1 PUSH1 0x1 ADD SWAP1 PUSH2 0x3F8 JUMP JUMPDEST JUMPDEST POP SWAP1 POP PUSH2 0x421 SWAP2 SWAP1 PUSH2 0x425 JUMP JUMPDEST POP SWAP1 JUMP JUMPDEST JUMPDEST DUP1 DUP3 GT ISZERO PUSH2 0x43E JUMPI PUSH1 0x0 DUP2 PUSH1 0x0 SWAP1 SSTORE POP PUSH1 0x1 ADD PUSH2 0x426 JUMP JUMPDEST POP SWAP1 JUMP JUMPDEST PUSH1 0x0 PUSH2 0x44D DUP3 PUSH2 0x54D JUMP JUMPDEST PUSH2 0x457 DUP2 DUP6 PUSH2 0x558 JUMP JUMPDEST SWAP4 POP PUSH2 0x467 DUP2 DUP6 PUSH1 0x20 DUP7 ADD PUSH2 0x573 JUMP JUMPDEST PUSH2 0x470 DUP2 PUSH2 0x607 JUMP JUMPDEST DUP5 ADD SWAP2 POP POP SWAP3 SWAP2 POP POP JUMP JUMPDEST PUSH1 0x0 PUSH2 0x488 PUSH1 0x15 DUP4 PUSH2 0x558 JUMP JUMPDEST SWAP2 POP PUSH2 0x493 DUP3 PUSH2 0x618 JUMP JUMPDEST PUSH1 0x20 DUP3 ADD SWAP1 POP SWAP2 SWAP1 POP JUMP JUMPDEST PUSH1 0x0 PUSH2 0x4AB PUSH1 0xD DUP4 PUSH2 0x558 JUMP JUMPDEST SWAP2 POP PUSH2 0x4B6 DUP3 PUSH2 0x641 JUMP JUMPDEST PUSH1 0x20 DUP3 ADD SWAP1 POP SWAP2 SWAP1 POP JUMP JUMPDEST PUSH2 0x4CA DUP2 PUSH2 0x569 JUMP JUMPDEST DUP3 MSTORE POP POP JUMP JUMPDEST PUSH1 0x0 PUSH1 0x20 DUP3 ADD SWAP1 POP DUP2 DUP2 SUB PUSH1 0x0 DUP4 ADD MSTORE PUSH2 0x4EA DUP2 DUP5 PUSH2 0x442 JUMP JUMPDEST SWAP1 POP SWAP3 SWAP2 POP POP JUMP JUMPDEST PUSH1 0x0 PUSH1 0x20 DUP3 ADD SWAP1 POP DUP2 DUP2 SUB PUSH1 0x0 DUP4 ADD MSTORE PUSH2 0x50B DUP2 PUSH2 0x47B JUMP JUMPDEST SWAP1 POP SWAP2 SWAP1 POP JUMP JUMPDEST PUSH1 0x0 PUSH1 0x20 DUP3 ADD SWAP1 POP DUP2 DUP2 SUB PUSH1 0x0 DUP4 ADD MSTORE PUSH2 0x52B DUP2 PUSH2 0x49E JUMP JUMPDEST SWAP1 POP SWAP2 SWAP1 POP JUMP JUMPDEST PUSH1 0x0 PUSH1 0x20 DUP3 ADD SWAP1 POP PUSH2 0x547 PUSH1 0x0 DUP4 ADD DUP5 PUSH2 0x4C1 JUMP JUMPDEST SWAP3 SWAP2 POP POP JUMP JUMPDEST PUSH1 0x0 DUP2 MLOAD SWAP1 POP SWAP2 SWAP1 POP JUMP JUMPDEST PUSH1 0x0 DUP3 DUP3 MSTORE PUSH1 0x20 DUP3 ADD SWAP1 POP SWAP3 SWAP2 POP POP JUMP JUMPDEST PUSH1 0x0 DUP2 SWAP1 POP SWAP2 SWAP1 POP JUMP JUMPDEST PUSH1 0x0 JUMPDEST DUP4 DUP2 LT ISZERO PUSH2 0x591 JUMPI DUP1 DUP3 ADD MLOAD DUP2 DUP5 ADD MSTORE PUSH1 0x20 DUP2 ADD SWAP1 POP PUSH2 0x576 JUMP JUMPDEST DUP4 DUP2 GT ISZERO PUSH2 0x5A0 JUMPI PUSH1 0x0 DUP5 DUP5 ADD MSTORE JUMPDEST POP POP POP POP JUMP JUMPDEST PUSH1 0x0 PUSH1 0x2 DUP3 DIV SWAP1 POP PUSH1 0x1 DUP3 AND DUP1 PUSH2 0x5BE JUMPI PUSH1 0x7F DUP3 AND SWAP2 POP JUMPDEST PUSH1 0x20 DUP3 LT DUP2 EQ ISZERO PUSH2 0x5D2 JUMPI PUSH2 0x5D1 PUSH2 0x5D8 JUMP JUMPDEST JUMPDEST POP SWAP2 SWAP1 POP JUMP JUMPDEST PUSH32 0x4E487B7100000000000000000000000000000000000000000000000000000000 PUSH1 0x0 MSTORE PUSH1 0x22 PUSH1 0x4 MSTORE PUSH1 0x24 PUSH1 0x0 REVERT JUMPDEST PUSH1 0x0 PUSH1 0x1F NOT PUSH1 0x1F DUP4 ADD AND SWAP1 POP SWAP2 SWAP1 POP JUMP JUMPDEST PUSH32 0x4E6F206861732063616C63756C61646F206269656E0000000000000000000000 PUSH1 0x0 DUP3 ADD MSTORE POP JUMP JUMPDEST PUSH32 0x44656D61736961646F2067617300000000000000000000000000000000000000 PUSH1 0x0 DUP3 ADD MSTORE POP JUMP INVALID LOG2 PUSH5 0x6970667358 0x22 SLT KECCAK256 0x29 MULMOD ADD PUSH28 0x5FD7D6448ECEE260D1B59F2E7CCAAA66C1FBEA57F99E76A824E8C9E8 PUSH5 0x736F6C6343 STOP ADDMOD DIV STOP CALLER "
				},
				"gasEstimates": {
					"creation": {
						"codeDepositCost": "339200",
						"executionCost": "infinite",
						"totalCost": "infinite"
					},
					"external": {
						"calculame()": "21033",
						"gasfinal()": "1129",
						"gass()": "infinite",
						"getFlag()": "infinite",
						"ideasLocas()": "infinite",
						"iniciotx()": "1173",
						"mitad2tx()": "1152",
						"mitadtx()": "1196"
					}
				},
				"methodIdentifiers": {
					"calculame()": "b95f9612",
					"gasfinal()": "7d641dba",
					"gass()": "0b6e7701",
					"getFlag()": "f9633930",
					"ideasLocas()": "4eeb44b3",
					"iniciotx()": "c6b422da",
					"mitad2tx()": "30cb47fa",
					"mitadtx()": "4ff67542"
				}
			},
			"storageLayout": {
				"storage": [
					{
						"astId": 3,
						"contract": "levelup/manageGas.sol:Gasolina",
						"label": "iniciotx",
						"offset": 0,
						"slot": "0",
						"type": "t_uint256"
					},
					{
						"astId": 5,
						"contract": "levelup/manageGas.sol:Gasolina",
						"label": "mitadtx",
						"offset": 0,
						"slot": "1",
						"type": "t_uint256"
					},
					{
						"astId": 7,
						"contract": "levelup/manageGas.sol:Gasolina",
						"label": "mitad2tx",
						"offset": 0,
						"slot": "2",
						"type": "t_uint256"
					},
					{
						"astId": 9,
						"contract": "levelup/manageGas.sol:Gasolina",
						"label": "gasfinal",
						"offset": 0,
						"slot": "3",
						"type": "t_uint256"
					},
					{
						"astId": 11,
						"contract": "levelup/manageGas.sol:Gasolina",
						"label": "ideasLocas",
						"offset": 0,
						"slot": "4",
						"type": "t_string_storage"
					},
					{
						"astId": 13,
						"contract": "levelup/manageGas.sol:Gasolina",
						"label": "flag",
						"offset": 0,
						"slot": "5",
						"type": "t_string_storage"
					},
					{
						"astId": 15,
						"contract": "levelup/manageGas.sol:Gasolina",
						"label": "calculado",
						"offset": 0,
						"slot": "6",
						"type": "t_bool"
					}
				],
				"types": {
					"t_bool": {
						"encoding": "inplace",
						"label": "bool",
						"numberOfBytes": "1"
					},
					"t_string_storage": {
						"encoding": "bytes",
						"label": "string",
						"numberOfBytes": "32"
					},
					"t_uint256": {
						"encoding": "inplace",
						"label": "uint256",
						"numberOfBytes": "32"
					}
				}
			},
			"userdoc": {
				"kind": "user",
				"methods": {},
				"version": 1
			}
		}
	}
}