{
	"levelup/newDex.sol": {
		"DEX_CTF": {
			"abi": [
				{
					"inputs": [
						{
							"internalType": "address",
							"name": "_tokenA",
							"type": "address"
						},
						{
							"internalType": "address",
							"name": "_tokenB",
							"type": "address"
						},
						{
							"internalType": "string",
							"name": "_flag",
							"type": "string"
						},
						{
							"internalType": "uint256",
							"name": "amountA",
							"type": "uint256"
						},
						{
							"internalType": "uint256",
							"name": "amountB",
							"type": "uint256"
						}
					],
					"stateMutability": "nonpayable",
					"type": "constructor"
				},
				{
					"inputs": [],
					"name": "allowanceA",
					"outputs": [
						{
							"internalType": "uint256",
							"name": "",
							"type": "uint256"
						}
					],
					"stateMutability": "view",
					"type": "function"
				},
				{
					"inputs": [],
					"name": "allowanceB",
					"outputs": [
						{
							"internalType": "uint256",
							"name": "",
							"type": "uint256"
						}
					],
					"stateMutability": "view",
					"type": "function"
				},
				{
					"inputs": [
						{
							"internalType": "address",
							"name": "_address",
							"type": "address"
						}
					],
					"name": "balanceA",
					"outputs": [
						{
							"internalType": "uint256",
							"name": "",
							"type": "uint256"
						}
					],
					"stateMutability": "view",
					"type": "function"
				},
				{
					"inputs": [
						{
							"internalType": "address",
							"name": "_address",
							"type": "address"
						}
					],
					"name": "balanceB",
					"outputs": [
						{
							"internalType": "uint256",
							"name": "",
							"type": "uint256"
						}
					],
					"stateMutability": "view",
					"type": "function"
				},
				{
					"inputs": [
						{
							"internalType": "uint256",
							"name": "amount",
							"type": "uint256"
						}
					],
					"name": "burnA",
					"outputs": [],
					"stateMutability": "nonpayable",
					"type": "function"
				},
				{
					"inputs": [
						{
							"internalType": "uint256",
							"name": "_amount",
							"type": "uint256"
						}
					],
					"name": "burningA",
					"outputs": [],
					"stateMutability": "nonpayable",
					"type": "function"
				},
				{
					"inputs": [
						{
							"internalType": "uint256",
							"name": "_amount",
							"type": "uint256"
						}
					],
					"name": "burningB",
					"outputs": [],
					"stateMutability": "nonpayable",
					"type": "function"
				},
				{
					"inputs": [],
					"name": "getFlag",
					"outputs": [
						{
							"internalType": "string",
							"name": "",
							"type": "string"
						}
					],
					"stateMutability": "view",
					"type": "function"
				},
				{
					"inputs": [
						{
							"internalType": "uint256",
							"name": "amount",
							"type": "uint256"
						}
					],
					"name": "mintA",
					"outputs": [],
					"stateMutability": "nonpayable",
					"type": "function"
				},
				{
					"inputs": [
						{
							"internalType": "uint256",
							"name": "amount",
							"type": "uint256"
						}
					],
					"name": "mintB",
					"outputs": [],
					"stateMutability": "nonpayable",
					"type": "function"
				},
				{
					"inputs": [],
					"name": "proportion",
					"outputs": [
						{
							"internalType": "uint256",
							"name": "",
							"type": "uint256"
						}
					],
					"stateMutability": "view",
					"type": "function"
				},
				{
					"inputs": [],
					"name": "swap",
					"outputs": [
						{
							"internalType": "bool",
							"name": "",
							"type": "bool"
						}
					],
					"stateMutability": "view",
					"type": "function"
				},
				{
					"inputs": [
						{
							"internalType": "uint256",
							"name": "quantity",
							"type": "uint256"
						}
					],
					"name": "swapAforB",
					"outputs": [],
					"stateMutability": "nonpayable",
					"type": "function"
				},
				{
					"inputs": [
						{
							"internalType": "uint256",
							"name": "quantity",
							"type": "uint256"
						}
					],
					"name": "swapBforA",
					"outputs": [],
					"stateMutability": "nonpayable",
					"type": "function"
				},
				{
					"inputs": [],
					"name": "tokenA",
					"outputs": [
						{
							"internalType": "contract Itoken",
							"name": "",
							"type": "address"
						}
					],
					"stateMutability": "view",
					"type": "function"
				},
				{
					"inputs": [],
					"name": "tokenB",
					"outputs": [
						{
							"internalType": "contract Itoken",
							"name": "",
							"type": "address"
						}
					],
					"stateMutability": "view",
					"type": "function"
				},
				{
					"inputs": [
						{
							"internalType": "address",
							"name": "patrick",
							"type": "address"
						},
						{
							"internalType": "uint256",
							"name": "amount",
							"type": "uint256"
						}
					],
					"name": "transferPatrick",
					"outputs": [],
					"stateMutability": "nonpayable",
					"type": "function"
				}
			],
			"devdoc": {
				"kind": "dev",
				"methods": {},
				"version": 1
			},
			"evm": {
				"assembly": "    /* \"levelup/newDex.sol\":912:4355  contract DEX_CTF {... */\n  mstore(0x40, 0x80)\n    /* \"levelup/newDex.sol\":1066:1441  constructor(address _tokenA, address _tokenB, string memory _flag,uint256 amountA, uint256 amountB) {... */\n  callvalue\n  dup1\n  iszero\n  tag_1\n  jumpi\n  0x00\n  dup1\n  revert\ntag_1:\n  pop\n  mload(0x40)\n  sub(codesize, bytecodeSize)\n  dup1\n  bytecodeSize\n  dup4\n  codecopy\n  dup2\n  dup2\n  add\n  0x40\n  mstore\n  dup2\n  add\n  swap1\n  tag_2\n  swap2\n  swap1\n  tag_3\n  jump\t// in\ntag_2:\n    /* \"levelup/newDex.sol\":1192:1199  _tokenA */\n  dup5\n    /* \"levelup/newDex.sol\":1176:1182  tokenA */\n  0x00\n  dup1\n    /* \"levelup/newDex.sol\":1176:1200  tokenA = Itoken(_tokenA) */\n  0x0100\n  exp\n  dup2\n  sload\n  dup2\n  0xffffffffffffffffffffffffffffffffffffffff\n  mul\n  not\n  and\n  swap1\n  dup4\n  0xffffffffffffffffffffffffffffffffffffffff\n  and\n  mul\n  or\n  swap1\n  sstore\n  pop\n    /* \"levelup/newDex.sol\":1226:1233  _tokenB */\n  dup4\n    /* \"levelup/newDex.sol\":1210:1216  tokenB */\n  0x01\n  0x00\n    /* \"levelup/newDex.sol\":1210:1234  tokenB = Itoken(_tokenB) */\n  0x0100\n  exp\n  dup2\n  sload\n  dup2\n  0xffffffffffffffffffffffffffffffffffffffff\n  mul\n  not\n  and\n  swap1\n  dup4\n  0xffffffffffffffffffffffffffffffffffffffff\n  and\n  mul\n  or\n  swap1\n  sstore\n  pop\n    /* \"levelup/newDex.sol\":1251:1256  _flag */\n  dup3\n    /* \"levelup/newDex.sol\":1244:1248  flag */\n  0x02\n    /* \"levelup/newDex.sol\":1244:1256  flag = _flag */\n  swap1\n  dup2\n  tag_6\n  swap2\n  swap1\n  tag_7\n  jump\t// in\ntag_6:\n  pop\n    /* \"levelup/newDex.sol\":1266:1272  tokenA */\n  0x00\n  dup1\n  sload\n  swap1\n  0x0100\n  exp\n  swap1\n  div\n  0xffffffffffffffffffffffffffffffffffffffff\n  and\n    /* \"levelup/newDex.sol\":1266:1277  tokenA.mint */\n  0xffffffffffffffffffffffffffffffffffffffff\n  and\n  0x40c10f19\n    /* \"levelup/newDex.sol\":1286:1290  this */\n  address\n    /* \"levelup/newDex.sol\":1293:1300  amountA */\n  dup5\n    /* \"levelup/newDex.sol\":1266:1301  tokenA.mint(address(this), amountA) */\n  mload(0x40)\n  dup4\n  0xffffffff\n  and\n  0xe0\n  shl\n  dup2\n  mstore\n  0x04\n  add\n  tag_8\n  swap3\n  swap2\n  swap1\n  tag_9\n  jump\t// in\ntag_8:\n  0x00\n  mload(0x40)\n  dup1\n  dup4\n  sub\n  dup2\n  0x00\n  dup8\n  dup1\n  extcodesize\n  iszero\n  dup1\n  iszero\n  tag_10\n  jumpi\n  0x00\n  dup1\n  revert\ntag_10:\n  pop\n  gas\n  call\n  iszero\n  dup1\n  iszero\n  tag_12\n  jumpi\n  returndatasize\n  0x00\n  dup1\n  returndatacopy\n  revert(0x00, returndatasize)\ntag_12:\n  pop\n  pop\n  pop\n  pop\n    /* \"levelup/newDex.sol\":1311:1317  tokenB */\n  0x01\n  0x00\n  swap1\n  sload\n  swap1\n  0x0100\n  exp\n  swap1\n  div\n  0xffffffffffffffffffffffffffffffffffffffff\n  and\n    /* \"levelup/newDex.sol\":1311:1322  tokenB.mint */\n  0xffffffffffffffffffffffffffffffffffffffff\n  and\n  0x40c10f19\n    /* \"levelup/newDex.sol\":1331:1335  this */\n  address\n    /* \"levelup/newDex.sol\":1338:1345  amountB */\n  dup4\n    /* \"levelup/newDex.sol\":1311:1346  tokenB.mint(address(this), amountB) */\n  mload(0x40)\n  dup4\n  0xffffffff\n  and\n  0xe0\n  shl\n  dup2\n  mstore\n  0x04\n  add\n  tag_13\n  swap3\n  swap2\n  swap1\n  tag_9\n  jump\t// in\ntag_13:\n  0x00\n  mload(0x40)\n  dup1\n  dup4\n  sub\n  dup2\n  0x00\n  dup8\n  dup1\n  extcodesize\n  iszero\n  dup1\n  iszero\n  tag_14\n  jumpi\n  0x00\n  dup1\n  revert\ntag_14:\n  pop\n  gas\n  call\n  iszero\n  dup1\n  iszero\n  tag_16\n  jumpi\n  returndatasize\n  0x00\n  dup1\n  returndatacopy\n  revert(0x00, returndatasize)\ntag_16:\n  pop\n  pop\n  pop\n  pop\n    /* \"levelup/newDex.sol\":1402:1408  tokenA */\n  0x00\n  dup1\n  sload\n  swap1\n  0x0100\n  exp\n  swap1\n  div\n  0xffffffffffffffffffffffffffffffffffffffff\n  and\n    /* \"levelup/newDex.sol\":1402:1418  tokenA.balanceOf */\n  0xffffffffffffffffffffffffffffffffffffffff\n  and\n  0x70a08231\n    /* \"levelup/newDex.sol\":1427:1431  this */\n  address\n    /* \"levelup/newDex.sol\":1402:1433  tokenA.balanceOf(address(this)) */\n  mload(0x40)\n  dup3\n  0xffffffff\n  and\n  0xe0\n  shl\n  dup2\n  mstore\n  0x04\n  add\n  tag_17\n  swap2\n  swap1\n  tag_18\n  jump\t// in\ntag_17:\n  0x20\n  mload(0x40)\n  dup1\n  dup4\n  sub\n  dup2\n  dup7\n  gas\n  staticcall\n  iszero\n  dup1\n  iszero\n  tag_20\n  jumpi\n  returndatasize\n  0x00\n  dup1\n  returndatacopy\n  revert(0x00, returndatasize)\ntag_20:\n  pop\n  pop\n  pop\n  pop\n  mload(0x40)\n  returndatasize\n  not(0x1f)\n  0x1f\n  dup3\n  add\n  and\n  dup3\n  add\n  dup1\n  0x40\n  mstore\n  pop\n  dup2\n  add\n  swap1\n  tag_21\n  swap2\n  swap1\n  tag_22\n  jump\t// in\ntag_21:\n    /* \"levelup/newDex.sol\":1370:1376  tokenB */\n  0x01\n  0x00\n  swap1\n  sload\n  swap1\n  0x0100\n  exp\n  swap1\n  div\n  0xffffffffffffffffffffffffffffffffffffffff\n  and\n    /* \"levelup/newDex.sol\":1370:1386  tokenB.balanceOf */\n  0xffffffffffffffffffffffffffffffffffffffff\n  and\n  0x70a08231\n    /* \"levelup/newDex.sol\":1395:1399  this */\n  address\n    /* \"levelup/newDex.sol\":1370:1401  tokenB.balanceOf(address(this)) */\n  mload(0x40)\n  dup3\n  0xffffffff\n  and\n  0xe0\n  shl\n  dup2\n  mstore\n  0x04\n  add\n  tag_23\n  swap2\n  swap1\n  tag_18\n  jump\t// in\ntag_23:\n  0x20\n  mload(0x40)\n  dup1\n  dup4\n  sub\n  dup2\n  dup7\n  gas\n  staticcall\n  iszero\n  dup1\n  iszero\n  tag_25\n  jumpi\n  returndatasize\n  0x00\n  dup1\n  returndatacopy\n  revert(0x00, returndatasize)\ntag_25:\n  pop\n  pop\n  pop\n  pop\n  mload(0x40)\n  returndatasize\n  not(0x1f)\n  0x1f\n  dup3\n  add\n  and\n  dup3\n  add\n  dup1\n  0x40\n  mstore\n  pop\n  dup2\n  add\n  swap1\n  tag_26\n  swap2\n  swap1\n  tag_22\n  jump\t// in\ntag_26:\n    /* \"levelup/newDex.sol\":1370:1433  tokenB.balanceOf(address(this))/tokenA.balanceOf(address(this)) */\n  tag_27\n  swap2\n  swap1\n  tag_28\n  jump\t// in\ntag_27:\n    /* \"levelup/newDex.sol\":1356:1366  proportion */\n  0x03\n    /* \"levelup/newDex.sol\":1356:1434  proportion = (tokenB.balanceOf(address(this))/tokenA.balanceOf(address(this))) */\n  dup2\n  swap1\n  sstore\n  pop\n    /* \"levelup/newDex.sol\":1066:1441  constructor(address _tokenA, address _tokenB, string memory _flag,uint256 amountA, uint256 amountB) {... */\n  pop\n  pop\n  pop\n  pop\n  pop\n    /* \"levelup/newDex.sol\":912:4355  contract DEX_CTF {... */\n  jump(tag_29)\n    /* \"#utility.yul\":7:82   */\ntag_30:\n    /* \"#utility.yul\":40:46   */\n  0x00\n    /* \"#utility.yul\":73:75   */\n  0x40\n    /* \"#utility.yul\":67:76   */\n  mload\n    /* \"#utility.yul\":57:76   */\n  swap1\n  pop\n    /* \"#utility.yul\":7:82   */\n  swap1\n  jump\t// out\n    /* \"#utility.yul\":88:205   */\ntag_31:\n    /* \"#utility.yul\":197:198   */\n  0x00\n    /* \"#utility.yul\":194:195   */\n  dup1\n    /* \"#utility.yul\":187:199   */\n  revert\n    /* \"#utility.yul\":211:328   */\ntag_32:\n    /* \"#utility.yul\":320:321   */\n  0x00\n    /* \"#utility.yul\":317:318   */\n  dup1\n    /* \"#utility.yul\":310:322   */\n  revert\n    /* \"#utility.yul\":334:460   */\ntag_33:\n    /* \"#utility.yul\":371:378   */\n  0x00\n    /* \"#utility.yul\":411:453   */\n  0xffffffffffffffffffffffffffffffffffffffff\n    /* \"#utility.yul\":404:409   */\n  dup3\n    /* \"#utility.yul\":400:454   */\n  and\n    /* \"#utility.yul\":389:454   */\n  swap1\n  pop\n    /* \"#utility.yul\":334:460   */\n  swap2\n  swap1\n  pop\n  jump\t// out\n    /* \"#utility.yul\":466:562   */\ntag_34:\n    /* \"#utility.yul\":503:510   */\n  0x00\n    /* \"#utility.yul\":532:556   */\n  tag_78\n    /* \"#utility.yul\":550:555   */\n  dup3\n    /* \"#utility.yul\":532:556   */\n  tag_33\n  jump\t// in\ntag_78:\n    /* \"#utility.yul\":521:556   */\n  swap1\n  pop\n    /* \"#utility.yul\":466:562   */\n  swap2\n  swap1\n  pop\n  jump\t// out\n    /* \"#utility.yul\":568:690   */\ntag_35:\n    /* \"#utility.yul\":641:665   */\n  tag_80\n    /* \"#utility.yul\":659:664   */\n  dup2\n    /* \"#utility.yul\":641:665   */\n  tag_34\n  jump\t// in\ntag_80:\n    /* \"#utility.yul\":634:639   */\n  dup2\n    /* \"#utility.yul\":631:666   */\n  eq\n    /* \"#utility.yul\":621:684   */\n  tag_81\n  jumpi\n    /* \"#utility.yul\":680:681   */\n  0x00\n    /* \"#utility.yul\":677:678   */\n  dup1\n    /* \"#utility.yul\":670:682   */\n  revert\n    /* \"#utility.yul\":621:684   */\ntag_81:\n    /* \"#utility.yul\":568:690   */\n  pop\n  jump\t// out\n    /* \"#utility.yul\":696:839   */\ntag_36:\n    /* \"#utility.yul\":753:758   */\n  0x00\n    /* \"#utility.yul\":784:790   */\n  dup2\n    /* \"#utility.yul\":778:791   */\n  mload\n    /* \"#utility.yul\":769:791   */\n  swap1\n  pop\n    /* \"#utility.yul\":800:833   */\n  tag_83\n    /* \"#utility.yul\":827:832   */\n  dup2\n    /* \"#utility.yul\":800:833   */\n  tag_35\n  jump\t// in\ntag_83:\n    /* \"#utility.yul\":696:839   */\n  swap3\n  swap2\n  pop\n  pop\n  jump\t// out\n    /* \"#utility.yul\":845:962   */\ntag_37:\n    /* \"#utility.yul\":954:955   */\n  0x00\n    /* \"#utility.yul\":951:952   */\n  dup1\n    /* \"#utility.yul\":944:956   */\n  revert\n    /* \"#utility.yul\":968:1085   */\ntag_38:\n    /* \"#utility.yul\":1077:1078   */\n  0x00\n    /* \"#utility.yul\":1074:1075   */\n  dup1\n    /* \"#utility.yul\":1067:1079   */\n  revert\n    /* \"#utility.yul\":1091:1193   */\ntag_39:\n    /* \"#utility.yul\":1132:1138   */\n  0x00\n    /* \"#utility.yul\":1183:1185   */\n  0x1f\n    /* \"#utility.yul\":1179:1186   */\n  not\n    /* \"#utility.yul\":1174:1176   */\n  0x1f\n    /* \"#utility.yul\":1167:1172   */\n  dup4\n    /* \"#utility.yul\":1163:1177   */\n  add\n    /* \"#utility.yul\":1159:1187   */\n  and\n    /* \"#utility.yul\":1149:1187   */\n  swap1\n  pop\n    /* \"#utility.yul\":1091:1193   */\n  swap2\n  swap1\n  pop\n  jump\t// out\n    /* \"#utility.yul\":1199:1379   */\ntag_40:\n    /* \"#utility.yul\":1247:1324   */\n  0x4e487b7100000000000000000000000000000000000000000000000000000000\n    /* \"#utility.yul\":1244:1245   */\n  0x00\n    /* \"#utility.yul\":1237:1325   */\n  mstore\n    /* \"#utility.yul\":1344:1348   */\n  0x41\n    /* \"#utility.yul\":1341:1342   */\n  0x04\n    /* \"#utility.yul\":1334:1349   */\n  mstore\n    /* \"#utility.yul\":1368:1372   */\n  0x24\n    /* \"#utility.yul\":1365:1366   */\n  0x00\n    /* \"#utility.yul\":1358:1373   */\n  revert\n    /* \"#utility.yul\":1385:1666   */\ntag_41:\n    /* \"#utility.yul\":1468:1495   */\n  tag_89\n    /* \"#utility.yul\":1490:1494   */\n  dup3\n    /* \"#utility.yul\":1468:1495   */\n  tag_39\n  jump\t// in\ntag_89:\n    /* \"#utility.yul\":1460:1466   */\n  dup2\n    /* \"#utility.yul\":1456:1496   */\n  add\n    /* \"#utility.yul\":1598:1604   */\n  dup2\n    /* \"#utility.yul\":1586:1596   */\n  dup2\n    /* \"#utility.yul\":1583:1605   */\n  lt\n    /* \"#utility.yul\":1562:1580   */\n  0xffffffffffffffff\n    /* \"#utility.yul\":1550:1560   */\n  dup3\n    /* \"#utility.yul\":1547:1581   */\n  gt\n    /* \"#utility.yul\":1544:1606   */\n  or\n    /* \"#utility.yul\":1541:1629   */\n  iszero\n  tag_90\n  jumpi\n    /* \"#utility.yul\":1609:1627   */\n  tag_91\n  tag_40\n  jump\t// in\ntag_91:\n    /* \"#utility.yul\":1541:1629   */\ntag_90:\n    /* \"#utility.yul\":1649:1659   */\n  dup1\n    /* \"#utility.yul\":1645:1647   */\n  0x40\n    /* \"#utility.yul\":1638:1660   */\n  mstore\n    /* \"#utility.yul\":1428:1666   */\n  pop\n    /* \"#utility.yul\":1385:1666   */\n  pop\n  pop\n  jump\t// out\n    /* \"#utility.yul\":1672:1801   */\ntag_42:\n    /* \"#utility.yul\":1706:1712   */\n  0x00\n    /* \"#utility.yul\":1733:1753   */\n  tag_93\n  tag_30\n  jump\t// in\ntag_93:\n    /* \"#utility.yul\":1723:1753   */\n  swap1\n  pop\n    /* \"#utility.yul\":1762:1795   */\n  tag_94\n    /* \"#utility.yul\":1790:1794   */\n  dup3\n    /* \"#utility.yul\":1782:1788   */\n  dup3\n    /* \"#utility.yul\":1762:1795   */\n  tag_41\n  jump\t// in\ntag_94:\n    /* \"#utility.yul\":1672:1801   */\n  swap2\n  swap1\n  pop\n  jump\t// out\n    /* \"#utility.yul\":1807:2115   */\ntag_43:\n    /* \"#utility.yul\":1869:1873   */\n  0x00\n    /* \"#utility.yul\":1959:1977   */\n  0xffffffffffffffff\n    /* \"#utility.yul\":1951:1957   */\n  dup3\n    /* \"#utility.yul\":1948:1978   */\n  gt\n    /* \"#utility.yul\":1945:2001   */\n  iszero\n  tag_96\n  jumpi\n    /* \"#utility.yul\":1981:1999   */\n  tag_97\n  tag_40\n  jump\t// in\ntag_97:\n    /* \"#utility.yul\":1945:2001   */\ntag_96:\n    /* \"#utility.yul\":2019:2048   */\n  tag_98\n    /* \"#utility.yul\":2041:2047   */\n  dup3\n    /* \"#utility.yul\":2019:2048   */\n  tag_39\n  jump\t// in\ntag_98:\n    /* \"#utility.yul\":2011:2048   */\n  swap1\n  pop\n    /* \"#utility.yul\":2103:2107   */\n  0x20\n    /* \"#utility.yul\":2097:2101   */\n  dup2\n    /* \"#utility.yul\":2093:2108   */\n  add\n    /* \"#utility.yul\":2085:2108   */\n  swap1\n  pop\n    /* \"#utility.yul\":1807:2115   */\n  swap2\n  swap1\n  pop\n  jump\t// out\n    /* \"#utility.yul\":2121:2367   */\ntag_44:\n    /* \"#utility.yul\":2202:2203   */\n  0x00\n    /* \"#utility.yul\":2212:2325   */\ntag_100:\n    /* \"#utility.yul\":2226:2232   */\n  dup4\n    /* \"#utility.yul\":2223:2224   */\n  dup2\n    /* \"#utility.yul\":2220:2233   */\n  lt\n    /* \"#utility.yul\":2212:2325   */\n  iszero\n  tag_102\n  jumpi\n    /* \"#utility.yul\":2311:2312   */\n  dup1\n    /* \"#utility.yul\":2306:2309   */\n  dup3\n    /* \"#utility.yul\":2302:2313   */\n  add\n    /* \"#utility.yul\":2296:2314   */\n  mload\n    /* \"#utility.yul\":2292:2293   */\n  dup2\n    /* \"#utility.yul\":2287:2290   */\n  dup5\n    /* \"#utility.yul\":2283:2294   */\n  add\n    /* \"#utility.yul\":2276:2315   */\n  mstore\n    /* \"#utility.yul\":2248:2250   */\n  0x20\n    /* \"#utility.yul\":2245:2246   */\n  dup2\n    /* \"#utility.yul\":2241:2251   */\n  add\n    /* \"#utility.yul\":2236:2251   */\n  swap1\n  pop\n    /* \"#utility.yul\":2212:2325   */\n  jump(tag_100)\ntag_102:\n    /* \"#utility.yul\":2359:2360   */\n  0x00\n    /* \"#utility.yul\":2350:2356   */\n  dup5\n    /* \"#utility.yul\":2345:2348   */\n  dup5\n    /* \"#utility.yul\":2341:2357   */\n  add\n    /* \"#utility.yul\":2334:2361   */\n  mstore\n    /* \"#utility.yul\":2183:2367   */\n  pop\n    /* \"#utility.yul\":2121:2367   */\n  pop\n  pop\n  pop\n  jump\t// out\n    /* \"#utility.yul\":2373:2807   */\ntag_45:\n    /* \"#utility.yul\":2462:2467   */\n  0x00\n    /* \"#utility.yul\":2487:2553   */\n  tag_104\n    /* \"#utility.yul\":2503:2552   */\n  tag_105\n    /* \"#utility.yul\":2545:2551   */\n  dup5\n    /* \"#utility.yul\":2503:2552   */\n  tag_43\n  jump\t// in\ntag_105:\n    /* \"#utility.yul\":2487:2553   */\n  tag_42\n  jump\t// in\ntag_104:\n    /* \"#utility.yul\":2478:2553   */\n  swap1\n  pop\n    /* \"#utility.yul\":2576:2582   */\n  dup3\n    /* \"#utility.yul\":2569:2574   */\n  dup2\n    /* \"#utility.yul\":2562:2583   */\n  mstore\n    /* \"#utility.yul\":2614:2618   */\n  0x20\n    /* \"#utility.yul\":2607:2612   */\n  dup2\n    /* \"#utility.yul\":2603:2619   */\n  add\n    /* \"#utility.yul\":2652:2655   */\n  dup5\n    /* \"#utility.yul\":2643:2649   */\n  dup5\n    /* \"#utility.yul\":2638:2641   */\n  dup5\n    /* \"#utility.yul\":2634:2650   */\n  add\n    /* \"#utility.yul\":2631:2656   */\n  gt\n    /* \"#utility.yul\":2628:2740   */\n  iszero\n  tag_106\n  jumpi\n    /* \"#utility.yul\":2659:2738   */\n  tag_107\n  tag_38\n  jump\t// in\ntag_107:\n    /* \"#utility.yul\":2628:2740   */\ntag_106:\n    /* \"#utility.yul\":2749:2801   */\n  tag_108\n    /* \"#utility.yul\":2794:2800   */\n  dup5\n    /* \"#utility.yul\":2789:2792   */\n  dup3\n    /* \"#utility.yul\":2784:2787   */\n  dup6\n    /* \"#utility.yul\":2749:2801   */\n  tag_44\n  jump\t// in\ntag_108:\n    /* \"#utility.yul\":2468:2807   */\n  pop\n    /* \"#utility.yul\":2373:2807   */\n  swap4\n  swap3\n  pop\n  pop\n  pop\n  jump\t// out\n    /* \"#utility.yul\":2827:3182   */\ntag_46:\n    /* \"#utility.yul\":2894:2899   */\n  0x00\n    /* \"#utility.yul\":2943:2946   */\n  dup3\n    /* \"#utility.yul\":2936:2940   */\n  0x1f\n    /* \"#utility.yul\":2928:2934   */\n  dup4\n    /* \"#utility.yul\":2924:2941   */\n  add\n    /* \"#utility.yul\":2920:2947   */\n  slt\n    /* \"#utility.yul\":2910:3032   */\n  tag_110\n  jumpi\n    /* \"#utility.yul\":2951:3030   */\n  tag_111\n  tag_37\n  jump\t// in\ntag_111:\n    /* \"#utility.yul\":2910:3032   */\ntag_110:\n    /* \"#utility.yul\":3061:3067   */\n  dup2\n    /* \"#utility.yul\":3055:3068   */\n  mload\n    /* \"#utility.yul\":3086:3176   */\n  tag_112\n    /* \"#utility.yul\":3172:3175   */\n  dup5\n    /* \"#utility.yul\":3164:3170   */\n  dup3\n    /* \"#utility.yul\":3157:3161   */\n  0x20\n    /* \"#utility.yul\":3149:3155   */\n  dup7\n    /* \"#utility.yul\":3145:3162   */\n  add\n    /* \"#utility.yul\":3086:3176   */\n  tag_45\n  jump\t// in\ntag_112:\n    /* \"#utility.yul\":3077:3176   */\n  swap2\n  pop\n    /* \"#utility.yul\":2900:3182   */\n  pop\n    /* \"#utility.yul\":2827:3182   */\n  swap3\n  swap2\n  pop\n  pop\n  jump\t// out\n    /* \"#utility.yul\":3188:3265   */\ntag_47:\n    /* \"#utility.yul\":3225:3232   */\n  0x00\n    /* \"#utility.yul\":3254:3259   */\n  dup2\n    /* \"#utility.yul\":3243:3259   */\n  swap1\n  pop\n    /* \"#utility.yul\":3188:3265   */\n  swap2\n  swap1\n  pop\n  jump\t// out\n    /* \"#utility.yul\":3271:3393   */\ntag_48:\n    /* \"#utility.yul\":3344:3368   */\n  tag_115\n    /* \"#utility.yul\":3362:3367   */\n  dup2\n    /* \"#utility.yul\":3344:3368   */\n  tag_47\n  jump\t// in\ntag_115:\n    /* \"#utility.yul\":3337:3342   */\n  dup2\n    /* \"#utility.yul\":3334:3369   */\n  eq\n    /* \"#utility.yul\":3324:3387   */\n  tag_116\n  jumpi\n    /* \"#utility.yul\":3383:3384   */\n  0x00\n    /* \"#utility.yul\":3380:3381   */\n  dup1\n    /* \"#utility.yul\":3373:3385   */\n  revert\n    /* \"#utility.yul\":3324:3387   */\ntag_116:\n    /* \"#utility.yul\":3271:3393   */\n  pop\n  jump\t// out\n    /* \"#utility.yul\":3399:3542   */\ntag_49:\n    /* \"#utility.yul\":3456:3461   */\n  0x00\n    /* \"#utility.yul\":3487:3493   */\n  dup2\n    /* \"#utility.yul\":3481:3494   */\n  mload\n    /* \"#utility.yul\":3472:3494   */\n  swap1\n  pop\n    /* \"#utility.yul\":3503:3536   */\n  tag_118\n    /* \"#utility.yul\":3530:3535   */\n  dup2\n    /* \"#utility.yul\":3503:3536   */\n  tag_48\n  jump\t// in\ntag_118:\n    /* \"#utility.yul\":3399:3542   */\n  swap3\n  swap2\n  pop\n  pop\n  jump\t// out\n    /* \"#utility.yul\":3548:4698   */\ntag_3:\n    /* \"#utility.yul\":3664:3670   */\n  0x00\n    /* \"#utility.yul\":3672:3678   */\n  dup1\n    /* \"#utility.yul\":3680:3686   */\n  0x00\n    /* \"#utility.yul\":3688:3694   */\n  dup1\n    /* \"#utility.yul\":3696:3702   */\n  0x00\n    /* \"#utility.yul\":3745:3748   */\n  0xa0\n    /* \"#utility.yul\":3733:3742   */\n  dup7\n    /* \"#utility.yul\":3724:3731   */\n  dup9\n    /* \"#utility.yul\":3720:3743   */\n  sub\n    /* \"#utility.yul\":3716:3749   */\n  slt\n    /* \"#utility.yul\":3713:3833   */\n  iszero\n  tag_120\n  jumpi\n    /* \"#utility.yul\":3752:3831   */\n  tag_121\n  tag_31\n  jump\t// in\ntag_121:\n    /* \"#utility.yul\":3713:3833   */\ntag_120:\n    /* \"#utility.yul\":3872:3873   */\n  0x00\n    /* \"#utility.yul\":3897:3961   */\n  tag_122\n    /* \"#utility.yul\":3953:3960   */\n  dup9\n    /* \"#utility.yul\":3944:3950   */\n  dup3\n    /* \"#utility.yul\":3933:3942   */\n  dup10\n    /* \"#utility.yul\":3929:3951   */\n  add\n    /* \"#utility.yul\":3897:3961   */\n  tag_36\n  jump\t// in\ntag_122:\n    /* \"#utility.yul\":3887:3961   */\n  swap6\n  pop\n    /* \"#utility.yul\":3843:3971   */\n  pop\n    /* \"#utility.yul\":4010:4012   */\n  0x20\n    /* \"#utility.yul\":4036:4100   */\n  tag_123\n    /* \"#utility.yul\":4092:4099   */\n  dup9\n    /* \"#utility.yul\":4083:4089   */\n  dup3\n    /* \"#utility.yul\":4072:4081   */\n  dup10\n    /* \"#utility.yul\":4068:4090   */\n  add\n    /* \"#utility.yul\":4036:4100   */\n  tag_36\n  jump\t// in\ntag_123:\n    /* \"#utility.yul\":4026:4100   */\n  swap5\n  pop\n    /* \"#utility.yul\":3981:4110   */\n  pop\n    /* \"#utility.yul\":4170:4172   */\n  0x40\n    /* \"#utility.yul\":4159:4168   */\n  dup7\n    /* \"#utility.yul\":4155:4173   */\n  add\n    /* \"#utility.yul\":4149:4174   */\n  mload\n    /* \"#utility.yul\":4201:4219   */\n  0xffffffffffffffff\n    /* \"#utility.yul\":4193:4199   */\n  dup2\n    /* \"#utility.yul\":4190:4220   */\n  gt\n    /* \"#utility.yul\":4187:4304   */\n  iszero\n  tag_124\n  jumpi\n    /* \"#utility.yul\":4223:4302   */\n  tag_125\n  tag_32\n  jump\t// in\ntag_125:\n    /* \"#utility.yul\":4187:4304   */\ntag_124:\n    /* \"#utility.yul\":4328:4402   */\n  tag_126\n    /* \"#utility.yul\":4394:4401   */\n  dup9\n    /* \"#utility.yul\":4385:4391   */\n  dup3\n    /* \"#utility.yul\":4374:4383   */\n  dup10\n    /* \"#utility.yul\":4370:4392   */\n  add\n    /* \"#utility.yul\":4328:4402   */\n  tag_46\n  jump\t// in\ntag_126:\n    /* \"#utility.yul\":4318:4402   */\n  swap4\n  pop\n    /* \"#utility.yul\":4120:4412   */\n  pop\n    /* \"#utility.yul\":4451:4453   */\n  0x60\n    /* \"#utility.yul\":4477:4541   */\n  tag_127\n    /* \"#utility.yul\":4533:4540   */\n  dup9\n    /* \"#utility.yul\":4524:4530   */\n  dup3\n    /* \"#utility.yul\":4513:4522   */\n  dup10\n    /* \"#utility.yul\":4509:4531   */\n  add\n    /* \"#utility.yul\":4477:4541   */\n  tag_49\n  jump\t// in\ntag_127:\n    /* \"#utility.yul\":4467:4541   */\n  swap3\n  pop\n    /* \"#utility.yul\":4422:4551   */\n  pop\n    /* \"#utility.yul\":4590:4593   */\n  0x80\n    /* \"#utility.yul\":4617:4681   */\n  tag_128\n    /* \"#utility.yul\":4673:4680   */\n  dup9\n    /* \"#utility.yul\":4664:4670   */\n  dup3\n    /* \"#utility.yul\":4653:4662   */\n  dup10\n    /* \"#utility.yul\":4649:4671   */\n  add\n    /* \"#utility.yul\":4617:4681   */\n  tag_49\n  jump\t// in\ntag_128:\n    /* \"#utility.yul\":4607:4681   */\n  swap2\n  pop\n    /* \"#utility.yul\":4561:4691   */\n  pop\n    /* \"#utility.yul\":3548:4698   */\n  swap3\n  swap6\n  pop\n  swap3\n  swap6\n  swap1\n  swap4\n  pop\n  jump\t// out\n    /* \"#utility.yul\":4704:4803   */\ntag_50:\n    /* \"#utility.yul\":4756:4762   */\n  0x00\n    /* \"#utility.yul\":4790:4795   */\n  dup2\n    /* \"#utility.yul\":4784:4796   */\n  mload\n    /* \"#utility.yul\":4774:4796   */\n  swap1\n  pop\n    /* \"#utility.yul\":4704:4803   */\n  swap2\n  swap1\n  pop\n  jump\t// out\n    /* \"#utility.yul\":4809:4989   */\ntag_51:\n    /* \"#utility.yul\":4857:4934   */\n  0x4e487b7100000000000000000000000000000000000000000000000000000000\n    /* \"#utility.yul\":4854:4855   */\n  0x00\n    /* \"#utility.yul\":4847:4935   */\n  mstore\n    /* \"#utility.yul\":4954:4958   */\n  0x22\n    /* \"#utility.yul\":4951:4952   */\n  0x04\n    /* \"#utility.yul\":4944:4959   */\n  mstore\n    /* \"#utility.yul\":4978:4982   */\n  0x24\n    /* \"#utility.yul\":4975:4976   */\n  0x00\n    /* \"#utility.yul\":4968:4983   */\n  revert\n    /* \"#utility.yul\":4995:5315   */\ntag_52:\n    /* \"#utility.yul\":5039:5045   */\n  0x00\n    /* \"#utility.yul\":5076:5077   */\n  0x02\n    /* \"#utility.yul\":5070:5074   */\n  dup3\n    /* \"#utility.yul\":5066:5078   */\n  div\n    /* \"#utility.yul\":5056:5078   */\n  swap1\n  pop\n    /* \"#utility.yul\":5123:5124   */\n  0x01\n    /* \"#utility.yul\":5117:5121   */\n  dup3\n    /* \"#utility.yul\":5113:5125   */\n  and\n    /* \"#utility.yul\":5144:5162   */\n  dup1\n    /* \"#utility.yul\":5134:5215   */\n  tag_132\n  jumpi\n    /* \"#utility.yul\":5200:5204   */\n  0x7f\n    /* \"#utility.yul\":5192:5198   */\n  dup3\n    /* \"#utility.yul\":5188:5205   */\n  and\n    /* \"#utility.yul\":5178:5205   */\n  swap2\n  pop\n    /* \"#utility.yul\":5134:5215   */\ntag_132:\n    /* \"#utility.yul\":5262:5264   */\n  0x20\n    /* \"#utility.yul\":5254:5260   */\n  dup3\n    /* \"#utility.yul\":5251:5265   */\n  lt\n    /* \"#utility.yul\":5231:5249   */\n  dup2\n    /* \"#utility.yul\":5228:5266   */\n  sub\n    /* \"#utility.yul\":5225:5309   */\n  tag_133\n  jumpi\n    /* \"#utility.yul\":5281:5299   */\n  tag_134\n  tag_51\n  jump\t// in\ntag_134:\n    /* \"#utility.yul\":5225:5309   */\ntag_133:\n    /* \"#utility.yul\":5046:5315   */\n  pop\n    /* \"#utility.yul\":4995:5315   */\n  swap2\n  swap1\n  pop\n  jump\t// out\n    /* \"#utility.yul\":5321:5462   */\ntag_53:\n    /* \"#utility.yul\":5370:5374   */\n  0x00\n    /* \"#utility.yul\":5393:5396   */\n  dup2\n    /* \"#utility.yul\":5385:5396   */\n  swap1\n  pop\n    /* \"#utility.yul\":5416:5419   */\n  dup2\n    /* \"#utility.yul\":5413:5414   */\n  0x00\n    /* \"#utility.yul\":5406:5420   */\n  mstore\n    /* \"#utility.yul\":5450:5454   */\n  0x20\n    /* \"#utility.yul\":5447:5448   */\n  0x00\n    /* \"#utility.yul\":5437:5455   */\n  keccak256\n    /* \"#utility.yul\":5429:5455   */\n  swap1\n  pop\n    /* \"#utility.yul\":5321:5462   */\n  swap2\n  swap1\n  pop\n  jump\t// out\n    /* \"#utility.yul\":5468:5561   */\ntag_54:\n    /* \"#utility.yul\":5505:5511   */\n  0x00\n    /* \"#utility.yul\":5552:5554   */\n  0x20\n    /* \"#utility.yul\":5547:5549   */\n  0x1f\n    /* \"#utility.yul\":5540:5545   */\n  dup4\n    /* \"#utility.yul\":5536:5550   */\n  add\n    /* \"#utility.yul\":5532:5555   */\n  div\n    /* \"#utility.yul\":5522:5555   */\n  swap1\n  pop\n    /* \"#utility.yul\":5468:5561   */\n  swap2\n  swap1\n  pop\n  jump\t// out\n    /* \"#utility.yul\":5567:5674   */\ntag_55:\n    /* \"#utility.yul\":5611:5619   */\n  0x00\n    /* \"#utility.yul\":5661:5666   */\n  dup3\n    /* \"#utility.yul\":5655:5659   */\n  dup3\n    /* \"#utility.yul\":5651:5667   */\n  shl\n    /* \"#utility.yul\":5630:5667   */\n  swap1\n  pop\n    /* \"#utility.yul\":5567:5674   */\n  swap3\n  swap2\n  pop\n  pop\n  jump\t// out\n    /* \"#utility.yul\":5680:6073   */\ntag_56:\n    /* \"#utility.yul\":5749:5755   */\n  0x00\n    /* \"#utility.yul\":5799:5800   */\n  0x08\n    /* \"#utility.yul\":5787:5797   */\n  dup4\n    /* \"#utility.yul\":5783:5801   */\n  mul\n    /* \"#utility.yul\":5822:5919   */\n  tag_139\n    /* \"#utility.yul\":5852:5918   */\n  0xffffffffffffffffffffffffffffffffffffffffffffffffffffffffffffffff\n    /* \"#utility.yul\":5841:5850   */\n  dup3\n    /* \"#utility.yul\":5822:5919   */\n  tag_55\n  jump\t// in\ntag_139:\n    /* \"#utility.yul\":5940:5979   */\n  tag_140\n    /* \"#utility.yul\":5970:5978   */\n  dup7\n    /* \"#utility.yul\":5959:5968   */\n  dup4\n    /* \"#utility.yul\":5940:5979   */\n  tag_55\n  jump\t// in\ntag_140:\n    /* \"#utility.yul\":5928:5979   */\n  swap6\n  pop\n    /* \"#utility.yul\":6012:6016   */\n  dup1\n    /* \"#utility.yul\":6008:6017   */\n  not\n    /* \"#utility.yul\":6001:6006   */\n  dup5\n    /* \"#utility.yul\":5997:6018   */\n  and\n    /* \"#utility.yul\":5988:6018   */\n  swap4\n  pop\n    /* \"#utility.yul\":6061:6065   */\n  dup1\n    /* \"#utility.yul\":6051:6059   */\n  dup7\n    /* \"#utility.yul\":6047:6066   */\n  and\n    /* \"#utility.yul\":6040:6045   */\n  dup5\n    /* \"#utility.yul\":6037:6067   */\n  or\n    /* \"#utility.yul\":6027:6067   */\n  swap3\n  pop\n    /* \"#utility.yul\":5756:6073   */\n  pop\n  pop\n    /* \"#utility.yul\":5680:6073   */\n  swap4\n  swap3\n  pop\n  pop\n  pop\n  jump\t// out\n    /* \"#utility.yul\":6079:6139   */\ntag_57:\n    /* \"#utility.yul\":6107:6110   */\n  0x00\n    /* \"#utility.yul\":6128:6133   */\n  dup2\n    /* \"#utility.yul\":6121:6133   */\n  swap1\n  pop\n    /* \"#utility.yul\":6079:6139   */\n  swap2\n  swap1\n  pop\n  jump\t// out\n    /* \"#utility.yul\":6145:6287   */\ntag_58:\n    /* \"#utility.yul\":6195:6204   */\n  0x00\n    /* \"#utility.yul\":6228:6281   */\n  tag_143\n    /* \"#utility.yul\":6246:6280   */\n  tag_144\n    /* \"#utility.yul\":6255:6279   */\n  tag_145\n    /* \"#utility.yul\":6273:6278   */\n  dup5\n    /* \"#utility.yul\":6255:6279   */\n  tag_47\n  jump\t// in\ntag_145:\n    /* \"#utility.yul\":6246:6280   */\n  tag_57\n  jump\t// in\ntag_144:\n    /* \"#utility.yul\":6228:6281   */\n  tag_47\n  jump\t// in\ntag_143:\n    /* \"#utility.yul\":6215:6281   */\n  swap1\n  pop\n    /* \"#utility.yul\":6145:6287   */\n  swap2\n  swap1\n  pop\n  jump\t// out\n    /* \"#utility.yul\":6293:6368   */\ntag_59:\n    /* \"#utility.yul\":6336:6339   */\n  0x00\n    /* \"#utility.yul\":6357:6362   */\n  dup2\n    /* \"#utility.yul\":6350:6362   */\n  swap1\n  pop\n    /* \"#utility.yul\":6293:6368   */\n  swap2\n  swap1\n  pop\n  jump\t// out\n    /* \"#utility.yul\":6374:6643   */\ntag_60:\n    /* \"#utility.yul\":6484:6523   */\n  tag_148\n    /* \"#utility.yul\":6515:6522   */\n  dup4\n    /* \"#utility.yul\":6484:6523   */\n  tag_58\n  jump\t// in\ntag_148:\n    /* \"#utility.yul\":6545:6636   */\n  tag_149\n    /* \"#utility.yul\":6594:6635   */\n  tag_150\n    /* \"#utility.yul\":6618:6634   */\n  dup3\n    /* \"#utility.yul\":6594:6635   */\n  tag_59\n  jump\t// in\ntag_150:\n    /* \"#utility.yul\":6586:6592   */\n  dup5\n    /* \"#utility.yul\":6579:6583   */\n  dup5\n    /* \"#utility.yul\":6573:6584   */\n  sload\n    /* \"#utility.yul\":6545:6636   */\n  tag_56\n  jump\t// in\ntag_149:\n    /* \"#utility.yul\":6539:6543   */\n  dup3\n    /* \"#utility.yul\":6532:6637   */\n  sstore\n    /* \"#utility.yul\":6450:6643   */\n  pop\n    /* \"#utility.yul\":6374:6643   */\n  pop\n  pop\n  pop\n  jump\t// out\n    /* \"#utility.yul\":6649:6722   */\ntag_61:\n    /* \"#utility.yul\":6694:6697   */\n  0x00\n    /* \"#utility.yul\":6649:6722   */\n  swap1\n  jump\t// out\n    /* \"#utility.yul\":6728:6917   */\ntag_62:\n    /* \"#utility.yul\":6805:6837   */\n  tag_153\n  tag_61\n  jump\t// in\ntag_153:\n    /* \"#utility.yul\":6846:6911   */\n  tag_154\n    /* \"#utility.yul\":6904:6910   */\n  dup2\n    /* \"#utility.yul\":6896:6902   */\n  dup5\n    /* \"#utility.yul\":6890:6894   */\n  dup5\n    /* \"#utility.yul\":6846:6911   */\n  tag_60\n  jump\t// in\ntag_154:\n    /* \"#utility.yul\":6781:6917   */\n  pop\n    /* \"#utility.yul\":6728:6917   */\n  pop\n  pop\n  jump\t// out\n    /* \"#utility.yul\":6923:7109   */\ntag_63:\n    /* \"#utility.yul\":6983:7103   */\ntag_156:\n    /* \"#utility.yul\":7000:7003   */\n  dup2\n    /* \"#utility.yul\":6993:6998   */\n  dup2\n    /* \"#utility.yul\":6990:7004   */\n  lt\n    /* \"#utility.yul\":6983:7103   */\n  iszero\n  tag_158\n  jumpi\n    /* \"#utility.yul\":7054:7093   */\n  tag_159\n    /* \"#utility.yul\":7091:7092   */\n  0x00\n    /* \"#utility.yul\":7084:7089   */\n  dup3\n    /* \"#utility.yul\":7054:7093   */\n  tag_62\n  jump\t// in\ntag_159:\n    /* \"#utility.yul\":7027:7028   */\n  0x01\n    /* \"#utility.yul\":7020:7025   */\n  dup2\n    /* \"#utility.yul\":7016:7029   */\n  add\n    /* \"#utility.yul\":7007:7029   */\n  swap1\n  pop\n    /* \"#utility.yul\":6983:7103   */\n  jump(tag_156)\ntag_158:\n    /* \"#utility.yul\":6923:7109   */\n  pop\n  pop\n  jump\t// out\n    /* \"#utility.yul\":7115:7658   */\ntag_64:\n    /* \"#utility.yul\":7216:7218   */\n  0x1f\n    /* \"#utility.yul\":7211:7214   */\n  dup3\n    /* \"#utility.yul\":7208:7219   */\n  gt\n    /* \"#utility.yul\":7205:7651   */\n  iszero\n  tag_161\n  jumpi\n    /* \"#utility.yul\":7250:7288   */\n  tag_162\n    /* \"#utility.yul\":7282:7287   */\n  dup2\n    /* \"#utility.yul\":7250:7288   */\n  tag_53\n  jump\t// in\ntag_162:\n    /* \"#utility.yul\":7334:7363   */\n  tag_163\n    /* \"#utility.yul\":7352:7362   */\n  dup5\n    /* \"#utility.yul\":7334:7363   */\n  tag_54\n  jump\t// in\ntag_163:\n    /* \"#utility.yul\":7324:7332   */\n  dup2\n    /* \"#utility.yul\":7320:7364   */\n  add\n    /* \"#utility.yul\":7517:7519   */\n  0x20\n    /* \"#utility.yul\":7505:7515   */\n  dup6\n    /* \"#utility.yul\":7502:7520   */\n  lt\n    /* \"#utility.yul\":7499:7548   */\n  iszero\n  tag_164\n  jumpi\n    /* \"#utility.yul\":7538:7546   */\n  dup2\n    /* \"#utility.yul\":7523:7546   */\n  swap1\n  pop\n    /* \"#utility.yul\":7499:7548   */\ntag_164:\n    /* \"#utility.yul\":7561:7641   */\n  tag_165\n    /* \"#utility.yul\":7617:7639   */\n  tag_166\n    /* \"#utility.yul\":7635:7638   */\n  dup6\n    /* \"#utility.yul\":7617:7639   */\n  tag_54\n  jump\t// in\ntag_166:\n    /* \"#utility.yul\":7607:7615   */\n  dup4\n    /* \"#utility.yul\":7603:7640   */\n  add\n    /* \"#utility.yul\":7590:7601   */\n  dup3\n    /* \"#utility.yul\":7561:7641   */\n  tag_63\n  jump\t// in\ntag_165:\n    /* \"#utility.yul\":7220:7651   */\n  pop\n  pop\n    /* \"#utility.yul\":7205:7651   */\ntag_161:\n    /* \"#utility.yul\":7115:7658   */\n  pop\n  pop\n  pop\n  jump\t// out\n    /* \"#utility.yul\":7664:7781   */\ntag_65:\n    /* \"#utility.yul\":7718:7726   */\n  0x00\n    /* \"#utility.yul\":7768:7773   */\n  dup3\n    /* \"#utility.yul\":7762:7766   */\n  dup3\n    /* \"#utility.yul\":7758:7774   */\n  shr\n    /* \"#utility.yul\":7737:7774   */\n  swap1\n  pop\n    /* \"#utility.yul\":7664:7781   */\n  swap3\n  swap2\n  pop\n  pop\n  jump\t// out\n    /* \"#utility.yul\":7787:7956   */\ntag_66:\n    /* \"#utility.yul\":7831:7837   */\n  0x00\n    /* \"#utility.yul\":7864:7915   */\n  tag_169\n    /* \"#utility.yul\":7912:7913   */\n  0x00\n    /* \"#utility.yul\":7908:7914   */\n  not\n    /* \"#utility.yul\":7900:7905   */\n  dup5\n    /* \"#utility.yul\":7897:7898   */\n  0x08\n    /* \"#utility.yul\":7893:7906   */\n  mul\n    /* \"#utility.yul\":7864:7915   */\n  tag_65\n  jump\t// in\ntag_169:\n    /* \"#utility.yul\":7860:7916   */\n  not\n    /* \"#utility.yul\":7945:7949   */\n  dup1\n    /* \"#utility.yul\":7939:7943   */\n  dup4\n    /* \"#utility.yul\":7935:7950   */\n  and\n    /* \"#utility.yul\":7925:7950   */\n  swap2\n  pop\n    /* \"#utility.yul\":7838:7956   */\n  pop\n    /* \"#utility.yul\":7787:7956   */\n  swap3\n  swap2\n  pop\n  pop\n  jump\t// out\n    /* \"#utility.yul\":7961:8256   */\ntag_67:\n    /* \"#utility.yul\":8037:8041   */\n  0x00\n    /* \"#utility.yul\":8183:8212   */\n  tag_171\n    /* \"#utility.yul\":8208:8211   */\n  dup4\n    /* \"#utility.yul\":8202:8206   */\n  dup4\n    /* \"#utility.yul\":8183:8212   */\n  tag_66\n  jump\t// in\ntag_171:\n    /* \"#utility.yul\":8175:8212   */\n  swap2\n  pop\n    /* \"#utility.yul\":8245:8248   */\n  dup3\n    /* \"#utility.yul\":8242:8243   */\n  0x02\n    /* \"#utility.yul\":8238:8249   */\n  mul\n    /* \"#utility.yul\":8232:8236   */\n  dup3\n    /* \"#utility.yul\":8229:8250   */\n  or\n    /* \"#utility.yul\":8221:8250   */\n  swap1\n  pop\n    /* \"#utility.yul\":7961:8256   */\n  swap3\n  swap2\n  pop\n  pop\n  jump\t// out\n    /* \"#utility.yul\":8261:9656   */\ntag_7:\n    /* \"#utility.yul\":8378:8415   */\n  tag_173\n    /* \"#utility.yul\":8411:8414   */\n  dup3\n    /* \"#utility.yul\":8378:8415   */\n  tag_50\n  jump\t// in\ntag_173:\n    /* \"#utility.yul\":8480:8498   */\n  0xffffffffffffffff\n    /* \"#utility.yul\":8472:8478   */\n  dup2\n    /* \"#utility.yul\":8469:8499   */\n  gt\n    /* \"#utility.yul\":8466:8522   */\n  iszero\n  tag_174\n  jumpi\n    /* \"#utility.yul\":8502:8520   */\n  tag_175\n  tag_40\n  jump\t// in\ntag_175:\n    /* \"#utility.yul\":8466:8522   */\ntag_174:\n    /* \"#utility.yul\":8546:8584   */\n  tag_176\n    /* \"#utility.yul\":8578:8582   */\n  dup3\n    /* \"#utility.yul\":8572:8583   */\n  sload\n    /* \"#utility.yul\":8546:8584   */\n  tag_52\n  jump\t// in\ntag_176:\n    /* \"#utility.yul\":8631:8698   */\n  tag_177\n    /* \"#utility.yul\":8691:8697   */\n  dup3\n    /* \"#utility.yul\":8683:8689   */\n  dup3\n    /* \"#utility.yul\":8677:8681   */\n  dup6\n    /* \"#utility.yul\":8631:8698   */\n  tag_64\n  jump\t// in\ntag_177:\n    /* \"#utility.yul\":8725:8726   */\n  0x00\n    /* \"#utility.yul\":8749:8753   */\n  0x20\n    /* \"#utility.yul\":8736:8753   */\n  swap1\n  pop\n    /* \"#utility.yul\":8781:8783   */\n  0x1f\n    /* \"#utility.yul\":8773:8779   */\n  dup4\n    /* \"#utility.yul\":8770:8784   */\n  gt\n    /* \"#utility.yul\":8798:8799   */\n  0x01\n    /* \"#utility.yul\":8793:9411   */\n  dup2\n  eq\n  tag_179\n  jumpi\n    /* \"#utility.yul\":9455:9456   */\n  0x00\n    /* \"#utility.yul\":9472:9478   */\n  dup5\n    /* \"#utility.yul\":9469:9546   */\n  iszero\n  tag_180\n  jumpi\n    /* \"#utility.yul\":9521:9530   */\n  dup3\n    /* \"#utility.yul\":9516:9519   */\n  dup8\n    /* \"#utility.yul\":9512:9531   */\n  add\n    /* \"#utility.yul\":9506:9532   */\n  mload\n    /* \"#utility.yul\":9497:9532   */\n  swap1\n  pop\n    /* \"#utility.yul\":9469:9546   */\ntag_180:\n    /* \"#utility.yul\":9572:9639   */\n  tag_181\n    /* \"#utility.yul\":9632:9638   */\n  dup6\n    /* \"#utility.yul\":9625:9630   */\n  dup3\n    /* \"#utility.yul\":9572:9639   */\n  tag_67\n  jump\t// in\ntag_181:\n    /* \"#utility.yul\":9566:9570   */\n  dup7\n    /* \"#utility.yul\":9559:9640   */\n  sstore\n    /* \"#utility.yul\":9428:9650   */\n  pop\n    /* \"#utility.yul\":8763:9650   */\n  jump(tag_178)\n    /* \"#utility.yul\":8793:9411   */\ntag_179:\n    /* \"#utility.yul\":8845:8849   */\n  0x1f\n    /* \"#utility.yul\":8841:8850   */\n  not\n    /* \"#utility.yul\":8833:8839   */\n  dup5\n    /* \"#utility.yul\":8829:8851   */\n  and\n    /* \"#utility.yul\":8879:8916   */\n  tag_182\n    /* \"#utility.yul\":8911:8915   */\n  dup7\n    /* \"#utility.yul\":8879:8916   */\n  tag_53\n  jump\t// in\ntag_182:\n    /* \"#utility.yul\":8938:8939   */\n  0x00\n    /* \"#utility.yul\":8952:9160   */\ntag_183:\n    /* \"#utility.yul\":8966:8973   */\n  dup3\n    /* \"#utility.yul\":8963:8964   */\n  dup2\n    /* \"#utility.yul\":8960:8974   */\n  lt\n    /* \"#utility.yul\":8952:9160   */\n  iszero\n  tag_185\n  jumpi\n    /* \"#utility.yul\":9045:9054   */\n  dup5\n    /* \"#utility.yul\":9040:9043   */\n  dup10\n    /* \"#utility.yul\":9036:9055   */\n  add\n    /* \"#utility.yul\":9030:9056   */\n  mload\n    /* \"#utility.yul\":9022:9028   */\n  dup3\n    /* \"#utility.yul\":9015:9057   */\n  sstore\n    /* \"#utility.yul\":9096:9097   */\n  0x01\n    /* \"#utility.yul\":9088:9094   */\n  dup3\n    /* \"#utility.yul\":9084:9098   */\n  add\n    /* \"#utility.yul\":9074:9098   */\n  swap2\n  pop\n    /* \"#utility.yul\":9143:9145   */\n  0x20\n    /* \"#utility.yul\":9132:9141   */\n  dup6\n    /* \"#utility.yul\":9128:9146   */\n  add\n    /* \"#utility.yul\":9115:9146   */\n  swap5\n  pop\n    /* \"#utility.yul\":8989:8993   */\n  0x20\n    /* \"#utility.yul\":8986:8987   */\n  dup2\n    /* \"#utility.yul\":8982:8994   */\n  add\n    /* \"#utility.yul\":8977:8994   */\n  swap1\n  pop\n    /* \"#utility.yul\":8952:9160   */\n  jump(tag_183)\ntag_185:\n    /* \"#utility.yul\":9188:9194   */\n  dup7\n    /* \"#utility.yul\":9179:9186   */\n  dup4\n    /* \"#utility.yul\":9176:9195   */\n  lt\n    /* \"#utility.yul\":9173:9352   */\n  iszero\n  tag_186\n  jumpi\n    /* \"#utility.yul\":9246:9255   */\n  dup5\n    /* \"#utility.yul\":9241:9244   */\n  dup10\n    /* \"#utility.yul\":9237:9256   */\n  add\n    /* \"#utility.yul\":9231:9257   */\n  mload\n    /* \"#utility.yul\":9289:9337   */\n  tag_187\n    /* \"#utility.yul\":9331:9335   */\n  0x1f\n    /* \"#utility.yul\":9323:9329   */\n  dup10\n    /* \"#utility.yul\":9319:9336   */\n  and\n    /* \"#utility.yul\":9308:9317   */\n  dup3\n    /* \"#utility.yul\":9289:9337   */\n  tag_66\n  jump\t// in\ntag_187:\n    /* \"#utility.yul\":9281:9287   */\n  dup4\n    /* \"#utility.yul\":9274:9338   */\n  sstore\n    /* \"#utility.yul\":9196:9352   */\n  pop\n    /* \"#utility.yul\":9173:9352   */\ntag_186:\n    /* \"#utility.yul\":9398:9399   */\n  0x01\n    /* \"#utility.yul\":9394:9395   */\n  0x02\n    /* \"#utility.yul\":9386:9392   */\n  dup9\n    /* \"#utility.yul\":9382:9396   */\n  mul\n    /* \"#utility.yul\":9378:9400   */\n  add\n    /* \"#utility.yul\":9372:9376   */\n  dup9\n    /* \"#utility.yul\":9365:9401   */\n  sstore\n    /* \"#utility.yul\":8800:9411   */\n  pop\n  pop\n  pop\n    /* \"#utility.yul\":8763:9650   */\ntag_178:\n  pop\n    /* \"#utility.yul\":8353:9656   */\n  pop\n  pop\n  pop\n    /* \"#utility.yul\":8261:9656   */\n  pop\n  pop\n  jump\t// out\n    /* \"#utility.yul\":9662:9780   */\ntag_68:\n    /* \"#utility.yul\":9749:9773   */\n  tag_189\n    /* \"#utility.yul\":9767:9772   */\n  dup2\n    /* \"#utility.yul\":9749:9773   */\n  tag_34\n  jump\t// in\ntag_189:\n    /* \"#utility.yul\":9744:9747   */\n  dup3\n    /* \"#utility.yul\":9737:9774   */\n  mstore\n    /* \"#utility.yul\":9662:9780   */\n  pop\n  pop\n  jump\t// out\n    /* \"#utility.yul\":9786:9904   */\ntag_69:\n    /* \"#utility.yul\":9873:9897   */\n  tag_191\n    /* \"#utility.yul\":9891:9896   */\n  dup2\n    /* \"#utility.yul\":9873:9897   */\n  tag_47\n  jump\t// in\ntag_191:\n    /* \"#utility.yul\":9868:9871   */\n  dup3\n    /* \"#utility.yul\":9861:9898   */\n  mstore\n    /* \"#utility.yul\":9786:9904   */\n  pop\n  pop\n  jump\t// out\n    /* \"#utility.yul\":9910:10242   */\ntag_9:\n    /* \"#utility.yul\":10031:10035   */\n  0x00\n    /* \"#utility.yul\":10069:10071   */\n  0x40\n    /* \"#utility.yul\":10058:10067   */\n  dup3\n    /* \"#utility.yul\":10054:10072   */\n  add\n    /* \"#utility.yul\":10046:10072   */\n  swap1\n  pop\n    /* \"#utility.yul\":10082:10153   */\n  tag_193\n    /* \"#utility.yul\":10150:10151   */\n  0x00\n    /* \"#utility.yul\":10139:10148   */\n  dup4\n    /* \"#utility.yul\":10135:10152   */\n  add\n    /* \"#utility.yul\":10126:10132   */\n  dup6\n    /* \"#utility.yul\":10082:10153   */\n  tag_68\n  jump\t// in\ntag_193:\n    /* \"#utility.yul\":10163:10235   */\n  tag_194\n    /* \"#utility.yul\":10231:10233   */\n  0x20\n    /* \"#utility.yul\":10220:10229   */\n  dup4\n    /* \"#utility.yul\":10216:10234   */\n  add\n    /* \"#utility.yul\":10207:10213   */\n  dup5\n    /* \"#utility.yul\":10163:10235   */\n  tag_69\n  jump\t// in\ntag_194:\n    /* \"#utility.yul\":9910:10242   */\n  swap4\n  swap3\n  pop\n  pop\n  pop\n  jump\t// out\n    /* \"#utility.yul\":10248:10470   */\ntag_18:\n    /* \"#utility.yul\":10341:10345   */\n  0x00\n    /* \"#utility.yul\":10379:10381   */\n  0x20\n    /* \"#utility.yul\":10368:10377   */\n  dup3\n    /* \"#utility.yul\":10364:10382   */\n  add\n    /* \"#utility.yul\":10356:10382   */\n  swap1\n  pop\n    /* \"#utility.yul\":10392:10463   */\n  tag_196\n    /* \"#utility.yul\":10460:10461   */\n  0x00\n    /* \"#utility.yul\":10449:10458   */\n  dup4\n    /* \"#utility.yul\":10445:10462   */\n  add\n    /* \"#utility.yul\":10436:10442   */\n  dup5\n    /* \"#utility.yul\":10392:10463   */\n  tag_68\n  jump\t// in\ntag_196:\n    /* \"#utility.yul\":10248:10470   */\n  swap3\n  swap2\n  pop\n  pop\n  jump\t// out\n    /* \"#utility.yul\":10476:10827   */\ntag_22:\n    /* \"#utility.yul\":10546:10552   */\n  0x00\n    /* \"#utility.yul\":10595:10597   */\n  0x20\n    /* \"#utility.yul\":10583:10592   */\n  dup3\n    /* \"#utility.yul\":10574:10581   */\n  dup5\n    /* \"#utility.yul\":10570:10593   */\n  sub\n    /* \"#utility.yul\":10566:10598   */\n  slt\n    /* \"#utility.yul\":10563:10682   */\n  iszero\n  tag_198\n  jumpi\n    /* \"#utility.yul\":10601:10680   */\n  tag_199\n  tag_31\n  jump\t// in\ntag_199:\n    /* \"#utility.yul\":10563:10682   */\ntag_198:\n    /* \"#utility.yul\":10721:10722   */\n  0x00\n    /* \"#utility.yul\":10746:10810   */\n  tag_200\n    /* \"#utility.yul\":10802:10809   */\n  dup5\n    /* \"#utility.yul\":10793:10799   */\n  dup3\n    /* \"#utility.yul\":10782:10791   */\n  dup6\n    /* \"#utility.yul\":10778:10800   */\n  add\n    /* \"#utility.yul\":10746:10810   */\n  tag_49\n  jump\t// in\ntag_200:\n    /* \"#utility.yul\":10736:10810   */\n  swap2\n  pop\n    /* \"#utility.yul\":10692:10820   */\n  pop\n    /* \"#utility.yul\":10476:10827   */\n  swap3\n  swap2\n  pop\n  pop\n  jump\t// out\n    /* \"#utility.yul\":10833:11013   */\ntag_70:\n    /* \"#utility.yul\":10881:10958   */\n  0x4e487b7100000000000000000000000000000000000000000000000000000000\n    /* \"#utility.yul\":10878:10879   */\n  0x00\n    /* \"#utility.yul\":10871:10959   */\n  mstore\n    /* \"#utility.yul\":10978:10982   */\n  0x12\n    /* \"#utility.yul\":10975:10976   */\n  0x04\n    /* \"#utility.yul\":10968:10983   */\n  mstore\n    /* \"#utility.yul\":11002:11006   */\n  0x24\n    /* \"#utility.yul\":10999:11000   */\n  0x00\n    /* \"#utility.yul\":10992:11007   */\n  revert\n    /* \"#utility.yul\":11205:11390   */\ntag_28:\n    /* \"#utility.yul\":11245:11246   */\n  0x00\n    /* \"#utility.yul\":11262:11282   */\n  tag_204\n    /* \"#utility.yul\":11280:11281   */\n  dup3\n    /* \"#utility.yul\":11262:11282   */\n  tag_47\n  jump\t// in\ntag_204:\n    /* \"#utility.yul\":11257:11282   */\n  swap2\n  pop\n    /* \"#utility.yul\":11296:11316   */\n  tag_205\n    /* \"#utility.yul\":11314:11315   */\n  dup4\n    /* \"#utility.yul\":11296:11316   */\n  tag_47\n  jump\t// in\ntag_205:\n    /* \"#utility.yul\":11291:11316   */\n  swap3\n  pop\n    /* \"#utility.yul\":11335:11336   */\n  dup3\n    /* \"#utility.yul\":11325:11360   */\n  tag_206\n  jumpi\n    /* \"#utility.yul\":11340:11358   */\n  tag_207\n  tag_70\n  jump\t// in\ntag_207:\n    /* \"#utility.yul\":11325:11360   */\ntag_206:\n    /* \"#utility.yul\":11382:11383   */\n  dup3\n    /* \"#utility.yul\":11379:11380   */\n  dup3\n    /* \"#utility.yul\":11375:11384   */\n  div\n    /* \"#utility.yul\":11370:11384   */\n  swap1\n  pop\n    /* \"#utility.yul\":11205:11390   */\n  swap3\n  swap2\n  pop\n  pop\n  jump\t// out\n    /* \"levelup/newDex.sol\":912:4355  contract DEX_CTF {... */\ntag_29:\n  dataSize(sub_0)\n  dup1\n  dataOffset(sub_0)\n  0x00\n  codecopy\n  0x00\n  return\nstop\n\nsub_0: assembly {\n        /* \"levelup/newDex.sol\":912:4355  contract DEX_CTF {... */\n      mstore(0x40, 0x80)\n      callvalue\n      dup1\n      iszero\n      tag_1\n      jumpi\n      0x00\n      dup1\n      revert\n    tag_1:\n      pop\n      jumpi(tag_2, lt(calldatasize, 0x04))\n      shr(0xe0, calldataload(0x00))\n      dup1\n      0x8014a7aa\n      gt\n      tag_20\n      jumpi\n      dup1\n      0xab4d4c8a\n      gt\n      tag_21\n      jumpi\n      dup1\n      0xab4d4c8a\n      eq\n      tag_15\n      jumpi\n      dup1\n      0xbab38c1c\n      eq\n      tag_16\n      jumpi\n      dup1\n      0xe4f1f70a\n      eq\n      tag_17\n      jumpi\n      dup1\n      0xf9633930\n      eq\n      tag_18\n      jumpi\n      dup1\n      0xfe42c087\n      eq\n      tag_19\n      jumpi\n      jump(tag_2)\n    tag_21:\n      dup1\n      0x8014a7aa\n      eq\n      tag_11\n      jumpi\n      dup1\n      0x8119c065\n      eq\n      tag_12\n      jumpi\n      dup1\n      0x875aa254\n      eq\n      tag_13\n      jumpi\n      dup1\n      0xa5d0fa9d\n      eq\n      tag_14\n      jumpi\n      jump(tag_2)\n    tag_20:\n      dup1\n      0x2df8aaba\n      gt\n      tag_22\n      jumpi\n      dup1\n      0x2df8aaba\n      eq\n      tag_7\n      jumpi\n      dup1\n      0x54b1f84f\n      eq\n      tag_8\n      jumpi\n      dup1\n      0x5b4246d4\n      eq\n      tag_9\n      jumpi\n      dup1\n      0x5f64b55b\n      eq\n      tag_10\n      jumpi\n      jump(tag_2)\n    tag_22:\n      dup1\n      0x0fc63d10\n      eq\n      tag_3\n      jumpi\n      dup1\n      0x1cad2cac\n      eq\n      tag_4\n      jumpi\n      dup1\n      0x20297e97\n      eq\n      tag_5\n      jumpi\n      dup1\n      0x27692360\n      eq\n      tag_6\n      jumpi\n    tag_2:\n      0x00\n      dup1\n      revert\n        /* \"levelup/newDex.sol\":935:955  Itoken public tokenA */\n    tag_3:\n      tag_23\n      tag_24\n      jump\t// in\n    tag_23:\n      mload(0x40)\n      tag_25\n      swap2\n      swap1\n      tag_26\n      jump\t// in\n    tag_25:\n      mload(0x40)\n      dup1\n      swap2\n      sub\n      swap1\n      return\n        /* \"levelup/newDex.sol\":3649:3796  function balanceA(address _address) public view returns(uint256){... */\n    tag_4:\n      tag_27\n      0x04\n      dup1\n      calldatasize\n      sub\n      dup2\n      add\n      swap1\n      tag_28\n      swap2\n      swap1\n      tag_29\n      jump\t// in\n    tag_28:\n      tag_30\n      jump\t// in\n    tag_27:\n      mload(0x40)\n      tag_31\n      swap2\n      swap1\n      tag_32\n      jump\t// in\n    tag_31:\n      mload(0x40)\n      dup1\n      swap2\n      sub\n      swap1\n      return\n        /* \"levelup/newDex.sol\":3801:3948  function balanceB(address _address) public view returns(uint256){... */\n    tag_5:\n      tag_33\n      0x04\n      dup1\n      calldatasize\n      sub\n      dup2\n      add\n      swap1\n      tag_34\n      swap2\n      swap1\n      tag_29\n      jump\t// in\n    tag_34:\n      tag_35\n      jump\t// in\n    tag_33:\n      mload(0x40)\n      tag_36\n      swap2\n      swap1\n      tag_32\n      jump\t// in\n    tag_36:\n      mload(0x40)\n      dup1\n      swap2\n      sub\n      swap1\n      return\n        /* \"levelup/newDex.sol\":2557:2642  function mintA(uint256 amount) public {... */\n    tag_6:\n      tag_37\n      0x04\n      dup1\n      calldatasize\n      sub\n      dup2\n      add\n      swap1\n      tag_38\n      swap2\n      swap1\n      tag_39\n      jump\t// in\n    tag_38:\n      tag_40\n      jump\t// in\n    tag_37:\n      stop\n        /* \"levelup/newDex.sol\":2857:2974  function transferPatrick(address patrick,uint256 amount) public {... */\n    tag_7:\n      tag_41\n      0x04\n      dup1\n      calldatasize\n      sub\n      dup2\n      add\n      swap1\n      tag_42\n      swap2\n      swap1\n      tag_43\n      jump\t// in\n    tag_42:\n      tag_44\n      jump\t// in\n    tag_41:\n      stop\n        /* \"levelup/newDex.sol\":3333:3486  function allowanceA() public view returns(uint){... */\n    tag_8:\n      tag_45\n      tag_46\n      jump\t// in\n    tag_45:\n      mload(0x40)\n      tag_47\n      swap2\n      swap1\n      tag_32\n      jump\t// in\n    tag_47:\n      mload(0x40)\n      dup1\n      swap2\n      sub\n      swap1\n      return\n        /* \"levelup/newDex.sol\":1012:1037  uint256 public proportion */\n    tag_9:\n      tag_48\n      tag_49\n      jump\t// in\n    tag_48:\n      mload(0x40)\n      tag_50\n      swap2\n      swap1\n      tag_32\n      jump\t// in\n    tag_50:\n      mload(0x40)\n      dup1\n      swap2\n      sub\n      swap1\n      return\n        /* \"levelup/newDex.sol\":961:981  Itoken public tokenB */\n    tag_10:\n      tag_51\n      tag_52\n      jump\t// in\n    tag_51:\n      mload(0x40)\n      tag_53\n      swap2\n      swap1\n      tag_26\n      jump\t// in\n    tag_53:\n      mload(0x40)\n      dup1\n      swap2\n      sub\n      swap1\n      return\n        /* \"levelup/newDex.sol\":2036:2552  function swapBforA(uint256 quantity) public {... */\n    tag_11:\n      tag_54\n      0x04\n      dup1\n      calldatasize\n      sub\n      dup2\n      add\n      swap1\n      tag_55\n      swap2\n      swap1\n      tag_39\n      jump\t// in\n    tag_55:\n      tag_56\n      jump\t// in\n    tag_54:\n      stop\n        /* \"levelup/newDex.sol\":1043:1059  bool public swap */\n    tag_12:\n      tag_57\n      tag_58\n      jump\t// in\n    tag_57:\n      mload(0x40)\n      tag_59\n      swap2\n      swap1\n      tag_60\n      jump\t// in\n    tag_59:\n      mload(0x40)\n      dup1\n      swap2\n      sub\n      swap1\n      return\n        /* \"levelup/newDex.sol\":2648:2737  function mintB(uint256 amount) public {... */\n    tag_13:\n      tag_61\n      0x04\n      dup1\n      calldatasize\n      sub\n      dup2\n      add\n      swap1\n      tag_62\n      swap2\n      swap1\n      tag_39\n      jump\t// in\n    tag_62:\n      tag_63\n      jump\t// in\n    tag_61:\n      stop\n        /* \"levelup/newDex.sol\":3491:3644  function allowanceB() public view returns(uint){... */\n    tag_14:\n      tag_64\n      tag_65\n      jump\t// in\n    tag_64:\n      mload(0x40)\n      tag_66\n      swap2\n      swap1\n      tag_32\n      jump\t// in\n    tag_66:\n      mload(0x40)\n      dup1\n      swap2\n      sub\n      swap1\n      return\n        /* \"levelup/newDex.sol\":2742:2852  function burnA(uint256 amount) public {... */\n    tag_15:\n      tag_67\n      0x04\n      dup1\n      calldatasize\n      sub\n      dup2\n      add\n      swap1\n      tag_68\n      swap2\n      swap1\n      tag_39\n      jump\t// in\n    tag_68:\n      tag_69\n      jump\t// in\n    tag_67:\n      stop\n        /* \"levelup/newDex.sol\":2979:3151  function burningA(uint256 _amount) public{... */\n    tag_16:\n      tag_70\n      0x04\n      dup1\n      calldatasize\n      sub\n      dup2\n      add\n      swap1\n      tag_71\n      swap2\n      swap1\n      tag_39\n      jump\t// in\n    tag_71:\n      tag_72\n      jump\t// in\n    tag_70:\n      stop\n        /* \"levelup/newDex.sol\":1457:2031  function swapAforB(uint256 quantity) public  {... */\n    tag_17:\n      tag_73\n      0x04\n      dup1\n      calldatasize\n      sub\n      dup2\n      add\n      swap1\n      tag_74\n      swap2\n      swap1\n      tag_39\n      jump\t// in\n    tag_74:\n      tag_75\n      jump\t// in\n    tag_73:\n      stop\n        /* \"levelup/newDex.sol\":3954:4352  function getFlag() public view returns(string memory){... */\n    tag_18:\n      tag_76\n      tag_77\n      jump\t// in\n    tag_76:\n      mload(0x40)\n      tag_78\n      swap2\n      swap1\n      tag_79\n      jump\t// in\n    tag_78:\n      mload(0x40)\n      dup1\n      swap2\n      sub\n      swap1\n      return\n        /* \"levelup/newDex.sol\":3156:3328  function burningB(uint256 _amount) public{... */\n    tag_19:\n      tag_80\n      0x04\n      dup1\n      calldatasize\n      sub\n      dup2\n      add\n      swap1\n      tag_81\n      swap2\n      swap1\n      tag_39\n      jump\t// in\n    tag_81:\n      tag_82\n      jump\t// in\n    tag_80:\n      stop\n        /* \"levelup/newDex.sol\":935:955  Itoken public tokenA */\n    tag_24:\n      0x00\n      dup1\n      sload\n      swap1\n      0x0100\n      exp\n      swap1\n      div\n      0xffffffffffffffffffffffffffffffffffffffff\n      and\n      dup2\n      jump\t// out\n        /* \"levelup/newDex.sol\":3649:3796  function balanceA(address _address) public view returns(uint256){... */\n    tag_30:\n        /* \"levelup/newDex.sol\":3705:3712  uint256 */\n      0x00\n        /* \"levelup/newDex.sol\":3723:3737  uint256 result */\n      dup1\n        /* \"levelup/newDex.sol\":3739:3745  tokenA */\n      0x00\n      dup1\n      sload\n      swap1\n      0x0100\n      exp\n      swap1\n      div\n      0xffffffffffffffffffffffffffffffffffffffff\n      and\n        /* \"levelup/newDex.sol\":3739:3755  tokenA.balanceOf */\n      0xffffffffffffffffffffffffffffffffffffffff\n      and\n      0x70a08231\n        /* \"levelup/newDex.sol\":3756:3764  _address */\n      dup5\n        /* \"levelup/newDex.sol\":3739:3765  tokenA.balanceOf(_address) */\n      mload(0x40)\n      dup3\n      0xffffffff\n      and\n      0xe0\n      shl\n      dup2\n      mstore\n      0x04\n      add\n      tag_84\n      swap2\n      swap1\n      tag_85\n      jump\t// in\n    tag_84:\n      0x20\n      mload(0x40)\n      dup1\n      dup4\n      sub\n      dup2\n      dup7\n      gas\n      staticcall\n      iszero\n      dup1\n      iszero\n      tag_87\n      jumpi\n      returndatasize\n      0x00\n      dup1\n      returndatacopy\n      revert(0x00, returndatasize)\n    tag_87:\n      pop\n      pop\n      pop\n      pop\n      mload(0x40)\n      returndatasize\n      not(0x1f)\n      0x1f\n      dup3\n      add\n      and\n      dup3\n      add\n      dup1\n      0x40\n      mstore\n      pop\n      dup2\n      add\n      swap1\n      tag_88\n      swap2\n      swap1\n      tag_89\n      jump\t// in\n    tag_88:\n        /* \"levelup/newDex.sol\":3723:3765  uint256 result =tokenA.balanceOf(_address) */\n      swap1\n      pop\n        /* \"levelup/newDex.sol\":3782:3788  result */\n      dup1\n        /* \"levelup/newDex.sol\":3775:3789  return(result) */\n      swap2\n      pop\n      pop\n        /* \"levelup/newDex.sol\":3649:3796  function balanceA(address _address) public view returns(uint256){... */\n      swap2\n      swap1\n      pop\n      jump\t// out\n        /* \"levelup/newDex.sol\":3801:3948  function balanceB(address _address) public view returns(uint256){... */\n    tag_35:\n        /* \"levelup/newDex.sol\":3857:3864  uint256 */\n      0x00\n        /* \"levelup/newDex.sol\":3875:3889  uint256 result */\n      dup1\n        /* \"levelup/newDex.sol\":3891:3897  tokenB */\n      0x01\n      0x00\n      swap1\n      sload\n      swap1\n      0x0100\n      exp\n      swap1\n      div\n      0xffffffffffffffffffffffffffffffffffffffff\n      and\n        /* \"levelup/newDex.sol\":3891:3907  tokenB.balanceOf */\n      0xffffffffffffffffffffffffffffffffffffffff\n      and\n      0x70a08231\n        /* \"levelup/newDex.sol\":3908:3916  _address */\n      dup5\n        /* \"levelup/newDex.sol\":3891:3917  tokenB.balanceOf(_address) */\n      mload(0x40)\n      dup3\n      0xffffffff\n      and\n      0xe0\n      shl\n      dup2\n      mstore\n      0x04\n      add\n      tag_91\n      swap2\n      swap1\n      tag_85\n      jump\t// in\n    tag_91:\n      0x20\n      mload(0x40)\n      dup1\n      dup4\n      sub\n      dup2\n      dup7\n      gas\n      staticcall\n      iszero\n      dup1\n      iszero\n      tag_93\n      jumpi\n      returndatasize\n      0x00\n      dup1\n      returndatacopy\n      revert(0x00, returndatasize)\n    tag_93:\n      pop\n      pop\n      pop\n      pop\n      mload(0x40)\n      returndatasize\n      not(0x1f)\n      0x1f\n      dup3\n      add\n      and\n      dup3\n      add\n      dup1\n      0x40\n      mstore\n      pop\n      dup2\n      add\n      swap1\n      tag_94\n      swap2\n      swap1\n      tag_89\n      jump\t// in\n    tag_94:\n        /* \"levelup/newDex.sol\":3875:3917  uint256 result =tokenB.balanceOf(_address) */\n      swap1\n      pop\n        /* \"levelup/newDex.sol\":3934:3940  result */\n      dup1\n        /* \"levelup/newDex.sol\":3927:3941  return(result) */\n      swap2\n      pop\n      pop\n        /* \"levelup/newDex.sol\":3801:3948  function balanceB(address _address) public view returns(uint256){... */\n      swap2\n      swap1\n      pop\n      jump\t// out\n        /* \"levelup/newDex.sol\":2557:2642  function mintA(uint256 amount) public {... */\n    tag_40:\n        /* \"levelup/newDex.sol\":2605:2611  tokenA */\n      0x00\n      dup1\n      sload\n      swap1\n      0x0100\n      exp\n      swap1\n      div\n      0xffffffffffffffffffffffffffffffffffffffff\n      and\n        /* \"levelup/newDex.sol\":2605:2616  tokenA.mint */\n      0xffffffffffffffffffffffffffffffffffffffff\n      and\n      0x40c10f19\n        /* \"levelup/newDex.sol\":2617:2627  msg.sender */\n      caller\n        /* \"levelup/newDex.sol\":2628:2634  amount */\n      dup4\n        /* \"levelup/newDex.sol\":2605:2635  tokenA.mint(msg.sender,amount) */\n      mload(0x40)\n      dup4\n      0xffffffff\n      and\n      0xe0\n      shl\n      dup2\n      mstore\n      0x04\n      add\n      tag_96\n      swap3\n      swap2\n      swap1\n      tag_97\n      jump\t// in\n    tag_96:\n      0x00\n      mload(0x40)\n      dup1\n      dup4\n      sub\n      dup2\n      0x00\n      dup8\n      dup1\n      extcodesize\n      iszero\n      dup1\n      iszero\n      tag_98\n      jumpi\n      0x00\n      dup1\n      revert\n    tag_98:\n      pop\n      gas\n      call\n      iszero\n      dup1\n      iszero\n      tag_100\n      jumpi\n      returndatasize\n      0x00\n      dup1\n      returndatacopy\n      revert(0x00, returndatasize)\n    tag_100:\n      pop\n      pop\n      pop\n      pop\n        /* \"levelup/newDex.sol\":2557:2642  function mintA(uint256 amount) public {... */\n      pop\n      jump\t// out\n        /* \"levelup/newDex.sol\":2857:2974  function transferPatrick(address patrick,uint256 amount) public {... */\n    tag_44:\n        /* \"levelup/newDex.sol\":2931:2937  tokenA */\n      0x00\n      dup1\n      sload\n      swap1\n      0x0100\n      exp\n      swap1\n      div\n      0xffffffffffffffffffffffffffffffffffffffff\n      and\n        /* \"levelup/newDex.sol\":2931:2946  tokenA.transfer */\n      0xffffffffffffffffffffffffffffffffffffffff\n      and\n      0xa9059cbb\n        /* \"levelup/newDex.sol\":2947:2954  patrick */\n      dup4\n        /* \"levelup/newDex.sol\":2956:2962  amount */\n      dup4\n        /* \"levelup/newDex.sol\":2931:2963  tokenA.transfer(patrick, amount) */\n      mload(0x40)\n      dup4\n      0xffffffff\n      and\n      0xe0\n      shl\n      dup2\n      mstore\n      0x04\n      add\n      tag_102\n      swap3\n      swap2\n      swap1\n      tag_97\n      jump\t// in\n    tag_102:\n      0x20\n      mload(0x40)\n      dup1\n      dup4\n      sub\n      dup2\n      0x00\n      dup8\n      gas\n      call\n      iszero\n      dup1\n      iszero\n      tag_104\n      jumpi\n      returndatasize\n      0x00\n      dup1\n      returndatacopy\n      revert(0x00, returndatasize)\n    tag_104:\n      pop\n      pop\n      pop\n      pop\n      mload(0x40)\n      returndatasize\n      not(0x1f)\n      0x1f\n      dup3\n      add\n      and\n      dup3\n      add\n      dup1\n      0x40\n      mstore\n      pop\n      dup2\n      add\n      swap1\n      tag_105\n      swap2\n      swap1\n      tag_106\n      jump\t// in\n    tag_105:\n      pop\n        /* \"levelup/newDex.sol\":2857:2974  function transferPatrick(address patrick,uint256 amount) public {... */\n      pop\n      pop\n      jump\t// out\n        /* \"levelup/newDex.sol\":3333:3486  function allowanceA() public view returns(uint){... */\n    tag_46:\n        /* \"levelup/newDex.sol\":3375:3379  uint */\n      0x00\n        /* \"levelup/newDex.sol\":3390:3404  uint allowedTo */\n      dup1\n        /* \"levelup/newDex.sol\":3405:3411  tokenA */\n      0x00\n      dup1\n      sload\n      swap1\n      0x0100\n      exp\n      swap1\n      div\n      0xffffffffffffffffffffffffffffffffffffffff\n      and\n        /* \"levelup/newDex.sol\":3405:3421  tokenA.allowance */\n      0xffffffffffffffffffffffffffffffffffffffff\n      and\n      0xdd62ed3e\n        /* \"levelup/newDex.sol\":3422:3432  msg.sender */\n      caller\n        /* \"levelup/newDex.sol\":3442:3446  this */\n      address\n        /* \"levelup/newDex.sol\":3405:3448  tokenA.allowance(msg.sender, address(this)) */\n      mload(0x40)\n      dup4\n      0xffffffff\n      and\n      0xe0\n      shl\n      dup2\n      mstore\n      0x04\n      add\n      tag_108\n      swap3\n      swap2\n      swap1\n      tag_109\n      jump\t// in\n    tag_108:\n      0x20\n      mload(0x40)\n      dup1\n      dup4\n      sub\n      dup2\n      dup7\n      gas\n      staticcall\n      iszero\n      dup1\n      iszero\n      tag_111\n      jumpi\n      returndatasize\n      0x00\n      dup1\n      returndatacopy\n      revert(0x00, returndatasize)\n    tag_111:\n      pop\n      pop\n      pop\n      pop\n      mload(0x40)\n      returndatasize\n      not(0x1f)\n      0x1f\n      dup3\n      add\n      and\n      dup3\n      add\n      dup1\n      0x40\n      mstore\n      pop\n      dup2\n      add\n      swap1\n      tag_112\n      swap2\n      swap1\n      tag_89\n      jump\t// in\n    tag_112:\n        /* \"levelup/newDex.sol\":3390:3448  uint allowedTo=tokenA.allowance(msg.sender, address(this)) */\n      swap1\n      pop\n        /* \"levelup/newDex.sol\":3465:3474  allowedTo */\n      dup1\n        /* \"levelup/newDex.sol\":3458:3475  return(allowedTo) */\n      swap2\n      pop\n      pop\n        /* \"levelup/newDex.sol\":3333:3486  function allowanceA() public view returns(uint){... */\n      swap1\n      jump\t// out\n        /* \"levelup/newDex.sol\":1012:1037  uint256 public proportion */\n    tag_49:\n      sload(0x03)\n      dup2\n      jump\t// out\n        /* \"levelup/newDex.sol\":961:981  Itoken public tokenB */\n    tag_52:\n      0x01\n      0x00\n      swap1\n      sload\n      swap1\n      0x0100\n      exp\n      swap1\n      div\n      0xffffffffffffffffffffffffffffffffffffffff\n      and\n      dup2\n      jump\t// out\n        /* \"levelup/newDex.sol\":2036:2552  function swapBforA(uint256 quantity) public {... */\n    tag_56:\n        /* \"levelup/newDex.sol\":2109:2119  proportion */\n      sload(0x03)\n        /* \"levelup/newDex.sol\":2098:2106  quantity */\n      dup2\n        /* \"levelup/newDex.sol\":2098:2119  quantity > proportion */\n      gt\n        /* \"levelup/newDex.sol\":2090:2138  require(quantity > proportion, \"Not fair trade\") */\n      tag_114\n      jumpi\n      mload(0x40)\n      0x08c379a000000000000000000000000000000000000000000000000000000000\n      dup2\n      mstore\n      0x04\n      add\n      tag_115\n      swap1\n      tag_116\n      jump\t// in\n    tag_115:\n      mload(0x40)\n      dup1\n      swap2\n      sub\n      swap1\n      revert\n    tag_114:\n        /* \"levelup/newDex.sol\":2188:2196  quantity */\n      dup1\n        /* \"levelup/newDex.sol\":2156:2162  tokenB */\n      0x01\n      0x00\n      swap1\n      sload\n      swap1\n      0x0100\n      exp\n      swap1\n      div\n      0xffffffffffffffffffffffffffffffffffffffff\n      and\n        /* \"levelup/newDex.sol\":2156:2172  tokenB.balanceOf */\n      0xffffffffffffffffffffffffffffffffffffffff\n      and\n      0x70a08231\n        /* \"levelup/newDex.sol\":2173:2183  msg.sender */\n      caller\n        /* \"levelup/newDex.sol\":2156:2184  tokenB.balanceOf(msg.sender) */\n      mload(0x40)\n      dup3\n      0xffffffff\n      and\n      0xe0\n      shl\n      dup2\n      mstore\n      0x04\n      add\n      tag_117\n      swap2\n      swap1\n      tag_85\n      jump\t// in\n    tag_117:\n      0x20\n      mload(0x40)\n      dup1\n      dup4\n      sub\n      dup2\n      dup7\n      gas\n      staticcall\n      iszero\n      dup1\n      iszero\n      tag_119\n      jumpi\n      returndatasize\n      0x00\n      dup1\n      returndatacopy\n      revert(0x00, returndatasize)\n    tag_119:\n      pop\n      pop\n      pop\n      pop\n      mload(0x40)\n      returndatasize\n      not(0x1f)\n      0x1f\n      dup3\n      add\n      and\n      dup3\n      add\n      dup1\n      0x40\n      mstore\n      pop\n      dup2\n      add\n      swap1\n      tag_120\n      swap2\n      swap1\n      tag_89\n      jump\t// in\n    tag_120:\n        /* \"levelup/newDex.sol\":2156:2196  tokenB.balanceOf(msg.sender) >= quantity */\n      lt\n      iszero\n        /* \"levelup/newDex.sol\":2148:2228  require(tokenB.balanceOf(msg.sender) >= quantity, \"Insufficient tokenB balance\") */\n      tag_121\n      jumpi\n      mload(0x40)\n      0x08c379a000000000000000000000000000000000000000000000000000000000\n      dup2\n      mstore\n      0x04\n      add\n      tag_122\n      swap1\n      tag_123\n      jump\t// in\n    tag_122:\n      mload(0x40)\n      dup1\n      swap2\n      sub\n      swap1\n      revert\n    tag_121:\n        /* \"levelup/newDex.sol\":2293:2303  proportion */\n      sload(0x03)\n        /* \"levelup/newDex.sol\":2284:2292  quantity */\n      dup2\n        /* \"levelup/newDex.sol\":2284:2303  quantity/proportion */\n      tag_124\n      swap2\n      swap1\n      tag_125\n      jump\t// in\n    tag_124:\n        /* \"levelup/newDex.sol\":2248:2254  tokenA */\n      0x00\n      dup1\n      sload\n      swap1\n      0x0100\n      exp\n      swap1\n      div\n      0xffffffffffffffffffffffffffffffffffffffff\n      and\n        /* \"levelup/newDex.sol\":2248:2264  tokenA.balanceOf */\n      0xffffffffffffffffffffffffffffffffffffffff\n      and\n      0x70a08231\n        /* \"levelup/newDex.sol\":2273:2277  this */\n      address\n        /* \"levelup/newDex.sol\":2248:2279  tokenA.balanceOf(address(this)) */\n      mload(0x40)\n      dup3\n      0xffffffff\n      and\n      0xe0\n      shl\n      dup2\n      mstore\n      0x04\n      add\n      tag_126\n      swap2\n      swap1\n      tag_85\n      jump\t// in\n    tag_126:\n      0x20\n      mload(0x40)\n      dup1\n      dup4\n      sub\n      dup2\n      dup7\n      gas\n      staticcall\n      iszero\n      dup1\n      iszero\n      tag_128\n      jumpi\n      returndatasize\n      0x00\n      dup1\n      returndatacopy\n      revert(0x00, returndatasize)\n    tag_128:\n      pop\n      pop\n      pop\n      pop\n      mload(0x40)\n      returndatasize\n      not(0x1f)\n      0x1f\n      dup3\n      add\n      and\n      dup3\n      add\n      dup1\n      0x40\n      mstore\n      pop\n      dup2\n      add\n      swap1\n      tag_129\n      swap2\n      swap1\n      tag_89\n      jump\t// in\n    tag_129:\n        /* \"levelup/newDex.sol\":2248:2304  tokenA.balanceOf(address(this)) >= (quantity/proportion) */\n      lt\n      iszero\n        /* \"levelup/newDex.sol\":2238:2343  require(( tokenA.balanceOf(address(this)) >= (quantity/proportion)), \"Not enough liquidity for the swap\") */\n      tag_130\n      jumpi\n      mload(0x40)\n      0x08c379a000000000000000000000000000000000000000000000000000000000\n      dup2\n      mstore\n      0x04\n      add\n      tag_131\n      swap1\n      tag_132\n      jump\t// in\n    tag_131:\n      mload(0x40)\n      dup1\n      swap2\n      sub\n      swap1\n      revert\n    tag_130:\n        /* \"levelup/newDex.sol\":2354:2360  tokenB */\n      0x01\n      0x00\n      swap1\n      sload\n      swap1\n      0x0100\n      exp\n      swap1\n      div\n      0xffffffffffffffffffffffffffffffffffffffff\n      and\n        /* \"levelup/newDex.sol\":2354:2373  tokenB.transferFrom */\n      0xffffffffffffffffffffffffffffffffffffffff\n      and\n      0x23b872dd\n        /* \"levelup/newDex.sol\":2374:2384  msg.sender */\n      caller\n        /* \"levelup/newDex.sol\":2394:2398  this */\n      address\n        /* \"levelup/newDex.sol\":2401:2409  quantity */\n      dup5\n        /* \"levelup/newDex.sol\":2354:2410  tokenB.transferFrom(msg.sender, address(this), quantity) */\n      mload(0x40)\n      dup5\n      0xffffffff\n      and\n      0xe0\n      shl\n      dup2\n      mstore\n      0x04\n      add\n      tag_133\n      swap4\n      swap3\n      swap2\n      swap1\n      tag_134\n      jump\t// in\n    tag_133:\n      0x20\n      mload(0x40)\n      dup1\n      dup4\n      sub\n      dup2\n      0x00\n      dup8\n      gas\n      call\n      iszero\n      dup1\n      iszero\n      tag_136\n      jumpi\n      returndatasize\n      0x00\n      dup1\n      returndatacopy\n      revert(0x00, returndatasize)\n    tag_136:\n      pop\n      pop\n      pop\n      pop\n      mload(0x40)\n      returndatasize\n      not(0x1f)\n      0x1f\n      dup3\n      add\n      and\n      dup3\n      add\n      dup1\n      0x40\n      mstore\n      pop\n      dup2\n      add\n      swap1\n      tag_137\n      swap2\n      swap1\n      tag_106\n      jump\t// in\n    tag_137:\n      pop\n        /* \"levelup/newDex.sol\":2420:2444  uint256 receivedQuantity */\n      0x00\n        /* \"levelup/newDex.sol\":2458:2468  proportion */\n      sload(0x03)\n        /* \"levelup/newDex.sol\":2447:2455  quantity */\n      dup3\n        /* \"levelup/newDex.sol\":2447:2468  quantity / proportion */\n      tag_138\n      swap2\n      swap1\n      tag_125\n      jump\t// in\n    tag_138:\n        /* \"levelup/newDex.sol\":2420:2468  uint256 receivedQuantity = quantity / proportion */\n      swap1\n      pop\n        /* \"levelup/newDex.sol\":2478:2484  tokenA */\n      0x00\n      dup1\n      sload\n      swap1\n      0x0100\n      exp\n      swap1\n      div\n      0xffffffffffffffffffffffffffffffffffffffff\n      and\n        /* \"levelup/newDex.sol\":2478:2493  tokenA.transfer */\n      0xffffffffffffffffffffffffffffffffffffffff\n      and\n      0xa9059cbb\n        /* \"levelup/newDex.sol\":2495:2505  msg.sender */\n      caller\n        /* \"levelup/newDex.sol\":2507:2523  receivedQuantity */\n      dup4\n        /* \"levelup/newDex.sol\":2478:2524  tokenA.transfer( msg.sender, receivedQuantity) */\n      mload(0x40)\n      dup4\n      0xffffffff\n      and\n      0xe0\n      shl\n      dup2\n      mstore\n      0x04\n      add\n      tag_139\n      swap3\n      swap2\n      swap1\n      tag_97\n      jump\t// in\n    tag_139:\n      0x20\n      mload(0x40)\n      dup1\n      dup4\n      sub\n      dup2\n      0x00\n      dup8\n      gas\n      call\n      iszero\n      dup1\n      iszero\n      tag_141\n      jumpi\n      returndatasize\n      0x00\n      dup1\n      returndatacopy\n      revert(0x00, returndatasize)\n    tag_141:\n      pop\n      pop\n      pop\n      pop\n      mload(0x40)\n      returndatasize\n      not(0x1f)\n      0x1f\n      dup3\n      add\n      and\n      dup3\n      add\n      dup1\n      0x40\n      mstore\n      pop\n      dup2\n      add\n      swap1\n      tag_142\n      swap2\n      swap1\n      tag_106\n      jump\t// in\n    tag_142:\n      pop\n        /* \"levelup/newDex.sol\":2541:2545  true */\n      0x01\n        /* \"levelup/newDex.sol\":2534:2538  swap */\n      0x04\n      0x00\n        /* \"levelup/newDex.sol\":2534:2545  swap = true */\n      0x0100\n      exp\n      dup2\n      sload\n      dup2\n      0xff\n      mul\n      not\n      and\n      swap1\n      dup4\n      iszero\n      iszero\n      mul\n      or\n      swap1\n      sstore\n      pop\n        /* \"levelup/newDex.sol\":2080:2552  {... */\n      pop\n        /* \"levelup/newDex.sol\":2036:2552  function swapBforA(uint256 quantity) public {... */\n      pop\n      jump\t// out\n        /* \"levelup/newDex.sol\":1043:1059  bool public swap */\n    tag_58:\n      0x04\n      0x00\n      swap1\n      sload\n      swap1\n      0x0100\n      exp\n      swap1\n      div\n      0xff\n      and\n      dup2\n      jump\t// out\n        /* \"levelup/newDex.sol\":2648:2737  function mintB(uint256 amount) public {... */\n    tag_63:\n        /* \"levelup/newDex.sol\":2696:2702  tokenB */\n      0x01\n      0x00\n      swap1\n      sload\n      swap1\n      0x0100\n      exp\n      swap1\n      div\n      0xffffffffffffffffffffffffffffffffffffffff\n      and\n        /* \"levelup/newDex.sol\":2696:2707  tokenB.mint */\n      0xffffffffffffffffffffffffffffffffffffffff\n      and\n      0x40c10f19\n        /* \"levelup/newDex.sol\":2708:2718  msg.sender */\n      caller\n        /* \"levelup/newDex.sol\":2719:2725  amount */\n      dup4\n        /* \"levelup/newDex.sol\":2696:2726  tokenB.mint(msg.sender,amount) */\n      mload(0x40)\n      dup4\n      0xffffffff\n      and\n      0xe0\n      shl\n      dup2\n      mstore\n      0x04\n      add\n      tag_144\n      swap3\n      swap2\n      swap1\n      tag_97\n      jump\t// in\n    tag_144:\n      0x00\n      mload(0x40)\n      dup1\n      dup4\n      sub\n      dup2\n      0x00\n      dup8\n      dup1\n      extcodesize\n      iszero\n      dup1\n      iszero\n      tag_145\n      jumpi\n      0x00\n      dup1\n      revert\n    tag_145:\n      pop\n      gas\n      call\n      iszero\n      dup1\n      iszero\n      tag_147\n      jumpi\n      returndatasize\n      0x00\n      dup1\n      returndatacopy\n      revert(0x00, returndatasize)\n    tag_147:\n      pop\n      pop\n      pop\n      pop\n        /* \"levelup/newDex.sol\":2648:2737  function mintB(uint256 amount) public {... */\n      pop\n      jump\t// out\n        /* \"levelup/newDex.sol\":3491:3644  function allowanceB() public view returns(uint){... */\n    tag_65:\n        /* \"levelup/newDex.sol\":3533:3537  uint */\n      0x00\n        /* \"levelup/newDex.sol\":3548:3562  uint allowedTo */\n      dup1\n        /* \"levelup/newDex.sol\":3563:3569  tokenB */\n      0x01\n      0x00\n      swap1\n      sload\n      swap1\n      0x0100\n      exp\n      swap1\n      div\n      0xffffffffffffffffffffffffffffffffffffffff\n      and\n        /* \"levelup/newDex.sol\":3563:3579  tokenB.allowance */\n      0xffffffffffffffffffffffffffffffffffffffff\n      and\n      0xdd62ed3e\n        /* \"levelup/newDex.sol\":3580:3590  msg.sender */\n      caller\n        /* \"levelup/newDex.sol\":3600:3604  this */\n      address\n        /* \"levelup/newDex.sol\":3563:3606  tokenB.allowance(msg.sender, address(this)) */\n      mload(0x40)\n      dup4\n      0xffffffff\n      and\n      0xe0\n      shl\n      dup2\n      mstore\n      0x04\n      add\n      tag_149\n      swap3\n      swap2\n      swap1\n      tag_109\n      jump\t// in\n    tag_149:\n      0x20\n      mload(0x40)\n      dup1\n      dup4\n      sub\n      dup2\n      dup7\n      gas\n      staticcall\n      iszero\n      dup1\n      iszero\n      tag_151\n      jumpi\n      returndatasize\n      0x00\n      dup1\n      returndatacopy\n      revert(0x00, returndatasize)\n    tag_151:\n      pop\n      pop\n      pop\n      pop\n      mload(0x40)\n      returndatasize\n      not(0x1f)\n      0x1f\n      dup3\n      add\n      and\n      dup3\n      add\n      dup1\n      0x40\n      mstore\n      pop\n      dup2\n      add\n      swap1\n      tag_152\n      swap2\n      swap1\n      tag_89\n      jump\t// in\n    tag_152:\n        /* \"levelup/newDex.sol\":3548:3606  uint allowedTo=tokenB.allowance(msg.sender, address(this)) */\n      swap1\n      pop\n        /* \"levelup/newDex.sol\":3623:3632  allowedTo */\n      dup1\n        /* \"levelup/newDex.sol\":3616:3633  return(allowedTo) */\n      swap2\n      pop\n      pop\n        /* \"levelup/newDex.sol\":3491:3644  function allowanceB() public view returns(uint){... */\n      swap1\n      jump\t// out\n        /* \"levelup/newDex.sol\":2742:2852  function burnA(uint256 amount) public {... */\n    tag_69:\n        /* \"levelup/newDex.sol\":2790:2796  tokenA */\n      0x00\n      dup1\n      sload\n      swap1\n      0x0100\n      exp\n      swap1\n      div\n      0xffffffffffffffffffffffffffffffffffffffff\n      and\n        /* \"levelup/newDex.sol\":2790:2809  tokenA.transferFrom */\n      0xffffffffffffffffffffffffffffffffffffffff\n      and\n      0x23b872dd\n        /* \"levelup/newDex.sol\":2810:2820  msg.sender */\n      caller\n        /* \"levelup/newDex.sol\":2830:2831  0 */\n      0x00\n        /* \"levelup/newDex.sol\":2834:2840  amount */\n      dup5\n        /* \"levelup/newDex.sol\":2790:2841  tokenA.transferFrom(msg.sender, address(0), amount) */\n      mload(0x40)\n      dup5\n      0xffffffff\n      and\n      0xe0\n      shl\n      dup2\n      mstore\n      0x04\n      add\n      tag_154\n      swap4\n      swap3\n      swap2\n      swap1\n      tag_134\n      jump\t// in\n    tag_154:\n      0x20\n      mload(0x40)\n      dup1\n      dup4\n      sub\n      dup2\n      0x00\n      dup8\n      gas\n      call\n      iszero\n      dup1\n      iszero\n      tag_156\n      jumpi\n      returndatasize\n      0x00\n      dup1\n      returndatacopy\n      revert(0x00, returndatasize)\n    tag_156:\n      pop\n      pop\n      pop\n      pop\n      mload(0x40)\n      returndatasize\n      not(0x1f)\n      0x1f\n      dup3\n      add\n      and\n      dup3\n      add\n      dup1\n      0x40\n      mstore\n      pop\n      dup2\n      add\n      swap1\n      tag_157\n      swap2\n      swap1\n      tag_106\n      jump\t// in\n    tag_157:\n      pop\n        /* \"levelup/newDex.sol\":2742:2852  function burnA(uint256 amount) public {... */\n      pop\n      jump\t// out\n        /* \"levelup/newDex.sol\":2979:3151  function burningA(uint256 _amount) public{... */\n    tag_72:\n        /* \"levelup/newDex.sol\":3068:3075  _amount */\n      dup1\n        /* \"levelup/newDex.sol\":3038:3044  tokenA */\n      0x00\n      dup1\n      sload\n      swap1\n      0x0100\n      exp\n      swap1\n      div\n      0xffffffffffffffffffffffffffffffffffffffff\n      and\n        /* \"levelup/newDex.sol\":3038:3054  tokenA.balanceOf */\n      0xffffffffffffffffffffffffffffffffffffffff\n      and\n      0x70a08231\n        /* \"levelup/newDex.sol\":3055:3065  msg.sender */\n      caller\n        /* \"levelup/newDex.sol\":3038:3066  tokenA.balanceOf(msg.sender) */\n      mload(0x40)\n      dup3\n      0xffffffff\n      and\n      0xe0\n      shl\n      dup2\n      mstore\n      0x04\n      add\n      tag_159\n      swap2\n      swap1\n      tag_85\n      jump\t// in\n    tag_159:\n      0x20\n      mload(0x40)\n      dup1\n      dup4\n      sub\n      dup2\n      dup7\n      gas\n      staticcall\n      iszero\n      dup1\n      iszero\n      tag_161\n      jumpi\n      returndatasize\n      0x00\n      dup1\n      returndatacopy\n      revert(0x00, returndatasize)\n    tag_161:\n      pop\n      pop\n      pop\n      pop\n      mload(0x40)\n      returndatasize\n      not(0x1f)\n      0x1f\n      dup3\n      add\n      and\n      dup3\n      add\n      dup1\n      0x40\n      mstore\n      pop\n      dup2\n      add\n      swap1\n      tag_162\n      swap2\n      swap1\n      tag_89\n      jump\t// in\n    tag_162:\n        /* \"levelup/newDex.sol\":3038:3075  tokenA.balanceOf(msg.sender)>=_amount */\n      lt\n      iszero\n        /* \"levelup/newDex.sol\":3030:3102  require(tokenA.balanceOf(msg.sender)>=_amount ,\"No tienes esa cantidad\") */\n      tag_163\n      jumpi\n      mload(0x40)\n      0x08c379a000000000000000000000000000000000000000000000000000000000\n      dup2\n      mstore\n      0x04\n      add\n      tag_164\n      swap1\n      tag_165\n      jump\t// in\n    tag_164:\n      mload(0x40)\n      dup1\n      swap2\n      sub\n      swap1\n      revert\n    tag_163:\n        /* \"levelup/newDex.sol\":3112:3118  tokenA */\n      0x00\n      dup1\n      sload\n      swap1\n      0x0100\n      exp\n      swap1\n      div\n      0xffffffffffffffffffffffffffffffffffffffff\n      and\n        /* \"levelup/newDex.sol\":3112:3123  tokenA.burn */\n      0xffffffffffffffffffffffffffffffffffffffff\n      and\n      0x9dc29fac\n        /* \"levelup/newDex.sol\":3124:3134  msg.sender */\n      caller\n        /* \"levelup/newDex.sol\":3136:3143  _amount */\n      dup4\n        /* \"levelup/newDex.sol\":3112:3144  tokenA.burn(msg.sender, _amount) */\n      mload(0x40)\n      dup4\n      0xffffffff\n      and\n      0xe0\n      shl\n      dup2\n      mstore\n      0x04\n      add\n      tag_166\n      swap3\n      swap2\n      swap1\n      tag_97\n      jump\t// in\n    tag_166:\n      0x00\n      mload(0x40)\n      dup1\n      dup4\n      sub\n      dup2\n      0x00\n      dup8\n      dup1\n      extcodesize\n      iszero\n      dup1\n      iszero\n      tag_167\n      jumpi\n      0x00\n      dup1\n      revert\n    tag_167:\n      pop\n      gas\n      call\n      iszero\n      dup1\n      iszero\n      tag_169\n      jumpi\n      returndatasize\n      0x00\n      dup1\n      returndatacopy\n      revert(0x00, returndatasize)\n    tag_169:\n      pop\n      pop\n      pop\n      pop\n        /* \"levelup/newDex.sol\":2979:3151  function burningA(uint256 _amount) public{... */\n      pop\n      jump\t// out\n        /* \"levelup/newDex.sol\":1457:2031  function swapAforB(uint256 quantity) public  {... */\n    tag_75:\n        /* \"levelup/newDex.sol\":1551:1559  quantity */\n      dup1\n        /* \"levelup/newDex.sol\":1520:1526  tokenA */\n      0x00\n      dup1\n      sload\n      swap1\n      0x0100\n      exp\n      swap1\n      div\n      0xffffffffffffffffffffffffffffffffffffffff\n      and\n        /* \"levelup/newDex.sol\":1520:1536  tokenA.balanceOf */\n      0xffffffffffffffffffffffffffffffffffffffff\n      and\n      0x70a08231\n        /* \"levelup/newDex.sol\":1537:1547  msg.sender */\n      caller\n        /* \"levelup/newDex.sol\":1520:1548  tokenA.balanceOf(msg.sender) */\n      mload(0x40)\n      dup3\n      0xffffffff\n      and\n      0xe0\n      shl\n      dup2\n      mstore\n      0x04\n      add\n      tag_171\n      swap2\n      swap1\n      tag_85\n      jump\t// in\n    tag_171:\n      0x20\n      mload(0x40)\n      dup1\n      dup4\n      sub\n      dup2\n      dup7\n      gas\n      staticcall\n      iszero\n      dup1\n      iszero\n      tag_173\n      jumpi\n      returndatasize\n      0x00\n      dup1\n      returndatacopy\n      revert(0x00, returndatasize)\n    tag_173:\n      pop\n      pop\n      pop\n      pop\n      mload(0x40)\n      returndatasize\n      not(0x1f)\n      0x1f\n      dup3\n      add\n      and\n      dup3\n      add\n      dup1\n      0x40\n      mstore\n      pop\n      dup2\n      add\n      swap1\n      tag_174\n      swap2\n      swap1\n      tag_89\n      jump\t// in\n    tag_174:\n        /* \"levelup/newDex.sol\":1520:1559  tokenA.balanceOf(msg.sender)>= quantity */\n      lt\n      iszero\n        /* \"levelup/newDex.sol\":1512:1591  require(tokenA.balanceOf(msg.sender)>= quantity, \"Insufficient tokenA balance\") */\n      tag_175\n      jumpi\n      mload(0x40)\n      0x08c379a000000000000000000000000000000000000000000000000000000000\n      dup2\n      mstore\n      0x04\n      add\n      tag_176\n      swap1\n      tag_177\n      jump\t// in\n    tag_176:\n      mload(0x40)\n      dup1\n      swap2\n      sub\n      swap1\n      revert\n    tag_175:\n        /* \"levelup/newDex.sol\":1653:1663  proportion */\n      sload(0x03)\n        /* \"levelup/newDex.sol\":1644:1652  quantity */\n      dup2\n        /* \"levelup/newDex.sol\":1644:1663  quantity*proportion */\n      tag_178\n      swap2\n      swap1\n      tag_179\n      jump\t// in\n    tag_178:\n        /* \"levelup/newDex.sol\":1610:1616  tokenB */\n      0x01\n      0x00\n      swap1\n      sload\n      swap1\n      0x0100\n      exp\n      swap1\n      div\n      0xffffffffffffffffffffffffffffffffffffffff\n      and\n        /* \"levelup/newDex.sol\":1610:1626  tokenB.balanceOf */\n      0xffffffffffffffffffffffffffffffffffffffff\n      and\n      0x70a08231\n        /* \"levelup/newDex.sol\":1635:1639  this */\n      address\n        /* \"levelup/newDex.sol\":1610:1641  tokenB.balanceOf(address(this)) */\n      mload(0x40)\n      dup3\n      0xffffffff\n      and\n      0xe0\n      shl\n      dup2\n      mstore\n      0x04\n      add\n      tag_180\n      swap2\n      swap1\n      tag_85\n      jump\t// in\n    tag_180:\n      0x20\n      mload(0x40)\n      dup1\n      dup4\n      sub\n      dup2\n      dup7\n      gas\n      staticcall\n      iszero\n      dup1\n      iszero\n      tag_182\n      jumpi\n      returndatasize\n      0x00\n      dup1\n      returndatacopy\n      revert(0x00, returndatasize)\n    tag_182:\n      pop\n      pop\n      pop\n      pop\n      mload(0x40)\n      returndatasize\n      not(0x1f)\n      0x1f\n      dup3\n      add\n      and\n      dup3\n      add\n      dup1\n      0x40\n      mstore\n      pop\n      dup2\n      add\n      swap1\n      tag_183\n      swap2\n      swap1\n      tag_89\n      jump\t// in\n    tag_183:\n        /* \"levelup/newDex.sol\":1610:1664  tokenB.balanceOf(address(this))>=(quantity*proportion) */\n      lt\n      iszero\n        /* \"levelup/newDex.sol\":1601:1702  require((tokenB.balanceOf(address(this))>=(quantity*proportion)),\"Not enough liquidity for the swap\") */\n      tag_184\n      jumpi\n      mload(0x40)\n      0x08c379a000000000000000000000000000000000000000000000000000000000\n      dup2\n      mstore\n      0x04\n      add\n      tag_185\n      swap1\n      tag_132\n      jump\t// in\n    tag_185:\n      mload(0x40)\n      dup1\n      swap2\n      sub\n      swap1\n      revert\n    tag_184:\n        /* \"levelup/newDex.sol\":1721:1727  tokenA */\n      0x00\n      dup1\n      sload\n      swap1\n      0x0100\n      exp\n      swap1\n      div\n      0xffffffffffffffffffffffffffffffffffffffff\n      and\n        /* \"levelup/newDex.sol\":1721:1740  tokenA.transferFrom */\n      0xffffffffffffffffffffffffffffffffffffffff\n      and\n      0x23b872dd\n        /* \"levelup/newDex.sol\":1741:1751  msg.sender */\n      caller\n        /* \"levelup/newDex.sol\":1761:1765  this */\n      address\n        /* \"levelup/newDex.sol\":1768:1776  quantity */\n      dup5\n        /* \"levelup/newDex.sol\":1721:1777  tokenA.transferFrom(msg.sender, address(this), quantity) */\n      mload(0x40)\n      dup5\n      0xffffffff\n      and\n      0xe0\n      shl\n      dup2\n      mstore\n      0x04\n      add\n      tag_186\n      swap4\n      swap3\n      swap2\n      swap1\n      tag_134\n      jump\t// in\n    tag_186:\n      0x20\n      mload(0x40)\n      dup1\n      dup4\n      sub\n      dup2\n      0x00\n      dup8\n      gas\n      call\n      iszero\n      dup1\n      iszero\n      tag_188\n      jumpi\n      returndatasize\n      0x00\n      dup1\n      returndatacopy\n      revert(0x00, returndatasize)\n    tag_188:\n      pop\n      pop\n      pop\n      pop\n      mload(0x40)\n      returndatasize\n      not(0x1f)\n      0x1f\n      dup3\n      add\n      and\n      dup3\n      add\n      dup1\n      0x40\n      mstore\n      pop\n      dup2\n      add\n      swap1\n      tag_189\n      swap2\n      swap1\n      tag_106\n      jump\t// in\n    tag_189:\n        /* \"levelup/newDex.sol\":1713:1825  require(tokenA.transferFrom(msg.sender, address(this), quantity), \"Transfer from msg.sender to contract failed\") */\n      tag_190\n      jumpi\n      mload(0x40)\n      0x08c379a000000000000000000000000000000000000000000000000000000000\n      dup2\n      mstore\n      0x04\n      add\n      tag_191\n      swap1\n      tag_192\n      jump\t// in\n    tag_191:\n      mload(0x40)\n      dup1\n      swap2\n      sub\n      swap1\n      revert\n    tag_190:\n        /* \"levelup/newDex.sol\":1835:1859  uint256 receivedQuantity */\n      0x00\n        /* \"levelup/newDex.sol\":1874:1884  proportion */\n      sload(0x03)\n        /* \"levelup/newDex.sol\":1863:1871  quantity */\n      dup3\n        /* \"levelup/newDex.sol\":1863:1884  quantity * proportion */\n      tag_193\n      swap2\n      swap1\n      tag_179\n      jump\t// in\n    tag_193:\n        /* \"levelup/newDex.sol\":1835:1885  uint256 receivedQuantity = (quantity * proportion) */\n      swap1\n      pop\n        /* \"levelup/newDex.sol\":1903:1909  tokenB */\n      0x01\n      0x00\n      swap1\n      sload\n      swap1\n      0x0100\n      exp\n      swap1\n      div\n      0xffffffffffffffffffffffffffffffffffffffff\n      and\n        /* \"levelup/newDex.sol\":1903:1918  tokenB.transfer */\n      0xffffffffffffffffffffffffffffffffffffffff\n      and\n      0xa9059cbb\n        /* \"levelup/newDex.sol\":1919:1929  msg.sender */\n      caller\n        /* \"levelup/newDex.sol\":1931:1947  receivedQuantity */\n      dup4\n        /* \"levelup/newDex.sol\":1903:1948  tokenB.transfer(msg.sender, receivedQuantity) */\n      mload(0x40)\n      dup4\n      0xffffffff\n      and\n      0xe0\n      shl\n      dup2\n      mstore\n      0x04\n      add\n      tag_194\n      swap3\n      swap2\n      swap1\n      tag_97\n      jump\t// in\n    tag_194:\n      0x20\n      mload(0x40)\n      dup1\n      dup4\n      sub\n      dup2\n      0x00\n      dup8\n      gas\n      call\n      iszero\n      dup1\n      iszero\n      tag_196\n      jumpi\n      returndatasize\n      0x00\n      dup1\n      returndatacopy\n      revert(0x00, returndatasize)\n    tag_196:\n      pop\n      pop\n      pop\n      pop\n      mload(0x40)\n      returndatasize\n      not(0x1f)\n      0x1f\n      dup3\n      add\n      and\n      dup3\n      add\n      dup1\n      0x40\n      mstore\n      pop\n      dup2\n      add\n      swap1\n      tag_197\n      swap2\n      swap1\n      tag_106\n      jump\t// in\n    tag_197:\n        /* \"levelup/newDex.sol\":1895:1996  require(tokenB.transfer(msg.sender, receivedQuantity), \"Transfer from contract to msg.sender failed\") */\n      tag_198\n      jumpi\n      mload(0x40)\n      0x08c379a000000000000000000000000000000000000000000000000000000000\n      dup2\n      mstore\n      0x04\n      add\n      tag_199\n      swap1\n      tag_200\n      jump\t// in\n    tag_199:\n      mload(0x40)\n      dup1\n      swap2\n      sub\n      swap1\n      revert\n    tag_198:\n        /* \"levelup/newDex.sol\":2014:2018  true */\n      0x01\n        /* \"levelup/newDex.sol\":2007:2011  swap */\n      0x04\n      0x00\n        /* \"levelup/newDex.sol\":2007:2018  swap = true */\n      0x0100\n      exp\n      dup2\n      sload\n      dup2\n      0xff\n      mul\n      not\n      and\n      swap1\n      dup4\n      iszero\n      iszero\n      mul\n      or\n      swap1\n      sstore\n      pop\n        /* \"levelup/newDex.sol\":1502:2031  {... */\n      pop\n        /* \"levelup/newDex.sol\":1457:2031  function swapAforB(uint256 quantity) public  {... */\n      pop\n      jump\t// out\n        /* \"levelup/newDex.sol\":3954:4352  function getFlag() public view returns(string memory){... */\n    tag_77:\n        /* \"levelup/newDex.sol\":3993:4006  string memory */\n      0x60\n        /* \"levelup/newDex.sol\":4033:4037  true */\n      0x01\n        /* \"levelup/newDex.sol\":4025:4037  swap == true */\n      iszero\n      iszero\n        /* \"levelup/newDex.sol\":4025:4029  swap */\n      0x04\n      0x00\n      swap1\n      sload\n      swap1\n      0x0100\n      exp\n      swap1\n      div\n      0xff\n      and\n        /* \"levelup/newDex.sol\":4025:4037  swap == true */\n      iszero\n      iszero\n      eq\n        /* \"levelup/newDex.sol\":4017:4068  require(swap == true,\"No has realizado nigun swap\") */\n      tag_202\n      jumpi\n      mload(0x40)\n      0x08c379a000000000000000000000000000000000000000000000000000000000\n      dup2\n      mstore\n      0x04\n      add\n      tag_203\n      swap1\n      tag_204\n      jump\t// in\n    tag_203:\n      mload(0x40)\n      dup1\n      swap2\n      sub\n      swap1\n      revert\n    tag_202:\n        /* \"levelup/newDex.sol\":4120:4121  0 */\n      0x00\n        /* \"levelup/newDex.sol\":4086:4092  tokenB */\n      0x01\n      0x00\n      swap1\n      sload\n      swap1\n      0x0100\n      exp\n      swap1\n      div\n      0xffffffffffffffffffffffffffffffffffffffff\n      and\n        /* \"levelup/newDex.sol\":4086:4102  tokenB.balanceOf */\n      0xffffffffffffffffffffffffffffffffffffffff\n      and\n      0x70a08231\n        /* \"levelup/newDex.sol\":4111:4115  this */\n      address\n        /* \"levelup/newDex.sol\":4086:4117  tokenB.balanceOf(address(this)) */\n      mload(0x40)\n      dup3\n      0xffffffff\n      and\n      0xe0\n      shl\n      dup2\n      mstore\n      0x04\n      add\n      tag_205\n      swap2\n      swap1\n      tag_85\n      jump\t// in\n    tag_205:\n      0x20\n      mload(0x40)\n      dup1\n      dup4\n      sub\n      dup2\n      dup7\n      gas\n      staticcall\n      iszero\n      dup1\n      iszero\n      tag_207\n      jumpi\n      returndatasize\n      0x00\n      dup1\n      returndatacopy\n      revert(0x00, returndatasize)\n    tag_207:\n      pop\n      pop\n      pop\n      pop\n      mload(0x40)\n      returndatasize\n      not(0x1f)\n      0x1f\n      dup3\n      add\n      and\n      dup3\n      add\n      dup1\n      0x40\n      mstore\n      pop\n      dup2\n      add\n      swap1\n      tag_208\n      swap2\n      swap1\n      tag_89\n      jump\t// in\n    tag_208:\n        /* \"levelup/newDex.sol\":4086:4121  tokenB.balanceOf(address(this)) > 0 */\n      gt\n        /* \"levelup/newDex.sol\":4086:4160  tokenB.balanceOf(address(this)) > 0 && tokenA.balanceOf(address(this)) > 0 */\n      dup1\n      iszero\n      tag_209\n      jumpi\n      pop\n        /* \"levelup/newDex.sol\":4159:4160  0 */\n      0x00\n        /* \"levelup/newDex.sol\":4125:4131  tokenA */\n      dup1\n      0x00\n      swap1\n      sload\n      swap1\n      0x0100\n      exp\n      swap1\n      div\n      0xffffffffffffffffffffffffffffffffffffffff\n      and\n        /* \"levelup/newDex.sol\":4125:4141  tokenA.balanceOf */\n      0xffffffffffffffffffffffffffffffffffffffff\n      and\n      0x70a08231\n        /* \"levelup/newDex.sol\":4150:4154  this */\n      address\n        /* \"levelup/newDex.sol\":4125:4156  tokenA.balanceOf(address(this)) */\n      mload(0x40)\n      dup3\n      0xffffffff\n      and\n      0xe0\n      shl\n      dup2\n      mstore\n      0x04\n      add\n      tag_210\n      swap2\n      swap1\n      tag_85\n      jump\t// in\n    tag_210:\n      0x20\n      mload(0x40)\n      dup1\n      dup4\n      sub\n      dup2\n      dup7\n      gas\n      staticcall\n      iszero\n      dup1\n      iszero\n      tag_212\n      jumpi\n      returndatasize\n      0x00\n      dup1\n      returndatacopy\n      revert(0x00, returndatasize)\n    tag_212:\n      pop\n      pop\n      pop\n      pop\n      mload(0x40)\n      returndatasize\n      not(0x1f)\n      0x1f\n      dup3\n      add\n      and\n      dup3\n      add\n      dup1\n      0x40\n      mstore\n      pop\n      dup2\n      add\n      swap1\n      tag_213\n      swap2\n      swap1\n      tag_89\n      jump\t// in\n    tag_213:\n        /* \"levelup/newDex.sol\":4125:4160  tokenA.balanceOf(address(this)) > 0 */\n      gt\n        /* \"levelup/newDex.sol\":4086:4160  tokenB.balanceOf(address(this)) > 0 && tokenA.balanceOf(address(this)) > 0 */\n    tag_209:\n        /* \"levelup/newDex.sol\":4078:4207  require(tokenB.balanceOf(address(this)) > 0 && tokenA.balanceOf(address(this)) > 0, \"Both token balances must be greater than 0\") */\n      tag_214\n      jumpi\n      mload(0x40)\n      0x08c379a000000000000000000000000000000000000000000000000000000000\n      dup2\n      mstore\n      0x04\n      add\n      tag_215\n      swap1\n      tag_216\n      jump\t// in\n    tag_215:\n      mload(0x40)\n      dup1\n      swap2\n      sub\n      swap1\n      revert\n    tag_214:\n        /* \"levelup/newDex.sol\":4260:4266  tokenA */\n      0x00\n      dup1\n      sload\n      swap1\n      0x0100\n      exp\n      swap1\n      div\n      0xffffffffffffffffffffffffffffffffffffffff\n      and\n        /* \"levelup/newDex.sol\":4260:4276  tokenA.balanceOf */\n      0xffffffffffffffffffffffffffffffffffffffff\n      and\n      0x70a08231\n        /* \"levelup/newDex.sol\":4285:4289  this */\n      address\n        /* \"levelup/newDex.sol\":4260:4291  tokenA.balanceOf(address(this)) */\n      mload(0x40)\n      dup3\n      0xffffffff\n      and\n      0xe0\n      shl\n      dup2\n      mstore\n      0x04\n      add\n      tag_217\n      swap2\n      swap1\n      tag_85\n      jump\t// in\n    tag_217:\n      0x20\n      mload(0x40)\n      dup1\n      dup4\n      sub\n      dup2\n      dup7\n      gas\n      staticcall\n      iszero\n      dup1\n      iszero\n      tag_219\n      jumpi\n      returndatasize\n      0x00\n      dup1\n      returndatacopy\n      revert(0x00, returndatasize)\n    tag_219:\n      pop\n      pop\n      pop\n      pop\n      mload(0x40)\n      returndatasize\n      not(0x1f)\n      0x1f\n      dup3\n      add\n      and\n      dup3\n      add\n      dup1\n      0x40\n      mstore\n      pop\n      dup2\n      add\n      swap1\n      tag_220\n      swap2\n      swap1\n      tag_89\n      jump\t// in\n    tag_220:\n        /* \"levelup/newDex.sol\":4225:4231  tokenB */\n      0x01\n      0x00\n      swap1\n      sload\n      swap1\n      0x0100\n      exp\n      swap1\n      div\n      0xffffffffffffffffffffffffffffffffffffffff\n      and\n        /* \"levelup/newDex.sol\":4225:4241  tokenB.balanceOf */\n      0xffffffffffffffffffffffffffffffffffffffff\n      and\n      0x70a08231\n        /* \"levelup/newDex.sol\":4250:4254  this */\n      address\n        /* \"levelup/newDex.sol\":4225:4256  tokenB.balanceOf(address(this)) */\n      mload(0x40)\n      dup3\n      0xffffffff\n      and\n      0xe0\n      shl\n      dup2\n      mstore\n      0x04\n      add\n      tag_221\n      swap2\n      swap1\n      tag_85\n      jump\t// in\n    tag_221:\n      0x20\n      mload(0x40)\n      dup1\n      dup4\n      sub\n      dup2\n      dup7\n      gas\n      staticcall\n      iszero\n      dup1\n      iszero\n      tag_223\n      jumpi\n      returndatasize\n      0x00\n      dup1\n      returndatacopy\n      revert(0x00, returndatasize)\n    tag_223:\n      pop\n      pop\n      pop\n      pop\n      mload(0x40)\n      returndatasize\n      not(0x1f)\n      0x1f\n      dup3\n      add\n      and\n      dup3\n      add\n      dup1\n      0x40\n      mstore\n      pop\n      dup2\n      add\n      swap1\n      tag_224\n      swap2\n      swap1\n      tag_89\n      jump\t// in\n    tag_224:\n        /* \"levelup/newDex.sol\":4225:4291  tokenB.balanceOf(address(this)) == tokenA.balanceOf(address(this)) */\n      eq\n        /* \"levelup/newDex.sol\":4217:4324  require(tokenB.balanceOf(address(this)) == tokenA.balanceOf(address(this)), \"Token balances must be equal\") */\n      tag_225\n      jumpi\n      mload(0x40)\n      0x08c379a000000000000000000000000000000000000000000000000000000000\n      dup2\n      mstore\n      0x04\n      add\n      tag_226\n      swap1\n      tag_227\n      jump\t// in\n    tag_226:\n      mload(0x40)\n      dup1\n      swap2\n      sub\n      swap1\n      revert\n    tag_225:\n        /* \"levelup/newDex.sol\":4341:4345  flag */\n      0x02\n        /* \"levelup/newDex.sol\":4334:4345  return flag */\n      dup1\n      sload\n      tag_228\n      swap1\n      tag_229\n      jump\t// in\n    tag_228:\n      dup1\n      0x1f\n      add\n      0x20\n      dup1\n      swap2\n      div\n      mul\n      0x20\n      add\n      mload(0x40)\n      swap1\n      dup2\n      add\n      0x40\n      mstore\n      dup1\n      swap3\n      swap2\n      swap1\n      dup2\n      dup2\n      mstore\n      0x20\n      add\n      dup3\n      dup1\n      sload\n      tag_230\n      swap1\n      tag_229\n      jump\t// in\n    tag_230:\n      dup1\n      iszero\n      tag_231\n      jumpi\n      dup1\n      0x1f\n      lt\n      tag_232\n      jumpi\n      0x0100\n      dup1\n      dup4\n      sload\n      div\n      mul\n      dup4\n      mstore\n      swap2\n      0x20\n      add\n      swap2\n      jump(tag_231)\n    tag_232:\n      dup3\n      add\n      swap2\n      swap1\n      0x00\n      mstore\n      keccak256(0x00, 0x20)\n      swap1\n    tag_233:\n      dup2\n      sload\n      dup2\n      mstore\n      swap1\n      0x01\n      add\n      swap1\n      0x20\n      add\n      dup1\n      dup4\n      gt\n      tag_233\n      jumpi\n      dup3\n      swap1\n      sub\n      0x1f\n      and\n      dup3\n      add\n      swap2\n    tag_231:\n      pop\n      pop\n      pop\n      pop\n      pop\n      swap1\n      pop\n        /* \"levelup/newDex.sol\":3954:4352  function getFlag() public view returns(string memory){... */\n      swap1\n      jump\t// out\n        /* \"levelup/newDex.sol\":3156:3328  function burningB(uint256 _amount) public{... */\n    tag_82:\n        /* \"levelup/newDex.sol\":3245:3252  _amount */\n      dup1\n        /* \"levelup/newDex.sol\":3215:3221  tokenB */\n      0x01\n      0x00\n      swap1\n      sload\n      swap1\n      0x0100\n      exp\n      swap1\n      div\n      0xffffffffffffffffffffffffffffffffffffffff\n      and\n        /* \"levelup/newDex.sol\":3215:3231  tokenB.balanceOf */\n      0xffffffffffffffffffffffffffffffffffffffff\n      and\n      0x70a08231\n        /* \"levelup/newDex.sol\":3232:3242  msg.sender */\n      caller\n        /* \"levelup/newDex.sol\":3215:3243  tokenB.balanceOf(msg.sender) */\n      mload(0x40)\n      dup3\n      0xffffffff\n      and\n      0xe0\n      shl\n      dup2\n      mstore\n      0x04\n      add\n      tag_235\n      swap2\n      swap1\n      tag_85\n      jump\t// in\n    tag_235:\n      0x20\n      mload(0x40)\n      dup1\n      dup4\n      sub\n      dup2\n      dup7\n      gas\n      staticcall\n      iszero\n      dup1\n      iszero\n      tag_237\n      jumpi\n      returndatasize\n      0x00\n      dup1\n      returndatacopy\n      revert(0x00, returndatasize)\n    tag_237:\n      pop\n      pop\n      pop\n      pop\n      mload(0x40)\n      returndatasize\n      not(0x1f)\n      0x1f\n      dup3\n      add\n      and\n      dup3\n      add\n      dup1\n      0x40\n      mstore\n      pop\n      dup2\n      add\n      swap1\n      tag_238\n      swap2\n      swap1\n      tag_89\n      jump\t// in\n    tag_238:\n        /* \"levelup/newDex.sol\":3215:3252  tokenB.balanceOf(msg.sender)>=_amount */\n      lt\n      iszero\n        /* \"levelup/newDex.sol\":3207:3279  require(tokenB.balanceOf(msg.sender)>=_amount ,\"No tienes esa cantidad\") */\n      tag_239\n      jumpi\n      mload(0x40)\n      0x08c379a000000000000000000000000000000000000000000000000000000000\n      dup2\n      mstore\n      0x04\n      add\n      tag_240\n      swap1\n      tag_165\n      jump\t// in\n    tag_240:\n      mload(0x40)\n      dup1\n      swap2\n      sub\n      swap1\n      revert\n    tag_239:\n        /* \"levelup/newDex.sol\":3289:3295  tokenA */\n      0x00\n      dup1\n      sload\n      swap1\n      0x0100\n      exp\n      swap1\n      div\n      0xffffffffffffffffffffffffffffffffffffffff\n      and\n        /* \"levelup/newDex.sol\":3289:3300  tokenA.burn */\n      0xffffffffffffffffffffffffffffffffffffffff\n      and\n      0x9dc29fac\n        /* \"levelup/newDex.sol\":3301:3311  msg.sender */\n      caller\n        /* \"levelup/newDex.sol\":3313:3320  _amount */\n      dup4\n        /* \"levelup/newDex.sol\":3289:3321  tokenA.burn(msg.sender, _amount) */\n      mload(0x40)\n      dup4\n      0xffffffff\n      and\n      0xe0\n      shl\n      dup2\n      mstore\n      0x04\n      add\n      tag_241\n      swap3\n      swap2\n      swap1\n      tag_97\n      jump\t// in\n    tag_241:\n      0x00\n      mload(0x40)\n      dup1\n      dup4\n      sub\n      dup2\n      0x00\n      dup8\n      dup1\n      extcodesize\n      iszero\n      dup1\n      iszero\n      tag_242\n      jumpi\n      0x00\n      dup1\n      revert\n    tag_242:\n      pop\n      gas\n      call\n      iszero\n      dup1\n      iszero\n      tag_244\n      jumpi\n      returndatasize\n      0x00\n      dup1\n      returndatacopy\n      revert(0x00, returndatasize)\n    tag_244:\n      pop\n      pop\n      pop\n      pop\n        /* \"levelup/newDex.sol\":3156:3328  function burningB(uint256 _amount) public{... */\n      pop\n      jump\t// out\n        /* \"#utility.yul\":7:133   */\n    tag_245:\n        /* \"#utility.yul\":44:51   */\n      0x00\n        /* \"#utility.yul\":84:126   */\n      0xffffffffffffffffffffffffffffffffffffffff\n        /* \"#utility.yul\":77:82   */\n      dup3\n        /* \"#utility.yul\":73:127   */\n      and\n        /* \"#utility.yul\":62:127   */\n      swap1\n      pop\n        /* \"#utility.yul\":7:133   */\n      swap2\n      swap1\n      pop\n      jump\t// out\n        /* \"#utility.yul\":139:199   */\n    tag_246:\n        /* \"#utility.yul\":167:170   */\n      0x00\n        /* \"#utility.yul\":188:193   */\n      dup2\n        /* \"#utility.yul\":181:193   */\n      swap1\n      pop\n        /* \"#utility.yul\":139:199   */\n      swap2\n      swap1\n      pop\n      jump\t// out\n        /* \"#utility.yul\":205:347   */\n    tag_247:\n        /* \"#utility.yul\":255:264   */\n      0x00\n        /* \"#utility.yul\":288:341   */\n      tag_299\n        /* \"#utility.yul\":306:340   */\n      tag_300\n        /* \"#utility.yul\":315:339   */\n      tag_301\n        /* \"#utility.yul\":333:338   */\n      dup5\n        /* \"#utility.yul\":315:339   */\n      tag_245\n      jump\t// in\n    tag_301:\n        /* \"#utility.yul\":306:340   */\n      tag_246\n      jump\t// in\n    tag_300:\n        /* \"#utility.yul\":288:341   */\n      tag_245\n      jump\t// in\n    tag_299:\n        /* \"#utility.yul\":275:341   */\n      swap1\n      pop\n        /* \"#utility.yul\":205:347   */\n      swap2\n      swap1\n      pop\n      jump\t// out\n        /* \"#utility.yul\":353:479   */\n    tag_248:\n        /* \"#utility.yul\":403:412   */\n      0x00\n        /* \"#utility.yul\":436:473   */\n      tag_303\n        /* \"#utility.yul\":467:472   */\n      dup3\n        /* \"#utility.yul\":436:473   */\n      tag_247\n      jump\t// in\n    tag_303:\n        /* \"#utility.yul\":423:473   */\n      swap1\n      pop\n        /* \"#utility.yul\":353:479   */\n      swap2\n      swap1\n      pop\n      jump\t// out\n        /* \"#utility.yul\":485:625   */\n    tag_249:\n        /* \"#utility.yul\":549:558   */\n      0x00\n        /* \"#utility.yul\":582:619   */\n      tag_305\n        /* \"#utility.yul\":613:618   */\n      dup3\n        /* \"#utility.yul\":582:619   */\n      tag_248\n      jump\t// in\n    tag_305:\n        /* \"#utility.yul\":569:619   */\n      swap1\n      pop\n        /* \"#utility.yul\":485:625   */\n      swap2\n      swap1\n      pop\n      jump\t// out\n        /* \"#utility.yul\":631:790   */\n    tag_250:\n        /* \"#utility.yul\":732:783   */\n      tag_307\n        /* \"#utility.yul\":777:782   */\n      dup2\n        /* \"#utility.yul\":732:783   */\n      tag_249\n      jump\t// in\n    tag_307:\n        /* \"#utility.yul\":727:730   */\n      dup3\n        /* \"#utility.yul\":720:784   */\n      mstore\n        /* \"#utility.yul\":631:790   */\n      pop\n      pop\n      jump\t// out\n        /* \"#utility.yul\":796:1046   */\n    tag_26:\n        /* \"#utility.yul\":903:907   */\n      0x00\n        /* \"#utility.yul\":941:943   */\n      0x20\n        /* \"#utility.yul\":930:939   */\n      dup3\n        /* \"#utility.yul\":926:944   */\n      add\n        /* \"#utility.yul\":918:944   */\n      swap1\n      pop\n        /* \"#utility.yul\":954:1039   */\n      tag_309\n        /* \"#utility.yul\":1036:1037   */\n      0x00\n        /* \"#utility.yul\":1025:1034   */\n      dup4\n        /* \"#utility.yul\":1021:1038   */\n      add\n        /* \"#utility.yul\":1012:1018   */\n      dup5\n        /* \"#utility.yul\":954:1039   */\n      tag_250\n      jump\t// in\n    tag_309:\n        /* \"#utility.yul\":796:1046   */\n      swap3\n      swap2\n      pop\n      pop\n      jump\t// out\n        /* \"#utility.yul\":1133:1250   */\n    tag_252:\n        /* \"#utility.yul\":1242:1243   */\n      0x00\n        /* \"#utility.yul\":1239:1240   */\n      dup1\n        /* \"#utility.yul\":1232:1244   */\n      revert\n        /* \"#utility.yul\":1379:1475   */\n    tag_254:\n        /* \"#utility.yul\":1416:1423   */\n      0x00\n        /* \"#utility.yul\":1445:1469   */\n      tag_314\n        /* \"#utility.yul\":1463:1468   */\n      dup3\n        /* \"#utility.yul\":1445:1469   */\n      tag_245\n      jump\t// in\n    tag_314:\n        /* \"#utility.yul\":1434:1469   */\n      swap1\n      pop\n        /* \"#utility.yul\":1379:1475   */\n      swap2\n      swap1\n      pop\n      jump\t// out\n        /* \"#utility.yul\":1481:1603   */\n    tag_255:\n        /* \"#utility.yul\":1554:1578   */\n      tag_316\n        /* \"#utility.yul\":1572:1577   */\n      dup2\n        /* \"#utility.yul\":1554:1578   */\n      tag_254\n      jump\t// in\n    tag_316:\n        /* \"#utility.yul\":1547:1552   */\n      dup2\n        /* \"#utility.yul\":1544:1579   */\n      eq\n        /* \"#utility.yul\":1534:1597   */\n      tag_317\n      jumpi\n        /* \"#utility.yul\":1593:1594   */\n      0x00\n        /* \"#utility.yul\":1590:1591   */\n      dup1\n        /* \"#utility.yul\":1583:1595   */\n      revert\n        /* \"#utility.yul\":1534:1597   */\n    tag_317:\n        /* \"#utility.yul\":1481:1603   */\n      pop\n      jump\t// out\n        /* \"#utility.yul\":1609:1748   */\n    tag_256:\n        /* \"#utility.yul\":1655:1660   */\n      0x00\n        /* \"#utility.yul\":1693:1699   */\n      dup2\n        /* \"#utility.yul\":1680:1700   */\n      calldataload\n        /* \"#utility.yul\":1671:1700   */\n      swap1\n      pop\n        /* \"#utility.yul\":1709:1742   */\n      tag_319\n        /* \"#utility.yul\":1736:1741   */\n      dup2\n        /* \"#utility.yul\":1709:1742   */\n      tag_255\n      jump\t// in\n    tag_319:\n        /* \"#utility.yul\":1609:1748   */\n      swap3\n      swap2\n      pop\n      pop\n      jump\t// out\n        /* \"#utility.yul\":1754:2083   */\n    tag_29:\n        /* \"#utility.yul\":1813:1819   */\n      0x00\n        /* \"#utility.yul\":1862:1864   */\n      0x20\n        /* \"#utility.yul\":1850:1859   */\n      dup3\n        /* \"#utility.yul\":1841:1848   */\n      dup5\n        /* \"#utility.yul\":1837:1860   */\n      sub\n        /* \"#utility.yul\":1833:1865   */\n      slt\n        /* \"#utility.yul\":1830:1949   */\n      iszero\n      tag_321\n      jumpi\n        /* \"#utility.yul\":1868:1947   */\n      tag_322\n      tag_252\n      jump\t// in\n    tag_322:\n        /* \"#utility.yul\":1830:1949   */\n    tag_321:\n        /* \"#utility.yul\":1988:1989   */\n      0x00\n        /* \"#utility.yul\":2013:2066   */\n      tag_323\n        /* \"#utility.yul\":2058:2065   */\n      dup5\n        /* \"#utility.yul\":2049:2055   */\n      dup3\n        /* \"#utility.yul\":2038:2047   */\n      dup6\n        /* \"#utility.yul\":2034:2056   */\n      add\n        /* \"#utility.yul\":2013:2066   */\n      tag_256\n      jump\t// in\n    tag_323:\n        /* \"#utility.yul\":2003:2066   */\n      swap2\n      pop\n        /* \"#utility.yul\":1959:2076   */\n      pop\n        /* \"#utility.yul\":1754:2083   */\n      swap3\n      swap2\n      pop\n      pop\n      jump\t// out\n        /* \"#utility.yul\":2089:2166   */\n    tag_257:\n        /* \"#utility.yul\":2126:2133   */\n      0x00\n        /* \"#utility.yul\":2155:2160   */\n      dup2\n        /* \"#utility.yul\":2144:2160   */\n      swap1\n      pop\n        /* \"#utility.yul\":2089:2166   */\n      swap2\n      swap1\n      pop\n      jump\t// out\n        /* \"#utility.yul\":2172:2290   */\n    tag_258:\n        /* \"#utility.yul\":2259:2283   */\n      tag_326\n        /* \"#utility.yul\":2277:2282   */\n      dup2\n        /* \"#utility.yul\":2259:2283   */\n      tag_257\n      jump\t// in\n    tag_326:\n        /* \"#utility.yul\":2254:2257   */\n      dup3\n        /* \"#utility.yul\":2247:2284   */\n      mstore\n        /* \"#utility.yul\":2172:2290   */\n      pop\n      pop\n      jump\t// out\n        /* \"#utility.yul\":2296:2518   */\n    tag_32:\n        /* \"#utility.yul\":2389:2393   */\n      0x00\n        /* \"#utility.yul\":2427:2429   */\n      0x20\n        /* \"#utility.yul\":2416:2425   */\n      dup3\n        /* \"#utility.yul\":2412:2430   */\n      add\n        /* \"#utility.yul\":2404:2430   */\n      swap1\n      pop\n        /* \"#utility.yul\":2440:2511   */\n      tag_328\n        /* \"#utility.yul\":2508:2509   */\n      0x00\n        /* \"#utility.yul\":2497:2506   */\n      dup4\n        /* \"#utility.yul\":2493:2510   */\n      add\n        /* \"#utility.yul\":2484:2490   */\n      dup5\n        /* \"#utility.yul\":2440:2511   */\n      tag_258\n      jump\t// in\n    tag_328:\n        /* \"#utility.yul\":2296:2518   */\n      swap3\n      swap2\n      pop\n      pop\n      jump\t// out\n        /* \"#utility.yul\":2524:2646   */\n    tag_259:\n        /* \"#utility.yul\":2597:2621   */\n      tag_330\n        /* \"#utility.yul\":2615:2620   */\n      dup2\n        /* \"#utility.yul\":2597:2621   */\n      tag_257\n      jump\t// in\n    tag_330:\n        /* \"#utility.yul\":2590:2595   */\n      dup2\n        /* \"#utility.yul\":2587:2622   */\n      eq\n        /* \"#utility.yul\":2577:2640   */\n      tag_331\n      jumpi\n        /* \"#utility.yul\":2636:2637   */\n      0x00\n        /* \"#utility.yul\":2633:2634   */\n      dup1\n        /* \"#utility.yul\":2626:2638   */\n      revert\n        /* \"#utility.yul\":2577:2640   */\n    tag_331:\n        /* \"#utility.yul\":2524:2646   */\n      pop\n      jump\t// out\n        /* \"#utility.yul\":2652:2791   */\n    tag_260:\n        /* \"#utility.yul\":2698:2703   */\n      0x00\n        /* \"#utility.yul\":2736:2742   */\n      dup2\n        /* \"#utility.yul\":2723:2743   */\n      calldataload\n        /* \"#utility.yul\":2714:2743   */\n      swap1\n      pop\n        /* \"#utility.yul\":2752:2785   */\n      tag_333\n        /* \"#utility.yul\":2779:2784   */\n      dup2\n        /* \"#utility.yul\":2752:2785   */\n      tag_259\n      jump\t// in\n    tag_333:\n        /* \"#utility.yul\":2652:2791   */\n      swap3\n      swap2\n      pop\n      pop\n      jump\t// out\n        /* \"#utility.yul\":2797:3126   */\n    tag_39:\n        /* \"#utility.yul\":2856:2862   */\n      0x00\n        /* \"#utility.yul\":2905:2907   */\n      0x20\n        /* \"#utility.yul\":2893:2902   */\n      dup3\n        /* \"#utility.yul\":2884:2891   */\n      dup5\n        /* \"#utility.yul\":2880:2903   */\n      sub\n        /* \"#utility.yul\":2876:2908   */\n      slt\n        /* \"#utility.yul\":2873:2992   */\n      iszero\n      tag_335\n      jumpi\n        /* \"#utility.yul\":2911:2990   */\n      tag_336\n      tag_252\n      jump\t// in\n    tag_336:\n        /* \"#utility.yul\":2873:2992   */\n    tag_335:\n        /* \"#utility.yul\":3031:3032   */\n      0x00\n        /* \"#utility.yul\":3056:3109   */\n      tag_337\n        /* \"#utility.yul\":3101:3108   */\n      dup5\n        /* \"#utility.yul\":3092:3098   */\n      dup3\n        /* \"#utility.yul\":3081:3090   */\n      dup6\n        /* \"#utility.yul\":3077:3099   */\n      add\n        /* \"#utility.yul\":3056:3109   */\n      tag_260\n      jump\t// in\n    tag_337:\n        /* \"#utility.yul\":3046:3109   */\n      swap2\n      pop\n        /* \"#utility.yul\":3002:3119   */\n      pop\n        /* \"#utility.yul\":2797:3126   */\n      swap3\n      swap2\n      pop\n      pop\n      jump\t// out\n        /* \"#utility.yul\":3132:3606   */\n    tag_43:\n        /* \"#utility.yul\":3200:3206   */\n      0x00\n        /* \"#utility.yul\":3208:3214   */\n      dup1\n        /* \"#utility.yul\":3257:3259   */\n      0x40\n        /* \"#utility.yul\":3245:3254   */\n      dup4\n        /* \"#utility.yul\":3236:3243   */\n      dup6\n        /* \"#utility.yul\":3232:3255   */\n      sub\n        /* \"#utility.yul\":3228:3260   */\n      slt\n        /* \"#utility.yul\":3225:3344   */\n      iszero\n      tag_339\n      jumpi\n        /* \"#utility.yul\":3263:3342   */\n      tag_340\n      tag_252\n      jump\t// in\n    tag_340:\n        /* \"#utility.yul\":3225:3344   */\n    tag_339:\n        /* \"#utility.yul\":3383:3384   */\n      0x00\n        /* \"#utility.yul\":3408:3461   */\n      tag_341\n        /* \"#utility.yul\":3453:3460   */\n      dup6\n        /* \"#utility.yul\":3444:3450   */\n      dup3\n        /* \"#utility.yul\":3433:3442   */\n      dup7\n        /* \"#utility.yul\":3429:3451   */\n      add\n        /* \"#utility.yul\":3408:3461   */\n      tag_256\n      jump\t// in\n    tag_341:\n        /* \"#utility.yul\":3398:3461   */\n      swap3\n      pop\n        /* \"#utility.yul\":3354:3471   */\n      pop\n        /* \"#utility.yul\":3510:3512   */\n      0x20\n        /* \"#utility.yul\":3536:3589   */\n      tag_342\n        /* \"#utility.yul\":3581:3588   */\n      dup6\n        /* \"#utility.yul\":3572:3578   */\n      dup3\n        /* \"#utility.yul\":3561:3570   */\n      dup7\n        /* \"#utility.yul\":3557:3579   */\n      add\n        /* \"#utility.yul\":3536:3589   */\n      tag_260\n      jump\t// in\n    tag_342:\n        /* \"#utility.yul\":3526:3589   */\n      swap2\n      pop\n        /* \"#utility.yul\":3481:3599   */\n      pop\n        /* \"#utility.yul\":3132:3606   */\n      swap3\n      pop\n      swap3\n      swap1\n      pop\n      jump\t// out\n        /* \"#utility.yul\":3612:3702   */\n    tag_261:\n        /* \"#utility.yul\":3646:3653   */\n      0x00\n        /* \"#utility.yul\":3689:3694   */\n      dup2\n        /* \"#utility.yul\":3682:3695   */\n      iszero\n        /* \"#utility.yul\":3675:3696   */\n      iszero\n        /* \"#utility.yul\":3664:3696   */\n      swap1\n      pop\n        /* \"#utility.yul\":3612:3702   */\n      swap2\n      swap1\n      pop\n      jump\t// out\n        /* \"#utility.yul\":3708:3817   */\n    tag_262:\n        /* \"#utility.yul\":3789:3810   */\n      tag_345\n        /* \"#utility.yul\":3804:3809   */\n      dup2\n        /* \"#utility.yul\":3789:3810   */\n      tag_261\n      jump\t// in\n    tag_345:\n        /* \"#utility.yul\":3784:3787   */\n      dup3\n        /* \"#utility.yul\":3777:3811   */\n      mstore\n        /* \"#utility.yul\":3708:3817   */\n      pop\n      pop\n      jump\t// out\n        /* \"#utility.yul\":3823:4033   */\n    tag_60:\n        /* \"#utility.yul\":3910:3914   */\n      0x00\n        /* \"#utility.yul\":3948:3950   */\n      0x20\n        /* \"#utility.yul\":3937:3946   */\n      dup3\n        /* \"#utility.yul\":3933:3951   */\n      add\n        /* \"#utility.yul\":3925:3951   */\n      swap1\n      pop\n        /* \"#utility.yul\":3961:4026   */\n      tag_347\n        /* \"#utility.yul\":4023:4024   */\n      0x00\n        /* \"#utility.yul\":4012:4021   */\n      dup4\n        /* \"#utility.yul\":4008:4025   */\n      add\n        /* \"#utility.yul\":3999:4005   */\n      dup5\n        /* \"#utility.yul\":3961:4026   */\n      tag_262\n      jump\t// in\n    tag_347:\n        /* \"#utility.yul\":3823:4033   */\n      swap3\n      swap2\n      pop\n      pop\n      jump\t// out\n        /* \"#utility.yul\":4039:4138   */\n    tag_263:\n        /* \"#utility.yul\":4091:4097   */\n      0x00\n        /* \"#utility.yul\":4125:4130   */\n      dup2\n        /* \"#utility.yul\":4119:4131   */\n      mload\n        /* \"#utility.yul\":4109:4131   */\n      swap1\n      pop\n        /* \"#utility.yul\":4039:4138   */\n      swap2\n      swap1\n      pop\n      jump\t// out\n        /* \"#utility.yul\":4144:4313   */\n    tag_264:\n        /* \"#utility.yul\":4228:4239   */\n      0x00\n        /* \"#utility.yul\":4262:4268   */\n      dup3\n        /* \"#utility.yul\":4257:4260   */\n      dup3\n        /* \"#utility.yul\":4250:4269   */\n      mstore\n        /* \"#utility.yul\":4302:4306   */\n      0x20\n        /* \"#utility.yul\":4297:4300   */\n      dup3\n        /* \"#utility.yul\":4293:4307   */\n      add\n        /* \"#utility.yul\":4278:4307   */\n      swap1\n      pop\n        /* \"#utility.yul\":4144:4313   */\n      swap3\n      swap2\n      pop\n      pop\n      jump\t// out\n        /* \"#utility.yul\":4319:4565   */\n    tag_265:\n        /* \"#utility.yul\":4400:4401   */\n      0x00\n        /* \"#utility.yul\":4410:4523   */\n    tag_351:\n        /* \"#utility.yul\":4424:4430   */\n      dup4\n        /* \"#utility.yul\":4421:4422   */\n      dup2\n        /* \"#utility.yul\":4418:4431   */\n      lt\n        /* \"#utility.yul\":4410:4523   */\n      iszero\n      tag_353\n      jumpi\n        /* \"#utility.yul\":4509:4510   */\n      dup1\n        /* \"#utility.yul\":4504:4507   */\n      dup3\n        /* \"#utility.yul\":4500:4511   */\n      add\n        /* \"#utility.yul\":4494:4512   */\n      mload\n        /* \"#utility.yul\":4490:4491   */\n      dup2\n        /* \"#utility.yul\":4485:4488   */\n      dup5\n        /* \"#utility.yul\":4481:4492   */\n      add\n        /* \"#utility.yul\":4474:4513   */\n      mstore\n        /* \"#utility.yul\":4446:4448   */\n      0x20\n        /* \"#utility.yul\":4443:4444   */\n      dup2\n        /* \"#utility.yul\":4439:4449   */\n      add\n        /* \"#utility.yul\":4434:4449   */\n      swap1\n      pop\n        /* \"#utility.yul\":4410:4523   */\n      jump(tag_351)\n    tag_353:\n        /* \"#utility.yul\":4557:4558   */\n      0x00\n        /* \"#utility.yul\":4548:4554   */\n      dup5\n        /* \"#utility.yul\":4543:4546   */\n      dup5\n        /* \"#utility.yul\":4539:4555   */\n      add\n        /* \"#utility.yul\":4532:4559   */\n      mstore\n        /* \"#utility.yul\":4381:4565   */\n      pop\n        /* \"#utility.yul\":4319:4565   */\n      pop\n      pop\n      pop\n      jump\t// out\n        /* \"#utility.yul\":4571:4673   */\n    tag_266:\n        /* \"#utility.yul\":4612:4618   */\n      0x00\n        /* \"#utility.yul\":4663:4665   */\n      0x1f\n        /* \"#utility.yul\":4659:4666   */\n      not\n        /* \"#utility.yul\":4654:4656   */\n      0x1f\n        /* \"#utility.yul\":4647:4652   */\n      dup4\n        /* \"#utility.yul\":4643:4657   */\n      add\n        /* \"#utility.yul\":4639:4667   */\n      and\n        /* \"#utility.yul\":4629:4667   */\n      swap1\n      pop\n        /* \"#utility.yul\":4571:4673   */\n      swap2\n      swap1\n      pop\n      jump\t// out\n        /* \"#utility.yul\":4679:5056   */\n    tag_267:\n        /* \"#utility.yul\":4767:4770   */\n      0x00\n        /* \"#utility.yul\":4795:4834   */\n      tag_356\n        /* \"#utility.yul\":4828:4833   */\n      dup3\n        /* \"#utility.yul\":4795:4834   */\n      tag_263\n      jump\t// in\n    tag_356:\n        /* \"#utility.yul\":4850:4921   */\n      tag_357\n        /* \"#utility.yul\":4914:4920   */\n      dup2\n        /* \"#utility.yul\":4909:4912   */\n      dup6\n        /* \"#utility.yul\":4850:4921   */\n      tag_264\n      jump\t// in\n    tag_357:\n        /* \"#utility.yul\":4843:4921   */\n      swap4\n      pop\n        /* \"#utility.yul\":4930:4995   */\n      tag_358\n        /* \"#utility.yul\":4988:4994   */\n      dup2\n        /* \"#utility.yul\":4983:4986   */\n      dup6\n        /* \"#utility.yul\":4976:4980   */\n      0x20\n        /* \"#utility.yul\":4969:4974   */\n      dup7\n        /* \"#utility.yul\":4965:4981   */\n      add\n        /* \"#utility.yul\":4930:4995   */\n      tag_265\n      jump\t// in\n    tag_358:\n        /* \"#utility.yul\":5020:5049   */\n      tag_359\n        /* \"#utility.yul\":5042:5048   */\n      dup2\n        /* \"#utility.yul\":5020:5049   */\n      tag_266\n      jump\t// in\n    tag_359:\n        /* \"#utility.yul\":5015:5018   */\n      dup5\n        /* \"#utility.yul\":5011:5050   */\n      add\n        /* \"#utility.yul\":5004:5050   */\n      swap2\n      pop\n        /* \"#utility.yul\":4771:5056   */\n      pop\n        /* \"#utility.yul\":4679:5056   */\n      swap3\n      swap2\n      pop\n      pop\n      jump\t// out\n        /* \"#utility.yul\":5062:5375   */\n    tag_79:\n        /* \"#utility.yul\":5175:5179   */\n      0x00\n        /* \"#utility.yul\":5213:5215   */\n      0x20\n        /* \"#utility.yul\":5202:5211   */\n      dup3\n        /* \"#utility.yul\":5198:5216   */\n      add\n        /* \"#utility.yul\":5190:5216   */\n      swap1\n      pop\n        /* \"#utility.yul\":5262:5271   */\n      dup2\n        /* \"#utility.yul\":5256:5260   */\n      dup2\n        /* \"#utility.yul\":5252:5272   */\n      sub\n        /* \"#utility.yul\":5248:5249   */\n      0x00\n        /* \"#utility.yul\":5237:5246   */\n      dup4\n        /* \"#utility.yul\":5233:5250   */\n      add\n        /* \"#utility.yul\":5226:5273   */\n      mstore\n        /* \"#utility.yul\":5290:5368   */\n      tag_361\n        /* \"#utility.yul\":5363:5367   */\n      dup2\n        /* \"#utility.yul\":5354:5360   */\n      dup5\n        /* \"#utility.yul\":5290:5368   */\n      tag_267\n      jump\t// in\n    tag_361:\n        /* \"#utility.yul\":5282:5368   */\n      swap1\n      pop\n        /* \"#utility.yul\":5062:5375   */\n      swap3\n      swap2\n      pop\n      pop\n      jump\t// out\n        /* \"#utility.yul\":5381:5499   */\n    tag_268:\n        /* \"#utility.yul\":5468:5492   */\n      tag_363\n        /* \"#utility.yul\":5486:5491   */\n      dup2\n        /* \"#utility.yul\":5468:5492   */\n      tag_254\n      jump\t// in\n    tag_363:\n        /* \"#utility.yul\":5463:5466   */\n      dup3\n        /* \"#utility.yul\":5456:5493   */\n      mstore\n        /* \"#utility.yul\":5381:5499   */\n      pop\n      pop\n      jump\t// out\n        /* \"#utility.yul\":5505:5727   */\n    tag_85:\n        /* \"#utility.yul\":5598:5602   */\n      0x00\n        /* \"#utility.yul\":5636:5638   */\n      0x20\n        /* \"#utility.yul\":5625:5634   */\n      dup3\n        /* \"#utility.yul\":5621:5639   */\n      add\n        /* \"#utility.yul\":5613:5639   */\n      swap1\n      pop\n        /* \"#utility.yul\":5649:5720   */\n      tag_365\n        /* \"#utility.yul\":5717:5718   */\n      0x00\n        /* \"#utility.yul\":5706:5715   */\n      dup4\n        /* \"#utility.yul\":5702:5719   */\n      add\n        /* \"#utility.yul\":5693:5699   */\n      dup5\n        /* \"#utility.yul\":5649:5720   */\n      tag_268\n      jump\t// in\n    tag_365:\n        /* \"#utility.yul\":5505:5727   */\n      swap3\n      swap2\n      pop\n      pop\n      jump\t// out\n        /* \"#utility.yul\":5733:5876   */\n    tag_269:\n        /* \"#utility.yul\":5790:5795   */\n      0x00\n        /* \"#utility.yul\":5821:5827   */\n      dup2\n        /* \"#utility.yul\":5815:5828   */\n      mload\n        /* \"#utility.yul\":5806:5828   */\n      swap1\n      pop\n        /* \"#utility.yul\":5837:5870   */\n      tag_367\n        /* \"#utility.yul\":5864:5869   */\n      dup2\n        /* \"#utility.yul\":5837:5870   */\n      tag_259\n      jump\t// in\n    tag_367:\n        /* \"#utility.yul\":5733:5876   */\n      swap3\n      swap2\n      pop\n      pop\n      jump\t// out\n        /* \"#utility.yul\":5882:6233   */\n    tag_89:\n        /* \"#utility.yul\":5952:5958   */\n      0x00\n        /* \"#utility.yul\":6001:6003   */\n      0x20\n        /* \"#utility.yul\":5989:5998   */\n      dup3\n        /* \"#utility.yul\":5980:5987   */\n      dup5\n        /* \"#utility.yul\":5976:5999   */\n      sub\n        /* \"#utility.yul\":5972:6004   */\n      slt\n        /* \"#utility.yul\":5969:6088   */\n      iszero\n      tag_369\n      jumpi\n        /* \"#utility.yul\":6007:6086   */\n      tag_370\n      tag_252\n      jump\t// in\n    tag_370:\n        /* \"#utility.yul\":5969:6088   */\n    tag_369:\n        /* \"#utility.yul\":6127:6128   */\n      0x00\n        /* \"#utility.yul\":6152:6216   */\n      tag_371\n        /* \"#utility.yul\":6208:6215   */\n      dup5\n        /* \"#utility.yul\":6199:6205   */\n      dup3\n        /* \"#utility.yul\":6188:6197   */\n      dup6\n        /* \"#utility.yul\":6184:6206   */\n      add\n        /* \"#utility.yul\":6152:6216   */\n      tag_269\n      jump\t// in\n    tag_371:\n        /* \"#utility.yul\":6142:6216   */\n      swap2\n      pop\n        /* \"#utility.yul\":6098:6226   */\n      pop\n        /* \"#utility.yul\":5882:6233   */\n      swap3\n      swap2\n      pop\n      pop\n      jump\t// out\n        /* \"#utility.yul\":6239:6571   */\n    tag_97:\n        /* \"#utility.yul\":6360:6364   */\n      0x00\n        /* \"#utility.yul\":6398:6400   */\n      0x40\n        /* \"#utility.yul\":6387:6396   */\n      dup3\n        /* \"#utility.yul\":6383:6401   */\n      add\n        /* \"#utility.yul\":6375:6401   */\n      swap1\n      pop\n        /* \"#utility.yul\":6411:6482   */\n      tag_373\n        /* \"#utility.yul\":6479:6480   */\n      0x00\n        /* \"#utility.yul\":6468:6477   */\n      dup4\n        /* \"#utility.yul\":6464:6481   */\n      add\n        /* \"#utility.yul\":6455:6461   */\n      dup6\n        /* \"#utility.yul\":6411:6482   */\n      tag_268\n      jump\t// in\n    tag_373:\n        /* \"#utility.yul\":6492:6564   */\n      tag_374\n        /* \"#utility.yul\":6560:6562   */\n      0x20\n        /* \"#utility.yul\":6549:6558   */\n      dup4\n        /* \"#utility.yul\":6545:6563   */\n      add\n        /* \"#utility.yul\":6536:6542   */\n      dup5\n        /* \"#utility.yul\":6492:6564   */\n      tag_258\n      jump\t// in\n    tag_374:\n        /* \"#utility.yul\":6239:6571   */\n      swap4\n      swap3\n      pop\n      pop\n      pop\n      jump\t// out\n        /* \"#utility.yul\":6577:6693   */\n    tag_270:\n        /* \"#utility.yul\":6647:6668   */\n      tag_376\n        /* \"#utility.yul\":6662:6667   */\n      dup2\n        /* \"#utility.yul\":6647:6668   */\n      tag_261\n      jump\t// in\n    tag_376:\n        /* \"#utility.yul\":6640:6645   */\n      dup2\n        /* \"#utility.yul\":6637:6669   */\n      eq\n        /* \"#utility.yul\":6627:6687   */\n      tag_377\n      jumpi\n        /* \"#utility.yul\":6683:6684   */\n      0x00\n        /* \"#utility.yul\":6680:6681   */\n      dup1\n        /* \"#utility.yul\":6673:6685   */\n      revert\n        /* \"#utility.yul\":6627:6687   */\n    tag_377:\n        /* \"#utility.yul\":6577:6693   */\n      pop\n      jump\t// out\n        /* \"#utility.yul\":6699:6836   */\n    tag_271:\n        /* \"#utility.yul\":6753:6758   */\n      0x00\n        /* \"#utility.yul\":6784:6790   */\n      dup2\n        /* \"#utility.yul\":6778:6791   */\n      mload\n        /* \"#utility.yul\":6769:6791   */\n      swap1\n      pop\n        /* \"#utility.yul\":6800:6830   */\n      tag_379\n        /* \"#utility.yul\":6824:6829   */\n      dup2\n        /* \"#utility.yul\":6800:6830   */\n      tag_270\n      jump\t// in\n    tag_379:\n        /* \"#utility.yul\":6699:6836   */\n      swap3\n      swap2\n      pop\n      pop\n      jump\t// out\n        /* \"#utility.yul\":6842:7187   */\n    tag_106:\n        /* \"#utility.yul\":6909:6915   */\n      0x00\n        /* \"#utility.yul\":6958:6960   */\n      0x20\n        /* \"#utility.yul\":6946:6955   */\n      dup3\n        /* \"#utility.yul\":6937:6944   */\n      dup5\n        /* \"#utility.yul\":6933:6956   */\n      sub\n        /* \"#utility.yul\":6929:6961   */\n      slt\n        /* \"#utility.yul\":6926:7045   */\n      iszero\n      tag_381\n      jumpi\n        /* \"#utility.yul\":6964:7043   */\n      tag_382\n      tag_252\n      jump\t// in\n    tag_382:\n        /* \"#utility.yul\":6926:7045   */\n    tag_381:\n        /* \"#utility.yul\":7084:7085   */\n      0x00\n        /* \"#utility.yul\":7109:7170   */\n      tag_383\n        /* \"#utility.yul\":7162:7169   */\n      dup5\n        /* \"#utility.yul\":7153:7159   */\n      dup3\n        /* \"#utility.yul\":7142:7151   */\n      dup6\n        /* \"#utility.yul\":7138:7160   */\n      add\n        /* \"#utility.yul\":7109:7170   */\n      tag_271\n      jump\t// in\n    tag_383:\n        /* \"#utility.yul\":7099:7170   */\n      swap2\n      pop\n        /* \"#utility.yul\":7055:7180   */\n      pop\n        /* \"#utility.yul\":6842:7187   */\n      swap3\n      swap2\n      pop\n      pop\n      jump\t// out\n        /* \"#utility.yul\":7193:7525   */\n    tag_109:\n        /* \"#utility.yul\":7314:7318   */\n      0x00\n        /* \"#utility.yul\":7352:7354   */\n      0x40\n        /* \"#utility.yul\":7341:7350   */\n      dup3\n        /* \"#utility.yul\":7337:7355   */\n      add\n        /* \"#utility.yul\":7329:7355   */\n      swap1\n      pop\n        /* \"#utility.yul\":7365:7436   */\n      tag_385\n        /* \"#utility.yul\":7433:7434   */\n      0x00\n        /* \"#utility.yul\":7422:7431   */\n      dup4\n        /* \"#utility.yul\":7418:7435   */\n      add\n        /* \"#utility.yul\":7409:7415   */\n      dup6\n        /* \"#utility.yul\":7365:7436   */\n      tag_268\n      jump\t// in\n    tag_385:\n        /* \"#utility.yul\":7446:7518   */\n      tag_386\n        /* \"#utility.yul\":7514:7516   */\n      0x20\n        /* \"#utility.yul\":7503:7512   */\n      dup4\n        /* \"#utility.yul\":7499:7517   */\n      add\n        /* \"#utility.yul\":7490:7496   */\n      dup5\n        /* \"#utility.yul\":7446:7518   */\n      tag_268\n      jump\t// in\n    tag_386:\n        /* \"#utility.yul\":7193:7525   */\n      swap4\n      swap3\n      pop\n      pop\n      pop\n      jump\t// out\n        /* \"#utility.yul\":7531:7695   */\n    tag_272:\n        /* \"#utility.yul\":7671:7687   */\n      0x4e6f742066616972207472616465000000000000000000000000000000000000\n        /* \"#utility.yul\":7667:7668   */\n      0x00\n        /* \"#utility.yul\":7659:7665   */\n      dup3\n        /* \"#utility.yul\":7655:7669   */\n      add\n        /* \"#utility.yul\":7648:7688   */\n      mstore\n        /* \"#utility.yul\":7531:7695   */\n      pop\n      jump\t// out\n        /* \"#utility.yul\":7701:8067   */\n    tag_273:\n        /* \"#utility.yul\":7843:7846   */\n      0x00\n        /* \"#utility.yul\":7864:7931   */\n      tag_389\n        /* \"#utility.yul\":7928:7930   */\n      0x0e\n        /* \"#utility.yul\":7923:7926   */\n      dup4\n        /* \"#utility.yul\":7864:7931   */\n      tag_264\n      jump\t// in\n    tag_389:\n        /* \"#utility.yul\":7857:7931   */\n      swap2\n      pop\n        /* \"#utility.yul\":7940:8033   */\n      tag_390\n        /* \"#utility.yul\":8029:8032   */\n      dup3\n        /* \"#utility.yul\":7940:8033   */\n      tag_272\n      jump\t// in\n    tag_390:\n        /* \"#utility.yul\":8058:8060   */\n      0x20\n        /* \"#utility.yul\":8053:8056   */\n      dup3\n        /* \"#utility.yul\":8049:8061   */\n      add\n        /* \"#utility.yul\":8042:8061   */\n      swap1\n      pop\n        /* \"#utility.yul\":7701:8067   */\n      swap2\n      swap1\n      pop\n      jump\t// out\n        /* \"#utility.yul\":8073:8492   */\n    tag_116:\n        /* \"#utility.yul\":8239:8243   */\n      0x00\n        /* \"#utility.yul\":8277:8279   */\n      0x20\n        /* \"#utility.yul\":8266:8275   */\n      dup3\n        /* \"#utility.yul\":8262:8280   */\n      add\n        /* \"#utility.yul\":8254:8280   */\n      swap1\n      pop\n        /* \"#utility.yul\":8326:8335   */\n      dup2\n        /* \"#utility.yul\":8320:8324   */\n      dup2\n        /* \"#utility.yul\":8316:8336   */\n      sub\n        /* \"#utility.yul\":8312:8313   */\n      0x00\n        /* \"#utility.yul\":8301:8310   */\n      dup4\n        /* \"#utility.yul\":8297:8314   */\n      add\n        /* \"#utility.yul\":8290:8337   */\n      mstore\n        /* \"#utility.yul\":8354:8485   */\n      tag_392\n        /* \"#utility.yul\":8480:8484   */\n      dup2\n        /* \"#utility.yul\":8354:8485   */\n      tag_273\n      jump\t// in\n    tag_392:\n        /* \"#utility.yul\":8346:8485   */\n      swap1\n      pop\n        /* \"#utility.yul\":8073:8492   */\n      swap2\n      swap1\n      pop\n      jump\t// out\n        /* \"#utility.yul\":8498:8675   */\n    tag_274:\n        /* \"#utility.yul\":8638:8667   */\n      0x496e73756666696369656e7420746f6b656e422062616c616e63650000000000\n        /* \"#utility.yul\":8634:8635   */\n      0x00\n        /* \"#utility.yul\":8626:8632   */\n      dup3\n        /* \"#utility.yul\":8622:8636   */\n      add\n        /* \"#utility.yul\":8615:8668   */\n      mstore\n        /* \"#utility.yul\":8498:8675   */\n      pop\n      jump\t// out\n        /* \"#utility.yul\":8681:9047   */\n    tag_275:\n        /* \"#utility.yul\":8823:8826   */\n      0x00\n        /* \"#utility.yul\":8844:8911   */\n      tag_395\n        /* \"#utility.yul\":8908:8910   */\n      0x1b\n        /* \"#utility.yul\":8903:8906   */\n      dup4\n        /* \"#utility.yul\":8844:8911   */\n      tag_264\n      jump\t// in\n    tag_395:\n        /* \"#utility.yul\":8837:8911   */\n      swap2\n      pop\n        /* \"#utility.yul\":8920:9013   */\n      tag_396\n        /* \"#utility.yul\":9009:9012   */\n      dup3\n        /* \"#utility.yul\":8920:9013   */\n      tag_274\n      jump\t// in\n    tag_396:\n        /* \"#utility.yul\":9038:9040   */\n      0x20\n        /* \"#utility.yul\":9033:9036   */\n      dup3\n        /* \"#utility.yul\":9029:9041   */\n      add\n        /* \"#utility.yul\":9022:9041   */\n      swap1\n      pop\n        /* \"#utility.yul\":8681:9047   */\n      swap2\n      swap1\n      pop\n      jump\t// out\n        /* \"#utility.yul\":9053:9472   */\n    tag_123:\n        /* \"#utility.yul\":9219:9223   */\n      0x00\n        /* \"#utility.yul\":9257:9259   */\n      0x20\n        /* \"#utility.yul\":9246:9255   */\n      dup3\n        /* \"#utility.yul\":9242:9260   */\n      add\n        /* \"#utility.yul\":9234:9260   */\n      swap1\n      pop\n        /* \"#utility.yul\":9306:9315   */\n      dup2\n        /* \"#utility.yul\":9300:9304   */\n      dup2\n        /* \"#utility.yul\":9296:9316   */\n      sub\n        /* \"#utility.yul\":9292:9293   */\n      0x00\n        /* \"#utility.yul\":9281:9290   */\n      dup4\n        /* \"#utility.yul\":9277:9294   */\n      add\n        /* \"#utility.yul\":9270:9317   */\n      mstore\n        /* \"#utility.yul\":9334:9465   */\n      tag_398\n        /* \"#utility.yul\":9460:9464   */\n      dup2\n        /* \"#utility.yul\":9334:9465   */\n      tag_275\n      jump\t// in\n    tag_398:\n        /* \"#utility.yul\":9326:9465   */\n      swap1\n      pop\n        /* \"#utility.yul\":9053:9472   */\n      swap2\n      swap1\n      pop\n      jump\t// out\n        /* \"#utility.yul\":9478:9658   */\n    tag_276:\n        /* \"#utility.yul\":9526:9603   */\n      0x4e487b7100000000000000000000000000000000000000000000000000000000\n        /* \"#utility.yul\":9523:9524   */\n      0x00\n        /* \"#utility.yul\":9516:9604   */\n      mstore\n        /* \"#utility.yul\":9623:9627   */\n      0x12\n        /* \"#utility.yul\":9620:9621   */\n      0x04\n        /* \"#utility.yul\":9613:9628   */\n      mstore\n        /* \"#utility.yul\":9647:9651   */\n      0x24\n        /* \"#utility.yul\":9644:9645   */\n      0x00\n        /* \"#utility.yul\":9637:9652   */\n      revert\n        /* \"#utility.yul\":9664:9844   */\n    tag_277:\n        /* \"#utility.yul\":9712:9789   */\n      0x4e487b7100000000000000000000000000000000000000000000000000000000\n        /* \"#utility.yul\":9709:9710   */\n      0x00\n        /* \"#utility.yul\":9702:9790   */\n      mstore\n        /* \"#utility.yul\":9809:9813   */\n      0x11\n        /* \"#utility.yul\":9806:9807   */\n      0x04\n        /* \"#utility.yul\":9799:9814   */\n      mstore\n        /* \"#utility.yul\":9833:9837   */\n      0x24\n        /* \"#utility.yul\":9830:9831   */\n      0x00\n        /* \"#utility.yul\":9823:9838   */\n      revert\n        /* \"#utility.yul\":9850:10035   */\n    tag_125:\n        /* \"#utility.yul\":9890:9891   */\n      0x00\n        /* \"#utility.yul\":9907:9927   */\n      tag_402\n        /* \"#utility.yul\":9925:9926   */\n      dup3\n        /* \"#utility.yul\":9907:9927   */\n      tag_257\n      jump\t// in\n    tag_402:\n        /* \"#utility.yul\":9902:9927   */\n      swap2\n      pop\n        /* \"#utility.yul\":9941:9961   */\n      tag_403\n        /* \"#utility.yul\":9959:9960   */\n      dup4\n        /* \"#utility.yul\":9941:9961   */\n      tag_257\n      jump\t// in\n    tag_403:\n        /* \"#utility.yul\":9936:9961   */\n      swap3\n      pop\n        /* \"#utility.yul\":9980:9981   */\n      dup3\n        /* \"#utility.yul\":9970:10005   */\n      tag_404\n      jumpi\n        /* \"#utility.yul\":9985:10003   */\n      tag_405\n      tag_276\n      jump\t// in\n    tag_405:\n        /* \"#utility.yul\":9970:10005   */\n    tag_404:\n        /* \"#utility.yul\":10027:10028   */\n      dup3\n        /* \"#utility.yul\":10024:10025   */\n      dup3\n        /* \"#utility.yul\":10020:10029   */\n      div\n        /* \"#utility.yul\":10015:10029   */\n      swap1\n      pop\n        /* \"#utility.yul\":9850:10035   */\n      swap3\n      swap2\n      pop\n      pop\n      jump\t// out\n        /* \"#utility.yul\":10041:10261   */\n    tag_278:\n        /* \"#utility.yul\":10181:10215   */\n      0x4e6f7420656e6f756768206c697175696469747920666f722074686520737761\n        /* \"#utility.yul\":10177:10178   */\n      0x00\n        /* \"#utility.yul\":10169:10175   */\n      dup3\n        /* \"#utility.yul\":10165:10179   */\n      add\n        /* \"#utility.yul\":10158:10216   */\n      mstore\n        /* \"#utility.yul\":10250:10253   */\n      0x7000000000000000000000000000000000000000000000000000000000000000\n        /* \"#utility.yul\":10245:10247   */\n      0x20\n        /* \"#utility.yul\":10237:10243   */\n      dup3\n        /* \"#utility.yul\":10233:10248   */\n      add\n        /* \"#utility.yul\":10226:10254   */\n      mstore\n        /* \"#utility.yul\":10041:10261   */\n      pop\n      jump\t// out\n        /* \"#utility.yul\":10267:10633   */\n    tag_279:\n        /* \"#utility.yul\":10409:10412   */\n      0x00\n        /* \"#utility.yul\":10430:10497   */\n      tag_408\n        /* \"#utility.yul\":10494:10496   */\n      0x21\n        /* \"#utility.yul\":10489:10492   */\n      dup4\n        /* \"#utility.yul\":10430:10497   */\n      tag_264\n      jump\t// in\n    tag_408:\n        /* \"#utility.yul\":10423:10497   */\n      swap2\n      pop\n        /* \"#utility.yul\":10506:10599   */\n      tag_409\n        /* \"#utility.yul\":10595:10598   */\n      dup3\n        /* \"#utility.yul\":10506:10599   */\n      tag_278\n      jump\t// in\n    tag_409:\n        /* \"#utility.yul\":10624:10626   */\n      0x40\n        /* \"#utility.yul\":10619:10622   */\n      dup3\n        /* \"#utility.yul\":10615:10627   */\n      add\n        /* \"#utility.yul\":10608:10627   */\n      swap1\n      pop\n        /* \"#utility.yul\":10267:10633   */\n      swap2\n      swap1\n      pop\n      jump\t// out\n        /* \"#utility.yul\":10639:11058   */\n    tag_132:\n        /* \"#utility.yul\":10805:10809   */\n      0x00\n        /* \"#utility.yul\":10843:10845   */\n      0x20\n        /* \"#utility.yul\":10832:10841   */\n      dup3\n        /* \"#utility.yul\":10828:10846   */\n      add\n        /* \"#utility.yul\":10820:10846   */\n      swap1\n      pop\n        /* \"#utility.yul\":10892:10901   */\n      dup2\n        /* \"#utility.yul\":10886:10890   */\n      dup2\n        /* \"#utility.yul\":10882:10902   */\n      sub\n        /* \"#utility.yul\":10878:10879   */\n      0x00\n        /* \"#utility.yul\":10867:10876   */\n      dup4\n        /* \"#utility.yul\":10863:10880   */\n      add\n        /* \"#utility.yul\":10856:10903   */\n      mstore\n        /* \"#utility.yul\":10920:11051   */\n      tag_411\n        /* \"#utility.yul\":11046:11050   */\n      dup2\n        /* \"#utility.yul\":10920:11051   */\n      tag_279\n      jump\t// in\n    tag_411:\n        /* \"#utility.yul\":10912:11051   */\n      swap1\n      pop\n        /* \"#utility.yul\":10639:11058   */\n      swap2\n      swap1\n      pop\n      jump\t// out\n        /* \"#utility.yul\":11064:11506   */\n    tag_134:\n        /* \"#utility.yul\":11213:11217   */\n      0x00\n        /* \"#utility.yul\":11251:11253   */\n      0x60\n        /* \"#utility.yul\":11240:11249   */\n      dup3\n        /* \"#utility.yul\":11236:11254   */\n      add\n        /* \"#utility.yul\":11228:11254   */\n      swap1\n      pop\n        /* \"#utility.yul\":11264:11335   */\n      tag_413\n        /* \"#utility.yul\":11332:11333   */\n      0x00\n        /* \"#utility.yul\":11321:11330   */\n      dup4\n        /* \"#utility.yul\":11317:11334   */\n      add\n        /* \"#utility.yul\":11308:11314   */\n      dup7\n        /* \"#utility.yul\":11264:11335   */\n      tag_268\n      jump\t// in\n    tag_413:\n        /* \"#utility.yul\":11345:11417   */\n      tag_414\n        /* \"#utility.yul\":11413:11415   */\n      0x20\n        /* \"#utility.yul\":11402:11411   */\n      dup4\n        /* \"#utility.yul\":11398:11416   */\n      add\n        /* \"#utility.yul\":11389:11395   */\n      dup6\n        /* \"#utility.yul\":11345:11417   */\n      tag_268\n      jump\t// in\n    tag_414:\n        /* \"#utility.yul\":11427:11499   */\n      tag_415\n        /* \"#utility.yul\":11495:11497   */\n      0x40\n        /* \"#utility.yul\":11484:11493   */\n      dup4\n        /* \"#utility.yul\":11480:11498   */\n      add\n        /* \"#utility.yul\":11471:11477   */\n      dup5\n        /* \"#utility.yul\":11427:11499   */\n      tag_258\n      jump\t// in\n    tag_415:\n        /* \"#utility.yul\":11064:11506   */\n      swap5\n      swap4\n      pop\n      pop\n      pop\n      pop\n      jump\t// out\n        /* \"#utility.yul\":11512:11684   */\n    tag_280:\n        /* \"#utility.yul\":11652:11676   */\n      0x4e6f207469656e6573206573612063616e746964616400000000000000000000\n        /* \"#utility.yul\":11648:11649   */\n      0x00\n        /* \"#utility.yul\":11640:11646   */\n      dup3\n        /* \"#utility.yul\":11636:11650   */\n      add\n        /* \"#utility.yul\":11629:11677   */\n      mstore\n        /* \"#utility.yul\":11512:11684   */\n      pop\n      jump\t// out\n        /* \"#utility.yul\":11690:12056   */\n    tag_281:\n        /* \"#utility.yul\":11832:11835   */\n      0x00\n        /* \"#utility.yul\":11853:11920   */\n      tag_418\n        /* \"#utility.yul\":11917:11919   */\n      0x16\n        /* \"#utility.yul\":11912:11915   */\n      dup4\n        /* \"#utility.yul\":11853:11920   */\n      tag_264\n      jump\t// in\n    tag_418:\n        /* \"#utility.yul\":11846:11920   */\n      swap2\n      pop\n        /* \"#utility.yul\":11929:12022   */\n      tag_419\n        /* \"#utility.yul\":12018:12021   */\n      dup3\n        /* \"#utility.yul\":11929:12022   */\n      tag_280\n      jump\t// in\n    tag_419:\n        /* \"#utility.yul\":12047:12049   */\n      0x20\n        /* \"#utility.yul\":12042:12045   */\n      dup3\n        /* \"#utility.yul\":12038:12050   */\n      add\n        /* \"#utility.yul\":12031:12050   */\n      swap1\n      pop\n        /* \"#utility.yul\":11690:12056   */\n      swap2\n      swap1\n      pop\n      jump\t// out\n        /* \"#utility.yul\":12062:12481   */\n    tag_165:\n        /* \"#utility.yul\":12228:12232   */\n      0x00\n        /* \"#utility.yul\":12266:12268   */\n      0x20\n        /* \"#utility.yul\":12255:12264   */\n      dup3\n        /* \"#utility.yul\":12251:12269   */\n      add\n        /* \"#utility.yul\":12243:12269   */\n      swap1\n      pop\n        /* \"#utility.yul\":12315:12324   */\n      dup2\n        /* \"#utility.yul\":12309:12313   */\n      dup2\n        /* \"#utility.yul\":12305:12325   */\n      sub\n        /* \"#utility.yul\":12301:12302   */\n      0x00\n        /* \"#utility.yul\":12290:12299   */\n      dup4\n        /* \"#utility.yul\":12286:12303   */\n      add\n        /* \"#utility.yul\":12279:12326   */\n      mstore\n        /* \"#utility.yul\":12343:12474   */\n      tag_421\n        /* \"#utility.yul\":12469:12473   */\n      dup2\n        /* \"#utility.yul\":12343:12474   */\n      tag_281\n      jump\t// in\n    tag_421:\n        /* \"#utility.yul\":12335:12474   */\n      swap1\n      pop\n        /* \"#utility.yul\":12062:12481   */\n      swap2\n      swap1\n      pop\n      jump\t// out\n        /* \"#utility.yul\":12487:12664   */\n    tag_282:\n        /* \"#utility.yul\":12627:12656   */\n      0x496e73756666696369656e7420746f6b656e412062616c616e63650000000000\n        /* \"#utility.yul\":12623:12624   */\n      0x00\n        /* \"#utility.yul\":12615:12621   */\n      dup3\n        /* \"#utility.yul\":12611:12625   */\n      add\n        /* \"#utility.yul\":12604:12657   */\n      mstore\n        /* \"#utility.yul\":12487:12664   */\n      pop\n      jump\t// out\n        /* \"#utility.yul\":12670:13036   */\n    tag_283:\n        /* \"#utility.yul\":12812:12815   */\n      0x00\n        /* \"#utility.yul\":12833:12900   */\n      tag_424\n        /* \"#utility.yul\":12897:12899   */\n      0x1b\n        /* \"#utility.yul\":12892:12895   */\n      dup4\n        /* \"#utility.yul\":12833:12900   */\n      tag_264\n      jump\t// in\n    tag_424:\n        /* \"#utility.yul\":12826:12900   */\n      swap2\n      pop\n        /* \"#utility.yul\":12909:13002   */\n      tag_425\n        /* \"#utility.yul\":12998:13001   */\n      dup3\n        /* \"#utility.yul\":12909:13002   */\n      tag_282\n      jump\t// in\n    tag_425:\n        /* \"#utility.yul\":13027:13029   */\n      0x20\n        /* \"#utility.yul\":13022:13025   */\n      dup3\n        /* \"#utility.yul\":13018:13030   */\n      add\n        /* \"#utility.yul\":13011:13030   */\n      swap1\n      pop\n        /* \"#utility.yul\":12670:13036   */\n      swap2\n      swap1\n      pop\n      jump\t// out\n        /* \"#utility.yul\":13042:13461   */\n    tag_177:\n        /* \"#utility.yul\":13208:13212   */\n      0x00\n        /* \"#utility.yul\":13246:13248   */\n      0x20\n        /* \"#utility.yul\":13235:13244   */\n      dup3\n        /* \"#utility.yul\":13231:13249   */\n      add\n        /* \"#utility.yul\":13223:13249   */\n      swap1\n      pop\n        /* \"#utility.yul\":13295:13304   */\n      dup2\n        /* \"#utility.yul\":13289:13293   */\n      dup2\n        /* \"#utility.yul\":13285:13305   */\n      sub\n        /* \"#utility.yul\":13281:13282   */\n      0x00\n        /* \"#utility.yul\":13270:13279   */\n      dup4\n        /* \"#utility.yul\":13266:13283   */\n      add\n        /* \"#utility.yul\":13259:13306   */\n      mstore\n        /* \"#utility.yul\":13323:13454   */\n      tag_427\n        /* \"#utility.yul\":13449:13453   */\n      dup2\n        /* \"#utility.yul\":13323:13454   */\n      tag_283\n      jump\t// in\n    tag_427:\n        /* \"#utility.yul\":13315:13454   */\n      swap1\n      pop\n        /* \"#utility.yul\":13042:13461   */\n      swap2\n      swap1\n      pop\n      jump\t// out\n        /* \"#utility.yul\":13467:13877   */\n    tag_179:\n        /* \"#utility.yul\":13507:13514   */\n      0x00\n        /* \"#utility.yul\":13530:13550   */\n      tag_429\n        /* \"#utility.yul\":13548:13549   */\n      dup3\n        /* \"#utility.yul\":13530:13550   */\n      tag_257\n      jump\t// in\n    tag_429:\n        /* \"#utility.yul\":13525:13550   */\n      swap2\n      pop\n        /* \"#utility.yul\":13564:13584   */\n      tag_430\n        /* \"#utility.yul\":13582:13583   */\n      dup4\n        /* \"#utility.yul\":13564:13584   */\n      tag_257\n      jump\t// in\n    tag_430:\n        /* \"#utility.yul\":13559:13584   */\n      swap3\n      pop\n        /* \"#utility.yul\":13619:13620   */\n      dup3\n        /* \"#utility.yul\":13616:13617   */\n      dup3\n        /* \"#utility.yul\":13612:13621   */\n      mul\n        /* \"#utility.yul\":13641:13671   */\n      tag_431\n        /* \"#utility.yul\":13659:13670   */\n      dup2\n        /* \"#utility.yul\":13641:13671   */\n      tag_257\n      jump\t// in\n    tag_431:\n        /* \"#utility.yul\":13630:13671   */\n      swap2\n      pop\n        /* \"#utility.yul\":13820:13821   */\n      dup3\n        /* \"#utility.yul\":13811:13818   */\n      dup3\n        /* \"#utility.yul\":13807:13822   */\n      div\n        /* \"#utility.yul\":13804:13805   */\n      dup5\n        /* \"#utility.yul\":13801:13823   */\n      eq\n        /* \"#utility.yul\":13781:13782   */\n      dup4\n        /* \"#utility.yul\":13774:13783   */\n      iszero\n        /* \"#utility.yul\":13754:13837   */\n      or\n        /* \"#utility.yul\":13731:13870   */\n      tag_432\n      jumpi\n        /* \"#utility.yul\":13850:13868   */\n      tag_433\n      tag_277\n      jump\t// in\n    tag_433:\n        /* \"#utility.yul\":13731:13870   */\n    tag_432:\n        /* \"#utility.yul\":13515:13877   */\n      pop\n        /* \"#utility.yul\":13467:13877   */\n      swap3\n      swap2\n      pop\n      pop\n      jump\t// out\n        /* \"#utility.yul\":13883:14113   */\n    tag_284:\n        /* \"#utility.yul\":14023:14057   */\n      0x5472616e736665722066726f6d206d73672e73656e64657220746f20636f6e74\n        /* \"#utility.yul\":14019:14020   */\n      0x00\n        /* \"#utility.yul\":14011:14017   */\n      dup3\n        /* \"#utility.yul\":14007:14021   */\n      add\n        /* \"#utility.yul\":14000:14058   */\n      mstore\n        /* \"#utility.yul\":14092:14105   */\n      0x72616374206661696c6564000000000000000000000000000000000000000000\n        /* \"#utility.yul\":14087:14089   */\n      0x20\n        /* \"#utility.yul\":14079:14085   */\n      dup3\n        /* \"#utility.yul\":14075:14090   */\n      add\n        /* \"#utility.yul\":14068:14106   */\n      mstore\n        /* \"#utility.yul\":13883:14113   */\n      pop\n      jump\t// out\n        /* \"#utility.yul\":14119:14485   */\n    tag_285:\n        /* \"#utility.yul\":14261:14264   */\n      0x00\n        /* \"#utility.yul\":14282:14349   */\n      tag_436\n        /* \"#utility.yul\":14346:14348   */\n      0x2b\n        /* \"#utility.yul\":14341:14344   */\n      dup4\n        /* \"#utility.yul\":14282:14349   */\n      tag_264\n      jump\t// in\n    tag_436:\n        /* \"#utility.yul\":14275:14349   */\n      swap2\n      pop\n        /* \"#utility.yul\":14358:14451   */\n      tag_437\n        /* \"#utility.yul\":14447:14450   */\n      dup3\n        /* \"#utility.yul\":14358:14451   */\n      tag_284\n      jump\t// in\n    tag_437:\n        /* \"#utility.yul\":14476:14478   */\n      0x40\n        /* \"#utility.yul\":14471:14474   */\n      dup3\n        /* \"#utility.yul\":14467:14479   */\n      add\n        /* \"#utility.yul\":14460:14479   */\n      swap1\n      pop\n        /* \"#utility.yul\":14119:14485   */\n      swap2\n      swap1\n      pop\n      jump\t// out\n        /* \"#utility.yul\":14491:14910   */\n    tag_192:\n        /* \"#utility.yul\":14657:14661   */\n      0x00\n        /* \"#utility.yul\":14695:14697   */\n      0x20\n        /* \"#utility.yul\":14684:14693   */\n      dup3\n        /* \"#utility.yul\":14680:14698   */\n      add\n        /* \"#utility.yul\":14672:14698   */\n      swap1\n      pop\n        /* \"#utility.yul\":14744:14753   */\n      dup2\n        /* \"#utility.yul\":14738:14742   */\n      dup2\n        /* \"#utility.yul\":14734:14754   */\n      sub\n        /* \"#utility.yul\":14730:14731   */\n      0x00\n        /* \"#utility.yul\":14719:14728   */\n      dup4\n        /* \"#utility.yul\":14715:14732   */\n      add\n        /* \"#utility.yul\":14708:14755   */\n      mstore\n        /* \"#utility.yul\":14772:14903   */\n      tag_439\n        /* \"#utility.yul\":14898:14902   */\n      dup2\n        /* \"#utility.yul\":14772:14903   */\n      tag_285\n      jump\t// in\n    tag_439:\n        /* \"#utility.yul\":14764:14903   */\n      swap1\n      pop\n        /* \"#utility.yul\":14491:14910   */\n      swap2\n      swap1\n      pop\n      jump\t// out\n        /* \"#utility.yul\":14916:15146   */\n    tag_286:\n        /* \"#utility.yul\":15056:15090   */\n      0x5472616e736665722066726f6d20636f6e747261637420746f206d73672e7365\n        /* \"#utility.yul\":15052:15053   */\n      0x00\n        /* \"#utility.yul\":15044:15050   */\n      dup3\n        /* \"#utility.yul\":15040:15054   */\n      add\n        /* \"#utility.yul\":15033:15091   */\n      mstore\n        /* \"#utility.yul\":15125:15138   */\n      0x6e646572206661696c6564000000000000000000000000000000000000000000\n        /* \"#utility.yul\":15120:15122   */\n      0x20\n        /* \"#utility.yul\":15112:15118   */\n      dup3\n        /* \"#utility.yul\":15108:15123   */\n      add\n        /* \"#utility.yul\":15101:15139   */\n      mstore\n        /* \"#utility.yul\":14916:15146   */\n      pop\n      jump\t// out\n        /* \"#utility.yul\":15152:15518   */\n    tag_287:\n        /* \"#utility.yul\":15294:15297   */\n      0x00\n        /* \"#utility.yul\":15315:15382   */\n      tag_442\n        /* \"#utility.yul\":15379:15381   */\n      0x2b\n        /* \"#utility.yul\":15374:15377   */\n      dup4\n        /* \"#utility.yul\":15315:15382   */\n      tag_264\n      jump\t// in\n    tag_442:\n        /* \"#utility.yul\":15308:15382   */\n      swap2\n      pop\n        /* \"#utility.yul\":15391:15484   */\n      tag_443\n        /* \"#utility.yul\":15480:15483   */\n      dup3\n        /* \"#utility.yul\":15391:15484   */\n      tag_286\n      jump\t// in\n    tag_443:\n        /* \"#utility.yul\":15509:15511   */\n      0x40\n        /* \"#utility.yul\":15504:15507   */\n      dup3\n        /* \"#utility.yul\":15500:15512   */\n      add\n        /* \"#utility.yul\":15493:15512   */\n      swap1\n      pop\n        /* \"#utility.yul\":15152:15518   */\n      swap2\n      swap1\n      pop\n      jump\t// out\n        /* \"#utility.yul\":15524:15943   */\n    tag_200:\n        /* \"#utility.yul\":15690:15694   */\n      0x00\n        /* \"#utility.yul\":15728:15730   */\n      0x20\n        /* \"#utility.yul\":15717:15726   */\n      dup3\n        /* \"#utility.yul\":15713:15731   */\n      add\n        /* \"#utility.yul\":15705:15731   */\n      swap1\n      pop\n        /* \"#utility.yul\":15777:15786   */\n      dup2\n        /* \"#utility.yul\":15771:15775   */\n      dup2\n        /* \"#utility.yul\":15767:15787   */\n      sub\n        /* \"#utility.yul\":15763:15764   */\n      0x00\n        /* \"#utility.yul\":15752:15761   */\n      dup4\n        /* \"#utility.yul\":15748:15765   */\n      add\n        /* \"#utility.yul\":15741:15788   */\n      mstore\n        /* \"#utility.yul\":15805:15936   */\n      tag_445\n        /* \"#utility.yul\":15931:15935   */\n      dup2\n        /* \"#utility.yul\":15805:15936   */\n      tag_287\n      jump\t// in\n    tag_445:\n        /* \"#utility.yul\":15797:15936   */\n      swap1\n      pop\n        /* \"#utility.yul\":15524:15943   */\n      swap2\n      swap1\n      pop\n      jump\t// out\n        /* \"#utility.yul\":15949:16126   */\n    tag_288:\n        /* \"#utility.yul\":16089:16118   */\n      0x4e6f20686173207265616c697a61646f206e6967756e20737761700000000000\n        /* \"#utility.yul\":16085:16086   */\n      0x00\n        /* \"#utility.yul\":16077:16083   */\n      dup3\n        /* \"#utility.yul\":16073:16087   */\n      add\n        /* \"#utility.yul\":16066:16119   */\n      mstore\n        /* \"#utility.yul\":15949:16126   */\n      pop\n      jump\t// out\n        /* \"#utility.yul\":16132:16498   */\n    tag_289:\n        /* \"#utility.yul\":16274:16277   */\n      0x00\n        /* \"#utility.yul\":16295:16362   */\n      tag_448\n        /* \"#utility.yul\":16359:16361   */\n      0x1b\n        /* \"#utility.yul\":16354:16357   */\n      dup4\n        /* \"#utility.yul\":16295:16362   */\n      tag_264\n      jump\t// in\n    tag_448:\n        /* \"#utility.yul\":16288:16362   */\n      swap2\n      pop\n        /* \"#utility.yul\":16371:16464   */\n      tag_449\n        /* \"#utility.yul\":16460:16463   */\n      dup3\n        /* \"#utility.yul\":16371:16464   */\n      tag_288\n      jump\t// in\n    tag_449:\n        /* \"#utility.yul\":16489:16491   */\n      0x20\n        /* \"#utility.yul\":16484:16487   */\n      dup3\n        /* \"#utility.yul\":16480:16492   */\n      add\n        /* \"#utility.yul\":16473:16492   */\n      swap1\n      pop\n        /* \"#utility.yul\":16132:16498   */\n      swap2\n      swap1\n      pop\n      jump\t// out\n        /* \"#utility.yul\":16504:16923   */\n    tag_204:\n        /* \"#utility.yul\":16670:16674   */\n      0x00\n        /* \"#utility.yul\":16708:16710   */\n      0x20\n        /* \"#utility.yul\":16697:16706   */\n      dup3\n        /* \"#utility.yul\":16693:16711   */\n      add\n        /* \"#utility.yul\":16685:16711   */\n      swap1\n      pop\n        /* \"#utility.yul\":16757:16766   */\n      dup2\n        /* \"#utility.yul\":16751:16755   */\n      dup2\n        /* \"#utility.yul\":16747:16767   */\n      sub\n        /* \"#utility.yul\":16743:16744   */\n      0x00\n        /* \"#utility.yul\":16732:16741   */\n      dup4\n        /* \"#utility.yul\":16728:16745   */\n      add\n        /* \"#utility.yul\":16721:16768   */\n      mstore\n        /* \"#utility.yul\":16785:16916   */\n      tag_451\n        /* \"#utility.yul\":16911:16915   */\n      dup2\n        /* \"#utility.yul\":16785:16916   */\n      tag_289\n      jump\t// in\n    tag_451:\n        /* \"#utility.yul\":16777:16916   */\n      swap1\n      pop\n        /* \"#utility.yul\":16504:16923   */\n      swap2\n      swap1\n      pop\n      jump\t// out\n        /* \"#utility.yul\":16929:17158   */\n    tag_290:\n        /* \"#utility.yul\":17069:17103   */\n      0x426f746820746f6b656e2062616c616e636573206d7573742062652067726561\n        /* \"#utility.yul\":17065:17066   */\n      0x00\n        /* \"#utility.yul\":17057:17063   */\n      dup3\n        /* \"#utility.yul\":17053:17067   */\n      add\n        /* \"#utility.yul\":17046:17104   */\n      mstore\n        /* \"#utility.yul\":17138:17150   */\n      0x746572207468616e203000000000000000000000000000000000000000000000\n        /* \"#utility.yul\":17133:17135   */\n      0x20\n        /* \"#utility.yul\":17125:17131   */\n      dup3\n        /* \"#utility.yul\":17121:17136   */\n      add\n        /* \"#utility.yul\":17114:17151   */\n      mstore\n        /* \"#utility.yul\":16929:17158   */\n      pop\n      jump\t// out\n        /* \"#utility.yul\":17164:17530   */\n    tag_291:\n        /* \"#utility.yul\":17306:17309   */\n      0x00\n        /* \"#utility.yul\":17327:17394   */\n      tag_454\n        /* \"#utility.yul\":17391:17393   */\n      0x2a\n        /* \"#utility.yul\":17386:17389   */\n      dup4\n        /* \"#utility.yul\":17327:17394   */\n      tag_264\n      jump\t// in\n    tag_454:\n        /* \"#utility.yul\":17320:17394   */\n      swap2\n      pop\n        /* \"#utility.yul\":17403:17496   */\n      tag_455\n        /* \"#utility.yul\":17492:17495   */\n      dup3\n        /* \"#utility.yul\":17403:17496   */\n      tag_290\n      jump\t// in\n    tag_455:\n        /* \"#utility.yul\":17521:17523   */\n      0x40\n        /* \"#utility.yul\":17516:17519   */\n      dup3\n        /* \"#utility.yul\":17512:17524   */\n      add\n        /* \"#utility.yul\":17505:17524   */\n      swap1\n      pop\n        /* \"#utility.yul\":17164:17530   */\n      swap2\n      swap1\n      pop\n      jump\t// out\n        /* \"#utility.yul\":17536:17955   */\n    tag_216:\n        /* \"#utility.yul\":17702:17706   */\n      0x00\n        /* \"#utility.yul\":17740:17742   */\n      0x20\n        /* \"#utility.yul\":17729:17738   */\n      dup3\n        /* \"#utility.yul\":17725:17743   */\n      add\n        /* \"#utility.yul\":17717:17743   */\n      swap1\n      pop\n        /* \"#utility.yul\":17789:17798   */\n      dup2\n        /* \"#utility.yul\":17783:17787   */\n      dup2\n        /* \"#utility.yul\":17779:17799   */\n      sub\n        /* \"#utility.yul\":17775:17776   */\n      0x00\n        /* \"#utility.yul\":17764:17773   */\n      dup4\n        /* \"#utility.yul\":17760:17777   */\n      add\n        /* \"#utility.yul\":17753:17800   */\n      mstore\n        /* \"#utility.yul\":17817:17948   */\n      tag_457\n        /* \"#utility.yul\":17943:17947   */\n      dup2\n        /* \"#utility.yul\":17817:17948   */\n      tag_291\n      jump\t// in\n    tag_457:\n        /* \"#utility.yul\":17809:17948   */\n      swap1\n      pop\n        /* \"#utility.yul\":17536:17955   */\n      swap2\n      swap1\n      pop\n      jump\t// out\n        /* \"#utility.yul\":17961:18139   */\n    tag_292:\n        /* \"#utility.yul\":18101:18131   */\n      0x546f6b656e2062616c616e636573206d75737420626520657175616c00000000\n        /* \"#utility.yul\":18097:18098   */\n      0x00\n        /* \"#utility.yul\":18089:18095   */\n      dup3\n        /* \"#utility.yul\":18085:18099   */\n      add\n        /* \"#utility.yul\":18078:18132   */\n      mstore\n        /* \"#utility.yul\":17961:18139   */\n      pop\n      jump\t// out\n        /* \"#utility.yul\":18145:18511   */\n    tag_293:\n        /* \"#utility.yul\":18287:18290   */\n      0x00\n        /* \"#utility.yul\":18308:18375   */\n      tag_460\n        /* \"#utility.yul\":18372:18374   */\n      0x1c\n        /* \"#utility.yul\":18367:18370   */\n      dup4\n        /* \"#utility.yul\":18308:18375   */\n      tag_264\n      jump\t// in\n    tag_460:\n        /* \"#utility.yul\":18301:18375   */\n      swap2\n      pop\n        /* \"#utility.yul\":18384:18477   */\n      tag_461\n        /* \"#utility.yul\":18473:18476   */\n      dup3\n        /* \"#utility.yul\":18384:18477   */\n      tag_292\n      jump\t// in\n    tag_461:\n        /* \"#utility.yul\":18502:18504   */\n      0x20\n        /* \"#utility.yul\":18497:18500   */\n      dup3\n        /* \"#utility.yul\":18493:18505   */\n      add\n        /* \"#utility.yul\":18486:18505   */\n      swap1\n      pop\n        /* \"#utility.yul\":18145:18511   */\n      swap2\n      swap1\n      pop\n      jump\t// out\n        /* \"#utility.yul\":18517:18936   */\n    tag_227:\n        /* \"#utility.yul\":18683:18687   */\n      0x00\n        /* \"#utility.yul\":18721:18723   */\n      0x20\n        /* \"#utility.yul\":18710:18719   */\n      dup3\n        /* \"#utility.yul\":18706:18724   */\n      add\n        /* \"#utility.yul\":18698:18724   */\n      swap1\n      pop\n        /* \"#utility.yul\":18770:18779   */\n      dup2\n        /* \"#utility.yul\":18764:18768   */\n      dup2\n        /* \"#utility.yul\":18760:18780   */\n      sub\n        /* \"#utility.yul\":18756:18757   */\n      0x00\n        /* \"#utility.yul\":18745:18754   */\n      dup4\n        /* \"#utility.yul\":18741:18758   */\n      add\n        /* \"#utility.yul\":18734:18781   */\n      mstore\n        /* \"#utility.yul\":18798:18929   */\n      tag_463\n        /* \"#utility.yul\":18924:18928   */\n      dup2\n        /* \"#utility.yul\":18798:18929   */\n      tag_293\n      jump\t// in\n    tag_463:\n        /* \"#utility.yul\":18790:18929   */\n      swap1\n      pop\n        /* \"#utility.yul\":18517:18936   */\n      swap2\n      swap1\n      pop\n      jump\t// out\n        /* \"#utility.yul\":18942:19122   */\n    tag_294:\n        /* \"#utility.yul\":18990:19067   */\n      0x4e487b7100000000000000000000000000000000000000000000000000000000\n        /* \"#utility.yul\":18987:18988   */\n      0x00\n        /* \"#utility.yul\":18980:19068   */\n      mstore\n        /* \"#utility.yul\":19087:19091   */\n      0x22\n        /* \"#utility.yul\":19084:19085   */\n      0x04\n        /* \"#utility.yul\":19077:19092   */\n      mstore\n        /* \"#utility.yul\":19111:19115   */\n      0x24\n        /* \"#utility.yul\":19108:19109   */\n      0x00\n        /* \"#utility.yul\":19101:19116   */\n      revert\n        /* \"#utility.yul\":19128:19448   */\n    tag_229:\n        /* \"#utility.yul\":19172:19178   */\n      0x00\n        /* \"#utility.yul\":19209:19210   */\n      0x02\n        /* \"#utility.yul\":19203:19207   */\n      dup3\n        /* \"#utility.yul\":19199:19211   */\n      div\n        /* \"#utility.yul\":19189:19211   */\n      swap1\n      pop\n        /* \"#utility.yul\":19256:19257   */\n      0x01\n        /* \"#utility.yul\":19250:19254   */\n      dup3\n        /* \"#utility.yul\":19246:19258   */\n      and\n        /* \"#utility.yul\":19277:19295   */\n      dup1\n        /* \"#utility.yul\":19267:19348   */\n      tag_466\n      jumpi\n        /* \"#utility.yul\":19333:19337   */\n      0x7f\n        /* \"#utility.yul\":19325:19331   */\n      dup3\n        /* \"#utility.yul\":19321:19338   */\n      and\n        /* \"#utility.yul\":19311:19338   */\n      swap2\n      pop\n        /* \"#utility.yul\":19267:19348   */\n    tag_466:\n        /* \"#utility.yul\":19395:19397   */\n      0x20\n        /* \"#utility.yul\":19387:19393   */\n      dup3\n        /* \"#utility.yul\":19384:19398   */\n      lt\n        /* \"#utility.yul\":19364:19382   */\n      dup2\n        /* \"#utility.yul\":19361:19399   */\n      sub\n        /* \"#utility.yul\":19358:19442   */\n      tag_467\n      jumpi\n        /* \"#utility.yul\":19414:19432   */\n      tag_468\n      tag_294\n      jump\t// in\n    tag_468:\n        /* \"#utility.yul\":19358:19442   */\n    tag_467:\n        /* \"#utility.yul\":19179:19448   */\n      pop\n        /* \"#utility.yul\":19128:19448   */\n      swap2\n      swap1\n      pop\n      jump\t// out\n\n    auxdata: 0xa264697066735822122012b51f7d8e52fcf3f05b08e3b65fe795d42d9c4bfcf1fbcf7daeba8065a76a6364736f6c63430008150033\n}\n",
				"bytecode": {
					"linkReferences": {},
					"object": "608060405234801562000010575f80fd5b5060405162002a0b38038062002a0b833981810160405281019062000036919062000554565b845f806101000a81548173ffffffffffffffffffffffffffffffffffffffff021916908373ffffffffffffffffffffffffffffffffffffffff1602179055508360015f6101000a81548173ffffffffffffffffffffffffffffffffffffffff021916908373ffffffffffffffffffffffffffffffffffffffff1602179055508260029081620000c6919062000825565b505f8054906101000a900473ffffffffffffffffffffffffffffffffffffffff1673ffffffffffffffffffffffffffffffffffffffff166340c10f1930846040518363ffffffff1660e01b8152600401620001239291906200092b565b5f604051808303815f87803b1580156200013b575f80fd5b505af11580156200014e573d5f803e3d5ffd5b5050505060015f9054906101000a900473ffffffffffffffffffffffffffffffffffffffff1673ffffffffffffffffffffffffffffffffffffffff166340c10f1930836040518363ffffffff1660e01b8152600401620001b09291906200092b565b5f604051808303815f87803b158015620001c8575f80fd5b505af1158015620001db573d5f803e3d5ffd5b505050505f8054906101000a900473ffffffffffffffffffffffffffffffffffffffff1673ffffffffffffffffffffffffffffffffffffffff166370a08231306040518263ffffffff1660e01b815260040162000239919062000956565b602060405180830381865afa15801562000255573d5f803e3d5ffd5b505050506040513d601f19601f820116820180604052508101906200027b919062000971565b60015f9054906101000a900473ffffffffffffffffffffffffffffffffffffffff1673ffffffffffffffffffffffffffffffffffffffff166370a08231306040518263ffffffff1660e01b8152600401620002d7919062000956565b602060405180830381865afa158015620002f3573d5f803e3d5ffd5b505050506040513d601f19601f8201168201806040525081019062000319919062000971565b620003259190620009ce565b600381905550505050505062000a05565b5f604051905090565b5f80fd5b5f80fd5b5f73ffffffffffffffffffffffffffffffffffffffff82169050919050565b5f620003728262000347565b9050919050565b620003848162000366565b81146200038f575f80fd5b50565b5f81519050620003a28162000379565b92915050565b5f80fd5b5f80fd5b5f601f19601f8301169050919050565b7f4e487b71000000000000000000000000000000000000000000000000000000005f52604160045260245ffd5b620003f882620003b0565b810181811067ffffffffffffffff821117156200041a5762000419620003c0565b5b80604052505050565b5f6200042e62000336565b90506200043c8282620003ed565b919050565b5f67ffffffffffffffff8211156200045e576200045d620003c0565b5b6200046982620003b0565b9050602081019050919050565b5f5b838110156200049557808201518184015260208101905062000478565b5f8484015250505050565b5f620004b6620004b08462000441565b62000423565b905082815260208101848484011115620004d557620004d4620003ac565b5b620004e284828562000476565b509392505050565b5f82601f830112620005015762000500620003a8565b5b815162000513848260208601620004a0565b91505092915050565b5f819050919050565b62000530816200051c565b81146200053b575f80fd5b50565b5f815190506200054e8162000525565b92915050565b5f805f805f60a0868803121562000570576200056f6200033f565b5b5f6200057f8882890162000392565b9550506020620005928882890162000392565b945050604086015167ffffffffffffffff811115620005b657620005b562000343565b5b620005c488828901620004ea565b9350506060620005d7888289016200053e565b9250506080620005ea888289016200053e565b9150509295509295909350565b5f81519050919050565b7f4e487b71000000000000000000000000000000000000000000000000000000005f52602260045260245ffd5b5f60028204905060018216806200064657607f821691505b6020821081036200065c576200065b62000601565b5b50919050565b5f819050815f5260205f209050919050565b5f6020601f8301049050919050565b5f82821b905092915050565b5f60088302620006c07fffffffffffffffffffffffffffffffffffffffffffffffffffffffffffffffff8262000683565b620006cc868362000683565b95508019841693508086168417925050509392505050565b5f819050919050565b5f6200070d6200070762000701846200051c565b620006e4565b6200051c565b9050919050565b5f819050919050565b6200072883620006ed565b62000740620007378262000714565b8484546200068f565b825550505050565b5f90565b6200075662000748565b620007638184846200071d565b505050565b5b818110156200078a576200077e5f826200074c565b60018101905062000769565b5050565b601f821115620007d957620007a38162000662565b620007ae8462000674565b81016020851015620007be578190505b620007d6620007cd8562000674565b83018262000768565b50505b505050565b5f82821c905092915050565b5f620007fb5f1984600802620007de565b1980831691505092915050565b5f620008158383620007ea565b9150826002028217905092915050565b6200083082620005f7565b67ffffffffffffffff8111156200084c576200084b620003c0565b5b6200085882546200062e565b620008658282856200078e565b5f60209050601f8311600181146200089b575f841562000886578287015190505b62000892858262000808565b86555062000901565b601f198416620008ab8662000662565b5f5b82811015620008d457848901518255600182019150602085019450602081019050620008ad565b86831015620008f45784890151620008f0601f891682620007ea565b8355505b6001600288020188555050505b505050505050565b620009148162000366565b82525050565b62000925816200051c565b82525050565b5f604082019050620009405f83018562000909565b6200094f60208301846200091a565b9392505050565b5f6020820190506200096b5f83018462000909565b92915050565b5f602082840312156200098957620009886200033f565b5b5f62000998848285016200053e565b91505092915050565b7f4e487b71000000000000000000000000000000000000000000000000000000005f52601260045260245ffd5b5f620009da826200051c565b9150620009e7836200051c565b925082620009fa57620009f9620009a1565b5b828204905092915050565b611ff88062000a135f395ff3fe608060405234801561000f575f80fd5b5060043610610109575f3560e01c80638014a7aa116100a0578063ab4d4c8a1161006f578063ab4d4c8a14610291578063bab38c1c146102ad578063e4f1f70a146102c9578063f9633930146102e5578063fe42c0871461030357610109565b80638014a7aa1461021d5780638119c06514610239578063875aa25414610257578063a5d0fa9d1461027357610109565b80632df8aaba116100dc5780632df8aaba146101a757806354b1f84f146101c35780635b4246d4146101e15780635f64b55b146101ff57610109565b80630fc63d101461010d5780631cad2cac1461012b57806320297e971461015b578063276923601461018b575b5f80fd5b61011561031f565b604051610122919061168f565b60405180910390f35b610145600480360381019061014091906116e7565b610342565b604051610152919061172a565b60405180910390f35b610175600480360381019061017091906116e7565b6103e6565b604051610182919061172a565b60405180910390f35b6101a560048036038101906101a0919061176d565b61048c565b005b6101c160048036038101906101bc9190611798565b610516565b005b6101cb6105b5565b6040516101d8919061172a565b60405180910390f35b6101e9610659565b6040516101f6919061172a565b60405180910390f35b61020761065f565b604051610214919061168f565b60405180910390f35b6102376004803603810190610232919061176d565b610684565b005b6102416109f2565b60405161024e91906117f0565b60405180910390f35b610271600480360381019061026c919061176d565b610a04565b005b61027b610a90565b604051610288919061172a565b60405180910390f35b6102ab60048036038101906102a6919061176d565b610b36565b005b6102c760048036038101906102c2919061176d565b610bd6565b005b6102e360048036038101906102de919061176d565b610d39565b005b6102ed6110df565b6040516102fa9190611893565b60405180910390f35b61031d6004803603810190610318919061176d565b6114b0565b005b5f8054906101000a900473ffffffffffffffffffffffffffffffffffffffff1681565b5f805f8054906101000a900473ffffffffffffffffffffffffffffffffffffffff1673ffffffffffffffffffffffffffffffffffffffff166370a08231846040518263ffffffff1660e01b815260040161039c91906118c2565b602060405180830381865afa1580156103b7573d5f803e3d5ffd5b505050506040513d601f19601f820116820180604052508101906103db91906118ef565b905080915050919050565b5f8060015f9054906101000a900473ffffffffffffffffffffffffffffffffffffffff1673ffffffffffffffffffffffffffffffffffffffff166370a08231846040518263ffffffff1660e01b815260040161044291906118c2565b602060405180830381865afa15801561045d573d5f803e3d5ffd5b505050506040513d601f19601f8201168201806040525081019061048191906118ef565b905080915050919050565b5f8054906101000a900473ffffffffffffffffffffffffffffffffffffffff1673ffffffffffffffffffffffffffffffffffffffff166340c10f1933836040518363ffffffff1660e01b81526004016104e692919061191a565b5f604051808303815f87803b1580156104fd575f80fd5b505af115801561050f573d5f803e3d5ffd5b5050505050565b5f8054906101000a900473ffffffffffffffffffffffffffffffffffffffff1673ffffffffffffffffffffffffffffffffffffffff1663a9059cbb83836040518363ffffffff1660e01b815260040161057092919061191a565b6020604051808303815f875af115801561058c573d5f803e3d5ffd5b505050506040513d601f19601f820116820180604052508101906105b0919061196b565b505050565b5f805f8054906101000a900473ffffffffffffffffffffffffffffffffffffffff1673ffffffffffffffffffffffffffffffffffffffff1663dd62ed3e33306040518363ffffffff1660e01b8152600401610611929190611996565b602060405180830381865afa15801561062c573d5f803e3d5ffd5b505050506040513d601f19601f8201168201806040525081019061065091906118ef565b90508091505090565b60035481565b60015f9054906101000a900473ffffffffffffffffffffffffffffffffffffffff1681565b60035481116106c8576040517f08c379a00000000000000000000000000000000000000000000000000000000081526004016106bf90611a07565b60405180910390fd5b8060015f9054906101000a900473ffffffffffffffffffffffffffffffffffffffff1673ffffffffffffffffffffffffffffffffffffffff166370a08231336040518263ffffffff1660e01b815260040161072391906118c2565b602060405180830381865afa15801561073e573d5f803e3d5ffd5b505050506040513d601f19601f8201168201806040525081019061076291906118ef565b10156107a3576040517f08c379a000000000000000000000000000000000000000000000000000000000815260040161079a90611a6f565b60405180910390fd5b600354816107b19190611ae7565b5f8054906101000a900473ffffffffffffffffffffffffffffffffffffffff1673ffffffffffffffffffffffffffffffffffffffff166370a08231306040518263ffffffff1660e01b815260040161080991906118c2565b602060405180830381865afa158015610824573d5f803e3d5ffd5b505050506040513d601f19601f8201168201806040525081019061084891906118ef565b1015610889576040517f08c379a000000000000000000000000000000000000000000000000000000000815260040161088090611b87565b60405180910390fd5b60015f9054906101000a900473ffffffffffffffffffffffffffffffffffffffff1673ffffffffffffffffffffffffffffffffffffffff166323b872dd3330846040518463ffffffff1660e01b81526004016108e793929190611ba5565b6020604051808303815f875af1158015610903573d5f803e3d5ffd5b505050506040513d601f19601f82011682018060405250810190610927919061196b565b505f600354826109379190611ae7565b90505f8054906101000a900473ffffffffffffffffffffffffffffffffffffffff1673ffffffffffffffffffffffffffffffffffffffff1663a9059cbb33836040518363ffffffff1660e01b815260040161099392919061191a565b6020604051808303815f875af11580156109af573d5f803e3d5ffd5b505050506040513d601f19601f820116820180604052508101906109d3919061196b565b50600160045f6101000a81548160ff0219169083151502179055505050565b60045f9054906101000a900460ff1681565b60015f9054906101000a900473ffffffffffffffffffffffffffffffffffffffff1673ffffffffffffffffffffffffffffffffffffffff166340c10f1933836040518363ffffffff1660e01b8152600401610a6092919061191a565b5f604051808303815f87803b158015610a77575f80fd5b505af1158015610a89573d5f803e3d5ffd5b5050505050565b5f8060015f9054906101000a900473ffffffffffffffffffffffffffffffffffffffff1673ffffffffffffffffffffffffffffffffffffffff1663dd62ed3e33306040518363ffffffff1660e01b8152600401610aee929190611996565b602060405180830381865afa158015610b09573d5f803e3d5ffd5b505050506040513d601f19601f82011682018060405250810190610b2d91906118ef565b90508091505090565b5f8054906101000a900473ffffffffffffffffffffffffffffffffffffffff1673ffffffffffffffffffffffffffffffffffffffff166323b872dd335f846040518463ffffffff1660e01b8152600401610b9293929190611ba5565b6020604051808303815f875af1158015610bae573d5f803e3d5ffd5b505050506040513d601f19601f82011682018060405250810190610bd2919061196b565b5050565b805f8054906101000a900473ffffffffffffffffffffffffffffffffffffffff1673ffffffffffffffffffffffffffffffffffffffff166370a08231336040518263ffffffff1660e01b8152600401610c2f91906118c2565b602060405180830381865afa158015610c4a573d5f803e3d5ffd5b505050506040513d601f19601f82011682018060405250810190610c6e91906118ef565b1015610caf576040517f08c379a0000000000000000000000000000000000000000000000000000000008152600401610ca690611c24565b60405180910390fd5b5f8054906101000a900473ffffffffffffffffffffffffffffffffffffffff1673ffffffffffffffffffffffffffffffffffffffff16639dc29fac33836040518363ffffffff1660e01b8152600401610d0992919061191a565b5f604051808303815f87803b158015610d20575f80fd5b505af1158015610d32573d5f803e3d5ffd5b5050505050565b805f8054906101000a900473ffffffffffffffffffffffffffffffffffffffff1673ffffffffffffffffffffffffffffffffffffffff166370a08231336040518263ffffffff1660e01b8152600401610d9291906118c2565b602060405180830381865afa158015610dad573d5f803e3d5ffd5b505050506040513d601f19601f82011682018060405250810190610dd191906118ef565b1015610e12576040517f08c379a0000000000000000000000000000000000000000000000000000000008152600401610e0990611c8c565b60405180910390fd5b60035481610e209190611caa565b60015f9054906101000a900473ffffffffffffffffffffffffffffffffffffffff1673ffffffffffffffffffffffffffffffffffffffff166370a08231306040518263ffffffff1660e01b8152600401610e7a91906118c2565b602060405180830381865afa158015610e95573d5f803e3d5ffd5b505050506040513d601f19601f82011682018060405250810190610eb991906118ef565b1015610efa576040517f08c379a0000000000000000000000000000000000000000000000000000000008152600401610ef190611b87565b60405180910390fd5b5f8054906101000a900473ffffffffffffffffffffffffffffffffffffffff1673ffffffffffffffffffffffffffffffffffffffff166323b872dd3330846040518463ffffffff1660e01b8152600401610f5693929190611ba5565b6020604051808303815f875af1158015610f72573d5f803e3d5ffd5b505050506040513d601f19601f82011682018060405250810190610f96919061196b565b610fd5576040517f08c379a0000000000000000000000000000000000000000000000000000000008152600401610fcc90611d5b565b60405180910390fd5b5f60035482610fe49190611caa565b905060015f9054906101000a900473ffffffffffffffffffffffffffffffffffffffff1673ffffffffffffffffffffffffffffffffffffffff1663a9059cbb33836040518363ffffffff1660e01b815260040161104292919061191a565b6020604051808303815f875af115801561105e573d5f803e3d5ffd5b505050506040513d601f19601f82011682018060405250810190611082919061196b565b6110c1576040517f08c379a00000000000000000000000000000000000000000000000000000000081526004016110b890611de9565b60405180910390fd5b600160045f6101000a81548160ff0219169083151502179055505050565b60606001151560045f9054906101000a900460ff16151514611136576040517f08c379a000000000000000000000000000000000000000000000000000000000815260040161112d90611e51565b60405180910390fd5b5f60015f9054906101000a900473ffffffffffffffffffffffffffffffffffffffff1673ffffffffffffffffffffffffffffffffffffffff166370a08231306040518263ffffffff1660e01b815260040161119191906118c2565b602060405180830381865afa1580156111ac573d5f803e3d5ffd5b505050506040513d601f19601f820116820180604052508101906111d091906118ef565b11801561127357505f805f9054906101000a900473ffffffffffffffffffffffffffffffffffffffff1673ffffffffffffffffffffffffffffffffffffffff166370a08231306040518263ffffffff1660e01b815260040161123291906118c2565b602060405180830381865afa15801561124d573d5f803e3d5ffd5b505050506040513d601f19601f8201168201806040525081019061127191906118ef565b115b6112b2576040517f08c379a00000000000000000000000000000000000000000000000000000000081526004016112a990611edf565b60405180910390fd5b5f8054906101000a900473ffffffffffffffffffffffffffffffffffffffff1673ffffffffffffffffffffffffffffffffffffffff166370a08231306040518263ffffffff1660e01b815260040161130a91906118c2565b602060405180830381865afa158015611325573d5f803e3d5ffd5b505050506040513d601f19601f8201168201806040525081019061134991906118ef565b60015f9054906101000a900473ffffffffffffffffffffffffffffffffffffffff1673ffffffffffffffffffffffffffffffffffffffff166370a08231306040518263ffffffff1660e01b81526004016113a391906118c2565b602060405180830381865afa1580156113be573d5f803e3d5ffd5b505050506040513d601f19601f820116820180604052508101906113e291906118ef565b14611422576040517f08c379a000000000000000000000000000000000000000000000000000000000815260040161141990611f47565b60405180910390fd5b6002805461142f90611f92565b80601f016020809104026020016040519081016040528092919081815260200182805461145b90611f92565b80156114a65780601f1061147d576101008083540402835291602001916114a6565b820191905f5260205f20905b81548152906001019060200180831161148957829003601f168201915b5050505050905090565b8060015f9054906101000a900473ffffffffffffffffffffffffffffffffffffffff1673ffffffffffffffffffffffffffffffffffffffff166370a08231336040518263ffffffff1660e01b815260040161150b91906118c2565b602060405180830381865afa158015611526573d5f803e3d5ffd5b505050506040513d601f19601f8201168201806040525081019061154a91906118ef565b101561158b576040517f08c379a000000000000000000000000000000000000000000000000000000000815260040161158290611c24565b60405180910390fd5b5f8054906101000a900473ffffffffffffffffffffffffffffffffffffffff1673ffffffffffffffffffffffffffffffffffffffff16639dc29fac33836040518363ffffffff1660e01b81526004016115e592919061191a565b5f604051808303815f87803b1580156115fc575f80fd5b505af115801561160e573d5f803e3d5ffd5b5050505050565b5f73ffffffffffffffffffffffffffffffffffffffff82169050919050565b5f819050919050565b5f61165761165261164d84611615565b611634565b611615565b9050919050565b5f6116688261163d565b9050919050565b5f6116798261165e565b9050919050565b6116898161166f565b82525050565b5f6020820190506116a25f830184611680565b92915050565b5f80fd5b5f6116b682611615565b9050919050565b6116c6816116ac565b81146116d0575f80fd5b50565b5f813590506116e1816116bd565b92915050565b5f602082840312156116fc576116fb6116a8565b5b5f611709848285016116d3565b91505092915050565b5f819050919050565b61172481611712565b82525050565b5f60208201905061173d5f83018461171b565b92915050565b61174c81611712565b8114611756575f80fd5b50565b5f8135905061176781611743565b92915050565b5f60208284031215611782576117816116a8565b5b5f61178f84828501611759565b91505092915050565b5f80604083850312156117ae576117ad6116a8565b5b5f6117bb858286016116d3565b92505060206117cc85828601611759565b9150509250929050565b5f8115159050919050565b6117ea816117d6565b82525050565b5f6020820190506118035f8301846117e1565b92915050565b5f81519050919050565b5f82825260208201905092915050565b5f5b83811015611840578082015181840152602081019050611825565b5f8484015250505050565b5f601f19601f8301169050919050565b5f61186582611809565b61186f8185611813565b935061187f818560208601611823565b6118888161184b565b840191505092915050565b5f6020820190508181035f8301526118ab818461185b565b905092915050565b6118bc816116ac565b82525050565b5f6020820190506118d55f8301846118b3565b92915050565b5f815190506118e981611743565b92915050565b5f60208284031215611904576119036116a8565b5b5f611911848285016118db565b91505092915050565b5f60408201905061192d5f8301856118b3565b61193a602083018461171b565b9392505050565b61194a816117d6565b8114611954575f80fd5b50565b5f8151905061196581611941565b92915050565b5f602082840312156119805761197f6116a8565b5b5f61198d84828501611957565b91505092915050565b5f6040820190506119a95f8301856118b3565b6119b660208301846118b3565b9392505050565b7f4e6f7420666169722074726164650000000000000000000000000000000000005f82015250565b5f6119f1600e83611813565b91506119fc826119bd565b602082019050919050565b5f6020820190508181035f830152611a1e816119e5565b9050919050565b7f496e73756666696369656e7420746f6b656e422062616c616e636500000000005f82015250565b5f611a59601b83611813565b9150611a6482611a25565b602082019050919050565b5f6020820190508181035f830152611a8681611a4d565b9050919050565b7f4e487b71000000000000000000000000000000000000000000000000000000005f52601260045260245ffd5b7f4e487b71000000000000000000000000000000000000000000000000000000005f52601160045260245ffd5b5f611af182611712565b9150611afc83611712565b925082611b0c57611b0b611a8d565b5b828204905092915050565b7f4e6f7420656e6f756768206c697175696469747920666f7220746865207377615f8201527f7000000000000000000000000000000000000000000000000000000000000000602082015250565b5f611b71602183611813565b9150611b7c82611b17565b604082019050919050565b5f6020820190508181035f830152611b9e81611b65565b9050919050565b5f606082019050611bb85f8301866118b3565b611bc560208301856118b3565b611bd2604083018461171b565b949350505050565b7f4e6f207469656e6573206573612063616e7469646164000000000000000000005f82015250565b5f611c0e601683611813565b9150611c1982611bda565b602082019050919050565b5f6020820190508181035f830152611c3b81611c02565b9050919050565b7f496e73756666696369656e7420746f6b656e412062616c616e636500000000005f82015250565b5f611c76601b83611813565b9150611c8182611c42565b602082019050919050565b5f6020820190508181035f830152611ca381611c6a565b9050919050565b5f611cb482611712565b9150611cbf83611712565b9250828202611ccd81611712565b91508282048414831517611ce457611ce3611aba565b5b5092915050565b7f5472616e736665722066726f6d206d73672e73656e64657220746f20636f6e745f8201527f72616374206661696c6564000000000000000000000000000000000000000000602082015250565b5f611d45602b83611813565b9150611d5082611ceb565b604082019050919050565b5f6020820190508181035f830152611d7281611d39565b9050919050565b7f5472616e736665722066726f6d20636f6e747261637420746f206d73672e73655f8201527f6e646572206661696c6564000000000000000000000000000000000000000000602082015250565b5f611dd3602b83611813565b9150611dde82611d79565b604082019050919050565b5f6020820190508181035f830152611e0081611dc7565b9050919050565b7f4e6f20686173207265616c697a61646f206e6967756e207377617000000000005f82015250565b5f611e3b601b83611813565b9150611e4682611e07565b602082019050919050565b5f6020820190508181035f830152611e6881611e2f565b9050919050565b7f426f746820746f6b656e2062616c616e636573206d75737420626520677265615f8201527f746572207468616e203000000000000000000000000000000000000000000000602082015250565b5f611ec9602a83611813565b9150611ed482611e6f565b604082019050919050565b5f6020820190508181035f830152611ef681611ebd565b9050919050565b7f546f6b656e2062616c616e636573206d75737420626520657175616c000000005f82015250565b5f611f31601c83611813565b9150611f3c82611efd565b602082019050919050565b5f6020820190508181035f830152611f5e81611f25565b9050919050565b7f4e487b71000000000000000000000000000000000000000000000000000000005f52602260045260245ffd5b5f6002820490506001821680611fa957607f821691505b602082108103611fbc57611fbb611f65565b5b5091905056fea264697066735822122012b51f7d8e52fcf3f05b08e3b65fe795d42d9c4bfcf1fbcf7daeba8065a76a6364736f6c63430008150033",
					"opcodes": "PUSH1 0x80 PUSH1 0x40 MSTORE CALLVALUE DUP1 ISZERO PUSH3 0x10 JUMPI PUSH0 DUP1 REVERT JUMPDEST POP PUSH1 0x40 MLOAD PUSH3 0x2A0B CODESIZE SUB DUP1 PUSH3 0x2A0B DUP4 CODECOPY DUP2 DUP2 ADD PUSH1 0x40 MSTORE DUP2 ADD SWAP1 PUSH3 0x36 SWAP2 SWAP1 PUSH3 0x554 JUMP JUMPDEST DUP5 PUSH0 DUP1 PUSH2 0x100 EXP DUP2 SLOAD DUP2 PUSH20 0xFFFFFFFFFFFFFFFFFFFFFFFFFFFFFFFFFFFFFFFF MUL NOT AND SWAP1 DUP4 PUSH20 0xFFFFFFFFFFFFFFFFFFFFFFFFFFFFFFFFFFFFFFFF AND MUL OR SWAP1 SSTORE POP DUP4 PUSH1 0x1 PUSH0 PUSH2 0x100 EXP DUP2 SLOAD DUP2 PUSH20 0xFFFFFFFFFFFFFFFFFFFFFFFFFFFFFFFFFFFFFFFF MUL NOT AND SWAP1 DUP4 PUSH20 0xFFFFFFFFFFFFFFFFFFFFFFFFFFFFFFFFFFFFFFFF AND MUL OR SWAP1 SSTORE POP DUP3 PUSH1 0x2 SWAP1 DUP2 PUSH3 0xC6 SWAP2 SWAP1 PUSH3 0x825 JUMP JUMPDEST POP PUSH0 DUP1 SLOAD SWAP1 PUSH2 0x100 EXP SWAP1 DIV PUSH20 0xFFFFFFFFFFFFFFFFFFFFFFFFFFFFFFFFFFFFFFFF AND PUSH20 0xFFFFFFFFFFFFFFFFFFFFFFFFFFFFFFFFFFFFFFFF AND PUSH4 0x40C10F19 ADDRESS DUP5 PUSH1 0x40 MLOAD DUP4 PUSH4 0xFFFFFFFF AND PUSH1 0xE0 SHL DUP2 MSTORE PUSH1 0x4 ADD PUSH3 0x123 SWAP3 SWAP2 SWAP1 PUSH3 0x92B JUMP JUMPDEST PUSH0 PUSH1 0x40 MLOAD DUP1 DUP4 SUB DUP2 PUSH0 DUP8 DUP1 EXTCODESIZE ISZERO DUP1 ISZERO PUSH3 0x13B JUMPI PUSH0 DUP1 REVERT JUMPDEST POP GAS CALL ISZERO DUP1 ISZERO PUSH3 0x14E JUMPI RETURNDATASIZE PUSH0 DUP1 RETURNDATACOPY RETURNDATASIZE PUSH0 REVERT JUMPDEST POP POP POP POP PUSH1 0x1 PUSH0 SWAP1 SLOAD SWAP1 PUSH2 0x100 EXP SWAP1 DIV PUSH20 0xFFFFFFFFFFFFFFFFFFFFFFFFFFFFFFFFFFFFFFFF AND PUSH20 0xFFFFFFFFFFFFFFFFFFFFFFFFFFFFFFFFFFFFFFFF AND PUSH4 0x40C10F19 ADDRESS DUP4 PUSH1 0x40 MLOAD DUP4 PUSH4 0xFFFFFFFF AND PUSH1 0xE0 SHL DUP2 MSTORE PUSH1 0x4 ADD PUSH3 0x1B0 SWAP3 SWAP2 SWAP1 PUSH3 0x92B JUMP JUMPDEST PUSH0 PUSH1 0x40 MLOAD DUP1 DUP4 SUB DUP2 PUSH0 DUP8 DUP1 EXTCODESIZE ISZERO DUP1 ISZERO PUSH3 0x1C8 JUMPI PUSH0 DUP1 REVERT JUMPDEST POP GAS CALL ISZERO DUP1 ISZERO PUSH3 0x1DB JUMPI RETURNDATASIZE PUSH0 DUP1 RETURNDATACOPY RETURNDATASIZE PUSH0 REVERT JUMPDEST POP POP POP POP PUSH0 DUP1 SLOAD SWAP1 PUSH2 0x100 EXP SWAP1 DIV PUSH20 0xFFFFFFFFFFFFFFFFFFFFFFFFFFFFFFFFFFFFFFFF AND PUSH20 0xFFFFFFFFFFFFFFFFFFFFFFFFFFFFFFFFFFFFFFFF AND PUSH4 0x70A08231 ADDRESS PUSH1 0x40 MLOAD DUP3 PUSH4 0xFFFFFFFF AND PUSH1 0xE0 SHL DUP2 MSTORE PUSH1 0x4 ADD PUSH3 0x239 SWAP2 SWAP1 PUSH3 0x956 JUMP JUMPDEST PUSH1 0x20 PUSH1 0x40 MLOAD DUP1 DUP4 SUB DUP2 DUP7 GAS STATICCALL ISZERO DUP1 ISZERO PUSH3 0x255 JUMPI RETURNDATASIZE PUSH0 DUP1 RETURNDATACOPY RETURNDATASIZE PUSH0 REVERT JUMPDEST POP POP POP POP PUSH1 0x40 MLOAD RETURNDATASIZE PUSH1 0x1F NOT PUSH1 0x1F DUP3 ADD AND DUP3 ADD DUP1 PUSH1 0x40 MSTORE POP DUP2 ADD SWAP1 PUSH3 0x27B SWAP2 SWAP1 PUSH3 0x971 JUMP JUMPDEST PUSH1 0x1 PUSH0 SWAP1 SLOAD SWAP1 PUSH2 0x100 EXP SWAP1 DIV PUSH20 0xFFFFFFFFFFFFFFFFFFFFFFFFFFFFFFFFFFFFFFFF AND PUSH20 0xFFFFFFFFFFFFFFFFFFFFFFFFFFFFFFFFFFFFFFFF AND PUSH4 0x70A08231 ADDRESS PUSH1 0x40 MLOAD DUP3 PUSH4 0xFFFFFFFF AND PUSH1 0xE0 SHL DUP2 MSTORE PUSH1 0x4 ADD PUSH3 0x2D7 SWAP2 SWAP1 PUSH3 0x956 JUMP JUMPDEST PUSH1 0x20 PUSH1 0x40 MLOAD DUP1 DUP4 SUB DUP2 DUP7 GAS STATICCALL ISZERO DUP1 ISZERO PUSH3 0x2F3 JUMPI RETURNDATASIZE PUSH0 DUP1 RETURNDATACOPY RETURNDATASIZE PUSH0 REVERT JUMPDEST POP POP POP POP PUSH1 0x40 MLOAD RETURNDATASIZE PUSH1 0x1F NOT PUSH1 0x1F DUP3 ADD AND DUP3 ADD DUP1 PUSH1 0x40 MSTORE POP DUP2 ADD SWAP1 PUSH3 0x319 SWAP2 SWAP1 PUSH3 0x971 JUMP JUMPDEST PUSH3 0x325 SWAP2 SWAP1 PUSH3 0x9CE JUMP JUMPDEST PUSH1 0x3 DUP2 SWAP1 SSTORE POP POP POP POP POP POP PUSH3 0xA05 JUMP JUMPDEST PUSH0 PUSH1 0x40 MLOAD SWAP1 POP SWAP1 JUMP JUMPDEST PUSH0 DUP1 REVERT JUMPDEST PUSH0 DUP1 REVERT JUMPDEST PUSH0 PUSH20 0xFFFFFFFFFFFFFFFFFFFFFFFFFFFFFFFFFFFFFFFF DUP3 AND SWAP1 POP SWAP2 SWAP1 POP JUMP JUMPDEST PUSH0 PUSH3 0x372 DUP3 PUSH3 0x347 JUMP JUMPDEST SWAP1 POP SWAP2 SWAP1 POP JUMP JUMPDEST PUSH3 0x384 DUP2 PUSH3 0x366 JUMP JUMPDEST DUP2 EQ PUSH3 0x38F JUMPI PUSH0 DUP1 REVERT JUMPDEST POP JUMP JUMPDEST PUSH0 DUP2 MLOAD SWAP1 POP PUSH3 0x3A2 DUP2 PUSH3 0x379 JUMP JUMPDEST SWAP3 SWAP2 POP POP JUMP JUMPDEST PUSH0 DUP1 REVERT JUMPDEST PUSH0 DUP1 REVERT JUMPDEST PUSH0 PUSH1 0x1F NOT PUSH1 0x1F DUP4 ADD AND SWAP1 POP SWAP2 SWAP1 POP JUMP JUMPDEST PUSH32 0x4E487B7100000000000000000000000000000000000000000000000000000000 PUSH0 MSTORE PUSH1 0x41 PUSH1 0x4 MSTORE PUSH1 0x24 PUSH0 REVERT JUMPDEST PUSH3 0x3F8 DUP3 PUSH3 0x3B0 JUMP JUMPDEST DUP2 ADD DUP2 DUP2 LT PUSH8 0xFFFFFFFFFFFFFFFF DUP3 GT OR ISZERO PUSH3 0x41A JUMPI PUSH3 0x419 PUSH3 0x3C0 JUMP JUMPDEST JUMPDEST DUP1 PUSH1 0x40 MSTORE POP POP POP JUMP JUMPDEST PUSH0 PUSH3 0x42E PUSH3 0x336 JUMP JUMPDEST SWAP1 POP PUSH3 0x43C DUP3 DUP3 PUSH3 0x3ED JUMP JUMPDEST SWAP2 SWAP1 POP JUMP JUMPDEST PUSH0 PUSH8 0xFFFFFFFFFFFFFFFF DUP3 GT ISZERO PUSH3 0x45E JUMPI PUSH3 0x45D PUSH3 0x3C0 JUMP JUMPDEST JUMPDEST PUSH3 0x469 DUP3 PUSH3 0x3B0 JUMP JUMPDEST SWAP1 POP PUSH1 0x20 DUP2 ADD SWAP1 POP SWAP2 SWAP1 POP JUMP JUMPDEST PUSH0 JUMPDEST DUP4 DUP2 LT ISZERO PUSH3 0x495 JUMPI DUP1 DUP3 ADD MLOAD DUP2 DUP5 ADD MSTORE PUSH1 0x20 DUP2 ADD SWAP1 POP PUSH3 0x478 JUMP JUMPDEST PUSH0 DUP5 DUP5 ADD MSTORE POP POP POP POP JUMP JUMPDEST PUSH0 PUSH3 0x4B6 PUSH3 0x4B0 DUP5 PUSH3 0x441 JUMP JUMPDEST PUSH3 0x423 JUMP JUMPDEST SWAP1 POP DUP3 DUP2 MSTORE PUSH1 0x20 DUP2 ADD DUP5 DUP5 DUP5 ADD GT ISZERO PUSH3 0x4D5 JUMPI PUSH3 0x4D4 PUSH3 0x3AC JUMP JUMPDEST JUMPDEST PUSH3 0x4E2 DUP5 DUP3 DUP6 PUSH3 0x476 JUMP JUMPDEST POP SWAP4 SWAP3 POP POP POP JUMP JUMPDEST PUSH0 DUP3 PUSH1 0x1F DUP4 ADD SLT PUSH3 0x501 JUMPI PUSH3 0x500 PUSH3 0x3A8 JUMP JUMPDEST JUMPDEST DUP2 MLOAD PUSH3 0x513 DUP5 DUP3 PUSH1 0x20 DUP7 ADD PUSH3 0x4A0 JUMP JUMPDEST SWAP2 POP POP SWAP3 SWAP2 POP POP JUMP JUMPDEST PUSH0 DUP2 SWAP1 POP SWAP2 SWAP1 POP JUMP JUMPDEST PUSH3 0x530 DUP2 PUSH3 0x51C JUMP JUMPDEST DUP2 EQ PUSH3 0x53B JUMPI PUSH0 DUP1 REVERT JUMPDEST POP JUMP JUMPDEST PUSH0 DUP2 MLOAD SWAP1 POP PUSH3 0x54E DUP2 PUSH3 0x525 JUMP JUMPDEST SWAP3 SWAP2 POP POP JUMP JUMPDEST PUSH0 DUP1 PUSH0 DUP1 PUSH0 PUSH1 0xA0 DUP7 DUP9 SUB SLT ISZERO PUSH3 0x570 JUMPI PUSH3 0x56F PUSH3 0x33F JUMP JUMPDEST JUMPDEST PUSH0 PUSH3 0x57F DUP9 DUP3 DUP10 ADD PUSH3 0x392 JUMP JUMPDEST SWAP6 POP POP PUSH1 0x20 PUSH3 0x592 DUP9 DUP3 DUP10 ADD PUSH3 0x392 JUMP JUMPDEST SWAP5 POP POP PUSH1 0x40 DUP7 ADD MLOAD PUSH8 0xFFFFFFFFFFFFFFFF DUP2 GT ISZERO PUSH3 0x5B6 JUMPI PUSH3 0x5B5 PUSH3 0x343 JUMP JUMPDEST JUMPDEST PUSH3 0x5C4 DUP9 DUP3 DUP10 ADD PUSH3 0x4EA JUMP JUMPDEST SWAP4 POP POP PUSH1 0x60 PUSH3 0x5D7 DUP9 DUP3 DUP10 ADD PUSH3 0x53E JUMP JUMPDEST SWAP3 POP POP PUSH1 0x80 PUSH3 0x5EA DUP9 DUP3 DUP10 ADD PUSH3 0x53E JUMP JUMPDEST SWAP2 POP POP SWAP3 SWAP6 POP SWAP3 SWAP6 SWAP1 SWAP4 POP JUMP JUMPDEST PUSH0 DUP2 MLOAD SWAP1 POP SWAP2 SWAP1 POP JUMP JUMPDEST PUSH32 0x4E487B7100000000000000000000000000000000000000000000000000000000 PUSH0 MSTORE PUSH1 0x22 PUSH1 0x4 MSTORE PUSH1 0x24 PUSH0 REVERT JUMPDEST PUSH0 PUSH1 0x2 DUP3 DIV SWAP1 POP PUSH1 0x1 DUP3 AND DUP1 PUSH3 0x646 JUMPI PUSH1 0x7F DUP3 AND SWAP2 POP JUMPDEST PUSH1 0x20 DUP3 LT DUP2 SUB PUSH3 0x65C JUMPI PUSH3 0x65B PUSH3 0x601 JUMP JUMPDEST JUMPDEST POP SWAP2 SWAP1 POP JUMP JUMPDEST PUSH0 DUP2 SWAP1 POP DUP2 PUSH0 MSTORE PUSH1 0x20 PUSH0 KECCAK256 SWAP1 POP SWAP2 SWAP1 POP JUMP JUMPDEST PUSH0 PUSH1 0x20 PUSH1 0x1F DUP4 ADD DIV SWAP1 POP SWAP2 SWAP1 POP JUMP JUMPDEST PUSH0 DUP3 DUP3 SHL SWAP1 POP SWAP3 SWAP2 POP POP JUMP JUMPDEST PUSH0 PUSH1 0x8 DUP4 MUL PUSH3 0x6C0 PUSH32 0xFFFFFFFFFFFFFFFFFFFFFFFFFFFFFFFFFFFFFFFFFFFFFFFFFFFFFFFFFFFFFFFF DUP3 PUSH3 0x683 JUMP JUMPDEST PUSH3 0x6CC DUP7 DUP4 PUSH3 0x683 JUMP JUMPDEST SWAP6 POP DUP1 NOT DUP5 AND SWAP4 POP DUP1 DUP7 AND DUP5 OR SWAP3 POP POP POP SWAP4 SWAP3 POP POP POP JUMP JUMPDEST PUSH0 DUP2 SWAP1 POP SWAP2 SWAP1 POP JUMP JUMPDEST PUSH0 PUSH3 0x70D PUSH3 0x707 PUSH3 0x701 DUP5 PUSH3 0x51C JUMP JUMPDEST PUSH3 0x6E4 JUMP JUMPDEST PUSH3 0x51C JUMP JUMPDEST SWAP1 POP SWAP2 SWAP1 POP JUMP JUMPDEST PUSH0 DUP2 SWAP1 POP SWAP2 SWAP1 POP JUMP JUMPDEST PUSH3 0x728 DUP4 PUSH3 0x6ED JUMP JUMPDEST PUSH3 0x740 PUSH3 0x737 DUP3 PUSH3 0x714 JUMP JUMPDEST DUP5 DUP5 SLOAD PUSH3 0x68F JUMP JUMPDEST DUP3 SSTORE POP POP POP POP JUMP JUMPDEST PUSH0 SWAP1 JUMP JUMPDEST PUSH3 0x756 PUSH3 0x748 JUMP JUMPDEST PUSH3 0x763 DUP2 DUP5 DUP5 PUSH3 0x71D JUMP JUMPDEST POP POP POP JUMP JUMPDEST JUMPDEST DUP2 DUP2 LT ISZERO PUSH3 0x78A JUMPI PUSH3 0x77E PUSH0 DUP3 PUSH3 0x74C JUMP JUMPDEST PUSH1 0x1 DUP2 ADD SWAP1 POP PUSH3 0x769 JUMP JUMPDEST POP POP JUMP JUMPDEST PUSH1 0x1F DUP3 GT ISZERO PUSH3 0x7D9 JUMPI PUSH3 0x7A3 DUP2 PUSH3 0x662 JUMP JUMPDEST PUSH3 0x7AE DUP5 PUSH3 0x674 JUMP JUMPDEST DUP2 ADD PUSH1 0x20 DUP6 LT ISZERO PUSH3 0x7BE JUMPI DUP2 SWAP1 POP JUMPDEST PUSH3 0x7D6 PUSH3 0x7CD DUP6 PUSH3 0x674 JUMP JUMPDEST DUP4 ADD DUP3 PUSH3 0x768 JUMP JUMPDEST POP POP JUMPDEST POP POP POP JUMP JUMPDEST PUSH0 DUP3 DUP3 SHR SWAP1 POP SWAP3 SWAP2 POP POP JUMP JUMPDEST PUSH0 PUSH3 0x7FB PUSH0 NOT DUP5 PUSH1 0x8 MUL PUSH3 0x7DE JUMP JUMPDEST NOT DUP1 DUP4 AND SWAP2 POP POP SWAP3 SWAP2 POP POP JUMP JUMPDEST PUSH0 PUSH3 0x815 DUP4 DUP4 PUSH3 0x7EA JUMP JUMPDEST SWAP2 POP DUP3 PUSH1 0x2 MUL DUP3 OR SWAP1 POP SWAP3 SWAP2 POP POP JUMP JUMPDEST PUSH3 0x830 DUP3 PUSH3 0x5F7 JUMP JUMPDEST PUSH8 0xFFFFFFFFFFFFFFFF DUP2 GT ISZERO PUSH3 0x84C JUMPI PUSH3 0x84B PUSH3 0x3C0 JUMP JUMPDEST JUMPDEST PUSH3 0x858 DUP3 SLOAD PUSH3 0x62E JUMP JUMPDEST PUSH3 0x865 DUP3 DUP3 DUP6 PUSH3 0x78E JUMP JUMPDEST PUSH0 PUSH1 0x20 SWAP1 POP PUSH1 0x1F DUP4 GT PUSH1 0x1 DUP2 EQ PUSH3 0x89B JUMPI PUSH0 DUP5 ISZERO PUSH3 0x886 JUMPI DUP3 DUP8 ADD MLOAD SWAP1 POP JUMPDEST PUSH3 0x892 DUP6 DUP3 PUSH3 0x808 JUMP JUMPDEST DUP7 SSTORE POP PUSH3 0x901 JUMP JUMPDEST PUSH1 0x1F NOT DUP5 AND PUSH3 0x8AB DUP7 PUSH3 0x662 JUMP JUMPDEST PUSH0 JUMPDEST DUP3 DUP2 LT ISZERO PUSH3 0x8D4 JUMPI DUP5 DUP10 ADD MLOAD DUP3 SSTORE PUSH1 0x1 DUP3 ADD SWAP2 POP PUSH1 0x20 DUP6 ADD SWAP5 POP PUSH1 0x20 DUP2 ADD SWAP1 POP PUSH3 0x8AD JUMP JUMPDEST DUP7 DUP4 LT ISZERO PUSH3 0x8F4 JUMPI DUP5 DUP10 ADD MLOAD PUSH3 0x8F0 PUSH1 0x1F DUP10 AND DUP3 PUSH3 0x7EA JUMP JUMPDEST DUP4 SSTORE POP JUMPDEST PUSH1 0x1 PUSH1 0x2 DUP9 MUL ADD DUP9 SSTORE POP POP POP JUMPDEST POP POP POP POP POP POP JUMP JUMPDEST PUSH3 0x914 DUP2 PUSH3 0x366 JUMP JUMPDEST DUP3 MSTORE POP POP JUMP JUMPDEST PUSH3 0x925 DUP2 PUSH3 0x51C JUMP JUMPDEST DUP3 MSTORE POP POP JUMP JUMPDEST PUSH0 PUSH1 0x40 DUP3 ADD SWAP1 POP PUSH3 0x940 PUSH0 DUP4 ADD DUP6 PUSH3 0x909 JUMP JUMPDEST PUSH3 0x94F PUSH1 0x20 DUP4 ADD DUP5 PUSH3 0x91A JUMP JUMPDEST SWAP4 SWAP3 POP POP POP JUMP JUMPDEST PUSH0 PUSH1 0x20 DUP3 ADD SWAP1 POP PUSH3 0x96B PUSH0 DUP4 ADD DUP5 PUSH3 0x909 JUMP JUMPDEST SWAP3 SWAP2 POP POP JUMP JUMPDEST PUSH0 PUSH1 0x20 DUP3 DUP5 SUB SLT ISZERO PUSH3 0x989 JUMPI PUSH3 0x988 PUSH3 0x33F JUMP JUMPDEST JUMPDEST PUSH0 PUSH3 0x998 DUP5 DUP3 DUP6 ADD PUSH3 0x53E JUMP JUMPDEST SWAP2 POP POP SWAP3 SWAP2 POP POP JUMP JUMPDEST PUSH32 0x4E487B7100000000000000000000000000000000000000000000000000000000 PUSH0 MSTORE PUSH1 0x12 PUSH1 0x4 MSTORE PUSH1 0x24 PUSH0 REVERT JUMPDEST PUSH0 PUSH3 0x9DA DUP3 PUSH3 0x51C JUMP JUMPDEST SWAP2 POP PUSH3 0x9E7 DUP4 PUSH3 0x51C JUMP JUMPDEST SWAP3 POP DUP3 PUSH3 0x9FA JUMPI PUSH3 0x9F9 PUSH3 0x9A1 JUMP JUMPDEST JUMPDEST DUP3 DUP3 DIV SWAP1 POP SWAP3 SWAP2 POP POP JUMP JUMPDEST PUSH2 0x1FF8 DUP1 PUSH3 0xA13 PUSH0 CODECOPY PUSH0 RETURN INVALID PUSH1 0x80 PUSH1 0x40 MSTORE CALLVALUE DUP1 ISZERO PUSH2 0xF JUMPI PUSH0 DUP1 REVERT JUMPDEST POP PUSH1 0x4 CALLDATASIZE LT PUSH2 0x109 JUMPI PUSH0 CALLDATALOAD PUSH1 0xE0 SHR DUP1 PUSH4 0x8014A7AA GT PUSH2 0xA0 JUMPI DUP1 PUSH4 0xAB4D4C8A GT PUSH2 0x6F JUMPI DUP1 PUSH4 0xAB4D4C8A EQ PUSH2 0x291 JUMPI DUP1 PUSH4 0xBAB38C1C EQ PUSH2 0x2AD JUMPI DUP1 PUSH4 0xE4F1F70A EQ PUSH2 0x2C9 JUMPI DUP1 PUSH4 0xF9633930 EQ PUSH2 0x2E5 JUMPI DUP1 PUSH4 0xFE42C087 EQ PUSH2 0x303 JUMPI PUSH2 0x109 JUMP JUMPDEST DUP1 PUSH4 0x8014A7AA EQ PUSH2 0x21D JUMPI DUP1 PUSH4 0x8119C065 EQ PUSH2 0x239 JUMPI DUP1 PUSH4 0x875AA254 EQ PUSH2 0x257 JUMPI DUP1 PUSH4 0xA5D0FA9D EQ PUSH2 0x273 JUMPI PUSH2 0x109 JUMP JUMPDEST DUP1 PUSH4 0x2DF8AABA GT PUSH2 0xDC JUMPI DUP1 PUSH4 0x2DF8AABA EQ PUSH2 0x1A7 JUMPI DUP1 PUSH4 0x54B1F84F EQ PUSH2 0x1C3 JUMPI DUP1 PUSH4 0x5B4246D4 EQ PUSH2 0x1E1 JUMPI DUP1 PUSH4 0x5F64B55B EQ PUSH2 0x1FF JUMPI PUSH2 0x109 JUMP JUMPDEST DUP1 PUSH4 0xFC63D10 EQ PUSH2 0x10D JUMPI DUP1 PUSH4 0x1CAD2CAC EQ PUSH2 0x12B JUMPI DUP1 PUSH4 0x20297E97 EQ PUSH2 0x15B JUMPI DUP1 PUSH4 0x27692360 EQ PUSH2 0x18B JUMPI JUMPDEST PUSH0 DUP1 REVERT JUMPDEST PUSH2 0x115 PUSH2 0x31F JUMP JUMPDEST PUSH1 0x40 MLOAD PUSH2 0x122 SWAP2 SWAP1 PUSH2 0x168F JUMP JUMPDEST PUSH1 0x40 MLOAD DUP1 SWAP2 SUB SWAP1 RETURN JUMPDEST PUSH2 0x145 PUSH1 0x4 DUP1 CALLDATASIZE SUB DUP2 ADD SWAP1 PUSH2 0x140 SWAP2 SWAP1 PUSH2 0x16E7 JUMP JUMPDEST PUSH2 0x342 JUMP JUMPDEST PUSH1 0x40 MLOAD PUSH2 0x152 SWAP2 SWAP1 PUSH2 0x172A JUMP JUMPDEST PUSH1 0x40 MLOAD DUP1 SWAP2 SUB SWAP1 RETURN JUMPDEST PUSH2 0x175 PUSH1 0x4 DUP1 CALLDATASIZE SUB DUP2 ADD SWAP1 PUSH2 0x170 SWAP2 SWAP1 PUSH2 0x16E7 JUMP JUMPDEST PUSH2 0x3E6 JUMP JUMPDEST PUSH1 0x40 MLOAD PUSH2 0x182 SWAP2 SWAP1 PUSH2 0x172A JUMP JUMPDEST PUSH1 0x40 MLOAD DUP1 SWAP2 SUB SWAP1 RETURN JUMPDEST PUSH2 0x1A5 PUSH1 0x4 DUP1 CALLDATASIZE SUB DUP2 ADD SWAP1 PUSH2 0x1A0 SWAP2 SWAP1 PUSH2 0x176D JUMP JUMPDEST PUSH2 0x48C JUMP JUMPDEST STOP JUMPDEST PUSH2 0x1C1 PUSH1 0x4 DUP1 CALLDATASIZE SUB DUP2 ADD SWAP1 PUSH2 0x1BC SWAP2 SWAP1 PUSH2 0x1798 JUMP JUMPDEST PUSH2 0x516 JUMP JUMPDEST STOP JUMPDEST PUSH2 0x1CB PUSH2 0x5B5 JUMP JUMPDEST PUSH1 0x40 MLOAD PUSH2 0x1D8 SWAP2 SWAP1 PUSH2 0x172A JUMP JUMPDEST PUSH1 0x40 MLOAD DUP1 SWAP2 SUB SWAP1 RETURN JUMPDEST PUSH2 0x1E9 PUSH2 0x659 JUMP JUMPDEST PUSH1 0x40 MLOAD PUSH2 0x1F6 SWAP2 SWAP1 PUSH2 0x172A JUMP JUMPDEST PUSH1 0x40 MLOAD DUP1 SWAP2 SUB SWAP1 RETURN JUMPDEST PUSH2 0x207 PUSH2 0x65F JUMP JUMPDEST PUSH1 0x40 MLOAD PUSH2 0x214 SWAP2 SWAP1 PUSH2 0x168F JUMP JUMPDEST PUSH1 0x40 MLOAD DUP1 SWAP2 SUB SWAP1 RETURN JUMPDEST PUSH2 0x237 PUSH1 0x4 DUP1 CALLDATASIZE SUB DUP2 ADD SWAP1 PUSH2 0x232 SWAP2 SWAP1 PUSH2 0x176D JUMP JUMPDEST PUSH2 0x684 JUMP JUMPDEST STOP JUMPDEST PUSH2 0x241 PUSH2 0x9F2 JUMP JUMPDEST PUSH1 0x40 MLOAD PUSH2 0x24E SWAP2 SWAP1 PUSH2 0x17F0 JUMP JUMPDEST PUSH1 0x40 MLOAD DUP1 SWAP2 SUB SWAP1 RETURN JUMPDEST PUSH2 0x271 PUSH1 0x4 DUP1 CALLDATASIZE SUB DUP2 ADD SWAP1 PUSH2 0x26C SWAP2 SWAP1 PUSH2 0x176D JUMP JUMPDEST PUSH2 0xA04 JUMP JUMPDEST STOP JUMPDEST PUSH2 0x27B PUSH2 0xA90 JUMP JUMPDEST PUSH1 0x40 MLOAD PUSH2 0x288 SWAP2 SWAP1 PUSH2 0x172A JUMP JUMPDEST PUSH1 0x40 MLOAD DUP1 SWAP2 SUB SWAP1 RETURN JUMPDEST PUSH2 0x2AB PUSH1 0x4 DUP1 CALLDATASIZE SUB DUP2 ADD SWAP1 PUSH2 0x2A6 SWAP2 SWAP1 PUSH2 0x176D JUMP JUMPDEST PUSH2 0xB36 JUMP JUMPDEST STOP JUMPDEST PUSH2 0x2C7 PUSH1 0x4 DUP1 CALLDATASIZE SUB DUP2 ADD SWAP1 PUSH2 0x2C2 SWAP2 SWAP1 PUSH2 0x176D JUMP JUMPDEST PUSH2 0xBD6 JUMP JUMPDEST STOP JUMPDEST PUSH2 0x2E3 PUSH1 0x4 DUP1 CALLDATASIZE SUB DUP2 ADD SWAP1 PUSH2 0x2DE SWAP2 SWAP1 PUSH2 0x176D JUMP JUMPDEST PUSH2 0xD39 JUMP JUMPDEST STOP JUMPDEST PUSH2 0x2ED PUSH2 0x10DF JUMP JUMPDEST PUSH1 0x40 MLOAD PUSH2 0x2FA SWAP2 SWAP1 PUSH2 0x1893 JUMP JUMPDEST PUSH1 0x40 MLOAD DUP1 SWAP2 SUB SWAP1 RETURN JUMPDEST PUSH2 0x31D PUSH1 0x4 DUP1 CALLDATASIZE SUB DUP2 ADD SWAP1 PUSH2 0x318 SWAP2 SWAP1 PUSH2 0x176D JUMP JUMPDEST PUSH2 0x14B0 JUMP JUMPDEST STOP JUMPDEST PUSH0 DUP1 SLOAD SWAP1 PUSH2 0x100 EXP SWAP1 DIV PUSH20 0xFFFFFFFFFFFFFFFFFFFFFFFFFFFFFFFFFFFFFFFF AND DUP2 JUMP JUMPDEST PUSH0 DUP1 PUSH0 DUP1 SLOAD SWAP1 PUSH2 0x100 EXP SWAP1 DIV PUSH20 0xFFFFFFFFFFFFFFFFFFFFFFFFFFFFFFFFFFFFFFFF AND PUSH20 0xFFFFFFFFFFFFFFFFFFFFFFFFFFFFFFFFFFFFFFFF AND PUSH4 0x70A08231 DUP5 PUSH1 0x40 MLOAD DUP3 PUSH4 0xFFFFFFFF AND PUSH1 0xE0 SHL DUP2 MSTORE PUSH1 0x4 ADD PUSH2 0x39C SWAP2 SWAP1 PUSH2 0x18C2 JUMP JUMPDEST PUSH1 0x20 PUSH1 0x40 MLOAD DUP1 DUP4 SUB DUP2 DUP7 GAS STATICCALL ISZERO DUP1 ISZERO PUSH2 0x3B7 JUMPI RETURNDATASIZE PUSH0 DUP1 RETURNDATACOPY RETURNDATASIZE PUSH0 REVERT JUMPDEST POP POP POP POP PUSH1 0x40 MLOAD RETURNDATASIZE PUSH1 0x1F NOT PUSH1 0x1F DUP3 ADD AND DUP3 ADD DUP1 PUSH1 0x40 MSTORE POP DUP2 ADD SWAP1 PUSH2 0x3DB SWAP2 SWAP1 PUSH2 0x18EF JUMP JUMPDEST SWAP1 POP DUP1 SWAP2 POP POP SWAP2 SWAP1 POP JUMP JUMPDEST PUSH0 DUP1 PUSH1 0x1 PUSH0 SWAP1 SLOAD SWAP1 PUSH2 0x100 EXP SWAP1 DIV PUSH20 0xFFFFFFFFFFFFFFFFFFFFFFFFFFFFFFFFFFFFFFFF AND PUSH20 0xFFFFFFFFFFFFFFFFFFFFFFFFFFFFFFFFFFFFFFFF AND PUSH4 0x70A08231 DUP5 PUSH1 0x40 MLOAD DUP3 PUSH4 0xFFFFFFFF AND PUSH1 0xE0 SHL DUP2 MSTORE PUSH1 0x4 ADD PUSH2 0x442 SWAP2 SWAP1 PUSH2 0x18C2 JUMP JUMPDEST PUSH1 0x20 PUSH1 0x40 MLOAD DUP1 DUP4 SUB DUP2 DUP7 GAS STATICCALL ISZERO DUP1 ISZERO PUSH2 0x45D JUMPI RETURNDATASIZE PUSH0 DUP1 RETURNDATACOPY RETURNDATASIZE PUSH0 REVERT JUMPDEST POP POP POP POP PUSH1 0x40 MLOAD RETURNDATASIZE PUSH1 0x1F NOT PUSH1 0x1F DUP3 ADD AND DUP3 ADD DUP1 PUSH1 0x40 MSTORE POP DUP2 ADD SWAP1 PUSH2 0x481 SWAP2 SWAP1 PUSH2 0x18EF JUMP JUMPDEST SWAP1 POP DUP1 SWAP2 POP POP SWAP2 SWAP1 POP JUMP JUMPDEST PUSH0 DUP1 SLOAD SWAP1 PUSH2 0x100 EXP SWAP1 DIV PUSH20 0xFFFFFFFFFFFFFFFFFFFFFFFFFFFFFFFFFFFFFFFF AND PUSH20 0xFFFFFFFFFFFFFFFFFFFFFFFFFFFFFFFFFFFFFFFF AND PUSH4 0x40C10F19 CALLER DUP4 PUSH1 0x40 MLOAD DUP4 PUSH4 0xFFFFFFFF AND PUSH1 0xE0 SHL DUP2 MSTORE PUSH1 0x4 ADD PUSH2 0x4E6 SWAP3 SWAP2 SWAP1 PUSH2 0x191A JUMP JUMPDEST PUSH0 PUSH1 0x40 MLOAD DUP1 DUP4 SUB DUP2 PUSH0 DUP8 DUP1 EXTCODESIZE ISZERO DUP1 ISZERO PUSH2 0x4FD JUMPI PUSH0 DUP1 REVERT JUMPDEST POP GAS CALL ISZERO DUP1 ISZERO PUSH2 0x50F JUMPI RETURNDATASIZE PUSH0 DUP1 RETURNDATACOPY RETURNDATASIZE PUSH0 REVERT JUMPDEST POP POP POP POP POP JUMP JUMPDEST PUSH0 DUP1 SLOAD SWAP1 PUSH2 0x100 EXP SWAP1 DIV PUSH20 0xFFFFFFFFFFFFFFFFFFFFFFFFFFFFFFFFFFFFFFFF AND PUSH20 0xFFFFFFFFFFFFFFFFFFFFFFFFFFFFFFFFFFFFFFFF AND PUSH4 0xA9059CBB DUP4 DUP4 PUSH1 0x40 MLOAD DUP4 PUSH4 0xFFFFFFFF AND PUSH1 0xE0 SHL DUP2 MSTORE PUSH1 0x4 ADD PUSH2 0x570 SWAP3 SWAP2 SWAP1 PUSH2 0x191A JUMP JUMPDEST PUSH1 0x20 PUSH1 0x40 MLOAD DUP1 DUP4 SUB DUP2 PUSH0 DUP8 GAS CALL ISZERO DUP1 ISZERO PUSH2 0x58C JUMPI RETURNDATASIZE PUSH0 DUP1 RETURNDATACOPY RETURNDATASIZE PUSH0 REVERT JUMPDEST POP POP POP POP PUSH1 0x40 MLOAD RETURNDATASIZE PUSH1 0x1F NOT PUSH1 0x1F DUP3 ADD AND DUP3 ADD DUP1 PUSH1 0x40 MSTORE POP DUP2 ADD SWAP1 PUSH2 0x5B0 SWAP2 SWAP1 PUSH2 0x196B JUMP JUMPDEST POP POP POP JUMP JUMPDEST PUSH0 DUP1 PUSH0 DUP1 SLOAD SWAP1 PUSH2 0x100 EXP SWAP1 DIV PUSH20 0xFFFFFFFFFFFFFFFFFFFFFFFFFFFFFFFFFFFFFFFF AND PUSH20 0xFFFFFFFFFFFFFFFFFFFFFFFFFFFFFFFFFFFFFFFF AND PUSH4 0xDD62ED3E CALLER ADDRESS PUSH1 0x40 MLOAD DUP4 PUSH4 0xFFFFFFFF AND PUSH1 0xE0 SHL DUP2 MSTORE PUSH1 0x4 ADD PUSH2 0x611 SWAP3 SWAP2 SWAP1 PUSH2 0x1996 JUMP JUMPDEST PUSH1 0x20 PUSH1 0x40 MLOAD DUP1 DUP4 SUB DUP2 DUP7 GAS STATICCALL ISZERO DUP1 ISZERO PUSH2 0x62C JUMPI RETURNDATASIZE PUSH0 DUP1 RETURNDATACOPY RETURNDATASIZE PUSH0 REVERT JUMPDEST POP POP POP POP PUSH1 0x40 MLOAD RETURNDATASIZE PUSH1 0x1F NOT PUSH1 0x1F DUP3 ADD AND DUP3 ADD DUP1 PUSH1 0x40 MSTORE POP DUP2 ADD SWAP1 PUSH2 0x650 SWAP2 SWAP1 PUSH2 0x18EF JUMP JUMPDEST SWAP1 POP DUP1 SWAP2 POP POP SWAP1 JUMP JUMPDEST PUSH1 0x3 SLOAD DUP2 JUMP JUMPDEST PUSH1 0x1 PUSH0 SWAP1 SLOAD SWAP1 PUSH2 0x100 EXP SWAP1 DIV PUSH20 0xFFFFFFFFFFFFFFFFFFFFFFFFFFFFFFFFFFFFFFFF AND DUP2 JUMP JUMPDEST PUSH1 0x3 SLOAD DUP2 GT PUSH2 0x6C8 JUMPI PUSH1 0x40 MLOAD PUSH32 0x8C379A000000000000000000000000000000000000000000000000000000000 DUP2 MSTORE PUSH1 0x4 ADD PUSH2 0x6BF SWAP1 PUSH2 0x1A07 JUMP JUMPDEST PUSH1 0x40 MLOAD DUP1 SWAP2 SUB SWAP1 REVERT JUMPDEST DUP1 PUSH1 0x1 PUSH0 SWAP1 SLOAD SWAP1 PUSH2 0x100 EXP SWAP1 DIV PUSH20 0xFFFFFFFFFFFFFFFFFFFFFFFFFFFFFFFFFFFFFFFF AND PUSH20 0xFFFFFFFFFFFFFFFFFFFFFFFFFFFFFFFFFFFFFFFF AND PUSH4 0x70A08231 CALLER PUSH1 0x40 MLOAD DUP3 PUSH4 0xFFFFFFFF AND PUSH1 0xE0 SHL DUP2 MSTORE PUSH1 0x4 ADD PUSH2 0x723 SWAP2 SWAP1 PUSH2 0x18C2 JUMP JUMPDEST PUSH1 0x20 PUSH1 0x40 MLOAD DUP1 DUP4 SUB DUP2 DUP7 GAS STATICCALL ISZERO DUP1 ISZERO PUSH2 0x73E JUMPI RETURNDATASIZE PUSH0 DUP1 RETURNDATACOPY RETURNDATASIZE PUSH0 REVERT JUMPDEST POP POP POP POP PUSH1 0x40 MLOAD RETURNDATASIZE PUSH1 0x1F NOT PUSH1 0x1F DUP3 ADD AND DUP3 ADD DUP1 PUSH1 0x40 MSTORE POP DUP2 ADD SWAP1 PUSH2 0x762 SWAP2 SWAP1 PUSH2 0x18EF JUMP JUMPDEST LT ISZERO PUSH2 0x7A3 JUMPI PUSH1 0x40 MLOAD PUSH32 0x8C379A000000000000000000000000000000000000000000000000000000000 DUP2 MSTORE PUSH1 0x4 ADD PUSH2 0x79A SWAP1 PUSH2 0x1A6F JUMP JUMPDEST PUSH1 0x40 MLOAD DUP1 SWAP2 SUB SWAP1 REVERT JUMPDEST PUSH1 0x3 SLOAD DUP2 PUSH2 0x7B1 SWAP2 SWAP1 PUSH2 0x1AE7 JUMP JUMPDEST PUSH0 DUP1 SLOAD SWAP1 PUSH2 0x100 EXP SWAP1 DIV PUSH20 0xFFFFFFFFFFFFFFFFFFFFFFFFFFFFFFFFFFFFFFFF AND PUSH20 0xFFFFFFFFFFFFFFFFFFFFFFFFFFFFFFFFFFFFFFFF AND PUSH4 0x70A08231 ADDRESS PUSH1 0x40 MLOAD DUP3 PUSH4 0xFFFFFFFF AND PUSH1 0xE0 SHL DUP2 MSTORE PUSH1 0x4 ADD PUSH2 0x809 SWAP2 SWAP1 PUSH2 0x18C2 JUMP JUMPDEST PUSH1 0x20 PUSH1 0x40 MLOAD DUP1 DUP4 SUB DUP2 DUP7 GAS STATICCALL ISZERO DUP1 ISZERO PUSH2 0x824 JUMPI RETURNDATASIZE PUSH0 DUP1 RETURNDATACOPY RETURNDATASIZE PUSH0 REVERT JUMPDEST POP POP POP POP PUSH1 0x40 MLOAD RETURNDATASIZE PUSH1 0x1F NOT PUSH1 0x1F DUP3 ADD AND DUP3 ADD DUP1 PUSH1 0x40 MSTORE POP DUP2 ADD SWAP1 PUSH2 0x848 SWAP2 SWAP1 PUSH2 0x18EF JUMP JUMPDEST LT ISZERO PUSH2 0x889 JUMPI PUSH1 0x40 MLOAD PUSH32 0x8C379A000000000000000000000000000000000000000000000000000000000 DUP2 MSTORE PUSH1 0x4 ADD PUSH2 0x880 SWAP1 PUSH2 0x1B87 JUMP JUMPDEST PUSH1 0x40 MLOAD DUP1 SWAP2 SUB SWAP1 REVERT JUMPDEST PUSH1 0x1 PUSH0 SWAP1 SLOAD SWAP1 PUSH2 0x100 EXP SWAP1 DIV PUSH20 0xFFFFFFFFFFFFFFFFFFFFFFFFFFFFFFFFFFFFFFFF AND PUSH20 0xFFFFFFFFFFFFFFFFFFFFFFFFFFFFFFFFFFFFFFFF AND PUSH4 0x23B872DD CALLER ADDRESS DUP5 PUSH1 0x40 MLOAD DUP5 PUSH4 0xFFFFFFFF AND PUSH1 0xE0 SHL DUP2 MSTORE PUSH1 0x4 ADD PUSH2 0x8E7 SWAP4 SWAP3 SWAP2 SWAP1 PUSH2 0x1BA5 JUMP JUMPDEST PUSH1 0x20 PUSH1 0x40 MLOAD DUP1 DUP4 SUB DUP2 PUSH0 DUP8 GAS CALL ISZERO DUP1 ISZERO PUSH2 0x903 JUMPI RETURNDATASIZE PUSH0 DUP1 RETURNDATACOPY RETURNDATASIZE PUSH0 REVERT JUMPDEST POP POP POP POP PUSH1 0x40 MLOAD RETURNDATASIZE PUSH1 0x1F NOT PUSH1 0x1F DUP3 ADD AND DUP3 ADD DUP1 PUSH1 0x40 MSTORE POP DUP2 ADD SWAP1 PUSH2 0x927 SWAP2 SWAP1 PUSH2 0x196B JUMP JUMPDEST POP PUSH0 PUSH1 0x3 SLOAD DUP3 PUSH2 0x937 SWAP2 SWAP1 PUSH2 0x1AE7 JUMP JUMPDEST SWAP1 POP PUSH0 DUP1 SLOAD SWAP1 PUSH2 0x100 EXP SWAP1 DIV PUSH20 0xFFFFFFFFFFFFFFFFFFFFFFFFFFFFFFFFFFFFFFFF AND PUSH20 0xFFFFFFFFFFFFFFFFFFFFFFFFFFFFFFFFFFFFFFFF AND PUSH4 0xA9059CBB CALLER DUP4 PUSH1 0x40 MLOAD DUP4 PUSH4 0xFFFFFFFF AND PUSH1 0xE0 SHL DUP2 MSTORE PUSH1 0x4 ADD PUSH2 0x993 SWAP3 SWAP2 SWAP1 PUSH2 0x191A JUMP JUMPDEST PUSH1 0x20 PUSH1 0x40 MLOAD DUP1 DUP4 SUB DUP2 PUSH0 DUP8 GAS CALL ISZERO DUP1 ISZERO PUSH2 0x9AF JUMPI RETURNDATASIZE PUSH0 DUP1 RETURNDATACOPY RETURNDATASIZE PUSH0 REVERT JUMPDEST POP POP POP POP PUSH1 0x40 MLOAD RETURNDATASIZE PUSH1 0x1F NOT PUSH1 0x1F DUP3 ADD AND DUP3 ADD DUP1 PUSH1 0x40 MSTORE POP DUP2 ADD SWAP1 PUSH2 0x9D3 SWAP2 SWAP1 PUSH2 0x196B JUMP JUMPDEST POP PUSH1 0x1 PUSH1 0x4 PUSH0 PUSH2 0x100 EXP DUP2 SLOAD DUP2 PUSH1 0xFF MUL NOT AND SWAP1 DUP4 ISZERO ISZERO MUL OR SWAP1 SSTORE POP POP POP JUMP JUMPDEST PUSH1 0x4 PUSH0 SWAP1 SLOAD SWAP1 PUSH2 0x100 EXP SWAP1 DIV PUSH1 0xFF AND DUP2 JUMP JUMPDEST PUSH1 0x1 PUSH0 SWAP1 SLOAD SWAP1 PUSH2 0x100 EXP SWAP1 DIV PUSH20 0xFFFFFFFFFFFFFFFFFFFFFFFFFFFFFFFFFFFFFFFF AND PUSH20 0xFFFFFFFFFFFFFFFFFFFFFFFFFFFFFFFFFFFFFFFF AND PUSH4 0x40C10F19 CALLER DUP4 PUSH1 0x40 MLOAD DUP4 PUSH4 0xFFFFFFFF AND PUSH1 0xE0 SHL DUP2 MSTORE PUSH1 0x4 ADD PUSH2 0xA60 SWAP3 SWAP2 SWAP1 PUSH2 0x191A JUMP JUMPDEST PUSH0 PUSH1 0x40 MLOAD DUP1 DUP4 SUB DUP2 PUSH0 DUP8 DUP1 EXTCODESIZE ISZERO DUP1 ISZERO PUSH2 0xA77 JUMPI PUSH0 DUP1 REVERT JUMPDEST POP GAS CALL ISZERO DUP1 ISZERO PUSH2 0xA89 JUMPI RETURNDATASIZE PUSH0 DUP1 RETURNDATACOPY RETURNDATASIZE PUSH0 REVERT JUMPDEST POP POP POP POP POP JUMP JUMPDEST PUSH0 DUP1 PUSH1 0x1 PUSH0 SWAP1 SLOAD SWAP1 PUSH2 0x100 EXP SWAP1 DIV PUSH20 0xFFFFFFFFFFFFFFFFFFFFFFFFFFFFFFFFFFFFFFFF AND PUSH20 0xFFFFFFFFFFFFFFFFFFFFFFFFFFFFFFFFFFFFFFFF AND PUSH4 0xDD62ED3E CALLER ADDRESS PUSH1 0x40 MLOAD DUP4 PUSH4 0xFFFFFFFF AND PUSH1 0xE0 SHL DUP2 MSTORE PUSH1 0x4 ADD PUSH2 0xAEE SWAP3 SWAP2 SWAP1 PUSH2 0x1996 JUMP JUMPDEST PUSH1 0x20 PUSH1 0x40 MLOAD DUP1 DUP4 SUB DUP2 DUP7 GAS STATICCALL ISZERO DUP1 ISZERO PUSH2 0xB09 JUMPI RETURNDATASIZE PUSH0 DUP1 RETURNDATACOPY RETURNDATASIZE PUSH0 REVERT JUMPDEST POP POP POP POP PUSH1 0x40 MLOAD RETURNDATASIZE PUSH1 0x1F NOT PUSH1 0x1F DUP3 ADD AND DUP3 ADD DUP1 PUSH1 0x40 MSTORE POP DUP2 ADD SWAP1 PUSH2 0xB2D SWAP2 SWAP1 PUSH2 0x18EF JUMP JUMPDEST SWAP1 POP DUP1 SWAP2 POP POP SWAP1 JUMP JUMPDEST PUSH0 DUP1 SLOAD SWAP1 PUSH2 0x100 EXP SWAP1 DIV PUSH20 0xFFFFFFFFFFFFFFFFFFFFFFFFFFFFFFFFFFFFFFFF AND PUSH20 0xFFFFFFFFFFFFFFFFFFFFFFFFFFFFFFFFFFFFFFFF AND PUSH4 0x23B872DD CALLER PUSH0 DUP5 PUSH1 0x40 MLOAD DUP5 PUSH4 0xFFFFFFFF AND PUSH1 0xE0 SHL DUP2 MSTORE PUSH1 0x4 ADD PUSH2 0xB92 SWAP4 SWAP3 SWAP2 SWAP1 PUSH2 0x1BA5 JUMP JUMPDEST PUSH1 0x20 PUSH1 0x40 MLOAD DUP1 DUP4 SUB DUP2 PUSH0 DUP8 GAS CALL ISZERO DUP1 ISZERO PUSH2 0xBAE JUMPI RETURNDATASIZE PUSH0 DUP1 RETURNDATACOPY RETURNDATASIZE PUSH0 REVERT JUMPDEST POP POP POP POP PUSH1 0x40 MLOAD RETURNDATASIZE PUSH1 0x1F NOT PUSH1 0x1F DUP3 ADD AND DUP3 ADD DUP1 PUSH1 0x40 MSTORE POP DUP2 ADD SWAP1 PUSH2 0xBD2 SWAP2 SWAP1 PUSH2 0x196B JUMP JUMPDEST POP POP JUMP JUMPDEST DUP1 PUSH0 DUP1 SLOAD SWAP1 PUSH2 0x100 EXP SWAP1 DIV PUSH20 0xFFFFFFFFFFFFFFFFFFFFFFFFFFFFFFFFFFFFFFFF AND PUSH20 0xFFFFFFFFFFFFFFFFFFFFFFFFFFFFFFFFFFFFFFFF AND PUSH4 0x70A08231 CALLER PUSH1 0x40 MLOAD DUP3 PUSH4 0xFFFFFFFF AND PUSH1 0xE0 SHL DUP2 MSTORE PUSH1 0x4 ADD PUSH2 0xC2F SWAP2 SWAP1 PUSH2 0x18C2 JUMP JUMPDEST PUSH1 0x20 PUSH1 0x40 MLOAD DUP1 DUP4 SUB DUP2 DUP7 GAS STATICCALL ISZERO DUP1 ISZERO PUSH2 0xC4A JUMPI RETURNDATASIZE PUSH0 DUP1 RETURNDATACOPY RETURNDATASIZE PUSH0 REVERT JUMPDEST POP POP POP POP PUSH1 0x40 MLOAD RETURNDATASIZE PUSH1 0x1F NOT PUSH1 0x1F DUP3 ADD AND DUP3 ADD DUP1 PUSH1 0x40 MSTORE POP DUP2 ADD SWAP1 PUSH2 0xC6E SWAP2 SWAP1 PUSH2 0x18EF JUMP JUMPDEST LT ISZERO PUSH2 0xCAF JUMPI PUSH1 0x40 MLOAD PUSH32 0x8C379A000000000000000000000000000000000000000000000000000000000 DUP2 MSTORE PUSH1 0x4 ADD PUSH2 0xCA6 SWAP1 PUSH2 0x1C24 JUMP JUMPDEST PUSH1 0x40 MLOAD DUP1 SWAP2 SUB SWAP1 REVERT JUMPDEST PUSH0 DUP1 SLOAD SWAP1 PUSH2 0x100 EXP SWAP1 DIV PUSH20 0xFFFFFFFFFFFFFFFFFFFFFFFFFFFFFFFFFFFFFFFF AND PUSH20 0xFFFFFFFFFFFFFFFFFFFFFFFFFFFFFFFFFFFFFFFF AND PUSH4 0x9DC29FAC CALLER DUP4 PUSH1 0x40 MLOAD DUP4 PUSH4 0xFFFFFFFF AND PUSH1 0xE0 SHL DUP2 MSTORE PUSH1 0x4 ADD PUSH2 0xD09 SWAP3 SWAP2 SWAP1 PUSH2 0x191A JUMP JUMPDEST PUSH0 PUSH1 0x40 MLOAD DUP1 DUP4 SUB DUP2 PUSH0 DUP8 DUP1 EXTCODESIZE ISZERO DUP1 ISZERO PUSH2 0xD20 JUMPI PUSH0 DUP1 REVERT JUMPDEST POP GAS CALL ISZERO DUP1 ISZERO PUSH2 0xD32 JUMPI RETURNDATASIZE PUSH0 DUP1 RETURNDATACOPY RETURNDATASIZE PUSH0 REVERT JUMPDEST POP POP POP POP POP JUMP JUMPDEST DUP1 PUSH0 DUP1 SLOAD SWAP1 PUSH2 0x100 EXP SWAP1 DIV PUSH20 0xFFFFFFFFFFFFFFFFFFFFFFFFFFFFFFFFFFFFFFFF AND PUSH20 0xFFFFFFFFFFFFFFFFFFFFFFFFFFFFFFFFFFFFFFFF AND PUSH4 0x70A08231 CALLER PUSH1 0x40 MLOAD DUP3 PUSH4 0xFFFFFFFF AND PUSH1 0xE0 SHL DUP2 MSTORE PUSH1 0x4 ADD PUSH2 0xD92 SWAP2 SWAP1 PUSH2 0x18C2 JUMP JUMPDEST PUSH1 0x20 PUSH1 0x40 MLOAD DUP1 DUP4 SUB DUP2 DUP7 GAS STATICCALL ISZERO DUP1 ISZERO PUSH2 0xDAD JUMPI RETURNDATASIZE PUSH0 DUP1 RETURNDATACOPY RETURNDATASIZE PUSH0 REVERT JUMPDEST POP POP POP POP PUSH1 0x40 MLOAD RETURNDATASIZE PUSH1 0x1F NOT PUSH1 0x1F DUP3 ADD AND DUP3 ADD DUP1 PUSH1 0x40 MSTORE POP DUP2 ADD SWAP1 PUSH2 0xDD1 SWAP2 SWAP1 PUSH2 0x18EF JUMP JUMPDEST LT ISZERO PUSH2 0xE12 JUMPI PUSH1 0x40 MLOAD PUSH32 0x8C379A000000000000000000000000000000000000000000000000000000000 DUP2 MSTORE PUSH1 0x4 ADD PUSH2 0xE09 SWAP1 PUSH2 0x1C8C JUMP JUMPDEST PUSH1 0x40 MLOAD DUP1 SWAP2 SUB SWAP1 REVERT JUMPDEST PUSH1 0x3 SLOAD DUP2 PUSH2 0xE20 SWAP2 SWAP1 PUSH2 0x1CAA JUMP JUMPDEST PUSH1 0x1 PUSH0 SWAP1 SLOAD SWAP1 PUSH2 0x100 EXP SWAP1 DIV PUSH20 0xFFFFFFFFFFFFFFFFFFFFFFFFFFFFFFFFFFFFFFFF AND PUSH20 0xFFFFFFFFFFFFFFFFFFFFFFFFFFFFFFFFFFFFFFFF AND PUSH4 0x70A08231 ADDRESS PUSH1 0x40 MLOAD DUP3 PUSH4 0xFFFFFFFF AND PUSH1 0xE0 SHL DUP2 MSTORE PUSH1 0x4 ADD PUSH2 0xE7A SWAP2 SWAP1 PUSH2 0x18C2 JUMP JUMPDEST PUSH1 0x20 PUSH1 0x40 MLOAD DUP1 DUP4 SUB DUP2 DUP7 GAS STATICCALL ISZERO DUP1 ISZERO PUSH2 0xE95 JUMPI RETURNDATASIZE PUSH0 DUP1 RETURNDATACOPY RETURNDATASIZE PUSH0 REVERT JUMPDEST POP POP POP POP PUSH1 0x40 MLOAD RETURNDATASIZE PUSH1 0x1F NOT PUSH1 0x1F DUP3 ADD AND DUP3 ADD DUP1 PUSH1 0x40 MSTORE POP DUP2 ADD SWAP1 PUSH2 0xEB9 SWAP2 SWAP1 PUSH2 0x18EF JUMP JUMPDEST LT ISZERO PUSH2 0xEFA JUMPI PUSH1 0x40 MLOAD PUSH32 0x8C379A000000000000000000000000000000000000000000000000000000000 DUP2 MSTORE PUSH1 0x4 ADD PUSH2 0xEF1 SWAP1 PUSH2 0x1B87 JUMP JUMPDEST PUSH1 0x40 MLOAD DUP1 SWAP2 SUB SWAP1 REVERT JUMPDEST PUSH0 DUP1 SLOAD SWAP1 PUSH2 0x100 EXP SWAP1 DIV PUSH20 0xFFFFFFFFFFFFFFFFFFFFFFFFFFFFFFFFFFFFFFFF AND PUSH20 0xFFFFFFFFFFFFFFFFFFFFFFFFFFFFFFFFFFFFFFFF AND PUSH4 0x23B872DD CALLER ADDRESS DUP5 PUSH1 0x40 MLOAD DUP5 PUSH4 0xFFFFFFFF AND PUSH1 0xE0 SHL DUP2 MSTORE PUSH1 0x4 ADD PUSH2 0xF56 SWAP4 SWAP3 SWAP2 SWAP1 PUSH2 0x1BA5 JUMP JUMPDEST PUSH1 0x20 PUSH1 0x40 MLOAD DUP1 DUP4 SUB DUP2 PUSH0 DUP8 GAS CALL ISZERO DUP1 ISZERO PUSH2 0xF72 JUMPI RETURNDATASIZE PUSH0 DUP1 RETURNDATACOPY RETURNDATASIZE PUSH0 REVERT JUMPDEST POP POP POP POP PUSH1 0x40 MLOAD RETURNDATASIZE PUSH1 0x1F NOT PUSH1 0x1F DUP3 ADD AND DUP3 ADD DUP1 PUSH1 0x40 MSTORE POP DUP2 ADD SWAP1 PUSH2 0xF96 SWAP2 SWAP1 PUSH2 0x196B JUMP JUMPDEST PUSH2 0xFD5 JUMPI PUSH1 0x40 MLOAD PUSH32 0x8C379A000000000000000000000000000000000000000000000000000000000 DUP2 MSTORE PUSH1 0x4 ADD PUSH2 0xFCC SWAP1 PUSH2 0x1D5B JUMP JUMPDEST PUSH1 0x40 MLOAD DUP1 SWAP2 SUB SWAP1 REVERT JUMPDEST PUSH0 PUSH1 0x3 SLOAD DUP3 PUSH2 0xFE4 SWAP2 SWAP1 PUSH2 0x1CAA JUMP JUMPDEST SWAP1 POP PUSH1 0x1 PUSH0 SWAP1 SLOAD SWAP1 PUSH2 0x100 EXP SWAP1 DIV PUSH20 0xFFFFFFFFFFFFFFFFFFFFFFFFFFFFFFFFFFFFFFFF AND PUSH20 0xFFFFFFFFFFFFFFFFFFFFFFFFFFFFFFFFFFFFFFFF AND PUSH4 0xA9059CBB CALLER DUP4 PUSH1 0x40 MLOAD DUP4 PUSH4 0xFFFFFFFF AND PUSH1 0xE0 SHL DUP2 MSTORE PUSH1 0x4 ADD PUSH2 0x1042 SWAP3 SWAP2 SWAP1 PUSH2 0x191A JUMP JUMPDEST PUSH1 0x20 PUSH1 0x40 MLOAD DUP1 DUP4 SUB DUP2 PUSH0 DUP8 GAS CALL ISZERO DUP1 ISZERO PUSH2 0x105E JUMPI RETURNDATASIZE PUSH0 DUP1 RETURNDATACOPY RETURNDATASIZE PUSH0 REVERT JUMPDEST POP POP POP POP PUSH1 0x40 MLOAD RETURNDATASIZE PUSH1 0x1F NOT PUSH1 0x1F DUP3 ADD AND DUP3 ADD DUP1 PUSH1 0x40 MSTORE POP DUP2 ADD SWAP1 PUSH2 0x1082 SWAP2 SWAP1 PUSH2 0x196B JUMP JUMPDEST PUSH2 0x10C1 JUMPI PUSH1 0x40 MLOAD PUSH32 0x8C379A000000000000000000000000000000000000000000000000000000000 DUP2 MSTORE PUSH1 0x4 ADD PUSH2 0x10B8 SWAP1 PUSH2 0x1DE9 JUMP JUMPDEST PUSH1 0x40 MLOAD DUP1 SWAP2 SUB SWAP1 REVERT JUMPDEST PUSH1 0x1 PUSH1 0x4 PUSH0 PUSH2 0x100 EXP DUP2 SLOAD DUP2 PUSH1 0xFF MUL NOT AND SWAP1 DUP4 ISZERO ISZERO MUL OR SWAP1 SSTORE POP POP POP JUMP JUMPDEST PUSH1 0x60 PUSH1 0x1 ISZERO ISZERO PUSH1 0x4 PUSH0 SWAP1 SLOAD SWAP1 PUSH2 0x100 EXP SWAP1 DIV PUSH1 0xFF AND ISZERO ISZERO EQ PUSH2 0x1136 JUMPI PUSH1 0x40 MLOAD PUSH32 0x8C379A000000000000000000000000000000000000000000000000000000000 DUP2 MSTORE PUSH1 0x4 ADD PUSH2 0x112D SWAP1 PUSH2 0x1E51 JUMP JUMPDEST PUSH1 0x40 MLOAD DUP1 SWAP2 SUB SWAP1 REVERT JUMPDEST PUSH0 PUSH1 0x1 PUSH0 SWAP1 SLOAD SWAP1 PUSH2 0x100 EXP SWAP1 DIV PUSH20 0xFFFFFFFFFFFFFFFFFFFFFFFFFFFFFFFFFFFFFFFF AND PUSH20 0xFFFFFFFFFFFFFFFFFFFFFFFFFFFFFFFFFFFFFFFF AND PUSH4 0x70A08231 ADDRESS PUSH1 0x40 MLOAD DUP3 PUSH4 0xFFFFFFFF AND PUSH1 0xE0 SHL DUP2 MSTORE PUSH1 0x4 ADD PUSH2 0x1191 SWAP2 SWAP1 PUSH2 0x18C2 JUMP JUMPDEST PUSH1 0x20 PUSH1 0x40 MLOAD DUP1 DUP4 SUB DUP2 DUP7 GAS STATICCALL ISZERO DUP1 ISZERO PUSH2 0x11AC JUMPI RETURNDATASIZE PUSH0 DUP1 RETURNDATACOPY RETURNDATASIZE PUSH0 REVERT JUMPDEST POP POP POP POP PUSH1 0x40 MLOAD RETURNDATASIZE PUSH1 0x1F NOT PUSH1 0x1F DUP3 ADD AND DUP3 ADD DUP1 PUSH1 0x40 MSTORE POP DUP2 ADD SWAP1 PUSH2 0x11D0 SWAP2 SWAP1 PUSH2 0x18EF JUMP JUMPDEST GT DUP1 ISZERO PUSH2 0x1273 JUMPI POP PUSH0 DUP1 PUSH0 SWAP1 SLOAD SWAP1 PUSH2 0x100 EXP SWAP1 DIV PUSH20 0xFFFFFFFFFFFFFFFFFFFFFFFFFFFFFFFFFFFFFFFF AND PUSH20 0xFFFFFFFFFFFFFFFFFFFFFFFFFFFFFFFFFFFFFFFF AND PUSH4 0x70A08231 ADDRESS PUSH1 0x40 MLOAD DUP3 PUSH4 0xFFFFFFFF AND PUSH1 0xE0 SHL DUP2 MSTORE PUSH1 0x4 ADD PUSH2 0x1232 SWAP2 SWAP1 PUSH2 0x18C2 JUMP JUMPDEST PUSH1 0x20 PUSH1 0x40 MLOAD DUP1 DUP4 SUB DUP2 DUP7 GAS STATICCALL ISZERO DUP1 ISZERO PUSH2 0x124D JUMPI RETURNDATASIZE PUSH0 DUP1 RETURNDATACOPY RETURNDATASIZE PUSH0 REVERT JUMPDEST POP POP POP POP PUSH1 0x40 MLOAD RETURNDATASIZE PUSH1 0x1F NOT PUSH1 0x1F DUP3 ADD AND DUP3 ADD DUP1 PUSH1 0x40 MSTORE POP DUP2 ADD SWAP1 PUSH2 0x1271 SWAP2 SWAP1 PUSH2 0x18EF JUMP JUMPDEST GT JUMPDEST PUSH2 0x12B2 JUMPI PUSH1 0x40 MLOAD PUSH32 0x8C379A000000000000000000000000000000000000000000000000000000000 DUP2 MSTORE PUSH1 0x4 ADD PUSH2 0x12A9 SWAP1 PUSH2 0x1EDF JUMP JUMPDEST PUSH1 0x40 MLOAD DUP1 SWAP2 SUB SWAP1 REVERT JUMPDEST PUSH0 DUP1 SLOAD SWAP1 PUSH2 0x100 EXP SWAP1 DIV PUSH20 0xFFFFFFFFFFFFFFFFFFFFFFFFFFFFFFFFFFFFFFFF AND PUSH20 0xFFFFFFFFFFFFFFFFFFFFFFFFFFFFFFFFFFFFFFFF AND PUSH4 0x70A08231 ADDRESS PUSH1 0x40 MLOAD DUP3 PUSH4 0xFFFFFFFF AND PUSH1 0xE0 SHL DUP2 MSTORE PUSH1 0x4 ADD PUSH2 0x130A SWAP2 SWAP1 PUSH2 0x18C2 JUMP JUMPDEST PUSH1 0x20 PUSH1 0x40 MLOAD DUP1 DUP4 SUB DUP2 DUP7 GAS STATICCALL ISZERO DUP1 ISZERO PUSH2 0x1325 JUMPI RETURNDATASIZE PUSH0 DUP1 RETURNDATACOPY RETURNDATASIZE PUSH0 REVERT JUMPDEST POP POP POP POP PUSH1 0x40 MLOAD RETURNDATASIZE PUSH1 0x1F NOT PUSH1 0x1F DUP3 ADD AND DUP3 ADD DUP1 PUSH1 0x40 MSTORE POP DUP2 ADD SWAP1 PUSH2 0x1349 SWAP2 SWAP1 PUSH2 0x18EF JUMP JUMPDEST PUSH1 0x1 PUSH0 SWAP1 SLOAD SWAP1 PUSH2 0x100 EXP SWAP1 DIV PUSH20 0xFFFFFFFFFFFFFFFFFFFFFFFFFFFFFFFFFFFFFFFF AND PUSH20 0xFFFFFFFFFFFFFFFFFFFFFFFFFFFFFFFFFFFFFFFF AND PUSH4 0x70A08231 ADDRESS PUSH1 0x40 MLOAD DUP3 PUSH4 0xFFFFFFFF AND PUSH1 0xE0 SHL DUP2 MSTORE PUSH1 0x4 ADD PUSH2 0x13A3 SWAP2 SWAP1 PUSH2 0x18C2 JUMP JUMPDEST PUSH1 0x20 PUSH1 0x40 MLOAD DUP1 DUP4 SUB DUP2 DUP7 GAS STATICCALL ISZERO DUP1 ISZERO PUSH2 0x13BE JUMPI RETURNDATASIZE PUSH0 DUP1 RETURNDATACOPY RETURNDATASIZE PUSH0 REVERT JUMPDEST POP POP POP POP PUSH1 0x40 MLOAD RETURNDATASIZE PUSH1 0x1F NOT PUSH1 0x1F DUP3 ADD AND DUP3 ADD DUP1 PUSH1 0x40 MSTORE POP DUP2 ADD SWAP1 PUSH2 0x13E2 SWAP2 SWAP1 PUSH2 0x18EF JUMP JUMPDEST EQ PUSH2 0x1422 JUMPI PUSH1 0x40 MLOAD PUSH32 0x8C379A000000000000000000000000000000000000000000000000000000000 DUP2 MSTORE PUSH1 0x4 ADD PUSH2 0x1419 SWAP1 PUSH2 0x1F47 JUMP JUMPDEST PUSH1 0x40 MLOAD DUP1 SWAP2 SUB SWAP1 REVERT JUMPDEST PUSH1 0x2 DUP1 SLOAD PUSH2 0x142F SWAP1 PUSH2 0x1F92 JUMP JUMPDEST DUP1 PUSH1 0x1F ADD PUSH1 0x20 DUP1 SWAP2 DIV MUL PUSH1 0x20 ADD PUSH1 0x40 MLOAD SWAP1 DUP2 ADD PUSH1 0x40 MSTORE DUP1 SWAP3 SWAP2 SWAP1 DUP2 DUP2 MSTORE PUSH1 0x20 ADD DUP3 DUP1 SLOAD PUSH2 0x145B SWAP1 PUSH2 0x1F92 JUMP JUMPDEST DUP1 ISZERO PUSH2 0x14A6 JUMPI DUP1 PUSH1 0x1F LT PUSH2 0x147D JUMPI PUSH2 0x100 DUP1 DUP4 SLOAD DIV MUL DUP4 MSTORE SWAP2 PUSH1 0x20 ADD SWAP2 PUSH2 0x14A6 JUMP JUMPDEST DUP3 ADD SWAP2 SWAP1 PUSH0 MSTORE PUSH1 0x20 PUSH0 KECCAK256 SWAP1 JUMPDEST DUP2 SLOAD DUP2 MSTORE SWAP1 PUSH1 0x1 ADD SWAP1 PUSH1 0x20 ADD DUP1 DUP4 GT PUSH2 0x1489 JUMPI DUP3 SWAP1 SUB PUSH1 0x1F AND DUP3 ADD SWAP2 JUMPDEST POP POP POP POP POP SWAP1 POP SWAP1 JUMP JUMPDEST DUP1 PUSH1 0x1 PUSH0 SWAP1 SLOAD SWAP1 PUSH2 0x100 EXP SWAP1 DIV PUSH20 0xFFFFFFFFFFFFFFFFFFFFFFFFFFFFFFFFFFFFFFFF AND PUSH20 0xFFFFFFFFFFFFFFFFFFFFFFFFFFFFFFFFFFFFFFFF AND PUSH4 0x70A08231 CALLER PUSH1 0x40 MLOAD DUP3 PUSH4 0xFFFFFFFF AND PUSH1 0xE0 SHL DUP2 MSTORE PUSH1 0x4 ADD PUSH2 0x150B SWAP2 SWAP1 PUSH2 0x18C2 JUMP JUMPDEST PUSH1 0x20 PUSH1 0x40 MLOAD DUP1 DUP4 SUB DUP2 DUP7 GAS STATICCALL ISZERO DUP1 ISZERO PUSH2 0x1526 JUMPI RETURNDATASIZE PUSH0 DUP1 RETURNDATACOPY RETURNDATASIZE PUSH0 REVERT JUMPDEST POP POP POP POP PUSH1 0x40 MLOAD RETURNDATASIZE PUSH1 0x1F NOT PUSH1 0x1F DUP3 ADD AND DUP3 ADD DUP1 PUSH1 0x40 MSTORE POP DUP2 ADD SWAP1 PUSH2 0x154A SWAP2 SWAP1 PUSH2 0x18EF JUMP JUMPDEST LT ISZERO PUSH2 0x158B JUMPI PUSH1 0x40 MLOAD PUSH32 0x8C379A000000000000000000000000000000000000000000000000000000000 DUP2 MSTORE PUSH1 0x4 ADD PUSH2 0x1582 SWAP1 PUSH2 0x1C24 JUMP JUMPDEST PUSH1 0x40 MLOAD DUP1 SWAP2 SUB SWAP1 REVERT JUMPDEST PUSH0 DUP1 SLOAD SWAP1 PUSH2 0x100 EXP SWAP1 DIV PUSH20 0xFFFFFFFFFFFFFFFFFFFFFFFFFFFFFFFFFFFFFFFF AND PUSH20 0xFFFFFFFFFFFFFFFFFFFFFFFFFFFFFFFFFFFFFFFF AND PUSH4 0x9DC29FAC CALLER DUP4 PUSH1 0x40 MLOAD DUP4 PUSH4 0xFFFFFFFF AND PUSH1 0xE0 SHL DUP2 MSTORE PUSH1 0x4 ADD PUSH2 0x15E5 SWAP3 SWAP2 SWAP1 PUSH2 0x191A JUMP JUMPDEST PUSH0 PUSH1 0x40 MLOAD DUP1 DUP4 SUB DUP2 PUSH0 DUP8 DUP1 EXTCODESIZE ISZERO DUP1 ISZERO PUSH2 0x15FC JUMPI PUSH0 DUP1 REVERT JUMPDEST POP GAS CALL ISZERO DUP1 ISZERO PUSH2 0x160E JUMPI RETURNDATASIZE PUSH0 DUP1 RETURNDATACOPY RETURNDATASIZE PUSH0 REVERT JUMPDEST POP POP POP POP POP JUMP JUMPDEST PUSH0 PUSH20 0xFFFFFFFFFFFFFFFFFFFFFFFFFFFFFFFFFFFFFFFF DUP3 AND SWAP1 POP SWAP2 SWAP1 POP JUMP JUMPDEST PUSH0 DUP2 SWAP1 POP SWAP2 SWAP1 POP JUMP JUMPDEST PUSH0 PUSH2 0x1657 PUSH2 0x1652 PUSH2 0x164D DUP5 PUSH2 0x1615 JUMP JUMPDEST PUSH2 0x1634 JUMP JUMPDEST PUSH2 0x1615 JUMP JUMPDEST SWAP1 POP SWAP2 SWAP1 POP JUMP JUMPDEST PUSH0 PUSH2 0x1668 DUP3 PUSH2 0x163D JUMP JUMPDEST SWAP1 POP SWAP2 SWAP1 POP JUMP JUMPDEST PUSH0 PUSH2 0x1679 DUP3 PUSH2 0x165E JUMP JUMPDEST SWAP1 POP SWAP2 SWAP1 POP JUMP JUMPDEST PUSH2 0x1689 DUP2 PUSH2 0x166F JUMP JUMPDEST DUP3 MSTORE POP POP JUMP JUMPDEST PUSH0 PUSH1 0x20 DUP3 ADD SWAP1 POP PUSH2 0x16A2 PUSH0 DUP4 ADD DUP5 PUSH2 0x1680 JUMP JUMPDEST SWAP3 SWAP2 POP POP JUMP JUMPDEST PUSH0 DUP1 REVERT JUMPDEST PUSH0 PUSH2 0x16B6 DUP3 PUSH2 0x1615 JUMP JUMPDEST SWAP1 POP SWAP2 SWAP1 POP JUMP JUMPDEST PUSH2 0x16C6 DUP2 PUSH2 0x16AC JUMP JUMPDEST DUP2 EQ PUSH2 0x16D0 JUMPI PUSH0 DUP1 REVERT JUMPDEST POP JUMP JUMPDEST PUSH0 DUP2 CALLDATALOAD SWAP1 POP PUSH2 0x16E1 DUP2 PUSH2 0x16BD JUMP JUMPDEST SWAP3 SWAP2 POP POP JUMP JUMPDEST PUSH0 PUSH1 0x20 DUP3 DUP5 SUB SLT ISZERO PUSH2 0x16FC JUMPI PUSH2 0x16FB PUSH2 0x16A8 JUMP JUMPDEST JUMPDEST PUSH0 PUSH2 0x1709 DUP5 DUP3 DUP6 ADD PUSH2 0x16D3 JUMP JUMPDEST SWAP2 POP POP SWAP3 SWAP2 POP POP JUMP JUMPDEST PUSH0 DUP2 SWAP1 POP SWAP2 SWAP1 POP JUMP JUMPDEST PUSH2 0x1724 DUP2 PUSH2 0x1712 JUMP JUMPDEST DUP3 MSTORE POP POP JUMP JUMPDEST PUSH0 PUSH1 0x20 DUP3 ADD SWAP1 POP PUSH2 0x173D PUSH0 DUP4 ADD DUP5 PUSH2 0x171B JUMP JUMPDEST SWAP3 SWAP2 POP POP JUMP JUMPDEST PUSH2 0x174C DUP2 PUSH2 0x1712 JUMP JUMPDEST DUP2 EQ PUSH2 0x1756 JUMPI PUSH0 DUP1 REVERT JUMPDEST POP JUMP JUMPDEST PUSH0 DUP2 CALLDATALOAD SWAP1 POP PUSH2 0x1767 DUP2 PUSH2 0x1743 JUMP JUMPDEST SWAP3 SWAP2 POP POP JUMP JUMPDEST PUSH0 PUSH1 0x20 DUP3 DUP5 SUB SLT ISZERO PUSH2 0x1782 JUMPI PUSH2 0x1781 PUSH2 0x16A8 JUMP JUMPDEST JUMPDEST PUSH0 PUSH2 0x178F DUP5 DUP3 DUP6 ADD PUSH2 0x1759 JUMP JUMPDEST SWAP2 POP POP SWAP3 SWAP2 POP POP JUMP JUMPDEST PUSH0 DUP1 PUSH1 0x40 DUP4 DUP6 SUB SLT ISZERO PUSH2 0x17AE JUMPI PUSH2 0x17AD PUSH2 0x16A8 JUMP JUMPDEST JUMPDEST PUSH0 PUSH2 0x17BB DUP6 DUP3 DUP7 ADD PUSH2 0x16D3 JUMP JUMPDEST SWAP3 POP POP PUSH1 0x20 PUSH2 0x17CC DUP6 DUP3 DUP7 ADD PUSH2 0x1759 JUMP JUMPDEST SWAP2 POP POP SWAP3 POP SWAP3 SWAP1 POP JUMP JUMPDEST PUSH0 DUP2 ISZERO ISZERO SWAP1 POP SWAP2 SWAP1 POP JUMP JUMPDEST PUSH2 0x17EA DUP2 PUSH2 0x17D6 JUMP JUMPDEST DUP3 MSTORE POP POP JUMP JUMPDEST PUSH0 PUSH1 0x20 DUP3 ADD SWAP1 POP PUSH2 0x1803 PUSH0 DUP4 ADD DUP5 PUSH2 0x17E1 JUMP JUMPDEST SWAP3 SWAP2 POP POP JUMP JUMPDEST PUSH0 DUP2 MLOAD SWAP1 POP SWAP2 SWAP1 POP JUMP JUMPDEST PUSH0 DUP3 DUP3 MSTORE PUSH1 0x20 DUP3 ADD SWAP1 POP SWAP3 SWAP2 POP POP JUMP JUMPDEST PUSH0 JUMPDEST DUP4 DUP2 LT ISZERO PUSH2 0x1840 JUMPI DUP1 DUP3 ADD MLOAD DUP2 DUP5 ADD MSTORE PUSH1 0x20 DUP2 ADD SWAP1 POP PUSH2 0x1825 JUMP JUMPDEST PUSH0 DUP5 DUP5 ADD MSTORE POP POP POP POP JUMP JUMPDEST PUSH0 PUSH1 0x1F NOT PUSH1 0x1F DUP4 ADD AND SWAP1 POP SWAP2 SWAP1 POP JUMP JUMPDEST PUSH0 PUSH2 0x1865 DUP3 PUSH2 0x1809 JUMP JUMPDEST PUSH2 0x186F DUP2 DUP6 PUSH2 0x1813 JUMP JUMPDEST SWAP4 POP PUSH2 0x187F DUP2 DUP6 PUSH1 0x20 DUP7 ADD PUSH2 0x1823 JUMP JUMPDEST PUSH2 0x1888 DUP2 PUSH2 0x184B JUMP JUMPDEST DUP5 ADD SWAP2 POP POP SWAP3 SWAP2 POP POP JUMP JUMPDEST PUSH0 PUSH1 0x20 DUP3 ADD SWAP1 POP DUP2 DUP2 SUB PUSH0 DUP4 ADD MSTORE PUSH2 0x18AB DUP2 DUP5 PUSH2 0x185B JUMP JUMPDEST SWAP1 POP SWAP3 SWAP2 POP POP JUMP JUMPDEST PUSH2 0x18BC DUP2 PUSH2 0x16AC JUMP JUMPDEST DUP3 MSTORE POP POP JUMP JUMPDEST PUSH0 PUSH1 0x20 DUP3 ADD SWAP1 POP PUSH2 0x18D5 PUSH0 DUP4 ADD DUP5 PUSH2 0x18B3 JUMP JUMPDEST SWAP3 SWAP2 POP POP JUMP JUMPDEST PUSH0 DUP2 MLOAD SWAP1 POP PUSH2 0x18E9 DUP2 PUSH2 0x1743 JUMP JUMPDEST SWAP3 SWAP2 POP POP JUMP JUMPDEST PUSH0 PUSH1 0x20 DUP3 DUP5 SUB SLT ISZERO PUSH2 0x1904 JUMPI PUSH2 0x1903 PUSH2 0x16A8 JUMP JUMPDEST JUMPDEST PUSH0 PUSH2 0x1911 DUP5 DUP3 DUP6 ADD PUSH2 0x18DB JUMP JUMPDEST SWAP2 POP POP SWAP3 SWAP2 POP POP JUMP JUMPDEST PUSH0 PUSH1 0x40 DUP3 ADD SWAP1 POP PUSH2 0x192D PUSH0 DUP4 ADD DUP6 PUSH2 0x18B3 JUMP JUMPDEST PUSH2 0x193A PUSH1 0x20 DUP4 ADD DUP5 PUSH2 0x171B JUMP JUMPDEST SWAP4 SWAP3 POP POP POP JUMP JUMPDEST PUSH2 0x194A DUP2 PUSH2 0x17D6 JUMP JUMPDEST DUP2 EQ PUSH2 0x1954 JUMPI PUSH0 DUP1 REVERT JUMPDEST POP JUMP JUMPDEST PUSH0 DUP2 MLOAD SWAP1 POP PUSH2 0x1965 DUP2 PUSH2 0x1941 JUMP JUMPDEST SWAP3 SWAP2 POP POP JUMP JUMPDEST PUSH0 PUSH1 0x20 DUP3 DUP5 SUB SLT ISZERO PUSH2 0x1980 JUMPI PUSH2 0x197F PUSH2 0x16A8 JUMP JUMPDEST JUMPDEST PUSH0 PUSH2 0x198D DUP5 DUP3 DUP6 ADD PUSH2 0x1957 JUMP JUMPDEST SWAP2 POP POP SWAP3 SWAP2 POP POP JUMP JUMPDEST PUSH0 PUSH1 0x40 DUP3 ADD SWAP1 POP PUSH2 0x19A9 PUSH0 DUP4 ADD DUP6 PUSH2 0x18B3 JUMP JUMPDEST PUSH2 0x19B6 PUSH1 0x20 DUP4 ADD DUP5 PUSH2 0x18B3 JUMP JUMPDEST SWAP4 SWAP3 POP POP POP JUMP JUMPDEST PUSH32 0x4E6F742066616972207472616465000000000000000000000000000000000000 PUSH0 DUP3 ADD MSTORE POP JUMP JUMPDEST PUSH0 PUSH2 0x19F1 PUSH1 0xE DUP4 PUSH2 0x1813 JUMP JUMPDEST SWAP2 POP PUSH2 0x19FC DUP3 PUSH2 0x19BD JUMP JUMPDEST PUSH1 0x20 DUP3 ADD SWAP1 POP SWAP2 SWAP1 POP JUMP JUMPDEST PUSH0 PUSH1 0x20 DUP3 ADD SWAP1 POP DUP2 DUP2 SUB PUSH0 DUP4 ADD MSTORE PUSH2 0x1A1E DUP2 PUSH2 0x19E5 JUMP JUMPDEST SWAP1 POP SWAP2 SWAP1 POP JUMP JUMPDEST PUSH32 0x496E73756666696369656E7420746F6B656E422062616C616E63650000000000 PUSH0 DUP3 ADD MSTORE POP JUMP JUMPDEST PUSH0 PUSH2 0x1A59 PUSH1 0x1B DUP4 PUSH2 0x1813 JUMP JUMPDEST SWAP2 POP PUSH2 0x1A64 DUP3 PUSH2 0x1A25 JUMP JUMPDEST PUSH1 0x20 DUP3 ADD SWAP1 POP SWAP2 SWAP1 POP JUMP JUMPDEST PUSH0 PUSH1 0x20 DUP3 ADD SWAP1 POP DUP2 DUP2 SUB PUSH0 DUP4 ADD MSTORE PUSH2 0x1A86 DUP2 PUSH2 0x1A4D JUMP JUMPDEST SWAP1 POP SWAP2 SWAP1 POP JUMP JUMPDEST PUSH32 0x4E487B7100000000000000000000000000000000000000000000000000000000 PUSH0 MSTORE PUSH1 0x12 PUSH1 0x4 MSTORE PUSH1 0x24 PUSH0 REVERT JUMPDEST PUSH32 0x4E487B7100000000000000000000000000000000000000000000000000000000 PUSH0 MSTORE PUSH1 0x11 PUSH1 0x4 MSTORE PUSH1 0x24 PUSH0 REVERT JUMPDEST PUSH0 PUSH2 0x1AF1 DUP3 PUSH2 0x1712 JUMP JUMPDEST SWAP2 POP PUSH2 0x1AFC DUP4 PUSH2 0x1712 JUMP JUMPDEST SWAP3 POP DUP3 PUSH2 0x1B0C JUMPI PUSH2 0x1B0B PUSH2 0x1A8D JUMP JUMPDEST JUMPDEST DUP3 DUP3 DIV SWAP1 POP SWAP3 SWAP2 POP POP JUMP JUMPDEST PUSH32 0x4E6F7420656E6F756768206C697175696469747920666F722074686520737761 PUSH0 DUP3 ADD MSTORE PUSH32 0x7000000000000000000000000000000000000000000000000000000000000000 PUSH1 0x20 DUP3 ADD MSTORE POP JUMP JUMPDEST PUSH0 PUSH2 0x1B71 PUSH1 0x21 DUP4 PUSH2 0x1813 JUMP JUMPDEST SWAP2 POP PUSH2 0x1B7C DUP3 PUSH2 0x1B17 JUMP JUMPDEST PUSH1 0x40 DUP3 ADD SWAP1 POP SWAP2 SWAP1 POP JUMP JUMPDEST PUSH0 PUSH1 0x20 DUP3 ADD SWAP1 POP DUP2 DUP2 SUB PUSH0 DUP4 ADD MSTORE PUSH2 0x1B9E DUP2 PUSH2 0x1B65 JUMP JUMPDEST SWAP1 POP SWAP2 SWAP1 POP JUMP JUMPDEST PUSH0 PUSH1 0x60 DUP3 ADD SWAP1 POP PUSH2 0x1BB8 PUSH0 DUP4 ADD DUP7 PUSH2 0x18B3 JUMP JUMPDEST PUSH2 0x1BC5 PUSH1 0x20 DUP4 ADD DUP6 PUSH2 0x18B3 JUMP JUMPDEST PUSH2 0x1BD2 PUSH1 0x40 DUP4 ADD DUP5 PUSH2 0x171B JUMP JUMPDEST SWAP5 SWAP4 POP POP POP POP JUMP JUMPDEST PUSH32 0x4E6F207469656E6573206573612063616E746964616400000000000000000000 PUSH0 DUP3 ADD MSTORE POP JUMP JUMPDEST PUSH0 PUSH2 0x1C0E PUSH1 0x16 DUP4 PUSH2 0x1813 JUMP JUMPDEST SWAP2 POP PUSH2 0x1C19 DUP3 PUSH2 0x1BDA JUMP JUMPDEST PUSH1 0x20 DUP3 ADD SWAP1 POP SWAP2 SWAP1 POP JUMP JUMPDEST PUSH0 PUSH1 0x20 DUP3 ADD SWAP1 POP DUP2 DUP2 SUB PUSH0 DUP4 ADD MSTORE PUSH2 0x1C3B DUP2 PUSH2 0x1C02 JUMP JUMPDEST SWAP1 POP SWAP2 SWAP1 POP JUMP JUMPDEST PUSH32 0x496E73756666696369656E7420746F6B656E412062616C616E63650000000000 PUSH0 DUP3 ADD MSTORE POP JUMP JUMPDEST PUSH0 PUSH2 0x1C76 PUSH1 0x1B DUP4 PUSH2 0x1813 JUMP JUMPDEST SWAP2 POP PUSH2 0x1C81 DUP3 PUSH2 0x1C42 JUMP JUMPDEST PUSH1 0x20 DUP3 ADD SWAP1 POP SWAP2 SWAP1 POP JUMP JUMPDEST PUSH0 PUSH1 0x20 DUP3 ADD SWAP1 POP DUP2 DUP2 SUB PUSH0 DUP4 ADD MSTORE PUSH2 0x1CA3 DUP2 PUSH2 0x1C6A JUMP JUMPDEST SWAP1 POP SWAP2 SWAP1 POP JUMP JUMPDEST PUSH0 PUSH2 0x1CB4 DUP3 PUSH2 0x1712 JUMP JUMPDEST SWAP2 POP PUSH2 0x1CBF DUP4 PUSH2 0x1712 JUMP JUMPDEST SWAP3 POP DUP3 DUP3 MUL PUSH2 0x1CCD DUP2 PUSH2 0x1712 JUMP JUMPDEST SWAP2 POP DUP3 DUP3 DIV DUP5 EQ DUP4 ISZERO OR PUSH2 0x1CE4 JUMPI PUSH2 0x1CE3 PUSH2 0x1ABA JUMP JUMPDEST JUMPDEST POP SWAP3 SWAP2 POP POP JUMP JUMPDEST PUSH32 0x5472616E736665722066726F6D206D73672E73656E64657220746F20636F6E74 PUSH0 DUP3 ADD MSTORE PUSH32 0x72616374206661696C6564000000000000000000000000000000000000000000 PUSH1 0x20 DUP3 ADD MSTORE POP JUMP JUMPDEST PUSH0 PUSH2 0x1D45 PUSH1 0x2B DUP4 PUSH2 0x1813 JUMP JUMPDEST SWAP2 POP PUSH2 0x1D50 DUP3 PUSH2 0x1CEB JUMP JUMPDEST PUSH1 0x40 DUP3 ADD SWAP1 POP SWAP2 SWAP1 POP JUMP JUMPDEST PUSH0 PUSH1 0x20 DUP3 ADD SWAP1 POP DUP2 DUP2 SUB PUSH0 DUP4 ADD MSTORE PUSH2 0x1D72 DUP2 PUSH2 0x1D39 JUMP JUMPDEST SWAP1 POP SWAP2 SWAP1 POP JUMP JUMPDEST PUSH32 0x5472616E736665722066726F6D20636F6E747261637420746F206D73672E7365 PUSH0 DUP3 ADD MSTORE PUSH32 0x6E646572206661696C6564000000000000000000000000000000000000000000 PUSH1 0x20 DUP3 ADD MSTORE POP JUMP JUMPDEST PUSH0 PUSH2 0x1DD3 PUSH1 0x2B DUP4 PUSH2 0x1813 JUMP JUMPDEST SWAP2 POP PUSH2 0x1DDE DUP3 PUSH2 0x1D79 JUMP JUMPDEST PUSH1 0x40 DUP3 ADD SWAP1 POP SWAP2 SWAP1 POP JUMP JUMPDEST PUSH0 PUSH1 0x20 DUP3 ADD SWAP1 POP DUP2 DUP2 SUB PUSH0 DUP4 ADD MSTORE PUSH2 0x1E00 DUP2 PUSH2 0x1DC7 JUMP JUMPDEST SWAP1 POP SWAP2 SWAP1 POP JUMP JUMPDEST PUSH32 0x4E6F20686173207265616C697A61646F206E6967756E20737761700000000000 PUSH0 DUP3 ADD MSTORE POP JUMP JUMPDEST PUSH0 PUSH2 0x1E3B PUSH1 0x1B DUP4 PUSH2 0x1813 JUMP JUMPDEST SWAP2 POP PUSH2 0x1E46 DUP3 PUSH2 0x1E07 JUMP JUMPDEST PUSH1 0x20 DUP3 ADD SWAP1 POP SWAP2 SWAP1 POP JUMP JUMPDEST PUSH0 PUSH1 0x20 DUP3 ADD SWAP1 POP DUP2 DUP2 SUB PUSH0 DUP4 ADD MSTORE PUSH2 0x1E68 DUP2 PUSH2 0x1E2F JUMP JUMPDEST SWAP1 POP SWAP2 SWAP1 POP JUMP JUMPDEST PUSH32 0x426F746820746F6B656E2062616C616E636573206D7573742062652067726561 PUSH0 DUP3 ADD MSTORE PUSH32 0x746572207468616E203000000000000000000000000000000000000000000000 PUSH1 0x20 DUP3 ADD MSTORE POP JUMP JUMPDEST PUSH0 PUSH2 0x1EC9 PUSH1 0x2A DUP4 PUSH2 0x1813 JUMP JUMPDEST SWAP2 POP PUSH2 0x1ED4 DUP3 PUSH2 0x1E6F JUMP JUMPDEST PUSH1 0x40 DUP3 ADD SWAP1 POP SWAP2 SWAP1 POP JUMP JUMPDEST PUSH0 PUSH1 0x20 DUP3 ADD SWAP1 POP DUP2 DUP2 SUB PUSH0 DUP4 ADD MSTORE PUSH2 0x1EF6 DUP2 PUSH2 0x1EBD JUMP JUMPDEST SWAP1 POP SWAP2 SWAP1 POP JUMP JUMPDEST PUSH32 0x546F6B656E2062616C616E636573206D75737420626520657175616C00000000 PUSH0 DUP3 ADD MSTORE POP JUMP JUMPDEST PUSH0 PUSH2 0x1F31 PUSH1 0x1C DUP4 PUSH2 0x1813 JUMP JUMPDEST SWAP2 POP PUSH2 0x1F3C DUP3 PUSH2 0x1EFD JUMP JUMPDEST PUSH1 0x20 DUP3 ADD SWAP1 POP SWAP2 SWAP1 POP JUMP JUMPDEST PUSH0 PUSH1 0x20 DUP3 ADD SWAP1 POP DUP2 DUP2 SUB PUSH0 DUP4 ADD MSTORE PUSH2 0x1F5E DUP2 PUSH2 0x1F25 JUMP JUMPDEST SWAP1 POP SWAP2 SWAP1 POP JUMP JUMPDEST PUSH32 0x4E487B7100000000000000000000000000000000000000000000000000000000 PUSH0 MSTORE PUSH1 0x22 PUSH1 0x4 MSTORE PUSH1 0x24 PUSH0 REVERT JUMPDEST PUSH0 PUSH1 0x2 DUP3 DIV SWAP1 POP PUSH1 0x1 DUP3 AND DUP1 PUSH2 0x1FA9 JUMPI PUSH1 0x7F DUP3 AND SWAP2 POP JUMPDEST PUSH1 0x20 DUP3 LT DUP2 SUB PUSH2 0x1FBC JUMPI PUSH2 0x1FBB PUSH2 0x1F65 JUMP JUMPDEST JUMPDEST POP SWAP2 SWAP1 POP JUMP INVALID LOG2 PUSH5 0x6970667358 0x22 SLT KECCAK256 SLT 0xB5 0x1F PUSH30 0x8E52FCF3F05B08E3B65FE795D42D9C4BFCF1FBCF7DAEBA8065A76A636473 PUSH16 0x6C634300081500330000000000000000 "
				},
				"gasEstimates": {
					"creation": {
						"codeDepositCost": "1636800",
						"executionCost": "infinite",
						"totalCost": "infinite"
					},
					"external": {
						"allowanceA()": "infinite",
						"allowanceB()": "infinite",
						"balanceA(address)": "infinite",
						"balanceB(address)": "infinite",
						"burnA(uint256)": "infinite",
						"burningA(uint256)": "infinite",
						"burningB(uint256)": "infinite",
						"getFlag()": "infinite",
						"mintA(uint256)": "infinite",
						"mintB(uint256)": "infinite",
						"proportion()": "2492",
						"swap()": "2511",
						"swapAforB(uint256)": "infinite",
						"swapBforA(uint256)": "infinite",
						"tokenA()": "infinite",
						"tokenB()": "infinite",
						"transferPatrick(address,uint256)": "infinite"
					}
				},
				"methodIdentifiers": {
					"allowanceA()": "54b1f84f",
					"allowanceB()": "a5d0fa9d",
					"balanceA(address)": "1cad2cac",
					"balanceB(address)": "20297e97",
					"burnA(uint256)": "ab4d4c8a",
					"burningA(uint256)": "bab38c1c",
					"burningB(uint256)": "fe42c087",
					"getFlag()": "f9633930",
					"mintA(uint256)": "27692360",
					"mintB(uint256)": "875aa254",
					"proportion()": "5b4246d4",
					"swap()": "8119c065",
					"swapAforB(uint256)": "e4f1f70a",
					"swapBforA(uint256)": "8014a7aa",
					"tokenA()": "0fc63d10",
					"tokenB()": "5f64b55b",
					"transferPatrick(address,uint256)": "2df8aaba"
				}
			},
			"storageLayout": {
				"storage": [
					{
						"astId": 221,
						"contract": "levelup/newDex.sol:DEX_CTF",
						"label": "tokenA",
						"offset": 0,
						"slot": "0",
						"type": "t_contract(Itoken)218"
					},
					{
						"astId": 224,
						"contract": "levelup/newDex.sol:DEX_CTF",
						"label": "tokenB",
						"offset": 0,
						"slot": "1",
						"type": "t_contract(Itoken)218"
					},
					{
						"astId": 226,
						"contract": "levelup/newDex.sol:DEX_CTF",
						"label": "flag",
						"offset": 0,
						"slot": "2",
						"type": "t_string_storage"
					},
					{
						"astId": 228,
						"contract": "levelup/newDex.sol:DEX_CTF",
						"label": "proportion",
						"offset": 0,
						"slot": "3",
						"type": "t_uint256"
					},
					{
						"astId": 230,
						"contract": "levelup/newDex.sol:DEX_CTF",
						"label": "swap",
						"offset": 0,
						"slot": "4",
						"type": "t_bool"
					}
				],
				"types": {
					"t_bool": {
						"encoding": "inplace",
						"label": "bool",
						"numberOfBytes": "1"
					},
					"t_contract(Itoken)218": {
						"encoding": "inplace",
						"label": "contract Itoken",
						"numberOfBytes": "20"
					},
					"t_string_storage": {
						"encoding": "bytes",
						"label": "string",
						"numberOfBytes": "32"
					},
					"t_uint256": {
						"encoding": "inplace",
						"label": "uint256",
						"numberOfBytes": "32"
					}
				}
			},
			"userdoc": {
				"kind": "user",
				"methods": {},
				"version": 1
			}
		}
	}
}