{
	"levelup/mio.sol": {
		"Owner": {
			"abi": [
				{
					"inputs": [],
					"stateMutability": "nonpayable",
					"type": "constructor"
				},
				{
					"anonymous": false,
					"inputs": [
						{
							"indexed": true,
							"internalType": "address",
							"name": "oldOwner",
							"type": "address"
						},
						{
							"indexed": true,
							"internalType": "address",
							"name": "newOwner",
							"type": "address"
						}
					],
					"name": "OwnerSet",
					"type": "event"
				},
				{
					"inputs": [],
					"name": "adios",
					"outputs": [
						{
							"internalType": "uint256",
							"name": "",
							"type": "uint256"
						}
					],
					"stateMutability": "view",
					"type": "function"
				},
				{
					"inputs": [
						{
							"internalType": "address",
							"name": "newOwner",
							"type": "address"
						}
					],
					"name": "changeOwner",
					"outputs": [],
					"stateMutability": "nonpayable",
					"type": "function"
				},
				{
					"inputs": [],
					"name": "gass",
					"outputs": [],
					"stateMutability": "nonpayable",
					"type": "function"
				},
				{
					"inputs": [],
					"name": "getOwner",
					"outputs": [
						{
							"internalType": "address",
							"name": "",
							"type": "address"
						}
					],
					"stateMutability": "view",
					"type": "function"
				},
				{
					"inputs": [],
					"name": "hola",
					"outputs": [
						{
							"internalType": "uint256",
							"name": "",
							"type": "uint256"
						}
					],
					"stateMutability": "view",
					"type": "function"
				}
			],
			"devdoc": {
				"details": "Set & change owner",
				"kind": "dev",
				"methods": {
					"changeOwner(address)": {
						"details": "Change owner",
						"params": {
							"newOwner": "address of new owner"
						}
					},
					"constructor": {
						"details": "Set contract deployer as owner"
					},
					"getOwner()": {
						"details": "Return owner address ",
						"returns": {
							"_0": "address of owner"
						}
					}
				},
				"title": "Owner",
				"version": 1
			},
			"evm": {
				"assembly": "    /* \"levelup/mio.sol\":122:1670  contract Owner {... */\n  mstore(0x40, 0x80)\n    /* \"levelup/mio.sol\":964:1134  constructor() {... */\n  callvalue\n  dup1\n  iszero\n  tag_1\n  jumpi\n  0x00\n  dup1\n  revert\ntag_1:\n  pop\n    /* \"levelup/mio.sol\":996:1006  msg.sender */\n  caller\n    /* \"levelup/mio.sol\":988:993  owner */\n  0x02\n  0x00\n    /* \"levelup/mio.sol\":988:1006  owner = msg.sender */\n  0x0100\n  exp\n  dup2\n  sload\n  dup2\n  0xffffffffffffffffffffffffffffffffffffffff\n  mul\n  not\n  and\n  swap1\n  dup4\n  0xffffffffffffffffffffffffffffffffffffffff\n  and\n  mul\n  or\n  swap1\n  sstore\n  pop\n    /* \"levelup/mio.sol\":1121:1126  owner */\n  0x02\n  0x00\n  swap1\n  sload\n  swap1\n  0x0100\n  exp\n  swap1\n  div\n  0xffffffffffffffffffffffffffffffffffffffff\n  and\n    /* \"levelup/mio.sol\":1100:1127  OwnerSet(address(0), owner) */\n  0xffffffffffffffffffffffffffffffffffffffff\n  and\n    /* \"levelup/mio.sol\":1117:1118  0 */\n  0x00\n    /* \"levelup/mio.sol\":1100:1127  OwnerSet(address(0), owner) */\n  0xffffffffffffffffffffffffffffffffffffffff\n  and\n  0x342827c97908e5e2f71151c08502a66d44b6f758e3ac2f1de95f02eb95f0a735\n  mload(0x40)\n  mload(0x40)\n  dup1\n  swap2\n  sub\n  swap1\n  log3\n    /* \"levelup/mio.sol\":122:1670  contract Owner {... */\n  dataSize(sub_0)\n  dup1\n  dataOffset(sub_0)\n  0x00\n  codecopy\n  0x00\n  return\nstop\n\nsub_0: assembly {\n        /* \"levelup/mio.sol\":122:1670  contract Owner {... */\n      mstore(0x40, 0x80)\n      callvalue\n      dup1\n      iszero\n      tag_1\n      jumpi\n      0x00\n      dup1\n      revert\n    tag_1:\n      pop\n      jumpi(tag_2, lt(calldatasize, 0x04))\n      shr(0xe0, calldataload(0x00))\n      dup1\n      0x0b6e7701\n      eq\n      tag_3\n      jumpi\n      dup1\n      0x26873792\n      eq\n      tag_4\n      jumpi\n      dup1\n      0x893d20e8\n      eq\n      tag_5\n      jumpi\n      dup1\n      0xa6f9dae1\n      eq\n      tag_6\n      jumpi\n      dup1\n      0xcb7acdd9\n      eq\n      tag_7\n      jumpi\n    tag_2:\n      0x00\n      dup1\n      revert\n        /* \"levelup/mio.sol\":1526:1668  function gass() public {... */\n    tag_3:\n      tag_8\n      tag_9\n      jump\t// in\n    tag_8:\n      stop\n        /* \"levelup/mio.sol\":169:189  uint256 public adios */\n    tag_4:\n      tag_10\n      tag_11\n      jump\t// in\n    tag_10:\n      mload(0x40)\n      tag_12\n      swap2\n      swap1\n      tag_13\n      jump\t// in\n    tag_12:\n      mload(0x40)\n      dup1\n      swap2\n      sub\n      swap1\n      return\n        /* \"levelup/mio.sol\":1440:1521  function getOwner() external view returns (address) {... */\n    tag_5:\n      tag_14\n      tag_15\n      jump\t// in\n    tag_14:\n      mload(0x40)\n      tag_16\n      swap2\n      swap1\n      tag_17\n      jump\t// in\n    tag_16:\n      mload(0x40)\n      dup1\n      swap2\n      sub\n      swap1\n      return\n        /* \"levelup/mio.sol\":1225:1352  function changeOwner(address newOwner) public isOwner {... */\n    tag_6:\n      tag_18\n      0x04\n      dup1\n      calldatasize\n      sub\n      dup2\n      add\n      swap1\n      tag_19\n      swap2\n      swap1\n      tag_20\n      jump\t// in\n    tag_19:\n      tag_21\n      jump\t// in\n    tag_18:\n      stop\n        /* \"levelup/mio.sol\":144:163  uint256 public hola */\n    tag_7:\n      tag_22\n      tag_23\n      jump\t// in\n    tag_22:\n      mload(0x40)\n      tag_24\n      swap2\n      swap1\n      tag_13\n      jump\t// in\n    tag_24:\n      mload(0x40)\n      dup1\n      swap2\n      sub\n      swap1\n      return\n        /* \"levelup/mio.sol\":1526:1668  function gass() public {... */\n    tag_9:\n        /* \"levelup/mio.sol\":1565:1574  gasleft() */\n      gas\n        /* \"levelup/mio.sol\":1559:1564  adios */\n      0x01\n        /* \"levelup/mio.sol\":1559:1574  adios=gasleft() */\n      dup2\n      swap1\n      sstore\n      pop\n        /* \"levelup/mio.sol\":1604:1610  500000 */\n      0x07a120\n        /* \"levelup/mio.sol\":1592:1601  gasleft() */\n      gas\n        /* \"levelup/mio.sol\":1592:1610  gasleft() < 500000 */\n      lt\n        /* \"levelup/mio.sol\":1584:1636  require(gasleft() < 500000, \"no hay gas suficiente\") */\n      tag_26\n      jumpi\n      mload(0x40)\n      0x08c379a000000000000000000000000000000000000000000000000000000000\n      dup2\n      mstore\n      0x04\n      add\n      tag_27\n      swap1\n      tag_28\n      jump\t// in\n    tag_27:\n      mload(0x40)\n      dup1\n      swap2\n      sub\n      swap1\n      revert\n    tag_26:\n        /* \"levelup/mio.sol\":1651:1660  gasleft() */\n      gas\n        /* \"levelup/mio.sol\":1646:1650  hola */\n      0x00\n        /* \"levelup/mio.sol\":1646:1660  hola=gasleft() */\n      dup2\n      swap1\n      sstore\n      pop\n        /* \"levelup/mio.sol\":1526:1668  function gass() public {... */\n      jump\t// out\n        /* \"levelup/mio.sol\":169:189  uint256 public adios */\n    tag_11:\n      sload(0x01)\n      dup2\n      jump\t// out\n        /* \"levelup/mio.sol\":1440:1521  function getOwner() external view returns (address) {... */\n    tag_15:\n        /* \"levelup/mio.sol\":1483:1490  address */\n      0x00\n        /* \"levelup/mio.sol\":1509:1514  owner */\n      0x02\n      0x00\n      swap1\n      sload\n      swap1\n      0x0100\n      exp\n      swap1\n      div\n      0xffffffffffffffffffffffffffffffffffffffff\n      and\n        /* \"levelup/mio.sol\":1502:1514  return owner */\n      swap1\n      pop\n        /* \"levelup/mio.sol\":1440:1521  function getOwner() external view returns (address) {... */\n      swap1\n      jump\t// out\n        /* \"levelup/mio.sol\":1225:1352  function changeOwner(address newOwner) public isOwner {... */\n    tag_21:\n        /* \"levelup/mio.sol\":852:857  owner */\n      0x02\n      0x00\n      swap1\n      sload\n      swap1\n      0x0100\n      exp\n      swap1\n      div\n      0xffffffffffffffffffffffffffffffffffffffff\n      and\n        /* \"levelup/mio.sol\":838:857  msg.sender == owner */\n      0xffffffffffffffffffffffffffffffffffffffff\n      and\n        /* \"levelup/mio.sol\":838:848  msg.sender */\n      caller\n        /* \"levelup/mio.sol\":838:857  msg.sender == owner */\n      0xffffffffffffffffffffffffffffffffffffffff\n      and\n      eq\n        /* \"levelup/mio.sol\":830:881  require(msg.sender == owner, \"Caller is not owner\") */\n      tag_31\n      jumpi\n      mload(0x40)\n      0x08c379a000000000000000000000000000000000000000000000000000000000\n      dup2\n      mstore\n      0x04\n      add\n      tag_32\n      swap1\n      tag_33\n      jump\t// in\n    tag_32:\n      mload(0x40)\n      dup1\n      swap2\n      sub\n      swap1\n      revert\n    tag_31:\n        /* \"levelup/mio.sol\":1310:1318  newOwner */\n      dup1\n        /* \"levelup/mio.sol\":1294:1319  OwnerSet(owner, newOwner) */\n      0xffffffffffffffffffffffffffffffffffffffff\n      and\n        /* \"levelup/mio.sol\":1303:1308  owner */\n      0x02\n      0x00\n      swap1\n      sload\n      swap1\n      0x0100\n      exp\n      swap1\n      div\n      0xffffffffffffffffffffffffffffffffffffffff\n      and\n        /* \"levelup/mio.sol\":1294:1319  OwnerSet(owner, newOwner) */\n      0xffffffffffffffffffffffffffffffffffffffff\n      and\n      0x342827c97908e5e2f71151c08502a66d44b6f758e3ac2f1de95f02eb95f0a735\n      mload(0x40)\n      mload(0x40)\n      dup1\n      swap2\n      sub\n      swap1\n      log3\n        /* \"levelup/mio.sol\":1337:1345  newOwner */\n      dup1\n        /* \"levelup/mio.sol\":1329:1334  owner */\n      0x02\n      0x00\n        /* \"levelup/mio.sol\":1329:1345  owner = newOwner */\n      0x0100\n      exp\n      dup2\n      sload\n      dup2\n      0xffffffffffffffffffffffffffffffffffffffff\n      mul\n      not\n      and\n      swap1\n      dup4\n      0xffffffffffffffffffffffffffffffffffffffff\n      and\n      mul\n      or\n      swap1\n      sstore\n      pop\n        /* \"levelup/mio.sol\":1225:1352  function changeOwner(address newOwner) public isOwner {... */\n      pop\n      jump\t// out\n        /* \"levelup/mio.sol\":144:163  uint256 public hola */\n    tag_23:\n      sload(0x00)\n      dup2\n      jump\t// out\n        /* \"#utility.yul\":7:146   */\n    tag_36:\n        /* \"#utility.yul\":53:58   */\n      0x00\n        /* \"#utility.yul\":91:97   */\n      dup2\n        /* \"#utility.yul\":78:98   */\n      calldataload\n        /* \"#utility.yul\":69:98   */\n      swap1\n      pop\n        /* \"#utility.yul\":107:140   */\n      tag_38\n        /* \"#utility.yul\":134:139   */\n      dup2\n        /* \"#utility.yul\":107:140   */\n      tag_39\n      jump\t// in\n    tag_38:\n        /* \"#utility.yul\":59:146   */\n      swap3\n      swap2\n      pop\n      pop\n      jump\t// out\n        /* \"#utility.yul\":152:414   */\n    tag_20:\n        /* \"#utility.yul\":211:217   */\n      0x00\n        /* \"#utility.yul\":260:262   */\n      0x20\n        /* \"#utility.yul\":248:257   */\n      dup3\n        /* \"#utility.yul\":239:246   */\n      dup5\n        /* \"#utility.yul\":235:258   */\n      sub\n        /* \"#utility.yul\":231:263   */\n      slt\n        /* \"#utility.yul\":228:230   */\n      iszero\n      tag_41\n      jumpi\n        /* \"#utility.yul\":276:277   */\n      0x00\n        /* \"#utility.yul\":273:274   */\n      dup1\n        /* \"#utility.yul\":266:278   */\n      revert\n        /* \"#utility.yul\":228:230   */\n    tag_41:\n        /* \"#utility.yul\":319:320   */\n      0x00\n        /* \"#utility.yul\":344:397   */\n      tag_42\n        /* \"#utility.yul\":389:396   */\n      dup5\n        /* \"#utility.yul\":380:386   */\n      dup3\n        /* \"#utility.yul\":369:378   */\n      dup6\n        /* \"#utility.yul\":365:387   */\n      add\n        /* \"#utility.yul\":344:397   */\n      tag_36\n      jump\t// in\n    tag_42:\n        /* \"#utility.yul\":334:397   */\n      swap2\n      pop\n        /* \"#utility.yul\":290:407   */\n      pop\n        /* \"#utility.yul\":218:414   */\n      swap3\n      swap2\n      pop\n      pop\n      jump\t// out\n        /* \"#utility.yul\":420:538   */\n    tag_43:\n        /* \"#utility.yul\":507:531   */\n      tag_45\n        /* \"#utility.yul\":525:530   */\n      dup2\n        /* \"#utility.yul\":507:531   */\n      tag_46\n      jump\t// in\n    tag_45:\n        /* \"#utility.yul\":502:505   */\n      dup3\n        /* \"#utility.yul\":495:532   */\n      mstore\n        /* \"#utility.yul\":485:538   */\n      pop\n      pop\n      jump\t// out\n        /* \"#utility.yul\":544:910   */\n    tag_47:\n        /* \"#utility.yul\":686:689   */\n      0x00\n        /* \"#utility.yul\":707:774   */\n      tag_49\n        /* \"#utility.yul\":771:773   */\n      0x15\n        /* \"#utility.yul\":766:769   */\n      dup4\n        /* \"#utility.yul\":707:774   */\n      tag_50\n      jump\t// in\n    tag_49:\n        /* \"#utility.yul\":700:774   */\n      swap2\n      pop\n        /* \"#utility.yul\":783:876   */\n      tag_51\n        /* \"#utility.yul\":872:875   */\n      dup3\n        /* \"#utility.yul\":783:876   */\n      tag_52\n      jump\t// in\n    tag_51:\n        /* \"#utility.yul\":901:903   */\n      0x20\n        /* \"#utility.yul\":896:899   */\n      dup3\n        /* \"#utility.yul\":892:904   */\n      add\n        /* \"#utility.yul\":885:904   */\n      swap1\n      pop\n        /* \"#utility.yul\":690:910   */\n      swap2\n      swap1\n      pop\n      jump\t// out\n        /* \"#utility.yul\":916:1282   */\n    tag_53:\n        /* \"#utility.yul\":1058:1061   */\n      0x00\n        /* \"#utility.yul\":1079:1146   */\n      tag_55\n        /* \"#utility.yul\":1143:1145   */\n      0x13\n        /* \"#utility.yul\":1138:1141   */\n      dup4\n        /* \"#utility.yul\":1079:1146   */\n      tag_50\n      jump\t// in\n    tag_55:\n        /* \"#utility.yul\":1072:1146   */\n      swap2\n      pop\n        /* \"#utility.yul\":1155:1248   */\n      tag_56\n        /* \"#utility.yul\":1244:1247   */\n      dup3\n        /* \"#utility.yul\":1155:1248   */\n      tag_57\n      jump\t// in\n    tag_56:\n        /* \"#utility.yul\":1273:1275   */\n      0x20\n        /* \"#utility.yul\":1268:1271   */\n      dup3\n        /* \"#utility.yul\":1264:1276   */\n      add\n        /* \"#utility.yul\":1257:1276   */\n      swap1\n      pop\n        /* \"#utility.yul\":1062:1282   */\n      swap2\n      swap1\n      pop\n      jump\t// out\n        /* \"#utility.yul\":1288:1406   */\n    tag_58:\n        /* \"#utility.yul\":1375:1399   */\n      tag_60\n        /* \"#utility.yul\":1393:1398   */\n      dup2\n        /* \"#utility.yul\":1375:1399   */\n      tag_61\n      jump\t// in\n    tag_60:\n        /* \"#utility.yul\":1370:1373   */\n      dup3\n        /* \"#utility.yul\":1363:1400   */\n      mstore\n        /* \"#utility.yul\":1353:1406   */\n      pop\n      pop\n      jump\t// out\n        /* \"#utility.yul\":1412:1634   */\n    tag_17:\n        /* \"#utility.yul\":1505:1509   */\n      0x00\n        /* \"#utility.yul\":1543:1545   */\n      0x20\n        /* \"#utility.yul\":1532:1541   */\n      dup3\n        /* \"#utility.yul\":1528:1546   */\n      add\n        /* \"#utility.yul\":1520:1546   */\n      swap1\n      pop\n        /* \"#utility.yul\":1556:1627   */\n      tag_63\n        /* \"#utility.yul\":1624:1625   */\n      0x00\n        /* \"#utility.yul\":1613:1622   */\n      dup4\n        /* \"#utility.yul\":1609:1626   */\n      add\n        /* \"#utility.yul\":1600:1606   */\n      dup5\n        /* \"#utility.yul\":1556:1627   */\n      tag_43\n      jump\t// in\n    tag_63:\n        /* \"#utility.yul\":1510:1634   */\n      swap3\n      swap2\n      pop\n      pop\n      jump\t// out\n        /* \"#utility.yul\":1640:2059   */\n    tag_28:\n        /* \"#utility.yul\":1806:1810   */\n      0x00\n        /* \"#utility.yul\":1844:1846   */\n      0x20\n        /* \"#utility.yul\":1833:1842   */\n      dup3\n        /* \"#utility.yul\":1829:1847   */\n      add\n        /* \"#utility.yul\":1821:1847   */\n      swap1\n      pop\n        /* \"#utility.yul\":1893:1902   */\n      dup2\n        /* \"#utility.yul\":1887:1891   */\n      dup2\n        /* \"#utility.yul\":1883:1903   */\n      sub\n        /* \"#utility.yul\":1879:1880   */\n      0x00\n        /* \"#utility.yul\":1868:1877   */\n      dup4\n        /* \"#utility.yul\":1864:1881   */\n      add\n        /* \"#utility.yul\":1857:1904   */\n      mstore\n        /* \"#utility.yul\":1921:2052   */\n      tag_65\n        /* \"#utility.yul\":2047:2051   */\n      dup2\n        /* \"#utility.yul\":1921:2052   */\n      tag_47\n      jump\t// in\n    tag_65:\n        /* \"#utility.yul\":1913:2052   */\n      swap1\n      pop\n        /* \"#utility.yul\":1811:2059   */\n      swap2\n      swap1\n      pop\n      jump\t// out\n        /* \"#utility.yul\":2065:2484   */\n    tag_33:\n        /* \"#utility.yul\":2231:2235   */\n      0x00\n        /* \"#utility.yul\":2269:2271   */\n      0x20\n        /* \"#utility.yul\":2258:2267   */\n      dup3\n        /* \"#utility.yul\":2254:2272   */\n      add\n        /* \"#utility.yul\":2246:2272   */\n      swap1\n      pop\n        /* \"#utility.yul\":2318:2327   */\n      dup2\n        /* \"#utility.yul\":2312:2316   */\n      dup2\n        /* \"#utility.yul\":2308:2328   */\n      sub\n        /* \"#utility.yul\":2304:2305   */\n      0x00\n        /* \"#utility.yul\":2293:2302   */\n      dup4\n        /* \"#utility.yul\":2289:2306   */\n      add\n        /* \"#utility.yul\":2282:2329   */\n      mstore\n        /* \"#utility.yul\":2346:2477   */\n      tag_67\n        /* \"#utility.yul\":2472:2476   */\n      dup2\n        /* \"#utility.yul\":2346:2477   */\n      tag_53\n      jump\t// in\n    tag_67:\n        /* \"#utility.yul\":2338:2477   */\n      swap1\n      pop\n        /* \"#utility.yul\":2236:2484   */\n      swap2\n      swap1\n      pop\n      jump\t// out\n        /* \"#utility.yul\":2490:2712   */\n    tag_13:\n        /* \"#utility.yul\":2583:2587   */\n      0x00\n        /* \"#utility.yul\":2621:2623   */\n      0x20\n        /* \"#utility.yul\":2610:2619   */\n      dup3\n        /* \"#utility.yul\":2606:2624   */\n      add\n        /* \"#utility.yul\":2598:2624   */\n      swap1\n      pop\n        /* \"#utility.yul\":2634:2705   */\n      tag_69\n        /* \"#utility.yul\":2702:2703   */\n      0x00\n        /* \"#utility.yul\":2691:2700   */\n      dup4\n        /* \"#utility.yul\":2687:2704   */\n      add\n        /* \"#utility.yul\":2678:2684   */\n      dup5\n        /* \"#utility.yul\":2634:2705   */\n      tag_58\n      jump\t// in\n    tag_69:\n        /* \"#utility.yul\":2588:2712   */\n      swap3\n      swap2\n      pop\n      pop\n      jump\t// out\n        /* \"#utility.yul\":2718:2887   */\n    tag_50:\n        /* \"#utility.yul\":2802:2813   */\n      0x00\n        /* \"#utility.yul\":2836:2842   */\n      dup3\n        /* \"#utility.yul\":2831:2834   */\n      dup3\n        /* \"#utility.yul\":2824:2843   */\n      mstore\n        /* \"#utility.yul\":2876:2880   */\n      0x20\n        /* \"#utility.yul\":2871:2874   */\n      dup3\n        /* \"#utility.yul\":2867:2881   */\n      add\n        /* \"#utility.yul\":2852:2881   */\n      swap1\n      pop\n        /* \"#utility.yul\":2814:2887   */\n      swap3\n      swap2\n      pop\n      pop\n      jump\t// out\n        /* \"#utility.yul\":2893:2989   */\n    tag_46:\n        /* \"#utility.yul\":2930:2937   */\n      0x00\n        /* \"#utility.yul\":2959:2983   */\n      tag_72\n        /* \"#utility.yul\":2977:2982   */\n      dup3\n        /* \"#utility.yul\":2959:2983   */\n      tag_73\n      jump\t// in\n    tag_72:\n        /* \"#utility.yul\":2948:2983   */\n      swap1\n      pop\n        /* \"#utility.yul\":2938:2989   */\n      swap2\n      swap1\n      pop\n      jump\t// out\n        /* \"#utility.yul\":2995:3121   */\n    tag_73:\n        /* \"#utility.yul\":3032:3039   */\n      0x00\n        /* \"#utility.yul\":3072:3114   */\n      0xffffffffffffffffffffffffffffffffffffffff\n        /* \"#utility.yul\":3065:3070   */\n      dup3\n        /* \"#utility.yul\":3061:3115   */\n      and\n        /* \"#utility.yul\":3050:3115   */\n      swap1\n      pop\n        /* \"#utility.yul\":3040:3121   */\n      swap2\n      swap1\n      pop\n      jump\t// out\n        /* \"#utility.yul\":3127:3204   */\n    tag_61:\n        /* \"#utility.yul\":3164:3171   */\n      0x00\n        /* \"#utility.yul\":3193:3198   */\n      dup2\n        /* \"#utility.yul\":3182:3198   */\n      swap1\n      pop\n        /* \"#utility.yul\":3172:3204   */\n      swap2\n      swap1\n      pop\n      jump\t// out\n        /* \"#utility.yul\":3210:3381   */\n    tag_52:\n        /* \"#utility.yul\":3350:3373   */\n      0x6e6f206861792067617320737566696369656e74650000000000000000000000\n        /* \"#utility.yul\":3346:3347   */\n      0x00\n        /* \"#utility.yul\":3338:3344   */\n      dup3\n        /* \"#utility.yul\":3334:3348   */\n      add\n        /* \"#utility.yul\":3327:3374   */\n      mstore\n        /* \"#utility.yul\":3316:3381   */\n      pop\n      jump\t// out\n        /* \"#utility.yul\":3387:3556   */\n    tag_57:\n        /* \"#utility.yul\":3527:3548   */\n      0x43616c6c6572206973206e6f74206f776e657200000000000000000000000000\n        /* \"#utility.yul\":3523:3524   */\n      0x00\n        /* \"#utility.yul\":3515:3521   */\n      dup3\n        /* \"#utility.yul\":3511:3525   */\n      add\n        /* \"#utility.yul\":3504:3549   */\n      mstore\n        /* \"#utility.yul\":3493:3556   */\n      pop\n      jump\t// out\n        /* \"#utility.yul\":3562:3684   */\n    tag_39:\n        /* \"#utility.yul\":3635:3659   */\n      tag_79\n        /* \"#utility.yul\":3653:3658   */\n      dup2\n        /* \"#utility.yul\":3635:3659   */\n      tag_46\n      jump\t// in\n    tag_79:\n        /* \"#utility.yul\":3628:3633   */\n      dup2\n        /* \"#utility.yul\":3625:3660   */\n      eq\n        /* \"#utility.yul\":3615:3617   */\n      tag_80\n      jumpi\n        /* \"#utility.yul\":3674:3675   */\n      0x00\n        /* \"#utility.yul\":3671:3672   */\n      dup1\n        /* \"#utility.yul\":3664:3676   */\n      revert\n        /* \"#utility.yul\":3615:3617   */\n    tag_80:\n        /* \"#utility.yul\":3605:3684   */\n      pop\n      jump\t// out\n\n    auxdata: 0xa2646970667358221220c0ea1630527352b574db606d96770b858045e9969c7970447531df22226f897264736f6c63430008040033\n}\n",
				"bytecode": {
					"linkReferences": {},
					"object": "608060405234801561001057600080fd5b5033600260006101000a81548173ffffffffffffffffffffffffffffffffffffffff021916908373ffffffffffffffffffffffffffffffffffffffff160217905550600260009054906101000a900473ffffffffffffffffffffffffffffffffffffffff1673ffffffffffffffffffffffffffffffffffffffff16600073ffffffffffffffffffffffffffffffffffffffff167f342827c97908e5e2f71151c08502a66d44b6f758e3ac2f1de95f02eb95f0a73560405160405180910390a36104bb806100de6000396000f3fe608060405234801561001057600080fd5b50600436106100575760003560e01c80630b6e77011461005c5780632687379214610066578063893d20e814610084578063a6f9dae1146100a2578063cb7acdd9146100be575b600080fd5b6100646100dc565b005b61006e610131565b60405161007b91906103b4565b60405180910390f35b61008c610137565b6040516100999190610359565b60405180910390f35b6100bc60048036038101906100b791906102cc565b610161565b005b6100c66102b1565b6040516100d391906103b4565b60405180910390f35b5a6001819055506207a1205a10610128576040517f08c379a000000000000000000000000000000000000000000000000000000000815260040161011f90610374565b60405180910390fd5b5a600081905550565b60015481565b6000600260009054906101000a900473ffffffffffffffffffffffffffffffffffffffff16905090565b600260009054906101000a900473ffffffffffffffffffffffffffffffffffffffff1673ffffffffffffffffffffffffffffffffffffffff163373ffffffffffffffffffffffffffffffffffffffff16146101f1576040517f08c379a00000000000000000000000000000000000000000000000000000000081526004016101e890610394565b60405180910390fd5b8073ffffffffffffffffffffffffffffffffffffffff16600260009054906101000a900473ffffffffffffffffffffffffffffffffffffffff1673ffffffffffffffffffffffffffffffffffffffff167f342827c97908e5e2f71151c08502a66d44b6f758e3ac2f1de95f02eb95f0a73560405160405180910390a380600260006101000a81548173ffffffffffffffffffffffffffffffffffffffff021916908373ffffffffffffffffffffffffffffffffffffffff16021790555050565b60005481565b6000813590506102c68161046e565b92915050565b6000602082840312156102de57600080fd5b60006102ec848285016102b7565b91505092915050565b6102fe816103e0565b82525050565b60006103116015836103cf565b915061031c8261041c565b602082019050919050565b60006103346013836103cf565b915061033f82610445565b602082019050919050565b61035381610412565b82525050565b600060208201905061036e60008301846102f5565b92915050565b6000602082019050818103600083015261038d81610304565b9050919050565b600060208201905081810360008301526103ad81610327565b9050919050565b60006020820190506103c9600083018461034a565b92915050565b600082825260208201905092915050565b60006103eb826103f2565b9050919050565b600073ffffffffffffffffffffffffffffffffffffffff82169050919050565b6000819050919050565b7f6e6f206861792067617320737566696369656e74650000000000000000000000600082015250565b7f43616c6c6572206973206e6f74206f776e657200000000000000000000000000600082015250565b610477816103e0565b811461048257600080fd5b5056fea2646970667358221220c0ea1630527352b574db606d96770b858045e9969c7970447531df22226f897264736f6c63430008040033",
					"opcodes": "PUSH1 0x80 PUSH1 0x40 MSTORE CALLVALUE DUP1 ISZERO PUSH2 0x10 JUMPI PUSH1 0x0 DUP1 REVERT JUMPDEST POP CALLER PUSH1 0x2 PUSH1 0x0 PUSH2 0x100 EXP DUP2 SLOAD DUP2 PUSH20 0xFFFFFFFFFFFFFFFFFFFFFFFFFFFFFFFFFFFFFFFF MUL NOT AND SWAP1 DUP4 PUSH20 0xFFFFFFFFFFFFFFFFFFFFFFFFFFFFFFFFFFFFFFFF AND MUL OR SWAP1 SSTORE POP PUSH1 0x2 PUSH1 0x0 SWAP1 SLOAD SWAP1 PUSH2 0x100 EXP SWAP1 DIV PUSH20 0xFFFFFFFFFFFFFFFFFFFFFFFFFFFFFFFFFFFFFFFF AND PUSH20 0xFFFFFFFFFFFFFFFFFFFFFFFFFFFFFFFFFFFFFFFF AND PUSH1 0x0 PUSH20 0xFFFFFFFFFFFFFFFFFFFFFFFFFFFFFFFFFFFFFFFF AND PUSH32 0x342827C97908E5E2F71151C08502A66D44B6F758E3AC2F1DE95F02EB95F0A735 PUSH1 0x40 MLOAD PUSH1 0x40 MLOAD DUP1 SWAP2 SUB SWAP1 LOG3 PUSH2 0x4BB DUP1 PUSH2 0xDE PUSH1 0x0 CODECOPY PUSH1 0x0 RETURN INVALID PUSH1 0x80 PUSH1 0x40 MSTORE CALLVALUE DUP1 ISZERO PUSH2 0x10 JUMPI PUSH1 0x0 DUP1 REVERT JUMPDEST POP PUSH1 0x4 CALLDATASIZE LT PUSH2 0x57 JUMPI PUSH1 0x0 CALLDATALOAD PUSH1 0xE0 SHR DUP1 PUSH4 0xB6E7701 EQ PUSH2 0x5C JUMPI DUP1 PUSH4 0x26873792 EQ PUSH2 0x66 JUMPI DUP1 PUSH4 0x893D20E8 EQ PUSH2 0x84 JUMPI DUP1 PUSH4 0xA6F9DAE1 EQ PUSH2 0xA2 JUMPI DUP1 PUSH4 0xCB7ACDD9 EQ PUSH2 0xBE JUMPI JUMPDEST PUSH1 0x0 DUP1 REVERT JUMPDEST PUSH2 0x64 PUSH2 0xDC JUMP JUMPDEST STOP JUMPDEST PUSH2 0x6E PUSH2 0x131 JUMP JUMPDEST PUSH1 0x40 MLOAD PUSH2 0x7B SWAP2 SWAP1 PUSH2 0x3B4 JUMP JUMPDEST PUSH1 0x40 MLOAD DUP1 SWAP2 SUB SWAP1 RETURN JUMPDEST PUSH2 0x8C PUSH2 0x137 JUMP JUMPDEST PUSH1 0x40 MLOAD PUSH2 0x99 SWAP2 SWAP1 PUSH2 0x359 JUMP JUMPDEST PUSH1 0x40 MLOAD DUP1 SWAP2 SUB SWAP1 RETURN JUMPDEST PUSH2 0xBC PUSH1 0x4 DUP1 CALLDATASIZE SUB DUP2 ADD SWAP1 PUSH2 0xB7 SWAP2 SWAP1 PUSH2 0x2CC JUMP JUMPDEST PUSH2 0x161 JUMP JUMPDEST STOP JUMPDEST PUSH2 0xC6 PUSH2 0x2B1 JUMP JUMPDEST PUSH1 0x40 MLOAD PUSH2 0xD3 SWAP2 SWAP1 PUSH2 0x3B4 JUMP JUMPDEST PUSH1 0x40 MLOAD DUP1 SWAP2 SUB SWAP1 RETURN JUMPDEST GAS PUSH1 0x1 DUP2 SWAP1 SSTORE POP PUSH3 0x7A120 GAS LT PUSH2 0x128 JUMPI PUSH1 0x40 MLOAD PUSH32 0x8C379A000000000000000000000000000000000000000000000000000000000 DUP2 MSTORE PUSH1 0x4 ADD PUSH2 0x11F SWAP1 PUSH2 0x374 JUMP JUMPDEST PUSH1 0x40 MLOAD DUP1 SWAP2 SUB SWAP1 REVERT JUMPDEST GAS PUSH1 0x0 DUP2 SWAP1 SSTORE POP JUMP JUMPDEST PUSH1 0x1 SLOAD DUP2 JUMP JUMPDEST PUSH1 0x0 PUSH1 0x2 PUSH1 0x0 SWAP1 SLOAD SWAP1 PUSH2 0x100 EXP SWAP1 DIV PUSH20 0xFFFFFFFFFFFFFFFFFFFFFFFFFFFFFFFFFFFFFFFF AND SWAP1 POP SWAP1 JUMP JUMPDEST PUSH1 0x2 PUSH1 0x0 SWAP1 SLOAD SWAP1 PUSH2 0x100 EXP SWAP1 DIV PUSH20 0xFFFFFFFFFFFFFFFFFFFFFFFFFFFFFFFFFFFFFFFF AND PUSH20 0xFFFFFFFFFFFFFFFFFFFFFFFFFFFFFFFFFFFFFFFF AND CALLER PUSH20 0xFFFFFFFFFFFFFFFFFFFFFFFFFFFFFFFFFFFFFFFF AND EQ PUSH2 0x1F1 JUMPI PUSH1 0x40 MLOAD PUSH32 0x8C379A000000000000000000000000000000000000000000000000000000000 DUP2 MSTORE PUSH1 0x4 ADD PUSH2 0x1E8 SWAP1 PUSH2 0x394 JUMP JUMPDEST PUSH1 0x40 MLOAD DUP1 SWAP2 SUB SWAP1 REVERT JUMPDEST DUP1 PUSH20 0xFFFFFFFFFFFFFFFFFFFFFFFFFFFFFFFFFFFFFFFF AND PUSH1 0x2 PUSH1 0x0 SWAP1 SLOAD SWAP1 PUSH2 0x100 EXP SWAP1 DIV PUSH20 0xFFFFFFFFFFFFFFFFFFFFFFFFFFFFFFFFFFFFFFFF AND PUSH20 0xFFFFFFFFFFFFFFFFFFFFFFFFFFFFFFFFFFFFFFFF AND PUSH32 0x342827C97908E5E2F71151C08502A66D44B6F758E3AC2F1DE95F02EB95F0A735 PUSH1 0x40 MLOAD PUSH1 0x40 MLOAD DUP1 SWAP2 SUB SWAP1 LOG3 DUP1 PUSH1 0x2 PUSH1 0x0 PUSH2 0x100 EXP DUP2 SLOAD DUP2 PUSH20 0xFFFFFFFFFFFFFFFFFFFFFFFFFFFFFFFFFFFFFFFF MUL NOT AND SWAP1 DUP4 PUSH20 0xFFFFFFFFFFFFFFFFFFFFFFFFFFFFFFFFFFFFFFFF AND MUL OR SWAP1 SSTORE POP POP JUMP JUMPDEST PUSH1 0x0 SLOAD DUP2 JUMP JUMPDEST PUSH1 0x0 DUP2 CALLDATALOAD SWAP1 POP PUSH2 0x2C6 DUP2 PUSH2 0x46E JUMP JUMPDEST SWAP3 SWAP2 POP POP JUMP JUMPDEST PUSH1 0x0 PUSH1 0x20 DUP3 DUP5 SUB SLT ISZERO PUSH2 0x2DE JUMPI PUSH1 0x0 DUP1 REVERT JUMPDEST PUSH1 0x0 PUSH2 0x2EC DUP5 DUP3 DUP6 ADD PUSH2 0x2B7 JUMP JUMPDEST SWAP2 POP POP SWAP3 SWAP2 POP POP JUMP JUMPDEST PUSH2 0x2FE DUP2 PUSH2 0x3E0 JUMP JUMPDEST DUP3 MSTORE POP POP JUMP JUMPDEST PUSH1 0x0 PUSH2 0x311 PUSH1 0x15 DUP4 PUSH2 0x3CF JUMP JUMPDEST SWAP2 POP PUSH2 0x31C DUP3 PUSH2 0x41C JUMP JUMPDEST PUSH1 0x20 DUP3 ADD SWAP1 POP SWAP2 SWAP1 POP JUMP JUMPDEST PUSH1 0x0 PUSH2 0x334 PUSH1 0x13 DUP4 PUSH2 0x3CF JUMP JUMPDEST SWAP2 POP PUSH2 0x33F DUP3 PUSH2 0x445 JUMP JUMPDEST PUSH1 0x20 DUP3 ADD SWAP1 POP SWAP2 SWAP1 POP JUMP JUMPDEST PUSH2 0x353 DUP2 PUSH2 0x412 JUMP JUMPDEST DUP3 MSTORE POP POP JUMP JUMPDEST PUSH1 0x0 PUSH1 0x20 DUP3 ADD SWAP1 POP PUSH2 0x36E PUSH1 0x0 DUP4 ADD DUP5 PUSH2 0x2F5 JUMP JUMPDEST SWAP3 SWAP2 POP POP JUMP JUMPDEST PUSH1 0x0 PUSH1 0x20 DUP3 ADD SWAP1 POP DUP2 DUP2 SUB PUSH1 0x0 DUP4 ADD MSTORE PUSH2 0x38D DUP2 PUSH2 0x304 JUMP JUMPDEST SWAP1 POP SWAP2 SWAP1 POP JUMP JUMPDEST PUSH1 0x0 PUSH1 0x20 DUP3 ADD SWAP1 POP DUP2 DUP2 SUB PUSH1 0x0 DUP4 ADD MSTORE PUSH2 0x3AD DUP2 PUSH2 0x327 JUMP JUMPDEST SWAP1 POP SWAP2 SWAP1 POP JUMP JUMPDEST PUSH1 0x0 PUSH1 0x20 DUP3 ADD SWAP1 POP PUSH2 0x3C9 PUSH1 0x0 DUP4 ADD DUP5 PUSH2 0x34A JUMP JUMPDEST SWAP3 SWAP2 POP POP JUMP JUMPDEST PUSH1 0x0 DUP3 DUP3 MSTORE PUSH1 0x20 DUP3 ADD SWAP1 POP SWAP3 SWAP2 POP POP JUMP JUMPDEST PUSH1 0x0 PUSH2 0x3EB DUP3 PUSH2 0x3F2 JUMP JUMPDEST SWAP1 POP SWAP2 SWAP1 POP JUMP JUMPDEST PUSH1 0x0 PUSH20 0xFFFFFFFFFFFFFFFFFFFFFFFFFFFFFFFFFFFFFFFF DUP3 AND SWAP1 POP SWAP2 SWAP1 POP JUMP JUMPDEST PUSH1 0x0 DUP2 SWAP1 POP SWAP2 SWAP1 POP JUMP JUMPDEST PUSH32 0x6E6F206861792067617320737566696369656E74650000000000000000000000 PUSH1 0x0 DUP3 ADD MSTORE POP JUMP JUMPDEST PUSH32 0x43616C6C6572206973206E6F74206F776E657200000000000000000000000000 PUSH1 0x0 DUP3 ADD MSTORE POP JUMP JUMPDEST PUSH2 0x477 DUP2 PUSH2 0x3E0 JUMP JUMPDEST DUP2 EQ PUSH2 0x482 JUMPI PUSH1 0x0 DUP1 REVERT JUMPDEST POP JUMP INVALID LOG2 PUSH5 0x6970667358 0x22 SLT KECCAK256 0xC0 0xEA AND ADDRESS MSTORE PUSH20 0x52B574DB606D96770B858045E9969C7970447531 0xDF 0x22 0x22 PUSH16 0x897264736F6C63430008040033000000 "
				},
				"gasEstimates": {
					"creation": {
						"codeDepositCost": "242200",
						"executionCost": "23528",
						"totalCost": "265728"
					},
					"external": {
						"adios()": "1129",
						"changeOwner(address)": "24617",
						"gass()": "40170",
						"getOwner()": "1244",
						"hola()": "1195"
					}
				},
				"methodIdentifiers": {
					"adios()": "26873792",
					"changeOwner(address)": "a6f9dae1",
					"gass()": "0b6e7701",
					"getOwner()": "893d20e8",
					"hola()": "cb7acdd9"
				}
			},
			"storageLayout": {
				"storage": [
					{
						"astId": 4,
						"contract": "levelup/mio.sol:Owner",
						"label": "hola",
						"offset": 0,
						"slot": "0",
						"type": "t_uint256"
					},
					{
						"astId": 6,
						"contract": "levelup/mio.sol:Owner",
						"label": "adios",
						"offset": 0,
						"slot": "1",
						"type": "t_uint256"
					},
					{
						"astId": 8,
						"contract": "levelup/mio.sol:Owner",
						"label": "owner",
						"offset": 0,
						"slot": "2",
						"type": "t_address"
					}
				],
				"types": {
					"t_address": {
						"encoding": "inplace",
						"label": "address",
						"numberOfBytes": "20"
					},
					"t_uint256": {
						"encoding": "inplace",
						"label": "uint256",
						"numberOfBytes": "32"
					}
				}
			},
			"userdoc": {
				"kind": "user",
				"methods": {},
				"version": 1
			}
		}
	}
}