{
	"levelup/base.sol": {
		"Base": {
			"abi": [
				{
					"anonymous": false,
					"inputs": [
						{
							"indexed": true,
							"internalType": "address",
							"name": "previousOwner",
							"type": "address"
						},
						{
							"indexed": true,
							"internalType": "address",
							"name": "newOwner",
							"type": "address"
						}
					],
					"name": "OwnershipTransferred",
					"type": "event"
				},
				{
					"inputs": [
						{
							"internalType": "address",
							"name": "_contract",
							"type": "address"
						},
						{
							"internalType": "address",
							"name": "_player",
							"type": "address"
						},
						{
							"internalType": "uint256",
							"name": "_level",
							"type": "uint256"
						},
						{
							"internalType": "string",
							"name": "_flag",
							"type": "string"
						}
					],
					"name": "addContract",
					"outputs": [],
					"stateMutability": "nonpayable",
					"type": "function"
				},
				{
					"inputs": [],
					"name": "addPlayer",
					"outputs": [],
					"stateMutability": "nonpayable",
					"type": "function"
				},
				{
					"inputs": [
						{
							"internalType": "address",
							"name": "_contract",
							"type": "address"
						},
						{
							"internalType": "address",
							"name": "_player",
							"type": "address"
						}
					],
					"name": "checkFlag",
					"outputs": [
						{
							"internalType": "bool",
							"name": "",
							"type": "bool"
						}
					],
					"stateMutability": "view",
					"type": "function"
				},
				{
					"inputs": [
						{
							"internalType": "address",
							"name": "_contract",
							"type": "address"
						}
					],
					"name": "delContract",
					"outputs": [],
					"stateMutability": "nonpayable",
					"type": "function"
				},
				{
					"inputs": [],
					"name": "delPlayer",
					"outputs": [],
					"stateMutability": "nonpayable",
					"type": "function"
				},
				{
					"inputs": [
						{
							"internalType": "address",
							"name": "_player",
							"type": "address"
						}
					],
					"name": "existPlayer",
					"outputs": [
						{
							"internalType": "bool",
							"name": "",
							"type": "bool"
						}
					],
					"stateMutability": "view",
					"type": "function"
				},
				{
					"inputs": [
						{
							"internalType": "address",
							"name": "_player",
							"type": "address"
						},
						{
							"internalType": "address",
							"name": "_contract",
							"type": "address"
						}
					],
					"name": "getPlayerStatus",
					"outputs": [
						{
							"components": [
								{
									"internalType": "uint256",
									"name": "level",
									"type": "uint256"
								},
								{
									"internalType": "string",
									"name": "flag",
									"type": "string"
								},
								{
									"internalType": "bool",
									"name": "flagOK",
									"type": "bool"
								}
							],
							"internalType": "struct Base.levelStatus",
							"name": "",
							"type": "tuple"
						}
					],
					"stateMutability": "view",
					"type": "function"
				},
				{
					"inputs": [],
					"name": "owner",
					"outputs": [
						{
							"internalType": "address",
							"name": "",
							"type": "address"
						}
					],
					"stateMutability": "view",
					"type": "function"
				},
				{
					"inputs": [],
					"name": "renounceOwnership",
					"outputs": [],
					"stateMutability": "nonpayable",
					"type": "function"
				},
				{
					"inputs": [
						{
							"internalType": "address",
							"name": "newOwner",
							"type": "address"
						}
					],
					"name": "transferOwnership",
					"outputs": [],
					"stateMutability": "nonpayable",
					"type": "function"
				},
				{
					"inputs": [
						{
							"internalType": "address",
							"name": "_contract",
							"type": "address"
						},
						{
							"internalType": "string",
							"name": "_flag",
							"type": "string"
						}
					],
					"name": "validateFlag",
					"outputs": [],
					"stateMutability": "payable",
					"type": "function"
				}
			],
			"devdoc": {
				"kind": "dev",
				"methods": {
					"owner()": {
						"details": "Returns the address of the current owner."
					},
					"renounceOwnership()": {
						"details": "Leaves the contract without owner. It will not be possible to call `onlyOwner` functions. Can only be called by the current owner. NOTE: Renouncing ownership will leave the contract without an owner, thereby disabling any functionality that is only available to the owner."
					},
					"transferOwnership(address)": {
						"details": "Transfers ownership of the contract to a new account (`newOwner`). Can only be called by the current owner."
					}
				},
				"version": 1
			},
			"evm": {
				"assembly": "    /* \"levelup/base.sol\":195:2831  contract Base is Ownable {... */\n  mstore(0x40, 0x80)\n  callvalue\n  dup1\n  iszero\n  tag_1\n  jumpi\n  0x00\n  dup1\n  revert\ntag_1:\n  pop\n    /* \"@openzeppelin/contracts/access/Ownable.sol\":936:968  _transferOwnership(_msgSender()) */\n  tag_4\n    /* \"@openzeppelin/contracts/access/Ownable.sol\":955:967  _msgSender() */\n  tag_5\n    /* \"@openzeppelin/contracts/access/Ownable.sol\":955:965  _msgSender */\n  shl(0x20, tag_6)\n    /* \"@openzeppelin/contracts/access/Ownable.sol\":955:967  _msgSender() */\n  0x20\n  shr\n  jump\t// in\ntag_5:\n    /* \"@openzeppelin/contracts/access/Ownable.sol\":936:954  _transferOwnership */\n  shl(0x20, tag_7)\n    /* \"@openzeppelin/contracts/access/Ownable.sol\":936:968  _transferOwnership(_msgSender()) */\n  0x20\n  shr\n  jump\t// in\ntag_4:\n    /* \"levelup/base.sol\":195:2831  contract Base is Ownable {... */\n  jump(tag_8)\n    /* \"@openzeppelin/contracts/utils/Context.sol\":640:736  function _msgSender() internal view virtual returns (address) {... */\ntag_6:\n    /* \"@openzeppelin/contracts/utils/Context.sol\":693:700  address */\n  0x00\n    /* \"@openzeppelin/contracts/utils/Context.sol\":719:729  msg.sender */\n  caller\n    /* \"@openzeppelin/contracts/utils/Context.sol\":712:729  return msg.sender */\n  swap1\n  pop\n    /* \"@openzeppelin/contracts/utils/Context.sol\":640:736  function _msgSender() internal view virtual returns (address) {... */\n  swap1\n  jump\t// out\n    /* \"@openzeppelin/contracts/access/Ownable.sol\":2426:2613  function _transferOwnership(address newOwner) internal virtual {... */\ntag_7:\n    /* \"@openzeppelin/contracts/access/Ownable.sol\":2499:2515  address oldOwner */\n  0x00\n    /* \"@openzeppelin/contracts/access/Ownable.sol\":2518:2524  _owner */\n  dup1\n  0x00\n  swap1\n  sload\n  swap1\n  0x0100\n  exp\n  swap1\n  div\n  0xffffffffffffffffffffffffffffffffffffffff\n  and\n    /* \"@openzeppelin/contracts/access/Ownable.sol\":2499:2524  address oldOwner = _owner */\n  swap1\n  pop\n    /* \"@openzeppelin/contracts/access/Ownable.sol\":2543:2551  newOwner */\n  dup2\n    /* \"@openzeppelin/contracts/access/Ownable.sol\":2534:2540  _owner */\n  0x00\n  dup1\n    /* \"@openzeppelin/contracts/access/Ownable.sol\":2534:2551  _owner = newOwner */\n  0x0100\n  exp\n  dup2\n  sload\n  dup2\n  0xffffffffffffffffffffffffffffffffffffffff\n  mul\n  not\n  and\n  swap1\n  dup4\n  0xffffffffffffffffffffffffffffffffffffffff\n  and\n  mul\n  or\n  swap1\n  sstore\n  pop\n    /* \"@openzeppelin/contracts/access/Ownable.sol\":2597:2605  newOwner */\n  dup2\n    /* \"@openzeppelin/contracts/access/Ownable.sol\":2566:2606  OwnershipTransferred(oldOwner, newOwner) */\n  0xffffffffffffffffffffffffffffffffffffffff\n  and\n    /* \"@openzeppelin/contracts/access/Ownable.sol\":2587:2595  oldOwner */\n  dup2\n    /* \"@openzeppelin/contracts/access/Ownable.sol\":2566:2606  OwnershipTransferred(oldOwner, newOwner) */\n  0xffffffffffffffffffffffffffffffffffffffff\n  and\n  0x8be0079c531659141344cd1fd0a4f28419497f9722a3daafe3b4186f6b6457e0\n  mload(0x40)\n  mload(0x40)\n  dup1\n  swap2\n  sub\n  swap1\n  log3\n    /* \"@openzeppelin/contracts/access/Ownable.sol\":2489:2613  {... */\n  pop\n    /* \"@openzeppelin/contracts/access/Ownable.sol\":2426:2613  function _transferOwnership(address newOwner) internal virtual {... */\n  pop\n  jump\t// out\n    /* \"levelup/base.sol\":195:2831  contract Base is Ownable {... */\ntag_8:\n  dataSize(sub_0)\n  dup1\n  dataOffset(sub_0)\n  0x00\n  codecopy\n  0x00\n  return\nstop\n\nsub_0: assembly {\n        /* \"levelup/base.sol\":195:2831  contract Base is Ownable {... */\n      mstore(0x40, 0x80)\n      jumpi(tag_1, lt(calldatasize, 0x04))\n      shr(0xe0, calldataload(0x00))\n      dup1\n      0x783b47e6\n      gt\n      tag_13\n      jumpi\n      dup1\n      0x783b47e6\n      eq\n      tag_7\n      jumpi\n      dup1\n      0x88d6d12d\n      eq\n      tag_8\n      jumpi\n      dup1\n      0x8da5cb5b\n      eq\n      tag_9\n      jumpi\n      dup1\n      0xb9938436\n      eq\n      tag_10\n      jumpi\n      dup1\n      0xf2fde38b\n      eq\n      tag_11\n      jumpi\n      dup1\n      0xf4f2821b\n      eq\n      tag_12\n      jumpi\n      jump(tag_1)\n    tag_13:\n      dup1\n      0x1ae8fc87\n      eq\n      tag_2\n      jumpi\n      dup1\n      0x27b5db8a\n      eq\n      tag_3\n      jumpi\n      dup1\n      0x40b00907\n      eq\n      tag_4\n      jumpi\n      dup1\n      0x5a65cf95\n      eq\n      tag_5\n      jumpi\n      dup1\n      0x715018a6\n      eq\n      tag_6\n      jumpi\n    tag_1:\n      0x00\n      dup1\n      revert\n        /* \"levelup/base.sol\":569:1050  function addContract(address _contract, address _player, uint _level, string memory _flag) public onlyOwner{... */\n    tag_2:\n      callvalue\n      dup1\n      iszero\n      tag_14\n      jumpi\n      0x00\n      dup1\n      revert\n    tag_14:\n      pop\n      tag_15\n      0x04\n      dup1\n      calldatasize\n      sub\n      dup2\n      add\n      swap1\n      tag_16\n      swap2\n      swap1\n      tag_17\n      jump\t// in\n    tag_16:\n      tag_18\n      jump\t// in\n    tag_15:\n      stop\n        /* \"levelup/base.sol\":1572:1730  function addPlayer() public {... */\n    tag_3:\n      callvalue\n      dup1\n      iszero\n      tag_19\n      jumpi\n      0x00\n      dup1\n      revert\n    tag_19:\n      pop\n      tag_20\n      tag_21\n      jump\t// in\n    tag_20:\n      stop\n        /* \"levelup/base.sol\":2022:2479  function validateFlag(address _contract,string memory _flag) public payable{... */\n    tag_4:\n      tag_22\n      0x04\n      dup1\n      calldatasize\n      sub\n      dup2\n      add\n      swap1\n      tag_23\n      swap2\n      swap1\n      tag_24\n      jump\t// in\n    tag_23:\n      tag_25\n      jump\t// in\n    tag_22:\n      stop\n        /* \"levelup/base.sol\":1903:2016  function existPlayer(address _player) public view returns(bool){... */\n    tag_5:\n      callvalue\n      dup1\n      iszero\n      tag_26\n      jumpi\n      0x00\n      dup1\n      revert\n    tag_26:\n      pop\n      tag_27\n      0x04\n      dup1\n      calldatasize\n      sub\n      dup2\n      add\n      swap1\n      tag_28\n      swap2\n      swap1\n      tag_29\n      jump\t// in\n    tag_28:\n      tag_30\n      jump\t// in\n    tag_27:\n      mload(0x40)\n      tag_31\n      swap2\n      swap1\n      tag_32\n      jump\t// in\n    tag_31:\n      mload(0x40)\n      dup1\n      swap2\n      sub\n      swap1\n      return\n        /* \"@openzeppelin/contracts/access/Ownable.sol\":1824:1925  function renounceOwnership() public virtual onlyOwner {... */\n    tag_6:\n      callvalue\n      dup1\n      iszero\n      tag_33\n      jumpi\n      0x00\n      dup1\n      revert\n    tag_33:\n      pop\n      tag_34\n      tag_35\n      jump\t// in\n    tag_34:\n      stop\n        /* \"levelup/base.sol\":1736:1897  function delPlayer() public{... */\n    tag_7:\n      callvalue\n      dup1\n      iszero\n      tag_36\n      jumpi\n      0x00\n      dup1\n      revert\n    tag_36:\n      pop\n      tag_37\n      tag_38\n      jump\t// in\n    tag_37:\n      stop\n        /* \"levelup/base.sol\":2485:2628  function checkFlag(address _contract, address _player) public view returns(bool){... */\n    tag_8:\n      callvalue\n      dup1\n      iszero\n      tag_39\n      jumpi\n      0x00\n      dup1\n      revert\n    tag_39:\n      pop\n      tag_40\n      0x04\n      dup1\n      calldatasize\n      sub\n      dup2\n      add\n      swap1\n      tag_41\n      swap2\n      swap1\n      tag_42\n      jump\t// in\n    tag_41:\n      tag_43\n      jump\t// in\n    tag_40:\n      mload(0x40)\n      tag_44\n      swap2\n      swap1\n      tag_32\n      jump\t// in\n    tag_44:\n      mload(0x40)\n      dup1\n      swap2\n      sub\n      swap1\n      return\n        /* \"@openzeppelin/contracts/access/Ownable.sol\":1201:1286  function owner() public view virtual returns (address) {... */\n    tag_9:\n      callvalue\n      dup1\n      iszero\n      tag_45\n      jumpi\n      0x00\n      dup1\n      revert\n    tag_45:\n      pop\n      tag_46\n      tag_47\n      jump\t// in\n    tag_46:\n      mload(0x40)\n      tag_48\n      swap2\n      swap1\n      tag_49\n      jump\t// in\n    tag_48:\n      mload(0x40)\n      dup1\n      swap2\n      sub\n      swap1\n      return\n        /* \"levelup/base.sol\":1248:1566  function getPlayerStatus(address _player, address _contract) public view onlyOwner returns(levelStatus memory){... */\n    tag_10:\n      callvalue\n      dup1\n      iszero\n      tag_50\n      jumpi\n      0x00\n      dup1\n      revert\n    tag_50:\n      pop\n      tag_51\n      0x04\n      dup1\n      calldatasize\n      sub\n      dup2\n      add\n      swap1\n      tag_52\n      swap2\n      swap1\n      tag_42\n      jump\t// in\n    tag_52:\n      tag_53\n      jump\t// in\n    tag_51:\n      mload(0x40)\n      tag_54\n      swap2\n      swap1\n      tag_55\n      jump\t// in\n    tag_54:\n      mload(0x40)\n      dup1\n      swap2\n      sub\n      swap1\n      return\n        /* \"@openzeppelin/contracts/access/Ownable.sol\":2074:2272  function transferOwnership(address newOwner) public virtual onlyOwner {... */\n    tag_11:\n      callvalue\n      dup1\n      iszero\n      tag_56\n      jumpi\n      0x00\n      dup1\n      revert\n    tag_56:\n      pop\n      tag_57\n      0x04\n      dup1\n      calldatasize\n      sub\n      dup2\n      add\n      swap1\n      tag_58\n      swap2\n      swap1\n      tag_29\n      jump\t// in\n    tag_58:\n      tag_59\n      jump\t// in\n    tag_57:\n      stop\n        /* \"levelup/base.sol\":1056:1242  function delContract(address _contract) public onlyOwner{... */\n    tag_12:\n      callvalue\n      dup1\n      iszero\n      tag_60\n      jumpi\n      0x00\n      dup1\n      revert\n    tag_60:\n      pop\n      tag_61\n      0x04\n      dup1\n      calldatasize\n      sub\n      dup2\n      add\n      swap1\n      tag_62\n      swap2\n      swap1\n      tag_29\n      jump\t// in\n    tag_62:\n      tag_63\n      jump\t// in\n    tag_61:\n      stop\n        /* \"levelup/base.sol\":569:1050  function addContract(address _contract, address _player, uint _level, string memory _flag) public onlyOwner{... */\n    tag_18:\n        /* \"@openzeppelin/contracts/access/Ownable.sol\":1094:1107  _checkOwner() */\n      tag_65\n        /* \"@openzeppelin/contracts/access/Ownable.sol\":1094:1105  _checkOwner */\n      tag_66\n        /* \"@openzeppelin/contracts/access/Ownable.sol\":1094:1107  _checkOwner() */\n      jump\t// in\n    tag_65:\n        /* \"levelup/base.sol\":695:714  registeredContracts */\n      0x01\n        /* \"levelup/base.sol\":695:725  registeredContracts[_contract] */\n      0x00\n        /* \"levelup/base.sol\":715:724  _contract */\n      dup6\n        /* \"levelup/base.sol\":695:725  registeredContracts[_contract] */\n      0xffffffffffffffffffffffffffffffffffffffff\n      and\n      0xffffffffffffffffffffffffffffffffffffffff\n      and\n      dup2\n      mstore\n      0x20\n      add\n      swap1\n      dup2\n      mstore\n      0x20\n      add\n      0x00\n      keccak256\n      0x00\n      swap1\n      sload\n      swap1\n      0x0100\n      exp\n      swap1\n      div\n      0xff\n      and\n        /* \"levelup/base.sol\":694:725  !registeredContracts[_contract] */\n      iszero\n        /* \"levelup/base.sol\":686:756  require(!registeredContracts[_contract],\"contract already registered\") */\n      tag_68\n      jumpi\n      mload(0x40)\n      0x08c379a000000000000000000000000000000000000000000000000000000000\n      dup2\n      mstore\n      0x04\n      add\n      tag_69\n      swap1\n      tag_70\n      jump\t// in\n    tag_69:\n      mload(0x40)\n      dup1\n      swap2\n      sub\n      swap1\n      revert\n    tag_68:\n        /* \"levelup/base.sol\":774:791  registeredPlayers */\n      0x02\n        /* \"levelup/base.sol\":774:800  registeredPlayers[_player] */\n      0x00\n        /* \"levelup/base.sol\":792:799  _player */\n      dup5\n        /* \"levelup/base.sol\":774:800  registeredPlayers[_player] */\n      0xffffffffffffffffffffffffffffffffffffffff\n      and\n      0xffffffffffffffffffffffffffffffffffffffff\n      and\n      dup2\n      mstore\n      0x20\n      add\n      swap1\n      dup2\n      mstore\n      0x20\n      add\n      0x00\n      keccak256\n      0x00\n      swap1\n      sload\n      swap1\n      0x0100\n      exp\n      swap1\n      div\n      0xff\n      and\n        /* \"levelup/base.sol\":766:825  require(registeredPlayers[_player],\"player not registered\") */\n      tag_71\n      jumpi\n      mload(0x40)\n      0x08c379a000000000000000000000000000000000000000000000000000000000\n      dup2\n      mstore\n      0x04\n      add\n      tag_72\n      swap1\n      tag_73\n      jump\t// in\n    tag_72:\n      mload(0x40)\n      dup1\n      swap2\n      sub\n      swap1\n      revert\n    tag_71:\n        /* \"levelup/base.sol\":868:872  true */\n      0x01\n        /* \"levelup/base.sol\":835:854  registeredContracts */\n      dup1\n        /* \"levelup/base.sol\":835:865  registeredContracts[_contract] */\n      0x00\n        /* \"levelup/base.sol\":855:864  _contract */\n      dup7\n        /* \"levelup/base.sol\":835:865  registeredContracts[_contract] */\n      0xffffffffffffffffffffffffffffffffffffffff\n      and\n      0xffffffffffffffffffffffffffffffffffffffff\n      and\n      dup2\n      mstore\n      0x20\n      add\n      swap1\n      dup2\n      mstore\n      0x20\n      add\n      0x00\n      keccak256\n      0x00\n        /* \"levelup/base.sol\":835:872  registeredContracts[_contract] = true */\n      0x0100\n      exp\n      dup2\n      sload\n      dup2\n      0xff\n      mul\n      not\n      and\n      swap1\n      dup4\n      iszero\n      iszero\n      mul\n      or\n      swap1\n      sstore\n      pop\n        /* \"levelup/base.sol\":924:930  _level */\n      dup2\n        /* \"levelup/base.sol\":883:895  playerStatus */\n      0x03\n        /* \"levelup/base.sol\":883:904  playerStatus[_player] */\n      0x00\n        /* \"levelup/base.sol\":896:903  _player */\n      dup6\n        /* \"levelup/base.sol\":883:904  playerStatus[_player] */\n      0xffffffffffffffffffffffffffffffffffffffff\n      and\n      0xffffffffffffffffffffffffffffffffffffffff\n      and\n      dup2\n      mstore\n      0x20\n      add\n      swap1\n      dup2\n      mstore\n      0x20\n      add\n      0x00\n      keccak256\n        /* \"levelup/base.sol\":883:915  playerStatus[_player][_contract] */\n      0x00\n        /* \"levelup/base.sol\":905:914  _contract */\n      dup7\n        /* \"levelup/base.sol\":883:915  playerStatus[_player][_contract] */\n      0xffffffffffffffffffffffffffffffffffffffff\n      and\n      0xffffffffffffffffffffffffffffffffffffffff\n      and\n      dup2\n      mstore\n      0x20\n      add\n      swap1\n      dup2\n      mstore\n      0x20\n      add\n      0x00\n      keccak256\n        /* \"levelup/base.sol\":883:921  playerStatus[_player][_contract].level */\n      0x00\n      add\n        /* \"levelup/base.sol\":883:930  playerStatus[_player][_contract].level = _level */\n      dup2\n      swap1\n      sstore\n      pop\n        /* \"levelup/base.sol\":980:985  _flag */\n      dup1\n        /* \"levelup/base.sol\":940:952  playerStatus */\n      0x03\n        /* \"levelup/base.sol\":940:961  playerStatus[_player] */\n      0x00\n        /* \"levelup/base.sol\":953:960  _player */\n      dup6\n        /* \"levelup/base.sol\":940:961  playerStatus[_player] */\n      0xffffffffffffffffffffffffffffffffffffffff\n      and\n      0xffffffffffffffffffffffffffffffffffffffff\n      and\n      dup2\n      mstore\n      0x20\n      add\n      swap1\n      dup2\n      mstore\n      0x20\n      add\n      0x00\n      keccak256\n        /* \"levelup/base.sol\":940:972  playerStatus[_player][_contract] */\n      0x00\n        /* \"levelup/base.sol\":962:971  _contract */\n      dup7\n        /* \"levelup/base.sol\":940:972  playerStatus[_player][_contract] */\n      0xffffffffffffffffffffffffffffffffffffffff\n      and\n      0xffffffffffffffffffffffffffffffffffffffff\n      and\n      dup2\n      mstore\n      0x20\n      add\n      swap1\n      dup2\n      mstore\n      0x20\n      add\n      0x00\n      keccak256\n        /* \"levelup/base.sol\":940:977  playerStatus[_player][_contract].flag */\n      0x01\n      add\n        /* \"levelup/base.sol\":940:985  playerStatus[_player][_contract].flag = _flag */\n      swap1\n      dup2\n      tag_74\n      swap2\n      swap1\n      tag_75\n      jump\t// in\n    tag_74:\n      pop\n        /* \"levelup/base.sol\":1037:1042  false */\n      0x00\n        /* \"levelup/base.sol\":995:1007  playerStatus */\n      0x03\n        /* \"levelup/base.sol\":995:1016  playerStatus[_player] */\n      0x00\n        /* \"levelup/base.sol\":1008:1015  _player */\n      dup6\n        /* \"levelup/base.sol\":995:1016  playerStatus[_player] */\n      0xffffffffffffffffffffffffffffffffffffffff\n      and\n      0xffffffffffffffffffffffffffffffffffffffff\n      and\n      dup2\n      mstore\n      0x20\n      add\n      swap1\n      dup2\n      mstore\n      0x20\n      add\n      0x00\n      keccak256\n        /* \"levelup/base.sol\":995:1027  playerStatus[_player][_contract] */\n      0x00\n        /* \"levelup/base.sol\":1017:1026  _contract */\n      dup7\n        /* \"levelup/base.sol\":995:1027  playerStatus[_player][_contract] */\n      0xffffffffffffffffffffffffffffffffffffffff\n      and\n      0xffffffffffffffffffffffffffffffffffffffff\n      and\n      dup2\n      mstore\n      0x20\n      add\n      swap1\n      dup2\n      mstore\n      0x20\n      add\n      0x00\n      keccak256\n        /* \"levelup/base.sol\":995:1034  playerStatus[_player][_contract].flagOK */\n      0x02\n      add\n      0x00\n        /* \"levelup/base.sol\":995:1042  playerStatus[_player][_contract].flagOK = false */\n      0x0100\n      exp\n      dup2\n      sload\n      dup2\n      0xff\n      mul\n      not\n      and\n      swap1\n      dup4\n      iszero\n      iszero\n      mul\n      or\n      swap1\n      sstore\n      pop\n        /* \"levelup/base.sol\":569:1050  function addContract(address _contract, address _player, uint _level, string memory _flag) public onlyOwner{... */\n      pop\n      pop\n      pop\n      pop\n      jump\t// out\n        /* \"levelup/base.sol\":1572:1730  function addPlayer() public {... */\n    tag_21:\n        /* \"levelup/base.sol\":1619:1636  registeredPlayers */\n      0x02\n        /* \"levelup/base.sol\":1619:1648  registeredPlayers[msg.sender] */\n      0x00\n        /* \"levelup/base.sol\":1637:1647  msg.sender */\n      caller\n        /* \"levelup/base.sol\":1619:1648  registeredPlayers[msg.sender] */\n      0xffffffffffffffffffffffffffffffffffffffff\n      and\n      0xffffffffffffffffffffffffffffffffffffffff\n      and\n      dup2\n      mstore\n      0x20\n      add\n      swap1\n      dup2\n      mstore\n      0x20\n      add\n      0x00\n      keccak256\n      0x00\n      swap1\n      sload\n      swap1\n      0x0100\n      exp\n      swap1\n      div\n      0xff\n      and\n        /* \"levelup/base.sol\":1618:1648  !registeredPlayers[msg.sender] */\n      iszero\n        /* \"levelup/base.sol\":1610:1677  require(!registeredPlayers[msg.sender],\"player already registered\") */\n      tag_77\n      jumpi\n      mload(0x40)\n      0x08c379a000000000000000000000000000000000000000000000000000000000\n      dup2\n      mstore\n      0x04\n      add\n      tag_78\n      swap1\n      tag_79\n      jump\t// in\n    tag_78:\n      mload(0x40)\n      dup1\n      swap2\n      sub\n      swap1\n      revert\n    tag_77:\n        /* \"levelup/base.sol\":1719:1723  true */\n      0x01\n        /* \"levelup/base.sol\":1687:1704  registeredPlayers */\n      0x02\n        /* \"levelup/base.sol\":1687:1716  registeredPlayers[msg.sender] */\n      0x00\n        /* \"levelup/base.sol\":1705:1715  msg.sender */\n      caller\n        /* \"levelup/base.sol\":1687:1716  registeredPlayers[msg.sender] */\n      0xffffffffffffffffffffffffffffffffffffffff\n      and\n      0xffffffffffffffffffffffffffffffffffffffff\n      and\n      dup2\n      mstore\n      0x20\n      add\n      swap1\n      dup2\n      mstore\n      0x20\n      add\n      0x00\n      keccak256\n      0x00\n        /* \"levelup/base.sol\":1687:1723  registeredPlayers[msg.sender] = true */\n      0x0100\n      exp\n      dup2\n      sload\n      dup2\n      0xff\n      mul\n      not\n      and\n      swap1\n      dup4\n      iszero\n      iszero\n      mul\n      or\n      swap1\n      sstore\n      pop\n        /* \"levelup/base.sol\":1572:1730  function addPlayer() public {... */\n      jump\t// out\n        /* \"levelup/base.sol\":2022:2479  function validateFlag(address _contract,string memory _flag) public payable{... */\n    tag_25:\n        /* \"levelup/base.sol\":2107:2123  string memory _f */\n      0x00\n        /* \"levelup/base.sol\":2126:2138  playerStatus */\n      0x03\n        /* \"levelup/base.sol\":2126:2150  playerStatus[msg.sender] */\n      0x00\n        /* \"levelup/base.sol\":2139:2149  msg.sender */\n      caller\n        /* \"levelup/base.sol\":2126:2150  playerStatus[msg.sender] */\n      0xffffffffffffffffffffffffffffffffffffffff\n      and\n      0xffffffffffffffffffffffffffffffffffffffff\n      and\n      dup2\n      mstore\n      0x20\n      add\n      swap1\n      dup2\n      mstore\n      0x20\n      add\n      0x00\n      keccak256\n        /* \"levelup/base.sol\":2126:2161  playerStatus[msg.sender][_contract] */\n      0x00\n        /* \"levelup/base.sol\":2151:2160  _contract */\n      dup5\n        /* \"levelup/base.sol\":2126:2161  playerStatus[msg.sender][_contract] */\n      0xffffffffffffffffffffffffffffffffffffffff\n      and\n      0xffffffffffffffffffffffffffffffffffffffff\n      and\n      dup2\n      mstore\n      0x20\n      add\n      swap1\n      dup2\n      mstore\n      0x20\n      add\n      0x00\n      keccak256\n        /* \"levelup/base.sol\":2126:2166  playerStatus[msg.sender][_contract].flag */\n      0x01\n      add\n        /* \"levelup/base.sol\":2107:2166  string memory _f = playerStatus[msg.sender][_contract].flag */\n      dup1\n      sload\n      tag_81\n      swap1\n      tag_82\n      jump\t// in\n    tag_81:\n      dup1\n      0x1f\n      add\n      0x20\n      dup1\n      swap2\n      div\n      mul\n      0x20\n      add\n      mload(0x40)\n      swap1\n      dup2\n      add\n      0x40\n      mstore\n      dup1\n      swap3\n      swap2\n      swap1\n      dup2\n      dup2\n      mstore\n      0x20\n      add\n      dup3\n      dup1\n      sload\n      tag_83\n      swap1\n      tag_82\n      jump\t// in\n    tag_83:\n      dup1\n      iszero\n      tag_84\n      jumpi\n      dup1\n      0x1f\n      lt\n      tag_85\n      jumpi\n      0x0100\n      dup1\n      dup4\n      sload\n      div\n      mul\n      dup4\n      mstore\n      swap2\n      0x20\n      add\n      swap2\n      jump(tag_84)\n    tag_85:\n      dup3\n      add\n      swap2\n      swap1\n      0x00\n      mstore\n      keccak256(0x00, 0x20)\n      swap1\n    tag_86:\n      dup2\n      sload\n      dup2\n      mstore\n      swap1\n      0x01\n      add\n      swap1\n      0x20\n      add\n      dup1\n      dup4\n      gt\n      tag_86\n      jumpi\n      dup3\n      swap1\n      sub\n      0x1f\n      and\n      dup3\n      add\n      swap2\n    tag_84:\n      pop\n      pop\n      pop\n      pop\n      pop\n      swap1\n      pop\n        /* \"levelup/base.sol\":2184:2203  registeredContracts */\n      0x01\n        /* \"levelup/base.sol\":2184:2214  registeredContracts[_contract] */\n      0x00\n        /* \"levelup/base.sol\":2204:2213  _contract */\n      dup5\n        /* \"levelup/base.sol\":2184:2214  registeredContracts[_contract] */\n      0xffffffffffffffffffffffffffffffffffffffff\n      and\n      0xffffffffffffffffffffffffffffffffffffffff\n      and\n      dup2\n      mstore\n      0x20\n      add\n      swap1\n      dup2\n      mstore\n      0x20\n      add\n      0x00\n      keccak256\n      0x00\n      swap1\n      sload\n      swap1\n      0x0100\n      exp\n      swap1\n      div\n      0xff\n      and\n        /* \"levelup/base.sol\":2176:2236  require(registeredContracts[_contract],\"contract not found\") */\n      tag_87\n      jumpi\n      mload(0x40)\n      0x08c379a000000000000000000000000000000000000000000000000000000000\n      dup2\n      mstore\n      0x04\n      add\n      tag_88\n      swap1\n      tag_89\n      jump\t// in\n    tag_88:\n      mload(0x40)\n      dup1\n      swap2\n      sub\n      swap1\n      revert\n    tag_87:\n        /* \"levelup/base.sol\":2254:2271  registeredPlayers */\n      0x02\n        /* \"levelup/base.sol\":2254:2283  registeredPlayers[msg.sender] */\n      0x00\n        /* \"levelup/base.sol\":2272:2282  msg.sender */\n      caller\n        /* \"levelup/base.sol\":2254:2283  registeredPlayers[msg.sender] */\n      0xffffffffffffffffffffffffffffffffffffffff\n      and\n      0xffffffffffffffffffffffffffffffffffffffff\n      and\n      dup2\n      mstore\n      0x20\n      add\n      swap1\n      dup2\n      mstore\n      0x20\n      add\n      0x00\n      keccak256\n      0x00\n      swap1\n      sload\n      swap1\n      0x0100\n      exp\n      swap1\n      div\n      0xff\n      and\n        /* \"levelup/base.sol\":2246:2303  require(registeredPlayers[msg.sender],\"player not found\") */\n      tag_90\n      jumpi\n      mload(0x40)\n      0x08c379a000000000000000000000000000000000000000000000000000000000\n      dup2\n      mstore\n      0x04\n      add\n      tag_91\n      swap1\n      tag_92\n      jump\t// in\n    tag_91:\n      mload(0x40)\n      dup1\n      swap2\n      sub\n      swap1\n      revert\n    tag_90:\n        /* \"levelup/base.sol\":2383:2388  _flag */\n      dup2\n        /* \"levelup/base.sol\":2366:2389  abi.encodePacked(_flag) */\n      add(0x20, mload(0x40))\n      tag_93\n      swap2\n      swap1\n      tag_94\n      jump\t// in\n    tag_93:\n      mload(0x40)\n      0x20\n      dup2\n      dup4\n      sub\n      sub\n      dup2\n      mstore\n      swap1\n      0x40\n      mstore\n        /* \"levelup/base.sol\":2356:2390  keccak256(abi.encodePacked(_flag)) */\n      dup1\n      mload\n      swap1\n      0x20\n      add\n      keccak256\n        /* \"levelup/base.sol\":2348:2350  _f */\n      dup2\n        /* \"levelup/base.sol\":2331:2351  abi.encodePacked(_f) */\n      add(0x20, mload(0x40))\n      tag_95\n      swap2\n      swap1\n      tag_94\n      jump\t// in\n    tag_95:\n      mload(0x40)\n      0x20\n      dup2\n      dup4\n      sub\n      sub\n      dup2\n      mstore\n      swap1\n      0x40\n      mstore\n        /* \"levelup/base.sol\":2321:2352  keccak256(abi.encodePacked(_f)) */\n      dup1\n      mload\n      swap1\n      0x20\n      add\n      keccak256\n        /* \"levelup/base.sol\":2321:2390  keccak256(abi.encodePacked(_f)) == keccak256(abi.encodePacked(_flag)) */\n      eq\n        /* \"levelup/base.sol\":2313:2413  require(keccak256(abi.encodePacked(_f)) == keccak256(abi.encodePacked(_flag)),\"flag is not correct\") */\n      tag_96\n      jumpi\n      mload(0x40)\n      0x08c379a000000000000000000000000000000000000000000000000000000000\n      dup2\n      mstore\n      0x04\n      add\n      tag_97\n      swap1\n      tag_98\n      jump\t// in\n    tag_97:\n      mload(0x40)\n      dup1\n      swap2\n      sub\n      swap1\n      revert\n    tag_96:\n        /* \"levelup/base.sol\":2468:2472  true */\n      0x01\n        /* \"levelup/base.sol\":2423:2435  playerStatus */\n      0x03\n        /* \"levelup/base.sol\":2423:2447  playerStatus[msg.sender] */\n      0x00\n        /* \"levelup/base.sol\":2436:2446  msg.sender */\n      caller\n        /* \"levelup/base.sol\":2423:2447  playerStatus[msg.sender] */\n      0xffffffffffffffffffffffffffffffffffffffff\n      and\n      0xffffffffffffffffffffffffffffffffffffffff\n      and\n      dup2\n      mstore\n      0x20\n      add\n      swap1\n      dup2\n      mstore\n      0x20\n      add\n      0x00\n      keccak256\n        /* \"levelup/base.sol\":2423:2458  playerStatus[msg.sender][_contract] */\n      0x00\n        /* \"levelup/base.sol\":2448:2457  _contract */\n      dup6\n        /* \"levelup/base.sol\":2423:2458  playerStatus[msg.sender][_contract] */\n      0xffffffffffffffffffffffffffffffffffffffff\n      and\n      0xffffffffffffffffffffffffffffffffffffffff\n      and\n      dup2\n      mstore\n      0x20\n      add\n      swap1\n      dup2\n      mstore\n      0x20\n      add\n      0x00\n      keccak256\n        /* \"levelup/base.sol\":2423:2465  playerStatus[msg.sender][_contract].flagOK */\n      0x02\n      add\n      0x00\n        /* \"levelup/base.sol\":2423:2472  playerStatus[msg.sender][_contract].flagOK = true */\n      0x0100\n      exp\n      dup2\n      sload\n      dup2\n      0xff\n      mul\n      not\n      and\n      swap1\n      dup4\n      iszero\n      iszero\n      mul\n      or\n      swap1\n      sstore\n      pop\n        /* \"levelup/base.sol\":2097:2479  {... */\n      pop\n        /* \"levelup/base.sol\":2022:2479  function validateFlag(address _contract,string memory _flag) public payable{... */\n      pop\n      pop\n      jump\t// out\n        /* \"levelup/base.sol\":1903:2016  function existPlayer(address _player) public view returns(bool){... */\n    tag_30:\n        /* \"levelup/base.sol\":1961:1965  bool */\n      0x00\n        /* \"levelup/base.sol\":1983:2000  registeredPlayers */\n      0x02\n        /* \"levelup/base.sol\":1983:2009  registeredPlayers[_player] */\n      0x00\n        /* \"levelup/base.sol\":2001:2008  _player */\n      dup4\n        /* \"levelup/base.sol\":1983:2009  registeredPlayers[_player] */\n      0xffffffffffffffffffffffffffffffffffffffff\n      and\n      0xffffffffffffffffffffffffffffffffffffffff\n      and\n      dup2\n      mstore\n      0x20\n      add\n      swap1\n      dup2\n      mstore\n      0x20\n      add\n      0x00\n      keccak256\n      0x00\n      swap1\n      sload\n      swap1\n      0x0100\n      exp\n      swap1\n      div\n      0xff\n      and\n        /* \"levelup/base.sol\":1976:2009  return registeredPlayers[_player] */\n      swap1\n      pop\n        /* \"levelup/base.sol\":1903:2016  function existPlayer(address _player) public view returns(bool){... */\n      swap2\n      swap1\n      pop\n      jump\t// out\n        /* \"@openzeppelin/contracts/access/Ownable.sol\":1824:1925  function renounceOwnership() public virtual onlyOwner {... */\n    tag_35:\n        /* \"@openzeppelin/contracts/access/Ownable.sol\":1094:1107  _checkOwner() */\n      tag_101\n        /* \"@openzeppelin/contracts/access/Ownable.sol\":1094:1105  _checkOwner */\n      tag_66\n        /* \"@openzeppelin/contracts/access/Ownable.sol\":1094:1107  _checkOwner() */\n      jump\t// in\n    tag_101:\n        /* \"@openzeppelin/contracts/access/Ownable.sol\":1888:1918  _transferOwnership(address(0)) */\n      tag_103\n        /* \"@openzeppelin/contracts/access/Ownable.sol\":1915:1916  0 */\n      0x00\n        /* \"@openzeppelin/contracts/access/Ownable.sol\":1888:1906  _transferOwnership */\n      tag_104\n        /* \"@openzeppelin/contracts/access/Ownable.sol\":1888:1918  _transferOwnership(address(0)) */\n      jump\t// in\n    tag_103:\n        /* \"@openzeppelin/contracts/access/Ownable.sol\":1824:1925  function renounceOwnership() public virtual onlyOwner {... */\n      jump\t// out\n        /* \"levelup/base.sol\":1736:1897  function delPlayer() public{... */\n    tag_38:\n        /* \"levelup/base.sol\":1781:1798  registeredPlayers */\n      0x02\n        /* \"levelup/base.sol\":1781:1810  registeredPlayers[msg.sender] */\n      0x00\n        /* \"levelup/base.sol\":1799:1809  msg.sender */\n      caller\n        /* \"levelup/base.sol\":1781:1810  registeredPlayers[msg.sender] */\n      0xffffffffffffffffffffffffffffffffffffffff\n      and\n      0xffffffffffffffffffffffffffffffffffffffff\n      and\n      dup2\n      mstore\n      0x20\n      add\n      swap1\n      dup2\n      mstore\n      0x20\n      add\n      0x00\n      keccak256\n      0x00\n      swap1\n      sload\n      swap1\n      0x0100\n      exp\n      swap1\n      div\n      0xff\n      and\n        /* \"levelup/base.sol\":1773:1835  require(registeredPlayers[msg.sender],\"player not registered\") */\n      tag_106\n      jumpi\n      mload(0x40)\n      0x08c379a000000000000000000000000000000000000000000000000000000000\n      dup2\n      mstore\n      0x04\n      add\n      tag_107\n      swap1\n      tag_73\n      jump\t// in\n    tag_107:\n      mload(0x40)\n      dup1\n      swap2\n      sub\n      swap1\n      revert\n    tag_106:\n        /* \"levelup/base.sol\":1877:1882  false */\n      0x00\n        /* \"levelup/base.sol\":1845:1862  registeredPlayers */\n      0x02\n        /* \"levelup/base.sol\":1845:1874  registeredPlayers[msg.sender] */\n      0x00\n        /* \"levelup/base.sol\":1863:1873  msg.sender */\n      caller\n        /* \"levelup/base.sol\":1845:1874  registeredPlayers[msg.sender] */\n      0xffffffffffffffffffffffffffffffffffffffff\n      and\n      0xffffffffffffffffffffffffffffffffffffffff\n      and\n      dup2\n      mstore\n      0x20\n      add\n      swap1\n      dup2\n      mstore\n      0x20\n      add\n      0x00\n      keccak256\n      0x00\n        /* \"levelup/base.sol\":1845:1882  registeredPlayers[msg.sender] = false */\n      0x0100\n      exp\n      dup2\n      sload\n      dup2\n      0xff\n      mul\n      not\n      and\n      swap1\n      dup4\n      iszero\n      iszero\n      mul\n      or\n      swap1\n      sstore\n      pop\n        /* \"levelup/base.sol\":1736:1897  function delPlayer() public{... */\n      jump\t// out\n        /* \"levelup/base.sol\":2485:2628  function checkFlag(address _contract, address _player) public view returns(bool){... */\n    tag_43:\n        /* \"levelup/base.sol\":2560:2564  bool */\n      0x00\n        /* \"levelup/base.sol\":2582:2594  playerStatus */\n      0x03\n        /* \"levelup/base.sol\":2582:2603  playerStatus[_player] */\n      0x00\n        /* \"levelup/base.sol\":2595:2602  _player */\n      dup4\n        /* \"levelup/base.sol\":2582:2603  playerStatus[_player] */\n      0xffffffffffffffffffffffffffffffffffffffff\n      and\n      0xffffffffffffffffffffffffffffffffffffffff\n      and\n      dup2\n      mstore\n      0x20\n      add\n      swap1\n      dup2\n      mstore\n      0x20\n      add\n      0x00\n      keccak256\n        /* \"levelup/base.sol\":2582:2614  playerStatus[_player][_contract] */\n      0x00\n        /* \"levelup/base.sol\":2604:2613  _contract */\n      dup5\n        /* \"levelup/base.sol\":2582:2614  playerStatus[_player][_contract] */\n      0xffffffffffffffffffffffffffffffffffffffff\n      and\n      0xffffffffffffffffffffffffffffffffffffffff\n      and\n      dup2\n      mstore\n      0x20\n      add\n      swap1\n      dup2\n      mstore\n      0x20\n      add\n      0x00\n      keccak256\n        /* \"levelup/base.sol\":2582:2621  playerStatus[_player][_contract].flagOK */\n      0x02\n      add\n      0x00\n      swap1\n      sload\n      swap1\n      0x0100\n      exp\n      swap1\n      div\n      0xff\n      and\n        /* \"levelup/base.sol\":2575:2621  return playerStatus[_player][_contract].flagOK */\n      swap1\n      pop\n        /* \"levelup/base.sol\":2485:2628  function checkFlag(address _contract, address _player) public view returns(bool){... */\n      swap3\n      swap2\n      pop\n      pop\n      jump\t// out\n        /* \"@openzeppelin/contracts/access/Ownable.sol\":1201:1286  function owner() public view virtual returns (address) {... */\n    tag_47:\n        /* \"@openzeppelin/contracts/access/Ownable.sol\":1247:1254  address */\n      0x00\n        /* \"@openzeppelin/contracts/access/Ownable.sol\":1273:1279  _owner */\n      dup1\n      0x00\n      swap1\n      sload\n      swap1\n      0x0100\n      exp\n      swap1\n      div\n      0xffffffffffffffffffffffffffffffffffffffff\n      and\n        /* \"@openzeppelin/contracts/access/Ownable.sol\":1266:1279  return _owner */\n      swap1\n      pop\n        /* \"@openzeppelin/contracts/access/Ownable.sol\":1201:1286  function owner() public view virtual returns (address) {... */\n      swap1\n      jump\t// out\n        /* \"levelup/base.sol\":1248:1566  function getPlayerStatus(address _player, address _contract) public view onlyOwner returns(levelStatus memory){... */\n    tag_53:\n        /* \"levelup/base.sol\":1339:1357  levelStatus memory */\n      tag_110\n      tag_111\n      jump\t// in\n    tag_110:\n        /* \"@openzeppelin/contracts/access/Ownable.sol\":1094:1107  _checkOwner() */\n      tag_113\n        /* \"@openzeppelin/contracts/access/Ownable.sol\":1094:1105  _checkOwner */\n      tag_66\n        /* \"@openzeppelin/contracts/access/Ownable.sol\":1094:1107  _checkOwner() */\n      jump\t// in\n    tag_113:\n        /* \"levelup/base.sol\":1377:1394  registeredPlayers */\n      0x02\n        /* \"levelup/base.sol\":1377:1406  registeredPlayers[msg.sender] */\n      0x00\n        /* \"levelup/base.sol\":1395:1405  msg.sender */\n      caller\n        /* \"levelup/base.sol\":1377:1406  registeredPlayers[msg.sender] */\n      0xffffffffffffffffffffffffffffffffffffffff\n      and\n      0xffffffffffffffffffffffffffffffffffffffff\n      and\n      dup2\n      mstore\n      0x20\n      add\n      swap1\n      dup2\n      mstore\n      0x20\n      add\n      0x00\n      keccak256\n      0x00\n      swap1\n      sload\n      swap1\n      0x0100\n      exp\n      swap1\n      div\n      0xff\n      and\n        /* \"levelup/base.sol\":1376:1406  !registeredPlayers[msg.sender] */\n      iszero\n        /* \"levelup/base.sol\":1368:1435  require(!registeredPlayers[msg.sender],\"player already registered\") */\n      tag_115\n      jumpi\n      mload(0x40)\n      0x08c379a000000000000000000000000000000000000000000000000000000000\n      dup2\n      mstore\n      0x04\n      add\n      tag_116\n      swap1\n      tag_79\n      jump\t// in\n    tag_116:\n      mload(0x40)\n      dup1\n      swap2\n      sub\n      swap1\n      revert\n    tag_115:\n        /* \"levelup/base.sol\":1453:1472  registeredContracts */\n      0x01\n        /* \"levelup/base.sol\":1453:1483  registeredContracts[_contract] */\n      0x00\n        /* \"levelup/base.sol\":1473:1482  _contract */\n      dup4\n        /* \"levelup/base.sol\":1453:1483  registeredContracts[_contract] */\n      0xffffffffffffffffffffffffffffffffffffffff\n      and\n      0xffffffffffffffffffffffffffffffffffffffff\n      and\n      dup2\n      mstore\n      0x20\n      add\n      swap1\n      dup2\n      mstore\n      0x20\n      add\n      0x00\n      keccak256\n      0x00\n      swap1\n      sload\n      swap1\n      0x0100\n      exp\n      swap1\n      div\n      0xff\n      and\n        /* \"levelup/base.sol\":1445:1510  require(registeredContracts[_contract],\"contract not registered\") */\n      tag_117\n      jumpi\n      mload(0x40)\n      0x08c379a000000000000000000000000000000000000000000000000000000000\n      dup2\n      mstore\n      0x04\n      add\n      tag_118\n      swap1\n      tag_119\n      jump\t// in\n    tag_118:\n      mload(0x40)\n      dup1\n      swap2\n      sub\n      swap1\n      revert\n    tag_117:\n        /* \"levelup/base.sol\":1527:1539  playerStatus */\n      0x03\n        /* \"levelup/base.sol\":1527:1548  playerStatus[_player] */\n      0x00\n        /* \"levelup/base.sol\":1540:1547  _player */\n      dup5\n        /* \"levelup/base.sol\":1527:1548  playerStatus[_player] */\n      0xffffffffffffffffffffffffffffffffffffffff\n      and\n      0xffffffffffffffffffffffffffffffffffffffff\n      and\n      dup2\n      mstore\n      0x20\n      add\n      swap1\n      dup2\n      mstore\n      0x20\n      add\n      0x00\n      keccak256\n        /* \"levelup/base.sol\":1527:1559  playerStatus[_player][_contract] */\n      0x00\n        /* \"levelup/base.sol\":1549:1558  _contract */\n      dup4\n        /* \"levelup/base.sol\":1527:1559  playerStatus[_player][_contract] */\n      0xffffffffffffffffffffffffffffffffffffffff\n      and\n      0xffffffffffffffffffffffffffffffffffffffff\n      and\n      dup2\n      mstore\n      0x20\n      add\n      swap1\n      dup2\n      mstore\n      0x20\n      add\n      0x00\n      keccak256\n        /* \"levelup/base.sol\":1520:1559  return playerStatus[_player][_contract] */\n      mload(0x40)\n      dup1\n      0x60\n      add\n      0x40\n      mstore\n      swap1\n      dup2\n      0x00\n      dup3\n      add\n      sload\n      dup2\n      mstore\n      0x20\n      add\n      0x01\n      dup3\n      add\n      dup1\n      sload\n      tag_120\n      swap1\n      tag_82\n      jump\t// in\n    tag_120:\n      dup1\n      0x1f\n      add\n      0x20\n      dup1\n      swap2\n      div\n      mul\n      0x20\n      add\n      mload(0x40)\n      swap1\n      dup2\n      add\n      0x40\n      mstore\n      dup1\n      swap3\n      swap2\n      swap1\n      dup2\n      dup2\n      mstore\n      0x20\n      add\n      dup3\n      dup1\n      sload\n      tag_121\n      swap1\n      tag_82\n      jump\t// in\n    tag_121:\n      dup1\n      iszero\n      tag_122\n      jumpi\n      dup1\n      0x1f\n      lt\n      tag_123\n      jumpi\n      0x0100\n      dup1\n      dup4\n      sload\n      div\n      mul\n      dup4\n      mstore\n      swap2\n      0x20\n      add\n      swap2\n      jump(tag_122)\n    tag_123:\n      dup3\n      add\n      swap2\n      swap1\n      0x00\n      mstore\n      keccak256(0x00, 0x20)\n      swap1\n    tag_124:\n      dup2\n      sload\n      dup2\n      mstore\n      swap1\n      0x01\n      add\n      swap1\n      0x20\n      add\n      dup1\n      dup4\n      gt\n      tag_124\n      jumpi\n      dup3\n      swap1\n      sub\n      0x1f\n      and\n      dup3\n      add\n      swap2\n    tag_122:\n      pop\n      pop\n      pop\n      pop\n      pop\n      dup2\n      mstore\n      0x20\n      add\n      0x02\n      dup3\n      add\n      0x00\n      swap1\n      sload\n      swap1\n      0x0100\n      exp\n      swap1\n      div\n      0xff\n      and\n      iszero\n      iszero\n      iszero\n      iszero\n      dup2\n      mstore\n      pop\n      pop\n      swap1\n      pop\n        /* \"levelup/base.sol\":1248:1566  function getPlayerStatus(address _player, address _contract) public view onlyOwner returns(levelStatus memory){... */\n      swap3\n      swap2\n      pop\n      pop\n      jump\t// out\n        /* \"@openzeppelin/contracts/access/Ownable.sol\":2074:2272  function transferOwnership(address newOwner) public virtual onlyOwner {... */\n    tag_59:\n        /* \"@openzeppelin/contracts/access/Ownable.sol\":1094:1107  _checkOwner() */\n      tag_126\n        /* \"@openzeppelin/contracts/access/Ownable.sol\":1094:1105  _checkOwner */\n      tag_66\n        /* \"@openzeppelin/contracts/access/Ownable.sol\":1094:1107  _checkOwner() */\n      jump\t// in\n    tag_126:\n        /* \"@openzeppelin/contracts/access/Ownable.sol\":2182:2183  0 */\n      0x00\n        /* \"@openzeppelin/contracts/access/Ownable.sol\":2162:2184  newOwner != address(0) */\n      0xffffffffffffffffffffffffffffffffffffffff\n      and\n        /* \"@openzeppelin/contracts/access/Ownable.sol\":2162:2170  newOwner */\n      dup2\n        /* \"@openzeppelin/contracts/access/Ownable.sol\":2162:2184  newOwner != address(0) */\n      0xffffffffffffffffffffffffffffffffffffffff\n      and\n      sub\n        /* \"@openzeppelin/contracts/access/Ownable.sol\":2154:2227  require(newOwner != address(0), \"Ownable: new owner is the zero address\") */\n      tag_128\n      jumpi\n      mload(0x40)\n      0x08c379a000000000000000000000000000000000000000000000000000000000\n      dup2\n      mstore\n      0x04\n      add\n      tag_129\n      swap1\n      tag_130\n      jump\t// in\n    tag_129:\n      mload(0x40)\n      dup1\n      swap2\n      sub\n      swap1\n      revert\n    tag_128:\n        /* \"@openzeppelin/contracts/access/Ownable.sol\":2237:2265  _transferOwnership(newOwner) */\n      tag_131\n        /* \"@openzeppelin/contracts/access/Ownable.sol\":2256:2264  newOwner */\n      dup2\n        /* \"@openzeppelin/contracts/access/Ownable.sol\":2237:2255  _transferOwnership */\n      tag_104\n        /* \"@openzeppelin/contracts/access/Ownable.sol\":2237:2265  _transferOwnership(newOwner) */\n      jump\t// in\n    tag_131:\n        /* \"@openzeppelin/contracts/access/Ownable.sol\":2074:2272  function transferOwnership(address newOwner) public virtual onlyOwner {... */\n      pop\n      jump\t// out\n        /* \"levelup/base.sol\":1056:1242  function delContract(address _contract) public onlyOwner{... */\n    tag_63:\n        /* \"@openzeppelin/contracts/access/Ownable.sol\":1094:1107  _checkOwner() */\n      tag_133\n        /* \"@openzeppelin/contracts/access/Ownable.sol\":1094:1105  _checkOwner */\n      tag_66\n        /* \"@openzeppelin/contracts/access/Ownable.sol\":1094:1107  _checkOwner() */\n      jump\t// in\n    tag_133:\n        /* \"levelup/base.sol\":1130:1149  registeredContracts */\n      0x01\n        /* \"levelup/base.sol\":1130:1160  registeredContracts[_contract] */\n      0x00\n        /* \"levelup/base.sol\":1150:1159  _contract */\n      dup3\n        /* \"levelup/base.sol\":1130:1160  registeredContracts[_contract] */\n      0xffffffffffffffffffffffffffffffffffffffff\n      and\n      0xffffffffffffffffffffffffffffffffffffffff\n      and\n      dup2\n      mstore\n      0x20\n      add\n      swap1\n      dup2\n      mstore\n      0x20\n      add\n      0x00\n      keccak256\n      0x00\n      swap1\n      sload\n      swap1\n      0x0100\n      exp\n      swap1\n      div\n      0xff\n      and\n        /* \"levelup/base.sol\":1122:1187  require(registeredContracts[_contract],\"contract not registered\") */\n      tag_135\n      jumpi\n      mload(0x40)\n      0x08c379a000000000000000000000000000000000000000000000000000000000\n      dup2\n      mstore\n      0x04\n      add\n      tag_136\n      swap1\n      tag_119\n      jump\t// in\n    tag_136:\n      mload(0x40)\n      dup1\n      swap2\n      sub\n      swap1\n      revert\n    tag_135:\n        /* \"levelup/base.sol\":1230:1235  false */\n      0x00\n        /* \"levelup/base.sol\":1197:1216  registeredContracts */\n      0x01\n        /* \"levelup/base.sol\":1197:1227  registeredContracts[_contract] */\n      0x00\n        /* \"levelup/base.sol\":1217:1226  _contract */\n      dup4\n        /* \"levelup/base.sol\":1197:1227  registeredContracts[_contract] */\n      0xffffffffffffffffffffffffffffffffffffffff\n      and\n      0xffffffffffffffffffffffffffffffffffffffff\n      and\n      dup2\n      mstore\n      0x20\n      add\n      swap1\n      dup2\n      mstore\n      0x20\n      add\n      0x00\n      keccak256\n      0x00\n        /* \"levelup/base.sol\":1197:1235  registeredContracts[_contract] = false */\n      0x0100\n      exp\n      dup2\n      sload\n      dup2\n      0xff\n      mul\n      not\n      and\n      swap1\n      dup4\n      iszero\n      iszero\n      mul\n      or\n      swap1\n      sstore\n      pop\n        /* \"levelup/base.sol\":1056:1242  function delContract(address _contract) public onlyOwner{... */\n      pop\n      jump\t// out\n        /* \"@openzeppelin/contracts/access/Ownable.sol\":1359:1489  function _checkOwner() internal view virtual {... */\n    tag_66:\n        /* \"@openzeppelin/contracts/access/Ownable.sol\":1433:1445  _msgSender() */\n      tag_138\n        /* \"@openzeppelin/contracts/access/Ownable.sol\":1433:1443  _msgSender */\n      tag_139\n        /* \"@openzeppelin/contracts/access/Ownable.sol\":1433:1445  _msgSender() */\n      jump\t// in\n    tag_138:\n        /* \"@openzeppelin/contracts/access/Ownable.sol\":1422:1445  owner() == _msgSender() */\n      0xffffffffffffffffffffffffffffffffffffffff\n      and\n        /* \"@openzeppelin/contracts/access/Ownable.sol\":1422:1429  owner() */\n      tag_140\n        /* \"@openzeppelin/contracts/access/Ownable.sol\":1422:1427  owner */\n      tag_47\n        /* \"@openzeppelin/contracts/access/Ownable.sol\":1422:1429  owner() */\n      jump\t// in\n    tag_140:\n        /* \"@openzeppelin/contracts/access/Ownable.sol\":1422:1445  owner() == _msgSender() */\n      0xffffffffffffffffffffffffffffffffffffffff\n      and\n      eq\n        /* \"@openzeppelin/contracts/access/Ownable.sol\":1414:1482  require(owner() == _msgSender(), \"Ownable: caller is not the owner\") */\n      tag_141\n      jumpi\n      mload(0x40)\n      0x08c379a000000000000000000000000000000000000000000000000000000000\n      dup2\n      mstore\n      0x04\n      add\n      tag_142\n      swap1\n      tag_143\n      jump\t// in\n    tag_142:\n      mload(0x40)\n      dup1\n      swap2\n      sub\n      swap1\n      revert\n    tag_141:\n        /* \"@openzeppelin/contracts/access/Ownable.sol\":1359:1489  function _checkOwner() internal view virtual {... */\n      jump\t// out\n        /* \"@openzeppelin/contracts/access/Ownable.sol\":2426:2613  function _transferOwnership(address newOwner) internal virtual {... */\n    tag_104:\n        /* \"@openzeppelin/contracts/access/Ownable.sol\":2499:2515  address oldOwner */\n      0x00\n        /* \"@openzeppelin/contracts/access/Ownable.sol\":2518:2524  _owner */\n      dup1\n      0x00\n      swap1\n      sload\n      swap1\n      0x0100\n      exp\n      swap1\n      div\n      0xffffffffffffffffffffffffffffffffffffffff\n      and\n        /* \"@openzeppelin/contracts/access/Ownable.sol\":2499:2524  address oldOwner = _owner */\n      swap1\n      pop\n        /* \"@openzeppelin/contracts/access/Ownable.sol\":2543:2551  newOwner */\n      dup2\n        /* \"@openzeppelin/contracts/access/Ownable.sol\":2534:2540  _owner */\n      0x00\n      dup1\n        /* \"@openzeppelin/contracts/access/Ownable.sol\":2534:2551  _owner = newOwner */\n      0x0100\n      exp\n      dup2\n      sload\n      dup2\n      0xffffffffffffffffffffffffffffffffffffffff\n      mul\n      not\n      and\n      swap1\n      dup4\n      0xffffffffffffffffffffffffffffffffffffffff\n      and\n      mul\n      or\n      swap1\n      sstore\n      pop\n        /* \"@openzeppelin/contracts/access/Ownable.sol\":2597:2605  newOwner */\n      dup2\n        /* \"@openzeppelin/contracts/access/Ownable.sol\":2566:2606  OwnershipTransferred(oldOwner, newOwner) */\n      0xffffffffffffffffffffffffffffffffffffffff\n      and\n        /* \"@openzeppelin/contracts/access/Ownable.sol\":2587:2595  oldOwner */\n      dup2\n        /* \"@openzeppelin/contracts/access/Ownable.sol\":2566:2606  OwnershipTransferred(oldOwner, newOwner) */\n      0xffffffffffffffffffffffffffffffffffffffff\n      and\n      0x8be0079c531659141344cd1fd0a4f28419497f9722a3daafe3b4186f6b6457e0\n      mload(0x40)\n      mload(0x40)\n      dup1\n      swap2\n      sub\n      swap1\n      log3\n        /* \"@openzeppelin/contracts/access/Ownable.sol\":2489:2613  {... */\n      pop\n        /* \"@openzeppelin/contracts/access/Ownable.sol\":2426:2613  function _transferOwnership(address newOwner) internal virtual {... */\n      pop\n      jump\t// out\n        /* \"@openzeppelin/contracts/utils/Context.sol\":640:736  function _msgSender() internal view virtual returns (address) {... */\n    tag_139:\n        /* \"@openzeppelin/contracts/utils/Context.sol\":693:700  address */\n      0x00\n        /* \"@openzeppelin/contracts/utils/Context.sol\":719:729  msg.sender */\n      caller\n        /* \"@openzeppelin/contracts/utils/Context.sol\":712:729  return msg.sender */\n      swap1\n      pop\n        /* \"@openzeppelin/contracts/utils/Context.sol\":640:736  function _msgSender() internal view virtual returns (address) {... */\n      swap1\n      jump\t// out\n    tag_111:\n      mload(0x40)\n      dup1\n      0x60\n      add\n      0x40\n      mstore\n      dup1\n      0x00\n      dup2\n      mstore\n      0x20\n      add\n      0x60\n      dup2\n      mstore\n      0x20\n      add\n      iszero(iszero(0x00))\n      dup2\n      mstore\n      pop\n      swap1\n      jump\t// out\n        /* \"#utility.yul\":7:82   */\n    tag_146:\n        /* \"#utility.yul\":40:46   */\n      0x00\n        /* \"#utility.yul\":73:75   */\n      0x40\n        /* \"#utility.yul\":67:76   */\n      mload\n        /* \"#utility.yul\":57:76   */\n      swap1\n      pop\n        /* \"#utility.yul\":7:82   */\n      swap1\n      jump\t// out\n        /* \"#utility.yul\":88:205   */\n    tag_147:\n        /* \"#utility.yul\":197:198   */\n      0x00\n        /* \"#utility.yul\":194:195   */\n      dup1\n        /* \"#utility.yul\":187:199   */\n      revert\n        /* \"#utility.yul\":211:328   */\n    tag_148:\n        /* \"#utility.yul\":320:321   */\n      0x00\n        /* \"#utility.yul\":317:318   */\n      dup1\n        /* \"#utility.yul\":310:322   */\n      revert\n        /* \"#utility.yul\":334:460   */\n    tag_149:\n        /* \"#utility.yul\":371:378   */\n      0x00\n        /* \"#utility.yul\":411:453   */\n      0xffffffffffffffffffffffffffffffffffffffff\n        /* \"#utility.yul\":404:409   */\n      dup3\n        /* \"#utility.yul\":400:454   */\n      and\n        /* \"#utility.yul\":389:454   */\n      swap1\n      pop\n        /* \"#utility.yul\":334:460   */\n      swap2\n      swap1\n      pop\n      jump\t// out\n        /* \"#utility.yul\":466:562   */\n    tag_150:\n        /* \"#utility.yul\":503:510   */\n      0x00\n        /* \"#utility.yul\":532:556   */\n      tag_219\n        /* \"#utility.yul\":550:555   */\n      dup3\n        /* \"#utility.yul\":532:556   */\n      tag_149\n      jump\t// in\n    tag_219:\n        /* \"#utility.yul\":521:556   */\n      swap1\n      pop\n        /* \"#utility.yul\":466:562   */\n      swap2\n      swap1\n      pop\n      jump\t// out\n        /* \"#utility.yul\":568:690   */\n    tag_151:\n        /* \"#utility.yul\":641:665   */\n      tag_221\n        /* \"#utility.yul\":659:664   */\n      dup2\n        /* \"#utility.yul\":641:665   */\n      tag_150\n      jump\t// in\n    tag_221:\n        /* \"#utility.yul\":634:639   */\n      dup2\n        /* \"#utility.yul\":631:666   */\n      eq\n        /* \"#utility.yul\":621:684   */\n      tag_222\n      jumpi\n        /* \"#utility.yul\":680:681   */\n      0x00\n        /* \"#utility.yul\":677:678   */\n      dup1\n        /* \"#utility.yul\":670:682   */\n      revert\n        /* \"#utility.yul\":621:684   */\n    tag_222:\n        /* \"#utility.yul\":568:690   */\n      pop\n      jump\t// out\n        /* \"#utility.yul\":696:835   */\n    tag_152:\n        /* \"#utility.yul\":742:747   */\n      0x00\n        /* \"#utility.yul\":780:786   */\n      dup2\n        /* \"#utility.yul\":767:787   */\n      calldataload\n        /* \"#utility.yul\":758:787   */\n      swap1\n      pop\n        /* \"#utility.yul\":796:829   */\n      tag_224\n        /* \"#utility.yul\":823:828   */\n      dup2\n        /* \"#utility.yul\":796:829   */\n      tag_151\n      jump\t// in\n    tag_224:\n        /* \"#utility.yul\":696:835   */\n      swap3\n      swap2\n      pop\n      pop\n      jump\t// out\n        /* \"#utility.yul\":841:918   */\n    tag_153:\n        /* \"#utility.yul\":878:885   */\n      0x00\n        /* \"#utility.yul\":907:912   */\n      dup2\n        /* \"#utility.yul\":896:912   */\n      swap1\n      pop\n        /* \"#utility.yul\":841:918   */\n      swap2\n      swap1\n      pop\n      jump\t// out\n        /* \"#utility.yul\":924:1046   */\n    tag_154:\n        /* \"#utility.yul\":997:1021   */\n      tag_227\n        /* \"#utility.yul\":1015:1020   */\n      dup2\n        /* \"#utility.yul\":997:1021   */\n      tag_153\n      jump\t// in\n    tag_227:\n        /* \"#utility.yul\":990:995   */\n      dup2\n        /* \"#utility.yul\":987:1022   */\n      eq\n        /* \"#utility.yul\":977:1040   */\n      tag_228\n      jumpi\n        /* \"#utility.yul\":1036:1037   */\n      0x00\n        /* \"#utility.yul\":1033:1034   */\n      dup1\n        /* \"#utility.yul\":1026:1038   */\n      revert\n        /* \"#utility.yul\":977:1040   */\n    tag_228:\n        /* \"#utility.yul\":924:1046   */\n      pop\n      jump\t// out\n        /* \"#utility.yul\":1052:1191   */\n    tag_155:\n        /* \"#utility.yul\":1098:1103   */\n      0x00\n        /* \"#utility.yul\":1136:1142   */\n      dup2\n        /* \"#utility.yul\":1123:1143   */\n      calldataload\n        /* \"#utility.yul\":1114:1143   */\n      swap1\n      pop\n        /* \"#utility.yul\":1152:1185   */\n      tag_230\n        /* \"#utility.yul\":1179:1184   */\n      dup2\n        /* \"#utility.yul\":1152:1185   */\n      tag_154\n      jump\t// in\n    tag_230:\n        /* \"#utility.yul\":1052:1191   */\n      swap3\n      swap2\n      pop\n      pop\n      jump\t// out\n        /* \"#utility.yul\":1197:1314   */\n    tag_156:\n        /* \"#utility.yul\":1306:1307   */\n      0x00\n        /* \"#utility.yul\":1303:1304   */\n      dup1\n        /* \"#utility.yul\":1296:1308   */\n      revert\n        /* \"#utility.yul\":1320:1437   */\n    tag_157:\n        /* \"#utility.yul\":1429:1430   */\n      0x00\n        /* \"#utility.yul\":1426:1427   */\n      dup1\n        /* \"#utility.yul\":1419:1431   */\n      revert\n        /* \"#utility.yul\":1443:1545   */\n    tag_158:\n        /* \"#utility.yul\":1484:1490   */\n      0x00\n        /* \"#utility.yul\":1535:1537   */\n      0x1f\n        /* \"#utility.yul\":1531:1538   */\n      not\n        /* \"#utility.yul\":1526:1528   */\n      0x1f\n        /* \"#utility.yul\":1519:1524   */\n      dup4\n        /* \"#utility.yul\":1515:1529   */\n      add\n        /* \"#utility.yul\":1511:1539   */\n      and\n        /* \"#utility.yul\":1501:1539   */\n      swap1\n      pop\n        /* \"#utility.yul\":1443:1545   */\n      swap2\n      swap1\n      pop\n      jump\t// out\n        /* \"#utility.yul\":1551:1731   */\n    tag_159:\n        /* \"#utility.yul\":1599:1676   */\n      0x4e487b7100000000000000000000000000000000000000000000000000000000\n        /* \"#utility.yul\":1596:1597   */\n      0x00\n        /* \"#utility.yul\":1589:1677   */\n      mstore\n        /* \"#utility.yul\":1696:1700   */\n      0x41\n        /* \"#utility.yul\":1693:1694   */\n      0x04\n        /* \"#utility.yul\":1686:1701   */\n      mstore\n        /* \"#utility.yul\":1720:1724   */\n      0x24\n        /* \"#utility.yul\":1717:1718   */\n      0x00\n        /* \"#utility.yul\":1710:1725   */\n      revert\n        /* \"#utility.yul\":1737:2018   */\n    tag_160:\n        /* \"#utility.yul\":1820:1847   */\n      tag_236\n        /* \"#utility.yul\":1842:1846   */\n      dup3\n        /* \"#utility.yul\":1820:1847   */\n      tag_158\n      jump\t// in\n    tag_236:\n        /* \"#utility.yul\":1812:1818   */\n      dup2\n        /* \"#utility.yul\":1808:1848   */\n      add\n        /* \"#utility.yul\":1950:1956   */\n      dup2\n        /* \"#utility.yul\":1938:1948   */\n      dup2\n        /* \"#utility.yul\":1935:1957   */\n      lt\n        /* \"#utility.yul\":1914:1932   */\n      0xffffffffffffffff\n        /* \"#utility.yul\":1902:1912   */\n      dup3\n        /* \"#utility.yul\":1899:1933   */\n      gt\n        /* \"#utility.yul\":1896:1958   */\n      or\n        /* \"#utility.yul\":1893:1981   */\n      iszero\n      tag_237\n      jumpi\n        /* \"#utility.yul\":1961:1979   */\n      tag_238\n      tag_159\n      jump\t// in\n    tag_238:\n        /* \"#utility.yul\":1893:1981   */\n    tag_237:\n        /* \"#utility.yul\":2001:2011   */\n      dup1\n        /* \"#utility.yul\":1997:1999   */\n      0x40\n        /* \"#utility.yul\":1990:2012   */\n      mstore\n        /* \"#utility.yul\":1780:2018   */\n      pop\n        /* \"#utility.yul\":1737:2018   */\n      pop\n      pop\n      jump\t// out\n        /* \"#utility.yul\":2024:2153   */\n    tag_161:\n        /* \"#utility.yul\":2058:2064   */\n      0x00\n        /* \"#utility.yul\":2085:2105   */\n      tag_240\n      tag_146\n      jump\t// in\n    tag_240:\n        /* \"#utility.yul\":2075:2105   */\n      swap1\n      pop\n        /* \"#utility.yul\":2114:2147   */\n      tag_241\n        /* \"#utility.yul\":2142:2146   */\n      dup3\n        /* \"#utility.yul\":2134:2140   */\n      dup3\n        /* \"#utility.yul\":2114:2147   */\n      tag_160\n      jump\t// in\n    tag_241:\n        /* \"#utility.yul\":2024:2153   */\n      swap2\n      swap1\n      pop\n      jump\t// out\n        /* \"#utility.yul\":2159:2467   */\n    tag_162:\n        /* \"#utility.yul\":2221:2225   */\n      0x00\n        /* \"#utility.yul\":2311:2329   */\n      0xffffffffffffffff\n        /* \"#utility.yul\":2303:2309   */\n      dup3\n        /* \"#utility.yul\":2300:2330   */\n      gt\n        /* \"#utility.yul\":2297:2353   */\n      iszero\n      tag_243\n      jumpi\n        /* \"#utility.yul\":2333:2351   */\n      tag_244\n      tag_159\n      jump\t// in\n    tag_244:\n        /* \"#utility.yul\":2297:2353   */\n    tag_243:\n        /* \"#utility.yul\":2371:2400   */\n      tag_245\n        /* \"#utility.yul\":2393:2399   */\n      dup3\n        /* \"#utility.yul\":2371:2400   */\n      tag_158\n      jump\t// in\n    tag_245:\n        /* \"#utility.yul\":2363:2400   */\n      swap1\n      pop\n        /* \"#utility.yul\":2455:2459   */\n      0x20\n        /* \"#utility.yul\":2449:2453   */\n      dup2\n        /* \"#utility.yul\":2445:2460   */\n      add\n        /* \"#utility.yul\":2437:2460   */\n      swap1\n      pop\n        /* \"#utility.yul\":2159:2467   */\n      swap2\n      swap1\n      pop\n      jump\t// out\n        /* \"#utility.yul\":2473:2619   */\n    tag_163:\n        /* \"#utility.yul\":2570:2576   */\n      dup3\n        /* \"#utility.yul\":2565:2568   */\n      dup2\n        /* \"#utility.yul\":2560:2563   */\n      dup4\n        /* \"#utility.yul\":2547:2577   */\n      calldatacopy\n        /* \"#utility.yul\":2611:2612   */\n      0x00\n        /* \"#utility.yul\":2602:2608   */\n      dup4\n        /* \"#utility.yul\":2597:2600   */\n      dup4\n        /* \"#utility.yul\":2593:2609   */\n      add\n        /* \"#utility.yul\":2586:2613   */\n      mstore\n        /* \"#utility.yul\":2473:2619   */\n      pop\n      pop\n      pop\n      jump\t// out\n        /* \"#utility.yul\":2625:3050   */\n    tag_164:\n        /* \"#utility.yul\":2703:2708   */\n      0x00\n        /* \"#utility.yul\":2728:2794   */\n      tag_248\n        /* \"#utility.yul\":2744:2793   */\n      tag_249\n        /* \"#utility.yul\":2786:2792   */\n      dup5\n        /* \"#utility.yul\":2744:2793   */\n      tag_162\n      jump\t// in\n    tag_249:\n        /* \"#utility.yul\":2728:2794   */\n      tag_161\n      jump\t// in\n    tag_248:\n        /* \"#utility.yul\":2719:2794   */\n      swap1\n      pop\n        /* \"#utility.yul\":2817:2823   */\n      dup3\n        /* \"#utility.yul\":2810:2815   */\n      dup2\n        /* \"#utility.yul\":2803:2824   */\n      mstore\n        /* \"#utility.yul\":2855:2859   */\n      0x20\n        /* \"#utility.yul\":2848:2853   */\n      dup2\n        /* \"#utility.yul\":2844:2860   */\n      add\n        /* \"#utility.yul\":2893:2896   */\n      dup5\n        /* \"#utility.yul\":2884:2890   */\n      dup5\n        /* \"#utility.yul\":2879:2882   */\n      dup5\n        /* \"#utility.yul\":2875:2891   */\n      add\n        /* \"#utility.yul\":2872:2897   */\n      gt\n        /* \"#utility.yul\":2869:2981   */\n      iszero\n      tag_250\n      jumpi\n        /* \"#utility.yul\":2900:2979   */\n      tag_251\n      tag_157\n      jump\t// in\n    tag_251:\n        /* \"#utility.yul\":2869:2981   */\n    tag_250:\n        /* \"#utility.yul\":2990:3044   */\n      tag_252\n        /* \"#utility.yul\":3037:3043   */\n      dup5\n        /* \"#utility.yul\":3032:3035   */\n      dup3\n        /* \"#utility.yul\":3027:3030   */\n      dup6\n        /* \"#utility.yul\":2990:3044   */\n      tag_163\n      jump\t// in\n    tag_252:\n        /* \"#utility.yul\":2709:3050   */\n      pop\n        /* \"#utility.yul\":2625:3050   */\n      swap4\n      swap3\n      pop\n      pop\n      pop\n      jump\t// out\n        /* \"#utility.yul\":3070:3410   */\n    tag_165:\n        /* \"#utility.yul\":3126:3131   */\n      0x00\n        /* \"#utility.yul\":3175:3178   */\n      dup3\n        /* \"#utility.yul\":3168:3172   */\n      0x1f\n        /* \"#utility.yul\":3160:3166   */\n      dup4\n        /* \"#utility.yul\":3156:3173   */\n      add\n        /* \"#utility.yul\":3152:3179   */\n      slt\n        /* \"#utility.yul\":3142:3264   */\n      tag_254\n      jumpi\n        /* \"#utility.yul\":3183:3262   */\n      tag_255\n      tag_156\n      jump\t// in\n    tag_255:\n        /* \"#utility.yul\":3142:3264   */\n    tag_254:\n        /* \"#utility.yul\":3300:3306   */\n      dup2\n        /* \"#utility.yul\":3287:3307   */\n      calldataload\n        /* \"#utility.yul\":3325:3404   */\n      tag_256\n        /* \"#utility.yul\":3400:3403   */\n      dup5\n        /* \"#utility.yul\":3392:3398   */\n      dup3\n        /* \"#utility.yul\":3385:3389   */\n      0x20\n        /* \"#utility.yul\":3377:3383   */\n      dup7\n        /* \"#utility.yul\":3373:3390   */\n      add\n        /* \"#utility.yul\":3325:3404   */\n      tag_164\n      jump\t// in\n    tag_256:\n        /* \"#utility.yul\":3316:3404   */\n      swap2\n      pop\n        /* \"#utility.yul\":3132:3410   */\n      pop\n        /* \"#utility.yul\":3070:3410   */\n      swap3\n      swap2\n      pop\n      pop\n      jump\t// out\n        /* \"#utility.yul\":3416:4361   */\n    tag_17:\n        /* \"#utility.yul\":3512:3518   */\n      0x00\n        /* \"#utility.yul\":3520:3526   */\n      dup1\n        /* \"#utility.yul\":3528:3534   */\n      0x00\n        /* \"#utility.yul\":3536:3542   */\n      dup1\n        /* \"#utility.yul\":3585:3588   */\n      0x80\n        /* \"#utility.yul\":3573:3582   */\n      dup6\n        /* \"#utility.yul\":3564:3571   */\n      dup8\n        /* \"#utility.yul\":3560:3583   */\n      sub\n        /* \"#utility.yul\":3556:3589   */\n      slt\n        /* \"#utility.yul\":3553:3673   */\n      iszero\n      tag_258\n      jumpi\n        /* \"#utility.yul\":3592:3671   */\n      tag_259\n      tag_147\n      jump\t// in\n    tag_259:\n        /* \"#utility.yul\":3553:3673   */\n    tag_258:\n        /* \"#utility.yul\":3712:3713   */\n      0x00\n        /* \"#utility.yul\":3737:3790   */\n      tag_260\n        /* \"#utility.yul\":3782:3789   */\n      dup8\n        /* \"#utility.yul\":3773:3779   */\n      dup3\n        /* \"#utility.yul\":3762:3771   */\n      dup9\n        /* \"#utility.yul\":3758:3780   */\n      add\n        /* \"#utility.yul\":3737:3790   */\n      tag_152\n      jump\t// in\n    tag_260:\n        /* \"#utility.yul\":3727:3790   */\n      swap5\n      pop\n        /* \"#utility.yul\":3683:3800   */\n      pop\n        /* \"#utility.yul\":3839:3841   */\n      0x20\n        /* \"#utility.yul\":3865:3918   */\n      tag_261\n        /* \"#utility.yul\":3910:3917   */\n      dup8\n        /* \"#utility.yul\":3901:3907   */\n      dup3\n        /* \"#utility.yul\":3890:3899   */\n      dup9\n        /* \"#utility.yul\":3886:3908   */\n      add\n        /* \"#utility.yul\":3865:3918   */\n      tag_152\n      jump\t// in\n    tag_261:\n        /* \"#utility.yul\":3855:3918   */\n      swap4\n      pop\n        /* \"#utility.yul\":3810:3928   */\n      pop\n        /* \"#utility.yul\":3967:3969   */\n      0x40\n        /* \"#utility.yul\":3993:4046   */\n      tag_262\n        /* \"#utility.yul\":4038:4045   */\n      dup8\n        /* \"#utility.yul\":4029:4035   */\n      dup3\n        /* \"#utility.yul\":4018:4027   */\n      dup9\n        /* \"#utility.yul\":4014:4036   */\n      add\n        /* \"#utility.yul\":3993:4046   */\n      tag_155\n      jump\t// in\n    tag_262:\n        /* \"#utility.yul\":3983:4046   */\n      swap3\n      pop\n        /* \"#utility.yul\":3938:4056   */\n      pop\n        /* \"#utility.yul\":4123:4125   */\n      0x60\n        /* \"#utility.yul\":4112:4121   */\n      dup6\n        /* \"#utility.yul\":4108:4126   */\n      add\n        /* \"#utility.yul\":4095:4127   */\n      calldataload\n        /* \"#utility.yul\":4154:4172   */\n      0xffffffffffffffff\n        /* \"#utility.yul\":4146:4152   */\n      dup2\n        /* \"#utility.yul\":4143:4173   */\n      gt\n        /* \"#utility.yul\":4140:4257   */\n      iszero\n      tag_263\n      jumpi\n        /* \"#utility.yul\":4176:4255   */\n      tag_264\n      tag_148\n      jump\t// in\n    tag_264:\n        /* \"#utility.yul\":4140:4257   */\n    tag_263:\n        /* \"#utility.yul\":4281:4344   */\n      tag_265\n        /* \"#utility.yul\":4336:4343   */\n      dup8\n        /* \"#utility.yul\":4327:4333   */\n      dup3\n        /* \"#utility.yul\":4316:4325   */\n      dup9\n        /* \"#utility.yul\":4312:4334   */\n      add\n        /* \"#utility.yul\":4281:4344   */\n      tag_165\n      jump\t// in\n    tag_265:\n        /* \"#utility.yul\":4271:4344   */\n      swap2\n      pop\n        /* \"#utility.yul\":4066:4354   */\n      pop\n        /* \"#utility.yul\":3416:4361   */\n      swap3\n      swap6\n      swap2\n      swap5\n      pop\n      swap3\n      pop\n      jump\t// out\n        /* \"#utility.yul\":4367:5021   */\n    tag_24:\n        /* \"#utility.yul\":4445:4451   */\n      0x00\n        /* \"#utility.yul\":4453:4459   */\n      dup1\n        /* \"#utility.yul\":4502:4504   */\n      0x40\n        /* \"#utility.yul\":4490:4499   */\n      dup4\n        /* \"#utility.yul\":4481:4488   */\n      dup6\n        /* \"#utility.yul\":4477:4500   */\n      sub\n        /* \"#utility.yul\":4473:4505   */\n      slt\n        /* \"#utility.yul\":4470:4589   */\n      iszero\n      tag_267\n      jumpi\n        /* \"#utility.yul\":4508:4587   */\n      tag_268\n      tag_147\n      jump\t// in\n    tag_268:\n        /* \"#utility.yul\":4470:4589   */\n    tag_267:\n        /* \"#utility.yul\":4628:4629   */\n      0x00\n        /* \"#utility.yul\":4653:4706   */\n      tag_269\n        /* \"#utility.yul\":4698:4705   */\n      dup6\n        /* \"#utility.yul\":4689:4695   */\n      dup3\n        /* \"#utility.yul\":4678:4687   */\n      dup7\n        /* \"#utility.yul\":4674:4696   */\n      add\n        /* \"#utility.yul\":4653:4706   */\n      tag_152\n      jump\t// in\n    tag_269:\n        /* \"#utility.yul\":4643:4706   */\n      swap3\n      pop\n        /* \"#utility.yul\":4599:4716   */\n      pop\n        /* \"#utility.yul\":4783:4785   */\n      0x20\n        /* \"#utility.yul\":4772:4781   */\n      dup4\n        /* \"#utility.yul\":4768:4786   */\n      add\n        /* \"#utility.yul\":4755:4787   */\n      calldataload\n        /* \"#utility.yul\":4814:4832   */\n      0xffffffffffffffff\n        /* \"#utility.yul\":4806:4812   */\n      dup2\n        /* \"#utility.yul\":4803:4833   */\n      gt\n        /* \"#utility.yul\":4800:4917   */\n      iszero\n      tag_270\n      jumpi\n        /* \"#utility.yul\":4836:4915   */\n      tag_271\n      tag_148\n      jump\t// in\n    tag_271:\n        /* \"#utility.yul\":4800:4917   */\n    tag_270:\n        /* \"#utility.yul\":4941:5004   */\n      tag_272\n        /* \"#utility.yul\":4996:5003   */\n      dup6\n        /* \"#utility.yul\":4987:4993   */\n      dup3\n        /* \"#utility.yul\":4976:4985   */\n      dup7\n        /* \"#utility.yul\":4972:4994   */\n      add\n        /* \"#utility.yul\":4941:5004   */\n      tag_165\n      jump\t// in\n    tag_272:\n        /* \"#utility.yul\":4931:5004   */\n      swap2\n      pop\n        /* \"#utility.yul\":4726:5014   */\n      pop\n        /* \"#utility.yul\":4367:5021   */\n      swap3\n      pop\n      swap3\n      swap1\n      pop\n      jump\t// out\n        /* \"#utility.yul\":5027:5356   */\n    tag_29:\n        /* \"#utility.yul\":5086:5092   */\n      0x00\n        /* \"#utility.yul\":5135:5137   */\n      0x20\n        /* \"#utility.yul\":5123:5132   */\n      dup3\n        /* \"#utility.yul\":5114:5121   */\n      dup5\n        /* \"#utility.yul\":5110:5133   */\n      sub\n        /* \"#utility.yul\":5106:5138   */\n      slt\n        /* \"#utility.yul\":5103:5222   */\n      iszero\n      tag_274\n      jumpi\n        /* \"#utility.yul\":5141:5220   */\n      tag_275\n      tag_147\n      jump\t// in\n    tag_275:\n        /* \"#utility.yul\":5103:5222   */\n    tag_274:\n        /* \"#utility.yul\":5261:5262   */\n      0x00\n        /* \"#utility.yul\":5286:5339   */\n      tag_276\n        /* \"#utility.yul\":5331:5338   */\n      dup5\n        /* \"#utility.yul\":5322:5328   */\n      dup3\n        /* \"#utility.yul\":5311:5320   */\n      dup6\n        /* \"#utility.yul\":5307:5329   */\n      add\n        /* \"#utility.yul\":5286:5339   */\n      tag_152\n      jump\t// in\n    tag_276:\n        /* \"#utility.yul\":5276:5339   */\n      swap2\n      pop\n        /* \"#utility.yul\":5232:5349   */\n      pop\n        /* \"#utility.yul\":5027:5356   */\n      swap3\n      swap2\n      pop\n      pop\n      jump\t// out\n        /* \"#utility.yul\":5362:5452   */\n    tag_166:\n        /* \"#utility.yul\":5396:5403   */\n      0x00\n        /* \"#utility.yul\":5439:5444   */\n      dup2\n        /* \"#utility.yul\":5432:5445   */\n      iszero\n        /* \"#utility.yul\":5425:5446   */\n      iszero\n        /* \"#utility.yul\":5414:5446   */\n      swap1\n      pop\n        /* \"#utility.yul\":5362:5452   */\n      swap2\n      swap1\n      pop\n      jump\t// out\n        /* \"#utility.yul\":5458:5567   */\n    tag_167:\n        /* \"#utility.yul\":5539:5560   */\n      tag_279\n        /* \"#utility.yul\":5554:5559   */\n      dup2\n        /* \"#utility.yul\":5539:5560   */\n      tag_166\n      jump\t// in\n    tag_279:\n        /* \"#utility.yul\":5534:5537   */\n      dup3\n        /* \"#utility.yul\":5527:5561   */\n      mstore\n        /* \"#utility.yul\":5458:5567   */\n      pop\n      pop\n      jump\t// out\n        /* \"#utility.yul\":5573:5783   */\n    tag_32:\n        /* \"#utility.yul\":5660:5664   */\n      0x00\n        /* \"#utility.yul\":5698:5700   */\n      0x20\n        /* \"#utility.yul\":5687:5696   */\n      dup3\n        /* \"#utility.yul\":5683:5701   */\n      add\n        /* \"#utility.yul\":5675:5701   */\n      swap1\n      pop\n        /* \"#utility.yul\":5711:5776   */\n      tag_281\n        /* \"#utility.yul\":5773:5774   */\n      0x00\n        /* \"#utility.yul\":5762:5771   */\n      dup4\n        /* \"#utility.yul\":5758:5775   */\n      add\n        /* \"#utility.yul\":5749:5755   */\n      dup5\n        /* \"#utility.yul\":5711:5776   */\n      tag_167\n      jump\t// in\n    tag_281:\n        /* \"#utility.yul\":5573:5783   */\n      swap3\n      swap2\n      pop\n      pop\n      jump\t// out\n        /* \"#utility.yul\":5789:6263   */\n    tag_42:\n        /* \"#utility.yul\":5857:5863   */\n      0x00\n        /* \"#utility.yul\":5865:5871   */\n      dup1\n        /* \"#utility.yul\":5914:5916   */\n      0x40\n        /* \"#utility.yul\":5902:5911   */\n      dup4\n        /* \"#utility.yul\":5893:5900   */\n      dup6\n        /* \"#utility.yul\":5889:5912   */\n      sub\n        /* \"#utility.yul\":5885:5917   */\n      slt\n        /* \"#utility.yul\":5882:6001   */\n      iszero\n      tag_283\n      jumpi\n        /* \"#utility.yul\":5920:5999   */\n      tag_284\n      tag_147\n      jump\t// in\n    tag_284:\n        /* \"#utility.yul\":5882:6001   */\n    tag_283:\n        /* \"#utility.yul\":6040:6041   */\n      0x00\n        /* \"#utility.yul\":6065:6118   */\n      tag_285\n        /* \"#utility.yul\":6110:6117   */\n      dup6\n        /* \"#utility.yul\":6101:6107   */\n      dup3\n        /* \"#utility.yul\":6090:6099   */\n      dup7\n        /* \"#utility.yul\":6086:6108   */\n      add\n        /* \"#utility.yul\":6065:6118   */\n      tag_152\n      jump\t// in\n    tag_285:\n        /* \"#utility.yul\":6055:6118   */\n      swap3\n      pop\n        /* \"#utility.yul\":6011:6128   */\n      pop\n        /* \"#utility.yul\":6167:6169   */\n      0x20\n        /* \"#utility.yul\":6193:6246   */\n      tag_286\n        /* \"#utility.yul\":6238:6245   */\n      dup6\n        /* \"#utility.yul\":6229:6235   */\n      dup3\n        /* \"#utility.yul\":6218:6227   */\n      dup7\n        /* \"#utility.yul\":6214:6236   */\n      add\n        /* \"#utility.yul\":6193:6246   */\n      tag_152\n      jump\t// in\n    tag_286:\n        /* \"#utility.yul\":6183:6246   */\n      swap2\n      pop\n        /* \"#utility.yul\":6138:6256   */\n      pop\n        /* \"#utility.yul\":5789:6263   */\n      swap3\n      pop\n      swap3\n      swap1\n      pop\n      jump\t// out\n        /* \"#utility.yul\":6269:6387   */\n    tag_168:\n        /* \"#utility.yul\":6356:6380   */\n      tag_288\n        /* \"#utility.yul\":6374:6379   */\n      dup2\n        /* \"#utility.yul\":6356:6380   */\n      tag_150\n      jump\t// in\n    tag_288:\n        /* \"#utility.yul\":6351:6354   */\n      dup3\n        /* \"#utility.yul\":6344:6381   */\n      mstore\n        /* \"#utility.yul\":6269:6387   */\n      pop\n      pop\n      jump\t// out\n        /* \"#utility.yul\":6393:6615   */\n    tag_49:\n        /* \"#utility.yul\":6486:6490   */\n      0x00\n        /* \"#utility.yul\":6524:6526   */\n      0x20\n        /* \"#utility.yul\":6513:6522   */\n      dup3\n        /* \"#utility.yul\":6509:6527   */\n      add\n        /* \"#utility.yul\":6501:6527   */\n      swap1\n      pop\n        /* \"#utility.yul\":6537:6608   */\n      tag_290\n        /* \"#utility.yul\":6605:6606   */\n      0x00\n        /* \"#utility.yul\":6594:6603   */\n      dup4\n        /* \"#utility.yul\":6590:6607   */\n      add\n        /* \"#utility.yul\":6581:6587   */\n      dup5\n        /* \"#utility.yul\":6537:6608   */\n      tag_168\n      jump\t// in\n    tag_290:\n        /* \"#utility.yul\":6393:6615   */\n      swap3\n      swap2\n      pop\n      pop\n      jump\t// out\n        /* \"#utility.yul\":6621:6729   */\n    tag_169:\n        /* \"#utility.yul\":6698:6722   */\n      tag_292\n        /* \"#utility.yul\":6716:6721   */\n      dup2\n        /* \"#utility.yul\":6698:6722   */\n      tag_153\n      jump\t// in\n    tag_292:\n        /* \"#utility.yul\":6693:6696   */\n      dup3\n        /* \"#utility.yul\":6686:6723   */\n      mstore\n        /* \"#utility.yul\":6621:6729   */\n      pop\n      pop\n      jump\t// out\n        /* \"#utility.yul\":6735:6834   */\n    tag_170:\n        /* \"#utility.yul\":6787:6793   */\n      0x00\n        /* \"#utility.yul\":6821:6826   */\n      dup2\n        /* \"#utility.yul\":6815:6827   */\n      mload\n        /* \"#utility.yul\":6805:6827   */\n      swap1\n      pop\n        /* \"#utility.yul\":6735:6834   */\n      swap2\n      swap1\n      pop\n      jump\t// out\n        /* \"#utility.yul\":6840:6999   */\n    tag_171:\n        /* \"#utility.yul\":6914:6925   */\n      0x00\n        /* \"#utility.yul\":6948:6954   */\n      dup3\n        /* \"#utility.yul\":6943:6946   */\n      dup3\n        /* \"#utility.yul\":6936:6955   */\n      mstore\n        /* \"#utility.yul\":6988:6992   */\n      0x20\n        /* \"#utility.yul\":6983:6986   */\n      dup3\n        /* \"#utility.yul\":6979:6993   */\n      add\n        /* \"#utility.yul\":6964:6993   */\n      swap1\n      pop\n        /* \"#utility.yul\":6840:6999   */\n      swap3\n      swap2\n      pop\n      pop\n      jump\t// out\n        /* \"#utility.yul\":7005:7251   */\n    tag_172:\n        /* \"#utility.yul\":7086:7087   */\n      0x00\n        /* \"#utility.yul\":7096:7209   */\n    tag_296:\n        /* \"#utility.yul\":7110:7116   */\n      dup4\n        /* \"#utility.yul\":7107:7108   */\n      dup2\n        /* \"#utility.yul\":7104:7117   */\n      lt\n        /* \"#utility.yul\":7096:7209   */\n      iszero\n      tag_298\n      jumpi\n        /* \"#utility.yul\":7195:7196   */\n      dup1\n        /* \"#utility.yul\":7190:7193   */\n      dup3\n        /* \"#utility.yul\":7186:7197   */\n      add\n        /* \"#utility.yul\":7180:7198   */\n      mload\n        /* \"#utility.yul\":7176:7177   */\n      dup2\n        /* \"#utility.yul\":7171:7174   */\n      dup5\n        /* \"#utility.yul\":7167:7178   */\n      add\n        /* \"#utility.yul\":7160:7199   */\n      mstore\n        /* \"#utility.yul\":7132:7134   */\n      0x20\n        /* \"#utility.yul\":7129:7130   */\n      dup2\n        /* \"#utility.yul\":7125:7135   */\n      add\n        /* \"#utility.yul\":7120:7135   */\n      swap1\n      pop\n        /* \"#utility.yul\":7096:7209   */\n      jump(tag_296)\n    tag_298:\n        /* \"#utility.yul\":7243:7244   */\n      0x00\n        /* \"#utility.yul\":7234:7240   */\n      dup5\n        /* \"#utility.yul\":7229:7232   */\n      dup5\n        /* \"#utility.yul\":7225:7241   */\n      add\n        /* \"#utility.yul\":7218:7245   */\n      mstore\n        /* \"#utility.yul\":7067:7251   */\n      pop\n        /* \"#utility.yul\":7005:7251   */\n      pop\n      pop\n      pop\n      jump\t// out\n        /* \"#utility.yul\":7257:7614   */\n    tag_173:\n        /* \"#utility.yul\":7335:7338   */\n      0x00\n        /* \"#utility.yul\":7363:7402   */\n      tag_300\n        /* \"#utility.yul\":7396:7401   */\n      dup3\n        /* \"#utility.yul\":7363:7402   */\n      tag_170\n      jump\t// in\n    tag_300:\n        /* \"#utility.yul\":7418:7479   */\n      tag_301\n        /* \"#utility.yul\":7472:7478   */\n      dup2\n        /* \"#utility.yul\":7467:7470   */\n      dup6\n        /* \"#utility.yul\":7418:7479   */\n      tag_171\n      jump\t// in\n    tag_301:\n        /* \"#utility.yul\":7411:7479   */\n      swap4\n      pop\n        /* \"#utility.yul\":7488:7553   */\n      tag_302\n        /* \"#utility.yul\":7546:7552   */\n      dup2\n        /* \"#utility.yul\":7541:7544   */\n      dup6\n        /* \"#utility.yul\":7534:7538   */\n      0x20\n        /* \"#utility.yul\":7527:7532   */\n      dup7\n        /* \"#utility.yul\":7523:7539   */\n      add\n        /* \"#utility.yul\":7488:7553   */\n      tag_172\n      jump\t// in\n    tag_302:\n        /* \"#utility.yul\":7578:7607   */\n      tag_303\n        /* \"#utility.yul\":7600:7606   */\n      dup2\n        /* \"#utility.yul\":7578:7607   */\n      tag_158\n      jump\t// in\n    tag_303:\n        /* \"#utility.yul\":7573:7576   */\n      dup5\n        /* \"#utility.yul\":7569:7608   */\n      add\n        /* \"#utility.yul\":7562:7608   */\n      swap2\n      pop\n        /* \"#utility.yul\":7339:7614   */\n      pop\n        /* \"#utility.yul\":7257:7614   */\n      swap3\n      swap2\n      pop\n      pop\n      jump\t// out\n        /* \"#utility.yul\":7620:7719   */\n    tag_174:\n        /* \"#utility.yul\":7691:7712   */\n      tag_305\n        /* \"#utility.yul\":7706:7711   */\n      dup2\n        /* \"#utility.yul\":7691:7712   */\n      tag_166\n      jump\t// in\n    tag_305:\n        /* \"#utility.yul\":7686:7689   */\n      dup3\n        /* \"#utility.yul\":7679:7713   */\n      mstore\n        /* \"#utility.yul\":7620:7719   */\n      pop\n      pop\n      jump\t// out\n        /* \"#utility.yul\":7783:8566   */\n    tag_175:\n        /* \"#utility.yul\":7908:7911   */\n      0x00\n        /* \"#utility.yul\":7944:7948   */\n      0x60\n        /* \"#utility.yul\":7939:7942   */\n      dup4\n        /* \"#utility.yul\":7935:7949   */\n      add\n        /* \"#utility.yul\":8032:8036   */\n      0x00\n        /* \"#utility.yul\":8025:8030   */\n      dup4\n        /* \"#utility.yul\":8021:8037   */\n      add\n        /* \"#utility.yul\":8015:8038   */\n      mload\n        /* \"#utility.yul\":8051:8114   */\n      tag_307\n        /* \"#utility.yul\":8108:8112   */\n      0x00\n        /* \"#utility.yul\":8103:8106   */\n      dup7\n        /* \"#utility.yul\":8099:8113   */\n      add\n        /* \"#utility.yul\":8085:8097   */\n      dup3\n        /* \"#utility.yul\":8051:8114   */\n      tag_169\n      jump\t// in\n    tag_307:\n        /* \"#utility.yul\":7959:8124   */\n      pop\n        /* \"#utility.yul\":8206:8210   */\n      0x20\n        /* \"#utility.yul\":8199:8204   */\n      dup4\n        /* \"#utility.yul\":8195:8211   */\n      add\n        /* \"#utility.yul\":8189:8212   */\n      mload\n        /* \"#utility.yul\":8259:8262   */\n      dup5\n        /* \"#utility.yul\":8253:8257   */\n      dup3\n        /* \"#utility.yul\":8249:8263   */\n      sub\n        /* \"#utility.yul\":8242:8246   */\n      0x20\n        /* \"#utility.yul\":8237:8240   */\n      dup7\n        /* \"#utility.yul\":8233:8247   */\n      add\n        /* \"#utility.yul\":8226:8264   */\n      mstore\n        /* \"#utility.yul\":8285:8358   */\n      tag_308\n        /* \"#utility.yul\":8353:8357   */\n      dup3\n        /* \"#utility.yul\":8339:8351   */\n      dup3\n        /* \"#utility.yul\":8285:8358   */\n      tag_173\n      jump\t// in\n    tag_308:\n        /* \"#utility.yul\":8277:8358   */\n      swap2\n      pop\n        /* \"#utility.yul\":8134:8369   */\n      pop\n        /* \"#utility.yul\":8453:8457   */\n      0x40\n        /* \"#utility.yul\":8446:8451   */\n      dup4\n        /* \"#utility.yul\":8442:8458   */\n      add\n        /* \"#utility.yul\":8436:8459   */\n      mload\n        /* \"#utility.yul\":8472:8529   */\n      tag_309\n        /* \"#utility.yul\":8523:8527   */\n      0x40\n        /* \"#utility.yul\":8518:8521   */\n      dup7\n        /* \"#utility.yul\":8514:8528   */\n      add\n        /* \"#utility.yul\":8500:8512   */\n      dup3\n        /* \"#utility.yul\":8472:8529   */\n      tag_174\n      jump\t// in\n    tag_309:\n        /* \"#utility.yul\":8379:8539   */\n      pop\n        /* \"#utility.yul\":8556:8560   */\n      dup1\n        /* \"#utility.yul\":8549:8560   */\n      swap2\n      pop\n        /* \"#utility.yul\":7913:8566   */\n      pop\n        /* \"#utility.yul\":7783:8566   */\n      swap3\n      swap2\n      pop\n      pop\n      jump\t// out\n        /* \"#utility.yul\":8572:8957   */\n    tag_55:\n        /* \"#utility.yul\":8721:8725   */\n      0x00\n        /* \"#utility.yul\":8759:8761   */\n      0x20\n        /* \"#utility.yul\":8748:8757   */\n      dup3\n        /* \"#utility.yul\":8744:8762   */\n      add\n        /* \"#utility.yul\":8736:8762   */\n      swap1\n      pop\n        /* \"#utility.yul\":8808:8817   */\n      dup2\n        /* \"#utility.yul\":8802:8806   */\n      dup2\n        /* \"#utility.yul\":8798:8818   */\n      sub\n        /* \"#utility.yul\":8794:8795   */\n      0x00\n        /* \"#utility.yul\":8783:8792   */\n      dup4\n        /* \"#utility.yul\":8779:8796   */\n      add\n        /* \"#utility.yul\":8772:8819   */\n      mstore\n        /* \"#utility.yul\":8836:8950   */\n      tag_311\n        /* \"#utility.yul\":8945:8949   */\n      dup2\n        /* \"#utility.yul\":8936:8942   */\n      dup5\n        /* \"#utility.yul\":8836:8950   */\n      tag_175\n      jump\t// in\n    tag_311:\n        /* \"#utility.yul\":8828:8950   */\n      swap1\n      pop\n        /* \"#utility.yul\":8572:8957   */\n      swap3\n      swap2\n      pop\n      pop\n      jump\t// out\n        /* \"#utility.yul\":8963:9132   */\n    tag_176:\n        /* \"#utility.yul\":9047:9058   */\n      0x00\n        /* \"#utility.yul\":9081:9087   */\n      dup3\n        /* \"#utility.yul\":9076:9079   */\n      dup3\n        /* \"#utility.yul\":9069:9088   */\n      mstore\n        /* \"#utility.yul\":9121:9125   */\n      0x20\n        /* \"#utility.yul\":9116:9119   */\n      dup3\n        /* \"#utility.yul\":9112:9126   */\n      add\n        /* \"#utility.yul\":9097:9126   */\n      swap1\n      pop\n        /* \"#utility.yul\":8963:9132   */\n      swap3\n      swap2\n      pop\n      pop\n      jump\t// out\n        /* \"#utility.yul\":9138:9315   */\n    tag_177:\n        /* \"#utility.yul\":9278:9307   */\n      0x636f6e747261637420616c726561647920726567697374657265640000000000\n        /* \"#utility.yul\":9274:9275   */\n      0x00\n        /* \"#utility.yul\":9266:9272   */\n      dup3\n        /* \"#utility.yul\":9262:9276   */\n      add\n        /* \"#utility.yul\":9255:9308   */\n      mstore\n        /* \"#utility.yul\":9138:9315   */\n      pop\n      jump\t// out\n        /* \"#utility.yul\":9321:9687   */\n    tag_178:\n        /* \"#utility.yul\":9463:9466   */\n      0x00\n        /* \"#utility.yul\":9484:9551   */\n      tag_315\n        /* \"#utility.yul\":9548:9550   */\n      0x1b\n        /* \"#utility.yul\":9543:9546   */\n      dup4\n        /* \"#utility.yul\":9484:9551   */\n      tag_176\n      jump\t// in\n    tag_315:\n        /* \"#utility.yul\":9477:9551   */\n      swap2\n      pop\n        /* \"#utility.yul\":9560:9653   */\n      tag_316\n        /* \"#utility.yul\":9649:9652   */\n      dup3\n        /* \"#utility.yul\":9560:9653   */\n      tag_177\n      jump\t// in\n    tag_316:\n        /* \"#utility.yul\":9678:9680   */\n      0x20\n        /* \"#utility.yul\":9673:9676   */\n      dup3\n        /* \"#utility.yul\":9669:9681   */\n      add\n        /* \"#utility.yul\":9662:9681   */\n      swap1\n      pop\n        /* \"#utility.yul\":9321:9687   */\n      swap2\n      swap1\n      pop\n      jump\t// out\n        /* \"#utility.yul\":9693:10112   */\n    tag_70:\n        /* \"#utility.yul\":9859:9863   */\n      0x00\n        /* \"#utility.yul\":9897:9899   */\n      0x20\n        /* \"#utility.yul\":9886:9895   */\n      dup3\n        /* \"#utility.yul\":9882:9900   */\n      add\n        /* \"#utility.yul\":9874:9900   */\n      swap1\n      pop\n        /* \"#utility.yul\":9946:9955   */\n      dup2\n        /* \"#utility.yul\":9940:9944   */\n      dup2\n        /* \"#utility.yul\":9936:9956   */\n      sub\n        /* \"#utility.yul\":9932:9933   */\n      0x00\n        /* \"#utility.yul\":9921:9930   */\n      dup4\n        /* \"#utility.yul\":9917:9934   */\n      add\n        /* \"#utility.yul\":9910:9957   */\n      mstore\n        /* \"#utility.yul\":9974:10105   */\n      tag_318\n        /* \"#utility.yul\":10100:10104   */\n      dup2\n        /* \"#utility.yul\":9974:10105   */\n      tag_178\n      jump\t// in\n    tag_318:\n        /* \"#utility.yul\":9966:10105   */\n      swap1\n      pop\n        /* \"#utility.yul\":9693:10112   */\n      swap2\n      swap1\n      pop\n      jump\t// out\n        /* \"#utility.yul\":10118:10289   */\n    tag_179:\n        /* \"#utility.yul\":10258:10281   */\n      0x706c61796572206e6f7420726567697374657265640000000000000000000000\n        /* \"#utility.yul\":10254:10255   */\n      0x00\n        /* \"#utility.yul\":10246:10252   */\n      dup3\n        /* \"#utility.yul\":10242:10256   */\n      add\n        /* \"#utility.yul\":10235:10282   */\n      mstore\n        /* \"#utility.yul\":10118:10289   */\n      pop\n      jump\t// out\n        /* \"#utility.yul\":10295:10661   */\n    tag_180:\n        /* \"#utility.yul\":10437:10440   */\n      0x00\n        /* \"#utility.yul\":10458:10525   */\n      tag_321\n        /* \"#utility.yul\":10522:10524   */\n      0x15\n        /* \"#utility.yul\":10517:10520   */\n      dup4\n        /* \"#utility.yul\":10458:10525   */\n      tag_176\n      jump\t// in\n    tag_321:\n        /* \"#utility.yul\":10451:10525   */\n      swap2\n      pop\n        /* \"#utility.yul\":10534:10627   */\n      tag_322\n        /* \"#utility.yul\":10623:10626   */\n      dup3\n        /* \"#utility.yul\":10534:10627   */\n      tag_179\n      jump\t// in\n    tag_322:\n        /* \"#utility.yul\":10652:10654   */\n      0x20\n        /* \"#utility.yul\":10647:10650   */\n      dup3\n        /* \"#utility.yul\":10643:10655   */\n      add\n        /* \"#utility.yul\":10636:10655   */\n      swap1\n      pop\n        /* \"#utility.yul\":10295:10661   */\n      swap2\n      swap1\n      pop\n      jump\t// out\n        /* \"#utility.yul\":10667:11086   */\n    tag_73:\n        /* \"#utility.yul\":10833:10837   */\n      0x00\n        /* \"#utility.yul\":10871:10873   */\n      0x20\n        /* \"#utility.yul\":10860:10869   */\n      dup3\n        /* \"#utility.yul\":10856:10874   */\n      add\n        /* \"#utility.yul\":10848:10874   */\n      swap1\n      pop\n        /* \"#utility.yul\":10920:10929   */\n      dup2\n        /* \"#utility.yul\":10914:10918   */\n      dup2\n        /* \"#utility.yul\":10910:10930   */\n      sub\n        /* \"#utility.yul\":10906:10907   */\n      0x00\n        /* \"#utility.yul\":10895:10904   */\n      dup4\n        /* \"#utility.yul\":10891:10908   */\n      add\n        /* \"#utility.yul\":10884:10931   */\n      mstore\n        /* \"#utility.yul\":10948:11079   */\n      tag_324\n        /* \"#utility.yul\":11074:11078   */\n      dup2\n        /* \"#utility.yul\":10948:11079   */\n      tag_180\n      jump\t// in\n    tag_324:\n        /* \"#utility.yul\":10940:11079   */\n      swap1\n      pop\n        /* \"#utility.yul\":10667:11086   */\n      swap2\n      swap1\n      pop\n      jump\t// out\n        /* \"#utility.yul\":11092:11272   */\n    tag_181:\n        /* \"#utility.yul\":11140:11217   */\n      0x4e487b7100000000000000000000000000000000000000000000000000000000\n        /* \"#utility.yul\":11137:11138   */\n      0x00\n        /* \"#utility.yul\":11130:11218   */\n      mstore\n        /* \"#utility.yul\":11237:11241   */\n      0x22\n        /* \"#utility.yul\":11234:11235   */\n      0x04\n        /* \"#utility.yul\":11227:11242   */\n      mstore\n        /* \"#utility.yul\":11261:11265   */\n      0x24\n        /* \"#utility.yul\":11258:11259   */\n      0x00\n        /* \"#utility.yul\":11251:11266   */\n      revert\n        /* \"#utility.yul\":11278:11598   */\n    tag_82:\n        /* \"#utility.yul\":11322:11328   */\n      0x00\n        /* \"#utility.yul\":11359:11360   */\n      0x02\n        /* \"#utility.yul\":11353:11357   */\n      dup3\n        /* \"#utility.yul\":11349:11361   */\n      div\n        /* \"#utility.yul\":11339:11361   */\n      swap1\n      pop\n        /* \"#utility.yul\":11406:11407   */\n      0x01\n        /* \"#utility.yul\":11400:11404   */\n      dup3\n        /* \"#utility.yul\":11396:11408   */\n      and\n        /* \"#utility.yul\":11427:11445   */\n      dup1\n        /* \"#utility.yul\":11417:11498   */\n      tag_327\n      jumpi\n        /* \"#utility.yul\":11483:11487   */\n      0x7f\n        /* \"#utility.yul\":11475:11481   */\n      dup3\n        /* \"#utility.yul\":11471:11488   */\n      and\n        /* \"#utility.yul\":11461:11488   */\n      swap2\n      pop\n        /* \"#utility.yul\":11417:11498   */\n    tag_327:\n        /* \"#utility.yul\":11545:11547   */\n      0x20\n        /* \"#utility.yul\":11537:11543   */\n      dup3\n        /* \"#utility.yul\":11534:11548   */\n      lt\n        /* \"#utility.yul\":11514:11532   */\n      dup2\n        /* \"#utility.yul\":11511:11549   */\n      sub\n        /* \"#utility.yul\":11508:11592   */\n      tag_328\n      jumpi\n        /* \"#utility.yul\":11564:11582   */\n      tag_329\n      tag_181\n      jump\t// in\n    tag_329:\n        /* \"#utility.yul\":11508:11592   */\n    tag_328:\n        /* \"#utility.yul\":11329:11598   */\n      pop\n        /* \"#utility.yul\":11278:11598   */\n      swap2\n      swap1\n      pop\n      jump\t// out\n        /* \"#utility.yul\":11604:11745   */\n    tag_182:\n        /* \"#utility.yul\":11653:11657   */\n      0x00\n        /* \"#utility.yul\":11676:11679   */\n      dup2\n        /* \"#utility.yul\":11668:11679   */\n      swap1\n      pop\n        /* \"#utility.yul\":11699:11702   */\n      dup2\n        /* \"#utility.yul\":11696:11697   */\n      0x00\n        /* \"#utility.yul\":11689:11703   */\n      mstore\n        /* \"#utility.yul\":11733:11737   */\n      0x20\n        /* \"#utility.yul\":11730:11731   */\n      0x00\n        /* \"#utility.yul\":11720:11738   */\n      keccak256\n        /* \"#utility.yul\":11712:11738   */\n      swap1\n      pop\n        /* \"#utility.yul\":11604:11745   */\n      swap2\n      swap1\n      pop\n      jump\t// out\n        /* \"#utility.yul\":11751:11844   */\n    tag_183:\n        /* \"#utility.yul\":11788:11794   */\n      0x00\n        /* \"#utility.yul\":11835:11837   */\n      0x20\n        /* \"#utility.yul\":11830:11832   */\n      0x1f\n        /* \"#utility.yul\":11823:11828   */\n      dup4\n        /* \"#utility.yul\":11819:11833   */\n      add\n        /* \"#utility.yul\":11815:11838   */\n      div\n        /* \"#utility.yul\":11805:11838   */\n      swap1\n      pop\n        /* \"#utility.yul\":11751:11844   */\n      swap2\n      swap1\n      pop\n      jump\t// out\n        /* \"#utility.yul\":11850:11957   */\n    tag_184:\n        /* \"#utility.yul\":11894:11902   */\n      0x00\n        /* \"#utility.yul\":11944:11949   */\n      dup3\n        /* \"#utility.yul\":11938:11942   */\n      dup3\n        /* \"#utility.yul\":11934:11950   */\n      shl\n        /* \"#utility.yul\":11913:11950   */\n      swap1\n      pop\n        /* \"#utility.yul\":11850:11957   */\n      swap3\n      swap2\n      pop\n      pop\n      jump\t// out\n        /* \"#utility.yul\":11963:12356   */\n    tag_185:\n        /* \"#utility.yul\":12032:12038   */\n      0x00\n        /* \"#utility.yul\":12082:12083   */\n      0x08\n        /* \"#utility.yul\":12070:12080   */\n      dup4\n        /* \"#utility.yul\":12066:12084   */\n      mul\n        /* \"#utility.yul\":12105:12202   */\n      tag_334\n        /* \"#utility.yul\":12135:12201   */\n      0xffffffffffffffffffffffffffffffffffffffffffffffffffffffffffffffff\n        /* \"#utility.yul\":12124:12133   */\n      dup3\n        /* \"#utility.yul\":12105:12202   */\n      tag_184\n      jump\t// in\n    tag_334:\n        /* \"#utility.yul\":12223:12262   */\n      tag_335\n        /* \"#utility.yul\":12253:12261   */\n      dup7\n        /* \"#utility.yul\":12242:12251   */\n      dup4\n        /* \"#utility.yul\":12223:12262   */\n      tag_184\n      jump\t// in\n    tag_335:\n        /* \"#utility.yul\":12211:12262   */\n      swap6\n      pop\n        /* \"#utility.yul\":12295:12299   */\n      dup1\n        /* \"#utility.yul\":12291:12300   */\n      not\n        /* \"#utility.yul\":12284:12289   */\n      dup5\n        /* \"#utility.yul\":12280:12301   */\n      and\n        /* \"#utility.yul\":12271:12301   */\n      swap4\n      pop\n        /* \"#utility.yul\":12344:12348   */\n      dup1\n        /* \"#utility.yul\":12334:12342   */\n      dup7\n        /* \"#utility.yul\":12330:12349   */\n      and\n        /* \"#utility.yul\":12323:12328   */\n      dup5\n        /* \"#utility.yul\":12320:12350   */\n      or\n        /* \"#utility.yul\":12310:12350   */\n      swap3\n      pop\n        /* \"#utility.yul\":12039:12356   */\n      pop\n      pop\n        /* \"#utility.yul\":11963:12356   */\n      swap4\n      swap3\n      pop\n      pop\n      pop\n      jump\t// out\n        /* \"#utility.yul\":12362:12422   */\n    tag_186:\n        /* \"#utility.yul\":12390:12393   */\n      0x00\n        /* \"#utility.yul\":12411:12416   */\n      dup2\n        /* \"#utility.yul\":12404:12416   */\n      swap1\n      pop\n        /* \"#utility.yul\":12362:12422   */\n      swap2\n      swap1\n      pop\n      jump\t// out\n        /* \"#utility.yul\":12428:12570   */\n    tag_187:\n        /* \"#utility.yul\":12478:12487   */\n      0x00\n        /* \"#utility.yul\":12511:12564   */\n      tag_338\n        /* \"#utility.yul\":12529:12563   */\n      tag_339\n        /* \"#utility.yul\":12538:12562   */\n      tag_340\n        /* \"#utility.yul\":12556:12561   */\n      dup5\n        /* \"#utility.yul\":12538:12562   */\n      tag_153\n      jump\t// in\n    tag_340:\n        /* \"#utility.yul\":12529:12563   */\n      tag_186\n      jump\t// in\n    tag_339:\n        /* \"#utility.yul\":12511:12564   */\n      tag_153\n      jump\t// in\n    tag_338:\n        /* \"#utility.yul\":12498:12564   */\n      swap1\n      pop\n        /* \"#utility.yul\":12428:12570   */\n      swap2\n      swap1\n      pop\n      jump\t// out\n        /* \"#utility.yul\":12576:12651   */\n    tag_188:\n        /* \"#utility.yul\":12619:12622   */\n      0x00\n        /* \"#utility.yul\":12640:12645   */\n      dup2\n        /* \"#utility.yul\":12633:12645   */\n      swap1\n      pop\n        /* \"#utility.yul\":12576:12651   */\n      swap2\n      swap1\n      pop\n      jump\t// out\n        /* \"#utility.yul\":12657:12926   */\n    tag_189:\n        /* \"#utility.yul\":12767:12806   */\n      tag_343\n        /* \"#utility.yul\":12798:12805   */\n      dup4\n        /* \"#utility.yul\":12767:12806   */\n      tag_187\n      jump\t// in\n    tag_343:\n        /* \"#utility.yul\":12828:12919   */\n      tag_344\n        /* \"#utility.yul\":12877:12918   */\n      tag_345\n        /* \"#utility.yul\":12901:12917   */\n      dup3\n        /* \"#utility.yul\":12877:12918   */\n      tag_188\n      jump\t// in\n    tag_345:\n        /* \"#utility.yul\":12869:12875   */\n      dup5\n        /* \"#utility.yul\":12862:12866   */\n      dup5\n        /* \"#utility.yul\":12856:12867   */\n      sload\n        /* \"#utility.yul\":12828:12919   */\n      tag_185\n      jump\t// in\n    tag_344:\n        /* \"#utility.yul\":12822:12826   */\n      dup3\n        /* \"#utility.yul\":12815:12920   */\n      sstore\n        /* \"#utility.yul\":12733:12926   */\n      pop\n        /* \"#utility.yul\":12657:12926   */\n      pop\n      pop\n      pop\n      jump\t// out\n        /* \"#utility.yul\":12932:13005   */\n    tag_190:\n        /* \"#utility.yul\":12977:12980   */\n      0x00\n        /* \"#utility.yul\":12932:13005   */\n      swap1\n      jump\t// out\n        /* \"#utility.yul\":13011:13200   */\n    tag_191:\n        /* \"#utility.yul\":13088:13120   */\n      tag_348\n      tag_190\n      jump\t// in\n    tag_348:\n        /* \"#utility.yul\":13129:13194   */\n      tag_349\n        /* \"#utility.yul\":13187:13193   */\n      dup2\n        /* \"#utility.yul\":13179:13185   */\n      dup5\n        /* \"#utility.yul\":13173:13177   */\n      dup5\n        /* \"#utility.yul\":13129:13194   */\n      tag_189\n      jump\t// in\n    tag_349:\n        /* \"#utility.yul\":13064:13200   */\n      pop\n        /* \"#utility.yul\":13011:13200   */\n      pop\n      pop\n      jump\t// out\n        /* \"#utility.yul\":13206:13392   */\n    tag_192:\n        /* \"#utility.yul\":13266:13386   */\n    tag_351:\n        /* \"#utility.yul\":13283:13286   */\n      dup2\n        /* \"#utility.yul\":13276:13281   */\n      dup2\n        /* \"#utility.yul\":13273:13287   */\n      lt\n        /* \"#utility.yul\":13266:13386   */\n      iszero\n      tag_353\n      jumpi\n        /* \"#utility.yul\":13337:13376   */\n      tag_354\n        /* \"#utility.yul\":13374:13375   */\n      0x00\n        /* \"#utility.yul\":13367:13372   */\n      dup3\n        /* \"#utility.yul\":13337:13376   */\n      tag_191\n      jump\t// in\n    tag_354:\n        /* \"#utility.yul\":13310:13311   */\n      0x01\n        /* \"#utility.yul\":13303:13308   */\n      dup2\n        /* \"#utility.yul\":13299:13312   */\n      add\n        /* \"#utility.yul\":13290:13312   */\n      swap1\n      pop\n        /* \"#utility.yul\":13266:13386   */\n      jump(tag_351)\n    tag_353:\n        /* \"#utility.yul\":13206:13392   */\n      pop\n      pop\n      jump\t// out\n        /* \"#utility.yul\":13398:13941   */\n    tag_193:\n        /* \"#utility.yul\":13499:13501   */\n      0x1f\n        /* \"#utility.yul\":13494:13497   */\n      dup3\n        /* \"#utility.yul\":13491:13502   */\n      gt\n        /* \"#utility.yul\":13488:13934   */\n      iszero\n      tag_356\n      jumpi\n        /* \"#utility.yul\":13533:13571   */\n      tag_357\n        /* \"#utility.yul\":13565:13570   */\n      dup2\n        /* \"#utility.yul\":13533:13571   */\n      tag_182\n      jump\t// in\n    tag_357:\n        /* \"#utility.yul\":13617:13646   */\n      tag_358\n        /* \"#utility.yul\":13635:13645   */\n      dup5\n        /* \"#utility.yul\":13617:13646   */\n      tag_183\n      jump\t// in\n    tag_358:\n        /* \"#utility.yul\":13607:13615   */\n      dup2\n        /* \"#utility.yul\":13603:13647   */\n      add\n        /* \"#utility.yul\":13800:13802   */\n      0x20\n        /* \"#utility.yul\":13788:13798   */\n      dup6\n        /* \"#utility.yul\":13785:13803   */\n      lt\n        /* \"#utility.yul\":13782:13831   */\n      iszero\n      tag_359\n      jumpi\n        /* \"#utility.yul\":13821:13829   */\n      dup2\n        /* \"#utility.yul\":13806:13829   */\n      swap1\n      pop\n        /* \"#utility.yul\":13782:13831   */\n    tag_359:\n        /* \"#utility.yul\":13844:13924   */\n      tag_360\n        /* \"#utility.yul\":13900:13922   */\n      tag_361\n        /* \"#utility.yul\":13918:13921   */\n      dup6\n        /* \"#utility.yul\":13900:13922   */\n      tag_183\n      jump\t// in\n    tag_361:\n        /* \"#utility.yul\":13890:13898   */\n      dup4\n        /* \"#utility.yul\":13886:13923   */\n      add\n        /* \"#utility.yul\":13873:13884   */\n      dup3\n        /* \"#utility.yul\":13844:13924   */\n      tag_192\n      jump\t// in\n    tag_360:\n        /* \"#utility.yul\":13503:13934   */\n      pop\n      pop\n        /* \"#utility.yul\":13488:13934   */\n    tag_356:\n        /* \"#utility.yul\":13398:13941   */\n      pop\n      pop\n      pop\n      jump\t// out\n        /* \"#utility.yul\":13947:14064   */\n    tag_194:\n        /* \"#utility.yul\":14001:14009   */\n      0x00\n        /* \"#utility.yul\":14051:14056   */\n      dup3\n        /* \"#utility.yul\":14045:14049   */\n      dup3\n        /* \"#utility.yul\":14041:14057   */\n      shr\n        /* \"#utility.yul\":14020:14057   */\n      swap1\n      pop\n        /* \"#utility.yul\":13947:14064   */\n      swap3\n      swap2\n      pop\n      pop\n      jump\t// out\n        /* \"#utility.yul\":14070:14239   */\n    tag_195:\n        /* \"#utility.yul\":14114:14120   */\n      0x00\n        /* \"#utility.yul\":14147:14198   */\n      tag_364\n        /* \"#utility.yul\":14195:14196   */\n      0x00\n        /* \"#utility.yul\":14191:14197   */\n      not\n        /* \"#utility.yul\":14183:14188   */\n      dup5\n        /* \"#utility.yul\":14180:14181   */\n      0x08\n        /* \"#utility.yul\":14176:14189   */\n      mul\n        /* \"#utility.yul\":14147:14198   */\n      tag_194\n      jump\t// in\n    tag_364:\n        /* \"#utility.yul\":14143:14199   */\n      not\n        /* \"#utility.yul\":14228:14232   */\n      dup1\n        /* \"#utility.yul\":14222:14226   */\n      dup4\n        /* \"#utility.yul\":14218:14233   */\n      and\n        /* \"#utility.yul\":14208:14233   */\n      swap2\n      pop\n        /* \"#utility.yul\":14121:14239   */\n      pop\n        /* \"#utility.yul\":14070:14239   */\n      swap3\n      swap2\n      pop\n      pop\n      jump\t// out\n        /* \"#utility.yul\":14244:14539   */\n    tag_196:\n        /* \"#utility.yul\":14320:14324   */\n      0x00\n        /* \"#utility.yul\":14466:14495   */\n      tag_366\n        /* \"#utility.yul\":14491:14494   */\n      dup4\n        /* \"#utility.yul\":14485:14489   */\n      dup4\n        /* \"#utility.yul\":14466:14495   */\n      tag_195\n      jump\t// in\n    tag_366:\n        /* \"#utility.yul\":14458:14495   */\n      swap2\n      pop\n        /* \"#utility.yul\":14528:14531   */\n      dup3\n        /* \"#utility.yul\":14525:14526   */\n      0x02\n        /* \"#utility.yul\":14521:14532   */\n      mul\n        /* \"#utility.yul\":14515:14519   */\n      dup3\n        /* \"#utility.yul\":14512:14533   */\n      or\n        /* \"#utility.yul\":14504:14533   */\n      swap1\n      pop\n        /* \"#utility.yul\":14244:14539   */\n      swap3\n      swap2\n      pop\n      pop\n      jump\t// out\n        /* \"#utility.yul\":14544:15939   */\n    tag_75:\n        /* \"#utility.yul\":14661:14698   */\n      tag_368\n        /* \"#utility.yul\":14694:14697   */\n      dup3\n        /* \"#utility.yul\":14661:14698   */\n      tag_170\n      jump\t// in\n    tag_368:\n        /* \"#utility.yul\":14763:14781   */\n      0xffffffffffffffff\n        /* \"#utility.yul\":14755:14761   */\n      dup2\n        /* \"#utility.yul\":14752:14782   */\n      gt\n        /* \"#utility.yul\":14749:14805   */\n      iszero\n      tag_369\n      jumpi\n        /* \"#utility.yul\":14785:14803   */\n      tag_370\n      tag_159\n      jump\t// in\n    tag_370:\n        /* \"#utility.yul\":14749:14805   */\n    tag_369:\n        /* \"#utility.yul\":14829:14867   */\n      tag_371\n        /* \"#utility.yul\":14861:14865   */\n      dup3\n        /* \"#utility.yul\":14855:14866   */\n      sload\n        /* \"#utility.yul\":14829:14867   */\n      tag_82\n      jump\t// in\n    tag_371:\n        /* \"#utility.yul\":14914:14981   */\n      tag_372\n        /* \"#utility.yul\":14974:14980   */\n      dup3\n        /* \"#utility.yul\":14966:14972   */\n      dup3\n        /* \"#utility.yul\":14960:14964   */\n      dup6\n        /* \"#utility.yul\":14914:14981   */\n      tag_193\n      jump\t// in\n    tag_372:\n        /* \"#utility.yul\":15008:15009   */\n      0x00\n        /* \"#utility.yul\":15032:15036   */\n      0x20\n        /* \"#utility.yul\":15019:15036   */\n      swap1\n      pop\n        /* \"#utility.yul\":15064:15066   */\n      0x1f\n        /* \"#utility.yul\":15056:15062   */\n      dup4\n        /* \"#utility.yul\":15053:15067   */\n      gt\n        /* \"#utility.yul\":15081:15082   */\n      0x01\n        /* \"#utility.yul\":15076:15694   */\n      dup2\n      eq\n      tag_374\n      jumpi\n        /* \"#utility.yul\":15738:15739   */\n      0x00\n        /* \"#utility.yul\":15755:15761   */\n      dup5\n        /* \"#utility.yul\":15752:15829   */\n      iszero\n      tag_375\n      jumpi\n        /* \"#utility.yul\":15804:15813   */\n      dup3\n        /* \"#utility.yul\":15799:15802   */\n      dup8\n        /* \"#utility.yul\":15795:15814   */\n      add\n        /* \"#utility.yul\":15789:15815   */\n      mload\n        /* \"#utility.yul\":15780:15815   */\n      swap1\n      pop\n        /* \"#utility.yul\":15752:15829   */\n    tag_375:\n        /* \"#utility.yul\":15855:15922   */\n      tag_376\n        /* \"#utility.yul\":15915:15921   */\n      dup6\n        /* \"#utility.yul\":15908:15913   */\n      dup3\n        /* \"#utility.yul\":15855:15922   */\n      tag_196\n      jump\t// in\n    tag_376:\n        /* \"#utility.yul\":15849:15853   */\n      dup7\n        /* \"#utility.yul\":15842:15923   */\n      sstore\n        /* \"#utility.yul\":15711:15933   */\n      pop\n        /* \"#utility.yul\":15046:15933   */\n      jump(tag_373)\n        /* \"#utility.yul\":15076:15694   */\n    tag_374:\n        /* \"#utility.yul\":15128:15132   */\n      0x1f\n        /* \"#utility.yul\":15124:15133   */\n      not\n        /* \"#utility.yul\":15116:15122   */\n      dup5\n        /* \"#utility.yul\":15112:15134   */\n      and\n        /* \"#utility.yul\":15162:15199   */\n      tag_377\n        /* \"#utility.yul\":15194:15198   */\n      dup7\n        /* \"#utility.yul\":15162:15199   */\n      tag_182\n      jump\t// in\n    tag_377:\n        /* \"#utility.yul\":15221:15222   */\n      0x00\n        /* \"#utility.yul\":15235:15443   */\n    tag_378:\n        /* \"#utility.yul\":15249:15256   */\n      dup3\n        /* \"#utility.yul\":15246:15247   */\n      dup2\n        /* \"#utility.yul\":15243:15257   */\n      lt\n        /* \"#utility.yul\":15235:15443   */\n      iszero\n      tag_380\n      jumpi\n        /* \"#utility.yul\":15328:15337   */\n      dup5\n        /* \"#utility.yul\":15323:15326   */\n      dup10\n        /* \"#utility.yul\":15319:15338   */\n      add\n        /* \"#utility.yul\":15313:15339   */\n      mload\n        /* \"#utility.yul\":15305:15311   */\n      dup3\n        /* \"#utility.yul\":15298:15340   */\n      sstore\n        /* \"#utility.yul\":15379:15380   */\n      0x01\n        /* \"#utility.yul\":15371:15377   */\n      dup3\n        /* \"#utility.yul\":15367:15381   */\n      add\n        /* \"#utility.yul\":15357:15381   */\n      swap2\n      pop\n        /* \"#utility.yul\":15426:15428   */\n      0x20\n        /* \"#utility.yul\":15415:15424   */\n      dup6\n        /* \"#utility.yul\":15411:15429   */\n      add\n        /* \"#utility.yul\":15398:15429   */\n      swap5\n      pop\n        /* \"#utility.yul\":15272:15276   */\n      0x20\n        /* \"#utility.yul\":15269:15270   */\n      dup2\n        /* \"#utility.yul\":15265:15277   */\n      add\n        /* \"#utility.yul\":15260:15277   */\n      swap1\n      pop\n        /* \"#utility.yul\":15235:15443   */\n      jump(tag_378)\n    tag_380:\n        /* \"#utility.yul\":15471:15477   */\n      dup7\n        /* \"#utility.yul\":15462:15469   */\n      dup4\n        /* \"#utility.yul\":15459:15478   */\n      lt\n        /* \"#utility.yul\":15456:15635   */\n      iszero\n      tag_381\n      jumpi\n        /* \"#utility.yul\":15529:15538   */\n      dup5\n        /* \"#utility.yul\":15524:15527   */\n      dup10\n        /* \"#utility.yul\":15520:15539   */\n      add\n        /* \"#utility.yul\":15514:15540   */\n      mload\n        /* \"#utility.yul\":15572:15620   */\n      tag_382\n        /* \"#utility.yul\":15614:15618   */\n      0x1f\n        /* \"#utility.yul\":15606:15612   */\n      dup10\n        /* \"#utility.yul\":15602:15619   */\n      and\n        /* \"#utility.yul\":15591:15600   */\n      dup3\n        /* \"#utility.yul\":15572:15620   */\n      tag_195\n      jump\t// in\n    tag_382:\n        /* \"#utility.yul\":15564:15570   */\n      dup4\n        /* \"#utility.yul\":15557:15621   */\n      sstore\n        /* \"#utility.yul\":15479:15635   */\n      pop\n        /* \"#utility.yul\":15456:15635   */\n    tag_381:\n        /* \"#utility.yul\":15681:15682   */\n      0x01\n        /* \"#utility.yul\":15677:15678   */\n      0x02\n        /* \"#utility.yul\":15669:15675   */\n      dup9\n        /* \"#utility.yul\":15665:15679   */\n      mul\n        /* \"#utility.yul\":15661:15683   */\n      add\n        /* \"#utility.yul\":15655:15659   */\n      dup9\n        /* \"#utility.yul\":15648:15684   */\n      sstore\n        /* \"#utility.yul\":15083:15694   */\n      pop\n      pop\n      pop\n        /* \"#utility.yul\":15046:15933   */\n    tag_373:\n      pop\n        /* \"#utility.yul\":14636:15939   */\n      pop\n      pop\n      pop\n        /* \"#utility.yul\":14544:15939   */\n      pop\n      pop\n      jump\t// out\n        /* \"#utility.yul\":15945:16120   */\n    tag_197:\n        /* \"#utility.yul\":16085:16112   */\n      0x706c6179657220616c7265616479207265676973746572656400000000000000\n        /* \"#utility.yul\":16081:16082   */\n      0x00\n        /* \"#utility.yul\":16073:16079   */\n      dup3\n        /* \"#utility.yul\":16069:16083   */\n      add\n        /* \"#utility.yul\":16062:16113   */\n      mstore\n        /* \"#utility.yul\":15945:16120   */\n      pop\n      jump\t// out\n        /* \"#utility.yul\":16126:16492   */\n    tag_198:\n        /* \"#utility.yul\":16268:16271   */\n      0x00\n        /* \"#utility.yul\":16289:16356   */\n      tag_385\n        /* \"#utility.yul\":16353:16355   */\n      0x19\n        /* \"#utility.yul\":16348:16351   */\n      dup4\n        /* \"#utility.yul\":16289:16356   */\n      tag_176\n      jump\t// in\n    tag_385:\n        /* \"#utility.yul\":16282:16356   */\n      swap2\n      pop\n        /* \"#utility.yul\":16365:16458   */\n      tag_386\n        /* \"#utility.yul\":16454:16457   */\n      dup3\n        /* \"#utility.yul\":16365:16458   */\n      tag_197\n      jump\t// in\n    tag_386:\n        /* \"#utility.yul\":16483:16485   */\n      0x20\n        /* \"#utility.yul\":16478:16481   */\n      dup3\n        /* \"#utility.yul\":16474:16486   */\n      add\n        /* \"#utility.yul\":16467:16486   */\n      swap1\n      pop\n        /* \"#utility.yul\":16126:16492   */\n      swap2\n      swap1\n      pop\n      jump\t// out\n        /* \"#utility.yul\":16498:16917   */\n    tag_79:\n        /* \"#utility.yul\":16664:16668   */\n      0x00\n        /* \"#utility.yul\":16702:16704   */\n      0x20\n        /* \"#utility.yul\":16691:16700   */\n      dup3\n        /* \"#utility.yul\":16687:16705   */\n      add\n        /* \"#utility.yul\":16679:16705   */\n      swap1\n      pop\n        /* \"#utility.yul\":16751:16760   */\n      dup2\n        /* \"#utility.yul\":16745:16749   */\n      dup2\n        /* \"#utility.yul\":16741:16761   */\n      sub\n        /* \"#utility.yul\":16737:16738   */\n      0x00\n        /* \"#utility.yul\":16726:16735   */\n      dup4\n        /* \"#utility.yul\":16722:16739   */\n      add\n        /* \"#utility.yul\":16715:16762   */\n      mstore\n        /* \"#utility.yul\":16779:16910   */\n      tag_388\n        /* \"#utility.yul\":16905:16909   */\n      dup2\n        /* \"#utility.yul\":16779:16910   */\n      tag_198\n      jump\t// in\n    tag_388:\n        /* \"#utility.yul\":16771:16910   */\n      swap1\n      pop\n        /* \"#utility.yul\":16498:16917   */\n      swap2\n      swap1\n      pop\n      jump\t// out\n        /* \"#utility.yul\":16923:17091   */\n    tag_199:\n        /* \"#utility.yul\":17063:17083   */\n      0x636f6e7472616374206e6f7420666f756e640000000000000000000000000000\n        /* \"#utility.yul\":17059:17060   */\n      0x00\n        /* \"#utility.yul\":17051:17057   */\n      dup3\n        /* \"#utility.yul\":17047:17061   */\n      add\n        /* \"#utility.yul\":17040:17084   */\n      mstore\n        /* \"#utility.yul\":16923:17091   */\n      pop\n      jump\t// out\n        /* \"#utility.yul\":17097:17463   */\n    tag_200:\n        /* \"#utility.yul\":17239:17242   */\n      0x00\n        /* \"#utility.yul\":17260:17327   */\n      tag_391\n        /* \"#utility.yul\":17324:17326   */\n      0x12\n        /* \"#utility.yul\":17319:17322   */\n      dup4\n        /* \"#utility.yul\":17260:17327   */\n      tag_176\n      jump\t// in\n    tag_391:\n        /* \"#utility.yul\":17253:17327   */\n      swap2\n      pop\n        /* \"#utility.yul\":17336:17429   */\n      tag_392\n        /* \"#utility.yul\":17425:17428   */\n      dup3\n        /* \"#utility.yul\":17336:17429   */\n      tag_199\n      jump\t// in\n    tag_392:\n        /* \"#utility.yul\":17454:17456   */\n      0x20\n        /* \"#utility.yul\":17449:17452   */\n      dup3\n        /* \"#utility.yul\":17445:17457   */\n      add\n        /* \"#utility.yul\":17438:17457   */\n      swap1\n      pop\n        /* \"#utility.yul\":17097:17463   */\n      swap2\n      swap1\n      pop\n      jump\t// out\n        /* \"#utility.yul\":17469:17888   */\n    tag_89:\n        /* \"#utility.yul\":17635:17639   */\n      0x00\n        /* \"#utility.yul\":17673:17675   */\n      0x20\n        /* \"#utility.yul\":17662:17671   */\n      dup3\n        /* \"#utility.yul\":17658:17676   */\n      add\n        /* \"#utility.yul\":17650:17676   */\n      swap1\n      pop\n        /* \"#utility.yul\":17722:17731   */\n      dup2\n        /* \"#utility.yul\":17716:17720   */\n      dup2\n        /* \"#utility.yul\":17712:17732   */\n      sub\n        /* \"#utility.yul\":17708:17709   */\n      0x00\n        /* \"#utility.yul\":17697:17706   */\n      dup4\n        /* \"#utility.yul\":17693:17710   */\n      add\n        /* \"#utility.yul\":17686:17733   */\n      mstore\n        /* \"#utility.yul\":17750:17881   */\n      tag_394\n        /* \"#utility.yul\":17876:17880   */\n      dup2\n        /* \"#utility.yul\":17750:17881   */\n      tag_200\n      jump\t// in\n    tag_394:\n        /* \"#utility.yul\":17742:17881   */\n      swap1\n      pop\n        /* \"#utility.yul\":17469:17888   */\n      swap2\n      swap1\n      pop\n      jump\t// out\n        /* \"#utility.yul\":17894:18060   */\n    tag_201:\n        /* \"#utility.yul\":18034:18052   */\n      0x706c61796572206e6f7420666f756e6400000000000000000000000000000000\n        /* \"#utility.yul\":18030:18031   */\n      0x00\n        /* \"#utility.yul\":18022:18028   */\n      dup3\n        /* \"#utility.yul\":18018:18032   */\n      add\n        /* \"#utility.yul\":18011:18053   */\n      mstore\n        /* \"#utility.yul\":17894:18060   */\n      pop\n      jump\t// out\n        /* \"#utility.yul\":18066:18432   */\n    tag_202:\n        /* \"#utility.yul\":18208:18211   */\n      0x00\n        /* \"#utility.yul\":18229:18296   */\n      tag_397\n        /* \"#utility.yul\":18293:18295   */\n      0x10\n        /* \"#utility.yul\":18288:18291   */\n      dup4\n        /* \"#utility.yul\":18229:18296   */\n      tag_176\n      jump\t// in\n    tag_397:\n        /* \"#utility.yul\":18222:18296   */\n      swap2\n      pop\n        /* \"#utility.yul\":18305:18398   */\n      tag_398\n        /* \"#utility.yul\":18394:18397   */\n      dup3\n        /* \"#utility.yul\":18305:18398   */\n      tag_201\n      jump\t// in\n    tag_398:\n        /* \"#utility.yul\":18423:18425   */\n      0x20\n        /* \"#utility.yul\":18418:18421   */\n      dup3\n        /* \"#utility.yul\":18414:18426   */\n      add\n        /* \"#utility.yul\":18407:18426   */\n      swap1\n      pop\n        /* \"#utility.yul\":18066:18432   */\n      swap2\n      swap1\n      pop\n      jump\t// out\n        /* \"#utility.yul\":18438:18857   */\n    tag_92:\n        /* \"#utility.yul\":18604:18608   */\n      0x00\n        /* \"#utility.yul\":18642:18644   */\n      0x20\n        /* \"#utility.yul\":18631:18640   */\n      dup3\n        /* \"#utility.yul\":18627:18645   */\n      add\n        /* \"#utility.yul\":18619:18645   */\n      swap1\n      pop\n        /* \"#utility.yul\":18691:18700   */\n      dup2\n        /* \"#utility.yul\":18685:18689   */\n      dup2\n        /* \"#utility.yul\":18681:18701   */\n      sub\n        /* \"#utility.yul\":18677:18678   */\n      0x00\n        /* \"#utility.yul\":18666:18675   */\n      dup4\n        /* \"#utility.yul\":18662:18679   */\n      add\n        /* \"#utility.yul\":18655:18702   */\n      mstore\n        /* \"#utility.yul\":18719:18850   */\n      tag_400\n        /* \"#utility.yul\":18845:18849   */\n      dup2\n        /* \"#utility.yul\":18719:18850   */\n      tag_202\n      jump\t// in\n    tag_400:\n        /* \"#utility.yul\":18711:18850   */\n      swap1\n      pop\n        /* \"#utility.yul\":18438:18857   */\n      swap2\n      swap1\n      pop\n      jump\t// out\n        /* \"#utility.yul\":18863:19011   */\n    tag_203:\n        /* \"#utility.yul\":18965:18976   */\n      0x00\n        /* \"#utility.yul\":19002:19005   */\n      dup2\n        /* \"#utility.yul\":18987:19005   */\n      swap1\n      pop\n        /* \"#utility.yul\":18863:19011   */\n      swap3\n      swap2\n      pop\n      pop\n      jump\t// out\n        /* \"#utility.yul\":19017:19407   */\n    tag_204:\n        /* \"#utility.yul\":19123:19126   */\n      0x00\n        /* \"#utility.yul\":19151:19190   */\n      tag_403\n        /* \"#utility.yul\":19184:19189   */\n      dup3\n        /* \"#utility.yul\":19151:19190   */\n      tag_170\n      jump\t// in\n    tag_403:\n        /* \"#utility.yul\":19206:19295   */\n      tag_404\n        /* \"#utility.yul\":19288:19294   */\n      dup2\n        /* \"#utility.yul\":19283:19286   */\n      dup6\n        /* \"#utility.yul\":19206:19295   */\n      tag_203\n      jump\t// in\n    tag_404:\n        /* \"#utility.yul\":19199:19295   */\n      swap4\n      pop\n        /* \"#utility.yul\":19304:19369   */\n      tag_405\n        /* \"#utility.yul\":19362:19368   */\n      dup2\n        /* \"#utility.yul\":19357:19360   */\n      dup6\n        /* \"#utility.yul\":19350:19354   */\n      0x20\n        /* \"#utility.yul\":19343:19348   */\n      dup7\n        /* \"#utility.yul\":19339:19355   */\n      add\n        /* \"#utility.yul\":19304:19369   */\n      tag_172\n      jump\t// in\n    tag_405:\n        /* \"#utility.yul\":19394:19400   */\n      dup1\n        /* \"#utility.yul\":19389:19392   */\n      dup5\n        /* \"#utility.yul\":19385:19401   */\n      add\n        /* \"#utility.yul\":19378:19401   */\n      swap2\n      pop\n        /* \"#utility.yul\":19127:19407   */\n      pop\n        /* \"#utility.yul\":19017:19407   */\n      swap3\n      swap2\n      pop\n      pop\n      jump\t// out\n        /* \"#utility.yul\":19413:19688   */\n    tag_94:\n        /* \"#utility.yul\":19545:19548   */\n      0x00\n        /* \"#utility.yul\":19567:19662   */\n      tag_407\n        /* \"#utility.yul\":19658:19661   */\n      dup3\n        /* \"#utility.yul\":19649:19655   */\n      dup5\n        /* \"#utility.yul\":19567:19662   */\n      tag_204\n      jump\t// in\n    tag_407:\n        /* \"#utility.yul\":19560:19662   */\n      swap2\n      pop\n        /* \"#utility.yul\":19679:19682   */\n      dup2\n        /* \"#utility.yul\":19672:19682   */\n      swap1\n      pop\n        /* \"#utility.yul\":19413:19688   */\n      swap3\n      swap2\n      pop\n      pop\n      jump\t// out\n        /* \"#utility.yul\":19694:19863   */\n    tag_205:\n        /* \"#utility.yul\":19834:19855   */\n      0x666c6167206973206e6f7420636f727265637400000000000000000000000000\n        /* \"#utility.yul\":19830:19831   */\n      0x00\n        /* \"#utility.yul\":19822:19828   */\n      dup3\n        /* \"#utility.yul\":19818:19832   */\n      add\n        /* \"#utility.yul\":19811:19856   */\n      mstore\n        /* \"#utility.yul\":19694:19863   */\n      pop\n      jump\t// out\n        /* \"#utility.yul\":19869:20235   */\n    tag_206:\n        /* \"#utility.yul\":20011:20014   */\n      0x00\n        /* \"#utility.yul\":20032:20099   */\n      tag_410\n        /* \"#utility.yul\":20096:20098   */\n      0x13\n        /* \"#utility.yul\":20091:20094   */\n      dup4\n        /* \"#utility.yul\":20032:20099   */\n      tag_176\n      jump\t// in\n    tag_410:\n        /* \"#utility.yul\":20025:20099   */\n      swap2\n      pop\n        /* \"#utility.yul\":20108:20201   */\n      tag_411\n        /* \"#utility.yul\":20197:20200   */\n      dup3\n        /* \"#utility.yul\":20108:20201   */\n      tag_205\n      jump\t// in\n    tag_411:\n        /* \"#utility.yul\":20226:20228   */\n      0x20\n        /* \"#utility.yul\":20221:20224   */\n      dup3\n        /* \"#utility.yul\":20217:20229   */\n      add\n        /* \"#utility.yul\":20210:20229   */\n      swap1\n      pop\n        /* \"#utility.yul\":19869:20235   */\n      swap2\n      swap1\n      pop\n      jump\t// out\n        /* \"#utility.yul\":20241:20660   */\n    tag_98:\n        /* \"#utility.yul\":20407:20411   */\n      0x00\n        /* \"#utility.yul\":20445:20447   */\n      0x20\n        /* \"#utility.yul\":20434:20443   */\n      dup3\n        /* \"#utility.yul\":20430:20448   */\n      add\n        /* \"#utility.yul\":20422:20448   */\n      swap1\n      pop\n        /* \"#utility.yul\":20494:20503   */\n      dup2\n        /* \"#utility.yul\":20488:20492   */\n      dup2\n        /* \"#utility.yul\":20484:20504   */\n      sub\n        /* \"#utility.yul\":20480:20481   */\n      0x00\n        /* \"#utility.yul\":20469:20478   */\n      dup4\n        /* \"#utility.yul\":20465:20482   */\n      add\n        /* \"#utility.yul\":20458:20505   */\n      mstore\n        /* \"#utility.yul\":20522:20653   */\n      tag_413\n        /* \"#utility.yul\":20648:20652   */\n      dup2\n        /* \"#utility.yul\":20522:20653   */\n      tag_206\n      jump\t// in\n    tag_413:\n        /* \"#utility.yul\":20514:20653   */\n      swap1\n      pop\n        /* \"#utility.yul\":20241:20660   */\n      swap2\n      swap1\n      pop\n      jump\t// out\n        /* \"#utility.yul\":20666:20839   */\n    tag_207:\n        /* \"#utility.yul\":20806:20831   */\n      0x636f6e7472616374206e6f742072656769737465726564000000000000000000\n        /* \"#utility.yul\":20802:20803   */\n      0x00\n        /* \"#utility.yul\":20794:20800   */\n      dup3\n        /* \"#utility.yul\":20790:20804   */\n      add\n        /* \"#utility.yul\":20783:20832   */\n      mstore\n        /* \"#utility.yul\":20666:20839   */\n      pop\n      jump\t// out\n        /* \"#utility.yul\":20845:21211   */\n    tag_208:\n        /* \"#utility.yul\":20987:20990   */\n      0x00\n        /* \"#utility.yul\":21008:21075   */\n      tag_416\n        /* \"#utility.yul\":21072:21074   */\n      0x17\n        /* \"#utility.yul\":21067:21070   */\n      dup4\n        /* \"#utility.yul\":21008:21075   */\n      tag_176\n      jump\t// in\n    tag_416:\n        /* \"#utility.yul\":21001:21075   */\n      swap2\n      pop\n        /* \"#utility.yul\":21084:21177   */\n      tag_417\n        /* \"#utility.yul\":21173:21176   */\n      dup3\n        /* \"#utility.yul\":21084:21177   */\n      tag_207\n      jump\t// in\n    tag_417:\n        /* \"#utility.yul\":21202:21204   */\n      0x20\n        /* \"#utility.yul\":21197:21200   */\n      dup3\n        /* \"#utility.yul\":21193:21205   */\n      add\n        /* \"#utility.yul\":21186:21205   */\n      swap1\n      pop\n        /* \"#utility.yul\":20845:21211   */\n      swap2\n      swap1\n      pop\n      jump\t// out\n        /* \"#utility.yul\":21217:21636   */\n    tag_119:\n        /* \"#utility.yul\":21383:21387   */\n      0x00\n        /* \"#utility.yul\":21421:21423   */\n      0x20\n        /* \"#utility.yul\":21410:21419   */\n      dup3\n        /* \"#utility.yul\":21406:21424   */\n      add\n        /* \"#utility.yul\":21398:21424   */\n      swap1\n      pop\n        /* \"#utility.yul\":21470:21479   */\n      dup2\n        /* \"#utility.yul\":21464:21468   */\n      dup2\n        /* \"#utility.yul\":21460:21480   */\n      sub\n        /* \"#utility.yul\":21456:21457   */\n      0x00\n        /* \"#utility.yul\":21445:21454   */\n      dup4\n        /* \"#utility.yul\":21441:21458   */\n      add\n        /* \"#utility.yul\":21434:21481   */\n      mstore\n        /* \"#utility.yul\":21498:21629   */\n      tag_419\n        /* \"#utility.yul\":21624:21628   */\n      dup2\n        /* \"#utility.yul\":21498:21629   */\n      tag_208\n      jump\t// in\n    tag_419:\n        /* \"#utility.yul\":21490:21629   */\n      swap1\n      pop\n        /* \"#utility.yul\":21217:21636   */\n      swap2\n      swap1\n      pop\n      jump\t// out\n        /* \"#utility.yul\":21642:21867   */\n    tag_209:\n        /* \"#utility.yul\":21782:21816   */\n      0x4f776e61626c653a206e6577206f776e657220697320746865207a65726f2061\n        /* \"#utility.yul\":21778:21779   */\n      0x00\n        /* \"#utility.yul\":21770:21776   */\n      dup3\n        /* \"#utility.yul\":21766:21780   */\n      add\n        /* \"#utility.yul\":21759:21817   */\n      mstore\n        /* \"#utility.yul\":21851:21859   */\n      0x6464726573730000000000000000000000000000000000000000000000000000\n        /* \"#utility.yul\":21846:21848   */\n      0x20\n        /* \"#utility.yul\":21838:21844   */\n      dup3\n        /* \"#utility.yul\":21834:21849   */\n      add\n        /* \"#utility.yul\":21827:21860   */\n      mstore\n        /* \"#utility.yul\":21642:21867   */\n      pop\n      jump\t// out\n        /* \"#utility.yul\":21873:22239   */\n    tag_210:\n        /* \"#utility.yul\":22015:22018   */\n      0x00\n        /* \"#utility.yul\":22036:22103   */\n      tag_422\n        /* \"#utility.yul\":22100:22102   */\n      0x26\n        /* \"#utility.yul\":22095:22098   */\n      dup4\n        /* \"#utility.yul\":22036:22103   */\n      tag_176\n      jump\t// in\n    tag_422:\n        /* \"#utility.yul\":22029:22103   */\n      swap2\n      pop\n        /* \"#utility.yul\":22112:22205   */\n      tag_423\n        /* \"#utility.yul\":22201:22204   */\n      dup3\n        /* \"#utility.yul\":22112:22205   */\n      tag_209\n      jump\t// in\n    tag_423:\n        /* \"#utility.yul\":22230:22232   */\n      0x40\n        /* \"#utility.yul\":22225:22228   */\n      dup3\n        /* \"#utility.yul\":22221:22233   */\n      add\n        /* \"#utility.yul\":22214:22233   */\n      swap1\n      pop\n        /* \"#utility.yul\":21873:22239   */\n      swap2\n      swap1\n      pop\n      jump\t// out\n        /* \"#utility.yul\":22245:22664   */\n    tag_130:\n        /* \"#utility.yul\":22411:22415   */\n      0x00\n        /* \"#utility.yul\":22449:22451   */\n      0x20\n        /* \"#utility.yul\":22438:22447   */\n      dup3\n        /* \"#utility.yul\":22434:22452   */\n      add\n        /* \"#utility.yul\":22426:22452   */\n      swap1\n      pop\n        /* \"#utility.yul\":22498:22507   */\n      dup2\n        /* \"#utility.yul\":22492:22496   */\n      dup2\n        /* \"#utility.yul\":22488:22508   */\n      sub\n        /* \"#utility.yul\":22484:22485   */\n      0x00\n        /* \"#utility.yul\":22473:22482   */\n      dup4\n        /* \"#utility.yul\":22469:22486   */\n      add\n        /* \"#utility.yul\":22462:22509   */\n      mstore\n        /* \"#utility.yul\":22526:22657   */\n      tag_425\n        /* \"#utility.yul\":22652:22656   */\n      dup2\n        /* \"#utility.yul\":22526:22657   */\n      tag_210\n      jump\t// in\n    tag_425:\n        /* \"#utility.yul\":22518:22657   */\n      swap1\n      pop\n        /* \"#utility.yul\":22245:22664   */\n      swap2\n      swap1\n      pop\n      jump\t// out\n        /* \"#utility.yul\":22670:22852   */\n    tag_211:\n        /* \"#utility.yul\":22810:22844   */\n      0x4f776e61626c653a2063616c6c6572206973206e6f7420746865206f776e6572\n        /* \"#utility.yul\":22806:22807   */\n      0x00\n        /* \"#utility.yul\":22798:22804   */\n      dup3\n        /* \"#utility.yul\":22794:22808   */\n      add\n        /* \"#utility.yul\":22787:22845   */\n      mstore\n        /* \"#utility.yul\":22670:22852   */\n      pop\n      jump\t// out\n        /* \"#utility.yul\":22858:23224   */\n    tag_212:\n        /* \"#utility.yul\":23000:23003   */\n      0x00\n        /* \"#utility.yul\":23021:23088   */\n      tag_428\n        /* \"#utility.yul\":23085:23087   */\n      0x20\n        /* \"#utility.yul\":23080:23083   */\n      dup4\n        /* \"#utility.yul\":23021:23088   */\n      tag_176\n      jump\t// in\n    tag_428:\n        /* \"#utility.yul\":23014:23088   */\n      swap2\n      pop\n        /* \"#utility.yul\":23097:23190   */\n      tag_429\n        /* \"#utility.yul\":23186:23189   */\n      dup3\n        /* \"#utility.yul\":23097:23190   */\n      tag_211\n      jump\t// in\n    tag_429:\n        /* \"#utility.yul\":23215:23217   */\n      0x20\n        /* \"#utility.yul\":23210:23213   */\n      dup3\n        /* \"#utility.yul\":23206:23218   */\n      add\n        /* \"#utility.yul\":23199:23218   */\n      swap1\n      pop\n        /* \"#utility.yul\":22858:23224   */\n      swap2\n      swap1\n      pop\n      jump\t// out\n        /* \"#utility.yul\":23230:23649   */\n    tag_143:\n        /* \"#utility.yul\":23396:23400   */\n      0x00\n        /* \"#utility.yul\":23434:23436   */\n      0x20\n        /* \"#utility.yul\":23423:23432   */\n      dup3\n        /* \"#utility.yul\":23419:23437   */\n      add\n        /* \"#utility.yul\":23411:23437   */\n      swap1\n      pop\n        /* \"#utility.yul\":23483:23492   */\n      dup2\n        /* \"#utility.yul\":23477:23481   */\n      dup2\n        /* \"#utility.yul\":23473:23493   */\n      sub\n        /* \"#utility.yul\":23469:23470   */\n      0x00\n        /* \"#utility.yul\":23458:23467   */\n      dup4\n        /* \"#utility.yul\":23454:23471   */\n      add\n        /* \"#utility.yul\":23447:23494   */\n      mstore\n        /* \"#utility.yul\":23511:23642   */\n      tag_431\n        /* \"#utility.yul\":23637:23641   */\n      dup2\n        /* \"#utility.yul\":23511:23642   */\n      tag_212\n      jump\t// in\n    tag_431:\n        /* \"#utility.yul\":23503:23642   */\n      swap1\n      pop\n        /* \"#utility.yul\":23230:23649   */\n      swap2\n      swap1\n      pop\n      jump\t// out\n\n    auxdata: 0xa264697066735822122098bead79a2f8c4e3d9db3790cfcf5027124bb56a43584e6597a42b112397ecdc64736f6c63430008170033\n}\n",
				"bytecode": {
					"linkReferences": {},
					"object": "608060405234801561000f575f80fd5b5061002c61002161003160201b60201c565b61003860201b60201c565b6100f9565b5f33905090565b5f805f9054906101000a900473ffffffffffffffffffffffffffffffffffffffff169050815f806101000a81548173ffffffffffffffffffffffffffffffffffffffff021916908373ffffffffffffffffffffffffffffffffffffffff1602179055508173ffffffffffffffffffffffffffffffffffffffff168173ffffffffffffffffffffffffffffffffffffffff167f8be0079c531659141344cd1fd0a4f28419497f9722a3daafe3b4186f6b6457e060405160405180910390a35050565b611c58806101065f395ff3fe60806040526004361061009b575f3560e01c8063783b47e611610063578063783b47e61461014b57806388d6d12d146101615780638da5cb5b1461019d578063b9938436146101c7578063f2fde38b14610203578063f4f2821b1461022b5761009b565b80631ae8fc871461009f57806327b5db8a146100c757806340b00907146100dd5780635a65cf95146100f9578063715018a614610135575b5f80fd5b3480156100aa575f80fd5b506100c560048036038101906100c09190611288565b610253565b005b3480156100d2575f80fd5b506100db610562565b005b6100f760048036038101906100f29190611308565b610643565b005b348015610104575f80fd5b5061011f600480360381019061011a9190611362565b610980565b60405161012c91906113a7565b60405180910390f35b348015610140575f80fd5b506101496109d2565b005b348015610156575f80fd5b5061015f6109e5565b005b34801561016c575f80fd5b50610187600480360381019061018291906113c0565b610ac4565b60405161019491906113a7565b60405180910390f35b3480156101a8575f80fd5b506101b1610b55565b6040516101be919061140d565b60405180910390f35b3480156101d2575f80fd5b506101ed60048036038101906101e891906113c0565b610b7c565b6040516101fa919061150b565b60405180910390f35b34801561020e575f80fd5b5061022960048036038101906102249190611362565b610ddd565b005b348015610236575f80fd5b50610251600480360381019061024c9190611362565b610e5f565b005b61025b610f47565b60015f8573ffffffffffffffffffffffffffffffffffffffff1673ffffffffffffffffffffffffffffffffffffffff1681526020019081526020015f205f9054906101000a900460ff16156102e5576040517f08c379a00000000000000000000000000000000000000000000000000000000081526004016102dc90611585565b60405180910390fd5b60025f8473ffffffffffffffffffffffffffffffffffffffff1673ffffffffffffffffffffffffffffffffffffffff1681526020019081526020015f205f9054906101000a900460ff1661036e576040517f08c379a0000000000000000000000000000000000000000000000000000000008152600401610365906115ed565b60405180910390fd5b6001805f8673ffffffffffffffffffffffffffffffffffffffff1673ffffffffffffffffffffffffffffffffffffffff1681526020019081526020015f205f6101000a81548160ff0219169083151502179055508160035f8573ffffffffffffffffffffffffffffffffffffffff1673ffffffffffffffffffffffffffffffffffffffff1681526020019081526020015f205f8673ffffffffffffffffffffffffffffffffffffffff1673ffffffffffffffffffffffffffffffffffffffff1681526020019081526020015f205f01819055508060035f8573ffffffffffffffffffffffffffffffffffffffff1673ffffffffffffffffffffffffffffffffffffffff1681526020019081526020015f205f8673ffffffffffffffffffffffffffffffffffffffff1673ffffffffffffffffffffffffffffffffffffffff1681526020019081526020015f2060010190816104c99190611805565b505f60035f8573ffffffffffffffffffffffffffffffffffffffff1673ffffffffffffffffffffffffffffffffffffffff1681526020019081526020015f205f8673ffffffffffffffffffffffffffffffffffffffff1673ffffffffffffffffffffffffffffffffffffffff1681526020019081526020015f206002015f6101000a81548160ff02191690831515021790555050505050565b60025f3373ffffffffffffffffffffffffffffffffffffffff1673ffffffffffffffffffffffffffffffffffffffff1681526020019081526020015f205f9054906101000a900460ff16156105ec576040517f08c379a00000000000000000000000000000000000000000000000000000000081526004016105e39061191e565b60405180910390fd5b600160025f3373ffffffffffffffffffffffffffffffffffffffff1673ffffffffffffffffffffffffffffffffffffffff1681526020019081526020015f205f6101000a81548160ff021916908315150217905550565b5f60035f3373ffffffffffffffffffffffffffffffffffffffff1673ffffffffffffffffffffffffffffffffffffffff1681526020019081526020015f205f8473ffffffffffffffffffffffffffffffffffffffff1673ffffffffffffffffffffffffffffffffffffffff1681526020019081526020015f2060010180546106ca90611638565b80601f01602080910402602001604051908101604052809291908181526020018280546106f690611638565b80156107415780601f1061071857610100808354040283529160200191610741565b820191905f5260205f20905b81548152906001019060200180831161072457829003601f168201915b5050505050905060015f8473ffffffffffffffffffffffffffffffffffffffff1673ffffffffffffffffffffffffffffffffffffffff1681526020019081526020015f205f9054906101000a900460ff166107d1576040517f08c379a00000000000000000000000000000000000000000000000000000000081526004016107c890611986565b60405180910390fd5b60025f3373ffffffffffffffffffffffffffffffffffffffff1673ffffffffffffffffffffffffffffffffffffffff1681526020019081526020015f205f9054906101000a900460ff1661085a576040517f08c379a0000000000000000000000000000000000000000000000000000000008152600401610851906119ee565b60405180910390fd5b8160405160200161086b9190611a46565b60405160208183030381529060405280519060200120816040516020016108929190611a46565b60405160208183030381529060405280519060200120146108e8576040517f08c379a00000000000000000000000000000000000000000000000000000000081526004016108df90611aa6565b60405180910390fd5b600160035f3373ffffffffffffffffffffffffffffffffffffffff1673ffffffffffffffffffffffffffffffffffffffff1681526020019081526020015f205f8573ffffffffffffffffffffffffffffffffffffffff1673ffffffffffffffffffffffffffffffffffffffff1681526020019081526020015f206002015f6101000a81548160ff021916908315150217905550505050565b5f60025f8373ffffffffffffffffffffffffffffffffffffffff1673ffffffffffffffffffffffffffffffffffffffff1681526020019081526020015f205f9054906101000a900460ff169050919050565b6109da610f47565b6109e35f610fc5565b565b60025f3373ffffffffffffffffffffffffffffffffffffffff1673ffffffffffffffffffffffffffffffffffffffff1681526020019081526020015f205f9054906101000a900460ff16610a6e576040517f08c379a0000000000000000000000000000000000000000000000000000000008152600401610a65906115ed565b60405180910390fd5b5f60025f3373ffffffffffffffffffffffffffffffffffffffff1673ffffffffffffffffffffffffffffffffffffffff1681526020019081526020015f205f6101000a81548160ff021916908315150217905550565b5f60035f8373ffffffffffffffffffffffffffffffffffffffff1673ffffffffffffffffffffffffffffffffffffffff1681526020019081526020015f205f8473ffffffffffffffffffffffffffffffffffffffff1673ffffffffffffffffffffffffffffffffffffffff1681526020019081526020015f206002015f9054906101000a900460ff16905092915050565b5f805f9054906101000a900473ffffffffffffffffffffffffffffffffffffffff16905090565b610b8461108d565b610b8c610f47565b60025f3373ffffffffffffffffffffffffffffffffffffffff1673ffffffffffffffffffffffffffffffffffffffff1681526020019081526020015f205f9054906101000a900460ff1615610c16576040517f08c379a0000000000000000000000000000000000000000000000000000000008152600401610c0d9061191e565b60405180910390fd5b60015f8373ffffffffffffffffffffffffffffffffffffffff1673ffffffffffffffffffffffffffffffffffffffff1681526020019081526020015f205f9054906101000a900460ff16610c9f576040517f08c379a0000000000000000000000000000000000000000000000000000000008152600401610c9690611b0e565b60405180910390fd5b60035f8473ffffffffffffffffffffffffffffffffffffffff1673ffffffffffffffffffffffffffffffffffffffff1681526020019081526020015f205f8373ffffffffffffffffffffffffffffffffffffffff1673ffffffffffffffffffffffffffffffffffffffff1681526020019081526020015f206040518060600160405290815f8201548152602001600182018054610d3b90611638565b80601f0160208091040260200160405190810160405280929190818152602001828054610d6790611638565b8015610db25780601f10610d8957610100808354040283529160200191610db2565b820191905f5260205f20905b815481529060010190602001808311610d9557829003601f168201915b50505050508152602001600282015f9054906101000a900460ff161515151581525050905092915050565b610de5610f47565b5f73ffffffffffffffffffffffffffffffffffffffff168173ffffffffffffffffffffffffffffffffffffffff1603610e53576040517f08c379a0000000000000000000000000000000000000000000000000000000008152600401610e4a90611b9c565b60405180910390fd5b610e5c81610fc5565b50565b610e67610f47565b60015f8273ffffffffffffffffffffffffffffffffffffffff1673ffffffffffffffffffffffffffffffffffffffff1681526020019081526020015f205f9054906101000a900460ff16610ef0576040517f08c379a0000000000000000000000000000000000000000000000000000000008152600401610ee790611b0e565b60405180910390fd5b5f60015f8373ffffffffffffffffffffffffffffffffffffffff1673ffffffffffffffffffffffffffffffffffffffff1681526020019081526020015f205f6101000a81548160ff02191690831515021790555050565b610f4f611086565b73ffffffffffffffffffffffffffffffffffffffff16610f6d610b55565b73ffffffffffffffffffffffffffffffffffffffff1614610fc3576040517f08c379a0000000000000000000000000000000000000000000000000000000008152600401610fba90611c04565b60405180910390fd5b565b5f805f9054906101000a900473ffffffffffffffffffffffffffffffffffffffff169050815f806101000a81548173ffffffffffffffffffffffffffffffffffffffff021916908373ffffffffffffffffffffffffffffffffffffffff1602179055508173ffffffffffffffffffffffffffffffffffffffff168173ffffffffffffffffffffffffffffffffffffffff167f8be0079c531659141344cd1fd0a4f28419497f9722a3daafe3b4186f6b6457e060405160405180910390a35050565b5f33905090565b60405180606001604052805f8152602001606081526020015f151581525090565b5f604051905090565b5f80fd5b5f80fd5b5f73ffffffffffffffffffffffffffffffffffffffff82169050919050565b5f6110e8826110bf565b9050919050565b6110f8816110de565b8114611102575f80fd5b50565b5f81359050611113816110ef565b92915050565b5f819050919050565b61112b81611119565b8114611135575f80fd5b50565b5f8135905061114681611122565b92915050565b5f80fd5b5f80fd5b5f601f19601f8301169050919050565b7f4e487b71000000000000000000000000000000000000000000000000000000005f52604160045260245ffd5b61119a82611154565b810181811067ffffffffffffffff821117156111b9576111b8611164565b5b80604052505050565b5f6111cb6110ae565b90506111d78282611191565b919050565b5f67ffffffffffffffff8211156111f6576111f5611164565b5b6111ff82611154565b9050602081019050919050565b828183375f83830152505050565b5f61122c611227846111dc565b6111c2565b90508281526020810184848401111561124857611247611150565b5b61125384828561120c565b509392505050565b5f82601f83011261126f5761126e61114c565b5b813561127f84826020860161121a565b91505092915050565b5f805f80608085870312156112a05761129f6110b7565b5b5f6112ad87828801611105565b94505060206112be87828801611105565b93505060406112cf87828801611138565b925050606085013567ffffffffffffffff8111156112f0576112ef6110bb565b5b6112fc8782880161125b565b91505092959194509250565b5f806040838503121561131e5761131d6110b7565b5b5f61132b85828601611105565b925050602083013567ffffffffffffffff81111561134c5761134b6110bb565b5b6113588582860161125b565b9150509250929050565b5f60208284031215611377576113766110b7565b5b5f61138484828501611105565b91505092915050565b5f8115159050919050565b6113a18161138d565b82525050565b5f6020820190506113ba5f830184611398565b92915050565b5f80604083850312156113d6576113d56110b7565b5b5f6113e385828601611105565b92505060206113f485828601611105565b9150509250929050565b611407816110de565b82525050565b5f6020820190506114205f8301846113fe565b92915050565b61142f81611119565b82525050565b5f81519050919050565b5f82825260208201905092915050565b5f5b8381101561146c578082015181840152602081019050611451565b5f8484015250505050565b5f61148182611435565b61148b818561143f565b935061149b81856020860161144f565b6114a481611154565b840191505092915050565b6114b88161138d565b82525050565b5f606083015f8301516114d35f860182611426565b50602083015184820360208601526114eb8282611477565b915050604083015161150060408601826114af565b508091505092915050565b5f6020820190508181035f83015261152381846114be565b905092915050565b5f82825260208201905092915050565b7f636f6e747261637420616c7265616479207265676973746572656400000000005f82015250565b5f61156f601b8361152b565b915061157a8261153b565b602082019050919050565b5f6020820190508181035f83015261159c81611563565b9050919050565b7f706c61796572206e6f74207265676973746572656400000000000000000000005f82015250565b5f6115d760158361152b565b91506115e2826115a3565b602082019050919050565b5f6020820190508181035f830152611604816115cb565b9050919050565b7f4e487b71000000000000000000000000000000000000000000000000000000005f52602260045260245ffd5b5f600282049050600182168061164f57607f821691505b6020821081036116625761166161160b565b5b50919050565b5f819050815f5260205f209050919050565b5f6020601f8301049050919050565b5f82821b905092915050565b5f600883026116c47fffffffffffffffffffffffffffffffffffffffffffffffffffffffffffffffff82611689565b6116ce8683611689565b95508019841693508086168417925050509392505050565b5f819050919050565b5f6117096117046116ff84611119565b6116e6565b611119565b9050919050565b5f819050919050565b611722836116ef565b61173661172e82611710565b848454611695565b825550505050565b5f90565b61174a61173e565b611755818484611719565b505050565b5b818110156117785761176d5f82611742565b60018101905061175b565b5050565b601f8211156117bd5761178e81611668565b6117978461167a565b810160208510156117a6578190505b6117ba6117b28561167a565b83018261175a565b50505b505050565b5f82821c905092915050565b5f6117dd5f19846008026117c2565b1980831691505092915050565b5f6117f583836117ce565b9150826002028217905092915050565b61180e82611435565b67ffffffffffffffff81111561182757611826611164565b5b6118318254611638565b61183c82828561177c565b5f60209050601f83116001811461186d575f841561185b578287015190505b61186585826117ea565b8655506118cc565b601f19841661187b86611668565b5f5b828110156118a25784890151825560018201915060208501945060208101905061187d565b868310156118bf57848901516118bb601f8916826117ce565b8355505b6001600288020188555050505b505050505050565b7f706c6179657220616c72656164792072656769737465726564000000000000005f82015250565b5f61190860198361152b565b9150611913826118d4565b602082019050919050565b5f6020820190508181035f830152611935816118fc565b9050919050565b7f636f6e7472616374206e6f7420666f756e6400000000000000000000000000005f82015250565b5f61197060128361152b565b915061197b8261193c565b602082019050919050565b5f6020820190508181035f83015261199d81611964565b9050919050565b7f706c61796572206e6f7420666f756e64000000000000000000000000000000005f82015250565b5f6119d860108361152b565b91506119e3826119a4565b602082019050919050565b5f6020820190508181035f830152611a05816119cc565b9050919050565b5f81905092915050565b5f611a2082611435565b611a2a8185611a0c565b9350611a3a81856020860161144f565b80840191505092915050565b5f611a518284611a16565b915081905092915050565b7f666c6167206973206e6f7420636f7272656374000000000000000000000000005f82015250565b5f611a9060138361152b565b9150611a9b82611a5c565b602082019050919050565b5f6020820190508181035f830152611abd81611a84565b9050919050565b7f636f6e7472616374206e6f7420726567697374657265640000000000000000005f82015250565b5f611af860178361152b565b9150611b0382611ac4565b602082019050919050565b5f6020820190508181035f830152611b2581611aec565b9050919050565b7f4f776e61626c653a206e6577206f776e657220697320746865207a65726f20615f8201527f6464726573730000000000000000000000000000000000000000000000000000602082015250565b5f611b8660268361152b565b9150611b9182611b2c565b604082019050919050565b5f6020820190508181035f830152611bb381611b7a565b9050919050565b7f4f776e61626c653a2063616c6c6572206973206e6f7420746865206f776e65725f82015250565b5f611bee60208361152b565b9150611bf982611bba565b602082019050919050565b5f6020820190508181035f830152611c1b81611be2565b905091905056fea264697066735822122098bead79a2f8c4e3d9db3790cfcf5027124bb56a43584e6597a42b112397ecdc64736f6c63430008170033",
					"opcodes": "PUSH1 0x80 PUSH1 0x40 MSTORE CALLVALUE DUP1 ISZERO PUSH2 0xF JUMPI PUSH0 DUP1 REVERT JUMPDEST POP PUSH2 0x2C PUSH2 0x21 PUSH2 0x31 PUSH1 0x20 SHL PUSH1 0x20 SHR JUMP JUMPDEST PUSH2 0x38 PUSH1 0x20 SHL PUSH1 0x20 SHR JUMP JUMPDEST PUSH2 0xF9 JUMP JUMPDEST PUSH0 CALLER SWAP1 POP SWAP1 JUMP JUMPDEST PUSH0 DUP1 PUSH0 SWAP1 SLOAD SWAP1 PUSH2 0x100 EXP SWAP1 DIV PUSH20 0xFFFFFFFFFFFFFFFFFFFFFFFFFFFFFFFFFFFFFFFF AND SWAP1 POP DUP2 PUSH0 DUP1 PUSH2 0x100 EXP DUP2 SLOAD DUP2 PUSH20 0xFFFFFFFFFFFFFFFFFFFFFFFFFFFFFFFFFFFFFFFF MUL NOT AND SWAP1 DUP4 PUSH20 0xFFFFFFFFFFFFFFFFFFFFFFFFFFFFFFFFFFFFFFFF AND MUL OR SWAP1 SSTORE POP DUP2 PUSH20 0xFFFFFFFFFFFFFFFFFFFFFFFFFFFFFFFFFFFFFFFF AND DUP2 PUSH20 0xFFFFFFFFFFFFFFFFFFFFFFFFFFFFFFFFFFFFFFFF AND PUSH32 0x8BE0079C531659141344CD1FD0A4F28419497F9722A3DAAFE3B4186F6B6457E0 PUSH1 0x40 MLOAD PUSH1 0x40 MLOAD DUP1 SWAP2 SUB SWAP1 LOG3 POP POP JUMP JUMPDEST PUSH2 0x1C58 DUP1 PUSH2 0x106 PUSH0 CODECOPY PUSH0 RETURN INVALID PUSH1 0x80 PUSH1 0x40 MSTORE PUSH1 0x4 CALLDATASIZE LT PUSH2 0x9B JUMPI PUSH0 CALLDATALOAD PUSH1 0xE0 SHR DUP1 PUSH4 0x783B47E6 GT PUSH2 0x63 JUMPI DUP1 PUSH4 0x783B47E6 EQ PUSH2 0x14B JUMPI DUP1 PUSH4 0x88D6D12D EQ PUSH2 0x161 JUMPI DUP1 PUSH4 0x8DA5CB5B EQ PUSH2 0x19D JUMPI DUP1 PUSH4 0xB9938436 EQ PUSH2 0x1C7 JUMPI DUP1 PUSH4 0xF2FDE38B EQ PUSH2 0x203 JUMPI DUP1 PUSH4 0xF4F2821B EQ PUSH2 0x22B JUMPI PUSH2 0x9B JUMP JUMPDEST DUP1 PUSH4 0x1AE8FC87 EQ PUSH2 0x9F JUMPI DUP1 PUSH4 0x27B5DB8A EQ PUSH2 0xC7 JUMPI DUP1 PUSH4 0x40B00907 EQ PUSH2 0xDD JUMPI DUP1 PUSH4 0x5A65CF95 EQ PUSH2 0xF9 JUMPI DUP1 PUSH4 0x715018A6 EQ PUSH2 0x135 JUMPI JUMPDEST PUSH0 DUP1 REVERT JUMPDEST CALLVALUE DUP1 ISZERO PUSH2 0xAA JUMPI PUSH0 DUP1 REVERT JUMPDEST POP PUSH2 0xC5 PUSH1 0x4 DUP1 CALLDATASIZE SUB DUP2 ADD SWAP1 PUSH2 0xC0 SWAP2 SWAP1 PUSH2 0x1288 JUMP JUMPDEST PUSH2 0x253 JUMP JUMPDEST STOP JUMPDEST CALLVALUE DUP1 ISZERO PUSH2 0xD2 JUMPI PUSH0 DUP1 REVERT JUMPDEST POP PUSH2 0xDB PUSH2 0x562 JUMP JUMPDEST STOP JUMPDEST PUSH2 0xF7 PUSH1 0x4 DUP1 CALLDATASIZE SUB DUP2 ADD SWAP1 PUSH2 0xF2 SWAP2 SWAP1 PUSH2 0x1308 JUMP JUMPDEST PUSH2 0x643 JUMP JUMPDEST STOP JUMPDEST CALLVALUE DUP1 ISZERO PUSH2 0x104 JUMPI PUSH0 DUP1 REVERT JUMPDEST POP PUSH2 0x11F PUSH1 0x4 DUP1 CALLDATASIZE SUB DUP2 ADD SWAP1 PUSH2 0x11A SWAP2 SWAP1 PUSH2 0x1362 JUMP JUMPDEST PUSH2 0x980 JUMP JUMPDEST PUSH1 0x40 MLOAD PUSH2 0x12C SWAP2 SWAP1 PUSH2 0x13A7 JUMP JUMPDEST PUSH1 0x40 MLOAD DUP1 SWAP2 SUB SWAP1 RETURN JUMPDEST CALLVALUE DUP1 ISZERO PUSH2 0x140 JUMPI PUSH0 DUP1 REVERT JUMPDEST POP PUSH2 0x149 PUSH2 0x9D2 JUMP JUMPDEST STOP JUMPDEST CALLVALUE DUP1 ISZERO PUSH2 0x156 JUMPI PUSH0 DUP1 REVERT JUMPDEST POP PUSH2 0x15F PUSH2 0x9E5 JUMP JUMPDEST STOP JUMPDEST CALLVALUE DUP1 ISZERO PUSH2 0x16C JUMPI PUSH0 DUP1 REVERT JUMPDEST POP PUSH2 0x187 PUSH1 0x4 DUP1 CALLDATASIZE SUB DUP2 ADD SWAP1 PUSH2 0x182 SWAP2 SWAP1 PUSH2 0x13C0 JUMP JUMPDEST PUSH2 0xAC4 JUMP JUMPDEST PUSH1 0x40 MLOAD PUSH2 0x194 SWAP2 SWAP1 PUSH2 0x13A7 JUMP JUMPDEST PUSH1 0x40 MLOAD DUP1 SWAP2 SUB SWAP1 RETURN JUMPDEST CALLVALUE DUP1 ISZERO PUSH2 0x1A8 JUMPI PUSH0 DUP1 REVERT JUMPDEST POP PUSH2 0x1B1 PUSH2 0xB55 JUMP JUMPDEST PUSH1 0x40 MLOAD PUSH2 0x1BE SWAP2 SWAP1 PUSH2 0x140D JUMP JUMPDEST PUSH1 0x40 MLOAD DUP1 SWAP2 SUB SWAP1 RETURN JUMPDEST CALLVALUE DUP1 ISZERO PUSH2 0x1D2 JUMPI PUSH0 DUP1 REVERT JUMPDEST POP PUSH2 0x1ED PUSH1 0x4 DUP1 CALLDATASIZE SUB DUP2 ADD SWAP1 PUSH2 0x1E8 SWAP2 SWAP1 PUSH2 0x13C0 JUMP JUMPDEST PUSH2 0xB7C JUMP JUMPDEST PUSH1 0x40 MLOAD PUSH2 0x1FA SWAP2 SWAP1 PUSH2 0x150B JUMP JUMPDEST PUSH1 0x40 MLOAD DUP1 SWAP2 SUB SWAP1 RETURN JUMPDEST CALLVALUE DUP1 ISZERO PUSH2 0x20E JUMPI PUSH0 DUP1 REVERT JUMPDEST POP PUSH2 0x229 PUSH1 0x4 DUP1 CALLDATASIZE SUB DUP2 ADD SWAP1 PUSH2 0x224 SWAP2 SWAP1 PUSH2 0x1362 JUMP JUMPDEST PUSH2 0xDDD JUMP JUMPDEST STOP JUMPDEST CALLVALUE DUP1 ISZERO PUSH2 0x236 JUMPI PUSH0 DUP1 REVERT JUMPDEST POP PUSH2 0x251 PUSH1 0x4 DUP1 CALLDATASIZE SUB DUP2 ADD SWAP1 PUSH2 0x24C SWAP2 SWAP1 PUSH2 0x1362 JUMP JUMPDEST PUSH2 0xE5F JUMP JUMPDEST STOP JUMPDEST PUSH2 0x25B PUSH2 0xF47 JUMP JUMPDEST PUSH1 0x1 PUSH0 DUP6 PUSH20 0xFFFFFFFFFFFFFFFFFFFFFFFFFFFFFFFFFFFFFFFF AND PUSH20 0xFFFFFFFFFFFFFFFFFFFFFFFFFFFFFFFFFFFFFFFF AND DUP2 MSTORE PUSH1 0x20 ADD SWAP1 DUP2 MSTORE PUSH1 0x20 ADD PUSH0 KECCAK256 PUSH0 SWAP1 SLOAD SWAP1 PUSH2 0x100 EXP SWAP1 DIV PUSH1 0xFF AND ISZERO PUSH2 0x2E5 JUMPI PUSH1 0x40 MLOAD PUSH32 0x8C379A000000000000000000000000000000000000000000000000000000000 DUP2 MSTORE PUSH1 0x4 ADD PUSH2 0x2DC SWAP1 PUSH2 0x1585 JUMP JUMPDEST PUSH1 0x40 MLOAD DUP1 SWAP2 SUB SWAP1 REVERT JUMPDEST PUSH1 0x2 PUSH0 DUP5 PUSH20 0xFFFFFFFFFFFFFFFFFFFFFFFFFFFFFFFFFFFFFFFF AND PUSH20 0xFFFFFFFFFFFFFFFFFFFFFFFFFFFFFFFFFFFFFFFF AND DUP2 MSTORE PUSH1 0x20 ADD SWAP1 DUP2 MSTORE PUSH1 0x20 ADD PUSH0 KECCAK256 PUSH0 SWAP1 SLOAD SWAP1 PUSH2 0x100 EXP SWAP1 DIV PUSH1 0xFF AND PUSH2 0x36E JUMPI PUSH1 0x40 MLOAD PUSH32 0x8C379A000000000000000000000000000000000000000000000000000000000 DUP2 MSTORE PUSH1 0x4 ADD PUSH2 0x365 SWAP1 PUSH2 0x15ED JUMP JUMPDEST PUSH1 0x40 MLOAD DUP1 SWAP2 SUB SWAP1 REVERT JUMPDEST PUSH1 0x1 DUP1 PUSH0 DUP7 PUSH20 0xFFFFFFFFFFFFFFFFFFFFFFFFFFFFFFFFFFFFFFFF AND PUSH20 0xFFFFFFFFFFFFFFFFFFFFFFFFFFFFFFFFFFFFFFFF AND DUP2 MSTORE PUSH1 0x20 ADD SWAP1 DUP2 MSTORE PUSH1 0x20 ADD PUSH0 KECCAK256 PUSH0 PUSH2 0x100 EXP DUP2 SLOAD DUP2 PUSH1 0xFF MUL NOT AND SWAP1 DUP4 ISZERO ISZERO MUL OR SWAP1 SSTORE POP DUP2 PUSH1 0x3 PUSH0 DUP6 PUSH20 0xFFFFFFFFFFFFFFFFFFFFFFFFFFFFFFFFFFFFFFFF AND PUSH20 0xFFFFFFFFFFFFFFFFFFFFFFFFFFFFFFFFFFFFFFFF AND DUP2 MSTORE PUSH1 0x20 ADD SWAP1 DUP2 MSTORE PUSH1 0x20 ADD PUSH0 KECCAK256 PUSH0 DUP7 PUSH20 0xFFFFFFFFFFFFFFFFFFFFFFFFFFFFFFFFFFFFFFFF AND PUSH20 0xFFFFFFFFFFFFFFFFFFFFFFFFFFFFFFFFFFFFFFFF AND DUP2 MSTORE PUSH1 0x20 ADD SWAP1 DUP2 MSTORE PUSH1 0x20 ADD PUSH0 KECCAK256 PUSH0 ADD DUP2 SWAP1 SSTORE POP DUP1 PUSH1 0x3 PUSH0 DUP6 PUSH20 0xFFFFFFFFFFFFFFFFFFFFFFFFFFFFFFFFFFFFFFFF AND PUSH20 0xFFFFFFFFFFFFFFFFFFFFFFFFFFFFFFFFFFFFFFFF AND DUP2 MSTORE PUSH1 0x20 ADD SWAP1 DUP2 MSTORE PUSH1 0x20 ADD PUSH0 KECCAK256 PUSH0 DUP7 PUSH20 0xFFFFFFFFFFFFFFFFFFFFFFFFFFFFFFFFFFFFFFFF AND PUSH20 0xFFFFFFFFFFFFFFFFFFFFFFFFFFFFFFFFFFFFFFFF AND DUP2 MSTORE PUSH1 0x20 ADD SWAP1 DUP2 MSTORE PUSH1 0x20 ADD PUSH0 KECCAK256 PUSH1 0x1 ADD SWAP1 DUP2 PUSH2 0x4C9 SWAP2 SWAP1 PUSH2 0x1805 JUMP JUMPDEST POP PUSH0 PUSH1 0x3 PUSH0 DUP6 PUSH20 0xFFFFFFFFFFFFFFFFFFFFFFFFFFFFFFFFFFFFFFFF AND PUSH20 0xFFFFFFFFFFFFFFFFFFFFFFFFFFFFFFFFFFFFFFFF AND DUP2 MSTORE PUSH1 0x20 ADD SWAP1 DUP2 MSTORE PUSH1 0x20 ADD PUSH0 KECCAK256 PUSH0 DUP7 PUSH20 0xFFFFFFFFFFFFFFFFFFFFFFFFFFFFFFFFFFFFFFFF AND PUSH20 0xFFFFFFFFFFFFFFFFFFFFFFFFFFFFFFFFFFFFFFFF AND DUP2 MSTORE PUSH1 0x20 ADD SWAP1 DUP2 MSTORE PUSH1 0x20 ADD PUSH0 KECCAK256 PUSH1 0x2 ADD PUSH0 PUSH2 0x100 EXP DUP2 SLOAD DUP2 PUSH1 0xFF MUL NOT AND SWAP1 DUP4 ISZERO ISZERO MUL OR SWAP1 SSTORE POP POP POP POP POP JUMP JUMPDEST PUSH1 0x2 PUSH0 CALLER PUSH20 0xFFFFFFFFFFFFFFFFFFFFFFFFFFFFFFFFFFFFFFFF AND PUSH20 0xFFFFFFFFFFFFFFFFFFFFFFFFFFFFFFFFFFFFFFFF AND DUP2 MSTORE PUSH1 0x20 ADD SWAP1 DUP2 MSTORE PUSH1 0x20 ADD PUSH0 KECCAK256 PUSH0 SWAP1 SLOAD SWAP1 PUSH2 0x100 EXP SWAP1 DIV PUSH1 0xFF AND ISZERO PUSH2 0x5EC JUMPI PUSH1 0x40 MLOAD PUSH32 0x8C379A000000000000000000000000000000000000000000000000000000000 DUP2 MSTORE PUSH1 0x4 ADD PUSH2 0x5E3 SWAP1 PUSH2 0x191E JUMP JUMPDEST PUSH1 0x40 MLOAD DUP1 SWAP2 SUB SWAP1 REVERT JUMPDEST PUSH1 0x1 PUSH1 0x2 PUSH0 CALLER PUSH20 0xFFFFFFFFFFFFFFFFFFFFFFFFFFFFFFFFFFFFFFFF AND PUSH20 0xFFFFFFFFFFFFFFFFFFFFFFFFFFFFFFFFFFFFFFFF AND DUP2 MSTORE PUSH1 0x20 ADD SWAP1 DUP2 MSTORE PUSH1 0x20 ADD PUSH0 KECCAK256 PUSH0 PUSH2 0x100 EXP DUP2 SLOAD DUP2 PUSH1 0xFF MUL NOT AND SWAP1 DUP4 ISZERO ISZERO MUL OR SWAP1 SSTORE POP JUMP JUMPDEST PUSH0 PUSH1 0x3 PUSH0 CALLER PUSH20 0xFFFFFFFFFFFFFFFFFFFFFFFFFFFFFFFFFFFFFFFF AND PUSH20 0xFFFFFFFFFFFFFFFFFFFFFFFFFFFFFFFFFFFFFFFF AND DUP2 MSTORE PUSH1 0x20 ADD SWAP1 DUP2 MSTORE PUSH1 0x20 ADD PUSH0 KECCAK256 PUSH0 DUP5 PUSH20 0xFFFFFFFFFFFFFFFFFFFFFFFFFFFFFFFFFFFFFFFF AND PUSH20 0xFFFFFFFFFFFFFFFFFFFFFFFFFFFFFFFFFFFFFFFF AND DUP2 MSTORE PUSH1 0x20 ADD SWAP1 DUP2 MSTORE PUSH1 0x20 ADD PUSH0 KECCAK256 PUSH1 0x1 ADD DUP1 SLOAD PUSH2 0x6CA SWAP1 PUSH2 0x1638 JUMP JUMPDEST DUP1 PUSH1 0x1F ADD PUSH1 0x20 DUP1 SWAP2 DIV MUL PUSH1 0x20 ADD PUSH1 0x40 MLOAD SWAP1 DUP2 ADD PUSH1 0x40 MSTORE DUP1 SWAP3 SWAP2 SWAP1 DUP2 DUP2 MSTORE PUSH1 0x20 ADD DUP3 DUP1 SLOAD PUSH2 0x6F6 SWAP1 PUSH2 0x1638 JUMP JUMPDEST DUP1 ISZERO PUSH2 0x741 JUMPI DUP1 PUSH1 0x1F LT PUSH2 0x718 JUMPI PUSH2 0x100 DUP1 DUP4 SLOAD DIV MUL DUP4 MSTORE SWAP2 PUSH1 0x20 ADD SWAP2 PUSH2 0x741 JUMP JUMPDEST DUP3 ADD SWAP2 SWAP1 PUSH0 MSTORE PUSH1 0x20 PUSH0 KECCAK256 SWAP1 JUMPDEST DUP2 SLOAD DUP2 MSTORE SWAP1 PUSH1 0x1 ADD SWAP1 PUSH1 0x20 ADD DUP1 DUP4 GT PUSH2 0x724 JUMPI DUP3 SWAP1 SUB PUSH1 0x1F AND DUP3 ADD SWAP2 JUMPDEST POP POP POP POP POP SWAP1 POP PUSH1 0x1 PUSH0 DUP5 PUSH20 0xFFFFFFFFFFFFFFFFFFFFFFFFFFFFFFFFFFFFFFFF AND PUSH20 0xFFFFFFFFFFFFFFFFFFFFFFFFFFFFFFFFFFFFFFFF AND DUP2 MSTORE PUSH1 0x20 ADD SWAP1 DUP2 MSTORE PUSH1 0x20 ADD PUSH0 KECCAK256 PUSH0 SWAP1 SLOAD SWAP1 PUSH2 0x100 EXP SWAP1 DIV PUSH1 0xFF AND PUSH2 0x7D1 JUMPI PUSH1 0x40 MLOAD PUSH32 0x8C379A000000000000000000000000000000000000000000000000000000000 DUP2 MSTORE PUSH1 0x4 ADD PUSH2 0x7C8 SWAP1 PUSH2 0x1986 JUMP JUMPDEST PUSH1 0x40 MLOAD DUP1 SWAP2 SUB SWAP1 REVERT JUMPDEST PUSH1 0x2 PUSH0 CALLER PUSH20 0xFFFFFFFFFFFFFFFFFFFFFFFFFFFFFFFFFFFFFFFF AND PUSH20 0xFFFFFFFFFFFFFFFFFFFFFFFFFFFFFFFFFFFFFFFF AND DUP2 MSTORE PUSH1 0x20 ADD SWAP1 DUP2 MSTORE PUSH1 0x20 ADD PUSH0 KECCAK256 PUSH0 SWAP1 SLOAD SWAP1 PUSH2 0x100 EXP SWAP1 DIV PUSH1 0xFF AND PUSH2 0x85A JUMPI PUSH1 0x40 MLOAD PUSH32 0x8C379A000000000000000000000000000000000000000000000000000000000 DUP2 MSTORE PUSH1 0x4 ADD PUSH2 0x851 SWAP1 PUSH2 0x19EE JUMP JUMPDEST PUSH1 0x40 MLOAD DUP1 SWAP2 SUB SWAP1 REVERT JUMPDEST DUP2 PUSH1 0x40 MLOAD PUSH1 0x20 ADD PUSH2 0x86B SWAP2 SWAP1 PUSH2 0x1A46 JUMP JUMPDEST PUSH1 0x40 MLOAD PUSH1 0x20 DUP2 DUP4 SUB SUB DUP2 MSTORE SWAP1 PUSH1 0x40 MSTORE DUP1 MLOAD SWAP1 PUSH1 0x20 ADD KECCAK256 DUP2 PUSH1 0x40 MLOAD PUSH1 0x20 ADD PUSH2 0x892 SWAP2 SWAP1 PUSH2 0x1A46 JUMP JUMPDEST PUSH1 0x40 MLOAD PUSH1 0x20 DUP2 DUP4 SUB SUB DUP2 MSTORE SWAP1 PUSH1 0x40 MSTORE DUP1 MLOAD SWAP1 PUSH1 0x20 ADD KECCAK256 EQ PUSH2 0x8E8 JUMPI PUSH1 0x40 MLOAD PUSH32 0x8C379A000000000000000000000000000000000000000000000000000000000 DUP2 MSTORE PUSH1 0x4 ADD PUSH2 0x8DF SWAP1 PUSH2 0x1AA6 JUMP JUMPDEST PUSH1 0x40 MLOAD DUP1 SWAP2 SUB SWAP1 REVERT JUMPDEST PUSH1 0x1 PUSH1 0x3 PUSH0 CALLER PUSH20 0xFFFFFFFFFFFFFFFFFFFFFFFFFFFFFFFFFFFFFFFF AND PUSH20 0xFFFFFFFFFFFFFFFFFFFFFFFFFFFFFFFFFFFFFFFF AND DUP2 MSTORE PUSH1 0x20 ADD SWAP1 DUP2 MSTORE PUSH1 0x20 ADD PUSH0 KECCAK256 PUSH0 DUP6 PUSH20 0xFFFFFFFFFFFFFFFFFFFFFFFFFFFFFFFFFFFFFFFF AND PUSH20 0xFFFFFFFFFFFFFFFFFFFFFFFFFFFFFFFFFFFFFFFF AND DUP2 MSTORE PUSH1 0x20 ADD SWAP1 DUP2 MSTORE PUSH1 0x20 ADD PUSH0 KECCAK256 PUSH1 0x2 ADD PUSH0 PUSH2 0x100 EXP DUP2 SLOAD DUP2 PUSH1 0xFF MUL NOT AND SWAP1 DUP4 ISZERO ISZERO MUL OR SWAP1 SSTORE POP POP POP POP JUMP JUMPDEST PUSH0 PUSH1 0x2 PUSH0 DUP4 PUSH20 0xFFFFFFFFFFFFFFFFFFFFFFFFFFFFFFFFFFFFFFFF AND PUSH20 0xFFFFFFFFFFFFFFFFFFFFFFFFFFFFFFFFFFFFFFFF AND DUP2 MSTORE PUSH1 0x20 ADD SWAP1 DUP2 MSTORE PUSH1 0x20 ADD PUSH0 KECCAK256 PUSH0 SWAP1 SLOAD SWAP1 PUSH2 0x100 EXP SWAP1 DIV PUSH1 0xFF AND SWAP1 POP SWAP2 SWAP1 POP JUMP JUMPDEST PUSH2 0x9DA PUSH2 0xF47 JUMP JUMPDEST PUSH2 0x9E3 PUSH0 PUSH2 0xFC5 JUMP JUMPDEST JUMP JUMPDEST PUSH1 0x2 PUSH0 CALLER PUSH20 0xFFFFFFFFFFFFFFFFFFFFFFFFFFFFFFFFFFFFFFFF AND PUSH20 0xFFFFFFFFFFFFFFFFFFFFFFFFFFFFFFFFFFFFFFFF AND DUP2 MSTORE PUSH1 0x20 ADD SWAP1 DUP2 MSTORE PUSH1 0x20 ADD PUSH0 KECCAK256 PUSH0 SWAP1 SLOAD SWAP1 PUSH2 0x100 EXP SWAP1 DIV PUSH1 0xFF AND PUSH2 0xA6E JUMPI PUSH1 0x40 MLOAD PUSH32 0x8C379A000000000000000000000000000000000000000000000000000000000 DUP2 MSTORE PUSH1 0x4 ADD PUSH2 0xA65 SWAP1 PUSH2 0x15ED JUMP JUMPDEST PUSH1 0x40 MLOAD DUP1 SWAP2 SUB SWAP1 REVERT JUMPDEST PUSH0 PUSH1 0x2 PUSH0 CALLER PUSH20 0xFFFFFFFFFFFFFFFFFFFFFFFFFFFFFFFFFFFFFFFF AND PUSH20 0xFFFFFFFFFFFFFFFFFFFFFFFFFFFFFFFFFFFFFFFF AND DUP2 MSTORE PUSH1 0x20 ADD SWAP1 DUP2 MSTORE PUSH1 0x20 ADD PUSH0 KECCAK256 PUSH0 PUSH2 0x100 EXP DUP2 SLOAD DUP2 PUSH1 0xFF MUL NOT AND SWAP1 DUP4 ISZERO ISZERO MUL OR SWAP1 SSTORE POP JUMP JUMPDEST PUSH0 PUSH1 0x3 PUSH0 DUP4 PUSH20 0xFFFFFFFFFFFFFFFFFFFFFFFFFFFFFFFFFFFFFFFF AND PUSH20 0xFFFFFFFFFFFFFFFFFFFFFFFFFFFFFFFFFFFFFFFF AND DUP2 MSTORE PUSH1 0x20 ADD SWAP1 DUP2 MSTORE PUSH1 0x20 ADD PUSH0 KECCAK256 PUSH0 DUP5 PUSH20 0xFFFFFFFFFFFFFFFFFFFFFFFFFFFFFFFFFFFFFFFF AND PUSH20 0xFFFFFFFFFFFFFFFFFFFFFFFFFFFFFFFFFFFFFFFF AND DUP2 MSTORE PUSH1 0x20 ADD SWAP1 DUP2 MSTORE PUSH1 0x20 ADD PUSH0 KECCAK256 PUSH1 0x2 ADD PUSH0 SWAP1 SLOAD SWAP1 PUSH2 0x100 EXP SWAP1 DIV PUSH1 0xFF AND SWAP1 POP SWAP3 SWAP2 POP POP JUMP JUMPDEST PUSH0 DUP1 PUSH0 SWAP1 SLOAD SWAP1 PUSH2 0x100 EXP SWAP1 DIV PUSH20 0xFFFFFFFFFFFFFFFFFFFFFFFFFFFFFFFFFFFFFFFF AND SWAP1 POP SWAP1 JUMP JUMPDEST PUSH2 0xB84 PUSH2 0x108D JUMP JUMPDEST PUSH2 0xB8C PUSH2 0xF47 JUMP JUMPDEST PUSH1 0x2 PUSH0 CALLER PUSH20 0xFFFFFFFFFFFFFFFFFFFFFFFFFFFFFFFFFFFFFFFF AND PUSH20 0xFFFFFFFFFFFFFFFFFFFFFFFFFFFFFFFFFFFFFFFF AND DUP2 MSTORE PUSH1 0x20 ADD SWAP1 DUP2 MSTORE PUSH1 0x20 ADD PUSH0 KECCAK256 PUSH0 SWAP1 SLOAD SWAP1 PUSH2 0x100 EXP SWAP1 DIV PUSH1 0xFF AND ISZERO PUSH2 0xC16 JUMPI PUSH1 0x40 MLOAD PUSH32 0x8C379A000000000000000000000000000000000000000000000000000000000 DUP2 MSTORE PUSH1 0x4 ADD PUSH2 0xC0D SWAP1 PUSH2 0x191E JUMP JUMPDEST PUSH1 0x40 MLOAD DUP1 SWAP2 SUB SWAP1 REVERT JUMPDEST PUSH1 0x1 PUSH0 DUP4 PUSH20 0xFFFFFFFFFFFFFFFFFFFFFFFFFFFFFFFFFFFFFFFF AND PUSH20 0xFFFFFFFFFFFFFFFFFFFFFFFFFFFFFFFFFFFFFFFF AND DUP2 MSTORE PUSH1 0x20 ADD SWAP1 DUP2 MSTORE PUSH1 0x20 ADD PUSH0 KECCAK256 PUSH0 SWAP1 SLOAD SWAP1 PUSH2 0x100 EXP SWAP1 DIV PUSH1 0xFF AND PUSH2 0xC9F JUMPI PUSH1 0x40 MLOAD PUSH32 0x8C379A000000000000000000000000000000000000000000000000000000000 DUP2 MSTORE PUSH1 0x4 ADD PUSH2 0xC96 SWAP1 PUSH2 0x1B0E JUMP JUMPDEST PUSH1 0x40 MLOAD DUP1 SWAP2 SUB SWAP1 REVERT JUMPDEST PUSH1 0x3 PUSH0 DUP5 PUSH20 0xFFFFFFFFFFFFFFFFFFFFFFFFFFFFFFFFFFFFFFFF AND PUSH20 0xFFFFFFFFFFFFFFFFFFFFFFFFFFFFFFFFFFFFFFFF AND DUP2 MSTORE PUSH1 0x20 ADD SWAP1 DUP2 MSTORE PUSH1 0x20 ADD PUSH0 KECCAK256 PUSH0 DUP4 PUSH20 0xFFFFFFFFFFFFFFFFFFFFFFFFFFFFFFFFFFFFFFFF AND PUSH20 0xFFFFFFFFFFFFFFFFFFFFFFFFFFFFFFFFFFFFFFFF AND DUP2 MSTORE PUSH1 0x20 ADD SWAP1 DUP2 MSTORE PUSH1 0x20 ADD PUSH0 KECCAK256 PUSH1 0x40 MLOAD DUP1 PUSH1 0x60 ADD PUSH1 0x40 MSTORE SWAP1 DUP2 PUSH0 DUP3 ADD SLOAD DUP2 MSTORE PUSH1 0x20 ADD PUSH1 0x1 DUP3 ADD DUP1 SLOAD PUSH2 0xD3B SWAP1 PUSH2 0x1638 JUMP JUMPDEST DUP1 PUSH1 0x1F ADD PUSH1 0x20 DUP1 SWAP2 DIV MUL PUSH1 0x20 ADD PUSH1 0x40 MLOAD SWAP1 DUP2 ADD PUSH1 0x40 MSTORE DUP1 SWAP3 SWAP2 SWAP1 DUP2 DUP2 MSTORE PUSH1 0x20 ADD DUP3 DUP1 SLOAD PUSH2 0xD67 SWAP1 PUSH2 0x1638 JUMP JUMPDEST DUP1 ISZERO PUSH2 0xDB2 JUMPI DUP1 PUSH1 0x1F LT PUSH2 0xD89 JUMPI PUSH2 0x100 DUP1 DUP4 SLOAD DIV MUL DUP4 MSTORE SWAP2 PUSH1 0x20 ADD SWAP2 PUSH2 0xDB2 JUMP JUMPDEST DUP3 ADD SWAP2 SWAP1 PUSH0 MSTORE PUSH1 0x20 PUSH0 KECCAK256 SWAP1 JUMPDEST DUP2 SLOAD DUP2 MSTORE SWAP1 PUSH1 0x1 ADD SWAP1 PUSH1 0x20 ADD DUP1 DUP4 GT PUSH2 0xD95 JUMPI DUP3 SWAP1 SUB PUSH1 0x1F AND DUP3 ADD SWAP2 JUMPDEST POP POP POP POP POP DUP2 MSTORE PUSH1 0x20 ADD PUSH1 0x2 DUP3 ADD PUSH0 SWAP1 SLOAD SWAP1 PUSH2 0x100 EXP SWAP1 DIV PUSH1 0xFF AND ISZERO ISZERO ISZERO ISZERO DUP2 MSTORE POP POP SWAP1 POP SWAP3 SWAP2 POP POP JUMP JUMPDEST PUSH2 0xDE5 PUSH2 0xF47 JUMP JUMPDEST PUSH0 PUSH20 0xFFFFFFFFFFFFFFFFFFFFFFFFFFFFFFFFFFFFFFFF AND DUP2 PUSH20 0xFFFFFFFFFFFFFFFFFFFFFFFFFFFFFFFFFFFFFFFF AND SUB PUSH2 0xE53 JUMPI PUSH1 0x40 MLOAD PUSH32 0x8C379A000000000000000000000000000000000000000000000000000000000 DUP2 MSTORE PUSH1 0x4 ADD PUSH2 0xE4A SWAP1 PUSH2 0x1B9C JUMP JUMPDEST PUSH1 0x40 MLOAD DUP1 SWAP2 SUB SWAP1 REVERT JUMPDEST PUSH2 0xE5C DUP2 PUSH2 0xFC5 JUMP JUMPDEST POP JUMP JUMPDEST PUSH2 0xE67 PUSH2 0xF47 JUMP JUMPDEST PUSH1 0x1 PUSH0 DUP3 PUSH20 0xFFFFFFFFFFFFFFFFFFFFFFFFFFFFFFFFFFFFFFFF AND PUSH20 0xFFFFFFFFFFFFFFFFFFFFFFFFFFFFFFFFFFFFFFFF AND DUP2 MSTORE PUSH1 0x20 ADD SWAP1 DUP2 MSTORE PUSH1 0x20 ADD PUSH0 KECCAK256 PUSH0 SWAP1 SLOAD SWAP1 PUSH2 0x100 EXP SWAP1 DIV PUSH1 0xFF AND PUSH2 0xEF0 JUMPI PUSH1 0x40 MLOAD PUSH32 0x8C379A000000000000000000000000000000000000000000000000000000000 DUP2 MSTORE PUSH1 0x4 ADD PUSH2 0xEE7 SWAP1 PUSH2 0x1B0E JUMP JUMPDEST PUSH1 0x40 MLOAD DUP1 SWAP2 SUB SWAP1 REVERT JUMPDEST PUSH0 PUSH1 0x1 PUSH0 DUP4 PUSH20 0xFFFFFFFFFFFFFFFFFFFFFFFFFFFFFFFFFFFFFFFF AND PUSH20 0xFFFFFFFFFFFFFFFFFFFFFFFFFFFFFFFFFFFFFFFF AND DUP2 MSTORE PUSH1 0x20 ADD SWAP1 DUP2 MSTORE PUSH1 0x20 ADD PUSH0 KECCAK256 PUSH0 PUSH2 0x100 EXP DUP2 SLOAD DUP2 PUSH1 0xFF MUL NOT AND SWAP1 DUP4 ISZERO ISZERO MUL OR SWAP1 SSTORE POP POP JUMP JUMPDEST PUSH2 0xF4F PUSH2 0x1086 JUMP JUMPDEST PUSH20 0xFFFFFFFFFFFFFFFFFFFFFFFFFFFFFFFFFFFFFFFF AND PUSH2 0xF6D PUSH2 0xB55 JUMP JUMPDEST PUSH20 0xFFFFFFFFFFFFFFFFFFFFFFFFFFFFFFFFFFFFFFFF AND EQ PUSH2 0xFC3 JUMPI PUSH1 0x40 MLOAD PUSH32 0x8C379A000000000000000000000000000000000000000000000000000000000 DUP2 MSTORE PUSH1 0x4 ADD PUSH2 0xFBA SWAP1 PUSH2 0x1C04 JUMP JUMPDEST PUSH1 0x40 MLOAD DUP1 SWAP2 SUB SWAP1 REVERT JUMPDEST JUMP JUMPDEST PUSH0 DUP1 PUSH0 SWAP1 SLOAD SWAP1 PUSH2 0x100 EXP SWAP1 DIV PUSH20 0xFFFFFFFFFFFFFFFFFFFFFFFFFFFFFFFFFFFFFFFF AND SWAP1 POP DUP2 PUSH0 DUP1 PUSH2 0x100 EXP DUP2 SLOAD DUP2 PUSH20 0xFFFFFFFFFFFFFFFFFFFFFFFFFFFFFFFFFFFFFFFF MUL NOT AND SWAP1 DUP4 PUSH20 0xFFFFFFFFFFFFFFFFFFFFFFFFFFFFFFFFFFFFFFFF AND MUL OR SWAP1 SSTORE POP DUP2 PUSH20 0xFFFFFFFFFFFFFFFFFFFFFFFFFFFFFFFFFFFFFFFF AND DUP2 PUSH20 0xFFFFFFFFFFFFFFFFFFFFFFFFFFFFFFFFFFFFFFFF AND PUSH32 0x8BE0079C531659141344CD1FD0A4F28419497F9722A3DAAFE3B4186F6B6457E0 PUSH1 0x40 MLOAD PUSH1 0x40 MLOAD DUP1 SWAP2 SUB SWAP1 LOG3 POP POP JUMP JUMPDEST PUSH0 CALLER SWAP1 POP SWAP1 JUMP JUMPDEST PUSH1 0x40 MLOAD DUP1 PUSH1 0x60 ADD PUSH1 0x40 MSTORE DUP1 PUSH0 DUP2 MSTORE PUSH1 0x20 ADD PUSH1 0x60 DUP2 MSTORE PUSH1 0x20 ADD PUSH0 ISZERO ISZERO DUP2 MSTORE POP SWAP1 JUMP JUMPDEST PUSH0 PUSH1 0x40 MLOAD SWAP1 POP SWAP1 JUMP JUMPDEST PUSH0 DUP1 REVERT JUMPDEST PUSH0 DUP1 REVERT JUMPDEST PUSH0 PUSH20 0xFFFFFFFFFFFFFFFFFFFFFFFFFFFFFFFFFFFFFFFF DUP3 AND SWAP1 POP SWAP2 SWAP1 POP JUMP JUMPDEST PUSH0 PUSH2 0x10E8 DUP3 PUSH2 0x10BF JUMP JUMPDEST SWAP1 POP SWAP2 SWAP1 POP JUMP JUMPDEST PUSH2 0x10F8 DUP2 PUSH2 0x10DE JUMP JUMPDEST DUP2 EQ PUSH2 0x1102 JUMPI PUSH0 DUP1 REVERT JUMPDEST POP JUMP JUMPDEST PUSH0 DUP2 CALLDATALOAD SWAP1 POP PUSH2 0x1113 DUP2 PUSH2 0x10EF JUMP JUMPDEST SWAP3 SWAP2 POP POP JUMP JUMPDEST PUSH0 DUP2 SWAP1 POP SWAP2 SWAP1 POP JUMP JUMPDEST PUSH2 0x112B DUP2 PUSH2 0x1119 JUMP JUMPDEST DUP2 EQ PUSH2 0x1135 JUMPI PUSH0 DUP1 REVERT JUMPDEST POP JUMP JUMPDEST PUSH0 DUP2 CALLDATALOAD SWAP1 POP PUSH2 0x1146 DUP2 PUSH2 0x1122 JUMP JUMPDEST SWAP3 SWAP2 POP POP JUMP JUMPDEST PUSH0 DUP1 REVERT JUMPDEST PUSH0 DUP1 REVERT JUMPDEST PUSH0 PUSH1 0x1F NOT PUSH1 0x1F DUP4 ADD AND SWAP1 POP SWAP2 SWAP1 POP JUMP JUMPDEST PUSH32 0x4E487B7100000000000000000000000000000000000000000000000000000000 PUSH0 MSTORE PUSH1 0x41 PUSH1 0x4 MSTORE PUSH1 0x24 PUSH0 REVERT JUMPDEST PUSH2 0x119A DUP3 PUSH2 0x1154 JUMP JUMPDEST DUP2 ADD DUP2 DUP2 LT PUSH8 0xFFFFFFFFFFFFFFFF DUP3 GT OR ISZERO PUSH2 0x11B9 JUMPI PUSH2 0x11B8 PUSH2 0x1164 JUMP JUMPDEST JUMPDEST DUP1 PUSH1 0x40 MSTORE POP POP POP JUMP JUMPDEST PUSH0 PUSH2 0x11CB PUSH2 0x10AE JUMP JUMPDEST SWAP1 POP PUSH2 0x11D7 DUP3 DUP3 PUSH2 0x1191 JUMP JUMPDEST SWAP2 SWAP1 POP JUMP JUMPDEST PUSH0 PUSH8 0xFFFFFFFFFFFFFFFF DUP3 GT ISZERO PUSH2 0x11F6 JUMPI PUSH2 0x11F5 PUSH2 0x1164 JUMP JUMPDEST JUMPDEST PUSH2 0x11FF DUP3 PUSH2 0x1154 JUMP JUMPDEST SWAP1 POP PUSH1 0x20 DUP2 ADD SWAP1 POP SWAP2 SWAP1 POP JUMP JUMPDEST DUP3 DUP2 DUP4 CALLDATACOPY PUSH0 DUP4 DUP4 ADD MSTORE POP POP POP JUMP JUMPDEST PUSH0 PUSH2 0x122C PUSH2 0x1227 DUP5 PUSH2 0x11DC JUMP JUMPDEST PUSH2 0x11C2 JUMP JUMPDEST SWAP1 POP DUP3 DUP2 MSTORE PUSH1 0x20 DUP2 ADD DUP5 DUP5 DUP5 ADD GT ISZERO PUSH2 0x1248 JUMPI PUSH2 0x1247 PUSH2 0x1150 JUMP JUMPDEST JUMPDEST PUSH2 0x1253 DUP5 DUP3 DUP6 PUSH2 0x120C JUMP JUMPDEST POP SWAP4 SWAP3 POP POP POP JUMP JUMPDEST PUSH0 DUP3 PUSH1 0x1F DUP4 ADD SLT PUSH2 0x126F JUMPI PUSH2 0x126E PUSH2 0x114C JUMP JUMPDEST JUMPDEST DUP2 CALLDATALOAD PUSH2 0x127F DUP5 DUP3 PUSH1 0x20 DUP7 ADD PUSH2 0x121A JUMP JUMPDEST SWAP2 POP POP SWAP3 SWAP2 POP POP JUMP JUMPDEST PUSH0 DUP1 PUSH0 DUP1 PUSH1 0x80 DUP6 DUP8 SUB SLT ISZERO PUSH2 0x12A0 JUMPI PUSH2 0x129F PUSH2 0x10B7 JUMP JUMPDEST JUMPDEST PUSH0 PUSH2 0x12AD DUP8 DUP3 DUP9 ADD PUSH2 0x1105 JUMP JUMPDEST SWAP5 POP POP PUSH1 0x20 PUSH2 0x12BE DUP8 DUP3 DUP9 ADD PUSH2 0x1105 JUMP JUMPDEST SWAP4 POP POP PUSH1 0x40 PUSH2 0x12CF DUP8 DUP3 DUP9 ADD PUSH2 0x1138 JUMP JUMPDEST SWAP3 POP POP PUSH1 0x60 DUP6 ADD CALLDATALOAD PUSH8 0xFFFFFFFFFFFFFFFF DUP2 GT ISZERO PUSH2 0x12F0 JUMPI PUSH2 0x12EF PUSH2 0x10BB JUMP JUMPDEST JUMPDEST PUSH2 0x12FC DUP8 DUP3 DUP9 ADD PUSH2 0x125B JUMP JUMPDEST SWAP2 POP POP SWAP3 SWAP6 SWAP2 SWAP5 POP SWAP3 POP JUMP JUMPDEST PUSH0 DUP1 PUSH1 0x40 DUP4 DUP6 SUB SLT ISZERO PUSH2 0x131E JUMPI PUSH2 0x131D PUSH2 0x10B7 JUMP JUMPDEST JUMPDEST PUSH0 PUSH2 0x132B DUP6 DUP3 DUP7 ADD PUSH2 0x1105 JUMP JUMPDEST SWAP3 POP POP PUSH1 0x20 DUP4 ADD CALLDATALOAD PUSH8 0xFFFFFFFFFFFFFFFF DUP2 GT ISZERO PUSH2 0x134C JUMPI PUSH2 0x134B PUSH2 0x10BB JUMP JUMPDEST JUMPDEST PUSH2 0x1358 DUP6 DUP3 DUP7 ADD PUSH2 0x125B JUMP JUMPDEST SWAP2 POP POP SWAP3 POP SWAP3 SWAP1 POP JUMP JUMPDEST PUSH0 PUSH1 0x20 DUP3 DUP5 SUB SLT ISZERO PUSH2 0x1377 JUMPI PUSH2 0x1376 PUSH2 0x10B7 JUMP JUMPDEST JUMPDEST PUSH0 PUSH2 0x1384 DUP5 DUP3 DUP6 ADD PUSH2 0x1105 JUMP JUMPDEST SWAP2 POP POP SWAP3 SWAP2 POP POP JUMP JUMPDEST PUSH0 DUP2 ISZERO ISZERO SWAP1 POP SWAP2 SWAP1 POP JUMP JUMPDEST PUSH2 0x13A1 DUP2 PUSH2 0x138D JUMP JUMPDEST DUP3 MSTORE POP POP JUMP JUMPDEST PUSH0 PUSH1 0x20 DUP3 ADD SWAP1 POP PUSH2 0x13BA PUSH0 DUP4 ADD DUP5 PUSH2 0x1398 JUMP JUMPDEST SWAP3 SWAP2 POP POP JUMP JUMPDEST PUSH0 DUP1 PUSH1 0x40 DUP4 DUP6 SUB SLT ISZERO PUSH2 0x13D6 JUMPI PUSH2 0x13D5 PUSH2 0x10B7 JUMP JUMPDEST JUMPDEST PUSH0 PUSH2 0x13E3 DUP6 DUP3 DUP7 ADD PUSH2 0x1105 JUMP JUMPDEST SWAP3 POP POP PUSH1 0x20 PUSH2 0x13F4 DUP6 DUP3 DUP7 ADD PUSH2 0x1105 JUMP JUMPDEST SWAP2 POP POP SWAP3 POP SWAP3 SWAP1 POP JUMP JUMPDEST PUSH2 0x1407 DUP2 PUSH2 0x10DE JUMP JUMPDEST DUP3 MSTORE POP POP JUMP JUMPDEST PUSH0 PUSH1 0x20 DUP3 ADD SWAP1 POP PUSH2 0x1420 PUSH0 DUP4 ADD DUP5 PUSH2 0x13FE JUMP JUMPDEST SWAP3 SWAP2 POP POP JUMP JUMPDEST PUSH2 0x142F DUP2 PUSH2 0x1119 JUMP JUMPDEST DUP3 MSTORE POP POP JUMP JUMPDEST PUSH0 DUP2 MLOAD SWAP1 POP SWAP2 SWAP1 POP JUMP JUMPDEST PUSH0 DUP3 DUP3 MSTORE PUSH1 0x20 DUP3 ADD SWAP1 POP SWAP3 SWAP2 POP POP JUMP JUMPDEST PUSH0 JUMPDEST DUP4 DUP2 LT ISZERO PUSH2 0x146C JUMPI DUP1 DUP3 ADD MLOAD DUP2 DUP5 ADD MSTORE PUSH1 0x20 DUP2 ADD SWAP1 POP PUSH2 0x1451 JUMP JUMPDEST PUSH0 DUP5 DUP5 ADD MSTORE POP POP POP POP JUMP JUMPDEST PUSH0 PUSH2 0x1481 DUP3 PUSH2 0x1435 JUMP JUMPDEST PUSH2 0x148B DUP2 DUP6 PUSH2 0x143F JUMP JUMPDEST SWAP4 POP PUSH2 0x149B DUP2 DUP6 PUSH1 0x20 DUP7 ADD PUSH2 0x144F JUMP JUMPDEST PUSH2 0x14A4 DUP2 PUSH2 0x1154 JUMP JUMPDEST DUP5 ADD SWAP2 POP POP SWAP3 SWAP2 POP POP JUMP JUMPDEST PUSH2 0x14B8 DUP2 PUSH2 0x138D JUMP JUMPDEST DUP3 MSTORE POP POP JUMP JUMPDEST PUSH0 PUSH1 0x60 DUP4 ADD PUSH0 DUP4 ADD MLOAD PUSH2 0x14D3 PUSH0 DUP7 ADD DUP3 PUSH2 0x1426 JUMP JUMPDEST POP PUSH1 0x20 DUP4 ADD MLOAD DUP5 DUP3 SUB PUSH1 0x20 DUP7 ADD MSTORE PUSH2 0x14EB DUP3 DUP3 PUSH2 0x1477 JUMP JUMPDEST SWAP2 POP POP PUSH1 0x40 DUP4 ADD MLOAD PUSH2 0x1500 PUSH1 0x40 DUP7 ADD DUP3 PUSH2 0x14AF JUMP JUMPDEST POP DUP1 SWAP2 POP POP SWAP3 SWAP2 POP POP JUMP JUMPDEST PUSH0 PUSH1 0x20 DUP3 ADD SWAP1 POP DUP2 DUP2 SUB PUSH0 DUP4 ADD MSTORE PUSH2 0x1523 DUP2 DUP5 PUSH2 0x14BE JUMP JUMPDEST SWAP1 POP SWAP3 SWAP2 POP POP JUMP JUMPDEST PUSH0 DUP3 DUP3 MSTORE PUSH1 0x20 DUP3 ADD SWAP1 POP SWAP3 SWAP2 POP POP JUMP JUMPDEST PUSH32 0x636F6E747261637420616C726561647920726567697374657265640000000000 PUSH0 DUP3 ADD MSTORE POP JUMP JUMPDEST PUSH0 PUSH2 0x156F PUSH1 0x1B DUP4 PUSH2 0x152B JUMP JUMPDEST SWAP2 POP PUSH2 0x157A DUP3 PUSH2 0x153B JUMP JUMPDEST PUSH1 0x20 DUP3 ADD SWAP1 POP SWAP2 SWAP1 POP JUMP JUMPDEST PUSH0 PUSH1 0x20 DUP3 ADD SWAP1 POP DUP2 DUP2 SUB PUSH0 DUP4 ADD MSTORE PUSH2 0x159C DUP2 PUSH2 0x1563 JUMP JUMPDEST SWAP1 POP SWAP2 SWAP1 POP JUMP JUMPDEST PUSH32 0x706C61796572206E6F7420726567697374657265640000000000000000000000 PUSH0 DUP3 ADD MSTORE POP JUMP JUMPDEST PUSH0 PUSH2 0x15D7 PUSH1 0x15 DUP4 PUSH2 0x152B JUMP JUMPDEST SWAP2 POP PUSH2 0x15E2 DUP3 PUSH2 0x15A3 JUMP JUMPDEST PUSH1 0x20 DUP3 ADD SWAP1 POP SWAP2 SWAP1 POP JUMP JUMPDEST PUSH0 PUSH1 0x20 DUP3 ADD SWAP1 POP DUP2 DUP2 SUB PUSH0 DUP4 ADD MSTORE PUSH2 0x1604 DUP2 PUSH2 0x15CB JUMP JUMPDEST SWAP1 POP SWAP2 SWAP1 POP JUMP JUMPDEST PUSH32 0x4E487B7100000000000000000000000000000000000000000000000000000000 PUSH0 MSTORE PUSH1 0x22 PUSH1 0x4 MSTORE PUSH1 0x24 PUSH0 REVERT JUMPDEST PUSH0 PUSH1 0x2 DUP3 DIV SWAP1 POP PUSH1 0x1 DUP3 AND DUP1 PUSH2 0x164F JUMPI PUSH1 0x7F DUP3 AND SWAP2 POP JUMPDEST PUSH1 0x20 DUP3 LT DUP2 SUB PUSH2 0x1662 JUMPI PUSH2 0x1661 PUSH2 0x160B JUMP JUMPDEST JUMPDEST POP SWAP2 SWAP1 POP JUMP JUMPDEST PUSH0 DUP2 SWAP1 POP DUP2 PUSH0 MSTORE PUSH1 0x20 PUSH0 KECCAK256 SWAP1 POP SWAP2 SWAP1 POP JUMP JUMPDEST PUSH0 PUSH1 0x20 PUSH1 0x1F DUP4 ADD DIV SWAP1 POP SWAP2 SWAP1 POP JUMP JUMPDEST PUSH0 DUP3 DUP3 SHL SWAP1 POP SWAP3 SWAP2 POP POP JUMP JUMPDEST PUSH0 PUSH1 0x8 DUP4 MUL PUSH2 0x16C4 PUSH32 0xFFFFFFFFFFFFFFFFFFFFFFFFFFFFFFFFFFFFFFFFFFFFFFFFFFFFFFFFFFFFFFFF DUP3 PUSH2 0x1689 JUMP JUMPDEST PUSH2 0x16CE DUP7 DUP4 PUSH2 0x1689 JUMP JUMPDEST SWAP6 POP DUP1 NOT DUP5 AND SWAP4 POP DUP1 DUP7 AND DUP5 OR SWAP3 POP POP POP SWAP4 SWAP3 POP POP POP JUMP JUMPDEST PUSH0 DUP2 SWAP1 POP SWAP2 SWAP1 POP JUMP JUMPDEST PUSH0 PUSH2 0x1709 PUSH2 0x1704 PUSH2 0x16FF DUP5 PUSH2 0x1119 JUMP JUMPDEST PUSH2 0x16E6 JUMP JUMPDEST PUSH2 0x1119 JUMP JUMPDEST SWAP1 POP SWAP2 SWAP1 POP JUMP JUMPDEST PUSH0 DUP2 SWAP1 POP SWAP2 SWAP1 POP JUMP JUMPDEST PUSH2 0x1722 DUP4 PUSH2 0x16EF JUMP JUMPDEST PUSH2 0x1736 PUSH2 0x172E DUP3 PUSH2 0x1710 JUMP JUMPDEST DUP5 DUP5 SLOAD PUSH2 0x1695 JUMP JUMPDEST DUP3 SSTORE POP POP POP POP JUMP JUMPDEST PUSH0 SWAP1 JUMP JUMPDEST PUSH2 0x174A PUSH2 0x173E JUMP JUMPDEST PUSH2 0x1755 DUP2 DUP5 DUP5 PUSH2 0x1719 JUMP JUMPDEST POP POP POP JUMP JUMPDEST JUMPDEST DUP2 DUP2 LT ISZERO PUSH2 0x1778 JUMPI PUSH2 0x176D PUSH0 DUP3 PUSH2 0x1742 JUMP JUMPDEST PUSH1 0x1 DUP2 ADD SWAP1 POP PUSH2 0x175B JUMP JUMPDEST POP POP JUMP JUMPDEST PUSH1 0x1F DUP3 GT ISZERO PUSH2 0x17BD JUMPI PUSH2 0x178E DUP2 PUSH2 0x1668 JUMP JUMPDEST PUSH2 0x1797 DUP5 PUSH2 0x167A JUMP JUMPDEST DUP2 ADD PUSH1 0x20 DUP6 LT ISZERO PUSH2 0x17A6 JUMPI DUP2 SWAP1 POP JUMPDEST PUSH2 0x17BA PUSH2 0x17B2 DUP6 PUSH2 0x167A JUMP JUMPDEST DUP4 ADD DUP3 PUSH2 0x175A JUMP JUMPDEST POP POP JUMPDEST POP POP POP JUMP JUMPDEST PUSH0 DUP3 DUP3 SHR SWAP1 POP SWAP3 SWAP2 POP POP JUMP JUMPDEST PUSH0 PUSH2 0x17DD PUSH0 NOT DUP5 PUSH1 0x8 MUL PUSH2 0x17C2 JUMP JUMPDEST NOT DUP1 DUP4 AND SWAP2 POP POP SWAP3 SWAP2 POP POP JUMP JUMPDEST PUSH0 PUSH2 0x17F5 DUP4 DUP4 PUSH2 0x17CE JUMP JUMPDEST SWAP2 POP DUP3 PUSH1 0x2 MUL DUP3 OR SWAP1 POP SWAP3 SWAP2 POP POP JUMP JUMPDEST PUSH2 0x180E DUP3 PUSH2 0x1435 JUMP JUMPDEST PUSH8 0xFFFFFFFFFFFFFFFF DUP2 GT ISZERO PUSH2 0x1827 JUMPI PUSH2 0x1826 PUSH2 0x1164 JUMP JUMPDEST JUMPDEST PUSH2 0x1831 DUP3 SLOAD PUSH2 0x1638 JUMP JUMPDEST PUSH2 0x183C DUP3 DUP3 DUP6 PUSH2 0x177C JUMP JUMPDEST PUSH0 PUSH1 0x20 SWAP1 POP PUSH1 0x1F DUP4 GT PUSH1 0x1 DUP2 EQ PUSH2 0x186D JUMPI PUSH0 DUP5 ISZERO PUSH2 0x185B JUMPI DUP3 DUP8 ADD MLOAD SWAP1 POP JUMPDEST PUSH2 0x1865 DUP6 DUP3 PUSH2 0x17EA JUMP JUMPDEST DUP7 SSTORE POP PUSH2 0x18CC JUMP JUMPDEST PUSH1 0x1F NOT DUP5 AND PUSH2 0x187B DUP7 PUSH2 0x1668 JUMP JUMPDEST PUSH0 JUMPDEST DUP3 DUP2 LT ISZERO PUSH2 0x18A2 JUMPI DUP5 DUP10 ADD MLOAD DUP3 SSTORE PUSH1 0x1 DUP3 ADD SWAP2 POP PUSH1 0x20 DUP6 ADD SWAP5 POP PUSH1 0x20 DUP2 ADD SWAP1 POP PUSH2 0x187D JUMP JUMPDEST DUP7 DUP4 LT ISZERO PUSH2 0x18BF JUMPI DUP5 DUP10 ADD MLOAD PUSH2 0x18BB PUSH1 0x1F DUP10 AND DUP3 PUSH2 0x17CE JUMP JUMPDEST DUP4 SSTORE POP JUMPDEST PUSH1 0x1 PUSH1 0x2 DUP9 MUL ADD DUP9 SSTORE POP POP POP JUMPDEST POP POP POP POP POP POP JUMP JUMPDEST PUSH32 0x706C6179657220616C7265616479207265676973746572656400000000000000 PUSH0 DUP3 ADD MSTORE POP JUMP JUMPDEST PUSH0 PUSH2 0x1908 PUSH1 0x19 DUP4 PUSH2 0x152B JUMP JUMPDEST SWAP2 POP PUSH2 0x1913 DUP3 PUSH2 0x18D4 JUMP JUMPDEST PUSH1 0x20 DUP3 ADD SWAP1 POP SWAP2 SWAP1 POP JUMP JUMPDEST PUSH0 PUSH1 0x20 DUP3 ADD SWAP1 POP DUP2 DUP2 SUB PUSH0 DUP4 ADD MSTORE PUSH2 0x1935 DUP2 PUSH2 0x18FC JUMP JUMPDEST SWAP1 POP SWAP2 SWAP1 POP JUMP JUMPDEST PUSH32 0x636F6E7472616374206E6F7420666F756E640000000000000000000000000000 PUSH0 DUP3 ADD MSTORE POP JUMP JUMPDEST PUSH0 PUSH2 0x1970 PUSH1 0x12 DUP4 PUSH2 0x152B JUMP JUMPDEST SWAP2 POP PUSH2 0x197B DUP3 PUSH2 0x193C JUMP JUMPDEST PUSH1 0x20 DUP3 ADD SWAP1 POP SWAP2 SWAP1 POP JUMP JUMPDEST PUSH0 PUSH1 0x20 DUP3 ADD SWAP1 POP DUP2 DUP2 SUB PUSH0 DUP4 ADD MSTORE PUSH2 0x199D DUP2 PUSH2 0x1964 JUMP JUMPDEST SWAP1 POP SWAP2 SWAP1 POP JUMP JUMPDEST PUSH32 0x706C61796572206E6F7420666F756E6400000000000000000000000000000000 PUSH0 DUP3 ADD MSTORE POP JUMP JUMPDEST PUSH0 PUSH2 0x19D8 PUSH1 0x10 DUP4 PUSH2 0x152B JUMP JUMPDEST SWAP2 POP PUSH2 0x19E3 DUP3 PUSH2 0x19A4 JUMP JUMPDEST PUSH1 0x20 DUP3 ADD SWAP1 POP SWAP2 SWAP1 POP JUMP JUMPDEST PUSH0 PUSH1 0x20 DUP3 ADD SWAP1 POP DUP2 DUP2 SUB PUSH0 DUP4 ADD MSTORE PUSH2 0x1A05 DUP2 PUSH2 0x19CC JUMP JUMPDEST SWAP1 POP SWAP2 SWAP1 POP JUMP JUMPDEST PUSH0 DUP2 SWAP1 POP SWAP3 SWAP2 POP POP JUMP JUMPDEST PUSH0 PUSH2 0x1A20 DUP3 PUSH2 0x1435 JUMP JUMPDEST PUSH2 0x1A2A DUP2 DUP6 PUSH2 0x1A0C JUMP JUMPDEST SWAP4 POP PUSH2 0x1A3A DUP2 DUP6 PUSH1 0x20 DUP7 ADD PUSH2 0x144F JUMP JUMPDEST DUP1 DUP5 ADD SWAP2 POP POP SWAP3 SWAP2 POP POP JUMP JUMPDEST PUSH0 PUSH2 0x1A51 DUP3 DUP5 PUSH2 0x1A16 JUMP JUMPDEST SWAP2 POP DUP2 SWAP1 POP SWAP3 SWAP2 POP POP JUMP JUMPDEST PUSH32 0x666C6167206973206E6F7420636F727265637400000000000000000000000000 PUSH0 DUP3 ADD MSTORE POP JUMP JUMPDEST PUSH0 PUSH2 0x1A90 PUSH1 0x13 DUP4 PUSH2 0x152B JUMP JUMPDEST SWAP2 POP PUSH2 0x1A9B DUP3 PUSH2 0x1A5C JUMP JUMPDEST PUSH1 0x20 DUP3 ADD SWAP1 POP SWAP2 SWAP1 POP JUMP JUMPDEST PUSH0 PUSH1 0x20 DUP3 ADD SWAP1 POP DUP2 DUP2 SUB PUSH0 DUP4 ADD MSTORE PUSH2 0x1ABD DUP2 PUSH2 0x1A84 JUMP JUMPDEST SWAP1 POP SWAP2 SWAP1 POP JUMP JUMPDEST PUSH32 0x636F6E7472616374206E6F742072656769737465726564000000000000000000 PUSH0 DUP3 ADD MSTORE POP JUMP JUMPDEST PUSH0 PUSH2 0x1AF8 PUSH1 0x17 DUP4 PUSH2 0x152B JUMP JUMPDEST SWAP2 POP PUSH2 0x1B03 DUP3 PUSH2 0x1AC4 JUMP JUMPDEST PUSH1 0x20 DUP3 ADD SWAP1 POP SWAP2 SWAP1 POP JUMP JUMPDEST PUSH0 PUSH1 0x20 DUP3 ADD SWAP1 POP DUP2 DUP2 SUB PUSH0 DUP4 ADD MSTORE PUSH2 0x1B25 DUP2 PUSH2 0x1AEC JUMP JUMPDEST SWAP1 POP SWAP2 SWAP1 POP JUMP JUMPDEST PUSH32 0x4F776E61626C653A206E6577206F776E657220697320746865207A65726F2061 PUSH0 DUP3 ADD MSTORE PUSH32 0x6464726573730000000000000000000000000000000000000000000000000000 PUSH1 0x20 DUP3 ADD MSTORE POP JUMP JUMPDEST PUSH0 PUSH2 0x1B86 PUSH1 0x26 DUP4 PUSH2 0x152B JUMP JUMPDEST SWAP2 POP PUSH2 0x1B91 DUP3 PUSH2 0x1B2C JUMP JUMPDEST PUSH1 0x40 DUP3 ADD SWAP1 POP SWAP2 SWAP1 POP JUMP JUMPDEST PUSH0 PUSH1 0x20 DUP3 ADD SWAP1 POP DUP2 DUP2 SUB PUSH0 DUP4 ADD MSTORE PUSH2 0x1BB3 DUP2 PUSH2 0x1B7A JUMP JUMPDEST SWAP1 POP SWAP2 SWAP1 POP JUMP JUMPDEST PUSH32 0x4F776E61626C653A2063616C6C6572206973206E6F7420746865206F776E6572 PUSH0 DUP3 ADD MSTORE POP JUMP JUMPDEST PUSH0 PUSH2 0x1BEE PUSH1 0x20 DUP4 PUSH2 0x152B JUMP JUMPDEST SWAP2 POP PUSH2 0x1BF9 DUP3 PUSH2 0x1BBA JUMP JUMPDEST PUSH1 0x20 DUP3 ADD SWAP1 POP SWAP2 SWAP1 POP JUMP JUMPDEST PUSH0 PUSH1 0x20 DUP3 ADD SWAP1 POP DUP2 DUP2 SUB PUSH0 DUP4 ADD MSTORE PUSH2 0x1C1B DUP2 PUSH2 0x1BE2 JUMP JUMPDEST SWAP1 POP SWAP2 SWAP1 POP JUMP INVALID LOG2 PUSH5 0x6970667358 0x22 SLT KECCAK256 SWAP9 0xBE 0xAD PUSH26 0xA2F8C4E3D9DB3790CFCF5027124BB56A43584E6597A42B112397 0xEC 0xDC PUSH5 0x736F6C6343 STOP ADDMOD OR STOP CALLER "
				},
				"gasEstimates": {
					"creation": {
						"codeDepositCost": "1451200",
						"executionCost": "infinite",
						"totalCost": "infinite"
					},
					"external": {
						"addContract(address,address,uint256,string)": "infinite",
						"addPlayer()": "26761",
						"checkFlag(address,address)": "infinite",
						"delContract(address)": "29413",
						"delPlayer()": "26734",
						"existPlayer(address)": "2937",
						"getPlayerStatus(address,address)": "infinite",
						"owner()": "2559",
						"renounceOwnership()": "30479",
						"transferOwnership(address)": "30819",
						"validateFlag(address,string)": "infinite"
					}
				},
				"methodIdentifiers": {
					"addContract(address,address,uint256,string)": "1ae8fc87",
					"addPlayer()": "27b5db8a",
					"checkFlag(address,address)": "88d6d12d",
					"delContract(address)": "f4f2821b",
					"delPlayer()": "783b47e6",
					"existPlayer(address)": "5a65cf95",
					"getPlayerStatus(address,address)": "b9938436",
					"owner()": "8da5cb5b",
					"renounceOwnership()": "715018a6",
					"transferOwnership(address)": "f2fde38b",
					"validateFlag(address,string)": "40b00907"
				}
			},
			"storageLayout": {
				"storage": [
					{
						"astId": 7,
						"contract": "levelup/base.sol:Base",
						"label": "_owner",
						"offset": 0,
						"slot": "0",
						"type": "t_address"
					},
					{
						"astId": 143,
						"contract": "levelup/base.sol:Base",
						"label": "registeredContracts",
						"offset": 0,
						"slot": "1",
						"type": "t_mapping(t_address,t_bool)"
					},
					{
						"astId": 147,
						"contract": "levelup/base.sol:Base",
						"label": "registeredPlayers",
						"offset": 0,
						"slot": "2",
						"type": "t_mapping(t_address,t_bool)"
					},
					{
						"astId": 161,
						"contract": "levelup/base.sol:Base",
						"label": "playerStatus",
						"offset": 0,
						"slot": "3",
						"type": "t_mapping(t_address,t_mapping(t_address,t_struct(levelStatus)154_storage))"
					}
				],
				"types": {
					"t_address": {
						"encoding": "inplace",
						"label": "address",
						"numberOfBytes": "20"
					},
					"t_bool": {
						"encoding": "inplace",
						"label": "bool",
						"numberOfBytes": "1"
					},
					"t_mapping(t_address,t_bool)": {
						"encoding": "mapping",
						"key": "t_address",
						"label": "mapping(address => bool)",
						"numberOfBytes": "32",
						"value": "t_bool"
					},
					"t_mapping(t_address,t_mapping(t_address,t_struct(levelStatus)154_storage))": {
						"encoding": "mapping",
						"key": "t_address",
						"label": "mapping(address => mapping(address => struct Base.levelStatus))",
						"numberOfBytes": "32",
						"value": "t_mapping(t_address,t_struct(levelStatus)154_storage)"
					},
					"t_mapping(t_address,t_struct(levelStatus)154_storage)": {
						"encoding": "mapping",
						"key": "t_address",
						"label": "mapping(address => struct Base.levelStatus)",
						"numberOfBytes": "32",
						"value": "t_struct(levelStatus)154_storage"
					},
					"t_string_storage": {
						"encoding": "bytes",
						"label": "string",
						"numberOfBytes": "32"
					},
					"t_struct(levelStatus)154_storage": {
						"encoding": "inplace",
						"label": "struct Base.levelStatus",
						"members": [
							{
								"astId": 149,
								"contract": "levelup/base.sol:Base",
								"label": "level",
								"offset": 0,
								"slot": "0",
								"type": "t_uint256"
							},
							{
								"astId": 151,
								"contract": "levelup/base.sol:Base",
								"label": "flag",
								"offset": 0,
								"slot": "1",
								"type": "t_string_storage"
							},
							{
								"astId": 153,
								"contract": "levelup/base.sol:Base",
								"label": "flagOK",
								"offset": 0,
								"slot": "2",
								"type": "t_bool"
							}
						],
						"numberOfBytes": "96"
					},
					"t_uint256": {
						"encoding": "inplace",
						"label": "uint256",
						"numberOfBytes": "32"
					}
				}
			},
			"userdoc": {
				"kind": "user",
				"methods": {},
				"version": 1
			}
		}
	}
}