{
	"levelup/relottery.sol": {
		"Lottery": {
			"abi": [
				{
					"inputs": [
						{
							"internalType": "string",
							"name": "_flag",
							"type": "string"
						},
						{
							"internalType": "uint256",
							"name": "_number",
							"type": "uint256"
						}
					],
					"stateMutability": "payable",
					"type": "constructor"
				},
				{
					"inputs": [],
					"name": "anularBoleto",
					"outputs": [],
					"stateMutability": "nonpayable",
					"type": "function"
				},
				{
					"inputs": [],
					"name": "balanceTotal",
					"outputs": [
						{
							"internalType": "uint256",
							"name": "",
							"type": "uint256"
						}
					],
					"stateMutability": "view",
					"type": "function"
				},
				{
					"inputs": [
						{
							"internalType": "uint256",
							"name": "_number",
							"type": "uint256"
						}
					],
					"name": "ganarLottery",
					"outputs": [
						{
							"internalType": "string",
							"name": "",
							"type": "string"
						}
					],
					"stateMutability": "payable",
					"type": "function"
				},
				{
					"inputs": [],
					"name": "getFlag",
					"outputs": [
						{
							"internalType": "string",
							"name": "",
							"type": "string"
						}
					],
					"stateMutability": "view",
					"type": "function"
				},
				{
					"inputs": [],
					"name": "intentos",
					"outputs": [
						{
							"internalType": "uint256",
							"name": "",
							"type": "uint256"
						}
					],
					"stateMutability": "view",
					"type": "function"
				},
				{
					"inputs": [],
					"name": "owner",
					"outputs": [
						{
							"internalType": "address",
							"name": "",
							"type": "address"
						}
					],
					"stateMutability": "view",
					"type": "function"
				},
				{
					"inputs": [],
					"name": "pagarBoleto",
					"outputs": [],
					"stateMutability": "payable",
					"type": "function"
				},
				{
					"inputs": [
						{
							"internalType": "address",
							"name": "",
							"type": "address"
						}
					],
					"name": "players",
					"outputs": [
						{
							"internalType": "uint256",
							"name": "",
							"type": "uint256"
						}
					],
					"stateMutability": "view",
					"type": "function"
				}
			],
			"devdoc": {
				"kind": "dev",
				"methods": {},
				"version": 1
			},
			"evm": {
				"assembly": "    /* \"levelup/relottery.sol\":59:2254  contract Lottery{... */\n  mstore(0x40, 0x80)\n    /* \"levelup/relottery.sol\":250:388  constructor(string memory _flag, uint _number) payable {... */\n  mload(0x40)\n  sub(codesize, bytecodeSize)\n  dup1\n  bytecodeSize\n  dup4\n  codecopy\n  dup2\n  dup2\n  add\n  0x40\n  mstore\n  dup2\n  add\n  swap1\n  tag_1\n  swap2\n  swap1\n  tag_2\n  jump\t// in\ntag_1:\n    /* \"levelup/relottery.sol\":322:327  _flag */\n  dup2\n    /* \"levelup/relottery.sol\":315:319  flag */\n  0x02\n    /* \"levelup/relottery.sol\":315:327  flag = _flag */\n  swap1\n  dup1\n  mload\n  swap1\n  0x20\n  add\n  swap1\n  tag_5\n  swap3\n  swap2\n  swap1\n  tag_6\n  jump\t// in\ntag_5:\n  pop\n    /* \"levelup/relottery.sol\":346:353  _number */\n  dup1\n    /* \"levelup/relottery.sol\":337:343  number */\n  0x03\n    /* \"levelup/relottery.sol\":337:353  number = _number */\n  dup2\n  swap1\n  sstore\n  pop\n    /* \"levelup/relottery.sol\":371:381  msg.sender */\n  caller\n    /* \"levelup/relottery.sol\":363:368  owner */\n  0x04\n  0x00\n    /* \"levelup/relottery.sol\":363:381  owner = msg.sender */\n  0x0100\n  exp\n  dup2\n  sload\n  dup2\n  0xffffffffffffffffffffffffffffffffffffffff\n  mul\n  not\n  and\n  swap1\n  dup4\n  0xffffffffffffffffffffffffffffffffffffffff\n  and\n  mul\n  or\n  swap1\n  sstore\n  pop\n    /* \"levelup/relottery.sol\":250:388  constructor(string memory _flag, uint _number) payable {... */\n  pop\n  pop\n    /* \"levelup/relottery.sol\":59:2254  contract Lottery{... */\n  jump(tag_7)\ntag_6:\n  dup3\n  dup1\n  sload\n  tag_8\n  swap1\n  tag_9\n  jump\t// in\ntag_8:\n  swap1\n  0x00\n  mstore\n  keccak256(0x00, 0x20)\n  swap1\n  0x1f\n  add\n  0x20\n  swap1\n  div\n  dup2\n  add\n  swap3\n  dup3\n  tag_11\n  jumpi\n  0x00\n  dup6\n  sstore\n  jump(tag_10)\ntag_11:\n  dup3\n  0x1f\n  lt\n  tag_12\n  jumpi\n  dup1\n  mload\n  not(0xff)\n  and\n  dup4\n  dup1\n  add\n  or\n  dup6\n  sstore\n  jump(tag_10)\ntag_12:\n  dup3\n  dup1\n  add\n  0x01\n  add\n  dup6\n  sstore\n  dup3\n  iszero\n  tag_10\n  jumpi\n  swap2\n  dup3\n  add\ntag_13:\n  dup3\n  dup2\n  gt\n  iszero\n  tag_14\n  jumpi\n  dup3\n  mload\n  dup3\n  sstore\n  swap2\n  0x20\n  add\n  swap2\n  swap1\n  0x01\n  add\n  swap1\n  jump(tag_13)\ntag_14:\ntag_10:\n  pop\n  swap1\n  pop\n  tag_15\n  swap2\n  swap1\n  tag_16\n  jump\t// in\ntag_15:\n  pop\n  swap1\n  jump\t// out\ntag_16:\ntag_17:\n  dup1\n  dup3\n  gt\n  iszero\n  tag_18\n  jumpi\n  0x00\n  dup2\n  0x00\n  swap1\n  sstore\n  pop\n  0x01\n  add\n  jump(tag_17)\ntag_18:\n  pop\n  swap1\n  jump\t// out\n    /* \"#utility.yul\":7:361   */\ntag_20:\n    /* \"#utility.yul\":96:101   */\n  0x00\n    /* \"#utility.yul\":121:187   */\n  tag_22\n    /* \"#utility.yul\":137:186   */\n  tag_23\n    /* \"#utility.yul\":179:185   */\n  dup5\n    /* \"#utility.yul\":137:186   */\n  tag_24\n  jump\t// in\ntag_23:\n    /* \"#utility.yul\":121:187   */\n  tag_25\n  jump\t// in\ntag_22:\n    /* \"#utility.yul\":112:187   */\n  swap1\n  pop\n    /* \"#utility.yul\":210:216   */\n  dup3\n    /* \"#utility.yul\":203:208   */\n  dup2\n    /* \"#utility.yul\":196:217   */\n  mstore\n    /* \"#utility.yul\":248:252   */\n  0x20\n    /* \"#utility.yul\":241:246   */\n  dup2\n    /* \"#utility.yul\":237:253   */\n  add\n    /* \"#utility.yul\":286:289   */\n  dup5\n    /* \"#utility.yul\":277:283   */\n  dup5\n    /* \"#utility.yul\":272:275   */\n  dup5\n    /* \"#utility.yul\":268:284   */\n  add\n    /* \"#utility.yul\":265:290   */\n  gt\n    /* \"#utility.yul\":262:264   */\n  iszero\n  tag_26\n  jumpi\n    /* \"#utility.yul\":303:304   */\n  0x00\n    /* \"#utility.yul\":300:301   */\n  dup1\n    /* \"#utility.yul\":293:305   */\n  revert\n    /* \"#utility.yul\":262:264   */\ntag_26:\n    /* \"#utility.yul\":316:355   */\n  tag_27\n    /* \"#utility.yul\":348:354   */\n  dup5\n    /* \"#utility.yul\":343:346   */\n  dup3\n    /* \"#utility.yul\":338:341   */\n  dup6\n    /* \"#utility.yul\":316:355   */\n  tag_28\n  jump\t// in\ntag_27:\n    /* \"#utility.yul\":102:361   */\n  pop\n  swap4\n  swap3\n  pop\n  pop\n  pop\n  jump\t// out\n    /* \"#utility.yul\":381:669   */\ntag_29:\n    /* \"#utility.yul\":448:453   */\n  0x00\n    /* \"#utility.yul\":497:500   */\n  dup3\n    /* \"#utility.yul\":490:494   */\n  0x1f\n    /* \"#utility.yul\":482:488   */\n  dup4\n    /* \"#utility.yul\":478:495   */\n  add\n    /* \"#utility.yul\":474:501   */\n  slt\n    /* \"#utility.yul\":464:466   */\n  tag_31\n  jumpi\n    /* \"#utility.yul\":515:516   */\n  0x00\n    /* \"#utility.yul\":512:513   */\n  dup1\n    /* \"#utility.yul\":505:517   */\n  revert\n    /* \"#utility.yul\":464:466   */\ntag_31:\n    /* \"#utility.yul\":548:554   */\n  dup2\n    /* \"#utility.yul\":542:555   */\n  mload\n    /* \"#utility.yul\":573:663   */\n  tag_32\n    /* \"#utility.yul\":659:662   */\n  dup5\n    /* \"#utility.yul\":651:657   */\n  dup3\n    /* \"#utility.yul\":644:648   */\n  0x20\n    /* \"#utility.yul\":636:642   */\n  dup7\n    /* \"#utility.yul\":632:649   */\n  add\n    /* \"#utility.yul\":573:663   */\n  tag_20\n  jump\t// in\ntag_32:\n    /* \"#utility.yul\":564:663   */\n  swap2\n  pop\n    /* \"#utility.yul\":454:669   */\n  pop\n  swap3\n  swap2\n  pop\n  pop\n  jump\t// out\n    /* \"#utility.yul\":675:818   */\ntag_33:\n    /* \"#utility.yul\":732:737   */\n  0x00\n    /* \"#utility.yul\":763:769   */\n  dup2\n    /* \"#utility.yul\":757:770   */\n  mload\n    /* \"#utility.yul\":748:770   */\n  swap1\n  pop\n    /* \"#utility.yul\":779:812   */\n  tag_35\n    /* \"#utility.yul\":806:811   */\n  dup2\n    /* \"#utility.yul\":779:812   */\n  tag_36\n  jump\t// in\ntag_35:\n    /* \"#utility.yul\":738:818   */\n  swap3\n  swap2\n  pop\n  pop\n  jump\t// out\n    /* \"#utility.yul\":824:1370   */\ntag_2:\n    /* \"#utility.yul\":913:919   */\n  0x00\n    /* \"#utility.yul\":921:927   */\n  dup1\n    /* \"#utility.yul\":970:972   */\n  0x40\n    /* \"#utility.yul\":958:967   */\n  dup4\n    /* \"#utility.yul\":949:956   */\n  dup6\n    /* \"#utility.yul\":945:968   */\n  sub\n    /* \"#utility.yul\":941:973   */\n  slt\n    /* \"#utility.yul\":938:940   */\n  iszero\n  tag_38\n  jumpi\n    /* \"#utility.yul\":986:987   */\n  0x00\n    /* \"#utility.yul\":983:984   */\n  dup1\n    /* \"#utility.yul\":976:988   */\n  revert\n    /* \"#utility.yul\":938:940   */\ntag_38:\n    /* \"#utility.yul\":1050:1051   */\n  0x00\n    /* \"#utility.yul\":1039:1048   */\n  dup4\n    /* \"#utility.yul\":1035:1052   */\n  add\n    /* \"#utility.yul\":1029:1053   */\n  mload\n    /* \"#utility.yul\":1080:1098   */\n  0xffffffffffffffff\n    /* \"#utility.yul\":1072:1078   */\n  dup2\n    /* \"#utility.yul\":1069:1099   */\n  gt\n    /* \"#utility.yul\":1066:1068   */\n  iszero\n  tag_39\n  jumpi\n    /* \"#utility.yul\":1112:1113   */\n  0x00\n    /* \"#utility.yul\":1109:1110   */\n  dup1\n    /* \"#utility.yul\":1102:1114   */\n  revert\n    /* \"#utility.yul\":1066:1068   */\ntag_39:\n    /* \"#utility.yul\":1140:1214   */\n  tag_40\n    /* \"#utility.yul\":1206:1213   */\n  dup6\n    /* \"#utility.yul\":1197:1203   */\n  dup3\n    /* \"#utility.yul\":1186:1195   */\n  dup7\n    /* \"#utility.yul\":1182:1204   */\n  add\n    /* \"#utility.yul\":1140:1214   */\n  tag_29\n  jump\t// in\ntag_40:\n    /* \"#utility.yul\":1130:1214   */\n  swap3\n  pop\n    /* \"#utility.yul\":1000:1224   */\n  pop\n    /* \"#utility.yul\":1263:1265   */\n  0x20\n    /* \"#utility.yul\":1289:1353   */\n  tag_41\n    /* \"#utility.yul\":1345:1352   */\n  dup6\n    /* \"#utility.yul\":1336:1342   */\n  dup3\n    /* \"#utility.yul\":1325:1334   */\n  dup7\n    /* \"#utility.yul\":1321:1343   */\n  add\n    /* \"#utility.yul\":1289:1353   */\n  tag_33\n  jump\t// in\ntag_41:\n    /* \"#utility.yul\":1279:1353   */\n  swap2\n  pop\n    /* \"#utility.yul\":1234:1363   */\n  pop\n    /* \"#utility.yul\":928:1370   */\n  swap3\n  pop\n  swap3\n  swap1\n  pop\n  jump\t// out\n    /* \"#utility.yul\":1376:1505   */\ntag_25:\n    /* \"#utility.yul\":1410:1416   */\n  0x00\n    /* \"#utility.yul\":1437:1457   */\n  tag_43\n  tag_44\n  jump\t// in\ntag_43:\n    /* \"#utility.yul\":1427:1457   */\n  swap1\n  pop\n    /* \"#utility.yul\":1466:1499   */\n  tag_45\n    /* \"#utility.yul\":1494:1498   */\n  dup3\n    /* \"#utility.yul\":1486:1492   */\n  dup3\n    /* \"#utility.yul\":1466:1499   */\n  tag_46\n  jump\t// in\ntag_45:\n    /* \"#utility.yul\":1417:1505   */\n  swap2\n  swap1\n  pop\n  jump\t// out\n    /* \"#utility.yul\":1511:1586   */\ntag_44:\n    /* \"#utility.yul\":1544:1550   */\n  0x00\n    /* \"#utility.yul\":1577:1579   */\n  0x40\n    /* \"#utility.yul\":1571:1580   */\n  mload\n    /* \"#utility.yul\":1561:1580   */\n  swap1\n  pop\n    /* \"#utility.yul\":1551:1586   */\n  swap1\n  jump\t// out\n    /* \"#utility.yul\":1592:1900   */\ntag_24:\n    /* \"#utility.yul\":1654:1658   */\n  0x00\n    /* \"#utility.yul\":1744:1762   */\n  0xffffffffffffffff\n    /* \"#utility.yul\":1736:1742   */\n  dup3\n    /* \"#utility.yul\":1733:1763   */\n  gt\n    /* \"#utility.yul\":1730:1732   */\n  iszero\n  tag_49\n  jumpi\n    /* \"#utility.yul\":1766:1784   */\n  tag_50\n  tag_51\n  jump\t// in\ntag_50:\n    /* \"#utility.yul\":1730:1732   */\ntag_49:\n    /* \"#utility.yul\":1804:1833   */\n  tag_52\n    /* \"#utility.yul\":1826:1832   */\n  dup3\n    /* \"#utility.yul\":1804:1833   */\n  tag_53\n  jump\t// in\ntag_52:\n    /* \"#utility.yul\":1796:1833   */\n  swap1\n  pop\n    /* \"#utility.yul\":1888:1892   */\n  0x20\n    /* \"#utility.yul\":1882:1886   */\n  dup2\n    /* \"#utility.yul\":1878:1893   */\n  add\n    /* \"#utility.yul\":1870:1893   */\n  swap1\n  pop\n    /* \"#utility.yul\":1659:1900   */\n  swap2\n  swap1\n  pop\n  jump\t// out\n    /* \"#utility.yul\":1906:1983   */\ntag_54:\n    /* \"#utility.yul\":1943:1950   */\n  0x00\n    /* \"#utility.yul\":1972:1977   */\n  dup2\n    /* \"#utility.yul\":1961:1977   */\n  swap1\n  pop\n    /* \"#utility.yul\":1951:1983   */\n  swap2\n  swap1\n  pop\n  jump\t// out\n    /* \"#utility.yul\":1989:2296   */\ntag_28:\n    /* \"#utility.yul\":2057:2058   */\n  0x00\n    /* \"#utility.yul\":2067:2180   */\ntag_57:\n    /* \"#utility.yul\":2081:2087   */\n  dup4\n    /* \"#utility.yul\":2078:2079   */\n  dup2\n    /* \"#utility.yul\":2075:2088   */\n  lt\n    /* \"#utility.yul\":2067:2180   */\n  iszero\n  tag_59\n  jumpi\n    /* \"#utility.yul\":2166:2167   */\n  dup1\n    /* \"#utility.yul\":2161:2164   */\n  dup3\n    /* \"#utility.yul\":2157:2168   */\n  add\n    /* \"#utility.yul\":2151:2169   */\n  mload\n    /* \"#utility.yul\":2147:2148   */\n  dup2\n    /* \"#utility.yul\":2142:2145   */\n  dup5\n    /* \"#utility.yul\":2138:2149   */\n  add\n    /* \"#utility.yul\":2131:2170   */\n  mstore\n    /* \"#utility.yul\":2103:2105   */\n  0x20\n    /* \"#utility.yul\":2100:2101   */\n  dup2\n    /* \"#utility.yul\":2096:2106   */\n  add\n    /* \"#utility.yul\":2091:2106   */\n  swap1\n  pop\n    /* \"#utility.yul\":2067:2180   */\n  jump(tag_57)\ntag_59:\n    /* \"#utility.yul\":2198:2204   */\n  dup4\n    /* \"#utility.yul\":2195:2196   */\n  dup2\n    /* \"#utility.yul\":2192:2205   */\n  gt\n    /* \"#utility.yul\":2189:2191   */\n  iszero\n  tag_60\n  jumpi\n    /* \"#utility.yul\":2278:2279   */\n  0x00\n    /* \"#utility.yul\":2269:2275   */\n  dup5\n    /* \"#utility.yul\":2264:2267   */\n  dup5\n    /* \"#utility.yul\":2260:2276   */\n  add\n    /* \"#utility.yul\":2253:2280   */\n  mstore\n    /* \"#utility.yul\":2189:2191   */\ntag_60:\n    /* \"#utility.yul\":2038:2296   */\n  pop\n  pop\n  pop\n  pop\n  jump\t// out\n    /* \"#utility.yul\":2302:2622   */\ntag_9:\n    /* \"#utility.yul\":2346:2352   */\n  0x00\n    /* \"#utility.yul\":2383:2384   */\n  0x02\n    /* \"#utility.yul\":2377:2381   */\n  dup3\n    /* \"#utility.yul\":2373:2385   */\n  div\n    /* \"#utility.yul\":2363:2385   */\n  swap1\n  pop\n    /* \"#utility.yul\":2430:2431   */\n  0x01\n    /* \"#utility.yul\":2424:2428   */\n  dup3\n    /* \"#utility.yul\":2420:2432   */\n  and\n    /* \"#utility.yul\":2451:2469   */\n  dup1\n    /* \"#utility.yul\":2441:2443   */\n  tag_62\n  jumpi\n    /* \"#utility.yul\":2507:2511   */\n  0x7f\n    /* \"#utility.yul\":2499:2505   */\n  dup3\n    /* \"#utility.yul\":2495:2512   */\n  and\n    /* \"#utility.yul\":2485:2512   */\n  swap2\n  pop\n    /* \"#utility.yul\":2441:2443   */\ntag_62:\n    /* \"#utility.yul\":2569:2571   */\n  0x20\n    /* \"#utility.yul\":2561:2567   */\n  dup3\n    /* \"#utility.yul\":2558:2572   */\n  lt\n    /* \"#utility.yul\":2538:2556   */\n  dup2\n    /* \"#utility.yul\":2535:2573   */\n  eq\n    /* \"#utility.yul\":2532:2534   */\n  iszero\n  tag_63\n  jumpi\n    /* \"#utility.yul\":2588:2606   */\n  tag_64\n  tag_65\n  jump\t// in\ntag_64:\n    /* \"#utility.yul\":2532:2534   */\ntag_63:\n    /* \"#utility.yul\":2353:2622   */\n  pop\n  swap2\n  swap1\n  pop\n  jump\t// out\n    /* \"#utility.yul\":2628:2909   */\ntag_46:\n    /* \"#utility.yul\":2711:2738   */\n  tag_67\n    /* \"#utility.yul\":2733:2737   */\n  dup3\n    /* \"#utility.yul\":2711:2738   */\n  tag_53\n  jump\t// in\ntag_67:\n    /* \"#utility.yul\":2703:2709   */\n  dup2\n    /* \"#utility.yul\":2699:2739   */\n  add\n    /* \"#utility.yul\":2841:2847   */\n  dup2\n    /* \"#utility.yul\":2829:2839   */\n  dup2\n    /* \"#utility.yul\":2826:2848   */\n  lt\n    /* \"#utility.yul\":2805:2823   */\n  0xffffffffffffffff\n    /* \"#utility.yul\":2793:2803   */\n  dup3\n    /* \"#utility.yul\":2790:2824   */\n  gt\n    /* \"#utility.yul\":2787:2849   */\n  or\n    /* \"#utility.yul\":2784:2786   */\n  iszero\n  tag_68\n  jumpi\n    /* \"#utility.yul\":2852:2870   */\n  tag_69\n  tag_51\n  jump\t// in\ntag_69:\n    /* \"#utility.yul\":2784:2786   */\ntag_68:\n    /* \"#utility.yul\":2892:2902   */\n  dup1\n    /* \"#utility.yul\":2888:2890   */\n  0x40\n    /* \"#utility.yul\":2881:2903   */\n  mstore\n    /* \"#utility.yul\":2671:2909   */\n  pop\n  pop\n  pop\n  jump\t// out\n    /* \"#utility.yul\":2915:3095   */\ntag_65:\n    /* \"#utility.yul\":2963:3040   */\n  0x4e487b7100000000000000000000000000000000000000000000000000000000\n    /* \"#utility.yul\":2960:2961   */\n  0x00\n    /* \"#utility.yul\":2953:3041   */\n  mstore\n    /* \"#utility.yul\":3060:3064   */\n  0x22\n    /* \"#utility.yul\":3057:3058   */\n  0x04\n    /* \"#utility.yul\":3050:3065   */\n  mstore\n    /* \"#utility.yul\":3084:3088   */\n  0x24\n    /* \"#utility.yul\":3081:3082   */\n  0x00\n    /* \"#utility.yul\":3074:3089   */\n  revert\n    /* \"#utility.yul\":3101:3281   */\ntag_51:\n    /* \"#utility.yul\":3149:3226   */\n  0x4e487b7100000000000000000000000000000000000000000000000000000000\n    /* \"#utility.yul\":3146:3147   */\n  0x00\n    /* \"#utility.yul\":3139:3227   */\n  mstore\n    /* \"#utility.yul\":3246:3250   */\n  0x41\n    /* \"#utility.yul\":3243:3244   */\n  0x04\n    /* \"#utility.yul\":3236:3251   */\n  mstore\n    /* \"#utility.yul\":3270:3274   */\n  0x24\n    /* \"#utility.yul\":3267:3268   */\n  0x00\n    /* \"#utility.yul\":3260:3275   */\n  revert\n    /* \"#utility.yul\":3287:3389   */\ntag_53:\n    /* \"#utility.yul\":3328:3334   */\n  0x00\n    /* \"#utility.yul\":3379:3381   */\n  0x1f\n    /* \"#utility.yul\":3375:3382   */\n  not\n    /* \"#utility.yul\":3370:3372   */\n  0x1f\n    /* \"#utility.yul\":3363:3368   */\n  dup4\n    /* \"#utility.yul\":3359:3373   */\n  add\n    /* \"#utility.yul\":3355:3383   */\n  and\n    /* \"#utility.yul\":3345:3383   */\n  swap1\n  pop\n    /* \"#utility.yul\":3335:3389   */\n  swap2\n  swap1\n  pop\n  jump\t// out\n    /* \"#utility.yul\":3395:3517   */\ntag_36:\n    /* \"#utility.yul\":3468:3492   */\n  tag_74\n    /* \"#utility.yul\":3486:3491   */\n  dup2\n    /* \"#utility.yul\":3468:3492   */\n  tag_54\n  jump\t// in\ntag_74:\n    /* \"#utility.yul\":3461:3466   */\n  dup2\n    /* \"#utility.yul\":3458:3493   */\n  eq\n    /* \"#utility.yul\":3448:3450   */\n  tag_75\n  jumpi\n    /* \"#utility.yul\":3507:3508   */\n  0x00\n    /* \"#utility.yul\":3504:3505   */\n  dup1\n    /* \"#utility.yul\":3497:3509   */\n  revert\n    /* \"#utility.yul\":3448:3450   */\ntag_75:\n    /* \"#utility.yul\":3438:3517   */\n  pop\n  jump\t// out\n    /* \"levelup/relottery.sol\":59:2254  contract Lottery{... */\ntag_7:\n  dataSize(sub_0)\n  dup1\n  dataOffset(sub_0)\n  0x00\n  codecopy\n  0x00\n  return\nstop\n\nsub_0: assembly {\n        /* \"levelup/relottery.sol\":59:2254  contract Lottery{... */\n      mstore(0x40, 0x80)\n      jumpi(tag_1, lt(calldatasize, 0x04))\n      shr(0xe0, calldataload(0x00))\n      dup1\n      0x8f68b1bd\n      gt\n      tag_10\n      jumpi\n      dup1\n      0x8f68b1bd\n      eq\n      tag_6\n      jumpi\n      dup1\n      0x931c3910\n      eq\n      tag_7\n      jumpi\n      dup1\n      0xe2eb41ff\n      eq\n      tag_8\n      jumpi\n      dup1\n      0xf9633930\n      eq\n      tag_9\n      jumpi\n      jump(tag_1)\n    tag_10:\n      dup1\n      0x17fe4e49\n      eq\n      tag_2\n      jumpi\n      dup1\n      0x28a15928\n      eq\n      tag_3\n      jumpi\n      dup1\n      0x42b8c415\n      eq\n      tag_4\n      jumpi\n      dup1\n      0x8da5cb5b\n      eq\n      tag_5\n      jumpi\n    tag_1:\n      0x00\n      dup1\n      revert\n        /* \"levelup/relottery.sol\":1563:1663  function intentos() public view returns(uint){... */\n    tag_2:\n      callvalue\n      dup1\n      iszero\n      tag_11\n      jumpi\n      0x00\n      dup1\n      revert\n    tag_11:\n      pop\n      tag_12\n      tag_13\n      jump\t// in\n    tag_12:\n      mload(0x40)\n      tag_14\n      swap2\n      swap1\n      tag_15\n      jump\t// in\n    tag_14:\n      mload(0x40)\n      dup1\n      swap2\n      sub\n      swap1\n      return\n        /* \"levelup/relottery.sol\":960:1557  function ganarLottery(uint _number) public payable returns (string memory){... */\n    tag_3:\n      tag_16\n      0x04\n      dup1\n      calldatasize\n      sub\n      dup2\n      add\n      swap1\n      tag_17\n      swap2\n      swap1\n      tag_18\n      jump\t// in\n    tag_17:\n      tag_19\n      jump\t// in\n    tag_16:\n      mload(0x40)\n      tag_20\n      swap2\n      swap1\n      tag_21\n      jump\t// in\n    tag_20:\n      mload(0x40)\n      dup1\n      swap2\n      sub\n      swap1\n      return\n        /* \"levelup/relottery.sol\":1669:1763  function balanceTotal() public view returns(uint){... */\n    tag_4:\n      callvalue\n      dup1\n      iszero\n      tag_22\n      jumpi\n      0x00\n      dup1\n      revert\n    tag_22:\n      pop\n      tag_23\n      tag_24\n      jump\t// in\n    tag_23:\n      mload(0x40)\n      tag_25\n      swap2\n      swap1\n      tag_15\n      jump\t// in\n    tag_25:\n      mload(0x40)\n      dup1\n      swap2\n      sub\n      swap1\n      return\n        /* \"levelup/relottery.sol\":219:239  address public owner */\n    tag_5:\n      callvalue\n      dup1\n      iszero\n      tag_26\n      jumpi\n      0x00\n      dup1\n      revert\n    tag_26:\n      pop\n      tag_27\n      tag_28\n      jump\t// in\n    tag_27:\n      mload(0x40)\n      tag_29\n      swap2\n      swap1\n      tag_30\n      jump\t// in\n    tag_29:\n      mload(0x40)\n      dup1\n      swap2\n      sub\n      swap1\n      return\n        /* \"levelup/relottery.sol\":1769:2070  function anularBoleto() public {... */\n    tag_6:\n      callvalue\n      dup1\n      iszero\n      tag_31\n      jumpi\n      0x00\n      dup1\n      revert\n    tag_31:\n      pop\n      tag_32\n      tag_33\n      jump\t// in\n    tag_32:\n      stop\n        /* \"levelup/relottery.sol\":413:925  function pagarBoleto() public payable {... */\n    tag_7:\n      tag_34\n      tag_35\n      jump\t// in\n    tag_34:\n      stop\n        /* \"levelup/relottery.sol\":82:121  mapping(address => uint) public players */\n    tag_8:\n      callvalue\n      dup1\n      iszero\n      tag_36\n      jumpi\n      0x00\n      dup1\n      revert\n    tag_36:\n      pop\n      tag_37\n      0x04\n      dup1\n      calldatasize\n      sub\n      dup2\n      add\n      swap1\n      tag_38\n      swap2\n      swap1\n      tag_39\n      jump\t// in\n    tag_38:\n      tag_40\n      jump\t// in\n    tag_37:\n      mload(0x40)\n      tag_41\n      swap2\n      swap1\n      tag_15\n      jump\t// in\n    tag_41:\n      mload(0x40)\n      dup1\n      swap2\n      sub\n      swap1\n      return\n        /* \"levelup/relottery.sol\":2076:2246  function getFlag() public view returns(string memory){... */\n    tag_9:\n      callvalue\n      dup1\n      iszero\n      tag_42\n      jumpi\n      0x00\n      dup1\n      revert\n    tag_42:\n      pop\n      tag_43\n      tag_44\n      jump\t// in\n    tag_43:\n      mload(0x40)\n      tag_45\n      swap2\n      swap1\n      tag_21\n      jump\t// in\n    tag_45:\n      mload(0x40)\n      dup1\n      swap2\n      sub\n      swap1\n      return\n        /* \"levelup/relottery.sol\":1563:1663  function intentos() public view returns(uint){... */\n    tag_13:\n        /* \"levelup/relottery.sol\":1603:1607  uint */\n      0x00\n        /* \"levelup/relottery.sol\":1625:1644  players_opportunity */\n      0x01\n        /* \"levelup/relottery.sol\":1625:1656  players_opportunity[msg.sender] */\n      0x00\n        /* \"levelup/relottery.sol\":1645:1655  msg.sender */\n      caller\n        /* \"levelup/relottery.sol\":1625:1656  players_opportunity[msg.sender] */\n      0xffffffffffffffffffffffffffffffffffffffff\n      and\n      0xffffffffffffffffffffffffffffffffffffffff\n      and\n      dup2\n      mstore\n      0x20\n      add\n      swap1\n      dup2\n      mstore\n      0x20\n      add\n      0x00\n      keccak256\n      sload\n        /* \"levelup/relottery.sol\":1618:1656  return players_opportunity[msg.sender] */\n      swap1\n      pop\n        /* \"levelup/relottery.sol\":1563:1663  function intentos() public view returns(uint){... */\n      swap1\n      jump\t// out\n        /* \"levelup/relottery.sol\":960:1557  function ganarLottery(uint _number) public payable returns (string memory){... */\n    tag_19:\n        /* \"levelup/relottery.sol\":1020:1033  string memory */\n      0x60\n        /* \"levelup/relottery.sol\":1086:1087  0 */\n      0x00\n        /* \"levelup/relottery.sol\":1052:1071  players_opportunity */\n      0x01\n        /* \"levelup/relottery.sol\":1052:1083  players_opportunity[msg.sender] */\n      0x00\n        /* \"levelup/relottery.sol\":1072:1082  msg.sender */\n      caller\n        /* \"levelup/relottery.sol\":1052:1083  players_opportunity[msg.sender] */\n      0xffffffffffffffffffffffffffffffffffffffff\n      and\n      0xffffffffffffffffffffffffffffffffffffffff\n      and\n      dup2\n      mstore\n      0x20\n      add\n      swap1\n      dup2\n      mstore\n      0x20\n      add\n      0x00\n      keccak256\n      sload\n        /* \"levelup/relottery.sol\":1052:1087  players_opportunity[msg.sender] > 0 */\n      gt\n        /* \"levelup/relottery.sol\":1044:1136  require(players_opportunity[msg.sender] > 0,\"Debes comprar boleto. No tienes oportunidades\") */\n      tag_48\n      jumpi\n      mload(0x40)\n      0x08c379a000000000000000000000000000000000000000000000000000000000\n      dup2\n      mstore\n      0x04\n      add\n      tag_49\n      swap1\n      tag_50\n      jump\t// in\n    tag_49:\n      mload(0x40)\n      dup1\n      swap2\n      sub\n      swap1\n      revert\n    tag_48:\n        /* \"levelup/relottery.sol\":1160:1166  number */\n      sload(0x03)\n        /* \"levelup/relottery.sol\":1149:1156  _number */\n      dup3\n        /* \"levelup/relottery.sol\":1149:1166  _number == number */\n      eq\n        /* \"levelup/relottery.sol\":1146:1551  if(_number == number)... */\n      iszero\n      tag_51\n      jumpi\n        /* \"levelup/relottery.sol\":1222:1231  bool sent */\n      0x00\n        /* \"levelup/relottery.sol\":1237:1247  msg.sender */\n      caller\n        /* \"levelup/relottery.sol\":1237:1252  msg.sender.call */\n      0xffffffffffffffffffffffffffffffffffffffff\n      and\n        /* \"levelup/relottery.sol\":1260:1281  address(this).balance */\n      selfbalance\n        /* \"levelup/relottery.sol\":1237:1286  msg.sender.call{value: address(this).balance}(\"\") */\n      mload(0x40)\n      tag_52\n      swap1\n      tag_53\n      jump\t// in\n    tag_52:\n      0x00\n      mload(0x40)\n      dup1\n      dup4\n      sub\n      dup2\n      dup6\n      dup8\n      gas\n      call\n      swap3\n      pop\n      pop\n      pop\n      returndatasize\n      dup1\n      0x00\n      dup2\n      eq\n      tag_56\n      jumpi\n      mload(0x40)\n      swap2\n      pop\n      and(add(returndatasize, 0x3f), not(0x1f))\n      dup3\n      add\n      0x40\n      mstore\n      returndatasize\n      dup3\n      mstore\n      returndatasize\n      0x00\n      0x20\n      dup5\n      add\n      returndatacopy\n      jump(tag_55)\n    tag_56:\n      0x60\n      swap2\n      pop\n    tag_55:\n      pop\n        /* \"levelup/relottery.sol\":1221:1286  (bool sent, ) = msg.sender.call{value: address(this).balance}(\"\") */\n      pop\n      swap1\n      pop\n        /* \"levelup/relottery.sol\":1308:1312  sent */\n      dup1\n        /* \"levelup/relottery.sol\":1300:1341  require(sent, \"Fallo al enviar cantidad\") */\n      tag_57\n      jumpi\n      mload(0x40)\n      0x08c379a000000000000000000000000000000000000000000000000000000000\n      dup2\n      mstore\n      0x04\n      add\n      tag_58\n      swap1\n      tag_59\n      jump\t// in\n    tag_58:\n      mload(0x40)\n      dup1\n      swap2\n      sub\n      swap1\n      revert\n    tag_57:\n        /* \"levelup/relottery.sol\":1355:1406  return (\"Has ganado la lottery. ETH para rebosar!\") */\n      mload(0x40)\n      dup1\n      0x60\n      add\n      0x40\n      mstore\n      dup1\n      0x28\n      dup2\n      mstore\n      0x20\n      add\n      data_1bac41487549561f9a7ccdf2f7808d4bc9d56f069b5b1b4a2eaba91970d2709d\n      0x28\n      swap2\n      codecopy\n      swap2\n      pop\n      pop\n      jump(tag_47)\n        /* \"levelup/relottery.sol\":1146:1551  if(_number == number)... */\n    tag_51:\n        /* \"levelup/relottery.sol\":1479:1480  1 */\n      0x01\n        /* \"levelup/relottery.sol\":1444:1463  players_opportunity */\n      dup1\n        /* \"levelup/relottery.sol\":1444:1475  players_opportunity[msg.sender] */\n      0x00\n        /* \"levelup/relottery.sol\":1464:1474  msg.sender */\n      caller\n        /* \"levelup/relottery.sol\":1444:1475  players_opportunity[msg.sender] */\n      0xffffffffffffffffffffffffffffffffffffffff\n      and\n      0xffffffffffffffffffffffffffffffffffffffff\n      and\n      dup2\n      mstore\n      0x20\n      add\n      swap1\n      dup2\n      mstore\n      0x20\n      add\n      0x00\n      keccak256\n      0x00\n        /* \"levelup/relottery.sol\":1444:1480  players_opportunity[msg.sender] -= 1 */\n      dup3\n      dup3\n      sload\n      tag_61\n      swap2\n      swap1\n      tag_62\n      jump\t// in\n    tag_61:\n      swap3\n      pop\n      pop\n      dup2\n      swap1\n      sstore\n      pop\n        /* \"levelup/relottery.sol\":1494:1540  return (\"Has fallado. Has perdido un intento\") */\n      mload(0x40)\n      dup1\n      0x60\n      add\n      0x40\n      mstore\n      dup1\n      0x23\n      dup2\n      mstore\n      0x20\n      add\n      data_2c1c8ebfa2b2e1fd0867ed0383858c3e427d791e4fe196b7afe17737bcdbcd3a\n      0x23\n      swap2\n      codecopy\n      swap1\n      pop\n        /* \"levelup/relottery.sol\":960:1557  function ganarLottery(uint _number) public payable returns (string memory){... */\n    tag_47:\n      swap2\n      swap1\n      pop\n      jump\t// out\n        /* \"levelup/relottery.sol\":1669:1763  function balanceTotal() public view returns(uint){... */\n    tag_24:\n        /* \"levelup/relottery.sol\":1713:1717  uint */\n      0x00\n        /* \"levelup/relottery.sol\":1735:1756  address(this).balance */\n      selfbalance\n        /* \"levelup/relottery.sol\":1728:1756  return address(this).balance */\n      swap1\n      pop\n        /* \"levelup/relottery.sol\":1669:1763  function balanceTotal() public view returns(uint){... */\n      swap1\n      jump\t// out\n        /* \"levelup/relottery.sol\":219:239  address public owner */\n    tag_28:\n      0x04\n      0x00\n      swap1\n      sload\n      swap1\n      0x0100\n      exp\n      swap1\n      div\n      0xffffffffffffffffffffffffffffffffffffffff\n      and\n      dup2\n      jump\t// out\n        /* \"levelup/relottery.sol\":1769:2070  function anularBoleto() public {... */\n    tag_33:\n        /* \"levelup/relottery.sol\":1840:1841  0 */\n      0x00\n        /* \"levelup/relottery.sol\":1818:1825  players */\n      dup1\n        /* \"levelup/relottery.sol\":1818:1837  players[msg.sender] */\n      0x00\n        /* \"levelup/relottery.sol\":1826:1836  msg.sender */\n      caller\n        /* \"levelup/relottery.sol\":1818:1837  players[msg.sender] */\n      0xffffffffffffffffffffffffffffffffffffffff\n      and\n      0xffffffffffffffffffffffffffffffffffffffff\n      and\n      dup2\n      mstore\n      0x20\n      add\n      swap1\n      dup2\n      mstore\n      0x20\n      add\n      0x00\n      keccak256\n      sload\n        /* \"levelup/relottery.sol\":1818:1841  players[msg.sender] > 0 */\n      gt\n        /* \"levelup/relottery.sol\":1810:1861  require(players[msg.sender] > 0,\"No tienes fondos\") */\n      tag_65\n      jumpi\n      mload(0x40)\n      0x08c379a000000000000000000000000000000000000000000000000000000000\n      dup2\n      mstore\n      0x04\n      add\n      tag_66\n      swap1\n      tag_67\n      jump\t// in\n    tag_66:\n      mload(0x40)\n      dup1\n      swap2\n      sub\n      swap1\n      revert\n    tag_65:\n        /* \"levelup/relottery.sol\":1872:1881  bool sent */\n      0x00\n        /* \"levelup/relottery.sol\":1887:1897  msg.sender */\n      caller\n        /* \"levelup/relottery.sol\":1887:1902  msg.sender.call */\n      0xffffffffffffffffffffffffffffffffffffffff\n      and\n        /* \"levelup/relottery.sol\":1910:1917  players */\n      0x00\n        /* \"levelup/relottery.sol\":1910:1929  players[msg.sender] */\n      dup1\n        /* \"levelup/relottery.sol\":1918:1928  msg.sender */\n      caller\n        /* \"levelup/relottery.sol\":1910:1929  players[msg.sender] */\n      0xffffffffffffffffffffffffffffffffffffffff\n      and\n      0xffffffffffffffffffffffffffffffffffffffff\n      and\n      dup2\n      mstore\n      0x20\n      add\n      swap1\n      dup2\n      mstore\n      0x20\n      add\n      0x00\n      keccak256\n      sload\n        /* \"levelup/relottery.sol\":1887:1934  msg.sender.call{value: players[msg.sender]}(\"\") */\n      mload(0x40)\n      tag_68\n      swap1\n      tag_53\n      jump\t// in\n    tag_68:\n      0x00\n      mload(0x40)\n      dup1\n      dup4\n      sub\n      dup2\n      dup6\n      dup8\n      gas\n      call\n      swap3\n      pop\n      pop\n      pop\n      returndatasize\n      dup1\n      0x00\n      dup2\n      eq\n      tag_71\n      jumpi\n      mload(0x40)\n      swap2\n      pop\n      and(add(returndatasize, 0x3f), not(0x1f))\n      dup3\n      add\n      0x40\n      mstore\n      returndatasize\n      dup3\n      mstore\n      returndatasize\n      0x00\n      0x20\n      dup5\n      add\n      returndatacopy\n      jump(tag_70)\n    tag_71:\n      0x60\n      swap2\n      pop\n    tag_70:\n      pop\n        /* \"levelup/relottery.sol\":1871:1934  (bool sent, ) = msg.sender.call{value: players[msg.sender]}(\"\") */\n      pop\n      swap1\n      pop\n        /* \"levelup/relottery.sol\":1952:1956  sent */\n      dup1\n        /* \"levelup/relottery.sol\":1944:1985  require(sent, \"Fallo al enviar cantidad\") */\n      tag_72\n      jumpi\n      mload(0x40)\n      0x08c379a000000000000000000000000000000000000000000000000000000000\n      dup2\n      mstore\n      0x04\n      add\n      tag_73\n      swap1\n      tag_59\n      jump\t// in\n    tag_73:\n      mload(0x40)\n      dup1\n      swap2\n      sub\n      swap1\n      revert\n    tag_72:\n        /* \"levelup/relottery.sol\":2029:2030  0 */\n      0x00\n        /* \"levelup/relottery.sol\":1995:2014  players_opportunity */\n      0x01\n        /* \"levelup/relottery.sol\":1995:2026  players_opportunity[msg.sender] */\n      0x00\n        /* \"levelup/relottery.sol\":2015:2025  msg.sender */\n      caller\n        /* \"levelup/relottery.sol\":1995:2026  players_opportunity[msg.sender] */\n      0xffffffffffffffffffffffffffffffffffffffff\n      and\n      0xffffffffffffffffffffffffffffffffffffffff\n      and\n      dup2\n      mstore\n      0x20\n      add\n      swap1\n      dup2\n      mstore\n      0x20\n      add\n      0x00\n      keccak256\n        /* \"levelup/relottery.sol\":1995:2030  players_opportunity[msg.sender] = 0 */\n      dup2\n      swap1\n      sstore\n      pop\n        /* \"levelup/relottery.sol\":2062:2063  0 */\n      0x00\n        /* \"levelup/relottery.sol\":2040:2047  players */\n      dup1\n        /* \"levelup/relottery.sol\":2040:2059  players[msg.sender] */\n      0x00\n        /* \"levelup/relottery.sol\":2048:2058  msg.sender */\n      caller\n        /* \"levelup/relottery.sol\":2040:2059  players[msg.sender] */\n      0xffffffffffffffffffffffffffffffffffffffff\n      and\n      0xffffffffffffffffffffffffffffffffffffffff\n      and\n      dup2\n      mstore\n      0x20\n      add\n      swap1\n      dup2\n      mstore\n      0x20\n      add\n      0x00\n      keccak256\n        /* \"levelup/relottery.sol\":2040:2063  players[msg.sender] = 0 */\n      dup2\n      swap1\n      sstore\n      pop\n        /* \"levelup/relottery.sol\":1769:2070  function anularBoleto() public {... */\n      pop\n      jump\t// out\n        /* \"levelup/relottery.sol\":413:925  function pagarBoleto() public payable {... */\n    tag_35:\n        /* \"levelup/relottery.sol\":482:493  1000000 wei */\n      0x0f4240\n        /* \"levelup/relottery.sol\":469:478  msg.value */\n      callvalue\n        /* \"levelup/relottery.sol\":469:493  msg.value >= 1000000 wei */\n      lt\n      iszero\n        /* \"levelup/relottery.sol\":461:600  require(msg.value >= 1000000 wei,\"Debes pagar. 1000000 wei => 1 oportunidad. 2000000 wei => 2 oportunidades. +2000000 wei 4 oportunidades\") */\n      tag_75\n      jumpi\n      mload(0x40)\n      0x08c379a000000000000000000000000000000000000000000000000000000000\n      dup2\n      mstore\n      0x04\n      add\n      tag_76\n      swap1\n      tag_77\n      jump\t// in\n    tag_76:\n      mload(0x40)\n      dup1\n      swap2\n      sub\n      swap1\n      revert\n    tag_75:\n        /* \"levelup/relottery.sol\":633:642  msg.value */\n      callvalue\n        /* \"levelup/relottery.sol\":610:617  players */\n      0x00\n        /* \"levelup/relottery.sol\":610:629  players[msg.sender] */\n      dup1\n        /* \"levelup/relottery.sol\":618:628  msg.sender */\n      caller\n        /* \"levelup/relottery.sol\":610:629  players[msg.sender] */\n      0xffffffffffffffffffffffffffffffffffffffff\n      and\n      0xffffffffffffffffffffffffffffffffffffffff\n      and\n      dup2\n      mstore\n      0x20\n      add\n      swap1\n      dup2\n      mstore\n      0x20\n      add\n      0x00\n      keccak256\n      0x00\n        /* \"levelup/relottery.sol\":610:642  players[msg.sender] += msg.value */\n      dup3\n      dup3\n      sload\n      tag_78\n      swap2\n      swap1\n      tag_79\n      jump\t// in\n    tag_78:\n      swap3\n      pop\n      pop\n      dup2\n      swap1\n      sstore\n      pop\n        /* \"levelup/relottery.sol\":668:679  2000000 wei */\n      0x1e8480\n        /* \"levelup/relottery.sol\":656:665  msg.value */\n      callvalue\n        /* \"levelup/relottery.sol\":656:679  msg.value < 2000000 wei */\n      lt\n        /* \"levelup/relottery.sol\":652:919  if (msg.value < 2000000 wei){... */\n      iszero\n      tag_80\n      jumpi\n        /* \"levelup/relottery.sol\":729:730  1 */\n      0x01\n        /* \"levelup/relottery.sol\":694:713  players_opportunity */\n      dup1\n        /* \"levelup/relottery.sol\":694:725  players_opportunity[msg.sender] */\n      0x00\n        /* \"levelup/relottery.sol\":714:724  msg.sender */\n      caller\n        /* \"levelup/relottery.sol\":694:725  players_opportunity[msg.sender] */\n      0xffffffffffffffffffffffffffffffffffffffff\n      and\n      0xffffffffffffffffffffffffffffffffffffffff\n      and\n      dup2\n      mstore\n      0x20\n      add\n      swap1\n      dup2\n      mstore\n      0x20\n      add\n      0x00\n      keccak256\n      0x00\n        /* \"levelup/relottery.sol\":694:730  players_opportunity[msg.sender] += 1 */\n      dup3\n      dup3\n      sload\n      tag_81\n      swap2\n      swap1\n      tag_79\n      jump\t// in\n    tag_81:\n      swap3\n      pop\n      pop\n      dup2\n      swap1\n      sstore\n      pop\n        /* \"levelup/relottery.sol\":652:919  if (msg.value < 2000000 wei){... */\n      jump(tag_82)\n    tag_80:\n        /* \"levelup/relottery.sol\":772:783  2000000 wei */\n      0x1e8480\n        /* \"levelup/relottery.sol\":759:768  msg.value */\n      callvalue\n        /* \"levelup/relottery.sol\":759:783  msg.value == 2000000 wei */\n      eq\n        /* \"levelup/relottery.sol\":755:919  if (msg.value == 2000000 wei){... */\n      iszero\n      tag_83\n      jumpi\n        /* \"levelup/relottery.sol\":833:834  2 */\n      0x02\n        /* \"levelup/relottery.sol\":798:817  players_opportunity */\n      0x01\n        /* \"levelup/relottery.sol\":798:829  players_opportunity[msg.sender] */\n      0x00\n        /* \"levelup/relottery.sol\":818:828  msg.sender */\n      caller\n        /* \"levelup/relottery.sol\":798:829  players_opportunity[msg.sender] */\n      0xffffffffffffffffffffffffffffffffffffffff\n      and\n      0xffffffffffffffffffffffffffffffffffffffff\n      and\n      dup2\n      mstore\n      0x20\n      add\n      swap1\n      dup2\n      mstore\n      0x20\n      add\n      0x00\n      keccak256\n      0x00\n        /* \"levelup/relottery.sol\":798:834  players_opportunity[msg.sender] += 2 */\n      dup3\n      dup3\n      sload\n      tag_84\n      swap2\n      swap1\n      tag_79\n      jump\t// in\n    tag_84:\n      swap3\n      pop\n      pop\n      dup2\n      swap1\n      sstore\n      pop\n        /* \"levelup/relottery.sol\":755:919  if (msg.value == 2000000 wei){... */\n      jump(tag_85)\n    tag_83:\n        /* \"levelup/relottery.sol\":907:908  4 */\n      0x04\n        /* \"levelup/relottery.sol\":872:891  players_opportunity */\n      0x01\n        /* \"levelup/relottery.sol\":872:903  players_opportunity[msg.sender] */\n      0x00\n        /* \"levelup/relottery.sol\":892:902  msg.sender */\n      caller\n        /* \"levelup/relottery.sol\":872:903  players_opportunity[msg.sender] */\n      0xffffffffffffffffffffffffffffffffffffffff\n      and\n      0xffffffffffffffffffffffffffffffffffffffff\n      and\n      dup2\n      mstore\n      0x20\n      add\n      swap1\n      dup2\n      mstore\n      0x20\n      add\n      0x00\n      keccak256\n      0x00\n        /* \"levelup/relottery.sol\":872:908  players_opportunity[msg.sender] += 4 */\n      dup3\n      dup3\n      sload\n      tag_86\n      swap2\n      swap1\n      tag_79\n      jump\t// in\n    tag_86:\n      swap3\n      pop\n      pop\n      dup2\n      swap1\n      sstore\n      pop\n        /* \"levelup/relottery.sol\":755:919  if (msg.value == 2000000 wei){... */\n    tag_85:\n        /* \"levelup/relottery.sol\":652:919  if (msg.value < 2000000 wei){... */\n    tag_82:\n        /* \"levelup/relottery.sol\":413:925  function pagarBoleto() public payable {... */\n      jump\t// out\n        /* \"levelup/relottery.sol\":82:121  mapping(address => uint) public players */\n    tag_40:\n      mstore(0x20, 0x00)\n      dup1\n      0x00\n      mstore\n      keccak256(0x00, 0x40)\n      0x00\n      swap2\n      pop\n      swap1\n      pop\n      sload\n      dup2\n      jump\t// out\n        /* \"levelup/relottery.sol\":2076:2246  function getFlag() public view returns(string memory){... */\n    tag_44:\n        /* \"levelup/relottery.sol\":2115:2128  string memory */\n      0x60\n        /* \"levelup/relottery.sol\":2172:2173  0 */\n      0x00\n        /* \"levelup/relottery.sol\":2147:2168  address(this).balance */\n      selfbalance\n        /* \"levelup/relottery.sol\":2147:2173  address(this).balance == 0 */\n      eq\n        /* \"levelup/relottery.sol\":2139:2218  require(address(this).balance == 0,\"Si hay fondos no puedes conseguir la flag\") */\n      tag_88\n      jumpi\n      mload(0x40)\n      0x08c379a000000000000000000000000000000000000000000000000000000000\n      dup2\n      mstore\n      0x04\n      add\n      tag_89\n      swap1\n      tag_90\n      jump\t// in\n    tag_89:\n      mload(0x40)\n      dup1\n      swap2\n      sub\n      swap1\n      revert\n    tag_88:\n        /* \"levelup/relottery.sol\":2235:2239  flag */\n      0x02\n        /* \"levelup/relottery.sol\":2228:2239  return flag */\n      dup1\n      sload\n      tag_91\n      swap1\n      tag_92\n      jump\t// in\n    tag_91:\n      dup1\n      0x1f\n      add\n      0x20\n      dup1\n      swap2\n      div\n      mul\n      0x20\n      add\n      mload(0x40)\n      swap1\n      dup2\n      add\n      0x40\n      mstore\n      dup1\n      swap3\n      swap2\n      swap1\n      dup2\n      dup2\n      mstore\n      0x20\n      add\n      dup3\n      dup1\n      sload\n      tag_93\n      swap1\n      tag_92\n      jump\t// in\n    tag_93:\n      dup1\n      iszero\n      tag_94\n      jumpi\n      dup1\n      0x1f\n      lt\n      tag_95\n      jumpi\n      0x0100\n      dup1\n      dup4\n      sload\n      div\n      mul\n      dup4\n      mstore\n      swap2\n      0x20\n      add\n      swap2\n      jump(tag_94)\n    tag_95:\n      dup3\n      add\n      swap2\n      swap1\n      0x00\n      mstore\n      keccak256(0x00, 0x20)\n      swap1\n    tag_96:\n      dup2\n      sload\n      dup2\n      mstore\n      swap1\n      0x01\n      add\n      swap1\n      0x20\n      add\n      dup1\n      dup4\n      gt\n      tag_96\n      jumpi\n      dup3\n      swap1\n      sub\n      0x1f\n      and\n      dup3\n      add\n      swap2\n    tag_94:\n      pop\n      pop\n      pop\n      pop\n      pop\n      swap1\n      pop\n        /* \"levelup/relottery.sol\":2076:2246  function getFlag() public view returns(string memory){... */\n      swap1\n      jump\t// out\n        /* \"#utility.yul\":7:146   */\n    tag_98:\n        /* \"#utility.yul\":53:58   */\n      0x00\n        /* \"#utility.yul\":91:97   */\n      dup2\n        /* \"#utility.yul\":78:98   */\n      calldataload\n        /* \"#utility.yul\":69:98   */\n      swap1\n      pop\n        /* \"#utility.yul\":107:140   */\n      tag_100\n        /* \"#utility.yul\":134:139   */\n      dup2\n        /* \"#utility.yul\":107:140   */\n      tag_101\n      jump\t// in\n    tag_100:\n        /* \"#utility.yul\":59:146   */\n      swap3\n      swap2\n      pop\n      pop\n      jump\t// out\n        /* \"#utility.yul\":152:291   */\n    tag_102:\n        /* \"#utility.yul\":198:203   */\n      0x00\n        /* \"#utility.yul\":236:242   */\n      dup2\n        /* \"#utility.yul\":223:243   */\n      calldataload\n        /* \"#utility.yul\":214:243   */\n      swap1\n      pop\n        /* \"#utility.yul\":252:285   */\n      tag_104\n        /* \"#utility.yul\":279:284   */\n      dup2\n        /* \"#utility.yul\":252:285   */\n      tag_105\n      jump\t// in\n    tag_104:\n        /* \"#utility.yul\":204:291   */\n      swap3\n      swap2\n      pop\n      pop\n      jump\t// out\n        /* \"#utility.yul\":297:559   */\n    tag_39:\n        /* \"#utility.yul\":356:362   */\n      0x00\n        /* \"#utility.yul\":405:407   */\n      0x20\n        /* \"#utility.yul\":393:402   */\n      dup3\n        /* \"#utility.yul\":384:391   */\n      dup5\n        /* \"#utility.yul\":380:403   */\n      sub\n        /* \"#utility.yul\":376:408   */\n      slt\n        /* \"#utility.yul\":373:375   */\n      iszero\n      tag_107\n      jumpi\n        /* \"#utility.yul\":421:422   */\n      0x00\n        /* \"#utility.yul\":418:419   */\n      dup1\n        /* \"#utility.yul\":411:423   */\n      revert\n        /* \"#utility.yul\":373:375   */\n    tag_107:\n        /* \"#utility.yul\":464:465   */\n      0x00\n        /* \"#utility.yul\":489:542   */\n      tag_108\n        /* \"#utility.yul\":534:541   */\n      dup5\n        /* \"#utility.yul\":525:531   */\n      dup3\n        /* \"#utility.yul\":514:523   */\n      dup6\n        /* \"#utility.yul\":510:532   */\n      add\n        /* \"#utility.yul\":489:542   */\n      tag_98\n      jump\t// in\n    tag_108:\n        /* \"#utility.yul\":479:542   */\n      swap2\n      pop\n        /* \"#utility.yul\":435:552   */\n      pop\n        /* \"#utility.yul\":363:559   */\n      swap3\n      swap2\n      pop\n      pop\n      jump\t// out\n        /* \"#utility.yul\":565:827   */\n    tag_18:\n        /* \"#utility.yul\":624:630   */\n      0x00\n        /* \"#utility.yul\":673:675   */\n      0x20\n        /* \"#utility.yul\":661:670   */\n      dup3\n        /* \"#utility.yul\":652:659   */\n      dup5\n        /* \"#utility.yul\":648:671   */\n      sub\n        /* \"#utility.yul\":644:676   */\n      slt\n        /* \"#utility.yul\":641:643   */\n      iszero\n      tag_110\n      jumpi\n        /* \"#utility.yul\":689:690   */\n      0x00\n        /* \"#utility.yul\":686:687   */\n      dup1\n        /* \"#utility.yul\":679:691   */\n      revert\n        /* \"#utility.yul\":641:643   */\n    tag_110:\n        /* \"#utility.yul\":732:733   */\n      0x00\n        /* \"#utility.yul\":757:810   */\n      tag_111\n        /* \"#utility.yul\":802:809   */\n      dup5\n        /* \"#utility.yul\":793:799   */\n      dup3\n        /* \"#utility.yul\":782:791   */\n      dup6\n        /* \"#utility.yul\":778:800   */\n      add\n        /* \"#utility.yul\":757:810   */\n      tag_102\n      jump\t// in\n    tag_111:\n        /* \"#utility.yul\":747:810   */\n      swap2\n      pop\n        /* \"#utility.yul\":703:820   */\n      pop\n        /* \"#utility.yul\":631:827   */\n      swap3\n      swap2\n      pop\n      pop\n      jump\t// out\n        /* \"#utility.yul\":833:951   */\n    tag_112:\n        /* \"#utility.yul\":920:944   */\n      tag_114\n        /* \"#utility.yul\":938:943   */\n      dup2\n        /* \"#utility.yul\":920:944   */\n      tag_115\n      jump\t// in\n    tag_114:\n        /* \"#utility.yul\":915:918   */\n      dup3\n        /* \"#utility.yul\":908:945   */\n      mstore\n        /* \"#utility.yul\":898:951   */\n      pop\n      pop\n      jump\t// out\n        /* \"#utility.yul\":957:1321   */\n    tag_116:\n        /* \"#utility.yul\":1045:1048   */\n      0x00\n        /* \"#utility.yul\":1073:1112   */\n      tag_118\n        /* \"#utility.yul\":1106:1111   */\n      dup3\n        /* \"#utility.yul\":1073:1112   */\n      tag_119\n      jump\t// in\n    tag_118:\n        /* \"#utility.yul\":1128:1199   */\n      tag_120\n        /* \"#utility.yul\":1192:1198   */\n      dup2\n        /* \"#utility.yul\":1187:1190   */\n      dup6\n        /* \"#utility.yul\":1128:1199   */\n      tag_121\n      jump\t// in\n    tag_120:\n        /* \"#utility.yul\":1121:1199   */\n      swap4\n      pop\n        /* \"#utility.yul\":1208:1260   */\n      tag_122\n        /* \"#utility.yul\":1253:1259   */\n      dup2\n        /* \"#utility.yul\":1248:1251   */\n      dup6\n        /* \"#utility.yul\":1241:1245   */\n      0x20\n        /* \"#utility.yul\":1234:1239   */\n      dup7\n        /* \"#utility.yul\":1230:1246   */\n      add\n        /* \"#utility.yul\":1208:1260   */\n      tag_123\n      jump\t// in\n    tag_122:\n        /* \"#utility.yul\":1285:1314   */\n      tag_124\n        /* \"#utility.yul\":1307:1313   */\n      dup2\n        /* \"#utility.yul\":1285:1314   */\n      tag_125\n      jump\t// in\n    tag_124:\n        /* \"#utility.yul\":1280:1283   */\n      dup5\n        /* \"#utility.yul\":1276:1315   */\n      add\n        /* \"#utility.yul\":1269:1315   */\n      swap2\n      pop\n        /* \"#utility.yul\":1049:1321   */\n      pop\n      swap3\n      swap2\n      pop\n      pop\n      jump\t// out\n        /* \"#utility.yul\":1327:1693   */\n    tag_126:\n        /* \"#utility.yul\":1469:1472   */\n      0x00\n        /* \"#utility.yul\":1490:1557   */\n      tag_128\n        /* \"#utility.yul\":1554:1556   */\n      0x29\n        /* \"#utility.yul\":1549:1552   */\n      dup4\n        /* \"#utility.yul\":1490:1557   */\n      tag_121\n      jump\t// in\n    tag_128:\n        /* \"#utility.yul\":1483:1557   */\n      swap2\n      pop\n        /* \"#utility.yul\":1566:1659   */\n      tag_129\n        /* \"#utility.yul\":1655:1658   */\n      dup3\n        /* \"#utility.yul\":1566:1659   */\n      tag_130\n      jump\t// in\n    tag_129:\n        /* \"#utility.yul\":1684:1686   */\n      0x40\n        /* \"#utility.yul\":1679:1682   */\n      dup3\n        /* \"#utility.yul\":1675:1687   */\n      add\n        /* \"#utility.yul\":1668:1687   */\n      swap1\n      pop\n        /* \"#utility.yul\":1473:1693   */\n      swap2\n      swap1\n      pop\n      jump\t// out\n        /* \"#utility.yul\":1699:2065   */\n    tag_131:\n        /* \"#utility.yul\":1841:1844   */\n      0x00\n        /* \"#utility.yul\":1862:1929   */\n      tag_133\n        /* \"#utility.yul\":1926:1928   */\n      0x2d\n        /* \"#utility.yul\":1921:1924   */\n      dup4\n        /* \"#utility.yul\":1862:1929   */\n      tag_121\n      jump\t// in\n    tag_133:\n        /* \"#utility.yul\":1855:1929   */\n      swap2\n      pop\n        /* \"#utility.yul\":1938:2031   */\n      tag_134\n        /* \"#utility.yul\":2027:2030   */\n      dup3\n        /* \"#utility.yul\":1938:2031   */\n      tag_135\n      jump\t// in\n    tag_134:\n        /* \"#utility.yul\":2056:2058   */\n      0x40\n        /* \"#utility.yul\":2051:2054   */\n      dup3\n        /* \"#utility.yul\":2047:2059   */\n      add\n        /* \"#utility.yul\":2040:2059   */\n      swap1\n      pop\n        /* \"#utility.yul\":1845:2065   */\n      swap2\n      swap1\n      pop\n      jump\t// out\n        /* \"#utility.yul\":2071:2439   */\n    tag_136:\n        /* \"#utility.yul\":2213:2216   */\n      0x00\n        /* \"#utility.yul\":2234:2302   */\n      tag_138\n        /* \"#utility.yul\":2298:2301   */\n      0x67\n        /* \"#utility.yul\":2293:2296   */\n      dup4\n        /* \"#utility.yul\":2234:2302   */\n      tag_121\n      jump\t// in\n    tag_138:\n        /* \"#utility.yul\":2227:2302   */\n      swap2\n      pop\n        /* \"#utility.yul\":2311:2404   */\n      tag_139\n        /* \"#utility.yul\":2400:2403   */\n      dup3\n        /* \"#utility.yul\":2311:2404   */\n      tag_140\n      jump\t// in\n    tag_139:\n        /* \"#utility.yul\":2429:2432   */\n      0x80\n        /* \"#utility.yul\":2424:2427   */\n      dup3\n        /* \"#utility.yul\":2420:2433   */\n      add\n        /* \"#utility.yul\":2413:2433   */\n      swap1\n      pop\n        /* \"#utility.yul\":2217:2439   */\n      swap2\n      swap1\n      pop\n      jump\t// out\n        /* \"#utility.yul\":2445:2811   */\n    tag_141:\n        /* \"#utility.yul\":2587:2590   */\n      0x00\n        /* \"#utility.yul\":2608:2675   */\n      tag_143\n        /* \"#utility.yul\":2672:2674   */\n      0x10\n        /* \"#utility.yul\":2667:2670   */\n      dup4\n        /* \"#utility.yul\":2608:2675   */\n      tag_121\n      jump\t// in\n    tag_143:\n        /* \"#utility.yul\":2601:2675   */\n      swap2\n      pop\n        /* \"#utility.yul\":2684:2777   */\n      tag_144\n        /* \"#utility.yul\":2773:2776   */\n      dup3\n        /* \"#utility.yul\":2684:2777   */\n      tag_145\n      jump\t// in\n    tag_144:\n        /* \"#utility.yul\":2802:2804   */\n      0x20\n        /* \"#utility.yul\":2797:2800   */\n      dup3\n        /* \"#utility.yul\":2793:2805   */\n      add\n        /* \"#utility.yul\":2786:2805   */\n      swap1\n      pop\n        /* \"#utility.yul\":2591:2811   */\n      swap2\n      swap1\n      pop\n      jump\t// out\n        /* \"#utility.yul\":2817:3215   */\n    tag_146:\n        /* \"#utility.yul\":2976:2979   */\n      0x00\n        /* \"#utility.yul\":2997:3080   */\n      tag_148\n        /* \"#utility.yul\":3078:3079   */\n      0x00\n        /* \"#utility.yul\":3073:3076   */\n      dup4\n        /* \"#utility.yul\":2997:3080   */\n      tag_149\n      jump\t// in\n    tag_148:\n        /* \"#utility.yul\":2990:3080   */\n      swap2\n      pop\n        /* \"#utility.yul\":3089:3182   */\n      tag_150\n        /* \"#utility.yul\":3178:3181   */\n      dup3\n        /* \"#utility.yul\":3089:3182   */\n      tag_151\n      jump\t// in\n    tag_150:\n        /* \"#utility.yul\":3207:3208   */\n      0x00\n        /* \"#utility.yul\":3202:3205   */\n      dup3\n        /* \"#utility.yul\":3198:3209   */\n      add\n        /* \"#utility.yul\":3191:3209   */\n      swap1\n      pop\n        /* \"#utility.yul\":2980:3215   */\n      swap2\n      swap1\n      pop\n      jump\t// out\n        /* \"#utility.yul\":3221:3587   */\n    tag_152:\n        /* \"#utility.yul\":3363:3366   */\n      0x00\n        /* \"#utility.yul\":3384:3451   */\n      tag_154\n        /* \"#utility.yul\":3448:3450   */\n      0x18\n        /* \"#utility.yul\":3443:3446   */\n      dup4\n        /* \"#utility.yul\":3384:3451   */\n      tag_121\n      jump\t// in\n    tag_154:\n        /* \"#utility.yul\":3377:3451   */\n      swap2\n      pop\n        /* \"#utility.yul\":3460:3553   */\n      tag_155\n        /* \"#utility.yul\":3549:3552   */\n      dup3\n        /* \"#utility.yul\":3460:3553   */\n      tag_156\n      jump\t// in\n    tag_155:\n        /* \"#utility.yul\":3578:3580   */\n      0x20\n        /* \"#utility.yul\":3573:3576   */\n      dup3\n        /* \"#utility.yul\":3569:3581   */\n      add\n        /* \"#utility.yul\":3562:3581   */\n      swap1\n      pop\n        /* \"#utility.yul\":3367:3587   */\n      swap2\n      swap1\n      pop\n      jump\t// out\n        /* \"#utility.yul\":3593:3711   */\n    tag_157:\n        /* \"#utility.yul\":3680:3704   */\n      tag_159\n        /* \"#utility.yul\":3698:3703   */\n      dup2\n        /* \"#utility.yul\":3680:3704   */\n      tag_160\n      jump\t// in\n    tag_159:\n        /* \"#utility.yul\":3675:3678   */\n      dup3\n        /* \"#utility.yul\":3668:3705   */\n      mstore\n        /* \"#utility.yul\":3658:3711   */\n      pop\n      pop\n      jump\t// out\n        /* \"#utility.yul\":3717:4096   */\n    tag_53:\n        /* \"#utility.yul\":3901:3904   */\n      0x00\n        /* \"#utility.yul\":3923:4070   */\n      tag_162\n        /* \"#utility.yul\":4066:4069   */\n      dup3\n        /* \"#utility.yul\":3923:4070   */\n      tag_146\n      jump\t// in\n    tag_162:\n        /* \"#utility.yul\":3916:4070   */\n      swap2\n      pop\n        /* \"#utility.yul\":4087:4090   */\n      dup2\n        /* \"#utility.yul\":4080:4090   */\n      swap1\n      pop\n        /* \"#utility.yul\":3905:4096   */\n      swap2\n      swap1\n      pop\n      jump\t// out\n        /* \"#utility.yul\":4102:4324   */\n    tag_30:\n        /* \"#utility.yul\":4195:4199   */\n      0x00\n        /* \"#utility.yul\":4233:4235   */\n      0x20\n        /* \"#utility.yul\":4222:4231   */\n      dup3\n        /* \"#utility.yul\":4218:4236   */\n      add\n        /* \"#utility.yul\":4210:4236   */\n      swap1\n      pop\n        /* \"#utility.yul\":4246:4317   */\n      tag_164\n        /* \"#utility.yul\":4314:4315   */\n      0x00\n        /* \"#utility.yul\":4303:4312   */\n      dup4\n        /* \"#utility.yul\":4299:4316   */\n      add\n        /* \"#utility.yul\":4290:4296   */\n      dup5\n        /* \"#utility.yul\":4246:4317   */\n      tag_112\n      jump\t// in\n    tag_164:\n        /* \"#utility.yul\":4200:4324   */\n      swap3\n      swap2\n      pop\n      pop\n      jump\t// out\n        /* \"#utility.yul\":4330:4643   */\n    tag_21:\n        /* \"#utility.yul\":4443:4447   */\n      0x00\n        /* \"#utility.yul\":4481:4483   */\n      0x20\n        /* \"#utility.yul\":4470:4479   */\n      dup3\n        /* \"#utility.yul\":4466:4484   */\n      add\n        /* \"#utility.yul\":4458:4484   */\n      swap1\n      pop\n        /* \"#utility.yul\":4530:4539   */\n      dup2\n        /* \"#utility.yul\":4524:4528   */\n      dup2\n        /* \"#utility.yul\":4520:4540   */\n      sub\n        /* \"#utility.yul\":4516:4517   */\n      0x00\n        /* \"#utility.yul\":4505:4514   */\n      dup4\n        /* \"#utility.yul\":4501:4518   */\n      add\n        /* \"#utility.yul\":4494:4541   */\n      mstore\n        /* \"#utility.yul\":4558:4636   */\n      tag_166\n        /* \"#utility.yul\":4631:4635   */\n      dup2\n        /* \"#utility.yul\":4622:4628   */\n      dup5\n        /* \"#utility.yul\":4558:4636   */\n      tag_116\n      jump\t// in\n    tag_166:\n        /* \"#utility.yul\":4550:4636   */\n      swap1\n      pop\n        /* \"#utility.yul\":4448:4643   */\n      swap3\n      swap2\n      pop\n      pop\n      jump\t// out\n        /* \"#utility.yul\":4649:5068   */\n    tag_90:\n        /* \"#utility.yul\":4815:4819   */\n      0x00\n        /* \"#utility.yul\":4853:4855   */\n      0x20\n        /* \"#utility.yul\":4842:4851   */\n      dup3\n        /* \"#utility.yul\":4838:4856   */\n      add\n        /* \"#utility.yul\":4830:4856   */\n      swap1\n      pop\n        /* \"#utility.yul\":4902:4911   */\n      dup2\n        /* \"#utility.yul\":4896:4900   */\n      dup2\n        /* \"#utility.yul\":4892:4912   */\n      sub\n        /* \"#utility.yul\":4888:4889   */\n      0x00\n        /* \"#utility.yul\":4877:4886   */\n      dup4\n        /* \"#utility.yul\":4873:4890   */\n      add\n        /* \"#utility.yul\":4866:4913   */\n      mstore\n        /* \"#utility.yul\":4930:5061   */\n      tag_168\n        /* \"#utility.yul\":5056:5060   */\n      dup2\n        /* \"#utility.yul\":4930:5061   */\n      tag_126\n      jump\t// in\n    tag_168:\n        /* \"#utility.yul\":4922:5061   */\n      swap1\n      pop\n        /* \"#utility.yul\":4820:5068   */\n      swap2\n      swap1\n      pop\n      jump\t// out\n        /* \"#utility.yul\":5074:5493   */\n    tag_50:\n        /* \"#utility.yul\":5240:5244   */\n      0x00\n        /* \"#utility.yul\":5278:5280   */\n      0x20\n        /* \"#utility.yul\":5267:5276   */\n      dup3\n        /* \"#utility.yul\":5263:5281   */\n      add\n        /* \"#utility.yul\":5255:5281   */\n      swap1\n      pop\n        /* \"#utility.yul\":5327:5336   */\n      dup2\n        /* \"#utility.yul\":5321:5325   */\n      dup2\n        /* \"#utility.yul\":5317:5337   */\n      sub\n        /* \"#utility.yul\":5313:5314   */\n      0x00\n        /* \"#utility.yul\":5302:5311   */\n      dup4\n        /* \"#utility.yul\":5298:5315   */\n      add\n        /* \"#utility.yul\":5291:5338   */\n      mstore\n        /* \"#utility.yul\":5355:5486   */\n      tag_170\n        /* \"#utility.yul\":5481:5485   */\n      dup2\n        /* \"#utility.yul\":5355:5486   */\n      tag_131\n      jump\t// in\n    tag_170:\n        /* \"#utility.yul\":5347:5486   */\n      swap1\n      pop\n        /* \"#utility.yul\":5245:5493   */\n      swap2\n      swap1\n      pop\n      jump\t// out\n        /* \"#utility.yul\":5499:5918   */\n    tag_77:\n        /* \"#utility.yul\":5665:5669   */\n      0x00\n        /* \"#utility.yul\":5703:5705   */\n      0x20\n        /* \"#utility.yul\":5692:5701   */\n      dup3\n        /* \"#utility.yul\":5688:5706   */\n      add\n        /* \"#utility.yul\":5680:5706   */\n      swap1\n      pop\n        /* \"#utility.yul\":5752:5761   */\n      dup2\n        /* \"#utility.yul\":5746:5750   */\n      dup2\n        /* \"#utility.yul\":5742:5762   */\n      sub\n        /* \"#utility.yul\":5738:5739   */\n      0x00\n        /* \"#utility.yul\":5727:5736   */\n      dup4\n        /* \"#utility.yul\":5723:5740   */\n      add\n        /* \"#utility.yul\":5716:5763   */\n      mstore\n        /* \"#utility.yul\":5780:5911   */\n      tag_172\n        /* \"#utility.yul\":5906:5910   */\n      dup2\n        /* \"#utility.yul\":5780:5911   */\n      tag_136\n      jump\t// in\n    tag_172:\n        /* \"#utility.yul\":5772:5911   */\n      swap1\n      pop\n        /* \"#utility.yul\":5670:5918   */\n      swap2\n      swap1\n      pop\n      jump\t// out\n        /* \"#utility.yul\":5924:6343   */\n    tag_67:\n        /* \"#utility.yul\":6090:6094   */\n      0x00\n        /* \"#utility.yul\":6128:6130   */\n      0x20\n        /* \"#utility.yul\":6117:6126   */\n      dup3\n        /* \"#utility.yul\":6113:6131   */\n      add\n        /* \"#utility.yul\":6105:6131   */\n      swap1\n      pop\n        /* \"#utility.yul\":6177:6186   */\n      dup2\n        /* \"#utility.yul\":6171:6175   */\n      dup2\n        /* \"#utility.yul\":6167:6187   */\n      sub\n        /* \"#utility.yul\":6163:6164   */\n      0x00\n        /* \"#utility.yul\":6152:6161   */\n      dup4\n        /* \"#utility.yul\":6148:6165   */\n      add\n        /* \"#utility.yul\":6141:6188   */\n      mstore\n        /* \"#utility.yul\":6205:6336   */\n      tag_174\n        /* \"#utility.yul\":6331:6335   */\n      dup2\n        /* \"#utility.yul\":6205:6336   */\n      tag_141\n      jump\t// in\n    tag_174:\n        /* \"#utility.yul\":6197:6336   */\n      swap1\n      pop\n        /* \"#utility.yul\":6095:6343   */\n      swap2\n      swap1\n      pop\n      jump\t// out\n        /* \"#utility.yul\":6349:6768   */\n    tag_59:\n        /* \"#utility.yul\":6515:6519   */\n      0x00\n        /* \"#utility.yul\":6553:6555   */\n      0x20\n        /* \"#utility.yul\":6542:6551   */\n      dup3\n        /* \"#utility.yul\":6538:6556   */\n      add\n        /* \"#utility.yul\":6530:6556   */\n      swap1\n      pop\n        /* \"#utility.yul\":6602:6611   */\n      dup2\n        /* \"#utility.yul\":6596:6600   */\n      dup2\n        /* \"#utility.yul\":6592:6612   */\n      sub\n        /* \"#utility.yul\":6588:6589   */\n      0x00\n        /* \"#utility.yul\":6577:6586   */\n      dup4\n        /* \"#utility.yul\":6573:6590   */\n      add\n        /* \"#utility.yul\":6566:6613   */\n      mstore\n        /* \"#utility.yul\":6630:6761   */\n      tag_176\n        /* \"#utility.yul\":6756:6760   */\n      dup2\n        /* \"#utility.yul\":6630:6761   */\n      tag_152\n      jump\t// in\n    tag_176:\n        /* \"#utility.yul\":6622:6761   */\n      swap1\n      pop\n        /* \"#utility.yul\":6520:6768   */\n      swap2\n      swap1\n      pop\n      jump\t// out\n        /* \"#utility.yul\":6774:6996   */\n    tag_15:\n        /* \"#utility.yul\":6867:6871   */\n      0x00\n        /* \"#utility.yul\":6905:6907   */\n      0x20\n        /* \"#utility.yul\":6894:6903   */\n      dup3\n        /* \"#utility.yul\":6890:6908   */\n      add\n        /* \"#utility.yul\":6882:6908   */\n      swap1\n      pop\n        /* \"#utility.yul\":6918:6989   */\n      tag_178\n        /* \"#utility.yul\":6986:6987   */\n      0x00\n        /* \"#utility.yul\":6975:6984   */\n      dup4\n        /* \"#utility.yul\":6971:6988   */\n      add\n        /* \"#utility.yul\":6962:6968   */\n      dup5\n        /* \"#utility.yul\":6918:6989   */\n      tag_157\n      jump\t// in\n    tag_178:\n        /* \"#utility.yul\":6872:6996   */\n      swap3\n      swap2\n      pop\n      pop\n      jump\t// out\n        /* \"#utility.yul\":7002:7101   */\n    tag_119:\n        /* \"#utility.yul\":7054:7060   */\n      0x00\n        /* \"#utility.yul\":7088:7093   */\n      dup2\n        /* \"#utility.yul\":7082:7094   */\n      mload\n        /* \"#utility.yul\":7072:7094   */\n      swap1\n      pop\n        /* \"#utility.yul\":7061:7101   */\n      swap2\n      swap1\n      pop\n      jump\t// out\n        /* \"#utility.yul\":7107:7254   */\n    tag_149:\n        /* \"#utility.yul\":7208:7219   */\n      0x00\n        /* \"#utility.yul\":7245:7248   */\n      dup2\n        /* \"#utility.yul\":7230:7248   */\n      swap1\n      pop\n        /* \"#utility.yul\":7220:7254   */\n      swap3\n      swap2\n      pop\n      pop\n      jump\t// out\n        /* \"#utility.yul\":7260:7429   */\n    tag_121:\n        /* \"#utility.yul\":7344:7355   */\n      0x00\n        /* \"#utility.yul\":7378:7384   */\n      dup3\n        /* \"#utility.yul\":7373:7376   */\n      dup3\n        /* \"#utility.yul\":7366:7385   */\n      mstore\n        /* \"#utility.yul\":7418:7422   */\n      0x20\n        /* \"#utility.yul\":7413:7416   */\n      dup3\n        /* \"#utility.yul\":7409:7423   */\n      add\n        /* \"#utility.yul\":7394:7423   */\n      swap1\n      pop\n        /* \"#utility.yul\":7356:7429   */\n      swap3\n      swap2\n      pop\n      pop\n      jump\t// out\n        /* \"#utility.yul\":7435:7740   */\n    tag_79:\n        /* \"#utility.yul\":7475:7478   */\n      0x00\n        /* \"#utility.yul\":7494:7514   */\n      tag_183\n        /* \"#utility.yul\":7512:7513   */\n      dup3\n        /* \"#utility.yul\":7494:7514   */\n      tag_160\n      jump\t// in\n    tag_183:\n        /* \"#utility.yul\":7489:7514   */\n      swap2\n      pop\n        /* \"#utility.yul\":7528:7548   */\n      tag_184\n        /* \"#utility.yul\":7546:7547   */\n      dup4\n        /* \"#utility.yul\":7528:7548   */\n      tag_160\n      jump\t// in\n    tag_184:\n        /* \"#utility.yul\":7523:7548   */\n      swap3\n      pop\n        /* \"#utility.yul\":7682:7683   */\n      dup3\n        /* \"#utility.yul\":7614:7680   */\n      0xffffffffffffffffffffffffffffffffffffffffffffffffffffffffffffffff\n        /* \"#utility.yul\":7610:7684   */\n      sub\n        /* \"#utility.yul\":7607:7608   */\n      dup3\n        /* \"#utility.yul\":7604:7685   */\n      gt\n        /* \"#utility.yul\":7601:7603   */\n      iszero\n      tag_185\n      jumpi\n        /* \"#utility.yul\":7688:7706   */\n      tag_186\n      tag_187\n      jump\t// in\n    tag_186:\n        /* \"#utility.yul\":7601:7603   */\n    tag_185:\n        /* \"#utility.yul\":7732:7733   */\n      dup3\n        /* \"#utility.yul\":7729:7730   */\n      dup3\n        /* \"#utility.yul\":7725:7734   */\n      add\n        /* \"#utility.yul\":7718:7734   */\n      swap1\n      pop\n        /* \"#utility.yul\":7479:7740   */\n      swap3\n      swap2\n      pop\n      pop\n      jump\t// out\n        /* \"#utility.yul\":7746:7937   */\n    tag_62:\n        /* \"#utility.yul\":7786:7790   */\n      0x00\n        /* \"#utility.yul\":7806:7826   */\n      tag_189\n        /* \"#utility.yul\":7824:7825   */\n      dup3\n        /* \"#utility.yul\":7806:7826   */\n      tag_160\n      jump\t// in\n    tag_189:\n        /* \"#utility.yul\":7801:7826   */\n      swap2\n      pop\n        /* \"#utility.yul\":7840:7860   */\n      tag_190\n        /* \"#utility.yul\":7858:7859   */\n      dup4\n        /* \"#utility.yul\":7840:7860   */\n      tag_160\n      jump\t// in\n    tag_190:\n        /* \"#utility.yul\":7835:7860   */\n      swap3\n      pop\n        /* \"#utility.yul\":7879:7880   */\n      dup3\n        /* \"#utility.yul\":7876:7877   */\n      dup3\n        /* \"#utility.yul\":7873:7881   */\n      lt\n        /* \"#utility.yul\":7870:7872   */\n      iszero\n      tag_191\n      jumpi\n        /* \"#utility.yul\":7884:7902   */\n      tag_192\n      tag_187\n      jump\t// in\n    tag_192:\n        /* \"#utility.yul\":7870:7872   */\n    tag_191:\n        /* \"#utility.yul\":7929:7930   */\n      dup3\n        /* \"#utility.yul\":7926:7927   */\n      dup3\n        /* \"#utility.yul\":7922:7931   */\n      sub\n        /* \"#utility.yul\":7914:7931   */\n      swap1\n      pop\n        /* \"#utility.yul\":7791:7937   */\n      swap3\n      swap2\n      pop\n      pop\n      jump\t// out\n        /* \"#utility.yul\":7943:8039   */\n    tag_115:\n        /* \"#utility.yul\":7980:7987   */\n      0x00\n        /* \"#utility.yul\":8009:8033   */\n      tag_194\n        /* \"#utility.yul\":8027:8032   */\n      dup3\n        /* \"#utility.yul\":8009:8033   */\n      tag_195\n      jump\t// in\n    tag_194:\n        /* \"#utility.yul\":7998:8033   */\n      swap1\n      pop\n        /* \"#utility.yul\":7988:8039   */\n      swap2\n      swap1\n      pop\n      jump\t// out\n        /* \"#utility.yul\":8045:8171   */\n    tag_195:\n        /* \"#utility.yul\":8082:8089   */\n      0x00\n        /* \"#utility.yul\":8122:8164   */\n      0xffffffffffffffffffffffffffffffffffffffff\n        /* \"#utility.yul\":8115:8120   */\n      dup3\n        /* \"#utility.yul\":8111:8165   */\n      and\n        /* \"#utility.yul\":8100:8165   */\n      swap1\n      pop\n        /* \"#utility.yul\":8090:8171   */\n      swap2\n      swap1\n      pop\n      jump\t// out\n        /* \"#utility.yul\":8177:8254   */\n    tag_160:\n        /* \"#utility.yul\":8214:8221   */\n      0x00\n        /* \"#utility.yul\":8243:8248   */\n      dup2\n        /* \"#utility.yul\":8232:8248   */\n      swap1\n      pop\n        /* \"#utility.yul\":8222:8254   */\n      swap2\n      swap1\n      pop\n      jump\t// out\n        /* \"#utility.yul\":8260:8567   */\n    tag_123:\n        /* \"#utility.yul\":8328:8329   */\n      0x00\n        /* \"#utility.yul\":8338:8451   */\n    tag_199:\n        /* \"#utility.yul\":8352:8358   */\n      dup4\n        /* \"#utility.yul\":8349:8350   */\n      dup2\n        /* \"#utility.yul\":8346:8359   */\n      lt\n        /* \"#utility.yul\":8338:8451   */\n      iszero\n      tag_201\n      jumpi\n        /* \"#utility.yul\":8437:8438   */\n      dup1\n        /* \"#utility.yul\":8432:8435   */\n      dup3\n        /* \"#utility.yul\":8428:8439   */\n      add\n        /* \"#utility.yul\":8422:8440   */\n      mload\n        /* \"#utility.yul\":8418:8419   */\n      dup2\n        /* \"#utility.yul\":8413:8416   */\n      dup5\n        /* \"#utility.yul\":8409:8420   */\n      add\n        /* \"#utility.yul\":8402:8441   */\n      mstore\n        /* \"#utility.yul\":8374:8376   */\n      0x20\n        /* \"#utility.yul\":8371:8372   */\n      dup2\n        /* \"#utility.yul\":8367:8377   */\n      add\n        /* \"#utility.yul\":8362:8377   */\n      swap1\n      pop\n        /* \"#utility.yul\":8338:8451   */\n      jump(tag_199)\n    tag_201:\n        /* \"#utility.yul\":8469:8475   */\n      dup4\n        /* \"#utility.yul\":8466:8467   */\n      dup2\n        /* \"#utility.yul\":8463:8476   */\n      gt\n        /* \"#utility.yul\":8460:8462   */\n      iszero\n      tag_202\n      jumpi\n        /* \"#utility.yul\":8549:8550   */\n      0x00\n        /* \"#utility.yul\":8540:8546   */\n      dup5\n        /* \"#utility.yul\":8535:8538   */\n      dup5\n        /* \"#utility.yul\":8531:8547   */\n      add\n        /* \"#utility.yul\":8524:8551   */\n      mstore\n        /* \"#utility.yul\":8460:8462   */\n    tag_202:\n        /* \"#utility.yul\":8309:8567   */\n      pop\n      pop\n      pop\n      pop\n      jump\t// out\n        /* \"#utility.yul\":8573:8893   */\n    tag_92:\n        /* \"#utility.yul\":8617:8623   */\n      0x00\n        /* \"#utility.yul\":8654:8655   */\n      0x02\n        /* \"#utility.yul\":8648:8652   */\n      dup3\n        /* \"#utility.yul\":8644:8656   */\n      div\n        /* \"#utility.yul\":8634:8656   */\n      swap1\n      pop\n        /* \"#utility.yul\":8701:8702   */\n      0x01\n        /* \"#utility.yul\":8695:8699   */\n      dup3\n        /* \"#utility.yul\":8691:8703   */\n      and\n        /* \"#utility.yul\":8722:8740   */\n      dup1\n        /* \"#utility.yul\":8712:8714   */\n      tag_204\n      jumpi\n        /* \"#utility.yul\":8778:8782   */\n      0x7f\n        /* \"#utility.yul\":8770:8776   */\n      dup3\n        /* \"#utility.yul\":8766:8783   */\n      and\n        /* \"#utility.yul\":8756:8783   */\n      swap2\n      pop\n        /* \"#utility.yul\":8712:8714   */\n    tag_204:\n        /* \"#utility.yul\":8840:8842   */\n      0x20\n        /* \"#utility.yul\":8832:8838   */\n      dup3\n        /* \"#utility.yul\":8829:8843   */\n      lt\n        /* \"#utility.yul\":8809:8827   */\n      dup2\n        /* \"#utility.yul\":8806:8844   */\n      eq\n        /* \"#utility.yul\":8803:8805   */\n      iszero\n      tag_205\n      jumpi\n        /* \"#utility.yul\":8859:8877   */\n      tag_206\n      tag_207\n      jump\t// in\n    tag_206:\n        /* \"#utility.yul\":8803:8805   */\n    tag_205:\n        /* \"#utility.yul\":8624:8893   */\n      pop\n      swap2\n      swap1\n      pop\n      jump\t// out\n        /* \"#utility.yul\":8899:9079   */\n    tag_187:\n        /* \"#utility.yul\":8947:9024   */\n      0x4e487b7100000000000000000000000000000000000000000000000000000000\n        /* \"#utility.yul\":8944:8945   */\n      0x00\n        /* \"#utility.yul\":8937:9025   */\n      mstore\n        /* \"#utility.yul\":9044:9048   */\n      0x11\n        /* \"#utility.yul\":9041:9042   */\n      0x04\n        /* \"#utility.yul\":9034:9049   */\n      mstore\n        /* \"#utility.yul\":9068:9072   */\n      0x24\n        /* \"#utility.yul\":9065:9066   */\n      0x00\n        /* \"#utility.yul\":9058:9073   */\n      revert\n        /* \"#utility.yul\":9085:9265   */\n    tag_207:\n        /* \"#utility.yul\":9133:9210   */\n      0x4e487b7100000000000000000000000000000000000000000000000000000000\n        /* \"#utility.yul\":9130:9131   */\n      0x00\n        /* \"#utility.yul\":9123:9211   */\n      mstore\n        /* \"#utility.yul\":9230:9234   */\n      0x22\n        /* \"#utility.yul\":9227:9228   */\n      0x04\n        /* \"#utility.yul\":9220:9235   */\n      mstore\n        /* \"#utility.yul\":9254:9258   */\n      0x24\n        /* \"#utility.yul\":9251:9252   */\n      0x00\n        /* \"#utility.yul\":9244:9259   */\n      revert\n        /* \"#utility.yul\":9271:9373   */\n    tag_125:\n        /* \"#utility.yul\":9312:9318   */\n      0x00\n        /* \"#utility.yul\":9363:9365   */\n      0x1f\n        /* \"#utility.yul\":9359:9366   */\n      not\n        /* \"#utility.yul\":9354:9356   */\n      0x1f\n        /* \"#utility.yul\":9347:9352   */\n      dup4\n        /* \"#utility.yul\":9343:9357   */\n      add\n        /* \"#utility.yul\":9339:9367   */\n      and\n        /* \"#utility.yul\":9329:9367   */\n      swap1\n      pop\n        /* \"#utility.yul\":9319:9373   */\n      swap2\n      swap1\n      pop\n      jump\t// out\n        /* \"#utility.yul\":9379:9607   */\n    tag_130:\n        /* \"#utility.yul\":9519:9553   */\n      0x53692068617920666f6e646f73206e6f2070756564657320636f6e7365677569\n        /* \"#utility.yul\":9515:9516   */\n      0x00\n        /* \"#utility.yul\":9507:9513   */\n      dup3\n        /* \"#utility.yul\":9503:9517   */\n      add\n        /* \"#utility.yul\":9496:9554   */\n      mstore\n        /* \"#utility.yul\":9588:9599   */\n      0x72206c6120666c61670000000000000000000000000000000000000000000000\n        /* \"#utility.yul\":9583:9585   */\n      0x20\n        /* \"#utility.yul\":9575:9581   */\n      dup3\n        /* \"#utility.yul\":9571:9586   */\n      add\n        /* \"#utility.yul\":9564:9600   */\n      mstore\n        /* \"#utility.yul\":9485:9607   */\n      pop\n      jump\t// out\n        /* \"#utility.yul\":9613:9845   */\n    tag_135:\n        /* \"#utility.yul\":9753:9787   */\n      0x446562657320636f6d7072617220626f6c65746f2e204e6f207469656e657320\n        /* \"#utility.yul\":9749:9750   */\n      0x00\n        /* \"#utility.yul\":9741:9747   */\n      dup3\n        /* \"#utility.yul\":9737:9751   */\n      add\n        /* \"#utility.yul\":9730:9788   */\n      mstore\n        /* \"#utility.yul\":9822:9837   */\n      0x6f706f7274756e69646164657300000000000000000000000000000000000000\n        /* \"#utility.yul\":9817:9819   */\n      0x20\n        /* \"#utility.yul\":9809:9815   */\n      dup3\n        /* \"#utility.yul\":9805:9820   */\n      add\n        /* \"#utility.yul\":9798:9838   */\n      mstore\n        /* \"#utility.yul\":9719:9845   */\n      pop\n      jump\t// out\n        /* \"#utility.yul\":9851:10215   */\n    tag_140:\n        /* \"#utility.yul\":9991:10025   */\n      0x44656265732070616761722e203130303030303020776569203d3e2031206f70\n        /* \"#utility.yul\":9987:9988   */\n      0x00\n        /* \"#utility.yul\":9979:9985   */\n      dup3\n        /* \"#utility.yul\":9975:9989   */\n      add\n        /* \"#utility.yul\":9968:10026   */\n      mstore\n        /* \"#utility.yul\":10060:10094   */\n      0x6f7274756e696461642e203230303030303020776569203d3e2032206f706f72\n        /* \"#utility.yul\":10055:10057   */\n      0x20\n        /* \"#utility.yul\":10047:10053   */\n      dup3\n        /* \"#utility.yul\":10043:10058   */\n      add\n        /* \"#utility.yul\":10036:10095   */\n      mstore\n        /* \"#utility.yul\":10129:10163   */\n      0x74756e6964616465732e202b32303030303030207765692034206f706f727475\n        /* \"#utility.yul\":10124:10126   */\n      0x40\n        /* \"#utility.yul\":10116:10122   */\n      dup3\n        /* \"#utility.yul\":10112:10127   */\n      add\n        /* \"#utility.yul\":10105:10164   */\n      mstore\n        /* \"#utility.yul\":10198:10207   */\n      0x6e69646164657300000000000000000000000000000000000000000000000000\n        /* \"#utility.yul\":10193:10195   */\n      0x60\n        /* \"#utility.yul\":10185:10191   */\n      dup3\n        /* \"#utility.yul\":10181:10196   */\n      add\n        /* \"#utility.yul\":10174:10208   */\n      mstore\n        /* \"#utility.yul\":9957:10215   */\n      pop\n      jump\t// out\n        /* \"#utility.yul\":10221:10387   */\n    tag_145:\n        /* \"#utility.yul\":10361:10379   */\n      0x4e6f207469656e657320666f6e646f7300000000000000000000000000000000\n        /* \"#utility.yul\":10357:10358   */\n      0x00\n        /* \"#utility.yul\":10349:10355   */\n      dup3\n        /* \"#utility.yul\":10345:10359   */\n      add\n        /* \"#utility.yul\":10338:10380   */\n      mstore\n        /* \"#utility.yul\":10327:10387   */\n      pop\n      jump\t// out\n        /* \"#utility.yul\":10393:10507   */\n    tag_151:\n        /* \"#utility.yul\":10499:10507   */\n      pop\n      jump\t// out\n        /* \"#utility.yul\":10513:10687   */\n    tag_156:\n        /* \"#utility.yul\":10653:10679   */\n      0x46616c6c6f20616c20656e766961722063616e74696461640000000000000000\n        /* \"#utility.yul\":10649:10650   */\n      0x00\n        /* \"#utility.yul\":10641:10647   */\n      dup3\n        /* \"#utility.yul\":10637:10651   */\n      add\n        /* \"#utility.yul\":10630:10680   */\n      mstore\n        /* \"#utility.yul\":10619:10687   */\n      pop\n      jump\t// out\n        /* \"#utility.yul\":10693:10815   */\n    tag_101:\n        /* \"#utility.yul\":10766:10790   */\n      tag_218\n        /* \"#utility.yul\":10784:10789   */\n      dup2\n        /* \"#utility.yul\":10766:10790   */\n      tag_115\n      jump\t// in\n    tag_218:\n        /* \"#utility.yul\":10759:10764   */\n      dup2\n        /* \"#utility.yul\":10756:10791   */\n      eq\n        /* \"#utility.yul\":10746:10748   */\n      tag_219\n      jumpi\n        /* \"#utility.yul\":10805:10806   */\n      0x00\n        /* \"#utility.yul\":10802:10803   */\n      dup1\n        /* \"#utility.yul\":10795:10807   */\n      revert\n        /* \"#utility.yul\":10746:10748   */\n    tag_219:\n        /* \"#utility.yul\":10736:10815   */\n      pop\n      jump\t// out\n        /* \"#utility.yul\":10821:10943   */\n    tag_105:\n        /* \"#utility.yul\":10894:10918   */\n      tag_221\n        /* \"#utility.yul\":10912:10917   */\n      dup2\n        /* \"#utility.yul\":10894:10918   */\n      tag_160\n      jump\t// in\n    tag_221:\n        /* \"#utility.yul\":10887:10892   */\n      dup2\n        /* \"#utility.yul\":10884:10919   */\n      eq\n        /* \"#utility.yul\":10874:10876   */\n      tag_222\n      jumpi\n        /* \"#utility.yul\":10933:10934   */\n      0x00\n        /* \"#utility.yul\":10930:10931   */\n      dup1\n        /* \"#utility.yul\":10923:10935   */\n      revert\n        /* \"#utility.yul\":10874:10876   */\n    tag_222:\n        /* \"#utility.yul\":10864:10943   */\n      pop\n      jump\t// out\n    stop\n    data_1bac41487549561f9a7ccdf2f7808d4bc9d56f069b5b1b4a2eaba91970d2709d 4861732067616e61646f206c61206c6f74746572792e204554482070617261207265626f73617221\n    data_2c1c8ebfa2b2e1fd0867ed0383858c3e427d791e4fe196b7afe17737bcdbcd3a 4861732066616c6c61646f2e20486173207065726469646f20756e20696e74656e746f\n\n    auxdata: 0xa264697066735822122009ef0edcbe6cfd51c223d9a5f222defd303b1c86c7314b8aab80de47e913046f64736f6c63430008040033\n}\n",
				"bytecode": {
					"linkReferences": {},
					"object": "608060405260405162001321380380620013218339818101604052810190620000299190620001cb565b81600290805190602001906200004192919062000092565b508060038190555033600460006101000a81548173ffffffffffffffffffffffffffffffffffffffff021916908373ffffffffffffffffffffffffffffffffffffffff1602179055505050620003b9565b828054620000a090620002c4565b90600052602060002090601f016020900481019282620000c4576000855562000110565b82601f10620000df57805160ff191683800117855562000110565b8280016001018555821562000110579182015b828111156200010f578251825591602001919060010190620000f2565b5b5090506200011f919062000123565b5090565b5b808211156200013e57600081600090555060010162000124565b5090565b60006200015962000153846200024e565b62000225565b9050828152602081018484840111156200017257600080fd5b6200017f8482856200028e565b509392505050565b600082601f8301126200019957600080fd5b8151620001ab84826020860162000142565b91505092915050565b600081519050620001c5816200039f565b92915050565b60008060408385031215620001df57600080fd5b600083015167ffffffffffffffff811115620001fa57600080fd5b620002088582860162000187565b92505060206200021b85828601620001b4565b9150509250929050565b60006200023162000244565b90506200023f8282620002fa565b919050565b6000604051905090565b600067ffffffffffffffff8211156200026c576200026b6200035f565b5b62000277826200038e565b9050602081019050919050565b6000819050919050565b60005b83811015620002ae57808201518184015260208101905062000291565b83811115620002be576000848401525b50505050565b60006002820490506001821680620002dd57607f821691505b60208210811415620002f457620002f362000330565b5b50919050565b62000305826200038e565b810181811067ffffffffffffffff821117156200032757620003266200035f565b5b80604052505050565b7f4e487b7100000000000000000000000000000000000000000000000000000000600052602260045260246000fd5b7f4e487b7100000000000000000000000000000000000000000000000000000000600052604160045260246000fd5b6000601f19601f8301169050919050565b620003aa8162000284565b8114620003b657600080fd5b50565b610f5880620003c96000396000f3fe60806040526004361061007b5760003560e01c80638f68b1bd1161004e5780638f68b1bd14610131578063931c391014610148578063e2eb41ff14610152578063f96339301461018f5761007b565b806317fe4e491461008057806328a15928146100ab57806342b8c415146100db5780638da5cb5b14610106575b600080fd5b34801561008c57600080fd5b506100956101ba565b6040516100a29190610b3f565b60405180910390f35b6100c560048036038101906100c091906108fb565b610201565b6040516100d29190610a7d565b60405180910390f35b3480156100e757600080fd5b506100f06103d3565b6040516100fd9190610b3f565b60405180910390f35b34801561011257600080fd5b5061011b6103db565b6040516101289190610a62565b60405180910390f35b34801561013d57600080fd5b50610146610401565b005b6101506105f8565b005b34801561015e57600080fd5b50610179600480360381019061017491906108d2565b6107bb565b6040516101869190610b3f565b60405180910390f35b34801561019b57600080fd5b506101a46107d3565b6040516101b19190610a7d565b60405180910390f35b6000600160003373ffffffffffffffffffffffffffffffffffffffff1673ffffffffffffffffffffffffffffffffffffffff16815260200190815260200160002054905090565b60606000600160003373ffffffffffffffffffffffffffffffffffffffff1673ffffffffffffffffffffffffffffffffffffffff1681526020019081526020016000205411610285576040517f08c379a000000000000000000000000000000000000000000000000000000000815260040161027c90610abf565b60405180910390fd5b60035482141561035c5760003373ffffffffffffffffffffffffffffffffffffffff16476040516102b590610a4d565b60006040518083038185875af1925050503d80600081146102f2576040519150601f19603f3d011682016040523d82523d6000602084013e6102f7565b606091505b505090508061033b576040517f08c379a000000000000000000000000000000000000000000000000000000000815260040161033290610b1f565b60405180910390fd5b604051806060016040528060288152602001610ed8602891399150506103ce565b60018060003373ffffffffffffffffffffffffffffffffffffffff1673ffffffffffffffffffffffffffffffffffffffff16815260200190815260200160002060008282546103ab9190610bd7565b92505081905550604051806060016040528060238152602001610f006023913990505b919050565b600047905090565b600460009054906101000a900473ffffffffffffffffffffffffffffffffffffffff1681565b60008060003373ffffffffffffffffffffffffffffffffffffffff1673ffffffffffffffffffffffffffffffffffffffff1681526020019081526020016000205411610482576040517f08c379a000000000000000000000000000000000000000000000000000000000815260040161047990610aff565b60405180910390fd5b60003373ffffffffffffffffffffffffffffffffffffffff166000803373ffffffffffffffffffffffffffffffffffffffff1673ffffffffffffffffffffffffffffffffffffffff168152602001908152602001600020546040516104e690610a4d565b60006040518083038185875af1925050503d8060008114610523576040519150601f19603f3d011682016040523d82523d6000602084013e610528565b606091505b505090508061056c576040517f08c379a000000000000000000000000000000000000000000000000000000000815260040161056390610b1f565b60405180910390fd5b6000600160003373ffffffffffffffffffffffffffffffffffffffff1673ffffffffffffffffffffffffffffffffffffffff1681526020019081526020016000208190555060008060003373ffffffffffffffffffffffffffffffffffffffff1673ffffffffffffffffffffffffffffffffffffffff1681526020019081526020016000208190555050565b620f424034101561063e576040517f08c379a000000000000000000000000000000000000000000000000000000000815260040161063590610adf565b60405180910390fd5b346000803373ffffffffffffffffffffffffffffffffffffffff1673ffffffffffffffffffffffffffffffffffffffff168152602001908152602001600020600082825461068c9190610b81565b92505081905550621e84803410156106f95760018060003373ffffffffffffffffffffffffffffffffffffffff1673ffffffffffffffffffffffffffffffffffffffff16815260200190815260200160002060008282546106ed9190610b81565b925050819055506107b9565b621e8480341415610760576002600160003373ffffffffffffffffffffffffffffffffffffffff1673ffffffffffffffffffffffffffffffffffffffff16815260200190815260200160002060008282546107549190610b81565b925050819055506107b8565b6004600160003373ffffffffffffffffffffffffffffffffffffffff1673ffffffffffffffffffffffffffffffffffffffff16815260200190815260200160002060008282546107b09190610b81565b925050819055505b5b565b60006020528060005260406000206000915090505481565b606060004714610818576040517f08c379a000000000000000000000000000000000000000000000000000000000815260040161080f90610a9f565b60405180910390fd5b6002805461082590610c7a565b80601f016020809104026020016040519081016040528092919081815260200182805461085190610c7a565b801561089e5780601f106108735761010080835404028352916020019161089e565b820191906000526020600020905b81548152906001019060200180831161088157829003601f168201915b5050505050905090565b6000813590506108b781610ea9565b92915050565b6000813590506108cc81610ec0565b92915050565b6000602082840312156108e457600080fd5b60006108f2848285016108a8565b91505092915050565b60006020828403121561090d57600080fd5b600061091b848285016108bd565b91505092915050565b61092d81610c0b565b82525050565b600061093e82610b5a565b6109488185610b70565b9350610958818560208601610c47565b61096181610d0a565b840191505092915050565b6000610979602983610b70565b915061098482610d1b565b604082019050919050565b600061099c602d83610b70565b91506109a782610d6a565b604082019050919050565b60006109bf606783610b70565b91506109ca82610db9565b608082019050919050565b60006109e2601083610b70565b91506109ed82610e54565b602082019050919050565b6000610a05600083610b65565b9150610a1082610e7d565b600082019050919050565b6000610a28601883610b70565b9150610a3382610e80565b602082019050919050565b610a4781610c3d565b82525050565b6000610a58826109f8565b9150819050919050565b6000602082019050610a776000830184610924565b92915050565b60006020820190508181036000830152610a978184610933565b905092915050565b60006020820190508181036000830152610ab88161096c565b9050919050565b60006020820190508181036000830152610ad88161098f565b9050919050565b60006020820190508181036000830152610af8816109b2565b9050919050565b60006020820190508181036000830152610b18816109d5565b9050919050565b60006020820190508181036000830152610b3881610a1b565b9050919050565b6000602082019050610b546000830184610a3e565b92915050565b600081519050919050565b600081905092915050565b600082825260208201905092915050565b6000610b8c82610c3d565b9150610b9783610c3d565b9250827fffffffffffffffffffffffffffffffffffffffffffffffffffffffffffffffff03821115610bcc57610bcb610cac565b5b828201905092915050565b6000610be282610c3d565b9150610bed83610c3d565b925082821015610c0057610bff610cac565b5b828203905092915050565b6000610c1682610c1d565b9050919050565b600073ffffffffffffffffffffffffffffffffffffffff82169050919050565b6000819050919050565b60005b83811015610c65578082015181840152602081019050610c4a565b83811115610c74576000848401525b50505050565b60006002820490506001821680610c9257607f821691505b60208210811415610ca657610ca5610cdb565b5b50919050565b7f4e487b7100000000000000000000000000000000000000000000000000000000600052601160045260246000fd5b7f4e487b7100000000000000000000000000000000000000000000000000000000600052602260045260246000fd5b6000601f19601f8301169050919050565b7f53692068617920666f6e646f73206e6f2070756564657320636f6e736567756960008201527f72206c6120666c61670000000000000000000000000000000000000000000000602082015250565b7f446562657320636f6d7072617220626f6c65746f2e204e6f207469656e65732060008201527f6f706f7274756e69646164657300000000000000000000000000000000000000602082015250565b7f44656265732070616761722e203130303030303020776569203d3e2031206f7060008201527f6f7274756e696461642e203230303030303020776569203d3e2032206f706f7260208201527f74756e6964616465732e202b32303030303030207765692034206f706f72747560408201527f6e69646164657300000000000000000000000000000000000000000000000000606082015250565b7f4e6f207469656e657320666f6e646f7300000000000000000000000000000000600082015250565b50565b7f46616c6c6f20616c20656e766961722063616e74696461640000000000000000600082015250565b610eb281610c0b565b8114610ebd57600080fd5b50565b610ec981610c3d565b8114610ed457600080fd5b5056fe4861732067616e61646f206c61206c6f74746572792e204554482070617261207265626f736172214861732066616c6c61646f2e20486173207065726469646f20756e20696e74656e746fa264697066735822122009ef0edcbe6cfd51c223d9a5f222defd303b1c86c7314b8aab80de47e913046f64736f6c63430008040033",
					"opcodes": "PUSH1 0x80 PUSH1 0x40 MSTORE PUSH1 0x40 MLOAD PUSH3 0x1321 CODESIZE SUB DUP1 PUSH3 0x1321 DUP4 CODECOPY DUP2 DUP2 ADD PUSH1 0x40 MSTORE DUP2 ADD SWAP1 PUSH3 0x29 SWAP2 SWAP1 PUSH3 0x1CB JUMP JUMPDEST DUP2 PUSH1 0x2 SWAP1 DUP1 MLOAD SWAP1 PUSH1 0x20 ADD SWAP1 PUSH3 0x41 SWAP3 SWAP2 SWAP1 PUSH3 0x92 JUMP JUMPDEST POP DUP1 PUSH1 0x3 DUP2 SWAP1 SSTORE POP CALLER PUSH1 0x4 PUSH1 0x0 PUSH2 0x100 EXP DUP2 SLOAD DUP2 PUSH20 0xFFFFFFFFFFFFFFFFFFFFFFFFFFFFFFFFFFFFFFFF MUL NOT AND SWAP1 DUP4 PUSH20 0xFFFFFFFFFFFFFFFFFFFFFFFFFFFFFFFFFFFFFFFF AND MUL OR SWAP1 SSTORE POP POP POP PUSH3 0x3B9 JUMP JUMPDEST DUP3 DUP1 SLOAD PUSH3 0xA0 SWAP1 PUSH3 0x2C4 JUMP JUMPDEST SWAP1 PUSH1 0x0 MSTORE PUSH1 0x20 PUSH1 0x0 KECCAK256 SWAP1 PUSH1 0x1F ADD PUSH1 0x20 SWAP1 DIV DUP2 ADD SWAP3 DUP3 PUSH3 0xC4 JUMPI PUSH1 0x0 DUP6 SSTORE PUSH3 0x110 JUMP JUMPDEST DUP3 PUSH1 0x1F LT PUSH3 0xDF JUMPI DUP1 MLOAD PUSH1 0xFF NOT AND DUP4 DUP1 ADD OR DUP6 SSTORE PUSH3 0x110 JUMP JUMPDEST DUP3 DUP1 ADD PUSH1 0x1 ADD DUP6 SSTORE DUP3 ISZERO PUSH3 0x110 JUMPI SWAP2 DUP3 ADD JUMPDEST DUP3 DUP2 GT ISZERO PUSH3 0x10F JUMPI DUP3 MLOAD DUP3 SSTORE SWAP2 PUSH1 0x20 ADD SWAP2 SWAP1 PUSH1 0x1 ADD SWAP1 PUSH3 0xF2 JUMP JUMPDEST JUMPDEST POP SWAP1 POP PUSH3 0x11F SWAP2 SWAP1 PUSH3 0x123 JUMP JUMPDEST POP SWAP1 JUMP JUMPDEST JUMPDEST DUP1 DUP3 GT ISZERO PUSH3 0x13E JUMPI PUSH1 0x0 DUP2 PUSH1 0x0 SWAP1 SSTORE POP PUSH1 0x1 ADD PUSH3 0x124 JUMP JUMPDEST POP SWAP1 JUMP JUMPDEST PUSH1 0x0 PUSH3 0x159 PUSH3 0x153 DUP5 PUSH3 0x24E JUMP JUMPDEST PUSH3 0x225 JUMP JUMPDEST SWAP1 POP DUP3 DUP2 MSTORE PUSH1 0x20 DUP2 ADD DUP5 DUP5 DUP5 ADD GT ISZERO PUSH3 0x172 JUMPI PUSH1 0x0 DUP1 REVERT JUMPDEST PUSH3 0x17F DUP5 DUP3 DUP6 PUSH3 0x28E JUMP JUMPDEST POP SWAP4 SWAP3 POP POP POP JUMP JUMPDEST PUSH1 0x0 DUP3 PUSH1 0x1F DUP4 ADD SLT PUSH3 0x199 JUMPI PUSH1 0x0 DUP1 REVERT JUMPDEST DUP2 MLOAD PUSH3 0x1AB DUP5 DUP3 PUSH1 0x20 DUP7 ADD PUSH3 0x142 JUMP JUMPDEST SWAP2 POP POP SWAP3 SWAP2 POP POP JUMP JUMPDEST PUSH1 0x0 DUP2 MLOAD SWAP1 POP PUSH3 0x1C5 DUP2 PUSH3 0x39F JUMP JUMPDEST SWAP3 SWAP2 POP POP JUMP JUMPDEST PUSH1 0x0 DUP1 PUSH1 0x40 DUP4 DUP6 SUB SLT ISZERO PUSH3 0x1DF JUMPI PUSH1 0x0 DUP1 REVERT JUMPDEST PUSH1 0x0 DUP4 ADD MLOAD PUSH8 0xFFFFFFFFFFFFFFFF DUP2 GT ISZERO PUSH3 0x1FA JUMPI PUSH1 0x0 DUP1 REVERT JUMPDEST PUSH3 0x208 DUP6 DUP3 DUP7 ADD PUSH3 0x187 JUMP JUMPDEST SWAP3 POP POP PUSH1 0x20 PUSH3 0x21B DUP6 DUP3 DUP7 ADD PUSH3 0x1B4 JUMP JUMPDEST SWAP2 POP POP SWAP3 POP SWAP3 SWAP1 POP JUMP JUMPDEST PUSH1 0x0 PUSH3 0x231 PUSH3 0x244 JUMP JUMPDEST SWAP1 POP PUSH3 0x23F DUP3 DUP3 PUSH3 0x2FA JUMP JUMPDEST SWAP2 SWAP1 POP JUMP JUMPDEST PUSH1 0x0 PUSH1 0x40 MLOAD SWAP1 POP SWAP1 JUMP JUMPDEST PUSH1 0x0 PUSH8 0xFFFFFFFFFFFFFFFF DUP3 GT ISZERO PUSH3 0x26C JUMPI PUSH3 0x26B PUSH3 0x35F JUMP JUMPDEST JUMPDEST PUSH3 0x277 DUP3 PUSH3 0x38E JUMP JUMPDEST SWAP1 POP PUSH1 0x20 DUP2 ADD SWAP1 POP SWAP2 SWAP1 POP JUMP JUMPDEST PUSH1 0x0 DUP2 SWAP1 POP SWAP2 SWAP1 POP JUMP JUMPDEST PUSH1 0x0 JUMPDEST DUP4 DUP2 LT ISZERO PUSH3 0x2AE JUMPI DUP1 DUP3 ADD MLOAD DUP2 DUP5 ADD MSTORE PUSH1 0x20 DUP2 ADD SWAP1 POP PUSH3 0x291 JUMP JUMPDEST DUP4 DUP2 GT ISZERO PUSH3 0x2BE JUMPI PUSH1 0x0 DUP5 DUP5 ADD MSTORE JUMPDEST POP POP POP POP JUMP JUMPDEST PUSH1 0x0 PUSH1 0x2 DUP3 DIV SWAP1 POP PUSH1 0x1 DUP3 AND DUP1 PUSH3 0x2DD JUMPI PUSH1 0x7F DUP3 AND SWAP2 POP JUMPDEST PUSH1 0x20 DUP3 LT DUP2 EQ ISZERO PUSH3 0x2F4 JUMPI PUSH3 0x2F3 PUSH3 0x330 JUMP JUMPDEST JUMPDEST POP SWAP2 SWAP1 POP JUMP JUMPDEST PUSH3 0x305 DUP3 PUSH3 0x38E JUMP JUMPDEST DUP2 ADD DUP2 DUP2 LT PUSH8 0xFFFFFFFFFFFFFFFF DUP3 GT OR ISZERO PUSH3 0x327 JUMPI PUSH3 0x326 PUSH3 0x35F JUMP JUMPDEST JUMPDEST DUP1 PUSH1 0x40 MSTORE POP POP POP JUMP JUMPDEST PUSH32 0x4E487B7100000000000000000000000000000000000000000000000000000000 PUSH1 0x0 MSTORE PUSH1 0x22 PUSH1 0x4 MSTORE PUSH1 0x24 PUSH1 0x0 REVERT JUMPDEST PUSH32 0x4E487B7100000000000000000000000000000000000000000000000000000000 PUSH1 0x0 MSTORE PUSH1 0x41 PUSH1 0x4 MSTORE PUSH1 0x24 PUSH1 0x0 REVERT JUMPDEST PUSH1 0x0 PUSH1 0x1F NOT PUSH1 0x1F DUP4 ADD AND SWAP1 POP SWAP2 SWAP1 POP JUMP JUMPDEST PUSH3 0x3AA DUP2 PUSH3 0x284 JUMP JUMPDEST DUP2 EQ PUSH3 0x3B6 JUMPI PUSH1 0x0 DUP1 REVERT JUMPDEST POP JUMP JUMPDEST PUSH2 0xF58 DUP1 PUSH3 0x3C9 PUSH1 0x0 CODECOPY PUSH1 0x0 RETURN INVALID PUSH1 0x80 PUSH1 0x40 MSTORE PUSH1 0x4 CALLDATASIZE LT PUSH2 0x7B JUMPI PUSH1 0x0 CALLDATALOAD PUSH1 0xE0 SHR DUP1 PUSH4 0x8F68B1BD GT PUSH2 0x4E JUMPI DUP1 PUSH4 0x8F68B1BD EQ PUSH2 0x131 JUMPI DUP1 PUSH4 0x931C3910 EQ PUSH2 0x148 JUMPI DUP1 PUSH4 0xE2EB41FF EQ PUSH2 0x152 JUMPI DUP1 PUSH4 0xF9633930 EQ PUSH2 0x18F JUMPI PUSH2 0x7B JUMP JUMPDEST DUP1 PUSH4 0x17FE4E49 EQ PUSH2 0x80 JUMPI DUP1 PUSH4 0x28A15928 EQ PUSH2 0xAB JUMPI DUP1 PUSH4 0x42B8C415 EQ PUSH2 0xDB JUMPI DUP1 PUSH4 0x8DA5CB5B EQ PUSH2 0x106 JUMPI JUMPDEST PUSH1 0x0 DUP1 REVERT JUMPDEST CALLVALUE DUP1 ISZERO PUSH2 0x8C JUMPI PUSH1 0x0 DUP1 REVERT JUMPDEST POP PUSH2 0x95 PUSH2 0x1BA JUMP JUMPDEST PUSH1 0x40 MLOAD PUSH2 0xA2 SWAP2 SWAP1 PUSH2 0xB3F JUMP JUMPDEST PUSH1 0x40 MLOAD DUP1 SWAP2 SUB SWAP1 RETURN JUMPDEST PUSH2 0xC5 PUSH1 0x4 DUP1 CALLDATASIZE SUB DUP2 ADD SWAP1 PUSH2 0xC0 SWAP2 SWAP1 PUSH2 0x8FB JUMP JUMPDEST PUSH2 0x201 JUMP JUMPDEST PUSH1 0x40 MLOAD PUSH2 0xD2 SWAP2 SWAP1 PUSH2 0xA7D JUMP JUMPDEST PUSH1 0x40 MLOAD DUP1 SWAP2 SUB SWAP1 RETURN JUMPDEST CALLVALUE DUP1 ISZERO PUSH2 0xE7 JUMPI PUSH1 0x0 DUP1 REVERT JUMPDEST POP PUSH2 0xF0 PUSH2 0x3D3 JUMP JUMPDEST PUSH1 0x40 MLOAD PUSH2 0xFD SWAP2 SWAP1 PUSH2 0xB3F JUMP JUMPDEST PUSH1 0x40 MLOAD DUP1 SWAP2 SUB SWAP1 RETURN JUMPDEST CALLVALUE DUP1 ISZERO PUSH2 0x112 JUMPI PUSH1 0x0 DUP1 REVERT JUMPDEST POP PUSH2 0x11B PUSH2 0x3DB JUMP JUMPDEST PUSH1 0x40 MLOAD PUSH2 0x128 SWAP2 SWAP1 PUSH2 0xA62 JUMP JUMPDEST PUSH1 0x40 MLOAD DUP1 SWAP2 SUB SWAP1 RETURN JUMPDEST CALLVALUE DUP1 ISZERO PUSH2 0x13D JUMPI PUSH1 0x0 DUP1 REVERT JUMPDEST POP PUSH2 0x146 PUSH2 0x401 JUMP JUMPDEST STOP JUMPDEST PUSH2 0x150 PUSH2 0x5F8 JUMP JUMPDEST STOP JUMPDEST CALLVALUE DUP1 ISZERO PUSH2 0x15E JUMPI PUSH1 0x0 DUP1 REVERT JUMPDEST POP PUSH2 0x179 PUSH1 0x4 DUP1 CALLDATASIZE SUB DUP2 ADD SWAP1 PUSH2 0x174 SWAP2 SWAP1 PUSH2 0x8D2 JUMP JUMPDEST PUSH2 0x7BB JUMP JUMPDEST PUSH1 0x40 MLOAD PUSH2 0x186 SWAP2 SWAP1 PUSH2 0xB3F JUMP JUMPDEST PUSH1 0x40 MLOAD DUP1 SWAP2 SUB SWAP1 RETURN JUMPDEST CALLVALUE DUP1 ISZERO PUSH2 0x19B JUMPI PUSH1 0x0 DUP1 REVERT JUMPDEST POP PUSH2 0x1A4 PUSH2 0x7D3 JUMP JUMPDEST PUSH1 0x40 MLOAD PUSH2 0x1B1 SWAP2 SWAP1 PUSH2 0xA7D JUMP JUMPDEST PUSH1 0x40 MLOAD DUP1 SWAP2 SUB SWAP1 RETURN JUMPDEST PUSH1 0x0 PUSH1 0x1 PUSH1 0x0 CALLER PUSH20 0xFFFFFFFFFFFFFFFFFFFFFFFFFFFFFFFFFFFFFFFF AND PUSH20 0xFFFFFFFFFFFFFFFFFFFFFFFFFFFFFFFFFFFFFFFF AND DUP2 MSTORE PUSH1 0x20 ADD SWAP1 DUP2 MSTORE PUSH1 0x20 ADD PUSH1 0x0 KECCAK256 SLOAD SWAP1 POP SWAP1 JUMP JUMPDEST PUSH1 0x60 PUSH1 0x0 PUSH1 0x1 PUSH1 0x0 CALLER PUSH20 0xFFFFFFFFFFFFFFFFFFFFFFFFFFFFFFFFFFFFFFFF AND PUSH20 0xFFFFFFFFFFFFFFFFFFFFFFFFFFFFFFFFFFFFFFFF AND DUP2 MSTORE PUSH1 0x20 ADD SWAP1 DUP2 MSTORE PUSH1 0x20 ADD PUSH1 0x0 KECCAK256 SLOAD GT PUSH2 0x285 JUMPI PUSH1 0x40 MLOAD PUSH32 0x8C379A000000000000000000000000000000000000000000000000000000000 DUP2 MSTORE PUSH1 0x4 ADD PUSH2 0x27C SWAP1 PUSH2 0xABF JUMP JUMPDEST PUSH1 0x40 MLOAD DUP1 SWAP2 SUB SWAP1 REVERT JUMPDEST PUSH1 0x3 SLOAD DUP3 EQ ISZERO PUSH2 0x35C JUMPI PUSH1 0x0 CALLER PUSH20 0xFFFFFFFFFFFFFFFFFFFFFFFFFFFFFFFFFFFFFFFF AND SELFBALANCE PUSH1 0x40 MLOAD PUSH2 0x2B5 SWAP1 PUSH2 0xA4D JUMP JUMPDEST PUSH1 0x0 PUSH1 0x40 MLOAD DUP1 DUP4 SUB DUP2 DUP6 DUP8 GAS CALL SWAP3 POP POP POP RETURNDATASIZE DUP1 PUSH1 0x0 DUP2 EQ PUSH2 0x2F2 JUMPI PUSH1 0x40 MLOAD SWAP2 POP PUSH1 0x1F NOT PUSH1 0x3F RETURNDATASIZE ADD AND DUP3 ADD PUSH1 0x40 MSTORE RETURNDATASIZE DUP3 MSTORE RETURNDATASIZE PUSH1 0x0 PUSH1 0x20 DUP5 ADD RETURNDATACOPY PUSH2 0x2F7 JUMP JUMPDEST PUSH1 0x60 SWAP2 POP JUMPDEST POP POP SWAP1 POP DUP1 PUSH2 0x33B JUMPI PUSH1 0x40 MLOAD PUSH32 0x8C379A000000000000000000000000000000000000000000000000000000000 DUP2 MSTORE PUSH1 0x4 ADD PUSH2 0x332 SWAP1 PUSH2 0xB1F JUMP JUMPDEST PUSH1 0x40 MLOAD DUP1 SWAP2 SUB SWAP1 REVERT JUMPDEST PUSH1 0x40 MLOAD DUP1 PUSH1 0x60 ADD PUSH1 0x40 MSTORE DUP1 PUSH1 0x28 DUP2 MSTORE PUSH1 0x20 ADD PUSH2 0xED8 PUSH1 0x28 SWAP2 CODECOPY SWAP2 POP POP PUSH2 0x3CE JUMP JUMPDEST PUSH1 0x1 DUP1 PUSH1 0x0 CALLER PUSH20 0xFFFFFFFFFFFFFFFFFFFFFFFFFFFFFFFFFFFFFFFF AND PUSH20 0xFFFFFFFFFFFFFFFFFFFFFFFFFFFFFFFFFFFFFFFF AND DUP2 MSTORE PUSH1 0x20 ADD SWAP1 DUP2 MSTORE PUSH1 0x20 ADD PUSH1 0x0 KECCAK256 PUSH1 0x0 DUP3 DUP3 SLOAD PUSH2 0x3AB SWAP2 SWAP1 PUSH2 0xBD7 JUMP JUMPDEST SWAP3 POP POP DUP2 SWAP1 SSTORE POP PUSH1 0x40 MLOAD DUP1 PUSH1 0x60 ADD PUSH1 0x40 MSTORE DUP1 PUSH1 0x23 DUP2 MSTORE PUSH1 0x20 ADD PUSH2 0xF00 PUSH1 0x23 SWAP2 CODECOPY SWAP1 POP JUMPDEST SWAP2 SWAP1 POP JUMP JUMPDEST PUSH1 0x0 SELFBALANCE SWAP1 POP SWAP1 JUMP JUMPDEST PUSH1 0x4 PUSH1 0x0 SWAP1 SLOAD SWAP1 PUSH2 0x100 EXP SWAP1 DIV PUSH20 0xFFFFFFFFFFFFFFFFFFFFFFFFFFFFFFFFFFFFFFFF AND DUP2 JUMP JUMPDEST PUSH1 0x0 DUP1 PUSH1 0x0 CALLER PUSH20 0xFFFFFFFFFFFFFFFFFFFFFFFFFFFFFFFFFFFFFFFF AND PUSH20 0xFFFFFFFFFFFFFFFFFFFFFFFFFFFFFFFFFFFFFFFF AND DUP2 MSTORE PUSH1 0x20 ADD SWAP1 DUP2 MSTORE PUSH1 0x20 ADD PUSH1 0x0 KECCAK256 SLOAD GT PUSH2 0x482 JUMPI PUSH1 0x40 MLOAD PUSH32 0x8C379A000000000000000000000000000000000000000000000000000000000 DUP2 MSTORE PUSH1 0x4 ADD PUSH2 0x479 SWAP1 PUSH2 0xAFF JUMP JUMPDEST PUSH1 0x40 MLOAD DUP1 SWAP2 SUB SWAP1 REVERT JUMPDEST PUSH1 0x0 CALLER PUSH20 0xFFFFFFFFFFFFFFFFFFFFFFFFFFFFFFFFFFFFFFFF AND PUSH1 0x0 DUP1 CALLER PUSH20 0xFFFFFFFFFFFFFFFFFFFFFFFFFFFFFFFFFFFFFFFF AND PUSH20 0xFFFFFFFFFFFFFFFFFFFFFFFFFFFFFFFFFFFFFFFF AND DUP2 MSTORE PUSH1 0x20 ADD SWAP1 DUP2 MSTORE PUSH1 0x20 ADD PUSH1 0x0 KECCAK256 SLOAD PUSH1 0x40 MLOAD PUSH2 0x4E6 SWAP1 PUSH2 0xA4D JUMP JUMPDEST PUSH1 0x0 PUSH1 0x40 MLOAD DUP1 DUP4 SUB DUP2 DUP6 DUP8 GAS CALL SWAP3 POP POP POP RETURNDATASIZE DUP1 PUSH1 0x0 DUP2 EQ PUSH2 0x523 JUMPI PUSH1 0x40 MLOAD SWAP2 POP PUSH1 0x1F NOT PUSH1 0x3F RETURNDATASIZE ADD AND DUP3 ADD PUSH1 0x40 MSTORE RETURNDATASIZE DUP3 MSTORE RETURNDATASIZE PUSH1 0x0 PUSH1 0x20 DUP5 ADD RETURNDATACOPY PUSH2 0x528 JUMP JUMPDEST PUSH1 0x60 SWAP2 POP JUMPDEST POP POP SWAP1 POP DUP1 PUSH2 0x56C JUMPI PUSH1 0x40 MLOAD PUSH32 0x8C379A000000000000000000000000000000000000000000000000000000000 DUP2 MSTORE PUSH1 0x4 ADD PUSH2 0x563 SWAP1 PUSH2 0xB1F JUMP JUMPDEST PUSH1 0x40 MLOAD DUP1 SWAP2 SUB SWAP1 REVERT JUMPDEST PUSH1 0x0 PUSH1 0x1 PUSH1 0x0 CALLER PUSH20 0xFFFFFFFFFFFFFFFFFFFFFFFFFFFFFFFFFFFFFFFF AND PUSH20 0xFFFFFFFFFFFFFFFFFFFFFFFFFFFFFFFFFFFFFFFF AND DUP2 MSTORE PUSH1 0x20 ADD SWAP1 DUP2 MSTORE PUSH1 0x20 ADD PUSH1 0x0 KECCAK256 DUP2 SWAP1 SSTORE POP PUSH1 0x0 DUP1 PUSH1 0x0 CALLER PUSH20 0xFFFFFFFFFFFFFFFFFFFFFFFFFFFFFFFFFFFFFFFF AND PUSH20 0xFFFFFFFFFFFFFFFFFFFFFFFFFFFFFFFFFFFFFFFF AND DUP2 MSTORE PUSH1 0x20 ADD SWAP1 DUP2 MSTORE PUSH1 0x20 ADD PUSH1 0x0 KECCAK256 DUP2 SWAP1 SSTORE POP POP JUMP JUMPDEST PUSH3 0xF4240 CALLVALUE LT ISZERO PUSH2 0x63E JUMPI PUSH1 0x40 MLOAD PUSH32 0x8C379A000000000000000000000000000000000000000000000000000000000 DUP2 MSTORE PUSH1 0x4 ADD PUSH2 0x635 SWAP1 PUSH2 0xADF JUMP JUMPDEST PUSH1 0x40 MLOAD DUP1 SWAP2 SUB SWAP1 REVERT JUMPDEST CALLVALUE PUSH1 0x0 DUP1 CALLER PUSH20 0xFFFFFFFFFFFFFFFFFFFFFFFFFFFFFFFFFFFFFFFF AND PUSH20 0xFFFFFFFFFFFFFFFFFFFFFFFFFFFFFFFFFFFFFFFF AND DUP2 MSTORE PUSH1 0x20 ADD SWAP1 DUP2 MSTORE PUSH1 0x20 ADD PUSH1 0x0 KECCAK256 PUSH1 0x0 DUP3 DUP3 SLOAD PUSH2 0x68C SWAP2 SWAP1 PUSH2 0xB81 JUMP JUMPDEST SWAP3 POP POP DUP2 SWAP1 SSTORE POP PUSH3 0x1E8480 CALLVALUE LT ISZERO PUSH2 0x6F9 JUMPI PUSH1 0x1 DUP1 PUSH1 0x0 CALLER PUSH20 0xFFFFFFFFFFFFFFFFFFFFFFFFFFFFFFFFFFFFFFFF AND PUSH20 0xFFFFFFFFFFFFFFFFFFFFFFFFFFFFFFFFFFFFFFFF AND DUP2 MSTORE PUSH1 0x20 ADD SWAP1 DUP2 MSTORE PUSH1 0x20 ADD PUSH1 0x0 KECCAK256 PUSH1 0x0 DUP3 DUP3 SLOAD PUSH2 0x6ED SWAP2 SWAP1 PUSH2 0xB81 JUMP JUMPDEST SWAP3 POP POP DUP2 SWAP1 SSTORE POP PUSH2 0x7B9 JUMP JUMPDEST PUSH3 0x1E8480 CALLVALUE EQ ISZERO PUSH2 0x760 JUMPI PUSH1 0x2 PUSH1 0x1 PUSH1 0x0 CALLER PUSH20 0xFFFFFFFFFFFFFFFFFFFFFFFFFFFFFFFFFFFFFFFF AND PUSH20 0xFFFFFFFFFFFFFFFFFFFFFFFFFFFFFFFFFFFFFFFF AND DUP2 MSTORE PUSH1 0x20 ADD SWAP1 DUP2 MSTORE PUSH1 0x20 ADD PUSH1 0x0 KECCAK256 PUSH1 0x0 DUP3 DUP3 SLOAD PUSH2 0x754 SWAP2 SWAP1 PUSH2 0xB81 JUMP JUMPDEST SWAP3 POP POP DUP2 SWAP1 SSTORE POP PUSH2 0x7B8 JUMP JUMPDEST PUSH1 0x4 PUSH1 0x1 PUSH1 0x0 CALLER PUSH20 0xFFFFFFFFFFFFFFFFFFFFFFFFFFFFFFFFFFFFFFFF AND PUSH20 0xFFFFFFFFFFFFFFFFFFFFFFFFFFFFFFFFFFFFFFFF AND DUP2 MSTORE PUSH1 0x20 ADD SWAP1 DUP2 MSTORE PUSH1 0x20 ADD PUSH1 0x0 KECCAK256 PUSH1 0x0 DUP3 DUP3 SLOAD PUSH2 0x7B0 SWAP2 SWAP1 PUSH2 0xB81 JUMP JUMPDEST SWAP3 POP POP DUP2 SWAP1 SSTORE POP JUMPDEST JUMPDEST JUMP JUMPDEST PUSH1 0x0 PUSH1 0x20 MSTORE DUP1 PUSH1 0x0 MSTORE PUSH1 0x40 PUSH1 0x0 KECCAK256 PUSH1 0x0 SWAP2 POP SWAP1 POP SLOAD DUP2 JUMP JUMPDEST PUSH1 0x60 PUSH1 0x0 SELFBALANCE EQ PUSH2 0x818 JUMPI PUSH1 0x40 MLOAD PUSH32 0x8C379A000000000000000000000000000000000000000000000000000000000 DUP2 MSTORE PUSH1 0x4 ADD PUSH2 0x80F SWAP1 PUSH2 0xA9F JUMP JUMPDEST PUSH1 0x40 MLOAD DUP1 SWAP2 SUB SWAP1 REVERT JUMPDEST PUSH1 0x2 DUP1 SLOAD PUSH2 0x825 SWAP1 PUSH2 0xC7A JUMP JUMPDEST DUP1 PUSH1 0x1F ADD PUSH1 0x20 DUP1 SWAP2 DIV MUL PUSH1 0x20 ADD PUSH1 0x40 MLOAD SWAP1 DUP2 ADD PUSH1 0x40 MSTORE DUP1 SWAP3 SWAP2 SWAP1 DUP2 DUP2 MSTORE PUSH1 0x20 ADD DUP3 DUP1 SLOAD PUSH2 0x851 SWAP1 PUSH2 0xC7A JUMP JUMPDEST DUP1 ISZERO PUSH2 0x89E JUMPI DUP1 PUSH1 0x1F LT PUSH2 0x873 JUMPI PUSH2 0x100 DUP1 DUP4 SLOAD DIV MUL DUP4 MSTORE SWAP2 PUSH1 0x20 ADD SWAP2 PUSH2 0x89E JUMP JUMPDEST DUP3 ADD SWAP2 SWAP1 PUSH1 0x0 MSTORE PUSH1 0x20 PUSH1 0x0 KECCAK256 SWAP1 JUMPDEST DUP2 SLOAD DUP2 MSTORE SWAP1 PUSH1 0x1 ADD SWAP1 PUSH1 0x20 ADD DUP1 DUP4 GT PUSH2 0x881 JUMPI DUP3 SWAP1 SUB PUSH1 0x1F AND DUP3 ADD SWAP2 JUMPDEST POP POP POP POP POP SWAP1 POP SWAP1 JUMP JUMPDEST PUSH1 0x0 DUP2 CALLDATALOAD SWAP1 POP PUSH2 0x8B7 DUP2 PUSH2 0xEA9 JUMP JUMPDEST SWAP3 SWAP2 POP POP JUMP JUMPDEST PUSH1 0x0 DUP2 CALLDATALOAD SWAP1 POP PUSH2 0x8CC DUP2 PUSH2 0xEC0 JUMP JUMPDEST SWAP3 SWAP2 POP POP JUMP JUMPDEST PUSH1 0x0 PUSH1 0x20 DUP3 DUP5 SUB SLT ISZERO PUSH2 0x8E4 JUMPI PUSH1 0x0 DUP1 REVERT JUMPDEST PUSH1 0x0 PUSH2 0x8F2 DUP5 DUP3 DUP6 ADD PUSH2 0x8A8 JUMP JUMPDEST SWAP2 POP POP SWAP3 SWAP2 POP POP JUMP JUMPDEST PUSH1 0x0 PUSH1 0x20 DUP3 DUP5 SUB SLT ISZERO PUSH2 0x90D JUMPI PUSH1 0x0 DUP1 REVERT JUMPDEST PUSH1 0x0 PUSH2 0x91B DUP5 DUP3 DUP6 ADD PUSH2 0x8BD JUMP JUMPDEST SWAP2 POP POP SWAP3 SWAP2 POP POP JUMP JUMPDEST PUSH2 0x92D DUP2 PUSH2 0xC0B JUMP JUMPDEST DUP3 MSTORE POP POP JUMP JUMPDEST PUSH1 0x0 PUSH2 0x93E DUP3 PUSH2 0xB5A JUMP JUMPDEST PUSH2 0x948 DUP2 DUP6 PUSH2 0xB70 JUMP JUMPDEST SWAP4 POP PUSH2 0x958 DUP2 DUP6 PUSH1 0x20 DUP7 ADD PUSH2 0xC47 JUMP JUMPDEST PUSH2 0x961 DUP2 PUSH2 0xD0A JUMP JUMPDEST DUP5 ADD SWAP2 POP POP SWAP3 SWAP2 POP POP JUMP JUMPDEST PUSH1 0x0 PUSH2 0x979 PUSH1 0x29 DUP4 PUSH2 0xB70 JUMP JUMPDEST SWAP2 POP PUSH2 0x984 DUP3 PUSH2 0xD1B JUMP JUMPDEST PUSH1 0x40 DUP3 ADD SWAP1 POP SWAP2 SWAP1 POP JUMP JUMPDEST PUSH1 0x0 PUSH2 0x99C PUSH1 0x2D DUP4 PUSH2 0xB70 JUMP JUMPDEST SWAP2 POP PUSH2 0x9A7 DUP3 PUSH2 0xD6A JUMP JUMPDEST PUSH1 0x40 DUP3 ADD SWAP1 POP SWAP2 SWAP1 POP JUMP JUMPDEST PUSH1 0x0 PUSH2 0x9BF PUSH1 0x67 DUP4 PUSH2 0xB70 JUMP JUMPDEST SWAP2 POP PUSH2 0x9CA DUP3 PUSH2 0xDB9 JUMP JUMPDEST PUSH1 0x80 DUP3 ADD SWAP1 POP SWAP2 SWAP1 POP JUMP JUMPDEST PUSH1 0x0 PUSH2 0x9E2 PUSH1 0x10 DUP4 PUSH2 0xB70 JUMP JUMPDEST SWAP2 POP PUSH2 0x9ED DUP3 PUSH2 0xE54 JUMP JUMPDEST PUSH1 0x20 DUP3 ADD SWAP1 POP SWAP2 SWAP1 POP JUMP JUMPDEST PUSH1 0x0 PUSH2 0xA05 PUSH1 0x0 DUP4 PUSH2 0xB65 JUMP JUMPDEST SWAP2 POP PUSH2 0xA10 DUP3 PUSH2 0xE7D JUMP JUMPDEST PUSH1 0x0 DUP3 ADD SWAP1 POP SWAP2 SWAP1 POP JUMP JUMPDEST PUSH1 0x0 PUSH2 0xA28 PUSH1 0x18 DUP4 PUSH2 0xB70 JUMP JUMPDEST SWAP2 POP PUSH2 0xA33 DUP3 PUSH2 0xE80 JUMP JUMPDEST PUSH1 0x20 DUP3 ADD SWAP1 POP SWAP2 SWAP1 POP JUMP JUMPDEST PUSH2 0xA47 DUP2 PUSH2 0xC3D JUMP JUMPDEST DUP3 MSTORE POP POP JUMP JUMPDEST PUSH1 0x0 PUSH2 0xA58 DUP3 PUSH2 0x9F8 JUMP JUMPDEST SWAP2 POP DUP2 SWAP1 POP SWAP2 SWAP1 POP JUMP JUMPDEST PUSH1 0x0 PUSH1 0x20 DUP3 ADD SWAP1 POP PUSH2 0xA77 PUSH1 0x0 DUP4 ADD DUP5 PUSH2 0x924 JUMP JUMPDEST SWAP3 SWAP2 POP POP JUMP JUMPDEST PUSH1 0x0 PUSH1 0x20 DUP3 ADD SWAP1 POP DUP2 DUP2 SUB PUSH1 0x0 DUP4 ADD MSTORE PUSH2 0xA97 DUP2 DUP5 PUSH2 0x933 JUMP JUMPDEST SWAP1 POP SWAP3 SWAP2 POP POP JUMP JUMPDEST PUSH1 0x0 PUSH1 0x20 DUP3 ADD SWAP1 POP DUP2 DUP2 SUB PUSH1 0x0 DUP4 ADD MSTORE PUSH2 0xAB8 DUP2 PUSH2 0x96C JUMP JUMPDEST SWAP1 POP SWAP2 SWAP1 POP JUMP JUMPDEST PUSH1 0x0 PUSH1 0x20 DUP3 ADD SWAP1 POP DUP2 DUP2 SUB PUSH1 0x0 DUP4 ADD MSTORE PUSH2 0xAD8 DUP2 PUSH2 0x98F JUMP JUMPDEST SWAP1 POP SWAP2 SWAP1 POP JUMP JUMPDEST PUSH1 0x0 PUSH1 0x20 DUP3 ADD SWAP1 POP DUP2 DUP2 SUB PUSH1 0x0 DUP4 ADD MSTORE PUSH2 0xAF8 DUP2 PUSH2 0x9B2 JUMP JUMPDEST SWAP1 POP SWAP2 SWAP1 POP JUMP JUMPDEST PUSH1 0x0 PUSH1 0x20 DUP3 ADD SWAP1 POP DUP2 DUP2 SUB PUSH1 0x0 DUP4 ADD MSTORE PUSH2 0xB18 DUP2 PUSH2 0x9D5 JUMP JUMPDEST SWAP1 POP SWAP2 SWAP1 POP JUMP JUMPDEST PUSH1 0x0 PUSH1 0x20 DUP3 ADD SWAP1 POP DUP2 DUP2 SUB PUSH1 0x0 DUP4 ADD MSTORE PUSH2 0xB38 DUP2 PUSH2 0xA1B JUMP JUMPDEST SWAP1 POP SWAP2 SWAP1 POP JUMP JUMPDEST PUSH1 0x0 PUSH1 0x20 DUP3 ADD SWAP1 POP PUSH2 0xB54 PUSH1 0x0 DUP4 ADD DUP5 PUSH2 0xA3E JUMP JUMPDEST SWAP3 SWAP2 POP POP JUMP JUMPDEST PUSH1 0x0 DUP2 MLOAD SWAP1 POP SWAP2 SWAP1 POP JUMP JUMPDEST PUSH1 0x0 DUP2 SWAP1 POP SWAP3 SWAP2 POP POP JUMP JUMPDEST PUSH1 0x0 DUP3 DUP3 MSTORE PUSH1 0x20 DUP3 ADD SWAP1 POP SWAP3 SWAP2 POP POP JUMP JUMPDEST PUSH1 0x0 PUSH2 0xB8C DUP3 PUSH2 0xC3D JUMP JUMPDEST SWAP2 POP PUSH2 0xB97 DUP4 PUSH2 0xC3D JUMP JUMPDEST SWAP3 POP DUP3 PUSH32 0xFFFFFFFFFFFFFFFFFFFFFFFFFFFFFFFFFFFFFFFFFFFFFFFFFFFFFFFFFFFFFFFF SUB DUP3 GT ISZERO PUSH2 0xBCC JUMPI PUSH2 0xBCB PUSH2 0xCAC JUMP JUMPDEST JUMPDEST DUP3 DUP3 ADD SWAP1 POP SWAP3 SWAP2 POP POP JUMP JUMPDEST PUSH1 0x0 PUSH2 0xBE2 DUP3 PUSH2 0xC3D JUMP JUMPDEST SWAP2 POP PUSH2 0xBED DUP4 PUSH2 0xC3D JUMP JUMPDEST SWAP3 POP DUP3 DUP3 LT ISZERO PUSH2 0xC00 JUMPI PUSH2 0xBFF PUSH2 0xCAC JUMP JUMPDEST JUMPDEST DUP3 DUP3 SUB SWAP1 POP SWAP3 SWAP2 POP POP JUMP JUMPDEST PUSH1 0x0 PUSH2 0xC16 DUP3 PUSH2 0xC1D JUMP JUMPDEST SWAP1 POP SWAP2 SWAP1 POP JUMP JUMPDEST PUSH1 0x0 PUSH20 0xFFFFFFFFFFFFFFFFFFFFFFFFFFFFFFFFFFFFFFFF DUP3 AND SWAP1 POP SWAP2 SWAP1 POP JUMP JUMPDEST PUSH1 0x0 DUP2 SWAP1 POP SWAP2 SWAP1 POP JUMP JUMPDEST PUSH1 0x0 JUMPDEST DUP4 DUP2 LT ISZERO PUSH2 0xC65 JUMPI DUP1 DUP3 ADD MLOAD DUP2 DUP5 ADD MSTORE PUSH1 0x20 DUP2 ADD SWAP1 POP PUSH2 0xC4A JUMP JUMPDEST DUP4 DUP2 GT ISZERO PUSH2 0xC74 JUMPI PUSH1 0x0 DUP5 DUP5 ADD MSTORE JUMPDEST POP POP POP POP JUMP JUMPDEST PUSH1 0x0 PUSH1 0x2 DUP3 DIV SWAP1 POP PUSH1 0x1 DUP3 AND DUP1 PUSH2 0xC92 JUMPI PUSH1 0x7F DUP3 AND SWAP2 POP JUMPDEST PUSH1 0x20 DUP3 LT DUP2 EQ ISZERO PUSH2 0xCA6 JUMPI PUSH2 0xCA5 PUSH2 0xCDB JUMP JUMPDEST JUMPDEST POP SWAP2 SWAP1 POP JUMP JUMPDEST PUSH32 0x4E487B7100000000000000000000000000000000000000000000000000000000 PUSH1 0x0 MSTORE PUSH1 0x11 PUSH1 0x4 MSTORE PUSH1 0x24 PUSH1 0x0 REVERT JUMPDEST PUSH32 0x4E487B7100000000000000000000000000000000000000000000000000000000 PUSH1 0x0 MSTORE PUSH1 0x22 PUSH1 0x4 MSTORE PUSH1 0x24 PUSH1 0x0 REVERT JUMPDEST PUSH1 0x0 PUSH1 0x1F NOT PUSH1 0x1F DUP4 ADD AND SWAP1 POP SWAP2 SWAP1 POP JUMP JUMPDEST PUSH32 0x53692068617920666F6E646F73206E6F2070756564657320636F6E7365677569 PUSH1 0x0 DUP3 ADD MSTORE PUSH32 0x72206C6120666C61670000000000000000000000000000000000000000000000 PUSH1 0x20 DUP3 ADD MSTORE POP JUMP JUMPDEST PUSH32 0x446562657320636F6D7072617220626F6C65746F2E204E6F207469656E657320 PUSH1 0x0 DUP3 ADD MSTORE PUSH32 0x6F706F7274756E69646164657300000000000000000000000000000000000000 PUSH1 0x20 DUP3 ADD MSTORE POP JUMP JUMPDEST PUSH32 0x44656265732070616761722E203130303030303020776569203D3E2031206F70 PUSH1 0x0 DUP3 ADD MSTORE PUSH32 0x6F7274756E696461642E203230303030303020776569203D3E2032206F706F72 PUSH1 0x20 DUP3 ADD MSTORE PUSH32 0x74756E6964616465732E202B32303030303030207765692034206F706F727475 PUSH1 0x40 DUP3 ADD MSTORE PUSH32 0x6E69646164657300000000000000000000000000000000000000000000000000 PUSH1 0x60 DUP3 ADD MSTORE POP JUMP JUMPDEST PUSH32 0x4E6F207469656E657320666F6E646F7300000000000000000000000000000000 PUSH1 0x0 DUP3 ADD MSTORE POP JUMP JUMPDEST POP JUMP JUMPDEST PUSH32 0x46616C6C6F20616C20656E766961722063616E74696461640000000000000000 PUSH1 0x0 DUP3 ADD MSTORE POP JUMP JUMPDEST PUSH2 0xEB2 DUP2 PUSH2 0xC0B JUMP JUMPDEST DUP2 EQ PUSH2 0xEBD JUMPI PUSH1 0x0 DUP1 REVERT JUMPDEST POP JUMP JUMPDEST PUSH2 0xEC9 DUP2 PUSH2 0xC3D JUMP JUMPDEST DUP2 EQ PUSH2 0xED4 JUMPI PUSH1 0x0 DUP1 REVERT JUMPDEST POP JUMP INVALID 0x48 PUSH2 0x7320 PUSH8 0x616E61646F206C61 KECCAK256 PUSH13 0x6F74746572792E204554482070 PUSH2 0x7261 KECCAK256 PUSH19 0x65626F736172214861732066616C6C61646F2E KECCAK256 0x48 PUSH2 0x7320 PUSH17 0x65726469646F20756E20696E74656E746F LOG2 PUSH5 0x6970667358 0x22 SLT KECCAK256 MULMOD 0xEF 0xE 0xDC 0xBE PUSH13 0xFD51C223D9A5F222DEFD303B1C DUP7 0xC7 BALANCE 0x4B DUP11 0xAB DUP1 0xDE SELFBALANCE 0xE9 SGT DIV PUSH16 0x64736F6C634300080400330000000000 "
				},
				"gasEstimates": {
					"creation": {
						"codeDepositCost": "785600",
						"executionCost": "infinite",
						"totalCost": "infinite"
					},
					"external": {
						"anularBoleto()": "infinite",
						"balanceTotal()": "384",
						"ganarLottery(uint256)": "infinite",
						"getFlag()": "infinite",
						"intentos()": "1227",
						"owner()": "1281",
						"pagarBoleto()": "infinite",
						"players(address)": "1558"
					}
				},
				"methodIdentifiers": {
					"anularBoleto()": "8f68b1bd",
					"balanceTotal()": "42b8c415",
					"ganarLottery(uint256)": "28a15928",
					"getFlag()": "f9633930",
					"intentos()": "17fe4e49",
					"owner()": "8da5cb5b",
					"pagarBoleto()": "931c3910",
					"players(address)": "e2eb41ff"
				}
			},
			"storageLayout": {
				"storage": [
					{
						"astId": 5,
						"contract": "levelup/relottery.sol:Lottery",
						"label": "players",
						"offset": 0,
						"slot": "0",
						"type": "t_mapping(t_address,t_uint256)"
					},
					{
						"astId": 9,
						"contract": "levelup/relottery.sol:Lottery",
						"label": "players_opportunity",
						"offset": 0,
						"slot": "1",
						"type": "t_mapping(t_address,t_uint256)"
					},
					{
						"astId": 11,
						"contract": "levelup/relottery.sol:Lottery",
						"label": "flag",
						"offset": 0,
						"slot": "2",
						"type": "t_string_storage"
					},
					{
						"astId": 13,
						"contract": "levelup/relottery.sol:Lottery",
						"label": "number",
						"offset": 0,
						"slot": "3",
						"type": "t_uint256"
					},
					{
						"astId": 15,
						"contract": "levelup/relottery.sol:Lottery",
						"label": "owner",
						"offset": 0,
						"slot": "4",
						"type": "t_address"
					}
				],
				"types": {
					"t_address": {
						"encoding": "inplace",
						"label": "address",
						"numberOfBytes": "20"
					},
					"t_mapping(t_address,t_uint256)": {
						"encoding": "mapping",
						"key": "t_address",
						"label": "mapping(address => uint256)",
						"numberOfBytes": "32",
						"value": "t_uint256"
					},
					"t_string_storage": {
						"encoding": "bytes",
						"label": "string",
						"numberOfBytes": "32"
					},
					"t_uint256": {
						"encoding": "inplace",
						"label": "uint256",
						"numberOfBytes": "32"
					}
				}
			},
			"userdoc": {
				"kind": "user",
				"methods": {},
				"version": 1
			}
		}
	}
}