{
	"data": {
		"bytecode": {
			"linkReferences": {},
			"object": "61016060405269d3c21bcecceda1000000600c553480156200001f575f80fd5b506040518060400160405280600f81526020017f476f7665726e616e6365546f6b656e0000000000000000000000000000000000815250806040518060400160405280600181526020017f31000000000000000000000000000000000000000000000000000000000000008152506040518060400160405280600f81526020017f476f7665726e616e6365546f6b656e00000000000000000000000000000000008152506040518060400160405280600281526020017f475400000000000000000000000000000000000000000000000000000000000081525081600390816200010a919062000f32565b5080600490816200011c919062000f32565b50505062000135600583620001ea60201b90919060201c565b610120818152505062000153600682620001ea60201b90919060201c565b6101408181525050818051906020012060e08181525050808051906020012061010081815250504660a08181525050620001926200023f60201b60201c565b608081815250503073ffffffffffffffffffffffffffffffffffffffff1660c08173ffffffffffffffffffffffffffffffffffffffff1681525050505050620001e433600c546200029b60201b60201c565b620015ce565b5f6020835110156200020f576200020783620002b160201b60201c565b905062000239565b8262000221836200031b60201b60201c565b5f01908162000231919062000f32565b5060ff5f1b90505b92915050565b5f7f8b73c3c69bb8fe3d512ecc4cf759cc79239f7b179b0ffacaa9a75d522b39400f60e0516101005146306040516020016200028095949392919062001084565b60405160208183030381529060405280519060200120905090565b620002ad82826200032460201b60201c565b5050565b5f80829050601f815111156200030057826040517f305a27a9000000000000000000000000000000000000000000000000000000008152600401620002f7919062001169565b60405180910390fd5b8051816200030e90620011ba565b5f1c175f1b915050919050565b5f819050919050565b620003368282620003dd60201b60201c565b620003466200054260201b60201c565b7bffffffffffffffffffffffffffffffffffffffffffffffffffffffff16620003746200056560201b60201c565b1115620003b8576040517f08c379a0000000000000000000000000000000000000000000000000000000008152600401620003af906200129d565b60405180910390fd5b620003d7600b6200056e60201b620010bf17836200058560201b60201c565b50505050565b5f73ffffffffffffffffffffffffffffffffffffffff168273ffffffffffffffffffffffffffffffffffffffff16036200044e576040517f08c379a000000000000000000000000000000000000000000000000000000000815260040162000445906200130b565b60405180910390fd5b620004615f83836200088960201b60201c565b8060025f82825462000474919062001358565b92505081905550805f808473ffffffffffffffffffffffffffffffffffffffff1673ffffffffffffffffffffffffffffffffffffffff1681526020019081526020015f205f82825401925050819055508173ffffffffffffffffffffffffffffffffffffffff165f73ffffffffffffffffffffffffffffffffffffffff167fddf252ad1be2c89b69c2b068fc378daa952ba7f163c4a11628f55a4df523b3ef8360405162000523919062001392565b60405180910390a36200053e5f83836200088e60201b60201c565b5050565b5f7bffffffffffffffffffffffffffffffffffffffffffffffffffffffff905090565b5f600254905090565b5f81836200057d919062001358565b905092915050565b5f805f858054905090505f8082146200064f57620005ad8760018403620008a660201b60201c565b6040518060400160405290815f82015f9054906101000a900463ffffffff1663ffffffff1663ffffffff1681526020015f820160049054906101000a90047bffffffffffffffffffffffffffffffffffffffffffffffffffffffff167bffffffffffffffffffffffffffffffffffffffffffffffffffffffff167bffffffffffffffffffffffffffffffffffffffffffffffffffffffff168152505062000689565b60405180604001604052805f63ffffffff1681526020015f7bffffffffffffffffffffffffffffffffffffffffffffffffffffffff168152505b905080602001517bffffffffffffffffffffffffffffffffffffffffffffffffffffffff169350620006bc84868860201c565b92505f82118015620006ed5750620006d9620008b860201b60201c565b65ffffffffffff16815f015163ffffffff16145b156200076f576200070483620008cf60201b60201c565b620007198860018503620008a660201b60201c565b5f0160046101000a8154817bffffffffffffffffffffffffffffffffffffffffffffffffffffffff02191690837bffffffffffffffffffffffffffffffffffffffffffffffffffffffff1602179055506200087f565b866040518060400160405280620007a36200078f620008b860201b60201c565b65ffffffffffff166200093c60201b60201c565b63ffffffff168152602001620007bf86620008cf60201b60201c565b7bffffffffffffffffffffffffffffffffffffffffffffffffffffffff16815250908060018154018082558091505060019003905f5260205f20015f909190919091505f820151815f015f6101000a81548163ffffffff021916908363ffffffff1602179055506020820151815f0160046101000a8154817bffffffffffffffffffffffffffffffffffffffffffffffffffffffff02191690837bffffffffffffffffffffffffffffffffffffffffffffffffffffffff16021790555050505b5050935093915050565b505050565b620008a18383836200099160201b60201c565b505050565b5f825f528160205f2001905092915050565b5f620008ca43620009dc60201b60201c565b905090565b5f7bffffffffffffffffffffffffffffffffffffffffffffffffffffffff801682111562000934576040517f08c379a00000000000000000000000000000000000000000000000000000000081526004016200092b9062001421565b60405180910390fd5b819050919050565b5f63ffffffff801682111562000989576040517f08c379a00000000000000000000000000000000000000000000000000000000081526004016200098090620014b5565b60405180910390fd5b819050919050565b620009a483838362000a3360201b60201c565b620009d7620009b98462000a3860201b60201c565b620009ca8462000a3860201b60201c565b8362000a9d60201b60201c565b505050565b5f65ffffffffffff801682111562000a2b576040517f08c379a000000000000000000000000000000000000000000000000000000000815260040162000a229062001549565b60405180910390fd5b819050919050565b505050565b5f60095f8373ffffffffffffffffffffffffffffffffffffffff1673ffffffffffffffffffffffffffffffffffffffff1681526020019081526020015f205f9054906101000a900473ffffffffffffffffffffffffffffffffffffffff169050919050565b8173ffffffffffffffffffffffffffffffffffffffff168373ffffffffffffffffffffffffffffffffffffffff161415801562000ad957505f81115b1562000cb2575f73ffffffffffffffffffffffffffffffffffffffff168373ffffffffffffffffffffffffffffffffffffffff161462000bc8575f8062000b6f600a5f8773ffffffffffffffffffffffffffffffffffffffff1673ffffffffffffffffffffffffffffffffffffffff1681526020019081526020015f2062000cb760201b620010d417856200058560201b60201c565b915091508473ffffffffffffffffffffffffffffffffffffffff167fdec2bacdd2f05b59de34da9b523dff8be42e5e38e818c82fdb0bae774387a724838360405162000bbd92919062001569565b60405180910390a250505b5f73ffffffffffffffffffffffffffffffffffffffff168273ffffffffffffffffffffffffffffffffffffffff161462000cb1575f8062000c58600a5f8673ffffffffffffffffffffffffffffffffffffffff1673ffffffffffffffffffffffffffffffffffffffff1681526020019081526020015f206200056e60201b620010bf17856200058560201b60201c565b915091508373ffffffffffffffffffffffffffffffffffffffff167fdec2bacdd2f05b59de34da9b523dff8be42e5e38e818c82fdb0bae774387a724838360405162000ca692919062001569565b60405180910390a250505b5b505050565b5f818362000cc6919062001594565b905092915050565b5f81519050919050565b7f4e487b71000000000000000000000000000000000000000000000000000000005f52604160045260245ffd5b7f4e487b71000000000000000000000000000000000000000000000000000000005f52602260045260245ffd5b5f600282049050600182168062000d4a57607f821691505b60208210810362000d605762000d5f62000d05565b5b50919050565b5f819050815f5260205f209050919050565b5f6020601f8301049050919050565b5f82821b905092915050565b5f6008830262000dc47fffffffffffffffffffffffffffffffffffffffffffffffffffffffffffffffff8262000d87565b62000dd0868362000d87565b95508019841693508086168417925050509392505050565b5f819050919050565b5f819050919050565b5f62000e1a62000e1462000e0e8462000de8565b62000df1565b62000de8565b9050919050565b5f819050919050565b62000e358362000dfa565b62000e4d62000e448262000e21565b84845462000d93565b825550505050565b5f90565b62000e6362000e55565b62000e7081848462000e2a565b505050565b5b8181101562000e975762000e8b5f8262000e59565b60018101905062000e76565b5050565b601f82111562000ee65762000eb08162000d66565b62000ebb8462000d78565b8101602085101562000ecb578190505b62000ee362000eda8562000d78565b83018262000e75565b50505b505050565b5f82821c905092915050565b5f62000f085f198460080262000eeb565b1980831691505092915050565b5f62000f22838362000ef7565b9150826002028217905092915050565b62000f3d8262000cce565b67ffffffffffffffff81111562000f595762000f5862000cd8565b5b62000f65825462000d32565b62000f7282828562000e9b565b5f60209050601f83116001811462000fa8575f841562000f93578287015190505b62000f9f858262000f15565b8655506200100e565b601f19841662000fb88662000d66565b5f5b8281101562000fe15784890151825560018201915060208501945060208101905062000fba565b8683101562001001578489015162000ffd601f89168262000ef7565b8355505b6001600288020188555050505b505050505050565b5f819050919050565b6200102a8162001016565b82525050565b6200103b8162000de8565b82525050565b5f73ffffffffffffffffffffffffffffffffffffffff82169050919050565b5f6200106c8262001041565b9050919050565b6200107e8162001060565b82525050565b5f60a082019050620010995f8301886200101f565b620010a860208301876200101f565b620010b760408301866200101f565b620010c6606083018562001030565b620010d5608083018462001073565b9695505050505050565b5f82825260208201905092915050565b5f5b838110156200110e578082015181840152602081019050620010f1565b5f8484015250505050565b5f601f19601f8301169050919050565b5f620011358262000cce565b620011418185620010df565b935062001153818560208601620010ef565b6200115e8162001119565b840191505092915050565b5f6020820190508181035f83015262001183818462001129565b905092915050565b5f81519050919050565b5f819050602082019050919050565b5f620011b1825162001016565b80915050919050565b5f620011c6826200118b565b82620011d28462001195565b9050620011df81620011a4565b9250602082101562001222576200121d7fffffffffffffffffffffffffffffffffffffffffffffffffffffffffffffffff8360200360080262000d87565b831692505b5050919050565b7f4552433230566f7465733a20746f74616c20737570706c79207269736b73206f5f8201527f766572666c6f77696e6720766f74657300000000000000000000000000000000602082015250565b5f62001285603083620010df565b9150620012928262001229565b604082019050919050565b5f6020820190508181035f830152620012b68162001277565b9050919050565b7f45524332303a206d696e7420746f20746865207a65726f2061646472657373005f82015250565b5f620012f3601f83620010df565b91506200130082620012bd565b602082019050919050565b5f6020820190508181035f8301526200132481620012e5565b9050919050565b7f4e487b71000000000000000000000000000000000000000000000000000000005f52601160045260245ffd5b5f620013648262000de8565b9150620013718362000de8565b92508282019050808211156200138c576200138b6200132b565b5b92915050565b5f602082019050620013a75f83018462001030565b92915050565b7f53616665436173743a2076616c756520646f65736e27742066697420696e20325f8201527f3234206269747300000000000000000000000000000000000000000000000000602082015250565b5f62001409602783620010df565b91506200141682620013ad565b604082019050919050565b5f6020820190508181035f8301526200143a81620013fb565b9050919050565b7f53616665436173743a2076616c756520646f65736e27742066697420696e20335f8201527f3220626974730000000000000000000000000000000000000000000000000000602082015250565b5f6200149d602683620010df565b9150620014aa8262001441565b604082019050919050565b5f6020820190508181035f830152620014ce816200148f565b9050919050565b7f53616665436173743a2076616c756520646f65736e27742066697420696e20345f8201527f3820626974730000000000000000000000000000000000000000000000000000602082015250565b5f62001531602683620010df565b91506200153e82620014d5565b604082019050919050565b5f6020820190508181035f830152620015628162001523565b9050919050565b5f6040820190506200157e5f83018562001030565b6200158d602083018462001030565b9392505050565b5f620015a08262000de8565b9150620015ad8362000de8565b9250828203905081811115620015c857620015c76200132b565b5b92915050565b60805160a05160c05160e051610100516101205161014051613a84620016205f395f6109a101525f61096d01525f611b0801525f611ae701525f6115ad01525f61160301525f61162c0152613a845ff3fe608060405234801561000f575f80fd5b506004361061018c575f3560e01c806370a08231116100dc5780639ab24eb011610095578063c3cda5201161006f578063c3cda52014610500578063d505accf1461051c578063dd62ed3e14610538578063f1127ed8146105685761018c565b80639ab24eb014610470578063a457c2d7146104a0578063a9059cbb146104d05761018c565b806370a08231146103805780637ecebe00146103b057806384b0196e146103e05780638e539e8c1461040457806391ddadf41461043457806395d89b41146104525761018c565b80633950935111610149578063587cde1e11610123578063587cde1e146102e65780635c19a95c146103165780635d641847146103325780636fcfff45146103505761018c565b806339509351146102685780633a46b1a8146102985780634bf5d7e9146102c85761018c565b806306fdde0314610190578063095ea7b3146101ae57806318160ddd146101de57806323b872dd146101fc578063313ce5671461022c5780633644e5151461024a575b5f80fd5b610198610598565b6040516101a591906126de565b60405180910390f35b6101c860048036038101906101c3919061278f565b610628565b6040516101d591906127e7565b60405180910390f35b6101e661064a565b6040516101f3919061280f565b60405180910390f35b61021660048036038101906102119190612828565b610653565b60405161022391906127e7565b60405180910390f35b610234610681565b6040516102419190612893565b60405180910390f35b610252610689565b60405161025f91906128c4565b60405180910390f35b610282600480360381019061027d919061278f565b610697565b60405161028f91906127e7565b60405180910390f35b6102b260048036038101906102ad919061278f565b6106cd565b6040516102bf919061280f565b60405180910390f35b6102d061076d565b6040516102dd91906126de565b60405180910390f35b61030060048036038101906102fb91906128dd565b6107fb565b60405161030d9190612917565b60405180910390f35b610330600480360381019061032b91906128dd565b610860565b005b61033a610874565b604051610347919061280f565b60405180910390f35b61036a600480360381019061036591906128dd565b61087a565b604051610377919061294e565b60405180910390f35b61039a600480360381019061039591906128dd565b6108cb565b6040516103a7919061280f565b60405180910390f35b6103ca60048036038101906103c591906128dd565b610910565b6040516103d7919061280f565b60405180910390f35b6103e861095d565b6040516103fb9796959493929190612a58565b60405180910390f35b61041e60048036038101906104199190612ada565b610a5a565b60405161042b919061280f565b60405180910390f35b61043c610abe565b6040516104499190612b25565b60405180910390f35b61045a610acd565b60405161046791906126de565b60405180910390f35b61048a600480360381019061048591906128dd565b610b5d565b604051610497919061280f565b60405180910390f35b6104ba60048036038101906104b5919061278f565b610c5b565b6040516104c791906127e7565b60405180910390f35b6104ea60048036038101906104e5919061278f565b610cd0565b6040516104f791906127e7565b60405180910390f35b61051a60048036038101906105159190612b92565b610cf2565b005b61053660048036038101906105319190612c1b565b610df5565b005b610552600480360381019061054d9190612cb8565b610f34565b60405161055f919061280f565b60405180910390f35b610582600480360381019061057d9190612d20565b610fb6565b60405161058f9190612dd0565b60405180910390f35b6060600380546105a790612e16565b80601f01602080910402602001604051908101604052809291908181526020018280546105d390612e16565b801561061e5780601f106105f55761010080835404028352916020019161061e565b820191905f5260205f20905b81548152906001019060200180831161060157829003601f168201915b5050505050905090565b5f806106326110e9565b905061063f8185856110f0565b600191505092915050565b5f600254905090565b5f8061065d6110e9565b905061066a8582856112b3565b61067585858561133e565b60019150509392505050565b5f6012905090565b5f6106926115aa565b905090565b5f806106a16110e9565b90506106c28185856106b38589610f34565b6106bd9190612e73565b6110f0565b600191505092915050565b5f6106d6610abe565b65ffffffffffff16821061071f576040517f08c379a000000000000000000000000000000000000000000000000000000000815260040161071690612ef0565b60405180910390fd5b610765600a5f8573ffffffffffffffffffffffffffffffffffffffff1673ffffffffffffffffffffffffffffffffffffffff1681526020019081526020015f2083611660565b905092915050565b606043610778610abe565b65ffffffffffff16146107c0576040517f08c379a00000000000000000000000000000000000000000000000000000000081526004016107b790612f58565b60405180910390fd5b6040518060400160405280601d81526020017f6d6f64653d626c6f636b6e756d6265722666726f6d3d64656661756c74000000815250905090565b5f60095f8373ffffffffffffffffffffffffffffffffffffffff1673ffffffffffffffffffffffffffffffffffffffff1681526020019081526020015f205f9054906101000a900473ffffffffffffffffffffffffffffffffffffffff169050919050565b61087161086b6110e9565b8261179d565b50565b600c5481565b5f6108c4600a5f8473ffffffffffffffffffffffffffffffffffffffff1673ffffffffffffffffffffffffffffffffffffffff1681526020019081526020015f20805490506118b2565b9050919050565b5f805f8373ffffffffffffffffffffffffffffffffffffffff1673ffffffffffffffffffffffffffffffffffffffff1681526020019081526020015f20549050919050565b5f61095660075f8473ffffffffffffffffffffffffffffffffffffffff1673ffffffffffffffffffffffffffffffffffffffff1681526020019081526020015f20611904565b9050919050565b5f6060805f805f606061099a60057f000000000000000000000000000000000000000000000000000000000000000061191090919063ffffffff16565b6109ce60067f000000000000000000000000000000000000000000000000000000000000000061191090919063ffffffff16565b46305f801b5f67ffffffffffffffff8111156109ed576109ec612f76565b5b604051908082528060200260200182016040528015610a1b5781602001602082028036833780820191505090505b507f0f00000000000000000000000000000000000000000000000000000000000000959493929190965096509650965096509650965090919293949596565b5f610a63610abe565b65ffffffffffff168210610aac576040517f08c379a0000000000000000000000000000000000000000000000000000000008152600401610aa390612ef0565b60405180910390fd5b610ab7600b83611660565b9050919050565b5f610ac8436119bd565b905090565b606060048054610adc90612e16565b80601f0160208091040260200160405190810160405280929190818152602001828054610b0890612e16565b8015610b535780601f10610b2a57610100808354040283529160200191610b53565b820191905f5260205f20905b815481529060010190602001808311610b3657829003601f168201915b5050505050905090565b5f80600a5f8473ffffffffffffffffffffffffffffffffffffffff1673ffffffffffffffffffffffffffffffffffffffff1681526020019081526020015f208054905090505f8114610c3357600a5f8473ffffffffffffffffffffffffffffffffffffffff1673ffffffffffffffffffffffffffffffffffffffff1681526020019081526020015f206001820381548110610bfb57610bfa612fa3565b5b905f5260205f20015f0160049054906101000a90047bffffffffffffffffffffffffffffffffffffffffffffffffffffffff16610c35565b5f5b7bffffffffffffffffffffffffffffffffffffffffffffffffffffffff16915050919050565b5f80610c656110e9565b90505f610c728286610f34565b905083811015610cb7576040517f08c379a0000000000000000000000000000000000000000000000000000000008152600401610cae90613040565b60405180910390fd5b610cc482868684036110f0565b60019250505092915050565b5f80610cda6110e9565b9050610ce781858561133e565b600191505092915050565b83421115610d35576040517f08c379a0000000000000000000000000000000000000000000000000000000008152600401610d2c906130a8565b60405180910390fd5b5f610d96610d8e7fe48329057bfd03d55e49b547132e39cffd9c1820ad7b9d4c5307691425d15adf898989604051602001610d7394939291906130c6565b60405160208183030381529060405280519060200120611a11565b858585611a2a565b9050610da181611a53565b8614610de2576040517f08c379a0000000000000000000000000000000000000000000000000000000008152600401610dd990613153565b60405180910390fd5b610dec818861179d565b50505050505050565b83421115610e38576040517f08c379a0000000000000000000000000000000000000000000000000000000008152600401610e2f906131bb565b60405180910390fd5b5f7f6e71edae12b1b97f4d1f60370fef10105fa2faae0126114a169c64845d6126c9888888610e668c611a53565b89604051602001610e7c969594939291906131d9565b6040516020818303038152906040528051906020012090505f610e9e82611a11565b90505f610ead82878787611a2a565b90508973ffffffffffffffffffffffffffffffffffffffff168173ffffffffffffffffffffffffffffffffffffffff1614610f1d576040517f08c379a0000000000000000000000000000000000000000000000000000000008152600401610f1490613282565b60405180910390fd5b610f288a8a8a6110f0565b50505050505050505050565b5f60015f8473ffffffffffffffffffffffffffffffffffffffff1673ffffffffffffffffffffffffffffffffffffffff1681526020019081526020015f205f8373ffffffffffffffffffffffffffffffffffffffff1673ffffffffffffffffffffffffffffffffffffffff1681526020019081526020015f2054905092915050565b610fbe612618565b600a5f8473ffffffffffffffffffffffffffffffffffffffff1673ffffffffffffffffffffffffffffffffffffffff1681526020019081526020015f208263ffffffff168154811061101357611012612fa3565b5b905f5260205f20016040518060400160405290815f82015f9054906101000a900463ffffffff1663ffffffff1663ffffffff1681526020015f820160049054906101000a90047bffffffffffffffffffffffffffffffffffffffffffffffffffffffff167bffffffffffffffffffffffffffffffffffffffffffffffffffffffff167bffffffffffffffffffffffffffffffffffffffffffffffffffffffff1681525050905092915050565b5f81836110cc9190612e73565b905092915050565b5f81836110e191906132a0565b905092915050565b5f33905090565b5f73ffffffffffffffffffffffffffffffffffffffff168373ffffffffffffffffffffffffffffffffffffffff160361115e576040517f08c379a000000000000000000000000000000000000000000000000000000000815260040161115590613343565b60405180910390fd5b5f73ffffffffffffffffffffffffffffffffffffffff168273ffffffffffffffffffffffffffffffffffffffff16036111cc576040517f08c379a00000000000000000000000000000000000000000000000000000000081526004016111c3906133d1565b60405180910390fd5b8060015f8573ffffffffffffffffffffffffffffffffffffffff1673ffffffffffffffffffffffffffffffffffffffff1681526020019081526020015f205f8473ffffffffffffffffffffffffffffffffffffffff1673ffffffffffffffffffffffffffffffffffffffff1681526020019081526020015f20819055508173ffffffffffffffffffffffffffffffffffffffff168373ffffffffffffffffffffffffffffffffffffffff167f8c5be1e5ebec7d5bd14f71427d1e84f3dd0314c0f7b2291e5b200ac8c7c3b925836040516112a6919061280f565b60405180910390a3505050565b5f6112be8484610f34565b90507fffffffffffffffffffffffffffffffffffffffffffffffffffffffffffffffff8114611338578181101561132a576040517f08c379a000000000000000000000000000000000000000000000000000000000815260040161132190613439565b60405180910390fd5b61133784848484036110f0565b5b50505050565b5f73ffffffffffffffffffffffffffffffffffffffff168373ffffffffffffffffffffffffffffffffffffffff16036113ac576040517f08c379a00000000000000000000000000000000000000000000000000000000081526004016113a3906134c7565b60405180910390fd5b5f73ffffffffffffffffffffffffffffffffffffffff168273ffffffffffffffffffffffffffffffffffffffff160361141a576040517f08c379a000000000000000000000000000000000000000000000000000000000815260040161141190613555565b60405180910390fd5b611425838383611aae565b5f805f8573ffffffffffffffffffffffffffffffffffffffff1673ffffffffffffffffffffffffffffffffffffffff1681526020019081526020015f20549050818110156114a8576040517f08c379a000000000000000000000000000000000000000000000000000000000815260040161149f906135e3565b60405180910390fd5b8181035f808673ffffffffffffffffffffffffffffffffffffffff1673ffffffffffffffffffffffffffffffffffffffff1681526020019081526020015f2081905550815f808573ffffffffffffffffffffffffffffffffffffffff1673ffffffffffffffffffffffffffffffffffffffff1681526020019081526020015f205f82825401925050819055508273ffffffffffffffffffffffffffffffffffffffff168473ffffffffffffffffffffffffffffffffffffffff167fddf252ad1be2c89b69c2b068fc378daa952ba7f163c4a11628f55a4df523b3ef84604051611591919061280f565b60405180910390a36115a4848484611ab3565b50505050565b5f7f000000000000000000000000000000000000000000000000000000000000000073ffffffffffffffffffffffffffffffffffffffff163073ffffffffffffffffffffffffffffffffffffffff1614801561162557507f000000000000000000000000000000000000000000000000000000000000000046145b15611652577f0000000000000000000000000000000000000000000000000000000000000000905061165d565b61165a611ac3565b90505b90565b5f80838054905090505f8082905060058311156116d1575f61168184611b58565b8461168c91906132a0565b9050856116998883611c4e565b5f015f9054906101000a900463ffffffff1663ffffffff1611156116bf578091506116cf565b6001816116cc9190612e73565b92505b505b5b8082101561172e575f6116e58383611c60565b9050856116f28883611c4e565b5f015f9054906101000a900463ffffffff1663ffffffff16111561171857809150611728565b6001816117259190612e73565b92505b506116d2565b5f8114611772576117428660018303611c4e565b5f0160049054906101000a90047bffffffffffffffffffffffffffffffffffffffffffffffffffffffff16611774565b5f5b7bffffffffffffffffffffffffffffffffffffffffffffffffffffffff16935050505092915050565b5f6117a7836107fb565b90505f6117b3846108cb565b90508260095f8673ffffffffffffffffffffffffffffffffffffffff1673ffffffffffffffffffffffffffffffffffffffff1681526020019081526020015f205f6101000a81548173ffffffffffffffffffffffffffffffffffffffff021916908373ffffffffffffffffffffffffffffffffffffffff1602179055508273ffffffffffffffffffffffffffffffffffffffff168273ffffffffffffffffffffffffffffffffffffffff168573ffffffffffffffffffffffffffffffffffffffff167f3134e8a2e6d97e929a7e54011ea5485d7d196dd5f0ba4d4ef95803e8e3fc257f60405160405180910390a46118ac828483611c85565b50505050565b5f63ffffffff80168211156118fc576040517f08c379a00000000000000000000000000000000000000000000000000000000081526004016118f390613671565b60405180910390fd5b819050919050565b5f815f01549050919050565b606060ff5f1b831461192c5761192583611e75565b90506119b7565b81805461193890612e16565b80601f016020809104026020016040519081016040528092919081815260200182805461196490612e16565b80156119af5780601f10611986576101008083540402835291602001916119af565b820191905f5260205f20905b81548152906001019060200180831161199257829003601f168201915b505050505090505b92915050565b5f65ffffffffffff8016821115611a09576040517f08c379a0000000000000000000000000000000000000000000000000000000008152600401611a00906136ff565b60405180910390fd5b819050919050565b5f611a23611a1d6115aa565b83611ee7565b9050919050565b5f805f611a3987878787611f27565b91509150611a4681611fff565b8192505050949350505050565b5f8060075f8473ffffffffffffffffffffffffffffffffffffffff1673ffffffffffffffffffffffffffffffffffffffff1681526020019081526020015f209050611a9d81611904565b9150611aa881612164565b50919050565b505050565b611abe838383612178565b505050565b5f7f8b73c3c69bb8fe3d512ecc4cf759cc79239f7b179b0ffacaa9a75d522b39400f7f00000000000000000000000000000000000000000000000000000000000000007f00000000000000000000000000000000000000000000000000000000000000004630604051602001611b3d95949392919061371d565b60405160208183030381529060405280519060200120905090565b5f808203611b68575f9050611c49565b5f6001611b74846121a3565b901c6001901b90506001818481611b8e57611b8d61376e565b5b048201901c90506001818481611ba757611ba661376e565b5b048201901c90506001818481611bc057611bbf61376e565b5b048201901c90506001818481611bd957611bd861376e565b5b048201901c90506001818481611bf257611bf161376e565b5b048201901c90506001818481611c0b57611c0a61376e565b5b048201901c90506001818481611c2457611c2361376e565b5b048201901c9050611c4581828581611c3f57611c3e61376e565b5b0461227a565b9150505b919050565b5f825f528160205f2001905092915050565b5f6002828418611c70919061379b565b828416611c7d9190612e73565b905092915050565b8173ffffffffffffffffffffffffffffffffffffffff168373ffffffffffffffffffffffffffffffffffffffff1614158015611cc057505f81115b15611e70575f73ffffffffffffffffffffffffffffffffffffffff168373ffffffffffffffffffffffffffffffffffffffff1614611d9a575f80611d43600a5f8773ffffffffffffffffffffffffffffffffffffffff1673ffffffffffffffffffffffffffffffffffffffff1681526020019081526020015f206110d485612292565b915091508473ffffffffffffffffffffffffffffffffffffffff167fdec2bacdd2f05b59de34da9b523dff8be42e5e38e818c82fdb0bae774387a7248383604051611d8f9291906137cb565b60405180910390a250505b5f73ffffffffffffffffffffffffffffffffffffffff168273ffffffffffffffffffffffffffffffffffffffff1614611e6f575f80611e18600a5f8673ffffffffffffffffffffffffffffffffffffffff1673ffffffffffffffffffffffffffffffffffffffff1681526020019081526020015f206110bf85612292565b915091508373ffffffffffffffffffffffffffffffffffffffff167fdec2bacdd2f05b59de34da9b523dff8be42e5e38e818c82fdb0bae774387a7248383604051611e649291906137cb565b60405180910390a250505b5b505050565b60605f611e818361255b565b90505f602067ffffffffffffffff811115611e9f57611e9e612f76565b5b6040519080825280601f01601f191660200182016040528015611ed15781602001600182028036833780820191505090505b5090508181528360208201528092505050919050565b5f6040517f190100000000000000000000000000000000000000000000000000000000000081528360028201528260228201526042812091505092915050565b5f807f7fffffffffffffffffffffffffffffff5d576e7357a4501ddfe92f46681b20a0835f1c1115611f5f575f600391509150611ff6565b5f6001878787876040515f8152602001604052604051611f8294939291906137f2565b6020604051602081039080840390855afa158015611fa2573d5f803e3d5ffd5b5050506020604051035190505f73ffffffffffffffffffffffffffffffffffffffff168173ffffffffffffffffffffffffffffffffffffffff1603611fee575f60019250925050611ff6565b805f92509250505b94509492505050565b5f600481111561201257612011613835565b5b81600481111561202557612024613835565b5b0315612161576001600481111561203f5761203e613835565b5b81600481111561205257612051613835565b5b03612092576040517f08c379a0000000000000000000000000000000000000000000000000000000008152600401612089906138ac565b60405180910390fd5b600260048111156120a6576120a5613835565b5b8160048111156120b9576120b8613835565b5b036120f9576040517f08c379a00000000000000000000000000000000000000000000000000000000081526004016120f090613914565b60405180910390fd5b6003600481111561210d5761210c613835565b5b8160048111156121205761211f613835565b5b03612160576040517f08c379a0000000000000000000000000000000000000000000000000000000008152600401612157906139a2565b60405180910390fd5b5b50565b6001815f015f828254019250508190555050565b6121838383836125a9565b61219e61218f846107fb565b612198846107fb565b83611c85565b505050565b5f805f90505f608084901c11156121c257608083901c92506080810190505b5f604084901c11156121dc57604083901c92506040810190505b5f602084901c11156121f657602083901c92506020810190505b5f601084901c111561221057601083901c92506010810190505b5f600884901c111561222a57600883901c92506008810190505b5f600484901c111561224457600483901c92506004810190505b5f600284901c111561225e57600283901c92506002810190505b5f600184901c1115612271576001810190505b80915050919050565b5f818310612288578161228a565b825b905092915050565b5f805f858054905090505f808214612352576122b18760018403611c4e565b6040518060400160405290815f82015f9054906101000a900463ffffffff1663ffffffff1663ffffffff1681526020015f820160049054906101000a90047bffffffffffffffffffffffffffffffffffffffffffffffffffffffff167bffffffffffffffffffffffffffffffffffffffffffffffffffffffff167bffffffffffffffffffffffffffffffffffffffffffffffffffffffff168152505061238c565b60405180604001604052805f63ffffffff1681526020015f7bffffffffffffffffffffffffffffffffffffffffffffffffffffffff168152505b905080602001517bffffffffffffffffffffffffffffffffffffffffffffffffffffffff1693506123c184868863ffffffff16565b92505f821180156123e957506123d5610abe565b65ffffffffffff16815f015163ffffffff16145b15612459576123f7836125ae565b6124048860018503611c4e565b5f0160046101000a8154817bffffffffffffffffffffffffffffffffffffffffffffffffffffffff02191690837bffffffffffffffffffffffffffffffffffffffffffffffffffffffff160217905550612551565b86604051806040016040528061247d612470610abe565b65ffffffffffff166118b2565b63ffffffff168152602001612491866125ae565b7bffffffffffffffffffffffffffffffffffffffffffffffffffffffff16815250908060018154018082558091505060019003905f5260205f20015f909190919091505f820151815f015f6101000a81548163ffffffff021916908363ffffffff1602179055506020820151815f0160046101000a8154817bffffffffffffffffffffffffffffffffffffffffffffffffffffffff02191690837bffffffffffffffffffffffffffffffffffffffffffffffffffffffff16021790555050505b5050935093915050565b5f8060ff835f1c169050601f8111156125a0576040517fb3512b0c00000000000000000000000000000000000000000000000000000000815260040160405180910390fd5b80915050919050565b505050565b5f7bffffffffffffffffffffffffffffffffffffffffffffffffffffffff8016821115612610576040517f08c379a000000000000000000000000000000000000000000000000000000000815260040161260790613a30565b60405180910390fd5b819050919050565b60405180604001604052805f63ffffffff1681526020015f7bffffffffffffffffffffffffffffffffffffffffffffffffffffffff1681525090565b5f81519050919050565b5f82825260208201905092915050565b5f5b8381101561268b578082015181840152602081019050612670565b5f8484015250505050565b5f601f19601f8301169050919050565b5f6126b082612654565b6126ba818561265e565b93506126ca81856020860161266e565b6126d381612696565b840191505092915050565b5f6020820190508181035f8301526126f681846126a6565b905092915050565b5f80fd5b5f73ffffffffffffffffffffffffffffffffffffffff82169050919050565b5f61272b82612702565b9050919050565b61273b81612721565b8114612745575f80fd5b50565b5f8135905061275681612732565b92915050565b5f819050919050565b61276e8161275c565b8114612778575f80fd5b50565b5f8135905061278981612765565b92915050565b5f80604083850312156127a5576127a46126fe565b5b5f6127b285828601612748565b92505060206127c38582860161277b565b9150509250929050565b5f8115159050919050565b6127e1816127cd565b82525050565b5f6020820190506127fa5f8301846127d8565b92915050565b6128098161275c565b82525050565b5f6020820190506128225f830184612800565b92915050565b5f805f6060848603121561283f5761283e6126fe565b5b5f61284c86828701612748565b935050602061285d86828701612748565b925050604061286e8682870161277b565b9150509250925092565b5f60ff82169050919050565b61288d81612878565b82525050565b5f6020820190506128a65f830184612884565b92915050565b5f819050919050565b6128be816128ac565b82525050565b5f6020820190506128d75f8301846128b5565b92915050565b5f602082840312156128f2576128f16126fe565b5b5f6128ff84828501612748565b91505092915050565b61291181612721565b82525050565b5f60208201905061292a5f830184612908565b92915050565b5f63ffffffff82169050919050565b61294881612930565b82525050565b5f6020820190506129615f83018461293f565b92915050565b5f7fff0000000000000000000000000000000000000000000000000000000000000082169050919050565b61299b81612967565b82525050565b5f81519050919050565b5f82825260208201905092915050565b5f819050602082019050919050565b6129d38161275c565b82525050565b5f6129e483836129ca565b60208301905092915050565b5f602082019050919050565b5f612a06826129a1565b612a1081856129ab565b9350612a1b836129bb565b805f5b83811015612a4b578151612a3288826129d9565b9750612a3d836129f0565b925050600181019050612a1e565b5085935050505092915050565b5f60e082019050612a6b5f83018a612992565b8181036020830152612a7d81896126a6565b90508181036040830152612a9181886126a6565b9050612aa06060830187612800565b612aad6080830186612908565b612aba60a08301856128b5565b81810360c0830152612acc81846129fc565b905098975050505050505050565b5f60208284031215612aef57612aee6126fe565b5b5f612afc8482850161277b565b91505092915050565b5f65ffffffffffff82169050919050565b612b1f81612b05565b82525050565b5f602082019050612b385f830184612b16565b92915050565b612b4781612878565b8114612b51575f80fd5b50565b5f81359050612b6281612b3e565b92915050565b612b71816128ac565b8114612b7b575f80fd5b50565b5f81359050612b8c81612b68565b92915050565b5f805f805f8060c08789031215612bac57612bab6126fe565b5b5f612bb989828a01612748565b9650506020612bca89828a0161277b565b9550506040612bdb89828a0161277b565b9450506060612bec89828a01612b54565b9350506080612bfd89828a01612b7e565b92505060a0612c0e89828a01612b7e565b9150509295509295509295565b5f805f805f805f60e0888a031215612c3657612c356126fe565b5b5f612c438a828b01612748565b9750506020612c548a828b01612748565b9650506040612c658a828b0161277b565b9550506060612c768a828b0161277b565b9450506080612c878a828b01612b54565b93505060a0612c988a828b01612b7e565b92505060c0612ca98a828b01612b7e565b91505092959891949750929550565b5f8060408385031215612cce57612ccd6126fe565b5b5f612cdb85828601612748565b9250506020612cec85828601612748565b9150509250929050565b612cff81612930565b8114612d09575f80fd5b50565b5f81359050612d1a81612cf6565b92915050565b5f8060408385031215612d3657612d356126fe565b5b5f612d4385828601612748565b9250506020612d5485828601612d0c565b9150509250929050565b612d6781612930565b82525050565b5f7bffffffffffffffffffffffffffffffffffffffffffffffffffffffff82169050919050565b612d9d81612d6d565b82525050565b604082015f820151612db75f850182612d5e565b506020820151612dca6020850182612d94565b50505050565b5f604082019050612de35f830184612da3565b92915050565b7f4e487b71000000000000000000000000000000000000000000000000000000005f52602260045260245ffd5b5f6002820490506001821680612e2d57607f821691505b602082108103612e4057612e3f612de9565b5b50919050565b7f4e487b71000000000000000000000000000000000000000000000000000000005f52601160045260245ffd5b5f612e7d8261275c565b9150612e888361275c565b9250828201905080821115612ea057612e9f612e46565b5b92915050565b7f4552433230566f7465733a20667574757265206c6f6f6b7570000000000000005f82015250565b5f612eda60198361265e565b9150612ee582612ea6565b602082019050919050565b5f6020820190508181035f830152612f0781612ece565b9050919050565b7f4552433230566f7465733a2062726f6b656e20636c6f636b206d6f64650000005f82015250565b5f612f42601d8361265e565b9150612f4d82612f0e565b602082019050919050565b5f6020820190508181035f830152612f6f81612f36565b9050919050565b7f4e487b71000000000000000000000000000000000000000000000000000000005f52604160045260245ffd5b7f4e487b71000000000000000000000000000000000000000000000000000000005f52603260045260245ffd5b7f45524332303a2064656372656173656420616c6c6f77616e63652062656c6f775f8201527f207a65726f000000000000000000000000000000000000000000000000000000602082015250565b5f61302a60258361265e565b915061303582612fd0565b604082019050919050565b5f6020820190508181035f8301526130578161301e565b9050919050565b7f4552433230566f7465733a207369676e617475726520657870697265640000005f82015250565b5f613092601d8361265e565b915061309d8261305e565b602082019050919050565b5f6020820190508181035f8301526130bf81613086565b9050919050565b5f6080820190506130d95f8301876128b5565b6130e66020830186612908565b6130f36040830185612800565b6131006060830184612800565b95945050505050565b7f4552433230566f7465733a20696e76616c6964206e6f6e6365000000000000005f82015250565b5f61313d60198361265e565b915061314882613109565b602082019050919050565b5f6020820190508181035f83015261316a81613131565b9050919050565b7f45524332305065726d69743a206578706972656420646561646c696e650000005f82015250565b5f6131a5601d8361265e565b91506131b082613171565b602082019050919050565b5f6020820190508181035f8301526131d281613199565b9050919050565b5f60c0820190506131ec5f8301896128b5565b6131f96020830188612908565b6132066040830187612908565b6132136060830186612800565b6132206080830185612800565b61322d60a0830184612800565b979650505050505050565b7f45524332305065726d69743a20696e76616c6964207369676e617475726500005f82015250565b5f61326c601e8361265e565b915061327782613238565b602082019050919050565b5f6020820190508181035f83015261329981613260565b9050919050565b5f6132aa8261275c565b91506132b58361275c565b92508282039050818111156132cd576132cc612e46565b5b92915050565b7f45524332303a20617070726f76652066726f6d20746865207a65726f206164645f8201527f7265737300000000000000000000000000000000000000000000000000000000602082015250565b5f61332d60248361265e565b9150613338826132d3565b604082019050919050565b5f6020820190508181035f83015261335a81613321565b9050919050565b7f45524332303a20617070726f766520746f20746865207a65726f2061646472655f8201527f7373000000000000000000000000000000000000000000000000000000000000602082015250565b5f6133bb60228361265e565b91506133c682613361565b604082019050919050565b5f6020820190508181035f8301526133e8816133af565b9050919050565b7f45524332303a20696e73756666696369656e7420616c6c6f77616e63650000005f82015250565b5f613423601d8361265e565b915061342e826133ef565b602082019050919050565b5f6020820190508181035f83015261345081613417565b9050919050565b7f45524332303a207472616e736665722066726f6d20746865207a65726f2061645f8201527f6472657373000000000000000000000000000000000000000000000000000000602082015250565b5f6134b160258361265e565b91506134bc82613457565b604082019050919050565b5f6020820190508181035f8301526134de816134a5565b9050919050565b7f45524332303a207472616e7366657220746f20746865207a65726f20616464725f8201527f6573730000000000000000000000000000000000000000000000000000000000602082015250565b5f61353f60238361265e565b915061354a826134e5565b604082019050919050565b5f6020820190508181035f83015261356c81613533565b9050919050565b7f45524332303a207472616e7366657220616d6f756e74206578636565647320625f8201527f616c616e63650000000000000000000000000000000000000000000000000000602082015250565b5f6135cd60268361265e565b91506135d882613573565b604082019050919050565b5f6020820190508181035f8301526135fa816135c1565b9050919050565b7f53616665436173743a2076616c756520646f65736e27742066697420696e20335f8201527f3220626974730000000000000000000000000000000000000000000000000000602082015250565b5f61365b60268361265e565b915061366682613601565b604082019050919050565b5f6020820190508181035f8301526136888161364f565b9050919050565b7f53616665436173743a2076616c756520646f65736e27742066697420696e20345f8201527f3820626974730000000000000000000000000000000000000000000000000000602082015250565b5f6136e960268361265e565b91506136f48261368f565b604082019050919050565b5f6020820190508181035f830152613716816136dd565b9050919050565b5f60a0820190506137305f8301886128b5565b61373d60208301876128b5565b61374a60408301866128b5565b6137576060830185612800565b6137646080830184612908565b9695505050505050565b7f4e487b71000000000000000000000000000000000000000000000000000000005f52601260045260245ffd5b5f6137a58261275c565b91506137b08361275c565b9250826137c0576137bf61376e565b5b828204905092915050565b5f6040820190506137de5f830185612800565b6137eb6020830184612800565b9392505050565b5f6080820190506138055f8301876128b5565b6138126020830186612884565b61381f60408301856128b5565b61382c60608301846128b5565b95945050505050565b7f4e487b71000000000000000000000000000000000000000000000000000000005f52602160045260245ffd5b7f45434453413a20696e76616c6964207369676e617475726500000000000000005f82015250565b5f61389660188361265e565b91506138a182613862565b602082019050919050565b5f6020820190508181035f8301526138c38161388a565b9050919050565b7f45434453413a20696e76616c6964207369676e6174757265206c656e677468005f82015250565b5f6138fe601f8361265e565b9150613909826138ca565b602082019050919050565b5f6020820190508181035f83015261392b816138f2565b9050919050565b7f45434453413a20696e76616c6964207369676e6174757265202773272076616c5f8201527f7565000000000000000000000000000000000000000000000000000000000000602082015250565b5f61398c60228361265e565b915061399782613932565b604082019050919050565b5f6020820190508181035f8301526139b981613980565b9050919050565b7f53616665436173743a2076616c756520646f65736e27742066697420696e20325f8201527f3234206269747300000000000000000000000000000000000000000000000000602082015250565b5f613a1a60278361265e565b9150613a25826139c0565b604082019050919050565b5f6020820190508181035f830152613a4781613a0e565b905091905056fea2646970667358221220670856485fed24ccd441d7c06804eab42f3e44eb66160b60e4b3b9c03e8e1c6c64736f6c63430008150033",
			"opcodes": "PUSH2 0x160 PUSH1 0x40 MSTORE PUSH10 0xD3C21BCECCEDA1000000 PUSH1 0xC SSTORE CALLVALUE DUP1 ISZERO PUSH3 0x1F JUMPI PUSH0 DUP1 REVERT JUMPDEST POP PUSH1 0x40 MLOAD DUP1 PUSH1 0x40 ADD PUSH1 0x40 MSTORE DUP1 PUSH1 0xF DUP2 MSTORE PUSH1 0x20 ADD PUSH32 0x476F7665726E616E6365546F6B656E0000000000000000000000000000000000 DUP2 MSTORE POP DUP1 PUSH1 0x40 MLOAD DUP1 PUSH1 0x40 ADD PUSH1 0x40 MSTORE DUP1 PUSH1 0x1 DUP2 MSTORE PUSH1 0x20 ADD PUSH32 0x3100000000000000000000000000000000000000000000000000000000000000 DUP2 MSTORE POP PUSH1 0x40 MLOAD DUP1 PUSH1 0x40 ADD PUSH1 0x40 MSTORE DUP1 PUSH1 0xF DUP2 MSTORE PUSH1 0x20 ADD PUSH32 0x476F7665726E616E6365546F6B656E0000000000000000000000000000000000 DUP2 MSTORE POP PUSH1 0x40 MLOAD DUP1 PUSH1 0x40 ADD PUSH1 0x40 MSTORE DUP1 PUSH1 0x2 DUP2 MSTORE PUSH1 0x20 ADD PUSH32 0x4754000000000000000000000000000000000000000000000000000000000000 DUP2 MSTORE POP DUP2 PUSH1 0x3 SWAP1 DUP2 PUSH3 0x10A SWAP2 SWAP1 PUSH3 0xF32 JUMP JUMPDEST POP DUP1 PUSH1 0x4 SWAP1 DUP2 PUSH3 0x11C SWAP2 SWAP1 PUSH3 0xF32 JUMP JUMPDEST POP POP POP PUSH3 0x135 PUSH1 0x5 DUP4 PUSH3 0x1EA PUSH1 0x20 SHL SWAP1 SWAP2 SWAP1 PUSH1 0x20 SHR JUMP JUMPDEST PUSH2 0x120 DUP2 DUP2 MSTORE POP POP PUSH3 0x153 PUSH1 0x6 DUP3 PUSH3 0x1EA PUSH1 0x20 SHL SWAP1 SWAP2 SWAP1 PUSH1 0x20 SHR JUMP JUMPDEST PUSH2 0x140 DUP2 DUP2 MSTORE POP POP DUP2 DUP1 MLOAD SWAP1 PUSH1 0x20 ADD KECCAK256 PUSH1 0xE0 DUP2 DUP2 MSTORE POP POP DUP1 DUP1 MLOAD SWAP1 PUSH1 0x20 ADD KECCAK256 PUSH2 0x100 DUP2 DUP2 MSTORE POP POP CHAINID PUSH1 0xA0 DUP2 DUP2 MSTORE POP POP PUSH3 0x192 PUSH3 0x23F PUSH1 0x20 SHL PUSH1 0x20 SHR JUMP JUMPDEST PUSH1 0x80 DUP2 DUP2 MSTORE POP POP ADDRESS PUSH20 0xFFFFFFFFFFFFFFFFFFFFFFFFFFFFFFFFFFFFFFFF AND PUSH1 0xC0 DUP2 PUSH20 0xFFFFFFFFFFFFFFFFFFFFFFFFFFFFFFFFFFFFFFFF AND DUP2 MSTORE POP POP POP POP POP PUSH3 0x1E4 CALLER PUSH1 0xC SLOAD PUSH3 0x29B PUSH1 0x20 SHL PUSH1 0x20 SHR JUMP JUMPDEST PUSH3 0x15CE JUMP JUMPDEST PUSH0 PUSH1 0x20 DUP4 MLOAD LT ISZERO PUSH3 0x20F JUMPI PUSH3 0x207 DUP4 PUSH3 0x2B1 PUSH1 0x20 SHL PUSH1 0x20 SHR JUMP JUMPDEST SWAP1 POP PUSH3 0x239 JUMP JUMPDEST DUP3 PUSH3 0x221 DUP4 PUSH3 0x31B PUSH1 0x20 SHL PUSH1 0x20 SHR JUMP JUMPDEST PUSH0 ADD SWAP1 DUP2 PUSH3 0x231 SWAP2 SWAP1 PUSH3 0xF32 JUMP JUMPDEST POP PUSH1 0xFF PUSH0 SHL SWAP1 POP JUMPDEST SWAP3 SWAP2 POP POP JUMP JUMPDEST PUSH0 PUSH32 0x8B73C3C69BB8FE3D512ECC4CF759CC79239F7B179B0FFACAA9A75D522B39400F PUSH1 0xE0 MLOAD PUSH2 0x100 MLOAD CHAINID ADDRESS PUSH1 0x40 MLOAD PUSH1 0x20 ADD PUSH3 0x280 SWAP6 SWAP5 SWAP4 SWAP3 SWAP2 SWAP1 PUSH3 0x1084 JUMP JUMPDEST PUSH1 0x40 MLOAD PUSH1 0x20 DUP2 DUP4 SUB SUB DUP2 MSTORE SWAP1 PUSH1 0x40 MSTORE DUP1 MLOAD SWAP1 PUSH1 0x20 ADD KECCAK256 SWAP1 POP SWAP1 JUMP JUMPDEST PUSH3 0x2AD DUP3 DUP3 PUSH3 0x324 PUSH1 0x20 SHL PUSH1 0x20 SHR JUMP JUMPDEST POP POP JUMP JUMPDEST PUSH0 DUP1 DUP3 SWAP1 POP PUSH1 0x1F DUP2 MLOAD GT ISZERO PUSH3 0x300 JUMPI DUP3 PUSH1 0x40 MLOAD PUSH32 0x305A27A900000000000000000000000000000000000000000000000000000000 DUP2 MSTORE PUSH1 0x4 ADD PUSH3 0x2F7 SWAP2 SWAP1 PUSH3 0x1169 JUMP JUMPDEST PUSH1 0x40 MLOAD DUP1 SWAP2 SUB SWAP1 REVERT JUMPDEST DUP1 MLOAD DUP2 PUSH3 0x30E SWAP1 PUSH3 0x11BA JUMP JUMPDEST PUSH0 SHR OR PUSH0 SHL SWAP2 POP POP SWAP2 SWAP1 POP JUMP JUMPDEST PUSH0 DUP2 SWAP1 POP SWAP2 SWAP1 POP JUMP JUMPDEST PUSH3 0x336 DUP3 DUP3 PUSH3 0x3DD PUSH1 0x20 SHL PUSH1 0x20 SHR JUMP JUMPDEST PUSH3 0x346 PUSH3 0x542 PUSH1 0x20 SHL PUSH1 0x20 SHR JUMP JUMPDEST PUSH28 0xFFFFFFFFFFFFFFFFFFFFFFFFFFFFFFFFFFFFFFFFFFFFFFFFFFFFFFFF AND PUSH3 0x374 PUSH3 0x565 PUSH1 0x20 SHL PUSH1 0x20 SHR JUMP JUMPDEST GT ISZERO PUSH3 0x3B8 JUMPI PUSH1 0x40 MLOAD PUSH32 0x8C379A000000000000000000000000000000000000000000000000000000000 DUP2 MSTORE PUSH1 0x4 ADD PUSH3 0x3AF SWAP1 PUSH3 0x129D JUMP JUMPDEST PUSH1 0x40 MLOAD DUP1 SWAP2 SUB SWAP1 REVERT JUMPDEST PUSH3 0x3D7 PUSH1 0xB PUSH3 0x56E PUSH1 0x20 SHL PUSH3 0x10BF OR DUP4 PUSH3 0x585 PUSH1 0x20 SHL PUSH1 0x20 SHR JUMP JUMPDEST POP POP POP POP JUMP JUMPDEST PUSH0 PUSH20 0xFFFFFFFFFFFFFFFFFFFFFFFFFFFFFFFFFFFFFFFF AND DUP3 PUSH20 0xFFFFFFFFFFFFFFFFFFFFFFFFFFFFFFFFFFFFFFFF AND SUB PUSH3 0x44E JUMPI PUSH1 0x40 MLOAD PUSH32 0x8C379A000000000000000000000000000000000000000000000000000000000 DUP2 MSTORE PUSH1 0x4 ADD PUSH3 0x445 SWAP1 PUSH3 0x130B JUMP JUMPDEST PUSH1 0x40 MLOAD DUP1 SWAP2 SUB SWAP1 REVERT JUMPDEST PUSH3 0x461 PUSH0 DUP4 DUP4 PUSH3 0x889 PUSH1 0x20 SHL PUSH1 0x20 SHR JUMP JUMPDEST DUP1 PUSH1 0x2 PUSH0 DUP3 DUP3 SLOAD PUSH3 0x474 SWAP2 SWAP1 PUSH3 0x1358 JUMP JUMPDEST SWAP3 POP POP DUP2 SWAP1 SSTORE POP DUP1 PUSH0 DUP1 DUP5 PUSH20 0xFFFFFFFFFFFFFFFFFFFFFFFFFFFFFFFFFFFFFFFF AND PUSH20 0xFFFFFFFFFFFFFFFFFFFFFFFFFFFFFFFFFFFFFFFF AND DUP2 MSTORE PUSH1 0x20 ADD SWAP1 DUP2 MSTORE PUSH1 0x20 ADD PUSH0 KECCAK256 PUSH0 DUP3 DUP3 SLOAD ADD SWAP3 POP POP DUP2 SWAP1 SSTORE POP DUP2 PUSH20 0xFFFFFFFFFFFFFFFFFFFFFFFFFFFFFFFFFFFFFFFF AND PUSH0 PUSH20 0xFFFFFFFFFFFFFFFFFFFFFFFFFFFFFFFFFFFFFFFF AND PUSH32 0xDDF252AD1BE2C89B69C2B068FC378DAA952BA7F163C4A11628F55A4DF523B3EF DUP4 PUSH1 0x40 MLOAD PUSH3 0x523 SWAP2 SWAP1 PUSH3 0x1392 JUMP JUMPDEST PUSH1 0x40 MLOAD DUP1 SWAP2 SUB SWAP1 LOG3 PUSH3 0x53E PUSH0 DUP4 DUP4 PUSH3 0x88E PUSH1 0x20 SHL PUSH1 0x20 SHR JUMP JUMPDEST POP POP JUMP JUMPDEST PUSH0 PUSH28 0xFFFFFFFFFFFFFFFFFFFFFFFFFFFFFFFFFFFFFFFFFFFFFFFFFFFFFFFF SWAP1 POP SWAP1 JUMP JUMPDEST PUSH0 PUSH1 0x2 SLOAD SWAP1 POP SWAP1 JUMP JUMPDEST PUSH0 DUP2 DUP4 PUSH3 0x57D SWAP2 SWAP1 PUSH3 0x1358 JUMP JUMPDEST SWAP1 POP SWAP3 SWAP2 POP POP JUMP JUMPDEST PUSH0 DUP1 PUSH0 DUP6 DUP1 SLOAD SWAP1 POP SWAP1 POP PUSH0 DUP1 DUP3 EQ PUSH3 0x64F JUMPI PUSH3 0x5AD DUP8 PUSH1 0x1 DUP5 SUB PUSH3 0x8A6 PUSH1 0x20 SHL PUSH1 0x20 SHR JUMP JUMPDEST PUSH1 0x40 MLOAD DUP1 PUSH1 0x40 ADD PUSH1 0x40 MSTORE SWAP1 DUP2 PUSH0 DUP3 ADD PUSH0 SWAP1 SLOAD SWAP1 PUSH2 0x100 EXP SWAP1 DIV PUSH4 0xFFFFFFFF AND PUSH4 0xFFFFFFFF AND PUSH4 0xFFFFFFFF AND DUP2 MSTORE PUSH1 0x20 ADD PUSH0 DUP3 ADD PUSH1 0x4 SWAP1 SLOAD SWAP1 PUSH2 0x100 EXP SWAP1 DIV PUSH28 0xFFFFFFFFFFFFFFFFFFFFFFFFFFFFFFFFFFFFFFFFFFFFFFFFFFFFFFFF AND PUSH28 0xFFFFFFFFFFFFFFFFFFFFFFFFFFFFFFFFFFFFFFFFFFFFFFFFFFFFFFFF AND PUSH28 0xFFFFFFFFFFFFFFFFFFFFFFFFFFFFFFFFFFFFFFFFFFFFFFFFFFFFFFFF AND DUP2 MSTORE POP POP PUSH3 0x689 JUMP JUMPDEST PUSH1 0x40 MLOAD DUP1 PUSH1 0x40 ADD PUSH1 0x40 MSTORE DUP1 PUSH0 PUSH4 0xFFFFFFFF AND DUP2 MSTORE PUSH1 0x20 ADD PUSH0 PUSH28 0xFFFFFFFFFFFFFFFFFFFFFFFFFFFFFFFFFFFFFFFFFFFFFFFFFFFFFFFF AND DUP2 MSTORE POP JUMPDEST SWAP1 POP DUP1 PUSH1 0x20 ADD MLOAD PUSH28 0xFFFFFFFFFFFFFFFFFFFFFFFFFFFFFFFFFFFFFFFFFFFFFFFFFFFFFFFF AND SWAP4 POP PUSH3 0x6BC DUP5 DUP7 DUP9 PUSH1 0x20 SHR JUMP JUMPDEST SWAP3 POP PUSH0 DUP3 GT DUP1 ISZERO PUSH3 0x6ED JUMPI POP PUSH3 0x6D9 PUSH3 0x8B8 PUSH1 0x20 SHL PUSH1 0x20 SHR JUMP JUMPDEST PUSH6 0xFFFFFFFFFFFF AND DUP2 PUSH0 ADD MLOAD PUSH4 0xFFFFFFFF AND EQ JUMPDEST ISZERO PUSH3 0x76F JUMPI PUSH3 0x704 DUP4 PUSH3 0x8CF PUSH1 0x20 SHL PUSH1 0x20 SHR JUMP JUMPDEST PUSH3 0x719 DUP9 PUSH1 0x1 DUP6 SUB PUSH3 0x8A6 PUSH1 0x20 SHL PUSH1 0x20 SHR JUMP JUMPDEST PUSH0 ADD PUSH1 0x4 PUSH2 0x100 EXP DUP2 SLOAD DUP2 PUSH28 0xFFFFFFFFFFFFFFFFFFFFFFFFFFFFFFFFFFFFFFFFFFFFFFFFFFFFFFFF MUL NOT AND SWAP1 DUP4 PUSH28 0xFFFFFFFFFFFFFFFFFFFFFFFFFFFFFFFFFFFFFFFFFFFFFFFFFFFFFFFF AND MUL OR SWAP1 SSTORE POP PUSH3 0x87F JUMP JUMPDEST DUP7 PUSH1 0x40 MLOAD DUP1 PUSH1 0x40 ADD PUSH1 0x40 MSTORE DUP1 PUSH3 0x7A3 PUSH3 0x78F PUSH3 0x8B8 PUSH1 0x20 SHL PUSH1 0x20 SHR JUMP JUMPDEST PUSH6 0xFFFFFFFFFFFF AND PUSH3 0x93C PUSH1 0x20 SHL PUSH1 0x20 SHR JUMP JUMPDEST PUSH4 0xFFFFFFFF AND DUP2 MSTORE PUSH1 0x20 ADD PUSH3 0x7BF DUP7 PUSH3 0x8CF PUSH1 0x20 SHL PUSH1 0x20 SHR JUMP JUMPDEST PUSH28 0xFFFFFFFFFFFFFFFFFFFFFFFFFFFFFFFFFFFFFFFFFFFFFFFFFFFFFFFF AND DUP2 MSTORE POP SWAP1 DUP1 PUSH1 0x1 DUP2 SLOAD ADD DUP1 DUP3 SSTORE DUP1 SWAP2 POP POP PUSH1 0x1 SWAP1 SUB SWAP1 PUSH0 MSTORE PUSH1 0x20 PUSH0 KECCAK256 ADD PUSH0 SWAP1 SWAP2 SWAP1 SWAP2 SWAP1 SWAP2 POP PUSH0 DUP3 ADD MLOAD DUP2 PUSH0 ADD PUSH0 PUSH2 0x100 EXP DUP2 SLOAD DUP2 PUSH4 0xFFFFFFFF MUL NOT AND SWAP1 DUP4 PUSH4 0xFFFFFFFF AND MUL OR SWAP1 SSTORE POP PUSH1 0x20 DUP3 ADD MLOAD DUP2 PUSH0 ADD PUSH1 0x4 PUSH2 0x100 EXP DUP2 SLOAD DUP2 PUSH28 0xFFFFFFFFFFFFFFFFFFFFFFFFFFFFFFFFFFFFFFFFFFFFFFFFFFFFFFFF MUL NOT AND SWAP1 DUP4 PUSH28 0xFFFFFFFFFFFFFFFFFFFFFFFFFFFFFFFFFFFFFFFFFFFFFFFFFFFFFFFF AND MUL OR SWAP1 SSTORE POP POP POP JUMPDEST POP POP SWAP4 POP SWAP4 SWAP2 POP POP JUMP JUMPDEST POP POP POP JUMP JUMPDEST PUSH3 0x8A1 DUP4 DUP4 DUP4 PUSH3 0x991 PUSH1 0x20 SHL PUSH1 0x20 SHR JUMP JUMPDEST POP POP POP JUMP JUMPDEST PUSH0 DUP3 PUSH0 MSTORE DUP2 PUSH1 0x20 PUSH0 KECCAK256 ADD SWAP1 POP SWAP3 SWAP2 POP POP JUMP JUMPDEST PUSH0 PUSH3 0x8CA NUMBER PUSH3 0x9DC PUSH1 0x20 SHL PUSH1 0x20 SHR JUMP JUMPDEST SWAP1 POP SWAP1 JUMP JUMPDEST PUSH0 PUSH28 0xFFFFFFFFFFFFFFFFFFFFFFFFFFFFFFFFFFFFFFFFFFFFFFFFFFFFFFFF DUP1 AND DUP3 GT ISZERO PUSH3 0x934 JUMPI PUSH1 0x40 MLOAD PUSH32 0x8C379A000000000000000000000000000000000000000000000000000000000 DUP2 MSTORE PUSH1 0x4 ADD PUSH3 0x92B SWAP1 PUSH3 0x1421 JUMP JUMPDEST PUSH1 0x40 MLOAD DUP1 SWAP2 SUB SWAP1 REVERT JUMPDEST DUP2 SWAP1 POP SWAP2 SWAP1 POP JUMP JUMPDEST PUSH0 PUSH4 0xFFFFFFFF DUP1 AND DUP3 GT ISZERO PUSH3 0x989 JUMPI PUSH1 0x40 MLOAD PUSH32 0x8C379A000000000000000000000000000000000000000000000000000000000 DUP2 MSTORE PUSH1 0x4 ADD PUSH3 0x980 SWAP1 PUSH3 0x14B5 JUMP JUMPDEST PUSH1 0x40 MLOAD DUP1 SWAP2 SUB SWAP1 REVERT JUMPDEST DUP2 SWAP1 POP SWAP2 SWAP1 POP JUMP JUMPDEST PUSH3 0x9A4 DUP4 DUP4 DUP4 PUSH3 0xA33 PUSH1 0x20 SHL PUSH1 0x20 SHR JUMP JUMPDEST PUSH3 0x9D7 PUSH3 0x9B9 DUP5 PUSH3 0xA38 PUSH1 0x20 SHL PUSH1 0x20 SHR JUMP JUMPDEST PUSH3 0x9CA DUP5 PUSH3 0xA38 PUSH1 0x20 SHL PUSH1 0x20 SHR JUMP JUMPDEST DUP4 PUSH3 0xA9D PUSH1 0x20 SHL PUSH1 0x20 SHR JUMP JUMPDEST POP POP POP JUMP JUMPDEST PUSH0 PUSH6 0xFFFFFFFFFFFF DUP1 AND DUP3 GT ISZERO PUSH3 0xA2B JUMPI PUSH1 0x40 MLOAD PUSH32 0x8C379A000000000000000000000000000000000000000000000000000000000 DUP2 MSTORE PUSH1 0x4 ADD PUSH3 0xA22 SWAP1 PUSH3 0x1549 JUMP JUMPDEST PUSH1 0x40 MLOAD DUP1 SWAP2 SUB SWAP1 REVERT JUMPDEST DUP2 SWAP1 POP SWAP2 SWAP1 POP JUMP JUMPDEST POP POP POP JUMP JUMPDEST PUSH0 PUSH1 0x9 PUSH0 DUP4 PUSH20 0xFFFFFFFFFFFFFFFFFFFFFFFFFFFFFFFFFFFFFFFF AND PUSH20 0xFFFFFFFFFFFFFFFFFFFFFFFFFFFFFFFFFFFFFFFF AND DUP2 MSTORE PUSH1 0x20 ADD SWAP1 DUP2 MSTORE PUSH1 0x20 ADD PUSH0 KECCAK256 PUSH0 SWAP1 SLOAD SWAP1 PUSH2 0x100 EXP SWAP1 DIV PUSH20 0xFFFFFFFFFFFFFFFFFFFFFFFFFFFFFFFFFFFFFFFF AND SWAP1 POP SWAP2 SWAP1 POP JUMP JUMPDEST DUP2 PUSH20 0xFFFFFFFFFFFFFFFFFFFFFFFFFFFFFFFFFFFFFFFF AND DUP4 PUSH20 0xFFFFFFFFFFFFFFFFFFFFFFFFFFFFFFFFFFFFFFFF AND EQ ISZERO DUP1 ISZERO PUSH3 0xAD9 JUMPI POP PUSH0 DUP2 GT JUMPDEST ISZERO PUSH3 0xCB2 JUMPI PUSH0 PUSH20 0xFFFFFFFFFFFFFFFFFFFFFFFFFFFFFFFFFFFFFFFF AND DUP4 PUSH20 0xFFFFFFFFFFFFFFFFFFFFFFFFFFFFFFFFFFFFFFFF AND EQ PUSH3 0xBC8 JUMPI PUSH0 DUP1 PUSH3 0xB6F PUSH1 0xA PUSH0 DUP8 PUSH20 0xFFFFFFFFFFFFFFFFFFFFFFFFFFFFFFFFFFFFFFFF AND PUSH20 0xFFFFFFFFFFFFFFFFFFFFFFFFFFFFFFFFFFFFFFFF AND DUP2 MSTORE PUSH1 0x20 ADD SWAP1 DUP2 MSTORE PUSH1 0x20 ADD PUSH0 KECCAK256 PUSH3 0xCB7 PUSH1 0x20 SHL PUSH3 0x10D4 OR DUP6 PUSH3 0x585 PUSH1 0x20 SHL PUSH1 0x20 SHR JUMP JUMPDEST SWAP2 POP SWAP2 POP DUP5 PUSH20 0xFFFFFFFFFFFFFFFFFFFFFFFFFFFFFFFFFFFFFFFF AND PUSH32 0xDEC2BACDD2F05B59DE34DA9B523DFF8BE42E5E38E818C82FDB0BAE774387A724 DUP4 DUP4 PUSH1 0x40 MLOAD PUSH3 0xBBD SWAP3 SWAP2 SWAP1 PUSH3 0x1569 JUMP JUMPDEST PUSH1 0x40 MLOAD DUP1 SWAP2 SUB SWAP1 LOG2 POP POP JUMPDEST PUSH0 PUSH20 0xFFFFFFFFFFFFFFFFFFFFFFFFFFFFFFFFFFFFFFFF AND DUP3 PUSH20 0xFFFFFFFFFFFFFFFFFFFFFFFFFFFFFFFFFFFFFFFF AND EQ PUSH3 0xCB1 JUMPI PUSH0 DUP1 PUSH3 0xC58 PUSH1 0xA PUSH0 DUP7 PUSH20 0xFFFFFFFFFFFFFFFFFFFFFFFFFFFFFFFFFFFFFFFF AND PUSH20 0xFFFFFFFFFFFFFFFFFFFFFFFFFFFFFFFFFFFFFFFF AND DUP2 MSTORE PUSH1 0x20 ADD SWAP1 DUP2 MSTORE PUSH1 0x20 ADD PUSH0 KECCAK256 PUSH3 0x56E PUSH1 0x20 SHL PUSH3 0x10BF OR DUP6 PUSH3 0x585 PUSH1 0x20 SHL PUSH1 0x20 SHR JUMP JUMPDEST SWAP2 POP SWAP2 POP DUP4 PUSH20 0xFFFFFFFFFFFFFFFFFFFFFFFFFFFFFFFFFFFFFFFF AND PUSH32 0xDEC2BACDD2F05B59DE34DA9B523DFF8BE42E5E38E818C82FDB0BAE774387A724 DUP4 DUP4 PUSH1 0x40 MLOAD PUSH3 0xCA6 SWAP3 SWAP2 SWAP1 PUSH3 0x1569 JUMP JUMPDEST PUSH1 0x40 MLOAD DUP1 SWAP2 SUB SWAP1 LOG2 POP POP JUMPDEST JUMPDEST POP POP POP JUMP JUMPDEST PUSH0 DUP2 DUP4 PUSH3 0xCC6 SWAP2 SWAP1 PUSH3 0x1594 JUMP JUMPDEST SWAP1 POP SWAP3 SWAP2 POP POP JUMP JUMPDEST PUSH0 DUP2 MLOAD SWAP1 POP SWAP2 SWAP1 POP JUMP JUMPDEST PUSH32 0x4E487B7100000000000000000000000000000000000000000000000000000000 PUSH0 MSTORE PUSH1 0x41 PUSH1 0x4 MSTORE PUSH1 0x24 PUSH0 REVERT JUMPDEST PUSH32 0x4E487B7100000000000000000000000000000000000000000000000000000000 PUSH0 MSTORE PUSH1 0x22 PUSH1 0x4 MSTORE PUSH1 0x24 PUSH0 REVERT JUMPDEST PUSH0 PUSH1 0x2 DUP3 DIV SWAP1 POP PUSH1 0x1 DUP3 AND DUP1 PUSH3 0xD4A JUMPI PUSH1 0x7F DUP3 AND SWAP2 POP JUMPDEST PUSH1 0x20 DUP3 LT DUP2 SUB PUSH3 0xD60 JUMPI PUSH3 0xD5F PUSH3 0xD05 JUMP JUMPDEST JUMPDEST POP SWAP2 SWAP1 POP JUMP JUMPDEST PUSH0 DUP2 SWAP1 POP DUP2 PUSH0 MSTORE PUSH1 0x20 PUSH0 KECCAK256 SWAP1 POP SWAP2 SWAP1 POP JUMP JUMPDEST PUSH0 PUSH1 0x20 PUSH1 0x1F DUP4 ADD DIV SWAP1 POP SWAP2 SWAP1 POP JUMP JUMPDEST PUSH0 DUP3 DUP3 SHL SWAP1 POP SWAP3 SWAP2 POP POP JUMP JUMPDEST PUSH0 PUSH1 0x8 DUP4 MUL PUSH3 0xDC4 PUSH32 0xFFFFFFFFFFFFFFFFFFFFFFFFFFFFFFFFFFFFFFFFFFFFFFFFFFFFFFFFFFFFFFFF DUP3 PUSH3 0xD87 JUMP JUMPDEST PUSH3 0xDD0 DUP7 DUP4 PUSH3 0xD87 JUMP JUMPDEST SWAP6 POP DUP1 NOT DUP5 AND SWAP4 POP DUP1 DUP7 AND DUP5 OR SWAP3 POP POP POP SWAP4 SWAP3 POP POP POP JUMP JUMPDEST PUSH0 DUP2 SWAP1 POP SWAP2 SWAP1 POP JUMP JUMPDEST PUSH0 DUP2 SWAP1 POP SWAP2 SWAP1 POP JUMP JUMPDEST PUSH0 PUSH3 0xE1A PUSH3 0xE14 PUSH3 0xE0E DUP5 PUSH3 0xDE8 JUMP JUMPDEST PUSH3 0xDF1 JUMP JUMPDEST PUSH3 0xDE8 JUMP JUMPDEST SWAP1 POP SWAP2 SWAP1 POP JUMP JUMPDEST PUSH0 DUP2 SWAP1 POP SWAP2 SWAP1 POP JUMP JUMPDEST PUSH3 0xE35 DUP4 PUSH3 0xDFA JUMP JUMPDEST PUSH3 0xE4D PUSH3 0xE44 DUP3 PUSH3 0xE21 JUMP JUMPDEST DUP5 DUP5 SLOAD PUSH3 0xD93 JUMP JUMPDEST DUP3 SSTORE POP POP POP POP JUMP JUMPDEST PUSH0 SWAP1 JUMP JUMPDEST PUSH3 0xE63 PUSH3 0xE55 JUMP JUMPDEST PUSH3 0xE70 DUP2 DUP5 DUP5 PUSH3 0xE2A JUMP JUMPDEST POP POP POP JUMP JUMPDEST JUMPDEST DUP2 DUP2 LT ISZERO PUSH3 0xE97 JUMPI PUSH3 0xE8B PUSH0 DUP3 PUSH3 0xE59 JUMP JUMPDEST PUSH1 0x1 DUP2 ADD SWAP1 POP PUSH3 0xE76 JUMP JUMPDEST POP POP JUMP JUMPDEST PUSH1 0x1F DUP3 GT ISZERO PUSH3 0xEE6 JUMPI PUSH3 0xEB0 DUP2 PUSH3 0xD66 JUMP JUMPDEST PUSH3 0xEBB DUP5 PUSH3 0xD78 JUMP JUMPDEST DUP2 ADD PUSH1 0x20 DUP6 LT ISZERO PUSH3 0xECB JUMPI DUP2 SWAP1 POP JUMPDEST PUSH3 0xEE3 PUSH3 0xEDA DUP6 PUSH3 0xD78 JUMP JUMPDEST DUP4 ADD DUP3 PUSH3 0xE75 JUMP JUMPDEST POP POP JUMPDEST POP POP POP JUMP JUMPDEST PUSH0 DUP3 DUP3 SHR SWAP1 POP SWAP3 SWAP2 POP POP JUMP JUMPDEST PUSH0 PUSH3 0xF08 PUSH0 NOT DUP5 PUSH1 0x8 MUL PUSH3 0xEEB JUMP JUMPDEST NOT DUP1 DUP4 AND SWAP2 POP POP SWAP3 SWAP2 POP POP JUMP JUMPDEST PUSH0 PUSH3 0xF22 DUP4 DUP4 PUSH3 0xEF7 JUMP JUMPDEST SWAP2 POP DUP3 PUSH1 0x2 MUL DUP3 OR SWAP1 POP SWAP3 SWAP2 POP POP JUMP JUMPDEST PUSH3 0xF3D DUP3 PUSH3 0xCCE JUMP JUMPDEST PUSH8 0xFFFFFFFFFFFFFFFF DUP2 GT ISZERO PUSH3 0xF59 JUMPI PUSH3 0xF58 PUSH3 0xCD8 JUMP JUMPDEST JUMPDEST PUSH3 0xF65 DUP3 SLOAD PUSH3 0xD32 JUMP JUMPDEST PUSH3 0xF72 DUP3 DUP3 DUP6 PUSH3 0xE9B JUMP JUMPDEST PUSH0 PUSH1 0x20 SWAP1 POP PUSH1 0x1F DUP4 GT PUSH1 0x1 DUP2 EQ PUSH3 0xFA8 JUMPI PUSH0 DUP5 ISZERO PUSH3 0xF93 JUMPI DUP3 DUP8 ADD MLOAD SWAP1 POP JUMPDEST PUSH3 0xF9F DUP6 DUP3 PUSH3 0xF15 JUMP JUMPDEST DUP7 SSTORE POP PUSH3 0x100E JUMP JUMPDEST PUSH1 0x1F NOT DUP5 AND PUSH3 0xFB8 DUP7 PUSH3 0xD66 JUMP JUMPDEST PUSH0 JUMPDEST DUP3 DUP2 LT ISZERO PUSH3 0xFE1 JUMPI DUP5 DUP10 ADD MLOAD DUP3 SSTORE PUSH1 0x1 DUP3 ADD SWAP2 POP PUSH1 0x20 DUP6 ADD SWAP5 POP PUSH1 0x20 DUP2 ADD SWAP1 POP PUSH3 0xFBA JUMP JUMPDEST DUP7 DUP4 LT ISZERO PUSH3 0x1001 JUMPI DUP5 DUP10 ADD MLOAD PUSH3 0xFFD PUSH1 0x1F DUP10 AND DUP3 PUSH3 0xEF7 JUMP JUMPDEST DUP4 SSTORE POP JUMPDEST PUSH1 0x1 PUSH1 0x2 DUP9 MUL ADD DUP9 SSTORE POP POP POP JUMPDEST POP POP POP POP POP POP JUMP JUMPDEST PUSH0 DUP2 SWAP1 POP SWAP2 SWAP1 POP JUMP JUMPDEST PUSH3 0x102A DUP2 PUSH3 0x1016 JUMP JUMPDEST DUP3 MSTORE POP POP JUMP JUMPDEST PUSH3 0x103B DUP2 PUSH3 0xDE8 JUMP JUMPDEST DUP3 MSTORE POP POP JUMP JUMPDEST PUSH0 PUSH20 0xFFFFFFFFFFFFFFFFFFFFFFFFFFFFFFFFFFFFFFFF DUP3 AND SWAP1 POP SWAP2 SWAP1 POP JUMP JUMPDEST PUSH0 PUSH3 0x106C DUP3 PUSH3 0x1041 JUMP JUMPDEST SWAP1 POP SWAP2 SWAP1 POP JUMP JUMPDEST PUSH3 0x107E DUP2 PUSH3 0x1060 JUMP JUMPDEST DUP3 MSTORE POP POP JUMP JUMPDEST PUSH0 PUSH1 0xA0 DUP3 ADD SWAP1 POP PUSH3 0x1099 PUSH0 DUP4 ADD DUP9 PUSH3 0x101F JUMP JUMPDEST PUSH3 0x10A8 PUSH1 0x20 DUP4 ADD DUP8 PUSH3 0x101F JUMP JUMPDEST PUSH3 0x10B7 PUSH1 0x40 DUP4 ADD DUP7 PUSH3 0x101F JUMP JUMPDEST PUSH3 0x10C6 PUSH1 0x60 DUP4 ADD DUP6 PUSH3 0x1030 JUMP JUMPDEST PUSH3 0x10D5 PUSH1 0x80 DUP4 ADD DUP5 PUSH3 0x1073 JUMP JUMPDEST SWAP7 SWAP6 POP POP POP POP POP POP JUMP JUMPDEST PUSH0 DUP3 DUP3 MSTORE PUSH1 0x20 DUP3 ADD SWAP1 POP SWAP3 SWAP2 POP POP JUMP JUMPDEST PUSH0 JUMPDEST DUP4 DUP2 LT ISZERO PUSH3 0x110E JUMPI DUP1 DUP3 ADD MLOAD DUP2 DUP5 ADD MSTORE PUSH1 0x20 DUP2 ADD SWAP1 POP PUSH3 0x10F1 JUMP JUMPDEST PUSH0 DUP5 DUP5 ADD MSTORE POP POP POP POP JUMP JUMPDEST PUSH0 PUSH1 0x1F NOT PUSH1 0x1F DUP4 ADD AND SWAP1 POP SWAP2 SWAP1 POP JUMP JUMPDEST PUSH0 PUSH3 0x1135 DUP3 PUSH3 0xCCE JUMP JUMPDEST PUSH3 0x1141 DUP2 DUP6 PUSH3 0x10DF JUMP JUMPDEST SWAP4 POP PUSH3 0x1153 DUP2 DUP6 PUSH1 0x20 DUP7 ADD PUSH3 0x10EF JUMP JUMPDEST PUSH3 0x115E DUP2 PUSH3 0x1119 JUMP JUMPDEST DUP5 ADD SWAP2 POP POP SWAP3 SWAP2 POP POP JUMP JUMPDEST PUSH0 PUSH1 0x20 DUP3 ADD SWAP1 POP DUP2 DUP2 SUB PUSH0 DUP4 ADD MSTORE PUSH3 0x1183 DUP2 DUP5 PUSH3 0x1129 JUMP JUMPDEST SWAP1 POP SWAP3 SWAP2 POP POP JUMP JUMPDEST PUSH0 DUP2 MLOAD SWAP1 POP SWAP2 SWAP1 POP JUMP JUMPDEST PUSH0 DUP2 SWAP1 POP PUSH1 0x20 DUP3 ADD SWAP1 POP SWAP2 SWAP1 POP JUMP JUMPDEST PUSH0 PUSH3 0x11B1 DUP3 MLOAD PUSH3 0x1016 JUMP JUMPDEST DUP1 SWAP2 POP POP SWAP2 SWAP1 POP JUMP JUMPDEST PUSH0 PUSH3 0x11C6 DUP3 PUSH3 0x118B JUMP JUMPDEST DUP3 PUSH3 0x11D2 DUP5 PUSH3 0x1195 JUMP JUMPDEST SWAP1 POP PUSH3 0x11DF DUP2 PUSH3 0x11A4 JUMP JUMPDEST SWAP3 POP PUSH1 0x20 DUP3 LT ISZERO PUSH3 0x1222 JUMPI PUSH3 0x121D PUSH32 0xFFFFFFFFFFFFFFFFFFFFFFFFFFFFFFFFFFFFFFFFFFFFFFFFFFFFFFFFFFFFFFFF DUP4 PUSH1 0x20 SUB PUSH1 0x8 MUL PUSH3 0xD87 JUMP JUMPDEST DUP4 AND SWAP3 POP JUMPDEST POP POP SWAP2 SWAP1 POP JUMP JUMPDEST PUSH32 0x4552433230566F7465733A20746F74616C20737570706C79207269736B73206F PUSH0 DUP3 ADD MSTORE PUSH32 0x766572666C6F77696E6720766F74657300000000000000000000000000000000 PUSH1 0x20 DUP3 ADD MSTORE POP JUMP JUMPDEST PUSH0 PUSH3 0x1285 PUSH1 0x30 DUP4 PUSH3 0x10DF JUMP JUMPDEST SWAP2 POP PUSH3 0x1292 DUP3 PUSH3 0x1229 JUMP JUMPDEST PUSH1 0x40 DUP3 ADD SWAP1 POP SWAP2 SWAP1 POP JUMP JUMPDEST PUSH0 PUSH1 0x20 DUP3 ADD SWAP1 POP DUP2 DUP2 SUB PUSH0 DUP4 ADD MSTORE PUSH3 0x12B6 DUP2 PUSH3 0x1277 JUMP JUMPDEST SWAP1 POP SWAP2 SWAP1 POP JUMP JUMPDEST PUSH32 0x45524332303A206D696E7420746F20746865207A65726F206164647265737300 PUSH0 DUP3 ADD MSTORE POP JUMP JUMPDEST PUSH0 PUSH3 0x12F3 PUSH1 0x1F DUP4 PUSH3 0x10DF JUMP JUMPDEST SWAP2 POP PUSH3 0x1300 DUP3 PUSH3 0x12BD JUMP JUMPDEST PUSH1 0x20 DUP3 ADD SWAP1 POP SWAP2 SWAP1 POP JUMP JUMPDEST PUSH0 PUSH1 0x20 DUP3 ADD SWAP1 POP DUP2 DUP2 SUB PUSH0 DUP4 ADD MSTORE PUSH3 0x1324 DUP2 PUSH3 0x12E5 JUMP JUMPDEST SWAP1 POP SWAP2 SWAP1 POP JUMP JUMPDEST PUSH32 0x4E487B7100000000000000000000000000000000000000000000000000000000 PUSH0 MSTORE PUSH1 0x11 PUSH1 0x4 MSTORE PUSH1 0x24 PUSH0 REVERT JUMPDEST PUSH0 PUSH3 0x1364 DUP3 PUSH3 0xDE8 JUMP JUMPDEST SWAP2 POP PUSH3 0x1371 DUP4 PUSH3 0xDE8 JUMP JUMPDEST SWAP3 POP DUP3 DUP3 ADD SWAP1 POP DUP1 DUP3 GT ISZERO PUSH3 0x138C JUMPI PUSH3 0x138B PUSH3 0x132B JUMP JUMPDEST JUMPDEST SWAP3 SWAP2 POP POP JUMP JUMPDEST PUSH0 PUSH1 0x20 DUP3 ADD SWAP1 POP PUSH3 0x13A7 PUSH0 DUP4 ADD DUP5 PUSH3 0x1030 JUMP JUMPDEST SWAP3 SWAP2 POP POP JUMP JUMPDEST PUSH32 0x53616665436173743A2076616C756520646F65736E27742066697420696E2032 PUSH0 DUP3 ADD MSTORE PUSH32 0x3234206269747300000000000000000000000000000000000000000000000000 PUSH1 0x20 DUP3 ADD MSTORE POP JUMP JUMPDEST PUSH0 PUSH3 0x1409 PUSH1 0x27 DUP4 PUSH3 0x10DF JUMP JUMPDEST SWAP2 POP PUSH3 0x1416 DUP3 PUSH3 0x13AD JUMP JUMPDEST PUSH1 0x40 DUP3 ADD SWAP1 POP SWAP2 SWAP1 POP JUMP JUMPDEST PUSH0 PUSH1 0x20 DUP3 ADD SWAP1 POP DUP2 DUP2 SUB PUSH0 DUP4 ADD MSTORE PUSH3 0x143A DUP2 PUSH3 0x13FB JUMP JUMPDEST SWAP1 POP SWAP2 SWAP1 POP JUMP JUMPDEST PUSH32 0x53616665436173743A2076616C756520646F65736E27742066697420696E2033 PUSH0 DUP3 ADD MSTORE PUSH32 0x3220626974730000000000000000000000000000000000000000000000000000 PUSH1 0x20 DUP3 ADD MSTORE POP JUMP JUMPDEST PUSH0 PUSH3 0x149D PUSH1 0x26 DUP4 PUSH3 0x10DF JUMP JUMPDEST SWAP2 POP PUSH3 0x14AA DUP3 PUSH3 0x1441 JUMP JUMPDEST PUSH1 0x40 DUP3 ADD SWAP1 POP SWAP2 SWAP1 POP JUMP JUMPDEST PUSH0 PUSH1 0x20 DUP3 ADD SWAP1 POP DUP2 DUP2 SUB PUSH0 DUP4 ADD MSTORE PUSH3 0x14CE DUP2 PUSH3 0x148F JUMP JUMPDEST SWAP1 POP SWAP2 SWAP1 POP JUMP JUMPDEST PUSH32 0x53616665436173743A2076616C756520646F65736E27742066697420696E2034 PUSH0 DUP3 ADD MSTORE PUSH32 0x3820626974730000000000000000000000000000000000000000000000000000 PUSH1 0x20 DUP3 ADD MSTORE POP JUMP JUMPDEST PUSH0 PUSH3 0x1531 PUSH1 0x26 DUP4 PUSH3 0x10DF JUMP JUMPDEST SWAP2 POP PUSH3 0x153E DUP3 PUSH3 0x14D5 JUMP JUMPDEST PUSH1 0x40 DUP3 ADD SWAP1 POP SWAP2 SWAP1 POP JUMP JUMPDEST PUSH0 PUSH1 0x20 DUP3 ADD SWAP1 POP DUP2 DUP2 SUB PUSH0 DUP4 ADD MSTORE PUSH3 0x1562 DUP2 PUSH3 0x1523 JUMP JUMPDEST SWAP1 POP SWAP2 SWAP1 POP JUMP JUMPDEST PUSH0 PUSH1 0x40 DUP3 ADD SWAP1 POP PUSH3 0x157E PUSH0 DUP4 ADD DUP6 PUSH3 0x1030 JUMP JUMPDEST PUSH3 0x158D PUSH1 0x20 DUP4 ADD DUP5 PUSH3 0x1030 JUMP JUMPDEST SWAP4 SWAP3 POP POP POP JUMP JUMPDEST PUSH0 PUSH3 0x15A0 DUP3 PUSH3 0xDE8 JUMP JUMPDEST SWAP2 POP PUSH3 0x15AD DUP4 PUSH3 0xDE8 JUMP JUMPDEST SWAP3 POP DUP3 DUP3 SUB SWAP1 POP DUP2 DUP2 GT ISZERO PUSH3 0x15C8 JUMPI PUSH3 0x15C7 PUSH3 0x132B JUMP JUMPDEST JUMPDEST SWAP3 SWAP2 POP POP JUMP JUMPDEST PUSH1 0x80 MLOAD PUSH1 0xA0 MLOAD PUSH1 0xC0 MLOAD PUSH1 0xE0 MLOAD PUSH2 0x100 MLOAD PUSH2 0x120 MLOAD PUSH2 0x140 MLOAD PUSH2 0x3A84 PUSH3 0x1620 PUSH0 CODECOPY PUSH0 PUSH2 0x9A1 ADD MSTORE PUSH0 PUSH2 0x96D ADD MSTORE PUSH0 PUSH2 0x1B08 ADD MSTORE PUSH0 PUSH2 0x1AE7 ADD MSTORE PUSH0 PUSH2 0x15AD ADD MSTORE PUSH0 PUSH2 0x1603 ADD MSTORE PUSH0 PUSH2 0x162C ADD MSTORE PUSH2 0x3A84 PUSH0 RETURN INVALID PUSH1 0x80 PUSH1 0x40 MSTORE CALLVALUE DUP1 ISZERO PUSH2 0xF JUMPI PUSH0 DUP1 REVERT JUMPDEST POP PUSH1 0x4 CALLDATASIZE LT PUSH2 0x18C JUMPI PUSH0 CALLDATALOAD PUSH1 0xE0 SHR DUP1 PUSH4 0x70A08231 GT PUSH2 0xDC JUMPI DUP1 PUSH4 0x9AB24EB0 GT PUSH2 0x95 JUMPI DUP1 PUSH4 0xC3CDA520 GT PUSH2 0x6F JUMPI DUP1 PUSH4 0xC3CDA520 EQ PUSH2 0x500 JUMPI DUP1 PUSH4 0xD505ACCF EQ PUSH2 0x51C JUMPI DUP1 PUSH4 0xDD62ED3E EQ PUSH2 0x538 JUMPI DUP1 PUSH4 0xF1127ED8 EQ PUSH2 0x568 JUMPI PUSH2 0x18C JUMP JUMPDEST DUP1 PUSH4 0x9AB24EB0 EQ PUSH2 0x470 JUMPI DUP1 PUSH4 0xA457C2D7 EQ PUSH2 0x4A0 JUMPI DUP1 PUSH4 0xA9059CBB EQ PUSH2 0x4D0 JUMPI PUSH2 0x18C JUMP JUMPDEST DUP1 PUSH4 0x70A08231 EQ PUSH2 0x380 JUMPI DUP1 PUSH4 0x7ECEBE00 EQ PUSH2 0x3B0 JUMPI DUP1 PUSH4 0x84B0196E EQ PUSH2 0x3E0 JUMPI DUP1 PUSH4 0x8E539E8C EQ PUSH2 0x404 JUMPI DUP1 PUSH4 0x91DDADF4 EQ PUSH2 0x434 JUMPI DUP1 PUSH4 0x95D89B41 EQ PUSH2 0x452 JUMPI PUSH2 0x18C JUMP JUMPDEST DUP1 PUSH4 0x39509351 GT PUSH2 0x149 JUMPI DUP1 PUSH4 0x587CDE1E GT PUSH2 0x123 JUMPI DUP1 PUSH4 0x587CDE1E EQ PUSH2 0x2E6 JUMPI DUP1 PUSH4 0x5C19A95C EQ PUSH2 0x316 JUMPI DUP1 PUSH4 0x5D641847 EQ PUSH2 0x332 JUMPI DUP1 PUSH4 0x6FCFFF45 EQ PUSH2 0x350 JUMPI PUSH2 0x18C JUMP JUMPDEST DUP1 PUSH4 0x39509351 EQ PUSH2 0x268 JUMPI DUP1 PUSH4 0x3A46B1A8 EQ PUSH2 0x298 JUMPI DUP1 PUSH4 0x4BF5D7E9 EQ PUSH2 0x2C8 JUMPI PUSH2 0x18C JUMP JUMPDEST DUP1 PUSH4 0x6FDDE03 EQ PUSH2 0x190 JUMPI DUP1 PUSH4 0x95EA7B3 EQ PUSH2 0x1AE JUMPI DUP1 PUSH4 0x18160DDD EQ PUSH2 0x1DE JUMPI DUP1 PUSH4 0x23B872DD EQ PUSH2 0x1FC JUMPI DUP1 PUSH4 0x313CE567 EQ PUSH2 0x22C JUMPI DUP1 PUSH4 0x3644E515 EQ PUSH2 0x24A JUMPI JUMPDEST PUSH0 DUP1 REVERT JUMPDEST PUSH2 0x198 PUSH2 0x598 JUMP JUMPDEST PUSH1 0x40 MLOAD PUSH2 0x1A5 SWAP2 SWAP1 PUSH2 0x26DE JUMP JUMPDEST PUSH1 0x40 MLOAD DUP1 SWAP2 SUB SWAP1 RETURN JUMPDEST PUSH2 0x1C8 PUSH1 0x4 DUP1 CALLDATASIZE SUB DUP2 ADD SWAP1 PUSH2 0x1C3 SWAP2 SWAP1 PUSH2 0x278F JUMP JUMPDEST PUSH2 0x628 JUMP JUMPDEST PUSH1 0x40 MLOAD PUSH2 0x1D5 SWAP2 SWAP1 PUSH2 0x27E7 JUMP JUMPDEST PUSH1 0x40 MLOAD DUP1 SWAP2 SUB SWAP1 RETURN JUMPDEST PUSH2 0x1E6 PUSH2 0x64A JUMP JUMPDEST PUSH1 0x40 MLOAD PUSH2 0x1F3 SWAP2 SWAP1 PUSH2 0x280F JUMP JUMPDEST PUSH1 0x40 MLOAD DUP1 SWAP2 SUB SWAP1 RETURN JUMPDEST PUSH2 0x216 PUSH1 0x4 DUP1 CALLDATASIZE SUB DUP2 ADD SWAP1 PUSH2 0x211 SWAP2 SWAP1 PUSH2 0x2828 JUMP JUMPDEST PUSH2 0x653 JUMP JUMPDEST PUSH1 0x40 MLOAD PUSH2 0x223 SWAP2 SWAP1 PUSH2 0x27E7 JUMP JUMPDEST PUSH1 0x40 MLOAD DUP1 SWAP2 SUB SWAP1 RETURN JUMPDEST PUSH2 0x234 PUSH2 0x681 JUMP JUMPDEST PUSH1 0x40 MLOAD PUSH2 0x241 SWAP2 SWAP1 PUSH2 0x2893 JUMP JUMPDEST PUSH1 0x40 MLOAD DUP1 SWAP2 SUB SWAP1 RETURN JUMPDEST PUSH2 0x252 PUSH2 0x689 JUMP JUMPDEST PUSH1 0x40 MLOAD PUSH2 0x25F SWAP2 SWAP1 PUSH2 0x28C4 JUMP JUMPDEST PUSH1 0x40 MLOAD DUP1 SWAP2 SUB SWAP1 RETURN JUMPDEST PUSH2 0x282 PUSH1 0x4 DUP1 CALLDATASIZE SUB DUP2 ADD SWAP1 PUSH2 0x27D SWAP2 SWAP1 PUSH2 0x278F JUMP JUMPDEST PUSH2 0x697 JUMP JUMPDEST PUSH1 0x40 MLOAD PUSH2 0x28F SWAP2 SWAP1 PUSH2 0x27E7 JUMP JUMPDEST PUSH1 0x40 MLOAD DUP1 SWAP2 SUB SWAP1 RETURN JUMPDEST PUSH2 0x2B2 PUSH1 0x4 DUP1 CALLDATASIZE SUB DUP2 ADD SWAP1 PUSH2 0x2AD SWAP2 SWAP1 PUSH2 0x278F JUMP JUMPDEST PUSH2 0x6CD JUMP JUMPDEST PUSH1 0x40 MLOAD PUSH2 0x2BF SWAP2 SWAP1 PUSH2 0x280F JUMP JUMPDEST PUSH1 0x40 MLOAD DUP1 SWAP2 SUB SWAP1 RETURN JUMPDEST PUSH2 0x2D0 PUSH2 0x76D JUMP JUMPDEST PUSH1 0x40 MLOAD PUSH2 0x2DD SWAP2 SWAP1 PUSH2 0x26DE JUMP JUMPDEST PUSH1 0x40 MLOAD DUP1 SWAP2 SUB SWAP1 RETURN JUMPDEST PUSH2 0x300 PUSH1 0x4 DUP1 CALLDATASIZE SUB DUP2 ADD SWAP1 PUSH2 0x2FB SWAP2 SWAP1 PUSH2 0x28DD JUMP JUMPDEST PUSH2 0x7FB JUMP JUMPDEST PUSH1 0x40 MLOAD PUSH2 0x30D SWAP2 SWAP1 PUSH2 0x2917 JUMP JUMPDEST PUSH1 0x40 MLOAD DUP1 SWAP2 SUB SWAP1 RETURN JUMPDEST PUSH2 0x330 PUSH1 0x4 DUP1 CALLDATASIZE SUB DUP2 ADD SWAP1 PUSH2 0x32B SWAP2 SWAP1 PUSH2 0x28DD JUMP JUMPDEST PUSH2 0x860 JUMP JUMPDEST STOP JUMPDEST PUSH2 0x33A PUSH2 0x874 JUMP JUMPDEST PUSH1 0x40 MLOAD PUSH2 0x347 SWAP2 SWAP1 PUSH2 0x280F JUMP JUMPDEST PUSH1 0x40 MLOAD DUP1 SWAP2 SUB SWAP1 RETURN JUMPDEST PUSH2 0x36A PUSH1 0x4 DUP1 CALLDATASIZE SUB DUP2 ADD SWAP1 PUSH2 0x365 SWAP2 SWAP1 PUSH2 0x28DD JUMP JUMPDEST PUSH2 0x87A JUMP JUMPDEST PUSH1 0x40 MLOAD PUSH2 0x377 SWAP2 SWAP1 PUSH2 0x294E JUMP JUMPDEST PUSH1 0x40 MLOAD DUP1 SWAP2 SUB SWAP1 RETURN JUMPDEST PUSH2 0x39A PUSH1 0x4 DUP1 CALLDATASIZE SUB DUP2 ADD SWAP1 PUSH2 0x395 SWAP2 SWAP1 PUSH2 0x28DD JUMP JUMPDEST PUSH2 0x8CB JUMP JUMPDEST PUSH1 0x40 MLOAD PUSH2 0x3A7 SWAP2 SWAP1 PUSH2 0x280F JUMP JUMPDEST PUSH1 0x40 MLOAD DUP1 SWAP2 SUB SWAP1 RETURN JUMPDEST PUSH2 0x3CA PUSH1 0x4 DUP1 CALLDATASIZE SUB DUP2 ADD SWAP1 PUSH2 0x3C5 SWAP2 SWAP1 PUSH2 0x28DD JUMP JUMPDEST PUSH2 0x910 JUMP JUMPDEST PUSH1 0x40 MLOAD PUSH2 0x3D7 SWAP2 SWAP1 PUSH2 0x280F JUMP JUMPDEST PUSH1 0x40 MLOAD DUP1 SWAP2 SUB SWAP1 RETURN JUMPDEST PUSH2 0x3E8 PUSH2 0x95D JUMP JUMPDEST PUSH1 0x40 MLOAD PUSH2 0x3FB SWAP8 SWAP7 SWAP6 SWAP5 SWAP4 SWAP3 SWAP2 SWAP1 PUSH2 0x2A58 JUMP JUMPDEST PUSH1 0x40 MLOAD DUP1 SWAP2 SUB SWAP1 RETURN JUMPDEST PUSH2 0x41E PUSH1 0x4 DUP1 CALLDATASIZE SUB DUP2 ADD SWAP1 PUSH2 0x419 SWAP2 SWAP1 PUSH2 0x2ADA JUMP JUMPDEST PUSH2 0xA5A JUMP JUMPDEST PUSH1 0x40 MLOAD PUSH2 0x42B SWAP2 SWAP1 PUSH2 0x280F JUMP JUMPDEST PUSH1 0x40 MLOAD DUP1 SWAP2 SUB SWAP1 RETURN JUMPDEST PUSH2 0x43C PUSH2 0xABE JUMP JUMPDEST PUSH1 0x40 MLOAD PUSH2 0x449 SWAP2 SWAP1 PUSH2 0x2B25 JUMP JUMPDEST PUSH1 0x40 MLOAD DUP1 SWAP2 SUB SWAP1 RETURN JUMPDEST PUSH2 0x45A PUSH2 0xACD JUMP JUMPDEST PUSH1 0x40 MLOAD PUSH2 0x467 SWAP2 SWAP1 PUSH2 0x26DE JUMP JUMPDEST PUSH1 0x40 MLOAD DUP1 SWAP2 SUB SWAP1 RETURN JUMPDEST PUSH2 0x48A PUSH1 0x4 DUP1 CALLDATASIZE SUB DUP2 ADD SWAP1 PUSH2 0x485 SWAP2 SWAP1 PUSH2 0x28DD JUMP JUMPDEST PUSH2 0xB5D JUMP JUMPDEST PUSH1 0x40 MLOAD PUSH2 0x497 SWAP2 SWAP1 PUSH2 0x280F JUMP JUMPDEST PUSH1 0x40 MLOAD DUP1 SWAP2 SUB SWAP1 RETURN JUMPDEST PUSH2 0x4BA PUSH1 0x4 DUP1 CALLDATASIZE SUB DUP2 ADD SWAP1 PUSH2 0x4B5 SWAP2 SWAP1 PUSH2 0x278F JUMP JUMPDEST PUSH2 0xC5B JUMP JUMPDEST PUSH1 0x40 MLOAD PUSH2 0x4C7 SWAP2 SWAP1 PUSH2 0x27E7 JUMP JUMPDEST PUSH1 0x40 MLOAD DUP1 SWAP2 SUB SWAP1 RETURN JUMPDEST PUSH2 0x4EA PUSH1 0x4 DUP1 CALLDATASIZE SUB DUP2 ADD SWAP1 PUSH2 0x4E5 SWAP2 SWAP1 PUSH2 0x278F JUMP JUMPDEST PUSH2 0xCD0 JUMP JUMPDEST PUSH1 0x40 MLOAD PUSH2 0x4F7 SWAP2 SWAP1 PUSH2 0x27E7 JUMP JUMPDEST PUSH1 0x40 MLOAD DUP1 SWAP2 SUB SWAP1 RETURN JUMPDEST PUSH2 0x51A PUSH1 0x4 DUP1 CALLDATASIZE SUB DUP2 ADD SWAP1 PUSH2 0x515 SWAP2 SWAP1 PUSH2 0x2B92 JUMP JUMPDEST PUSH2 0xCF2 JUMP JUMPDEST STOP JUMPDEST PUSH2 0x536 PUSH1 0x4 DUP1 CALLDATASIZE SUB DUP2 ADD SWAP1 PUSH2 0x531 SWAP2 SWAP1 PUSH2 0x2C1B JUMP JUMPDEST PUSH2 0xDF5 JUMP JUMPDEST STOP JUMPDEST PUSH2 0x552 PUSH1 0x4 DUP1 CALLDATASIZE SUB DUP2 ADD SWAP1 PUSH2 0x54D SWAP2 SWAP1 PUSH2 0x2CB8 JUMP JUMPDEST PUSH2 0xF34 JUMP JUMPDEST PUSH1 0x40 MLOAD PUSH2 0x55F SWAP2 SWAP1 PUSH2 0x280F JUMP JUMPDEST PUSH1 0x40 MLOAD DUP1 SWAP2 SUB SWAP1 RETURN JUMPDEST PUSH2 0x582 PUSH1 0x4 DUP1 CALLDATASIZE SUB DUP2 ADD SWAP1 PUSH2 0x57D SWAP2 SWAP1 PUSH2 0x2D20 JUMP JUMPDEST PUSH2 0xFB6 JUMP JUMPDEST PUSH1 0x40 MLOAD PUSH2 0x58F SWAP2 SWAP1 PUSH2 0x2DD0 JUMP JUMPDEST PUSH1 0x40 MLOAD DUP1 SWAP2 SUB SWAP1 RETURN JUMPDEST PUSH1 0x60 PUSH1 0x3 DUP1 SLOAD PUSH2 0x5A7 SWAP1 PUSH2 0x2E16 JUMP JUMPDEST DUP1 PUSH1 0x1F ADD PUSH1 0x20 DUP1 SWAP2 DIV MUL PUSH1 0x20 ADD PUSH1 0x40 MLOAD SWAP1 DUP2 ADD PUSH1 0x40 MSTORE DUP1 SWAP3 SWAP2 SWAP1 DUP2 DUP2 MSTORE PUSH1 0x20 ADD DUP3 DUP1 SLOAD PUSH2 0x5D3 SWAP1 PUSH2 0x2E16 JUMP JUMPDEST DUP1 ISZERO PUSH2 0x61E JUMPI DUP1 PUSH1 0x1F LT PUSH2 0x5F5 JUMPI PUSH2 0x100 DUP1 DUP4 SLOAD DIV MUL DUP4 MSTORE SWAP2 PUSH1 0x20 ADD SWAP2 PUSH2 0x61E JUMP JUMPDEST DUP3 ADD SWAP2 SWAP1 PUSH0 MSTORE PUSH1 0x20 PUSH0 KECCAK256 SWAP1 JUMPDEST DUP2 SLOAD DUP2 MSTORE SWAP1 PUSH1 0x1 ADD SWAP1 PUSH1 0x20 ADD DUP1 DUP4 GT PUSH2 0x601 JUMPI DUP3 SWAP1 SUB PUSH1 0x1F AND DUP3 ADD SWAP2 JUMPDEST POP POP POP POP POP SWAP1 POP SWAP1 JUMP JUMPDEST PUSH0 DUP1 PUSH2 0x632 PUSH2 0x10E9 JUMP JUMPDEST SWAP1 POP PUSH2 0x63F DUP2 DUP6 DUP6 PUSH2 0x10F0 JUMP JUMPDEST PUSH1 0x1 SWAP2 POP POP SWAP3 SWAP2 POP POP JUMP JUMPDEST PUSH0 PUSH1 0x2 SLOAD SWAP1 POP SWAP1 JUMP JUMPDEST PUSH0 DUP1 PUSH2 0x65D PUSH2 0x10E9 JUMP JUMPDEST SWAP1 POP PUSH2 0x66A DUP6 DUP3 DUP6 PUSH2 0x12B3 JUMP JUMPDEST PUSH2 0x675 DUP6 DUP6 DUP6 PUSH2 0x133E JUMP JUMPDEST PUSH1 0x1 SWAP2 POP POP SWAP4 SWAP3 POP POP POP JUMP JUMPDEST PUSH0 PUSH1 0x12 SWAP1 POP SWAP1 JUMP JUMPDEST PUSH0 PUSH2 0x692 PUSH2 0x15AA JUMP JUMPDEST SWAP1 POP SWAP1 JUMP JUMPDEST PUSH0 DUP1 PUSH2 0x6A1 PUSH2 0x10E9 JUMP JUMPDEST SWAP1 POP PUSH2 0x6C2 DUP2 DUP6 DUP6 PUSH2 0x6B3 DUP6 DUP10 PUSH2 0xF34 JUMP JUMPDEST PUSH2 0x6BD SWAP2 SWAP1 PUSH2 0x2E73 JUMP JUMPDEST PUSH2 0x10F0 JUMP JUMPDEST PUSH1 0x1 SWAP2 POP POP SWAP3 SWAP2 POP POP JUMP JUMPDEST PUSH0 PUSH2 0x6D6 PUSH2 0xABE JUMP JUMPDEST PUSH6 0xFFFFFFFFFFFF AND DUP3 LT PUSH2 0x71F JUMPI PUSH1 0x40 MLOAD PUSH32 0x8C379A000000000000000000000000000000000000000000000000000000000 DUP2 MSTORE PUSH1 0x4 ADD PUSH2 0x716 SWAP1 PUSH2 0x2EF0 JUMP JUMPDEST PUSH1 0x40 MLOAD DUP1 SWAP2 SUB SWAP1 REVERT JUMPDEST PUSH2 0x765 PUSH1 0xA PUSH0 DUP6 PUSH20 0xFFFFFFFFFFFFFFFFFFFFFFFFFFFFFFFFFFFFFFFF AND PUSH20 0xFFFFFFFFFFFFFFFFFFFFFFFFFFFFFFFFFFFFFFFF AND DUP2 MSTORE PUSH1 0x20 ADD SWAP1 DUP2 MSTORE PUSH1 0x20 ADD PUSH0 KECCAK256 DUP4 PUSH2 0x1660 JUMP JUMPDEST SWAP1 POP SWAP3 SWAP2 POP POP JUMP JUMPDEST PUSH1 0x60 NUMBER PUSH2 0x778 PUSH2 0xABE JUMP JUMPDEST PUSH6 0xFFFFFFFFFFFF AND EQ PUSH2 0x7C0 JUMPI PUSH1 0x40 MLOAD PUSH32 0x8C379A000000000000000000000000000000000000000000000000000000000 DUP2 MSTORE PUSH1 0x4 ADD PUSH2 0x7B7 SWAP1 PUSH2 0x2F58 JUMP JUMPDEST PUSH1 0x40 MLOAD DUP1 SWAP2 SUB SWAP1 REVERT JUMPDEST PUSH1 0x40 MLOAD DUP1 PUSH1 0x40 ADD PUSH1 0x40 MSTORE DUP1 PUSH1 0x1D DUP2 MSTORE PUSH1 0x20 ADD PUSH32 0x6D6F64653D626C6F636B6E756D6265722666726F6D3D64656661756C74000000 DUP2 MSTORE POP SWAP1 POP SWAP1 JUMP JUMPDEST PUSH0 PUSH1 0x9 PUSH0 DUP4 PUSH20 0xFFFFFFFFFFFFFFFFFFFFFFFFFFFFFFFFFFFFFFFF AND PUSH20 0xFFFFFFFFFFFFFFFFFFFFFFFFFFFFFFFFFFFFFFFF AND DUP2 MSTORE PUSH1 0x20 ADD SWAP1 DUP2 MSTORE PUSH1 0x20 ADD PUSH0 KECCAK256 PUSH0 SWAP1 SLOAD SWAP1 PUSH2 0x100 EXP SWAP1 DIV PUSH20 0xFFFFFFFFFFFFFFFFFFFFFFFFFFFFFFFFFFFFFFFF AND SWAP1 POP SWAP2 SWAP1 POP JUMP JUMPDEST PUSH2 0x871 PUSH2 0x86B PUSH2 0x10E9 JUMP JUMPDEST DUP3 PUSH2 0x179D JUMP JUMPDEST POP JUMP JUMPDEST PUSH1 0xC SLOAD DUP2 JUMP JUMPDEST PUSH0 PUSH2 0x8C4 PUSH1 0xA PUSH0 DUP5 PUSH20 0xFFFFFFFFFFFFFFFFFFFFFFFFFFFFFFFFFFFFFFFF AND PUSH20 0xFFFFFFFFFFFFFFFFFFFFFFFFFFFFFFFFFFFFFFFF AND DUP2 MSTORE PUSH1 0x20 ADD SWAP1 DUP2 MSTORE PUSH1 0x20 ADD PUSH0 KECCAK256 DUP1 SLOAD SWAP1 POP PUSH2 0x18B2 JUMP JUMPDEST SWAP1 POP SWAP2 SWAP1 POP JUMP JUMPDEST PUSH0 DUP1 PUSH0 DUP4 PUSH20 0xFFFFFFFFFFFFFFFFFFFFFFFFFFFFFFFFFFFFFFFF AND PUSH20 0xFFFFFFFFFFFFFFFFFFFFFFFFFFFFFFFFFFFFFFFF AND DUP2 MSTORE PUSH1 0x20 ADD SWAP1 DUP2 MSTORE PUSH1 0x20 ADD PUSH0 KECCAK256 SLOAD SWAP1 POP SWAP2 SWAP1 POP JUMP JUMPDEST PUSH0 PUSH2 0x956 PUSH1 0x7 PUSH0 DUP5 PUSH20 0xFFFFFFFFFFFFFFFFFFFFFFFFFFFFFFFFFFFFFFFF AND PUSH20 0xFFFFFFFFFFFFFFFFFFFFFFFFFFFFFFFFFFFFFFFF AND DUP2 MSTORE PUSH1 0x20 ADD SWAP1 DUP2 MSTORE PUSH1 0x20 ADD PUSH0 KECCAK256 PUSH2 0x1904 JUMP JUMPDEST SWAP1 POP SWAP2 SWAP1 POP JUMP JUMPDEST PUSH0 PUSH1 0x60 DUP1 PUSH0 DUP1 PUSH0 PUSH1 0x60 PUSH2 0x99A PUSH1 0x5 PUSH32 0x0 PUSH2 0x1910 SWAP1 SWAP2 SWAP1 PUSH4 0xFFFFFFFF AND JUMP JUMPDEST PUSH2 0x9CE PUSH1 0x6 PUSH32 0x0 PUSH2 0x1910 SWAP1 SWAP2 SWAP1 PUSH4 0xFFFFFFFF AND JUMP JUMPDEST CHAINID ADDRESS PUSH0 DUP1 SHL PUSH0 PUSH8 0xFFFFFFFFFFFFFFFF DUP2 GT ISZERO PUSH2 0x9ED JUMPI PUSH2 0x9EC PUSH2 0x2F76 JUMP JUMPDEST JUMPDEST PUSH1 0x40 MLOAD SWAP1 DUP1 DUP3 MSTORE DUP1 PUSH1 0x20 MUL PUSH1 0x20 ADD DUP3 ADD PUSH1 0x40 MSTORE DUP1 ISZERO PUSH2 0xA1B JUMPI DUP2 PUSH1 0x20 ADD PUSH1 0x20 DUP3 MUL DUP1 CALLDATASIZE DUP4 CALLDATACOPY DUP1 DUP3 ADD SWAP2 POP POP SWAP1 POP JUMPDEST POP PUSH32 0xF00000000000000000000000000000000000000000000000000000000000000 SWAP6 SWAP5 SWAP4 SWAP3 SWAP2 SWAP1 SWAP7 POP SWAP7 POP SWAP7 POP SWAP7 POP SWAP7 POP SWAP7 POP SWAP7 POP SWAP1 SWAP2 SWAP3 SWAP4 SWAP5 SWAP6 SWAP7 JUMP JUMPDEST PUSH0 PUSH2 0xA63 PUSH2 0xABE JUMP JUMPDEST PUSH6 0xFFFFFFFFFFFF AND DUP3 LT PUSH2 0xAAC JUMPI PUSH1 0x40 MLOAD PUSH32 0x8C379A000000000000000000000000000000000000000000000000000000000 DUP2 MSTORE PUSH1 0x4 ADD PUSH2 0xAA3 SWAP1 PUSH2 0x2EF0 JUMP JUMPDEST PUSH1 0x40 MLOAD DUP1 SWAP2 SUB SWAP1 REVERT JUMPDEST PUSH2 0xAB7 PUSH1 0xB DUP4 PUSH2 0x1660 JUMP JUMPDEST SWAP1 POP SWAP2 SWAP1 POP JUMP JUMPDEST PUSH0 PUSH2 0xAC8 NUMBER PUSH2 0x19BD JUMP JUMPDEST SWAP1 POP SWAP1 JUMP JUMPDEST PUSH1 0x60 PUSH1 0x4 DUP1 SLOAD PUSH2 0xADC SWAP1 PUSH2 0x2E16 JUMP JUMPDEST DUP1 PUSH1 0x1F ADD PUSH1 0x20 DUP1 SWAP2 DIV MUL PUSH1 0x20 ADD PUSH1 0x40 MLOAD SWAP1 DUP2 ADD PUSH1 0x40 MSTORE DUP1 SWAP3 SWAP2 SWAP1 DUP2 DUP2 MSTORE PUSH1 0x20 ADD DUP3 DUP1 SLOAD PUSH2 0xB08 SWAP1 PUSH2 0x2E16 JUMP JUMPDEST DUP1 ISZERO PUSH2 0xB53 JUMPI DUP1 PUSH1 0x1F LT PUSH2 0xB2A JUMPI PUSH2 0x100 DUP1 DUP4 SLOAD DIV MUL DUP4 MSTORE SWAP2 PUSH1 0x20 ADD SWAP2 PUSH2 0xB53 JUMP JUMPDEST DUP3 ADD SWAP2 SWAP1 PUSH0 MSTORE PUSH1 0x20 PUSH0 KECCAK256 SWAP1 JUMPDEST DUP2 SLOAD DUP2 MSTORE SWAP1 PUSH1 0x1 ADD SWAP1 PUSH1 0x20 ADD DUP1 DUP4 GT PUSH2 0xB36 JUMPI DUP3 SWAP1 SUB PUSH1 0x1F AND DUP3 ADD SWAP2 JUMPDEST POP POP POP POP POP SWAP1 POP SWAP1 JUMP JUMPDEST PUSH0 DUP1 PUSH1 0xA PUSH0 DUP5 PUSH20 0xFFFFFFFFFFFFFFFFFFFFFFFFFFFFFFFFFFFFFFFF AND PUSH20 0xFFFFFFFFFFFFFFFFFFFFFFFFFFFFFFFFFFFFFFFF AND DUP2 MSTORE PUSH1 0x20 ADD SWAP1 DUP2 MSTORE PUSH1 0x20 ADD PUSH0 KECCAK256 DUP1 SLOAD SWAP1 POP SWAP1 POP PUSH0 DUP2 EQ PUSH2 0xC33 JUMPI PUSH1 0xA PUSH0 DUP5 PUSH20 0xFFFFFFFFFFFFFFFFFFFFFFFFFFFFFFFFFFFFFFFF AND PUSH20 0xFFFFFFFFFFFFFFFFFFFFFFFFFFFFFFFFFFFFFFFF AND DUP2 MSTORE PUSH1 0x20 ADD SWAP1 DUP2 MSTORE PUSH1 0x20 ADD PUSH0 KECCAK256 PUSH1 0x1 DUP3 SUB DUP2 SLOAD DUP2 LT PUSH2 0xBFB JUMPI PUSH2 0xBFA PUSH2 0x2FA3 JUMP JUMPDEST JUMPDEST SWAP1 PUSH0 MSTORE PUSH1 0x20 PUSH0 KECCAK256 ADD PUSH0 ADD PUSH1 0x4 SWAP1 SLOAD SWAP1 PUSH2 0x100 EXP SWAP1 DIV PUSH28 0xFFFFFFFFFFFFFFFFFFFFFFFFFFFFFFFFFFFFFFFFFFFFFFFFFFFFFFFF AND PUSH2 0xC35 JUMP JUMPDEST PUSH0 JUMPDEST PUSH28 0xFFFFFFFFFFFFFFFFFFFFFFFFFFFFFFFFFFFFFFFFFFFFFFFFFFFFFFFF AND SWAP2 POP POP SWAP2 SWAP1 POP JUMP JUMPDEST PUSH0 DUP1 PUSH2 0xC65 PUSH2 0x10E9 JUMP JUMPDEST SWAP1 POP PUSH0 PUSH2 0xC72 DUP3 DUP7 PUSH2 0xF34 JUMP JUMPDEST SWAP1 POP DUP4 DUP2 LT ISZERO PUSH2 0xCB7 JUMPI PUSH1 0x40 MLOAD PUSH32 0x8C379A000000000000000000000000000000000000000000000000000000000 DUP2 MSTORE PUSH1 0x4 ADD PUSH2 0xCAE SWAP1 PUSH2 0x3040 JUMP JUMPDEST PUSH1 0x40 MLOAD DUP1 SWAP2 SUB SWAP1 REVERT JUMPDEST PUSH2 0xCC4 DUP3 DUP7 DUP7 DUP5 SUB PUSH2 0x10F0 JUMP JUMPDEST PUSH1 0x1 SWAP3 POP POP POP SWAP3 SWAP2 POP POP JUMP JUMPDEST PUSH0 DUP1 PUSH2 0xCDA PUSH2 0x10E9 JUMP JUMPDEST SWAP1 POP PUSH2 0xCE7 DUP2 DUP6 DUP6 PUSH2 0x133E JUMP JUMPDEST PUSH1 0x1 SWAP2 POP POP SWAP3 SWAP2 POP POP JUMP JUMPDEST DUP4 TIMESTAMP GT ISZERO PUSH2 0xD35 JUMPI PUSH1 0x40 MLOAD PUSH32 0x8C379A000000000000000000000000000000000000000000000000000000000 DUP2 MSTORE PUSH1 0x4 ADD PUSH2 0xD2C SWAP1 PUSH2 0x30A8 JUMP JUMPDEST PUSH1 0x40 MLOAD DUP1 SWAP2 SUB SWAP1 REVERT JUMPDEST PUSH0 PUSH2 0xD96 PUSH2 0xD8E PUSH32 0xE48329057BFD03D55E49B547132E39CFFD9C1820AD7B9D4C5307691425D15ADF DUP10 DUP10 DUP10 PUSH1 0x40 MLOAD PUSH1 0x20 ADD PUSH2 0xD73 SWAP5 SWAP4 SWAP3 SWAP2 SWAP1 PUSH2 0x30C6 JUMP JUMPDEST PUSH1 0x40 MLOAD PUSH1 0x20 DUP2 DUP4 SUB SUB DUP2 MSTORE SWAP1 PUSH1 0x40 MSTORE DUP1 MLOAD SWAP1 PUSH1 0x20 ADD KECCAK256 PUSH2 0x1A11 JUMP JUMPDEST DUP6 DUP6 DUP6 PUSH2 0x1A2A JUMP JUMPDEST SWAP1 POP PUSH2 0xDA1 DUP2 PUSH2 0x1A53 JUMP JUMPDEST DUP7 EQ PUSH2 0xDE2 JUMPI PUSH1 0x40 MLOAD PUSH32 0x8C379A000000000000000000000000000000000000000000000000000000000 DUP2 MSTORE PUSH1 0x4 ADD PUSH2 0xDD9 SWAP1 PUSH2 0x3153 JUMP JUMPDEST PUSH1 0x40 MLOAD DUP1 SWAP2 SUB SWAP1 REVERT JUMPDEST PUSH2 0xDEC DUP2 DUP9 PUSH2 0x179D JUMP JUMPDEST POP POP POP POP POP POP POP JUMP JUMPDEST DUP4 TIMESTAMP GT ISZERO PUSH2 0xE38 JUMPI PUSH1 0x40 MLOAD PUSH32 0x8C379A000000000000000000000000000000000000000000000000000000000 DUP2 MSTORE PUSH1 0x4 ADD PUSH2 0xE2F SWAP1 PUSH2 0x31BB JUMP JUMPDEST PUSH1 0x40 MLOAD DUP1 SWAP2 SUB SWAP1 REVERT JUMPDEST PUSH0 PUSH32 0x6E71EDAE12B1B97F4D1F60370FEF10105FA2FAAE0126114A169C64845D6126C9 DUP9 DUP9 DUP9 PUSH2 0xE66 DUP13 PUSH2 0x1A53 JUMP JUMPDEST DUP10 PUSH1 0x40 MLOAD PUSH1 0x20 ADD PUSH2 0xE7C SWAP7 SWAP6 SWAP5 SWAP4 SWAP3 SWAP2 SWAP1 PUSH2 0x31D9 JUMP JUMPDEST PUSH1 0x40 MLOAD PUSH1 0x20 DUP2 DUP4 SUB SUB DUP2 MSTORE SWAP1 PUSH1 0x40 MSTORE DUP1 MLOAD SWAP1 PUSH1 0x20 ADD KECCAK256 SWAP1 POP PUSH0 PUSH2 0xE9E DUP3 PUSH2 0x1A11 JUMP JUMPDEST SWAP1 POP PUSH0 PUSH2 0xEAD DUP3 DUP8 DUP8 DUP8 PUSH2 0x1A2A JUMP JUMPDEST SWAP1 POP DUP10 PUSH20 0xFFFFFFFFFFFFFFFFFFFFFFFFFFFFFFFFFFFFFFFF AND DUP2 PUSH20 0xFFFFFFFFFFFFFFFFFFFFFFFFFFFFFFFFFFFFFFFF AND EQ PUSH2 0xF1D JUMPI PUSH1 0x40 MLOAD PUSH32 0x8C379A000000000000000000000000000000000000000000000000000000000 DUP2 MSTORE PUSH1 0x4 ADD PUSH2 0xF14 SWAP1 PUSH2 0x3282 JUMP JUMPDEST PUSH1 0x40 MLOAD DUP1 SWAP2 SUB SWAP1 REVERT JUMPDEST PUSH2 0xF28 DUP11 DUP11 DUP11 PUSH2 0x10F0 JUMP JUMPDEST POP POP POP POP POP POP POP POP POP POP JUMP JUMPDEST PUSH0 PUSH1 0x1 PUSH0 DUP5 PUSH20 0xFFFFFFFFFFFFFFFFFFFFFFFFFFFFFFFFFFFFFFFF AND PUSH20 0xFFFFFFFFFFFFFFFFFFFFFFFFFFFFFFFFFFFFFFFF AND DUP2 MSTORE PUSH1 0x20 ADD SWAP1 DUP2 MSTORE PUSH1 0x20 ADD PUSH0 KECCAK256 PUSH0 DUP4 PUSH20 0xFFFFFFFFFFFFFFFFFFFFFFFFFFFFFFFFFFFFFFFF AND PUSH20 0xFFFFFFFFFFFFFFFFFFFFFFFFFFFFFFFFFFFFFFFF AND DUP2 MSTORE PUSH1 0x20 ADD SWAP1 DUP2 MSTORE PUSH1 0x20 ADD PUSH0 KECCAK256 SLOAD SWAP1 POP SWAP3 SWAP2 POP POP JUMP JUMPDEST PUSH2 0xFBE PUSH2 0x2618 JUMP JUMPDEST PUSH1 0xA PUSH0 DUP5 PUSH20 0xFFFFFFFFFFFFFFFFFFFFFFFFFFFFFFFFFFFFFFFF AND PUSH20 0xFFFFFFFFFFFFFFFFFFFFFFFFFFFFFFFFFFFFFFFF AND DUP2 MSTORE PUSH1 0x20 ADD SWAP1 DUP2 MSTORE PUSH1 0x20 ADD PUSH0 KECCAK256 DUP3 PUSH4 0xFFFFFFFF AND DUP2 SLOAD DUP2 LT PUSH2 0x1013 JUMPI PUSH2 0x1012 PUSH2 0x2FA3 JUMP JUMPDEST JUMPDEST SWAP1 PUSH0 MSTORE PUSH1 0x20 PUSH0 KECCAK256 ADD PUSH1 0x40 MLOAD DUP1 PUSH1 0x40 ADD PUSH1 0x40 MSTORE SWAP1 DUP2 PUSH0 DUP3 ADD PUSH0 SWAP1 SLOAD SWAP1 PUSH2 0x100 EXP SWAP1 DIV PUSH4 0xFFFFFFFF AND PUSH4 0xFFFFFFFF AND PUSH4 0xFFFFFFFF AND DUP2 MSTORE PUSH1 0x20 ADD PUSH0 DUP3 ADD PUSH1 0x4 SWAP1 SLOAD SWAP1 PUSH2 0x100 EXP SWAP1 DIV PUSH28 0xFFFFFFFFFFFFFFFFFFFFFFFFFFFFFFFFFFFFFFFFFFFFFFFFFFFFFFFF AND PUSH28 0xFFFFFFFFFFFFFFFFFFFFFFFFFFFFFFFFFFFFFFFFFFFFFFFFFFFFFFFF AND PUSH28 0xFFFFFFFFFFFFFFFFFFFFFFFFFFFFFFFFFFFFFFFFFFFFFFFFFFFFFFFF AND DUP2 MSTORE POP POP SWAP1 POP SWAP3 SWAP2 POP POP JUMP JUMPDEST PUSH0 DUP2 DUP4 PUSH2 0x10CC SWAP2 SWAP1 PUSH2 0x2E73 JUMP JUMPDEST SWAP1 POP SWAP3 SWAP2 POP POP JUMP JUMPDEST PUSH0 DUP2 DUP4 PUSH2 0x10E1 SWAP2 SWAP1 PUSH2 0x32A0 JUMP JUMPDEST SWAP1 POP SWAP3 SWAP2 POP POP JUMP JUMPDEST PUSH0 CALLER SWAP1 POP SWAP1 JUMP JUMPDEST PUSH0 PUSH20 0xFFFFFFFFFFFFFFFFFFFFFFFFFFFFFFFFFFFFFFFF AND DUP4 PUSH20 0xFFFFFFFFFFFFFFFFFFFFFFFFFFFFFFFFFFFFFFFF AND SUB PUSH2 0x115E JUMPI PUSH1 0x40 MLOAD PUSH32 0x8C379A000000000000000000000000000000000000000000000000000000000 DUP2 MSTORE PUSH1 0x4 ADD PUSH2 0x1155 SWAP1 PUSH2 0x3343 JUMP JUMPDEST PUSH1 0x40 MLOAD DUP1 SWAP2 SUB SWAP1 REVERT JUMPDEST PUSH0 PUSH20 0xFFFFFFFFFFFFFFFFFFFFFFFFFFFFFFFFFFFFFFFF AND DUP3 PUSH20 0xFFFFFFFFFFFFFFFFFFFFFFFFFFFFFFFFFFFFFFFF AND SUB PUSH2 0x11CC JUMPI PUSH1 0x40 MLOAD PUSH32 0x8C379A000000000000000000000000000000000000000000000000000000000 DUP2 MSTORE PUSH1 0x4 ADD PUSH2 0x11C3 SWAP1 PUSH2 0x33D1 JUMP JUMPDEST PUSH1 0x40 MLOAD DUP1 SWAP2 SUB SWAP1 REVERT JUMPDEST DUP1 PUSH1 0x1 PUSH0 DUP6 PUSH20 0xFFFFFFFFFFFFFFFFFFFFFFFFFFFFFFFFFFFFFFFF AND PUSH20 0xFFFFFFFFFFFFFFFFFFFFFFFFFFFFFFFFFFFFFFFF AND DUP2 MSTORE PUSH1 0x20 ADD SWAP1 DUP2 MSTORE PUSH1 0x20 ADD PUSH0 KECCAK256 PUSH0 DUP5 PUSH20 0xFFFFFFFFFFFFFFFFFFFFFFFFFFFFFFFFFFFFFFFF AND PUSH20 0xFFFFFFFFFFFFFFFFFFFFFFFFFFFFFFFFFFFFFFFF AND DUP2 MSTORE PUSH1 0x20 ADD SWAP1 DUP2 MSTORE PUSH1 0x20 ADD PUSH0 KECCAK256 DUP2 SWAP1 SSTORE POP DUP2 PUSH20 0xFFFFFFFFFFFFFFFFFFFFFFFFFFFFFFFFFFFFFFFF AND DUP4 PUSH20 0xFFFFFFFFFFFFFFFFFFFFFFFFFFFFFFFFFFFFFFFF AND PUSH32 0x8C5BE1E5EBEC7D5BD14F71427D1E84F3DD0314C0F7B2291E5B200AC8C7C3B925 DUP4 PUSH1 0x40 MLOAD PUSH2 0x12A6 SWAP2 SWAP1 PUSH2 0x280F JUMP JUMPDEST PUSH1 0x40 MLOAD DUP1 SWAP2 SUB SWAP1 LOG3 POP POP POP JUMP JUMPDEST PUSH0 PUSH2 0x12BE DUP5 DUP5 PUSH2 0xF34 JUMP JUMPDEST SWAP1 POP PUSH32 0xFFFFFFFFFFFFFFFFFFFFFFFFFFFFFFFFFFFFFFFFFFFFFFFFFFFFFFFFFFFFFFFF DUP2 EQ PUSH2 0x1338 JUMPI DUP2 DUP2 LT ISZERO PUSH2 0x132A JUMPI PUSH1 0x40 MLOAD PUSH32 0x8C379A000000000000000000000000000000000000000000000000000000000 DUP2 MSTORE PUSH1 0x4 ADD PUSH2 0x1321 SWAP1 PUSH2 0x3439 JUMP JUMPDEST PUSH1 0x40 MLOAD DUP1 SWAP2 SUB SWAP1 REVERT JUMPDEST PUSH2 0x1337 DUP5 DUP5 DUP5 DUP5 SUB PUSH2 0x10F0 JUMP JUMPDEST JUMPDEST POP POP POP POP JUMP JUMPDEST PUSH0 PUSH20 0xFFFFFFFFFFFFFFFFFFFFFFFFFFFFFFFFFFFFFFFF AND DUP4 PUSH20 0xFFFFFFFFFFFFFFFFFFFFFFFFFFFFFFFFFFFFFFFF AND SUB PUSH2 0x13AC JUMPI PUSH1 0x40 MLOAD PUSH32 0x8C379A000000000000000000000000000000000000000000000000000000000 DUP2 MSTORE PUSH1 0x4 ADD PUSH2 0x13A3 SWAP1 PUSH2 0x34C7 JUMP JUMPDEST PUSH1 0x40 MLOAD DUP1 SWAP2 SUB SWAP1 REVERT JUMPDEST PUSH0 PUSH20 0xFFFFFFFFFFFFFFFFFFFFFFFFFFFFFFFFFFFFFFFF AND DUP3 PUSH20 0xFFFFFFFFFFFFFFFFFFFFFFFFFFFFFFFFFFFFFFFF AND SUB PUSH2 0x141A JUMPI PUSH1 0x40 MLOAD PUSH32 0x8C379A000000000000000000000000000000000000000000000000000000000 DUP2 MSTORE PUSH1 0x4 ADD PUSH2 0x1411 SWAP1 PUSH2 0x3555 JUMP JUMPDEST PUSH1 0x40 MLOAD DUP1 SWAP2 SUB SWAP1 REVERT JUMPDEST PUSH2 0x1425 DUP4 DUP4 DUP4 PUSH2 0x1AAE JUMP JUMPDEST PUSH0 DUP1 PUSH0 DUP6 PUSH20 0xFFFFFFFFFFFFFFFFFFFFFFFFFFFFFFFFFFFFFFFF AND PUSH20 0xFFFFFFFFFFFFFFFFFFFFFFFFFFFFFFFFFFFFFFFF AND DUP2 MSTORE PUSH1 0x20 ADD SWAP1 DUP2 MSTORE PUSH1 0x20 ADD PUSH0 KECCAK256 SLOAD SWAP1 POP DUP2 DUP2 LT ISZERO PUSH2 0x14A8 JUMPI PUSH1 0x40 MLOAD PUSH32 0x8C379A000000000000000000000000000000000000000000000000000000000 DUP2 MSTORE PUSH1 0x4 ADD PUSH2 0x149F SWAP1 PUSH2 0x35E3 JUMP JUMPDEST PUSH1 0x40 MLOAD DUP1 SWAP2 SUB SWAP1 REVERT JUMPDEST DUP2 DUP2 SUB PUSH0 DUP1 DUP7 PUSH20 0xFFFFFFFFFFFFFFFFFFFFFFFFFFFFFFFFFFFFFFFF AND PUSH20 0xFFFFFFFFFFFFFFFFFFFFFFFFFFFFFFFFFFFFFFFF AND DUP2 MSTORE PUSH1 0x20 ADD SWAP1 DUP2 MSTORE PUSH1 0x20 ADD PUSH0 KECCAK256 DUP2 SWAP1 SSTORE POP DUP2 PUSH0 DUP1 DUP6 PUSH20 0xFFFFFFFFFFFFFFFFFFFFFFFFFFFFFFFFFFFFFFFF AND PUSH20 0xFFFFFFFFFFFFFFFFFFFFFFFFFFFFFFFFFFFFFFFF AND DUP2 MSTORE PUSH1 0x20 ADD SWAP1 DUP2 MSTORE PUSH1 0x20 ADD PUSH0 KECCAK256 PUSH0 DUP3 DUP3 SLOAD ADD SWAP3 POP POP DUP2 SWAP1 SSTORE POP DUP3 PUSH20 0xFFFFFFFFFFFFFFFFFFFFFFFFFFFFFFFFFFFFFFFF AND DUP5 PUSH20 0xFFFFFFFFFFFFFFFFFFFFFFFFFFFFFFFFFFFFFFFF AND PUSH32 0xDDF252AD1BE2C89B69C2B068FC378DAA952BA7F163C4A11628F55A4DF523B3EF DUP5 PUSH1 0x40 MLOAD PUSH2 0x1591 SWAP2 SWAP1 PUSH2 0x280F JUMP JUMPDEST PUSH1 0x40 MLOAD DUP1 SWAP2 SUB SWAP1 LOG3 PUSH2 0x15A4 DUP5 DUP5 DUP5 PUSH2 0x1AB3 JUMP JUMPDEST POP POP POP POP JUMP JUMPDEST PUSH0 PUSH32 0x0 PUSH20 0xFFFFFFFFFFFFFFFFFFFFFFFFFFFFFFFFFFFFFFFF AND ADDRESS PUSH20 0xFFFFFFFFFFFFFFFFFFFFFFFFFFFFFFFFFFFFFFFF AND EQ DUP1 ISZERO PUSH2 0x1625 JUMPI POP PUSH32 0x0 CHAINID EQ JUMPDEST ISZERO PUSH2 0x1652 JUMPI PUSH32 0x0 SWAP1 POP PUSH2 0x165D JUMP JUMPDEST PUSH2 0x165A PUSH2 0x1AC3 JUMP JUMPDEST SWAP1 POP JUMPDEST SWAP1 JUMP JUMPDEST PUSH0 DUP1 DUP4 DUP1 SLOAD SWAP1 POP SWAP1 POP PUSH0 DUP1 DUP3 SWAP1 POP PUSH1 0x5 DUP4 GT ISZERO PUSH2 0x16D1 JUMPI PUSH0 PUSH2 0x1681 DUP5 PUSH2 0x1B58 JUMP JUMPDEST DUP5 PUSH2 0x168C SWAP2 SWAP1 PUSH2 0x32A0 JUMP JUMPDEST SWAP1 POP DUP6 PUSH2 0x1699 DUP9 DUP4 PUSH2 0x1C4E JUMP JUMPDEST PUSH0 ADD PUSH0 SWAP1 SLOAD SWAP1 PUSH2 0x100 EXP SWAP1 DIV PUSH4 0xFFFFFFFF AND PUSH4 0xFFFFFFFF AND GT ISZERO PUSH2 0x16BF JUMPI DUP1 SWAP2 POP PUSH2 0x16CF JUMP JUMPDEST PUSH1 0x1 DUP2 PUSH2 0x16CC SWAP2 SWAP1 PUSH2 0x2E73 JUMP JUMPDEST SWAP3 POP JUMPDEST POP JUMPDEST JUMPDEST DUP1 DUP3 LT ISZERO PUSH2 0x172E JUMPI PUSH0 PUSH2 0x16E5 DUP4 DUP4 PUSH2 0x1C60 JUMP JUMPDEST SWAP1 POP DUP6 PUSH2 0x16F2 DUP9 DUP4 PUSH2 0x1C4E JUMP JUMPDEST PUSH0 ADD PUSH0 SWAP1 SLOAD SWAP1 PUSH2 0x100 EXP SWAP1 DIV PUSH4 0xFFFFFFFF AND PUSH4 0xFFFFFFFF AND GT ISZERO PUSH2 0x1718 JUMPI DUP1 SWAP2 POP PUSH2 0x1728 JUMP JUMPDEST PUSH1 0x1 DUP2 PUSH2 0x1725 SWAP2 SWAP1 PUSH2 0x2E73 JUMP JUMPDEST SWAP3 POP JUMPDEST POP PUSH2 0x16D2 JUMP JUMPDEST PUSH0 DUP2 EQ PUSH2 0x1772 JUMPI PUSH2 0x1742 DUP7 PUSH1 0x1 DUP4 SUB PUSH2 0x1C4E JUMP JUMPDEST PUSH0 ADD PUSH1 0x4 SWAP1 SLOAD SWAP1 PUSH2 0x100 EXP SWAP1 DIV PUSH28 0xFFFFFFFFFFFFFFFFFFFFFFFFFFFFFFFFFFFFFFFFFFFFFFFFFFFFFFFF AND PUSH2 0x1774 JUMP JUMPDEST PUSH0 JUMPDEST PUSH28 0xFFFFFFFFFFFFFFFFFFFFFFFFFFFFFFFFFFFFFFFFFFFFFFFFFFFFFFFF AND SWAP4 POP POP POP POP SWAP3 SWAP2 POP POP JUMP JUMPDEST PUSH0 PUSH2 0x17A7 DUP4 PUSH2 0x7FB JUMP JUMPDEST SWAP1 POP PUSH0 PUSH2 0x17B3 DUP5 PUSH2 0x8CB JUMP JUMPDEST SWAP1 POP DUP3 PUSH1 0x9 PUSH0 DUP7 PUSH20 0xFFFFFFFFFFFFFFFFFFFFFFFFFFFFFFFFFFFFFFFF AND PUSH20 0xFFFFFFFFFFFFFFFFFFFFFFFFFFFFFFFFFFFFFFFF AND DUP2 MSTORE PUSH1 0x20 ADD SWAP1 DUP2 MSTORE PUSH1 0x20 ADD PUSH0 KECCAK256 PUSH0 PUSH2 0x100 EXP DUP2 SLOAD DUP2 PUSH20 0xFFFFFFFFFFFFFFFFFFFFFFFFFFFFFFFFFFFFFFFF MUL NOT AND SWAP1 DUP4 PUSH20 0xFFFFFFFFFFFFFFFFFFFFFFFFFFFFFFFFFFFFFFFF AND MUL OR SWAP1 SSTORE POP DUP3 PUSH20 0xFFFFFFFFFFFFFFFFFFFFFFFFFFFFFFFFFFFFFFFF AND DUP3 PUSH20 0xFFFFFFFFFFFFFFFFFFFFFFFFFFFFFFFFFFFFFFFF AND DUP6 PUSH20 0xFFFFFFFFFFFFFFFFFFFFFFFFFFFFFFFFFFFFFFFF AND PUSH32 0x3134E8A2E6D97E929A7E54011EA5485D7D196DD5F0BA4D4EF95803E8E3FC257F PUSH1 0x40 MLOAD PUSH1 0x40 MLOAD DUP1 SWAP2 SUB SWAP1 LOG4 PUSH2 0x18AC DUP3 DUP5 DUP4 PUSH2 0x1C85 JUMP JUMPDEST POP POP POP POP JUMP JUMPDEST PUSH0 PUSH4 0xFFFFFFFF DUP1 AND DUP3 GT ISZERO PUSH2 0x18FC JUMPI PUSH1 0x40 MLOAD PUSH32 0x8C379A000000000000000000000000000000000000000000000000000000000 DUP2 MSTORE PUSH1 0x4 ADD PUSH2 0x18F3 SWAP1 PUSH2 0x3671 JUMP JUMPDEST PUSH1 0x40 MLOAD DUP1 SWAP2 SUB SWAP1 REVERT JUMPDEST DUP2 SWAP1 POP SWAP2 SWAP1 POP JUMP JUMPDEST PUSH0 DUP2 PUSH0 ADD SLOAD SWAP1 POP SWAP2 SWAP1 POP JUMP JUMPDEST PUSH1 0x60 PUSH1 0xFF PUSH0 SHL DUP4 EQ PUSH2 0x192C JUMPI PUSH2 0x1925 DUP4 PUSH2 0x1E75 JUMP JUMPDEST SWAP1 POP PUSH2 0x19B7 JUMP JUMPDEST DUP2 DUP1 SLOAD PUSH2 0x1938 SWAP1 PUSH2 0x2E16 JUMP JUMPDEST DUP1 PUSH1 0x1F ADD PUSH1 0x20 DUP1 SWAP2 DIV MUL PUSH1 0x20 ADD PUSH1 0x40 MLOAD SWAP1 DUP2 ADD PUSH1 0x40 MSTORE DUP1 SWAP3 SWAP2 SWAP1 DUP2 DUP2 MSTORE PUSH1 0x20 ADD DUP3 DUP1 SLOAD PUSH2 0x1964 SWAP1 PUSH2 0x2E16 JUMP JUMPDEST DUP1 ISZERO PUSH2 0x19AF JUMPI DUP1 PUSH1 0x1F LT PUSH2 0x1986 JUMPI PUSH2 0x100 DUP1 DUP4 SLOAD DIV MUL DUP4 MSTORE SWAP2 PUSH1 0x20 ADD SWAP2 PUSH2 0x19AF JUMP JUMPDEST DUP3 ADD SWAP2 SWAP1 PUSH0 MSTORE PUSH1 0x20 PUSH0 KECCAK256 SWAP1 JUMPDEST DUP2 SLOAD DUP2 MSTORE SWAP1 PUSH1 0x1 ADD SWAP1 PUSH1 0x20 ADD DUP1 DUP4 GT PUSH2 0x1992 JUMPI DUP3 SWAP1 SUB PUSH1 0x1F AND DUP3 ADD SWAP2 JUMPDEST POP POP POP POP POP SWAP1 POP JUMPDEST SWAP3 SWAP2 POP POP JUMP JUMPDEST PUSH0 PUSH6 0xFFFFFFFFFFFF DUP1 AND DUP3 GT ISZERO PUSH2 0x1A09 JUMPI PUSH1 0x40 MLOAD PUSH32 0x8C379A000000000000000000000000000000000000000000000000000000000 DUP2 MSTORE PUSH1 0x4 ADD PUSH2 0x1A00 SWAP1 PUSH2 0x36FF JUMP JUMPDEST PUSH1 0x40 MLOAD DUP1 SWAP2 SUB SWAP1 REVERT JUMPDEST DUP2 SWAP1 POP SWAP2 SWAP1 POP JUMP JUMPDEST PUSH0 PUSH2 0x1A23 PUSH2 0x1A1D PUSH2 0x15AA JUMP JUMPDEST DUP4 PUSH2 0x1EE7 JUMP JUMPDEST SWAP1 POP SWAP2 SWAP1 POP JUMP JUMPDEST PUSH0 DUP1 PUSH0 PUSH2 0x1A39 DUP8 DUP8 DUP8 DUP8 PUSH2 0x1F27 JUMP JUMPDEST SWAP2 POP SWAP2 POP PUSH2 0x1A46 DUP2 PUSH2 0x1FFF JUMP JUMPDEST DUP2 SWAP3 POP POP POP SWAP5 SWAP4 POP POP POP POP JUMP JUMPDEST PUSH0 DUP1 PUSH1 0x7 PUSH0 DUP5 PUSH20 0xFFFFFFFFFFFFFFFFFFFFFFFFFFFFFFFFFFFFFFFF AND PUSH20 0xFFFFFFFFFFFFFFFFFFFFFFFFFFFFFFFFFFFFFFFF AND DUP2 MSTORE PUSH1 0x20 ADD SWAP1 DUP2 MSTORE PUSH1 0x20 ADD PUSH0 KECCAK256 SWAP1 POP PUSH2 0x1A9D DUP2 PUSH2 0x1904 JUMP JUMPDEST SWAP2 POP PUSH2 0x1AA8 DUP2 PUSH2 0x2164 JUMP JUMPDEST POP SWAP2 SWAP1 POP JUMP JUMPDEST POP POP POP JUMP JUMPDEST PUSH2 0x1ABE DUP4 DUP4 DUP4 PUSH2 0x2178 JUMP JUMPDEST POP POP POP JUMP JUMPDEST PUSH0 PUSH32 0x8B73C3C69BB8FE3D512ECC4CF759CC79239F7B179B0FFACAA9A75D522B39400F PUSH32 0x0 PUSH32 0x0 CHAINID ADDRESS PUSH1 0x40 MLOAD PUSH1 0x20 ADD PUSH2 0x1B3D SWAP6 SWAP5 SWAP4 SWAP3 SWAP2 SWAP1 PUSH2 0x371D JUMP JUMPDEST PUSH1 0x40 MLOAD PUSH1 0x20 DUP2 DUP4 SUB SUB DUP2 MSTORE SWAP1 PUSH1 0x40 MSTORE DUP1 MLOAD SWAP1 PUSH1 0x20 ADD KECCAK256 SWAP1 POP SWAP1 JUMP JUMPDEST PUSH0 DUP1 DUP3 SUB PUSH2 0x1B68 JUMPI PUSH0 SWAP1 POP PUSH2 0x1C49 JUMP JUMPDEST PUSH0 PUSH1 0x1 PUSH2 0x1B74 DUP5 PUSH2 0x21A3 JUMP JUMPDEST SWAP1 SHR PUSH1 0x1 SWAP1 SHL SWAP1 POP PUSH1 0x1 DUP2 DUP5 DUP2 PUSH2 0x1B8E JUMPI PUSH2 0x1B8D PUSH2 0x376E JUMP JUMPDEST JUMPDEST DIV DUP3 ADD SWAP1 SHR SWAP1 POP PUSH1 0x1 DUP2 DUP5 DUP2 PUSH2 0x1BA7 JUMPI PUSH2 0x1BA6 PUSH2 0x376E JUMP JUMPDEST JUMPDEST DIV DUP3 ADD SWAP1 SHR SWAP1 POP PUSH1 0x1 DUP2 DUP5 DUP2 PUSH2 0x1BC0 JUMPI PUSH2 0x1BBF PUSH2 0x376E JUMP JUMPDEST JUMPDEST DIV DUP3 ADD SWAP1 SHR SWAP1 POP PUSH1 0x1 DUP2 DUP5 DUP2 PUSH2 0x1BD9 JUMPI PUSH2 0x1BD8 PUSH2 0x376E JUMP JUMPDEST JUMPDEST DIV DUP3 ADD SWAP1 SHR SWAP1 POP PUSH1 0x1 DUP2 DUP5 DUP2 PUSH2 0x1BF2 JUMPI PUSH2 0x1BF1 PUSH2 0x376E JUMP JUMPDEST JUMPDEST DIV DUP3 ADD SWAP1 SHR SWAP1 POP PUSH1 0x1 DUP2 DUP5 DUP2 PUSH2 0x1C0B JUMPI PUSH2 0x1C0A PUSH2 0x376E JUMP JUMPDEST JUMPDEST DIV DUP3 ADD SWAP1 SHR SWAP1 POP PUSH1 0x1 DUP2 DUP5 DUP2 PUSH2 0x1C24 JUMPI PUSH2 0x1C23 PUSH2 0x376E JUMP JUMPDEST JUMPDEST DIV DUP3 ADD SWAP1 SHR SWAP1 POP PUSH2 0x1C45 DUP2 DUP3 DUP6 DUP2 PUSH2 0x1C3F JUMPI PUSH2 0x1C3E PUSH2 0x376E JUMP JUMPDEST JUMPDEST DIV PUSH2 0x227A JUMP JUMPDEST SWAP2 POP POP JUMPDEST SWAP2 SWAP1 POP JUMP JUMPDEST PUSH0 DUP3 PUSH0 MSTORE DUP2 PUSH1 0x20 PUSH0 KECCAK256 ADD SWAP1 POP SWAP3 SWAP2 POP POP JUMP JUMPDEST PUSH0 PUSH1 0x2 DUP3 DUP5 XOR PUSH2 0x1C70 SWAP2 SWAP1 PUSH2 0x379B JUMP JUMPDEST DUP3 DUP5 AND PUSH2 0x1C7D SWAP2 SWAP1 PUSH2 0x2E73 JUMP JUMPDEST SWAP1 POP SWAP3 SWAP2 POP POP JUMP JUMPDEST DUP2 PUSH20 0xFFFFFFFFFFFFFFFFFFFFFFFFFFFFFFFFFFFFFFFF AND DUP4 PUSH20 0xFFFFFFFFFFFFFFFFFFFFFFFFFFFFFFFFFFFFFFFF AND EQ ISZERO DUP1 ISZERO PUSH2 0x1CC0 JUMPI POP PUSH0 DUP2 GT JUMPDEST ISZERO PUSH2 0x1E70 JUMPI PUSH0 PUSH20 0xFFFFFFFFFFFFFFFFFFFFFFFFFFFFFFFFFFFFFFFF AND DUP4 PUSH20 0xFFFFFFFFFFFFFFFFFFFFFFFFFFFFFFFFFFFFFFFF AND EQ PUSH2 0x1D9A JUMPI PUSH0 DUP1 PUSH2 0x1D43 PUSH1 0xA PUSH0 DUP8 PUSH20 0xFFFFFFFFFFFFFFFFFFFFFFFFFFFFFFFFFFFFFFFF AND PUSH20 0xFFFFFFFFFFFFFFFFFFFFFFFFFFFFFFFFFFFFFFFF AND DUP2 MSTORE PUSH1 0x20 ADD SWAP1 DUP2 MSTORE PUSH1 0x20 ADD PUSH0 KECCAK256 PUSH2 0x10D4 DUP6 PUSH2 0x2292 JUMP JUMPDEST SWAP2 POP SWAP2 POP DUP5 PUSH20 0xFFFFFFFFFFFFFFFFFFFFFFFFFFFFFFFFFFFFFFFF AND PUSH32 0xDEC2BACDD2F05B59DE34DA9B523DFF8BE42E5E38E818C82FDB0BAE774387A724 DUP4 DUP4 PUSH1 0x40 MLOAD PUSH2 0x1D8F SWAP3 SWAP2 SWAP1 PUSH2 0x37CB JUMP JUMPDEST PUSH1 0x40 MLOAD DUP1 SWAP2 SUB SWAP1 LOG2 POP POP JUMPDEST PUSH0 PUSH20 0xFFFFFFFFFFFFFFFFFFFFFFFFFFFFFFFFFFFFFFFF AND DUP3 PUSH20 0xFFFFFFFFFFFFFFFFFFFFFFFFFFFFFFFFFFFFFFFF AND EQ PUSH2 0x1E6F JUMPI PUSH0 DUP1 PUSH2 0x1E18 PUSH1 0xA PUSH0 DUP7 PUSH20 0xFFFFFFFFFFFFFFFFFFFFFFFFFFFFFFFFFFFFFFFF AND PUSH20 0xFFFFFFFFFFFFFFFFFFFFFFFFFFFFFFFFFFFFFFFF AND DUP2 MSTORE PUSH1 0x20 ADD SWAP1 DUP2 MSTORE PUSH1 0x20 ADD PUSH0 KECCAK256 PUSH2 0x10BF DUP6 PUSH2 0x2292 JUMP JUMPDEST SWAP2 POP SWAP2 POP DUP4 PUSH20 0xFFFFFFFFFFFFFFFFFFFFFFFFFFFFFFFFFFFFFFFF AND PUSH32 0xDEC2BACDD2F05B59DE34DA9B523DFF8BE42E5E38E818C82FDB0BAE774387A724 DUP4 DUP4 PUSH1 0x40 MLOAD PUSH2 0x1E64 SWAP3 SWAP2 SWAP1 PUSH2 0x37CB JUMP JUMPDEST PUSH1 0x40 MLOAD DUP1 SWAP2 SUB SWAP1 LOG2 POP POP JUMPDEST JUMPDEST POP POP POP JUMP JUMPDEST PUSH1 0x60 PUSH0 PUSH2 0x1E81 DUP4 PUSH2 0x255B JUMP JUMPDEST SWAP1 POP PUSH0 PUSH1 0x20 PUSH8 0xFFFFFFFFFFFFFFFF DUP2 GT ISZERO PUSH2 0x1E9F JUMPI PUSH2 0x1E9E PUSH2 0x2F76 JUMP JUMPDEST JUMPDEST PUSH1 0x40 MLOAD SWAP1 DUP1 DUP3 MSTORE DUP1 PUSH1 0x1F ADD PUSH1 0x1F NOT AND PUSH1 0x20 ADD DUP3 ADD PUSH1 0x40 MSTORE DUP1 ISZERO PUSH2 0x1ED1 JUMPI DUP2 PUSH1 0x20 ADD PUSH1 0x1 DUP3 MUL DUP1 CALLDATASIZE DUP4 CALLDATACOPY DUP1 DUP3 ADD SWAP2 POP POP SWAP1 POP JUMPDEST POP SWAP1 POP DUP2 DUP2 MSTORE DUP4 PUSH1 0x20 DUP3 ADD MSTORE DUP1 SWAP3 POP POP POP SWAP2 SWAP1 POP JUMP JUMPDEST PUSH0 PUSH1 0x40 MLOAD PUSH32 0x1901000000000000000000000000000000000000000000000000000000000000 DUP2 MSTORE DUP4 PUSH1 0x2 DUP3 ADD MSTORE DUP3 PUSH1 0x22 DUP3 ADD MSTORE PUSH1 0x42 DUP2 KECCAK256 SWAP2 POP POP SWAP3 SWAP2 POP POP JUMP JUMPDEST PUSH0 DUP1 PUSH32 0x7FFFFFFFFFFFFFFFFFFFFFFFFFFFFFFF5D576E7357A4501DDFE92F46681B20A0 DUP4 PUSH0 SHR GT ISZERO PUSH2 0x1F5F JUMPI PUSH0 PUSH1 0x3 SWAP2 POP SWAP2 POP PUSH2 0x1FF6 JUMP JUMPDEST PUSH0 PUSH1 0x1 DUP8 DUP8 DUP8 DUP8 PUSH1 0x40 MLOAD PUSH0 DUP2 MSTORE PUSH1 0x20 ADD PUSH1 0x40 MSTORE PUSH1 0x40 MLOAD PUSH2 0x1F82 SWAP5 SWAP4 SWAP3 SWAP2 SWAP1 PUSH2 0x37F2 JUMP JUMPDEST PUSH1 0x20 PUSH1 0x40 MLOAD PUSH1 0x20 DUP2 SUB SWAP1 DUP1 DUP5 SUB SWAP1 DUP6 GAS STATICCALL ISZERO DUP1 ISZERO PUSH2 0x1FA2 JUMPI RETURNDATASIZE PUSH0 DUP1 RETURNDATACOPY RETURNDATASIZE PUSH0 REVERT JUMPDEST POP POP POP PUSH1 0x20 PUSH1 0x40 MLOAD SUB MLOAD SWAP1 POP PUSH0 PUSH20 0xFFFFFFFFFFFFFFFFFFFFFFFFFFFFFFFFFFFFFFFF AND DUP2 PUSH20 0xFFFFFFFFFFFFFFFFFFFFFFFFFFFFFFFFFFFFFFFF AND SUB PUSH2 0x1FEE JUMPI PUSH0 PUSH1 0x1 SWAP3 POP SWAP3 POP POP PUSH2 0x1FF6 JUMP JUMPDEST DUP1 PUSH0 SWAP3 POP SWAP3 POP POP JUMPDEST SWAP5 POP SWAP5 SWAP3 POP POP POP JUMP JUMPDEST PUSH0 PUSH1 0x4 DUP2 GT ISZERO PUSH2 0x2012 JUMPI PUSH2 0x2011 PUSH2 0x3835 JUMP JUMPDEST JUMPDEST DUP2 PUSH1 0x4 DUP2 GT ISZERO PUSH2 0x2025 JUMPI PUSH2 0x2024 PUSH2 0x3835 JUMP JUMPDEST JUMPDEST SUB ISZERO PUSH2 0x2161 JUMPI PUSH1 0x1 PUSH1 0x4 DUP2 GT ISZERO PUSH2 0x203F JUMPI PUSH2 0x203E PUSH2 0x3835 JUMP JUMPDEST JUMPDEST DUP2 PUSH1 0x4 DUP2 GT ISZERO PUSH2 0x2052 JUMPI PUSH2 0x2051 PUSH2 0x3835 JUMP JUMPDEST JUMPDEST SUB PUSH2 0x2092 JUMPI PUSH1 0x40 MLOAD PUSH32 0x8C379A000000000000000000000000000000000000000000000000000000000 DUP2 MSTORE PUSH1 0x4 ADD PUSH2 0x2089 SWAP1 PUSH2 0x38AC JUMP JUMPDEST PUSH1 0x40 MLOAD DUP1 SWAP2 SUB SWAP1 REVERT JUMPDEST PUSH1 0x2 PUSH1 0x4 DUP2 GT ISZERO PUSH2 0x20A6 JUMPI PUSH2 0x20A5 PUSH2 0x3835 JUMP JUMPDEST JUMPDEST DUP2 PUSH1 0x4 DUP2 GT ISZERO PUSH2 0x20B9 JUMPI PUSH2 0x20B8 PUSH2 0x3835 JUMP JUMPDEST JUMPDEST SUB PUSH2 0x20F9 JUMPI PUSH1 0x40 MLOAD PUSH32 0x8C379A000000000000000000000000000000000000000000000000000000000 DUP2 MSTORE PUSH1 0x4 ADD PUSH2 0x20F0 SWAP1 PUSH2 0x3914 JUMP JUMPDEST PUSH1 0x40 MLOAD DUP1 SWAP2 SUB SWAP1 REVERT JUMPDEST PUSH1 0x3 PUSH1 0x4 DUP2 GT ISZERO PUSH2 0x210D JUMPI PUSH2 0x210C PUSH2 0x3835 JUMP JUMPDEST JUMPDEST DUP2 PUSH1 0x4 DUP2 GT ISZERO PUSH2 0x2120 JUMPI PUSH2 0x211F PUSH2 0x3835 JUMP JUMPDEST JUMPDEST SUB PUSH2 0x2160 JUMPI PUSH1 0x40 MLOAD PUSH32 0x8C379A000000000000000000000000000000000000000000000000000000000 DUP2 MSTORE PUSH1 0x4 ADD PUSH2 0x2157 SWAP1 PUSH2 0x39A2 JUMP JUMPDEST PUSH1 0x40 MLOAD DUP1 SWAP2 SUB SWAP1 REVERT JUMPDEST JUMPDEST POP JUMP JUMPDEST PUSH1 0x1 DUP2 PUSH0 ADD PUSH0 DUP3 DUP3 SLOAD ADD SWAP3 POP POP DUP2 SWAP1 SSTORE POP POP JUMP JUMPDEST PUSH2 0x2183 DUP4 DUP4 DUP4 PUSH2 0x25A9 JUMP JUMPDEST PUSH2 0x219E PUSH2 0x218F DUP5 PUSH2 0x7FB JUMP JUMPDEST PUSH2 0x2198 DUP5 PUSH2 0x7FB JUMP JUMPDEST DUP4 PUSH2 0x1C85 JUMP JUMPDEST POP POP POP JUMP JUMPDEST PUSH0 DUP1 PUSH0 SWAP1 POP PUSH0 PUSH1 0x80 DUP5 SWAP1 SHR GT ISZERO PUSH2 0x21C2 JUMPI PUSH1 0x80 DUP4 SWAP1 SHR SWAP3 POP PUSH1 0x80 DUP2 ADD SWAP1 POP JUMPDEST PUSH0 PUSH1 0x40 DUP5 SWAP1 SHR GT ISZERO PUSH2 0x21DC JUMPI PUSH1 0x40 DUP4 SWAP1 SHR SWAP3 POP PUSH1 0x40 DUP2 ADD SWAP1 POP JUMPDEST PUSH0 PUSH1 0x20 DUP5 SWAP1 SHR GT ISZERO PUSH2 0x21F6 JUMPI PUSH1 0x20 DUP4 SWAP1 SHR SWAP3 POP PUSH1 0x20 DUP2 ADD SWAP1 POP JUMPDEST PUSH0 PUSH1 0x10 DUP5 SWAP1 SHR GT ISZERO PUSH2 0x2210 JUMPI PUSH1 0x10 DUP4 SWAP1 SHR SWAP3 POP PUSH1 0x10 DUP2 ADD SWAP1 POP JUMPDEST PUSH0 PUSH1 0x8 DUP5 SWAP1 SHR GT ISZERO PUSH2 0x222A JUMPI PUSH1 0x8 DUP4 SWAP1 SHR SWAP3 POP PUSH1 0x8 DUP2 ADD SWAP1 POP JUMPDEST PUSH0 PUSH1 0x4 DUP5 SWAP1 SHR GT ISZERO PUSH2 0x2244 JUMPI PUSH1 0x4 DUP4 SWAP1 SHR SWAP3 POP PUSH1 0x4 DUP2 ADD SWAP1 POP JUMPDEST PUSH0 PUSH1 0x2 DUP5 SWAP1 SHR GT ISZERO PUSH2 0x225E JUMPI PUSH1 0x2 DUP4 SWAP1 SHR SWAP3 POP PUSH1 0x2 DUP2 ADD SWAP1 POP JUMPDEST PUSH0 PUSH1 0x1 DUP5 SWAP1 SHR GT ISZERO PUSH2 0x2271 JUMPI PUSH1 0x1 DUP2 ADD SWAP1 POP JUMPDEST DUP1 SWAP2 POP POP SWAP2 SWAP1 POP JUMP JUMPDEST PUSH0 DUP2 DUP4 LT PUSH2 0x2288 JUMPI DUP2 PUSH2 0x228A JUMP JUMPDEST DUP3 JUMPDEST SWAP1 POP SWAP3 SWAP2 POP POP JUMP JUMPDEST PUSH0 DUP1 PUSH0 DUP6 DUP1 SLOAD SWAP1 POP SWAP1 POP PUSH0 DUP1 DUP3 EQ PUSH2 0x2352 JUMPI PUSH2 0x22B1 DUP8 PUSH1 0x1 DUP5 SUB PUSH2 0x1C4E JUMP JUMPDEST PUSH1 0x40 MLOAD DUP1 PUSH1 0x40 ADD PUSH1 0x40 MSTORE SWAP1 DUP2 PUSH0 DUP3 ADD PUSH0 SWAP1 SLOAD SWAP1 PUSH2 0x100 EXP SWAP1 DIV PUSH4 0xFFFFFFFF AND PUSH4 0xFFFFFFFF AND PUSH4 0xFFFFFFFF AND DUP2 MSTORE PUSH1 0x20 ADD PUSH0 DUP3 ADD PUSH1 0x4 SWAP1 SLOAD SWAP1 PUSH2 0x100 EXP SWAP1 DIV PUSH28 0xFFFFFFFFFFFFFFFFFFFFFFFFFFFFFFFFFFFFFFFFFFFFFFFFFFFFFFFF AND PUSH28 0xFFFFFFFFFFFFFFFFFFFFFFFFFFFFFFFFFFFFFFFFFFFFFFFFFFFFFFFF AND PUSH28 0xFFFFFFFFFFFFFFFFFFFFFFFFFFFFFFFFFFFFFFFFFFFFFFFFFFFFFFFF AND DUP2 MSTORE POP POP PUSH2 0x238C JUMP JUMPDEST PUSH1 0x40 MLOAD DUP1 PUSH1 0x40 ADD PUSH1 0x40 MSTORE DUP1 PUSH0 PUSH4 0xFFFFFFFF AND DUP2 MSTORE PUSH1 0x20 ADD PUSH0 PUSH28 0xFFFFFFFFFFFFFFFFFFFFFFFFFFFFFFFFFFFFFFFFFFFFFFFFFFFFFFFF AND DUP2 MSTORE POP JUMPDEST SWAP1 POP DUP1 PUSH1 0x20 ADD MLOAD PUSH28 0xFFFFFFFFFFFFFFFFFFFFFFFFFFFFFFFFFFFFFFFFFFFFFFFFFFFFFFFF AND SWAP4 POP PUSH2 0x23C1 DUP5 DUP7 DUP9 PUSH4 0xFFFFFFFF AND JUMP JUMPDEST SWAP3 POP PUSH0 DUP3 GT DUP1 ISZERO PUSH2 0x23E9 JUMPI POP PUSH2 0x23D5 PUSH2 0xABE JUMP JUMPDEST PUSH6 0xFFFFFFFFFFFF AND DUP2 PUSH0 ADD MLOAD PUSH4 0xFFFFFFFF AND EQ JUMPDEST ISZERO PUSH2 0x2459 JUMPI PUSH2 0x23F7 DUP4 PUSH2 0x25AE JUMP JUMPDEST PUSH2 0x2404 DUP9 PUSH1 0x1 DUP6 SUB PUSH2 0x1C4E JUMP JUMPDEST PUSH0 ADD PUSH1 0x4 PUSH2 0x100 EXP DUP2 SLOAD DUP2 PUSH28 0xFFFFFFFFFFFFFFFFFFFFFFFFFFFFFFFFFFFFFFFFFFFFFFFFFFFFFFFF MUL NOT AND SWAP1 DUP4 PUSH28 0xFFFFFFFFFFFFFFFFFFFFFFFFFFFFFFFFFFFFFFFFFFFFFFFFFFFFFFFF AND MUL OR SWAP1 SSTORE POP PUSH2 0x2551 JUMP JUMPDEST DUP7 PUSH1 0x40 MLOAD DUP1 PUSH1 0x40 ADD PUSH1 0x40 MSTORE DUP1 PUSH2 0x247D PUSH2 0x2470 PUSH2 0xABE JUMP JUMPDEST PUSH6 0xFFFFFFFFFFFF AND PUSH2 0x18B2 JUMP JUMPDEST PUSH4 0xFFFFFFFF AND DUP2 MSTORE PUSH1 0x20 ADD PUSH2 0x2491 DUP7 PUSH2 0x25AE JUMP JUMPDEST PUSH28 0xFFFFFFFFFFFFFFFFFFFFFFFFFFFFFFFFFFFFFFFFFFFFFFFFFFFFFFFF AND DUP2 MSTORE POP SWAP1 DUP1 PUSH1 0x1 DUP2 SLOAD ADD DUP1 DUP3 SSTORE DUP1 SWAP2 POP POP PUSH1 0x1 SWAP1 SUB SWAP1 PUSH0 MSTORE PUSH1 0x20 PUSH0 KECCAK256 ADD PUSH0 SWAP1 SWAP2 SWAP1 SWAP2 SWAP1 SWAP2 POP PUSH0 DUP3 ADD MLOAD DUP2 PUSH0 ADD PUSH0 PUSH2 0x100 EXP DUP2 SLOAD DUP2 PUSH4 0xFFFFFFFF MUL NOT AND SWAP1 DUP4 PUSH4 0xFFFFFFFF AND MUL OR SWAP1 SSTORE POP PUSH1 0x20 DUP3 ADD MLOAD DUP2 PUSH0 ADD PUSH1 0x4 PUSH2 0x100 EXP DUP2 SLOAD DUP2 PUSH28 0xFFFFFFFFFFFFFFFFFFFFFFFFFFFFFFFFFFFFFFFFFFFFFFFFFFFFFFFF MUL NOT AND SWAP1 DUP4 PUSH28 0xFFFFFFFFFFFFFFFFFFFFFFFFFFFFFFFFFFFFFFFFFFFFFFFFFFFFFFFF AND MUL OR SWAP1 SSTORE POP POP POP JUMPDEST POP POP SWAP4 POP SWAP4 SWAP2 POP POP JUMP JUMPDEST PUSH0 DUP1 PUSH1 0xFF DUP4 PUSH0 SHR AND SWAP1 POP PUSH1 0x1F DUP2 GT ISZERO PUSH2 0x25A0 JUMPI PUSH1 0x40 MLOAD PUSH32 0xB3512B0C00000000000000000000000000000000000000000000000000000000 DUP2 MSTORE PUSH1 0x4 ADD PUSH1 0x40 MLOAD DUP1 SWAP2 SUB SWAP1 REVERT JUMPDEST DUP1 SWAP2 POP POP SWAP2 SWAP1 POP JUMP JUMPDEST POP POP POP JUMP JUMPDEST PUSH0 PUSH28 0xFFFFFFFFFFFFFFFFFFFFFFFFFFFFFFFFFFFFFFFFFFFFFFFFFFFFFFFF DUP1 AND DUP3 GT ISZERO PUSH2 0x2610 JUMPI PUSH1 0x40 MLOAD PUSH32 0x8C379A000000000000000000000000000000000000000000000000000000000 DUP2 MSTORE PUSH1 0x4 ADD PUSH2 0x2607 SWAP1 PUSH2 0x3A30 JUMP JUMPDEST PUSH1 0x40 MLOAD DUP1 SWAP2 SUB SWAP1 REVERT JUMPDEST DUP2 SWAP1 POP SWAP2 SWAP1 POP JUMP JUMPDEST PUSH1 0x40 MLOAD DUP1 PUSH1 0x40 ADD PUSH1 0x40 MSTORE DUP1 PUSH0 PUSH4 0xFFFFFFFF AND DUP2 MSTORE PUSH1 0x20 ADD PUSH0 PUSH28 0xFFFFFFFFFFFFFFFFFFFFFFFFFFFFFFFFFFFFFFFFFFFFFFFFFFFFFFFF AND DUP2 MSTORE POP SWAP1 JUMP JUMPDEST PUSH0 DUP2 MLOAD SWAP1 POP SWAP2 SWAP1 POP JUMP JUMPDEST PUSH0 DUP3 DUP3 MSTORE PUSH1 0x20 DUP3 ADD SWAP1 POP SWAP3 SWAP2 POP POP JUMP JUMPDEST PUSH0 JUMPDEST DUP4 DUP2 LT ISZERO PUSH2 0x268B JUMPI DUP1 DUP3 ADD MLOAD DUP2 DUP5 ADD MSTORE PUSH1 0x20 DUP2 ADD SWAP1 POP PUSH2 0x2670 JUMP JUMPDEST PUSH0 DUP5 DUP5 ADD MSTORE POP POP POP POP JUMP JUMPDEST PUSH0 PUSH1 0x1F NOT PUSH1 0x1F DUP4 ADD AND SWAP1 POP SWAP2 SWAP1 POP JUMP JUMPDEST PUSH0 PUSH2 0x26B0 DUP3 PUSH2 0x2654 JUMP JUMPDEST PUSH2 0x26BA DUP2 DUP6 PUSH2 0x265E JUMP JUMPDEST SWAP4 POP PUSH2 0x26CA DUP2 DUP6 PUSH1 0x20 DUP7 ADD PUSH2 0x266E JUMP JUMPDEST PUSH2 0x26D3 DUP2 PUSH2 0x2696 JUMP JUMPDEST DUP5 ADD SWAP2 POP POP SWAP3 SWAP2 POP POP JUMP JUMPDEST PUSH0 PUSH1 0x20 DUP3 ADD SWAP1 POP DUP2 DUP2 SUB PUSH0 DUP4 ADD MSTORE PUSH2 0x26F6 DUP2 DUP5 PUSH2 0x26A6 JUMP JUMPDEST SWAP1 POP SWAP3 SWAP2 POP POP JUMP JUMPDEST PUSH0 DUP1 REVERT JUMPDEST PUSH0 PUSH20 0xFFFFFFFFFFFFFFFFFFFFFFFFFFFFFFFFFFFFFFFF DUP3 AND SWAP1 POP SWAP2 SWAP1 POP JUMP JUMPDEST PUSH0 PUSH2 0x272B DUP3 PUSH2 0x2702 JUMP JUMPDEST SWAP1 POP SWAP2 SWAP1 POP JUMP JUMPDEST PUSH2 0x273B DUP2 PUSH2 0x2721 JUMP JUMPDEST DUP2 EQ PUSH2 0x2745 JUMPI PUSH0 DUP1 REVERT JUMPDEST POP JUMP JUMPDEST PUSH0 DUP2 CALLDATALOAD SWAP1 POP PUSH2 0x2756 DUP2 PUSH2 0x2732 JUMP JUMPDEST SWAP3 SWAP2 POP POP JUMP JUMPDEST PUSH0 DUP2 SWAP1 POP SWAP2 SWAP1 POP JUMP JUMPDEST PUSH2 0x276E DUP2 PUSH2 0x275C JUMP JUMPDEST DUP2 EQ PUSH2 0x2778 JUMPI PUSH0 DUP1 REVERT JUMPDEST POP JUMP JUMPDEST PUSH0 DUP2 CALLDATALOAD SWAP1 POP PUSH2 0x2789 DUP2 PUSH2 0x2765 JUMP JUMPDEST SWAP3 SWAP2 POP POP JUMP JUMPDEST PUSH0 DUP1 PUSH1 0x40 DUP4 DUP6 SUB SLT ISZERO PUSH2 0x27A5 JUMPI PUSH2 0x27A4 PUSH2 0x26FE JUMP JUMPDEST JUMPDEST PUSH0 PUSH2 0x27B2 DUP6 DUP3 DUP7 ADD PUSH2 0x2748 JUMP JUMPDEST SWAP3 POP POP PUSH1 0x20 PUSH2 0x27C3 DUP6 DUP3 DUP7 ADD PUSH2 0x277B JUMP JUMPDEST SWAP2 POP POP SWAP3 POP SWAP3 SWAP1 POP JUMP JUMPDEST PUSH0 DUP2 ISZERO ISZERO SWAP1 POP SWAP2 SWAP1 POP JUMP JUMPDEST PUSH2 0x27E1 DUP2 PUSH2 0x27CD JUMP JUMPDEST DUP3 MSTORE POP POP JUMP JUMPDEST PUSH0 PUSH1 0x20 DUP3 ADD SWAP1 POP PUSH2 0x27FA PUSH0 DUP4 ADD DUP5 PUSH2 0x27D8 JUMP JUMPDEST SWAP3 SWAP2 POP POP JUMP JUMPDEST PUSH2 0x2809 DUP2 PUSH2 0x275C JUMP JUMPDEST DUP3 MSTORE POP POP JUMP JUMPDEST PUSH0 PUSH1 0x20 DUP3 ADD SWAP1 POP PUSH2 0x2822 PUSH0 DUP4 ADD DUP5 PUSH2 0x2800 JUMP JUMPDEST SWAP3 SWAP2 POP POP JUMP JUMPDEST PUSH0 DUP1 PUSH0 PUSH1 0x60 DUP5 DUP7 SUB SLT ISZERO PUSH2 0x283F JUMPI PUSH2 0x283E PUSH2 0x26FE JUMP JUMPDEST JUMPDEST PUSH0 PUSH2 0x284C DUP7 DUP3 DUP8 ADD PUSH2 0x2748 JUMP JUMPDEST SWAP4 POP POP PUSH1 0x20 PUSH2 0x285D DUP7 DUP3 DUP8 ADD PUSH2 0x2748 JUMP JUMPDEST SWAP3 POP POP PUSH1 0x40 PUSH2 0x286E DUP7 DUP3 DUP8 ADD PUSH2 0x277B JUMP JUMPDEST SWAP2 POP POP SWAP3 POP SWAP3 POP SWAP3 JUMP JUMPDEST PUSH0 PUSH1 0xFF DUP3 AND SWAP1 POP SWAP2 SWAP1 POP JUMP JUMPDEST PUSH2 0x288D DUP2 PUSH2 0x2878 JUMP JUMPDEST DUP3 MSTORE POP POP JUMP JUMPDEST PUSH0 PUSH1 0x20 DUP3 ADD SWAP1 POP PUSH2 0x28A6 PUSH0 DUP4 ADD DUP5 PUSH2 0x2884 JUMP JUMPDEST SWAP3 SWAP2 POP POP JUMP JUMPDEST PUSH0 DUP2 SWAP1 POP SWAP2 SWAP1 POP JUMP JUMPDEST PUSH2 0x28BE DUP2 PUSH2 0x28AC JUMP JUMPDEST DUP3 MSTORE POP POP JUMP JUMPDEST PUSH0 PUSH1 0x20 DUP3 ADD SWAP1 POP PUSH2 0x28D7 PUSH0 DUP4 ADD DUP5 PUSH2 0x28B5 JUMP JUMPDEST SWAP3 SWAP2 POP POP JUMP JUMPDEST PUSH0 PUSH1 0x20 DUP3 DUP5 SUB SLT ISZERO PUSH2 0x28F2 JUMPI PUSH2 0x28F1 PUSH2 0x26FE JUMP JUMPDEST JUMPDEST PUSH0 PUSH2 0x28FF DUP5 DUP3 DUP6 ADD PUSH2 0x2748 JUMP JUMPDEST SWAP2 POP POP SWAP3 SWAP2 POP POP JUMP JUMPDEST PUSH2 0x2911 DUP2 PUSH2 0x2721 JUMP JUMPDEST DUP3 MSTORE POP POP JUMP JUMPDEST PUSH0 PUSH1 0x20 DUP3 ADD SWAP1 POP PUSH2 0x292A PUSH0 DUP4 ADD DUP5 PUSH2 0x2908 JUMP JUMPDEST SWAP3 SWAP2 POP POP JUMP JUMPDEST PUSH0 PUSH4 0xFFFFFFFF DUP3 AND SWAP1 POP SWAP2 SWAP1 POP JUMP JUMPDEST PUSH2 0x2948 DUP2 PUSH2 0x2930 JUMP JUMPDEST DUP3 MSTORE POP POP JUMP JUMPDEST PUSH0 PUSH1 0x20 DUP3 ADD SWAP1 POP PUSH2 0x2961 PUSH0 DUP4 ADD DUP5 PUSH2 0x293F JUMP JUMPDEST SWAP3 SWAP2 POP POP JUMP JUMPDEST PUSH0 PUSH32 0xFF00000000000000000000000000000000000000000000000000000000000000 DUP3 AND SWAP1 POP SWAP2 SWAP1 POP JUMP JUMPDEST PUSH2 0x299B DUP2 PUSH2 0x2967 JUMP JUMPDEST DUP3 MSTORE POP POP JUMP JUMPDEST PUSH0 DUP2 MLOAD SWAP1 POP SWAP2 SWAP1 POP JUMP JUMPDEST PUSH0 DUP3 DUP3 MSTORE PUSH1 0x20 DUP3 ADD SWAP1 POP SWAP3 SWAP2 POP POP JUMP JUMPDEST PUSH0 DUP2 SWAP1 POP PUSH1 0x20 DUP3 ADD SWAP1 POP SWAP2 SWAP1 POP JUMP JUMPDEST PUSH2 0x29D3 DUP2 PUSH2 0x275C JUMP JUMPDEST DUP3 MSTORE POP POP JUMP JUMPDEST PUSH0 PUSH2 0x29E4 DUP4 DUP4 PUSH2 0x29CA JUMP JUMPDEST PUSH1 0x20 DUP4 ADD SWAP1 POP SWAP3 SWAP2 POP POP JUMP JUMPDEST PUSH0 PUSH1 0x20 DUP3 ADD SWAP1 POP SWAP2 SWAP1 POP JUMP JUMPDEST PUSH0 PUSH2 0x2A06 DUP3 PUSH2 0x29A1 JUMP JUMPDEST PUSH2 0x2A10 DUP2 DUP6 PUSH2 0x29AB JUMP JUMPDEST SWAP4 POP PUSH2 0x2A1B DUP4 PUSH2 0x29BB JUMP JUMPDEST DUP1 PUSH0 JUMPDEST DUP4 DUP2 LT ISZERO PUSH2 0x2A4B JUMPI DUP2 MLOAD PUSH2 0x2A32 DUP9 DUP3 PUSH2 0x29D9 JUMP JUMPDEST SWAP8 POP PUSH2 0x2A3D DUP4 PUSH2 0x29F0 JUMP JUMPDEST SWAP3 POP POP PUSH1 0x1 DUP2 ADD SWAP1 POP PUSH2 0x2A1E JUMP JUMPDEST POP DUP6 SWAP4 POP POP POP POP SWAP3 SWAP2 POP POP JUMP JUMPDEST PUSH0 PUSH1 0xE0 DUP3 ADD SWAP1 POP PUSH2 0x2A6B PUSH0 DUP4 ADD DUP11 PUSH2 0x2992 JUMP JUMPDEST DUP2 DUP2 SUB PUSH1 0x20 DUP4 ADD MSTORE PUSH2 0x2A7D DUP2 DUP10 PUSH2 0x26A6 JUMP JUMPDEST SWAP1 POP DUP2 DUP2 SUB PUSH1 0x40 DUP4 ADD MSTORE PUSH2 0x2A91 DUP2 DUP9 PUSH2 0x26A6 JUMP JUMPDEST SWAP1 POP PUSH2 0x2AA0 PUSH1 0x60 DUP4 ADD DUP8 PUSH2 0x2800 JUMP JUMPDEST PUSH2 0x2AAD PUSH1 0x80 DUP4 ADD DUP7 PUSH2 0x2908 JUMP JUMPDEST PUSH2 0x2ABA PUSH1 0xA0 DUP4 ADD DUP6 PUSH2 0x28B5 JUMP JUMPDEST DUP2 DUP2 SUB PUSH1 0xC0 DUP4 ADD MSTORE PUSH2 0x2ACC DUP2 DUP5 PUSH2 0x29FC JUMP JUMPDEST SWAP1 POP SWAP9 SWAP8 POP POP POP POP POP POP POP POP JUMP JUMPDEST PUSH0 PUSH1 0x20 DUP3 DUP5 SUB SLT ISZERO PUSH2 0x2AEF JUMPI PUSH2 0x2AEE PUSH2 0x26FE JUMP JUMPDEST JUMPDEST PUSH0 PUSH2 0x2AFC DUP5 DUP3 DUP6 ADD PUSH2 0x277B JUMP JUMPDEST SWAP2 POP POP SWAP3 SWAP2 POP POP JUMP JUMPDEST PUSH0 PUSH6 0xFFFFFFFFFFFF DUP3 AND SWAP1 POP SWAP2 SWAP1 POP JUMP JUMPDEST PUSH2 0x2B1F DUP2 PUSH2 0x2B05 JUMP JUMPDEST DUP3 MSTORE POP POP JUMP JUMPDEST PUSH0 PUSH1 0x20 DUP3 ADD SWAP1 POP PUSH2 0x2B38 PUSH0 DUP4 ADD DUP5 PUSH2 0x2B16 JUMP JUMPDEST SWAP3 SWAP2 POP POP JUMP JUMPDEST PUSH2 0x2B47 DUP2 PUSH2 0x2878 JUMP JUMPDEST DUP2 EQ PUSH2 0x2B51 JUMPI PUSH0 DUP1 REVERT JUMPDEST POP JUMP JUMPDEST PUSH0 DUP2 CALLDATALOAD SWAP1 POP PUSH2 0x2B62 DUP2 PUSH2 0x2B3E JUMP JUMPDEST SWAP3 SWAP2 POP POP JUMP JUMPDEST PUSH2 0x2B71 DUP2 PUSH2 0x28AC JUMP JUMPDEST DUP2 EQ PUSH2 0x2B7B JUMPI PUSH0 DUP1 REVERT JUMPDEST POP JUMP JUMPDEST PUSH0 DUP2 CALLDATALOAD SWAP1 POP PUSH2 0x2B8C DUP2 PUSH2 0x2B68 JUMP JUMPDEST SWAP3 SWAP2 POP POP JUMP JUMPDEST PUSH0 DUP1 PUSH0 DUP1 PUSH0 DUP1 PUSH1 0xC0 DUP8 DUP10 SUB SLT ISZERO PUSH2 0x2BAC JUMPI PUSH2 0x2BAB PUSH2 0x26FE JUMP JUMPDEST JUMPDEST PUSH0 PUSH2 0x2BB9 DUP10 DUP3 DUP11 ADD PUSH2 0x2748 JUMP JUMPDEST SWAP7 POP POP PUSH1 0x20 PUSH2 0x2BCA DUP10 DUP3 DUP11 ADD PUSH2 0x277B JUMP JUMPDEST SWAP6 POP POP PUSH1 0x40 PUSH2 0x2BDB DUP10 DUP3 DUP11 ADD PUSH2 0x277B JUMP JUMPDEST SWAP5 POP POP PUSH1 0x60 PUSH2 0x2BEC DUP10 DUP3 DUP11 ADD PUSH2 0x2B54 JUMP JUMPDEST SWAP4 POP POP PUSH1 0x80 PUSH2 0x2BFD DUP10 DUP3 DUP11 ADD PUSH2 0x2B7E JUMP JUMPDEST SWAP3 POP POP PUSH1 0xA0 PUSH2 0x2C0E DUP10 DUP3 DUP11 ADD PUSH2 0x2B7E JUMP JUMPDEST SWAP2 POP POP SWAP3 SWAP6 POP SWAP3 SWAP6 POP SWAP3 SWAP6 JUMP JUMPDEST PUSH0 DUP1 PUSH0 DUP1 PUSH0 DUP1 PUSH0 PUSH1 0xE0 DUP9 DUP11 SUB SLT ISZERO PUSH2 0x2C36 JUMPI PUSH2 0x2C35 PUSH2 0x26FE JUMP JUMPDEST JUMPDEST PUSH0 PUSH2 0x2C43 DUP11 DUP3 DUP12 ADD PUSH2 0x2748 JUMP JUMPDEST SWAP8 POP POP PUSH1 0x20 PUSH2 0x2C54 DUP11 DUP3 DUP12 ADD PUSH2 0x2748 JUMP JUMPDEST SWAP7 POP POP PUSH1 0x40 PUSH2 0x2C65 DUP11 DUP3 DUP12 ADD PUSH2 0x277B JUMP JUMPDEST SWAP6 POP POP PUSH1 0x60 PUSH2 0x2C76 DUP11 DUP3 DUP12 ADD PUSH2 0x277B JUMP JUMPDEST SWAP5 POP POP PUSH1 0x80 PUSH2 0x2C87 DUP11 DUP3 DUP12 ADD PUSH2 0x2B54 JUMP JUMPDEST SWAP4 POP POP PUSH1 0xA0 PUSH2 0x2C98 DUP11 DUP3 DUP12 ADD PUSH2 0x2B7E JUMP JUMPDEST SWAP3 POP POP PUSH1 0xC0 PUSH2 0x2CA9 DUP11 DUP3 DUP12 ADD PUSH2 0x2B7E JUMP JUMPDEST SWAP2 POP POP SWAP3 SWAP6 SWAP9 SWAP2 SWAP5 SWAP8 POP SWAP3 SWAP6 POP JUMP JUMPDEST PUSH0 DUP1 PUSH1 0x40 DUP4 DUP6 SUB SLT ISZERO PUSH2 0x2CCE JUMPI PUSH2 0x2CCD PUSH2 0x26FE JUMP JUMPDEST JUMPDEST PUSH0 PUSH2 0x2CDB DUP6 DUP3 DUP7 ADD PUSH2 0x2748 JUMP JUMPDEST SWAP3 POP POP PUSH1 0x20 PUSH2 0x2CEC DUP6 DUP3 DUP7 ADD PUSH2 0x2748 JUMP JUMPDEST SWAP2 POP POP SWAP3 POP SWAP3 SWAP1 POP JUMP JUMPDEST PUSH2 0x2CFF DUP2 PUSH2 0x2930 JUMP JUMPDEST DUP2 EQ PUSH2 0x2D09 JUMPI PUSH0 DUP1 REVERT JUMPDEST POP JUMP JUMPDEST PUSH0 DUP2 CALLDATALOAD SWAP1 POP PUSH2 0x2D1A DUP2 PUSH2 0x2CF6 JUMP JUMPDEST SWAP3 SWAP2 POP POP JUMP JUMPDEST PUSH0 DUP1 PUSH1 0x40 DUP4 DUP6 SUB SLT ISZERO PUSH2 0x2D36 JUMPI PUSH2 0x2D35 PUSH2 0x26FE JUMP JUMPDEST JUMPDEST PUSH0 PUSH2 0x2D43 DUP6 DUP3 DUP7 ADD PUSH2 0x2748 JUMP JUMPDEST SWAP3 POP POP PUSH1 0x20 PUSH2 0x2D54 DUP6 DUP3 DUP7 ADD PUSH2 0x2D0C JUMP JUMPDEST SWAP2 POP POP SWAP3 POP SWAP3 SWAP1 POP JUMP JUMPDEST PUSH2 0x2D67 DUP2 PUSH2 0x2930 JUMP JUMPDEST DUP3 MSTORE POP POP JUMP JUMPDEST PUSH0 PUSH28 0xFFFFFFFFFFFFFFFFFFFFFFFFFFFFFFFFFFFFFFFFFFFFFFFFFFFFFFFF DUP3 AND SWAP1 POP SWAP2 SWAP1 POP JUMP JUMPDEST PUSH2 0x2D9D DUP2 PUSH2 0x2D6D JUMP JUMPDEST DUP3 MSTORE POP POP JUMP JUMPDEST PUSH1 0x40 DUP3 ADD PUSH0 DUP3 ADD MLOAD PUSH2 0x2DB7 PUSH0 DUP6 ADD DUP3 PUSH2 0x2D5E JUMP JUMPDEST POP PUSH1 0x20 DUP3 ADD MLOAD PUSH2 0x2DCA PUSH1 0x20 DUP6 ADD DUP3 PUSH2 0x2D94 JUMP JUMPDEST POP POP POP POP JUMP JUMPDEST PUSH0 PUSH1 0x40 DUP3 ADD SWAP1 POP PUSH2 0x2DE3 PUSH0 DUP4 ADD DUP5 PUSH2 0x2DA3 JUMP JUMPDEST SWAP3 SWAP2 POP POP JUMP JUMPDEST PUSH32 0x4E487B7100000000000000000000000000000000000000000000000000000000 PUSH0 MSTORE PUSH1 0x22 PUSH1 0x4 MSTORE PUSH1 0x24 PUSH0 REVERT JUMPDEST PUSH0 PUSH1 0x2 DUP3 DIV SWAP1 POP PUSH1 0x1 DUP3 AND DUP1 PUSH2 0x2E2D JUMPI PUSH1 0x7F DUP3 AND SWAP2 POP JUMPDEST PUSH1 0x20 DUP3 LT DUP2 SUB PUSH2 0x2E40 JUMPI PUSH2 0x2E3F PUSH2 0x2DE9 JUMP JUMPDEST JUMPDEST POP SWAP2 SWAP1 POP JUMP JUMPDEST PUSH32 0x4E487B7100000000000000000000000000000000000000000000000000000000 PUSH0 MSTORE PUSH1 0x11 PUSH1 0x4 MSTORE PUSH1 0x24 PUSH0 REVERT JUMPDEST PUSH0 PUSH2 0x2E7D DUP3 PUSH2 0x275C JUMP JUMPDEST SWAP2 POP PUSH2 0x2E88 DUP4 PUSH2 0x275C JUMP JUMPDEST SWAP3 POP DUP3 DUP3 ADD SWAP1 POP DUP1 DUP3 GT ISZERO PUSH2 0x2EA0 JUMPI PUSH2 0x2E9F PUSH2 0x2E46 JUMP JUMPDEST JUMPDEST SWAP3 SWAP2 POP POP JUMP JUMPDEST PUSH32 0x4552433230566F7465733A20667574757265206C6F6F6B757000000000000000 PUSH0 DUP3 ADD MSTORE POP JUMP JUMPDEST PUSH0 PUSH2 0x2EDA PUSH1 0x19 DUP4 PUSH2 0x265E JUMP JUMPDEST SWAP2 POP PUSH2 0x2EE5 DUP3 PUSH2 0x2EA6 JUMP JUMPDEST PUSH1 0x20 DUP3 ADD SWAP1 POP SWAP2 SWAP1 POP JUMP JUMPDEST PUSH0 PUSH1 0x20 DUP3 ADD SWAP1 POP DUP2 DUP2 SUB PUSH0 DUP4 ADD MSTORE PUSH2 0x2F07 DUP2 PUSH2 0x2ECE JUMP JUMPDEST SWAP1 POP SWAP2 SWAP1 POP JUMP JUMPDEST PUSH32 0x4552433230566F7465733A2062726F6B656E20636C6F636B206D6F6465000000 PUSH0 DUP3 ADD MSTORE POP JUMP JUMPDEST PUSH0 PUSH2 0x2F42 PUSH1 0x1D DUP4 PUSH2 0x265E JUMP JUMPDEST SWAP2 POP PUSH2 0x2F4D DUP3 PUSH2 0x2F0E JUMP JUMPDEST PUSH1 0x20 DUP3 ADD SWAP1 POP SWAP2 SWAP1 POP JUMP JUMPDEST PUSH0 PUSH1 0x20 DUP3 ADD SWAP1 POP DUP2 DUP2 SUB PUSH0 DUP4 ADD MSTORE PUSH2 0x2F6F DUP2 PUSH2 0x2F36 JUMP JUMPDEST SWAP1 POP SWAP2 SWAP1 POP JUMP JUMPDEST PUSH32 0x4E487B7100000000000000000000000000000000000000000000000000000000 PUSH0 MSTORE PUSH1 0x41 PUSH1 0x4 MSTORE PUSH1 0x24 PUSH0 REVERT JUMPDEST PUSH32 0x4E487B7100000000000000000000000000000000000000000000000000000000 PUSH0 MSTORE PUSH1 0x32 PUSH1 0x4 MSTORE PUSH1 0x24 PUSH0 REVERT JUMPDEST PUSH32 0x45524332303A2064656372656173656420616C6C6F77616E63652062656C6F77 PUSH0 DUP3 ADD MSTORE PUSH32 0x207A65726F000000000000000000000000000000000000000000000000000000 PUSH1 0x20 DUP3 ADD MSTORE POP JUMP JUMPDEST PUSH0 PUSH2 0x302A PUSH1 0x25 DUP4 PUSH2 0x265E JUMP JUMPDEST SWAP2 POP PUSH2 0x3035 DUP3 PUSH2 0x2FD0 JUMP JUMPDEST PUSH1 0x40 DUP3 ADD SWAP1 POP SWAP2 SWAP1 POP JUMP JUMPDEST PUSH0 PUSH1 0x20 DUP3 ADD SWAP1 POP DUP2 DUP2 SUB PUSH0 DUP4 ADD MSTORE PUSH2 0x3057 DUP2 PUSH2 0x301E JUMP JUMPDEST SWAP1 POP SWAP2 SWAP1 POP JUMP JUMPDEST PUSH32 0x4552433230566F7465733A207369676E61747572652065787069726564000000 PUSH0 DUP3 ADD MSTORE POP JUMP JUMPDEST PUSH0 PUSH2 0x3092 PUSH1 0x1D DUP4 PUSH2 0x265E JUMP JUMPDEST SWAP2 POP PUSH2 0x309D DUP3 PUSH2 0x305E JUMP JUMPDEST PUSH1 0x20 DUP3 ADD SWAP1 POP SWAP2 SWAP1 POP JUMP JUMPDEST PUSH0 PUSH1 0x20 DUP3 ADD SWAP1 POP DUP2 DUP2 SUB PUSH0 DUP4 ADD MSTORE PUSH2 0x30BF DUP2 PUSH2 0x3086 JUMP JUMPDEST SWAP1 POP SWAP2 SWAP1 POP JUMP JUMPDEST PUSH0 PUSH1 0x80 DUP3 ADD SWAP1 POP PUSH2 0x30D9 PUSH0 DUP4 ADD DUP8 PUSH2 0x28B5 JUMP JUMPDEST PUSH2 0x30E6 PUSH1 0x20 DUP4 ADD DUP7 PUSH2 0x2908 JUMP JUMPDEST PUSH2 0x30F3 PUSH1 0x40 DUP4 ADD DUP6 PUSH2 0x2800 JUMP JUMPDEST PUSH2 0x3100 PUSH1 0x60 DUP4 ADD DUP5 PUSH2 0x2800 JUMP JUMPDEST SWAP6 SWAP5 POP POP POP POP POP JUMP JUMPDEST PUSH32 0x4552433230566F7465733A20696E76616C6964206E6F6E636500000000000000 PUSH0 DUP3 ADD MSTORE POP JUMP JUMPDEST PUSH0 PUSH2 0x313D PUSH1 0x19 DUP4 PUSH2 0x265E JUMP JUMPDEST SWAP2 POP PUSH2 0x3148 DUP3 PUSH2 0x3109 JUMP JUMPDEST PUSH1 0x20 DUP3 ADD SWAP1 POP SWAP2 SWAP1 POP JUMP JUMPDEST PUSH0 PUSH1 0x20 DUP3 ADD SWAP1 POP DUP2 DUP2 SUB PUSH0 DUP4 ADD MSTORE PUSH2 0x316A DUP2 PUSH2 0x3131 JUMP JUMPDEST SWAP1 POP SWAP2 SWAP1 POP JUMP JUMPDEST PUSH32 0x45524332305065726D69743A206578706972656420646561646C696E65000000 PUSH0 DUP3 ADD MSTORE POP JUMP JUMPDEST PUSH0 PUSH2 0x31A5 PUSH1 0x1D DUP4 PUSH2 0x265E JUMP JUMPDEST SWAP2 POP PUSH2 0x31B0 DUP3 PUSH2 0x3171 JUMP JUMPDEST PUSH1 0x20 DUP3 ADD SWAP1 POP SWAP2 SWAP1 POP JUMP JUMPDEST PUSH0 PUSH1 0x20 DUP3 ADD SWAP1 POP DUP2 DUP2 SUB PUSH0 DUP4 ADD MSTORE PUSH2 0x31D2 DUP2 PUSH2 0x3199 JUMP JUMPDEST SWAP1 POP SWAP2 SWAP1 POP JUMP JUMPDEST PUSH0 PUSH1 0xC0 DUP3 ADD SWAP1 POP PUSH2 0x31EC PUSH0 DUP4 ADD DUP10 PUSH2 0x28B5 JUMP JUMPDEST PUSH2 0x31F9 PUSH1 0x20 DUP4 ADD DUP9 PUSH2 0x2908 JUMP JUMPDEST PUSH2 0x3206 PUSH1 0x40 DUP4 ADD DUP8 PUSH2 0x2908 JUMP JUMPDEST PUSH2 0x3213 PUSH1 0x60 DUP4 ADD DUP7 PUSH2 0x2800 JUMP JUMPDEST PUSH2 0x3220 PUSH1 0x80 DUP4 ADD DUP6 PUSH2 0x2800 JUMP JUMPDEST PUSH2 0x322D PUSH1 0xA0 DUP4 ADD DUP5 PUSH2 0x2800 JUMP JUMPDEST SWAP8 SWAP7 POP POP POP POP POP POP POP JUMP JUMPDEST PUSH32 0x45524332305065726D69743A20696E76616C6964207369676E61747572650000 PUSH0 DUP3 ADD MSTORE POP JUMP JUMPDEST PUSH0 PUSH2 0x326C PUSH1 0x1E DUP4 PUSH2 0x265E JUMP JUMPDEST SWAP2 POP PUSH2 0x3277 DUP3 PUSH2 0x3238 JUMP JUMPDEST PUSH1 0x20 DUP3 ADD SWAP1 POP SWAP2 SWAP1 POP JUMP JUMPDEST PUSH0 PUSH1 0x20 DUP3 ADD SWAP1 POP DUP2 DUP2 SUB PUSH0 DUP4 ADD MSTORE PUSH2 0x3299 DUP2 PUSH2 0x3260 JUMP JUMPDEST SWAP1 POP SWAP2 SWAP1 POP JUMP JUMPDEST PUSH0 PUSH2 0x32AA DUP3 PUSH2 0x275C JUMP JUMPDEST SWAP2 POP PUSH2 0x32B5 DUP4 PUSH2 0x275C JUMP JUMPDEST SWAP3 POP DUP3 DUP3 SUB SWAP1 POP DUP2 DUP2 GT ISZERO PUSH2 0x32CD JUMPI PUSH2 0x32CC PUSH2 0x2E46 JUMP JUMPDEST JUMPDEST SWAP3 SWAP2 POP POP JUMP JUMPDEST PUSH32 0x45524332303A20617070726F76652066726F6D20746865207A65726F20616464 PUSH0 DUP3 ADD MSTORE PUSH32 0x7265737300000000000000000000000000000000000000000000000000000000 PUSH1 0x20 DUP3 ADD MSTORE POP JUMP JUMPDEST PUSH0 PUSH2 0x332D PUSH1 0x24 DUP4 PUSH2 0x265E JUMP JUMPDEST SWAP2 POP PUSH2 0x3338 DUP3 PUSH2 0x32D3 JUMP JUMPDEST PUSH1 0x40 DUP3 ADD SWAP1 POP SWAP2 SWAP1 POP JUMP JUMPDEST PUSH0 PUSH1 0x20 DUP3 ADD SWAP1 POP DUP2 DUP2 SUB PUSH0 DUP4 ADD MSTORE PUSH2 0x335A DUP2 PUSH2 0x3321 JUMP JUMPDEST SWAP1 POP SWAP2 SWAP1 POP JUMP JUMPDEST PUSH32 0x45524332303A20617070726F766520746F20746865207A65726F206164647265 PUSH0 DUP3 ADD MSTORE PUSH32 0x7373000000000000000000000000000000000000000000000000000000000000 PUSH1 0x20 DUP3 ADD MSTORE POP JUMP JUMPDEST PUSH0 PUSH2 0x33BB PUSH1 0x22 DUP4 PUSH2 0x265E JUMP JUMPDEST SWAP2 POP PUSH2 0x33C6 DUP3 PUSH2 0x3361 JUMP JUMPDEST PUSH1 0x40 DUP3 ADD SWAP1 POP SWAP2 SWAP1 POP JUMP JUMPDEST PUSH0 PUSH1 0x20 DUP3 ADD SWAP1 POP DUP2 DUP2 SUB PUSH0 DUP4 ADD MSTORE PUSH2 0x33E8 DUP2 PUSH2 0x33AF JUMP JUMPDEST SWAP1 POP SWAP2 SWAP1 POP JUMP JUMPDEST PUSH32 0x45524332303A20696E73756666696369656E7420616C6C6F77616E6365000000 PUSH0 DUP3 ADD MSTORE POP JUMP JUMPDEST PUSH0 PUSH2 0x3423 PUSH1 0x1D DUP4 PUSH2 0x265E JUMP JUMPDEST SWAP2 POP PUSH2 0x342E DUP3 PUSH2 0x33EF JUMP JUMPDEST PUSH1 0x20 DUP3 ADD SWAP1 POP SWAP2 SWAP1 POP JUMP JUMPDEST PUSH0 PUSH1 0x20 DUP3 ADD SWAP1 POP DUP2 DUP2 SUB PUSH0 DUP4 ADD MSTORE PUSH2 0x3450 DUP2 PUSH2 0x3417 JUMP JUMPDEST SWAP1 POP SWAP2 SWAP1 POP JUMP JUMPDEST PUSH32 0x45524332303A207472616E736665722066726F6D20746865207A65726F206164 PUSH0 DUP3 ADD MSTORE PUSH32 0x6472657373000000000000000000000000000000000000000000000000000000 PUSH1 0x20 DUP3 ADD MSTORE POP JUMP JUMPDEST PUSH0 PUSH2 0x34B1 PUSH1 0x25 DUP4 PUSH2 0x265E JUMP JUMPDEST SWAP2 POP PUSH2 0x34BC DUP3 PUSH2 0x3457 JUMP JUMPDEST PUSH1 0x40 DUP3 ADD SWAP1 POP SWAP2 SWAP1 POP JUMP JUMPDEST PUSH0 PUSH1 0x20 DUP3 ADD SWAP1 POP DUP2 DUP2 SUB PUSH0 DUP4 ADD MSTORE PUSH2 0x34DE DUP2 PUSH2 0x34A5 JUMP JUMPDEST SWAP1 POP SWAP2 SWAP1 POP JUMP JUMPDEST PUSH32 0x45524332303A207472616E7366657220746F20746865207A65726F2061646472 PUSH0 DUP3 ADD MSTORE PUSH32 0x6573730000000000000000000000000000000000000000000000000000000000 PUSH1 0x20 DUP3 ADD MSTORE POP JUMP JUMPDEST PUSH0 PUSH2 0x353F PUSH1 0x23 DUP4 PUSH2 0x265E JUMP JUMPDEST SWAP2 POP PUSH2 0x354A DUP3 PUSH2 0x34E5 JUMP JUMPDEST PUSH1 0x40 DUP3 ADD SWAP1 POP SWAP2 SWAP1 POP JUMP JUMPDEST PUSH0 PUSH1 0x20 DUP3 ADD SWAP1 POP DUP2 DUP2 SUB PUSH0 DUP4 ADD MSTORE PUSH2 0x356C DUP2 PUSH2 0x3533 JUMP JUMPDEST SWAP1 POP SWAP2 SWAP1 POP JUMP JUMPDEST PUSH32 0x45524332303A207472616E7366657220616D6F756E7420657863656564732062 PUSH0 DUP3 ADD MSTORE PUSH32 0x616C616E63650000000000000000000000000000000000000000000000000000 PUSH1 0x20 DUP3 ADD MSTORE POP JUMP JUMPDEST PUSH0 PUSH2 0x35CD PUSH1 0x26 DUP4 PUSH2 0x265E JUMP JUMPDEST SWAP2 POP PUSH2 0x35D8 DUP3 PUSH2 0x3573 JUMP JUMPDEST PUSH1 0x40 DUP3 ADD SWAP1 POP SWAP2 SWAP1 POP JUMP JUMPDEST PUSH0 PUSH1 0x20 DUP3 ADD SWAP1 POP DUP2 DUP2 SUB PUSH0 DUP4 ADD MSTORE PUSH2 0x35FA DUP2 PUSH2 0x35C1 JUMP JUMPDEST SWAP1 POP SWAP2 SWAP1 POP JUMP JUMPDEST PUSH32 0x53616665436173743A2076616C756520646F65736E27742066697420696E2033 PUSH0 DUP3 ADD MSTORE PUSH32 0x3220626974730000000000000000000000000000000000000000000000000000 PUSH1 0x20 DUP3 ADD MSTORE POP JUMP JUMPDEST PUSH0 PUSH2 0x365B PUSH1 0x26 DUP4 PUSH2 0x265E JUMP JUMPDEST SWAP2 POP PUSH2 0x3666 DUP3 PUSH2 0x3601 JUMP JUMPDEST PUSH1 0x40 DUP3 ADD SWAP1 POP SWAP2 SWAP1 POP JUMP JUMPDEST PUSH0 PUSH1 0x20 DUP3 ADD SWAP1 POP DUP2 DUP2 SUB PUSH0 DUP4 ADD MSTORE PUSH2 0x3688 DUP2 PUSH2 0x364F JUMP JUMPDEST SWAP1 POP SWAP2 SWAP1 POP JUMP JUMPDEST PUSH32 0x53616665436173743A2076616C756520646F65736E27742066697420696E2034 PUSH0 DUP3 ADD MSTORE PUSH32 0x3820626974730000000000000000000000000000000000000000000000000000 PUSH1 0x20 DUP3 ADD MSTORE POP JUMP JUMPDEST PUSH0 PUSH2 0x36E9 PUSH1 0x26 DUP4 PUSH2 0x265E JUMP JUMPDEST SWAP2 POP PUSH2 0x36F4 DUP3 PUSH2 0x368F JUMP JUMPDEST PUSH1 0x40 DUP3 ADD SWAP1 POP SWAP2 SWAP1 POP JUMP JUMPDEST PUSH0 PUSH1 0x20 DUP3 ADD SWAP1 POP DUP2 DUP2 SUB PUSH0 DUP4 ADD MSTORE PUSH2 0x3716 DUP2 PUSH2 0x36DD JUMP JUMPDEST SWAP1 POP SWAP2 SWAP1 POP JUMP JUMPDEST PUSH0 PUSH1 0xA0 DUP3 ADD SWAP1 POP PUSH2 0x3730 PUSH0 DUP4 ADD DUP9 PUSH2 0x28B5 JUMP JUMPDEST PUSH2 0x373D PUSH1 0x20 DUP4 ADD DUP8 PUSH2 0x28B5 JUMP JUMPDEST PUSH2 0x374A PUSH1 0x40 DUP4 ADD DUP7 PUSH2 0x28B5 JUMP JUMPDEST PUSH2 0x3757 PUSH1 0x60 DUP4 ADD DUP6 PUSH2 0x2800 JUMP JUMPDEST PUSH2 0x3764 PUSH1 0x80 DUP4 ADD DUP5 PUSH2 0x2908 JUMP JUMPDEST SWAP7 SWAP6 POP POP POP POP POP POP JUMP JUMPDEST PUSH32 0x4E487B7100000000000000000000000000000000000000000000000000000000 PUSH0 MSTORE PUSH1 0x12 PUSH1 0x4 MSTORE PUSH1 0x24 PUSH0 REVERT JUMPDEST PUSH0 PUSH2 0x37A5 DUP3 PUSH2 0x275C JUMP JUMPDEST SWAP2 POP PUSH2 0x37B0 DUP4 PUSH2 0x275C JUMP JUMPDEST SWAP3 POP DUP3 PUSH2 0x37C0 JUMPI PUSH2 0x37BF PUSH2 0x376E JUMP JUMPDEST JUMPDEST DUP3 DUP3 DIV SWAP1 POP SWAP3 SWAP2 POP POP JUMP JUMPDEST PUSH0 PUSH1 0x40 DUP3 ADD SWAP1 POP PUSH2 0x37DE PUSH0 DUP4 ADD DUP6 PUSH2 0x2800 JUMP JUMPDEST PUSH2 0x37EB PUSH1 0x20 DUP4 ADD DUP5 PUSH2 0x2800 JUMP JUMPDEST SWAP4 SWAP3 POP POP POP JUMP JUMPDEST PUSH0 PUSH1 0x80 DUP3 ADD SWAP1 POP PUSH2 0x3805 PUSH0 DUP4 ADD DUP8 PUSH2 0x28B5 JUMP JUMPDEST PUSH2 0x3812 PUSH1 0x20 DUP4 ADD DUP7 PUSH2 0x2884 JUMP JUMPDEST PUSH2 0x381F PUSH1 0x40 DUP4 ADD DUP6 PUSH2 0x28B5 JUMP JUMPDEST PUSH2 0x382C PUSH1 0x60 DUP4 ADD DUP5 PUSH2 0x28B5 JUMP JUMPDEST SWAP6 SWAP5 POP POP POP POP POP JUMP JUMPDEST PUSH32 0x4E487B7100000000000000000000000000000000000000000000000000000000 PUSH0 MSTORE PUSH1 0x21 PUSH1 0x4 MSTORE PUSH1 0x24 PUSH0 REVERT JUMPDEST PUSH32 0x45434453413A20696E76616C6964207369676E61747572650000000000000000 PUSH0 DUP3 ADD MSTORE POP JUMP JUMPDEST PUSH0 PUSH2 0x3896 PUSH1 0x18 DUP4 PUSH2 0x265E JUMP JUMPDEST SWAP2 POP PUSH2 0x38A1 DUP3 PUSH2 0x3862 JUMP JUMPDEST PUSH1 0x20 DUP3 ADD SWAP1 POP SWAP2 SWAP1 POP JUMP JUMPDEST PUSH0 PUSH1 0x20 DUP3 ADD SWAP1 POP DUP2 DUP2 SUB PUSH0 DUP4 ADD MSTORE PUSH2 0x38C3 DUP2 PUSH2 0x388A JUMP JUMPDEST SWAP1 POP SWAP2 SWAP1 POP JUMP JUMPDEST PUSH32 0x45434453413A20696E76616C6964207369676E6174757265206C656E67746800 PUSH0 DUP3 ADD MSTORE POP JUMP JUMPDEST PUSH0 PUSH2 0x38FE PUSH1 0x1F DUP4 PUSH2 0x265E JUMP JUMPDEST SWAP2 POP PUSH2 0x3909 DUP3 PUSH2 0x38CA JUMP JUMPDEST PUSH1 0x20 DUP3 ADD SWAP1 POP SWAP2 SWAP1 POP JUMP JUMPDEST PUSH0 PUSH1 0x20 DUP3 ADD SWAP1 POP DUP2 DUP2 SUB PUSH0 DUP4 ADD MSTORE PUSH2 0x392B DUP2 PUSH2 0x38F2 JUMP JUMPDEST SWAP1 POP SWAP2 SWAP1 POP JUMP JUMPDEST PUSH32 0x45434453413A20696E76616C6964207369676E6174757265202773272076616C PUSH0 DUP3 ADD MSTORE PUSH32 0x7565000000000000000000000000000000000000000000000000000000000000 PUSH1 0x20 DUP3 ADD MSTORE POP JUMP JUMPDEST PUSH0 PUSH2 0x398C PUSH1 0x22 DUP4 PUSH2 0x265E JUMP JUMPDEST SWAP2 POP PUSH2 0x3997 DUP3 PUSH2 0x3932 JUMP JUMPDEST PUSH1 0x40 DUP3 ADD SWAP1 POP SWAP2 SWAP1 POP JUMP JUMPDEST PUSH0 PUSH1 0x20 DUP3 ADD SWAP1 POP DUP2 DUP2 SUB PUSH0 DUP4 ADD MSTORE PUSH2 0x39B9 DUP2 PUSH2 0x3980 JUMP JUMPDEST SWAP1 POP SWAP2 SWAP1 POP JUMP JUMPDEST PUSH32 0x53616665436173743A2076616C756520646F65736E27742066697420696E2032 PUSH0 DUP3 ADD MSTORE PUSH32 0x3234206269747300000000000000000000000000000000000000000000000000 PUSH1 0x20 DUP3 ADD MSTORE POP JUMP JUMPDEST PUSH0 PUSH2 0x3A1A PUSH1 0x27 DUP4 PUSH2 0x265E JUMP JUMPDEST SWAP2 POP PUSH2 0x3A25 DUP3 PUSH2 0x39C0 JUMP JUMPDEST PUSH1 0x40 DUP3 ADD SWAP1 POP SWAP2 SWAP1 POP JUMP JUMPDEST PUSH0 PUSH1 0x20 DUP3 ADD SWAP1 POP DUP2 DUP2 SUB PUSH0 DUP4 ADD MSTORE PUSH2 0x3A47 DUP2 PUSH2 0x3A0E JUMP JUMPDEST SWAP1 POP SWAP2 SWAP1 POP JUMP INVALID LOG2 PUSH5 0x6970667358 0x22 SLT KECCAK256 PUSH8 0x856485FED24CCD4 COINBASE 0xD7 0xC0 PUSH9 0x4EAB42F3E44EB6616 SIGNEXTEND PUSH1 0xE4 0xB3 0xB9 0xC0 RETURNDATACOPY DUP15 SHR PUSH13 0x64736F6C634300081500330000 "
		},
		"gasEstimates": {
			"creation": {
				"codeDepositCost": "2996000",
				"executionCost": "infinite",
				"totalCost": "infinite"
			},
			"external": {
				"CLOCK_MODE()": "infinite",
				"DOMAIN_SEPARATOR()": "infinite",
				"allowance(address,address)": "infinite",
				"approve(address,uint256)": "infinite",
				"balanceOf(address)": "2852",
				"checkpoints(address,uint32)": "infinite",
				"clock()": "609",
				"decimals()": "450",
				"decreaseAllowance(address,uint256)": "infinite",
				"delegate(address)": "infinite",
				"delegateBySig(address,uint256,uint256,uint8,bytes32,bytes32)": "infinite",
				"delegates(address)": "infinite",
				"eip712Domain()": "infinite",
				"getPastTotalSupply(uint256)": "infinite",
				"getPastVotes(address,uint256)": "infinite",
				"getVotes(address)": "7397",
				"increaseAllowance(address,uint256)": "infinite",
				"name()": "infinite",
				"nonces(address)": "2921",
				"numCheckpoints(address)": "3110",
				"permit(address,address,uint256,uint256,uint8,bytes32,bytes32)": "infinite",
				"s_maxSupply()": "2514",
				"symbol()": "infinite",
				"totalSupply()": "2500",
				"transfer(address,uint256)": "infinite",
				"transferFrom(address,address,uint256)": "infinite"
			},
			"internal": {
				"_afterTokenTransfer(address,address,uint256)": "infinite",
				"_burn(address,uint256)": "infinite",
				"_mint(address,uint256)": "infinite"
			}
		},
		"methodIdentifiers": {
			"CLOCK_MODE()": "4bf5d7e9",
			"DOMAIN_SEPARATOR()": "3644e515",
			"allowance(address,address)": "dd62ed3e",
			"approve(address,uint256)": "095ea7b3",
			"balanceOf(address)": "70a08231",
			"checkpoints(address,uint32)": "f1127ed8",
			"clock()": "91ddadf4",
			"decimals()": "313ce567",
			"decreaseAllowance(address,uint256)": "a457c2d7",
			"delegate(address)": "5c19a95c",
			"delegateBySig(address,uint256,uint256,uint8,bytes32,bytes32)": "c3cda520",
			"delegates(address)": "587cde1e",
			"eip712Domain()": "84b0196e",
			"getPastTotalSupply(uint256)": "8e539e8c",
			"getPastVotes(address,uint256)": "3a46b1a8",
			"getVotes(address)": "9ab24eb0",
			"increaseAllowance(address,uint256)": "39509351",
			"name()": "06fdde03",
			"nonces(address)": "7ecebe00",
			"numCheckpoints(address)": "6fcfff45",
			"permit(address,address,uint256,uint256,uint8,bytes32,bytes32)": "d505accf",
			"s_maxSupply()": "5d641847",
			"symbol()": "95d89b41",
			"totalSupply()": "18160ddd",
			"transfer(address,uint256)": "a9059cbb",
			"transferFrom(address,address,uint256)": "23b872dd"
		}
	},
	"abi": [
		{
			"inputs": [],
			"stateMutability": "nonpayable",
			"type": "constructor"
		},
		{
			"inputs": [],
			"name": "InvalidShortString",
			"type": "error"
		},
		{
			"inputs": [
				{
					"internalType": "string",
					"name": "str",
					"type": "string"
				}
			],
			"name": "StringTooLong",
			"type": "error"
		},
		{
			"anonymous": false,
			"inputs": [
				{
					"indexed": true,
					"internalType": "address",
					"name": "owner",
					"type": "address"
				},
				{
					"indexed": true,
					"internalType": "address",
					"name": "spender",
					"type": "address"
				},
				{
					"indexed": false,
					"internalType": "uint256",
					"name": "value",
					"type": "uint256"
				}
			],
			"name": "Approval",
			"type": "event"
		},
		{
			"anonymous": false,
			"inputs": [
				{
					"indexed": true,
					"internalType": "address",
					"name": "delegator",
					"type": "address"
				},
				{
					"indexed": true,
					"internalType": "address",
					"name": "fromDelegate",
					"type": "address"
				},
				{
					"indexed": true,
					"internalType": "address",
					"name": "toDelegate",
					"type": "address"
				}
			],
			"name": "DelegateChanged",
			"type": "event"
		},
		{
			"anonymous": false,
			"inputs": [
				{
					"indexed": true,
					"internalType": "address",
					"name": "delegate",
					"type": "address"
				},
				{
					"indexed": false,
					"internalType": "uint256",
					"name": "previousBalance",
					"type": "uint256"
				},
				{
					"indexed": false,
					"internalType": "uint256",
					"name": "newBalance",
					"type": "uint256"
				}
			],
			"name": "DelegateVotesChanged",
			"type": "event"
		},
		{
			"anonymous": false,
			"inputs": [],
			"name": "EIP712DomainChanged",
			"type": "event"
		},
		{
			"anonymous": false,
			"inputs": [
				{
					"indexed": true,
					"internalType": "address",
					"name": "from",
					"type": "address"
				},
				{
					"indexed": true,
					"internalType": "address",
					"name": "to",
					"type": "address"
				},
				{
					"indexed": false,
					"internalType": "uint256",
					"name": "value",
					"type": "uint256"
				}
			],
			"name": "Transfer",
			"type": "event"
		},
		{
			"inputs": [],
			"name": "CLOCK_MODE",
			"outputs": [
				{
					"internalType": "string",
					"name": "",
					"type": "string"
				}
			],
			"stateMutability": "view",
			"type": "function"
		},
		{
			"inputs": [],
			"name": "DOMAIN_SEPARATOR",
			"outputs": [
				{
					"internalType": "bytes32",
					"name": "",
					"type": "bytes32"
				}
			],
			"stateMutability": "view",
			"type": "function"
		},
		{
			"inputs": [
				{
					"internalType": "address",
					"name": "owner",
					"type": "address"
				},
				{
					"internalType": "address",
					"name": "spender",
					"type": "address"
				}
			],
			"name": "allowance",
			"outputs": [
				{
					"internalType": "uint256",
					"name": "",
					"type": "uint256"
				}
			],
			"stateMutability": "view",
			"type": "function"
		},
		{
			"inputs": [
				{
					"internalType": "address",
					"name": "spender",
					"type": "address"
				},
				{
					"internalType": "uint256",
					"name": "amount",
					"type": "uint256"
				}
			],
			"name": "approve",
			"outputs": [
				{
					"internalType": "bool",
					"name": "",
					"type": "bool"
				}
			],
			"stateMutability": "nonpayable",
			"type": "function"
		},
		{
			"inputs": [
				{
					"internalType": "address",
					"name": "account",
					"type": "address"
				}
			],
			"name": "balanceOf",
			"outputs": [
				{
					"internalType": "uint256",
					"name": "",
					"type": "uint256"
				}
			],
			"stateMutability": "view",
			"type": "function"
		},
		{
			"inputs": [
				{
					"internalType": "address",
					"name": "account",
					"type": "address"
				},
				{
					"internalType": "uint32",
					"name": "pos",
					"type": "uint32"
				}
			],
			"name": "checkpoints",
			"outputs": [
				{
					"components": [
						{
							"internalType": "uint32",
							"name": "fromBlock",
							"type": "uint32"
						},
						{
							"internalType": "uint224",
							"name": "votes",
							"type": "uint224"
						}
					],
					"internalType": "struct ERC20Votes.Checkpoint",
					"name": "",
					"type": "tuple"
				}
			],
			"stateMutability": "view",
			"type": "function"
		},
		{
			"inputs": [],
			"name": "clock",
			"outputs": [
				{
					"internalType": "uint48",
					"name": "",
					"type": "uint48"
				}
			],
			"stateMutability": "view",
			"type": "function"
		},
		{
			"inputs": [],
			"name": "decimals",
			"outputs": [
				{
					"internalType": "uint8",
					"name": "",
					"type": "uint8"
				}
			],
			"stateMutability": "view",
			"type": "function"
		},
		{
			"inputs": [
				{
					"internalType": "address",
					"name": "spender",
					"type": "address"
				},
				{
					"internalType": "uint256",
					"name": "subtractedValue",
					"type": "uint256"
				}
			],
			"name": "decreaseAllowance",
			"outputs": [
				{
					"internalType": "bool",
					"name": "",
					"type": "bool"
				}
			],
			"stateMutability": "nonpayable",
			"type": "function"
		},
		{
			"inputs": [
				{
					"internalType": "address",
					"name": "delegatee",
					"type": "address"
				}
			],
			"name": "delegate",
			"outputs": [],
			"stateMutability": "nonpayable",
			"type": "function"
		},
		{
			"inputs": [
				{
					"internalType": "address",
					"name": "delegatee",
					"type": "address"
				},
				{
					"internalType": "uint256",
					"name": "nonce",
					"type": "uint256"
				},
				{
					"internalType": "uint256",
					"name": "expiry",
					"type": "uint256"
				},
				{
					"internalType": "uint8",
					"name": "v",
					"type": "uint8"
				},
				{
					"internalType": "bytes32",
					"name": "r",
					"type": "bytes32"
				},
				{
					"internalType": "bytes32",
					"name": "s",
					"type": "bytes32"
				}
			],
			"name": "delegateBySig",
			"outputs": [],
			"stateMutability": "nonpayable",
			"type": "function"
		},
		{
			"inputs": [
				{
					"internalType": "address",
					"name": "account",
					"type": "address"
				}
			],
			"name": "delegates",
			"outputs": [
				{
					"internalType": "address",
					"name": "",
					"type": "address"
				}
			],
			"stateMutability": "view",
			"type": "function"
		},
		{
			"inputs": [],
			"name": "eip712Domain",
			"outputs": [
				{
					"internalType": "bytes1",
					"name": "fields",
					"type": "bytes1"
				},
				{
					"internalType": "string",
					"name": "name",
					"type": "string"
				},
				{
					"internalType": "string",
					"name": "version",
					"type": "string"
				},
				{
					"internalType": "uint256",
					"name": "chainId",
					"type": "uint256"
				},
				{
					"internalType": "address",
					"name": "verifyingContract",
					"type": "address"
				},
				{
					"internalType": "bytes32",
					"name": "salt",
					"type": "bytes32"
				},
				{
					"internalType": "uint256[]",
					"name": "extensions",
					"type": "uint256[]"
				}
			],
			"stateMutability": "view",
			"type": "function"
		},
		{
			"inputs": [
				{
					"internalType": "uint256",
					"name": "timepoint",
					"type": "uint256"
				}
			],
			"name": "getPastTotalSupply",
			"outputs": [
				{
					"internalType": "uint256",
					"name": "",
					"type": "uint256"
				}
			],
			"stateMutability": "view",
			"type": "function"
		},
		{
			"inputs": [
				{
					"internalType": "address",
					"name": "account",
					"type": "address"
				},
				{
					"internalType": "uint256",
					"name": "timepoint",
					"type": "uint256"
				}
			],
			"name": "getPastVotes",
			"outputs": [
				{
					"internalType": "uint256",
					"name": "",
					"type": "uint256"
				}
			],
			"stateMutability": "view",
			"type": "function"
		},
		{
			"inputs": [
				{
					"internalType": "address",
					"name": "account",
					"type": "address"
				}
			],
			"name": "getVotes",
			"outputs": [
				{
					"internalType": "uint256",
					"name": "",
					"type": "uint256"
				}
			],
			"stateMutability": "view",
			"type": "function"
		},
		{
			"inputs": [
				{
					"internalType": "address",
					"name": "spender",
					"type": "address"
				},
				{
					"internalType": "uint256",
					"name": "addedValue",
					"type": "uint256"
				}
			],
			"name": "increaseAllowance",
			"outputs": [
				{
					"internalType": "bool",
					"name": "",
					"type": "bool"
				}
			],
			"stateMutability": "nonpayable",
			"type": "function"
		},
		{
			"inputs": [],
			"name": "name",
			"outputs": [
				{
					"internalType": "string",
					"name": "",
					"type": "string"
				}
			],
			"stateMutability": "view",
			"type": "function"
		},
		{
			"inputs": [
				{
					"internalType": "address",
					"name": "owner",
					"type": "address"
				}
			],
			"name": "nonces",
			"outputs": [
				{
					"internalType": "uint256",
					"name": "",
					"type": "uint256"
				}
			],
			"stateMutability": "view",
			"type": "function"
		},
		{
			"inputs": [
				{
					"internalType": "address",
					"name": "account",
					"type": "address"
				}
			],
			"name": "numCheckpoints",
			"outputs": [
				{
					"internalType": "uint32",
					"name": "",
					"type": "uint32"
				}
			],
			"stateMutability": "view",
			"type": "function"
		},
		{
			"inputs": [
				{
					"internalType": "address",
					"name": "owner",
					"type": "address"
				},
				{
					"internalType": "address",
					"name": "spender",
					"type": "address"
				},
				{
					"internalType": "uint256",
					"name": "value",
					"type": "uint256"
				},
				{
					"internalType": "uint256",
					"name": "deadline",
					"type": "uint256"
				},
				{
					"internalType": "uint8",
					"name": "v",
					"type": "uint8"
				},
				{
					"internalType": "bytes32",
					"name": "r",
					"type": "bytes32"
				},
				{
					"internalType": "bytes32",
					"name": "s",
					"type": "bytes32"
				}
			],
			"name": "permit",
			"outputs": [],
			"stateMutability": "nonpayable",
			"type": "function"
		},
		{
			"inputs": [],
			"name": "s_maxSupply",
			"outputs": [
				{
					"internalType": "uint256",
					"name": "",
					"type": "uint256"
				}
			],
			"stateMutability": "view",
			"type": "function"
		},
		{
			"inputs": [],
			"name": "symbol",
			"outputs": [
				{
					"internalType": "string",
					"name": "",
					"type": "string"
				}
			],
			"stateMutability": "view",
			"type": "function"
		},
		{
			"inputs": [],
			"name": "totalSupply",
			"outputs": [
				{
					"internalType": "uint256",
					"name": "",
					"type": "uint256"
				}
			],
			"stateMutability": "view",
			"type": "function"
		},
		{
			"inputs": [
				{
					"internalType": "address",
					"name": "to",
					"type": "address"
				},
				{
					"internalType": "uint256",
					"name": "amount",
					"type": "uint256"
				}
			],
			"name": "transfer",
			"outputs": [
				{
					"internalType": "bool",
					"name": "",
					"type": "bool"
				}
			],
			"stateMutability": "nonpayable",
			"type": "function"
		},
		{
			"inputs": [
				{
					"internalType": "address",
					"name": "from",
					"type": "address"
				},
				{
					"internalType": "address",
					"name": "to",
					"type": "address"
				},
				{
					"internalType": "uint256",
					"name": "amount",
					"type": "uint256"
				}
			],
			"name": "transferFrom",
			"outputs": [
				{
					"internalType": "bool",
					"name": "",
					"type": "bool"
				}
			],
			"stateMutability": "nonpayable",
			"type": "function"
		}
	]
}