{
	"telefonica/centenario2.sol": {
		"MyToken": {
			"abi": [
				{
					"inputs": [],
					"stateMutability": "nonpayable",
					"type": "constructor"
				},
				{
					"inputs": [
						{
							"internalType": "address",
							"name": "sender",
							"type": "address"
						},
						{
							"internalType": "uint256",
							"name": "tokenId",
							"type": "uint256"
						},
						{
							"internalType": "address",
							"name": "owner",
							"type": "address"
						}
					],
					"name": "ERC721IncorrectOwner",
					"type": "error"
				},
				{
					"inputs": [
						{
							"internalType": "address",
							"name": "operator",
							"type": "address"
						},
						{
							"internalType": "uint256",
							"name": "tokenId",
							"type": "uint256"
						}
					],
					"name": "ERC721InsufficientApproval",
					"type": "error"
				},
				{
					"inputs": [
						{
							"internalType": "address",
							"name": "approver",
							"type": "address"
						}
					],
					"name": "ERC721InvalidApprover",
					"type": "error"
				},
				{
					"inputs": [
						{
							"internalType": "address",
							"name": "operator",
							"type": "address"
						}
					],
					"name": "ERC721InvalidOperator",
					"type": "error"
				},
				{
					"inputs": [
						{
							"internalType": "address",
							"name": "owner",
							"type": "address"
						}
					],
					"name": "ERC721InvalidOwner",
					"type": "error"
				},
				{
					"inputs": [
						{
							"internalType": "address",
							"name": "receiver",
							"type": "address"
						}
					],
					"name": "ERC721InvalidReceiver",
					"type": "error"
				},
				{
					"inputs": [
						{
							"internalType": "address",
							"name": "sender",
							"type": "address"
						}
					],
					"name": "ERC721InvalidSender",
					"type": "error"
				},
				{
					"inputs": [
						{
							"internalType": "uint256",
							"name": "tokenId",
							"type": "uint256"
						}
					],
					"name": "ERC721NonexistentToken",
					"type": "error"
				},
				{
					"inputs": [],
					"name": "EnforcedPause",
					"type": "error"
				},
				{
					"inputs": [],
					"name": "ExpectedPause",
					"type": "error"
				},
				{
					"anonymous": false,
					"inputs": [
						{
							"indexed": true,
							"internalType": "address",
							"name": "owner",
							"type": "address"
						},
						{
							"indexed": true,
							"internalType": "address",
							"name": "approved",
							"type": "address"
						},
						{
							"indexed": true,
							"internalType": "uint256",
							"name": "tokenId",
							"type": "uint256"
						}
					],
					"name": "Approval",
					"type": "event"
				},
				{
					"anonymous": false,
					"inputs": [
						{
							"indexed": true,
							"internalType": "address",
							"name": "owner",
							"type": "address"
						},
						{
							"indexed": true,
							"internalType": "address",
							"name": "operator",
							"type": "address"
						},
						{
							"indexed": false,
							"internalType": "bool",
							"name": "approved",
							"type": "bool"
						}
					],
					"name": "ApprovalForAll",
					"type": "event"
				},
				{
					"anonymous": false,
					"inputs": [
						{
							"indexed": false,
							"internalType": "uint256",
							"name": "_fromTokenId",
							"type": "uint256"
						},
						{
							"indexed": false,
							"internalType": "uint256",
							"name": "_toTokenId",
							"type": "uint256"
						}
					],
					"name": "BatchMetadataUpdate",
					"type": "event"
				},
				{
					"anonymous": false,
					"inputs": [
						{
							"indexed": false,
							"internalType": "uint256",
							"name": "_tokenId",
							"type": "uint256"
						}
					],
					"name": "MetadataUpdate",
					"type": "event"
				},
				{
					"anonymous": false,
					"inputs": [
						{
							"indexed": true,
							"internalType": "address",
							"name": "previousOwner",
							"type": "address"
						},
						{
							"indexed": true,
							"internalType": "address",
							"name": "newOwner",
							"type": "address"
						}
					],
					"name": "OwnershipTransferred",
					"type": "event"
				},
				{
					"anonymous": false,
					"inputs": [
						{
							"indexed": false,
							"internalType": "address",
							"name": "account",
							"type": "address"
						}
					],
					"name": "Paused",
					"type": "event"
				},
				{
					"anonymous": false,
					"inputs": [
						{
							"indexed": true,
							"internalType": "address",
							"name": "from",
							"type": "address"
						},
						{
							"indexed": true,
							"internalType": "address",
							"name": "to",
							"type": "address"
						},
						{
							"indexed": true,
							"internalType": "uint256",
							"name": "tokenId",
							"type": "uint256"
						}
					],
					"name": "Transfer",
					"type": "event"
				},
				{
					"anonymous": false,
					"inputs": [
						{
							"indexed": false,
							"internalType": "address",
							"name": "account",
							"type": "address"
						}
					],
					"name": "Unpaused",
					"type": "event"
				},
				{
					"inputs": [
						{
							"internalType": "uint256",
							"name": "",
							"type": "uint256"
						}
					],
					"name": "allowedAddresses",
					"outputs": [
						{
							"internalType": "address",
							"name": "",
							"type": "address"
						}
					],
					"stateMutability": "view",
					"type": "function"
				},
				{
					"inputs": [
						{
							"internalType": "address",
							"name": "to",
							"type": "address"
						},
						{
							"internalType": "uint256",
							"name": "tokenId",
							"type": "uint256"
						}
					],
					"name": "approve",
					"outputs": [],
					"stateMutability": "nonpayable",
					"type": "function"
				},
				{
					"inputs": [
						{
							"internalType": "address",
							"name": "owner",
							"type": "address"
						}
					],
					"name": "balanceOf",
					"outputs": [
						{
							"internalType": "uint256",
							"name": "",
							"type": "uint256"
						}
					],
					"stateMutability": "view",
					"type": "function"
				},
				{
					"inputs": [
						{
							"internalType": "uint256",
							"name": "tokenId",
							"type": "uint256"
						}
					],
					"name": "getApproved",
					"outputs": [
						{
							"internalType": "address",
							"name": "",
							"type": "address"
						}
					],
					"stateMutability": "view",
					"type": "function"
				},
				{
					"inputs": [
						{
							"internalType": "address",
							"name": "",
							"type": "address"
						}
					],
					"name": "isAllowedToMint",
					"outputs": [
						{
							"internalType": "bool",
							"name": "",
							"type": "bool"
						}
					],
					"stateMutability": "view",
					"type": "function"
				},
				{
					"inputs": [
						{
							"internalType": "address",
							"name": "owner",
							"type": "address"
						},
						{
							"internalType": "address",
							"name": "operator",
							"type": "address"
						}
					],
					"name": "isApprovedForAll",
					"outputs": [
						{
							"internalType": "bool",
							"name": "",
							"type": "bool"
						}
					],
					"stateMutability": "view",
					"type": "function"
				},
				{
					"inputs": [],
					"name": "name",
					"outputs": [
						{
							"internalType": "string",
							"name": "",
							"type": "string"
						}
					],
					"stateMutability": "view",
					"type": "function"
				},
				{
					"inputs": [],
					"name": "owner",
					"outputs": [
						{
							"internalType": "address",
							"name": "",
							"type": "address"
						}
					],
					"stateMutability": "view",
					"type": "function"
				},
				{
					"inputs": [
						{
							"internalType": "uint256",
							"name": "tokenId",
							"type": "uint256"
						}
					],
					"name": "ownerOf",
					"outputs": [
						{
							"internalType": "address",
							"name": "",
							"type": "address"
						}
					],
					"stateMutability": "view",
					"type": "function"
				},
				{
					"inputs": [],
					"name": "pause",
					"outputs": [],
					"stateMutability": "nonpayable",
					"type": "function"
				},
				{
					"inputs": [],
					"name": "paused",
					"outputs": [
						{
							"internalType": "bool",
							"name": "",
							"type": "bool"
						}
					],
					"stateMutability": "view",
					"type": "function"
				},
				{
					"inputs": [],
					"name": "renounceOwnership",
					"outputs": [],
					"stateMutability": "nonpayable",
					"type": "function"
				},
				{
					"inputs": [
						{
							"internalType": "address",
							"name": "to",
							"type": "address"
						},
						{
							"internalType": "string",
							"name": "uri",
							"type": "string"
						}
					],
					"name": "safeMint",
					"outputs": [],
					"stateMutability": "nonpayable",
					"type": "function"
				},
				{
					"inputs": [
						{
							"internalType": "address",
							"name": "from",
							"type": "address"
						},
						{
							"internalType": "address",
							"name": "to",
							"type": "address"
						},
						{
							"internalType": "uint256",
							"name": "tokenId",
							"type": "uint256"
						}
					],
					"name": "safeTransferFrom",
					"outputs": [],
					"stateMutability": "nonpayable",
					"type": "function"
				},
				{
					"inputs": [
						{
							"internalType": "address",
							"name": "from",
							"type": "address"
						},
						{
							"internalType": "address",
							"name": "to",
							"type": "address"
						},
						{
							"internalType": "uint256",
							"name": "tokenId",
							"type": "uint256"
						},
						{
							"internalType": "bytes",
							"name": "data",
							"type": "bytes"
						}
					],
					"name": "safeTransferFrom",
					"outputs": [],
					"stateMutability": "nonpayable",
					"type": "function"
				},
				{
					"inputs": [
						{
							"internalType": "address",
							"name": "operator",
							"type": "address"
						},
						{
							"internalType": "bool",
							"name": "approved",
							"type": "bool"
						}
					],
					"name": "setApprovalForAll",
					"outputs": [],
					"stateMutability": "nonpayable",
					"type": "function"
				},
				{
					"inputs": [
						{
							"internalType": "bytes4",
							"name": "interfaceId",
							"type": "bytes4"
						}
					],
					"name": "supportsInterface",
					"outputs": [
						{
							"internalType": "bool",
							"name": "",
							"type": "bool"
						}
					],
					"stateMutability": "view",
					"type": "function"
				},
				{
					"inputs": [],
					"name": "symbol",
					"outputs": [
						{
							"internalType": "string",
							"name": "",
							"type": "string"
						}
					],
					"stateMutability": "view",
					"type": "function"
				},
				{
					"inputs": [
						{
							"internalType": "uint256",
							"name": "tokenId",
							"type": "uint256"
						}
					],
					"name": "tokenURI",
					"outputs": [
						{
							"internalType": "string",
							"name": "",
							"type": "string"
						}
					],
					"stateMutability": "view",
					"type": "function"
				},
				{
					"inputs": [
						{
							"internalType": "address",
							"name": "from",
							"type": "address"
						},
						{
							"internalType": "address",
							"name": "to",
							"type": "address"
						},
						{
							"internalType": "uint256",
							"name": "tokenId",
							"type": "uint256"
						}
					],
					"name": "transferFrom",
					"outputs": [],
					"stateMutability": "nonpayable",
					"type": "function"
				},
				{
					"inputs": [
						{
							"internalType": "address",
							"name": "newOwner",
							"type": "address"
						}
					],
					"name": "transferOwnership",
					"outputs": [],
					"stateMutability": "nonpayable",
					"type": "function"
				},
				{
					"inputs": [],
					"name": "unpause",
					"outputs": [],
					"stateMutability": "nonpayable",
					"type": "function"
				}
			],
			"devdoc": {
				"errors": {
					"ERC721IncorrectOwner(address,uint256,address)": [
						{
							"details": "Indicates an error related to the ownership over a particular token. Used in transfers.",
							"params": {
								"owner": "Address of the current owner of a token.",
								"sender": "Address whose tokens are being transferred.",
								"tokenId": "Identifier number of a token."
							}
						}
					],
					"ERC721InsufficientApproval(address,uint256)": [
						{
							"details": "Indicates a failure with the `operator`’s approval. Used in transfers.",
							"params": {
								"operator": "Address that may be allowed to operate on tokens without being their owner.",
								"tokenId": "Identifier number of a token."
							}
						}
					],
					"ERC721InvalidApprover(address)": [
						{
							"details": "Indicates a failure with the `approver` of a token to be approved. Used in approvals.",
							"params": {
								"approver": "Address initiating an approval operation."
							}
						}
					],
					"ERC721InvalidOperator(address)": [
						{
							"details": "Indicates a failure with the `operator` to be approved. Used in approvals.",
							"params": {
								"operator": "Address that may be allowed to operate on tokens without being their owner."
							}
						}
					],
					"ERC721InvalidOwner(address)": [
						{
							"details": "Indicates that an address can't be an owner. For example, `address(0)` is a forbidden owner in EIP-20. Used in balance queries.",
							"params": {
								"owner": "Address of the current owner of a token."
							}
						}
					],
					"ERC721InvalidReceiver(address)": [
						{
							"details": "Indicates a failure with the token `receiver`. Used in transfers.",
							"params": {
								"receiver": "Address to which tokens are being transferred."
							}
						}
					],
					"ERC721InvalidSender(address)": [
						{
							"details": "Indicates a failure with the token `sender`. Used in transfers.",
							"params": {
								"sender": "Address whose tokens are being transferred."
							}
						}
					],
					"ERC721NonexistentToken(uint256)": [
						{
							"details": "Indicates a `tokenId` whose `owner` is the zero address.",
							"params": {
								"tokenId": "Identifier number of a token."
							}
						}
					],
					"EnforcedPause()": [
						{
							"details": "The operation failed because the contract is paused."
						}
					],
					"ExpectedPause()": [
						{
							"details": "The operation failed because the contract is not paused."
						}
					]
				},
				"events": {
					"Approval(address,address,uint256)": {
						"details": "Emitted when `owner` enables `approved` to manage the `tokenId` token."
					},
					"ApprovalForAll(address,address,bool)": {
						"details": "Emitted when `owner` enables or disables (`approved`) `operator` to manage all of its assets."
					},
					"BatchMetadataUpdate(uint256,uint256)": {
						"details": "This event emits when the metadata of a range of tokens is changed. So that the third-party platforms such as NFT market could timely update the images and related attributes of the NFTs."
					},
					"MetadataUpdate(uint256)": {
						"details": "This event emits when the metadata of a token is changed. So that the third-party platforms such as NFT market could timely update the images and related attributes of the NFT."
					},
					"Paused(address)": {
						"details": "Emitted when the pause is triggered by `account`."
					},
					"Transfer(address,address,uint256)": {
						"details": "Emitted when `tokenId` token is transferred from `from` to `to`."
					},
					"Unpaused(address)": {
						"details": "Emitted when the pause is lifted by `account`."
					}
				},
				"kind": "dev",
				"methods": {
					"approve(address,uint256)": {
						"details": "See {IERC721-approve}."
					},
					"balanceOf(address)": {
						"details": "See {IERC721-balanceOf}."
					},
					"getApproved(uint256)": {
						"details": "See {IERC721-getApproved}."
					},
					"isApprovedForAll(address,address)": {
						"details": "See {IERC721-isApprovedForAll}."
					},
					"name()": {
						"details": "See {IERC721Metadata-name}."
					},
					"owner()": {
						"details": "Returns the address of the current owner."
					},
					"ownerOf(uint256)": {
						"details": "See {IERC721-ownerOf}."
					},
					"paused()": {
						"details": "Returns true if the contract is paused, and false otherwise."
					},
					"renounceOwnership()": {
						"details": "Leaves the contract without owner. It will not be possible to call `onlyOwner` functions. Can only be called by the current owner. NOTE: Renouncing ownership will leave the contract without an owner, thereby disabling any functionality that is only available to the owner."
					},
					"safeTransferFrom(address,address,uint256)": {
						"details": "See {IERC721-safeTransferFrom}."
					},
					"safeTransferFrom(address,address,uint256,bytes)": {
						"details": "See {IERC721-safeTransferFrom}."
					},
					"setApprovalForAll(address,bool)": {
						"details": "See {IERC721-setApprovalForAll}."
					},
					"symbol()": {
						"details": "See {IERC721Metadata-symbol}."
					},
					"transferFrom(address,address,uint256)": {
						"details": "See {IERC721-transferFrom}."
					},
					"transferOwnership(address)": {
						"details": "Transfers ownership of the contract to a new account (`newOwner`). Can only be called by the current owner."
					}
				},
				"version": 1
			},
			"evm": {
				"assembly": "    /* \"telefonica/centenario2.sol\":326:1663  contract MyToken is ERC721, ERC721URIStorage, ERC721Pausable, Ownable {... */\n  mstore(0x40, 0x80)\n    /* \"telefonica/centenario2.sol\":578:631  constructor()... */\n  callvalue\n  dup1\n  iszero\n  tag_1\n  jumpi\n  0x00\n  dup1\n  revert\ntag_1:\n  pop\n    /* \"@openzeppelin/contracts/token/ERC721/ERC721.sol\":1381:1494  constructor(string memory name_, string memory symbol_) {... */\n  mload(0x40)\n  dup1\n  0x40\n  add\n  0x40\n  mstore\n  dup1\n  0x07\n  dup2\n  mstore\n  0x20\n  add\n  0x4d79546f6b656e00000000000000000000000000000000000000000000000000\n  dup2\n  mstore\n  pop\n  mload(0x40)\n  dup1\n  0x40\n  add\n  0x40\n  mstore\n  dup1\n  0x03\n  dup2\n  mstore\n  0x20\n  add\n  0x4d544b0000000000000000000000000000000000000000000000000000000000\n  dup2\n  mstore\n  pop\n    /* \"@openzeppelin/contracts/token/ERC721/ERC721.sol\":1455:1460  name_ */\n  dup2\n    /* \"@openzeppelin/contracts/token/ERC721/ERC721.sol\":1447:1452  _name */\n  0x00\n    /* \"@openzeppelin/contracts/token/ERC721/ERC721.sol\":1447:1460  _name = name_ */\n  swap1\n  dup2\n  tag_7\n  swap2\n  swap1\n  tag_8\n  jump\t// in\ntag_7:\n  pop\n    /* \"@openzeppelin/contracts/token/ERC721/ERC721.sol\":1480:1487  symbol_ */\n  dup1\n    /* \"@openzeppelin/contracts/token/ERC721/ERC721.sol\":1470:1477  _symbol */\n  0x01\n    /* \"@openzeppelin/contracts/token/ERC721/ERC721.sol\":1470:1487  _symbol = symbol_ */\n  swap1\n  dup2\n  tag_9\n  swap2\n  swap1\n  tag_8\n  jump\t// in\ntag_9:\n  pop\n    /* \"@openzeppelin/contracts/token/ERC721/ERC721.sol\":1381:1494  constructor(string memory name_, string memory symbol_) {... */\n  pop\n  pop\n    /* \"@openzeppelin/contracts/utils/Pausable.sol\":1241:1246  false */\n  0x00\n    /* \"@openzeppelin/contracts/utils/Pausable.sol\":1231:1238  _paused */\n  0x07\n  0x00\n    /* \"@openzeppelin/contracts/utils/Pausable.sol\":1231:1246  _paused = false */\n  0x0100\n  exp\n  dup2\n  sload\n  dup2\n  0xff\n  mul\n  not\n  and\n  swap1\n  dup4\n  iszero\n  iszero\n  mul\n  or\n  swap1\n  sstore\n  pop\n    /* \"@openzeppelin/contracts/access/Ownable.sol\":936:968  _transferOwnership(_msgSender()) */\n  tag_12\n    /* \"@openzeppelin/contracts/access/Ownable.sol\":955:967  _msgSender() */\n  tag_13\n    /* \"@openzeppelin/contracts/access/Ownable.sol\":955:965  _msgSender */\n  shl(0x20, tag_14)\n    /* \"@openzeppelin/contracts/access/Ownable.sol\":955:967  _msgSender() */\n  0x20\n  shr\n  jump\t// in\ntag_13:\n    /* \"@openzeppelin/contracts/access/Ownable.sol\":936:954  _transferOwnership */\n  shl(0x20, tag_15)\n    /* \"@openzeppelin/contracts/access/Ownable.sol\":936:968  _transferOwnership(_msgSender()) */\n  0x20\n  shr\n  jump\t// in\ntag_12:\n    /* \"telefonica/centenario2.sol\":326:1663  contract MyToken is ERC721, ERC721URIStorage, ERC721Pausable, Ownable {... */\n  jump(tag_17)\n    /* \"@openzeppelin/contracts/utils/Context.sol\":640:736  function _msgSender() internal view virtual returns (address) {... */\ntag_14:\n    /* \"@openzeppelin/contracts/utils/Context.sol\":693:700  address */\n  0x00\n    /* \"@openzeppelin/contracts/utils/Context.sol\":719:729  msg.sender */\n  caller\n    /* \"@openzeppelin/contracts/utils/Context.sol\":712:729  return msg.sender */\n  swap1\n  pop\n    /* \"@openzeppelin/contracts/utils/Context.sol\":640:736  function _msgSender() internal view virtual returns (address) {... */\n  swap1\n  jump\t// out\n    /* \"@openzeppelin/contracts/access/Ownable.sol\":2426:2613  function _transferOwnership(address newOwner) internal virtual {... */\ntag_15:\n    /* \"@openzeppelin/contracts/access/Ownable.sol\":2499:2515  address oldOwner */\n  0x00\n    /* \"@openzeppelin/contracts/access/Ownable.sol\":2518:2524  _owner */\n  0x07\n  0x01\n  swap1\n  sload\n  swap1\n  0x0100\n  exp\n  swap1\n  div\n  0xffffffffffffffffffffffffffffffffffffffff\n  and\n    /* \"@openzeppelin/contracts/access/Ownable.sol\":2499:2524  address oldOwner = _owner */\n  swap1\n  pop\n    /* \"@openzeppelin/contracts/access/Ownable.sol\":2543:2551  newOwner */\n  dup2\n    /* \"@openzeppelin/contracts/access/Ownable.sol\":2534:2540  _owner */\n  0x07\n  0x01\n    /* \"@openzeppelin/contracts/access/Ownable.sol\":2534:2551  _owner = newOwner */\n  0x0100\n  exp\n  dup2\n  sload\n  dup2\n  0xffffffffffffffffffffffffffffffffffffffff\n  mul\n  not\n  and\n  swap1\n  dup4\n  0xffffffffffffffffffffffffffffffffffffffff\n  and\n  mul\n  or\n  swap1\n  sstore\n  pop\n    /* \"@openzeppelin/contracts/access/Ownable.sol\":2597:2605  newOwner */\n  dup2\n    /* \"@openzeppelin/contracts/access/Ownable.sol\":2566:2606  OwnershipTransferred(oldOwner, newOwner) */\n  0xffffffffffffffffffffffffffffffffffffffff\n  and\n    /* \"@openzeppelin/contracts/access/Ownable.sol\":2587:2595  oldOwner */\n  dup2\n    /* \"@openzeppelin/contracts/access/Ownable.sol\":2566:2606  OwnershipTransferred(oldOwner, newOwner) */\n  0xffffffffffffffffffffffffffffffffffffffff\n  and\n  0x8be0079c531659141344cd1fd0a4f28419497f9722a3daafe3b4186f6b6457e0\n  mload(0x40)\n  mload(0x40)\n  dup1\n  swap2\n  sub\n  swap1\n  log3\n    /* \"@openzeppelin/contracts/access/Ownable.sol\":2489:2613  {... */\n  pop\n    /* \"@openzeppelin/contracts/access/Ownable.sol\":2426:2613  function _transferOwnership(address newOwner) internal virtual {... */\n  pop\n  jump\t// out\n    /* \"#utility.yul\":7:106   */\ntag_20:\n    /* \"#utility.yul\":59:65   */\n  0x00\n    /* \"#utility.yul\":93:98   */\n  dup2\n    /* \"#utility.yul\":87:99   */\n  mload\n    /* \"#utility.yul\":77:99   */\n  swap1\n  pop\n    /* \"#utility.yul\":7:106   */\n  swap2\n  swap1\n  pop\n  jump\t// out\n    /* \"#utility.yul\":112:292   */\ntag_21:\n    /* \"#utility.yul\":160:237   */\n  0x4e487b7100000000000000000000000000000000000000000000000000000000\n    /* \"#utility.yul\":157:158   */\n  0x00\n    /* \"#utility.yul\":150:238   */\n  mstore\n    /* \"#utility.yul\":257:261   */\n  0x41\n    /* \"#utility.yul\":254:255   */\n  0x04\n    /* \"#utility.yul\":247:262   */\n  mstore\n    /* \"#utility.yul\":281:285   */\n  0x24\n    /* \"#utility.yul\":278:279   */\n  0x00\n    /* \"#utility.yul\":271:286   */\n  revert\n    /* \"#utility.yul\":298:478   */\ntag_22:\n    /* \"#utility.yul\":346:423   */\n  0x4e487b7100000000000000000000000000000000000000000000000000000000\n    /* \"#utility.yul\":343:344   */\n  0x00\n    /* \"#utility.yul\":336:424   */\n  mstore\n    /* \"#utility.yul\":443:447   */\n  0x22\n    /* \"#utility.yul\":440:441   */\n  0x04\n    /* \"#utility.yul\":433:448   */\n  mstore\n    /* \"#utility.yul\":467:471   */\n  0x24\n    /* \"#utility.yul\":464:465   */\n  0x00\n    /* \"#utility.yul\":457:472   */\n  revert\n    /* \"#utility.yul\":484:804   */\ntag_23:\n    /* \"#utility.yul\":528:534   */\n  0x00\n    /* \"#utility.yul\":565:566   */\n  0x02\n    /* \"#utility.yul\":559:563   */\n  dup3\n    /* \"#utility.yul\":555:567   */\n  div\n    /* \"#utility.yul\":545:567   */\n  swap1\n  pop\n    /* \"#utility.yul\":612:613   */\n  0x01\n    /* \"#utility.yul\":606:610   */\n  dup3\n    /* \"#utility.yul\":602:614   */\n  and\n    /* \"#utility.yul\":633:651   */\n  dup1\n    /* \"#utility.yul\":623:704   */\n  tag_45\n  jumpi\n    /* \"#utility.yul\":689:693   */\n  0x7f\n    /* \"#utility.yul\":681:687   */\n  dup3\n    /* \"#utility.yul\":677:694   */\n  and\n    /* \"#utility.yul\":667:694   */\n  swap2\n  pop\n    /* \"#utility.yul\":623:704   */\ntag_45:\n    /* \"#utility.yul\":751:753   */\n  0x20\n    /* \"#utility.yul\":743:749   */\n  dup3\n    /* \"#utility.yul\":740:754   */\n  lt\n    /* \"#utility.yul\":720:738   */\n  dup2\n    /* \"#utility.yul\":717:755   */\n  sub\n    /* \"#utility.yul\":714:798   */\n  tag_46\n  jumpi\n    /* \"#utility.yul\":770:788   */\n  tag_47\n  tag_22\n  jump\t// in\ntag_47:\n    /* \"#utility.yul\":714:798   */\ntag_46:\n    /* \"#utility.yul\":535:804   */\n  pop\n    /* \"#utility.yul\":484:804   */\n  swap2\n  swap1\n  pop\n  jump\t// out\n    /* \"#utility.yul\":810:951   */\ntag_24:\n    /* \"#utility.yul\":859:863   */\n  0x00\n    /* \"#utility.yul\":882:885   */\n  dup2\n    /* \"#utility.yul\":874:885   */\n  swap1\n  pop\n    /* \"#utility.yul\":905:908   */\n  dup2\n    /* \"#utility.yul\":902:903   */\n  0x00\n    /* \"#utility.yul\":895:909   */\n  mstore\n    /* \"#utility.yul\":939:943   */\n  0x20\n    /* \"#utility.yul\":936:937   */\n  0x00\n    /* \"#utility.yul\":926:944   */\n  keccak256\n    /* \"#utility.yul\":918:944   */\n  swap1\n  pop\n    /* \"#utility.yul\":810:951   */\n  swap2\n  swap1\n  pop\n  jump\t// out\n    /* \"#utility.yul\":957:1050   */\ntag_25:\n    /* \"#utility.yul\":994:1000   */\n  0x00\n    /* \"#utility.yul\":1041:1043   */\n  0x20\n    /* \"#utility.yul\":1036:1038   */\n  0x1f\n    /* \"#utility.yul\":1029:1034   */\n  dup4\n    /* \"#utility.yul\":1025:1039   */\n  add\n    /* \"#utility.yul\":1021:1044   */\n  div\n    /* \"#utility.yul\":1011:1044   */\n  swap1\n  pop\n    /* \"#utility.yul\":957:1050   */\n  swap2\n  swap1\n  pop\n  jump\t// out\n    /* \"#utility.yul\":1056:1163   */\ntag_26:\n    /* \"#utility.yul\":1100:1108   */\n  0x00\n    /* \"#utility.yul\":1150:1155   */\n  dup3\n    /* \"#utility.yul\":1144:1148   */\n  dup3\n    /* \"#utility.yul\":1140:1156   */\n  shl\n    /* \"#utility.yul\":1119:1156   */\n  swap1\n  pop\n    /* \"#utility.yul\":1056:1163   */\n  swap3\n  swap2\n  pop\n  pop\n  jump\t// out\n    /* \"#utility.yul\":1169:1562   */\ntag_27:\n    /* \"#utility.yul\":1238:1244   */\n  0x00\n    /* \"#utility.yul\":1288:1289   */\n  0x08\n    /* \"#utility.yul\":1276:1286   */\n  dup4\n    /* \"#utility.yul\":1272:1290   */\n  mul\n    /* \"#utility.yul\":1311:1408   */\n  tag_52\n    /* \"#utility.yul\":1341:1407   */\n  0xffffffffffffffffffffffffffffffffffffffffffffffffffffffffffffffff\n    /* \"#utility.yul\":1330:1339   */\n  dup3\n    /* \"#utility.yul\":1311:1408   */\n  tag_26\n  jump\t// in\ntag_52:\n    /* \"#utility.yul\":1429:1468   */\n  tag_53\n    /* \"#utility.yul\":1459:1467   */\n  dup7\n    /* \"#utility.yul\":1448:1457   */\n  dup4\n    /* \"#utility.yul\":1429:1468   */\n  tag_26\n  jump\t// in\ntag_53:\n    /* \"#utility.yul\":1417:1468   */\n  swap6\n  pop\n    /* \"#utility.yul\":1501:1505   */\n  dup1\n    /* \"#utility.yul\":1497:1506   */\n  not\n    /* \"#utility.yul\":1490:1495   */\n  dup5\n    /* \"#utility.yul\":1486:1507   */\n  and\n    /* \"#utility.yul\":1477:1507   */\n  swap4\n  pop\n    /* \"#utility.yul\":1550:1554   */\n  dup1\n    /* \"#utility.yul\":1540:1548   */\n  dup7\n    /* \"#utility.yul\":1536:1555   */\n  and\n    /* \"#utility.yul\":1529:1534   */\n  dup5\n    /* \"#utility.yul\":1526:1556   */\n  or\n    /* \"#utility.yul\":1516:1556   */\n  swap3\n  pop\n    /* \"#utility.yul\":1245:1562   */\n  pop\n  pop\n    /* \"#utility.yul\":1169:1562   */\n  swap4\n  swap3\n  pop\n  pop\n  pop\n  jump\t// out\n    /* \"#utility.yul\":1568:1645   */\ntag_28:\n    /* \"#utility.yul\":1605:1612   */\n  0x00\n    /* \"#utility.yul\":1634:1639   */\n  dup2\n    /* \"#utility.yul\":1623:1639   */\n  swap1\n  pop\n    /* \"#utility.yul\":1568:1645   */\n  swap2\n  swap1\n  pop\n  jump\t// out\n    /* \"#utility.yul\":1651:1711   */\ntag_29:\n    /* \"#utility.yul\":1679:1682   */\n  0x00\n    /* \"#utility.yul\":1700:1705   */\n  dup2\n    /* \"#utility.yul\":1693:1705   */\n  swap1\n  pop\n    /* \"#utility.yul\":1651:1711   */\n  swap2\n  swap1\n  pop\n  jump\t// out\n    /* \"#utility.yul\":1717:1859   */\ntag_30:\n    /* \"#utility.yul\":1767:1776   */\n  0x00\n    /* \"#utility.yul\":1800:1853   */\n  tag_57\n    /* \"#utility.yul\":1818:1852   */\n  tag_58\n    /* \"#utility.yul\":1827:1851   */\n  tag_59\n    /* \"#utility.yul\":1845:1850   */\n  dup5\n    /* \"#utility.yul\":1827:1851   */\n  tag_28\n  jump\t// in\ntag_59:\n    /* \"#utility.yul\":1818:1852   */\n  tag_29\n  jump\t// in\ntag_58:\n    /* \"#utility.yul\":1800:1853   */\n  tag_28\n  jump\t// in\ntag_57:\n    /* \"#utility.yul\":1787:1853   */\n  swap1\n  pop\n    /* \"#utility.yul\":1717:1859   */\n  swap2\n  swap1\n  pop\n  jump\t// out\n    /* \"#utility.yul\":1865:1940   */\ntag_31:\n    /* \"#utility.yul\":1908:1911   */\n  0x00\n    /* \"#utility.yul\":1929:1934   */\n  dup2\n    /* \"#utility.yul\":1922:1934   */\n  swap1\n  pop\n    /* \"#utility.yul\":1865:1940   */\n  swap2\n  swap1\n  pop\n  jump\t// out\n    /* \"#utility.yul\":1946:2215   */\ntag_32:\n    /* \"#utility.yul\":2056:2095   */\n  tag_62\n    /* \"#utility.yul\":2087:2094   */\n  dup4\n    /* \"#utility.yul\":2056:2095   */\n  tag_30\n  jump\t// in\ntag_62:\n    /* \"#utility.yul\":2117:2208   */\n  tag_63\n    /* \"#utility.yul\":2166:2207   */\n  tag_64\n    /* \"#utility.yul\":2190:2206   */\n  dup3\n    /* \"#utility.yul\":2166:2207   */\n  tag_31\n  jump\t// in\ntag_64:\n    /* \"#utility.yul\":2158:2164   */\n  dup5\n    /* \"#utility.yul\":2151:2155   */\n  dup5\n    /* \"#utility.yul\":2145:2156   */\n  sload\n    /* \"#utility.yul\":2117:2208   */\n  tag_27\n  jump\t// in\ntag_63:\n    /* \"#utility.yul\":2111:2115   */\n  dup3\n    /* \"#utility.yul\":2104:2209   */\n  sstore\n    /* \"#utility.yul\":2022:2215   */\n  pop\n    /* \"#utility.yul\":1946:2215   */\n  pop\n  pop\n  pop\n  jump\t// out\n    /* \"#utility.yul\":2221:2294   */\ntag_33:\n    /* \"#utility.yul\":2266:2269   */\n  0x00\n    /* \"#utility.yul\":2221:2294   */\n  swap1\n  jump\t// out\n    /* \"#utility.yul\":2300:2489   */\ntag_34:\n    /* \"#utility.yul\":2377:2409   */\n  tag_67\n  tag_33\n  jump\t// in\ntag_67:\n    /* \"#utility.yul\":2418:2483   */\n  tag_68\n    /* \"#utility.yul\":2476:2482   */\n  dup2\n    /* \"#utility.yul\":2468:2474   */\n  dup5\n    /* \"#utility.yul\":2462:2466   */\n  dup5\n    /* \"#utility.yul\":2418:2483   */\n  tag_32\n  jump\t// in\ntag_68:\n    /* \"#utility.yul\":2353:2489   */\n  pop\n    /* \"#utility.yul\":2300:2489   */\n  pop\n  pop\n  jump\t// out\n    /* \"#utility.yul\":2495:2681   */\ntag_35:\n    /* \"#utility.yul\":2555:2675   */\ntag_70:\n    /* \"#utility.yul\":2572:2575   */\n  dup2\n    /* \"#utility.yul\":2565:2570   */\n  dup2\n    /* \"#utility.yul\":2562:2576   */\n  lt\n    /* \"#utility.yul\":2555:2675   */\n  iszero\n  tag_72\n  jumpi\n    /* \"#utility.yul\":2626:2665   */\n  tag_73\n    /* \"#utility.yul\":2663:2664   */\n  0x00\n    /* \"#utility.yul\":2656:2661   */\n  dup3\n    /* \"#utility.yul\":2626:2665   */\n  tag_34\n  jump\t// in\ntag_73:\n    /* \"#utility.yul\":2599:2600   */\n  0x01\n    /* \"#utility.yul\":2592:2597   */\n  dup2\n    /* \"#utility.yul\":2588:2601   */\n  add\n    /* \"#utility.yul\":2579:2601   */\n  swap1\n  pop\n    /* \"#utility.yul\":2555:2675   */\n  jump(tag_70)\ntag_72:\n    /* \"#utility.yul\":2495:2681   */\n  pop\n  pop\n  jump\t// out\n    /* \"#utility.yul\":2687:3230   */\ntag_36:\n    /* \"#utility.yul\":2788:2790   */\n  0x1f\n    /* \"#utility.yul\":2783:2786   */\n  dup3\n    /* \"#utility.yul\":2780:2791   */\n  gt\n    /* \"#utility.yul\":2777:3223   */\n  iszero\n  tag_75\n  jumpi\n    /* \"#utility.yul\":2822:2860   */\n  tag_76\n    /* \"#utility.yul\":2854:2859   */\n  dup2\n    /* \"#utility.yul\":2822:2860   */\n  tag_24\n  jump\t// in\ntag_76:\n    /* \"#utility.yul\":2906:2935   */\n  tag_77\n    /* \"#utility.yul\":2924:2934   */\n  dup5\n    /* \"#utility.yul\":2906:2935   */\n  tag_25\n  jump\t// in\ntag_77:\n    /* \"#utility.yul\":2896:2904   */\n  dup2\n    /* \"#utility.yul\":2892:2936   */\n  add\n    /* \"#utility.yul\":3089:3091   */\n  0x20\n    /* \"#utility.yul\":3077:3087   */\n  dup6\n    /* \"#utility.yul\":3074:3092   */\n  lt\n    /* \"#utility.yul\":3071:3120   */\n  iszero\n  tag_78\n  jumpi\n    /* \"#utility.yul\":3110:3118   */\n  dup2\n    /* \"#utility.yul\":3095:3118   */\n  swap1\n  pop\n    /* \"#utility.yul\":3071:3120   */\ntag_78:\n    /* \"#utility.yul\":3133:3213   */\n  tag_79\n    /* \"#utility.yul\":3189:3211   */\n  tag_80\n    /* \"#utility.yul\":3207:3210   */\n  dup6\n    /* \"#utility.yul\":3189:3211   */\n  tag_25\n  jump\t// in\ntag_80:\n    /* \"#utility.yul\":3179:3187   */\n  dup4\n    /* \"#utility.yul\":3175:3212   */\n  add\n    /* \"#utility.yul\":3162:3173   */\n  dup3\n    /* \"#utility.yul\":3133:3213   */\n  tag_35\n  jump\t// in\ntag_79:\n    /* \"#utility.yul\":2792:3223   */\n  pop\n  pop\n    /* \"#utility.yul\":2777:3223   */\ntag_75:\n    /* \"#utility.yul\":2687:3230   */\n  pop\n  pop\n  pop\n  jump\t// out\n    /* \"#utility.yul\":3236:3353   */\ntag_37:\n    /* \"#utility.yul\":3290:3298   */\n  0x00\n    /* \"#utility.yul\":3340:3345   */\n  dup3\n    /* \"#utility.yul\":3334:3338   */\n  dup3\n    /* \"#utility.yul\":3330:3346   */\n  shr\n    /* \"#utility.yul\":3309:3346   */\n  swap1\n  pop\n    /* \"#utility.yul\":3236:3353   */\n  swap3\n  swap2\n  pop\n  pop\n  jump\t// out\n    /* \"#utility.yul\":3359:3528   */\ntag_38:\n    /* \"#utility.yul\":3403:3409   */\n  0x00\n    /* \"#utility.yul\":3436:3487   */\n  tag_83\n    /* \"#utility.yul\":3484:3485   */\n  0x00\n    /* \"#utility.yul\":3480:3486   */\n  not\n    /* \"#utility.yul\":3472:3477   */\n  dup5\n    /* \"#utility.yul\":3469:3470   */\n  0x08\n    /* \"#utility.yul\":3465:3478   */\n  mul\n    /* \"#utility.yul\":3436:3487   */\n  tag_37\n  jump\t// in\ntag_83:\n    /* \"#utility.yul\":3432:3488   */\n  not\n    /* \"#utility.yul\":3517:3521   */\n  dup1\n    /* \"#utility.yul\":3511:3515   */\n  dup4\n    /* \"#utility.yul\":3507:3522   */\n  and\n    /* \"#utility.yul\":3497:3522   */\n  swap2\n  pop\n    /* \"#utility.yul\":3410:3528   */\n  pop\n    /* \"#utility.yul\":3359:3528   */\n  swap3\n  swap2\n  pop\n  pop\n  jump\t// out\n    /* \"#utility.yul\":3533:3828   */\ntag_39:\n    /* \"#utility.yul\":3609:3613   */\n  0x00\n    /* \"#utility.yul\":3755:3784   */\n  tag_85\n    /* \"#utility.yul\":3780:3783   */\n  dup4\n    /* \"#utility.yul\":3774:3778   */\n  dup4\n    /* \"#utility.yul\":3755:3784   */\n  tag_38\n  jump\t// in\ntag_85:\n    /* \"#utility.yul\":3747:3784   */\n  swap2\n  pop\n    /* \"#utility.yul\":3817:3820   */\n  dup3\n    /* \"#utility.yul\":3814:3815   */\n  0x02\n    /* \"#utility.yul\":3810:3821   */\n  mul\n    /* \"#utility.yul\":3804:3808   */\n  dup3\n    /* \"#utility.yul\":3801:3822   */\n  or\n    /* \"#utility.yul\":3793:3822   */\n  swap1\n  pop\n    /* \"#utility.yul\":3533:3828   */\n  swap3\n  swap2\n  pop\n  pop\n  jump\t// out\n    /* \"#utility.yul\":3833:5228   */\ntag_8:\n    /* \"#utility.yul\":3950:3987   */\n  tag_87\n    /* \"#utility.yul\":3983:3986   */\n  dup3\n    /* \"#utility.yul\":3950:3987   */\n  tag_20\n  jump\t// in\ntag_87:\n    /* \"#utility.yul\":4052:4070   */\n  0xffffffffffffffff\n    /* \"#utility.yul\":4044:4050   */\n  dup2\n    /* \"#utility.yul\":4041:4071   */\n  gt\n    /* \"#utility.yul\":4038:4094   */\n  iszero\n  tag_88\n  jumpi\n    /* \"#utility.yul\":4074:4092   */\n  tag_89\n  tag_21\n  jump\t// in\ntag_89:\n    /* \"#utility.yul\":4038:4094   */\ntag_88:\n    /* \"#utility.yul\":4118:4156   */\n  tag_90\n    /* \"#utility.yul\":4150:4154   */\n  dup3\n    /* \"#utility.yul\":4144:4155   */\n  sload\n    /* \"#utility.yul\":4118:4156   */\n  tag_23\n  jump\t// in\ntag_90:\n    /* \"#utility.yul\":4203:4270   */\n  tag_91\n    /* \"#utility.yul\":4263:4269   */\n  dup3\n    /* \"#utility.yul\":4255:4261   */\n  dup3\n    /* \"#utility.yul\":4249:4253   */\n  dup6\n    /* \"#utility.yul\":4203:4270   */\n  tag_36\n  jump\t// in\ntag_91:\n    /* \"#utility.yul\":4297:4298   */\n  0x00\n    /* \"#utility.yul\":4321:4325   */\n  0x20\n    /* \"#utility.yul\":4308:4325   */\n  swap1\n  pop\n    /* \"#utility.yul\":4353:4355   */\n  0x1f\n    /* \"#utility.yul\":4345:4351   */\n  dup4\n    /* \"#utility.yul\":4342:4356   */\n  gt\n    /* \"#utility.yul\":4370:4371   */\n  0x01\n    /* \"#utility.yul\":4365:4983   */\n  dup2\n  eq\n  tag_93\n  jumpi\n    /* \"#utility.yul\":5027:5028   */\n  0x00\n    /* \"#utility.yul\":5044:5050   */\n  dup5\n    /* \"#utility.yul\":5041:5118   */\n  iszero\n  tag_94\n  jumpi\n    /* \"#utility.yul\":5093:5102   */\n  dup3\n    /* \"#utility.yul\":5088:5091   */\n  dup8\n    /* \"#utility.yul\":5084:5103   */\n  add\n    /* \"#utility.yul\":5078:5104   */\n  mload\n    /* \"#utility.yul\":5069:5104   */\n  swap1\n  pop\n    /* \"#utility.yul\":5041:5118   */\ntag_94:\n    /* \"#utility.yul\":5144:5211   */\n  tag_95\n    /* \"#utility.yul\":5204:5210   */\n  dup6\n    /* \"#utility.yul\":5197:5202   */\n  dup3\n    /* \"#utility.yul\":5144:5211   */\n  tag_39\n  jump\t// in\ntag_95:\n    /* \"#utility.yul\":5138:5142   */\n  dup7\n    /* \"#utility.yul\":5131:5212   */\n  sstore\n    /* \"#utility.yul\":5000:5222   */\n  pop\n    /* \"#utility.yul\":4335:5222   */\n  jump(tag_92)\n    /* \"#utility.yul\":4365:4983   */\ntag_93:\n    /* \"#utility.yul\":4417:4421   */\n  0x1f\n    /* \"#utility.yul\":4413:4422   */\n  not\n    /* \"#utility.yul\":4405:4411   */\n  dup5\n    /* \"#utility.yul\":4401:4423   */\n  and\n    /* \"#utility.yul\":4451:4488   */\n  tag_96\n    /* \"#utility.yul\":4483:4487   */\n  dup7\n    /* \"#utility.yul\":4451:4488   */\n  tag_24\n  jump\t// in\ntag_96:\n    /* \"#utility.yul\":4510:4511   */\n  0x00\n    /* \"#utility.yul\":4524:4732   */\ntag_97:\n    /* \"#utility.yul\":4538:4545   */\n  dup3\n    /* \"#utility.yul\":4535:4536   */\n  dup2\n    /* \"#utility.yul\":4532:4546   */\n  lt\n    /* \"#utility.yul\":4524:4732   */\n  iszero\n  tag_99\n  jumpi\n    /* \"#utility.yul\":4617:4626   */\n  dup5\n    /* \"#utility.yul\":4612:4615   */\n  dup10\n    /* \"#utility.yul\":4608:4627   */\n  add\n    /* \"#utility.yul\":4602:4628   */\n  mload\n    /* \"#utility.yul\":4594:4600   */\n  dup3\n    /* \"#utility.yul\":4587:4629   */\n  sstore\n    /* \"#utility.yul\":4668:4669   */\n  0x01\n    /* \"#utility.yul\":4660:4666   */\n  dup3\n    /* \"#utility.yul\":4656:4670   */\n  add\n    /* \"#utility.yul\":4646:4670   */\n  swap2\n  pop\n    /* \"#utility.yul\":4715:4717   */\n  0x20\n    /* \"#utility.yul\":4704:4713   */\n  dup6\n    /* \"#utility.yul\":4700:4718   */\n  add\n    /* \"#utility.yul\":4687:4718   */\n  swap5\n  pop\n    /* \"#utility.yul\":4561:4565   */\n  0x20\n    /* \"#utility.yul\":4558:4559   */\n  dup2\n    /* \"#utility.yul\":4554:4566   */\n  add\n    /* \"#utility.yul\":4549:4566   */\n  swap1\n  pop\n    /* \"#utility.yul\":4524:4732   */\n  jump(tag_97)\ntag_99:\n    /* \"#utility.yul\":4760:4766   */\n  dup7\n    /* \"#utility.yul\":4751:4758   */\n  dup4\n    /* \"#utility.yul\":4748:4767   */\n  lt\n    /* \"#utility.yul\":4745:4924   */\n  iszero\n  tag_100\n  jumpi\n    /* \"#utility.yul\":4818:4827   */\n  dup5\n    /* \"#utility.yul\":4813:4816   */\n  dup10\n    /* \"#utility.yul\":4809:4828   */\n  add\n    /* \"#utility.yul\":4803:4829   */\n  mload\n    /* \"#utility.yul\":4861:4909   */\n  tag_101\n    /* \"#utility.yul\":4903:4907   */\n  0x1f\n    /* \"#utility.yul\":4895:4901   */\n  dup10\n    /* \"#utility.yul\":4891:4908   */\n  and\n    /* \"#utility.yul\":4880:4889   */\n  dup3\n    /* \"#utility.yul\":4861:4909   */\n  tag_38\n  jump\t// in\ntag_101:\n    /* \"#utility.yul\":4853:4859   */\n  dup4\n    /* \"#utility.yul\":4846:4910   */\n  sstore\n    /* \"#utility.yul\":4768:4924   */\n  pop\n    /* \"#utility.yul\":4745:4924   */\ntag_100:\n    /* \"#utility.yul\":4970:4971   */\n  0x01\n    /* \"#utility.yul\":4966:4967   */\n  0x02\n    /* \"#utility.yul\":4958:4964   */\n  dup9\n    /* \"#utility.yul\":4954:4968   */\n  mul\n    /* \"#utility.yul\":4950:4972   */\n  add\n    /* \"#utility.yul\":4944:4948   */\n  dup9\n    /* \"#utility.yul\":4937:4973   */\n  sstore\n    /* \"#utility.yul\":4372:4983   */\n  pop\n  pop\n  pop\n    /* \"#utility.yul\":4335:5222   */\ntag_92:\n  pop\n    /* \"#utility.yul\":3925:5228   */\n  pop\n  pop\n  pop\n    /* \"#utility.yul\":3833:5228   */\n  pop\n  pop\n  jump\t// out\n    /* \"telefonica/centenario2.sol\":326:1663  contract MyToken is ERC721, ERC721URIStorage, ERC721Pausable, Ownable {... */\ntag_17:\n  dataSize(sub_0)\n  dup1\n  dataOffset(sub_0)\n  0x00\n  codecopy\n  0x00\n  return\nstop\n\nsub_0: assembly {\n        /* \"telefonica/centenario2.sol\":326:1663  contract MyToken is ERC721, ERC721URIStorage, ERC721Pausable, Ownable {... */\n      mstore(0x40, 0x80)\n      callvalue\n      dup1\n      iszero\n      tag_1\n      jumpi\n      0x00\n      dup1\n      revert\n    tag_1:\n      pop\n      jumpi(tag_2, lt(calldatasize, 0x04))\n      shr(0xe0, calldataload(0x00))\n      dup1\n      0x70a08231\n      gt\n      tag_25\n      jumpi\n      dup1\n      0xa22cb465\n      gt\n      tag_26\n      jumpi\n      dup1\n      0xa22cb465\n      eq\n      tag_19\n      jumpi\n      dup1\n      0xb88d4fde\n      eq\n      tag_20\n      jumpi\n      dup1\n      0xc87b56dd\n      eq\n      tag_21\n      jumpi\n      dup1\n      0xd204c45e\n      eq\n      tag_22\n      jumpi\n      dup1\n      0xe985e9c5\n      eq\n      tag_23\n      jumpi\n      dup1\n      0xf2fde38b\n      eq\n      tag_24\n      jumpi\n      jump(tag_2)\n    tag_26:\n      dup1\n      0x70a08231\n      eq\n      tag_14\n      jumpi\n      dup1\n      0x715018a6\n      eq\n      tag_15\n      jumpi\n      dup1\n      0x8456cb59\n      eq\n      tag_16\n      jumpi\n      dup1\n      0x8da5cb5b\n      eq\n      tag_17\n      jumpi\n      dup1\n      0x95d89b41\n      eq\n      tag_18\n      jumpi\n      jump(tag_2)\n    tag_25:\n      dup1\n      0x3f4ba83a\n      gt\n      tag_27\n      jumpi\n      dup1\n      0x3f4ba83a\n      eq\n      tag_8\n      jumpi\n      dup1\n      0x42842e0e\n      eq\n      tag_9\n      jumpi\n      dup1\n      0x4813d8a6\n      eq\n      tag_10\n      jumpi\n      dup1\n      0x5c975abb\n      eq\n      tag_11\n      jumpi\n      dup1\n      0x6352211e\n      eq\n      tag_12\n      jumpi\n      dup1\n      0x64b55bed\n      eq\n      tag_13\n      jumpi\n      jump(tag_2)\n    tag_27:\n      dup1\n      0x01ffc9a7\n      eq\n      tag_3\n      jumpi\n      dup1\n      0x06fdde03\n      eq\n      tag_4\n      jumpi\n      dup1\n      0x081812fc\n      eq\n      tag_5\n      jumpi\n      dup1\n      0x095ea7b3\n      eq\n      tag_6\n      jumpi\n      dup1\n      0x23b872dd\n      eq\n      tag_7\n      jumpi\n    tag_2:\n      0x00\n      dup1\n      revert\n        /* \"telefonica/centenario2.sol\":1456:1661  function supportsInterface(bytes4 interfaceId)... */\n    tag_3:\n      tag_28\n      0x04\n      dup1\n      calldatasize\n      sub\n      dup2\n      add\n      swap1\n      tag_29\n      swap2\n      swap1\n      tag_30\n      jump\t// in\n    tag_29:\n      tag_31\n      jump\t// in\n    tag_28:\n      mload(0x40)\n      tag_32\n      swap2\n      swap1\n      tag_33\n      jump\t// in\n    tag_32:\n      mload(0x40)\n      dup1\n      swap2\n      sub\n      swap1\n      return\n        /* \"@openzeppelin/contracts/token/ERC721/ERC721.sol\":2365:2454  function name() public view virtual returns (string memory) {... */\n    tag_4:\n      tag_34\n      tag_35\n      jump\t// in\n    tag_34:\n      mload(0x40)\n      tag_36\n      swap2\n      swap1\n      tag_37\n      jump\t// in\n    tag_36:\n      mload(0x40)\n      dup1\n      swap2\n      sub\n      swap1\n      return\n        /* \"@openzeppelin/contracts/token/ERC721/ERC721.sol\":3497:3651  function getApproved(uint256 tokenId) public view virtual returns (address) {... */\n    tag_5:\n      tag_38\n      0x04\n      dup1\n      calldatasize\n      sub\n      dup2\n      add\n      swap1\n      tag_39\n      swap2\n      swap1\n      tag_40\n      jump\t// in\n    tag_39:\n      tag_41\n      jump\t// in\n    tag_38:\n      mload(0x40)\n      tag_42\n      swap2\n      swap1\n      tag_43\n      jump\t// in\n    tag_42:\n      mload(0x40)\n      dup1\n      swap2\n      sub\n      swap1\n      return\n        /* \"@openzeppelin/contracts/token/ERC721/ERC721.sol\":3323:3436  function approve(address to, uint256 tokenId) public virtual {... */\n    tag_6:\n      tag_44\n      0x04\n      dup1\n      calldatasize\n      sub\n      dup2\n      add\n      swap1\n      tag_45\n      swap2\n      swap1\n      tag_46\n      jump\t// in\n    tag_45:\n      tag_47\n      jump\t// in\n    tag_44:\n      stop\n        /* \"@openzeppelin/contracts/token/ERC721/ERC721.sol\":4143:4721  function transferFrom(address from, address to, uint256 tokenId) public virtual {... */\n    tag_7:\n      tag_48\n      0x04\n      dup1\n      calldatasize\n      sub\n      dup2\n      add\n      swap1\n      tag_49\n      swap2\n      swap1\n      tag_50\n      jump\t// in\n    tag_49:\n      tag_51\n      jump\t// in\n    tag_48:\n      stop\n        /* \"telefonica/centenario2.sol\":702:765  function unpause() public onlyOwner {... */\n    tag_8:\n      tag_52\n      tag_53\n      jump\t// in\n    tag_52:\n      stop\n        /* \"@openzeppelin/contracts/token/ERC721/ERC721.sol\":4787:4919  function safeTransferFrom(address from, address to, uint256 tokenId) public {... */\n    tag_9:\n      tag_54\n      0x04\n      dup1\n      calldatasize\n      sub\n      dup2\n      add\n      swap1\n      tag_55\n      swap2\n      swap1\n      tag_50\n      jump\t// in\n    tag_55:\n      tag_56\n      jump\t// in\n    tag_54:\n      stop\n        /* \"telefonica/centenario2.sol\":485:532  mapping(address => bool) public isAllowedToMint */\n    tag_10:\n      tag_57\n      0x04\n      dup1\n      calldatasize\n      sub\n      dup2\n      add\n      swap1\n      tag_58\n      swap2\n      swap1\n      tag_59\n      jump\t// in\n    tag_58:\n      tag_60\n      jump\t// in\n    tag_57:\n      mload(0x40)\n      tag_61\n      swap2\n      swap1\n      tag_33\n      jump\t// in\n    tag_61:\n      mload(0x40)\n      dup1\n      swap2\n      sub\n      swap1\n      return\n        /* \"@openzeppelin/contracts/utils/Pausable.sol\":1850:1934  function paused() public view virtual returns (bool) {... */\n    tag_11:\n      tag_62\n      tag_63\n      jump\t// in\n    tag_62:\n      mload(0x40)\n      tag_64\n      swap2\n      swap1\n      tag_33\n      jump\t// in\n    tag_64:\n      mload(0x40)\n      dup1\n      swap2\n      sub\n      swap1\n      return\n        /* \"@openzeppelin/contracts/token/ERC721/ERC721.sol\":2185:2303  function ownerOf(uint256 tokenId) public view virtual returns (address) {... */\n    tag_12:\n      tag_65\n      0x04\n      dup1\n      calldatasize\n      sub\n      dup2\n      add\n      swap1\n      tag_66\n      swap2\n      swap1\n      tag_40\n      jump\t// in\n    tag_66:\n      tag_67\n      jump\t// in\n    tag_65:\n      mload(0x40)\n      tag_68\n      swap2\n      swap1\n      tag_43\n      jump\t// in\n    tag_68:\n      mload(0x40)\n      dup1\n      swap2\n      sub\n      swap1\n      return\n        /* \"telefonica/centenario2.sol\":538:571  address[] public allowedAddresses */\n    tag_13:\n      tag_69\n      0x04\n      dup1\n      calldatasize\n      sub\n      dup2\n      add\n      swap1\n      tag_70\n      swap2\n      swap1\n      tag_40\n      jump\t// in\n    tag_70:\n      tag_71\n      jump\t// in\n    tag_69:\n      mload(0x40)\n      tag_72\n      swap2\n      swap1\n      tag_43\n      jump\t// in\n    tag_72:\n      mload(0x40)\n      dup1\n      swap2\n      sub\n      swap1\n      return\n        /* \"@openzeppelin/contracts/token/ERC721/ERC721.sol\":1920:2128  function balanceOf(address owner) public view virtual returns (uint256) {... */\n    tag_14:\n      tag_73\n      0x04\n      dup1\n      calldatasize\n      sub\n      dup2\n      add\n      swap1\n      tag_74\n      swap2\n      swap1\n      tag_59\n      jump\t// in\n    tag_74:\n      tag_75\n      jump\t// in\n    tag_73:\n      mload(0x40)\n      tag_76\n      swap2\n      swap1\n      tag_77\n      jump\t// in\n    tag_76:\n      mload(0x40)\n      dup1\n      swap2\n      sub\n      swap1\n      return\n        /* \"@openzeppelin/contracts/access/Ownable.sol\":1824:1925  function renounceOwnership() public virtual onlyOwner {... */\n    tag_15:\n      tag_78\n      tag_79\n      jump\t// in\n    tag_78:\n      stop\n        /* \"telefonica/centenario2.sol\":637:696  function pause() public onlyOwner {... */\n    tag_16:\n      tag_80\n      tag_81\n      jump\t// in\n    tag_80:\n      stop\n        /* \"@openzeppelin/contracts/access/Ownable.sol\":1201:1286  function owner() public view virtual returns (address) {... */\n    tag_17:\n      tag_82\n      tag_83\n      jump\t// in\n    tag_82:\n      mload(0x40)\n      tag_84\n      swap2\n      swap1\n      tag_43\n      jump\t// in\n    tag_84:\n      mload(0x40)\n      dup1\n      swap2\n      sub\n      swap1\n      return\n        /* \"@openzeppelin/contracts/token/ERC721/ERC721.sol\":2518:2611  function symbol() public view virtual returns (string memory) {... */\n    tag_18:\n      tag_85\n      tag_86\n      jump\t// in\n    tag_85:\n      mload(0x40)\n      tag_87\n      swap2\n      swap1\n      tag_37\n      jump\t// in\n    tag_87:\n      mload(0x40)\n      dup1\n      swap2\n      sub\n      swap1\n      return\n        /* \"@openzeppelin/contracts/token/ERC721/ERC721.sol\":3718:3862  function setApprovalForAll(address operator, bool approved) public virtual {... */\n    tag_19:\n      tag_88\n      0x04\n      dup1\n      calldatasize\n      sub\n      dup2\n      add\n      swap1\n      tag_89\n      swap2\n      swap1\n      tag_90\n      jump\t// in\n    tag_89:\n      tag_91\n      jump\t// in\n    tag_88:\n      stop\n        /* \"@openzeppelin/contracts/token/ERC721/ERC721.sol\":4985:5193  function safeTransferFrom(address from, address to, uint256 tokenId, bytes memory data) public virtual {... */\n    tag_20:\n      tag_92\n      0x04\n      dup1\n      calldatasize\n      sub\n      dup2\n      add\n      swap1\n      tag_93\n      swap2\n      swap1\n      tag_94\n      jump\t// in\n    tag_93:\n      tag_95\n      jump\t// in\n    tag_92:\n      stop\n        /* \"telefonica/centenario2.sol\":1261:1450  function tokenURI(uint256 tokenId)... */\n    tag_21:\n      tag_96\n      0x04\n      dup1\n      calldatasize\n      sub\n      dup2\n      add\n      swap1\n      tag_97\n      swap2\n      swap1\n      tag_40\n      jump\t// in\n    tag_97:\n      tag_98\n      jump\t// in\n    tag_96:\n      mload(0x40)\n      tag_99\n      swap2\n      swap1\n      tag_37\n      jump\t// in\n    tag_99:\n      mload(0x40)\n      dup1\n      swap2\n      sub\n      swap1\n      return\n        /* \"telefonica/centenario2.sol\":771:976  function safeMint(address to, string memory uri) public {... */\n    tag_22:\n      tag_100\n      0x04\n      dup1\n      calldatasize\n      sub\n      dup2\n      add\n      swap1\n      tag_101\n      swap2\n      swap1\n      tag_102\n      jump\t// in\n    tag_101:\n      tag_103\n      jump\t// in\n    tag_100:\n      stop\n        /* \"@openzeppelin/contracts/token/ERC721/ERC721.sol\":3928:4081  function isApprovedForAll(address owner, address operator) public view virtual returns (bool) {... */\n    tag_23:\n      tag_104\n      0x04\n      dup1\n      calldatasize\n      sub\n      dup2\n      add\n      swap1\n      tag_105\n      swap2\n      swap1\n      tag_106\n      jump\t// in\n    tag_105:\n      tag_107\n      jump\t// in\n    tag_104:\n      mload(0x40)\n      tag_108\n      swap2\n      swap1\n      tag_33\n      jump\t// in\n    tag_108:\n      mload(0x40)\n      dup1\n      swap2\n      sub\n      swap1\n      return\n        /* \"@openzeppelin/contracts/access/Ownable.sol\":2074:2272  function transferOwnership(address newOwner) public virtual onlyOwner {... */\n    tag_24:\n      tag_109\n      0x04\n      dup1\n      calldatasize\n      sub\n      dup2\n      add\n      swap1\n      tag_110\n      swap2\n      swap1\n      tag_59\n      jump\t// in\n    tag_110:\n      tag_111\n      jump\t// in\n    tag_109:\n      stop\n        /* \"telefonica/centenario2.sol\":1456:1661  function supportsInterface(bytes4 interfaceId)... */\n    tag_31:\n        /* \"telefonica/centenario2.sol\":1591:1595  bool */\n      0x00\n        /* \"telefonica/centenario2.sol\":1618:1654  super.supportsInterface(interfaceId) */\n      tag_113\n        /* \"telefonica/centenario2.sol\":1642:1653  interfaceId */\n      dup3\n        /* \"telefonica/centenario2.sol\":1618:1641  super.supportsInterface */\n      tag_114\n        /* \"telefonica/centenario2.sol\":1618:1654  super.supportsInterface(interfaceId) */\n      jump\t// in\n    tag_113:\n        /* \"telefonica/centenario2.sol\":1611:1654  return super.supportsInterface(interfaceId) */\n      swap1\n      pop\n        /* \"telefonica/centenario2.sol\":1456:1661  function supportsInterface(bytes4 interfaceId)... */\n      swap2\n      swap1\n      pop\n      jump\t// out\n        /* \"@openzeppelin/contracts/token/ERC721/ERC721.sol\":2365:2454  function name() public view virtual returns (string memory) {... */\n    tag_35:\n        /* \"@openzeppelin/contracts/token/ERC721/ERC721.sol\":2410:2423  string memory */\n      0x60\n        /* \"@openzeppelin/contracts/token/ERC721/ERC721.sol\":2442:2447  _name */\n      0x00\n        /* \"@openzeppelin/contracts/token/ERC721/ERC721.sol\":2435:2447  return _name */\n      dup1\n      sload\n      tag_116\n      swap1\n      tag_117\n      jump\t// in\n    tag_116:\n      dup1\n      0x1f\n      add\n      0x20\n      dup1\n      swap2\n      div\n      mul\n      0x20\n      add\n      mload(0x40)\n      swap1\n      dup2\n      add\n      0x40\n      mstore\n      dup1\n      swap3\n      swap2\n      swap1\n      dup2\n      dup2\n      mstore\n      0x20\n      add\n      dup3\n      dup1\n      sload\n      tag_118\n      swap1\n      tag_117\n      jump\t// in\n    tag_118:\n      dup1\n      iszero\n      tag_119\n      jumpi\n      dup1\n      0x1f\n      lt\n      tag_120\n      jumpi\n      0x0100\n      dup1\n      dup4\n      sload\n      div\n      mul\n      dup4\n      mstore\n      swap2\n      0x20\n      add\n      swap2\n      jump(tag_119)\n    tag_120:\n      dup3\n      add\n      swap2\n      swap1\n      0x00\n      mstore\n      keccak256(0x00, 0x20)\n      swap1\n    tag_121:\n      dup2\n      sload\n      dup2\n      mstore\n      swap1\n      0x01\n      add\n      swap1\n      0x20\n      add\n      dup1\n      dup4\n      gt\n      tag_121\n      jumpi\n      dup3\n      swap1\n      sub\n      0x1f\n      and\n      dup3\n      add\n      swap2\n    tag_119:\n      pop\n      pop\n      pop\n      pop\n      pop\n      swap1\n      pop\n        /* \"@openzeppelin/contracts/token/ERC721/ERC721.sol\":2365:2454  function name() public view virtual returns (string memory) {... */\n      swap1\n      jump\t// out\n        /* \"@openzeppelin/contracts/token/ERC721/ERC721.sol\":3497:3651  function getApproved(uint256 tokenId) public view virtual returns (address) {... */\n    tag_41:\n        /* \"@openzeppelin/contracts/token/ERC721/ERC721.sol\":3564:3571  address */\n      0x00\n        /* \"@openzeppelin/contracts/token/ERC721/ERC721.sol\":3583:3605  _requireOwned(tokenId) */\n      tag_123\n        /* \"@openzeppelin/contracts/token/ERC721/ERC721.sol\":3597:3604  tokenId */\n      dup3\n        /* \"@openzeppelin/contracts/token/ERC721/ERC721.sol\":3583:3596  _requireOwned */\n      tag_124\n        /* \"@openzeppelin/contracts/token/ERC721/ERC721.sol\":3583:3605  _requireOwned(tokenId) */\n      jump\t// in\n    tag_123:\n      pop\n        /* \"@openzeppelin/contracts/token/ERC721/ERC721.sol\":3623:3644  _getApproved(tokenId) */\n      tag_125\n        /* \"@openzeppelin/contracts/token/ERC721/ERC721.sol\":3636:3643  tokenId */\n      dup3\n        /* \"@openzeppelin/contracts/token/ERC721/ERC721.sol\":3623:3635  _getApproved */\n      tag_126\n        /* \"@openzeppelin/contracts/token/ERC721/ERC721.sol\":3623:3644  _getApproved(tokenId) */\n      jump\t// in\n    tag_125:\n        /* \"@openzeppelin/contracts/token/ERC721/ERC721.sol\":3616:3644  return _getApproved(tokenId) */\n      swap1\n      pop\n        /* \"@openzeppelin/contracts/token/ERC721/ERC721.sol\":3497:3651  function getApproved(uint256 tokenId) public view virtual returns (address) {... */\n      swap2\n      swap1\n      pop\n      jump\t// out\n        /* \"@openzeppelin/contracts/token/ERC721/ERC721.sol\":3323:3436  function approve(address to, uint256 tokenId) public virtual {... */\n    tag_47:\n        /* \"@openzeppelin/contracts/token/ERC721/ERC721.sol\":3394:3429  _approve(to, tokenId, _msgSender()) */\n      tag_128\n        /* \"@openzeppelin/contracts/token/ERC721/ERC721.sol\":3403:3405  to */\n      dup3\n        /* \"@openzeppelin/contracts/token/ERC721/ERC721.sol\":3407:3414  tokenId */\n      dup3\n        /* \"@openzeppelin/contracts/token/ERC721/ERC721.sol\":3416:3428  _msgSender() */\n      tag_129\n        /* \"@openzeppelin/contracts/token/ERC721/ERC721.sol\":3416:3426  _msgSender */\n      tag_130\n        /* \"@openzeppelin/contracts/token/ERC721/ERC721.sol\":3416:3428  _msgSender() */\n      jump\t// in\n    tag_129:\n        /* \"@openzeppelin/contracts/token/ERC721/ERC721.sol\":3394:3402  _approve */\n      tag_131\n        /* \"@openzeppelin/contracts/token/ERC721/ERC721.sol\":3394:3429  _approve(to, tokenId, _msgSender()) */\n      jump\t// in\n    tag_128:\n        /* \"@openzeppelin/contracts/token/ERC721/ERC721.sol\":3323:3436  function approve(address to, uint256 tokenId) public virtual {... */\n      pop\n      pop\n      jump\t// out\n        /* \"@openzeppelin/contracts/token/ERC721/ERC721.sol\":4143:4721  function transferFrom(address from, address to, uint256 tokenId) public virtual {... */\n    tag_51:\n        /* \"@openzeppelin/contracts/token/ERC721/ERC721.sol\":4251:4252  0 */\n      0x00\n        /* \"@openzeppelin/contracts/token/ERC721/ERC721.sol\":4237:4253  to == address(0) */\n      0xffffffffffffffffffffffffffffffffffffffff\n      and\n        /* \"@openzeppelin/contracts/token/ERC721/ERC721.sol\":4237:4239  to */\n      dup3\n        /* \"@openzeppelin/contracts/token/ERC721/ERC721.sol\":4237:4253  to == address(0) */\n      0xffffffffffffffffffffffffffffffffffffffff\n      and\n      sub\n        /* \"@openzeppelin/contracts/token/ERC721/ERC721.sol\":4233:4320  if (to == address(0)) {... */\n      tag_133\n      jumpi\n        /* \"@openzeppelin/contracts/token/ERC721/ERC721.sol\":4306:4307  0 */\n      0x00\n        /* \"@openzeppelin/contracts/token/ERC721/ERC721.sol\":4276:4309  ERC721InvalidReceiver(address(0)) */\n      mload(0x40)\n      0x64a0ae9200000000000000000000000000000000000000000000000000000000\n      dup2\n      mstore\n      0x04\n      add\n      tag_134\n      swap2\n      swap1\n      tag_43\n      jump\t// in\n    tag_134:\n      mload(0x40)\n      dup1\n      swap2\n      sub\n      swap1\n      revert\n        /* \"@openzeppelin/contracts/token/ERC721/ERC721.sol\":4233:4320  if (to == address(0)) {... */\n    tag_133:\n        /* \"@openzeppelin/contracts/token/ERC721/ERC721.sol\":4538:4559  address previousOwner */\n      0x00\n        /* \"@openzeppelin/contracts/token/ERC721/ERC721.sol\":4562:4596  _update(to, tokenId, _msgSender()) */\n      tag_135\n        /* \"@openzeppelin/contracts/token/ERC721/ERC721.sol\":4570:4572  to */\n      dup4\n        /* \"@openzeppelin/contracts/token/ERC721/ERC721.sol\":4574:4581  tokenId */\n      dup4\n        /* \"@openzeppelin/contracts/token/ERC721/ERC721.sol\":4583:4595  _msgSender() */\n      tag_136\n        /* \"@openzeppelin/contracts/token/ERC721/ERC721.sol\":4583:4593  _msgSender */\n      tag_130\n        /* \"@openzeppelin/contracts/token/ERC721/ERC721.sol\":4583:4595  _msgSender() */\n      jump\t// in\n    tag_136:\n        /* \"@openzeppelin/contracts/token/ERC721/ERC721.sol\":4562:4569  _update */\n      tag_137\n        /* \"@openzeppelin/contracts/token/ERC721/ERC721.sol\":4562:4596  _update(to, tokenId, _msgSender()) */\n      jump\t// in\n    tag_135:\n        /* \"@openzeppelin/contracts/token/ERC721/ERC721.sol\":4538:4596  address previousOwner = _update(to, tokenId, _msgSender()) */\n      swap1\n      pop\n        /* \"@openzeppelin/contracts/token/ERC721/ERC721.sol\":4627:4631  from */\n      dup4\n        /* \"@openzeppelin/contracts/token/ERC721/ERC721.sol\":4610:4631  previousOwner != from */\n      0xffffffffffffffffffffffffffffffffffffffff\n      and\n        /* \"@openzeppelin/contracts/token/ERC721/ERC721.sol\":4610:4623  previousOwner */\n      dup2\n        /* \"@openzeppelin/contracts/token/ERC721/ERC721.sol\":4610:4631  previousOwner != from */\n      0xffffffffffffffffffffffffffffffffffffffff\n      and\n      eq\n        /* \"@openzeppelin/contracts/token/ERC721/ERC721.sol\":4606:4715  if (previousOwner != from) {... */\n      tag_138\n      jumpi\n        /* \"@openzeppelin/contracts/token/ERC721/ERC721.sol\":4675:4679  from */\n      dup4\n        /* \"@openzeppelin/contracts/token/ERC721/ERC721.sol\":4681:4688  tokenId */\n      dup3\n        /* \"@openzeppelin/contracts/token/ERC721/ERC721.sol\":4690:4703  previousOwner */\n      dup3\n        /* \"@openzeppelin/contracts/token/ERC721/ERC721.sol\":4654:4704  ERC721IncorrectOwner(from, tokenId, previousOwner) */\n      mload(0x40)\n      0x64283d7b00000000000000000000000000000000000000000000000000000000\n      dup2\n      mstore\n      0x04\n      add\n      tag_139\n      swap4\n      swap3\n      swap2\n      swap1\n      tag_140\n      jump\t// in\n    tag_139:\n      mload(0x40)\n      dup1\n      swap2\n      sub\n      swap1\n      revert\n        /* \"@openzeppelin/contracts/token/ERC721/ERC721.sol\":4606:4715  if (previousOwner != from) {... */\n    tag_138:\n        /* \"@openzeppelin/contracts/token/ERC721/ERC721.sol\":4223:4721  {... */\n      pop\n        /* \"@openzeppelin/contracts/token/ERC721/ERC721.sol\":4143:4721  function transferFrom(address from, address to, uint256 tokenId) public virtual {... */\n      pop\n      pop\n      pop\n      jump\t// out\n        /* \"telefonica/centenario2.sol\":702:765  function unpause() public onlyOwner {... */\n    tag_53:\n        /* \"@openzeppelin/contracts/access/Ownable.sol\":1094:1107  _checkOwner() */\n      tag_142\n        /* \"@openzeppelin/contracts/access/Ownable.sol\":1094:1105  _checkOwner */\n      tag_143\n        /* \"@openzeppelin/contracts/access/Ownable.sol\":1094:1107  _checkOwner() */\n      jump\t// in\n    tag_142:\n        /* \"telefonica/centenario2.sol\":748:758  _unpause() */\n      tag_145\n        /* \"telefonica/centenario2.sol\":748:756  _unpause */\n      tag_146\n        /* \"telefonica/centenario2.sol\":748:758  _unpause() */\n      jump\t// in\n    tag_145:\n        /* \"telefonica/centenario2.sol\":702:765  function unpause() public onlyOwner {... */\n      jump\t// out\n        /* \"@openzeppelin/contracts/token/ERC721/ERC721.sol\":4787:4919  function safeTransferFrom(address from, address to, uint256 tokenId) public {... */\n    tag_56:\n        /* \"@openzeppelin/contracts/token/ERC721/ERC721.sol\":4873:4912  safeTransferFrom(from, to, tokenId, \"\") */\n      tag_148\n        /* \"@openzeppelin/contracts/token/ERC721/ERC721.sol\":4890:4894  from */\n      dup4\n        /* \"@openzeppelin/contracts/token/ERC721/ERC721.sol\":4896:4898  to */\n      dup4\n        /* \"@openzeppelin/contracts/token/ERC721/ERC721.sol\":4900:4907  tokenId */\n      dup4\n        /* \"@openzeppelin/contracts/token/ERC721/ERC721.sol\":4873:4912  safeTransferFrom(from, to, tokenId, \"\") */\n      mload(0x40)\n      dup1\n      0x20\n      add\n      0x40\n      mstore\n      dup1\n      0x00\n      dup2\n      mstore\n      pop\n        /* \"@openzeppelin/contracts/token/ERC721/ERC721.sol\":4873:4889  safeTransferFrom */\n      tag_95\n        /* \"@openzeppelin/contracts/token/ERC721/ERC721.sol\":4873:4912  safeTransferFrom(from, to, tokenId, \"\") */\n      jump\t// in\n    tag_148:\n        /* \"@openzeppelin/contracts/token/ERC721/ERC721.sol\":4787:4919  function safeTransferFrom(address from, address to, uint256 tokenId) public {... */\n      pop\n      pop\n      pop\n      jump\t// out\n        /* \"telefonica/centenario2.sol\":485:532  mapping(address => bool) public isAllowedToMint */\n    tag_60:\n      mstore(0x20, 0x0a)\n      dup1\n      0x00\n      mstore\n      keccak256(0x00, 0x40)\n      0x00\n      swap2\n      pop\n      sload\n      swap1\n      0x0100\n      exp\n      swap1\n      div\n      0xff\n      and\n      dup2\n      jump\t// out\n        /* \"@openzeppelin/contracts/utils/Pausable.sol\":1850:1934  function paused() public view virtual returns (bool) {... */\n    tag_63:\n        /* \"@openzeppelin/contracts/utils/Pausable.sol\":1897:1901  bool */\n      0x00\n        /* \"@openzeppelin/contracts/utils/Pausable.sol\":1920:1927  _paused */\n      0x07\n      0x00\n      swap1\n      sload\n      swap1\n      0x0100\n      exp\n      swap1\n      div\n      0xff\n      and\n        /* \"@openzeppelin/contracts/utils/Pausable.sol\":1913:1927  return _paused */\n      swap1\n      pop\n        /* \"@openzeppelin/contracts/utils/Pausable.sol\":1850:1934  function paused() public view virtual returns (bool) {... */\n      swap1\n      jump\t// out\n        /* \"@openzeppelin/contracts/token/ERC721/ERC721.sol\":2185:2303  function ownerOf(uint256 tokenId) public view virtual returns (address) {... */\n    tag_67:\n        /* \"@openzeppelin/contracts/token/ERC721/ERC721.sol\":2248:2255  address */\n      0x00\n        /* \"@openzeppelin/contracts/token/ERC721/ERC721.sol\":2274:2296  _requireOwned(tokenId) */\n      tag_151\n        /* \"@openzeppelin/contracts/token/ERC721/ERC721.sol\":2288:2295  tokenId */\n      dup3\n        /* \"@openzeppelin/contracts/token/ERC721/ERC721.sol\":2274:2287  _requireOwned */\n      tag_124\n        /* \"@openzeppelin/contracts/token/ERC721/ERC721.sol\":2274:2296  _requireOwned(tokenId) */\n      jump\t// in\n    tag_151:\n        /* \"@openzeppelin/contracts/token/ERC721/ERC721.sol\":2267:2296  return _requireOwned(tokenId) */\n      swap1\n      pop\n        /* \"@openzeppelin/contracts/token/ERC721/ERC721.sol\":2185:2303  function ownerOf(uint256 tokenId) public view virtual returns (address) {... */\n      swap2\n      swap1\n      pop\n      jump\t// out\n        /* \"telefonica/centenario2.sol\":538:571  address[] public allowedAddresses */\n    tag_71:\n      0x0b\n      dup2\n      dup2\n      sload\n      dup2\n      lt\n      tag_152\n      jumpi\n      0x00\n      dup1\n      revert\n    tag_152:\n      swap1\n      0x00\n      mstore\n      keccak256(0x00, 0x20)\n      add\n      0x00\n      swap2\n      pop\n      sload\n      swap1\n      0x0100\n      exp\n      swap1\n      div\n      0xffffffffffffffffffffffffffffffffffffffff\n      and\n      dup2\n      jump\t// out\n        /* \"@openzeppelin/contracts/token/ERC721/ERC721.sol\":1920:2128  function balanceOf(address owner) public view virtual returns (uint256) {... */\n    tag_75:\n        /* \"@openzeppelin/contracts/token/ERC721/ERC721.sol\":1983:1990  uint256 */\n      0x00\n        /* \"@openzeppelin/contracts/token/ERC721/ERC721.sol\":2023:2024  0 */\n      dup1\n        /* \"@openzeppelin/contracts/token/ERC721/ERC721.sol\":2006:2025  owner == address(0) */\n      0xffffffffffffffffffffffffffffffffffffffff\n      and\n        /* \"@openzeppelin/contracts/token/ERC721/ERC721.sol\":2006:2011  owner */\n      dup3\n        /* \"@openzeppelin/contracts/token/ERC721/ERC721.sol\":2006:2025  owner == address(0) */\n      0xffffffffffffffffffffffffffffffffffffffff\n      and\n      sub\n        /* \"@openzeppelin/contracts/token/ERC721/ERC721.sol\":2002:2089  if (owner == address(0)) {... */\n      tag_155\n      jumpi\n        /* \"@openzeppelin/contracts/token/ERC721/ERC721.sol\":2075:2076  0 */\n      0x00\n        /* \"@openzeppelin/contracts/token/ERC721/ERC721.sol\":2048:2078  ERC721InvalidOwner(address(0)) */\n      mload(0x40)\n      0x89c62b6400000000000000000000000000000000000000000000000000000000\n      dup2\n      mstore\n      0x04\n      add\n      tag_156\n      swap2\n      swap1\n      tag_43\n      jump\t// in\n    tag_156:\n      mload(0x40)\n      dup1\n      swap2\n      sub\n      swap1\n      revert\n        /* \"@openzeppelin/contracts/token/ERC721/ERC721.sol\":2002:2089  if (owner == address(0)) {... */\n    tag_155:\n        /* \"@openzeppelin/contracts/token/ERC721/ERC721.sol\":2105:2114  _balances */\n      0x03\n        /* \"@openzeppelin/contracts/token/ERC721/ERC721.sol\":2105:2121  _balances[owner] */\n      0x00\n        /* \"@openzeppelin/contracts/token/ERC721/ERC721.sol\":2115:2120  owner */\n      dup4\n        /* \"@openzeppelin/contracts/token/ERC721/ERC721.sol\":2105:2121  _balances[owner] */\n      0xffffffffffffffffffffffffffffffffffffffff\n      and\n      0xffffffffffffffffffffffffffffffffffffffff\n      and\n      dup2\n      mstore\n      0x20\n      add\n      swap1\n      dup2\n      mstore\n      0x20\n      add\n      0x00\n      keccak256\n      sload\n        /* \"@openzeppelin/contracts/token/ERC721/ERC721.sol\":2098:2121  return _balances[owner] */\n      swap1\n      pop\n        /* \"@openzeppelin/contracts/token/ERC721/ERC721.sol\":1920:2128  function balanceOf(address owner) public view virtual returns (uint256) {... */\n      swap2\n      swap1\n      pop\n      jump\t// out\n        /* \"@openzeppelin/contracts/access/Ownable.sol\":1824:1925  function renounceOwnership() public virtual onlyOwner {... */\n    tag_79:\n        /* \"@openzeppelin/contracts/access/Ownable.sol\":1094:1107  _checkOwner() */\n      tag_158\n        /* \"@openzeppelin/contracts/access/Ownable.sol\":1094:1105  _checkOwner */\n      tag_143\n        /* \"@openzeppelin/contracts/access/Ownable.sol\":1094:1107  _checkOwner() */\n      jump\t// in\n    tag_158:\n        /* \"@openzeppelin/contracts/access/Ownable.sol\":1888:1918  _transferOwnership(address(0)) */\n      tag_160\n        /* \"@openzeppelin/contracts/access/Ownable.sol\":1915:1916  0 */\n      0x00\n        /* \"@openzeppelin/contracts/access/Ownable.sol\":1888:1906  _transferOwnership */\n      tag_161\n        /* \"@openzeppelin/contracts/access/Ownable.sol\":1888:1918  _transferOwnership(address(0)) */\n      jump\t// in\n    tag_160:\n        /* \"@openzeppelin/contracts/access/Ownable.sol\":1824:1925  function renounceOwnership() public virtual onlyOwner {... */\n      jump\t// out\n        /* \"telefonica/centenario2.sol\":637:696  function pause() public onlyOwner {... */\n    tag_81:\n        /* \"@openzeppelin/contracts/access/Ownable.sol\":1094:1107  _checkOwner() */\n      tag_163\n        /* \"@openzeppelin/contracts/access/Ownable.sol\":1094:1105  _checkOwner */\n      tag_143\n        /* \"@openzeppelin/contracts/access/Ownable.sol\":1094:1107  _checkOwner() */\n      jump\t// in\n    tag_163:\n        /* \"telefonica/centenario2.sol\":681:689  _pause() */\n      tag_165\n        /* \"telefonica/centenario2.sol\":681:687  _pause */\n      tag_166\n        /* \"telefonica/centenario2.sol\":681:689  _pause() */\n      jump\t// in\n    tag_165:\n        /* \"telefonica/centenario2.sol\":637:696  function pause() public onlyOwner {... */\n      jump\t// out\n        /* \"@openzeppelin/contracts/access/Ownable.sol\":1201:1286  function owner() public view virtual returns (address) {... */\n    tag_83:\n        /* \"@openzeppelin/contracts/access/Ownable.sol\":1247:1254  address */\n      0x00\n        /* \"@openzeppelin/contracts/access/Ownable.sol\":1273:1279  _owner */\n      0x07\n      0x01\n      swap1\n      sload\n      swap1\n      0x0100\n      exp\n      swap1\n      div\n      0xffffffffffffffffffffffffffffffffffffffff\n      and\n        /* \"@openzeppelin/contracts/access/Ownable.sol\":1266:1279  return _owner */\n      swap1\n      pop\n        /* \"@openzeppelin/contracts/access/Ownable.sol\":1201:1286  function owner() public view virtual returns (address) {... */\n      swap1\n      jump\t// out\n        /* \"@openzeppelin/contracts/token/ERC721/ERC721.sol\":2518:2611  function symbol() public view virtual returns (string memory) {... */\n    tag_86:\n        /* \"@openzeppelin/contracts/token/ERC721/ERC721.sol\":2565:2578  string memory */\n      0x60\n        /* \"@openzeppelin/contracts/token/ERC721/ERC721.sol\":2597:2604  _symbol */\n      0x01\n        /* \"@openzeppelin/contracts/token/ERC721/ERC721.sol\":2590:2604  return _symbol */\n      dup1\n      sload\n      tag_169\n      swap1\n      tag_117\n      jump\t// in\n    tag_169:\n      dup1\n      0x1f\n      add\n      0x20\n      dup1\n      swap2\n      div\n      mul\n      0x20\n      add\n      mload(0x40)\n      swap1\n      dup2\n      add\n      0x40\n      mstore\n      dup1\n      swap3\n      swap2\n      swap1\n      dup2\n      dup2\n      mstore\n      0x20\n      add\n      dup3\n      dup1\n      sload\n      tag_170\n      swap1\n      tag_117\n      jump\t// in\n    tag_170:\n      dup1\n      iszero\n      tag_171\n      jumpi\n      dup1\n      0x1f\n      lt\n      tag_172\n      jumpi\n      0x0100\n      dup1\n      dup4\n      sload\n      div\n      mul\n      dup4\n      mstore\n      swap2\n      0x20\n      add\n      swap2\n      jump(tag_171)\n    tag_172:\n      dup3\n      add\n      swap2\n      swap1\n      0x00\n      mstore\n      keccak256(0x00, 0x20)\n      swap1\n    tag_173:\n      dup2\n      sload\n      dup2\n      mstore\n      swap1\n      0x01\n      add\n      swap1\n      0x20\n      add\n      dup1\n      dup4\n      gt\n      tag_173\n      jumpi\n      dup3\n      swap1\n      sub\n      0x1f\n      and\n      dup3\n      add\n      swap2\n    tag_171:\n      pop\n      pop\n      pop\n      pop\n      pop\n      swap1\n      pop\n        /* \"@openzeppelin/contracts/token/ERC721/ERC721.sol\":2518:2611  function symbol() public view virtual returns (string memory) {... */\n      swap1\n      jump\t// out\n        /* \"@openzeppelin/contracts/token/ERC721/ERC721.sol\":3718:3862  function setApprovalForAll(address operator, bool approved) public virtual {... */\n    tag_91:\n        /* \"@openzeppelin/contracts/token/ERC721/ERC721.sol\":3803:3855  _setApprovalForAll(_msgSender(), operator, approved) */\n      tag_175\n        /* \"@openzeppelin/contracts/token/ERC721/ERC721.sol\":3822:3834  _msgSender() */\n      tag_176\n        /* \"@openzeppelin/contracts/token/ERC721/ERC721.sol\":3822:3832  _msgSender */\n      tag_130\n        /* \"@openzeppelin/contracts/token/ERC721/ERC721.sol\":3822:3834  _msgSender() */\n      jump\t// in\n    tag_176:\n        /* \"@openzeppelin/contracts/token/ERC721/ERC721.sol\":3836:3844  operator */\n      dup4\n        /* \"@openzeppelin/contracts/token/ERC721/ERC721.sol\":3846:3854  approved */\n      dup4\n        /* \"@openzeppelin/contracts/token/ERC721/ERC721.sol\":3803:3821  _setApprovalForAll */\n      tag_177\n        /* \"@openzeppelin/contracts/token/ERC721/ERC721.sol\":3803:3855  _setApprovalForAll(_msgSender(), operator, approved) */\n      jump\t// in\n    tag_175:\n        /* \"@openzeppelin/contracts/token/ERC721/ERC721.sol\":3718:3862  function setApprovalForAll(address operator, bool approved) public virtual {... */\n      pop\n      pop\n      jump\t// out\n        /* \"@openzeppelin/contracts/token/ERC721/ERC721.sol\":4985:5193  function safeTransferFrom(address from, address to, uint256 tokenId, bytes memory data) public virtual {... */\n    tag_95:\n        /* \"@openzeppelin/contracts/token/ERC721/ERC721.sol\":5098:5129  transferFrom(from, to, tokenId) */\n      tag_179\n        /* \"@openzeppelin/contracts/token/ERC721/ERC721.sol\":5111:5115  from */\n      dup5\n        /* \"@openzeppelin/contracts/token/ERC721/ERC721.sol\":5117:5119  to */\n      dup5\n        /* \"@openzeppelin/contracts/token/ERC721/ERC721.sol\":5121:5128  tokenId */\n      dup5\n        /* \"@openzeppelin/contracts/token/ERC721/ERC721.sol\":5098:5110  transferFrom */\n      tag_51\n        /* \"@openzeppelin/contracts/token/ERC721/ERC721.sol\":5098:5129  transferFrom(from, to, tokenId) */\n      jump\t// in\n    tag_179:\n        /* \"@openzeppelin/contracts/token/ERC721/ERC721.sol\":5139:5186  _checkOnERC721Received(from, to, tokenId, data) */\n      tag_180\n        /* \"@openzeppelin/contracts/token/ERC721/ERC721.sol\":5162:5166  from */\n      dup5\n        /* \"@openzeppelin/contracts/token/ERC721/ERC721.sol\":5168:5170  to */\n      dup5\n        /* \"@openzeppelin/contracts/token/ERC721/ERC721.sol\":5172:5179  tokenId */\n      dup5\n        /* \"@openzeppelin/contracts/token/ERC721/ERC721.sol\":5181:5185  data */\n      dup5\n        /* \"@openzeppelin/contracts/token/ERC721/ERC721.sol\":5139:5161  _checkOnERC721Received */\n      tag_181\n        /* \"@openzeppelin/contracts/token/ERC721/ERC721.sol\":5139:5186  _checkOnERC721Received(from, to, tokenId, data) */\n      jump\t// in\n    tag_180:\n        /* \"@openzeppelin/contracts/token/ERC721/ERC721.sol\":4985:5193  function safeTransferFrom(address from, address to, uint256 tokenId, bytes memory data) public virtual {... */\n      pop\n      pop\n      pop\n      pop\n      jump\t// out\n        /* \"telefonica/centenario2.sol\":1261:1450  function tokenURI(uint256 tokenId)... */\n    tag_98:\n        /* \"telefonica/centenario2.sol\":1384:1397  string memory */\n      0x60\n        /* \"telefonica/centenario2.sol\":1420:1443  super.tokenURI(tokenId) */\n      tag_183\n        /* \"telefonica/centenario2.sol\":1435:1442  tokenId */\n      dup3\n        /* \"telefonica/centenario2.sol\":1420:1434  super.tokenURI */\n      tag_184\n        /* \"telefonica/centenario2.sol\":1420:1443  super.tokenURI(tokenId) */\n      jump\t// in\n    tag_183:\n        /* \"telefonica/centenario2.sol\":1413:1443  return super.tokenURI(tokenId) */\n      swap1\n      pop\n        /* \"telefonica/centenario2.sol\":1261:1450  function tokenURI(uint256 tokenId)... */\n      swap2\n      swap1\n      pop\n      jump\t// out\n        /* \"telefonica/centenario2.sol\":771:976  function safeMint(address to, string memory uri) public {... */\n    tag_103:\n        /* \"telefonica/centenario2.sol\":838:853  uint256 tokenId */\n      0x00\n        /* \"telefonica/centenario2.sol\":856:868  _nextTokenId */\n      0x08\n      0x00\n        /* \"telefonica/centenario2.sol\":856:870  _nextTokenId++ */\n      dup2\n      sload\n      dup1\n      swap3\n      swap2\n      swap1\n      tag_186\n      swap1\n      tag_187\n      jump\t// in\n    tag_186:\n      swap2\n      swap1\n      pop\n      sstore\n        /* \"telefonica/centenario2.sol\":838:870  uint256 tokenId = _nextTokenId++ */\n      swap1\n      pop\n        /* \"telefonica/centenario2.sol\":880:902  _safeMint(to, tokenId) */\n      tag_188\n        /* \"telefonica/centenario2.sol\":890:892  to */\n      dup4\n        /* \"telefonica/centenario2.sol\":894:901  tokenId */\n      dup3\n        /* \"telefonica/centenario2.sol\":880:889  _safeMint */\n      tag_189\n        /* \"telefonica/centenario2.sol\":880:902  _safeMint(to, tokenId) */\n      jump\t// in\n    tag_188:\n        /* \"telefonica/centenario2.sol\":912:938  _setTokenURI(tokenId, uri) */\n      tag_190\n        /* \"telefonica/centenario2.sol\":925:932  tokenId */\n      dup2\n        /* \"telefonica/centenario2.sol\":934:937  uri */\n      dup4\n        /* \"telefonica/centenario2.sol\":912:924  _setTokenURI */\n      tag_191\n        /* \"telefonica/centenario2.sol\":912:938  _setTokenURI(tokenId, uri) */\n      jump\t// in\n    tag_190:\n        /* \"telefonica/centenario2.sol\":965:969  true */\n      0x01\n        /* \"telefonica/centenario2.sol\":948:958  _hasMinted */\n      0x09\n        /* \"telefonica/centenario2.sol\":948:962  _hasMinted[to] */\n      0x00\n        /* \"telefonica/centenario2.sol\":959:961  to */\n      dup6\n        /* \"telefonica/centenario2.sol\":948:962  _hasMinted[to] */\n      0xffffffffffffffffffffffffffffffffffffffff\n      and\n      0xffffffffffffffffffffffffffffffffffffffff\n      and\n      dup2\n      mstore\n      0x20\n      add\n      swap1\n      dup2\n      mstore\n      0x20\n      add\n      0x00\n      keccak256\n      0x00\n        /* \"telefonica/centenario2.sol\":948:969  _hasMinted[to] = true */\n      0x0100\n      exp\n      dup2\n      sload\n      dup2\n      0xff\n      mul\n      not\n      and\n      swap1\n      dup4\n      iszero\n      iszero\n      mul\n      or\n      swap1\n      sstore\n      pop\n        /* \"telefonica/centenario2.sol\":827:976  {... */\n      pop\n        /* \"telefonica/centenario2.sol\":771:976  function safeMint(address to, string memory uri) public {... */\n      pop\n      pop\n      jump\t// out\n        /* \"@openzeppelin/contracts/token/ERC721/ERC721.sol\":3928:4081  function isApprovedForAll(address owner, address operator) public view virtual returns (bool) {... */\n    tag_107:\n        /* \"@openzeppelin/contracts/token/ERC721/ERC721.sol\":4016:4020  bool */\n      0x00\n        /* \"@openzeppelin/contracts/token/ERC721/ERC721.sol\":4039:4057  _operatorApprovals */\n      0x05\n        /* \"@openzeppelin/contracts/token/ERC721/ERC721.sol\":4039:4064  _operatorApprovals[owner] */\n      0x00\n        /* \"@openzeppelin/contracts/token/ERC721/ERC721.sol\":4058:4063  owner */\n      dup5\n        /* \"@openzeppelin/contracts/token/ERC721/ERC721.sol\":4039:4064  _operatorApprovals[owner] */\n      0xffffffffffffffffffffffffffffffffffffffff\n      and\n      0xffffffffffffffffffffffffffffffffffffffff\n      and\n      dup2\n      mstore\n      0x20\n      add\n      swap1\n      dup2\n      mstore\n      0x20\n      add\n      0x00\n      keccak256\n        /* \"@openzeppelin/contracts/token/ERC721/ERC721.sol\":4039:4074  _operatorApprovals[owner][operator] */\n      0x00\n        /* \"@openzeppelin/contracts/token/ERC721/ERC721.sol\":4065:4073  operator */\n      dup4\n        /* \"@openzeppelin/contracts/token/ERC721/ERC721.sol\":4039:4074  _operatorApprovals[owner][operator] */\n      0xffffffffffffffffffffffffffffffffffffffff\n      and\n      0xffffffffffffffffffffffffffffffffffffffff\n      and\n      dup2\n      mstore\n      0x20\n      add\n      swap1\n      dup2\n      mstore\n      0x20\n      add\n      0x00\n      keccak256\n      0x00\n      swap1\n      sload\n      swap1\n      0x0100\n      exp\n      swap1\n      div\n      0xff\n      and\n        /* \"@openzeppelin/contracts/token/ERC721/ERC721.sol\":4032:4074  return _operatorApprovals[owner][operator] */\n      swap1\n      pop\n        /* \"@openzeppelin/contracts/token/ERC721/ERC721.sol\":3928:4081  function isApprovedForAll(address owner, address operator) public view virtual returns (bool) {... */\n      swap3\n      swap2\n      pop\n      pop\n      jump\t// out\n        /* \"@openzeppelin/contracts/access/Ownable.sol\":2074:2272  function transferOwnership(address newOwner) public virtual onlyOwner {... */\n    tag_111:\n        /* \"@openzeppelin/contracts/access/Ownable.sol\":1094:1107  _checkOwner() */\n      tag_194\n        /* \"@openzeppelin/contracts/access/Ownable.sol\":1094:1105  _checkOwner */\n      tag_143\n        /* \"@openzeppelin/contracts/access/Ownable.sol\":1094:1107  _checkOwner() */\n      jump\t// in\n    tag_194:\n        /* \"@openzeppelin/contracts/access/Ownable.sol\":2182:2183  0 */\n      0x00\n        /* \"@openzeppelin/contracts/access/Ownable.sol\":2162:2184  newOwner != address(0) */\n      0xffffffffffffffffffffffffffffffffffffffff\n      and\n        /* \"@openzeppelin/contracts/access/Ownable.sol\":2162:2170  newOwner */\n      dup2\n        /* \"@openzeppelin/contracts/access/Ownable.sol\":2162:2184  newOwner != address(0) */\n      0xffffffffffffffffffffffffffffffffffffffff\n      and\n      sub\n        /* \"@openzeppelin/contracts/access/Ownable.sol\":2154:2227  require(newOwner != address(0), \"Ownable: new owner is the zero address\") */\n      tag_196\n      jumpi\n      mload(0x40)\n      0x08c379a000000000000000000000000000000000000000000000000000000000\n      dup2\n      mstore\n      0x04\n      add\n      tag_197\n      swap1\n      tag_198\n      jump\t// in\n    tag_197:\n      mload(0x40)\n      dup1\n      swap2\n      sub\n      swap1\n      revert\n    tag_196:\n        /* \"@openzeppelin/contracts/access/Ownable.sol\":2237:2265  _transferOwnership(newOwner) */\n      tag_199\n        /* \"@openzeppelin/contracts/access/Ownable.sol\":2256:2264  newOwner */\n      dup2\n        /* \"@openzeppelin/contracts/access/Ownable.sol\":2237:2255  _transferOwnership */\n      tag_161\n        /* \"@openzeppelin/contracts/access/Ownable.sol\":2237:2265  _transferOwnership(newOwner) */\n      jump\t// in\n    tag_199:\n        /* \"@openzeppelin/contracts/access/Ownable.sol\":2074:2272  function transferOwnership(address newOwner) public virtual onlyOwner {... */\n      pop\n      jump\t// out\n        /* \"@openzeppelin/contracts/token/ERC721/extensions/ERC721URIStorage.sol\":937:1144  function supportsInterface(bytes4 interfaceId) public view virtual override(ERC721, IERC165) returns (bool) {... */\n    tag_114:\n        /* \"@openzeppelin/contracts/token/ERC721/extensions/ERC721URIStorage.sol\":1039:1043  bool */\n      0x00\n        /* \"@openzeppelin/contracts/token/ERC721/extensions/ERC721URIStorage.sol\":760:770  0x49064906 */\n      0x49064906\n        /* \"@openzeppelin/contracts/token/ERC721/extensions/ERC721URIStorage.sol\":753:771  bytes4(0x49064906) */\n      0xe0\n      shl\n        /* \"@openzeppelin/contracts/token/ERC721/extensions/ERC721URIStorage.sol\":1062:1097  interfaceId == ERC4906_INTERFACE_ID */\n      not(0xffffffffffffffffffffffffffffffffffffffffffffffffffffffff)\n      and\n        /* \"@openzeppelin/contracts/token/ERC721/extensions/ERC721URIStorage.sol\":1062:1073  interfaceId */\n      dup3\n        /* \"@openzeppelin/contracts/token/ERC721/extensions/ERC721URIStorage.sol\":1062:1097  interfaceId == ERC4906_INTERFACE_ID */\n      not(0xffffffffffffffffffffffffffffffffffffffffffffffffffffffff)\n      and\n      eq\n        /* \"@openzeppelin/contracts/token/ERC721/extensions/ERC721URIStorage.sol\":1062:1137  interfaceId == ERC4906_INTERFACE_ID || super.supportsInterface(interfaceId) */\n      dup1\n      tag_201\n      jumpi\n      pop\n        /* \"@openzeppelin/contracts/token/ERC721/extensions/ERC721URIStorage.sol\":1101:1137  super.supportsInterface(interfaceId) */\n      tag_202\n        /* \"@openzeppelin/contracts/token/ERC721/extensions/ERC721URIStorage.sol\":1125:1136  interfaceId */\n      dup3\n        /* \"@openzeppelin/contracts/token/ERC721/extensions/ERC721URIStorage.sol\":1101:1124  super.supportsInterface */\n      tag_203\n        /* \"@openzeppelin/contracts/token/ERC721/extensions/ERC721URIStorage.sol\":1101:1137  super.supportsInterface(interfaceId) */\n      jump\t// in\n    tag_202:\n        /* \"@openzeppelin/contracts/token/ERC721/extensions/ERC721URIStorage.sol\":1062:1137  interfaceId == ERC4906_INTERFACE_ID || super.supportsInterface(interfaceId) */\n    tag_201:\n        /* \"@openzeppelin/contracts/token/ERC721/extensions/ERC721URIStorage.sol\":1055:1137  return interfaceId == ERC4906_INTERFACE_ID || super.supportsInterface(interfaceId) */\n      swap1\n      pop\n        /* \"@openzeppelin/contracts/token/ERC721/extensions/ERC721URIStorage.sol\":937:1144  function supportsInterface(bytes4 interfaceId) public view virtual override(ERC721, IERC165) returns (bool) {... */\n      swap2\n      swap1\n      pop\n      jump\t// out\n        /* \"@openzeppelin/contracts/token/ERC721/ERC721.sol\":16138:16379  function _requireOwned(uint256 tokenId) internal view returns (address) {... */\n    tag_124:\n        /* \"@openzeppelin/contracts/token/ERC721/ERC721.sol\":16201:16208  address */\n      0x00\n        /* \"@openzeppelin/contracts/token/ERC721/ERC721.sol\":16220:16233  address owner */\n      dup1\n        /* \"@openzeppelin/contracts/token/ERC721/ERC721.sol\":16236:16253  _ownerOf(tokenId) */\n      tag_205\n        /* \"@openzeppelin/contracts/token/ERC721/ERC721.sol\":16245:16252  tokenId */\n      dup4\n        /* \"@openzeppelin/contracts/token/ERC721/ERC721.sol\":16236:16244  _ownerOf */\n      tag_206\n        /* \"@openzeppelin/contracts/token/ERC721/ERC721.sol\":16236:16253  _ownerOf(tokenId) */\n      jump\t// in\n    tag_205:\n        /* \"@openzeppelin/contracts/token/ERC721/ERC721.sol\":16220:16253  address owner = _ownerOf(tokenId) */\n      swap1\n      pop\n        /* \"@openzeppelin/contracts/token/ERC721/ERC721.sol\":16284:16285  0 */\n      0x00\n        /* \"@openzeppelin/contracts/token/ERC721/ERC721.sol\":16267:16286  owner == address(0) */\n      0xffffffffffffffffffffffffffffffffffffffff\n      and\n        /* \"@openzeppelin/contracts/token/ERC721/ERC721.sol\":16267:16272  owner */\n      dup2\n        /* \"@openzeppelin/contracts/token/ERC721/ERC721.sol\":16267:16286  owner == address(0) */\n      0xffffffffffffffffffffffffffffffffffffffff\n      and\n      sub\n        /* \"@openzeppelin/contracts/token/ERC721/ERC721.sol\":16263:16351  if (owner == address(0)) {... */\n      tag_207\n      jumpi\n        /* \"@openzeppelin/contracts/token/ERC721/ERC721.sol\":16332:16339  tokenId */\n      dup3\n        /* \"@openzeppelin/contracts/token/ERC721/ERC721.sol\":16309:16340  ERC721NonexistentToken(tokenId) */\n      mload(0x40)\n      0x7e27328900000000000000000000000000000000000000000000000000000000\n      dup2\n      mstore\n      0x04\n      add\n      tag_208\n      swap2\n      swap1\n      tag_77\n      jump\t// in\n    tag_208:\n      mload(0x40)\n      dup1\n      swap2\n      sub\n      swap1\n      revert\n        /* \"@openzeppelin/contracts/token/ERC721/ERC721.sol\":16263:16351  if (owner == address(0)) {... */\n    tag_207:\n        /* \"@openzeppelin/contracts/token/ERC721/ERC721.sol\":16367:16372  owner */\n      dup1\n        /* \"@openzeppelin/contracts/token/ERC721/ERC721.sol\":16360:16372  return owner */\n      swap2\n      pop\n      pop\n        /* \"@openzeppelin/contracts/token/ERC721/ERC721.sol\":16138:16379  function _requireOwned(uint256 tokenId) internal view returns (address) {... */\n      swap2\n      swap1\n      pop\n      jump\t// out\n        /* \"@openzeppelin/contracts/token/ERC721/ERC721.sol\":5938:6065  function _getApproved(uint256 tokenId) internal view virtual returns (address) {... */\n    tag_126:\n        /* \"@openzeppelin/contracts/token/ERC721/ERC721.sol\":6008:6015  address */\n      0x00\n        /* \"@openzeppelin/contracts/token/ERC721/ERC721.sol\":6034:6049  _tokenApprovals */\n      0x04\n        /* \"@openzeppelin/contracts/token/ERC721/ERC721.sol\":6034:6058  _tokenApprovals[tokenId] */\n      0x00\n        /* \"@openzeppelin/contracts/token/ERC721/ERC721.sol\":6050:6057  tokenId */\n      dup4\n        /* \"@openzeppelin/contracts/token/ERC721/ERC721.sol\":6034:6058  _tokenApprovals[tokenId] */\n      dup2\n      mstore\n      0x20\n      add\n      swap1\n      dup2\n      mstore\n      0x20\n      add\n      0x00\n      keccak256\n      0x00\n      swap1\n      sload\n      swap1\n      0x0100\n      exp\n      swap1\n      div\n      0xffffffffffffffffffffffffffffffffffffffff\n      and\n        /* \"@openzeppelin/contracts/token/ERC721/ERC721.sol\":6027:6058  return _tokenApprovals[tokenId] */\n      swap1\n      pop\n        /* \"@openzeppelin/contracts/token/ERC721/ERC721.sol\":5938:6065  function _getApproved(uint256 tokenId) internal view virtual returns (address) {... */\n      swap2\n      swap1\n      pop\n      jump\t// out\n        /* \"@openzeppelin/contracts/utils/Context.sol\":640:736  function _msgSender() internal view virtual returns (address) {... */\n    tag_130:\n        /* \"@openzeppelin/contracts/utils/Context.sol\":693:700  address */\n      0x00\n        /* \"@openzeppelin/contracts/utils/Context.sol\":719:729  msg.sender */\n      caller\n        /* \"@openzeppelin/contracts/utils/Context.sol\":712:729  return msg.sender */\n      swap1\n      pop\n        /* \"@openzeppelin/contracts/utils/Context.sol\":640:736  function _msgSender() internal view virtual returns (address) {... */\n      swap1\n      jump\t// out\n        /* \"@openzeppelin/contracts/token/ERC721/ERC721.sol\":14418:14538  function _approve(address to, uint256 tokenId, address auth) internal {... */\n    tag_131:\n        /* \"@openzeppelin/contracts/token/ERC721/ERC721.sol\":14498:14531  _approve(to, tokenId, auth, true) */\n      tag_212\n        /* \"@openzeppelin/contracts/token/ERC721/ERC721.sol\":14507:14509  to */\n      dup4\n        /* \"@openzeppelin/contracts/token/ERC721/ERC721.sol\":14511:14518  tokenId */\n      dup4\n        /* \"@openzeppelin/contracts/token/ERC721/ERC721.sol\":14520:14524  auth */\n      dup4\n        /* \"@openzeppelin/contracts/token/ERC721/ERC721.sol\":14526:14530  true */\n      0x01\n        /* \"@openzeppelin/contracts/token/ERC721/ERC721.sol\":14498:14506  _approve */\n      tag_213\n        /* \"@openzeppelin/contracts/token/ERC721/ERC721.sol\":14498:14531  _approve(to, tokenId, auth, true) */\n      jump\t// in\n    tag_212:\n        /* \"@openzeppelin/contracts/token/ERC721/ERC721.sol\":14418:14538  function _approve(address to, uint256 tokenId, address auth) internal {... */\n      pop\n      pop\n      pop\n      jump\t// out\n        /* \"telefonica/centenario2.sol\":1051:1255  function _update(address to, uint256 tokenId, address auth)... */\n    tag_137:\n        /* \"telefonica/centenario2.sol\":1186:1193  address */\n      0x00\n        /* \"telefonica/centenario2.sol\":1216:1248  super._update(to, tokenId, auth) */\n      tag_215\n        /* \"telefonica/centenario2.sol\":1230:1232  to */\n      dup5\n        /* \"telefonica/centenario2.sol\":1234:1241  tokenId */\n      dup5\n        /* \"telefonica/centenario2.sol\":1243:1247  auth */\n      dup5\n        /* \"telefonica/centenario2.sol\":1216:1229  super._update */\n      tag_216\n        /* \"telefonica/centenario2.sol\":1216:1248  super._update(to, tokenId, auth) */\n      jump\t// in\n    tag_215:\n        /* \"telefonica/centenario2.sol\":1209:1248  return super._update(to, tokenId, auth) */\n      swap1\n      pop\n        /* \"telefonica/centenario2.sol\":1051:1255  function _update(address to, uint256 tokenId, address auth)... */\n      swap4\n      swap3\n      pop\n      pop\n      pop\n      jump\t// out\n        /* \"@openzeppelin/contracts/access/Ownable.sol\":1359:1489  function _checkOwner() internal view virtual {... */\n    tag_143:\n        /* \"@openzeppelin/contracts/access/Ownable.sol\":1433:1445  _msgSender() */\n      tag_218\n        /* \"@openzeppelin/contracts/access/Ownable.sol\":1433:1443  _msgSender */\n      tag_130\n        /* \"@openzeppelin/contracts/access/Ownable.sol\":1433:1445  _msgSender() */\n      jump\t// in\n    tag_218:\n        /* \"@openzeppelin/contracts/access/Ownable.sol\":1422:1445  owner() == _msgSender() */\n      0xffffffffffffffffffffffffffffffffffffffff\n      and\n        /* \"@openzeppelin/contracts/access/Ownable.sol\":1422:1429  owner() */\n      tag_219\n        /* \"@openzeppelin/contracts/access/Ownable.sol\":1422:1427  owner */\n      tag_83\n        /* \"@openzeppelin/contracts/access/Ownable.sol\":1422:1429  owner() */\n      jump\t// in\n    tag_219:\n        /* \"@openzeppelin/contracts/access/Ownable.sol\":1422:1445  owner() == _msgSender() */\n      0xffffffffffffffffffffffffffffffffffffffff\n      and\n      eq\n        /* \"@openzeppelin/contracts/access/Ownable.sol\":1414:1482  require(owner() == _msgSender(), \"Ownable: caller is not the owner\") */\n      tag_220\n      jumpi\n      mload(0x40)\n      0x08c379a000000000000000000000000000000000000000000000000000000000\n      dup2\n      mstore\n      0x04\n      add\n      tag_221\n      swap1\n      tag_222\n      jump\t// in\n    tag_221:\n      mload(0x40)\n      dup1\n      swap2\n      sub\n      swap1\n      revert\n    tag_220:\n        /* \"@openzeppelin/contracts/access/Ownable.sol\":1359:1489  function _checkOwner() internal view virtual {... */\n      jump\t// out\n        /* \"@openzeppelin/contracts/utils/Pausable.sol\":2710:2827  function _unpause() internal virtual whenPaused {... */\n    tag_146:\n        /* \"@openzeppelin/contracts/utils/Pausable.sol\":1721:1737  _requirePaused() */\n      tag_224\n        /* \"@openzeppelin/contracts/utils/Pausable.sol\":1721:1735  _requirePaused */\n      tag_225\n        /* \"@openzeppelin/contracts/utils/Pausable.sol\":1721:1737  _requirePaused() */\n      jump\t// in\n    tag_224:\n        /* \"@openzeppelin/contracts/utils/Pausable.sol\":2778:2783  false */\n      0x00\n        /* \"@openzeppelin/contracts/utils/Pausable.sol\":2768:2775  _paused */\n      0x07\n      0x00\n        /* \"@openzeppelin/contracts/utils/Pausable.sol\":2768:2783  _paused = false */\n      0x0100\n      exp\n      dup2\n      sload\n      dup2\n      0xff\n      mul\n      not\n      and\n      swap1\n      dup4\n      iszero\n      iszero\n      mul\n      or\n      swap1\n      sstore\n      pop\n        /* \"@openzeppelin/contracts/utils/Pausable.sol\":2798:2820  Unpaused(_msgSender()) */\n      0x5db9ee0a495bf2e6ff9c91a7834c1ba4fdd244a5e8aa4e537bd38aeae4b073aa\n        /* \"@openzeppelin/contracts/utils/Pausable.sol\":2807:2819  _msgSender() */\n      tag_227\n        /* \"@openzeppelin/contracts/utils/Pausable.sol\":2807:2817  _msgSender */\n      tag_130\n        /* \"@openzeppelin/contracts/utils/Pausable.sol\":2807:2819  _msgSender() */\n      jump\t// in\n    tag_227:\n        /* \"@openzeppelin/contracts/utils/Pausable.sol\":2798:2820  Unpaused(_msgSender()) */\n      mload(0x40)\n      tag_228\n      swap2\n      swap1\n      tag_43\n      jump\t// in\n    tag_228:\n      mload(0x40)\n      dup1\n      swap2\n      sub\n      swap1\n      log1\n        /* \"@openzeppelin/contracts/utils/Pausable.sol\":2710:2827  function _unpause() internal virtual whenPaused {... */\n      jump\t// out\n        /* \"@openzeppelin/contracts/access/Ownable.sol\":2426:2613  function _transferOwnership(address newOwner) internal virtual {... */\n    tag_161:\n        /* \"@openzeppelin/contracts/access/Ownable.sol\":2499:2515  address oldOwner */\n      0x00\n        /* \"@openzeppelin/contracts/access/Ownable.sol\":2518:2524  _owner */\n      0x07\n      0x01\n      swap1\n      sload\n      swap1\n      0x0100\n      exp\n      swap1\n      div\n      0xffffffffffffffffffffffffffffffffffffffff\n      and\n        /* \"@openzeppelin/contracts/access/Ownable.sol\":2499:2524  address oldOwner = _owner */\n      swap1\n      pop\n        /* \"@openzeppelin/contracts/access/Ownable.sol\":2543:2551  newOwner */\n      dup2\n        /* \"@openzeppelin/contracts/access/Ownable.sol\":2534:2540  _owner */\n      0x07\n      0x01\n        /* \"@openzeppelin/contracts/access/Ownable.sol\":2534:2551  _owner = newOwner */\n      0x0100\n      exp\n      dup2\n      sload\n      dup2\n      0xffffffffffffffffffffffffffffffffffffffff\n      mul\n      not\n      and\n      swap1\n      dup4\n      0xffffffffffffffffffffffffffffffffffffffff\n      and\n      mul\n      or\n      swap1\n      sstore\n      pop\n        /* \"@openzeppelin/contracts/access/Ownable.sol\":2597:2605  newOwner */\n      dup2\n        /* \"@openzeppelin/contracts/access/Ownable.sol\":2566:2606  OwnershipTransferred(oldOwner, newOwner) */\n      0xffffffffffffffffffffffffffffffffffffffff\n      and\n        /* \"@openzeppelin/contracts/access/Ownable.sol\":2587:2595  oldOwner */\n      dup2\n        /* \"@openzeppelin/contracts/access/Ownable.sol\":2566:2606  OwnershipTransferred(oldOwner, newOwner) */\n      0xffffffffffffffffffffffffffffffffffffffff\n      and\n      0x8be0079c531659141344cd1fd0a4f28419497f9722a3daafe3b4186f6b6457e0\n      mload(0x40)\n      mload(0x40)\n      dup1\n      swap2\n      sub\n      swap1\n      log3\n        /* \"@openzeppelin/contracts/access/Ownable.sol\":2489:2613  {... */\n      pop\n        /* \"@openzeppelin/contracts/access/Ownable.sol\":2426:2613  function _transferOwnership(address newOwner) internal virtual {... */\n      pop\n      jump\t// out\n        /* \"@openzeppelin/contracts/utils/Pausable.sol\":2463:2578  function _pause() internal virtual whenNotPaused {... */\n    tag_166:\n        /* \"@openzeppelin/contracts/utils/Pausable.sol\":1474:1493  _requireNotPaused() */\n      tag_231\n        /* \"@openzeppelin/contracts/utils/Pausable.sol\":1474:1491  _requireNotPaused */\n      tag_232\n        /* \"@openzeppelin/contracts/utils/Pausable.sol\":1474:1493  _requireNotPaused() */\n      jump\t// in\n    tag_231:\n        /* \"@openzeppelin/contracts/utils/Pausable.sol\":2532:2536  true */\n      0x01\n        /* \"@openzeppelin/contracts/utils/Pausable.sol\":2522:2529  _paused */\n      0x07\n      0x00\n        /* \"@openzeppelin/contracts/utils/Pausable.sol\":2522:2536  _paused = true */\n      0x0100\n      exp\n      dup2\n      sload\n      dup2\n      0xff\n      mul\n      not\n      and\n      swap1\n      dup4\n      iszero\n      iszero\n      mul\n      or\n      swap1\n      sstore\n      pop\n        /* \"@openzeppelin/contracts/utils/Pausable.sol\":2551:2571  Paused(_msgSender()) */\n      0x62e78cea01bee320cd4e420270b5ea74000d11b0c9f74754ebdbfc544b05a258\n        /* \"@openzeppelin/contracts/utils/Pausable.sol\":2558:2570  _msgSender() */\n      tag_234\n        /* \"@openzeppelin/contracts/utils/Pausable.sol\":2558:2568  _msgSender */\n      tag_130\n        /* \"@openzeppelin/contracts/utils/Pausable.sol\":2558:2570  _msgSender() */\n      jump\t// in\n    tag_234:\n        /* \"@openzeppelin/contracts/utils/Pausable.sol\":2551:2571  Paused(_msgSender()) */\n      mload(0x40)\n      tag_235\n      swap2\n      swap1\n      tag_43\n      jump\t// in\n    tag_235:\n      mload(0x40)\n      dup1\n      swap2\n      sub\n      swap1\n      log1\n        /* \"@openzeppelin/contracts/utils/Pausable.sol\":2463:2578  function _pause() internal virtual whenNotPaused {... */\n      jump\t// out\n        /* \"@openzeppelin/contracts/token/ERC721/ERC721.sol\":15591:15903  function _setApprovalForAll(address owner, address operator, bool approved) internal virtual {... */\n    tag_177:\n        /* \"@openzeppelin/contracts/token/ERC721/ERC721.sol\":15718:15719  0 */\n      0x00\n        /* \"@openzeppelin/contracts/token/ERC721/ERC721.sol\":15698:15720  operator == address(0) */\n      0xffffffffffffffffffffffffffffffffffffffff\n      and\n        /* \"@openzeppelin/contracts/token/ERC721/ERC721.sol\":15698:15706  operator */\n      dup3\n        /* \"@openzeppelin/contracts/token/ERC721/ERC721.sol\":15698:15720  operator == address(0) */\n      0xffffffffffffffffffffffffffffffffffffffff\n      and\n      sub\n        /* \"@openzeppelin/contracts/token/ERC721/ERC721.sol\":15694:15785  if (operator == address(0)) {... */\n      tag_237\n      jumpi\n        /* \"@openzeppelin/contracts/token/ERC721/ERC721.sol\":15765:15773  operator */\n      dup2\n        /* \"@openzeppelin/contracts/token/ERC721/ERC721.sol\":15743:15774  ERC721InvalidOperator(operator) */\n      mload(0x40)\n      0x5b08ba1800000000000000000000000000000000000000000000000000000000\n      dup2\n      mstore\n      0x04\n      add\n      tag_238\n      swap2\n      swap1\n      tag_43\n      jump\t// in\n    tag_238:\n      mload(0x40)\n      dup1\n      swap2\n      sub\n      swap1\n      revert\n        /* \"@openzeppelin/contracts/token/ERC721/ERC721.sol\":15694:15785  if (operator == address(0)) {... */\n    tag_237:\n        /* \"@openzeppelin/contracts/token/ERC721/ERC721.sol\":15832:15840  approved */\n      dup1\n        /* \"@openzeppelin/contracts/token/ERC721/ERC721.sol\":15794:15812  _operatorApprovals */\n      0x05\n        /* \"@openzeppelin/contracts/token/ERC721/ERC721.sol\":15794:15819  _operatorApprovals[owner] */\n      0x00\n        /* \"@openzeppelin/contracts/token/ERC721/ERC721.sol\":15813:15818  owner */\n      dup6\n        /* \"@openzeppelin/contracts/token/ERC721/ERC721.sol\":15794:15819  _operatorApprovals[owner] */\n      0xffffffffffffffffffffffffffffffffffffffff\n      and\n      0xffffffffffffffffffffffffffffffffffffffff\n      and\n      dup2\n      mstore\n      0x20\n      add\n      swap1\n      dup2\n      mstore\n      0x20\n      add\n      0x00\n      keccak256\n        /* \"@openzeppelin/contracts/token/ERC721/ERC721.sol\":15794:15829  _operatorApprovals[owner][operator] */\n      0x00\n        /* \"@openzeppelin/contracts/token/ERC721/ERC721.sol\":15820:15828  operator */\n      dup5\n        /* \"@openzeppelin/contracts/token/ERC721/ERC721.sol\":15794:15829  _operatorApprovals[owner][operator] */\n      0xffffffffffffffffffffffffffffffffffffffff\n      and\n      0xffffffffffffffffffffffffffffffffffffffff\n      and\n      dup2\n      mstore\n      0x20\n      add\n      swap1\n      dup2\n      mstore\n      0x20\n      add\n      0x00\n      keccak256\n      0x00\n        /* \"@openzeppelin/contracts/token/ERC721/ERC721.sol\":15794:15840  _operatorApprovals[owner][operator] = approved */\n      0x0100\n      exp\n      dup2\n      sload\n      dup2\n      0xff\n      mul\n      not\n      and\n      swap1\n      dup4\n      iszero\n      iszero\n      mul\n      or\n      swap1\n      sstore\n      pop\n        /* \"@openzeppelin/contracts/token/ERC721/ERC721.sol\":15877:15885  operator */\n      dup2\n        /* \"@openzeppelin/contracts/token/ERC721/ERC721.sol\":15855:15896  ApprovalForAll(owner, operator, approved) */\n      0xffffffffffffffffffffffffffffffffffffffff\n      and\n        /* \"@openzeppelin/contracts/token/ERC721/ERC721.sol\":15870:15875  owner */\n      dup4\n        /* \"@openzeppelin/contracts/token/ERC721/ERC721.sol\":15855:15896  ApprovalForAll(owner, operator, approved) */\n      0xffffffffffffffffffffffffffffffffffffffff\n      and\n      0x17307eab39ab6107e8899845ad3d59bd9653f200f220920489ca2b5937696c31\n        /* \"@openzeppelin/contracts/token/ERC721/ERC721.sol\":15887:15895  approved */\n      dup4\n        /* \"@openzeppelin/contracts/token/ERC721/ERC721.sol\":15855:15896  ApprovalForAll(owner, operator, approved) */\n      mload(0x40)\n      tag_239\n      swap2\n      swap1\n      tag_33\n      jump\t// in\n    tag_239:\n      mload(0x40)\n      dup1\n      swap2\n      sub\n      swap1\n      log3\n        /* \"@openzeppelin/contracts/token/ERC721/ERC721.sol\":15591:15903  function _setApprovalForAll(address owner, address operator, bool approved) internal virtual {... */\n      pop\n      pop\n      pop\n      jump\t// out\n        /* \"@openzeppelin/contracts/token/ERC721/ERC721.sol\":16918:17700  function _checkOnERC721Received(address from, address to, uint256 tokenId, bytes memory data) private {... */\n    tag_181:\n        /* \"@openzeppelin/contracts/token/ERC721/ERC721.sol\":17051:17052  0 */\n      0x00\n        /* \"@openzeppelin/contracts/token/ERC721/ERC721.sol\":17034:17036  to */\n      dup4\n        /* \"@openzeppelin/contracts/token/ERC721/ERC721.sol\":17034:17048  to.code.length */\n      0xffffffffffffffffffffffffffffffffffffffff\n      and\n      extcodesize\n        /* \"@openzeppelin/contracts/token/ERC721/ERC721.sol\":17034:17052  to.code.length > 0 */\n      gt\n        /* \"@openzeppelin/contracts/token/ERC721/ERC721.sol\":17030:17694  if (to.code.length > 0) {... */\n      iszero\n      tag_241\n      jumpi\n        /* \"@openzeppelin/contracts/token/ERC721/ERC721.sol\":17088:17090  to */\n      dup3\n        /* \"@openzeppelin/contracts/token/ERC721/ERC721.sol\":17072:17108  IERC721Receiver(to).onERC721Received */\n      0xffffffffffffffffffffffffffffffffffffffff\n      and\n      0x150b7a02\n        /* \"@openzeppelin/contracts/token/ERC721/ERC721.sol\":17109:17121  _msgSender() */\n      tag_242\n        /* \"@openzeppelin/contracts/token/ERC721/ERC721.sol\":17109:17119  _msgSender */\n      tag_130\n        /* \"@openzeppelin/contracts/token/ERC721/ERC721.sol\":17109:17121  _msgSender() */\n      jump\t// in\n    tag_242:\n        /* \"@openzeppelin/contracts/token/ERC721/ERC721.sol\":17123:17127  from */\n      dup7\n        /* \"@openzeppelin/contracts/token/ERC721/ERC721.sol\":17129:17136  tokenId */\n      dup6\n        /* \"@openzeppelin/contracts/token/ERC721/ERC721.sol\":17138:17142  data */\n      dup6\n        /* \"@openzeppelin/contracts/token/ERC721/ERC721.sol\":17072:17143  IERC721Receiver(to).onERC721Received(_msgSender(), from, tokenId, data) */\n      mload(0x40)\n      dup6\n      0xffffffff\n      and\n      0xe0\n      shl\n      dup2\n      mstore\n      0x04\n      add\n      tag_243\n      swap5\n      swap4\n      swap3\n      swap2\n      swap1\n      tag_244\n      jump\t// in\n    tag_243:\n      0x20\n      mload(0x40)\n      dup1\n      dup4\n      sub\n      dup2\n      0x00\n      dup8\n      gas\n      call\n      swap3\n      pop\n      pop\n      pop\n      dup1\n      iszero\n      tag_245\n      jumpi\n      pop\n      mload(0x40)\n      returndatasize\n      not(0x1f)\n      0x1f\n      dup3\n      add\n      and\n      dup3\n      add\n      dup1\n      0x40\n      mstore\n      pop\n      dup2\n      add\n      swap1\n      tag_246\n      swap2\n      swap1\n      tag_247\n      jump\t// in\n    tag_246:\n      0x01\n    tag_245:\n        /* \"@openzeppelin/contracts/token/ERC721/ERC721.sol\":17068:17684  try IERC721Receiver(to).onERC721Received(_msgSender(), from, tokenId, data) returns (bytes4 retval) {... */\n      tag_248\n      jumpi\n      returndatasize\n      dup1\n      0x00\n      dup2\n      eq\n      tag_253\n      jumpi\n      mload(0x40)\n      swap2\n      pop\n      and(add(returndatasize, 0x3f), not(0x1f))\n      dup3\n      add\n      0x40\n      mstore\n      returndatasize\n      dup3\n      mstore\n      returndatasize\n      0x00\n      0x20\n      dup5\n      add\n      returndatacopy\n      jump(tag_252)\n    tag_253:\n      0x60\n      swap2\n      pop\n    tag_252:\n      pop\n        /* \"@openzeppelin/contracts/token/ERC721/ERC721.sol\":17398:17399  0 */\n      0x00\n        /* \"@openzeppelin/contracts/token/ERC721/ERC721.sol\":17381:17387  reason */\n      dup2\n        /* \"@openzeppelin/contracts/token/ERC721/ERC721.sol\":17381:17394  reason.length */\n      mload\n        /* \"@openzeppelin/contracts/token/ERC721/ERC721.sol\":17381:17399  reason.length == 0 */\n      sub\n        /* \"@openzeppelin/contracts/token/ERC721/ERC721.sol\":17377:17670  if (reason.length == 0) {... */\n      tag_254\n      jumpi\n        /* \"@openzeppelin/contracts/token/ERC721/ERC721.sol\":17452:17454  to */\n      dup4\n        /* \"@openzeppelin/contracts/token/ERC721/ERC721.sol\":17430:17455  ERC721InvalidReceiver(to) */\n      mload(0x40)\n      0x64a0ae9200000000000000000000000000000000000000000000000000000000\n      dup2\n      mstore\n      0x04\n      add\n      tag_255\n      swap2\n      swap1\n      tag_43\n      jump\t// in\n    tag_255:\n      mload(0x40)\n      dup1\n      swap2\n      sub\n      swap1\n      revert\n        /* \"@openzeppelin/contracts/token/ERC721/ERC721.sol\":17377:17670  if (reason.length == 0) {... */\n    tag_254:\n        /* \"@openzeppelin/contracts/token/ERC721/ERC721.sol\":17622:17628  reason */\n      dup1\n        /* \"@openzeppelin/contracts/token/ERC721/ERC721.sol\":17616:17629  mload(reason) */\n      mload\n        /* \"@openzeppelin/contracts/token/ERC721/ERC721.sol\":17607:17613  reason */\n      dup2\n        /* \"@openzeppelin/contracts/token/ERC721/ERC721.sol\":17603:17605  32 */\n      0x20\n        /* \"@openzeppelin/contracts/token/ERC721/ERC721.sol\":17599:17614  add(32, reason) */\n      add\n        /* \"@openzeppelin/contracts/token/ERC721/ERC721.sol\":17592:17630  revert(add(32, reason), mload(reason)) */\n      revert\n        /* \"@openzeppelin/contracts/token/ERC721/ERC721.sol\":17068:17684  try IERC721Receiver(to).onERC721Received(_msgSender(), from, tokenId, data) returns (bytes4 retval) {... */\n    tag_248:\n        /* \"@openzeppelin/contracts/token/ERC721/ERC721.sol\":17200:17241  IERC721Receiver.onERC721Received.selector */\n      shl(0xe0, 0x150b7a02)\n        /* \"@openzeppelin/contracts/token/ERC721/ERC721.sol\":17190:17241  retval != IERC721Receiver.onERC721Received.selector */\n      not(0xffffffffffffffffffffffffffffffffffffffffffffffffffffffff)\n      and\n        /* \"@openzeppelin/contracts/token/ERC721/ERC721.sol\":17190:17196  retval */\n      dup2\n        /* \"@openzeppelin/contracts/token/ERC721/ERC721.sol\":17190:17241  retval != IERC721Receiver.onERC721Received.selector */\n      not(0xffffffffffffffffffffffffffffffffffffffffffffffffffffffff)\n      and\n      eq\n        /* \"@openzeppelin/contracts/token/ERC721/ERC721.sol\":17186:17316  if (retval != IERC721Receiver.onERC721Received.selector) {... */\n      tag_258\n      jumpi\n        /* \"@openzeppelin/contracts/token/ERC721/ERC721.sol\":17294:17296  to */\n      dup4\n        /* \"@openzeppelin/contracts/token/ERC721/ERC721.sol\":17272:17297  ERC721InvalidReceiver(to) */\n      mload(0x40)\n      0x64a0ae9200000000000000000000000000000000000000000000000000000000\n      dup2\n      mstore\n      0x04\n      add\n      tag_259\n      swap2\n      swap1\n      tag_43\n      jump\t// in\n    tag_259:\n      mload(0x40)\n      dup1\n      swap2\n      sub\n      swap1\n      revert\n        /* \"@openzeppelin/contracts/token/ERC721/ERC721.sol\":17186:17316  if (retval != IERC721Receiver.onERC721Received.selector) {... */\n    tag_258:\n        /* \"@openzeppelin/contracts/token/ERC721/ERC721.sol\":17144:17330  returns (bytes4 retval) {... */\n      pop\n        /* \"@openzeppelin/contracts/token/ERC721/ERC721.sol\":17030:17694  if (to.code.length > 0) {... */\n    tag_241:\n        /* \"@openzeppelin/contracts/token/ERC721/ERC721.sol\":16918:17700  function _checkOnERC721Received(address from, address to, uint256 tokenId, bytes memory data) private {... */\n      pop\n      pop\n      pop\n      pop\n      jump\t// out\n        /* \"@openzeppelin/contracts/token/ERC721/extensions/ERC721URIStorage.sol\":1210:1803  function tokenURI(uint256 tokenId) public view virtual override returns (string memory) {... */\n    tag_184:\n        /* \"@openzeppelin/contracts/token/ERC721/extensions/ERC721URIStorage.sol\":1283:1296  string memory */\n      0x60\n        /* \"@openzeppelin/contracts/token/ERC721/extensions/ERC721URIStorage.sol\":1308:1330  _requireOwned(tokenId) */\n      tag_261\n        /* \"@openzeppelin/contracts/token/ERC721/extensions/ERC721URIStorage.sol\":1322:1329  tokenId */\n      dup3\n        /* \"@openzeppelin/contracts/token/ERC721/extensions/ERC721URIStorage.sol\":1308:1321  _requireOwned */\n      tag_124\n        /* \"@openzeppelin/contracts/token/ERC721/extensions/ERC721URIStorage.sol\":1308:1330  _requireOwned(tokenId) */\n      jump\t// in\n    tag_261:\n      pop\n        /* \"@openzeppelin/contracts/token/ERC721/extensions/ERC721URIStorage.sol\":1341:1364  string memory _tokenURI */\n      0x00\n        /* \"@openzeppelin/contracts/token/ERC721/extensions/ERC721URIStorage.sol\":1367:1377  _tokenURIs */\n      0x06\n        /* \"@openzeppelin/contracts/token/ERC721/extensions/ERC721URIStorage.sol\":1367:1386  _tokenURIs[tokenId] */\n      0x00\n        /* \"@openzeppelin/contracts/token/ERC721/extensions/ERC721URIStorage.sol\":1378:1385  tokenId */\n      dup5\n        /* \"@openzeppelin/contracts/token/ERC721/extensions/ERC721URIStorage.sol\":1367:1386  _tokenURIs[tokenId] */\n      dup2\n      mstore\n      0x20\n      add\n      swap1\n      dup2\n      mstore\n      0x20\n      add\n      0x00\n      keccak256\n        /* \"@openzeppelin/contracts/token/ERC721/extensions/ERC721URIStorage.sol\":1341:1386  string memory _tokenURI = _tokenURIs[tokenId] */\n      dup1\n      sload\n      tag_262\n      swap1\n      tag_117\n      jump\t// in\n    tag_262:\n      dup1\n      0x1f\n      add\n      0x20\n      dup1\n      swap2\n      div\n      mul\n      0x20\n      add\n      mload(0x40)\n      swap1\n      dup2\n      add\n      0x40\n      mstore\n      dup1\n      swap3\n      swap2\n      swap1\n      dup2\n      dup2\n      mstore\n      0x20\n      add\n      dup3\n      dup1\n      sload\n      tag_263\n      swap1\n      tag_117\n      jump\t// in\n    tag_263:\n      dup1\n      iszero\n      tag_264\n      jumpi\n      dup1\n      0x1f\n      lt\n      tag_265\n      jumpi\n      0x0100\n      dup1\n      dup4\n      sload\n      div\n      mul\n      dup4\n      mstore\n      swap2\n      0x20\n      add\n      swap2\n      jump(tag_264)\n    tag_265:\n      dup3\n      add\n      swap2\n      swap1\n      0x00\n      mstore\n      keccak256(0x00, 0x20)\n      swap1\n    tag_266:\n      dup2\n      sload\n      dup2\n      mstore\n      swap1\n      0x01\n      add\n      swap1\n      0x20\n      add\n      dup1\n      dup4\n      gt\n      tag_266\n      jumpi\n      dup3\n      swap1\n      sub\n      0x1f\n      and\n      dup3\n      add\n      swap2\n    tag_264:\n      pop\n      pop\n      pop\n      pop\n      pop\n      swap1\n      pop\n        /* \"@openzeppelin/contracts/token/ERC721/extensions/ERC721URIStorage.sol\":1396:1414  string memory base */\n      0x00\n        /* \"@openzeppelin/contracts/token/ERC721/extensions/ERC721URIStorage.sol\":1417:1427  _baseURI() */\n      tag_267\n        /* \"@openzeppelin/contracts/token/ERC721/extensions/ERC721URIStorage.sol\":1417:1425  _baseURI */\n      tag_268\n        /* \"@openzeppelin/contracts/token/ERC721/extensions/ERC721URIStorage.sol\":1417:1427  _baseURI() */\n      jump\t// in\n    tag_267:\n        /* \"@openzeppelin/contracts/token/ERC721/extensions/ERC721URIStorage.sol\":1396:1427  string memory base = _baseURI() */\n      swap1\n      pop\n        /* \"@openzeppelin/contracts/token/ERC721/extensions/ERC721URIStorage.sol\":1522:1523  0 */\n      0x00\n        /* \"@openzeppelin/contracts/token/ERC721/extensions/ERC721URIStorage.sol\":1506:1510  base */\n      dup2\n        /* \"@openzeppelin/contracts/token/ERC721/extensions/ERC721URIStorage.sol\":1500:1518  bytes(base).length */\n      mload\n        /* \"@openzeppelin/contracts/token/ERC721/extensions/ERC721URIStorage.sol\":1500:1523  bytes(base).length == 0 */\n      sub\n        /* \"@openzeppelin/contracts/token/ERC721/extensions/ERC721URIStorage.sol\":1496:1566  if (bytes(base).length == 0) {... */\n      tag_269\n      jumpi\n        /* \"@openzeppelin/contracts/token/ERC721/extensions/ERC721URIStorage.sol\":1546:1555  _tokenURI */\n      dup2\n        /* \"@openzeppelin/contracts/token/ERC721/extensions/ERC721URIStorage.sol\":1539:1555  return _tokenURI */\n      swap3\n      pop\n      pop\n      pop\n      jump(tag_260)\n        /* \"@openzeppelin/contracts/token/ERC721/extensions/ERC721URIStorage.sol\":1496:1566  if (bytes(base).length == 0) {... */\n    tag_269:\n        /* \"@openzeppelin/contracts/token/ERC721/extensions/ERC721URIStorage.sol\":1691:1692  0 */\n      0x00\n        /* \"@openzeppelin/contracts/token/ERC721/extensions/ERC721URIStorage.sol\":1671:1680  _tokenURI */\n      dup3\n        /* \"@openzeppelin/contracts/token/ERC721/extensions/ERC721URIStorage.sol\":1665:1688  bytes(_tokenURI).length */\n      mload\n        /* \"@openzeppelin/contracts/token/ERC721/extensions/ERC721URIStorage.sol\":1665:1692  bytes(_tokenURI).length > 0 */\n      gt\n        /* \"@openzeppelin/contracts/token/ERC721/extensions/ERC721URIStorage.sol\":1661:1756  if (bytes(_tokenURI).length > 0) {... */\n      iszero\n      tag_270\n      jumpi\n        /* \"@openzeppelin/contracts/token/ERC721/extensions/ERC721URIStorage.sol\":1729:1733  base */\n      dup1\n        /* \"@openzeppelin/contracts/token/ERC721/extensions/ERC721URIStorage.sol\":1735:1744  _tokenURI */\n      dup3\n        /* \"@openzeppelin/contracts/token/ERC721/extensions/ERC721URIStorage.sol\":1715:1745  string.concat(base, _tokenURI) */\n      add(0x20, mload(0x40))\n      tag_271\n      swap3\n      swap2\n      swap1\n      tag_272\n      jump\t// in\n    tag_271:\n      mload(0x40)\n      0x20\n      dup2\n      dup4\n      sub\n      sub\n      dup2\n      mstore\n      swap1\n      0x40\n      mstore\n        /* \"@openzeppelin/contracts/token/ERC721/extensions/ERC721URIStorage.sol\":1708:1745  return string.concat(base, _tokenURI) */\n      swap3\n      pop\n      pop\n      pop\n      jump(tag_260)\n        /* \"@openzeppelin/contracts/token/ERC721/extensions/ERC721URIStorage.sol\":1661:1756  if (bytes(_tokenURI).length > 0) {... */\n    tag_270:\n        /* \"@openzeppelin/contracts/token/ERC721/extensions/ERC721URIStorage.sol\":1773:1796  super.tokenURI(tokenId) */\n      tag_273\n        /* \"@openzeppelin/contracts/token/ERC721/extensions/ERC721URIStorage.sol\":1788:1795  tokenId */\n      dup5\n        /* \"@openzeppelin/contracts/token/ERC721/extensions/ERC721URIStorage.sol\":1773:1787  super.tokenURI */\n      tag_274\n        /* \"@openzeppelin/contracts/token/ERC721/extensions/ERC721URIStorage.sol\":1773:1796  super.tokenURI(tokenId) */\n      jump\t// in\n    tag_273:\n        /* \"@openzeppelin/contracts/token/ERC721/extensions/ERC721URIStorage.sol\":1766:1796  return super.tokenURI(tokenId) */\n      swap3\n      pop\n      pop\n      pop\n        /* \"@openzeppelin/contracts/token/ERC721/extensions/ERC721URIStorage.sol\":1210:1803  function tokenURI(uint256 tokenId) public view virtual override returns (string memory) {... */\n    tag_260:\n      swap2\n      swap1\n      pop\n      jump\t// out\n        /* \"@openzeppelin/contracts/token/ERC721/ERC721.sol\":10633:10733  function _safeMint(address to, uint256 tokenId) internal {... */\n    tag_189:\n        /* \"@openzeppelin/contracts/token/ERC721/ERC721.sol\":10700:10726  _safeMint(to, tokenId, \"\") */\n      tag_276\n        /* \"@openzeppelin/contracts/token/ERC721/ERC721.sol\":10710:10712  to */\n      dup3\n        /* \"@openzeppelin/contracts/token/ERC721/ERC721.sol\":10714:10721  tokenId */\n      dup3\n        /* \"@openzeppelin/contracts/token/ERC721/ERC721.sol\":10700:10726  _safeMint(to, tokenId, \"\") */\n      mload(0x40)\n      dup1\n      0x20\n      add\n      0x40\n      mstore\n      dup1\n      0x00\n      dup2\n      mstore\n      pop\n        /* \"@openzeppelin/contracts/token/ERC721/ERC721.sol\":10700:10709  _safeMint */\n      tag_277\n        /* \"@openzeppelin/contracts/token/ERC721/ERC721.sol\":10700:10726  _safeMint(to, tokenId, \"\") */\n      jump\t// in\n    tag_276:\n        /* \"@openzeppelin/contracts/token/ERC721/ERC721.sol\":10633:10733  function _safeMint(address to, uint256 tokenId) internal {... */\n      pop\n      pop\n      jump\t// out\n        /* \"@openzeppelin/contracts/token/ERC721/extensions/ERC721URIStorage.sol\":1922:2089  function _setTokenURI(uint256 tokenId, string memory _tokenURI) internal virtual {... */\n    tag_191:\n        /* \"@openzeppelin/contracts/token/ERC721/extensions/ERC721URIStorage.sol\":2035:2044  _tokenURI */\n      dup1\n        /* \"@openzeppelin/contracts/token/ERC721/extensions/ERC721URIStorage.sol\":2013:2023  _tokenURIs */\n      0x06\n        /* \"@openzeppelin/contracts/token/ERC721/extensions/ERC721URIStorage.sol\":2013:2032  _tokenURIs[tokenId] */\n      0x00\n        /* \"@openzeppelin/contracts/token/ERC721/extensions/ERC721URIStorage.sol\":2024:2031  tokenId */\n      dup5\n        /* \"@openzeppelin/contracts/token/ERC721/extensions/ERC721URIStorage.sol\":2013:2032  _tokenURIs[tokenId] */\n      dup2\n      mstore\n      0x20\n      add\n      swap1\n      dup2\n      mstore\n      0x20\n      add\n      0x00\n      keccak256\n        /* \"@openzeppelin/contracts/token/ERC721/extensions/ERC721URIStorage.sol\":2013:2044  _tokenURIs[tokenId] = _tokenURI */\n      swap1\n      dup2\n      tag_279\n      swap2\n      swap1\n      tag_280\n      jump\t// in\n    tag_279:\n      pop\n        /* \"@openzeppelin/contracts/token/ERC721/extensions/ERC721URIStorage.sol\":2059:2082  MetadataUpdate(tokenId) */\n      0xf8e1a15aba9398e019f0b49df1a4fde98ee17ae345cb5f6b5e2c27f5033e8ce7\n        /* \"@openzeppelin/contracts/token/ERC721/extensions/ERC721URIStorage.sol\":2074:2081  tokenId */\n      dup3\n        /* \"@openzeppelin/contracts/token/ERC721/extensions/ERC721URIStorage.sol\":2059:2082  MetadataUpdate(tokenId) */\n      mload(0x40)\n      tag_281\n      swap2\n      swap1\n      tag_77\n      jump\t// in\n    tag_281:\n      mload(0x40)\n      dup1\n      swap2\n      sub\n      swap1\n      log1\n        /* \"@openzeppelin/contracts/token/ERC721/extensions/ERC721URIStorage.sol\":1922:2089  function _setTokenURI(uint256 tokenId, string memory _tokenURI) internal virtual {... */\n      pop\n      pop\n      jump\t// out\n        /* \"@openzeppelin/contracts/token/ERC721/ERC721.sol\":1561:1861  function supportsInterface(bytes4 interfaceId) public view virtual override(ERC165, IERC165) returns (bool) {... */\n    tag_203:\n        /* \"@openzeppelin/contracts/token/ERC721/ERC721.sol\":1663:1667  bool */\n      0x00\n        /* \"@openzeppelin/contracts/token/ERC721/ERC721.sol\":1713:1738  type(IERC721).interfaceId */\n      0x80ac58cd00000000000000000000000000000000000000000000000000000000\n        /* \"@openzeppelin/contracts/token/ERC721/ERC721.sol\":1698:1738  interfaceId == type(IERC721).interfaceId */\n      not(0xffffffffffffffffffffffffffffffffffffffffffffffffffffffff)\n      and\n        /* \"@openzeppelin/contracts/token/ERC721/ERC721.sol\":1698:1709  interfaceId */\n      dup3\n        /* \"@openzeppelin/contracts/token/ERC721/ERC721.sol\":1698:1738  interfaceId == type(IERC721).interfaceId */\n      not(0xffffffffffffffffffffffffffffffffffffffffffffffffffffffff)\n      and\n      eq\n        /* \"@openzeppelin/contracts/token/ERC721/ERC721.sol\":1698:1802  interfaceId == type(IERC721).interfaceId ||... */\n      dup1\n      tag_283\n      jumpi\n      pop\n        /* \"@openzeppelin/contracts/token/ERC721/ERC721.sol\":1769:1802  type(IERC721Metadata).interfaceId */\n      0x5b5e139f00000000000000000000000000000000000000000000000000000000\n        /* \"@openzeppelin/contracts/token/ERC721/ERC721.sol\":1754:1802  interfaceId == type(IERC721Metadata).interfaceId */\n      not(0xffffffffffffffffffffffffffffffffffffffffffffffffffffffff)\n      and\n        /* \"@openzeppelin/contracts/token/ERC721/ERC721.sol\":1754:1765  interfaceId */\n      dup3\n        /* \"@openzeppelin/contracts/token/ERC721/ERC721.sol\":1754:1802  interfaceId == type(IERC721Metadata).interfaceId */\n      not(0xffffffffffffffffffffffffffffffffffffffffffffffffffffffff)\n      and\n      eq\n        /* \"@openzeppelin/contracts/token/ERC721/ERC721.sol\":1698:1802  interfaceId == type(IERC721).interfaceId ||... */\n    tag_283:\n        /* \"@openzeppelin/contracts/token/ERC721/ERC721.sol\":1698:1854  interfaceId == type(IERC721).interfaceId ||... */\n      dup1\n      tag_284\n      jumpi\n      pop\n        /* \"@openzeppelin/contracts/token/ERC721/ERC721.sol\":1818:1854  super.supportsInterface(interfaceId) */\n      tag_285\n        /* \"@openzeppelin/contracts/token/ERC721/ERC721.sol\":1842:1853  interfaceId */\n      dup3\n        /* \"@openzeppelin/contracts/token/ERC721/ERC721.sol\":1818:1841  super.supportsInterface */\n      tag_286\n        /* \"@openzeppelin/contracts/token/ERC721/ERC721.sol\":1818:1854  super.supportsInterface(interfaceId) */\n      jump\t// in\n    tag_285:\n        /* \"@openzeppelin/contracts/token/ERC721/ERC721.sol\":1698:1854  interfaceId == type(IERC721).interfaceId ||... */\n    tag_284:\n        /* \"@openzeppelin/contracts/token/ERC721/ERC721.sol\":1679:1854  return... */\n      swap1\n      pop\n        /* \"@openzeppelin/contracts/token/ERC721/ERC721.sol\":1561:1861  function supportsInterface(bytes4 interfaceId) public view virtual override(ERC165, IERC165) returns (bool) {... */\n      swap2\n      swap1\n      pop\n      jump\t// out\n        /* \"@openzeppelin/contracts/token/ERC721/ERC721.sol\":5707:5822  function _ownerOf(uint256 tokenId) internal view virtual returns (address) {... */\n    tag_206:\n        /* \"@openzeppelin/contracts/token/ERC721/ERC721.sol\":5773:5780  address */\n      0x00\n        /* \"@openzeppelin/contracts/token/ERC721/ERC721.sol\":5799:5806  _owners */\n      0x02\n        /* \"@openzeppelin/contracts/token/ERC721/ERC721.sol\":5799:5815  _owners[tokenId] */\n      0x00\n        /* \"@openzeppelin/contracts/token/ERC721/ERC721.sol\":5807:5814  tokenId */\n      dup4\n        /* \"@openzeppelin/contracts/token/ERC721/ERC721.sol\":5799:5815  _owners[tokenId] */\n      dup2\n      mstore\n      0x20\n      add\n      swap1\n      dup2\n      mstore\n      0x20\n      add\n      0x00\n      keccak256\n      0x00\n      swap1\n      sload\n      swap1\n      0x0100\n      exp\n      swap1\n      div\n      0xffffffffffffffffffffffffffffffffffffffff\n      and\n        /* \"@openzeppelin/contracts/token/ERC721/ERC721.sol\":5792:5815  return _owners[tokenId] */\n      swap1\n      pop\n        /* \"@openzeppelin/contracts/token/ERC721/ERC721.sol\":5707:5822  function _ownerOf(uint256 tokenId) internal view virtual returns (address) {... */\n      swap2\n      swap1\n      pop\n      jump\t// out\n        /* \"@openzeppelin/contracts/token/ERC721/ERC721.sol\":14720:15382  function _approve(address to, uint256 tokenId, address auth, bool emitEvent) internal virtual {... */\n    tag_213:\n        /* \"@openzeppelin/contracts/token/ERC721/ERC721.sol\":14880:14889  emitEvent */\n      dup1\n        /* \"@openzeppelin/contracts/token/ERC721/ERC721.sol\":14880:14911  emitEvent || auth != address(0) */\n      dup1\n      tag_289\n      jumpi\n      pop\n        /* \"@openzeppelin/contracts/token/ERC721/ERC721.sol\":14909:14910  0 */\n      0x00\n        /* \"@openzeppelin/contracts/token/ERC721/ERC721.sol\":14893:14911  auth != address(0) */\n      0xffffffffffffffffffffffffffffffffffffffff\n      and\n        /* \"@openzeppelin/contracts/token/ERC721/ERC721.sol\":14893:14897  auth */\n      dup3\n        /* \"@openzeppelin/contracts/token/ERC721/ERC721.sol\":14893:14911  auth != address(0) */\n      0xffffffffffffffffffffffffffffffffffffffff\n      and\n      eq\n      iszero\n        /* \"@openzeppelin/contracts/token/ERC721/ERC721.sol\":14880:14911  emitEvent || auth != address(0) */\n    tag_289:\n        /* \"@openzeppelin/contracts/token/ERC721/ERC721.sol\":14876:15336  if (emitEvent || auth != address(0)) {... */\n      iszero\n      tag_290\n      jumpi\n        /* \"@openzeppelin/contracts/token/ERC721/ERC721.sol\":14927:14940  address owner */\n      0x00\n        /* \"@openzeppelin/contracts/token/ERC721/ERC721.sol\":14943:14965  _requireOwned(tokenId) */\n      tag_291\n        /* \"@openzeppelin/contracts/token/ERC721/ERC721.sol\":14957:14964  tokenId */\n      dup5\n        /* \"@openzeppelin/contracts/token/ERC721/ERC721.sol\":14943:14956  _requireOwned */\n      tag_124\n        /* \"@openzeppelin/contracts/token/ERC721/ERC721.sol\":14943:14965  _requireOwned(tokenId) */\n      jump\t// in\n    tag_291:\n        /* \"@openzeppelin/contracts/token/ERC721/ERC721.sol\":14927:14965  address owner = _requireOwned(tokenId) */\n      swap1\n      pop\n        /* \"@openzeppelin/contracts/token/ERC721/ERC721.sol\":15109:15110  0 */\n      0x00\n        /* \"@openzeppelin/contracts/token/ERC721/ERC721.sol\":15093:15111  auth != address(0) */\n      0xffffffffffffffffffffffffffffffffffffffff\n      and\n        /* \"@openzeppelin/contracts/token/ERC721/ERC721.sol\":15093:15097  auth */\n      dup4\n        /* \"@openzeppelin/contracts/token/ERC721/ERC721.sol\":15093:15111  auth != address(0) */\n      0xffffffffffffffffffffffffffffffffffffffff\n      and\n      eq\n      iszero\n        /* \"@openzeppelin/contracts/token/ERC721/ERC721.sol\":15093:15128  auth != address(0) && owner != auth */\n      dup1\n      iszero\n      tag_292\n      jumpi\n      pop\n        /* \"@openzeppelin/contracts/token/ERC721/ERC721.sol\":15124:15128  auth */\n      dup3\n        /* \"@openzeppelin/contracts/token/ERC721/ERC721.sol\":15115:15128  owner != auth */\n      0xffffffffffffffffffffffffffffffffffffffff\n      and\n        /* \"@openzeppelin/contracts/token/ERC721/ERC721.sol\":15115:15120  owner */\n      dup2\n        /* \"@openzeppelin/contracts/token/ERC721/ERC721.sol\":15115:15128  owner != auth */\n      0xffffffffffffffffffffffffffffffffffffffff\n      and\n      eq\n      iszero\n        /* \"@openzeppelin/contracts/token/ERC721/ERC721.sol\":15093:15128  auth != address(0) && owner != auth */\n    tag_292:\n        /* \"@openzeppelin/contracts/token/ERC721/ERC721.sol\":15093:15162  auth != address(0) && owner != auth && !isApprovedForAll(owner, auth) */\n      dup1\n      iszero\n      tag_293\n      jumpi\n      pop\n        /* \"@openzeppelin/contracts/token/ERC721/ERC721.sol\":15133:15162  isApprovedForAll(owner, auth) */\n      tag_294\n        /* \"@openzeppelin/contracts/token/ERC721/ERC721.sol\":15150:15155  owner */\n      dup2\n        /* \"@openzeppelin/contracts/token/ERC721/ERC721.sol\":15157:15161  auth */\n      dup5\n        /* \"@openzeppelin/contracts/token/ERC721/ERC721.sol\":15133:15149  isApprovedForAll */\n      tag_107\n        /* \"@openzeppelin/contracts/token/ERC721/ERC721.sol\":15133:15162  isApprovedForAll(owner, auth) */\n      jump\t// in\n    tag_294:\n        /* \"@openzeppelin/contracts/token/ERC721/ERC721.sol\":15132:15162  !isApprovedForAll(owner, auth) */\n      iszero\n        /* \"@openzeppelin/contracts/token/ERC721/ERC721.sol\":15093:15162  auth != address(0) && owner != auth && !isApprovedForAll(owner, auth) */\n    tag_293:\n        /* \"@openzeppelin/contracts/token/ERC721/ERC721.sol\":15089:15231  if (auth != address(0) && owner != auth && !isApprovedForAll(owner, auth)) {... */\n      iszero\n      tag_295\n      jumpi\n        /* \"@openzeppelin/contracts/token/ERC721/ERC721.sol\":15211:15215  auth */\n      dup3\n        /* \"@openzeppelin/contracts/token/ERC721/ERC721.sol\":15189:15216  ERC721InvalidApprover(auth) */\n      mload(0x40)\n      0xa9fbf51f00000000000000000000000000000000000000000000000000000000\n      dup2\n      mstore\n      0x04\n      add\n      tag_296\n      swap2\n      swap1\n      tag_43\n      jump\t// in\n    tag_296:\n      mload(0x40)\n      dup1\n      swap2\n      sub\n      swap1\n      revert\n        /* \"@openzeppelin/contracts/token/ERC721/ERC721.sol\":15089:15231  if (auth != address(0) && owner != auth && !isApprovedForAll(owner, auth)) {... */\n    tag_295:\n        /* \"@openzeppelin/contracts/token/ERC721/ERC721.sol\":15249:15258  emitEvent */\n      dup2\n        /* \"@openzeppelin/contracts/token/ERC721/ERC721.sol\":15245:15326  if (emitEvent) {... */\n      iszero\n      tag_297\n      jumpi\n        /* \"@openzeppelin/contracts/token/ERC721/ERC721.sol\":15303:15310  tokenId */\n      dup4\n        /* \"@openzeppelin/contracts/token/ERC721/ERC721.sol\":15299:15301  to */\n      dup6\n        /* \"@openzeppelin/contracts/token/ERC721/ERC721.sol\":15283:15311  Approval(owner, to, tokenId) */\n      0xffffffffffffffffffffffffffffffffffffffff\n      and\n        /* \"@openzeppelin/contracts/token/ERC721/ERC721.sol\":15292:15297  owner */\n      dup3\n        /* \"@openzeppelin/contracts/token/ERC721/ERC721.sol\":15283:15311  Approval(owner, to, tokenId) */\n      0xffffffffffffffffffffffffffffffffffffffff\n      and\n      0x8c5be1e5ebec7d5bd14f71427d1e84f3dd0314c0f7b2291e5b200ac8c7c3b925\n      mload(0x40)\n      mload(0x40)\n      dup1\n      swap2\n      sub\n      swap1\n      log4\n        /* \"@openzeppelin/contracts/token/ERC721/ERC721.sol\":15245:15326  if (emitEvent) {... */\n    tag_297:\n        /* \"@openzeppelin/contracts/token/ERC721/ERC721.sol\":14913:15336  {... */\n      pop\n        /* \"@openzeppelin/contracts/token/ERC721/ERC721.sol\":14876:15336  if (emitEvent || auth != address(0)) {... */\n    tag_290:\n        /* \"@openzeppelin/contracts/token/ERC721/ERC721.sol\":15373:15375  to */\n      dup4\n        /* \"@openzeppelin/contracts/token/ERC721/ERC721.sol\":15346:15361  _tokenApprovals */\n      0x04\n        /* \"@openzeppelin/contracts/token/ERC721/ERC721.sol\":15346:15370  _tokenApprovals[tokenId] */\n      0x00\n        /* \"@openzeppelin/contracts/token/ERC721/ERC721.sol\":15362:15369  tokenId */\n      dup6\n        /* \"@openzeppelin/contracts/token/ERC721/ERC721.sol\":15346:15370  _tokenApprovals[tokenId] */\n      dup2\n      mstore\n      0x20\n      add\n      swap1\n      dup2\n      mstore\n      0x20\n      add\n      0x00\n      keccak256\n      0x00\n        /* \"@openzeppelin/contracts/token/ERC721/ERC721.sol\":15346:15375  _tokenApprovals[tokenId] = to */\n      0x0100\n      exp\n      dup2\n      sload\n      dup2\n      0xffffffffffffffffffffffffffffffffffffffff\n      mul\n      not\n      and\n      swap1\n      dup4\n      0xffffffffffffffffffffffffffffffffffffffff\n      and\n      mul\n      or\n      swap1\n      sstore\n      pop\n        /* \"@openzeppelin/contracts/token/ERC721/ERC721.sol\":14720:15382  function _approve(address to, uint256 tokenId, address auth, bool emitEvent) internal virtual {... */\n      pop\n      pop\n      pop\n      pop\n      jump\t// out\n        /* \"@openzeppelin/contracts/token/ERC721/extensions/ERC721Pausable.sol\":1120:1324  function _update(... */\n    tag_216:\n        /* \"@openzeppelin/contracts/token/ERC721/extensions/ERC721Pausable.sol\":1259:1266  address */\n      0x00\n        /* \"@openzeppelin/contracts/utils/Pausable.sol\":1474:1493  _requireNotPaused() */\n      tag_299\n        /* \"@openzeppelin/contracts/utils/Pausable.sol\":1474:1491  _requireNotPaused */\n      tag_232\n        /* \"@openzeppelin/contracts/utils/Pausable.sol\":1474:1493  _requireNotPaused() */\n      jump\t// in\n    tag_299:\n        /* \"@openzeppelin/contracts/token/ERC721/extensions/ERC721Pausable.sol\":1285:1317  super._update(to, tokenId, auth) */\n      tag_301\n        /* \"@openzeppelin/contracts/token/ERC721/extensions/ERC721Pausable.sol\":1299:1301  to */\n      dup5\n        /* \"@openzeppelin/contracts/token/ERC721/extensions/ERC721Pausable.sol\":1303:1310  tokenId */\n      dup5\n        /* \"@openzeppelin/contracts/token/ERC721/extensions/ERC721Pausable.sol\":1312:1316  auth */\n      dup5\n        /* \"@openzeppelin/contracts/token/ERC721/extensions/ERC721Pausable.sol\":1285:1298  super._update */\n      tag_302\n        /* \"@openzeppelin/contracts/token/ERC721/extensions/ERC721Pausable.sol\":1285:1317  super._update(to, tokenId, auth) */\n      jump\t// in\n    tag_301:\n        /* \"@openzeppelin/contracts/token/ERC721/extensions/ERC721Pausable.sol\":1278:1317  return super._update(to, tokenId, auth) */\n      swap1\n      pop\n        /* \"@openzeppelin/contracts/token/ERC721/extensions/ERC721Pausable.sol\":1120:1324  function _update(... */\n      swap4\n      swap3\n      pop\n      pop\n      pop\n      jump\t// out\n        /* \"@openzeppelin/contracts/utils/Pausable.sol\":2202:2328  function _requirePaused() internal view virtual {... */\n    tag_225:\n        /* \"@openzeppelin/contracts/utils/Pausable.sol\":2265:2273  paused() */\n      tag_304\n        /* \"@openzeppelin/contracts/utils/Pausable.sol\":2265:2271  paused */\n      tag_63\n        /* \"@openzeppelin/contracts/utils/Pausable.sol\":2265:2273  paused() */\n      jump\t// in\n    tag_304:\n        /* \"@openzeppelin/contracts/utils/Pausable.sol\":2260:2322  if (!paused()) {... */\n      tag_305\n      jumpi\n        /* \"@openzeppelin/contracts/utils/Pausable.sol\":2296:2311  ExpectedPause() */\n      mload(0x40)\n      0x8dfc202b00000000000000000000000000000000000000000000000000000000\n      dup2\n      mstore\n      0x04\n      add\n      mload(0x40)\n      dup1\n      swap2\n      sub\n      swap1\n      revert\n        /* \"@openzeppelin/contracts/utils/Pausable.sol\":2260:2322  if (!paused()) {... */\n    tag_305:\n        /* \"@openzeppelin/contracts/utils/Pausable.sol\":2202:2328  function _requirePaused() internal view virtual {... */\n      jump\t// out\n        /* \"@openzeppelin/contracts/utils/Pausable.sol\":2002:2130  function _requireNotPaused() internal view virtual {... */\n    tag_232:\n        /* \"@openzeppelin/contracts/utils/Pausable.sol\":2067:2075  paused() */\n      tag_307\n        /* \"@openzeppelin/contracts/utils/Pausable.sol\":2067:2073  paused */\n      tag_63\n        /* \"@openzeppelin/contracts/utils/Pausable.sol\":2067:2075  paused() */\n      jump\t// in\n    tag_307:\n        /* \"@openzeppelin/contracts/utils/Pausable.sol\":2063:2124  if (paused()) {... */\n      iszero\n      tag_308\n      jumpi\n        /* \"@openzeppelin/contracts/utils/Pausable.sol\":2098:2113  EnforcedPause() */\n      mload(0x40)\n      0xd93c066500000000000000000000000000000000000000000000000000000000\n      dup2\n      mstore\n      0x04\n      add\n      mload(0x40)\n      dup1\n      swap2\n      sub\n      swap1\n      revert\n        /* \"@openzeppelin/contracts/utils/Pausable.sol\":2063:2124  if (paused()) {... */\n    tag_308:\n        /* \"@openzeppelin/contracts/utils/Pausable.sol\":2002:2130  function _requireNotPaused() internal view virtual {... */\n      jump\t// out\n        /* \"@openzeppelin/contracts/token/ERC721/ERC721.sol\":3174:3266  function _baseURI() internal view virtual returns (string memory) {... */\n    tag_268:\n        /* \"@openzeppelin/contracts/token/ERC721/ERC721.sol\":3225:3238  string memory */\n      0x60\n        /* \"@openzeppelin/contracts/token/ERC721/ERC721.sol\":3250:3259  return \"\" */\n      mload(0x40)\n      dup1\n      0x20\n      add\n      0x40\n      mstore\n      dup1\n      0x00\n      dup2\n      mstore\n      pop\n      swap1\n      pop\n        /* \"@openzeppelin/contracts/token/ERC721/ERC721.sol\":3174:3266  function _baseURI() internal view virtual returns (string memory) {... */\n      swap1\n      jump\t// out\n        /* \"@openzeppelin/contracts/token/ERC721/ERC721.sol\":2677:2932  function tokenURI(uint256 tokenId) public view virtual returns (string memory) {... */\n    tag_274:\n        /* \"@openzeppelin/contracts/token/ERC721/ERC721.sol\":2741:2754  string memory */\n      0x60\n        /* \"@openzeppelin/contracts/token/ERC721/ERC721.sol\":2766:2788  _requireOwned(tokenId) */\n      tag_311\n        /* \"@openzeppelin/contracts/token/ERC721/ERC721.sol\":2780:2787  tokenId */\n      dup3\n        /* \"@openzeppelin/contracts/token/ERC721/ERC721.sol\":2766:2779  _requireOwned */\n      tag_124\n        /* \"@openzeppelin/contracts/token/ERC721/ERC721.sol\":2766:2788  _requireOwned(tokenId) */\n      jump\t// in\n    tag_311:\n      pop\n        /* \"@openzeppelin/contracts/token/ERC721/ERC721.sol\":2799:2820  string memory baseURI */\n      0x00\n        /* \"@openzeppelin/contracts/token/ERC721/ERC721.sol\":2823:2833  _baseURI() */\n      tag_312\n        /* \"@openzeppelin/contracts/token/ERC721/ERC721.sol\":2823:2831  _baseURI */\n      tag_268\n        /* \"@openzeppelin/contracts/token/ERC721/ERC721.sol\":2823:2833  _baseURI() */\n      jump\t// in\n    tag_312:\n        /* \"@openzeppelin/contracts/token/ERC721/ERC721.sol\":2799:2833  string memory baseURI = _baseURI() */\n      swap1\n      pop\n        /* \"@openzeppelin/contracts/token/ERC721/ERC721.sol\":2874:2875  0 */\n      0x00\n        /* \"@openzeppelin/contracts/token/ERC721/ERC721.sol\":2856:2863  baseURI */\n      dup2\n        /* \"@openzeppelin/contracts/token/ERC721/ERC721.sol\":2850:2871  bytes(baseURI).length */\n      mload\n        /* \"@openzeppelin/contracts/token/ERC721/ERC721.sol\":2850:2875  bytes(baseURI).length > 0 */\n      gt\n        /* \"@openzeppelin/contracts/token/ERC721/ERC721.sol\":2850:2925  bytes(baseURI).length > 0 ? string.concat(baseURI, tokenId.toString()) : \"\" */\n      tag_313\n      jumpi\n      mload(0x40)\n      dup1\n      0x20\n      add\n      0x40\n      mstore\n      dup1\n      0x00\n      dup2\n      mstore\n      pop\n      jump(tag_314)\n    tag_313:\n        /* \"@openzeppelin/contracts/token/ERC721/ERC721.sol\":2892:2899  baseURI */\n      dup1\n        /* \"@openzeppelin/contracts/token/ERC721/ERC721.sol\":2901:2919  tokenId.toString() */\n      tag_315\n        /* \"@openzeppelin/contracts/token/ERC721/ERC721.sol\":2901:2908  tokenId */\n      dup5\n        /* \"@openzeppelin/contracts/token/ERC721/ERC721.sol\":2901:2917  tokenId.toString */\n      tag_316\n        /* \"@openzeppelin/contracts/token/ERC721/ERC721.sol\":2901:2919  tokenId.toString() */\n      jump\t// in\n    tag_315:\n        /* \"@openzeppelin/contracts/token/ERC721/ERC721.sol\":2878:2920  string.concat(baseURI, tokenId.toString()) */\n      add(0x20, mload(0x40))\n      tag_317\n      swap3\n      swap2\n      swap1\n      tag_272\n      jump\t// in\n    tag_317:\n      mload(0x40)\n      0x20\n      dup2\n      dup4\n      sub\n      sub\n      dup2\n      mstore\n      swap1\n      0x40\n      mstore\n        /* \"@openzeppelin/contracts/token/ERC721/ERC721.sol\":2850:2925  bytes(baseURI).length > 0 ? string.concat(baseURI, tokenId.toString()) : \"\" */\n    tag_314:\n        /* \"@openzeppelin/contracts/token/ERC721/ERC721.sol\":2843:2925  return bytes(baseURI).length > 0 ? string.concat(baseURI, tokenId.toString()) : \"\" */\n      swap2\n      pop\n      pop\n        /* \"@openzeppelin/contracts/token/ERC721/ERC721.sol\":2677:2932  function tokenURI(uint256 tokenId) public view virtual returns (string memory) {... */\n      swap2\n      swap1\n      pop\n      jump\t// out\n        /* \"@openzeppelin/contracts/token/ERC721/ERC721.sol\":10954:11136  function _safeMint(address to, uint256 tokenId, bytes memory data) internal virtual {... */\n    tag_277:\n        /* \"@openzeppelin/contracts/token/ERC721/ERC721.sol\":11048:11066  _mint(to, tokenId) */\n      tag_319\n        /* \"@openzeppelin/contracts/token/ERC721/ERC721.sol\":11054:11056  to */\n      dup4\n        /* \"@openzeppelin/contracts/token/ERC721/ERC721.sol\":11058:11065  tokenId */\n      dup4\n        /* \"@openzeppelin/contracts/token/ERC721/ERC721.sol\":11048:11053  _mint */\n      tag_320\n        /* \"@openzeppelin/contracts/token/ERC721/ERC721.sol\":11048:11066  _mint(to, tokenId) */\n      jump\t// in\n    tag_319:\n        /* \"@openzeppelin/contracts/token/ERC721/ERC721.sol\":11076:11129  _checkOnERC721Received(address(0), to, tokenId, data) */\n      tag_321\n        /* \"@openzeppelin/contracts/token/ERC721/ERC721.sol\":11107:11108  0 */\n      0x00\n        /* \"@openzeppelin/contracts/token/ERC721/ERC721.sol\":11111:11113  to */\n      dup5\n        /* \"@openzeppelin/contracts/token/ERC721/ERC721.sol\":11115:11122  tokenId */\n      dup5\n        /* \"@openzeppelin/contracts/token/ERC721/ERC721.sol\":11124:11128  data */\n      dup5\n        /* \"@openzeppelin/contracts/token/ERC721/ERC721.sol\":11076:11098  _checkOnERC721Received */\n      tag_181\n        /* \"@openzeppelin/contracts/token/ERC721/ERC721.sol\":11076:11129  _checkOnERC721Received(address(0), to, tokenId, data) */\n      jump\t// in\n    tag_321:\n        /* \"@openzeppelin/contracts/token/ERC721/ERC721.sol\":10954:11136  function _safeMint(address to, uint256 tokenId, bytes memory data) internal virtual {... */\n      pop\n      pop\n      pop\n      jump\t// out\n        /* \"@openzeppelin/contracts/utils/introspection/ERC165.sol\":829:984  function supportsInterface(bytes4 interfaceId) public view virtual override returns (bool) {... */\n    tag_286:\n        /* \"@openzeppelin/contracts/utils/introspection/ERC165.sol\":914:918  bool */\n      0x00\n        /* \"@openzeppelin/contracts/utils/introspection/ERC165.sol\":952:977  type(IERC165).interfaceId */\n      0x01ffc9a700000000000000000000000000000000000000000000000000000000\n        /* \"@openzeppelin/contracts/utils/introspection/ERC165.sol\":937:977  interfaceId == type(IERC165).interfaceId */\n      not(0xffffffffffffffffffffffffffffffffffffffffffffffffffffffff)\n      and\n        /* \"@openzeppelin/contracts/utils/introspection/ERC165.sol\":937:948  interfaceId */\n      dup3\n        /* \"@openzeppelin/contracts/utils/introspection/ERC165.sol\":937:977  interfaceId == type(IERC165).interfaceId */\n      not(0xffffffffffffffffffffffffffffffffffffffffffffffffffffffff)\n      and\n      eq\n        /* \"@openzeppelin/contracts/utils/introspection/ERC165.sol\":930:977  return interfaceId == type(IERC165).interfaceId */\n      swap1\n      pop\n        /* \"@openzeppelin/contracts/utils/introspection/ERC165.sol\":829:984  function supportsInterface(bytes4 interfaceId) public view virtual override returns (bool) {... */\n      swap2\n      swap1\n      pop\n      jump\t// out\n        /* \"@openzeppelin/contracts/token/ERC721/ERC721.sol\":8838:9633  function _update(address to, uint256 tokenId, address auth) internal virtual returns (address) {... */\n    tag_302:\n        /* \"@openzeppelin/contracts/token/ERC721/ERC721.sol\":8924:8931  address */\n      0x00\n        /* \"@openzeppelin/contracts/token/ERC721/ERC721.sol\":8943:8955  address from */\n      dup1\n        /* \"@openzeppelin/contracts/token/ERC721/ERC721.sol\":8958:8975  _ownerOf(tokenId) */\n      tag_324\n        /* \"@openzeppelin/contracts/token/ERC721/ERC721.sol\":8967:8974  tokenId */\n      dup5\n        /* \"@openzeppelin/contracts/token/ERC721/ERC721.sol\":8958:8966  _ownerOf */\n      tag_206\n        /* \"@openzeppelin/contracts/token/ERC721/ERC721.sol\":8958:8975  _ownerOf(tokenId) */\n      jump\t// in\n    tag_324:\n        /* \"@openzeppelin/contracts/token/ERC721/ERC721.sol\":8943:8975  address from = _ownerOf(tokenId) */\n      swap1\n      pop\n        /* \"@openzeppelin/contracts/token/ERC721/ERC721.sol\":9051:9052  0 */\n      0x00\n        /* \"@openzeppelin/contracts/token/ERC721/ERC721.sol\":9035:9053  auth != address(0) */\n      0xffffffffffffffffffffffffffffffffffffffff\n      and\n        /* \"@openzeppelin/contracts/token/ERC721/ERC721.sol\":9035:9039  auth */\n      dup4\n        /* \"@openzeppelin/contracts/token/ERC721/ERC721.sol\":9035:9053  auth != address(0) */\n      0xffffffffffffffffffffffffffffffffffffffff\n      and\n      eq\n        /* \"@openzeppelin/contracts/token/ERC721/ERC721.sol\":9031:9117  if (auth != address(0)) {... */\n      tag_325\n      jumpi\n        /* \"@openzeppelin/contracts/token/ERC721/ERC721.sol\":9069:9106  _checkAuthorized(from, auth, tokenId) */\n      tag_326\n        /* \"@openzeppelin/contracts/token/ERC721/ERC721.sol\":9086:9090  from */\n      dup2\n        /* \"@openzeppelin/contracts/token/ERC721/ERC721.sol\":9092:9096  auth */\n      dup5\n        /* \"@openzeppelin/contracts/token/ERC721/ERC721.sol\":9098:9105  tokenId */\n      dup7\n        /* \"@openzeppelin/contracts/token/ERC721/ERC721.sol\":9069:9085  _checkAuthorized */\n      tag_327\n        /* \"@openzeppelin/contracts/token/ERC721/ERC721.sol\":9069:9106  _checkAuthorized(from, auth, tokenId) */\n      jump\t// in\n    tag_326:\n        /* \"@openzeppelin/contracts/token/ERC721/ERC721.sol\":9031:9117  if (auth != address(0)) {... */\n    tag_325:\n        /* \"@openzeppelin/contracts/token/ERC721/ERC721.sol\":9177:9178  0 */\n      0x00\n        /* \"@openzeppelin/contracts/token/ERC721/ERC721.sol\":9161:9179  from != address(0) */\n      0xffffffffffffffffffffffffffffffffffffffff\n      and\n        /* \"@openzeppelin/contracts/token/ERC721/ERC721.sol\":9161:9165  from */\n      dup2\n        /* \"@openzeppelin/contracts/token/ERC721/ERC721.sol\":9161:9179  from != address(0) */\n      0xffffffffffffffffffffffffffffffffffffffff\n      and\n      eq\n        /* \"@openzeppelin/contracts/token/ERC721/ERC721.sol\":9157:9413  if (from != address(0)) {... */\n      tag_328\n      jumpi\n        /* \"@openzeppelin/contracts/token/ERC721/ERC721.sol\":9277:9325  _approve(address(0), tokenId, address(0), false) */\n      tag_329\n        /* \"@openzeppelin/contracts/token/ERC721/ERC721.sol\":9294:9295  0 */\n      0x00\n        /* \"@openzeppelin/contracts/token/ERC721/ERC721.sol\":9298:9305  tokenId */\n      dup6\n        /* \"@openzeppelin/contracts/token/ERC721/ERC721.sol\":9315:9316  0 */\n      0x00\n        /* \"@openzeppelin/contracts/token/ERC721/ERC721.sol\":9319:9324  false */\n      dup1\n        /* \"@openzeppelin/contracts/token/ERC721/ERC721.sol\":9277:9285  _approve */\n      tag_213\n        /* \"@openzeppelin/contracts/token/ERC721/ERC721.sol\":9277:9325  _approve(address(0), tokenId, address(0), false) */\n      jump\t// in\n    tag_329:\n        /* \"@openzeppelin/contracts/token/ERC721/ERC721.sol\":9387:9388  1 */\n      0x01\n        /* \"@openzeppelin/contracts/token/ERC721/ERC721.sol\":9368:9377  _balances */\n      0x03\n        /* \"@openzeppelin/contracts/token/ERC721/ERC721.sol\":9368:9383  _balances[from] */\n      0x00\n        /* \"@openzeppelin/contracts/token/ERC721/ERC721.sol\":9378:9382  from */\n      dup4\n        /* \"@openzeppelin/contracts/token/ERC721/ERC721.sol\":9368:9383  _balances[from] */\n      0xffffffffffffffffffffffffffffffffffffffff\n      and\n      0xffffffffffffffffffffffffffffffffffffffff\n      and\n      dup2\n      mstore\n      0x20\n      add\n      swap1\n      dup2\n      mstore\n      0x20\n      add\n      0x00\n      keccak256\n      0x00\n        /* \"@openzeppelin/contracts/token/ERC721/ERC721.sol\":9368:9388  _balances[from] -= 1 */\n      dup3\n      dup3\n      sload\n      sub\n      swap3\n      pop\n      pop\n      dup2\n      swap1\n      sstore\n      pop\n        /* \"@openzeppelin/contracts/token/ERC721/ERC721.sol\":9157:9413  if (from != address(0)) {... */\n    tag_328:\n        /* \"@openzeppelin/contracts/token/ERC721/ERC721.sol\":9441:9442  0 */\n      0x00\n        /* \"@openzeppelin/contracts/token/ERC721/ERC721.sol\":9427:9443  to != address(0) */\n      0xffffffffffffffffffffffffffffffffffffffff\n      and\n        /* \"@openzeppelin/contracts/token/ERC721/ERC721.sol\":9427:9429  to */\n      dup6\n        /* \"@openzeppelin/contracts/token/ERC721/ERC721.sol\":9427:9443  to != address(0) */\n      0xffffffffffffffffffffffffffffffffffffffff\n      and\n      eq\n        /* \"@openzeppelin/contracts/token/ERC721/ERC721.sol\":9423:9530  if (to != address(0)) {... */\n      tag_330\n      jumpi\n        /* \"@openzeppelin/contracts/token/ERC721/ERC721.sol\":9504:9505  1 */\n      0x01\n        /* \"@openzeppelin/contracts/token/ERC721/ERC721.sol\":9487:9496  _balances */\n      0x03\n        /* \"@openzeppelin/contracts/token/ERC721/ERC721.sol\":9487:9500  _balances[to] */\n      0x00\n        /* \"@openzeppelin/contracts/token/ERC721/ERC721.sol\":9497:9499  to */\n      dup8\n        /* \"@openzeppelin/contracts/token/ERC721/ERC721.sol\":9487:9500  _balances[to] */\n      0xffffffffffffffffffffffffffffffffffffffff\n      and\n      0xffffffffffffffffffffffffffffffffffffffff\n      and\n      dup2\n      mstore\n      0x20\n      add\n      swap1\n      dup2\n      mstore\n      0x20\n      add\n      0x00\n      keccak256\n      0x00\n        /* \"@openzeppelin/contracts/token/ERC721/ERC721.sol\":9487:9505  _balances[to] += 1 */\n      dup3\n      dup3\n      sload\n      add\n      swap3\n      pop\n      pop\n      dup2\n      swap1\n      sstore\n      pop\n        /* \"@openzeppelin/contracts/token/ERC721/ERC721.sol\":9423:9530  if (to != address(0)) {... */\n    tag_330:\n        /* \"@openzeppelin/contracts/token/ERC721/ERC721.sol\":9559:9561  to */\n      dup5\n        /* \"@openzeppelin/contracts/token/ERC721/ERC721.sol\":9540:9547  _owners */\n      0x02\n        /* \"@openzeppelin/contracts/token/ERC721/ERC721.sol\":9540:9556  _owners[tokenId] */\n      0x00\n        /* \"@openzeppelin/contracts/token/ERC721/ERC721.sol\":9548:9555  tokenId */\n      dup7\n        /* \"@openzeppelin/contracts/token/ERC721/ERC721.sol\":9540:9556  _owners[tokenId] */\n      dup2\n      mstore\n      0x20\n      add\n      swap1\n      dup2\n      mstore\n      0x20\n      add\n      0x00\n      keccak256\n      0x00\n        /* \"@openzeppelin/contracts/token/ERC721/ERC721.sol\":9540:9561  _owners[tokenId] = to */\n      0x0100\n      exp\n      dup2\n      sload\n      dup2\n      0xffffffffffffffffffffffffffffffffffffffff\n      mul\n      not\n      and\n      swap1\n      dup4\n      0xffffffffffffffffffffffffffffffffffffffff\n      and\n      mul\n      or\n      swap1\n      sstore\n      pop\n        /* \"@openzeppelin/contracts/token/ERC721/ERC721.sol\":9596:9603  tokenId */\n      dup4\n        /* \"@openzeppelin/contracts/token/ERC721/ERC721.sol\":9592:9594  to */\n      dup6\n        /* \"@openzeppelin/contracts/token/ERC721/ERC721.sol\":9577:9604  Transfer(from, to, tokenId) */\n      0xffffffffffffffffffffffffffffffffffffffff\n      and\n        /* \"@openzeppelin/contracts/token/ERC721/ERC721.sol\":9586:9590  from */\n      dup3\n        /* \"@openzeppelin/contracts/token/ERC721/ERC721.sol\":9577:9604  Transfer(from, to, tokenId) */\n      0xffffffffffffffffffffffffffffffffffffffff\n      and\n      0xddf252ad1be2c89b69c2b068fc378daa952ba7f163c4a11628f55a4df523b3ef\n      mload(0x40)\n      mload(0x40)\n      dup1\n      swap2\n      sub\n      swap1\n      log4\n        /* \"@openzeppelin/contracts/token/ERC721/ERC721.sol\":9622:9626  from */\n      dup1\n        /* \"@openzeppelin/contracts/token/ERC721/ERC721.sol\":9615:9626  return from */\n      swap2\n      pop\n      pop\n        /* \"@openzeppelin/contracts/token/ERC721/ERC721.sol\":8838:9633  function _update(address to, uint256 tokenId, address auth) internal virtual returns (address) {... */\n      swap4\n      swap3\n      pop\n      pop\n      pop\n      jump\t// out\n        /* \"@openzeppelin/contracts/utils/Strings.sol\":447:1143  function toString(uint256 value) internal pure returns (string memory) {... */\n    tag_316:\n        /* \"@openzeppelin/contracts/utils/Strings.sol\":503:516  string memory */\n      0x60\n        /* \"@openzeppelin/contracts/utils/Strings.sol\":552:566  uint256 length */\n      0x00\n        /* \"@openzeppelin/contracts/utils/Strings.sol\":589:590  1 */\n      0x01\n        /* \"@openzeppelin/contracts/utils/Strings.sol\":569:586  Math.log10(value) */\n      tag_332\n        /* \"@openzeppelin/contracts/utils/Strings.sol\":580:585  value */\n      dup5\n        /* \"@openzeppelin/contracts/utils/Strings.sol\":569:579  Math.log10 */\n      tag_333\n        /* \"@openzeppelin/contracts/utils/Strings.sol\":569:586  Math.log10(value) */\n      jump\t// in\n    tag_332:\n        /* \"@openzeppelin/contracts/utils/Strings.sol\":569:590  Math.log10(value) + 1 */\n      add\n        /* \"@openzeppelin/contracts/utils/Strings.sol\":552:590  uint256 length = Math.log10(value) + 1 */\n      swap1\n      pop\n        /* \"@openzeppelin/contracts/utils/Strings.sol\":604:624  string memory buffer */\n      0x00\n        /* \"@openzeppelin/contracts/utils/Strings.sol\":638:644  length */\n      dup2\n        /* \"@openzeppelin/contracts/utils/Strings.sol\":627:645  new string(length) */\n      0xffffffffffffffff\n      dup2\n      gt\n      iszero\n      tag_334\n      jumpi\n      tag_335\n      tag_336\n      jump\t// in\n    tag_335:\n    tag_334:\n      mload(0x40)\n      swap1\n      dup1\n      dup3\n      mstore\n      dup1\n      0x1f\n      add\n      not(0x1f)\n      and\n      0x20\n      add\n      dup3\n      add\n      0x40\n      mstore\n      dup1\n      iszero\n      tag_337\n      jumpi\n      dup2\n      0x20\n      add\n      0x01\n      dup3\n      mul\n      dup1\n      calldatasize\n      dup4\n      calldatacopy\n      dup1\n      dup3\n      add\n      swap2\n      pop\n      pop\n      swap1\n      pop\n    tag_337:\n      pop\n        /* \"@openzeppelin/contracts/utils/Strings.sol\":604:645  string memory buffer = new string(length) */\n      swap1\n      pop\n        /* \"@openzeppelin/contracts/utils/Strings.sol\":659:670  uint256 ptr */\n      0x00\n        /* \"@openzeppelin/contracts/utils/Strings.sol\":785:791  length */\n      dup3\n        /* \"@openzeppelin/contracts/utils/Strings.sol\":781:783  32 */\n      0x20\n        /* \"@openzeppelin/contracts/utils/Strings.sol\":777:792  add(32, length) */\n      add\n        /* \"@openzeppelin/contracts/utils/Strings.sol\":769:775  buffer */\n      dup3\n        /* \"@openzeppelin/contracts/utils/Strings.sol\":765:793  add(buffer, add(32, length)) */\n      add\n        /* \"@openzeppelin/contracts/utils/Strings.sol\":758:793  ptr := add(buffer, add(32, length)) */\n      swap1\n      pop\n        /* \"@openzeppelin/contracts/utils/Strings.sol\":820:1100  while (true) {... */\n    tag_338:\n        /* \"@openzeppelin/contracts/utils/Strings.sol\":827:831  true */\n      0x01\n        /* \"@openzeppelin/contracts/utils/Strings.sol\":820:1100  while (true) {... */\n      iszero\n      tag_339\n      jumpi\n        /* \"@openzeppelin/contracts/utils/Strings.sol\":851:856  ptr-- */\n      dup1\n      dup1\n      0x01\n      swap1\n      sub\n      swap2\n      pop\n      pop\n        /* \"@openzeppelin/contracts/utils/Strings.sol\":990:998  _SYMBOLS */\n      0x3031323334353637383961626364656600000000000000000000000000000000\n        /* \"@openzeppelin/contracts/utils/Strings.sol\":985:987  10 */\n      0x0a\n        /* \"@openzeppelin/contracts/utils/Strings.sol\":978:983  value */\n      dup7\n        /* \"@openzeppelin/contracts/utils/Strings.sol\":974:988  mod(value, 10) */\n      mod\n        /* \"@openzeppelin/contracts/utils/Strings.sol\":969:999  byte(mod(value, 10), _SYMBOLS) */\n      byte\n        /* \"@openzeppelin/contracts/utils/Strings.sol\":964:967  ptr */\n      dup2\n        /* \"@openzeppelin/contracts/utils/Strings.sol\":956:1000  mstore8(ptr, byte(mod(value, 10), _SYMBOLS)) */\n      mstore8\n        /* \"@openzeppelin/contracts/utils/Strings.sol\":1044:1046  10 */\n      0x0a\n        /* \"@openzeppelin/contracts/utils/Strings.sol\":1035:1046  value /= 10 */\n      dup6\n      dup2\n      tag_340\n      jumpi\n      tag_341\n      tag_342\n      jump\t// in\n    tag_341:\n    tag_340:\n      div\n      swap5\n      pop\n        /* \"@openzeppelin/contracts/utils/Strings.sol\":1077:1078  0 */\n      0x00\n        /* \"@openzeppelin/contracts/utils/Strings.sol\":1068:1073  value */\n      dup6\n        /* \"@openzeppelin/contracts/utils/Strings.sol\":1068:1078  value == 0 */\n      sub\n        /* \"@openzeppelin/contracts/utils/Strings.sol\":820:1100  while (true) {... */\n      tag_338\n        /* \"@openzeppelin/contracts/utils/Strings.sol\":1064:1085  if (value == 0) break */\n      jumpi\n        /* \"@openzeppelin/contracts/utils/Strings.sol\":820:1100  while (true) {... */\n    tag_339:\n        /* \"@openzeppelin/contracts/utils/Strings.sol\":1120:1126  buffer */\n      dup2\n        /* \"@openzeppelin/contracts/utils/Strings.sol\":1113:1126  return buffer */\n      swap4\n      pop\n      pop\n      pop\n      pop\n        /* \"@openzeppelin/contracts/utils/Strings.sol\":447:1143  function toString(uint256 value) internal pure returns (string memory) {... */\n      swap2\n      swap1\n      pop\n      jump\t// out\n        /* \"@openzeppelin/contracts/token/ERC721/ERC721.sol\":9955:10282  function _mint(address to, uint256 tokenId) internal {... */\n    tag_320:\n        /* \"@openzeppelin/contracts/token/ERC721/ERC721.sol\":10036:10037  0 */\n      0x00\n        /* \"@openzeppelin/contracts/token/ERC721/ERC721.sol\":10022:10038  to == address(0) */\n      0xffffffffffffffffffffffffffffffffffffffff\n      and\n        /* \"@openzeppelin/contracts/token/ERC721/ERC721.sol\":10022:10024  to */\n      dup3\n        /* \"@openzeppelin/contracts/token/ERC721/ERC721.sol\":10022:10038  to == address(0) */\n      0xffffffffffffffffffffffffffffffffffffffff\n      and\n      sub\n        /* \"@openzeppelin/contracts/token/ERC721/ERC721.sol\":10018:10105  if (to == address(0)) {... */\n      tag_345\n      jumpi\n        /* \"@openzeppelin/contracts/token/ERC721/ERC721.sol\":10091:10092  0 */\n      0x00\n        /* \"@openzeppelin/contracts/token/ERC721/ERC721.sol\":10061:10094  ERC721InvalidReceiver(address(0)) */\n      mload(0x40)\n      0x64a0ae9200000000000000000000000000000000000000000000000000000000\n      dup2\n      mstore\n      0x04\n      add\n      tag_346\n      swap2\n      swap1\n      tag_43\n      jump\t// in\n    tag_346:\n      mload(0x40)\n      dup1\n      swap2\n      sub\n      swap1\n      revert\n        /* \"@openzeppelin/contracts/token/ERC721/ERC721.sol\":10018:10105  if (to == address(0)) {... */\n    tag_345:\n        /* \"@openzeppelin/contracts/token/ERC721/ERC721.sol\":10114:10135  address previousOwner */\n      0x00\n        /* \"@openzeppelin/contracts/token/ERC721/ERC721.sol\":10138:10170  _update(to, tokenId, address(0)) */\n      tag_347\n        /* \"@openzeppelin/contracts/token/ERC721/ERC721.sol\":10146:10148  to */\n      dup4\n        /* \"@openzeppelin/contracts/token/ERC721/ERC721.sol\":10150:10157  tokenId */\n      dup4\n        /* \"@openzeppelin/contracts/token/ERC721/ERC721.sol\":10167:10168  0 */\n      0x00\n        /* \"@openzeppelin/contracts/token/ERC721/ERC721.sol\":10138:10145  _update */\n      tag_137\n        /* \"@openzeppelin/contracts/token/ERC721/ERC721.sol\":10138:10170  _update(to, tokenId, address(0)) */\n      jump\t// in\n    tag_347:\n        /* \"@openzeppelin/contracts/token/ERC721/ERC721.sol\":10114:10170  address previousOwner = _update(to, tokenId, address(0)) */\n      swap1\n      pop\n        /* \"@openzeppelin/contracts/token/ERC721/ERC721.sol\":10209:10210  0 */\n      0x00\n        /* \"@openzeppelin/contracts/token/ERC721/ERC721.sol\":10184:10211  previousOwner != address(0) */\n      0xffffffffffffffffffffffffffffffffffffffff\n      and\n        /* \"@openzeppelin/contracts/token/ERC721/ERC721.sol\":10184:10197  previousOwner */\n      dup2\n        /* \"@openzeppelin/contracts/token/ERC721/ERC721.sol\":10184:10211  previousOwner != address(0) */\n      0xffffffffffffffffffffffffffffffffffffffff\n      and\n      eq\n        /* \"@openzeppelin/contracts/token/ERC721/ERC721.sol\":10180:10276  if (previousOwner != address(0)) {... */\n      tag_348\n      jumpi\n        /* \"@openzeppelin/contracts/token/ERC721/ERC721.sol\":10262:10263  0 */\n      0x00\n        /* \"@openzeppelin/contracts/token/ERC721/ERC721.sol\":10234:10265  ERC721InvalidSender(address(0)) */\n      mload(0x40)\n      0x73c6ac6e00000000000000000000000000000000000000000000000000000000\n      dup2\n      mstore\n      0x04\n      add\n      tag_349\n      swap2\n      swap1\n      tag_43\n      jump\t// in\n    tag_349:\n      mload(0x40)\n      dup1\n      swap2\n      sub\n      swap1\n      revert\n        /* \"@openzeppelin/contracts/token/ERC721/ERC721.sol\":10180:10276  if (previousOwner != address(0)) {... */\n    tag_348:\n        /* \"@openzeppelin/contracts/token/ERC721/ERC721.sol\":10008:10282  {... */\n      pop\n        /* \"@openzeppelin/contracts/token/ERC721/ERC721.sol\":9955:10282  function _mint(address to, uint256 tokenId) internal {... */\n      pop\n      pop\n      jump\t// out\n        /* \"@openzeppelin/contracts/token/ERC721/ERC721.sol\":7082:7450  function _checkAuthorized(address owner, address spender, uint256 tokenId) internal view virtual {... */\n    tag_327:\n        /* \"@openzeppelin/contracts/token/ERC721/ERC721.sol\":7194:7232  _isAuthorized(owner, spender, tokenId) */\n      tag_351\n        /* \"@openzeppelin/contracts/token/ERC721/ERC721.sol\":7208:7213  owner */\n      dup4\n        /* \"@openzeppelin/contracts/token/ERC721/ERC721.sol\":7215:7222  spender */\n      dup4\n        /* \"@openzeppelin/contracts/token/ERC721/ERC721.sol\":7224:7231  tokenId */\n      dup4\n        /* \"@openzeppelin/contracts/token/ERC721/ERC721.sol\":7194:7207  _isAuthorized */\n      tag_352\n        /* \"@openzeppelin/contracts/token/ERC721/ERC721.sol\":7194:7232  _isAuthorized(owner, spender, tokenId) */\n      jump\t// in\n    tag_351:\n        /* \"@openzeppelin/contracts/token/ERC721/ERC721.sol\":7189:7444  if (!_isAuthorized(owner, spender, tokenId)) {... */\n      tag_353\n      jumpi\n        /* \"@openzeppelin/contracts/token/ERC721/ERC721.sol\":7269:7270  0 */\n      0x00\n        /* \"@openzeppelin/contracts/token/ERC721/ERC721.sol\":7252:7271  owner == address(0) */\n      0xffffffffffffffffffffffffffffffffffffffff\n      and\n        /* \"@openzeppelin/contracts/token/ERC721/ERC721.sol\":7252:7257  owner */\n      dup4\n        /* \"@openzeppelin/contracts/token/ERC721/ERC721.sol\":7252:7271  owner == address(0) */\n      0xffffffffffffffffffffffffffffffffffffffff\n      and\n      sub\n        /* \"@openzeppelin/contracts/token/ERC721/ERC721.sol\":7248:7434  if (owner == address(0)) {... */\n      tag_354\n      jumpi\n        /* \"@openzeppelin/contracts/token/ERC721/ERC721.sol\":7321:7328  tokenId */\n      dup1\n        /* \"@openzeppelin/contracts/token/ERC721/ERC721.sol\":7298:7329  ERC721NonexistentToken(tokenId) */\n      mload(0x40)\n      0x7e27328900000000000000000000000000000000000000000000000000000000\n      dup2\n      mstore\n      0x04\n      add\n      tag_355\n      swap2\n      swap1\n      tag_77\n      jump\t// in\n    tag_355:\n      mload(0x40)\n      dup1\n      swap2\n      sub\n      swap1\n      revert\n        /* \"@openzeppelin/contracts/token/ERC721/ERC721.sol\":7248:7434  if (owner == address(0)) {... */\n    tag_354:\n        /* \"@openzeppelin/contracts/token/ERC721/ERC721.sol\":7402:7409  spender */\n      dup2\n        /* \"@openzeppelin/contracts/token/ERC721/ERC721.sol\":7411:7418  tokenId */\n      dup2\n        /* \"@openzeppelin/contracts/token/ERC721/ERC721.sol\":7375:7419  ERC721InsufficientApproval(spender, tokenId) */\n      mload(0x40)\n      0x177e802f00000000000000000000000000000000000000000000000000000000\n      dup2\n      mstore\n      0x04\n      add\n      tag_357\n      swap3\n      swap2\n      swap1\n      tag_358\n      jump\t// in\n    tag_357:\n      mload(0x40)\n      dup1\n      swap2\n      sub\n      swap1\n      revert\n        /* \"@openzeppelin/contracts/token/ERC721/ERC721.sol\":7189:7444  if (!_isAuthorized(owner, spender, tokenId)) {... */\n    tag_353:\n        /* \"@openzeppelin/contracts/token/ERC721/ERC721.sol\":7082:7450  function _checkAuthorized(address owner, address spender, uint256 tokenId) internal view virtual {... */\n      pop\n      pop\n      pop\n      jump\t// out\n        /* \"@openzeppelin/contracts/utils/math/Math.sol\":10139:11055  function log10(uint256 value) internal pure returns (uint256) {... */\n    tag_333:\n        /* \"@openzeppelin/contracts/utils/math/Math.sol\":10192:10199  uint256 */\n      0x00\n        /* \"@openzeppelin/contracts/utils/math/Math.sol\":10211:10225  uint256 result */\n      dup1\n        /* \"@openzeppelin/contracts/utils/math/Math.sol\":10228:10229  0 */\n      0x00\n        /* \"@openzeppelin/contracts/utils/math/Math.sol\":10211:10229  uint256 result = 0 */\n      swap1\n      pop\n        /* \"@openzeppelin/contracts/utils/math/Math.sol\":10276:10284  10 ** 64 */\n      0x184f03e93ff9f4daa797ed6e38ed64bf6a1f010000000000000000\n        /* \"@openzeppelin/contracts/utils/math/Math.sol\":10267:10272  value */\n      dup4\n        /* \"@openzeppelin/contracts/utils/math/Math.sol\":10267:10284  value >= 10 ** 64 */\n      lt\n        /* \"@openzeppelin/contracts/utils/math/Math.sol\":10263:10366  if (value >= 10 ** 64) {... */\n      tag_360\n      jumpi\n        /* \"@openzeppelin/contracts/utils/math/Math.sol\":10313:10321  10 ** 64 */\n      0x184f03e93ff9f4daa797ed6e38ed64bf6a1f010000000000000000\n        /* \"@openzeppelin/contracts/utils/math/Math.sol\":10304:10321  value /= 10 ** 64 */\n      dup4\n      dup2\n      tag_361\n      jumpi\n      tag_362\n      tag_342\n      jump\t// in\n    tag_362:\n    tag_361:\n      div\n      swap3\n      pop\n        /* \"@openzeppelin/contracts/utils/math/Math.sol\":10349:10351  64 */\n      0x40\n        /* \"@openzeppelin/contracts/utils/math/Math.sol\":10339:10351  result += 64 */\n      dup2\n      add\n      swap1\n      pop\n        /* \"@openzeppelin/contracts/utils/math/Math.sol\":10263:10366  if (value >= 10 ** 64) {... */\n    tag_360:\n        /* \"@openzeppelin/contracts/utils/math/Math.sol\":10392:10400  10 ** 32 */\n      0x04ee2d6d415b85acef8100000000\n        /* \"@openzeppelin/contracts/utils/math/Math.sol\":10383:10388  value */\n      dup4\n        /* \"@openzeppelin/contracts/utils/math/Math.sol\":10383:10400  value >= 10 ** 32 */\n      lt\n        /* \"@openzeppelin/contracts/utils/math/Math.sol\":10379:10482  if (value >= 10 ** 32) {... */\n      tag_363\n      jumpi\n        /* \"@openzeppelin/contracts/utils/math/Math.sol\":10429:10437  10 ** 32 */\n      0x04ee2d6d415b85acef8100000000\n        /* \"@openzeppelin/contracts/utils/math/Math.sol\":10420:10437  value /= 10 ** 32 */\n      dup4\n      dup2\n      tag_364\n      jumpi\n      tag_365\n      tag_342\n      jump\t// in\n    tag_365:\n    tag_364:\n      div\n      swap3\n      pop\n        /* \"@openzeppelin/contracts/utils/math/Math.sol\":10465:10467  32 */\n      0x20\n        /* \"@openzeppelin/contracts/utils/math/Math.sol\":10455:10467  result += 32 */\n      dup2\n      add\n      swap1\n      pop\n        /* \"@openzeppelin/contracts/utils/math/Math.sol\":10379:10482  if (value >= 10 ** 32) {... */\n    tag_363:\n        /* \"@openzeppelin/contracts/utils/math/Math.sol\":10508:10516  10 ** 16 */\n      0x2386f26fc10000\n        /* \"@openzeppelin/contracts/utils/math/Math.sol\":10499:10504  value */\n      dup4\n        /* \"@openzeppelin/contracts/utils/math/Math.sol\":10499:10516  value >= 10 ** 16 */\n      lt\n        /* \"@openzeppelin/contracts/utils/math/Math.sol\":10495:10598  if (value >= 10 ** 16) {... */\n      tag_366\n      jumpi\n        /* \"@openzeppelin/contracts/utils/math/Math.sol\":10545:10553  10 ** 16 */\n      0x2386f26fc10000\n        /* \"@openzeppelin/contracts/utils/math/Math.sol\":10536:10553  value /= 10 ** 16 */\n      dup4\n      dup2\n      tag_367\n      jumpi\n      tag_368\n      tag_342\n      jump\t// in\n    tag_368:\n    tag_367:\n      div\n      swap3\n      pop\n        /* \"@openzeppelin/contracts/utils/math/Math.sol\":10581:10583  16 */\n      0x10\n        /* \"@openzeppelin/contracts/utils/math/Math.sol\":10571:10583  result += 16 */\n      dup2\n      add\n      swap1\n      pop\n        /* \"@openzeppelin/contracts/utils/math/Math.sol\":10495:10598  if (value >= 10 ** 16) {... */\n    tag_366:\n        /* \"@openzeppelin/contracts/utils/math/Math.sol\":10624:10631  10 ** 8 */\n      0x05f5e100\n        /* \"@openzeppelin/contracts/utils/math/Math.sol\":10615:10620  value */\n      dup4\n        /* \"@openzeppelin/contracts/utils/math/Math.sol\":10615:10631  value >= 10 ** 8 */\n      lt\n        /* \"@openzeppelin/contracts/utils/math/Math.sol\":10611:10711  if (value >= 10 ** 8) {... */\n      tag_369\n      jumpi\n        /* \"@openzeppelin/contracts/utils/math/Math.sol\":10660:10667  10 ** 8 */\n      0x05f5e100\n        /* \"@openzeppelin/contracts/utils/math/Math.sol\":10651:10667  value /= 10 ** 8 */\n      dup4\n      dup2\n      tag_370\n      jumpi\n      tag_371\n      tag_342\n      jump\t// in\n    tag_371:\n    tag_370:\n      div\n      swap3\n      pop\n        /* \"@openzeppelin/contracts/utils/math/Math.sol\":10695:10696  8 */\n      0x08\n        /* \"@openzeppelin/contracts/utils/math/Math.sol\":10685:10696  result += 8 */\n      dup2\n      add\n      swap1\n      pop\n        /* \"@openzeppelin/contracts/utils/math/Math.sol\":10611:10711  if (value >= 10 ** 8) {... */\n    tag_369:\n        /* \"@openzeppelin/contracts/utils/math/Math.sol\":10737:10744  10 ** 4 */\n      0x2710\n        /* \"@openzeppelin/contracts/utils/math/Math.sol\":10728:10733  value */\n      dup4\n        /* \"@openzeppelin/contracts/utils/math/Math.sol\":10728:10744  value >= 10 ** 4 */\n      lt\n        /* \"@openzeppelin/contracts/utils/math/Math.sol\":10724:10824  if (value >= 10 ** 4) {... */\n      tag_372\n      jumpi\n        /* \"@openzeppelin/contracts/utils/math/Math.sol\":10773:10780  10 ** 4 */\n      0x2710\n        /* \"@openzeppelin/contracts/utils/math/Math.sol\":10764:10780  value /= 10 ** 4 */\n      dup4\n      dup2\n      tag_373\n      jumpi\n      tag_374\n      tag_342\n      jump\t// in\n    tag_374:\n    tag_373:\n      div\n      swap3\n      pop\n        /* \"@openzeppelin/contracts/utils/math/Math.sol\":10808:10809  4 */\n      0x04\n        /* \"@openzeppelin/contracts/utils/math/Math.sol\":10798:10809  result += 4 */\n      dup2\n      add\n      swap1\n      pop\n        /* \"@openzeppelin/contracts/utils/math/Math.sol\":10724:10824  if (value >= 10 ** 4) {... */\n    tag_372:\n        /* \"@openzeppelin/contracts/utils/math/Math.sol\":10850:10857  10 ** 2 */\n      0x64\n        /* \"@openzeppelin/contracts/utils/math/Math.sol\":10841:10846  value */\n      dup4\n        /* \"@openzeppelin/contracts/utils/math/Math.sol\":10841:10857  value >= 10 ** 2 */\n      lt\n        /* \"@openzeppelin/contracts/utils/math/Math.sol\":10837:10937  if (value >= 10 ** 2) {... */\n      tag_375\n      jumpi\n        /* \"@openzeppelin/contracts/utils/math/Math.sol\":10886:10893  10 ** 2 */\n      0x64\n        /* \"@openzeppelin/contracts/utils/math/Math.sol\":10877:10893  value /= 10 ** 2 */\n      dup4\n      dup2\n      tag_376\n      jumpi\n      tag_377\n      tag_342\n      jump\t// in\n    tag_377:\n    tag_376:\n      div\n      swap3\n      pop\n        /* \"@openzeppelin/contracts/utils/math/Math.sol\":10921:10922  2 */\n      0x02\n        /* \"@openzeppelin/contracts/utils/math/Math.sol\":10911:10922  result += 2 */\n      dup2\n      add\n      swap1\n      pop\n        /* \"@openzeppelin/contracts/utils/math/Math.sol\":10837:10937  if (value >= 10 ** 2) {... */\n    tag_375:\n        /* \"@openzeppelin/contracts/utils/math/Math.sol\":10963:10970  10 ** 1 */\n      0x0a\n        /* \"@openzeppelin/contracts/utils/math/Math.sol\":10954:10959  value */\n      dup4\n        /* \"@openzeppelin/contracts/utils/math/Math.sol\":10954:10970  value >= 10 ** 1 */\n      lt\n        /* \"@openzeppelin/contracts/utils/math/Math.sol\":10950:11016  if (value >= 10 ** 1) {... */\n      tag_378\n      jumpi\n        /* \"@openzeppelin/contracts/utils/math/Math.sol\":11000:11001  1 */\n      0x01\n        /* \"@openzeppelin/contracts/utils/math/Math.sol\":10990:11001  result += 1 */\n      dup2\n      add\n      swap1\n      pop\n        /* \"@openzeppelin/contracts/utils/math/Math.sol\":10950:11016  if (value >= 10 ** 1) {... */\n    tag_378:\n        /* \"@openzeppelin/contracts/utils/math/Math.sol\":11042:11048  result */\n      dup1\n        /* \"@openzeppelin/contracts/utils/math/Math.sol\":11035:11048  return result */\n      swap2\n      pop\n      pop\n        /* \"@openzeppelin/contracts/utils/math/Math.sol\":10139:11055  function log10(uint256 value) internal pure returns (uint256) {... */\n      swap2\n      swap1\n      pop\n      jump\t// out\n        /* \"@openzeppelin/contracts/token/ERC721/ERC721.sol\":6376:6648  function _isAuthorized(address owner, address spender, uint256 tokenId) internal view virtual returns (bool) {... */\n    tag_352:\n        /* \"@openzeppelin/contracts/token/ERC721/ERC721.sol\":6479:6483  bool */\n      0x00\n        /* \"@openzeppelin/contracts/token/ERC721/ERC721.sol\":6533:6534  0 */\n      dup1\n        /* \"@openzeppelin/contracts/token/ERC721/ERC721.sol\":6514:6535  spender != address(0) */\n      0xffffffffffffffffffffffffffffffffffffffff\n      and\n        /* \"@openzeppelin/contracts/token/ERC721/ERC721.sol\":6514:6521  spender */\n      dup4\n        /* \"@openzeppelin/contracts/token/ERC721/ERC721.sol\":6514:6535  spender != address(0) */\n      0xffffffffffffffffffffffffffffffffffffffff\n      and\n      eq\n      iszero\n        /* \"@openzeppelin/contracts/token/ERC721/ERC721.sol\":6514:6641  spender != address(0) &&... */\n      dup1\n      iszero\n      tag_380\n      jumpi\n      pop\n        /* \"@openzeppelin/contracts/token/ERC721/ERC721.sol\":6561:6568  spender */\n      dup3\n        /* \"@openzeppelin/contracts/token/ERC721/ERC721.sol\":6552:6568  owner == spender */\n      0xffffffffffffffffffffffffffffffffffffffff\n      and\n        /* \"@openzeppelin/contracts/token/ERC721/ERC721.sol\":6552:6557  owner */\n      dup5\n        /* \"@openzeppelin/contracts/token/ERC721/ERC721.sol\":6552:6568  owner == spender */\n      0xffffffffffffffffffffffffffffffffffffffff\n      and\n      eq\n        /* \"@openzeppelin/contracts/token/ERC721/ERC721.sol\":6552:6604  owner == spender || isApprovedForAll(owner, spender) */\n      dup1\n      tag_381\n      jumpi\n      pop\n        /* \"@openzeppelin/contracts/token/ERC721/ERC721.sol\":6572:6604  isApprovedForAll(owner, spender) */\n      tag_382\n        /* \"@openzeppelin/contracts/token/ERC721/ERC721.sol\":6589:6594  owner */\n      dup5\n        /* \"@openzeppelin/contracts/token/ERC721/ERC721.sol\":6596:6603  spender */\n      dup5\n        /* \"@openzeppelin/contracts/token/ERC721/ERC721.sol\":6572:6588  isApprovedForAll */\n      tag_107\n        /* \"@openzeppelin/contracts/token/ERC721/ERC721.sol\":6572:6604  isApprovedForAll(owner, spender) */\n      jump\t// in\n    tag_382:\n        /* \"@openzeppelin/contracts/token/ERC721/ERC721.sol\":6552:6604  owner == spender || isApprovedForAll(owner, spender) */\n    tag_381:\n        /* \"@openzeppelin/contracts/token/ERC721/ERC721.sol\":6552:6640  owner == spender || isApprovedForAll(owner, spender) || _getApproved(tokenId) == spender */\n      dup1\n      tag_383\n      jumpi\n      pop\n        /* \"@openzeppelin/contracts/token/ERC721/ERC721.sol\":6633:6640  spender */\n      dup3\n        /* \"@openzeppelin/contracts/token/ERC721/ERC721.sol\":6608:6640  _getApproved(tokenId) == spender */\n      0xffffffffffffffffffffffffffffffffffffffff\n      and\n        /* \"@openzeppelin/contracts/token/ERC721/ERC721.sol\":6608:6629  _getApproved(tokenId) */\n      tag_384\n        /* \"@openzeppelin/contracts/token/ERC721/ERC721.sol\":6621:6628  tokenId */\n      dup4\n        /* \"@openzeppelin/contracts/token/ERC721/ERC721.sol\":6608:6620  _getApproved */\n      tag_126\n        /* \"@openzeppelin/contracts/token/ERC721/ERC721.sol\":6608:6629  _getApproved(tokenId) */\n      jump\t// in\n    tag_384:\n        /* \"@openzeppelin/contracts/token/ERC721/ERC721.sol\":6608:6640  _getApproved(tokenId) == spender */\n      0xffffffffffffffffffffffffffffffffffffffff\n      and\n      eq\n        /* \"@openzeppelin/contracts/token/ERC721/ERC721.sol\":6552:6640  owner == spender || isApprovedForAll(owner, spender) || _getApproved(tokenId) == spender */\n    tag_383:\n        /* \"@openzeppelin/contracts/token/ERC721/ERC721.sol\":6514:6641  spender != address(0) &&... */\n    tag_380:\n        /* \"@openzeppelin/contracts/token/ERC721/ERC721.sol\":6495:6641  return... */\n      swap1\n      pop\n        /* \"@openzeppelin/contracts/token/ERC721/ERC721.sol\":6376:6648  function _isAuthorized(address owner, address spender, uint256 tokenId) internal view virtual returns (bool) {... */\n      swap4\n      swap3\n      pop\n      pop\n      pop\n      jump\t// out\n        /* \"#utility.yul\":7:82   */\n    tag_385:\n        /* \"#utility.yul\":40:46   */\n      0x00\n        /* \"#utility.yul\":73:75   */\n      0x40\n        /* \"#utility.yul\":67:76   */\n      mload\n        /* \"#utility.yul\":57:76   */\n      swap1\n      pop\n        /* \"#utility.yul\":7:82   */\n      swap1\n      jump\t// out\n        /* \"#utility.yul\":88:205   */\n    tag_386:\n        /* \"#utility.yul\":197:198   */\n      0x00\n        /* \"#utility.yul\":194:195   */\n      dup1\n        /* \"#utility.yul\":187:199   */\n      revert\n        /* \"#utility.yul\":211:328   */\n    tag_387:\n        /* \"#utility.yul\":320:321   */\n      0x00\n        /* \"#utility.yul\":317:318   */\n      dup1\n        /* \"#utility.yul\":310:322   */\n      revert\n        /* \"#utility.yul\":334:483   */\n    tag_388:\n        /* \"#utility.yul\":370:377   */\n      0x00\n        /* \"#utility.yul\":410:476   */\n      0xffffffff00000000000000000000000000000000000000000000000000000000\n        /* \"#utility.yul\":403:408   */\n      dup3\n        /* \"#utility.yul\":399:477   */\n      and\n        /* \"#utility.yul\":388:477   */\n      swap1\n      pop\n        /* \"#utility.yul\":334:483   */\n      swap2\n      swap1\n      pop\n      jump\t// out\n        /* \"#utility.yul\":489:609   */\n    tag_389:\n        /* \"#utility.yul\":561:584   */\n      tag_453\n        /* \"#utility.yul\":578:583   */\n      dup2\n        /* \"#utility.yul\":561:584   */\n      tag_388\n      jump\t// in\n    tag_453:\n        /* \"#utility.yul\":554:559   */\n      dup2\n        /* \"#utility.yul\":551:585   */\n      eq\n        /* \"#utility.yul\":541:603   */\n      tag_454\n      jumpi\n        /* \"#utility.yul\":599:600   */\n      0x00\n        /* \"#utility.yul\":596:597   */\n      dup1\n        /* \"#utility.yul\":589:601   */\n      revert\n        /* \"#utility.yul\":541:603   */\n    tag_454:\n        /* \"#utility.yul\":489:609   */\n      pop\n      jump\t// out\n        /* \"#utility.yul\":615:752   */\n    tag_390:\n        /* \"#utility.yul\":660:665   */\n      0x00\n        /* \"#utility.yul\":698:704   */\n      dup2\n        /* \"#utility.yul\":685:705   */\n      calldataload\n        /* \"#utility.yul\":676:705   */\n      swap1\n      pop\n        /* \"#utility.yul\":714:746   */\n      tag_456\n        /* \"#utility.yul\":740:745   */\n      dup2\n        /* \"#utility.yul\":714:746   */\n      tag_389\n      jump\t// in\n    tag_456:\n        /* \"#utility.yul\":615:752   */\n      swap3\n      swap2\n      pop\n      pop\n      jump\t// out\n        /* \"#utility.yul\":758:1085   */\n    tag_30:\n        /* \"#utility.yul\":816:822   */\n      0x00\n        /* \"#utility.yul\":865:867   */\n      0x20\n        /* \"#utility.yul\":853:862   */\n      dup3\n        /* \"#utility.yul\":844:851   */\n      dup5\n        /* \"#utility.yul\":840:863   */\n      sub\n        /* \"#utility.yul\":836:868   */\n      slt\n        /* \"#utility.yul\":833:952   */\n      iszero\n      tag_458\n      jumpi\n        /* \"#utility.yul\":871:950   */\n      tag_459\n      tag_386\n      jump\t// in\n    tag_459:\n        /* \"#utility.yul\":833:952   */\n    tag_458:\n        /* \"#utility.yul\":991:992   */\n      0x00\n        /* \"#utility.yul\":1016:1068   */\n      tag_460\n        /* \"#utility.yul\":1060:1067   */\n      dup5\n        /* \"#utility.yul\":1051:1057   */\n      dup3\n        /* \"#utility.yul\":1040:1049   */\n      dup6\n        /* \"#utility.yul\":1036:1058   */\n      add\n        /* \"#utility.yul\":1016:1068   */\n      tag_390\n      jump\t// in\n    tag_460:\n        /* \"#utility.yul\":1006:1068   */\n      swap2\n      pop\n        /* \"#utility.yul\":962:1078   */\n      pop\n        /* \"#utility.yul\":758:1085   */\n      swap3\n      swap2\n      pop\n      pop\n      jump\t// out\n        /* \"#utility.yul\":1091:1181   */\n    tag_391:\n        /* \"#utility.yul\":1125:1132   */\n      0x00\n        /* \"#utility.yul\":1168:1173   */\n      dup2\n        /* \"#utility.yul\":1161:1174   */\n      iszero\n        /* \"#utility.yul\":1154:1175   */\n      iszero\n        /* \"#utility.yul\":1143:1175   */\n      swap1\n      pop\n        /* \"#utility.yul\":1091:1181   */\n      swap2\n      swap1\n      pop\n      jump\t// out\n        /* \"#utility.yul\":1187:1296   */\n    tag_392:\n        /* \"#utility.yul\":1268:1289   */\n      tag_463\n        /* \"#utility.yul\":1283:1288   */\n      dup2\n        /* \"#utility.yul\":1268:1289   */\n      tag_391\n      jump\t// in\n    tag_463:\n        /* \"#utility.yul\":1263:1266   */\n      dup3\n        /* \"#utility.yul\":1256:1290   */\n      mstore\n        /* \"#utility.yul\":1187:1296   */\n      pop\n      pop\n      jump\t// out\n        /* \"#utility.yul\":1302:1512   */\n    tag_33:\n        /* \"#utility.yul\":1389:1393   */\n      0x00\n        /* \"#utility.yul\":1427:1429   */\n      0x20\n        /* \"#utility.yul\":1416:1425   */\n      dup3\n        /* \"#utility.yul\":1412:1430   */\n      add\n        /* \"#utility.yul\":1404:1430   */\n      swap1\n      pop\n        /* \"#utility.yul\":1440:1505   */\n      tag_465\n        /* \"#utility.yul\":1502:1503   */\n      0x00\n        /* \"#utility.yul\":1491:1500   */\n      dup4\n        /* \"#utility.yul\":1487:1504   */\n      add\n        /* \"#utility.yul\":1478:1484   */\n      dup5\n        /* \"#utility.yul\":1440:1505   */\n      tag_392\n      jump\t// in\n    tag_465:\n        /* \"#utility.yul\":1302:1512   */\n      swap3\n      swap2\n      pop\n      pop\n      jump\t// out\n        /* \"#utility.yul\":1518:1617   */\n    tag_393:\n        /* \"#utility.yul\":1570:1576   */\n      0x00\n        /* \"#utility.yul\":1604:1609   */\n      dup2\n        /* \"#utility.yul\":1598:1610   */\n      mload\n        /* \"#utility.yul\":1588:1610   */\n      swap1\n      pop\n        /* \"#utility.yul\":1518:1617   */\n      swap2\n      swap1\n      pop\n      jump\t// out\n        /* \"#utility.yul\":1623:1792   */\n    tag_394:\n        /* \"#utility.yul\":1707:1718   */\n      0x00\n        /* \"#utility.yul\":1741:1747   */\n      dup3\n        /* \"#utility.yul\":1736:1739   */\n      dup3\n        /* \"#utility.yul\":1729:1748   */\n      mstore\n        /* \"#utility.yul\":1781:1785   */\n      0x20\n        /* \"#utility.yul\":1776:1779   */\n      dup3\n        /* \"#utility.yul\":1772:1786   */\n      add\n        /* \"#utility.yul\":1757:1786   */\n      swap1\n      pop\n        /* \"#utility.yul\":1623:1792   */\n      swap3\n      swap2\n      pop\n      pop\n      jump\t// out\n        /* \"#utility.yul\":1798:2044   */\n    tag_395:\n        /* \"#utility.yul\":1879:1880   */\n      0x00\n        /* \"#utility.yul\":1889:2002   */\n    tag_469:\n        /* \"#utility.yul\":1903:1909   */\n      dup4\n        /* \"#utility.yul\":1900:1901   */\n      dup2\n        /* \"#utility.yul\":1897:1910   */\n      lt\n        /* \"#utility.yul\":1889:2002   */\n      iszero\n      tag_471\n      jumpi\n        /* \"#utility.yul\":1988:1989   */\n      dup1\n        /* \"#utility.yul\":1983:1986   */\n      dup3\n        /* \"#utility.yul\":1979:1990   */\n      add\n        /* \"#utility.yul\":1973:1991   */\n      mload\n        /* \"#utility.yul\":1969:1970   */\n      dup2\n        /* \"#utility.yul\":1964:1967   */\n      dup5\n        /* \"#utility.yul\":1960:1971   */\n      add\n        /* \"#utility.yul\":1953:1992   */\n      mstore\n        /* \"#utility.yul\":1925:1927   */\n      0x20\n        /* \"#utility.yul\":1922:1923   */\n      dup2\n        /* \"#utility.yul\":1918:1928   */\n      add\n        /* \"#utility.yul\":1913:1928   */\n      swap1\n      pop\n        /* \"#utility.yul\":1889:2002   */\n      jump(tag_469)\n    tag_471:\n        /* \"#utility.yul\":2036:2037   */\n      0x00\n        /* \"#utility.yul\":2027:2033   */\n      dup5\n        /* \"#utility.yul\":2022:2025   */\n      dup5\n        /* \"#utility.yul\":2018:2034   */\n      add\n        /* \"#utility.yul\":2011:2038   */\n      mstore\n        /* \"#utility.yul\":1860:2044   */\n      pop\n        /* \"#utility.yul\":1798:2044   */\n      pop\n      pop\n      pop\n      jump\t// out\n        /* \"#utility.yul\":2050:2152   */\n    tag_396:\n        /* \"#utility.yul\":2091:2097   */\n      0x00\n        /* \"#utility.yul\":2142:2144   */\n      0x1f\n        /* \"#utility.yul\":2138:2145   */\n      not\n        /* \"#utility.yul\":2133:2135   */\n      0x1f\n        /* \"#utility.yul\":2126:2131   */\n      dup4\n        /* \"#utility.yul\":2122:2136   */\n      add\n        /* \"#utility.yul\":2118:2146   */\n      and\n        /* \"#utility.yul\":2108:2146   */\n      swap1\n      pop\n        /* \"#utility.yul\":2050:2152   */\n      swap2\n      swap1\n      pop\n      jump\t// out\n        /* \"#utility.yul\":2158:2535   */\n    tag_397:\n        /* \"#utility.yul\":2246:2249   */\n      0x00\n        /* \"#utility.yul\":2274:2313   */\n      tag_474\n        /* \"#utility.yul\":2307:2312   */\n      dup3\n        /* \"#utility.yul\":2274:2313   */\n      tag_393\n      jump\t// in\n    tag_474:\n        /* \"#utility.yul\":2329:2400   */\n      tag_475\n        /* \"#utility.yul\":2393:2399   */\n      dup2\n        /* \"#utility.yul\":2388:2391   */\n      dup6\n        /* \"#utility.yul\":2329:2400   */\n      tag_394\n      jump\t// in\n    tag_475:\n        /* \"#utility.yul\":2322:2400   */\n      swap4\n      pop\n        /* \"#utility.yul\":2409:2474   */\n      tag_476\n        /* \"#utility.yul\":2467:2473   */\n      dup2\n        /* \"#utility.yul\":2462:2465   */\n      dup6\n        /* \"#utility.yul\":2455:2459   */\n      0x20\n        /* \"#utility.yul\":2448:2453   */\n      dup7\n        /* \"#utility.yul\":2444:2460   */\n      add\n        /* \"#utility.yul\":2409:2474   */\n      tag_395\n      jump\t// in\n    tag_476:\n        /* \"#utility.yul\":2499:2528   */\n      tag_477\n        /* \"#utility.yul\":2521:2527   */\n      dup2\n        /* \"#utility.yul\":2499:2528   */\n      tag_396\n      jump\t// in\n    tag_477:\n        /* \"#utility.yul\":2494:2497   */\n      dup5\n        /* \"#utility.yul\":2490:2529   */\n      add\n        /* \"#utility.yul\":2483:2529   */\n      swap2\n      pop\n        /* \"#utility.yul\":2250:2535   */\n      pop\n        /* \"#utility.yul\":2158:2535   */\n      swap3\n      swap2\n      pop\n      pop\n      jump\t// out\n        /* \"#utility.yul\":2541:2854   */\n    tag_37:\n        /* \"#utility.yul\":2654:2658   */\n      0x00\n        /* \"#utility.yul\":2692:2694   */\n      0x20\n        /* \"#utility.yul\":2681:2690   */\n      dup3\n        /* \"#utility.yul\":2677:2695   */\n      add\n        /* \"#utility.yul\":2669:2695   */\n      swap1\n      pop\n        /* \"#utility.yul\":2741:2750   */\n      dup2\n        /* \"#utility.yul\":2735:2739   */\n      dup2\n        /* \"#utility.yul\":2731:2751   */\n      sub\n        /* \"#utility.yul\":2727:2728   */\n      0x00\n        /* \"#utility.yul\":2716:2725   */\n      dup4\n        /* \"#utility.yul\":2712:2729   */\n      add\n        /* \"#utility.yul\":2705:2752   */\n      mstore\n        /* \"#utility.yul\":2769:2847   */\n      tag_479\n        /* \"#utility.yul\":2842:2846   */\n      dup2\n        /* \"#utility.yul\":2833:2839   */\n      dup5\n        /* \"#utility.yul\":2769:2847   */\n      tag_397\n      jump\t// in\n    tag_479:\n        /* \"#utility.yul\":2761:2847   */\n      swap1\n      pop\n        /* \"#utility.yul\":2541:2854   */\n      swap3\n      swap2\n      pop\n      pop\n      jump\t// out\n        /* \"#utility.yul\":2860:2937   */\n    tag_398:\n        /* \"#utility.yul\":2897:2904   */\n      0x00\n        /* \"#utility.yul\":2926:2931   */\n      dup2\n        /* \"#utility.yul\":2915:2931   */\n      swap1\n      pop\n        /* \"#utility.yul\":2860:2937   */\n      swap2\n      swap1\n      pop\n      jump\t// out\n        /* \"#utility.yul\":2943:3065   */\n    tag_399:\n        /* \"#utility.yul\":3016:3040   */\n      tag_482\n        /* \"#utility.yul\":3034:3039   */\n      dup2\n        /* \"#utility.yul\":3016:3040   */\n      tag_398\n      jump\t// in\n    tag_482:\n        /* \"#utility.yul\":3009:3014   */\n      dup2\n        /* \"#utility.yul\":3006:3041   */\n      eq\n        /* \"#utility.yul\":2996:3059   */\n      tag_483\n      jumpi\n        /* \"#utility.yul\":3055:3056   */\n      0x00\n        /* \"#utility.yul\":3052:3053   */\n      dup1\n        /* \"#utility.yul\":3045:3057   */\n      revert\n        /* \"#utility.yul\":2996:3059   */\n    tag_483:\n        /* \"#utility.yul\":2943:3065   */\n      pop\n      jump\t// out\n        /* \"#utility.yul\":3071:3210   */\n    tag_400:\n        /* \"#utility.yul\":3117:3122   */\n      0x00\n        /* \"#utility.yul\":3155:3161   */\n      dup2\n        /* \"#utility.yul\":3142:3162   */\n      calldataload\n        /* \"#utility.yul\":3133:3162   */\n      swap1\n      pop\n        /* \"#utility.yul\":3171:3204   */\n      tag_485\n        /* \"#utility.yul\":3198:3203   */\n      dup2\n        /* \"#utility.yul\":3171:3204   */\n      tag_399\n      jump\t// in\n    tag_485:\n        /* \"#utility.yul\":3071:3210   */\n      swap3\n      swap2\n      pop\n      pop\n      jump\t// out\n        /* \"#utility.yul\":3216:3545   */\n    tag_40:\n        /* \"#utility.yul\":3275:3281   */\n      0x00\n        /* \"#utility.yul\":3324:3326   */\n      0x20\n        /* \"#utility.yul\":3312:3321   */\n      dup3\n        /* \"#utility.yul\":3303:3310   */\n      dup5\n        /* \"#utility.yul\":3299:3322   */\n      sub\n        /* \"#utility.yul\":3295:3327   */\n      slt\n        /* \"#utility.yul\":3292:3411   */\n      iszero\n      tag_487\n      jumpi\n        /* \"#utility.yul\":3330:3409   */\n      tag_488\n      tag_386\n      jump\t// in\n    tag_488:\n        /* \"#utility.yul\":3292:3411   */\n    tag_487:\n        /* \"#utility.yul\":3450:3451   */\n      0x00\n        /* \"#utility.yul\":3475:3528   */\n      tag_489\n        /* \"#utility.yul\":3520:3527   */\n      dup5\n        /* \"#utility.yul\":3511:3517   */\n      dup3\n        /* \"#utility.yul\":3500:3509   */\n      dup6\n        /* \"#utility.yul\":3496:3518   */\n      add\n        /* \"#utility.yul\":3475:3528   */\n      tag_400\n      jump\t// in\n    tag_489:\n        /* \"#utility.yul\":3465:3528   */\n      swap2\n      pop\n        /* \"#utility.yul\":3421:3538   */\n      pop\n        /* \"#utility.yul\":3216:3545   */\n      swap3\n      swap2\n      pop\n      pop\n      jump\t// out\n        /* \"#utility.yul\":3551:3677   */\n    tag_401:\n        /* \"#utility.yul\":3588:3595   */\n      0x00\n        /* \"#utility.yul\":3628:3670   */\n      0xffffffffffffffffffffffffffffffffffffffff\n        /* \"#utility.yul\":3621:3626   */\n      dup3\n        /* \"#utility.yul\":3617:3671   */\n      and\n        /* \"#utility.yul\":3606:3671   */\n      swap1\n      pop\n        /* \"#utility.yul\":3551:3677   */\n      swap2\n      swap1\n      pop\n      jump\t// out\n        /* \"#utility.yul\":3683:3779   */\n    tag_402:\n        /* \"#utility.yul\":3720:3727   */\n      0x00\n        /* \"#utility.yul\":3749:3773   */\n      tag_492\n        /* \"#utility.yul\":3767:3772   */\n      dup3\n        /* \"#utility.yul\":3749:3773   */\n      tag_401\n      jump\t// in\n    tag_492:\n        /* \"#utility.yul\":3738:3773   */\n      swap1\n      pop\n        /* \"#utility.yul\":3683:3779   */\n      swap2\n      swap1\n      pop\n      jump\t// out\n        /* \"#utility.yul\":3785:3903   */\n    tag_403:\n        /* \"#utility.yul\":3872:3896   */\n      tag_494\n        /* \"#utility.yul\":3890:3895   */\n      dup2\n        /* \"#utility.yul\":3872:3896   */\n      tag_402\n      jump\t// in\n    tag_494:\n        /* \"#utility.yul\":3867:3870   */\n      dup3\n        /* \"#utility.yul\":3860:3897   */\n      mstore\n        /* \"#utility.yul\":3785:3903   */\n      pop\n      pop\n      jump\t// out\n        /* \"#utility.yul\":3909:4131   */\n    tag_43:\n        /* \"#utility.yul\":4002:4006   */\n      0x00\n        /* \"#utility.yul\":4040:4042   */\n      0x20\n        /* \"#utility.yul\":4029:4038   */\n      dup3\n        /* \"#utility.yul\":4025:4043   */\n      add\n        /* \"#utility.yul\":4017:4043   */\n      swap1\n      pop\n        /* \"#utility.yul\":4053:4124   */\n      tag_496\n        /* \"#utility.yul\":4121:4122   */\n      0x00\n        /* \"#utility.yul\":4110:4119   */\n      dup4\n        /* \"#utility.yul\":4106:4123   */\n      add\n        /* \"#utility.yul\":4097:4103   */\n      dup5\n        /* \"#utility.yul\":4053:4124   */\n      tag_403\n      jump\t// in\n    tag_496:\n        /* \"#utility.yul\":3909:4131   */\n      swap3\n      swap2\n      pop\n      pop\n      jump\t// out\n        /* \"#utility.yul\":4137:4259   */\n    tag_404:\n        /* \"#utility.yul\":4210:4234   */\n      tag_498\n        /* \"#utility.yul\":4228:4233   */\n      dup2\n        /* \"#utility.yul\":4210:4234   */\n      tag_402\n      jump\t// in\n    tag_498:\n        /* \"#utility.yul\":4203:4208   */\n      dup2\n        /* \"#utility.yul\":4200:4235   */\n      eq\n        /* \"#utility.yul\":4190:4253   */\n      tag_499\n      jumpi\n        /* \"#utility.yul\":4249:4250   */\n      0x00\n        /* \"#utility.yul\":4246:4247   */\n      dup1\n        /* \"#utility.yul\":4239:4251   */\n      revert\n        /* \"#utility.yul\":4190:4253   */\n    tag_499:\n        /* \"#utility.yul\":4137:4259   */\n      pop\n      jump\t// out\n        /* \"#utility.yul\":4265:4404   */\n    tag_405:\n        /* \"#utility.yul\":4311:4316   */\n      0x00\n        /* \"#utility.yul\":4349:4355   */\n      dup2\n        /* \"#utility.yul\":4336:4356   */\n      calldataload\n        /* \"#utility.yul\":4327:4356   */\n      swap1\n      pop\n        /* \"#utility.yul\":4365:4398   */\n      tag_501\n        /* \"#utility.yul\":4392:4397   */\n      dup2\n        /* \"#utility.yul\":4365:4398   */\n      tag_404\n      jump\t// in\n    tag_501:\n        /* \"#utility.yul\":4265:4404   */\n      swap3\n      swap2\n      pop\n      pop\n      jump\t// out\n        /* \"#utility.yul\":4410:4884   */\n    tag_46:\n        /* \"#utility.yul\":4478:4484   */\n      0x00\n        /* \"#utility.yul\":4486:4492   */\n      dup1\n        /* \"#utility.yul\":4535:4537   */\n      0x40\n        /* \"#utility.yul\":4523:4532   */\n      dup4\n        /* \"#utility.yul\":4514:4521   */\n      dup6\n        /* \"#utility.yul\":4510:4533   */\n      sub\n        /* \"#utility.yul\":4506:4538   */\n      slt\n        /* \"#utility.yul\":4503:4622   */\n      iszero\n      tag_503\n      jumpi\n        /* \"#utility.yul\":4541:4620   */\n      tag_504\n      tag_386\n      jump\t// in\n    tag_504:\n        /* \"#utility.yul\":4503:4622   */\n    tag_503:\n        /* \"#utility.yul\":4661:4662   */\n      0x00\n        /* \"#utility.yul\":4686:4739   */\n      tag_505\n        /* \"#utility.yul\":4731:4738   */\n      dup6\n        /* \"#utility.yul\":4722:4728   */\n      dup3\n        /* \"#utility.yul\":4711:4720   */\n      dup7\n        /* \"#utility.yul\":4707:4729   */\n      add\n        /* \"#utility.yul\":4686:4739   */\n      tag_405\n      jump\t// in\n    tag_505:\n        /* \"#utility.yul\":4676:4739   */\n      swap3\n      pop\n        /* \"#utility.yul\":4632:4749   */\n      pop\n        /* \"#utility.yul\":4788:4790   */\n      0x20\n        /* \"#utility.yul\":4814:4867   */\n      tag_506\n        /* \"#utility.yul\":4859:4866   */\n      dup6\n        /* \"#utility.yul\":4850:4856   */\n      dup3\n        /* \"#utility.yul\":4839:4848   */\n      dup7\n        /* \"#utility.yul\":4835:4857   */\n      add\n        /* \"#utility.yul\":4814:4867   */\n      tag_400\n      jump\t// in\n    tag_506:\n        /* \"#utility.yul\":4804:4867   */\n      swap2\n      pop\n        /* \"#utility.yul\":4759:4877   */\n      pop\n        /* \"#utility.yul\":4410:4884   */\n      swap3\n      pop\n      swap3\n      swap1\n      pop\n      jump\t// out\n        /* \"#utility.yul\":4890:5509   */\n    tag_50:\n        /* \"#utility.yul\":4967:4973   */\n      0x00\n        /* \"#utility.yul\":4975:4981   */\n      dup1\n        /* \"#utility.yul\":4983:4989   */\n      0x00\n        /* \"#utility.yul\":5032:5034   */\n      0x60\n        /* \"#utility.yul\":5020:5029   */\n      dup5\n        /* \"#utility.yul\":5011:5018   */\n      dup7\n        /* \"#utility.yul\":5007:5030   */\n      sub\n        /* \"#utility.yul\":5003:5035   */\n      slt\n        /* \"#utility.yul\":5000:5119   */\n      iszero\n      tag_508\n      jumpi\n        /* \"#utility.yul\":5038:5117   */\n      tag_509\n      tag_386\n      jump\t// in\n    tag_509:\n        /* \"#utility.yul\":5000:5119   */\n    tag_508:\n        /* \"#utility.yul\":5158:5159   */\n      0x00\n        /* \"#utility.yul\":5183:5236   */\n      tag_510\n        /* \"#utility.yul\":5228:5235   */\n      dup7\n        /* \"#utility.yul\":5219:5225   */\n      dup3\n        /* \"#utility.yul\":5208:5217   */\n      dup8\n        /* \"#utility.yul\":5204:5226   */\n      add\n        /* \"#utility.yul\":5183:5236   */\n      tag_405\n      jump\t// in\n    tag_510:\n        /* \"#utility.yul\":5173:5236   */\n      swap4\n      pop\n        /* \"#utility.yul\":5129:5246   */\n      pop\n        /* \"#utility.yul\":5285:5287   */\n      0x20\n        /* \"#utility.yul\":5311:5364   */\n      tag_511\n        /* \"#utility.yul\":5356:5363   */\n      dup7\n        /* \"#utility.yul\":5347:5353   */\n      dup3\n        /* \"#utility.yul\":5336:5345   */\n      dup8\n        /* \"#utility.yul\":5332:5354   */\n      add\n        /* \"#utility.yul\":5311:5364   */\n      tag_405\n      jump\t// in\n    tag_511:\n        /* \"#utility.yul\":5301:5364   */\n      swap3\n      pop\n        /* \"#utility.yul\":5256:5374   */\n      pop\n        /* \"#utility.yul\":5413:5415   */\n      0x40\n        /* \"#utility.yul\":5439:5492   */\n      tag_512\n        /* \"#utility.yul\":5484:5491   */\n      dup7\n        /* \"#utility.yul\":5475:5481   */\n      dup3\n        /* \"#utility.yul\":5464:5473   */\n      dup8\n        /* \"#utility.yul\":5460:5482   */\n      add\n        /* \"#utility.yul\":5439:5492   */\n      tag_400\n      jump\t// in\n    tag_512:\n        /* \"#utility.yul\":5429:5492   */\n      swap2\n      pop\n        /* \"#utility.yul\":5384:5502   */\n      pop\n        /* \"#utility.yul\":4890:5509   */\n      swap3\n      pop\n      swap3\n      pop\n      swap3\n      jump\t// out\n        /* \"#utility.yul\":5515:5844   */\n    tag_59:\n        /* \"#utility.yul\":5574:5580   */\n      0x00\n        /* \"#utility.yul\":5623:5625   */\n      0x20\n        /* \"#utility.yul\":5611:5620   */\n      dup3\n        /* \"#utility.yul\":5602:5609   */\n      dup5\n        /* \"#utility.yul\":5598:5621   */\n      sub\n        /* \"#utility.yul\":5594:5626   */\n      slt\n        /* \"#utility.yul\":5591:5710   */\n      iszero\n      tag_514\n      jumpi\n        /* \"#utility.yul\":5629:5708   */\n      tag_515\n      tag_386\n      jump\t// in\n    tag_515:\n        /* \"#utility.yul\":5591:5710   */\n    tag_514:\n        /* \"#utility.yul\":5749:5750   */\n      0x00\n        /* \"#utility.yul\":5774:5827   */\n      tag_516\n        /* \"#utility.yul\":5819:5826   */\n      dup5\n        /* \"#utility.yul\":5810:5816   */\n      dup3\n        /* \"#utility.yul\":5799:5808   */\n      dup6\n        /* \"#utility.yul\":5795:5817   */\n      add\n        /* \"#utility.yul\":5774:5827   */\n      tag_405\n      jump\t// in\n    tag_516:\n        /* \"#utility.yul\":5764:5827   */\n      swap2\n      pop\n        /* \"#utility.yul\":5720:5837   */\n      pop\n        /* \"#utility.yul\":5515:5844   */\n      swap3\n      swap2\n      pop\n      pop\n      jump\t// out\n        /* \"#utility.yul\":5850:5968   */\n    tag_406:\n        /* \"#utility.yul\":5937:5961   */\n      tag_518\n        /* \"#utility.yul\":5955:5960   */\n      dup2\n        /* \"#utility.yul\":5937:5961   */\n      tag_398\n      jump\t// in\n    tag_518:\n        /* \"#utility.yul\":5932:5935   */\n      dup3\n        /* \"#utility.yul\":5925:5962   */\n      mstore\n        /* \"#utility.yul\":5850:5968   */\n      pop\n      pop\n      jump\t// out\n        /* \"#utility.yul\":5974:6196   */\n    tag_77:\n        /* \"#utility.yul\":6067:6071   */\n      0x00\n        /* \"#utility.yul\":6105:6107   */\n      0x20\n        /* \"#utility.yul\":6094:6103   */\n      dup3\n        /* \"#utility.yul\":6090:6108   */\n      add\n        /* \"#utility.yul\":6082:6108   */\n      swap1\n      pop\n        /* \"#utility.yul\":6118:6189   */\n      tag_520\n        /* \"#utility.yul\":6186:6187   */\n      0x00\n        /* \"#utility.yul\":6175:6184   */\n      dup4\n        /* \"#utility.yul\":6171:6188   */\n      add\n        /* \"#utility.yul\":6162:6168   */\n      dup5\n        /* \"#utility.yul\":6118:6189   */\n      tag_406\n      jump\t// in\n    tag_520:\n        /* \"#utility.yul\":5974:6196   */\n      swap3\n      swap2\n      pop\n      pop\n      jump\t// out\n        /* \"#utility.yul\":6202:6318   */\n    tag_407:\n        /* \"#utility.yul\":6272:6293   */\n      tag_522\n        /* \"#utility.yul\":6287:6292   */\n      dup2\n        /* \"#utility.yul\":6272:6293   */\n      tag_391\n      jump\t// in\n    tag_522:\n        /* \"#utility.yul\":6265:6270   */\n      dup2\n        /* \"#utility.yul\":6262:6294   */\n      eq\n        /* \"#utility.yul\":6252:6312   */\n      tag_523\n      jumpi\n        /* \"#utility.yul\":6308:6309   */\n      0x00\n        /* \"#utility.yul\":6305:6306   */\n      dup1\n        /* \"#utility.yul\":6298:6310   */\n      revert\n        /* \"#utility.yul\":6252:6312   */\n    tag_523:\n        /* \"#utility.yul\":6202:6318   */\n      pop\n      jump\t// out\n        /* \"#utility.yul\":6324:6457   */\n    tag_408:\n        /* \"#utility.yul\":6367:6372   */\n      0x00\n        /* \"#utility.yul\":6405:6411   */\n      dup2\n        /* \"#utility.yul\":6392:6412   */\n      calldataload\n        /* \"#utility.yul\":6383:6412   */\n      swap1\n      pop\n        /* \"#utility.yul\":6421:6451   */\n      tag_525\n        /* \"#utility.yul\":6445:6450   */\n      dup2\n        /* \"#utility.yul\":6421:6451   */\n      tag_407\n      jump\t// in\n    tag_525:\n        /* \"#utility.yul\":6324:6457   */\n      swap3\n      swap2\n      pop\n      pop\n      jump\t// out\n        /* \"#utility.yul\":6463:6931   */\n    tag_90:\n        /* \"#utility.yul\":6528:6534   */\n      0x00\n        /* \"#utility.yul\":6536:6542   */\n      dup1\n        /* \"#utility.yul\":6585:6587   */\n      0x40\n        /* \"#utility.yul\":6573:6582   */\n      dup4\n        /* \"#utility.yul\":6564:6571   */\n      dup6\n        /* \"#utility.yul\":6560:6583   */\n      sub\n        /* \"#utility.yul\":6556:6588   */\n      slt\n        /* \"#utility.yul\":6553:6672   */\n      iszero\n      tag_527\n      jumpi\n        /* \"#utility.yul\":6591:6670   */\n      tag_528\n      tag_386\n      jump\t// in\n    tag_528:\n        /* \"#utility.yul\":6553:6672   */\n    tag_527:\n        /* \"#utility.yul\":6711:6712   */\n      0x00\n        /* \"#utility.yul\":6736:6789   */\n      tag_529\n        /* \"#utility.yul\":6781:6788   */\n      dup6\n        /* \"#utility.yul\":6772:6778   */\n      dup3\n        /* \"#utility.yul\":6761:6770   */\n      dup7\n        /* \"#utility.yul\":6757:6779   */\n      add\n        /* \"#utility.yul\":6736:6789   */\n      tag_405\n      jump\t// in\n    tag_529:\n        /* \"#utility.yul\":6726:6789   */\n      swap3\n      pop\n        /* \"#utility.yul\":6682:6799   */\n      pop\n        /* \"#utility.yul\":6838:6840   */\n      0x20\n        /* \"#utility.yul\":6864:6914   */\n      tag_530\n        /* \"#utility.yul\":6906:6913   */\n      dup6\n        /* \"#utility.yul\":6897:6903   */\n      dup3\n        /* \"#utility.yul\":6886:6895   */\n      dup7\n        /* \"#utility.yul\":6882:6904   */\n      add\n        /* \"#utility.yul\":6864:6914   */\n      tag_408\n      jump\t// in\n    tag_530:\n        /* \"#utility.yul\":6854:6914   */\n      swap2\n      pop\n        /* \"#utility.yul\":6809:6924   */\n      pop\n        /* \"#utility.yul\":6463:6931   */\n      swap3\n      pop\n      swap3\n      swap1\n      pop\n      jump\t// out\n        /* \"#utility.yul\":6937:7054   */\n    tag_409:\n        /* \"#utility.yul\":7046:7047   */\n      0x00\n        /* \"#utility.yul\":7043:7044   */\n      dup1\n        /* \"#utility.yul\":7036:7048   */\n      revert\n        /* \"#utility.yul\":7060:7177   */\n    tag_410:\n        /* \"#utility.yul\":7169:7170   */\n      0x00\n        /* \"#utility.yul\":7166:7167   */\n      dup1\n        /* \"#utility.yul\":7159:7171   */\n      revert\n        /* \"#utility.yul\":7183:7363   */\n    tag_336:\n        /* \"#utility.yul\":7231:7308   */\n      0x4e487b7100000000000000000000000000000000000000000000000000000000\n        /* \"#utility.yul\":7228:7229   */\n      0x00\n        /* \"#utility.yul\":7221:7309   */\n      mstore\n        /* \"#utility.yul\":7328:7332   */\n      0x41\n        /* \"#utility.yul\":7325:7326   */\n      0x04\n        /* \"#utility.yul\":7318:7333   */\n      mstore\n        /* \"#utility.yul\":7352:7356   */\n      0x24\n        /* \"#utility.yul\":7349:7350   */\n      0x00\n        /* \"#utility.yul\":7342:7357   */\n      revert\n        /* \"#utility.yul\":7369:7650   */\n    tag_411:\n        /* \"#utility.yul\":7452:7479   */\n      tag_535\n        /* \"#utility.yul\":7474:7478   */\n      dup3\n        /* \"#utility.yul\":7452:7479   */\n      tag_396\n      jump\t// in\n    tag_535:\n        /* \"#utility.yul\":7444:7450   */\n      dup2\n        /* \"#utility.yul\":7440:7480   */\n      add\n        /* \"#utility.yul\":7582:7588   */\n      dup2\n        /* \"#utility.yul\":7570:7580   */\n      dup2\n        /* \"#utility.yul\":7567:7589   */\n      lt\n        /* \"#utility.yul\":7546:7564   */\n      0xffffffffffffffff\n        /* \"#utility.yul\":7534:7544   */\n      dup3\n        /* \"#utility.yul\":7531:7565   */\n      gt\n        /* \"#utility.yul\":7528:7590   */\n      or\n        /* \"#utility.yul\":7525:7613   */\n      iszero\n      tag_536\n      jumpi\n        /* \"#utility.yul\":7593:7611   */\n      tag_537\n      tag_336\n      jump\t// in\n    tag_537:\n        /* \"#utility.yul\":7525:7613   */\n    tag_536:\n        /* \"#utility.yul\":7633:7643   */\n      dup1\n        /* \"#utility.yul\":7629:7631   */\n      0x40\n        /* \"#utility.yul\":7622:7644   */\n      mstore\n        /* \"#utility.yul\":7412:7650   */\n      pop\n        /* \"#utility.yul\":7369:7650   */\n      pop\n      pop\n      jump\t// out\n        /* \"#utility.yul\":7656:7785   */\n    tag_412:\n        /* \"#utility.yul\":7690:7696   */\n      0x00\n        /* \"#utility.yul\":7717:7737   */\n      tag_539\n      tag_385\n      jump\t// in\n    tag_539:\n        /* \"#utility.yul\":7707:7737   */\n      swap1\n      pop\n        /* \"#utility.yul\":7746:7779   */\n      tag_540\n        /* \"#utility.yul\":7774:7778   */\n      dup3\n        /* \"#utility.yul\":7766:7772   */\n      dup3\n        /* \"#utility.yul\":7746:7779   */\n      tag_411\n      jump\t// in\n    tag_540:\n        /* \"#utility.yul\":7656:7785   */\n      swap2\n      swap1\n      pop\n      jump\t// out\n        /* \"#utility.yul\":7791:8098   */\n    tag_413:\n        /* \"#utility.yul\":7852:7856   */\n      0x00\n        /* \"#utility.yul\":7942:7960   */\n      0xffffffffffffffff\n        /* \"#utility.yul\":7934:7940   */\n      dup3\n        /* \"#utility.yul\":7931:7961   */\n      gt\n        /* \"#utility.yul\":7928:7984   */\n      iszero\n      tag_542\n      jumpi\n        /* \"#utility.yul\":7964:7982   */\n      tag_543\n      tag_336\n      jump\t// in\n    tag_543:\n        /* \"#utility.yul\":7928:7984   */\n    tag_542:\n        /* \"#utility.yul\":8002:8031   */\n      tag_544\n        /* \"#utility.yul\":8024:8030   */\n      dup3\n        /* \"#utility.yul\":8002:8031   */\n      tag_396\n      jump\t// in\n    tag_544:\n        /* \"#utility.yul\":7994:8031   */\n      swap1\n      pop\n        /* \"#utility.yul\":8086:8090   */\n      0x20\n        /* \"#utility.yul\":8080:8084   */\n      dup2\n        /* \"#utility.yul\":8076:8091   */\n      add\n        /* \"#utility.yul\":8068:8091   */\n      swap1\n      pop\n        /* \"#utility.yul\":7791:8098   */\n      swap2\n      swap1\n      pop\n      jump\t// out\n        /* \"#utility.yul\":8104:8250   */\n    tag_414:\n        /* \"#utility.yul\":8201:8207   */\n      dup3\n        /* \"#utility.yul\":8196:8199   */\n      dup2\n        /* \"#utility.yul\":8191:8194   */\n      dup4\n        /* \"#utility.yul\":8178:8208   */\n      calldatacopy\n        /* \"#utility.yul\":8242:8243   */\n      0x00\n        /* \"#utility.yul\":8233:8239   */\n      dup4\n        /* \"#utility.yul\":8228:8231   */\n      dup4\n        /* \"#utility.yul\":8224:8240   */\n      add\n        /* \"#utility.yul\":8217:8244   */\n      mstore\n        /* \"#utility.yul\":8104:8250   */\n      pop\n      pop\n      pop\n      jump\t// out\n        /* \"#utility.yul\":8256:8679   */\n    tag_415:\n        /* \"#utility.yul\":8333:8338   */\n      0x00\n        /* \"#utility.yul\":8358:8423   */\n      tag_547\n        /* \"#utility.yul\":8374:8422   */\n      tag_548\n        /* \"#utility.yul\":8415:8421   */\n      dup5\n        /* \"#utility.yul\":8374:8422   */\n      tag_413\n      jump\t// in\n    tag_548:\n        /* \"#utility.yul\":8358:8423   */\n      tag_412\n      jump\t// in\n    tag_547:\n        /* \"#utility.yul\":8349:8423   */\n      swap1\n      pop\n        /* \"#utility.yul\":8446:8452   */\n      dup3\n        /* \"#utility.yul\":8439:8444   */\n      dup2\n        /* \"#utility.yul\":8432:8453   */\n      mstore\n        /* \"#utility.yul\":8484:8488   */\n      0x20\n        /* \"#utility.yul\":8477:8482   */\n      dup2\n        /* \"#utility.yul\":8473:8489   */\n      add\n        /* \"#utility.yul\":8522:8525   */\n      dup5\n        /* \"#utility.yul\":8513:8519   */\n      dup5\n        /* \"#utility.yul\":8508:8511   */\n      dup5\n        /* \"#utility.yul\":8504:8520   */\n      add\n        /* \"#utility.yul\":8501:8526   */\n      gt\n        /* \"#utility.yul\":8498:8610   */\n      iszero\n      tag_549\n      jumpi\n        /* \"#utility.yul\":8529:8608   */\n      tag_550\n      tag_410\n      jump\t// in\n    tag_550:\n        /* \"#utility.yul\":8498:8610   */\n    tag_549:\n        /* \"#utility.yul\":8619:8673   */\n      tag_551\n        /* \"#utility.yul\":8666:8672   */\n      dup5\n        /* \"#utility.yul\":8661:8664   */\n      dup3\n        /* \"#utility.yul\":8656:8659   */\n      dup6\n        /* \"#utility.yul\":8619:8673   */\n      tag_414\n      jump\t// in\n    tag_551:\n        /* \"#utility.yul\":8339:8679   */\n      pop\n        /* \"#utility.yul\":8256:8679   */\n      swap4\n      swap3\n      pop\n      pop\n      pop\n      jump\t// out\n        /* \"#utility.yul\":8698:9036   */\n    tag_416:\n        /* \"#utility.yul\":8753:8758   */\n      0x00\n        /* \"#utility.yul\":8802:8805   */\n      dup3\n        /* \"#utility.yul\":8795:8799   */\n      0x1f\n        /* \"#utility.yul\":8787:8793   */\n      dup4\n        /* \"#utility.yul\":8783:8800   */\n      add\n        /* \"#utility.yul\":8779:8806   */\n      slt\n        /* \"#utility.yul\":8769:8891   */\n      tag_553\n      jumpi\n        /* \"#utility.yul\":8810:8889   */\n      tag_554\n      tag_409\n      jump\t// in\n    tag_554:\n        /* \"#utility.yul\":8769:8891   */\n    tag_553:\n        /* \"#utility.yul\":8927:8933   */\n      dup2\n        /* \"#utility.yul\":8914:8934   */\n      calldataload\n        /* \"#utility.yul\":8952:9030   */\n      tag_555\n        /* \"#utility.yul\":9026:9029   */\n      dup5\n        /* \"#utility.yul\":9018:9024   */\n      dup3\n        /* \"#utility.yul\":9011:9015   */\n      0x20\n        /* \"#utility.yul\":9003:9009   */\n      dup7\n        /* \"#utility.yul\":8999:9016   */\n      add\n        /* \"#utility.yul\":8952:9030   */\n      tag_415\n      jump\t// in\n    tag_555:\n        /* \"#utility.yul\":8943:9030   */\n      swap2\n      pop\n        /* \"#utility.yul\":8759:9036   */\n      pop\n        /* \"#utility.yul\":8698:9036   */\n      swap3\n      swap2\n      pop\n      pop\n      jump\t// out\n        /* \"#utility.yul\":9042:9985   */\n    tag_94:\n        /* \"#utility.yul\":9137:9143   */\n      0x00\n        /* \"#utility.yul\":9145:9151   */\n      dup1\n        /* \"#utility.yul\":9153:9159   */\n      0x00\n        /* \"#utility.yul\":9161:9167   */\n      dup1\n        /* \"#utility.yul\":9210:9213   */\n      0x80\n        /* \"#utility.yul\":9198:9207   */\n      dup6\n        /* \"#utility.yul\":9189:9196   */\n      dup8\n        /* \"#utility.yul\":9185:9208   */\n      sub\n        /* \"#utility.yul\":9181:9214   */\n      slt\n        /* \"#utility.yul\":9178:9298   */\n      iszero\n      tag_557\n      jumpi\n        /* \"#utility.yul\":9217:9296   */\n      tag_558\n      tag_386\n      jump\t// in\n    tag_558:\n        /* \"#utility.yul\":9178:9298   */\n    tag_557:\n        /* \"#utility.yul\":9337:9338   */\n      0x00\n        /* \"#utility.yul\":9362:9415   */\n      tag_559\n        /* \"#utility.yul\":9407:9414   */\n      dup8\n        /* \"#utility.yul\":9398:9404   */\n      dup3\n        /* \"#utility.yul\":9387:9396   */\n      dup9\n        /* \"#utility.yul\":9383:9405   */\n      add\n        /* \"#utility.yul\":9362:9415   */\n      tag_405\n      jump\t// in\n    tag_559:\n        /* \"#utility.yul\":9352:9415   */\n      swap5\n      pop\n        /* \"#utility.yul\":9308:9425   */\n      pop\n        /* \"#utility.yul\":9464:9466   */\n      0x20\n        /* \"#utility.yul\":9490:9543   */\n      tag_560\n        /* \"#utility.yul\":9535:9542   */\n      dup8\n        /* \"#utility.yul\":9526:9532   */\n      dup3\n        /* \"#utility.yul\":9515:9524   */\n      dup9\n        /* \"#utility.yul\":9511:9533   */\n      add\n        /* \"#utility.yul\":9490:9543   */\n      tag_405\n      jump\t// in\n    tag_560:\n        /* \"#utility.yul\":9480:9543   */\n      swap4\n      pop\n        /* \"#utility.yul\":9435:9553   */\n      pop\n        /* \"#utility.yul\":9592:9594   */\n      0x40\n        /* \"#utility.yul\":9618:9671   */\n      tag_561\n        /* \"#utility.yul\":9663:9670   */\n      dup8\n        /* \"#utility.yul\":9654:9660   */\n      dup3\n        /* \"#utility.yul\":9643:9652   */\n      dup9\n        /* \"#utility.yul\":9639:9661   */\n      add\n        /* \"#utility.yul\":9618:9671   */\n      tag_400\n      jump\t// in\n    tag_561:\n        /* \"#utility.yul\":9608:9671   */\n      swap3\n      pop\n        /* \"#utility.yul\":9563:9681   */\n      pop\n        /* \"#utility.yul\":9748:9750   */\n      0x60\n        /* \"#utility.yul\":9737:9746   */\n      dup6\n        /* \"#utility.yul\":9733:9751   */\n      add\n        /* \"#utility.yul\":9720:9752   */\n      calldataload\n        /* \"#utility.yul\":9779:9797   */\n      0xffffffffffffffff\n        /* \"#utility.yul\":9771:9777   */\n      dup2\n        /* \"#utility.yul\":9768:9798   */\n      gt\n        /* \"#utility.yul\":9765:9882   */\n      iszero\n      tag_562\n      jumpi\n        /* \"#utility.yul\":9801:9880   */\n      tag_563\n      tag_387\n      jump\t// in\n    tag_563:\n        /* \"#utility.yul\":9765:9882   */\n    tag_562:\n        /* \"#utility.yul\":9906:9968   */\n      tag_564\n        /* \"#utility.yul\":9960:9967   */\n      dup8\n        /* \"#utility.yul\":9951:9957   */\n      dup3\n        /* \"#utility.yul\":9940:9949   */\n      dup9\n        /* \"#utility.yul\":9936:9958   */\n      add\n        /* \"#utility.yul\":9906:9968   */\n      tag_416\n      jump\t// in\n    tag_564:\n        /* \"#utility.yul\":9896:9968   */\n      swap2\n      pop\n        /* \"#utility.yul\":9691:9978   */\n      pop\n        /* \"#utility.yul\":9042:9985   */\n      swap3\n      swap6\n      swap2\n      swap5\n      pop\n      swap3\n      pop\n      jump\t// out\n        /* \"#utility.yul\":9991:10299   */\n    tag_417:\n        /* \"#utility.yul\":10053:10057   */\n      0x00\n        /* \"#utility.yul\":10143:10161   */\n      0xffffffffffffffff\n        /* \"#utility.yul\":10135:10141   */\n      dup3\n        /* \"#utility.yul\":10132:10162   */\n      gt\n        /* \"#utility.yul\":10129:10185   */\n      iszero\n      tag_566\n      jumpi\n        /* \"#utility.yul\":10165:10183   */\n      tag_567\n      tag_336\n      jump\t// in\n    tag_567:\n        /* \"#utility.yul\":10129:10185   */\n    tag_566:\n        /* \"#utility.yul\":10203:10232   */\n      tag_568\n        /* \"#utility.yul\":10225:10231   */\n      dup3\n        /* \"#utility.yul\":10203:10232   */\n      tag_396\n      jump\t// in\n    tag_568:\n        /* \"#utility.yul\":10195:10232   */\n      swap1\n      pop\n        /* \"#utility.yul\":10287:10291   */\n      0x20\n        /* \"#utility.yul\":10281:10285   */\n      dup2\n        /* \"#utility.yul\":10277:10292   */\n      add\n        /* \"#utility.yul\":10269:10292   */\n      swap1\n      pop\n        /* \"#utility.yul\":9991:10299   */\n      swap2\n      swap1\n      pop\n      jump\t// out\n        /* \"#utility.yul\":10305:10730   */\n    tag_418:\n        /* \"#utility.yul\":10383:10388   */\n      0x00\n        /* \"#utility.yul\":10408:10474   */\n      tag_570\n        /* \"#utility.yul\":10424:10473   */\n      tag_571\n        /* \"#utility.yul\":10466:10472   */\n      dup5\n        /* \"#utility.yul\":10424:10473   */\n      tag_417\n      jump\t// in\n    tag_571:\n        /* \"#utility.yul\":10408:10474   */\n      tag_412\n      jump\t// in\n    tag_570:\n        /* \"#utility.yul\":10399:10474   */\n      swap1\n      pop\n        /* \"#utility.yul\":10497:10503   */\n      dup3\n        /* \"#utility.yul\":10490:10495   */\n      dup2\n        /* \"#utility.yul\":10483:10504   */\n      mstore\n        /* \"#utility.yul\":10535:10539   */\n      0x20\n        /* \"#utility.yul\":10528:10533   */\n      dup2\n        /* \"#utility.yul\":10524:10540   */\n      add\n        /* \"#utility.yul\":10573:10576   */\n      dup5\n        /* \"#utility.yul\":10564:10570   */\n      dup5\n        /* \"#utility.yul\":10559:10562   */\n      dup5\n        /* \"#utility.yul\":10555:10571   */\n      add\n        /* \"#utility.yul\":10552:10577   */\n      gt\n        /* \"#utility.yul\":10549:10661   */\n      iszero\n      tag_572\n      jumpi\n        /* \"#utility.yul\":10580:10659   */\n      tag_573\n      tag_410\n      jump\t// in\n    tag_573:\n        /* \"#utility.yul\":10549:10661   */\n    tag_572:\n        /* \"#utility.yul\":10670:10724   */\n      tag_574\n        /* \"#utility.yul\":10717:10723   */\n      dup5\n        /* \"#utility.yul\":10712:10715   */\n      dup3\n        /* \"#utility.yul\":10707:10710   */\n      dup6\n        /* \"#utility.yul\":10670:10724   */\n      tag_414\n      jump\t// in\n    tag_574:\n        /* \"#utility.yul\":10389:10730   */\n      pop\n        /* \"#utility.yul\":10305:10730   */\n      swap4\n      swap3\n      pop\n      pop\n      pop\n      jump\t// out\n        /* \"#utility.yul\":10750:11090   */\n    tag_419:\n        /* \"#utility.yul\":10806:10811   */\n      0x00\n        /* \"#utility.yul\":10855:10858   */\n      dup3\n        /* \"#utility.yul\":10848:10852   */\n      0x1f\n        /* \"#utility.yul\":10840:10846   */\n      dup4\n        /* \"#utility.yul\":10836:10853   */\n      add\n        /* \"#utility.yul\":10832:10859   */\n      slt\n        /* \"#utility.yul\":10822:10944   */\n      tag_576\n      jumpi\n        /* \"#utility.yul\":10863:10942   */\n      tag_577\n      tag_409\n      jump\t// in\n    tag_577:\n        /* \"#utility.yul\":10822:10944   */\n    tag_576:\n        /* \"#utility.yul\":10980:10986   */\n      dup2\n        /* \"#utility.yul\":10967:10987   */\n      calldataload\n        /* \"#utility.yul\":11005:11084   */\n      tag_578\n        /* \"#utility.yul\":11080:11083   */\n      dup5\n        /* \"#utility.yul\":11072:11078   */\n      dup3\n        /* \"#utility.yul\":11065:11069   */\n      0x20\n        /* \"#utility.yul\":11057:11063   */\n      dup7\n        /* \"#utility.yul\":11053:11070   */\n      add\n        /* \"#utility.yul\":11005:11084   */\n      tag_418\n      jump\t// in\n    tag_578:\n        /* \"#utility.yul\":10996:11084   */\n      swap2\n      pop\n        /* \"#utility.yul\":10812:11090   */\n      pop\n        /* \"#utility.yul\":10750:11090   */\n      swap3\n      swap2\n      pop\n      pop\n      jump\t// out\n        /* \"#utility.yul\":11096:11750   */\n    tag_102:\n        /* \"#utility.yul\":11174:11180   */\n      0x00\n        /* \"#utility.yul\":11182:11188   */\n      dup1\n        /* \"#utility.yul\":11231:11233   */\n      0x40\n        /* \"#utility.yul\":11219:11228   */\n      dup4\n        /* \"#utility.yul\":11210:11217   */\n      dup6\n        /* \"#utility.yul\":11206:11229   */\n      sub\n        /* \"#utility.yul\":11202:11234   */\n      slt\n        /* \"#utility.yul\":11199:11318   */\n      iszero\n      tag_580\n      jumpi\n        /* \"#utility.yul\":11237:11316   */\n      tag_581\n      tag_386\n      jump\t// in\n    tag_581:\n        /* \"#utility.yul\":11199:11318   */\n    tag_580:\n        /* \"#utility.yul\":11357:11358   */\n      0x00\n        /* \"#utility.yul\":11382:11435   */\n      tag_582\n        /* \"#utility.yul\":11427:11434   */\n      dup6\n        /* \"#utility.yul\":11418:11424   */\n      dup3\n        /* \"#utility.yul\":11407:11416   */\n      dup7\n        /* \"#utility.yul\":11403:11425   */\n      add\n        /* \"#utility.yul\":11382:11435   */\n      tag_405\n      jump\t// in\n    tag_582:\n        /* \"#utility.yul\":11372:11435   */\n      swap3\n      pop\n        /* \"#utility.yul\":11328:11445   */\n      pop\n        /* \"#utility.yul\":11512:11514   */\n      0x20\n        /* \"#utility.yul\":11501:11510   */\n      dup4\n        /* \"#utility.yul\":11497:11515   */\n      add\n        /* \"#utility.yul\":11484:11516   */\n      calldataload\n        /* \"#utility.yul\":11543:11561   */\n      0xffffffffffffffff\n        /* \"#utility.yul\":11535:11541   */\n      dup2\n        /* \"#utility.yul\":11532:11562   */\n      gt\n        /* \"#utility.yul\":11529:11646   */\n      iszero\n      tag_583\n      jumpi\n        /* \"#utility.yul\":11565:11644   */\n      tag_584\n      tag_387\n      jump\t// in\n    tag_584:\n        /* \"#utility.yul\":11529:11646   */\n    tag_583:\n        /* \"#utility.yul\":11670:11733   */\n      tag_585\n        /* \"#utility.yul\":11725:11732   */\n      dup6\n        /* \"#utility.yul\":11716:11722   */\n      dup3\n        /* \"#utility.yul\":11705:11714   */\n      dup7\n        /* \"#utility.yul\":11701:11723   */\n      add\n        /* \"#utility.yul\":11670:11733   */\n      tag_419\n      jump\t// in\n    tag_585:\n        /* \"#utility.yul\":11660:11733   */\n      swap2\n      pop\n        /* \"#utility.yul\":11455:11743   */\n      pop\n        /* \"#utility.yul\":11096:11750   */\n      swap3\n      pop\n      swap3\n      swap1\n      pop\n      jump\t// out\n        /* \"#utility.yul\":11756:12230   */\n    tag_106:\n        /* \"#utility.yul\":11824:11830   */\n      0x00\n        /* \"#utility.yul\":11832:11838   */\n      dup1\n        /* \"#utility.yul\":11881:11883   */\n      0x40\n        /* \"#utility.yul\":11869:11878   */\n      dup4\n        /* \"#utility.yul\":11860:11867   */\n      dup6\n        /* \"#utility.yul\":11856:11879   */\n      sub\n        /* \"#utility.yul\":11852:11884   */\n      slt\n        /* \"#utility.yul\":11849:11968   */\n      iszero\n      tag_587\n      jumpi\n        /* \"#utility.yul\":11887:11966   */\n      tag_588\n      tag_386\n      jump\t// in\n    tag_588:\n        /* \"#utility.yul\":11849:11968   */\n    tag_587:\n        /* \"#utility.yul\":12007:12008   */\n      0x00\n        /* \"#utility.yul\":12032:12085   */\n      tag_589\n        /* \"#utility.yul\":12077:12084   */\n      dup6\n        /* \"#utility.yul\":12068:12074   */\n      dup3\n        /* \"#utility.yul\":12057:12066   */\n      dup7\n        /* \"#utility.yul\":12053:12075   */\n      add\n        /* \"#utility.yul\":12032:12085   */\n      tag_405\n      jump\t// in\n    tag_589:\n        /* \"#utility.yul\":12022:12085   */\n      swap3\n      pop\n        /* \"#utility.yul\":11978:12095   */\n      pop\n        /* \"#utility.yul\":12134:12136   */\n      0x20\n        /* \"#utility.yul\":12160:12213   */\n      tag_590\n        /* \"#utility.yul\":12205:12212   */\n      dup6\n        /* \"#utility.yul\":12196:12202   */\n      dup3\n        /* \"#utility.yul\":12185:12194   */\n      dup7\n        /* \"#utility.yul\":12181:12203   */\n      add\n        /* \"#utility.yul\":12160:12213   */\n      tag_405\n      jump\t// in\n    tag_590:\n        /* \"#utility.yul\":12150:12213   */\n      swap2\n      pop\n        /* \"#utility.yul\":12105:12223   */\n      pop\n        /* \"#utility.yul\":11756:12230   */\n      swap3\n      pop\n      swap3\n      swap1\n      pop\n      jump\t// out\n        /* \"#utility.yul\":12236:12416   */\n    tag_420:\n        /* \"#utility.yul\":12284:12361   */\n      0x4e487b7100000000000000000000000000000000000000000000000000000000\n        /* \"#utility.yul\":12281:12282   */\n      0x00\n        /* \"#utility.yul\":12274:12362   */\n      mstore\n        /* \"#utility.yul\":12381:12385   */\n      0x22\n        /* \"#utility.yul\":12378:12379   */\n      0x04\n        /* \"#utility.yul\":12371:12386   */\n      mstore\n        /* \"#utility.yul\":12405:12409   */\n      0x24\n        /* \"#utility.yul\":12402:12403   */\n      0x00\n        /* \"#utility.yul\":12395:12410   */\n      revert\n        /* \"#utility.yul\":12422:12742   */\n    tag_117:\n        /* \"#utility.yul\":12466:12472   */\n      0x00\n        /* \"#utility.yul\":12503:12504   */\n      0x02\n        /* \"#utility.yul\":12497:12501   */\n      dup3\n        /* \"#utility.yul\":12493:12505   */\n      div\n        /* \"#utility.yul\":12483:12505   */\n      swap1\n      pop\n        /* \"#utility.yul\":12550:12551   */\n      0x01\n        /* \"#utility.yul\":12544:12548   */\n      dup3\n        /* \"#utility.yul\":12540:12552   */\n      and\n        /* \"#utility.yul\":12571:12589   */\n      dup1\n        /* \"#utility.yul\":12561:12642   */\n      tag_593\n      jumpi\n        /* \"#utility.yul\":12627:12631   */\n      0x7f\n        /* \"#utility.yul\":12619:12625   */\n      dup3\n        /* \"#utility.yul\":12615:12632   */\n      and\n        /* \"#utility.yul\":12605:12632   */\n      swap2\n      pop\n        /* \"#utility.yul\":12561:12642   */\n    tag_593:\n        /* \"#utility.yul\":12689:12691   */\n      0x20\n        /* \"#utility.yul\":12681:12687   */\n      dup3\n        /* \"#utility.yul\":12678:12692   */\n      lt\n        /* \"#utility.yul\":12658:12676   */\n      dup2\n        /* \"#utility.yul\":12655:12693   */\n      sub\n        /* \"#utility.yul\":12652:12736   */\n      tag_594\n      jumpi\n        /* \"#utility.yul\":12708:12726   */\n      tag_595\n      tag_420\n      jump\t// in\n    tag_595:\n        /* \"#utility.yul\":12652:12736   */\n    tag_594:\n        /* \"#utility.yul\":12473:12742   */\n      pop\n        /* \"#utility.yul\":12422:12742   */\n      swap2\n      swap1\n      pop\n      jump\t// out\n        /* \"#utility.yul\":12748:13190   */\n    tag_140:\n        /* \"#utility.yul\":12897:12901   */\n      0x00\n        /* \"#utility.yul\":12935:12937   */\n      0x60\n        /* \"#utility.yul\":12924:12933   */\n      dup3\n        /* \"#utility.yul\":12920:12938   */\n      add\n        /* \"#utility.yul\":12912:12938   */\n      swap1\n      pop\n        /* \"#utility.yul\":12948:13019   */\n      tag_597\n        /* \"#utility.yul\":13016:13017   */\n      0x00\n        /* \"#utility.yul\":13005:13014   */\n      dup4\n        /* \"#utility.yul\":13001:13018   */\n      add\n        /* \"#utility.yul\":12992:12998   */\n      dup7\n        /* \"#utility.yul\":12948:13019   */\n      tag_403\n      jump\t// in\n    tag_597:\n        /* \"#utility.yul\":13029:13101   */\n      tag_598\n        /* \"#utility.yul\":13097:13099   */\n      0x20\n        /* \"#utility.yul\":13086:13095   */\n      dup4\n        /* \"#utility.yul\":13082:13100   */\n      add\n        /* \"#utility.yul\":13073:13079   */\n      dup6\n        /* \"#utility.yul\":13029:13101   */\n      tag_406\n      jump\t// in\n    tag_598:\n        /* \"#utility.yul\":13111:13183   */\n      tag_599\n        /* \"#utility.yul\":13179:13181   */\n      0x40\n        /* \"#utility.yul\":13168:13177   */\n      dup4\n        /* \"#utility.yul\":13164:13182   */\n      add\n        /* \"#utility.yul\":13155:13161   */\n      dup5\n        /* \"#utility.yul\":13111:13183   */\n      tag_403\n      jump\t// in\n    tag_599:\n        /* \"#utility.yul\":12748:13190   */\n      swap5\n      swap4\n      pop\n      pop\n      pop\n      pop\n      jump\t// out\n        /* \"#utility.yul\":13196:13376   */\n    tag_421:\n        /* \"#utility.yul\":13244:13321   */\n      0x4e487b7100000000000000000000000000000000000000000000000000000000\n        /* \"#utility.yul\":13241:13242   */\n      0x00\n        /* \"#utility.yul\":13234:13322   */\n      mstore\n        /* \"#utility.yul\":13341:13345   */\n      0x11\n        /* \"#utility.yul\":13338:13339   */\n      0x04\n        /* \"#utility.yul\":13331:13346   */\n      mstore\n        /* \"#utility.yul\":13365:13369   */\n      0x24\n        /* \"#utility.yul\":13362:13363   */\n      0x00\n        /* \"#utility.yul\":13355:13370   */\n      revert\n        /* \"#utility.yul\":13382:13615   */\n    tag_187:\n        /* \"#utility.yul\":13421:13424   */\n      0x00\n        /* \"#utility.yul\":13444:13468   */\n      tag_602\n        /* \"#utility.yul\":13462:13467   */\n      dup3\n        /* \"#utility.yul\":13444:13468   */\n      tag_398\n      jump\t// in\n    tag_602:\n        /* \"#utility.yul\":13435:13468   */\n      swap2\n      pop\n        /* \"#utility.yul\":13490:13556   */\n      0xffffffffffffffffffffffffffffffffffffffffffffffffffffffffffffffff\n        /* \"#utility.yul\":13483:13488   */\n      dup3\n        /* \"#utility.yul\":13480:13557   */\n      sub\n        /* \"#utility.yul\":13477:13580   */\n      tag_603\n      jumpi\n        /* \"#utility.yul\":13560:13578   */\n      tag_604\n      tag_421\n      jump\t// in\n    tag_604:\n        /* \"#utility.yul\":13477:13580   */\n    tag_603:\n        /* \"#utility.yul\":13607:13608   */\n      0x01\n        /* \"#utility.yul\":13600:13605   */\n      dup3\n        /* \"#utility.yul\":13596:13609   */\n      add\n        /* \"#utility.yul\":13589:13609   */\n      swap1\n      pop\n        /* \"#utility.yul\":13382:13615   */\n      swap2\n      swap1\n      pop\n      jump\t// out\n        /* \"#utility.yul\":13621:13846   */\n    tag_422:\n        /* \"#utility.yul\":13761:13795   */\n      0x4f776e61626c653a206e6577206f776e657220697320746865207a65726f2061\n        /* \"#utility.yul\":13757:13758   */\n      0x00\n        /* \"#utility.yul\":13749:13755   */\n      dup3\n        /* \"#utility.yul\":13745:13759   */\n      add\n        /* \"#utility.yul\":13738:13796   */\n      mstore\n        /* \"#utility.yul\":13830:13838   */\n      0x6464726573730000000000000000000000000000000000000000000000000000\n        /* \"#utility.yul\":13825:13827   */\n      0x20\n        /* \"#utility.yul\":13817:13823   */\n      dup3\n        /* \"#utility.yul\":13813:13828   */\n      add\n        /* \"#utility.yul\":13806:13839   */\n      mstore\n        /* \"#utility.yul\":13621:13846   */\n      pop\n      jump\t// out\n        /* \"#utility.yul\":13852:14218   */\n    tag_423:\n        /* \"#utility.yul\":13994:13997   */\n      0x00\n        /* \"#utility.yul\":14015:14082   */\n      tag_607\n        /* \"#utility.yul\":14079:14081   */\n      0x26\n        /* \"#utility.yul\":14074:14077   */\n      dup4\n        /* \"#utility.yul\":14015:14082   */\n      tag_394\n      jump\t// in\n    tag_607:\n        /* \"#utility.yul\":14008:14082   */\n      swap2\n      pop\n        /* \"#utility.yul\":14091:14184   */\n      tag_608\n        /* \"#utility.yul\":14180:14183   */\n      dup3\n        /* \"#utility.yul\":14091:14184   */\n      tag_422\n      jump\t// in\n    tag_608:\n        /* \"#utility.yul\":14209:14211   */\n      0x40\n        /* \"#utility.yul\":14204:14207   */\n      dup3\n        /* \"#utility.yul\":14200:14212   */\n      add\n        /* \"#utility.yul\":14193:14212   */\n      swap1\n      pop\n        /* \"#utility.yul\":13852:14218   */\n      swap2\n      swap1\n      pop\n      jump\t// out\n        /* \"#utility.yul\":14224:14643   */\n    tag_198:\n        /* \"#utility.yul\":14390:14394   */\n      0x00\n        /* \"#utility.yul\":14428:14430   */\n      0x20\n        /* \"#utility.yul\":14417:14426   */\n      dup3\n        /* \"#utility.yul\":14413:14431   */\n      add\n        /* \"#utility.yul\":14405:14431   */\n      swap1\n      pop\n        /* \"#utility.yul\":14477:14486   */\n      dup2\n        /* \"#utility.yul\":14471:14475   */\n      dup2\n        /* \"#utility.yul\":14467:14487   */\n      sub\n        /* \"#utility.yul\":14463:14464   */\n      0x00\n        /* \"#utility.yul\":14452:14461   */\n      dup4\n        /* \"#utility.yul\":14448:14465   */\n      add\n        /* \"#utility.yul\":14441:14488   */\n      mstore\n        /* \"#utility.yul\":14505:14636   */\n      tag_610\n        /* \"#utility.yul\":14631:14635   */\n      dup2\n        /* \"#utility.yul\":14505:14636   */\n      tag_423\n      jump\t// in\n    tag_610:\n        /* \"#utility.yul\":14497:14636   */\n      swap1\n      pop\n        /* \"#utility.yul\":14224:14643   */\n      swap2\n      swap1\n      pop\n      jump\t// out\n        /* \"#utility.yul\":14649:14831   */\n    tag_424:\n        /* \"#utility.yul\":14789:14823   */\n      0x4f776e61626c653a2063616c6c6572206973206e6f7420746865206f776e6572\n        /* \"#utility.yul\":14785:14786   */\n      0x00\n        /* \"#utility.yul\":14777:14783   */\n      dup3\n        /* \"#utility.yul\":14773:14787   */\n      add\n        /* \"#utility.yul\":14766:14824   */\n      mstore\n        /* \"#utility.yul\":14649:14831   */\n      pop\n      jump\t// out\n        /* \"#utility.yul\":14837:15203   */\n    tag_425:\n        /* \"#utility.yul\":14979:14982   */\n      0x00\n        /* \"#utility.yul\":15000:15067   */\n      tag_613\n        /* \"#utility.yul\":15064:15066   */\n      0x20\n        /* \"#utility.yul\":15059:15062   */\n      dup4\n        /* \"#utility.yul\":15000:15067   */\n      tag_394\n      jump\t// in\n    tag_613:\n        /* \"#utility.yul\":14993:15067   */\n      swap2\n      pop\n        /* \"#utility.yul\":15076:15169   */\n      tag_614\n        /* \"#utility.yul\":15165:15168   */\n      dup3\n        /* \"#utility.yul\":15076:15169   */\n      tag_424\n      jump\t// in\n    tag_614:\n        /* \"#utility.yul\":15194:15196   */\n      0x20\n        /* \"#utility.yul\":15189:15192   */\n      dup3\n        /* \"#utility.yul\":15185:15197   */\n      add\n        /* \"#utility.yul\":15178:15197   */\n      swap1\n      pop\n        /* \"#utility.yul\":14837:15203   */\n      swap2\n      swap1\n      pop\n      jump\t// out\n        /* \"#utility.yul\":15209:15628   */\n    tag_222:\n        /* \"#utility.yul\":15375:15379   */\n      0x00\n        /* \"#utility.yul\":15413:15415   */\n      0x20\n        /* \"#utility.yul\":15402:15411   */\n      dup3\n        /* \"#utility.yul\":15398:15416   */\n      add\n        /* \"#utility.yul\":15390:15416   */\n      swap1\n      pop\n        /* \"#utility.yul\":15462:15471   */\n      dup2\n        /* \"#utility.yul\":15456:15460   */\n      dup2\n        /* \"#utility.yul\":15452:15472   */\n      sub\n        /* \"#utility.yul\":15448:15449   */\n      0x00\n        /* \"#utility.yul\":15437:15446   */\n      dup4\n        /* \"#utility.yul\":15433:15450   */\n      add\n        /* \"#utility.yul\":15426:15473   */\n      mstore\n        /* \"#utility.yul\":15490:15621   */\n      tag_616\n        /* \"#utility.yul\":15616:15620   */\n      dup2\n        /* \"#utility.yul\":15490:15621   */\n      tag_425\n      jump\t// in\n    tag_616:\n        /* \"#utility.yul\":15482:15621   */\n      swap1\n      pop\n        /* \"#utility.yul\":15209:15628   */\n      swap2\n      swap1\n      pop\n      jump\t// out\n        /* \"#utility.yul\":15634:15732   */\n    tag_426:\n        /* \"#utility.yul\":15685:15691   */\n      0x00\n        /* \"#utility.yul\":15719:15724   */\n      dup2\n        /* \"#utility.yul\":15713:15725   */\n      mload\n        /* \"#utility.yul\":15703:15725   */\n      swap1\n      pop\n        /* \"#utility.yul\":15634:15732   */\n      swap2\n      swap1\n      pop\n      jump\t// out\n        /* \"#utility.yul\":15738:15906   */\n    tag_427:\n        /* \"#utility.yul\":15821:15832   */\n      0x00\n        /* \"#utility.yul\":15855:15861   */\n      dup3\n        /* \"#utility.yul\":15850:15853   */\n      dup3\n        /* \"#utility.yul\":15843:15862   */\n      mstore\n        /* \"#utility.yul\":15895:15899   */\n      0x20\n        /* \"#utility.yul\":15890:15893   */\n      dup3\n        /* \"#utility.yul\":15886:15900   */\n      add\n        /* \"#utility.yul\":15871:15900   */\n      swap1\n      pop\n        /* \"#utility.yul\":15738:15906   */\n      swap3\n      swap2\n      pop\n      pop\n      jump\t// out\n        /* \"#utility.yul\":15912:16285   */\n    tag_428:\n        /* \"#utility.yul\":15998:16001   */\n      0x00\n        /* \"#utility.yul\":16026:16064   */\n      tag_620\n        /* \"#utility.yul\":16058:16063   */\n      dup3\n        /* \"#utility.yul\":16026:16064   */\n      tag_426\n      jump\t// in\n    tag_620:\n        /* \"#utility.yul\":16080:16150   */\n      tag_621\n        /* \"#utility.yul\":16143:16149   */\n      dup2\n        /* \"#utility.yul\":16138:16141   */\n      dup6\n        /* \"#utility.yul\":16080:16150   */\n      tag_427\n      jump\t// in\n    tag_621:\n        /* \"#utility.yul\":16073:16150   */\n      swap4\n      pop\n        /* \"#utility.yul\":16159:16224   */\n      tag_622\n        /* \"#utility.yul\":16217:16223   */\n      dup2\n        /* \"#utility.yul\":16212:16215   */\n      dup6\n        /* \"#utility.yul\":16205:16209   */\n      0x20\n        /* \"#utility.yul\":16198:16203   */\n      dup7\n        /* \"#utility.yul\":16194:16210   */\n      add\n        /* \"#utility.yul\":16159:16224   */\n      tag_395\n      jump\t// in\n    tag_622:\n        /* \"#utility.yul\":16249:16278   */\n      tag_623\n        /* \"#utility.yul\":16271:16277   */\n      dup2\n        /* \"#utility.yul\":16249:16278   */\n      tag_396\n      jump\t// in\n    tag_623:\n        /* \"#utility.yul\":16244:16247   */\n      dup5\n        /* \"#utility.yul\":16240:16279   */\n      add\n        /* \"#utility.yul\":16233:16279   */\n      swap2\n      pop\n        /* \"#utility.yul\":16002:16285   */\n      pop\n        /* \"#utility.yul\":15912:16285   */\n      swap3\n      swap2\n      pop\n      pop\n      jump\t// out\n        /* \"#utility.yul\":16291:16931   */\n    tag_244:\n        /* \"#utility.yul\":16486:16490   */\n      0x00\n        /* \"#utility.yul\":16524:16527   */\n      0x80\n        /* \"#utility.yul\":16513:16522   */\n      dup3\n        /* \"#utility.yul\":16509:16528   */\n      add\n        /* \"#utility.yul\":16501:16528   */\n      swap1\n      pop\n        /* \"#utility.yul\":16538:16609   */\n      tag_625\n        /* \"#utility.yul\":16606:16607   */\n      0x00\n        /* \"#utility.yul\":16595:16604   */\n      dup4\n        /* \"#utility.yul\":16591:16608   */\n      add\n        /* \"#utility.yul\":16582:16588   */\n      dup8\n        /* \"#utility.yul\":16538:16609   */\n      tag_403\n      jump\t// in\n    tag_625:\n        /* \"#utility.yul\":16619:16691   */\n      tag_626\n        /* \"#utility.yul\":16687:16689   */\n      0x20\n        /* \"#utility.yul\":16676:16685   */\n      dup4\n        /* \"#utility.yul\":16672:16690   */\n      add\n        /* \"#utility.yul\":16663:16669   */\n      dup7\n        /* \"#utility.yul\":16619:16691   */\n      tag_403\n      jump\t// in\n    tag_626:\n        /* \"#utility.yul\":16701:16773   */\n      tag_627\n        /* \"#utility.yul\":16769:16771   */\n      0x40\n        /* \"#utility.yul\":16758:16767   */\n      dup4\n        /* \"#utility.yul\":16754:16772   */\n      add\n        /* \"#utility.yul\":16745:16751   */\n      dup6\n        /* \"#utility.yul\":16701:16773   */\n      tag_406\n      jump\t// in\n    tag_627:\n        /* \"#utility.yul\":16820:16829   */\n      dup2\n        /* \"#utility.yul\":16814:16818   */\n      dup2\n        /* \"#utility.yul\":16810:16830   */\n      sub\n        /* \"#utility.yul\":16805:16807   */\n      0x60\n        /* \"#utility.yul\":16794:16803   */\n      dup4\n        /* \"#utility.yul\":16790:16808   */\n      add\n        /* \"#utility.yul\":16783:16831   */\n      mstore\n        /* \"#utility.yul\":16848:16924   */\n      tag_628\n        /* \"#utility.yul\":16919:16923   */\n      dup2\n        /* \"#utility.yul\":16910:16916   */\n      dup5\n        /* \"#utility.yul\":16848:16924   */\n      tag_428\n      jump\t// in\n    tag_628:\n        /* \"#utility.yul\":16840:16924   */\n      swap1\n      pop\n        /* \"#utility.yul\":16291:16931   */\n      swap6\n      swap5\n      pop\n      pop\n      pop\n      pop\n      pop\n      jump\t// out\n        /* \"#utility.yul\":16937:17078   */\n    tag_429:\n        /* \"#utility.yul\":16993:16998   */\n      0x00\n        /* \"#utility.yul\":17024:17030   */\n      dup2\n        /* \"#utility.yul\":17018:17031   */\n      mload\n        /* \"#utility.yul\":17009:17031   */\n      swap1\n      pop\n        /* \"#utility.yul\":17040:17072   */\n      tag_630\n        /* \"#utility.yul\":17066:17071   */\n      dup2\n        /* \"#utility.yul\":17040:17072   */\n      tag_389\n      jump\t// in\n    tag_630:\n        /* \"#utility.yul\":16937:17078   */\n      swap3\n      swap2\n      pop\n      pop\n      jump\t// out\n        /* \"#utility.yul\":17084:17433   */\n    tag_247:\n        /* \"#utility.yul\":17153:17159   */\n      0x00\n        /* \"#utility.yul\":17202:17204   */\n      0x20\n        /* \"#utility.yul\":17190:17199   */\n      dup3\n        /* \"#utility.yul\":17181:17188   */\n      dup5\n        /* \"#utility.yul\":17177:17200   */\n      sub\n        /* \"#utility.yul\":17173:17205   */\n      slt\n        /* \"#utility.yul\":17170:17289   */\n      iszero\n      tag_632\n      jumpi\n        /* \"#utility.yul\":17208:17287   */\n      tag_633\n      tag_386\n      jump\t// in\n    tag_633:\n        /* \"#utility.yul\":17170:17289   */\n    tag_632:\n        /* \"#utility.yul\":17328:17329   */\n      0x00\n        /* \"#utility.yul\":17353:17416   */\n      tag_634\n        /* \"#utility.yul\":17408:17415   */\n      dup5\n        /* \"#utility.yul\":17399:17405   */\n      dup3\n        /* \"#utility.yul\":17388:17397   */\n      dup6\n        /* \"#utility.yul\":17384:17406   */\n      add\n        /* \"#utility.yul\":17353:17416   */\n      tag_429\n      jump\t// in\n    tag_634:\n        /* \"#utility.yul\":17343:17416   */\n      swap2\n      pop\n        /* \"#utility.yul\":17299:17426   */\n      pop\n        /* \"#utility.yul\":17084:17433   */\n      swap3\n      swap2\n      pop\n      pop\n      jump\t// out\n        /* \"#utility.yul\":17439:17587   */\n    tag_430:\n        /* \"#utility.yul\":17541:17552   */\n      0x00\n        /* \"#utility.yul\":17578:17581   */\n      dup2\n        /* \"#utility.yul\":17563:17581   */\n      swap1\n      pop\n        /* \"#utility.yul\":17439:17587   */\n      swap3\n      swap2\n      pop\n      pop\n      jump\t// out\n        /* \"#utility.yul\":17593:17983   */\n    tag_431:\n        /* \"#utility.yul\":17699:17702   */\n      0x00\n        /* \"#utility.yul\":17727:17766   */\n      tag_637\n        /* \"#utility.yul\":17760:17765   */\n      dup3\n        /* \"#utility.yul\":17727:17766   */\n      tag_393\n      jump\t// in\n    tag_637:\n        /* \"#utility.yul\":17782:17871   */\n      tag_638\n        /* \"#utility.yul\":17864:17870   */\n      dup2\n        /* \"#utility.yul\":17859:17862   */\n      dup6\n        /* \"#utility.yul\":17782:17871   */\n      tag_430\n      jump\t// in\n    tag_638:\n        /* \"#utility.yul\":17775:17871   */\n      swap4\n      pop\n        /* \"#utility.yul\":17880:17945   */\n      tag_639\n        /* \"#utility.yul\":17938:17944   */\n      dup2\n        /* \"#utility.yul\":17933:17936   */\n      dup6\n        /* \"#utility.yul\":17926:17930   */\n      0x20\n        /* \"#utility.yul\":17919:17924   */\n      dup7\n        /* \"#utility.yul\":17915:17931   */\n      add\n        /* \"#utility.yul\":17880:17945   */\n      tag_395\n      jump\t// in\n    tag_639:\n        /* \"#utility.yul\":17970:17976   */\n      dup1\n        /* \"#utility.yul\":17965:17968   */\n      dup5\n        /* \"#utility.yul\":17961:17977   */\n      add\n        /* \"#utility.yul\":17954:17977   */\n      swap2\n      pop\n        /* \"#utility.yul\":17703:17983   */\n      pop\n        /* \"#utility.yul\":17593:17983   */\n      swap3\n      swap2\n      pop\n      pop\n      jump\t// out\n        /* \"#utility.yul\":17989:18424   */\n    tag_272:\n        /* \"#utility.yul\":18169:18172   */\n      0x00\n        /* \"#utility.yul\":18191:18286   */\n      tag_641\n        /* \"#utility.yul\":18282:18285   */\n      dup3\n        /* \"#utility.yul\":18273:18279   */\n      dup6\n        /* \"#utility.yul\":18191:18286   */\n      tag_431\n      jump\t// in\n    tag_641:\n        /* \"#utility.yul\":18184:18286   */\n      swap2\n      pop\n        /* \"#utility.yul\":18303:18398   */\n      tag_642\n        /* \"#utility.yul\":18394:18397   */\n      dup3\n        /* \"#utility.yul\":18385:18391   */\n      dup5\n        /* \"#utility.yul\":18303:18398   */\n      tag_431\n      jump\t// in\n    tag_642:\n        /* \"#utility.yul\":18296:18398   */\n      swap2\n      pop\n        /* \"#utility.yul\":18415:18418   */\n      dup2\n        /* \"#utility.yul\":18408:18418   */\n      swap1\n      pop\n        /* \"#utility.yul\":17989:18424   */\n      swap4\n      swap3\n      pop\n      pop\n      pop\n      jump\t// out\n        /* \"#utility.yul\":18430:18571   */\n    tag_432:\n        /* \"#utility.yul\":18479:18483   */\n      0x00\n        /* \"#utility.yul\":18502:18505   */\n      dup2\n        /* \"#utility.yul\":18494:18505   */\n      swap1\n      pop\n        /* \"#utility.yul\":18525:18528   */\n      dup2\n        /* \"#utility.yul\":18522:18523   */\n      0x00\n        /* \"#utility.yul\":18515:18529   */\n      mstore\n        /* \"#utility.yul\":18559:18563   */\n      0x20\n        /* \"#utility.yul\":18556:18557   */\n      0x00\n        /* \"#utility.yul\":18546:18564   */\n      keccak256\n        /* \"#utility.yul\":18538:18564   */\n      swap1\n      pop\n        /* \"#utility.yul\":18430:18571   */\n      swap2\n      swap1\n      pop\n      jump\t// out\n        /* \"#utility.yul\":18577:18670   */\n    tag_433:\n        /* \"#utility.yul\":18614:18620   */\n      0x00\n        /* \"#utility.yul\":18661:18663   */\n      0x20\n        /* \"#utility.yul\":18656:18658   */\n      0x1f\n        /* \"#utility.yul\":18649:18654   */\n      dup4\n        /* \"#utility.yul\":18645:18659   */\n      add\n        /* \"#utility.yul\":18641:18664   */\n      div\n        /* \"#utility.yul\":18631:18664   */\n      swap1\n      pop\n        /* \"#utility.yul\":18577:18670   */\n      swap2\n      swap1\n      pop\n      jump\t// out\n        /* \"#utility.yul\":18676:18783   */\n    tag_434:\n        /* \"#utility.yul\":18720:18728   */\n      0x00\n        /* \"#utility.yul\":18770:18775   */\n      dup3\n        /* \"#utility.yul\":18764:18768   */\n      dup3\n        /* \"#utility.yul\":18760:18776   */\n      shl\n        /* \"#utility.yul\":18739:18776   */\n      swap1\n      pop\n        /* \"#utility.yul\":18676:18783   */\n      swap3\n      swap2\n      pop\n      pop\n      jump\t// out\n        /* \"#utility.yul\":18789:19182   */\n    tag_435:\n        /* \"#utility.yul\":18858:18864   */\n      0x00\n        /* \"#utility.yul\":18908:18909   */\n      0x08\n        /* \"#utility.yul\":18896:18906   */\n      dup4\n        /* \"#utility.yul\":18892:18910   */\n      mul\n        /* \"#utility.yul\":18931:19028   */\n      tag_647\n        /* \"#utility.yul\":18961:19027   */\n      0xffffffffffffffffffffffffffffffffffffffffffffffffffffffffffffffff\n        /* \"#utility.yul\":18950:18959   */\n      dup3\n        /* \"#utility.yul\":18931:19028   */\n      tag_434\n      jump\t// in\n    tag_647:\n        /* \"#utility.yul\":19049:19088   */\n      tag_648\n        /* \"#utility.yul\":19079:19087   */\n      dup7\n        /* \"#utility.yul\":19068:19077   */\n      dup4\n        /* \"#utility.yul\":19049:19088   */\n      tag_434\n      jump\t// in\n    tag_648:\n        /* \"#utility.yul\":19037:19088   */\n      swap6\n      pop\n        /* \"#utility.yul\":19121:19125   */\n      dup1\n        /* \"#utility.yul\":19117:19126   */\n      not\n        /* \"#utility.yul\":19110:19115   */\n      dup5\n        /* \"#utility.yul\":19106:19127   */\n      and\n        /* \"#utility.yul\":19097:19127   */\n      swap4\n      pop\n        /* \"#utility.yul\":19170:19174   */\n      dup1\n        /* \"#utility.yul\":19160:19168   */\n      dup7\n        /* \"#utility.yul\":19156:19175   */\n      and\n        /* \"#utility.yul\":19149:19154   */\n      dup5\n        /* \"#utility.yul\":19146:19176   */\n      or\n        /* \"#utility.yul\":19136:19176   */\n      swap3\n      pop\n        /* \"#utility.yul\":18865:19182   */\n      pop\n      pop\n        /* \"#utility.yul\":18789:19182   */\n      swap4\n      swap3\n      pop\n      pop\n      pop\n      jump\t// out\n        /* \"#utility.yul\":19188:19248   */\n    tag_436:\n        /* \"#utility.yul\":19216:19219   */\n      0x00\n        /* \"#utility.yul\":19237:19242   */\n      dup2\n        /* \"#utility.yul\":19230:19242   */\n      swap1\n      pop\n        /* \"#utility.yul\":19188:19248   */\n      swap2\n      swap1\n      pop\n      jump\t// out\n        /* \"#utility.yul\":19254:19396   */\n    tag_437:\n        /* \"#utility.yul\":19304:19313   */\n      0x00\n        /* \"#utility.yul\":19337:19390   */\n      tag_651\n        /* \"#utility.yul\":19355:19389   */\n      tag_652\n        /* \"#utility.yul\":19364:19388   */\n      tag_653\n        /* \"#utility.yul\":19382:19387   */\n      dup5\n        /* \"#utility.yul\":19364:19388   */\n      tag_398\n      jump\t// in\n    tag_653:\n        /* \"#utility.yul\":19355:19389   */\n      tag_436\n      jump\t// in\n    tag_652:\n        /* \"#utility.yul\":19337:19390   */\n      tag_398\n      jump\t// in\n    tag_651:\n        /* \"#utility.yul\":19324:19390   */\n      swap1\n      pop\n        /* \"#utility.yul\":19254:19396   */\n      swap2\n      swap1\n      pop\n      jump\t// out\n        /* \"#utility.yul\":19402:19477   */\n    tag_438:\n        /* \"#utility.yul\":19445:19448   */\n      0x00\n        /* \"#utility.yul\":19466:19471   */\n      dup2\n        /* \"#utility.yul\":19459:19471   */\n      swap1\n      pop\n        /* \"#utility.yul\":19402:19477   */\n      swap2\n      swap1\n      pop\n      jump\t// out\n        /* \"#utility.yul\":19483:19752   */\n    tag_439:\n        /* \"#utility.yul\":19593:19632   */\n      tag_656\n        /* \"#utility.yul\":19624:19631   */\n      dup4\n        /* \"#utility.yul\":19593:19632   */\n      tag_437\n      jump\t// in\n    tag_656:\n        /* \"#utility.yul\":19654:19745   */\n      tag_657\n        /* \"#utility.yul\":19703:19744   */\n      tag_658\n        /* \"#utility.yul\":19727:19743   */\n      dup3\n        /* \"#utility.yul\":19703:19744   */\n      tag_438\n      jump\t// in\n    tag_658:\n        /* \"#utility.yul\":19695:19701   */\n      dup5\n        /* \"#utility.yul\":19688:19692   */\n      dup5\n        /* \"#utility.yul\":19682:19693   */\n      sload\n        /* \"#utility.yul\":19654:19745   */\n      tag_435\n      jump\t// in\n    tag_657:\n        /* \"#utility.yul\":19648:19652   */\n      dup3\n        /* \"#utility.yul\":19641:19746   */\n      sstore\n        /* \"#utility.yul\":19559:19752   */\n      pop\n        /* \"#utility.yul\":19483:19752   */\n      pop\n      pop\n      pop\n      jump\t// out\n        /* \"#utility.yul\":19758:19831   */\n    tag_440:\n        /* \"#utility.yul\":19803:19806   */\n      0x00\n        /* \"#utility.yul\":19758:19831   */\n      swap1\n      jump\t// out\n        /* \"#utility.yul\":19837:20026   */\n    tag_441:\n        /* \"#utility.yul\":19914:19946   */\n      tag_661\n      tag_440\n      jump\t// in\n    tag_661:\n        /* \"#utility.yul\":19955:20020   */\n      tag_662\n        /* \"#utility.yul\":20013:20019   */\n      dup2\n        /* \"#utility.yul\":20005:20011   */\n      dup5\n        /* \"#utility.yul\":19999:20003   */\n      dup5\n        /* \"#utility.yul\":19955:20020   */\n      tag_439\n      jump\t// in\n    tag_662:\n        /* \"#utility.yul\":19890:20026   */\n      pop\n        /* \"#utility.yul\":19837:20026   */\n      pop\n      pop\n      jump\t// out\n        /* \"#utility.yul\":20032:20218   */\n    tag_442:\n        /* \"#utility.yul\":20092:20212   */\n    tag_664:\n        /* \"#utility.yul\":20109:20112   */\n      dup2\n        /* \"#utility.yul\":20102:20107   */\n      dup2\n        /* \"#utility.yul\":20099:20113   */\n      lt\n        /* \"#utility.yul\":20092:20212   */\n      iszero\n      tag_666\n      jumpi\n        /* \"#utility.yul\":20163:20202   */\n      tag_667\n        /* \"#utility.yul\":20200:20201   */\n      0x00\n        /* \"#utility.yul\":20193:20198   */\n      dup3\n        /* \"#utility.yul\":20163:20202   */\n      tag_441\n      jump\t// in\n    tag_667:\n        /* \"#utility.yul\":20136:20137   */\n      0x01\n        /* \"#utility.yul\":20129:20134   */\n      dup2\n        /* \"#utility.yul\":20125:20138   */\n      add\n        /* \"#utility.yul\":20116:20138   */\n      swap1\n      pop\n        /* \"#utility.yul\":20092:20212   */\n      jump(tag_664)\n    tag_666:\n        /* \"#utility.yul\":20032:20218   */\n      pop\n      pop\n      jump\t// out\n        /* \"#utility.yul\":20224:20767   */\n    tag_443:\n        /* \"#utility.yul\":20325:20327   */\n      0x1f\n        /* \"#utility.yul\":20320:20323   */\n      dup3\n        /* \"#utility.yul\":20317:20328   */\n      gt\n        /* \"#utility.yul\":20314:20760   */\n      iszero\n      tag_669\n      jumpi\n        /* \"#utility.yul\":20359:20397   */\n      tag_670\n        /* \"#utility.yul\":20391:20396   */\n      dup2\n        /* \"#utility.yul\":20359:20397   */\n      tag_432\n      jump\t// in\n    tag_670:\n        /* \"#utility.yul\":20443:20472   */\n      tag_671\n        /* \"#utility.yul\":20461:20471   */\n      dup5\n        /* \"#utility.yul\":20443:20472   */\n      tag_433\n      jump\t// in\n    tag_671:\n        /* \"#utility.yul\":20433:20441   */\n      dup2\n        /* \"#utility.yul\":20429:20473   */\n      add\n        /* \"#utility.yul\":20626:20628   */\n      0x20\n        /* \"#utility.yul\":20614:20624   */\n      dup6\n        /* \"#utility.yul\":20611:20629   */\n      lt\n        /* \"#utility.yul\":20608:20657   */\n      iszero\n      tag_672\n      jumpi\n        /* \"#utility.yul\":20647:20655   */\n      dup2\n        /* \"#utility.yul\":20632:20655   */\n      swap1\n      pop\n        /* \"#utility.yul\":20608:20657   */\n    tag_672:\n        /* \"#utility.yul\":20670:20750   */\n      tag_673\n        /* \"#utility.yul\":20726:20748   */\n      tag_674\n        /* \"#utility.yul\":20744:20747   */\n      dup6\n        /* \"#utility.yul\":20726:20748   */\n      tag_433\n      jump\t// in\n    tag_674:\n        /* \"#utility.yul\":20716:20724   */\n      dup4\n        /* \"#utility.yul\":20712:20749   */\n      add\n        /* \"#utility.yul\":20699:20710   */\n      dup3\n        /* \"#utility.yul\":20670:20750   */\n      tag_442\n      jump\t// in\n    tag_673:\n        /* \"#utility.yul\":20329:20760   */\n      pop\n      pop\n        /* \"#utility.yul\":20314:20760   */\n    tag_669:\n        /* \"#utility.yul\":20224:20767   */\n      pop\n      pop\n      pop\n      jump\t// out\n        /* \"#utility.yul\":20773:20890   */\n    tag_444:\n        /* \"#utility.yul\":20827:20835   */\n      0x00\n        /* \"#utility.yul\":20877:20882   */\n      dup3\n        /* \"#utility.yul\":20871:20875   */\n      dup3\n        /* \"#utility.yul\":20867:20883   */\n      shr\n        /* \"#utility.yul\":20846:20883   */\n      swap1\n      pop\n        /* \"#utility.yul\":20773:20890   */\n      swap3\n      swap2\n      pop\n      pop\n      jump\t// out\n        /* \"#utility.yul\":20896:21065   */\n    tag_445:\n        /* \"#utility.yul\":20940:20946   */\n      0x00\n        /* \"#utility.yul\":20973:21024   */\n      tag_677\n        /* \"#utility.yul\":21021:21022   */\n      0x00\n        /* \"#utility.yul\":21017:21023   */\n      not\n        /* \"#utility.yul\":21009:21014   */\n      dup5\n        /* \"#utility.yul\":21006:21007   */\n      0x08\n        /* \"#utility.yul\":21002:21015   */\n      mul\n        /* \"#utility.yul\":20973:21024   */\n      tag_444\n      jump\t// in\n    tag_677:\n        /* \"#utility.yul\":20969:21025   */\n      not\n        /* \"#utility.yul\":21054:21058   */\n      dup1\n        /* \"#utility.yul\":21048:21052   */\n      dup4\n        /* \"#utility.yul\":21044:21059   */\n      and\n        /* \"#utility.yul\":21034:21059   */\n      swap2\n      pop\n        /* \"#utility.yul\":20947:21065   */\n      pop\n        /* \"#utility.yul\":20896:21065   */\n      swap3\n      swap2\n      pop\n      pop\n      jump\t// out\n        /* \"#utility.yul\":21070:21365   */\n    tag_446:\n        /* \"#utility.yul\":21146:21150   */\n      0x00\n        /* \"#utility.yul\":21292:21321   */\n      tag_679\n        /* \"#utility.yul\":21317:21320   */\n      dup4\n        /* \"#utility.yul\":21311:21315   */\n      dup4\n        /* \"#utility.yul\":21292:21321   */\n      tag_445\n      jump\t// in\n    tag_679:\n        /* \"#utility.yul\":21284:21321   */\n      swap2\n      pop\n        /* \"#utility.yul\":21354:21357   */\n      dup3\n        /* \"#utility.yul\":21351:21352   */\n      0x02\n        /* \"#utility.yul\":21347:21358   */\n      mul\n        /* \"#utility.yul\":21341:21345   */\n      dup3\n        /* \"#utility.yul\":21338:21359   */\n      or\n        /* \"#utility.yul\":21330:21359   */\n      swap1\n      pop\n        /* \"#utility.yul\":21070:21365   */\n      swap3\n      swap2\n      pop\n      pop\n      jump\t// out\n        /* \"#utility.yul\":21370:22765   */\n    tag_280:\n        /* \"#utility.yul\":21487:21524   */\n      tag_681\n        /* \"#utility.yul\":21520:21523   */\n      dup3\n        /* \"#utility.yul\":21487:21524   */\n      tag_393\n      jump\t// in\n    tag_681:\n        /* \"#utility.yul\":21589:21607   */\n      0xffffffffffffffff\n        /* \"#utility.yul\":21581:21587   */\n      dup2\n        /* \"#utility.yul\":21578:21608   */\n      gt\n        /* \"#utility.yul\":21575:21631   */\n      iszero\n      tag_682\n      jumpi\n        /* \"#utility.yul\":21611:21629   */\n      tag_683\n      tag_336\n      jump\t// in\n    tag_683:\n        /* \"#utility.yul\":21575:21631   */\n    tag_682:\n        /* \"#utility.yul\":21655:21693   */\n      tag_684\n        /* \"#utility.yul\":21687:21691   */\n      dup3\n        /* \"#utility.yul\":21681:21692   */\n      sload\n        /* \"#utility.yul\":21655:21693   */\n      tag_117\n      jump\t// in\n    tag_684:\n        /* \"#utility.yul\":21740:21807   */\n      tag_685\n        /* \"#utility.yul\":21800:21806   */\n      dup3\n        /* \"#utility.yul\":21792:21798   */\n      dup3\n        /* \"#utility.yul\":21786:21790   */\n      dup6\n        /* \"#utility.yul\":21740:21807   */\n      tag_443\n      jump\t// in\n    tag_685:\n        /* \"#utility.yul\":21834:21835   */\n      0x00\n        /* \"#utility.yul\":21858:21862   */\n      0x20\n        /* \"#utility.yul\":21845:21862   */\n      swap1\n      pop\n        /* \"#utility.yul\":21890:21892   */\n      0x1f\n        /* \"#utility.yul\":21882:21888   */\n      dup4\n        /* \"#utility.yul\":21879:21893   */\n      gt\n        /* \"#utility.yul\":21907:21908   */\n      0x01\n        /* \"#utility.yul\":21902:22520   */\n      dup2\n      eq\n      tag_687\n      jumpi\n        /* \"#utility.yul\":22564:22565   */\n      0x00\n        /* \"#utility.yul\":22581:22587   */\n      dup5\n        /* \"#utility.yul\":22578:22655   */\n      iszero\n      tag_688\n      jumpi\n        /* \"#utility.yul\":22630:22639   */\n      dup3\n        /* \"#utility.yul\":22625:22628   */\n      dup8\n        /* \"#utility.yul\":22621:22640   */\n      add\n        /* \"#utility.yul\":22615:22641   */\n      mload\n        /* \"#utility.yul\":22606:22641   */\n      swap1\n      pop\n        /* \"#utility.yul\":22578:22655   */\n    tag_688:\n        /* \"#utility.yul\":22681:22748   */\n      tag_689\n        /* \"#utility.yul\":22741:22747   */\n      dup6\n        /* \"#utility.yul\":22734:22739   */\n      dup3\n        /* \"#utility.yul\":22681:22748   */\n      tag_446\n      jump\t// in\n    tag_689:\n        /* \"#utility.yul\":22675:22679   */\n      dup7\n        /* \"#utility.yul\":22668:22749   */\n      sstore\n        /* \"#utility.yul\":22537:22759   */\n      pop\n        /* \"#utility.yul\":21872:22759   */\n      jump(tag_686)\n        /* \"#utility.yul\":21902:22520   */\n    tag_687:\n        /* \"#utility.yul\":21954:21958   */\n      0x1f\n        /* \"#utility.yul\":21950:21959   */\n      not\n        /* \"#utility.yul\":21942:21948   */\n      dup5\n        /* \"#utility.yul\":21938:21960   */\n      and\n        /* \"#utility.yul\":21988:22025   */\n      tag_690\n        /* \"#utility.yul\":22020:22024   */\n      dup7\n        /* \"#utility.yul\":21988:22025   */\n      tag_432\n      jump\t// in\n    tag_690:\n        /* \"#utility.yul\":22047:22048   */\n      0x00\n        /* \"#utility.yul\":22061:22269   */\n    tag_691:\n        /* \"#utility.yul\":22075:22082   */\n      dup3\n        /* \"#utility.yul\":22072:22073   */\n      dup2\n        /* \"#utility.yul\":22069:22083   */\n      lt\n        /* \"#utility.yul\":22061:22269   */\n      iszero\n      tag_693\n      jumpi\n        /* \"#utility.yul\":22154:22163   */\n      dup5\n        /* \"#utility.yul\":22149:22152   */\n      dup10\n        /* \"#utility.yul\":22145:22164   */\n      add\n        /* \"#utility.yul\":22139:22165   */\n      mload\n        /* \"#utility.yul\":22131:22137   */\n      dup3\n        /* \"#utility.yul\":22124:22166   */\n      sstore\n        /* \"#utility.yul\":22205:22206   */\n      0x01\n        /* \"#utility.yul\":22197:22203   */\n      dup3\n        /* \"#utility.yul\":22193:22207   */\n      add\n        /* \"#utility.yul\":22183:22207   */\n      swap2\n      pop\n        /* \"#utility.yul\":22252:22254   */\n      0x20\n        /* \"#utility.yul\":22241:22250   */\n      dup6\n        /* \"#utility.yul\":22237:22255   */\n      add\n        /* \"#utility.yul\":22224:22255   */\n      swap5\n      pop\n        /* \"#utility.yul\":22098:22102   */\n      0x20\n        /* \"#utility.yul\":22095:22096   */\n      dup2\n        /* \"#utility.yul\":22091:22103   */\n      add\n        /* \"#utility.yul\":22086:22103   */\n      swap1\n      pop\n        /* \"#utility.yul\":22061:22269   */\n      jump(tag_691)\n    tag_693:\n        /* \"#utility.yul\":22297:22303   */\n      dup7\n        /* \"#utility.yul\":22288:22295   */\n      dup4\n        /* \"#utility.yul\":22285:22304   */\n      lt\n        /* \"#utility.yul\":22282:22461   */\n      iszero\n      tag_694\n      jumpi\n        /* \"#utility.yul\":22355:22364   */\n      dup5\n        /* \"#utility.yul\":22350:22353   */\n      dup10\n        /* \"#utility.yul\":22346:22365   */\n      add\n        /* \"#utility.yul\":22340:22366   */\n      mload\n        /* \"#utility.yul\":22398:22446   */\n      tag_695\n        /* \"#utility.yul\":22440:22444   */\n      0x1f\n        /* \"#utility.yul\":22432:22438   */\n      dup10\n        /* \"#utility.yul\":22428:22445   */\n      and\n        /* \"#utility.yul\":22417:22426   */\n      dup3\n        /* \"#utility.yul\":22398:22446   */\n      tag_445\n      jump\t// in\n    tag_695:\n        /* \"#utility.yul\":22390:22396   */\n      dup4\n        /* \"#utility.yul\":22383:22447   */\n      sstore\n        /* \"#utility.yul\":22305:22461   */\n      pop\n        /* \"#utility.yul\":22282:22461   */\n    tag_694:\n        /* \"#utility.yul\":22507:22508   */\n      0x01\n        /* \"#utility.yul\":22503:22504   */\n      0x02\n        /* \"#utility.yul\":22495:22501   */\n      dup9\n        /* \"#utility.yul\":22491:22505   */\n      mul\n        /* \"#utility.yul\":22487:22509   */\n      add\n        /* \"#utility.yul\":22481:22485   */\n      dup9\n        /* \"#utility.yul\":22474:22510   */\n      sstore\n        /* \"#utility.yul\":21909:22520   */\n      pop\n      pop\n      pop\n        /* \"#utility.yul\":21872:22759   */\n    tag_686:\n      pop\n        /* \"#utility.yul\":21462:22765   */\n      pop\n      pop\n      pop\n        /* \"#utility.yul\":21370:22765   */\n      pop\n      pop\n      jump\t// out\n        /* \"#utility.yul\":22771:22951   */\n    tag_342:\n        /* \"#utility.yul\":22819:22896   */\n      0x4e487b7100000000000000000000000000000000000000000000000000000000\n        /* \"#utility.yul\":22816:22817   */\n      0x00\n        /* \"#utility.yul\":22809:22897   */\n      mstore\n        /* \"#utility.yul\":22916:22920   */\n      0x12\n        /* \"#utility.yul\":22913:22914   */\n      0x04\n        /* \"#utility.yul\":22906:22921   */\n      mstore\n        /* \"#utility.yul\":22940:22944   */\n      0x24\n        /* \"#utility.yul\":22937:22938   */\n      0x00\n        /* \"#utility.yul\":22930:22945   */\n      revert\n        /* \"#utility.yul\":22957:23289   */\n    tag_358:\n        /* \"#utility.yul\":23078:23082   */\n      0x00\n        /* \"#utility.yul\":23116:23118   */\n      0x40\n        /* \"#utility.yul\":23105:23114   */\n      dup3\n        /* \"#utility.yul\":23101:23119   */\n      add\n        /* \"#utility.yul\":23093:23119   */\n      swap1\n      pop\n        /* \"#utility.yul\":23129:23200   */\n      tag_698\n        /* \"#utility.yul\":23197:23198   */\n      0x00\n        /* \"#utility.yul\":23186:23195   */\n      dup4\n        /* \"#utility.yul\":23182:23199   */\n      add\n        /* \"#utility.yul\":23173:23179   */\n      dup6\n        /* \"#utility.yul\":23129:23200   */\n      tag_403\n      jump\t// in\n    tag_698:\n        /* \"#utility.yul\":23210:23282   */\n      tag_699\n        /* \"#utility.yul\":23278:23280   */\n      0x20\n        /* \"#utility.yul\":23267:23276   */\n      dup4\n        /* \"#utility.yul\":23263:23281   */\n      add\n        /* \"#utility.yul\":23254:23260   */\n      dup5\n        /* \"#utility.yul\":23210:23282   */\n      tag_406\n      jump\t// in\n    tag_699:\n        /* \"#utility.yul\":22957:23289   */\n      swap4\n      swap3\n      pop\n      pop\n      pop\n      jump\t// out\n\n    auxdata: 0xa2646970667358221220393ce21c9454a391d54c3822cfd29abb76449e80cfea5f097f1704df6f15357864736f6c63430008170033\n}\n",
				"bytecode": {
					"linkReferences": {},
					"object": "608060405234801562000010575f80fd5b506040518060400160405280600781526020017f4d79546f6b656e000000000000000000000000000000000000000000000000008152506040518060400160405280600381526020017f4d544b0000000000000000000000000000000000000000000000000000000000815250815f90816200008d919062000411565b5080600190816200009f919062000411565b5050505f60075f6101000a81548160ff021916908315150217905550620000db620000cf620000e160201b60201c565b620000e860201b60201c565b620004f5565b5f33905090565b5f600760019054906101000a900473ffffffffffffffffffffffffffffffffffffffff16905081600760016101000a81548173ffffffffffffffffffffffffffffffffffffffff021916908373ffffffffffffffffffffffffffffffffffffffff1602179055508173ffffffffffffffffffffffffffffffffffffffff168173ffffffffffffffffffffffffffffffffffffffff167f8be0079c531659141344cd1fd0a4f28419497f9722a3daafe3b4186f6b6457e060405160405180910390a35050565b5f81519050919050565b7f4e487b71000000000000000000000000000000000000000000000000000000005f52604160045260245ffd5b7f4e487b71000000000000000000000000000000000000000000000000000000005f52602260045260245ffd5b5f60028204905060018216806200022957607f821691505b6020821081036200023f576200023e620001e4565b5b50919050565b5f819050815f5260205f209050919050565b5f6020601f8301049050919050565b5f82821b905092915050565b5f60088302620002a37fffffffffffffffffffffffffffffffffffffffffffffffffffffffffffffffff8262000266565b620002af868362000266565b95508019841693508086168417925050509392505050565b5f819050919050565b5f819050919050565b5f620002f9620002f3620002ed84620002c7565b620002d0565b620002c7565b9050919050565b5f819050919050565b6200031483620002d9565b6200032c620003238262000300565b84845462000272565b825550505050565b5f90565b6200034262000334565b6200034f81848462000309565b505050565b5b8181101562000376576200036a5f8262000338565b60018101905062000355565b5050565b601f821115620003c5576200038f8162000245565b6200039a8462000257565b81016020851015620003aa578190505b620003c2620003b98562000257565b83018262000354565b50505b505050565b5f82821c905092915050565b5f620003e75f1984600802620003ca565b1980831691505092915050565b5f620004018383620003d6565b9150826002028217905092915050565b6200041c82620001ad565b67ffffffffffffffff811115620004385762000437620001b7565b5b62000444825462000211565b620004518282856200037a565b5f60209050601f83116001811462000487575f841562000472578287015190505b6200047e8582620003f4565b865550620004ed565b601f198416620004978662000245565b5f5b82811015620004c05784890151825560018201915060208501945060208101905062000499565b86831015620004e05784890151620004dc601f891682620003d6565b8355505b6001600288020188555050505b505050505050565b6129b380620005035f395ff3fe608060405234801561000f575f80fd5b5060043610610140575f3560e01c806370a08231116100b6578063a22cb4651161007a578063a22cb4651461034e578063b88d4fde1461036a578063c87b56dd14610386578063d204c45e146103b6578063e985e9c5146103d2578063f2fde38b1461040257610140565b806370a08231146102ce578063715018a6146102fe5780638456cb59146103085780638da5cb5b1461031257806395d89b411461033057610140565b80633f4ba83a116101085780633f4ba83a146101fa57806342842e0e146102045780634813d8a6146102205780635c975abb146102505780636352211e1461026e57806364b55bed1461029e57610140565b806301ffc9a71461014457806306fdde0314610174578063081812fc14610192578063095ea7b3146101c257806323b872dd146101de575b5f80fd5b61015e60048036038101906101599190611d76565b61041e565b60405161016b9190611dbb565b60405180910390f35b61017c61042f565b6040516101899190611e5e565b60405180910390f35b6101ac60048036038101906101a79190611eb1565b6104be565b6040516101b99190611f1b565b60405180910390f35b6101dc60048036038101906101d79190611f5e565b6104d9565b005b6101f860048036038101906101f39190611f9c565b6104ef565b005b6102026105ee565b005b61021e60048036038101906102199190611f9c565b610600565b005b61023a60048036038101906102359190611fec565b61061f565b6040516102479190611dbb565b60405180910390f35b61025861063c565b6040516102659190611dbb565b60405180910390f35b61028860048036038101906102839190611eb1565b610651565b6040516102959190611f1b565b60405180910390f35b6102b860048036038101906102b39190611eb1565b610662565b6040516102c59190611f1b565b60405180910390f35b6102e860048036038101906102e39190611fec565b61069d565b6040516102f59190612026565b60405180910390f35b610306610753565b005b610310610766565b005b61031a610778565b6040516103279190611f1b565b60405180910390f35b6103386107a1565b6040516103459190611e5e565b60405180910390f35b61036860048036038101906103639190612069565b610831565b005b610384600480360381019061037f91906121d3565b610847565b005b6103a0600480360381019061039b9190611eb1565b610864565b6040516103ad9190611e5e565b60405180910390f35b6103d060048036038101906103cb91906122f1565b610876565b005b6103ec60048036038101906103e7919061234b565b6108fd565b6040516103f99190611dbb565b60405180910390f35b61041c60048036038101906104179190611fec565b61098b565b005b5f61042882610a0d565b9050919050565b60605f805461043d906123b6565b80601f0160208091040260200160405190810160405280929190818152602001828054610469906123b6565b80156104b45780601f1061048b576101008083540402835291602001916104b4565b820191905f5260205f20905b81548152906001019060200180831161049757829003601f168201915b5050505050905090565b5f6104c882610a6d565b506104d282610af3565b9050919050565b6104eb82826104e6610b2c565b610b33565b5050565b5f73ffffffffffffffffffffffffffffffffffffffff168273ffffffffffffffffffffffffffffffffffffffff160361055f575f6040517f64a0ae920000000000000000000000000000000000000000000000000000000081526004016105569190611f1b565b60405180910390fd5b5f610572838361056d610b2c565b610b45565b90508373ffffffffffffffffffffffffffffffffffffffff168173ffffffffffffffffffffffffffffffffffffffff16146105e8578382826040517f64283d7b0000000000000000000000000000000000000000000000000000000081526004016105df939291906123e6565b60405180910390fd5b50505050565b6105f6610b5a565b6105fe610bd8565b565b61061a83838360405180602001604052805f815250610847565b505050565b600a602052805f5260405f205f915054906101000a900460ff1681565b5f60075f9054906101000a900460ff16905090565b5f61065b82610a6d565b9050919050565b600b8181548110610671575f80fd5b905f5260205f20015f915054906101000a900473ffffffffffffffffffffffffffffffffffffffff1681565b5f8073ffffffffffffffffffffffffffffffffffffffff168273ffffffffffffffffffffffffffffffffffffffff160361070e575f6040517f89c62b640000000000000000000000000000000000000000000000000000000081526004016107059190611f1b565b60405180910390fd5b60035f8373ffffffffffffffffffffffffffffffffffffffff1673ffffffffffffffffffffffffffffffffffffffff1681526020019081526020015f20549050919050565b61075b610b5a565b6107645f610c39565b565b61076e610b5a565b610776610cfe565b565b5f600760019054906101000a900473ffffffffffffffffffffffffffffffffffffffff16905090565b6060600180546107b0906123b6565b80601f01602080910402602001604051908101604052809291908181526020018280546107dc906123b6565b80156108275780601f106107fe57610100808354040283529160200191610827565b820191905f5260205f20905b81548152906001019060200180831161080a57829003601f168201915b5050505050905090565b61084361083c610b2c565b8383610d60565b5050565b6108528484846104ef565b61085e84848484610ec9565b50505050565b606061086f8261107b565b9050919050565b5f60085f81548092919061088990612448565b9190505590506108998382611186565b6108a381836111a3565b600160095f8573ffffffffffffffffffffffffffffffffffffffff1673ffffffffffffffffffffffffffffffffffffffff1681526020019081526020015f205f6101000a81548160ff021916908315150217905550505050565b5f60055f8473ffffffffffffffffffffffffffffffffffffffff1673ffffffffffffffffffffffffffffffffffffffff1681526020019081526020015f205f8373ffffffffffffffffffffffffffffffffffffffff1673ffffffffffffffffffffffffffffffffffffffff1681526020019081526020015f205f9054906101000a900460ff16905092915050565b610993610b5a565b5f73ffffffffffffffffffffffffffffffffffffffff168173ffffffffffffffffffffffffffffffffffffffff1603610a01576040517f08c379a00000000000000000000000000000000000000000000000000000000081526004016109f8906124ff565b60405180910390fd5b610a0a81610c39565b50565b5f634906490660e01b7bffffffffffffffffffffffffffffffffffffffffffffffffffffffff1916827bffffffffffffffffffffffffffffffffffffffffffffffffffffffff19161480610a665750610a65826111fd565b5b9050919050565b5f80610a78836112de565b90505f73ffffffffffffffffffffffffffffffffffffffff168173ffffffffffffffffffffffffffffffffffffffff1603610aea57826040517f7e273289000000000000000000000000000000000000000000000000000000008152600401610ae19190612026565b60405180910390fd5b80915050919050565b5f60045f8381526020019081526020015f205f9054906101000a900473ffffffffffffffffffffffffffffffffffffffff169050919050565b5f33905090565b610b408383836001611317565b505050565b5f610b518484846114d6565b90509392505050565b610b62610b2c565b73ffffffffffffffffffffffffffffffffffffffff16610b80610778565b73ffffffffffffffffffffffffffffffffffffffff1614610bd6576040517f08c379a0000000000000000000000000000000000000000000000000000000008152600401610bcd90612567565b60405180910390fd5b565b610be06114f3565b5f60075f6101000a81548160ff0219169083151502179055507f5db9ee0a495bf2e6ff9c91a7834c1ba4fdd244a5e8aa4e537bd38aeae4b073aa610c22610b2c565b604051610c2f9190611f1b565b60405180910390a1565b5f600760019054906101000a900473ffffffffffffffffffffffffffffffffffffffff16905081600760016101000a81548173ffffffffffffffffffffffffffffffffffffffff021916908373ffffffffffffffffffffffffffffffffffffffff1602179055508173ffffffffffffffffffffffffffffffffffffffff168173ffffffffffffffffffffffffffffffffffffffff167f8be0079c531659141344cd1fd0a4f28419497f9722a3daafe3b4186f6b6457e060405160405180910390a35050565b610d06611533565b600160075f6101000a81548160ff0219169083151502179055507f62e78cea01bee320cd4e420270b5ea74000d11b0c9f74754ebdbfc544b05a258610d49610b2c565b604051610d569190611f1b565b60405180910390a1565b5f73ffffffffffffffffffffffffffffffffffffffff168273ffffffffffffffffffffffffffffffffffffffff1603610dd057816040517f5b08ba18000000000000000000000000000000000000000000000000000000008152600401610dc79190611f1b565b60405180910390fd5b8060055f8573ffffffffffffffffffffffffffffffffffffffff1673ffffffffffffffffffffffffffffffffffffffff1681526020019081526020015f205f8473ffffffffffffffffffffffffffffffffffffffff1673ffffffffffffffffffffffffffffffffffffffff1681526020019081526020015f205f6101000a81548160ff0219169083151502179055508173ffffffffffffffffffffffffffffffffffffffff168373ffffffffffffffffffffffffffffffffffffffff167f17307eab39ab6107e8899845ad3d59bd9653f200f220920489ca2b5937696c3183604051610ebc9190611dbb565b60405180910390a3505050565b5f8373ffffffffffffffffffffffffffffffffffffffff163b1115611075578273ffffffffffffffffffffffffffffffffffffffff1663150b7a02610f0c610b2c565b8685856040518563ffffffff1660e01b8152600401610f2e94939291906125d7565b6020604051808303815f875af1925050508015610f6957506040513d601f19601f82011682018060405250810190610f669190612635565b60015b610fea573d805f8114610f97576040519150601f19603f3d011682016040523d82523d5f602084013e610f9c565b606091505b505f815103610fe257836040517f64a0ae92000000000000000000000000000000000000000000000000000000008152600401610fd99190611f1b565b60405180910390fd5b805181602001fd5b63150b7a0260e01b7bffffffffffffffffffffffffffffffffffffffffffffffffffffffff1916817bffffffffffffffffffffffffffffffffffffffffffffffffffffffff19161461107357836040517f64a0ae9200000000000000000000000000000000000000000000000000000000815260040161106a9190611f1b565b60405180910390fd5b505b50505050565b606061108682610a6d565b505f60065f8481526020019081526020015f2080546110a4906123b6565b80601f01602080910402602001604051908101604052809291908181526020018280546110d0906123b6565b801561111b5780601f106110f25761010080835404028352916020019161111b565b820191905f5260205f20905b8154815290600101906020018083116110fe57829003601f168201915b505050505090505f61112b611574565b90505f81510361113f578192505050611181565b5f8251111561117357808260405160200161115b92919061269a565b60405160208183030381529060405292505050611181565b61117c8461158a565b925050505b919050565b61119f828260405180602001604052805f8152506115f0565b5050565b8060065f8481526020019081526020015f2090816111c1919061285a565b507ff8e1a15aba9398e019f0b49df1a4fde98ee17ae345cb5f6b5e2c27f5033e8ce7826040516111f19190612026565b60405180910390a15050565b5f7f80ac58cd000000000000000000000000000000000000000000000000000000007bffffffffffffffffffffffffffffffffffffffffffffffffffffffff1916827bffffffffffffffffffffffffffffffffffffffffffffffffffffffff191614806112c757507f5b5e139f000000000000000000000000000000000000000000000000000000007bffffffffffffffffffffffffffffffffffffffffffffffffffffffff1916827bffffffffffffffffffffffffffffffffffffffffffffffffffffffff1916145b806112d757506112d68261160b565b5b9050919050565b5f60025f8381526020019081526020015f205f9054906101000a900473ffffffffffffffffffffffffffffffffffffffff169050919050565b808061134f57505f73ffffffffffffffffffffffffffffffffffffffff168273ffffffffffffffffffffffffffffffffffffffff1614155b15611481575f61135e84610a6d565b90505f73ffffffffffffffffffffffffffffffffffffffff168373ffffffffffffffffffffffffffffffffffffffff16141580156113c857508273ffffffffffffffffffffffffffffffffffffffff168173ffffffffffffffffffffffffffffffffffffffff1614155b80156113db57506113d981846108fd565b155b1561141d57826040517fa9fbf51f0000000000000000000000000000000000000000000000000000000081526004016114149190611f1b565b60405180910390fd5b811561147f57838573ffffffffffffffffffffffffffffffffffffffff168273ffffffffffffffffffffffffffffffffffffffff167f8c5be1e5ebec7d5bd14f71427d1e84f3dd0314c0f7b2291e5b200ac8c7c3b92560405160405180910390a45b505b8360045f8581526020019081526020015f205f6101000a81548173ffffffffffffffffffffffffffffffffffffffff021916908373ffffffffffffffffffffffffffffffffffffffff16021790555050505050565b5f6114df611533565b6114ea848484611674565b90509392505050565b6114fb61063c565b611531576040517f8dfc202b00000000000000000000000000000000000000000000000000000000815260040160405180910390fd5b565b61153b61063c565b15611572576040517fd93c066500000000000000000000000000000000000000000000000000000000815260040160405180910390fd5b565b606060405180602001604052805f815250905090565b606061159582610a6d565b505f61159f611574565b90505f8151116115bd5760405180602001604052805f8152506115e8565b806115c78461187f565b6040516020016115d892919061269a565b6040516020818303038152906040525b915050919050565b6115fa8383611949565b6116065f848484610ec9565b505050565b5f7f01ffc9a7000000000000000000000000000000000000000000000000000000007bffffffffffffffffffffffffffffffffffffffffffffffffffffffff1916827bffffffffffffffffffffffffffffffffffffffffffffffffffffffff1916149050919050565b5f8061167f846112de565b90505f73ffffffffffffffffffffffffffffffffffffffff168373ffffffffffffffffffffffffffffffffffffffff16146116c0576116bf818486611a3c565b5b5f73ffffffffffffffffffffffffffffffffffffffff168173ffffffffffffffffffffffffffffffffffffffff161461174b576116ff5f855f80611317565b600160035f8373ffffffffffffffffffffffffffffffffffffffff1673ffffffffffffffffffffffffffffffffffffffff1681526020019081526020015f205f82825403925050819055505b5f73ffffffffffffffffffffffffffffffffffffffff168573ffffffffffffffffffffffffffffffffffffffff16146117ca57600160035f8773ffffffffffffffffffffffffffffffffffffffff1673ffffffffffffffffffffffffffffffffffffffff1681526020019081526020015f205f82825401925050819055505b8460025f8681526020019081526020015f205f6101000a81548173ffffffffffffffffffffffffffffffffffffffff021916908373ffffffffffffffffffffffffffffffffffffffff160217905550838573ffffffffffffffffffffffffffffffffffffffff168273ffffffffffffffffffffffffffffffffffffffff167fddf252ad1be2c89b69c2b068fc378daa952ba7f163c4a11628f55a4df523b3ef60405160405180910390a4809150509392505050565b60605f600161188d84611aff565b0190505f8167ffffffffffffffff8111156118ab576118aa6120af565b5b6040519080825280601f01601f1916602001820160405280156118dd5781602001600182028036833780820191505090505b5090505f82602001820190505b60011561193e578080600190039150507f3031323334353637383961626364656600000000000000000000000000000000600a86061a8153600a858161193357611932612929565b5b0494505f85036118ea575b819350505050919050565b5f73ffffffffffffffffffffffffffffffffffffffff168273ffffffffffffffffffffffffffffffffffffffff16036119b9575f6040517f64a0ae920000000000000000000000000000000000000000000000000000000081526004016119b09190611f1b565b60405180910390fd5b5f6119c583835f610b45565b90505f73ffffffffffffffffffffffffffffffffffffffff168173ffffffffffffffffffffffffffffffffffffffff1614611a37575f6040517f73c6ac6e000000000000000000000000000000000000000000000000000000008152600401611a2e9190611f1b565b60405180910390fd5b505050565b611a47838383611c50565b611afa575f73ffffffffffffffffffffffffffffffffffffffff168373ffffffffffffffffffffffffffffffffffffffff1603611abb57806040517f7e273289000000000000000000000000000000000000000000000000000000008152600401611ab29190612026565b60405180910390fd5b81816040517f177e802f000000000000000000000000000000000000000000000000000000008152600401611af1929190612956565b60405180910390fd5b505050565b5f805f90507a184f03e93ff9f4daa797ed6e38ed64bf6a1f0100000000000000008310611b5b577a184f03e93ff9f4daa797ed6e38ed64bf6a1f0100000000000000008381611b5157611b50612929565b5b0492506040810190505b6d04ee2d6d415b85acef81000000008310611b98576d04ee2d6d415b85acef81000000008381611b8e57611b8d612929565b5b0492506020810190505b662386f26fc100008310611bc757662386f26fc100008381611bbd57611bbc612929565b5b0492506010810190505b6305f5e1008310611bf0576305f5e1008381611be657611be5612929565b5b0492506008810190505b6127108310611c15576127108381611c0b57611c0a612929565b5b0492506004810190505b60648310611c385760648381611c2e57611c2d612929565b5b0492506002810190505b600a8310611c47576001810190505b80915050919050565b5f8073ffffffffffffffffffffffffffffffffffffffff168373ffffffffffffffffffffffffffffffffffffffff1614158015611d0757508273ffffffffffffffffffffffffffffffffffffffff168473ffffffffffffffffffffffffffffffffffffffff161480611cc85750611cc784846108fd565b5b80611d0657508273ffffffffffffffffffffffffffffffffffffffff16611cee83610af3565b73ffffffffffffffffffffffffffffffffffffffff16145b5b90509392505050565b5f604051905090565b5f80fd5b5f80fd5b5f7fffffffff0000000000000000000000000000000000000000000000000000000082169050919050565b611d5581611d21565b8114611d5f575f80fd5b50565b5f81359050611d7081611d4c565b92915050565b5f60208284031215611d8b57611d8a611d19565b5b5f611d9884828501611d62565b91505092915050565b5f8115159050919050565b611db581611da1565b82525050565b5f602082019050611dce5f830184611dac565b92915050565b5f81519050919050565b5f82825260208201905092915050565b5f5b83811015611e0b578082015181840152602081019050611df0565b5f8484015250505050565b5f601f19601f8301169050919050565b5f611e3082611dd4565b611e3a8185611dde565b9350611e4a818560208601611dee565b611e5381611e16565b840191505092915050565b5f6020820190508181035f830152611e768184611e26565b905092915050565b5f819050919050565b611e9081611e7e565b8114611e9a575f80fd5b50565b5f81359050611eab81611e87565b92915050565b5f60208284031215611ec657611ec5611d19565b5b5f611ed384828501611e9d565b91505092915050565b5f73ffffffffffffffffffffffffffffffffffffffff82169050919050565b5f611f0582611edc565b9050919050565b611f1581611efb565b82525050565b5f602082019050611f2e5f830184611f0c565b92915050565b611f3d81611efb565b8114611f47575f80fd5b50565b5f81359050611f5881611f34565b92915050565b5f8060408385031215611f7457611f73611d19565b5b5f611f8185828601611f4a565b9250506020611f9285828601611e9d565b9150509250929050565b5f805f60608486031215611fb357611fb2611d19565b5b5f611fc086828701611f4a565b9350506020611fd186828701611f4a565b9250506040611fe286828701611e9d565b9150509250925092565b5f6020828403121561200157612000611d19565b5b5f61200e84828501611f4a565b91505092915050565b61202081611e7e565b82525050565b5f6020820190506120395f830184612017565b92915050565b61204881611da1565b8114612052575f80fd5b50565b5f813590506120638161203f565b92915050565b5f806040838503121561207f5761207e611d19565b5b5f61208c85828601611f4a565b925050602061209d85828601612055565b9150509250929050565b5f80fd5b5f80fd5b7f4e487b71000000000000000000000000000000000000000000000000000000005f52604160045260245ffd5b6120e582611e16565b810181811067ffffffffffffffff82111715612104576121036120af565b5b80604052505050565b5f612116611d10565b905061212282826120dc565b919050565b5f67ffffffffffffffff821115612141576121406120af565b5b61214a82611e16565b9050602081019050919050565b828183375f83830152505050565b5f61217761217284612127565b61210d565b905082815260208101848484011115612193576121926120ab565b5b61219e848285612157565b509392505050565b5f82601f8301126121ba576121b96120a7565b5b81356121ca848260208601612165565b91505092915050565b5f805f80608085870312156121eb576121ea611d19565b5b5f6121f887828801611f4a565b945050602061220987828801611f4a565b935050604061221a87828801611e9d565b925050606085013567ffffffffffffffff81111561223b5761223a611d1d565b5b612247878288016121a6565b91505092959194509250565b5f67ffffffffffffffff82111561226d5761226c6120af565b5b61227682611e16565b9050602081019050919050565b5f61229561229084612253565b61210d565b9050828152602081018484840111156122b1576122b06120ab565b5b6122bc848285612157565b509392505050565b5f82601f8301126122d8576122d76120a7565b5b81356122e8848260208601612283565b91505092915050565b5f806040838503121561230757612306611d19565b5b5f61231485828601611f4a565b925050602083013567ffffffffffffffff81111561233557612334611d1d565b5b612341858286016122c4565b9150509250929050565b5f806040838503121561236157612360611d19565b5b5f61236e85828601611f4a565b925050602061237f85828601611f4a565b9150509250929050565b7f4e487b71000000000000000000000000000000000000000000000000000000005f52602260045260245ffd5b5f60028204905060018216806123cd57607f821691505b6020821081036123e0576123df612389565b5b50919050565b5f6060820190506123f95f830186611f0c565b6124066020830185612017565b6124136040830184611f0c565b949350505050565b7f4e487b71000000000000000000000000000000000000000000000000000000005f52601160045260245ffd5b5f61245282611e7e565b91507fffffffffffffffffffffffffffffffffffffffffffffffffffffffffffffffff82036124845761248361241b565b5b600182019050919050565b7f4f776e61626c653a206e6577206f776e657220697320746865207a65726f20615f8201527f6464726573730000000000000000000000000000000000000000000000000000602082015250565b5f6124e9602683611dde565b91506124f48261248f565b604082019050919050565b5f6020820190508181035f830152612516816124dd565b9050919050565b7f4f776e61626c653a2063616c6c6572206973206e6f7420746865206f776e65725f82015250565b5f612551602083611dde565b915061255c8261251d565b602082019050919050565b5f6020820190508181035f83015261257e81612545565b9050919050565b5f81519050919050565b5f82825260208201905092915050565b5f6125a982612585565b6125b3818561258f565b93506125c3818560208601611dee565b6125cc81611e16565b840191505092915050565b5f6080820190506125ea5f830187611f0c565b6125f76020830186611f0c565b6126046040830185612017565b8181036060830152612616818461259f565b905095945050505050565b5f8151905061262f81611d4c565b92915050565b5f6020828403121561264a57612649611d19565b5b5f61265784828501612621565b91505092915050565b5f81905092915050565b5f61267482611dd4565b61267e8185612660565b935061268e818560208601611dee565b80840191505092915050565b5f6126a5828561266a565b91506126b1828461266a565b91508190509392505050565b5f819050815f5260205f209050919050565b5f6020601f8301049050919050565b5f82821b905092915050565b5f600883026127197fffffffffffffffffffffffffffffffffffffffffffffffffffffffffffffffff826126de565b61272386836126de565b95508019841693508086168417925050509392505050565b5f819050919050565b5f61275e61275961275484611e7e565b61273b565b611e7e565b9050919050565b5f819050919050565b61277783612744565b61278b61278382612765565b8484546126ea565b825550505050565b5f90565b61279f612793565b6127aa81848461276e565b505050565b5b818110156127cd576127c25f82612797565b6001810190506127b0565b5050565b601f821115612812576127e3816126bd565b6127ec846126cf565b810160208510156127fb578190505b61280f612807856126cf565b8301826127af565b50505b505050565b5f82821c905092915050565b5f6128325f1984600802612817565b1980831691505092915050565b5f61284a8383612823565b9150826002028217905092915050565b61286382611dd4565b67ffffffffffffffff81111561287c5761287b6120af565b5b61288682546123b6565b6128918282856127d1565b5f60209050601f8311600181146128c2575f84156128b0578287015190505b6128ba858261283f565b865550612921565b601f1984166128d0866126bd565b5f5b828110156128f7578489015182556001820191506020850194506020810190506128d2565b868310156129145784890151612910601f891682612823565b8355505b6001600288020188555050505b505050505050565b7f4e487b71000000000000000000000000000000000000000000000000000000005f52601260045260245ffd5b5f6040820190506129695f830185611f0c565b6129766020830184612017565b939250505056fea2646970667358221220393ce21c9454a391d54c3822cfd29abb76449e80cfea5f097f1704df6f15357864736f6c63430008170033",
					"opcodes": "PUSH1 0x80 PUSH1 0x40 MSTORE CALLVALUE DUP1 ISZERO PUSH3 0x10 JUMPI PUSH0 DUP1 REVERT JUMPDEST POP PUSH1 0x40 MLOAD DUP1 PUSH1 0x40 ADD PUSH1 0x40 MSTORE DUP1 PUSH1 0x7 DUP2 MSTORE PUSH1 0x20 ADD PUSH32 0x4D79546F6B656E00000000000000000000000000000000000000000000000000 DUP2 MSTORE POP PUSH1 0x40 MLOAD DUP1 PUSH1 0x40 ADD PUSH1 0x40 MSTORE DUP1 PUSH1 0x3 DUP2 MSTORE PUSH1 0x20 ADD PUSH32 0x4D544B0000000000000000000000000000000000000000000000000000000000 DUP2 MSTORE POP DUP2 PUSH0 SWAP1 DUP2 PUSH3 0x8D SWAP2 SWAP1 PUSH3 0x411 JUMP JUMPDEST POP DUP1 PUSH1 0x1 SWAP1 DUP2 PUSH3 0x9F SWAP2 SWAP1 PUSH3 0x411 JUMP JUMPDEST POP POP POP PUSH0 PUSH1 0x7 PUSH0 PUSH2 0x100 EXP DUP2 SLOAD DUP2 PUSH1 0xFF MUL NOT AND SWAP1 DUP4 ISZERO ISZERO MUL OR SWAP1 SSTORE POP PUSH3 0xDB PUSH3 0xCF PUSH3 0xE1 PUSH1 0x20 SHL PUSH1 0x20 SHR JUMP JUMPDEST PUSH3 0xE8 PUSH1 0x20 SHL PUSH1 0x20 SHR JUMP JUMPDEST PUSH3 0x4F5 JUMP JUMPDEST PUSH0 CALLER SWAP1 POP SWAP1 JUMP JUMPDEST PUSH0 PUSH1 0x7 PUSH1 0x1 SWAP1 SLOAD SWAP1 PUSH2 0x100 EXP SWAP1 DIV PUSH20 0xFFFFFFFFFFFFFFFFFFFFFFFFFFFFFFFFFFFFFFFF AND SWAP1 POP DUP2 PUSH1 0x7 PUSH1 0x1 PUSH2 0x100 EXP DUP2 SLOAD DUP2 PUSH20 0xFFFFFFFFFFFFFFFFFFFFFFFFFFFFFFFFFFFFFFFF MUL NOT AND SWAP1 DUP4 PUSH20 0xFFFFFFFFFFFFFFFFFFFFFFFFFFFFFFFFFFFFFFFF AND MUL OR SWAP1 SSTORE POP DUP2 PUSH20 0xFFFFFFFFFFFFFFFFFFFFFFFFFFFFFFFFFFFFFFFF AND DUP2 PUSH20 0xFFFFFFFFFFFFFFFFFFFFFFFFFFFFFFFFFFFFFFFF AND PUSH32 0x8BE0079C531659141344CD1FD0A4F28419497F9722A3DAAFE3B4186F6B6457E0 PUSH1 0x40 MLOAD PUSH1 0x40 MLOAD DUP1 SWAP2 SUB SWAP1 LOG3 POP POP JUMP JUMPDEST PUSH0 DUP2 MLOAD SWAP1 POP SWAP2 SWAP1 POP JUMP JUMPDEST PUSH32 0x4E487B7100000000000000000000000000000000000000000000000000000000 PUSH0 MSTORE PUSH1 0x41 PUSH1 0x4 MSTORE PUSH1 0x24 PUSH0 REVERT JUMPDEST PUSH32 0x4E487B7100000000000000000000000000000000000000000000000000000000 PUSH0 MSTORE PUSH1 0x22 PUSH1 0x4 MSTORE PUSH1 0x24 PUSH0 REVERT JUMPDEST PUSH0 PUSH1 0x2 DUP3 DIV SWAP1 POP PUSH1 0x1 DUP3 AND DUP1 PUSH3 0x229 JUMPI PUSH1 0x7F DUP3 AND SWAP2 POP JUMPDEST PUSH1 0x20 DUP3 LT DUP2 SUB PUSH3 0x23F JUMPI PUSH3 0x23E PUSH3 0x1E4 JUMP JUMPDEST JUMPDEST POP SWAP2 SWAP1 POP JUMP JUMPDEST PUSH0 DUP2 SWAP1 POP DUP2 PUSH0 MSTORE PUSH1 0x20 PUSH0 KECCAK256 SWAP1 POP SWAP2 SWAP1 POP JUMP JUMPDEST PUSH0 PUSH1 0x20 PUSH1 0x1F DUP4 ADD DIV SWAP1 POP SWAP2 SWAP1 POP JUMP JUMPDEST PUSH0 DUP3 DUP3 SHL SWAP1 POP SWAP3 SWAP2 POP POP JUMP JUMPDEST PUSH0 PUSH1 0x8 DUP4 MUL PUSH3 0x2A3 PUSH32 0xFFFFFFFFFFFFFFFFFFFFFFFFFFFFFFFFFFFFFFFFFFFFFFFFFFFFFFFFFFFFFFFF DUP3 PUSH3 0x266 JUMP JUMPDEST PUSH3 0x2AF DUP7 DUP4 PUSH3 0x266 JUMP JUMPDEST SWAP6 POP DUP1 NOT DUP5 AND SWAP4 POP DUP1 DUP7 AND DUP5 OR SWAP3 POP POP POP SWAP4 SWAP3 POP POP POP JUMP JUMPDEST PUSH0 DUP2 SWAP1 POP SWAP2 SWAP1 POP JUMP JUMPDEST PUSH0 DUP2 SWAP1 POP SWAP2 SWAP1 POP JUMP JUMPDEST PUSH0 PUSH3 0x2F9 PUSH3 0x2F3 PUSH3 0x2ED DUP5 PUSH3 0x2C7 JUMP JUMPDEST PUSH3 0x2D0 JUMP JUMPDEST PUSH3 0x2C7 JUMP JUMPDEST SWAP1 POP SWAP2 SWAP1 POP JUMP JUMPDEST PUSH0 DUP2 SWAP1 POP SWAP2 SWAP1 POP JUMP JUMPDEST PUSH3 0x314 DUP4 PUSH3 0x2D9 JUMP JUMPDEST PUSH3 0x32C PUSH3 0x323 DUP3 PUSH3 0x300 JUMP JUMPDEST DUP5 DUP5 SLOAD PUSH3 0x272 JUMP JUMPDEST DUP3 SSTORE POP POP POP POP JUMP JUMPDEST PUSH0 SWAP1 JUMP JUMPDEST PUSH3 0x342 PUSH3 0x334 JUMP JUMPDEST PUSH3 0x34F DUP2 DUP5 DUP5 PUSH3 0x309 JUMP JUMPDEST POP POP POP JUMP JUMPDEST JUMPDEST DUP2 DUP2 LT ISZERO PUSH3 0x376 JUMPI PUSH3 0x36A PUSH0 DUP3 PUSH3 0x338 JUMP JUMPDEST PUSH1 0x1 DUP2 ADD SWAP1 POP PUSH3 0x355 JUMP JUMPDEST POP POP JUMP JUMPDEST PUSH1 0x1F DUP3 GT ISZERO PUSH3 0x3C5 JUMPI PUSH3 0x38F DUP2 PUSH3 0x245 JUMP JUMPDEST PUSH3 0x39A DUP5 PUSH3 0x257 JUMP JUMPDEST DUP2 ADD PUSH1 0x20 DUP6 LT ISZERO PUSH3 0x3AA JUMPI DUP2 SWAP1 POP JUMPDEST PUSH3 0x3C2 PUSH3 0x3B9 DUP6 PUSH3 0x257 JUMP JUMPDEST DUP4 ADD DUP3 PUSH3 0x354 JUMP JUMPDEST POP POP JUMPDEST POP POP POP JUMP JUMPDEST PUSH0 DUP3 DUP3 SHR SWAP1 POP SWAP3 SWAP2 POP POP JUMP JUMPDEST PUSH0 PUSH3 0x3E7 PUSH0 NOT DUP5 PUSH1 0x8 MUL PUSH3 0x3CA JUMP JUMPDEST NOT DUP1 DUP4 AND SWAP2 POP POP SWAP3 SWAP2 POP POP JUMP JUMPDEST PUSH0 PUSH3 0x401 DUP4 DUP4 PUSH3 0x3D6 JUMP JUMPDEST SWAP2 POP DUP3 PUSH1 0x2 MUL DUP3 OR SWAP1 POP SWAP3 SWAP2 POP POP JUMP JUMPDEST PUSH3 0x41C DUP3 PUSH3 0x1AD JUMP JUMPDEST PUSH8 0xFFFFFFFFFFFFFFFF DUP2 GT ISZERO PUSH3 0x438 JUMPI PUSH3 0x437 PUSH3 0x1B7 JUMP JUMPDEST JUMPDEST PUSH3 0x444 DUP3 SLOAD PUSH3 0x211 JUMP JUMPDEST PUSH3 0x451 DUP3 DUP3 DUP6 PUSH3 0x37A JUMP JUMPDEST PUSH0 PUSH1 0x20 SWAP1 POP PUSH1 0x1F DUP4 GT PUSH1 0x1 DUP2 EQ PUSH3 0x487 JUMPI PUSH0 DUP5 ISZERO PUSH3 0x472 JUMPI DUP3 DUP8 ADD MLOAD SWAP1 POP JUMPDEST PUSH3 0x47E DUP6 DUP3 PUSH3 0x3F4 JUMP JUMPDEST DUP7 SSTORE POP PUSH3 0x4ED JUMP JUMPDEST PUSH1 0x1F NOT DUP5 AND PUSH3 0x497 DUP7 PUSH3 0x245 JUMP JUMPDEST PUSH0 JUMPDEST DUP3 DUP2 LT ISZERO PUSH3 0x4C0 JUMPI DUP5 DUP10 ADD MLOAD DUP3 SSTORE PUSH1 0x1 DUP3 ADD SWAP2 POP PUSH1 0x20 DUP6 ADD SWAP5 POP PUSH1 0x20 DUP2 ADD SWAP1 POP PUSH3 0x499 JUMP JUMPDEST DUP7 DUP4 LT ISZERO PUSH3 0x4E0 JUMPI DUP5 DUP10 ADD MLOAD PUSH3 0x4DC PUSH1 0x1F DUP10 AND DUP3 PUSH3 0x3D6 JUMP JUMPDEST DUP4 SSTORE POP JUMPDEST PUSH1 0x1 PUSH1 0x2 DUP9 MUL ADD DUP9 SSTORE POP POP POP JUMPDEST POP POP POP POP POP POP JUMP JUMPDEST PUSH2 0x29B3 DUP1 PUSH3 0x503 PUSH0 CODECOPY PUSH0 RETURN INVALID PUSH1 0x80 PUSH1 0x40 MSTORE CALLVALUE DUP1 ISZERO PUSH2 0xF JUMPI PUSH0 DUP1 REVERT JUMPDEST POP PUSH1 0x4 CALLDATASIZE LT PUSH2 0x140 JUMPI PUSH0 CALLDATALOAD PUSH1 0xE0 SHR DUP1 PUSH4 0x70A08231 GT PUSH2 0xB6 JUMPI DUP1 PUSH4 0xA22CB465 GT PUSH2 0x7A JUMPI DUP1 PUSH4 0xA22CB465 EQ PUSH2 0x34E JUMPI DUP1 PUSH4 0xB88D4FDE EQ PUSH2 0x36A JUMPI DUP1 PUSH4 0xC87B56DD EQ PUSH2 0x386 JUMPI DUP1 PUSH4 0xD204C45E EQ PUSH2 0x3B6 JUMPI DUP1 PUSH4 0xE985E9C5 EQ PUSH2 0x3D2 JUMPI DUP1 PUSH4 0xF2FDE38B EQ PUSH2 0x402 JUMPI PUSH2 0x140 JUMP JUMPDEST DUP1 PUSH4 0x70A08231 EQ PUSH2 0x2CE JUMPI DUP1 PUSH4 0x715018A6 EQ PUSH2 0x2FE JUMPI DUP1 PUSH4 0x8456CB59 EQ PUSH2 0x308 JUMPI DUP1 PUSH4 0x8DA5CB5B EQ PUSH2 0x312 JUMPI DUP1 PUSH4 0x95D89B41 EQ PUSH2 0x330 JUMPI PUSH2 0x140 JUMP JUMPDEST DUP1 PUSH4 0x3F4BA83A GT PUSH2 0x108 JUMPI DUP1 PUSH4 0x3F4BA83A EQ PUSH2 0x1FA JUMPI DUP1 PUSH4 0x42842E0E EQ PUSH2 0x204 JUMPI DUP1 PUSH4 0x4813D8A6 EQ PUSH2 0x220 JUMPI DUP1 PUSH4 0x5C975ABB EQ PUSH2 0x250 JUMPI DUP1 PUSH4 0x6352211E EQ PUSH2 0x26E JUMPI DUP1 PUSH4 0x64B55BED EQ PUSH2 0x29E JUMPI PUSH2 0x140 JUMP JUMPDEST DUP1 PUSH4 0x1FFC9A7 EQ PUSH2 0x144 JUMPI DUP1 PUSH4 0x6FDDE03 EQ PUSH2 0x174 JUMPI DUP1 PUSH4 0x81812FC EQ PUSH2 0x192 JUMPI DUP1 PUSH4 0x95EA7B3 EQ PUSH2 0x1C2 JUMPI DUP1 PUSH4 0x23B872DD EQ PUSH2 0x1DE JUMPI JUMPDEST PUSH0 DUP1 REVERT JUMPDEST PUSH2 0x15E PUSH1 0x4 DUP1 CALLDATASIZE SUB DUP2 ADD SWAP1 PUSH2 0x159 SWAP2 SWAP1 PUSH2 0x1D76 JUMP JUMPDEST PUSH2 0x41E JUMP JUMPDEST PUSH1 0x40 MLOAD PUSH2 0x16B SWAP2 SWAP1 PUSH2 0x1DBB JUMP JUMPDEST PUSH1 0x40 MLOAD DUP1 SWAP2 SUB SWAP1 RETURN JUMPDEST PUSH2 0x17C PUSH2 0x42F JUMP JUMPDEST PUSH1 0x40 MLOAD PUSH2 0x189 SWAP2 SWAP1 PUSH2 0x1E5E JUMP JUMPDEST PUSH1 0x40 MLOAD DUP1 SWAP2 SUB SWAP1 RETURN JUMPDEST PUSH2 0x1AC PUSH1 0x4 DUP1 CALLDATASIZE SUB DUP2 ADD SWAP1 PUSH2 0x1A7 SWAP2 SWAP1 PUSH2 0x1EB1 JUMP JUMPDEST PUSH2 0x4BE JUMP JUMPDEST PUSH1 0x40 MLOAD PUSH2 0x1B9 SWAP2 SWAP1 PUSH2 0x1F1B JUMP JUMPDEST PUSH1 0x40 MLOAD DUP1 SWAP2 SUB SWAP1 RETURN JUMPDEST PUSH2 0x1DC PUSH1 0x4 DUP1 CALLDATASIZE SUB DUP2 ADD SWAP1 PUSH2 0x1D7 SWAP2 SWAP1 PUSH2 0x1F5E JUMP JUMPDEST PUSH2 0x4D9 JUMP JUMPDEST STOP JUMPDEST PUSH2 0x1F8 PUSH1 0x4 DUP1 CALLDATASIZE SUB DUP2 ADD SWAP1 PUSH2 0x1F3 SWAP2 SWAP1 PUSH2 0x1F9C JUMP JUMPDEST PUSH2 0x4EF JUMP JUMPDEST STOP JUMPDEST PUSH2 0x202 PUSH2 0x5EE JUMP JUMPDEST STOP JUMPDEST PUSH2 0x21E PUSH1 0x4 DUP1 CALLDATASIZE SUB DUP2 ADD SWAP1 PUSH2 0x219 SWAP2 SWAP1 PUSH2 0x1F9C JUMP JUMPDEST PUSH2 0x600 JUMP JUMPDEST STOP JUMPDEST PUSH2 0x23A PUSH1 0x4 DUP1 CALLDATASIZE SUB DUP2 ADD SWAP1 PUSH2 0x235 SWAP2 SWAP1 PUSH2 0x1FEC JUMP JUMPDEST PUSH2 0x61F JUMP JUMPDEST PUSH1 0x40 MLOAD PUSH2 0x247 SWAP2 SWAP1 PUSH2 0x1DBB JUMP JUMPDEST PUSH1 0x40 MLOAD DUP1 SWAP2 SUB SWAP1 RETURN JUMPDEST PUSH2 0x258 PUSH2 0x63C JUMP JUMPDEST PUSH1 0x40 MLOAD PUSH2 0x265 SWAP2 SWAP1 PUSH2 0x1DBB JUMP JUMPDEST PUSH1 0x40 MLOAD DUP1 SWAP2 SUB SWAP1 RETURN JUMPDEST PUSH2 0x288 PUSH1 0x4 DUP1 CALLDATASIZE SUB DUP2 ADD SWAP1 PUSH2 0x283 SWAP2 SWAP1 PUSH2 0x1EB1 JUMP JUMPDEST PUSH2 0x651 JUMP JUMPDEST PUSH1 0x40 MLOAD PUSH2 0x295 SWAP2 SWAP1 PUSH2 0x1F1B JUMP JUMPDEST PUSH1 0x40 MLOAD DUP1 SWAP2 SUB SWAP1 RETURN JUMPDEST PUSH2 0x2B8 PUSH1 0x4 DUP1 CALLDATASIZE SUB DUP2 ADD SWAP1 PUSH2 0x2B3 SWAP2 SWAP1 PUSH2 0x1EB1 JUMP JUMPDEST PUSH2 0x662 JUMP JUMPDEST PUSH1 0x40 MLOAD PUSH2 0x2C5 SWAP2 SWAP1 PUSH2 0x1F1B JUMP JUMPDEST PUSH1 0x40 MLOAD DUP1 SWAP2 SUB SWAP1 RETURN JUMPDEST PUSH2 0x2E8 PUSH1 0x4 DUP1 CALLDATASIZE SUB DUP2 ADD SWAP1 PUSH2 0x2E3 SWAP2 SWAP1 PUSH2 0x1FEC JUMP JUMPDEST PUSH2 0x69D JUMP JUMPDEST PUSH1 0x40 MLOAD PUSH2 0x2F5 SWAP2 SWAP1 PUSH2 0x2026 JUMP JUMPDEST PUSH1 0x40 MLOAD DUP1 SWAP2 SUB SWAP1 RETURN JUMPDEST PUSH2 0x306 PUSH2 0x753 JUMP JUMPDEST STOP JUMPDEST PUSH2 0x310 PUSH2 0x766 JUMP JUMPDEST STOP JUMPDEST PUSH2 0x31A PUSH2 0x778 JUMP JUMPDEST PUSH1 0x40 MLOAD PUSH2 0x327 SWAP2 SWAP1 PUSH2 0x1F1B JUMP JUMPDEST PUSH1 0x40 MLOAD DUP1 SWAP2 SUB SWAP1 RETURN JUMPDEST PUSH2 0x338 PUSH2 0x7A1 JUMP JUMPDEST PUSH1 0x40 MLOAD PUSH2 0x345 SWAP2 SWAP1 PUSH2 0x1E5E JUMP JUMPDEST PUSH1 0x40 MLOAD DUP1 SWAP2 SUB SWAP1 RETURN JUMPDEST PUSH2 0x368 PUSH1 0x4 DUP1 CALLDATASIZE SUB DUP2 ADD SWAP1 PUSH2 0x363 SWAP2 SWAP1 PUSH2 0x2069 JUMP JUMPDEST PUSH2 0x831 JUMP JUMPDEST STOP JUMPDEST PUSH2 0x384 PUSH1 0x4 DUP1 CALLDATASIZE SUB DUP2 ADD SWAP1 PUSH2 0x37F SWAP2 SWAP1 PUSH2 0x21D3 JUMP JUMPDEST PUSH2 0x847 JUMP JUMPDEST STOP JUMPDEST PUSH2 0x3A0 PUSH1 0x4 DUP1 CALLDATASIZE SUB DUP2 ADD SWAP1 PUSH2 0x39B SWAP2 SWAP1 PUSH2 0x1EB1 JUMP JUMPDEST PUSH2 0x864 JUMP JUMPDEST PUSH1 0x40 MLOAD PUSH2 0x3AD SWAP2 SWAP1 PUSH2 0x1E5E JUMP JUMPDEST PUSH1 0x40 MLOAD DUP1 SWAP2 SUB SWAP1 RETURN JUMPDEST PUSH2 0x3D0 PUSH1 0x4 DUP1 CALLDATASIZE SUB DUP2 ADD SWAP1 PUSH2 0x3CB SWAP2 SWAP1 PUSH2 0x22F1 JUMP JUMPDEST PUSH2 0x876 JUMP JUMPDEST STOP JUMPDEST PUSH2 0x3EC PUSH1 0x4 DUP1 CALLDATASIZE SUB DUP2 ADD SWAP1 PUSH2 0x3E7 SWAP2 SWAP1 PUSH2 0x234B JUMP JUMPDEST PUSH2 0x8FD JUMP JUMPDEST PUSH1 0x40 MLOAD PUSH2 0x3F9 SWAP2 SWAP1 PUSH2 0x1DBB JUMP JUMPDEST PUSH1 0x40 MLOAD DUP1 SWAP2 SUB SWAP1 RETURN JUMPDEST PUSH2 0x41C PUSH1 0x4 DUP1 CALLDATASIZE SUB DUP2 ADD SWAP1 PUSH2 0x417 SWAP2 SWAP1 PUSH2 0x1FEC JUMP JUMPDEST PUSH2 0x98B JUMP JUMPDEST STOP JUMPDEST PUSH0 PUSH2 0x428 DUP3 PUSH2 0xA0D JUMP JUMPDEST SWAP1 POP SWAP2 SWAP1 POP JUMP JUMPDEST PUSH1 0x60 PUSH0 DUP1 SLOAD PUSH2 0x43D SWAP1 PUSH2 0x23B6 JUMP JUMPDEST DUP1 PUSH1 0x1F ADD PUSH1 0x20 DUP1 SWAP2 DIV MUL PUSH1 0x20 ADD PUSH1 0x40 MLOAD SWAP1 DUP2 ADD PUSH1 0x40 MSTORE DUP1 SWAP3 SWAP2 SWAP1 DUP2 DUP2 MSTORE PUSH1 0x20 ADD DUP3 DUP1 SLOAD PUSH2 0x469 SWAP1 PUSH2 0x23B6 JUMP JUMPDEST DUP1 ISZERO PUSH2 0x4B4 JUMPI DUP1 PUSH1 0x1F LT PUSH2 0x48B JUMPI PUSH2 0x100 DUP1 DUP4 SLOAD DIV MUL DUP4 MSTORE SWAP2 PUSH1 0x20 ADD SWAP2 PUSH2 0x4B4 JUMP JUMPDEST DUP3 ADD SWAP2 SWAP1 PUSH0 MSTORE PUSH1 0x20 PUSH0 KECCAK256 SWAP1 JUMPDEST DUP2 SLOAD DUP2 MSTORE SWAP1 PUSH1 0x1 ADD SWAP1 PUSH1 0x20 ADD DUP1 DUP4 GT PUSH2 0x497 JUMPI DUP3 SWAP1 SUB PUSH1 0x1F AND DUP3 ADD SWAP2 JUMPDEST POP POP POP POP POP SWAP1 POP SWAP1 JUMP JUMPDEST PUSH0 PUSH2 0x4C8 DUP3 PUSH2 0xA6D JUMP JUMPDEST POP PUSH2 0x4D2 DUP3 PUSH2 0xAF3 JUMP JUMPDEST SWAP1 POP SWAP2 SWAP1 POP JUMP JUMPDEST PUSH2 0x4EB DUP3 DUP3 PUSH2 0x4E6 PUSH2 0xB2C JUMP JUMPDEST PUSH2 0xB33 JUMP JUMPDEST POP POP JUMP JUMPDEST PUSH0 PUSH20 0xFFFFFFFFFFFFFFFFFFFFFFFFFFFFFFFFFFFFFFFF AND DUP3 PUSH20 0xFFFFFFFFFFFFFFFFFFFFFFFFFFFFFFFFFFFFFFFF AND SUB PUSH2 0x55F JUMPI PUSH0 PUSH1 0x40 MLOAD PUSH32 0x64A0AE9200000000000000000000000000000000000000000000000000000000 DUP2 MSTORE PUSH1 0x4 ADD PUSH2 0x556 SWAP2 SWAP1 PUSH2 0x1F1B JUMP JUMPDEST PUSH1 0x40 MLOAD DUP1 SWAP2 SUB SWAP1 REVERT JUMPDEST PUSH0 PUSH2 0x572 DUP4 DUP4 PUSH2 0x56D PUSH2 0xB2C JUMP JUMPDEST PUSH2 0xB45 JUMP JUMPDEST SWAP1 POP DUP4 PUSH20 0xFFFFFFFFFFFFFFFFFFFFFFFFFFFFFFFFFFFFFFFF AND DUP2 PUSH20 0xFFFFFFFFFFFFFFFFFFFFFFFFFFFFFFFFFFFFFFFF AND EQ PUSH2 0x5E8 JUMPI DUP4 DUP3 DUP3 PUSH1 0x40 MLOAD PUSH32 0x64283D7B00000000000000000000000000000000000000000000000000000000 DUP2 MSTORE PUSH1 0x4 ADD PUSH2 0x5DF SWAP4 SWAP3 SWAP2 SWAP1 PUSH2 0x23E6 JUMP JUMPDEST PUSH1 0x40 MLOAD DUP1 SWAP2 SUB SWAP1 REVERT JUMPDEST POP POP POP POP JUMP JUMPDEST PUSH2 0x5F6 PUSH2 0xB5A JUMP JUMPDEST PUSH2 0x5FE PUSH2 0xBD8 JUMP JUMPDEST JUMP JUMPDEST PUSH2 0x61A DUP4 DUP4 DUP4 PUSH1 0x40 MLOAD DUP1 PUSH1 0x20 ADD PUSH1 0x40 MSTORE DUP1 PUSH0 DUP2 MSTORE POP PUSH2 0x847 JUMP JUMPDEST POP POP POP JUMP JUMPDEST PUSH1 0xA PUSH1 0x20 MSTORE DUP1 PUSH0 MSTORE PUSH1 0x40 PUSH0 KECCAK256 PUSH0 SWAP2 POP SLOAD SWAP1 PUSH2 0x100 EXP SWAP1 DIV PUSH1 0xFF AND DUP2 JUMP JUMPDEST PUSH0 PUSH1 0x7 PUSH0 SWAP1 SLOAD SWAP1 PUSH2 0x100 EXP SWAP1 DIV PUSH1 0xFF AND SWAP1 POP SWAP1 JUMP JUMPDEST PUSH0 PUSH2 0x65B DUP3 PUSH2 0xA6D JUMP JUMPDEST SWAP1 POP SWAP2 SWAP1 POP JUMP JUMPDEST PUSH1 0xB DUP2 DUP2 SLOAD DUP2 LT PUSH2 0x671 JUMPI PUSH0 DUP1 REVERT JUMPDEST SWAP1 PUSH0 MSTORE PUSH1 0x20 PUSH0 KECCAK256 ADD PUSH0 SWAP2 POP SLOAD SWAP1 PUSH2 0x100 EXP SWAP1 DIV PUSH20 0xFFFFFFFFFFFFFFFFFFFFFFFFFFFFFFFFFFFFFFFF AND DUP2 JUMP JUMPDEST PUSH0 DUP1 PUSH20 0xFFFFFFFFFFFFFFFFFFFFFFFFFFFFFFFFFFFFFFFF AND DUP3 PUSH20 0xFFFFFFFFFFFFFFFFFFFFFFFFFFFFFFFFFFFFFFFF AND SUB PUSH2 0x70E JUMPI PUSH0 PUSH1 0x40 MLOAD PUSH32 0x89C62B6400000000000000000000000000000000000000000000000000000000 DUP2 MSTORE PUSH1 0x4 ADD PUSH2 0x705 SWAP2 SWAP1 PUSH2 0x1F1B JUMP JUMPDEST PUSH1 0x40 MLOAD DUP1 SWAP2 SUB SWAP1 REVERT JUMPDEST PUSH1 0x3 PUSH0 DUP4 PUSH20 0xFFFFFFFFFFFFFFFFFFFFFFFFFFFFFFFFFFFFFFFF AND PUSH20 0xFFFFFFFFFFFFFFFFFFFFFFFFFFFFFFFFFFFFFFFF AND DUP2 MSTORE PUSH1 0x20 ADD SWAP1 DUP2 MSTORE PUSH1 0x20 ADD PUSH0 KECCAK256 SLOAD SWAP1 POP SWAP2 SWAP1 POP JUMP JUMPDEST PUSH2 0x75B PUSH2 0xB5A JUMP JUMPDEST PUSH2 0x764 PUSH0 PUSH2 0xC39 JUMP JUMPDEST JUMP JUMPDEST PUSH2 0x76E PUSH2 0xB5A JUMP JUMPDEST PUSH2 0x776 PUSH2 0xCFE JUMP JUMPDEST JUMP JUMPDEST PUSH0 PUSH1 0x7 PUSH1 0x1 SWAP1 SLOAD SWAP1 PUSH2 0x100 EXP SWAP1 DIV PUSH20 0xFFFFFFFFFFFFFFFFFFFFFFFFFFFFFFFFFFFFFFFF AND SWAP1 POP SWAP1 JUMP JUMPDEST PUSH1 0x60 PUSH1 0x1 DUP1 SLOAD PUSH2 0x7B0 SWAP1 PUSH2 0x23B6 JUMP JUMPDEST DUP1 PUSH1 0x1F ADD PUSH1 0x20 DUP1 SWAP2 DIV MUL PUSH1 0x20 ADD PUSH1 0x40 MLOAD SWAP1 DUP2 ADD PUSH1 0x40 MSTORE DUP1 SWAP3 SWAP2 SWAP1 DUP2 DUP2 MSTORE PUSH1 0x20 ADD DUP3 DUP1 SLOAD PUSH2 0x7DC SWAP1 PUSH2 0x23B6 JUMP JUMPDEST DUP1 ISZERO PUSH2 0x827 JUMPI DUP1 PUSH1 0x1F LT PUSH2 0x7FE JUMPI PUSH2 0x100 DUP1 DUP4 SLOAD DIV MUL DUP4 MSTORE SWAP2 PUSH1 0x20 ADD SWAP2 PUSH2 0x827 JUMP JUMPDEST DUP3 ADD SWAP2 SWAP1 PUSH0 MSTORE PUSH1 0x20 PUSH0 KECCAK256 SWAP1 JUMPDEST DUP2 SLOAD DUP2 MSTORE SWAP1 PUSH1 0x1 ADD SWAP1 PUSH1 0x20 ADD DUP1 DUP4 GT PUSH2 0x80A JUMPI DUP3 SWAP1 SUB PUSH1 0x1F AND DUP3 ADD SWAP2 JUMPDEST POP POP POP POP POP SWAP1 POP SWAP1 JUMP JUMPDEST PUSH2 0x843 PUSH2 0x83C PUSH2 0xB2C JUMP JUMPDEST DUP4 DUP4 PUSH2 0xD60 JUMP JUMPDEST POP POP JUMP JUMPDEST PUSH2 0x852 DUP5 DUP5 DUP5 PUSH2 0x4EF JUMP JUMPDEST PUSH2 0x85E DUP5 DUP5 DUP5 DUP5 PUSH2 0xEC9 JUMP JUMPDEST POP POP POP POP JUMP JUMPDEST PUSH1 0x60 PUSH2 0x86F DUP3 PUSH2 0x107B JUMP JUMPDEST SWAP1 POP SWAP2 SWAP1 POP JUMP JUMPDEST PUSH0 PUSH1 0x8 PUSH0 DUP2 SLOAD DUP1 SWAP3 SWAP2 SWAP1 PUSH2 0x889 SWAP1 PUSH2 0x2448 JUMP JUMPDEST SWAP2 SWAP1 POP SSTORE SWAP1 POP PUSH2 0x899 DUP4 DUP3 PUSH2 0x1186 JUMP JUMPDEST PUSH2 0x8A3 DUP2 DUP4 PUSH2 0x11A3 JUMP JUMPDEST PUSH1 0x1 PUSH1 0x9 PUSH0 DUP6 PUSH20 0xFFFFFFFFFFFFFFFFFFFFFFFFFFFFFFFFFFFFFFFF AND PUSH20 0xFFFFFFFFFFFFFFFFFFFFFFFFFFFFFFFFFFFFFFFF AND DUP2 MSTORE PUSH1 0x20 ADD SWAP1 DUP2 MSTORE PUSH1 0x20 ADD PUSH0 KECCAK256 PUSH0 PUSH2 0x100 EXP DUP2 SLOAD DUP2 PUSH1 0xFF MUL NOT AND SWAP1 DUP4 ISZERO ISZERO MUL OR SWAP1 SSTORE POP POP POP POP JUMP JUMPDEST PUSH0 PUSH1 0x5 PUSH0 DUP5 PUSH20 0xFFFFFFFFFFFFFFFFFFFFFFFFFFFFFFFFFFFFFFFF AND PUSH20 0xFFFFFFFFFFFFFFFFFFFFFFFFFFFFFFFFFFFFFFFF AND DUP2 MSTORE PUSH1 0x20 ADD SWAP1 DUP2 MSTORE PUSH1 0x20 ADD PUSH0 KECCAK256 PUSH0 DUP4 PUSH20 0xFFFFFFFFFFFFFFFFFFFFFFFFFFFFFFFFFFFFFFFF AND PUSH20 0xFFFFFFFFFFFFFFFFFFFFFFFFFFFFFFFFFFFFFFFF AND DUP2 MSTORE PUSH1 0x20 ADD SWAP1 DUP2 MSTORE PUSH1 0x20 ADD PUSH0 KECCAK256 PUSH0 SWAP1 SLOAD SWAP1 PUSH2 0x100 EXP SWAP1 DIV PUSH1 0xFF AND SWAP1 POP SWAP3 SWAP2 POP POP JUMP JUMPDEST PUSH2 0x993 PUSH2 0xB5A JUMP JUMPDEST PUSH0 PUSH20 0xFFFFFFFFFFFFFFFFFFFFFFFFFFFFFFFFFFFFFFFF AND DUP2 PUSH20 0xFFFFFFFFFFFFFFFFFFFFFFFFFFFFFFFFFFFFFFFF AND SUB PUSH2 0xA01 JUMPI PUSH1 0x40 MLOAD PUSH32 0x8C379A000000000000000000000000000000000000000000000000000000000 DUP2 MSTORE PUSH1 0x4 ADD PUSH2 0x9F8 SWAP1 PUSH2 0x24FF JUMP JUMPDEST PUSH1 0x40 MLOAD DUP1 SWAP2 SUB SWAP1 REVERT JUMPDEST PUSH2 0xA0A DUP2 PUSH2 0xC39 JUMP JUMPDEST POP JUMP JUMPDEST PUSH0 PUSH4 0x49064906 PUSH1 0xE0 SHL PUSH28 0xFFFFFFFFFFFFFFFFFFFFFFFFFFFFFFFFFFFFFFFFFFFFFFFFFFFFFFFF NOT AND DUP3 PUSH28 0xFFFFFFFFFFFFFFFFFFFFFFFFFFFFFFFFFFFFFFFFFFFFFFFFFFFFFFFF NOT AND EQ DUP1 PUSH2 0xA66 JUMPI POP PUSH2 0xA65 DUP3 PUSH2 0x11FD JUMP JUMPDEST JUMPDEST SWAP1 POP SWAP2 SWAP1 POP JUMP JUMPDEST PUSH0 DUP1 PUSH2 0xA78 DUP4 PUSH2 0x12DE JUMP JUMPDEST SWAP1 POP PUSH0 PUSH20 0xFFFFFFFFFFFFFFFFFFFFFFFFFFFFFFFFFFFFFFFF AND DUP2 PUSH20 0xFFFFFFFFFFFFFFFFFFFFFFFFFFFFFFFFFFFFFFFF AND SUB PUSH2 0xAEA JUMPI DUP3 PUSH1 0x40 MLOAD PUSH32 0x7E27328900000000000000000000000000000000000000000000000000000000 DUP2 MSTORE PUSH1 0x4 ADD PUSH2 0xAE1 SWAP2 SWAP1 PUSH2 0x2026 JUMP JUMPDEST PUSH1 0x40 MLOAD DUP1 SWAP2 SUB SWAP1 REVERT JUMPDEST DUP1 SWAP2 POP POP SWAP2 SWAP1 POP JUMP JUMPDEST PUSH0 PUSH1 0x4 PUSH0 DUP4 DUP2 MSTORE PUSH1 0x20 ADD SWAP1 DUP2 MSTORE PUSH1 0x20 ADD PUSH0 KECCAK256 PUSH0 SWAP1 SLOAD SWAP1 PUSH2 0x100 EXP SWAP1 DIV PUSH20 0xFFFFFFFFFFFFFFFFFFFFFFFFFFFFFFFFFFFFFFFF AND SWAP1 POP SWAP2 SWAP1 POP JUMP JUMPDEST PUSH0 CALLER SWAP1 POP SWAP1 JUMP JUMPDEST PUSH2 0xB40 DUP4 DUP4 DUP4 PUSH1 0x1 PUSH2 0x1317 JUMP JUMPDEST POP POP POP JUMP JUMPDEST PUSH0 PUSH2 0xB51 DUP5 DUP5 DUP5 PUSH2 0x14D6 JUMP JUMPDEST SWAP1 POP SWAP4 SWAP3 POP POP POP JUMP JUMPDEST PUSH2 0xB62 PUSH2 0xB2C JUMP JUMPDEST PUSH20 0xFFFFFFFFFFFFFFFFFFFFFFFFFFFFFFFFFFFFFFFF AND PUSH2 0xB80 PUSH2 0x778 JUMP JUMPDEST PUSH20 0xFFFFFFFFFFFFFFFFFFFFFFFFFFFFFFFFFFFFFFFF AND EQ PUSH2 0xBD6 JUMPI PUSH1 0x40 MLOAD PUSH32 0x8C379A000000000000000000000000000000000000000000000000000000000 DUP2 MSTORE PUSH1 0x4 ADD PUSH2 0xBCD SWAP1 PUSH2 0x2567 JUMP JUMPDEST PUSH1 0x40 MLOAD DUP1 SWAP2 SUB SWAP1 REVERT JUMPDEST JUMP JUMPDEST PUSH2 0xBE0 PUSH2 0x14F3 JUMP JUMPDEST PUSH0 PUSH1 0x7 PUSH0 PUSH2 0x100 EXP DUP2 SLOAD DUP2 PUSH1 0xFF MUL NOT AND SWAP1 DUP4 ISZERO ISZERO MUL OR SWAP1 SSTORE POP PUSH32 0x5DB9EE0A495BF2E6FF9C91A7834C1BA4FDD244A5E8AA4E537BD38AEAE4B073AA PUSH2 0xC22 PUSH2 0xB2C JUMP JUMPDEST PUSH1 0x40 MLOAD PUSH2 0xC2F SWAP2 SWAP1 PUSH2 0x1F1B JUMP JUMPDEST PUSH1 0x40 MLOAD DUP1 SWAP2 SUB SWAP1 LOG1 JUMP JUMPDEST PUSH0 PUSH1 0x7 PUSH1 0x1 SWAP1 SLOAD SWAP1 PUSH2 0x100 EXP SWAP1 DIV PUSH20 0xFFFFFFFFFFFFFFFFFFFFFFFFFFFFFFFFFFFFFFFF AND SWAP1 POP DUP2 PUSH1 0x7 PUSH1 0x1 PUSH2 0x100 EXP DUP2 SLOAD DUP2 PUSH20 0xFFFFFFFFFFFFFFFFFFFFFFFFFFFFFFFFFFFFFFFF MUL NOT AND SWAP1 DUP4 PUSH20 0xFFFFFFFFFFFFFFFFFFFFFFFFFFFFFFFFFFFFFFFF AND MUL OR SWAP1 SSTORE POP DUP2 PUSH20 0xFFFFFFFFFFFFFFFFFFFFFFFFFFFFFFFFFFFFFFFF AND DUP2 PUSH20 0xFFFFFFFFFFFFFFFFFFFFFFFFFFFFFFFFFFFFFFFF AND PUSH32 0x8BE0079C531659141344CD1FD0A4F28419497F9722A3DAAFE3B4186F6B6457E0 PUSH1 0x40 MLOAD PUSH1 0x40 MLOAD DUP1 SWAP2 SUB SWAP1 LOG3 POP POP JUMP JUMPDEST PUSH2 0xD06 PUSH2 0x1533 JUMP JUMPDEST PUSH1 0x1 PUSH1 0x7 PUSH0 PUSH2 0x100 EXP DUP2 SLOAD DUP2 PUSH1 0xFF MUL NOT AND SWAP1 DUP4 ISZERO ISZERO MUL OR SWAP1 SSTORE POP PUSH32 0x62E78CEA01BEE320CD4E420270B5EA74000D11B0C9F74754EBDBFC544B05A258 PUSH2 0xD49 PUSH2 0xB2C JUMP JUMPDEST PUSH1 0x40 MLOAD PUSH2 0xD56 SWAP2 SWAP1 PUSH2 0x1F1B JUMP JUMPDEST PUSH1 0x40 MLOAD DUP1 SWAP2 SUB SWAP1 LOG1 JUMP JUMPDEST PUSH0 PUSH20 0xFFFFFFFFFFFFFFFFFFFFFFFFFFFFFFFFFFFFFFFF AND DUP3 PUSH20 0xFFFFFFFFFFFFFFFFFFFFFFFFFFFFFFFFFFFFFFFF AND SUB PUSH2 0xDD0 JUMPI DUP2 PUSH1 0x40 MLOAD PUSH32 0x5B08BA1800000000000000000000000000000000000000000000000000000000 DUP2 MSTORE PUSH1 0x4 ADD PUSH2 0xDC7 SWAP2 SWAP1 PUSH2 0x1F1B JUMP JUMPDEST PUSH1 0x40 MLOAD DUP1 SWAP2 SUB SWAP1 REVERT JUMPDEST DUP1 PUSH1 0x5 PUSH0 DUP6 PUSH20 0xFFFFFFFFFFFFFFFFFFFFFFFFFFFFFFFFFFFFFFFF AND PUSH20 0xFFFFFFFFFFFFFFFFFFFFFFFFFFFFFFFFFFFFFFFF AND DUP2 MSTORE PUSH1 0x20 ADD SWAP1 DUP2 MSTORE PUSH1 0x20 ADD PUSH0 KECCAK256 PUSH0 DUP5 PUSH20 0xFFFFFFFFFFFFFFFFFFFFFFFFFFFFFFFFFFFFFFFF AND PUSH20 0xFFFFFFFFFFFFFFFFFFFFFFFFFFFFFFFFFFFFFFFF AND DUP2 MSTORE PUSH1 0x20 ADD SWAP1 DUP2 MSTORE PUSH1 0x20 ADD PUSH0 KECCAK256 PUSH0 PUSH2 0x100 EXP DUP2 SLOAD DUP2 PUSH1 0xFF MUL NOT AND SWAP1 DUP4 ISZERO ISZERO MUL OR SWAP1 SSTORE POP DUP2 PUSH20 0xFFFFFFFFFFFFFFFFFFFFFFFFFFFFFFFFFFFFFFFF AND DUP4 PUSH20 0xFFFFFFFFFFFFFFFFFFFFFFFFFFFFFFFFFFFFFFFF AND PUSH32 0x17307EAB39AB6107E8899845AD3D59BD9653F200F220920489CA2B5937696C31 DUP4 PUSH1 0x40 MLOAD PUSH2 0xEBC SWAP2 SWAP1 PUSH2 0x1DBB JUMP JUMPDEST PUSH1 0x40 MLOAD DUP1 SWAP2 SUB SWAP1 LOG3 POP POP POP JUMP JUMPDEST PUSH0 DUP4 PUSH20 0xFFFFFFFFFFFFFFFFFFFFFFFFFFFFFFFFFFFFFFFF AND EXTCODESIZE GT ISZERO PUSH2 0x1075 JUMPI DUP3 PUSH20 0xFFFFFFFFFFFFFFFFFFFFFFFFFFFFFFFFFFFFFFFF AND PUSH4 0x150B7A02 PUSH2 0xF0C PUSH2 0xB2C JUMP JUMPDEST DUP7 DUP6 DUP6 PUSH1 0x40 MLOAD DUP6 PUSH4 0xFFFFFFFF AND PUSH1 0xE0 SHL DUP2 MSTORE PUSH1 0x4 ADD PUSH2 0xF2E SWAP5 SWAP4 SWAP3 SWAP2 SWAP1 PUSH2 0x25D7 JUMP JUMPDEST PUSH1 0x20 PUSH1 0x40 MLOAD DUP1 DUP4 SUB DUP2 PUSH0 DUP8 GAS CALL SWAP3 POP POP POP DUP1 ISZERO PUSH2 0xF69 JUMPI POP PUSH1 0x40 MLOAD RETURNDATASIZE PUSH1 0x1F NOT PUSH1 0x1F DUP3 ADD AND DUP3 ADD DUP1 PUSH1 0x40 MSTORE POP DUP2 ADD SWAP1 PUSH2 0xF66 SWAP2 SWAP1 PUSH2 0x2635 JUMP JUMPDEST PUSH1 0x1 JUMPDEST PUSH2 0xFEA JUMPI RETURNDATASIZE DUP1 PUSH0 DUP2 EQ PUSH2 0xF97 JUMPI PUSH1 0x40 MLOAD SWAP2 POP PUSH1 0x1F NOT PUSH1 0x3F RETURNDATASIZE ADD AND DUP3 ADD PUSH1 0x40 MSTORE RETURNDATASIZE DUP3 MSTORE RETURNDATASIZE PUSH0 PUSH1 0x20 DUP5 ADD RETURNDATACOPY PUSH2 0xF9C JUMP JUMPDEST PUSH1 0x60 SWAP2 POP JUMPDEST POP PUSH0 DUP2 MLOAD SUB PUSH2 0xFE2 JUMPI DUP4 PUSH1 0x40 MLOAD PUSH32 0x64A0AE9200000000000000000000000000000000000000000000000000000000 DUP2 MSTORE PUSH1 0x4 ADD PUSH2 0xFD9 SWAP2 SWAP1 PUSH2 0x1F1B JUMP JUMPDEST PUSH1 0x40 MLOAD DUP1 SWAP2 SUB SWAP1 REVERT JUMPDEST DUP1 MLOAD DUP2 PUSH1 0x20 ADD REVERT JUMPDEST PUSH4 0x150B7A02 PUSH1 0xE0 SHL PUSH28 0xFFFFFFFFFFFFFFFFFFFFFFFFFFFFFFFFFFFFFFFFFFFFFFFFFFFFFFFF NOT AND DUP2 PUSH28 0xFFFFFFFFFFFFFFFFFFFFFFFFFFFFFFFFFFFFFFFFFFFFFFFFFFFFFFFF NOT AND EQ PUSH2 0x1073 JUMPI DUP4 PUSH1 0x40 MLOAD PUSH32 0x64A0AE9200000000000000000000000000000000000000000000000000000000 DUP2 MSTORE PUSH1 0x4 ADD PUSH2 0x106A SWAP2 SWAP1 PUSH2 0x1F1B JUMP JUMPDEST PUSH1 0x40 MLOAD DUP1 SWAP2 SUB SWAP1 REVERT JUMPDEST POP JUMPDEST POP POP POP POP JUMP JUMPDEST PUSH1 0x60 PUSH2 0x1086 DUP3 PUSH2 0xA6D JUMP JUMPDEST POP PUSH0 PUSH1 0x6 PUSH0 DUP5 DUP2 MSTORE PUSH1 0x20 ADD SWAP1 DUP2 MSTORE PUSH1 0x20 ADD PUSH0 KECCAK256 DUP1 SLOAD PUSH2 0x10A4 SWAP1 PUSH2 0x23B6 JUMP JUMPDEST DUP1 PUSH1 0x1F ADD PUSH1 0x20 DUP1 SWAP2 DIV MUL PUSH1 0x20 ADD PUSH1 0x40 MLOAD SWAP1 DUP2 ADD PUSH1 0x40 MSTORE DUP1 SWAP3 SWAP2 SWAP1 DUP2 DUP2 MSTORE PUSH1 0x20 ADD DUP3 DUP1 SLOAD PUSH2 0x10D0 SWAP1 PUSH2 0x23B6 JUMP JUMPDEST DUP1 ISZERO PUSH2 0x111B JUMPI DUP1 PUSH1 0x1F LT PUSH2 0x10F2 JUMPI PUSH2 0x100 DUP1 DUP4 SLOAD DIV MUL DUP4 MSTORE SWAP2 PUSH1 0x20 ADD SWAP2 PUSH2 0x111B JUMP JUMPDEST DUP3 ADD SWAP2 SWAP1 PUSH0 MSTORE PUSH1 0x20 PUSH0 KECCAK256 SWAP1 JUMPDEST DUP2 SLOAD DUP2 MSTORE SWAP1 PUSH1 0x1 ADD SWAP1 PUSH1 0x20 ADD DUP1 DUP4 GT PUSH2 0x10FE JUMPI DUP3 SWAP1 SUB PUSH1 0x1F AND DUP3 ADD SWAP2 JUMPDEST POP POP POP POP POP SWAP1 POP PUSH0 PUSH2 0x112B PUSH2 0x1574 JUMP JUMPDEST SWAP1 POP PUSH0 DUP2 MLOAD SUB PUSH2 0x113F JUMPI DUP2 SWAP3 POP POP POP PUSH2 0x1181 JUMP JUMPDEST PUSH0 DUP3 MLOAD GT ISZERO PUSH2 0x1173 JUMPI DUP1 DUP3 PUSH1 0x40 MLOAD PUSH1 0x20 ADD PUSH2 0x115B SWAP3 SWAP2 SWAP1 PUSH2 0x269A JUMP JUMPDEST PUSH1 0x40 MLOAD PUSH1 0x20 DUP2 DUP4 SUB SUB DUP2 MSTORE SWAP1 PUSH1 0x40 MSTORE SWAP3 POP POP POP PUSH2 0x1181 JUMP JUMPDEST PUSH2 0x117C DUP5 PUSH2 0x158A JUMP JUMPDEST SWAP3 POP POP POP JUMPDEST SWAP2 SWAP1 POP JUMP JUMPDEST PUSH2 0x119F DUP3 DUP3 PUSH1 0x40 MLOAD DUP1 PUSH1 0x20 ADD PUSH1 0x40 MSTORE DUP1 PUSH0 DUP2 MSTORE POP PUSH2 0x15F0 JUMP JUMPDEST POP POP JUMP JUMPDEST DUP1 PUSH1 0x6 PUSH0 DUP5 DUP2 MSTORE PUSH1 0x20 ADD SWAP1 DUP2 MSTORE PUSH1 0x20 ADD PUSH0 KECCAK256 SWAP1 DUP2 PUSH2 0x11C1 SWAP2 SWAP1 PUSH2 0x285A JUMP JUMPDEST POP PUSH32 0xF8E1A15ABA9398E019F0B49DF1A4FDE98EE17AE345CB5F6B5E2C27F5033E8CE7 DUP3 PUSH1 0x40 MLOAD PUSH2 0x11F1 SWAP2 SWAP1 PUSH2 0x2026 JUMP JUMPDEST PUSH1 0x40 MLOAD DUP1 SWAP2 SUB SWAP1 LOG1 POP POP JUMP JUMPDEST PUSH0 PUSH32 0x80AC58CD00000000000000000000000000000000000000000000000000000000 PUSH28 0xFFFFFFFFFFFFFFFFFFFFFFFFFFFFFFFFFFFFFFFFFFFFFFFFFFFFFFFF NOT AND DUP3 PUSH28 0xFFFFFFFFFFFFFFFFFFFFFFFFFFFFFFFFFFFFFFFFFFFFFFFFFFFFFFFF NOT AND EQ DUP1 PUSH2 0x12C7 JUMPI POP PUSH32 0x5B5E139F00000000000000000000000000000000000000000000000000000000 PUSH28 0xFFFFFFFFFFFFFFFFFFFFFFFFFFFFFFFFFFFFFFFFFFFFFFFFFFFFFFFF NOT AND DUP3 PUSH28 0xFFFFFFFFFFFFFFFFFFFFFFFFFFFFFFFFFFFFFFFFFFFFFFFFFFFFFFFF NOT AND EQ JUMPDEST DUP1 PUSH2 0x12D7 JUMPI POP PUSH2 0x12D6 DUP3 PUSH2 0x160B JUMP JUMPDEST JUMPDEST SWAP1 POP SWAP2 SWAP1 POP JUMP JUMPDEST PUSH0 PUSH1 0x2 PUSH0 DUP4 DUP2 MSTORE PUSH1 0x20 ADD SWAP1 DUP2 MSTORE PUSH1 0x20 ADD PUSH0 KECCAK256 PUSH0 SWAP1 SLOAD SWAP1 PUSH2 0x100 EXP SWAP1 DIV PUSH20 0xFFFFFFFFFFFFFFFFFFFFFFFFFFFFFFFFFFFFFFFF AND SWAP1 POP SWAP2 SWAP1 POP JUMP JUMPDEST DUP1 DUP1 PUSH2 0x134F JUMPI POP PUSH0 PUSH20 0xFFFFFFFFFFFFFFFFFFFFFFFFFFFFFFFFFFFFFFFF AND DUP3 PUSH20 0xFFFFFFFFFFFFFFFFFFFFFFFFFFFFFFFFFFFFFFFF AND EQ ISZERO JUMPDEST ISZERO PUSH2 0x1481 JUMPI PUSH0 PUSH2 0x135E DUP5 PUSH2 0xA6D JUMP JUMPDEST SWAP1 POP PUSH0 PUSH20 0xFFFFFFFFFFFFFFFFFFFFFFFFFFFFFFFFFFFFFFFF AND DUP4 PUSH20 0xFFFFFFFFFFFFFFFFFFFFFFFFFFFFFFFFFFFFFFFF AND EQ ISZERO DUP1 ISZERO PUSH2 0x13C8 JUMPI POP DUP3 PUSH20 0xFFFFFFFFFFFFFFFFFFFFFFFFFFFFFFFFFFFFFFFF AND DUP2 PUSH20 0xFFFFFFFFFFFFFFFFFFFFFFFFFFFFFFFFFFFFFFFF AND EQ ISZERO JUMPDEST DUP1 ISZERO PUSH2 0x13DB JUMPI POP PUSH2 0x13D9 DUP2 DUP5 PUSH2 0x8FD JUMP JUMPDEST ISZERO JUMPDEST ISZERO PUSH2 0x141D JUMPI DUP3 PUSH1 0x40 MLOAD PUSH32 0xA9FBF51F00000000000000000000000000000000000000000000000000000000 DUP2 MSTORE PUSH1 0x4 ADD PUSH2 0x1414 SWAP2 SWAP1 PUSH2 0x1F1B JUMP JUMPDEST PUSH1 0x40 MLOAD DUP1 SWAP2 SUB SWAP1 REVERT JUMPDEST DUP2 ISZERO PUSH2 0x147F JUMPI DUP4 DUP6 PUSH20 0xFFFFFFFFFFFFFFFFFFFFFFFFFFFFFFFFFFFFFFFF AND DUP3 PUSH20 0xFFFFFFFFFFFFFFFFFFFFFFFFFFFFFFFFFFFFFFFF AND PUSH32 0x8C5BE1E5EBEC7D5BD14F71427D1E84F3DD0314C0F7B2291E5B200AC8C7C3B925 PUSH1 0x40 MLOAD PUSH1 0x40 MLOAD DUP1 SWAP2 SUB SWAP1 LOG4 JUMPDEST POP JUMPDEST DUP4 PUSH1 0x4 PUSH0 DUP6 DUP2 MSTORE PUSH1 0x20 ADD SWAP1 DUP2 MSTORE PUSH1 0x20 ADD PUSH0 KECCAK256 PUSH0 PUSH2 0x100 EXP DUP2 SLOAD DUP2 PUSH20 0xFFFFFFFFFFFFFFFFFFFFFFFFFFFFFFFFFFFFFFFF MUL NOT AND SWAP1 DUP4 PUSH20 0xFFFFFFFFFFFFFFFFFFFFFFFFFFFFFFFFFFFFFFFF AND MUL OR SWAP1 SSTORE POP POP POP POP POP JUMP JUMPDEST PUSH0 PUSH2 0x14DF PUSH2 0x1533 JUMP JUMPDEST PUSH2 0x14EA DUP5 DUP5 DUP5 PUSH2 0x1674 JUMP JUMPDEST SWAP1 POP SWAP4 SWAP3 POP POP POP JUMP JUMPDEST PUSH2 0x14FB PUSH2 0x63C JUMP JUMPDEST PUSH2 0x1531 JUMPI PUSH1 0x40 MLOAD PUSH32 0x8DFC202B00000000000000000000000000000000000000000000000000000000 DUP2 MSTORE PUSH1 0x4 ADD PUSH1 0x40 MLOAD DUP1 SWAP2 SUB SWAP1 REVERT JUMPDEST JUMP JUMPDEST PUSH2 0x153B PUSH2 0x63C JUMP JUMPDEST ISZERO PUSH2 0x1572 JUMPI PUSH1 0x40 MLOAD PUSH32 0xD93C066500000000000000000000000000000000000000000000000000000000 DUP2 MSTORE PUSH1 0x4 ADD PUSH1 0x40 MLOAD DUP1 SWAP2 SUB SWAP1 REVERT JUMPDEST JUMP JUMPDEST PUSH1 0x60 PUSH1 0x40 MLOAD DUP1 PUSH1 0x20 ADD PUSH1 0x40 MSTORE DUP1 PUSH0 DUP2 MSTORE POP SWAP1 POP SWAP1 JUMP JUMPDEST PUSH1 0x60 PUSH2 0x1595 DUP3 PUSH2 0xA6D JUMP JUMPDEST POP PUSH0 PUSH2 0x159F PUSH2 0x1574 JUMP JUMPDEST SWAP1 POP PUSH0 DUP2 MLOAD GT PUSH2 0x15BD JUMPI PUSH1 0x40 MLOAD DUP1 PUSH1 0x20 ADD PUSH1 0x40 MSTORE DUP1 PUSH0 DUP2 MSTORE POP PUSH2 0x15E8 JUMP JUMPDEST DUP1 PUSH2 0x15C7 DUP5 PUSH2 0x187F JUMP JUMPDEST PUSH1 0x40 MLOAD PUSH1 0x20 ADD PUSH2 0x15D8 SWAP3 SWAP2 SWAP1 PUSH2 0x269A JUMP JUMPDEST PUSH1 0x40 MLOAD PUSH1 0x20 DUP2 DUP4 SUB SUB DUP2 MSTORE SWAP1 PUSH1 0x40 MSTORE JUMPDEST SWAP2 POP POP SWAP2 SWAP1 POP JUMP JUMPDEST PUSH2 0x15FA DUP4 DUP4 PUSH2 0x1949 JUMP JUMPDEST PUSH2 0x1606 PUSH0 DUP5 DUP5 DUP5 PUSH2 0xEC9 JUMP JUMPDEST POP POP POP JUMP JUMPDEST PUSH0 PUSH32 0x1FFC9A700000000000000000000000000000000000000000000000000000000 PUSH28 0xFFFFFFFFFFFFFFFFFFFFFFFFFFFFFFFFFFFFFFFFFFFFFFFFFFFFFFFF NOT AND DUP3 PUSH28 0xFFFFFFFFFFFFFFFFFFFFFFFFFFFFFFFFFFFFFFFFFFFFFFFFFFFFFFFF NOT AND EQ SWAP1 POP SWAP2 SWAP1 POP JUMP JUMPDEST PUSH0 DUP1 PUSH2 0x167F DUP5 PUSH2 0x12DE JUMP JUMPDEST SWAP1 POP PUSH0 PUSH20 0xFFFFFFFFFFFFFFFFFFFFFFFFFFFFFFFFFFFFFFFF AND DUP4 PUSH20 0xFFFFFFFFFFFFFFFFFFFFFFFFFFFFFFFFFFFFFFFF AND EQ PUSH2 0x16C0 JUMPI PUSH2 0x16BF DUP2 DUP5 DUP7 PUSH2 0x1A3C JUMP JUMPDEST JUMPDEST PUSH0 PUSH20 0xFFFFFFFFFFFFFFFFFFFFFFFFFFFFFFFFFFFFFFFF AND DUP2 PUSH20 0xFFFFFFFFFFFFFFFFFFFFFFFFFFFFFFFFFFFFFFFF AND EQ PUSH2 0x174B JUMPI PUSH2 0x16FF PUSH0 DUP6 PUSH0 DUP1 PUSH2 0x1317 JUMP JUMPDEST PUSH1 0x1 PUSH1 0x3 PUSH0 DUP4 PUSH20 0xFFFFFFFFFFFFFFFFFFFFFFFFFFFFFFFFFFFFFFFF AND PUSH20 0xFFFFFFFFFFFFFFFFFFFFFFFFFFFFFFFFFFFFFFFF AND DUP2 MSTORE PUSH1 0x20 ADD SWAP1 DUP2 MSTORE PUSH1 0x20 ADD PUSH0 KECCAK256 PUSH0 DUP3 DUP3 SLOAD SUB SWAP3 POP POP DUP2 SWAP1 SSTORE POP JUMPDEST PUSH0 PUSH20 0xFFFFFFFFFFFFFFFFFFFFFFFFFFFFFFFFFFFFFFFF AND DUP6 PUSH20 0xFFFFFFFFFFFFFFFFFFFFFFFFFFFFFFFFFFFFFFFF AND EQ PUSH2 0x17CA JUMPI PUSH1 0x1 PUSH1 0x3 PUSH0 DUP8 PUSH20 0xFFFFFFFFFFFFFFFFFFFFFFFFFFFFFFFFFFFFFFFF AND PUSH20 0xFFFFFFFFFFFFFFFFFFFFFFFFFFFFFFFFFFFFFFFF AND DUP2 MSTORE PUSH1 0x20 ADD SWAP1 DUP2 MSTORE PUSH1 0x20 ADD PUSH0 KECCAK256 PUSH0 DUP3 DUP3 SLOAD ADD SWAP3 POP POP DUP2 SWAP1 SSTORE POP JUMPDEST DUP5 PUSH1 0x2 PUSH0 DUP7 DUP2 MSTORE PUSH1 0x20 ADD SWAP1 DUP2 MSTORE PUSH1 0x20 ADD PUSH0 KECCAK256 PUSH0 PUSH2 0x100 EXP DUP2 SLOAD DUP2 PUSH20 0xFFFFFFFFFFFFFFFFFFFFFFFFFFFFFFFFFFFFFFFF MUL NOT AND SWAP1 DUP4 PUSH20 0xFFFFFFFFFFFFFFFFFFFFFFFFFFFFFFFFFFFFFFFF AND MUL OR SWAP1 SSTORE POP DUP4 DUP6 PUSH20 0xFFFFFFFFFFFFFFFFFFFFFFFFFFFFFFFFFFFFFFFF AND DUP3 PUSH20 0xFFFFFFFFFFFFFFFFFFFFFFFFFFFFFFFFFFFFFFFF AND PUSH32 0xDDF252AD1BE2C89B69C2B068FC378DAA952BA7F163C4A11628F55A4DF523B3EF PUSH1 0x40 MLOAD PUSH1 0x40 MLOAD DUP1 SWAP2 SUB SWAP1 LOG4 DUP1 SWAP2 POP POP SWAP4 SWAP3 POP POP POP JUMP JUMPDEST PUSH1 0x60 PUSH0 PUSH1 0x1 PUSH2 0x188D DUP5 PUSH2 0x1AFF JUMP JUMPDEST ADD SWAP1 POP PUSH0 DUP2 PUSH8 0xFFFFFFFFFFFFFFFF DUP2 GT ISZERO PUSH2 0x18AB JUMPI PUSH2 0x18AA PUSH2 0x20AF JUMP JUMPDEST JUMPDEST PUSH1 0x40 MLOAD SWAP1 DUP1 DUP3 MSTORE DUP1 PUSH1 0x1F ADD PUSH1 0x1F NOT AND PUSH1 0x20 ADD DUP3 ADD PUSH1 0x40 MSTORE DUP1 ISZERO PUSH2 0x18DD JUMPI DUP2 PUSH1 0x20 ADD PUSH1 0x1 DUP3 MUL DUP1 CALLDATASIZE DUP4 CALLDATACOPY DUP1 DUP3 ADD SWAP2 POP POP SWAP1 POP JUMPDEST POP SWAP1 POP PUSH0 DUP3 PUSH1 0x20 ADD DUP3 ADD SWAP1 POP JUMPDEST PUSH1 0x1 ISZERO PUSH2 0x193E JUMPI DUP1 DUP1 PUSH1 0x1 SWAP1 SUB SWAP2 POP POP PUSH32 0x3031323334353637383961626364656600000000000000000000000000000000 PUSH1 0xA DUP7 MOD BYTE DUP2 MSTORE8 PUSH1 0xA DUP6 DUP2 PUSH2 0x1933 JUMPI PUSH2 0x1932 PUSH2 0x2929 JUMP JUMPDEST JUMPDEST DIV SWAP5 POP PUSH0 DUP6 SUB PUSH2 0x18EA JUMPI JUMPDEST DUP2 SWAP4 POP POP POP POP SWAP2 SWAP1 POP JUMP JUMPDEST PUSH0 PUSH20 0xFFFFFFFFFFFFFFFFFFFFFFFFFFFFFFFFFFFFFFFF AND DUP3 PUSH20 0xFFFFFFFFFFFFFFFFFFFFFFFFFFFFFFFFFFFFFFFF AND SUB PUSH2 0x19B9 JUMPI PUSH0 PUSH1 0x40 MLOAD PUSH32 0x64A0AE9200000000000000000000000000000000000000000000000000000000 DUP2 MSTORE PUSH1 0x4 ADD PUSH2 0x19B0 SWAP2 SWAP1 PUSH2 0x1F1B JUMP JUMPDEST PUSH1 0x40 MLOAD DUP1 SWAP2 SUB SWAP1 REVERT JUMPDEST PUSH0 PUSH2 0x19C5 DUP4 DUP4 PUSH0 PUSH2 0xB45 JUMP JUMPDEST SWAP1 POP PUSH0 PUSH20 0xFFFFFFFFFFFFFFFFFFFFFFFFFFFFFFFFFFFFFFFF AND DUP2 PUSH20 0xFFFFFFFFFFFFFFFFFFFFFFFFFFFFFFFFFFFFFFFF AND EQ PUSH2 0x1A37 JUMPI PUSH0 PUSH1 0x40 MLOAD PUSH32 0x73C6AC6E00000000000000000000000000000000000000000000000000000000 DUP2 MSTORE PUSH1 0x4 ADD PUSH2 0x1A2E SWAP2 SWAP1 PUSH2 0x1F1B JUMP JUMPDEST PUSH1 0x40 MLOAD DUP1 SWAP2 SUB SWAP1 REVERT JUMPDEST POP POP POP JUMP JUMPDEST PUSH2 0x1A47 DUP4 DUP4 DUP4 PUSH2 0x1C50 JUMP JUMPDEST PUSH2 0x1AFA JUMPI PUSH0 PUSH20 0xFFFFFFFFFFFFFFFFFFFFFFFFFFFFFFFFFFFFFFFF AND DUP4 PUSH20 0xFFFFFFFFFFFFFFFFFFFFFFFFFFFFFFFFFFFFFFFF AND SUB PUSH2 0x1ABB JUMPI DUP1 PUSH1 0x40 MLOAD PUSH32 0x7E27328900000000000000000000000000000000000000000000000000000000 DUP2 MSTORE PUSH1 0x4 ADD PUSH2 0x1AB2 SWAP2 SWAP1 PUSH2 0x2026 JUMP JUMPDEST PUSH1 0x40 MLOAD DUP1 SWAP2 SUB SWAP1 REVERT JUMPDEST DUP2 DUP2 PUSH1 0x40 MLOAD PUSH32 0x177E802F00000000000000000000000000000000000000000000000000000000 DUP2 MSTORE PUSH1 0x4 ADD PUSH2 0x1AF1 SWAP3 SWAP2 SWAP1 PUSH2 0x2956 JUMP JUMPDEST PUSH1 0x40 MLOAD DUP1 SWAP2 SUB SWAP1 REVERT JUMPDEST POP POP POP JUMP JUMPDEST PUSH0 DUP1 PUSH0 SWAP1 POP PUSH27 0x184F03E93FF9F4DAA797ED6E38ED64BF6A1F010000000000000000 DUP4 LT PUSH2 0x1B5B JUMPI PUSH27 0x184F03E93FF9F4DAA797ED6E38ED64BF6A1F010000000000000000 DUP4 DUP2 PUSH2 0x1B51 JUMPI PUSH2 0x1B50 PUSH2 0x2929 JUMP JUMPDEST JUMPDEST DIV SWAP3 POP PUSH1 0x40 DUP2 ADD SWAP1 POP JUMPDEST PUSH14 0x4EE2D6D415B85ACEF8100000000 DUP4 LT PUSH2 0x1B98 JUMPI PUSH14 0x4EE2D6D415B85ACEF8100000000 DUP4 DUP2 PUSH2 0x1B8E JUMPI PUSH2 0x1B8D PUSH2 0x2929 JUMP JUMPDEST JUMPDEST DIV SWAP3 POP PUSH1 0x20 DUP2 ADD SWAP1 POP JUMPDEST PUSH7 0x2386F26FC10000 DUP4 LT PUSH2 0x1BC7 JUMPI PUSH7 0x2386F26FC10000 DUP4 DUP2 PUSH2 0x1BBD JUMPI PUSH2 0x1BBC PUSH2 0x2929 JUMP JUMPDEST JUMPDEST DIV SWAP3 POP PUSH1 0x10 DUP2 ADD SWAP1 POP JUMPDEST PUSH4 0x5F5E100 DUP4 LT PUSH2 0x1BF0 JUMPI PUSH4 0x5F5E100 DUP4 DUP2 PUSH2 0x1BE6 JUMPI PUSH2 0x1BE5 PUSH2 0x2929 JUMP JUMPDEST JUMPDEST DIV SWAP3 POP PUSH1 0x8 DUP2 ADD SWAP1 POP JUMPDEST PUSH2 0x2710 DUP4 LT PUSH2 0x1C15 JUMPI PUSH2 0x2710 DUP4 DUP2 PUSH2 0x1C0B JUMPI PUSH2 0x1C0A PUSH2 0x2929 JUMP JUMPDEST JUMPDEST DIV SWAP3 POP PUSH1 0x4 DUP2 ADD SWAP1 POP JUMPDEST PUSH1 0x64 DUP4 LT PUSH2 0x1C38 JUMPI PUSH1 0x64 DUP4 DUP2 PUSH2 0x1C2E JUMPI PUSH2 0x1C2D PUSH2 0x2929 JUMP JUMPDEST JUMPDEST DIV SWAP3 POP PUSH1 0x2 DUP2 ADD SWAP1 POP JUMPDEST PUSH1 0xA DUP4 LT PUSH2 0x1C47 JUMPI PUSH1 0x1 DUP2 ADD SWAP1 POP JUMPDEST DUP1 SWAP2 POP POP SWAP2 SWAP1 POP JUMP JUMPDEST PUSH0 DUP1 PUSH20 0xFFFFFFFFFFFFFFFFFFFFFFFFFFFFFFFFFFFFFFFF AND DUP4 PUSH20 0xFFFFFFFFFFFFFFFFFFFFFFFFFFFFFFFFFFFFFFFF AND EQ ISZERO DUP1 ISZERO PUSH2 0x1D07 JUMPI POP DUP3 PUSH20 0xFFFFFFFFFFFFFFFFFFFFFFFFFFFFFFFFFFFFFFFF AND DUP5 PUSH20 0xFFFFFFFFFFFFFFFFFFFFFFFFFFFFFFFFFFFFFFFF AND EQ DUP1 PUSH2 0x1CC8 JUMPI POP PUSH2 0x1CC7 DUP5 DUP5 PUSH2 0x8FD JUMP JUMPDEST JUMPDEST DUP1 PUSH2 0x1D06 JUMPI POP DUP3 PUSH20 0xFFFFFFFFFFFFFFFFFFFFFFFFFFFFFFFFFFFFFFFF AND PUSH2 0x1CEE DUP4 PUSH2 0xAF3 JUMP JUMPDEST PUSH20 0xFFFFFFFFFFFFFFFFFFFFFFFFFFFFFFFFFFFFFFFF AND EQ JUMPDEST JUMPDEST SWAP1 POP SWAP4 SWAP3 POP POP POP JUMP JUMPDEST PUSH0 PUSH1 0x40 MLOAD SWAP1 POP SWAP1 JUMP JUMPDEST PUSH0 DUP1 REVERT JUMPDEST PUSH0 DUP1 REVERT JUMPDEST PUSH0 PUSH32 0xFFFFFFFF00000000000000000000000000000000000000000000000000000000 DUP3 AND SWAP1 POP SWAP2 SWAP1 POP JUMP JUMPDEST PUSH2 0x1D55 DUP2 PUSH2 0x1D21 JUMP JUMPDEST DUP2 EQ PUSH2 0x1D5F JUMPI PUSH0 DUP1 REVERT JUMPDEST POP JUMP JUMPDEST PUSH0 DUP2 CALLDATALOAD SWAP1 POP PUSH2 0x1D70 DUP2 PUSH2 0x1D4C JUMP JUMPDEST SWAP3 SWAP2 POP POP JUMP JUMPDEST PUSH0 PUSH1 0x20 DUP3 DUP5 SUB SLT ISZERO PUSH2 0x1D8B JUMPI PUSH2 0x1D8A PUSH2 0x1D19 JUMP JUMPDEST JUMPDEST PUSH0 PUSH2 0x1D98 DUP5 DUP3 DUP6 ADD PUSH2 0x1D62 JUMP JUMPDEST SWAP2 POP POP SWAP3 SWAP2 POP POP JUMP JUMPDEST PUSH0 DUP2 ISZERO ISZERO SWAP1 POP SWAP2 SWAP1 POP JUMP JUMPDEST PUSH2 0x1DB5 DUP2 PUSH2 0x1DA1 JUMP JUMPDEST DUP3 MSTORE POP POP JUMP JUMPDEST PUSH0 PUSH1 0x20 DUP3 ADD SWAP1 POP PUSH2 0x1DCE PUSH0 DUP4 ADD DUP5 PUSH2 0x1DAC JUMP JUMPDEST SWAP3 SWAP2 POP POP JUMP JUMPDEST PUSH0 DUP2 MLOAD SWAP1 POP SWAP2 SWAP1 POP JUMP JUMPDEST PUSH0 DUP3 DUP3 MSTORE PUSH1 0x20 DUP3 ADD SWAP1 POP SWAP3 SWAP2 POP POP JUMP JUMPDEST PUSH0 JUMPDEST DUP4 DUP2 LT ISZERO PUSH2 0x1E0B JUMPI DUP1 DUP3 ADD MLOAD DUP2 DUP5 ADD MSTORE PUSH1 0x20 DUP2 ADD SWAP1 POP PUSH2 0x1DF0 JUMP JUMPDEST PUSH0 DUP5 DUP5 ADD MSTORE POP POP POP POP JUMP JUMPDEST PUSH0 PUSH1 0x1F NOT PUSH1 0x1F DUP4 ADD AND SWAP1 POP SWAP2 SWAP1 POP JUMP JUMPDEST PUSH0 PUSH2 0x1E30 DUP3 PUSH2 0x1DD4 JUMP JUMPDEST PUSH2 0x1E3A DUP2 DUP6 PUSH2 0x1DDE JUMP JUMPDEST SWAP4 POP PUSH2 0x1E4A DUP2 DUP6 PUSH1 0x20 DUP7 ADD PUSH2 0x1DEE JUMP JUMPDEST PUSH2 0x1E53 DUP2 PUSH2 0x1E16 JUMP JUMPDEST DUP5 ADD SWAP2 POP POP SWAP3 SWAP2 POP POP JUMP JUMPDEST PUSH0 PUSH1 0x20 DUP3 ADD SWAP1 POP DUP2 DUP2 SUB PUSH0 DUP4 ADD MSTORE PUSH2 0x1E76 DUP2 DUP5 PUSH2 0x1E26 JUMP JUMPDEST SWAP1 POP SWAP3 SWAP2 POP POP JUMP JUMPDEST PUSH0 DUP2 SWAP1 POP SWAP2 SWAP1 POP JUMP JUMPDEST PUSH2 0x1E90 DUP2 PUSH2 0x1E7E JUMP JUMPDEST DUP2 EQ PUSH2 0x1E9A JUMPI PUSH0 DUP1 REVERT JUMPDEST POP JUMP JUMPDEST PUSH0 DUP2 CALLDATALOAD SWAP1 POP PUSH2 0x1EAB DUP2 PUSH2 0x1E87 JUMP JUMPDEST SWAP3 SWAP2 POP POP JUMP JUMPDEST PUSH0 PUSH1 0x20 DUP3 DUP5 SUB SLT ISZERO PUSH2 0x1EC6 JUMPI PUSH2 0x1EC5 PUSH2 0x1D19 JUMP JUMPDEST JUMPDEST PUSH0 PUSH2 0x1ED3 DUP5 DUP3 DUP6 ADD PUSH2 0x1E9D JUMP JUMPDEST SWAP2 POP POP SWAP3 SWAP2 POP POP JUMP JUMPDEST PUSH0 PUSH20 0xFFFFFFFFFFFFFFFFFFFFFFFFFFFFFFFFFFFFFFFF DUP3 AND SWAP1 POP SWAP2 SWAP1 POP JUMP JUMPDEST PUSH0 PUSH2 0x1F05 DUP3 PUSH2 0x1EDC JUMP JUMPDEST SWAP1 POP SWAP2 SWAP1 POP JUMP JUMPDEST PUSH2 0x1F15 DUP2 PUSH2 0x1EFB JUMP JUMPDEST DUP3 MSTORE POP POP JUMP JUMPDEST PUSH0 PUSH1 0x20 DUP3 ADD SWAP1 POP PUSH2 0x1F2E PUSH0 DUP4 ADD DUP5 PUSH2 0x1F0C JUMP JUMPDEST SWAP3 SWAP2 POP POP JUMP JUMPDEST PUSH2 0x1F3D DUP2 PUSH2 0x1EFB JUMP JUMPDEST DUP2 EQ PUSH2 0x1F47 JUMPI PUSH0 DUP1 REVERT JUMPDEST POP JUMP JUMPDEST PUSH0 DUP2 CALLDATALOAD SWAP1 POP PUSH2 0x1F58 DUP2 PUSH2 0x1F34 JUMP JUMPDEST SWAP3 SWAP2 POP POP JUMP JUMPDEST PUSH0 DUP1 PUSH1 0x40 DUP4 DUP6 SUB SLT ISZERO PUSH2 0x1F74 JUMPI PUSH2 0x1F73 PUSH2 0x1D19 JUMP JUMPDEST JUMPDEST PUSH0 PUSH2 0x1F81 DUP6 DUP3 DUP7 ADD PUSH2 0x1F4A JUMP JUMPDEST SWAP3 POP POP PUSH1 0x20 PUSH2 0x1F92 DUP6 DUP3 DUP7 ADD PUSH2 0x1E9D JUMP JUMPDEST SWAP2 POP POP SWAP3 POP SWAP3 SWAP1 POP JUMP JUMPDEST PUSH0 DUP1 PUSH0 PUSH1 0x60 DUP5 DUP7 SUB SLT ISZERO PUSH2 0x1FB3 JUMPI PUSH2 0x1FB2 PUSH2 0x1D19 JUMP JUMPDEST JUMPDEST PUSH0 PUSH2 0x1FC0 DUP7 DUP3 DUP8 ADD PUSH2 0x1F4A JUMP JUMPDEST SWAP4 POP POP PUSH1 0x20 PUSH2 0x1FD1 DUP7 DUP3 DUP8 ADD PUSH2 0x1F4A JUMP JUMPDEST SWAP3 POP POP PUSH1 0x40 PUSH2 0x1FE2 DUP7 DUP3 DUP8 ADD PUSH2 0x1E9D JUMP JUMPDEST SWAP2 POP POP SWAP3 POP SWAP3 POP SWAP3 JUMP JUMPDEST PUSH0 PUSH1 0x20 DUP3 DUP5 SUB SLT ISZERO PUSH2 0x2001 JUMPI PUSH2 0x2000 PUSH2 0x1D19 JUMP JUMPDEST JUMPDEST PUSH0 PUSH2 0x200E DUP5 DUP3 DUP6 ADD PUSH2 0x1F4A JUMP JUMPDEST SWAP2 POP POP SWAP3 SWAP2 POP POP JUMP JUMPDEST PUSH2 0x2020 DUP2 PUSH2 0x1E7E JUMP JUMPDEST DUP3 MSTORE POP POP JUMP JUMPDEST PUSH0 PUSH1 0x20 DUP3 ADD SWAP1 POP PUSH2 0x2039 PUSH0 DUP4 ADD DUP5 PUSH2 0x2017 JUMP JUMPDEST SWAP3 SWAP2 POP POP JUMP JUMPDEST PUSH2 0x2048 DUP2 PUSH2 0x1DA1 JUMP JUMPDEST DUP2 EQ PUSH2 0x2052 JUMPI PUSH0 DUP1 REVERT JUMPDEST POP JUMP JUMPDEST PUSH0 DUP2 CALLDATALOAD SWAP1 POP PUSH2 0x2063 DUP2 PUSH2 0x203F JUMP JUMPDEST SWAP3 SWAP2 POP POP JUMP JUMPDEST PUSH0 DUP1 PUSH1 0x40 DUP4 DUP6 SUB SLT ISZERO PUSH2 0x207F JUMPI PUSH2 0x207E PUSH2 0x1D19 JUMP JUMPDEST JUMPDEST PUSH0 PUSH2 0x208C DUP6 DUP3 DUP7 ADD PUSH2 0x1F4A JUMP JUMPDEST SWAP3 POP POP PUSH1 0x20 PUSH2 0x209D DUP6 DUP3 DUP7 ADD PUSH2 0x2055 JUMP JUMPDEST SWAP2 POP POP SWAP3 POP SWAP3 SWAP1 POP JUMP JUMPDEST PUSH0 DUP1 REVERT JUMPDEST PUSH0 DUP1 REVERT JUMPDEST PUSH32 0x4E487B7100000000000000000000000000000000000000000000000000000000 PUSH0 MSTORE PUSH1 0x41 PUSH1 0x4 MSTORE PUSH1 0x24 PUSH0 REVERT JUMPDEST PUSH2 0x20E5 DUP3 PUSH2 0x1E16 JUMP JUMPDEST DUP2 ADD DUP2 DUP2 LT PUSH8 0xFFFFFFFFFFFFFFFF DUP3 GT OR ISZERO PUSH2 0x2104 JUMPI PUSH2 0x2103 PUSH2 0x20AF JUMP JUMPDEST JUMPDEST DUP1 PUSH1 0x40 MSTORE POP POP POP JUMP JUMPDEST PUSH0 PUSH2 0x2116 PUSH2 0x1D10 JUMP JUMPDEST SWAP1 POP PUSH2 0x2122 DUP3 DUP3 PUSH2 0x20DC JUMP JUMPDEST SWAP2 SWAP1 POP JUMP JUMPDEST PUSH0 PUSH8 0xFFFFFFFFFFFFFFFF DUP3 GT ISZERO PUSH2 0x2141 JUMPI PUSH2 0x2140 PUSH2 0x20AF JUMP JUMPDEST JUMPDEST PUSH2 0x214A DUP3 PUSH2 0x1E16 JUMP JUMPDEST SWAP1 POP PUSH1 0x20 DUP2 ADD SWAP1 POP SWAP2 SWAP1 POP JUMP JUMPDEST DUP3 DUP2 DUP4 CALLDATACOPY PUSH0 DUP4 DUP4 ADD MSTORE POP POP POP JUMP JUMPDEST PUSH0 PUSH2 0x2177 PUSH2 0x2172 DUP5 PUSH2 0x2127 JUMP JUMPDEST PUSH2 0x210D JUMP JUMPDEST SWAP1 POP DUP3 DUP2 MSTORE PUSH1 0x20 DUP2 ADD DUP5 DUP5 DUP5 ADD GT ISZERO PUSH2 0x2193 JUMPI PUSH2 0x2192 PUSH2 0x20AB JUMP JUMPDEST JUMPDEST PUSH2 0x219E DUP5 DUP3 DUP6 PUSH2 0x2157 JUMP JUMPDEST POP SWAP4 SWAP3 POP POP POP JUMP JUMPDEST PUSH0 DUP3 PUSH1 0x1F DUP4 ADD SLT PUSH2 0x21BA JUMPI PUSH2 0x21B9 PUSH2 0x20A7 JUMP JUMPDEST JUMPDEST DUP2 CALLDATALOAD PUSH2 0x21CA DUP5 DUP3 PUSH1 0x20 DUP7 ADD PUSH2 0x2165 JUMP JUMPDEST SWAP2 POP POP SWAP3 SWAP2 POP POP JUMP JUMPDEST PUSH0 DUP1 PUSH0 DUP1 PUSH1 0x80 DUP6 DUP8 SUB SLT ISZERO PUSH2 0x21EB JUMPI PUSH2 0x21EA PUSH2 0x1D19 JUMP JUMPDEST JUMPDEST PUSH0 PUSH2 0x21F8 DUP8 DUP3 DUP9 ADD PUSH2 0x1F4A JUMP JUMPDEST SWAP5 POP POP PUSH1 0x20 PUSH2 0x2209 DUP8 DUP3 DUP9 ADD PUSH2 0x1F4A JUMP JUMPDEST SWAP4 POP POP PUSH1 0x40 PUSH2 0x221A DUP8 DUP3 DUP9 ADD PUSH2 0x1E9D JUMP JUMPDEST SWAP3 POP POP PUSH1 0x60 DUP6 ADD CALLDATALOAD PUSH8 0xFFFFFFFFFFFFFFFF DUP2 GT ISZERO PUSH2 0x223B JUMPI PUSH2 0x223A PUSH2 0x1D1D JUMP JUMPDEST JUMPDEST PUSH2 0x2247 DUP8 DUP3 DUP9 ADD PUSH2 0x21A6 JUMP JUMPDEST SWAP2 POP POP SWAP3 SWAP6 SWAP2 SWAP5 POP SWAP3 POP JUMP JUMPDEST PUSH0 PUSH8 0xFFFFFFFFFFFFFFFF DUP3 GT ISZERO PUSH2 0x226D JUMPI PUSH2 0x226C PUSH2 0x20AF JUMP JUMPDEST JUMPDEST PUSH2 0x2276 DUP3 PUSH2 0x1E16 JUMP JUMPDEST SWAP1 POP PUSH1 0x20 DUP2 ADD SWAP1 POP SWAP2 SWAP1 POP JUMP JUMPDEST PUSH0 PUSH2 0x2295 PUSH2 0x2290 DUP5 PUSH2 0x2253 JUMP JUMPDEST PUSH2 0x210D JUMP JUMPDEST SWAP1 POP DUP3 DUP2 MSTORE PUSH1 0x20 DUP2 ADD DUP5 DUP5 DUP5 ADD GT ISZERO PUSH2 0x22B1 JUMPI PUSH2 0x22B0 PUSH2 0x20AB JUMP JUMPDEST JUMPDEST PUSH2 0x22BC DUP5 DUP3 DUP6 PUSH2 0x2157 JUMP JUMPDEST POP SWAP4 SWAP3 POP POP POP JUMP JUMPDEST PUSH0 DUP3 PUSH1 0x1F DUP4 ADD SLT PUSH2 0x22D8 JUMPI PUSH2 0x22D7 PUSH2 0x20A7 JUMP JUMPDEST JUMPDEST DUP2 CALLDATALOAD PUSH2 0x22E8 DUP5 DUP3 PUSH1 0x20 DUP7 ADD PUSH2 0x2283 JUMP JUMPDEST SWAP2 POP POP SWAP3 SWAP2 POP POP JUMP JUMPDEST PUSH0 DUP1 PUSH1 0x40 DUP4 DUP6 SUB SLT ISZERO PUSH2 0x2307 JUMPI PUSH2 0x2306 PUSH2 0x1D19 JUMP JUMPDEST JUMPDEST PUSH0 PUSH2 0x2314 DUP6 DUP3 DUP7 ADD PUSH2 0x1F4A JUMP JUMPDEST SWAP3 POP POP PUSH1 0x20 DUP4 ADD CALLDATALOAD PUSH8 0xFFFFFFFFFFFFFFFF DUP2 GT ISZERO PUSH2 0x2335 JUMPI PUSH2 0x2334 PUSH2 0x1D1D JUMP JUMPDEST JUMPDEST PUSH2 0x2341 DUP6 DUP3 DUP7 ADD PUSH2 0x22C4 JUMP JUMPDEST SWAP2 POP POP SWAP3 POP SWAP3 SWAP1 POP JUMP JUMPDEST PUSH0 DUP1 PUSH1 0x40 DUP4 DUP6 SUB SLT ISZERO PUSH2 0x2361 JUMPI PUSH2 0x2360 PUSH2 0x1D19 JUMP JUMPDEST JUMPDEST PUSH0 PUSH2 0x236E DUP6 DUP3 DUP7 ADD PUSH2 0x1F4A JUMP JUMPDEST SWAP3 POP POP PUSH1 0x20 PUSH2 0x237F DUP6 DUP3 DUP7 ADD PUSH2 0x1F4A JUMP JUMPDEST SWAP2 POP POP SWAP3 POP SWAP3 SWAP1 POP JUMP JUMPDEST PUSH32 0x4E487B7100000000000000000000000000000000000000000000000000000000 PUSH0 MSTORE PUSH1 0x22 PUSH1 0x4 MSTORE PUSH1 0x24 PUSH0 REVERT JUMPDEST PUSH0 PUSH1 0x2 DUP3 DIV SWAP1 POP PUSH1 0x1 DUP3 AND DUP1 PUSH2 0x23CD JUMPI PUSH1 0x7F DUP3 AND SWAP2 POP JUMPDEST PUSH1 0x20 DUP3 LT DUP2 SUB PUSH2 0x23E0 JUMPI PUSH2 0x23DF PUSH2 0x2389 JUMP JUMPDEST JUMPDEST POP SWAP2 SWAP1 POP JUMP JUMPDEST PUSH0 PUSH1 0x60 DUP3 ADD SWAP1 POP PUSH2 0x23F9 PUSH0 DUP4 ADD DUP7 PUSH2 0x1F0C JUMP JUMPDEST PUSH2 0x2406 PUSH1 0x20 DUP4 ADD DUP6 PUSH2 0x2017 JUMP JUMPDEST PUSH2 0x2413 PUSH1 0x40 DUP4 ADD DUP5 PUSH2 0x1F0C JUMP JUMPDEST SWAP5 SWAP4 POP POP POP POP JUMP JUMPDEST PUSH32 0x4E487B7100000000000000000000000000000000000000000000000000000000 PUSH0 MSTORE PUSH1 0x11 PUSH1 0x4 MSTORE PUSH1 0x24 PUSH0 REVERT JUMPDEST PUSH0 PUSH2 0x2452 DUP3 PUSH2 0x1E7E JUMP JUMPDEST SWAP2 POP PUSH32 0xFFFFFFFFFFFFFFFFFFFFFFFFFFFFFFFFFFFFFFFFFFFFFFFFFFFFFFFFFFFFFFFF DUP3 SUB PUSH2 0x2484 JUMPI PUSH2 0x2483 PUSH2 0x241B JUMP JUMPDEST JUMPDEST PUSH1 0x1 DUP3 ADD SWAP1 POP SWAP2 SWAP1 POP JUMP JUMPDEST PUSH32 0x4F776E61626C653A206E6577206F776E657220697320746865207A65726F2061 PUSH0 DUP3 ADD MSTORE PUSH32 0x6464726573730000000000000000000000000000000000000000000000000000 PUSH1 0x20 DUP3 ADD MSTORE POP JUMP JUMPDEST PUSH0 PUSH2 0x24E9 PUSH1 0x26 DUP4 PUSH2 0x1DDE JUMP JUMPDEST SWAP2 POP PUSH2 0x24F4 DUP3 PUSH2 0x248F JUMP JUMPDEST PUSH1 0x40 DUP3 ADD SWAP1 POP SWAP2 SWAP1 POP JUMP JUMPDEST PUSH0 PUSH1 0x20 DUP3 ADD SWAP1 POP DUP2 DUP2 SUB PUSH0 DUP4 ADD MSTORE PUSH2 0x2516 DUP2 PUSH2 0x24DD JUMP JUMPDEST SWAP1 POP SWAP2 SWAP1 POP JUMP JUMPDEST PUSH32 0x4F776E61626C653A2063616C6C6572206973206E6F7420746865206F776E6572 PUSH0 DUP3 ADD MSTORE POP JUMP JUMPDEST PUSH0 PUSH2 0x2551 PUSH1 0x20 DUP4 PUSH2 0x1DDE JUMP JUMPDEST SWAP2 POP PUSH2 0x255C DUP3 PUSH2 0x251D JUMP JUMPDEST PUSH1 0x20 DUP3 ADD SWAP1 POP SWAP2 SWAP1 POP JUMP JUMPDEST PUSH0 PUSH1 0x20 DUP3 ADD SWAP1 POP DUP2 DUP2 SUB PUSH0 DUP4 ADD MSTORE PUSH2 0x257E DUP2 PUSH2 0x2545 JUMP JUMPDEST SWAP1 POP SWAP2 SWAP1 POP JUMP JUMPDEST PUSH0 DUP2 MLOAD SWAP1 POP SWAP2 SWAP1 POP JUMP JUMPDEST PUSH0 DUP3 DUP3 MSTORE PUSH1 0x20 DUP3 ADD SWAP1 POP SWAP3 SWAP2 POP POP JUMP JUMPDEST PUSH0 PUSH2 0x25A9 DUP3 PUSH2 0x2585 JUMP JUMPDEST PUSH2 0x25B3 DUP2 DUP6 PUSH2 0x258F JUMP JUMPDEST SWAP4 POP PUSH2 0x25C3 DUP2 DUP6 PUSH1 0x20 DUP7 ADD PUSH2 0x1DEE JUMP JUMPDEST PUSH2 0x25CC DUP2 PUSH2 0x1E16 JUMP JUMPDEST DUP5 ADD SWAP2 POP POP SWAP3 SWAP2 POP POP JUMP JUMPDEST PUSH0 PUSH1 0x80 DUP3 ADD SWAP1 POP PUSH2 0x25EA PUSH0 DUP4 ADD DUP8 PUSH2 0x1F0C JUMP JUMPDEST PUSH2 0x25F7 PUSH1 0x20 DUP4 ADD DUP7 PUSH2 0x1F0C JUMP JUMPDEST PUSH2 0x2604 PUSH1 0x40 DUP4 ADD DUP6 PUSH2 0x2017 JUMP JUMPDEST DUP2 DUP2 SUB PUSH1 0x60 DUP4 ADD MSTORE PUSH2 0x2616 DUP2 DUP5 PUSH2 0x259F JUMP JUMPDEST SWAP1 POP SWAP6 SWAP5 POP POP POP POP POP JUMP JUMPDEST PUSH0 DUP2 MLOAD SWAP1 POP PUSH2 0x262F DUP2 PUSH2 0x1D4C JUMP JUMPDEST SWAP3 SWAP2 POP POP JUMP JUMPDEST PUSH0 PUSH1 0x20 DUP3 DUP5 SUB SLT ISZERO PUSH2 0x264A JUMPI PUSH2 0x2649 PUSH2 0x1D19 JUMP JUMPDEST JUMPDEST PUSH0 PUSH2 0x2657 DUP5 DUP3 DUP6 ADD PUSH2 0x2621 JUMP JUMPDEST SWAP2 POP POP SWAP3 SWAP2 POP POP JUMP JUMPDEST PUSH0 DUP2 SWAP1 POP SWAP3 SWAP2 POP POP JUMP JUMPDEST PUSH0 PUSH2 0x2674 DUP3 PUSH2 0x1DD4 JUMP JUMPDEST PUSH2 0x267E DUP2 DUP6 PUSH2 0x2660 JUMP JUMPDEST SWAP4 POP PUSH2 0x268E DUP2 DUP6 PUSH1 0x20 DUP7 ADD PUSH2 0x1DEE JUMP JUMPDEST DUP1 DUP5 ADD SWAP2 POP POP SWAP3 SWAP2 POP POP JUMP JUMPDEST PUSH0 PUSH2 0x26A5 DUP3 DUP6 PUSH2 0x266A JUMP JUMPDEST SWAP2 POP PUSH2 0x26B1 DUP3 DUP5 PUSH2 0x266A JUMP JUMPDEST SWAP2 POP DUP2 SWAP1 POP SWAP4 SWAP3 POP POP POP JUMP JUMPDEST PUSH0 DUP2 SWAP1 POP DUP2 PUSH0 MSTORE PUSH1 0x20 PUSH0 KECCAK256 SWAP1 POP SWAP2 SWAP1 POP JUMP JUMPDEST PUSH0 PUSH1 0x20 PUSH1 0x1F DUP4 ADD DIV SWAP1 POP SWAP2 SWAP1 POP JUMP JUMPDEST PUSH0 DUP3 DUP3 SHL SWAP1 POP SWAP3 SWAP2 POP POP JUMP JUMPDEST PUSH0 PUSH1 0x8 DUP4 MUL PUSH2 0x2719 PUSH32 0xFFFFFFFFFFFFFFFFFFFFFFFFFFFFFFFFFFFFFFFFFFFFFFFFFFFFFFFFFFFFFFFF DUP3 PUSH2 0x26DE JUMP JUMPDEST PUSH2 0x2723 DUP7 DUP4 PUSH2 0x26DE JUMP JUMPDEST SWAP6 POP DUP1 NOT DUP5 AND SWAP4 POP DUP1 DUP7 AND DUP5 OR SWAP3 POP POP POP SWAP4 SWAP3 POP POP POP JUMP JUMPDEST PUSH0 DUP2 SWAP1 POP SWAP2 SWAP1 POP JUMP JUMPDEST PUSH0 PUSH2 0x275E PUSH2 0x2759 PUSH2 0x2754 DUP5 PUSH2 0x1E7E JUMP JUMPDEST PUSH2 0x273B JUMP JUMPDEST PUSH2 0x1E7E JUMP JUMPDEST SWAP1 POP SWAP2 SWAP1 POP JUMP JUMPDEST PUSH0 DUP2 SWAP1 POP SWAP2 SWAP1 POP JUMP JUMPDEST PUSH2 0x2777 DUP4 PUSH2 0x2744 JUMP JUMPDEST PUSH2 0x278B PUSH2 0x2783 DUP3 PUSH2 0x2765 JUMP JUMPDEST DUP5 DUP5 SLOAD PUSH2 0x26EA JUMP JUMPDEST DUP3 SSTORE POP POP POP POP JUMP JUMPDEST PUSH0 SWAP1 JUMP JUMPDEST PUSH2 0x279F PUSH2 0x2793 JUMP JUMPDEST PUSH2 0x27AA DUP2 DUP5 DUP5 PUSH2 0x276E JUMP JUMPDEST POP POP POP JUMP JUMPDEST JUMPDEST DUP2 DUP2 LT ISZERO PUSH2 0x27CD JUMPI PUSH2 0x27C2 PUSH0 DUP3 PUSH2 0x2797 JUMP JUMPDEST PUSH1 0x1 DUP2 ADD SWAP1 POP PUSH2 0x27B0 JUMP JUMPDEST POP POP JUMP JUMPDEST PUSH1 0x1F DUP3 GT ISZERO PUSH2 0x2812 JUMPI PUSH2 0x27E3 DUP2 PUSH2 0x26BD JUMP JUMPDEST PUSH2 0x27EC DUP5 PUSH2 0x26CF JUMP JUMPDEST DUP2 ADD PUSH1 0x20 DUP6 LT ISZERO PUSH2 0x27FB JUMPI DUP2 SWAP1 POP JUMPDEST PUSH2 0x280F PUSH2 0x2807 DUP6 PUSH2 0x26CF JUMP JUMPDEST DUP4 ADD DUP3 PUSH2 0x27AF JUMP JUMPDEST POP POP JUMPDEST POP POP POP JUMP JUMPDEST PUSH0 DUP3 DUP3 SHR SWAP1 POP SWAP3 SWAP2 POP POP JUMP JUMPDEST PUSH0 PUSH2 0x2832 PUSH0 NOT DUP5 PUSH1 0x8 MUL PUSH2 0x2817 JUMP JUMPDEST NOT DUP1 DUP4 AND SWAP2 POP POP SWAP3 SWAP2 POP POP JUMP JUMPDEST PUSH0 PUSH2 0x284A DUP4 DUP4 PUSH2 0x2823 JUMP JUMPDEST SWAP2 POP DUP3 PUSH1 0x2 MUL DUP3 OR SWAP1 POP SWAP3 SWAP2 POP POP JUMP JUMPDEST PUSH2 0x2863 DUP3 PUSH2 0x1DD4 JUMP JUMPDEST PUSH8 0xFFFFFFFFFFFFFFFF DUP2 GT ISZERO PUSH2 0x287C JUMPI PUSH2 0x287B PUSH2 0x20AF JUMP JUMPDEST JUMPDEST PUSH2 0x2886 DUP3 SLOAD PUSH2 0x23B6 JUMP JUMPDEST PUSH2 0x2891 DUP3 DUP3 DUP6 PUSH2 0x27D1 JUMP JUMPDEST PUSH0 PUSH1 0x20 SWAP1 POP PUSH1 0x1F DUP4 GT PUSH1 0x1 DUP2 EQ PUSH2 0x28C2 JUMPI PUSH0 DUP5 ISZERO PUSH2 0x28B0 JUMPI DUP3 DUP8 ADD MLOAD SWAP1 POP JUMPDEST PUSH2 0x28BA DUP6 DUP3 PUSH2 0x283F JUMP JUMPDEST DUP7 SSTORE POP PUSH2 0x2921 JUMP JUMPDEST PUSH1 0x1F NOT DUP5 AND PUSH2 0x28D0 DUP7 PUSH2 0x26BD JUMP JUMPDEST PUSH0 JUMPDEST DUP3 DUP2 LT ISZERO PUSH2 0x28F7 JUMPI DUP5 DUP10 ADD MLOAD DUP3 SSTORE PUSH1 0x1 DUP3 ADD SWAP2 POP PUSH1 0x20 DUP6 ADD SWAP5 POP PUSH1 0x20 DUP2 ADD SWAP1 POP PUSH2 0x28D2 JUMP JUMPDEST DUP7 DUP4 LT ISZERO PUSH2 0x2914 JUMPI DUP5 DUP10 ADD MLOAD PUSH2 0x2910 PUSH1 0x1F DUP10 AND DUP3 PUSH2 0x2823 JUMP JUMPDEST DUP4 SSTORE POP JUMPDEST PUSH1 0x1 PUSH1 0x2 DUP9 MUL ADD DUP9 SSTORE POP POP POP JUMPDEST POP POP POP POP POP POP JUMP JUMPDEST PUSH32 0x4E487B7100000000000000000000000000000000000000000000000000000000 PUSH0 MSTORE PUSH1 0x12 PUSH1 0x4 MSTORE PUSH1 0x24 PUSH0 REVERT JUMPDEST PUSH0 PUSH1 0x40 DUP3 ADD SWAP1 POP PUSH2 0x2969 PUSH0 DUP4 ADD DUP6 PUSH2 0x1F0C JUMP JUMPDEST PUSH2 0x2976 PUSH1 0x20 DUP4 ADD DUP5 PUSH2 0x2017 JUMP JUMPDEST SWAP4 SWAP3 POP POP POP JUMP INVALID LOG2 PUSH5 0x6970667358 0x22 SLT KECCAK256 CODECOPY EXTCODECOPY 0xE2 SHR SWAP5 SLOAD LOG3 SWAP2 0xD5 0x4C CODESIZE 0x22 0xCF 0xD2 SWAP11 0xBB PUSH23 0x449E80CFEA5F097F1704DF6F15357864736F6C63430008 OR STOP CALLER "
				},
				"gasEstimates": {
					"creation": {
						"codeDepositCost": "2135000",
						"executionCost": "infinite",
						"totalCost": "infinite"
					},
					"external": {
						"allowedAddresses(uint256)": "5077",
						"approve(address,uint256)": "infinite",
						"balanceOf(address)": "infinite",
						"getApproved(uint256)": "infinite",
						"isAllowedToMint(address)": "2900",
						"isApprovedForAll(address,address)": "infinite",
						"name()": "infinite",
						"owner()": "2655",
						"ownerOf(uint256)": "infinite",
						"pause()": "infinite",
						"paused()": "2562",
						"renounceOwnership()": "30588",
						"safeMint(address,string)": "infinite",
						"safeTransferFrom(address,address,uint256)": "infinite",
						"safeTransferFrom(address,address,uint256,bytes)": "infinite",
						"setApprovalForAll(address,bool)": "infinite",
						"supportsInterface(bytes4)": "923",
						"symbol()": "infinite",
						"tokenURI(uint256)": "infinite",
						"transferFrom(address,address,uint256)": "infinite",
						"transferOwnership(address)": "31016",
						"unpause()": "infinite"
					},
					"internal": {
						"_update(address,uint256,address)": "infinite"
					}
				},
				"methodIdentifiers": {
					"allowedAddresses(uint256)": "64b55bed",
					"approve(address,uint256)": "095ea7b3",
					"balanceOf(address)": "70a08231",
					"getApproved(uint256)": "081812fc",
					"isAllowedToMint(address)": "4813d8a6",
					"isApprovedForAll(address,address)": "e985e9c5",
					"name()": "06fdde03",
					"owner()": "8da5cb5b",
					"ownerOf(uint256)": "6352211e",
					"pause()": "8456cb59",
					"paused()": "5c975abb",
					"renounceOwnership()": "715018a6",
					"safeMint(address,string)": "d204c45e",
					"safeTransferFrom(address,address,uint256)": "42842e0e",
					"safeTransferFrom(address,address,uint256,bytes)": "b88d4fde",
					"setApprovalForAll(address,bool)": "a22cb465",
					"supportsInterface(bytes4)": "01ffc9a7",
					"symbol()": "95d89b41",
					"tokenURI(uint256)": "c87b56dd",
					"transferFrom(address,address,uint256)": "23b872dd",
					"transferOwnership(address)": "f2fde38b",
					"unpause()": "3f4ba83a"
				}
			},
			"storageLayout": {
				"storage": [
					{
						"astId": 313,
						"contract": "telefonica/centenario2.sol:MyToken",
						"label": "_name",
						"offset": 0,
						"slot": "0",
						"type": "t_string_storage"
					},
					{
						"astId": 315,
						"contract": "telefonica/centenario2.sol:MyToken",
						"label": "_symbol",
						"offset": 0,
						"slot": "1",
						"type": "t_string_storage"
					},
					{
						"astId": 319,
						"contract": "telefonica/centenario2.sol:MyToken",
						"label": "_owners",
						"offset": 0,
						"slot": "2",
						"type": "t_mapping(t_uint256,t_address)"
					},
					{
						"astId": 323,
						"contract": "telefonica/centenario2.sol:MyToken",
						"label": "_balances",
						"offset": 0,
						"slot": "3",
						"type": "t_mapping(t_address,t_uint256)"
					},
					{
						"astId": 327,
						"contract": "telefonica/centenario2.sol:MyToken",
						"label": "_tokenApprovals",
						"offset": 0,
						"slot": "4",
						"type": "t_mapping(t_uint256,t_address)"
					},
					{
						"astId": 333,
						"contract": "telefonica/centenario2.sol:MyToken",
						"label": "_operatorApprovals",
						"offset": 0,
						"slot": "5",
						"type": "t_mapping(t_address,t_mapping(t_address,t_bool))"
					},
					{
						"astId": 1487,
						"contract": "telefonica/centenario2.sol:MyToken",
						"label": "_tokenURIs",
						"offset": 0,
						"slot": "6",
						"type": "t_mapping(t_uint256,t_string_storage)"
					},
					{
						"astId": 1644,
						"contract": "telefonica/centenario2.sol:MyToken",
						"label": "_paused",
						"offset": 0,
						"slot": "7",
						"type": "t_bool"
					},
					{
						"astId": 7,
						"contract": "telefonica/centenario2.sol:MyToken",
						"label": "_owner",
						"offset": 1,
						"slot": "7",
						"type": "t_address"
					},
					{
						"astId": 3004,
						"contract": "telefonica/centenario2.sol:MyToken",
						"label": "_nextTokenId",
						"offset": 0,
						"slot": "8",
						"type": "t_uint256"
					},
					{
						"astId": 3008,
						"contract": "telefonica/centenario2.sol:MyToken",
						"label": "_hasMinted",
						"offset": 0,
						"slot": "9",
						"type": "t_mapping(t_address,t_bool)"
					},
					{
						"astId": 3012,
						"contract": "telefonica/centenario2.sol:MyToken",
						"label": "isAllowedToMint",
						"offset": 0,
						"slot": "10",
						"type": "t_mapping(t_address,t_bool)"
					},
					{
						"astId": 3015,
						"contract": "telefonica/centenario2.sol:MyToken",
						"label": "allowedAddresses",
						"offset": 0,
						"slot": "11",
						"type": "t_array(t_address)dyn_storage"
					}
				],
				"types": {
					"t_address": {
						"encoding": "inplace",
						"label": "address",
						"numberOfBytes": "20"
					},
					"t_array(t_address)dyn_storage": {
						"base": "t_address",
						"encoding": "dynamic_array",
						"label": "address[]",
						"numberOfBytes": "32"
					},
					"t_bool": {
						"encoding": "inplace",
						"label": "bool",
						"numberOfBytes": "1"
					},
					"t_mapping(t_address,t_bool)": {
						"encoding": "mapping",
						"key": "t_address",
						"label": "mapping(address => bool)",
						"numberOfBytes": "32",
						"value": "t_bool"
					},
					"t_mapping(t_address,t_mapping(t_address,t_bool))": {
						"encoding": "mapping",
						"key": "t_address",
						"label": "mapping(address => mapping(address => bool))",
						"numberOfBytes": "32",
						"value": "t_mapping(t_address,t_bool)"
					},
					"t_mapping(t_address,t_uint256)": {
						"encoding": "mapping",
						"key": "t_address",
						"label": "mapping(address => uint256)",
						"numberOfBytes": "32",
						"value": "t_uint256"
					},
					"t_mapping(t_uint256,t_address)": {
						"encoding": "mapping",
						"key": "t_uint256",
						"label": "mapping(uint256 => address)",
						"numberOfBytes": "32",
						"value": "t_address"
					},
					"t_mapping(t_uint256,t_string_storage)": {
						"encoding": "mapping",
						"key": "t_uint256",
						"label": "mapping(uint256 => string)",
						"numberOfBytes": "32",
						"value": "t_string_storage"
					},
					"t_string_storage": {
						"encoding": "bytes",
						"label": "string",
						"numberOfBytes": "32"
					},
					"t_uint256": {
						"encoding": "inplace",
						"label": "uint256",
						"numberOfBytes": "32"
					}
				}
			},
			"userdoc": {
				"kind": "user",
				"methods": {},
				"version": 1
			}
		}
	}
}