{
	"telefonica/blockedEther.sol": {
		"FixedEther": {
			"abi": [
				{
					"inputs": [],
					"stateMutability": "nonpayable",
					"type": "constructor"
				},
				{
					"inputs": [],
					"name": "deposit",
					"outputs": [],
					"stateMutability": "payable",
					"type": "function"
				},
				{
					"inputs": [],
					"name": "lockedAmount",
					"outputs": [
						{
							"internalType": "uint256",
							"name": "",
							"type": "uint256"
						}
					],
					"stateMutability": "view",
					"type": "function"
				},
				{
					"inputs": [],
					"name": "nothinToWitdraw",
					"outputs": [
						{
							"internalType": "string",
							"name": "",
							"type": "string"
						}
					],
					"stateMutability": "view",
					"type": "function"
				},
				{
					"inputs": [],
					"name": "owner",
					"outputs": [
						{
							"internalType": "address payable",
							"name": "",
							"type": "address"
						}
					],
					"stateMutability": "view",
					"type": "function"
				},
				{
					"inputs": [],
					"name": "withdraw",
					"outputs": [],
					"stateMutability": "nonpayable",
					"type": "function"
				}
			],
			"devdoc": {
				"kind": "dev",
				"methods": {},
				"version": 1
			},
			"evm": {
				"assembly": "    /* \"telefonica/blockedEther.sol\":103:589  contract FixedEther {... */\n  mstore(0x40, 0x80)\n    /* \"telefonica/blockedEther.sol\":229:328  constructor() {... */\n  callvalue\n  dup1\n  iszero\n  tag_1\n  jumpi\n  0x00\n  dup1\n  revert\ntag_1:\n  pop\n    /* \"telefonica/blockedEther.sol\":269:279  msg.sender */\n  caller\n    /* \"telefonica/blockedEther.sol\":253:258  owner */\n  0x01\n  0x00\n    /* \"telefonica/blockedEther.sol\":253:280  owner = payable(msg.sender) */\n  0x0100\n  exp\n  dup2\n  sload\n  dup2\n  0xffffffffffffffffffffffffffffffffffffffff\n  mul\n  not\n  and\n  swap1\n  dup4\n  0xffffffffffffffffffffffffffffffffffffffff\n  and\n  mul\n  or\n  swap1\n  sstore\n  pop\n    /* \"telefonica/blockedEther.sol\":103:589  contract FixedEther {... */\n  dataSize(sub_0)\n  dup1\n  dataOffset(sub_0)\n  0x00\n  codecopy\n  0x00\n  return\nstop\n\nsub_0: assembly {\n        /* \"telefonica/blockedEther.sol\":103:589  contract FixedEther {... */\n      mstore(0x40, 0x80)\n      jumpi(tag_1, lt(calldatasize, 0x04))\n      shr(0xe0, calldataload(0x00))\n      dup1\n      0x0aaef566\n      eq\n      tag_2\n      jumpi\n      dup1\n      0x3ccfd60b\n      eq\n      tag_3\n      jumpi\n      dup1\n      0x6ab28bc8\n      eq\n      tag_4\n      jumpi\n      dup1\n      0x8da5cb5b\n      eq\n      tag_5\n      jumpi\n      dup1\n      0xd0e30db0\n      eq\n      tag_6\n      jumpi\n    tag_1:\n      0x00\n      dup1\n      revert\n        /* \"telefonica/blockedEther.sol\":193:222  string public nothinToWitdraw */\n    tag_2:\n      callvalue\n      dup1\n      iszero\n      tag_7\n      jumpi\n      0x00\n      dup1\n      revert\n    tag_7:\n      pop\n      tag_8\n      tag_9\n      jump\t// in\n    tag_8:\n      mload(0x40)\n      tag_10\n      swap2\n      swap1\n      tag_11\n      jump\t// in\n    tag_10:\n      mload(0x40)\n      dup1\n      swap2\n      sub\n      swap1\n      return\n        /* \"telefonica/blockedEther.sol\":418:587  function withdraw() external {... */\n    tag_3:\n      callvalue\n      dup1\n      iszero\n      tag_12\n      jumpi\n      0x00\n      dup1\n      revert\n    tag_12:\n      pop\n      tag_13\n      tag_14\n      jump\t// in\n    tag_13:\n      stop\n        /* \"telefonica/blockedEther.sol\":129:153  uint public lockedAmount */\n    tag_4:\n      callvalue\n      dup1\n      iszero\n      tag_15\n      jumpi\n      0x00\n      dup1\n      revert\n    tag_15:\n      pop\n      tag_16\n      tag_17\n      jump\t// in\n    tag_16:\n      mload(0x40)\n      tag_18\n      swap2\n      swap1\n      tag_19\n      jump\t// in\n    tag_18:\n      mload(0x40)\n      dup1\n      swap2\n      sub\n      swap1\n      return\n        /* \"telefonica/blockedEther.sol\":159:187  address payable public owner */\n    tag_5:\n      callvalue\n      dup1\n      iszero\n      tag_20\n      jumpi\n      0x00\n      dup1\n      revert\n    tag_20:\n      pop\n      tag_21\n      tag_22\n      jump\t// in\n    tag_21:\n      mload(0x40)\n      tag_23\n      swap2\n      swap1\n      tag_24\n      jump\t// in\n    tag_23:\n      mload(0x40)\n      dup1\n      swap2\n      sub\n      swap1\n      return\n        /* \"telefonica/blockedEther.sol\":334:412  function deposit() external payable {... */\n    tag_6:\n      tag_25\n      tag_26\n      jump\t// in\n    tag_25:\n      stop\n        /* \"telefonica/blockedEther.sol\":193:222  string public nothinToWitdraw */\n    tag_9:\n      0x02\n      dup1\n      sload\n      tag_27\n      swap1\n      tag_28\n      jump\t// in\n    tag_27:\n      dup1\n      0x1f\n      add\n      0x20\n      dup1\n      swap2\n      div\n      mul\n      0x20\n      add\n      mload(0x40)\n      swap1\n      dup2\n      add\n      0x40\n      mstore\n      dup1\n      swap3\n      swap2\n      swap1\n      dup2\n      dup2\n      mstore\n      0x20\n      add\n      dup3\n      dup1\n      sload\n      tag_29\n      swap1\n      tag_28\n      jump\t// in\n    tag_29:\n      dup1\n      iszero\n      tag_30\n      jumpi\n      dup1\n      0x1f\n      lt\n      tag_31\n      jumpi\n      0x0100\n      dup1\n      dup4\n      sload\n      div\n      mul\n      dup4\n      mstore\n      swap2\n      0x20\n      add\n      swap2\n      jump(tag_30)\n    tag_31:\n      dup3\n      add\n      swap2\n      swap1\n      0x00\n      mstore\n      keccak256(0x00, 0x20)\n      swap1\n    tag_32:\n      dup2\n      sload\n      dup2\n      mstore\n      swap1\n      0x01\n      add\n      swap1\n      0x20\n      add\n      dup1\n      dup4\n      gt\n      tag_32\n      jumpi\n      dup3\n      swap1\n      sub\n      0x1f\n      and\n      dup3\n      add\n      swap2\n    tag_30:\n      pop\n      pop\n      pop\n      pop\n      pop\n      dup2\n      jump\t// out\n        /* \"telefonica/blockedEther.sol\":418:587  function withdraw() external {... */\n    tag_14:\n        /* \"telefonica/blockedEther.sol\":479:484  owner */\n      0x01\n      0x00\n      swap1\n      sload\n      swap1\n      0x0100\n      exp\n      swap1\n      div\n      0xffffffffffffffffffffffffffffffffffffffff\n      and\n        /* \"telefonica/blockedEther.sol\":465:484  msg.sender == owner */\n      0xffffffffffffffffffffffffffffffffffffffff\n      and\n        /* \"telefonica/blockedEther.sol\":465:475  msg.sender */\n      caller\n        /* \"telefonica/blockedEther.sol\":465:484  msg.sender == owner */\n      0xffffffffffffffffffffffffffffffffffffffff\n      and\n      eq\n        /* \"telefonica/blockedEther.sol\":457:536  require(msg.sender == owner, \"Only the contract owner can withdraw the ether.\") */\n      tag_34\n      jumpi\n      mload(0x40)\n      0x08c379a000000000000000000000000000000000000000000000000000000000\n      dup2\n      mstore\n      0x04\n      add\n      tag_35\n      swap1\n      tag_36\n      jump\t// in\n    tag_35:\n      mload(0x40)\n      dup1\n      swap2\n      sub\n      swap1\n      revert\n    tag_34:\n        /* \"telefonica/blockedEther.sol\":546:579  nothinToWitdraw = \"blocked ether\" */\n      mload(0x40)\n      dup1\n      0x40\n      add\n      0x40\n      mstore\n      dup1\n      0x0d\n      dup2\n      mstore\n      0x20\n      add\n      0x626c6f636b656420657468657200000000000000000000000000000000000000\n      dup2\n      mstore\n      pop\n        /* \"telefonica/blockedEther.sol\":546:561  nothinToWitdraw */\n      0x02\n        /* \"telefonica/blockedEther.sol\":546:579  nothinToWitdraw = \"blocked ether\" */\n      swap1\n      dup1\n      mload\n      swap1\n      0x20\n      add\n      swap1\n      tag_37\n      swap3\n      swap2\n      swap1\n      tag_38\n      jump\t// in\n    tag_37:\n      pop\n        /* \"telefonica/blockedEther.sol\":418:587  function withdraw() external {... */\n      jump\t// out\n        /* \"telefonica/blockedEther.sol\":129:153  uint public lockedAmount */\n    tag_17:\n      sload(0x00)\n      dup2\n      jump\t// out\n        /* \"telefonica/blockedEther.sol\":159:187  address payable public owner */\n    tag_22:\n      0x01\n      0x00\n      swap1\n      sload\n      swap1\n      0x0100\n      exp\n      swap1\n      div\n      0xffffffffffffffffffffffffffffffffffffffff\n      and\n      dup2\n      jump\t// out\n        /* \"telefonica/blockedEther.sol\":334:412  function deposit() external payable {... */\n    tag_26:\n        /* \"telefonica/blockedEther.sol\":396:405  msg.value */\n      callvalue\n        /* \"telefonica/blockedEther.sol\":380:392  lockedAmount */\n      0x00\n      dup1\n        /* \"telefonica/blockedEther.sol\":380:405  lockedAmount += msg.value */\n      dup3\n      dup3\n      sload\n      tag_40\n      swap2\n      swap1\n      tag_41\n      jump\t// in\n    tag_40:\n      swap3\n      pop\n      pop\n      dup2\n      swap1\n      sstore\n      pop\n        /* \"telefonica/blockedEther.sol\":334:412  function deposit() external payable {... */\n      jump\t// out\n    tag_38:\n      dup3\n      dup1\n      sload\n      tag_42\n      swap1\n      tag_28\n      jump\t// in\n    tag_42:\n      swap1\n      0x00\n      mstore\n      keccak256(0x00, 0x20)\n      swap1\n      0x1f\n      add\n      0x20\n      swap1\n      div\n      dup2\n      add\n      swap3\n      dup3\n      tag_44\n      jumpi\n      0x00\n      dup6\n      sstore\n      jump(tag_43)\n    tag_44:\n      dup3\n      0x1f\n      lt\n      tag_45\n      jumpi\n      dup1\n      mload\n      not(0xff)\n      and\n      dup4\n      dup1\n      add\n      or\n      dup6\n      sstore\n      jump(tag_43)\n    tag_45:\n      dup3\n      dup1\n      add\n      0x01\n      add\n      dup6\n      sstore\n      dup3\n      iszero\n      tag_43\n      jumpi\n      swap2\n      dup3\n      add\n    tag_46:\n      dup3\n      dup2\n      gt\n      iszero\n      tag_47\n      jumpi\n      dup3\n      mload\n      dup3\n      sstore\n      swap2\n      0x20\n      add\n      swap2\n      swap1\n      0x01\n      add\n      swap1\n      jump(tag_46)\n    tag_47:\n    tag_43:\n      pop\n      swap1\n      pop\n      tag_48\n      swap2\n      swap1\n      tag_49\n      jump\t// in\n    tag_48:\n      pop\n      swap1\n      jump\t// out\n    tag_49:\n    tag_50:\n      dup1\n      dup3\n      gt\n      iszero\n      tag_51\n      jumpi\n      0x00\n      dup2\n      0x00\n      swap1\n      sstore\n      pop\n      0x01\n      add\n      jump(tag_50)\n    tag_51:\n      pop\n      swap1\n      jump\t// out\n        /* \"#utility.yul\":7:106   */\n    tag_52:\n        /* \"#utility.yul\":59:65   */\n      0x00\n        /* \"#utility.yul\":93:98   */\n      dup2\n        /* \"#utility.yul\":87:99   */\n      mload\n        /* \"#utility.yul\":77:99   */\n      swap1\n      pop\n        /* \"#utility.yul\":7:106   */\n      swap2\n      swap1\n      pop\n      jump\t// out\n        /* \"#utility.yul\":112:281   */\n    tag_53:\n        /* \"#utility.yul\":196:207   */\n      0x00\n        /* \"#utility.yul\":230:236   */\n      dup3\n        /* \"#utility.yul\":225:228   */\n      dup3\n        /* \"#utility.yul\":218:237   */\n      mstore\n        /* \"#utility.yul\":270:274   */\n      0x20\n        /* \"#utility.yul\":265:268   */\n      dup3\n        /* \"#utility.yul\":261:275   */\n      add\n        /* \"#utility.yul\":246:275   */\n      swap1\n      pop\n        /* \"#utility.yul\":112:281   */\n      swap3\n      swap2\n      pop\n      pop\n      jump\t// out\n        /* \"#utility.yul\":287:594   */\n    tag_54:\n        /* \"#utility.yul\":355:356   */\n      0x00\n        /* \"#utility.yul\":365:478   */\n    tag_70:\n        /* \"#utility.yul\":379:385   */\n      dup4\n        /* \"#utility.yul\":376:377   */\n      dup2\n        /* \"#utility.yul\":373:386   */\n      lt\n        /* \"#utility.yul\":365:478   */\n      iszero\n      tag_72\n      jumpi\n        /* \"#utility.yul\":464:465   */\n      dup1\n        /* \"#utility.yul\":459:462   */\n      dup3\n        /* \"#utility.yul\":455:466   */\n      add\n        /* \"#utility.yul\":449:467   */\n      mload\n        /* \"#utility.yul\":445:446   */\n      dup2\n        /* \"#utility.yul\":440:443   */\n      dup5\n        /* \"#utility.yul\":436:447   */\n      add\n        /* \"#utility.yul\":429:468   */\n      mstore\n        /* \"#utility.yul\":401:403   */\n      0x20\n        /* \"#utility.yul\":398:399   */\n      dup2\n        /* \"#utility.yul\":394:404   */\n      add\n        /* \"#utility.yul\":389:404   */\n      swap1\n      pop\n        /* \"#utility.yul\":365:478   */\n      jump(tag_70)\n    tag_72:\n        /* \"#utility.yul\":496:502   */\n      dup4\n        /* \"#utility.yul\":493:494   */\n      dup2\n        /* \"#utility.yul\":490:503   */\n      gt\n        /* \"#utility.yul\":487:588   */\n      iszero\n      tag_73\n      jumpi\n        /* \"#utility.yul\":576:577   */\n      0x00\n        /* \"#utility.yul\":567:573   */\n      dup5\n        /* \"#utility.yul\":562:565   */\n      dup5\n        /* \"#utility.yul\":558:574   */\n      add\n        /* \"#utility.yul\":551:578   */\n      mstore\n        /* \"#utility.yul\":487:588   */\n    tag_73:\n        /* \"#utility.yul\":336:594   */\n      pop\n        /* \"#utility.yul\":287:594   */\n      pop\n      pop\n      pop\n      jump\t// out\n        /* \"#utility.yul\":600:702   */\n    tag_55:\n        /* \"#utility.yul\":641:647   */\n      0x00\n        /* \"#utility.yul\":692:694   */\n      0x1f\n        /* \"#utility.yul\":688:695   */\n      not\n        /* \"#utility.yul\":683:685   */\n      0x1f\n        /* \"#utility.yul\":676:681   */\n      dup4\n        /* \"#utility.yul\":672:686   */\n      add\n        /* \"#utility.yul\":668:696   */\n      and\n        /* \"#utility.yul\":658:696   */\n      swap1\n      pop\n        /* \"#utility.yul\":600:702   */\n      swap2\n      swap1\n      pop\n      jump\t// out\n        /* \"#utility.yul\":708:1072   */\n    tag_56:\n        /* \"#utility.yul\":796:799   */\n      0x00\n        /* \"#utility.yul\":824:863   */\n      tag_76\n        /* \"#utility.yul\":857:862   */\n      dup3\n        /* \"#utility.yul\":824:863   */\n      tag_52\n      jump\t// in\n    tag_76:\n        /* \"#utility.yul\":879:950   */\n      tag_77\n        /* \"#utility.yul\":943:949   */\n      dup2\n        /* \"#utility.yul\":938:941   */\n      dup6\n        /* \"#utility.yul\":879:950   */\n      tag_53\n      jump\t// in\n    tag_77:\n        /* \"#utility.yul\":872:950   */\n      swap4\n      pop\n        /* \"#utility.yul\":959:1011   */\n      tag_78\n        /* \"#utility.yul\":1004:1010   */\n      dup2\n        /* \"#utility.yul\":999:1002   */\n      dup6\n        /* \"#utility.yul\":992:996   */\n      0x20\n        /* \"#utility.yul\":985:990   */\n      dup7\n        /* \"#utility.yul\":981:997   */\n      add\n        /* \"#utility.yul\":959:1011   */\n      tag_54\n      jump\t// in\n    tag_78:\n        /* \"#utility.yul\":1036:1065   */\n      tag_79\n        /* \"#utility.yul\":1058:1064   */\n      dup2\n        /* \"#utility.yul\":1036:1065   */\n      tag_55\n      jump\t// in\n    tag_79:\n        /* \"#utility.yul\":1031:1034   */\n      dup5\n        /* \"#utility.yul\":1027:1066   */\n      add\n        /* \"#utility.yul\":1020:1066   */\n      swap2\n      pop\n        /* \"#utility.yul\":800:1072   */\n      pop\n        /* \"#utility.yul\":708:1072   */\n      swap3\n      swap2\n      pop\n      pop\n      jump\t// out\n        /* \"#utility.yul\":1078:1391   */\n    tag_11:\n        /* \"#utility.yul\":1191:1195   */\n      0x00\n        /* \"#utility.yul\":1229:1231   */\n      0x20\n        /* \"#utility.yul\":1218:1227   */\n      dup3\n        /* \"#utility.yul\":1214:1232   */\n      add\n        /* \"#utility.yul\":1206:1232   */\n      swap1\n      pop\n        /* \"#utility.yul\":1278:1287   */\n      dup2\n        /* \"#utility.yul\":1272:1276   */\n      dup2\n        /* \"#utility.yul\":1268:1288   */\n      sub\n        /* \"#utility.yul\":1264:1265   */\n      0x00\n        /* \"#utility.yul\":1253:1262   */\n      dup4\n        /* \"#utility.yul\":1249:1266   */\n      add\n        /* \"#utility.yul\":1242:1289   */\n      mstore\n        /* \"#utility.yul\":1306:1384   */\n      tag_81\n        /* \"#utility.yul\":1379:1383   */\n      dup2\n        /* \"#utility.yul\":1370:1376   */\n      dup5\n        /* \"#utility.yul\":1306:1384   */\n      tag_56\n      jump\t// in\n    tag_81:\n        /* \"#utility.yul\":1298:1384   */\n      swap1\n      pop\n        /* \"#utility.yul\":1078:1391   */\n      swap3\n      swap2\n      pop\n      pop\n      jump\t// out\n        /* \"#utility.yul\":1397:1474   */\n    tag_57:\n        /* \"#utility.yul\":1434:1441   */\n      0x00\n        /* \"#utility.yul\":1463:1468   */\n      dup2\n        /* \"#utility.yul\":1452:1468   */\n      swap1\n      pop\n        /* \"#utility.yul\":1397:1474   */\n      swap2\n      swap1\n      pop\n      jump\t// out\n        /* \"#utility.yul\":1480:1598   */\n    tag_58:\n        /* \"#utility.yul\":1567:1591   */\n      tag_84\n        /* \"#utility.yul\":1585:1590   */\n      dup2\n        /* \"#utility.yul\":1567:1591   */\n      tag_57\n      jump\t// in\n    tag_84:\n        /* \"#utility.yul\":1562:1565   */\n      dup3\n        /* \"#utility.yul\":1555:1592   */\n      mstore\n        /* \"#utility.yul\":1480:1598   */\n      pop\n      pop\n      jump\t// out\n        /* \"#utility.yul\":1604:1826   */\n    tag_19:\n        /* \"#utility.yul\":1697:1701   */\n      0x00\n        /* \"#utility.yul\":1735:1737   */\n      0x20\n        /* \"#utility.yul\":1724:1733   */\n      dup3\n        /* \"#utility.yul\":1720:1738   */\n      add\n        /* \"#utility.yul\":1712:1738   */\n      swap1\n      pop\n        /* \"#utility.yul\":1748:1819   */\n      tag_86\n        /* \"#utility.yul\":1816:1817   */\n      0x00\n        /* \"#utility.yul\":1805:1814   */\n      dup4\n        /* \"#utility.yul\":1801:1818   */\n      add\n        /* \"#utility.yul\":1792:1798   */\n      dup5\n        /* \"#utility.yul\":1748:1819   */\n      tag_58\n      jump\t// in\n    tag_86:\n        /* \"#utility.yul\":1604:1826   */\n      swap3\n      swap2\n      pop\n      pop\n      jump\t// out\n        /* \"#utility.yul\":1832:1958   */\n    tag_59:\n        /* \"#utility.yul\":1869:1876   */\n      0x00\n        /* \"#utility.yul\":1909:1951   */\n      0xffffffffffffffffffffffffffffffffffffffff\n        /* \"#utility.yul\":1902:1907   */\n      dup3\n        /* \"#utility.yul\":1898:1952   */\n      and\n        /* \"#utility.yul\":1887:1952   */\n      swap1\n      pop\n        /* \"#utility.yul\":1832:1958   */\n      swap2\n      swap1\n      pop\n      jump\t// out\n        /* \"#utility.yul\":1964:2068   */\n    tag_60:\n        /* \"#utility.yul\":2009:2016   */\n      0x00\n        /* \"#utility.yul\":2038:2062   */\n      tag_89\n        /* \"#utility.yul\":2056:2061   */\n      dup3\n        /* \"#utility.yul\":2038:2062   */\n      tag_59\n      jump\t// in\n    tag_89:\n        /* \"#utility.yul\":2027:2062   */\n      swap1\n      pop\n        /* \"#utility.yul\":1964:2068   */\n      swap2\n      swap1\n      pop\n      jump\t// out\n        /* \"#utility.yul\":2074:2216   */\n    tag_61:\n        /* \"#utility.yul\":2177:2209   */\n      tag_91\n        /* \"#utility.yul\":2203:2208   */\n      dup2\n        /* \"#utility.yul\":2177:2209   */\n      tag_60\n      jump\t// in\n    tag_91:\n        /* \"#utility.yul\":2172:2175   */\n      dup3\n        /* \"#utility.yul\":2165:2210   */\n      mstore\n        /* \"#utility.yul\":2074:2216   */\n      pop\n      pop\n      jump\t// out\n        /* \"#utility.yul\":2222:2476   */\n    tag_24:\n        /* \"#utility.yul\":2331:2335   */\n      0x00\n        /* \"#utility.yul\":2369:2371   */\n      0x20\n        /* \"#utility.yul\":2358:2367   */\n      dup3\n        /* \"#utility.yul\":2354:2372   */\n      add\n        /* \"#utility.yul\":2346:2372   */\n      swap1\n      pop\n        /* \"#utility.yul\":2382:2469   */\n      tag_93\n        /* \"#utility.yul\":2466:2467   */\n      0x00\n        /* \"#utility.yul\":2455:2464   */\n      dup4\n        /* \"#utility.yul\":2451:2468   */\n      add\n        /* \"#utility.yul\":2442:2448   */\n      dup5\n        /* \"#utility.yul\":2382:2469   */\n      tag_61\n      jump\t// in\n    tag_93:\n        /* \"#utility.yul\":2222:2476   */\n      swap3\n      swap2\n      pop\n      pop\n      jump\t// out\n        /* \"#utility.yul\":2482:2662   */\n    tag_62:\n        /* \"#utility.yul\":2530:2607   */\n      0x4e487b7100000000000000000000000000000000000000000000000000000000\n        /* \"#utility.yul\":2527:2528   */\n      0x00\n        /* \"#utility.yul\":2520:2608   */\n      mstore\n        /* \"#utility.yul\":2627:2631   */\n      0x22\n        /* \"#utility.yul\":2624:2625   */\n      0x04\n        /* \"#utility.yul\":2617:2632   */\n      mstore\n        /* \"#utility.yul\":2651:2655   */\n      0x24\n        /* \"#utility.yul\":2648:2649   */\n      0x00\n        /* \"#utility.yul\":2641:2656   */\n      revert\n        /* \"#utility.yul\":2668:2988   */\n    tag_28:\n        /* \"#utility.yul\":2712:2718   */\n      0x00\n        /* \"#utility.yul\":2749:2750   */\n      0x02\n        /* \"#utility.yul\":2743:2747   */\n      dup3\n        /* \"#utility.yul\":2739:2751   */\n      div\n        /* \"#utility.yul\":2729:2751   */\n      swap1\n      pop\n        /* \"#utility.yul\":2796:2797   */\n      0x01\n        /* \"#utility.yul\":2790:2794   */\n      dup3\n        /* \"#utility.yul\":2786:2798   */\n      and\n        /* \"#utility.yul\":2817:2835   */\n      dup1\n        /* \"#utility.yul\":2807:2888   */\n      tag_96\n      jumpi\n        /* \"#utility.yul\":2873:2877   */\n      0x7f\n        /* \"#utility.yul\":2865:2871   */\n      dup3\n        /* \"#utility.yul\":2861:2878   */\n      and\n        /* \"#utility.yul\":2851:2878   */\n      swap2\n      pop\n        /* \"#utility.yul\":2807:2888   */\n    tag_96:\n        /* \"#utility.yul\":2935:2937   */\n      0x20\n        /* \"#utility.yul\":2927:2933   */\n      dup3\n        /* \"#utility.yul\":2924:2938   */\n      lt\n        /* \"#utility.yul\":2904:2922   */\n      dup2\n        /* \"#utility.yul\":2901:2939   */\n      eq\n        /* \"#utility.yul\":2898:2982   */\n      iszero\n      tag_97\n      jumpi\n        /* \"#utility.yul\":2954:2972   */\n      tag_98\n      tag_62\n      jump\t// in\n    tag_98:\n        /* \"#utility.yul\":2898:2982   */\n    tag_97:\n        /* \"#utility.yul\":2719:2988   */\n      pop\n        /* \"#utility.yul\":2668:2988   */\n      swap2\n      swap1\n      pop\n      jump\t// out\n        /* \"#utility.yul\":2994:3228   */\n    tag_63:\n        /* \"#utility.yul\":3134:3168   */\n      0x4f6e6c792074686520636f6e7472616374206f776e65722063616e2077697468\n        /* \"#utility.yul\":3130:3131   */\n      0x00\n        /* \"#utility.yul\":3122:3128   */\n      dup3\n        /* \"#utility.yul\":3118:3132   */\n      add\n        /* \"#utility.yul\":3111:3169   */\n      mstore\n        /* \"#utility.yul\":3203:3220   */\n      0x64726177207468652065746865722e0000000000000000000000000000000000\n        /* \"#utility.yul\":3198:3200   */\n      0x20\n        /* \"#utility.yul\":3190:3196   */\n      dup3\n        /* \"#utility.yul\":3186:3201   */\n      add\n        /* \"#utility.yul\":3179:3221   */\n      mstore\n        /* \"#utility.yul\":2994:3228   */\n      pop\n      jump\t// out\n        /* \"#utility.yul\":3234:3600   */\n    tag_64:\n        /* \"#utility.yul\":3376:3379   */\n      0x00\n        /* \"#utility.yul\":3397:3464   */\n      tag_101\n        /* \"#utility.yul\":3461:3463   */\n      0x2f\n        /* \"#utility.yul\":3456:3459   */\n      dup4\n        /* \"#utility.yul\":3397:3464   */\n      tag_53\n      jump\t// in\n    tag_101:\n        /* \"#utility.yul\":3390:3464   */\n      swap2\n      pop\n        /* \"#utility.yul\":3473:3566   */\n      tag_102\n        /* \"#utility.yul\":3562:3565   */\n      dup3\n        /* \"#utility.yul\":3473:3566   */\n      tag_63\n      jump\t// in\n    tag_102:\n        /* \"#utility.yul\":3591:3593   */\n      0x40\n        /* \"#utility.yul\":3586:3589   */\n      dup3\n        /* \"#utility.yul\":3582:3594   */\n      add\n        /* \"#utility.yul\":3575:3594   */\n      swap1\n      pop\n        /* \"#utility.yul\":3234:3600   */\n      swap2\n      swap1\n      pop\n      jump\t// out\n        /* \"#utility.yul\":3606:4025   */\n    tag_36:\n        /* \"#utility.yul\":3772:3776   */\n      0x00\n        /* \"#utility.yul\":3810:3812   */\n      0x20\n        /* \"#utility.yul\":3799:3808   */\n      dup3\n        /* \"#utility.yul\":3795:3813   */\n      add\n        /* \"#utility.yul\":3787:3813   */\n      swap1\n      pop\n        /* \"#utility.yul\":3859:3868   */\n      dup2\n        /* \"#utility.yul\":3853:3857   */\n      dup2\n        /* \"#utility.yul\":3849:3869   */\n      sub\n        /* \"#utility.yul\":3845:3846   */\n      0x00\n        /* \"#utility.yul\":3834:3843   */\n      dup4\n        /* \"#utility.yul\":3830:3847   */\n      add\n        /* \"#utility.yul\":3823:3870   */\n      mstore\n        /* \"#utility.yul\":3887:4018   */\n      tag_104\n        /* \"#utility.yul\":4013:4017   */\n      dup2\n        /* \"#utility.yul\":3887:4018   */\n      tag_64\n      jump\t// in\n    tag_104:\n        /* \"#utility.yul\":3879:4018   */\n      swap1\n      pop\n        /* \"#utility.yul\":3606:4025   */\n      swap2\n      swap1\n      pop\n      jump\t// out\n        /* \"#utility.yul\":4031:4211   */\n    tag_65:\n        /* \"#utility.yul\":4079:4156   */\n      0x4e487b7100000000000000000000000000000000000000000000000000000000\n        /* \"#utility.yul\":4076:4077   */\n      0x00\n        /* \"#utility.yul\":4069:4157   */\n      mstore\n        /* \"#utility.yul\":4176:4180   */\n      0x11\n        /* \"#utility.yul\":4173:4174   */\n      0x04\n        /* \"#utility.yul\":4166:4181   */\n      mstore\n        /* \"#utility.yul\":4200:4204   */\n      0x24\n        /* \"#utility.yul\":4197:4198   */\n      0x00\n        /* \"#utility.yul\":4190:4205   */\n      revert\n        /* \"#utility.yul\":4217:4522   */\n    tag_41:\n        /* \"#utility.yul\":4257:4260   */\n      0x00\n        /* \"#utility.yul\":4276:4296   */\n      tag_107\n        /* \"#utility.yul\":4294:4295   */\n      dup3\n        /* \"#utility.yul\":4276:4296   */\n      tag_57\n      jump\t// in\n    tag_107:\n        /* \"#utility.yul\":4271:4296   */\n      swap2\n      pop\n        /* \"#utility.yul\":4310:4330   */\n      tag_108\n        /* \"#utility.yul\":4328:4329   */\n      dup4\n        /* \"#utility.yul\":4310:4330   */\n      tag_57\n      jump\t// in\n    tag_108:\n        /* \"#utility.yul\":4305:4330   */\n      swap3\n      pop\n        /* \"#utility.yul\":4464:4465   */\n      dup3\n        /* \"#utility.yul\":4396:4462   */\n      0xffffffffffffffffffffffffffffffffffffffffffffffffffffffffffffffff\n        /* \"#utility.yul\":4392:4466   */\n      sub\n        /* \"#utility.yul\":4389:4390   */\n      dup3\n        /* \"#utility.yul\":4386:4467   */\n      gt\n        /* \"#utility.yul\":4383:4490   */\n      iszero\n      tag_109\n      jumpi\n        /* \"#utility.yul\":4470:4488   */\n      tag_110\n      tag_65\n      jump\t// in\n    tag_110:\n        /* \"#utility.yul\":4383:4490   */\n    tag_109:\n        /* \"#utility.yul\":4514:4515   */\n      dup3\n        /* \"#utility.yul\":4511:4512   */\n      dup3\n        /* \"#utility.yul\":4507:4516   */\n      add\n        /* \"#utility.yul\":4500:4516   */\n      swap1\n      pop\n        /* \"#utility.yul\":4217:4522   */\n      swap3\n      swap2\n      pop\n      pop\n      jump\t// out\n\n    auxdata: 0xa2646970667358221220dce65fa0ad8ffe2c9087047fde440377c9dabe3ff4c2e08bfe3ca82327421c6664736f6c63430008080033\n}\n",
				"bytecode": {
					"linkReferences": {},
					"object": "608060405234801561001057600080fd5b5033600160006101000a81548173ffffffffffffffffffffffffffffffffffffffff021916908373ffffffffffffffffffffffffffffffffffffffff16021790555061063f806100616000396000f3fe60806040526004361061004a5760003560e01c80630aaef5661461004f5780633ccfd60b1461007a5780636ab28bc8146100915780638da5cb5b146100bc578063d0e30db0146100e7575b600080fd5b34801561005b57600080fd5b506100646100f1565b60405161007191906103df565b60405180910390f35b34801561008657600080fd5b5061008f61017f565b005b34801561009d57600080fd5b506100a661025d565b6040516100b3919061041a565b60405180910390f35b3480156100c857600080fd5b506100d1610263565b6040516100de9190610476565b60405180910390f35b6100ef610289565b005b600280546100fe906104c0565b80601f016020809104026020016040519081016040528092919081815260200182805461012a906104c0565b80156101775780601f1061014c57610100808354040283529160200191610177565b820191906000526020600020905b81548152906001019060200180831161015a57829003601f168201915b505050505081565b600160009054906101000a900473ffffffffffffffffffffffffffffffffffffffff1673ffffffffffffffffffffffffffffffffffffffff163373ffffffffffffffffffffffffffffffffffffffff161461020f576040517f08c379a000000000000000000000000000000000000000000000000000000000815260040161020690610564565b60405180910390fd5b6040518060400160405280600d81526020017f626c6f636b6564206574686572000000000000000000000000000000000000008152506002908051906020019061025a9291906102a3565b50565b60005481565b600160009054906101000a900473ffffffffffffffffffffffffffffffffffffffff1681565b3460008082825461029a91906105b3565b92505081905550565b8280546102af906104c0565b90600052602060002090601f0160209004810192826102d15760008555610318565b82601f106102ea57805160ff1916838001178555610318565b82800160010185558215610318579182015b828111156103175782518255916020019190600101906102fc565b5b5090506103259190610329565b5090565b5b8082111561034257600081600090555060010161032a565b5090565b600081519050919050565b600082825260208201905092915050565b60005b83811015610380578082015181840152602081019050610365565b8381111561038f576000848401525b50505050565b6000601f19601f8301169050919050565b60006103b182610346565b6103bb8185610351565b93506103cb818560208601610362565b6103d481610395565b840191505092915050565b600060208201905081810360008301526103f981846103a6565b905092915050565b6000819050919050565b61041481610401565b82525050565b600060208201905061042f600083018461040b565b92915050565b600073ffffffffffffffffffffffffffffffffffffffff82169050919050565b600061046082610435565b9050919050565b61047081610455565b82525050565b600060208201905061048b6000830184610467565b92915050565b7f4e487b7100000000000000000000000000000000000000000000000000000000600052602260045260246000fd5b600060028204905060018216806104d857607f821691505b602082108114156104ec576104eb610491565b5b50919050565b7f4f6e6c792074686520636f6e7472616374206f776e65722063616e207769746860008201527f64726177207468652065746865722e0000000000000000000000000000000000602082015250565b600061054e602f83610351565b9150610559826104f2565b604082019050919050565b6000602082019050818103600083015261057d81610541565b9050919050565b7f4e487b7100000000000000000000000000000000000000000000000000000000600052601160045260246000fd5b60006105be82610401565b91506105c983610401565b9250827fffffffffffffffffffffffffffffffffffffffffffffffffffffffffffffffff038211156105fe576105fd610584565b5b82820190509291505056fea2646970667358221220dce65fa0ad8ffe2c9087047fde440377c9dabe3ff4c2e08bfe3ca82327421c6664736f6c63430008080033",
					"opcodes": "PUSH1 0x80 PUSH1 0x40 MSTORE CALLVALUE DUP1 ISZERO PUSH2 0x10 JUMPI PUSH1 0x0 DUP1 REVERT JUMPDEST POP CALLER PUSH1 0x1 PUSH1 0x0 PUSH2 0x100 EXP DUP2 SLOAD DUP2 PUSH20 0xFFFFFFFFFFFFFFFFFFFFFFFFFFFFFFFFFFFFFFFF MUL NOT AND SWAP1 DUP4 PUSH20 0xFFFFFFFFFFFFFFFFFFFFFFFFFFFFFFFFFFFFFFFF AND MUL OR SWAP1 SSTORE POP PUSH2 0x63F DUP1 PUSH2 0x61 PUSH1 0x0 CODECOPY PUSH1 0x0 RETURN INVALID PUSH1 0x80 PUSH1 0x40 MSTORE PUSH1 0x4 CALLDATASIZE LT PUSH2 0x4A JUMPI PUSH1 0x0 CALLDATALOAD PUSH1 0xE0 SHR DUP1 PUSH4 0xAAEF566 EQ PUSH2 0x4F JUMPI DUP1 PUSH4 0x3CCFD60B EQ PUSH2 0x7A JUMPI DUP1 PUSH4 0x6AB28BC8 EQ PUSH2 0x91 JUMPI DUP1 PUSH4 0x8DA5CB5B EQ PUSH2 0xBC JUMPI DUP1 PUSH4 0xD0E30DB0 EQ PUSH2 0xE7 JUMPI JUMPDEST PUSH1 0x0 DUP1 REVERT JUMPDEST CALLVALUE DUP1 ISZERO PUSH2 0x5B JUMPI PUSH1 0x0 DUP1 REVERT JUMPDEST POP PUSH2 0x64 PUSH2 0xF1 JUMP JUMPDEST PUSH1 0x40 MLOAD PUSH2 0x71 SWAP2 SWAP1 PUSH2 0x3DF JUMP JUMPDEST PUSH1 0x40 MLOAD DUP1 SWAP2 SUB SWAP1 RETURN JUMPDEST CALLVALUE DUP1 ISZERO PUSH2 0x86 JUMPI PUSH1 0x0 DUP1 REVERT JUMPDEST POP PUSH2 0x8F PUSH2 0x17F JUMP JUMPDEST STOP JUMPDEST CALLVALUE DUP1 ISZERO PUSH2 0x9D JUMPI PUSH1 0x0 DUP1 REVERT JUMPDEST POP PUSH2 0xA6 PUSH2 0x25D JUMP JUMPDEST PUSH1 0x40 MLOAD PUSH2 0xB3 SWAP2 SWAP1 PUSH2 0x41A JUMP JUMPDEST PUSH1 0x40 MLOAD DUP1 SWAP2 SUB SWAP1 RETURN JUMPDEST CALLVALUE DUP1 ISZERO PUSH2 0xC8 JUMPI PUSH1 0x0 DUP1 REVERT JUMPDEST POP PUSH2 0xD1 PUSH2 0x263 JUMP JUMPDEST PUSH1 0x40 MLOAD PUSH2 0xDE SWAP2 SWAP1 PUSH2 0x476 JUMP JUMPDEST PUSH1 0x40 MLOAD DUP1 SWAP2 SUB SWAP1 RETURN JUMPDEST PUSH2 0xEF PUSH2 0x289 JUMP JUMPDEST STOP JUMPDEST PUSH1 0x2 DUP1 SLOAD PUSH2 0xFE SWAP1 PUSH2 0x4C0 JUMP JUMPDEST DUP1 PUSH1 0x1F ADD PUSH1 0x20 DUP1 SWAP2 DIV MUL PUSH1 0x20 ADD PUSH1 0x40 MLOAD SWAP1 DUP2 ADD PUSH1 0x40 MSTORE DUP1 SWAP3 SWAP2 SWAP1 DUP2 DUP2 MSTORE PUSH1 0x20 ADD DUP3 DUP1 SLOAD PUSH2 0x12A SWAP1 PUSH2 0x4C0 JUMP JUMPDEST DUP1 ISZERO PUSH2 0x177 JUMPI DUP1 PUSH1 0x1F LT PUSH2 0x14C JUMPI PUSH2 0x100 DUP1 DUP4 SLOAD DIV MUL DUP4 MSTORE SWAP2 PUSH1 0x20 ADD SWAP2 PUSH2 0x177 JUMP JUMPDEST DUP3 ADD SWAP2 SWAP1 PUSH1 0x0 MSTORE PUSH1 0x20 PUSH1 0x0 KECCAK256 SWAP1 JUMPDEST DUP2 SLOAD DUP2 MSTORE SWAP1 PUSH1 0x1 ADD SWAP1 PUSH1 0x20 ADD DUP1 DUP4 GT PUSH2 0x15A JUMPI DUP3 SWAP1 SUB PUSH1 0x1F AND DUP3 ADD SWAP2 JUMPDEST POP POP POP POP POP DUP2 JUMP JUMPDEST PUSH1 0x1 PUSH1 0x0 SWAP1 SLOAD SWAP1 PUSH2 0x100 EXP SWAP1 DIV PUSH20 0xFFFFFFFFFFFFFFFFFFFFFFFFFFFFFFFFFFFFFFFF AND PUSH20 0xFFFFFFFFFFFFFFFFFFFFFFFFFFFFFFFFFFFFFFFF AND CALLER PUSH20 0xFFFFFFFFFFFFFFFFFFFFFFFFFFFFFFFFFFFFFFFF AND EQ PUSH2 0x20F JUMPI PUSH1 0x40 MLOAD PUSH32 0x8C379A000000000000000000000000000000000000000000000000000000000 DUP2 MSTORE PUSH1 0x4 ADD PUSH2 0x206 SWAP1 PUSH2 0x564 JUMP JUMPDEST PUSH1 0x40 MLOAD DUP1 SWAP2 SUB SWAP1 REVERT JUMPDEST PUSH1 0x40 MLOAD DUP1 PUSH1 0x40 ADD PUSH1 0x40 MSTORE DUP1 PUSH1 0xD DUP2 MSTORE PUSH1 0x20 ADD PUSH32 0x626C6F636B656420657468657200000000000000000000000000000000000000 DUP2 MSTORE POP PUSH1 0x2 SWAP1 DUP1 MLOAD SWAP1 PUSH1 0x20 ADD SWAP1 PUSH2 0x25A SWAP3 SWAP2 SWAP1 PUSH2 0x2A3 JUMP JUMPDEST POP JUMP JUMPDEST PUSH1 0x0 SLOAD DUP2 JUMP JUMPDEST PUSH1 0x1 PUSH1 0x0 SWAP1 SLOAD SWAP1 PUSH2 0x100 EXP SWAP1 DIV PUSH20 0xFFFFFFFFFFFFFFFFFFFFFFFFFFFFFFFFFFFFFFFF AND DUP2 JUMP JUMPDEST CALLVALUE PUSH1 0x0 DUP1 DUP3 DUP3 SLOAD PUSH2 0x29A SWAP2 SWAP1 PUSH2 0x5B3 JUMP JUMPDEST SWAP3 POP POP DUP2 SWAP1 SSTORE POP JUMP JUMPDEST DUP3 DUP1 SLOAD PUSH2 0x2AF SWAP1 PUSH2 0x4C0 JUMP JUMPDEST SWAP1 PUSH1 0x0 MSTORE PUSH1 0x20 PUSH1 0x0 KECCAK256 SWAP1 PUSH1 0x1F ADD PUSH1 0x20 SWAP1 DIV DUP2 ADD SWAP3 DUP3 PUSH2 0x2D1 JUMPI PUSH1 0x0 DUP6 SSTORE PUSH2 0x318 JUMP JUMPDEST DUP3 PUSH1 0x1F LT PUSH2 0x2EA JUMPI DUP1 MLOAD PUSH1 0xFF NOT AND DUP4 DUP1 ADD OR DUP6 SSTORE PUSH2 0x318 JUMP JUMPDEST DUP3 DUP1 ADD PUSH1 0x1 ADD DUP6 SSTORE DUP3 ISZERO PUSH2 0x318 JUMPI SWAP2 DUP3 ADD JUMPDEST DUP3 DUP2 GT ISZERO PUSH2 0x317 JUMPI DUP3 MLOAD DUP3 SSTORE SWAP2 PUSH1 0x20 ADD SWAP2 SWAP1 PUSH1 0x1 ADD SWAP1 PUSH2 0x2FC JUMP JUMPDEST JUMPDEST POP SWAP1 POP PUSH2 0x325 SWAP2 SWAP1 PUSH2 0x329 JUMP JUMPDEST POP SWAP1 JUMP JUMPDEST JUMPDEST DUP1 DUP3 GT ISZERO PUSH2 0x342 JUMPI PUSH1 0x0 DUP2 PUSH1 0x0 SWAP1 SSTORE POP PUSH1 0x1 ADD PUSH2 0x32A JUMP JUMPDEST POP SWAP1 JUMP JUMPDEST PUSH1 0x0 DUP2 MLOAD SWAP1 POP SWAP2 SWAP1 POP JUMP JUMPDEST PUSH1 0x0 DUP3 DUP3 MSTORE PUSH1 0x20 DUP3 ADD SWAP1 POP SWAP3 SWAP2 POP POP JUMP JUMPDEST PUSH1 0x0 JUMPDEST DUP4 DUP2 LT ISZERO PUSH2 0x380 JUMPI DUP1 DUP3 ADD MLOAD DUP2 DUP5 ADD MSTORE PUSH1 0x20 DUP2 ADD SWAP1 POP PUSH2 0x365 JUMP JUMPDEST DUP4 DUP2 GT ISZERO PUSH2 0x38F JUMPI PUSH1 0x0 DUP5 DUP5 ADD MSTORE JUMPDEST POP POP POP POP JUMP JUMPDEST PUSH1 0x0 PUSH1 0x1F NOT PUSH1 0x1F DUP4 ADD AND SWAP1 POP SWAP2 SWAP1 POP JUMP JUMPDEST PUSH1 0x0 PUSH2 0x3B1 DUP3 PUSH2 0x346 JUMP JUMPDEST PUSH2 0x3BB DUP2 DUP6 PUSH2 0x351 JUMP JUMPDEST SWAP4 POP PUSH2 0x3CB DUP2 DUP6 PUSH1 0x20 DUP7 ADD PUSH2 0x362 JUMP JUMPDEST PUSH2 0x3D4 DUP2 PUSH2 0x395 JUMP JUMPDEST DUP5 ADD SWAP2 POP POP SWAP3 SWAP2 POP POP JUMP JUMPDEST PUSH1 0x0 PUSH1 0x20 DUP3 ADD SWAP1 POP DUP2 DUP2 SUB PUSH1 0x0 DUP4 ADD MSTORE PUSH2 0x3F9 DUP2 DUP5 PUSH2 0x3A6 JUMP JUMPDEST SWAP1 POP SWAP3 SWAP2 POP POP JUMP JUMPDEST PUSH1 0x0 DUP2 SWAP1 POP SWAP2 SWAP1 POP JUMP JUMPDEST PUSH2 0x414 DUP2 PUSH2 0x401 JUMP JUMPDEST DUP3 MSTORE POP POP JUMP JUMPDEST PUSH1 0x0 PUSH1 0x20 DUP3 ADD SWAP1 POP PUSH2 0x42F PUSH1 0x0 DUP4 ADD DUP5 PUSH2 0x40B JUMP JUMPDEST SWAP3 SWAP2 POP POP JUMP JUMPDEST PUSH1 0x0 PUSH20 0xFFFFFFFFFFFFFFFFFFFFFFFFFFFFFFFFFFFFFFFF DUP3 AND SWAP1 POP SWAP2 SWAP1 POP JUMP JUMPDEST PUSH1 0x0 PUSH2 0x460 DUP3 PUSH2 0x435 JUMP JUMPDEST SWAP1 POP SWAP2 SWAP1 POP JUMP JUMPDEST PUSH2 0x470 DUP2 PUSH2 0x455 JUMP JUMPDEST DUP3 MSTORE POP POP JUMP JUMPDEST PUSH1 0x0 PUSH1 0x20 DUP3 ADD SWAP1 POP PUSH2 0x48B PUSH1 0x0 DUP4 ADD DUP5 PUSH2 0x467 JUMP JUMPDEST SWAP3 SWAP2 POP POP JUMP JUMPDEST PUSH32 0x4E487B7100000000000000000000000000000000000000000000000000000000 PUSH1 0x0 MSTORE PUSH1 0x22 PUSH1 0x4 MSTORE PUSH1 0x24 PUSH1 0x0 REVERT JUMPDEST PUSH1 0x0 PUSH1 0x2 DUP3 DIV SWAP1 POP PUSH1 0x1 DUP3 AND DUP1 PUSH2 0x4D8 JUMPI PUSH1 0x7F DUP3 AND SWAP2 POP JUMPDEST PUSH1 0x20 DUP3 LT DUP2 EQ ISZERO PUSH2 0x4EC JUMPI PUSH2 0x4EB PUSH2 0x491 JUMP JUMPDEST JUMPDEST POP SWAP2 SWAP1 POP JUMP JUMPDEST PUSH32 0x4F6E6C792074686520636F6E7472616374206F776E65722063616E2077697468 PUSH1 0x0 DUP3 ADD MSTORE PUSH32 0x64726177207468652065746865722E0000000000000000000000000000000000 PUSH1 0x20 DUP3 ADD MSTORE POP JUMP JUMPDEST PUSH1 0x0 PUSH2 0x54E PUSH1 0x2F DUP4 PUSH2 0x351 JUMP JUMPDEST SWAP2 POP PUSH2 0x559 DUP3 PUSH2 0x4F2 JUMP JUMPDEST PUSH1 0x40 DUP3 ADD SWAP1 POP SWAP2 SWAP1 POP JUMP JUMPDEST PUSH1 0x0 PUSH1 0x20 DUP3 ADD SWAP1 POP DUP2 DUP2 SUB PUSH1 0x0 DUP4 ADD MSTORE PUSH2 0x57D DUP2 PUSH2 0x541 JUMP JUMPDEST SWAP1 POP SWAP2 SWAP1 POP JUMP JUMPDEST PUSH32 0x4E487B7100000000000000000000000000000000000000000000000000000000 PUSH1 0x0 MSTORE PUSH1 0x11 PUSH1 0x4 MSTORE PUSH1 0x24 PUSH1 0x0 REVERT JUMPDEST PUSH1 0x0 PUSH2 0x5BE DUP3 PUSH2 0x401 JUMP JUMPDEST SWAP2 POP PUSH2 0x5C9 DUP4 PUSH2 0x401 JUMP JUMPDEST SWAP3 POP DUP3 PUSH32 0xFFFFFFFFFFFFFFFFFFFFFFFFFFFFFFFFFFFFFFFFFFFFFFFFFFFFFFFFFFFFFFFF SUB DUP3 GT ISZERO PUSH2 0x5FE JUMPI PUSH2 0x5FD PUSH2 0x584 JUMP JUMPDEST JUMPDEST DUP3 DUP3 ADD SWAP1 POP SWAP3 SWAP2 POP POP JUMP INVALID LOG2 PUSH5 0x6970667358 0x22 SLT KECCAK256 0xDC 0xE6 0x5F LOG0 0xAD DUP16 INVALID 0x2C SWAP1 DUP8 DIV PUSH32 0xDE440377C9DABE3FF4C2E08BFE3CA82327421C6664736F6C6343000808003300 "
				},
				"gasEstimates": {
					"creation": {
						"codeDepositCost": "319800",
						"executionCost": "24621",
						"totalCost": "344421"
					},
					"external": {
						"deposit()": "infinite",
						"lockedAmount()": "2451",
						"nothinToWitdraw()": "infinite",
						"owner()": "2558",
						"withdraw()": "infinite"
					}
				},
				"methodIdentifiers": {
					"deposit()": "d0e30db0",
					"lockedAmount()": "6ab28bc8",
					"nothinToWitdraw()": "0aaef566",
					"owner()": "8da5cb5b",
					"withdraw()": "3ccfd60b"
				}
			},
			"storageLayout": {
				"storage": [
					{
						"astId": 3,
						"contract": "telefonica/blockedEther.sol:FixedEther",
						"label": "lockedAmount",
						"offset": 0,
						"slot": "0",
						"type": "t_uint256"
					},
					{
						"astId": 5,
						"contract": "telefonica/blockedEther.sol:FixedEther",
						"label": "owner",
						"offset": 0,
						"slot": "1",
						"type": "t_address_payable"
					},
					{
						"astId": 7,
						"contract": "telefonica/blockedEther.sol:FixedEther",
						"label": "nothinToWitdraw",
						"offset": 0,
						"slot": "2",
						"type": "t_string_storage"
					}
				],
				"types": {
					"t_address_payable": {
						"encoding": "inplace",
						"label": "address payable",
						"numberOfBytes": "20"
					},
					"t_string_storage": {
						"encoding": "bytes",
						"label": "string",
						"numberOfBytes": "32"
					},
					"t_uint256": {
						"encoding": "inplace",
						"label": "uint256",
						"numberOfBytes": "32"
					}
				}
			},
			"userdoc": {
				"kind": "user",
				"methods": {},
				"version": 1
			}
		}
	}
}