{
	"telefonica/centenario3.sol": {
		"StringStorage": {
			"abi": [
				{
					"anonymous": false,
					"inputs": [
						{
							"indexed": true,
							"internalType": "uint256",
							"name": "id",
							"type": "uint256"
						},
						{
							"indexed": false,
							"internalType": "string",
							"name": "content",
							"type": "string"
						},
						{
							"indexed": false,
							"internalType": "string",
							"name": "uploader",
							"type": "string"
						}
					],
					"name": "StringUploaded",
					"type": "event"
				},
				{
					"inputs": [],
					"name": "getAllStrings",
					"outputs": [
						{
							"internalType": "string[]",
							"name": "",
							"type": "string[]"
						},
						{
							"internalType": "string[]",
							"name": "",
							"type": "string[]"
						}
					],
					"stateMutability": "view",
					"type": "function"
				},
				{
					"inputs": [
						{
							"internalType": "uint256",
							"name": "_id",
							"type": "uint256"
						}
					],
					"name": "getString",
					"outputs": [
						{
							"internalType": "string",
							"name": "",
							"type": "string"
						},
						{
							"internalType": "string",
							"name": "",
							"type": "string"
						}
					],
					"stateMutability": "view",
					"type": "function"
				},
				{
					"inputs": [],
					"name": "stringCount",
					"outputs": [
						{
							"internalType": "uint256",
							"name": "",
							"type": "uint256"
						}
					],
					"stateMutability": "view",
					"type": "function"
				},
				{
					"inputs": [
						{
							"internalType": "uint256",
							"name": "",
							"type": "uint256"
						}
					],
					"name": "strings",
					"outputs": [
						{
							"internalType": "string",
							"name": "content",
							"type": "string"
						},
						{
							"internalType": "string",
							"name": "uploader",
							"type": "string"
						}
					],
					"stateMutability": "view",
					"type": "function"
				},
				{
					"inputs": [
						{
							"internalType": "string",
							"name": "_content",
							"type": "string"
						},
						{
							"internalType": "string",
							"name": "_uploader",
							"type": "string"
						}
					],
					"name": "uploadString",
					"outputs": [],
					"stateMutability": "nonpayable",
					"type": "function"
				}
			],
			"devdoc": {
				"kind": "dev",
				"methods": {},
				"version": 1
			},
			"evm": {
				"assembly": "    /* \"telefonica/centenario3.sol\":57:1652  contract StringStorage {... */\n  mstore(0x40, 0x80)\n  callvalue\n  dup1\n  iszero\n  tag_1\n  jumpi\n  0x00\n  dup1\n  revert\ntag_1:\n  pop\n  dataSize(sub_0)\n  dup1\n  dataOffset(sub_0)\n  0x00\n  codecopy\n  0x00\n  return\nstop\n\nsub_0: assembly {\n        /* \"telefonica/centenario3.sol\":57:1652  contract StringStorage {... */\n      mstore(0x40, 0x80)\n      callvalue\n      dup1\n      iszero\n      tag_1\n      jumpi\n      0x00\n      dup1\n      revert\n    tag_1:\n      pop\n      jumpi(tag_2, lt(calldatasize, 0x04))\n      shr(0xe0, calldataload(0x00))\n      dup1\n      0x0878ef43\n      eq\n      tag_3\n      jumpi\n      dup1\n      0x28460980\n      eq\n      tag_4\n      jumpi\n      dup1\n      0x8b3c8a65\n      eq\n      tag_5\n      jumpi\n      dup1\n      0xb7c763b5\n      eq\n      tag_6\n      jumpi\n      dup1\n      0xc6e37d53\n      eq\n      tag_7\n      jumpi\n    tag_2:\n      0x00\n      dup1\n      revert\n        /* \"telefonica/centenario3.sol\":371:397  uint256 public stringCount */\n    tag_3:\n      tag_8\n      tag_9\n      jump\t// in\n    tag_8:\n      mload(0x40)\n      tag_10\n      swap2\n      swap1\n      tag_11\n      jump\t// in\n    tag_10:\n      mload(0x40)\n      dup1\n      swap2\n      sub\n      swap1\n      return\n        /* \"telefonica/centenario3.sol\":1186:1650  function getAllStrings() public view returns (string[] memory, string[] memory) {... */\n    tag_4:\n      tag_12\n      tag_13\n      jump\t// in\n    tag_12:\n      mload(0x40)\n      tag_14\n      swap3\n      swap2\n      swap1\n      tag_15\n      jump\t// in\n    tag_14:\n      mload(0x40)\n      dup1\n      swap2\n      sub\n      swap1\n      return\n        /* \"telefonica/centenario3.sol\":271:316  mapping(uint256 => StringData) public strings */\n    tag_5:\n      tag_16\n      0x04\n      dup1\n      calldatasize\n      sub\n      dup2\n      add\n      swap1\n      tag_17\n      swap2\n      swap1\n      tag_18\n      jump\t// in\n    tag_17:\n      tag_19\n      jump\t// in\n    tag_16:\n      mload(0x40)\n      tag_20\n      swap3\n      swap2\n      swap1\n      tag_21\n      jump\t// in\n    tag_20:\n      mload(0x40)\n      dup1\n      swap2\n      sub\n      swap1\n      return\n        /* \"telefonica/centenario3.sol\":912:1113  function getString(uint256 _id) public view returns (string memory, string memory) {... */\n    tag_6:\n      tag_22\n      0x04\n      dup1\n      calldatasize\n      sub\n      dup2\n      add\n      swap1\n      tag_23\n      swap2\n      swap1\n      tag_18\n      jump\t// in\n    tag_23:\n      tag_24\n      jump\t// in\n    tag_22:\n      mload(0x40)\n      tag_25\n      swap3\n      swap2\n      swap1\n      tag_21\n      jump\t// in\n    tag_25:\n      mload(0x40)\n      dup1\n      swap2\n      sub\n      swap1\n      return\n        /* \"telefonica/centenario3.sol\":606:841  function uploadString(string memory _content, string memory _uploader) public {... */\n    tag_7:\n      tag_26\n      0x04\n      dup1\n      calldatasize\n      sub\n      dup2\n      add\n      swap1\n      tag_27\n      swap2\n      swap1\n      tag_28\n      jump\t// in\n    tag_27:\n      tag_29\n      jump\t// in\n    tag_26:\n      stop\n        /* \"telefonica/centenario3.sol\":371:397  uint256 public stringCount */\n    tag_9:\n      sload(0x01)\n      dup2\n      jump\t// out\n        /* \"telefonica/centenario3.sol\":1186:1650  function getAllStrings() public view returns (string[] memory, string[] memory) {... */\n    tag_13:\n        /* \"telefonica/centenario3.sol\":1232:1247  string[] memory */\n      0x60\n        /* \"telefonica/centenario3.sol\":1249:1264  string[] memory */\n      dup1\n        /* \"telefonica/centenario3.sol\":1276:1300  string[] memory contents */\n      0x00\n        /* \"telefonica/centenario3.sol\":1316:1327  stringCount */\n      sload(0x01)\n        /* \"telefonica/centenario3.sol\":1303:1328  new string[](stringCount) */\n      0xffffffffffffffff\n      dup2\n      gt\n      iszero\n      tag_31\n      jumpi\n      tag_32\n      tag_33\n      jump\t// in\n    tag_32:\n    tag_31:\n      mload(0x40)\n      swap1\n      dup1\n      dup3\n      mstore\n      dup1\n      0x20\n      mul\n      0x20\n      add\n      dup3\n      add\n      0x40\n      mstore\n      dup1\n      iszero\n      tag_34\n      jumpi\n      dup2\n      0x20\n      add\n    tag_35:\n      0x60\n      dup2\n      mstore\n      0x20\n      add\n      swap1\n      0x01\n      swap1\n      sub\n      swap1\n      dup2\n      tag_35\n      jumpi\n      swap1\n      pop\n    tag_34:\n      pop\n        /* \"telefonica/centenario3.sol\":1276:1328  string[] memory contents = new string[](stringCount) */\n      swap1\n      pop\n        /* \"telefonica/centenario3.sol\":1338:1363  string[] memory uploaders */\n      0x00\n        /* \"telefonica/centenario3.sol\":1379:1390  stringCount */\n      sload(0x01)\n        /* \"telefonica/centenario3.sol\":1366:1391  new string[](stringCount) */\n      0xffffffffffffffff\n      dup2\n      gt\n      iszero\n      tag_36\n      jumpi\n      tag_37\n      tag_33\n      jump\t// in\n    tag_37:\n    tag_36:\n      mload(0x40)\n      swap1\n      dup1\n      dup3\n      mstore\n      dup1\n      0x20\n      mul\n      0x20\n      add\n      dup3\n      add\n      0x40\n      mstore\n      dup1\n      iszero\n      tag_38\n      jumpi\n      dup2\n      0x20\n      add\n    tag_39:\n      0x60\n      dup2\n      mstore\n      0x20\n      add\n      swap1\n      0x01\n      swap1\n      sub\n      swap1\n      dup2\n      tag_39\n      jumpi\n      swap1\n      pop\n    tag_38:\n      pop\n        /* \"telefonica/centenario3.sol\":1338:1391  string[] memory uploaders = new string[](stringCount) */\n      swap1\n      pop\n        /* \"telefonica/centenario3.sol\":1407:1416  uint256 i */\n      0x00\n        /* \"telefonica/centenario3.sol\":1402:1605  for (uint256 i = 0; i < stringCount; i++) {... */\n    tag_40:\n        /* \"telefonica/centenario3.sol\":1426:1437  stringCount */\n      sload(0x01)\n        /* \"telefonica/centenario3.sol\":1422:1423  i */\n      dup2\n        /* \"telefonica/centenario3.sol\":1422:1437  i < stringCount */\n      lt\n        /* \"telefonica/centenario3.sol\":1402:1605  for (uint256 i = 0; i < stringCount; i++) {... */\n      iszero\n      tag_41\n      jumpi\n        /* \"telefonica/centenario3.sol\":1458:1487  StringData storage stringData */\n      0x00\n        /* \"telefonica/centenario3.sol\":1490:1497  strings */\n      dup1\n        /* \"telefonica/centenario3.sol\":1490:1500  strings[i] */\n      0x00\n        /* \"telefonica/centenario3.sol\":1498:1499  i */\n      dup4\n        /* \"telefonica/centenario3.sol\":1490:1500  strings[i] */\n      dup2\n      mstore\n      0x20\n      add\n      swap1\n      dup2\n      mstore\n      0x20\n      add\n      0x00\n      keccak256\n        /* \"telefonica/centenario3.sol\":1458:1500  StringData storage stringData = strings[i] */\n      swap1\n      pop\n        /* \"telefonica/centenario3.sol\":1528:1538  stringData */\n      dup1\n        /* \"telefonica/centenario3.sol\":1528:1546  stringData.content */\n      0x00\n      add\n        /* \"telefonica/centenario3.sol\":1514:1546  contents[i] = stringData.content */\n      dup1\n      sload\n      tag_43\n      swap1\n      tag_44\n      jump\t// in\n    tag_43:\n      dup1\n      0x1f\n      add\n      0x20\n      dup1\n      swap2\n      div\n      mul\n      0x20\n      add\n      mload(0x40)\n      swap1\n      dup2\n      add\n      0x40\n      mstore\n      dup1\n      swap3\n      swap2\n      swap1\n      dup2\n      dup2\n      mstore\n      0x20\n      add\n      dup3\n      dup1\n      sload\n      tag_45\n      swap1\n      tag_44\n      jump\t// in\n    tag_45:\n      dup1\n      iszero\n      tag_46\n      jumpi\n      dup1\n      0x1f\n      lt\n      tag_47\n      jumpi\n      0x0100\n      dup1\n      dup4\n      sload\n      div\n      mul\n      dup4\n      mstore\n      swap2\n      0x20\n      add\n      swap2\n      jump(tag_46)\n    tag_47:\n      dup3\n      add\n      swap2\n      swap1\n      0x00\n      mstore\n      keccak256(0x00, 0x20)\n      swap1\n    tag_48:\n      dup2\n      sload\n      dup2\n      mstore\n      swap1\n      0x01\n      add\n      swap1\n      0x20\n      add\n      dup1\n      dup4\n      gt\n      tag_48\n      jumpi\n      dup3\n      swap1\n      sub\n      0x1f\n      and\n      dup3\n      add\n      swap2\n    tag_46:\n      pop\n      pop\n      pop\n      pop\n      pop\n        /* \"telefonica/centenario3.sol\":1514:1522  contents */\n      dup5\n        /* \"telefonica/centenario3.sol\":1523:1524  i */\n      dup4\n        /* \"telefonica/centenario3.sol\":1514:1525  contents[i] */\n      dup2\n      mload\n      dup2\n      lt\n      tag_49\n      jumpi\n      tag_50\n      tag_51\n      jump\t// in\n    tag_50:\n    tag_49:\n      0x20\n      mul\n      0x20\n      add\n      add\n        /* \"telefonica/centenario3.sol\":1514:1546  contents[i] = stringData.content */\n      dup2\n      swap1\n      mstore\n      pop\n        /* \"telefonica/centenario3.sol\":1575:1585  stringData */\n      dup1\n        /* \"telefonica/centenario3.sol\":1575:1594  stringData.uploader */\n      0x01\n      add\n        /* \"telefonica/centenario3.sol\":1560:1594  uploaders[i] = stringData.uploader */\n      dup1\n      sload\n      tag_52\n      swap1\n      tag_44\n      jump\t// in\n    tag_52:\n      dup1\n      0x1f\n      add\n      0x20\n      dup1\n      swap2\n      div\n      mul\n      0x20\n      add\n      mload(0x40)\n      swap1\n      dup2\n      add\n      0x40\n      mstore\n      dup1\n      swap3\n      swap2\n      swap1\n      dup2\n      dup2\n      mstore\n      0x20\n      add\n      dup3\n      dup1\n      sload\n      tag_53\n      swap1\n      tag_44\n      jump\t// in\n    tag_53:\n      dup1\n      iszero\n      tag_54\n      jumpi\n      dup1\n      0x1f\n      lt\n      tag_55\n      jumpi\n      0x0100\n      dup1\n      dup4\n      sload\n      div\n      mul\n      dup4\n      mstore\n      swap2\n      0x20\n      add\n      swap2\n      jump(tag_54)\n    tag_55:\n      dup3\n      add\n      swap2\n      swap1\n      0x00\n      mstore\n      keccak256(0x00, 0x20)\n      swap1\n    tag_56:\n      dup2\n      sload\n      dup2\n      mstore\n      swap1\n      0x01\n      add\n      swap1\n      0x20\n      add\n      dup1\n      dup4\n      gt\n      tag_56\n      jumpi\n      dup3\n      swap1\n      sub\n      0x1f\n      and\n      dup3\n      add\n      swap2\n    tag_54:\n      pop\n      pop\n      pop\n      pop\n      pop\n        /* \"telefonica/centenario3.sol\":1560:1569  uploaders */\n      dup4\n        /* \"telefonica/centenario3.sol\":1570:1571  i */\n      dup4\n        /* \"telefonica/centenario3.sol\":1560:1572  uploaders[i] */\n      dup2\n      mload\n      dup2\n      lt\n      tag_57\n      jumpi\n      tag_58\n      tag_51\n      jump\t// in\n    tag_58:\n    tag_57:\n      0x20\n      mul\n      0x20\n      add\n      add\n        /* \"telefonica/centenario3.sol\":1560:1594  uploaders[i] = stringData.uploader */\n      dup2\n      swap1\n      mstore\n      pop\n        /* \"telefonica/centenario3.sol\":1444:1605  {... */\n      pop\n        /* \"telefonica/centenario3.sol\":1439:1442  i++ */\n      dup1\n      dup1\n      0x01\n      add\n      swap2\n      pop\n      pop\n        /* \"telefonica/centenario3.sol\":1402:1605  for (uint256 i = 0; i < stringCount; i++) {... */\n      jump(tag_40)\n    tag_41:\n      pop\n        /* \"telefonica/centenario3.sol\":1623:1631  contents */\n      dup2\n        /* \"telefonica/centenario3.sol\":1633:1642  uploaders */\n      dup2\n        /* \"telefonica/centenario3.sol\":1615:1643  return (contents, uploaders) */\n      swap4\n      pop\n      swap4\n      pop\n      pop\n      pop\n        /* \"telefonica/centenario3.sol\":1186:1650  function getAllStrings() public view returns (string[] memory, string[] memory) {... */\n      swap1\n      swap2\n      jump\t// out\n        /* \"telefonica/centenario3.sol\":271:316  mapping(uint256 => StringData) public strings */\n    tag_19:\n      mstore(0x20, 0x00)\n      dup1\n      0x00\n      mstore\n      keccak256(0x00, 0x40)\n      0x00\n      swap2\n      pop\n      swap1\n      pop\n      dup1\n      0x00\n      add\n      dup1\n      sload\n      tag_59\n      swap1\n      tag_44\n      jump\t// in\n    tag_59:\n      dup1\n      0x1f\n      add\n      0x20\n      dup1\n      swap2\n      div\n      mul\n      0x20\n      add\n      mload(0x40)\n      swap1\n      dup2\n      add\n      0x40\n      mstore\n      dup1\n      swap3\n      swap2\n      swap1\n      dup2\n      dup2\n      mstore\n      0x20\n      add\n      dup3\n      dup1\n      sload\n      tag_60\n      swap1\n      tag_44\n      jump\t// in\n    tag_60:\n      dup1\n      iszero\n      tag_61\n      jumpi\n      dup1\n      0x1f\n      lt\n      tag_62\n      jumpi\n      0x0100\n      dup1\n      dup4\n      sload\n      div\n      mul\n      dup4\n      mstore\n      swap2\n      0x20\n      add\n      swap2\n      jump(tag_61)\n    tag_62:\n      dup3\n      add\n      swap2\n      swap1\n      0x00\n      mstore\n      keccak256(0x00, 0x20)\n      swap1\n    tag_63:\n      dup2\n      sload\n      dup2\n      mstore\n      swap1\n      0x01\n      add\n      swap1\n      0x20\n      add\n      dup1\n      dup4\n      gt\n      tag_63\n      jumpi\n      dup3\n      swap1\n      sub\n      0x1f\n      and\n      dup3\n      add\n      swap2\n    tag_61:\n      pop\n      pop\n      pop\n      pop\n      pop\n      swap1\n      dup1\n      0x01\n      add\n      dup1\n      sload\n      tag_64\n      swap1\n      tag_44\n      jump\t// in\n    tag_64:\n      dup1\n      0x1f\n      add\n      0x20\n      dup1\n      swap2\n      div\n      mul\n      0x20\n      add\n      mload(0x40)\n      swap1\n      dup2\n      add\n      0x40\n      mstore\n      dup1\n      swap3\n      swap2\n      swap1\n      dup2\n      dup2\n      mstore\n      0x20\n      add\n      dup3\n      dup1\n      sload\n      tag_65\n      swap1\n      tag_44\n      jump\t// in\n    tag_65:\n      dup1\n      iszero\n      tag_66\n      jumpi\n      dup1\n      0x1f\n      lt\n      tag_67\n      jumpi\n      0x0100\n      dup1\n      dup4\n      sload\n      div\n      mul\n      dup4\n      mstore\n      swap2\n      0x20\n      add\n      swap2\n      jump(tag_66)\n    tag_67:\n      dup3\n      add\n      swap2\n      swap1\n      0x00\n      mstore\n      keccak256(0x00, 0x20)\n      swap1\n    tag_68:\n      dup2\n      sload\n      dup2\n      mstore\n      swap1\n      0x01\n      add\n      swap1\n      0x20\n      add\n      dup1\n      dup4\n      gt\n      tag_68\n      jumpi\n      dup3\n      swap1\n      sub\n      0x1f\n      and\n      dup3\n      add\n      swap2\n    tag_66:\n      pop\n      pop\n      pop\n      pop\n      pop\n      swap1\n      pop\n      dup3\n      jump\t// out\n        /* \"telefonica/centenario3.sol\":912:1113  function getString(uint256 _id) public view returns (string memory, string memory) {... */\n    tag_24:\n        /* \"telefonica/centenario3.sol\":965:978  string memory */\n      0x60\n        /* \"telefonica/centenario3.sol\":980:993  string memory */\n      dup1\n        /* \"telefonica/centenario3.sol\":1005:1033  StringData memory stringData */\n      0x00\n        /* \"telefonica/centenario3.sol\":1036:1043  strings */\n      dup1\n        /* \"telefonica/centenario3.sol\":1036:1048  strings[_id] */\n      0x00\n        /* \"telefonica/centenario3.sol\":1044:1047  _id */\n      dup6\n        /* \"telefonica/centenario3.sol\":1036:1048  strings[_id] */\n      dup2\n      mstore\n      0x20\n      add\n      swap1\n      dup2\n      mstore\n      0x20\n      add\n      0x00\n      keccak256\n        /* \"telefonica/centenario3.sol\":1005:1048  StringData memory stringData = strings[_id] */\n      mload(0x40)\n      dup1\n      0x40\n      add\n      0x40\n      mstore\n      swap1\n      dup2\n      0x00\n      dup3\n      add\n      dup1\n      sload\n      tag_70\n      swap1\n      tag_44\n      jump\t// in\n    tag_70:\n      dup1\n      0x1f\n      add\n      0x20\n      dup1\n      swap2\n      div\n      mul\n      0x20\n      add\n      mload(0x40)\n      swap1\n      dup2\n      add\n      0x40\n      mstore\n      dup1\n      swap3\n      swap2\n      swap1\n      dup2\n      dup2\n      mstore\n      0x20\n      add\n      dup3\n      dup1\n      sload\n      tag_71\n      swap1\n      tag_44\n      jump\t// in\n    tag_71:\n      dup1\n      iszero\n      tag_72\n      jumpi\n      dup1\n      0x1f\n      lt\n      tag_73\n      jumpi\n      0x0100\n      dup1\n      dup4\n      sload\n      div\n      mul\n      dup4\n      mstore\n      swap2\n      0x20\n      add\n      swap2\n      jump(tag_72)\n    tag_73:\n      dup3\n      add\n      swap2\n      swap1\n      0x00\n      mstore\n      keccak256(0x00, 0x20)\n      swap1\n    tag_74:\n      dup2\n      sload\n      dup2\n      mstore\n      swap1\n      0x01\n      add\n      swap1\n      0x20\n      add\n      dup1\n      dup4\n      gt\n      tag_74\n      jumpi\n      dup3\n      swap1\n      sub\n      0x1f\n      and\n      dup3\n      add\n      swap2\n    tag_72:\n      pop\n      pop\n      pop\n      pop\n      pop\n      dup2\n      mstore\n      0x20\n      add\n      0x01\n      dup3\n      add\n      dup1\n      sload\n      tag_75\n      swap1\n      tag_44\n      jump\t// in\n    tag_75:\n      dup1\n      0x1f\n      add\n      0x20\n      dup1\n      swap2\n      div\n      mul\n      0x20\n      add\n      mload(0x40)\n      swap1\n      dup2\n      add\n      0x40\n      mstore\n      dup1\n      swap3\n      swap2\n      swap1\n      dup2\n      dup2\n      mstore\n      0x20\n      add\n      dup3\n      dup1\n      sload\n      tag_76\n      swap1\n      tag_44\n      jump\t// in\n    tag_76:\n      dup1\n      iszero\n      tag_77\n      jumpi\n      dup1\n      0x1f\n      lt\n      tag_78\n      jumpi\n      0x0100\n      dup1\n      dup4\n      sload\n      div\n      mul\n      dup4\n      mstore\n      swap2\n      0x20\n      add\n      swap2\n      jump(tag_77)\n    tag_78:\n      dup3\n      add\n      swap2\n      swap1\n      0x00\n      mstore\n      keccak256(0x00, 0x20)\n      swap1\n    tag_79:\n      dup2\n      sload\n      dup2\n      mstore\n      swap1\n      0x01\n      add\n      swap1\n      0x20\n      add\n      dup1\n      dup4\n      gt\n      tag_79\n      jumpi\n      dup3\n      swap1\n      sub\n      0x1f\n      and\n      dup3\n      add\n      swap2\n    tag_77:\n      pop\n      pop\n      pop\n      pop\n      pop\n      dup2\n      mstore\n      pop\n      pop\n      swap1\n      pop\n        /* \"telefonica/centenario3.sol\":1066:1076  stringData */\n      dup1\n        /* \"telefonica/centenario3.sol\":1066:1084  stringData.content */\n      0x00\n      add\n      mload\n        /* \"telefonica/centenario3.sol\":1086:1096  stringData */\n      dup2\n        /* \"telefonica/centenario3.sol\":1086:1105  stringData.uploader */\n      0x20\n      add\n      mload\n        /* \"telefonica/centenario3.sol\":1058:1106  return (stringData.content, stringData.uploader) */\n      swap3\n      pop\n      swap3\n      pop\n      pop\n        /* \"telefonica/centenario3.sol\":912:1113  function getString(uint256 _id) public view returns (string memory, string memory) {... */\n      swap2\n      pop\n      swap2\n      jump\t// out\n        /* \"telefonica/centenario3.sol\":606:841  function uploadString(string memory _content, string memory _uploader) public {... */\n    tag_29:\n        /* \"telefonica/centenario3.sol\":717:748  StringData(_content, _uploader) */\n      mload(0x40)\n      dup1\n      0x40\n      add\n      0x40\n      mstore\n      dup1\n        /* \"telefonica/centenario3.sol\":728:736  _content */\n      dup4\n        /* \"telefonica/centenario3.sol\":717:748  StringData(_content, _uploader) */\n      dup2\n      mstore\n      0x20\n      add\n        /* \"telefonica/centenario3.sol\":738:747  _uploader */\n      dup3\n        /* \"telefonica/centenario3.sol\":717:748  StringData(_content, _uploader) */\n      dup2\n      mstore\n      pop\n        /* \"telefonica/centenario3.sol\":694:701  strings */\n      0x00\n        /* \"telefonica/centenario3.sol\":694:714  strings[stringCount] */\n      dup1\n        /* \"telefonica/centenario3.sol\":702:713  stringCount */\n      sload(0x01)\n        /* \"telefonica/centenario3.sol\":694:714  strings[stringCount] */\n      dup2\n      mstore\n      0x20\n      add\n      swap1\n      dup2\n      mstore\n      0x20\n      add\n      0x00\n      keccak256\n        /* \"telefonica/centenario3.sol\":694:748  strings[stringCount] = StringData(_content, _uploader) */\n      0x00\n      dup3\n      add\n      mload\n      dup2\n      0x00\n      add\n      swap1\n      dup2\n      tag_81\n      swap2\n      swap1\n      tag_82\n      jump\t// in\n    tag_81:\n      pop\n      0x20\n      dup3\n      add\n      mload\n      dup2\n      0x01\n      add\n      swap1\n      dup2\n      tag_83\n      swap2\n      swap1\n      tag_82\n      jump\t// in\n    tag_83:\n      pop\n      swap1\n      pop\n      pop\n        /* \"telefonica/centenario3.sol\":778:789  stringCount */\n      sload(0x01)\n        /* \"telefonica/centenario3.sol\":763:811  StringUploaded(stringCount, _content, _uploader) */\n      0xc2fe8c611311e1b7ee7c05d72df8314dc1c271b911ca83bc8a1f589b1572c237\n        /* \"telefonica/centenario3.sol\":791:799  _content */\n      dup4\n        /* \"telefonica/centenario3.sol\":801:810  _uploader */\n      dup4\n        /* \"telefonica/centenario3.sol\":763:811  StringUploaded(stringCount, _content, _uploader) */\n      mload(0x40)\n      tag_84\n      swap3\n      swap2\n      swap1\n      tag_21\n      jump\t// in\n    tag_84:\n      mload(0x40)\n      dup1\n      swap2\n      sub\n      swap1\n      log2\n        /* \"telefonica/centenario3.sol\":821:832  stringCount */\n      0x01\n      0x00\n        /* \"telefonica/centenario3.sol\":821:834  stringCount++ */\n      dup2\n      sload\n      dup1\n      swap3\n      swap2\n      swap1\n      tag_85\n      swap1\n      tag_86\n      jump\t// in\n    tag_85:\n      swap2\n      swap1\n      pop\n      sstore\n      pop\n        /* \"telefonica/centenario3.sol\":606:841  function uploadString(string memory _content, string memory _uploader) public {... */\n      pop\n      pop\n      jump\t// out\n        /* \"#utility.yul\":7:84   */\n    tag_87:\n        /* \"#utility.yul\":44:51   */\n      0x00\n        /* \"#utility.yul\":73:78   */\n      dup2\n        /* \"#utility.yul\":62:78   */\n      swap1\n      pop\n        /* \"#utility.yul\":7:84   */\n      swap2\n      swap1\n      pop\n      jump\t// out\n        /* \"#utility.yul\":90:208   */\n    tag_88:\n        /* \"#utility.yul\":177:201   */\n      tag_135\n        /* \"#utility.yul\":195:200   */\n      dup2\n        /* \"#utility.yul\":177:201   */\n      tag_87\n      jump\t// in\n    tag_135:\n        /* \"#utility.yul\":172:175   */\n      dup3\n        /* \"#utility.yul\":165:202   */\n      mstore\n        /* \"#utility.yul\":90:208   */\n      pop\n      pop\n      jump\t// out\n        /* \"#utility.yul\":214:436   */\n    tag_11:\n        /* \"#utility.yul\":307:311   */\n      0x00\n        /* \"#utility.yul\":345:347   */\n      0x20\n        /* \"#utility.yul\":334:343   */\n      dup3\n        /* \"#utility.yul\":330:348   */\n      add\n        /* \"#utility.yul\":322:348   */\n      swap1\n      pop\n        /* \"#utility.yul\":358:429   */\n      tag_137\n        /* \"#utility.yul\":426:427   */\n      0x00\n        /* \"#utility.yul\":415:424   */\n      dup4\n        /* \"#utility.yul\":411:428   */\n      add\n        /* \"#utility.yul\":402:408   */\n      dup5\n        /* \"#utility.yul\":358:429   */\n      tag_88\n      jump\t// in\n    tag_137:\n        /* \"#utility.yul\":214:436   */\n      swap3\n      swap2\n      pop\n      pop\n      jump\t// out\n        /* \"#utility.yul\":442:566   */\n    tag_89:\n        /* \"#utility.yul\":519:525   */\n      0x00\n        /* \"#utility.yul\":553:558   */\n      dup2\n        /* \"#utility.yul\":547:559   */\n      mload\n        /* \"#utility.yul\":537:559   */\n      swap1\n      pop\n        /* \"#utility.yul\":442:566   */\n      swap2\n      swap1\n      pop\n      jump\t// out\n        /* \"#utility.yul\":572:766   */\n    tag_90:\n        /* \"#utility.yul\":681:692   */\n      0x00\n        /* \"#utility.yul\":715:721   */\n      dup3\n        /* \"#utility.yul\":710:713   */\n      dup3\n        /* \"#utility.yul\":703:722   */\n      mstore\n        /* \"#utility.yul\":755:759   */\n      0x20\n        /* \"#utility.yul\":750:753   */\n      dup3\n        /* \"#utility.yul\":746:760   */\n      add\n        /* \"#utility.yul\":731:760   */\n      swap1\n      pop\n        /* \"#utility.yul\":572:766   */\n      swap3\n      swap2\n      pop\n      pop\n      jump\t// out\n        /* \"#utility.yul\":772:914   */\n    tag_91:\n        /* \"#utility.yul\":849:853   */\n      0x00\n        /* \"#utility.yul\":872:875   */\n      dup2\n        /* \"#utility.yul\":864:875   */\n      swap1\n      pop\n        /* \"#utility.yul\":902:906   */\n      0x20\n        /* \"#utility.yul\":897:900   */\n      dup3\n        /* \"#utility.yul\":893:907   */\n      add\n        /* \"#utility.yul\":885:907   */\n      swap1\n      pop\n        /* \"#utility.yul\":772:914   */\n      swap2\n      swap1\n      pop\n      jump\t// out\n        /* \"#utility.yul\":920:1019   */\n    tag_92:\n        /* \"#utility.yul\":972:978   */\n      0x00\n        /* \"#utility.yul\":1006:1011   */\n      dup2\n        /* \"#utility.yul\":1000:1012   */\n      mload\n        /* \"#utility.yul\":990:1012   */\n      swap1\n      pop\n        /* \"#utility.yul\":920:1019   */\n      swap2\n      swap1\n      pop\n      jump\t// out\n        /* \"#utility.yul\":1025:1184   */\n    tag_93:\n        /* \"#utility.yul\":1099:1110   */\n      0x00\n        /* \"#utility.yul\":1133:1139   */\n      dup3\n        /* \"#utility.yul\":1128:1131   */\n      dup3\n        /* \"#utility.yul\":1121:1140   */\n      mstore\n        /* \"#utility.yul\":1173:1177   */\n      0x20\n        /* \"#utility.yul\":1168:1171   */\n      dup3\n        /* \"#utility.yul\":1164:1178   */\n      add\n        /* \"#utility.yul\":1149:1178   */\n      swap1\n      pop\n        /* \"#utility.yul\":1025:1184   */\n      swap3\n      swap2\n      pop\n      pop\n      jump\t// out\n        /* \"#utility.yul\":1190:1436   */\n    tag_94:\n        /* \"#utility.yul\":1271:1272   */\n      0x00\n        /* \"#utility.yul\":1281:1394   */\n    tag_144:\n        /* \"#utility.yul\":1295:1301   */\n      dup4\n        /* \"#utility.yul\":1292:1293   */\n      dup2\n        /* \"#utility.yul\":1289:1302   */\n      lt\n        /* \"#utility.yul\":1281:1394   */\n      iszero\n      tag_146\n      jumpi\n        /* \"#utility.yul\":1380:1381   */\n      dup1\n        /* \"#utility.yul\":1375:1378   */\n      dup3\n        /* \"#utility.yul\":1371:1382   */\n      add\n        /* \"#utility.yul\":1365:1383   */\n      mload\n        /* \"#utility.yul\":1361:1362   */\n      dup2\n        /* \"#utility.yul\":1356:1359   */\n      dup5\n        /* \"#utility.yul\":1352:1363   */\n      add\n        /* \"#utility.yul\":1345:1384   */\n      mstore\n        /* \"#utility.yul\":1317:1319   */\n      0x20\n        /* \"#utility.yul\":1314:1315   */\n      dup2\n        /* \"#utility.yul\":1310:1320   */\n      add\n        /* \"#utility.yul\":1305:1320   */\n      swap1\n      pop\n        /* \"#utility.yul\":1281:1394   */\n      jump(tag_144)\n    tag_146:\n        /* \"#utility.yul\":1428:1429   */\n      0x00\n        /* \"#utility.yul\":1419:1425   */\n      dup5\n        /* \"#utility.yul\":1414:1417   */\n      dup5\n        /* \"#utility.yul\":1410:1426   */\n      add\n        /* \"#utility.yul\":1403:1430   */\n      mstore\n        /* \"#utility.yul\":1252:1436   */\n      pop\n        /* \"#utility.yul\":1190:1436   */\n      pop\n      pop\n      pop\n      jump\t// out\n        /* \"#utility.yul\":1442:1544   */\n    tag_95:\n        /* \"#utility.yul\":1483:1489   */\n      0x00\n        /* \"#utility.yul\":1534:1536   */\n      0x1f\n        /* \"#utility.yul\":1530:1537   */\n      not\n        /* \"#utility.yul\":1525:1527   */\n      0x1f\n        /* \"#utility.yul\":1518:1523   */\n      dup4\n        /* \"#utility.yul\":1514:1528   */\n      add\n        /* \"#utility.yul\":1510:1538   */\n      and\n        /* \"#utility.yul\":1500:1538   */\n      swap1\n      pop\n        /* \"#utility.yul\":1442:1544   */\n      swap2\n      swap1\n      pop\n      jump\t// out\n        /* \"#utility.yul\":1550:1907   */\n    tag_96:\n        /* \"#utility.yul\":1628:1631   */\n      0x00\n        /* \"#utility.yul\":1656:1695   */\n      tag_149\n        /* \"#utility.yul\":1689:1694   */\n      dup3\n        /* \"#utility.yul\":1656:1695   */\n      tag_92\n      jump\t// in\n    tag_149:\n        /* \"#utility.yul\":1711:1772   */\n      tag_150\n        /* \"#utility.yul\":1765:1771   */\n      dup2\n        /* \"#utility.yul\":1760:1763   */\n      dup6\n        /* \"#utility.yul\":1711:1772   */\n      tag_93\n      jump\t// in\n    tag_150:\n        /* \"#utility.yul\":1704:1772   */\n      swap4\n      pop\n        /* \"#utility.yul\":1781:1846   */\n      tag_151\n        /* \"#utility.yul\":1839:1845   */\n      dup2\n        /* \"#utility.yul\":1834:1837   */\n      dup6\n        /* \"#utility.yul\":1827:1831   */\n      0x20\n        /* \"#utility.yul\":1820:1825   */\n      dup7\n        /* \"#utility.yul\":1816:1832   */\n      add\n        /* \"#utility.yul\":1781:1846   */\n      tag_94\n      jump\t// in\n    tag_151:\n        /* \"#utility.yul\":1871:1900   */\n      tag_152\n        /* \"#utility.yul\":1893:1899   */\n      dup2\n        /* \"#utility.yul\":1871:1900   */\n      tag_95\n      jump\t// in\n    tag_152:\n        /* \"#utility.yul\":1866:1869   */\n      dup5\n        /* \"#utility.yul\":1862:1901   */\n      add\n        /* \"#utility.yul\":1855:1901   */\n      swap2\n      pop\n        /* \"#utility.yul\":1632:1907   */\n      pop\n        /* \"#utility.yul\":1550:1907   */\n      swap3\n      swap2\n      pop\n      pop\n      jump\t// out\n        /* \"#utility.yul\":1913:2109   */\n    tag_97:\n        /* \"#utility.yul\":2002:2012   */\n      0x00\n        /* \"#utility.yul\":2037:2103   */\n      tag_154\n        /* \"#utility.yul\":2099:2102   */\n      dup4\n        /* \"#utility.yul\":2091:2097   */\n      dup4\n        /* \"#utility.yul\":2037:2103   */\n      tag_96\n      jump\t// in\n    tag_154:\n        /* \"#utility.yul\":2023:2103   */\n      swap1\n      pop\n        /* \"#utility.yul\":1913:2109   */\n      swap3\n      swap2\n      pop\n      pop\n      jump\t// out\n        /* \"#utility.yul\":2115:2238   */\n    tag_98:\n        /* \"#utility.yul\":2195:2199   */\n      0x00\n        /* \"#utility.yul\":2227:2231   */\n      0x20\n        /* \"#utility.yul\":2222:2225   */\n      dup3\n        /* \"#utility.yul\":2218:2232   */\n      add\n        /* \"#utility.yul\":2210:2232   */\n      swap1\n      pop\n        /* \"#utility.yul\":2115:2238   */\n      swap2\n      swap1\n      pop\n      jump\t// out\n        /* \"#utility.yul\":2272:3263   */\n    tag_99:\n        /* \"#utility.yul\":2411:2414   */\n      0x00\n        /* \"#utility.yul\":2440:2504   */\n      tag_157\n        /* \"#utility.yul\":2498:2503   */\n      dup3\n        /* \"#utility.yul\":2440:2504   */\n      tag_89\n      jump\t// in\n    tag_157:\n        /* \"#utility.yul\":2520:2616   */\n      tag_158\n        /* \"#utility.yul\":2609:2615   */\n      dup2\n        /* \"#utility.yul\":2604:2607   */\n      dup6\n        /* \"#utility.yul\":2520:2616   */\n      tag_90\n      jump\t// in\n    tag_158:\n        /* \"#utility.yul\":2513:2616   */\n      swap4\n      pop\n        /* \"#utility.yul\":2642:2645   */\n      dup4\n        /* \"#utility.yul\":2687:2691   */\n      0x20\n        /* \"#utility.yul\":2679:2685   */\n      dup3\n        /* \"#utility.yul\":2675:2692   */\n      mul\n        /* \"#utility.yul\":2670:2673   */\n      dup6\n        /* \"#utility.yul\":2666:2693   */\n      add\n        /* \"#utility.yul\":2717:2783   */\n      tag_159\n        /* \"#utility.yul\":2777:2782   */\n      dup6\n        /* \"#utility.yul\":2717:2783   */\n      tag_91\n      jump\t// in\n    tag_159:\n        /* \"#utility.yul\":2806:2813   */\n      dup1\n        /* \"#utility.yul\":2837:2838   */\n      0x00\n        /* \"#utility.yul\":2822:3218   */\n    tag_160:\n        /* \"#utility.yul\":2847:2853   */\n      dup6\n        /* \"#utility.yul\":2844:2845   */\n      dup2\n        /* \"#utility.yul\":2841:2854   */\n      lt\n        /* \"#utility.yul\":2822:3218   */\n      iszero\n      tag_162\n      jumpi\n        /* \"#utility.yul\":2918:2927   */\n      dup5\n        /* \"#utility.yul\":2912:2916   */\n      dup5\n        /* \"#utility.yul\":2908:2928   */\n      sub\n        /* \"#utility.yul\":2903:2906   */\n      dup10\n        /* \"#utility.yul\":2896:2929   */\n      mstore\n        /* \"#utility.yul\":2969:2975   */\n      dup2\n        /* \"#utility.yul\":2963:2976   */\n      mload\n        /* \"#utility.yul\":2997:3081   */\n      tag_163\n        /* \"#utility.yul\":3076:3080   */\n      dup6\n        /* \"#utility.yul\":3061:3074   */\n      dup3\n        /* \"#utility.yul\":2997:3081   */\n      tag_97\n      jump\t// in\n    tag_163:\n        /* \"#utility.yul\":2989:3081   */\n      swap5\n      pop\n        /* \"#utility.yul\":3104:3174   */\n      tag_164\n        /* \"#utility.yul\":3167:3173   */\n      dup4\n        /* \"#utility.yul\":3104:3174   */\n      tag_98\n      jump\t// in\n    tag_164:\n        /* \"#utility.yul\":3094:3174   */\n      swap3\n      pop\n        /* \"#utility.yul\":3203:3207   */\n      0x20\n        /* \"#utility.yul\":3198:3201   */\n      dup11\n        /* \"#utility.yul\":3194:3208   */\n      add\n        /* \"#utility.yul\":3187:3208   */\n      swap10\n      pop\n        /* \"#utility.yul\":2882:3218   */\n      pop\n        /* \"#utility.yul\":2869:2870   */\n      0x01\n        /* \"#utility.yul\":2866:2867   */\n      dup2\n        /* \"#utility.yul\":2862:2871   */\n      add\n        /* \"#utility.yul\":2857:2871   */\n      swap1\n      pop\n        /* \"#utility.yul\":2822:3218   */\n      jump(tag_160)\n    tag_162:\n        /* \"#utility.yul\":2826:2840   */\n      pop\n        /* \"#utility.yul\":3234:3238   */\n      dup3\n        /* \"#utility.yul\":3227:3238   */\n      swap8\n      pop\n        /* \"#utility.yul\":3254:3257   */\n      dup8\n        /* \"#utility.yul\":3247:3257   */\n      swap6\n      pop\n        /* \"#utility.yul\":2416:3263   */\n      pop\n      pop\n      pop\n      pop\n      pop\n        /* \"#utility.yul\":2272:3263   */\n      swap3\n      swap2\n      pop\n      pop\n      jump\t// out\n        /* \"#utility.yul\":3269:3983   */\n    tag_15:\n        /* \"#utility.yul\":3530:3534   */\n      0x00\n        /* \"#utility.yul\":3568:3570   */\n      0x40\n        /* \"#utility.yul\":3557:3566   */\n      dup3\n        /* \"#utility.yul\":3553:3571   */\n      add\n        /* \"#utility.yul\":3545:3571   */\n      swap1\n      pop\n        /* \"#utility.yul\":3617:3626   */\n      dup2\n        /* \"#utility.yul\":3611:3615   */\n      dup2\n        /* \"#utility.yul\":3607:3627   */\n      sub\n        /* \"#utility.yul\":3603:3604   */\n      0x00\n        /* \"#utility.yul\":3592:3601   */\n      dup4\n        /* \"#utility.yul\":3588:3605   */\n      add\n        /* \"#utility.yul\":3581:3628   */\n      mstore\n        /* \"#utility.yul\":3645:3773   */\n      tag_166\n        /* \"#utility.yul\":3768:3772   */\n      dup2\n        /* \"#utility.yul\":3759:3765   */\n      dup6\n        /* \"#utility.yul\":3645:3773   */\n      tag_99\n      jump\t// in\n    tag_166:\n        /* \"#utility.yul\":3637:3773   */\n      swap1\n      pop\n        /* \"#utility.yul\":3820:3829   */\n      dup2\n        /* \"#utility.yul\":3814:3818   */\n      dup2\n        /* \"#utility.yul\":3810:3830   */\n      sub\n        /* \"#utility.yul\":3805:3807   */\n      0x20\n        /* \"#utility.yul\":3794:3803   */\n      dup4\n        /* \"#utility.yul\":3790:3808   */\n      add\n        /* \"#utility.yul\":3783:3831   */\n      mstore\n        /* \"#utility.yul\":3848:3976   */\n      tag_167\n        /* \"#utility.yul\":3971:3975   */\n      dup2\n        /* \"#utility.yul\":3962:3968   */\n      dup5\n        /* \"#utility.yul\":3848:3976   */\n      tag_99\n      jump\t// in\n    tag_167:\n        /* \"#utility.yul\":3840:3976   */\n      swap1\n      pop\n        /* \"#utility.yul\":3269:3983   */\n      swap4\n      swap3\n      pop\n      pop\n      pop\n      jump\t// out\n        /* \"#utility.yul\":3989:4064   */\n    tag_100:\n        /* \"#utility.yul\":4022:4028   */\n      0x00\n        /* \"#utility.yul\":4055:4057   */\n      0x40\n        /* \"#utility.yul\":4049:4058   */\n      mload\n        /* \"#utility.yul\":4039:4058   */\n      swap1\n      pop\n        /* \"#utility.yul\":3989:4064   */\n      swap1\n      jump\t// out\n        /* \"#utility.yul\":4070:4187   */\n    tag_101:\n        /* \"#utility.yul\":4179:4180   */\n      0x00\n        /* \"#utility.yul\":4176:4177   */\n      dup1\n        /* \"#utility.yul\":4169:4181   */\n      revert\n        /* \"#utility.yul\":4193:4310   */\n    tag_102:\n        /* \"#utility.yul\":4302:4303   */\n      0x00\n        /* \"#utility.yul\":4299:4300   */\n      dup1\n        /* \"#utility.yul\":4292:4304   */\n      revert\n        /* \"#utility.yul\":4316:4438   */\n    tag_103:\n        /* \"#utility.yul\":4389:4413   */\n      tag_172\n        /* \"#utility.yul\":4407:4412   */\n      dup2\n        /* \"#utility.yul\":4389:4413   */\n      tag_87\n      jump\t// in\n    tag_172:\n        /* \"#utility.yul\":4382:4387   */\n      dup2\n        /* \"#utility.yul\":4379:4414   */\n      eq\n        /* \"#utility.yul\":4369:4432   */\n      tag_173\n      jumpi\n        /* \"#utility.yul\":4428:4429   */\n      0x00\n        /* \"#utility.yul\":4425:4426   */\n      dup1\n        /* \"#utility.yul\":4418:4430   */\n      revert\n        /* \"#utility.yul\":4369:4432   */\n    tag_173:\n        /* \"#utility.yul\":4316:4438   */\n      pop\n      jump\t// out\n        /* \"#utility.yul\":4444:4583   */\n    tag_104:\n        /* \"#utility.yul\":4490:4495   */\n      0x00\n        /* \"#utility.yul\":4528:4534   */\n      dup2\n        /* \"#utility.yul\":4515:4535   */\n      calldataload\n        /* \"#utility.yul\":4506:4535   */\n      swap1\n      pop\n        /* \"#utility.yul\":4544:4577   */\n      tag_175\n        /* \"#utility.yul\":4571:4576   */\n      dup2\n        /* \"#utility.yul\":4544:4577   */\n      tag_103\n      jump\t// in\n    tag_175:\n        /* \"#utility.yul\":4444:4583   */\n      swap3\n      swap2\n      pop\n      pop\n      jump\t// out\n        /* \"#utility.yul\":4589:4918   */\n    tag_18:\n        /* \"#utility.yul\":4648:4654   */\n      0x00\n        /* \"#utility.yul\":4697:4699   */\n      0x20\n        /* \"#utility.yul\":4685:4694   */\n      dup3\n        /* \"#utility.yul\":4676:4683   */\n      dup5\n        /* \"#utility.yul\":4672:4695   */\n      sub\n        /* \"#utility.yul\":4668:4700   */\n      slt\n        /* \"#utility.yul\":4665:4784   */\n      iszero\n      tag_177\n      jumpi\n        /* \"#utility.yul\":4703:4782   */\n      tag_178\n      tag_101\n      jump\t// in\n    tag_178:\n        /* \"#utility.yul\":4665:4784   */\n    tag_177:\n        /* \"#utility.yul\":4823:4824   */\n      0x00\n        /* \"#utility.yul\":4848:4901   */\n      tag_179\n        /* \"#utility.yul\":4893:4900   */\n      dup5\n        /* \"#utility.yul\":4884:4890   */\n      dup3\n        /* \"#utility.yul\":4873:4882   */\n      dup6\n        /* \"#utility.yul\":4869:4891   */\n      add\n        /* \"#utility.yul\":4848:4901   */\n      tag_104\n      jump\t// in\n    tag_179:\n        /* \"#utility.yul\":4838:4901   */\n      swap2\n      pop\n        /* \"#utility.yul\":4794:4911   */\n      pop\n        /* \"#utility.yul\":4589:4918   */\n      swap3\n      swap2\n      pop\n      pop\n      jump\t// out\n        /* \"#utility.yul\":4924:5093   */\n    tag_105:\n        /* \"#utility.yul\":5008:5019   */\n      0x00\n        /* \"#utility.yul\":5042:5048   */\n      dup3\n        /* \"#utility.yul\":5037:5040   */\n      dup3\n        /* \"#utility.yul\":5030:5049   */\n      mstore\n        /* \"#utility.yul\":5082:5086   */\n      0x20\n        /* \"#utility.yul\":5077:5080   */\n      dup3\n        /* \"#utility.yul\":5073:5087   */\n      add\n        /* \"#utility.yul\":5058:5087   */\n      swap1\n      pop\n        /* \"#utility.yul\":4924:5093   */\n      swap3\n      swap2\n      pop\n      pop\n      jump\t// out\n        /* \"#utility.yul\":5099:5476   */\n    tag_106:\n        /* \"#utility.yul\":5187:5190   */\n      0x00\n        /* \"#utility.yul\":5215:5254   */\n      tag_182\n        /* \"#utility.yul\":5248:5253   */\n      dup3\n        /* \"#utility.yul\":5215:5254   */\n      tag_92\n      jump\t// in\n    tag_182:\n        /* \"#utility.yul\":5270:5341   */\n      tag_183\n        /* \"#utility.yul\":5334:5340   */\n      dup2\n        /* \"#utility.yul\":5329:5332   */\n      dup6\n        /* \"#utility.yul\":5270:5341   */\n      tag_105\n      jump\t// in\n    tag_183:\n        /* \"#utility.yul\":5263:5341   */\n      swap4\n      pop\n        /* \"#utility.yul\":5350:5415   */\n      tag_184\n        /* \"#utility.yul\":5408:5414   */\n      dup2\n        /* \"#utility.yul\":5403:5406   */\n      dup6\n        /* \"#utility.yul\":5396:5400   */\n      0x20\n        /* \"#utility.yul\":5389:5394   */\n      dup7\n        /* \"#utility.yul\":5385:5401   */\n      add\n        /* \"#utility.yul\":5350:5415   */\n      tag_94\n      jump\t// in\n    tag_184:\n        /* \"#utility.yul\":5440:5469   */\n      tag_185\n        /* \"#utility.yul\":5462:5468   */\n      dup2\n        /* \"#utility.yul\":5440:5469   */\n      tag_95\n      jump\t// in\n    tag_185:\n        /* \"#utility.yul\":5435:5438   */\n      dup5\n        /* \"#utility.yul\":5431:5470   */\n      add\n        /* \"#utility.yul\":5424:5470   */\n      swap2\n      pop\n        /* \"#utility.yul\":5191:5476   */\n      pop\n        /* \"#utility.yul\":5099:5476   */\n      swap3\n      swap2\n      pop\n      pop\n      jump\t// out\n        /* \"#utility.yul\":5482:5996   */\n    tag_21:\n        /* \"#utility.yul\":5643:5647   */\n      0x00\n        /* \"#utility.yul\":5681:5683   */\n      0x40\n        /* \"#utility.yul\":5670:5679   */\n      dup3\n        /* \"#utility.yul\":5666:5684   */\n      add\n        /* \"#utility.yul\":5658:5684   */\n      swap1\n      pop\n        /* \"#utility.yul\":5730:5739   */\n      dup2\n        /* \"#utility.yul\":5724:5728   */\n      dup2\n        /* \"#utility.yul\":5720:5740   */\n      sub\n        /* \"#utility.yul\":5716:5717   */\n      0x00\n        /* \"#utility.yul\":5705:5714   */\n      dup4\n        /* \"#utility.yul\":5701:5718   */\n      add\n        /* \"#utility.yul\":5694:5741   */\n      mstore\n        /* \"#utility.yul\":5758:5836   */\n      tag_187\n        /* \"#utility.yul\":5831:5835   */\n      dup2\n        /* \"#utility.yul\":5822:5828   */\n      dup6\n        /* \"#utility.yul\":5758:5836   */\n      tag_106\n      jump\t// in\n    tag_187:\n        /* \"#utility.yul\":5750:5836   */\n      swap1\n      pop\n        /* \"#utility.yul\":5883:5892   */\n      dup2\n        /* \"#utility.yul\":5877:5881   */\n      dup2\n        /* \"#utility.yul\":5873:5893   */\n      sub\n        /* \"#utility.yul\":5868:5870   */\n      0x20\n        /* \"#utility.yul\":5857:5866   */\n      dup4\n        /* \"#utility.yul\":5853:5871   */\n      add\n        /* \"#utility.yul\":5846:5894   */\n      mstore\n        /* \"#utility.yul\":5911:5989   */\n      tag_188\n        /* \"#utility.yul\":5984:5988   */\n      dup2\n        /* \"#utility.yul\":5975:5981   */\n      dup5\n        /* \"#utility.yul\":5911:5989   */\n      tag_106\n      jump\t// in\n    tag_188:\n        /* \"#utility.yul\":5903:5989   */\n      swap1\n      pop\n        /* \"#utility.yul\":5482:5996   */\n      swap4\n      swap3\n      pop\n      pop\n      pop\n      jump\t// out\n        /* \"#utility.yul\":6002:6119   */\n    tag_107:\n        /* \"#utility.yul\":6111:6112   */\n      0x00\n        /* \"#utility.yul\":6108:6109   */\n      dup1\n        /* \"#utility.yul\":6101:6113   */\n      revert\n        /* \"#utility.yul\":6125:6242   */\n    tag_108:\n        /* \"#utility.yul\":6234:6235   */\n      0x00\n        /* \"#utility.yul\":6231:6232   */\n      dup1\n        /* \"#utility.yul\":6224:6236   */\n      revert\n        /* \"#utility.yul\":6248:6428   */\n    tag_33:\n        /* \"#utility.yul\":6296:6373   */\n      0x4e487b7100000000000000000000000000000000000000000000000000000000\n        /* \"#utility.yul\":6293:6294   */\n      0x00\n        /* \"#utility.yul\":6286:6374   */\n      mstore\n        /* \"#utility.yul\":6393:6397   */\n      0x41\n        /* \"#utility.yul\":6390:6391   */\n      0x04\n        /* \"#utility.yul\":6383:6398   */\n      mstore\n        /* \"#utility.yul\":6417:6421   */\n      0x24\n        /* \"#utility.yul\":6414:6415   */\n      0x00\n        /* \"#utility.yul\":6407:6422   */\n      revert\n        /* \"#utility.yul\":6434:6715   */\n    tag_109:\n        /* \"#utility.yul\":6517:6544   */\n      tag_193\n        /* \"#utility.yul\":6539:6543   */\n      dup3\n        /* \"#utility.yul\":6517:6544   */\n      tag_95\n      jump\t// in\n    tag_193:\n        /* \"#utility.yul\":6509:6515   */\n      dup2\n        /* \"#utility.yul\":6505:6545   */\n      add\n        /* \"#utility.yul\":6647:6653   */\n      dup2\n        /* \"#utility.yul\":6635:6645   */\n      dup2\n        /* \"#utility.yul\":6632:6654   */\n      lt\n        /* \"#utility.yul\":6611:6629   */\n      0xffffffffffffffff\n        /* \"#utility.yul\":6599:6609   */\n      dup3\n        /* \"#utility.yul\":6596:6630   */\n      gt\n        /* \"#utility.yul\":6593:6655   */\n      or\n        /* \"#utility.yul\":6590:6678   */\n      iszero\n      tag_194\n      jumpi\n        /* \"#utility.yul\":6658:6676   */\n      tag_195\n      tag_33\n      jump\t// in\n    tag_195:\n        /* \"#utility.yul\":6590:6678   */\n    tag_194:\n        /* \"#utility.yul\":6698:6708   */\n      dup1\n        /* \"#utility.yul\":6694:6696   */\n      0x40\n        /* \"#utility.yul\":6687:6709   */\n      mstore\n        /* \"#utility.yul\":6477:6715   */\n      pop\n        /* \"#utility.yul\":6434:6715   */\n      pop\n      pop\n      jump\t// out\n        /* \"#utility.yul\":6721:6850   */\n    tag_110:\n        /* \"#utility.yul\":6755:6761   */\n      0x00\n        /* \"#utility.yul\":6782:6802   */\n      tag_197\n      tag_100\n      jump\t// in\n    tag_197:\n        /* \"#utility.yul\":6772:6802   */\n      swap1\n      pop\n        /* \"#utility.yul\":6811:6844   */\n      tag_198\n        /* \"#utility.yul\":6839:6843   */\n      dup3\n        /* \"#utility.yul\":6831:6837   */\n      dup3\n        /* \"#utility.yul\":6811:6844   */\n      tag_109\n      jump\t// in\n    tag_198:\n        /* \"#utility.yul\":6721:6850   */\n      swap2\n      swap1\n      pop\n      jump\t// out\n        /* \"#utility.yul\":6856:7164   */\n    tag_111:\n        /* \"#utility.yul\":6918:6922   */\n      0x00\n        /* \"#utility.yul\":7008:7026   */\n      0xffffffffffffffff\n        /* \"#utility.yul\":7000:7006   */\n      dup3\n        /* \"#utility.yul\":6997:7027   */\n      gt\n        /* \"#utility.yul\":6994:7050   */\n      iszero\n      tag_200\n      jumpi\n        /* \"#utility.yul\":7030:7048   */\n      tag_201\n      tag_33\n      jump\t// in\n    tag_201:\n        /* \"#utility.yul\":6994:7050   */\n    tag_200:\n        /* \"#utility.yul\":7068:7097   */\n      tag_202\n        /* \"#utility.yul\":7090:7096   */\n      dup3\n        /* \"#utility.yul\":7068:7097   */\n      tag_95\n      jump\t// in\n    tag_202:\n        /* \"#utility.yul\":7060:7097   */\n      swap1\n      pop\n        /* \"#utility.yul\":7152:7156   */\n      0x20\n        /* \"#utility.yul\":7146:7150   */\n      dup2\n        /* \"#utility.yul\":7142:7157   */\n      add\n        /* \"#utility.yul\":7134:7157   */\n      swap1\n      pop\n        /* \"#utility.yul\":6856:7164   */\n      swap2\n      swap1\n      pop\n      jump\t// out\n        /* \"#utility.yul\":7170:7316   */\n    tag_112:\n        /* \"#utility.yul\":7267:7273   */\n      dup3\n        /* \"#utility.yul\":7262:7265   */\n      dup2\n        /* \"#utility.yul\":7257:7260   */\n      dup4\n        /* \"#utility.yul\":7244:7274   */\n      calldatacopy\n        /* \"#utility.yul\":7308:7309   */\n      0x00\n        /* \"#utility.yul\":7299:7305   */\n      dup4\n        /* \"#utility.yul\":7294:7297   */\n      dup4\n        /* \"#utility.yul\":7290:7306   */\n      add\n        /* \"#utility.yul\":7283:7310   */\n      mstore\n        /* \"#utility.yul\":7170:7316   */\n      pop\n      pop\n      pop\n      jump\t// out\n        /* \"#utility.yul\":7322:7747   */\n    tag_113:\n        /* \"#utility.yul\":7400:7405   */\n      0x00\n        /* \"#utility.yul\":7425:7491   */\n      tag_205\n        /* \"#utility.yul\":7441:7490   */\n      tag_206\n        /* \"#utility.yul\":7483:7489   */\n      dup5\n        /* \"#utility.yul\":7441:7490   */\n      tag_111\n      jump\t// in\n    tag_206:\n        /* \"#utility.yul\":7425:7491   */\n      tag_110\n      jump\t// in\n    tag_205:\n        /* \"#utility.yul\":7416:7491   */\n      swap1\n      pop\n        /* \"#utility.yul\":7514:7520   */\n      dup3\n        /* \"#utility.yul\":7507:7512   */\n      dup2\n        /* \"#utility.yul\":7500:7521   */\n      mstore\n        /* \"#utility.yul\":7552:7556   */\n      0x20\n        /* \"#utility.yul\":7545:7550   */\n      dup2\n        /* \"#utility.yul\":7541:7557   */\n      add\n        /* \"#utility.yul\":7590:7593   */\n      dup5\n        /* \"#utility.yul\":7581:7587   */\n      dup5\n        /* \"#utility.yul\":7576:7579   */\n      dup5\n        /* \"#utility.yul\":7572:7588   */\n      add\n        /* \"#utility.yul\":7569:7594   */\n      gt\n        /* \"#utility.yul\":7566:7678   */\n      iszero\n      tag_207\n      jumpi\n        /* \"#utility.yul\":7597:7676   */\n      tag_208\n      tag_108\n      jump\t// in\n    tag_208:\n        /* \"#utility.yul\":7566:7678   */\n    tag_207:\n        /* \"#utility.yul\":7687:7741   */\n      tag_209\n        /* \"#utility.yul\":7734:7740   */\n      dup5\n        /* \"#utility.yul\":7729:7732   */\n      dup3\n        /* \"#utility.yul\":7724:7727   */\n      dup6\n        /* \"#utility.yul\":7687:7741   */\n      tag_112\n      jump\t// in\n    tag_209:\n        /* \"#utility.yul\":7406:7747   */\n      pop\n        /* \"#utility.yul\":7322:7747   */\n      swap4\n      swap3\n      pop\n      pop\n      pop\n      jump\t// out\n        /* \"#utility.yul\":7767:8107   */\n    tag_114:\n        /* \"#utility.yul\":7823:7828   */\n      0x00\n        /* \"#utility.yul\":7872:7875   */\n      dup3\n        /* \"#utility.yul\":7865:7869   */\n      0x1f\n        /* \"#utility.yul\":7857:7863   */\n      dup4\n        /* \"#utility.yul\":7853:7870   */\n      add\n        /* \"#utility.yul\":7849:7876   */\n      slt\n        /* \"#utility.yul\":7839:7961   */\n      tag_211\n      jumpi\n        /* \"#utility.yul\":7880:7959   */\n      tag_212\n      tag_107\n      jump\t// in\n    tag_212:\n        /* \"#utility.yul\":7839:7961   */\n    tag_211:\n        /* \"#utility.yul\":7997:8003   */\n      dup2\n        /* \"#utility.yul\":7984:8004   */\n      calldataload\n        /* \"#utility.yul\":8022:8101   */\n      tag_213\n        /* \"#utility.yul\":8097:8100   */\n      dup5\n        /* \"#utility.yul\":8089:8095   */\n      dup3\n        /* \"#utility.yul\":8082:8086   */\n      0x20\n        /* \"#utility.yul\":8074:8080   */\n      dup7\n        /* \"#utility.yul\":8070:8087   */\n      add\n        /* \"#utility.yul\":8022:8101   */\n      tag_113\n      jump\t// in\n    tag_213:\n        /* \"#utility.yul\":8013:8101   */\n      swap2\n      pop\n        /* \"#utility.yul\":7829:8107   */\n      pop\n        /* \"#utility.yul\":7767:8107   */\n      swap3\n      swap2\n      pop\n      pop\n      jump\t// out\n        /* \"#utility.yul\":8113:8947   */\n    tag_28:\n        /* \"#utility.yul\":8201:8207   */\n      0x00\n        /* \"#utility.yul\":8209:8215   */\n      dup1\n        /* \"#utility.yul\":8258:8260   */\n      0x40\n        /* \"#utility.yul\":8246:8255   */\n      dup4\n        /* \"#utility.yul\":8237:8244   */\n      dup6\n        /* \"#utility.yul\":8233:8256   */\n      sub\n        /* \"#utility.yul\":8229:8261   */\n      slt\n        /* \"#utility.yul\":8226:8345   */\n      iszero\n      tag_215\n      jumpi\n        /* \"#utility.yul\":8264:8343   */\n      tag_216\n      tag_101\n      jump\t// in\n    tag_216:\n        /* \"#utility.yul\":8226:8345   */\n    tag_215:\n        /* \"#utility.yul\":8412:8413   */\n      0x00\n        /* \"#utility.yul\":8401:8410   */\n      dup4\n        /* \"#utility.yul\":8397:8414   */\n      add\n        /* \"#utility.yul\":8384:8415   */\n      calldataload\n        /* \"#utility.yul\":8442:8460   */\n      0xffffffffffffffff\n        /* \"#utility.yul\":8434:8440   */\n      dup2\n        /* \"#utility.yul\":8431:8461   */\n      gt\n        /* \"#utility.yul\":8428:8545   */\n      iszero\n      tag_217\n      jumpi\n        /* \"#utility.yul\":8464:8543   */\n      tag_218\n      tag_102\n      jump\t// in\n    tag_218:\n        /* \"#utility.yul\":8428:8545   */\n    tag_217:\n        /* \"#utility.yul\":8569:8632   */\n      tag_219\n        /* \"#utility.yul\":8624:8631   */\n      dup6\n        /* \"#utility.yul\":8615:8621   */\n      dup3\n        /* \"#utility.yul\":8604:8613   */\n      dup7\n        /* \"#utility.yul\":8600:8622   */\n      add\n        /* \"#utility.yul\":8569:8632   */\n      tag_114\n      jump\t// in\n    tag_219:\n        /* \"#utility.yul\":8559:8632   */\n      swap3\n      pop\n        /* \"#utility.yul\":8355:8642   */\n      pop\n        /* \"#utility.yul\":8709:8711   */\n      0x20\n        /* \"#utility.yul\":8698:8707   */\n      dup4\n        /* \"#utility.yul\":8694:8712   */\n      add\n        /* \"#utility.yul\":8681:8713   */\n      calldataload\n        /* \"#utility.yul\":8740:8758   */\n      0xffffffffffffffff\n        /* \"#utility.yul\":8732:8738   */\n      dup2\n        /* \"#utility.yul\":8729:8759   */\n      gt\n        /* \"#utility.yul\":8726:8843   */\n      iszero\n      tag_220\n      jumpi\n        /* \"#utility.yul\":8762:8841   */\n      tag_221\n      tag_102\n      jump\t// in\n    tag_221:\n        /* \"#utility.yul\":8726:8843   */\n    tag_220:\n        /* \"#utility.yul\":8867:8930   */\n      tag_222\n        /* \"#utility.yul\":8922:8929   */\n      dup6\n        /* \"#utility.yul\":8913:8919   */\n      dup3\n        /* \"#utility.yul\":8902:8911   */\n      dup7\n        /* \"#utility.yul\":8898:8920   */\n      add\n        /* \"#utility.yul\":8867:8930   */\n      tag_114\n      jump\t// in\n    tag_222:\n        /* \"#utility.yul\":8857:8930   */\n      swap2\n      pop\n        /* \"#utility.yul\":8652:8940   */\n      pop\n        /* \"#utility.yul\":8113:8947   */\n      swap3\n      pop\n      swap3\n      swap1\n      pop\n      jump\t// out\n        /* \"#utility.yul\":8953:9133   */\n    tag_115:\n        /* \"#utility.yul\":9001:9078   */\n      0x4e487b7100000000000000000000000000000000000000000000000000000000\n        /* \"#utility.yul\":8998:8999   */\n      0x00\n        /* \"#utility.yul\":8991:9079   */\n      mstore\n        /* \"#utility.yul\":9098:9102   */\n      0x22\n        /* \"#utility.yul\":9095:9096   */\n      0x04\n        /* \"#utility.yul\":9088:9103   */\n      mstore\n        /* \"#utility.yul\":9122:9126   */\n      0x24\n        /* \"#utility.yul\":9119:9120   */\n      0x00\n        /* \"#utility.yul\":9112:9127   */\n      revert\n        /* \"#utility.yul\":9139:9459   */\n    tag_44:\n        /* \"#utility.yul\":9183:9189   */\n      0x00\n        /* \"#utility.yul\":9220:9221   */\n      0x02\n        /* \"#utility.yul\":9214:9218   */\n      dup3\n        /* \"#utility.yul\":9210:9222   */\n      div\n        /* \"#utility.yul\":9200:9222   */\n      swap1\n      pop\n        /* \"#utility.yul\":9267:9268   */\n      0x01\n        /* \"#utility.yul\":9261:9265   */\n      dup3\n        /* \"#utility.yul\":9257:9269   */\n      and\n        /* \"#utility.yul\":9288:9306   */\n      dup1\n        /* \"#utility.yul\":9278:9359   */\n      tag_225\n      jumpi\n        /* \"#utility.yul\":9344:9348   */\n      0x7f\n        /* \"#utility.yul\":9336:9342   */\n      dup3\n        /* \"#utility.yul\":9332:9349   */\n      and\n        /* \"#utility.yul\":9322:9349   */\n      swap2\n      pop\n        /* \"#utility.yul\":9278:9359   */\n    tag_225:\n        /* \"#utility.yul\":9406:9408   */\n      0x20\n        /* \"#utility.yul\":9398:9404   */\n      dup3\n        /* \"#utility.yul\":9395:9409   */\n      lt\n        /* \"#utility.yul\":9375:9393   */\n      dup2\n        /* \"#utility.yul\":9372:9410   */\n      sub\n        /* \"#utility.yul\":9369:9453   */\n      tag_226\n      jumpi\n        /* \"#utility.yul\":9425:9443   */\n      tag_227\n      tag_115\n      jump\t// in\n    tag_227:\n        /* \"#utility.yul\":9369:9453   */\n    tag_226:\n        /* \"#utility.yul\":9190:9459   */\n      pop\n        /* \"#utility.yul\":9139:9459   */\n      swap2\n      swap1\n      pop\n      jump\t// out\n        /* \"#utility.yul\":9465:9645   */\n    tag_51:\n        /* \"#utility.yul\":9513:9590   */\n      0x4e487b7100000000000000000000000000000000000000000000000000000000\n        /* \"#utility.yul\":9510:9511   */\n      0x00\n        /* \"#utility.yul\":9503:9591   */\n      mstore\n        /* \"#utility.yul\":9610:9614   */\n      0x32\n        /* \"#utility.yul\":9607:9608   */\n      0x04\n        /* \"#utility.yul\":9600:9615   */\n      mstore\n        /* \"#utility.yul\":9634:9638   */\n      0x24\n        /* \"#utility.yul\":9631:9632   */\n      0x00\n        /* \"#utility.yul\":9624:9639   */\n      revert\n        /* \"#utility.yul\":9651:9792   */\n    tag_116:\n        /* \"#utility.yul\":9700:9704   */\n      0x00\n        /* \"#utility.yul\":9723:9726   */\n      dup2\n        /* \"#utility.yul\":9715:9726   */\n      swap1\n      pop\n        /* \"#utility.yul\":9746:9749   */\n      dup2\n        /* \"#utility.yul\":9743:9744   */\n      0x00\n        /* \"#utility.yul\":9736:9750   */\n      mstore\n        /* \"#utility.yul\":9780:9784   */\n      0x20\n        /* \"#utility.yul\":9777:9778   */\n      0x00\n        /* \"#utility.yul\":9767:9785   */\n      keccak256\n        /* \"#utility.yul\":9759:9785   */\n      swap1\n      pop\n        /* \"#utility.yul\":9651:9792   */\n      swap2\n      swap1\n      pop\n      jump\t// out\n        /* \"#utility.yul\":9798:9891   */\n    tag_117:\n        /* \"#utility.yul\":9835:9841   */\n      0x00\n        /* \"#utility.yul\":9882:9884   */\n      0x20\n        /* \"#utility.yul\":9877:9879   */\n      0x1f\n        /* \"#utility.yul\":9870:9875   */\n      dup4\n        /* \"#utility.yul\":9866:9880   */\n      add\n        /* \"#utility.yul\":9862:9885   */\n      div\n        /* \"#utility.yul\":9852:9885   */\n      swap1\n      pop\n        /* \"#utility.yul\":9798:9891   */\n      swap2\n      swap1\n      pop\n      jump\t// out\n        /* \"#utility.yul\":9897:10004   */\n    tag_118:\n        /* \"#utility.yul\":9941:9949   */\n      0x00\n        /* \"#utility.yul\":9991:9996   */\n      dup3\n        /* \"#utility.yul\":9985:9989   */\n      dup3\n        /* \"#utility.yul\":9981:9997   */\n      shl\n        /* \"#utility.yul\":9960:9997   */\n      swap1\n      pop\n        /* \"#utility.yul\":9897:10004   */\n      swap3\n      swap2\n      pop\n      pop\n      jump\t// out\n        /* \"#utility.yul\":10010:10403   */\n    tag_119:\n        /* \"#utility.yul\":10079:10085   */\n      0x00\n        /* \"#utility.yul\":10129:10130   */\n      0x08\n        /* \"#utility.yul\":10117:10127   */\n      dup4\n        /* \"#utility.yul\":10113:10131   */\n      mul\n        /* \"#utility.yul\":10152:10249   */\n      tag_233\n        /* \"#utility.yul\":10182:10248   */\n      0xffffffffffffffffffffffffffffffffffffffffffffffffffffffffffffffff\n        /* \"#utility.yul\":10171:10180   */\n      dup3\n        /* \"#utility.yul\":10152:10249   */\n      tag_118\n      jump\t// in\n    tag_233:\n        /* \"#utility.yul\":10270:10309   */\n      tag_234\n        /* \"#utility.yul\":10300:10308   */\n      dup7\n        /* \"#utility.yul\":10289:10298   */\n      dup4\n        /* \"#utility.yul\":10270:10309   */\n      tag_118\n      jump\t// in\n    tag_234:\n        /* \"#utility.yul\":10258:10309   */\n      swap6\n      pop\n        /* \"#utility.yul\":10342:10346   */\n      dup1\n        /* \"#utility.yul\":10338:10347   */\n      not\n        /* \"#utility.yul\":10331:10336   */\n      dup5\n        /* \"#utility.yul\":10327:10348   */\n      and\n        /* \"#utility.yul\":10318:10348   */\n      swap4\n      pop\n        /* \"#utility.yul\":10391:10395   */\n      dup1\n        /* \"#utility.yul\":10381:10389   */\n      dup7\n        /* \"#utility.yul\":10377:10396   */\n      and\n        /* \"#utility.yul\":10370:10375   */\n      dup5\n        /* \"#utility.yul\":10367:10397   */\n      or\n        /* \"#utility.yul\":10357:10397   */\n      swap3\n      pop\n        /* \"#utility.yul\":10086:10403   */\n      pop\n      pop\n        /* \"#utility.yul\":10010:10403   */\n      swap4\n      swap3\n      pop\n      pop\n      pop\n      jump\t// out\n        /* \"#utility.yul\":10409:10469   */\n    tag_120:\n        /* \"#utility.yul\":10437:10440   */\n      0x00\n        /* \"#utility.yul\":10458:10463   */\n      dup2\n        /* \"#utility.yul\":10451:10463   */\n      swap1\n      pop\n        /* \"#utility.yul\":10409:10469   */\n      swap2\n      swap1\n      pop\n      jump\t// out\n        /* \"#utility.yul\":10475:10617   */\n    tag_121:\n        /* \"#utility.yul\":10525:10534   */\n      0x00\n        /* \"#utility.yul\":10558:10611   */\n      tag_237\n        /* \"#utility.yul\":10576:10610   */\n      tag_238\n        /* \"#utility.yul\":10585:10609   */\n      tag_239\n        /* \"#utility.yul\":10603:10608   */\n      dup5\n        /* \"#utility.yul\":10585:10609   */\n      tag_87\n      jump\t// in\n    tag_239:\n        /* \"#utility.yul\":10576:10610   */\n      tag_120\n      jump\t// in\n    tag_238:\n        /* \"#utility.yul\":10558:10611   */\n      tag_87\n      jump\t// in\n    tag_237:\n        /* \"#utility.yul\":10545:10611   */\n      swap1\n      pop\n        /* \"#utility.yul\":10475:10617   */\n      swap2\n      swap1\n      pop\n      jump\t// out\n        /* \"#utility.yul\":10623:10698   */\n    tag_122:\n        /* \"#utility.yul\":10666:10669   */\n      0x00\n        /* \"#utility.yul\":10687:10692   */\n      dup2\n        /* \"#utility.yul\":10680:10692   */\n      swap1\n      pop\n        /* \"#utility.yul\":10623:10698   */\n      swap2\n      swap1\n      pop\n      jump\t// out\n        /* \"#utility.yul\":10704:10973   */\n    tag_123:\n        /* \"#utility.yul\":10814:10853   */\n      tag_242\n        /* \"#utility.yul\":10845:10852   */\n      dup4\n        /* \"#utility.yul\":10814:10853   */\n      tag_121\n      jump\t// in\n    tag_242:\n        /* \"#utility.yul\":10875:10966   */\n      tag_243\n        /* \"#utility.yul\":10924:10965   */\n      tag_244\n        /* \"#utility.yul\":10948:10964   */\n      dup3\n        /* \"#utility.yul\":10924:10965   */\n      tag_122\n      jump\t// in\n    tag_244:\n        /* \"#utility.yul\":10916:10922   */\n      dup5\n        /* \"#utility.yul\":10909:10913   */\n      dup5\n        /* \"#utility.yul\":10903:10914   */\n      sload\n        /* \"#utility.yul\":10875:10966   */\n      tag_119\n      jump\t// in\n    tag_243:\n        /* \"#utility.yul\":10869:10873   */\n      dup3\n        /* \"#utility.yul\":10862:10967   */\n      sstore\n        /* \"#utility.yul\":10780:10973   */\n      pop\n        /* \"#utility.yul\":10704:10973   */\n      pop\n      pop\n      pop\n      jump\t// out\n        /* \"#utility.yul\":10979:11052   */\n    tag_124:\n        /* \"#utility.yul\":11024:11027   */\n      0x00\n        /* \"#utility.yul\":10979:11052   */\n      swap1\n      jump\t// out\n        /* \"#utility.yul\":11058:11247   */\n    tag_125:\n        /* \"#utility.yul\":11135:11167   */\n      tag_247\n      tag_124\n      jump\t// in\n    tag_247:\n        /* \"#utility.yul\":11176:11241   */\n      tag_248\n        /* \"#utility.yul\":11234:11240   */\n      dup2\n        /* \"#utility.yul\":11226:11232   */\n      dup5\n        /* \"#utility.yul\":11220:11224   */\n      dup5\n        /* \"#utility.yul\":11176:11241   */\n      tag_123\n      jump\t// in\n    tag_248:\n        /* \"#utility.yul\":11111:11247   */\n      pop\n        /* \"#utility.yul\":11058:11247   */\n      pop\n      pop\n      jump\t// out\n        /* \"#utility.yul\":11253:11439   */\n    tag_126:\n        /* \"#utility.yul\":11313:11433   */\n    tag_250:\n        /* \"#utility.yul\":11330:11333   */\n      dup2\n        /* \"#utility.yul\":11323:11328   */\n      dup2\n        /* \"#utility.yul\":11320:11334   */\n      lt\n        /* \"#utility.yul\":11313:11433   */\n      iszero\n      tag_252\n      jumpi\n        /* \"#utility.yul\":11384:11423   */\n      tag_253\n        /* \"#utility.yul\":11421:11422   */\n      0x00\n        /* \"#utility.yul\":11414:11419   */\n      dup3\n        /* \"#utility.yul\":11384:11423   */\n      tag_125\n      jump\t// in\n    tag_253:\n        /* \"#utility.yul\":11357:11358   */\n      0x01\n        /* \"#utility.yul\":11350:11355   */\n      dup2\n        /* \"#utility.yul\":11346:11359   */\n      add\n        /* \"#utility.yul\":11337:11359   */\n      swap1\n      pop\n        /* \"#utility.yul\":11313:11433   */\n      jump(tag_250)\n    tag_252:\n        /* \"#utility.yul\":11253:11439   */\n      pop\n      pop\n      jump\t// out\n        /* \"#utility.yul\":11445:11988   */\n    tag_127:\n        /* \"#utility.yul\":11546:11548   */\n      0x1f\n        /* \"#utility.yul\":11541:11544   */\n      dup3\n        /* \"#utility.yul\":11538:11549   */\n      gt\n        /* \"#utility.yul\":11535:11981   */\n      iszero\n      tag_255\n      jumpi\n        /* \"#utility.yul\":11580:11618   */\n      tag_256\n        /* \"#utility.yul\":11612:11617   */\n      dup2\n        /* \"#utility.yul\":11580:11618   */\n      tag_116\n      jump\t// in\n    tag_256:\n        /* \"#utility.yul\":11664:11693   */\n      tag_257\n        /* \"#utility.yul\":11682:11692   */\n      dup5\n        /* \"#utility.yul\":11664:11693   */\n      tag_117\n      jump\t// in\n    tag_257:\n        /* \"#utility.yul\":11654:11662   */\n      dup2\n        /* \"#utility.yul\":11650:11694   */\n      add\n        /* \"#utility.yul\":11847:11849   */\n      0x20\n        /* \"#utility.yul\":11835:11845   */\n      dup6\n        /* \"#utility.yul\":11832:11850   */\n      lt\n        /* \"#utility.yul\":11829:11878   */\n      iszero\n      tag_258\n      jumpi\n        /* \"#utility.yul\":11868:11876   */\n      dup2\n        /* \"#utility.yul\":11853:11876   */\n      swap1\n      pop\n        /* \"#utility.yul\":11829:11878   */\n    tag_258:\n        /* \"#utility.yul\":11891:11971   */\n      tag_259\n        /* \"#utility.yul\":11947:11969   */\n      tag_260\n        /* \"#utility.yul\":11965:11968   */\n      dup6\n        /* \"#utility.yul\":11947:11969   */\n      tag_117\n      jump\t// in\n    tag_260:\n        /* \"#utility.yul\":11937:11945   */\n      dup4\n        /* \"#utility.yul\":11933:11970   */\n      add\n        /* \"#utility.yul\":11920:11931   */\n      dup3\n        /* \"#utility.yul\":11891:11971   */\n      tag_126\n      jump\t// in\n    tag_259:\n        /* \"#utility.yul\":11550:11981   */\n      pop\n      pop\n        /* \"#utility.yul\":11535:11981   */\n    tag_255:\n        /* \"#utility.yul\":11445:11988   */\n      pop\n      pop\n      pop\n      jump\t// out\n        /* \"#utility.yul\":11994:12111   */\n    tag_128:\n        /* \"#utility.yul\":12048:12056   */\n      0x00\n        /* \"#utility.yul\":12098:12103   */\n      dup3\n        /* \"#utility.yul\":12092:12096   */\n      dup3\n        /* \"#utility.yul\":12088:12104   */\n      shr\n        /* \"#utility.yul\":12067:12104   */\n      swap1\n      pop\n        /* \"#utility.yul\":11994:12111   */\n      swap3\n      swap2\n      pop\n      pop\n      jump\t// out\n        /* \"#utility.yul\":12117:12286   */\n    tag_129:\n        /* \"#utility.yul\":12161:12167   */\n      0x00\n        /* \"#utility.yul\":12194:12245   */\n      tag_263\n        /* \"#utility.yul\":12242:12243   */\n      0x00\n        /* \"#utility.yul\":12238:12244   */\n      not\n        /* \"#utility.yul\":12230:12235   */\n      dup5\n        /* \"#utility.yul\":12227:12228   */\n      0x08\n        /* \"#utility.yul\":12223:12236   */\n      mul\n        /* \"#utility.yul\":12194:12245   */\n      tag_128\n      jump\t// in\n    tag_263:\n        /* \"#utility.yul\":12190:12246   */\n      not\n        /* \"#utility.yul\":12275:12279   */\n      dup1\n        /* \"#utility.yul\":12269:12273   */\n      dup4\n        /* \"#utility.yul\":12265:12280   */\n      and\n        /* \"#utility.yul\":12255:12280   */\n      swap2\n      pop\n        /* \"#utility.yul\":12168:12286   */\n      pop\n        /* \"#utility.yul\":12117:12286   */\n      swap3\n      swap2\n      pop\n      pop\n      jump\t// out\n        /* \"#utility.yul\":12291:12586   */\n    tag_130:\n        /* \"#utility.yul\":12367:12371   */\n      0x00\n        /* \"#utility.yul\":12513:12542   */\n      tag_265\n        /* \"#utility.yul\":12538:12541   */\n      dup4\n        /* \"#utility.yul\":12532:12536   */\n      dup4\n        /* \"#utility.yul\":12513:12542   */\n      tag_129\n      jump\t// in\n    tag_265:\n        /* \"#utility.yul\":12505:12542   */\n      swap2\n      pop\n        /* \"#utility.yul\":12575:12578   */\n      dup3\n        /* \"#utility.yul\":12572:12573   */\n      0x02\n        /* \"#utility.yul\":12568:12579   */\n      mul\n        /* \"#utility.yul\":12562:12566   */\n      dup3\n        /* \"#utility.yul\":12559:12580   */\n      or\n        /* \"#utility.yul\":12551:12580   */\n      swap1\n      pop\n        /* \"#utility.yul\":12291:12586   */\n      swap3\n      swap2\n      pop\n      pop\n      jump\t// out\n        /* \"#utility.yul\":12591:13986   */\n    tag_82:\n        /* \"#utility.yul\":12708:12745   */\n      tag_267\n        /* \"#utility.yul\":12741:12744   */\n      dup3\n        /* \"#utility.yul\":12708:12745   */\n      tag_92\n      jump\t// in\n    tag_267:\n        /* \"#utility.yul\":12810:12828   */\n      0xffffffffffffffff\n        /* \"#utility.yul\":12802:12808   */\n      dup2\n        /* \"#utility.yul\":12799:12829   */\n      gt\n        /* \"#utility.yul\":12796:12852   */\n      iszero\n      tag_268\n      jumpi\n        /* \"#utility.yul\":12832:12850   */\n      tag_269\n      tag_33\n      jump\t// in\n    tag_269:\n        /* \"#utility.yul\":12796:12852   */\n    tag_268:\n        /* \"#utility.yul\":12876:12914   */\n      tag_270\n        /* \"#utility.yul\":12908:12912   */\n      dup3\n        /* \"#utility.yul\":12902:12913   */\n      sload\n        /* \"#utility.yul\":12876:12914   */\n      tag_44\n      jump\t// in\n    tag_270:\n        /* \"#utility.yul\":12961:13028   */\n      tag_271\n        /* \"#utility.yul\":13021:13027   */\n      dup3\n        /* \"#utility.yul\":13013:13019   */\n      dup3\n        /* \"#utility.yul\":13007:13011   */\n      dup6\n        /* \"#utility.yul\":12961:13028   */\n      tag_127\n      jump\t// in\n    tag_271:\n        /* \"#utility.yul\":13055:13056   */\n      0x00\n        /* \"#utility.yul\":13079:13083   */\n      0x20\n        /* \"#utility.yul\":13066:13083   */\n      swap1\n      pop\n        /* \"#utility.yul\":13111:13113   */\n      0x1f\n        /* \"#utility.yul\":13103:13109   */\n      dup4\n        /* \"#utility.yul\":13100:13114   */\n      gt\n        /* \"#utility.yul\":13128:13129   */\n      0x01\n        /* \"#utility.yul\":13123:13741   */\n      dup2\n      eq\n      tag_273\n      jumpi\n        /* \"#utility.yul\":13785:13786   */\n      0x00\n        /* \"#utility.yul\":13802:13808   */\n      dup5\n        /* \"#utility.yul\":13799:13876   */\n      iszero\n      tag_274\n      jumpi\n        /* \"#utility.yul\":13851:13860   */\n      dup3\n        /* \"#utility.yul\":13846:13849   */\n      dup8\n        /* \"#utility.yul\":13842:13861   */\n      add\n        /* \"#utility.yul\":13836:13862   */\n      mload\n        /* \"#utility.yul\":13827:13862   */\n      swap1\n      pop\n        /* \"#utility.yul\":13799:13876   */\n    tag_274:\n        /* \"#utility.yul\":13902:13969   */\n      tag_275\n        /* \"#utility.yul\":13962:13968   */\n      dup6\n        /* \"#utility.yul\":13955:13960   */\n      dup3\n        /* \"#utility.yul\":13902:13969   */\n      tag_130\n      jump\t// in\n    tag_275:\n        /* \"#utility.yul\":13896:13900   */\n      dup7\n        /* \"#utility.yul\":13889:13970   */\n      sstore\n        /* \"#utility.yul\":13758:13980   */\n      pop\n        /* \"#utility.yul\":13093:13980   */\n      jump(tag_272)\n        /* \"#utility.yul\":13123:13741   */\n    tag_273:\n        /* \"#utility.yul\":13175:13179   */\n      0x1f\n        /* \"#utility.yul\":13171:13180   */\n      not\n        /* \"#utility.yul\":13163:13169   */\n      dup5\n        /* \"#utility.yul\":13159:13181   */\n      and\n        /* \"#utility.yul\":13209:13246   */\n      tag_276\n        /* \"#utility.yul\":13241:13245   */\n      dup7\n        /* \"#utility.yul\":13209:13246   */\n      tag_116\n      jump\t// in\n    tag_276:\n        /* \"#utility.yul\":13268:13269   */\n      0x00\n        /* \"#utility.yul\":13282:13490   */\n    tag_277:\n        /* \"#utility.yul\":13296:13303   */\n      dup3\n        /* \"#utility.yul\":13293:13294   */\n      dup2\n        /* \"#utility.yul\":13290:13304   */\n      lt\n        /* \"#utility.yul\":13282:13490   */\n      iszero\n      tag_279\n      jumpi\n        /* \"#utility.yul\":13375:13384   */\n      dup5\n        /* \"#utility.yul\":13370:13373   */\n      dup10\n        /* \"#utility.yul\":13366:13385   */\n      add\n        /* \"#utility.yul\":13360:13386   */\n      mload\n        /* \"#utility.yul\":13352:13358   */\n      dup3\n        /* \"#utility.yul\":13345:13387   */\n      sstore\n        /* \"#utility.yul\":13426:13427   */\n      0x01\n        /* \"#utility.yul\":13418:13424   */\n      dup3\n        /* \"#utility.yul\":13414:13428   */\n      add\n        /* \"#utility.yul\":13404:13428   */\n      swap2\n      pop\n        /* \"#utility.yul\":13473:13475   */\n      0x20\n        /* \"#utility.yul\":13462:13471   */\n      dup6\n        /* \"#utility.yul\":13458:13476   */\n      add\n        /* \"#utility.yul\":13445:13476   */\n      swap5\n      pop\n        /* \"#utility.yul\":13319:13323   */\n      0x20\n        /* \"#utility.yul\":13316:13317   */\n      dup2\n        /* \"#utility.yul\":13312:13324   */\n      add\n        /* \"#utility.yul\":13307:13324   */\n      swap1\n      pop\n        /* \"#utility.yul\":13282:13490   */\n      jump(tag_277)\n    tag_279:\n        /* \"#utility.yul\":13518:13524   */\n      dup7\n        /* \"#utility.yul\":13509:13516   */\n      dup4\n        /* \"#utility.yul\":13506:13525   */\n      lt\n        /* \"#utility.yul\":13503:13682   */\n      iszero\n      tag_280\n      jumpi\n        /* \"#utility.yul\":13576:13585   */\n      dup5\n        /* \"#utility.yul\":13571:13574   */\n      dup10\n        /* \"#utility.yul\":13567:13586   */\n      add\n        /* \"#utility.yul\":13561:13587   */\n      mload\n        /* \"#utility.yul\":13619:13667   */\n      tag_281\n        /* \"#utility.yul\":13661:13665   */\n      0x1f\n        /* \"#utility.yul\":13653:13659   */\n      dup10\n        /* \"#utility.yul\":13649:13666   */\n      and\n        /* \"#utility.yul\":13638:13647   */\n      dup3\n        /* \"#utility.yul\":13619:13667   */\n      tag_129\n      jump\t// in\n    tag_281:\n        /* \"#utility.yul\":13611:13617   */\n      dup4\n        /* \"#utility.yul\":13604:13668   */\n      sstore\n        /* \"#utility.yul\":13526:13682   */\n      pop\n        /* \"#utility.yul\":13503:13682   */\n    tag_280:\n        /* \"#utility.yul\":13728:13729   */\n      0x01\n        /* \"#utility.yul\":13724:13725   */\n      0x02\n        /* \"#utility.yul\":13716:13722   */\n      dup9\n        /* \"#utility.yul\":13712:13726   */\n      mul\n        /* \"#utility.yul\":13708:13730   */\n      add\n        /* \"#utility.yul\":13702:13706   */\n      dup9\n        /* \"#utility.yul\":13695:13731   */\n      sstore\n        /* \"#utility.yul\":13130:13741   */\n      pop\n      pop\n      pop\n        /* \"#utility.yul\":13093:13980   */\n    tag_272:\n      pop\n        /* \"#utility.yul\":12683:13986   */\n      pop\n      pop\n      pop\n        /* \"#utility.yul\":12591:13986   */\n      pop\n      pop\n      jump\t// out\n        /* \"#utility.yul\":13992:14172   */\n    tag_131:\n        /* \"#utility.yul\":14040:14117   */\n      0x4e487b7100000000000000000000000000000000000000000000000000000000\n        /* \"#utility.yul\":14037:14038   */\n      0x00\n        /* \"#utility.yul\":14030:14118   */\n      mstore\n        /* \"#utility.yul\":14137:14141   */\n      0x11\n        /* \"#utility.yul\":14134:14135   */\n      0x04\n        /* \"#utility.yul\":14127:14142   */\n      mstore\n        /* \"#utility.yul\":14161:14165   */\n      0x24\n        /* \"#utility.yul\":14158:14159   */\n      0x00\n        /* \"#utility.yul\":14151:14166   */\n      revert\n        /* \"#utility.yul\":14178:14411   */\n    tag_86:\n        /* \"#utility.yul\":14217:14220   */\n      0x00\n        /* \"#utility.yul\":14240:14264   */\n      tag_284\n        /* \"#utility.yul\":14258:14263   */\n      dup3\n        /* \"#utility.yul\":14240:14264   */\n      tag_87\n      jump\t// in\n    tag_284:\n        /* \"#utility.yul\":14231:14264   */\n      swap2\n      pop\n        /* \"#utility.yul\":14286:14352   */\n      0xffffffffffffffffffffffffffffffffffffffffffffffffffffffffffffffff\n        /* \"#utility.yul\":14279:14284   */\n      dup3\n        /* \"#utility.yul\":14276:14353   */\n      sub\n        /* \"#utility.yul\":14273:14376   */\n      tag_285\n      jumpi\n        /* \"#utility.yul\":14356:14374   */\n      tag_286\n      tag_131\n      jump\t// in\n    tag_286:\n        /* \"#utility.yul\":14273:14376   */\n    tag_285:\n        /* \"#utility.yul\":14403:14404   */\n      0x01\n        /* \"#utility.yul\":14396:14401   */\n      dup3\n        /* \"#utility.yul\":14392:14405   */\n      add\n        /* \"#utility.yul\":14385:14405   */\n      swap1\n      pop\n        /* \"#utility.yul\":14178:14411   */\n      swap2\n      swap1\n      pop\n      jump\t// out\n\n    auxdata: 0xa264697066735822122003b5854a93f153d1c48ff15134c42df439c6330e28686fd25afeca427ec903da64736f6c63430008170033\n}\n",
				"bytecode": {
					"linkReferences": {},
					"object": "608060405234801561000f575f80fd5b50610e478061001d5f395ff3fe608060405234801561000f575f80fd5b5060043610610055575f3560e01c80630878ef431461005957806328460980146100775780638b3c8a6514610096578063b7c763b5146100c7578063c6e37d53146100f8575b5f80fd5b610061610114565b60405161006e919061068f565b60405180910390f35b61007f61011a565b60405161008d9291906107ed565b60405180910390f35b6100b060048036038101906100ab919061085d565b61034e565b6040516100be9291906108d0565b60405180910390f35b6100e160048036038101906100dc919061085d565b610479565b6040516100ef9291906108d0565b60405180910390f35b610112600480360381019061010d9190610a31565b6105cc565b005b60015481565b6060805f60015467ffffffffffffffff81111561013a5761013961090d565b5b60405190808252806020026020018201604052801561016d57816020015b60608152602001906001900390816101585790505b5090505f60015467ffffffffffffffff81111561018d5761018c61090d565b5b6040519080825280602002602001820160405280156101c057816020015b60608152602001906001900390816101ab5790505b5090505f5b600154811015610341575f805f8381526020019081526020015f209050805f0180546101f090610ad4565b80601f016020809104026020016040519081016040528092919081815260200182805461021c90610ad4565b80156102675780601f1061023e57610100808354040283529160200191610267565b820191905f5260205f20905b81548152906001019060200180831161024a57829003601f168201915b505050505084838151811061027f5761027e610b04565b5b602002602001018190525080600101805461029990610ad4565b80601f01602080910402602001604051908101604052809291908181526020018280546102c590610ad4565b80156103105780601f106102e757610100808354040283529160200191610310565b820191905f5260205f20905b8154815290600101906020018083116102f357829003601f168201915b505050505083838151811061032857610327610b04565b5b60200260200101819052505080806001019150506101c5565b5081819350935050509091565b5f602052805f5260405f205f91509050805f01805461036c90610ad4565b80601f016020809104026020016040519081016040528092919081815260200182805461039890610ad4565b80156103e35780601f106103ba576101008083540402835291602001916103e3565b820191905f5260205f20905b8154815290600101906020018083116103c657829003601f168201915b5050505050908060010180546103f890610ad4565b80601f016020809104026020016040519081016040528092919081815260200182805461042490610ad4565b801561046f5780601f106104465761010080835404028352916020019161046f565b820191905f5260205f20905b81548152906001019060200180831161045257829003601f168201915b5050505050905082565b6060805f805f8581526020019081526020015f206040518060400160405290815f820180546104a790610ad4565b80601f01602080910402602001604051908101604052809291908181526020018280546104d390610ad4565b801561051e5780601f106104f55761010080835404028352916020019161051e565b820191905f5260205f20905b81548152906001019060200180831161050157829003601f168201915b5050505050815260200160018201805461053790610ad4565b80601f016020809104026020016040519081016040528092919081815260200182805461056390610ad4565b80156105ae5780601f10610585576101008083540402835291602001916105ae565b820191905f5260205f20905b81548152906001019060200180831161059157829003601f168201915b5050505050815250509050805f015181602001519250925050915091565b6040518060400160405280838152602001828152505f8060015481526020019081526020015f205f820151815f0190816106069190610cce565b50602082015181600101908161061c9190610cce565b509050506001547fc2fe8c611311e1b7ee7c05d72df8314dc1c271b911ca83bc8a1f589b1572c23783836040516106549291906108d0565b60405180910390a260015f81548092919061066e90610dca565b91905055505050565b5f819050919050565b61068981610677565b82525050565b5f6020820190506106a25f830184610680565b92915050565b5f81519050919050565b5f82825260208201905092915050565b5f819050602082019050919050565b5f81519050919050565b5f82825260208201905092915050565b5f5b838110156107085780820151818401526020810190506106ed565b5f8484015250505050565b5f601f19601f8301169050919050565b5f61072d826106d1565b61073781856106db565b93506107478185602086016106eb565b61075081610713565b840191505092915050565b5f6107668383610723565b905092915050565b5f602082019050919050565b5f610784826106a8565b61078e81856106b2565b9350836020820285016107a0856106c2565b805f5b858110156107db57848403895281516107bc858261075b565b94506107c78361076e565b925060208a019950506001810190506107a3565b50829750879550505050505092915050565b5f6040820190508181035f830152610805818561077a565b90508181036020830152610819818461077a565b90509392505050565b5f604051905090565b5f80fd5b5f80fd5b61083c81610677565b8114610846575f80fd5b50565b5f8135905061085781610833565b92915050565b5f602082840312156108725761087161082b565b5b5f61087f84828501610849565b91505092915050565b5f82825260208201905092915050565b5f6108a2826106d1565b6108ac8185610888565b93506108bc8185602086016106eb565b6108c581610713565b840191505092915050565b5f6040820190508181035f8301526108e88185610898565b905081810360208301526108fc8184610898565b90509392505050565b5f80fd5b5f80fd5b7f4e487b71000000000000000000000000000000000000000000000000000000005f52604160045260245ffd5b61094382610713565b810181811067ffffffffffffffff821117156109625761096161090d565b5b80604052505050565b5f610974610822565b9050610980828261093a565b919050565b5f67ffffffffffffffff82111561099f5761099e61090d565b5b6109a882610713565b9050602081019050919050565b828183375f83830152505050565b5f6109d56109d084610985565b61096b565b9050828152602081018484840111156109f1576109f0610909565b5b6109fc8482856109b5565b509392505050565b5f82601f830112610a1857610a17610905565b5b8135610a288482602086016109c3565b91505092915050565b5f8060408385031215610a4757610a4661082b565b5b5f83013567ffffffffffffffff811115610a6457610a6361082f565b5b610a7085828601610a04565b925050602083013567ffffffffffffffff811115610a9157610a9061082f565b5b610a9d85828601610a04565b9150509250929050565b7f4e487b71000000000000000000000000000000000000000000000000000000005f52602260045260245ffd5b5f6002820490506001821680610aeb57607f821691505b602082108103610afe57610afd610aa7565b5b50919050565b7f4e487b71000000000000000000000000000000000000000000000000000000005f52603260045260245ffd5b5f819050815f5260205f209050919050565b5f6020601f8301049050919050565b5f82821b905092915050565b5f60088302610b8d7fffffffffffffffffffffffffffffffffffffffffffffffffffffffffffffffff82610b52565b610b978683610b52565b95508019841693508086168417925050509392505050565b5f819050919050565b5f610bd2610bcd610bc884610677565b610baf565b610677565b9050919050565b5f819050919050565b610beb83610bb8565b610bff610bf782610bd9565b848454610b5e565b825550505050565b5f90565b610c13610c07565b610c1e818484610be2565b505050565b5b81811015610c4157610c365f82610c0b565b600181019050610c24565b5050565b601f821115610c8657610c5781610b31565b610c6084610b43565b81016020851015610c6f578190505b610c83610c7b85610b43565b830182610c23565b50505b505050565b5f82821c905092915050565b5f610ca65f1984600802610c8b565b1980831691505092915050565b5f610cbe8383610c97565b9150826002028217905092915050565b610cd7826106d1565b67ffffffffffffffff811115610cf057610cef61090d565b5b610cfa8254610ad4565b610d05828285610c45565b5f60209050601f831160018114610d36575f8415610d24578287015190505b610d2e8582610cb3565b865550610d95565b601f198416610d4486610b31565b5f5b82811015610d6b57848901518255600182019150602085019450602081019050610d46565b86831015610d885784890151610d84601f891682610c97565b8355505b6001600288020188555050505b505050505050565b7f4e487b71000000000000000000000000000000000000000000000000000000005f52601160045260245ffd5b5f610dd482610677565b91507fffffffffffffffffffffffffffffffffffffffffffffffffffffffffffffffff8203610e0657610e05610d9d565b5b60018201905091905056fea264697066735822122003b5854a93f153d1c48ff15134c42df439c6330e28686fd25afeca427ec903da64736f6c63430008170033",
					"opcodes": "PUSH1 0x80 PUSH1 0x40 MSTORE CALLVALUE DUP1 ISZERO PUSH2 0xF JUMPI PUSH0 DUP1 REVERT JUMPDEST POP PUSH2 0xE47 DUP1 PUSH2 0x1D PUSH0 CODECOPY PUSH0 RETURN INVALID PUSH1 0x80 PUSH1 0x40 MSTORE CALLVALUE DUP1 ISZERO PUSH2 0xF JUMPI PUSH0 DUP1 REVERT JUMPDEST POP PUSH1 0x4 CALLDATASIZE LT PUSH2 0x55 JUMPI PUSH0 CALLDATALOAD PUSH1 0xE0 SHR DUP1 PUSH4 0x878EF43 EQ PUSH2 0x59 JUMPI DUP1 PUSH4 0x28460980 EQ PUSH2 0x77 JUMPI DUP1 PUSH4 0x8B3C8A65 EQ PUSH2 0x96 JUMPI DUP1 PUSH4 0xB7C763B5 EQ PUSH2 0xC7 JUMPI DUP1 PUSH4 0xC6E37D53 EQ PUSH2 0xF8 JUMPI JUMPDEST PUSH0 DUP1 REVERT JUMPDEST PUSH2 0x61 PUSH2 0x114 JUMP JUMPDEST PUSH1 0x40 MLOAD PUSH2 0x6E SWAP2 SWAP1 PUSH2 0x68F JUMP JUMPDEST PUSH1 0x40 MLOAD DUP1 SWAP2 SUB SWAP1 RETURN JUMPDEST PUSH2 0x7F PUSH2 0x11A JUMP JUMPDEST PUSH1 0x40 MLOAD PUSH2 0x8D SWAP3 SWAP2 SWAP1 PUSH2 0x7ED JUMP JUMPDEST PUSH1 0x40 MLOAD DUP1 SWAP2 SUB SWAP1 RETURN JUMPDEST PUSH2 0xB0 PUSH1 0x4 DUP1 CALLDATASIZE SUB DUP2 ADD SWAP1 PUSH2 0xAB SWAP2 SWAP1 PUSH2 0x85D JUMP JUMPDEST PUSH2 0x34E JUMP JUMPDEST PUSH1 0x40 MLOAD PUSH2 0xBE SWAP3 SWAP2 SWAP1 PUSH2 0x8D0 JUMP JUMPDEST PUSH1 0x40 MLOAD DUP1 SWAP2 SUB SWAP1 RETURN JUMPDEST PUSH2 0xE1 PUSH1 0x4 DUP1 CALLDATASIZE SUB DUP2 ADD SWAP1 PUSH2 0xDC SWAP2 SWAP1 PUSH2 0x85D JUMP JUMPDEST PUSH2 0x479 JUMP JUMPDEST PUSH1 0x40 MLOAD PUSH2 0xEF SWAP3 SWAP2 SWAP1 PUSH2 0x8D0 JUMP JUMPDEST PUSH1 0x40 MLOAD DUP1 SWAP2 SUB SWAP1 RETURN JUMPDEST PUSH2 0x112 PUSH1 0x4 DUP1 CALLDATASIZE SUB DUP2 ADD SWAP1 PUSH2 0x10D SWAP2 SWAP1 PUSH2 0xA31 JUMP JUMPDEST PUSH2 0x5CC JUMP JUMPDEST STOP JUMPDEST PUSH1 0x1 SLOAD DUP2 JUMP JUMPDEST PUSH1 0x60 DUP1 PUSH0 PUSH1 0x1 SLOAD PUSH8 0xFFFFFFFFFFFFFFFF DUP2 GT ISZERO PUSH2 0x13A JUMPI PUSH2 0x139 PUSH2 0x90D JUMP JUMPDEST JUMPDEST PUSH1 0x40 MLOAD SWAP1 DUP1 DUP3 MSTORE DUP1 PUSH1 0x20 MUL PUSH1 0x20 ADD DUP3 ADD PUSH1 0x40 MSTORE DUP1 ISZERO PUSH2 0x16D JUMPI DUP2 PUSH1 0x20 ADD JUMPDEST PUSH1 0x60 DUP2 MSTORE PUSH1 0x20 ADD SWAP1 PUSH1 0x1 SWAP1 SUB SWAP1 DUP2 PUSH2 0x158 JUMPI SWAP1 POP JUMPDEST POP SWAP1 POP PUSH0 PUSH1 0x1 SLOAD PUSH8 0xFFFFFFFFFFFFFFFF DUP2 GT ISZERO PUSH2 0x18D JUMPI PUSH2 0x18C PUSH2 0x90D JUMP JUMPDEST JUMPDEST PUSH1 0x40 MLOAD SWAP1 DUP1 DUP3 MSTORE DUP1 PUSH1 0x20 MUL PUSH1 0x20 ADD DUP3 ADD PUSH1 0x40 MSTORE DUP1 ISZERO PUSH2 0x1C0 JUMPI DUP2 PUSH1 0x20 ADD JUMPDEST PUSH1 0x60 DUP2 MSTORE PUSH1 0x20 ADD SWAP1 PUSH1 0x1 SWAP1 SUB SWAP1 DUP2 PUSH2 0x1AB JUMPI SWAP1 POP JUMPDEST POP SWAP1 POP PUSH0 JUMPDEST PUSH1 0x1 SLOAD DUP2 LT ISZERO PUSH2 0x341 JUMPI PUSH0 DUP1 PUSH0 DUP4 DUP2 MSTORE PUSH1 0x20 ADD SWAP1 DUP2 MSTORE PUSH1 0x20 ADD PUSH0 KECCAK256 SWAP1 POP DUP1 PUSH0 ADD DUP1 SLOAD PUSH2 0x1F0 SWAP1 PUSH2 0xAD4 JUMP JUMPDEST DUP1 PUSH1 0x1F ADD PUSH1 0x20 DUP1 SWAP2 DIV MUL PUSH1 0x20 ADD PUSH1 0x40 MLOAD SWAP1 DUP2 ADD PUSH1 0x40 MSTORE DUP1 SWAP3 SWAP2 SWAP1 DUP2 DUP2 MSTORE PUSH1 0x20 ADD DUP3 DUP1 SLOAD PUSH2 0x21C SWAP1 PUSH2 0xAD4 JUMP JUMPDEST DUP1 ISZERO PUSH2 0x267 JUMPI DUP1 PUSH1 0x1F LT PUSH2 0x23E JUMPI PUSH2 0x100 DUP1 DUP4 SLOAD DIV MUL DUP4 MSTORE SWAP2 PUSH1 0x20 ADD SWAP2 PUSH2 0x267 JUMP JUMPDEST DUP3 ADD SWAP2 SWAP1 PUSH0 MSTORE PUSH1 0x20 PUSH0 KECCAK256 SWAP1 JUMPDEST DUP2 SLOAD DUP2 MSTORE SWAP1 PUSH1 0x1 ADD SWAP1 PUSH1 0x20 ADD DUP1 DUP4 GT PUSH2 0x24A JUMPI DUP3 SWAP1 SUB PUSH1 0x1F AND DUP3 ADD SWAP2 JUMPDEST POP POP POP POP POP DUP5 DUP4 DUP2 MLOAD DUP2 LT PUSH2 0x27F JUMPI PUSH2 0x27E PUSH2 0xB04 JUMP JUMPDEST JUMPDEST PUSH1 0x20 MUL PUSH1 0x20 ADD ADD DUP2 SWAP1 MSTORE POP DUP1 PUSH1 0x1 ADD DUP1 SLOAD PUSH2 0x299 SWAP1 PUSH2 0xAD4 JUMP JUMPDEST DUP1 PUSH1 0x1F ADD PUSH1 0x20 DUP1 SWAP2 DIV MUL PUSH1 0x20 ADD PUSH1 0x40 MLOAD SWAP1 DUP2 ADD PUSH1 0x40 MSTORE DUP1 SWAP3 SWAP2 SWAP1 DUP2 DUP2 MSTORE PUSH1 0x20 ADD DUP3 DUP1 SLOAD PUSH2 0x2C5 SWAP1 PUSH2 0xAD4 JUMP JUMPDEST DUP1 ISZERO PUSH2 0x310 JUMPI DUP1 PUSH1 0x1F LT PUSH2 0x2E7 JUMPI PUSH2 0x100 DUP1 DUP4 SLOAD DIV MUL DUP4 MSTORE SWAP2 PUSH1 0x20 ADD SWAP2 PUSH2 0x310 JUMP JUMPDEST DUP3 ADD SWAP2 SWAP1 PUSH0 MSTORE PUSH1 0x20 PUSH0 KECCAK256 SWAP1 JUMPDEST DUP2 SLOAD DUP2 MSTORE SWAP1 PUSH1 0x1 ADD SWAP1 PUSH1 0x20 ADD DUP1 DUP4 GT PUSH2 0x2F3 JUMPI DUP3 SWAP1 SUB PUSH1 0x1F AND DUP3 ADD SWAP2 JUMPDEST POP POP POP POP POP DUP4 DUP4 DUP2 MLOAD DUP2 LT PUSH2 0x328 JUMPI PUSH2 0x327 PUSH2 0xB04 JUMP JUMPDEST JUMPDEST PUSH1 0x20 MUL PUSH1 0x20 ADD ADD DUP2 SWAP1 MSTORE POP POP DUP1 DUP1 PUSH1 0x1 ADD SWAP2 POP POP PUSH2 0x1C5 JUMP JUMPDEST POP DUP2 DUP2 SWAP4 POP SWAP4 POP POP POP SWAP1 SWAP2 JUMP JUMPDEST PUSH0 PUSH1 0x20 MSTORE DUP1 PUSH0 MSTORE PUSH1 0x40 PUSH0 KECCAK256 PUSH0 SWAP2 POP SWAP1 POP DUP1 PUSH0 ADD DUP1 SLOAD PUSH2 0x36C SWAP1 PUSH2 0xAD4 JUMP JUMPDEST DUP1 PUSH1 0x1F ADD PUSH1 0x20 DUP1 SWAP2 DIV MUL PUSH1 0x20 ADD PUSH1 0x40 MLOAD SWAP1 DUP2 ADD PUSH1 0x40 MSTORE DUP1 SWAP3 SWAP2 SWAP1 DUP2 DUP2 MSTORE PUSH1 0x20 ADD DUP3 DUP1 SLOAD PUSH2 0x398 SWAP1 PUSH2 0xAD4 JUMP JUMPDEST DUP1 ISZERO PUSH2 0x3E3 JUMPI DUP1 PUSH1 0x1F LT PUSH2 0x3BA JUMPI PUSH2 0x100 DUP1 DUP4 SLOAD DIV MUL DUP4 MSTORE SWAP2 PUSH1 0x20 ADD SWAP2 PUSH2 0x3E3 JUMP JUMPDEST DUP3 ADD SWAP2 SWAP1 PUSH0 MSTORE PUSH1 0x20 PUSH0 KECCAK256 SWAP1 JUMPDEST DUP2 SLOAD DUP2 MSTORE SWAP1 PUSH1 0x1 ADD SWAP1 PUSH1 0x20 ADD DUP1 DUP4 GT PUSH2 0x3C6 JUMPI DUP3 SWAP1 SUB PUSH1 0x1F AND DUP3 ADD SWAP2 JUMPDEST POP POP POP POP POP SWAP1 DUP1 PUSH1 0x1 ADD DUP1 SLOAD PUSH2 0x3F8 SWAP1 PUSH2 0xAD4 JUMP JUMPDEST DUP1 PUSH1 0x1F ADD PUSH1 0x20 DUP1 SWAP2 DIV MUL PUSH1 0x20 ADD PUSH1 0x40 MLOAD SWAP1 DUP2 ADD PUSH1 0x40 MSTORE DUP1 SWAP3 SWAP2 SWAP1 DUP2 DUP2 MSTORE PUSH1 0x20 ADD DUP3 DUP1 SLOAD PUSH2 0x424 SWAP1 PUSH2 0xAD4 JUMP JUMPDEST DUP1 ISZERO PUSH2 0x46F JUMPI DUP1 PUSH1 0x1F LT PUSH2 0x446 JUMPI PUSH2 0x100 DUP1 DUP4 SLOAD DIV MUL DUP4 MSTORE SWAP2 PUSH1 0x20 ADD SWAP2 PUSH2 0x46F JUMP JUMPDEST DUP3 ADD SWAP2 SWAP1 PUSH0 MSTORE PUSH1 0x20 PUSH0 KECCAK256 SWAP1 JUMPDEST DUP2 SLOAD DUP2 MSTORE SWAP1 PUSH1 0x1 ADD SWAP1 PUSH1 0x20 ADD DUP1 DUP4 GT PUSH2 0x452 JUMPI DUP3 SWAP1 SUB PUSH1 0x1F AND DUP3 ADD SWAP2 JUMPDEST POP POP POP POP POP SWAP1 POP DUP3 JUMP JUMPDEST PUSH1 0x60 DUP1 PUSH0 DUP1 PUSH0 DUP6 DUP2 MSTORE PUSH1 0x20 ADD SWAP1 DUP2 MSTORE PUSH1 0x20 ADD PUSH0 KECCAK256 PUSH1 0x40 MLOAD DUP1 PUSH1 0x40 ADD PUSH1 0x40 MSTORE SWAP1 DUP2 PUSH0 DUP3 ADD DUP1 SLOAD PUSH2 0x4A7 SWAP1 PUSH2 0xAD4 JUMP JUMPDEST DUP1 PUSH1 0x1F ADD PUSH1 0x20 DUP1 SWAP2 DIV MUL PUSH1 0x20 ADD PUSH1 0x40 MLOAD SWAP1 DUP2 ADD PUSH1 0x40 MSTORE DUP1 SWAP3 SWAP2 SWAP1 DUP2 DUP2 MSTORE PUSH1 0x20 ADD DUP3 DUP1 SLOAD PUSH2 0x4D3 SWAP1 PUSH2 0xAD4 JUMP JUMPDEST DUP1 ISZERO PUSH2 0x51E JUMPI DUP1 PUSH1 0x1F LT PUSH2 0x4F5 JUMPI PUSH2 0x100 DUP1 DUP4 SLOAD DIV MUL DUP4 MSTORE SWAP2 PUSH1 0x20 ADD SWAP2 PUSH2 0x51E JUMP JUMPDEST DUP3 ADD SWAP2 SWAP1 PUSH0 MSTORE PUSH1 0x20 PUSH0 KECCAK256 SWAP1 JUMPDEST DUP2 SLOAD DUP2 MSTORE SWAP1 PUSH1 0x1 ADD SWAP1 PUSH1 0x20 ADD DUP1 DUP4 GT PUSH2 0x501 JUMPI DUP3 SWAP1 SUB PUSH1 0x1F AND DUP3 ADD SWAP2 JUMPDEST POP POP POP POP POP DUP2 MSTORE PUSH1 0x20 ADD PUSH1 0x1 DUP3 ADD DUP1 SLOAD PUSH2 0x537 SWAP1 PUSH2 0xAD4 JUMP JUMPDEST DUP1 PUSH1 0x1F ADD PUSH1 0x20 DUP1 SWAP2 DIV MUL PUSH1 0x20 ADD PUSH1 0x40 MLOAD SWAP1 DUP2 ADD PUSH1 0x40 MSTORE DUP1 SWAP3 SWAP2 SWAP1 DUP2 DUP2 MSTORE PUSH1 0x20 ADD DUP3 DUP1 SLOAD PUSH2 0x563 SWAP1 PUSH2 0xAD4 JUMP JUMPDEST DUP1 ISZERO PUSH2 0x5AE JUMPI DUP1 PUSH1 0x1F LT PUSH2 0x585 JUMPI PUSH2 0x100 DUP1 DUP4 SLOAD DIV MUL DUP4 MSTORE SWAP2 PUSH1 0x20 ADD SWAP2 PUSH2 0x5AE JUMP JUMPDEST DUP3 ADD SWAP2 SWAP1 PUSH0 MSTORE PUSH1 0x20 PUSH0 KECCAK256 SWAP1 JUMPDEST DUP2 SLOAD DUP2 MSTORE SWAP1 PUSH1 0x1 ADD SWAP1 PUSH1 0x20 ADD DUP1 DUP4 GT PUSH2 0x591 JUMPI DUP3 SWAP1 SUB PUSH1 0x1F AND DUP3 ADD SWAP2 JUMPDEST POP POP POP POP POP DUP2 MSTORE POP POP SWAP1 POP DUP1 PUSH0 ADD MLOAD DUP2 PUSH1 0x20 ADD MLOAD SWAP3 POP SWAP3 POP POP SWAP2 POP SWAP2 JUMP JUMPDEST PUSH1 0x40 MLOAD DUP1 PUSH1 0x40 ADD PUSH1 0x40 MSTORE DUP1 DUP4 DUP2 MSTORE PUSH1 0x20 ADD DUP3 DUP2 MSTORE POP PUSH0 DUP1 PUSH1 0x1 SLOAD DUP2 MSTORE PUSH1 0x20 ADD SWAP1 DUP2 MSTORE PUSH1 0x20 ADD PUSH0 KECCAK256 PUSH0 DUP3 ADD MLOAD DUP2 PUSH0 ADD SWAP1 DUP2 PUSH2 0x606 SWAP2 SWAP1 PUSH2 0xCCE JUMP JUMPDEST POP PUSH1 0x20 DUP3 ADD MLOAD DUP2 PUSH1 0x1 ADD SWAP1 DUP2 PUSH2 0x61C SWAP2 SWAP1 PUSH2 0xCCE JUMP JUMPDEST POP SWAP1 POP POP PUSH1 0x1 SLOAD PUSH32 0xC2FE8C611311E1B7EE7C05D72DF8314DC1C271B911CA83BC8A1F589B1572C237 DUP4 DUP4 PUSH1 0x40 MLOAD PUSH2 0x654 SWAP3 SWAP2 SWAP1 PUSH2 0x8D0 JUMP JUMPDEST PUSH1 0x40 MLOAD DUP1 SWAP2 SUB SWAP1 LOG2 PUSH1 0x1 PUSH0 DUP2 SLOAD DUP1 SWAP3 SWAP2 SWAP1 PUSH2 0x66E SWAP1 PUSH2 0xDCA JUMP JUMPDEST SWAP2 SWAP1 POP SSTORE POP POP POP JUMP JUMPDEST PUSH0 DUP2 SWAP1 POP SWAP2 SWAP1 POP JUMP JUMPDEST PUSH2 0x689 DUP2 PUSH2 0x677 JUMP JUMPDEST DUP3 MSTORE POP POP JUMP JUMPDEST PUSH0 PUSH1 0x20 DUP3 ADD SWAP1 POP PUSH2 0x6A2 PUSH0 DUP4 ADD DUP5 PUSH2 0x680 JUMP JUMPDEST SWAP3 SWAP2 POP POP JUMP JUMPDEST PUSH0 DUP2 MLOAD SWAP1 POP SWAP2 SWAP1 POP JUMP JUMPDEST PUSH0 DUP3 DUP3 MSTORE PUSH1 0x20 DUP3 ADD SWAP1 POP SWAP3 SWAP2 POP POP JUMP JUMPDEST PUSH0 DUP2 SWAP1 POP PUSH1 0x20 DUP3 ADD SWAP1 POP SWAP2 SWAP1 POP JUMP JUMPDEST PUSH0 DUP2 MLOAD SWAP1 POP SWAP2 SWAP1 POP JUMP JUMPDEST PUSH0 DUP3 DUP3 MSTORE PUSH1 0x20 DUP3 ADD SWAP1 POP SWAP3 SWAP2 POP POP JUMP JUMPDEST PUSH0 JUMPDEST DUP4 DUP2 LT ISZERO PUSH2 0x708 JUMPI DUP1 DUP3 ADD MLOAD DUP2 DUP5 ADD MSTORE PUSH1 0x20 DUP2 ADD SWAP1 POP PUSH2 0x6ED JUMP JUMPDEST PUSH0 DUP5 DUP5 ADD MSTORE POP POP POP POP JUMP JUMPDEST PUSH0 PUSH1 0x1F NOT PUSH1 0x1F DUP4 ADD AND SWAP1 POP SWAP2 SWAP1 POP JUMP JUMPDEST PUSH0 PUSH2 0x72D DUP3 PUSH2 0x6D1 JUMP JUMPDEST PUSH2 0x737 DUP2 DUP6 PUSH2 0x6DB JUMP JUMPDEST SWAP4 POP PUSH2 0x747 DUP2 DUP6 PUSH1 0x20 DUP7 ADD PUSH2 0x6EB JUMP JUMPDEST PUSH2 0x750 DUP2 PUSH2 0x713 JUMP JUMPDEST DUP5 ADD SWAP2 POP POP SWAP3 SWAP2 POP POP JUMP JUMPDEST PUSH0 PUSH2 0x766 DUP4 DUP4 PUSH2 0x723 JUMP JUMPDEST SWAP1 POP SWAP3 SWAP2 POP POP JUMP JUMPDEST PUSH0 PUSH1 0x20 DUP3 ADD SWAP1 POP SWAP2 SWAP1 POP JUMP JUMPDEST PUSH0 PUSH2 0x784 DUP3 PUSH2 0x6A8 JUMP JUMPDEST PUSH2 0x78E DUP2 DUP6 PUSH2 0x6B2 JUMP JUMPDEST SWAP4 POP DUP4 PUSH1 0x20 DUP3 MUL DUP6 ADD PUSH2 0x7A0 DUP6 PUSH2 0x6C2 JUMP JUMPDEST DUP1 PUSH0 JUMPDEST DUP6 DUP2 LT ISZERO PUSH2 0x7DB JUMPI DUP5 DUP5 SUB DUP10 MSTORE DUP2 MLOAD PUSH2 0x7BC DUP6 DUP3 PUSH2 0x75B JUMP JUMPDEST SWAP5 POP PUSH2 0x7C7 DUP4 PUSH2 0x76E JUMP JUMPDEST SWAP3 POP PUSH1 0x20 DUP11 ADD SWAP10 POP POP PUSH1 0x1 DUP2 ADD SWAP1 POP PUSH2 0x7A3 JUMP JUMPDEST POP DUP3 SWAP8 POP DUP8 SWAP6 POP POP POP POP POP POP SWAP3 SWAP2 POP POP JUMP JUMPDEST PUSH0 PUSH1 0x40 DUP3 ADD SWAP1 POP DUP2 DUP2 SUB PUSH0 DUP4 ADD MSTORE PUSH2 0x805 DUP2 DUP6 PUSH2 0x77A JUMP JUMPDEST SWAP1 POP DUP2 DUP2 SUB PUSH1 0x20 DUP4 ADD MSTORE PUSH2 0x819 DUP2 DUP5 PUSH2 0x77A JUMP JUMPDEST SWAP1 POP SWAP4 SWAP3 POP POP POP JUMP JUMPDEST PUSH0 PUSH1 0x40 MLOAD SWAP1 POP SWAP1 JUMP JUMPDEST PUSH0 DUP1 REVERT JUMPDEST PUSH0 DUP1 REVERT JUMPDEST PUSH2 0x83C DUP2 PUSH2 0x677 JUMP JUMPDEST DUP2 EQ PUSH2 0x846 JUMPI PUSH0 DUP1 REVERT JUMPDEST POP JUMP JUMPDEST PUSH0 DUP2 CALLDATALOAD SWAP1 POP PUSH2 0x857 DUP2 PUSH2 0x833 JUMP JUMPDEST SWAP3 SWAP2 POP POP JUMP JUMPDEST PUSH0 PUSH1 0x20 DUP3 DUP5 SUB SLT ISZERO PUSH2 0x872 JUMPI PUSH2 0x871 PUSH2 0x82B JUMP JUMPDEST JUMPDEST PUSH0 PUSH2 0x87F DUP5 DUP3 DUP6 ADD PUSH2 0x849 JUMP JUMPDEST SWAP2 POP POP SWAP3 SWAP2 POP POP JUMP JUMPDEST PUSH0 DUP3 DUP3 MSTORE PUSH1 0x20 DUP3 ADD SWAP1 POP SWAP3 SWAP2 POP POP JUMP JUMPDEST PUSH0 PUSH2 0x8A2 DUP3 PUSH2 0x6D1 JUMP JUMPDEST PUSH2 0x8AC DUP2 DUP6 PUSH2 0x888 JUMP JUMPDEST SWAP4 POP PUSH2 0x8BC DUP2 DUP6 PUSH1 0x20 DUP7 ADD PUSH2 0x6EB JUMP JUMPDEST PUSH2 0x8C5 DUP2 PUSH2 0x713 JUMP JUMPDEST DUP5 ADD SWAP2 POP POP SWAP3 SWAP2 POP POP JUMP JUMPDEST PUSH0 PUSH1 0x40 DUP3 ADD SWAP1 POP DUP2 DUP2 SUB PUSH0 DUP4 ADD MSTORE PUSH2 0x8E8 DUP2 DUP6 PUSH2 0x898 JUMP JUMPDEST SWAP1 POP DUP2 DUP2 SUB PUSH1 0x20 DUP4 ADD MSTORE PUSH2 0x8FC DUP2 DUP5 PUSH2 0x898 JUMP JUMPDEST SWAP1 POP SWAP4 SWAP3 POP POP POP JUMP JUMPDEST PUSH0 DUP1 REVERT JUMPDEST PUSH0 DUP1 REVERT JUMPDEST PUSH32 0x4E487B7100000000000000000000000000000000000000000000000000000000 PUSH0 MSTORE PUSH1 0x41 PUSH1 0x4 MSTORE PUSH1 0x24 PUSH0 REVERT JUMPDEST PUSH2 0x943 DUP3 PUSH2 0x713 JUMP JUMPDEST DUP2 ADD DUP2 DUP2 LT PUSH8 0xFFFFFFFFFFFFFFFF DUP3 GT OR ISZERO PUSH2 0x962 JUMPI PUSH2 0x961 PUSH2 0x90D JUMP JUMPDEST JUMPDEST DUP1 PUSH1 0x40 MSTORE POP POP POP JUMP JUMPDEST PUSH0 PUSH2 0x974 PUSH2 0x822 JUMP JUMPDEST SWAP1 POP PUSH2 0x980 DUP3 DUP3 PUSH2 0x93A JUMP JUMPDEST SWAP2 SWAP1 POP JUMP JUMPDEST PUSH0 PUSH8 0xFFFFFFFFFFFFFFFF DUP3 GT ISZERO PUSH2 0x99F JUMPI PUSH2 0x99E PUSH2 0x90D JUMP JUMPDEST JUMPDEST PUSH2 0x9A8 DUP3 PUSH2 0x713 JUMP JUMPDEST SWAP1 POP PUSH1 0x20 DUP2 ADD SWAP1 POP SWAP2 SWAP1 POP JUMP JUMPDEST DUP3 DUP2 DUP4 CALLDATACOPY PUSH0 DUP4 DUP4 ADD MSTORE POP POP POP JUMP JUMPDEST PUSH0 PUSH2 0x9D5 PUSH2 0x9D0 DUP5 PUSH2 0x985 JUMP JUMPDEST PUSH2 0x96B JUMP JUMPDEST SWAP1 POP DUP3 DUP2 MSTORE PUSH1 0x20 DUP2 ADD DUP5 DUP5 DUP5 ADD GT ISZERO PUSH2 0x9F1 JUMPI PUSH2 0x9F0 PUSH2 0x909 JUMP JUMPDEST JUMPDEST PUSH2 0x9FC DUP5 DUP3 DUP6 PUSH2 0x9B5 JUMP JUMPDEST POP SWAP4 SWAP3 POP POP POP JUMP JUMPDEST PUSH0 DUP3 PUSH1 0x1F DUP4 ADD SLT PUSH2 0xA18 JUMPI PUSH2 0xA17 PUSH2 0x905 JUMP JUMPDEST JUMPDEST DUP2 CALLDATALOAD PUSH2 0xA28 DUP5 DUP3 PUSH1 0x20 DUP7 ADD PUSH2 0x9C3 JUMP JUMPDEST SWAP2 POP POP SWAP3 SWAP2 POP POP JUMP JUMPDEST PUSH0 DUP1 PUSH1 0x40 DUP4 DUP6 SUB SLT ISZERO PUSH2 0xA47 JUMPI PUSH2 0xA46 PUSH2 0x82B JUMP JUMPDEST JUMPDEST PUSH0 DUP4 ADD CALLDATALOAD PUSH8 0xFFFFFFFFFFFFFFFF DUP2 GT ISZERO PUSH2 0xA64 JUMPI PUSH2 0xA63 PUSH2 0x82F JUMP JUMPDEST JUMPDEST PUSH2 0xA70 DUP6 DUP3 DUP7 ADD PUSH2 0xA04 JUMP JUMPDEST SWAP3 POP POP PUSH1 0x20 DUP4 ADD CALLDATALOAD PUSH8 0xFFFFFFFFFFFFFFFF DUP2 GT ISZERO PUSH2 0xA91 JUMPI PUSH2 0xA90 PUSH2 0x82F JUMP JUMPDEST JUMPDEST PUSH2 0xA9D DUP6 DUP3 DUP7 ADD PUSH2 0xA04 JUMP JUMPDEST SWAP2 POP POP SWAP3 POP SWAP3 SWAP1 POP JUMP JUMPDEST PUSH32 0x4E487B7100000000000000000000000000000000000000000000000000000000 PUSH0 MSTORE PUSH1 0x22 PUSH1 0x4 MSTORE PUSH1 0x24 PUSH0 REVERT JUMPDEST PUSH0 PUSH1 0x2 DUP3 DIV SWAP1 POP PUSH1 0x1 DUP3 AND DUP1 PUSH2 0xAEB JUMPI PUSH1 0x7F DUP3 AND SWAP2 POP JUMPDEST PUSH1 0x20 DUP3 LT DUP2 SUB PUSH2 0xAFE JUMPI PUSH2 0xAFD PUSH2 0xAA7 JUMP JUMPDEST JUMPDEST POP SWAP2 SWAP1 POP JUMP JUMPDEST PUSH32 0x4E487B7100000000000000000000000000000000000000000000000000000000 PUSH0 MSTORE PUSH1 0x32 PUSH1 0x4 MSTORE PUSH1 0x24 PUSH0 REVERT JUMPDEST PUSH0 DUP2 SWAP1 POP DUP2 PUSH0 MSTORE PUSH1 0x20 PUSH0 KECCAK256 SWAP1 POP SWAP2 SWAP1 POP JUMP JUMPDEST PUSH0 PUSH1 0x20 PUSH1 0x1F DUP4 ADD DIV SWAP1 POP SWAP2 SWAP1 POP JUMP JUMPDEST PUSH0 DUP3 DUP3 SHL SWAP1 POP SWAP3 SWAP2 POP POP JUMP JUMPDEST PUSH0 PUSH1 0x8 DUP4 MUL PUSH2 0xB8D PUSH32 0xFFFFFFFFFFFFFFFFFFFFFFFFFFFFFFFFFFFFFFFFFFFFFFFFFFFFFFFFFFFFFFFF DUP3 PUSH2 0xB52 JUMP JUMPDEST PUSH2 0xB97 DUP7 DUP4 PUSH2 0xB52 JUMP JUMPDEST SWAP6 POP DUP1 NOT DUP5 AND SWAP4 POP DUP1 DUP7 AND DUP5 OR SWAP3 POP POP POP SWAP4 SWAP3 POP POP POP JUMP JUMPDEST PUSH0 DUP2 SWAP1 POP SWAP2 SWAP1 POP JUMP JUMPDEST PUSH0 PUSH2 0xBD2 PUSH2 0xBCD PUSH2 0xBC8 DUP5 PUSH2 0x677 JUMP JUMPDEST PUSH2 0xBAF JUMP JUMPDEST PUSH2 0x677 JUMP JUMPDEST SWAP1 POP SWAP2 SWAP1 POP JUMP JUMPDEST PUSH0 DUP2 SWAP1 POP SWAP2 SWAP1 POP JUMP JUMPDEST PUSH2 0xBEB DUP4 PUSH2 0xBB8 JUMP JUMPDEST PUSH2 0xBFF PUSH2 0xBF7 DUP3 PUSH2 0xBD9 JUMP JUMPDEST DUP5 DUP5 SLOAD PUSH2 0xB5E JUMP JUMPDEST DUP3 SSTORE POP POP POP POP JUMP JUMPDEST PUSH0 SWAP1 JUMP JUMPDEST PUSH2 0xC13 PUSH2 0xC07 JUMP JUMPDEST PUSH2 0xC1E DUP2 DUP5 DUP5 PUSH2 0xBE2 JUMP JUMPDEST POP POP POP JUMP JUMPDEST JUMPDEST DUP2 DUP2 LT ISZERO PUSH2 0xC41 JUMPI PUSH2 0xC36 PUSH0 DUP3 PUSH2 0xC0B JUMP JUMPDEST PUSH1 0x1 DUP2 ADD SWAP1 POP PUSH2 0xC24 JUMP JUMPDEST POP POP JUMP JUMPDEST PUSH1 0x1F DUP3 GT ISZERO PUSH2 0xC86 JUMPI PUSH2 0xC57 DUP2 PUSH2 0xB31 JUMP JUMPDEST PUSH2 0xC60 DUP5 PUSH2 0xB43 JUMP JUMPDEST DUP2 ADD PUSH1 0x20 DUP6 LT ISZERO PUSH2 0xC6F JUMPI DUP2 SWAP1 POP JUMPDEST PUSH2 0xC83 PUSH2 0xC7B DUP6 PUSH2 0xB43 JUMP JUMPDEST DUP4 ADD DUP3 PUSH2 0xC23 JUMP JUMPDEST POP POP JUMPDEST POP POP POP JUMP JUMPDEST PUSH0 DUP3 DUP3 SHR SWAP1 POP SWAP3 SWAP2 POP POP JUMP JUMPDEST PUSH0 PUSH2 0xCA6 PUSH0 NOT DUP5 PUSH1 0x8 MUL PUSH2 0xC8B JUMP JUMPDEST NOT DUP1 DUP4 AND SWAP2 POP POP SWAP3 SWAP2 POP POP JUMP JUMPDEST PUSH0 PUSH2 0xCBE DUP4 DUP4 PUSH2 0xC97 JUMP JUMPDEST SWAP2 POP DUP3 PUSH1 0x2 MUL DUP3 OR SWAP1 POP SWAP3 SWAP2 POP POP JUMP JUMPDEST PUSH2 0xCD7 DUP3 PUSH2 0x6D1 JUMP JUMPDEST PUSH8 0xFFFFFFFFFFFFFFFF DUP2 GT ISZERO PUSH2 0xCF0 JUMPI PUSH2 0xCEF PUSH2 0x90D JUMP JUMPDEST JUMPDEST PUSH2 0xCFA DUP3 SLOAD PUSH2 0xAD4 JUMP JUMPDEST PUSH2 0xD05 DUP3 DUP3 DUP6 PUSH2 0xC45 JUMP JUMPDEST PUSH0 PUSH1 0x20 SWAP1 POP PUSH1 0x1F DUP4 GT PUSH1 0x1 DUP2 EQ PUSH2 0xD36 JUMPI PUSH0 DUP5 ISZERO PUSH2 0xD24 JUMPI DUP3 DUP8 ADD MLOAD SWAP1 POP JUMPDEST PUSH2 0xD2E DUP6 DUP3 PUSH2 0xCB3 JUMP JUMPDEST DUP7 SSTORE POP PUSH2 0xD95 JUMP JUMPDEST PUSH1 0x1F NOT DUP5 AND PUSH2 0xD44 DUP7 PUSH2 0xB31 JUMP JUMPDEST PUSH0 JUMPDEST DUP3 DUP2 LT ISZERO PUSH2 0xD6B JUMPI DUP5 DUP10 ADD MLOAD DUP3 SSTORE PUSH1 0x1 DUP3 ADD SWAP2 POP PUSH1 0x20 DUP6 ADD SWAP5 POP PUSH1 0x20 DUP2 ADD SWAP1 POP PUSH2 0xD46 JUMP JUMPDEST DUP7 DUP4 LT ISZERO PUSH2 0xD88 JUMPI DUP5 DUP10 ADD MLOAD PUSH2 0xD84 PUSH1 0x1F DUP10 AND DUP3 PUSH2 0xC97 JUMP JUMPDEST DUP4 SSTORE POP JUMPDEST PUSH1 0x1 PUSH1 0x2 DUP9 MUL ADD DUP9 SSTORE POP POP POP JUMPDEST POP POP POP POP POP POP JUMP JUMPDEST PUSH32 0x4E487B7100000000000000000000000000000000000000000000000000000000 PUSH0 MSTORE PUSH1 0x11 PUSH1 0x4 MSTORE PUSH1 0x24 PUSH0 REVERT JUMPDEST PUSH0 PUSH2 0xDD4 DUP3 PUSH2 0x677 JUMP JUMPDEST SWAP2 POP PUSH32 0xFFFFFFFFFFFFFFFFFFFFFFFFFFFFFFFFFFFFFFFFFFFFFFFFFFFFFFFFFFFFFFFF DUP3 SUB PUSH2 0xE06 JUMPI PUSH2 0xE05 PUSH2 0xD9D JUMP JUMPDEST JUMPDEST PUSH1 0x1 DUP3 ADD SWAP1 POP SWAP2 SWAP1 POP JUMP INVALID LOG2 PUSH5 0x6970667358 0x22 SLT KECCAK256 SUB 0xB5 DUP6 0x4A SWAP4 CALL MSTORE8 0xD1 0xC4 DUP16 CALL MLOAD CALLVALUE 0xC4 0x2D DELEGATECALL CODECOPY 0xC6 CALLER 0xE 0x28 PUSH9 0x6FD25AFECA427EC903 0xDA PUSH5 0x736F6C6343 STOP ADDMOD OR STOP CALLER "
				},
				"gasEstimates": {
					"creation": {
						"codeDepositCost": "731000",
						"executionCost": "764",
						"totalCost": "731764"
					},
					"external": {
						"getAllStrings()": "infinite",
						"getString(uint256)": "infinite",
						"stringCount()": "2403",
						"strings(uint256)": "infinite",
						"uploadString(string,string)": "infinite"
					}
				},
				"methodIdentifiers": {
					"getAllStrings()": "28460980",
					"getString(uint256)": "b7c763b5",
					"stringCount()": "0878ef43",
					"strings(uint256)": "8b3c8a65",
					"uploadString(string,string)": "c6e37d53"
				}
			},
			"storageLayout": {
				"storage": [
					{
						"astId": 11,
						"contract": "telefonica/centenario3.sol:StringStorage",
						"label": "strings",
						"offset": 0,
						"slot": "0",
						"type": "t_mapping(t_uint256,t_struct(StringData)6_storage)"
					},
					{
						"astId": 13,
						"contract": "telefonica/centenario3.sol:StringStorage",
						"label": "stringCount",
						"offset": 0,
						"slot": "1",
						"type": "t_uint256"
					}
				],
				"types": {
					"t_mapping(t_uint256,t_struct(StringData)6_storage)": {
						"encoding": "mapping",
						"key": "t_uint256",
						"label": "mapping(uint256 => struct StringStorage.StringData)",
						"numberOfBytes": "32",
						"value": "t_struct(StringData)6_storage"
					},
					"t_string_storage": {
						"encoding": "bytes",
						"label": "string",
						"numberOfBytes": "32"
					},
					"t_struct(StringData)6_storage": {
						"encoding": "inplace",
						"label": "struct StringStorage.StringData",
						"members": [
							{
								"astId": 3,
								"contract": "telefonica/centenario3.sol:StringStorage",
								"label": "content",
								"offset": 0,
								"slot": "0",
								"type": "t_string_storage"
							},
							{
								"astId": 5,
								"contract": "telefonica/centenario3.sol:StringStorage",
								"label": "uploader",
								"offset": 0,
								"slot": "1",
								"type": "t_string_storage"
							}
						],
						"numberOfBytes": "64"
					},
					"t_uint256": {
						"encoding": "inplace",
						"label": "uint256",
						"numberOfBytes": "32"
					}
				}
			},
			"userdoc": {
				"kind": "user",
				"methods": {},
				"version": 1
			}
		}
	}
}