{
	"votingDAO/News.sol": {
		"News": {
			"abi": [
				{
					"inputs": [
						{
							"internalType": "address",
							"name": "_contract",
							"type": "address"
						},
						{
							"internalType": "uint256",
							"name": "_priceUploadNew",
							"type": "uint256"
						}
					],
					"stateMutability": "nonpayable",
					"type": "constructor"
				},
				{
					"anonymous": false,
					"inputs": [
						{
							"indexed": true,
							"internalType": "address",
							"name": "previousOwner",
							"type": "address"
						},
						{
							"indexed": true,
							"internalType": "address",
							"name": "newOwner",
							"type": "address"
						}
					],
					"name": "OwnershipTransferred",
					"type": "event"
				},
				{
					"inputs": [],
					"name": "articleIdCounter",
					"outputs": [
						{
							"internalType": "uint256",
							"name": "",
							"type": "uint256"
						}
					],
					"stateMutability": "view",
					"type": "function"
				},
				{
					"inputs": [
						{
							"internalType": "uint256",
							"name": "",
							"type": "uint256"
						}
					],
					"name": "articles",
					"outputs": [
						{
							"internalType": "address",
							"name": "writer",
							"type": "address"
						},
						{
							"internalType": "string",
							"name": "metadata",
							"type": "string"
						},
						{
							"internalType": "uint256",
							"name": "id",
							"type": "uint256"
						},
						{
							"internalType": "uint256",
							"name": "weightedAverage",
							"type": "uint256"
						}
					],
					"stateMutability": "view",
					"type": "function"
				},
				{
					"inputs": [],
					"name": "checkBalance",
					"outputs": [
						{
							"internalType": "uint256",
							"name": "",
							"type": "uint256"
						}
					],
					"stateMutability": "view",
					"type": "function"
				},
				{
					"inputs": [
						{
							"internalType": "string",
							"name": "_metadata",
							"type": "string"
						}
					],
					"name": "createArticle",
					"outputs": [],
					"stateMutability": "nonpayable",
					"type": "function"
				},
				{
					"inputs": [
						{
							"internalType": "address",
							"name": "",
							"type": "address"
						},
						{
							"internalType": "uint256",
							"name": "",
							"type": "uint256"
						}
					],
					"name": "hasRatedArticle",
					"outputs": [
						{
							"internalType": "bool",
							"name": "",
							"type": "bool"
						}
					],
					"stateMutability": "view",
					"type": "function"
				},
				{
					"inputs": [],
					"name": "owner",
					"outputs": [
						{
							"internalType": "address",
							"name": "",
							"type": "address"
						}
					],
					"stateMutability": "view",
					"type": "function"
				},
				{
					"inputs": [
						{
							"internalType": "address",
							"name": "_to",
							"type": "address"
						},
						{
							"internalType": "uint256",
							"name": "_amount",
							"type": "uint256"
						}
					],
					"name": "pay",
					"outputs": [],
					"stateMutability": "nonpayable",
					"type": "function"
				},
				{
					"inputs": [],
					"name": "priceUploadNew",
					"outputs": [
						{
							"internalType": "uint256",
							"name": "",
							"type": "uint256"
						}
					],
					"stateMutability": "view",
					"type": "function"
				},
				{
					"inputs": [
						{
							"internalType": "uint256",
							"name": "_articleId",
							"type": "uint256"
						},
						{
							"internalType": "uint256",
							"name": "_rating",
							"type": "uint256"
						}
					],
					"name": "rateArticle",
					"outputs": [],
					"stateMutability": "nonpayable",
					"type": "function"
				},
				{
					"inputs": [
						{
							"internalType": "address",
							"name": "",
							"type": "address"
						}
					],
					"name": "ratedTimes",
					"outputs": [
						{
							"internalType": "uint256",
							"name": "",
							"type": "uint256"
						}
					],
					"stateMutability": "view",
					"type": "function"
				},
				{
					"inputs": [
						{
							"internalType": "uint256",
							"name": "",
							"type": "uint256"
						}
					],
					"name": "ratingCount",
					"outputs": [
						{
							"internalType": "uint256",
							"name": "",
							"type": "uint256"
						}
					],
					"stateMutability": "view",
					"type": "function"
				},
				{
					"inputs": [
						{
							"internalType": "uint256",
							"name": "",
							"type": "uint256"
						}
					],
					"name": "ratings",
					"outputs": [
						{
							"internalType": "uint256",
							"name": "",
							"type": "uint256"
						}
					],
					"stateMutability": "view",
					"type": "function"
				},
				{
					"inputs": [],
					"name": "renounceOwnership",
					"outputs": [],
					"stateMutability": "nonpayable",
					"type": "function"
				},
				{
					"inputs": [
						{
							"internalType": "address",
							"name": "",
							"type": "address"
						}
					],
					"name": "timesUsed",
					"outputs": [
						{
							"internalType": "uint256",
							"name": "",
							"type": "uint256"
						}
					],
					"stateMutability": "view",
					"type": "function"
				},
				{
					"inputs": [],
					"name": "tokenDAO",
					"outputs": [
						{
							"internalType": "contract IToken",
							"name": "",
							"type": "address"
						}
					],
					"stateMutability": "view",
					"type": "function"
				},
				{
					"inputs": [
						{
							"internalType": "address",
							"name": "newOwner",
							"type": "address"
						}
					],
					"name": "transferOwnership",
					"outputs": [],
					"stateMutability": "nonpayable",
					"type": "function"
				},
				{
					"inputs": [
						{
							"internalType": "uint256",
							"name": "_newPriceUpload",
							"type": "uint256"
						}
					],
					"name": "updatePrice",
					"outputs": [],
					"stateMutability": "nonpayable",
					"type": "function"
				}
			],
			"devdoc": {
				"kind": "dev",
				"methods": {
					"owner()": {
						"details": "Returns the address of the current owner."
					},
					"renounceOwnership()": {
						"details": "Leaves the contract without owner. It will not be possible to call `onlyOwner` functions. Can only be called by the current owner. NOTE: Renouncing ownership will leave the contract without an owner, thereby disabling any functionality that is only available to the owner."
					},
					"transferOwnership(address)": {
						"details": "Transfers ownership of the contract to a new account (`newOwner`). Can only be called by the current owner."
					}
				},
				"version": 1
			},
			"evm": {
				"assembly": "    /* \"votingDAO/News.sol\":718:3827  contract News is Ownable {... */\n  mstore(0x40, 0x80)\n    /* \"votingDAO/News.sol\":1339:1512  constructor(address _contract, uint256 _priceUploadNew) {... */\n  callvalue\n  dup1\n  iszero\n  tag_1\n  jumpi\n  0x00\n  dup1\n  revert\ntag_1:\n  pop\n  mload(0x40)\n  sub(codesize, bytecodeSize)\n  dup1\n  bytecodeSize\n  dup4\n  codecopy\n  dup2\n  dup2\n  add\n  0x40\n  mstore\n  dup2\n  add\n  swap1\n  tag_2\n  swap2\n  swap1\n  tag_3\n  jump\t// in\ntag_2:\n    /* \"@openzeppelin/contracts/access/Ownable.sol\":936:968  _transferOwnership(_msgSender()) */\n  tag_7\n    /* \"@openzeppelin/contracts/access/Ownable.sol\":955:967  _msgSender() */\n  tag_8\n    /* \"@openzeppelin/contracts/access/Ownable.sol\":955:965  _msgSender */\n  shl(0x20, tag_9)\n    /* \"@openzeppelin/contracts/access/Ownable.sol\":955:967  _msgSender() */\n  0x20\n  shr\n  jump\t// in\ntag_8:\n    /* \"@openzeppelin/contracts/access/Ownable.sol\":936:954  _transferOwnership */\n  shl(0x20, tag_10)\n    /* \"@openzeppelin/contracts/access/Ownable.sol\":936:968  _transferOwnership(_msgSender()) */\n  0x20\n  shr\n  jump\t// in\ntag_7:\n    /* \"votingDAO/News.sol\":1423:1432  _contract */\n  dup2\n    /* \"votingDAO/News.sol\":1405:1413  tokenDAO */\n  0x01\n  0x00\n    /* \"votingDAO/News.sol\":1405:1433  tokenDAO = IToken(_contract) */\n  0x0100\n  exp\n  dup2\n  sload\n  dup2\n  0xffffffffffffffffffffffffffffffffffffffff\n  mul\n  not\n  and\n  swap1\n  dup4\n  0xffffffffffffffffffffffffffffffffffffffff\n  and\n  mul\n  or\n  swap1\n  sstore\n  pop\n    /* \"votingDAO/News.sol\":1460:1475  _priceUploadNew */\n  dup1\n    /* \"votingDAO/News.sol\":1443:1457  priceUploadNew */\n  0x02\n    /* \"votingDAO/News.sol\":1443:1475  priceUploadNew = _priceUploadNew */\n  dup2\n  swap1\n  sstore\n  pop\n    /* \"votingDAO/News.sol\":1504:1505  0 */\n  0x00\n    /* \"votingDAO/News.sol\":1485:1501  articleIdCounter */\n  0x03\n    /* \"votingDAO/News.sol\":1485:1505  articleIdCounter = 0 */\n  dup2\n  swap1\n  sstore\n  pop\n    /* \"votingDAO/News.sol\":1339:1512  constructor(address _contract, uint256 _priceUploadNew) {... */\n  pop\n  pop\n    /* \"votingDAO/News.sol\":718:3827  contract News is Ownable {... */\n  jump(tag_12)\n    /* \"@openzeppelin/contracts/utils/Context.sol\":640:736  function _msgSender() internal view virtual returns (address) {... */\ntag_9:\n    /* \"@openzeppelin/contracts/utils/Context.sol\":693:700  address */\n  0x00\n    /* \"@openzeppelin/contracts/utils/Context.sol\":719:729  msg.sender */\n  caller\n    /* \"@openzeppelin/contracts/utils/Context.sol\":712:729  return msg.sender */\n  swap1\n  pop\n    /* \"@openzeppelin/contracts/utils/Context.sol\":640:736  function _msgSender() internal view virtual returns (address) {... */\n  swap1\n  jump\t// out\n    /* \"@openzeppelin/contracts/access/Ownable.sol\":2426:2613  function _transferOwnership(address newOwner) internal virtual {... */\ntag_10:\n    /* \"@openzeppelin/contracts/access/Ownable.sol\":2499:2515  address oldOwner */\n  0x00\n    /* \"@openzeppelin/contracts/access/Ownable.sol\":2518:2524  _owner */\n  dup1\n  0x00\n  swap1\n  sload\n  swap1\n  0x0100\n  exp\n  swap1\n  div\n  0xffffffffffffffffffffffffffffffffffffffff\n  and\n    /* \"@openzeppelin/contracts/access/Ownable.sol\":2499:2524  address oldOwner = _owner */\n  swap1\n  pop\n    /* \"@openzeppelin/contracts/access/Ownable.sol\":2543:2551  newOwner */\n  dup2\n    /* \"@openzeppelin/contracts/access/Ownable.sol\":2534:2540  _owner */\n  0x00\n  dup1\n    /* \"@openzeppelin/contracts/access/Ownable.sol\":2534:2551  _owner = newOwner */\n  0x0100\n  exp\n  dup2\n  sload\n  dup2\n  0xffffffffffffffffffffffffffffffffffffffff\n  mul\n  not\n  and\n  swap1\n  dup4\n  0xffffffffffffffffffffffffffffffffffffffff\n  and\n  mul\n  or\n  swap1\n  sstore\n  pop\n    /* \"@openzeppelin/contracts/access/Ownable.sol\":2597:2605  newOwner */\n  dup2\n    /* \"@openzeppelin/contracts/access/Ownable.sol\":2566:2606  OwnershipTransferred(oldOwner, newOwner) */\n  0xffffffffffffffffffffffffffffffffffffffff\n  and\n    /* \"@openzeppelin/contracts/access/Ownable.sol\":2587:2595  oldOwner */\n  dup2\n    /* \"@openzeppelin/contracts/access/Ownable.sol\":2566:2606  OwnershipTransferred(oldOwner, newOwner) */\n  0xffffffffffffffffffffffffffffffffffffffff\n  and\n  0x8be0079c531659141344cd1fd0a4f28419497f9722a3daafe3b4186f6b6457e0\n  mload(0x40)\n  mload(0x40)\n  dup1\n  swap2\n  sub\n  swap1\n  log3\n    /* \"@openzeppelin/contracts/access/Ownable.sol\":2489:2613  {... */\n  pop\n    /* \"@openzeppelin/contracts/access/Ownable.sol\":2426:2613  function _transferOwnership(address newOwner) internal virtual {... */\n  pop\n  jump\t// out\n    /* \"#utility.yul\":88:205   */\ntag_16:\n    /* \"#utility.yul\":197:198   */\n  0x00\n    /* \"#utility.yul\":194:195   */\n  dup1\n    /* \"#utility.yul\":187:199   */\n  revert\n    /* \"#utility.yul\":334:460   */\ntag_18:\n    /* \"#utility.yul\":371:378   */\n  0x00\n    /* \"#utility.yul\":411:453   */\n  0xffffffffffffffffffffffffffffffffffffffff\n    /* \"#utility.yul\":404:409   */\n  dup3\n    /* \"#utility.yul\":400:454   */\n  and\n    /* \"#utility.yul\":389:454   */\n  swap1\n  pop\n    /* \"#utility.yul\":334:460   */\n  swap2\n  swap1\n  pop\n  jump\t// out\n    /* \"#utility.yul\":466:562   */\ntag_19:\n    /* \"#utility.yul\":503:510   */\n  0x00\n    /* \"#utility.yul\":532:556   */\n  tag_31\n    /* \"#utility.yul\":550:555   */\n  dup3\n    /* \"#utility.yul\":532:556   */\n  tag_18\n  jump\t// in\ntag_31:\n    /* \"#utility.yul\":521:556   */\n  swap1\n  pop\n    /* \"#utility.yul\":466:562   */\n  swap2\n  swap1\n  pop\n  jump\t// out\n    /* \"#utility.yul\":568:690   */\ntag_20:\n    /* \"#utility.yul\":641:665   */\n  tag_33\n    /* \"#utility.yul\":659:664   */\n  dup2\n    /* \"#utility.yul\":641:665   */\n  tag_19\n  jump\t// in\ntag_33:\n    /* \"#utility.yul\":634:639   */\n  dup2\n    /* \"#utility.yul\":631:666   */\n  eq\n    /* \"#utility.yul\":621:684   */\n  tag_34\n  jumpi\n    /* \"#utility.yul\":680:681   */\n  0x00\n    /* \"#utility.yul\":677:678   */\n  dup1\n    /* \"#utility.yul\":670:682   */\n  revert\n    /* \"#utility.yul\":621:684   */\ntag_34:\n    /* \"#utility.yul\":568:690   */\n  pop\n  jump\t// out\n    /* \"#utility.yul\":696:839   */\ntag_21:\n    /* \"#utility.yul\":753:758   */\n  0x00\n    /* \"#utility.yul\":784:790   */\n  dup2\n    /* \"#utility.yul\":778:791   */\n  mload\n    /* \"#utility.yul\":769:791   */\n  swap1\n  pop\n    /* \"#utility.yul\":800:833   */\n  tag_36\n    /* \"#utility.yul\":827:832   */\n  dup2\n    /* \"#utility.yul\":800:833   */\n  tag_20\n  jump\t// in\ntag_36:\n    /* \"#utility.yul\":696:839   */\n  swap3\n  swap2\n  pop\n  pop\n  jump\t// out\n    /* \"#utility.yul\":845:922   */\ntag_22:\n    /* \"#utility.yul\":882:889   */\n  0x00\n    /* \"#utility.yul\":911:916   */\n  dup2\n    /* \"#utility.yul\":900:916   */\n  swap1\n  pop\n    /* \"#utility.yul\":845:922   */\n  swap2\n  swap1\n  pop\n  jump\t// out\n    /* \"#utility.yul\":928:1050   */\ntag_23:\n    /* \"#utility.yul\":1001:1025   */\n  tag_39\n    /* \"#utility.yul\":1019:1024   */\n  dup2\n    /* \"#utility.yul\":1001:1025   */\n  tag_22\n  jump\t// in\ntag_39:\n    /* \"#utility.yul\":994:999   */\n  dup2\n    /* \"#utility.yul\":991:1026   */\n  eq\n    /* \"#utility.yul\":981:1044   */\n  tag_40\n  jumpi\n    /* \"#utility.yul\":1040:1041   */\n  0x00\n    /* \"#utility.yul\":1037:1038   */\n  dup1\n    /* \"#utility.yul\":1030:1042   */\n  revert\n    /* \"#utility.yul\":981:1044   */\ntag_40:\n    /* \"#utility.yul\":928:1050   */\n  pop\n  jump\t// out\n    /* \"#utility.yul\":1056:1199   */\ntag_24:\n    /* \"#utility.yul\":1113:1118   */\n  0x00\n    /* \"#utility.yul\":1144:1150   */\n  dup2\n    /* \"#utility.yul\":1138:1151   */\n  mload\n    /* \"#utility.yul\":1129:1151   */\n  swap1\n  pop\n    /* \"#utility.yul\":1160:1193   */\n  tag_42\n    /* \"#utility.yul\":1187:1192   */\n  dup2\n    /* \"#utility.yul\":1160:1193   */\n  tag_23\n  jump\t// in\ntag_42:\n    /* \"#utility.yul\":1056:1199   */\n  swap3\n  swap2\n  pop\n  pop\n  jump\t// out\n    /* \"#utility.yul\":1205:1712   */\ntag_3:\n    /* \"#utility.yul\":1284:1290   */\n  0x00\n    /* \"#utility.yul\":1292:1298   */\n  dup1\n    /* \"#utility.yul\":1341:1343   */\n  0x40\n    /* \"#utility.yul\":1329:1338   */\n  dup4\n    /* \"#utility.yul\":1320:1327   */\n  dup6\n    /* \"#utility.yul\":1316:1339   */\n  sub\n    /* \"#utility.yul\":1312:1344   */\n  slt\n    /* \"#utility.yul\":1309:1428   */\n  iszero\n  tag_44\n  jumpi\n    /* \"#utility.yul\":1347:1426   */\n  tag_45\n  tag_16\n  jump\t// in\ntag_45:\n    /* \"#utility.yul\":1309:1428   */\ntag_44:\n    /* \"#utility.yul\":1467:1468   */\n  0x00\n    /* \"#utility.yul\":1492:1556   */\n  tag_46\n    /* \"#utility.yul\":1548:1555   */\n  dup6\n    /* \"#utility.yul\":1539:1545   */\n  dup3\n    /* \"#utility.yul\":1528:1537   */\n  dup7\n    /* \"#utility.yul\":1524:1546   */\n  add\n    /* \"#utility.yul\":1492:1556   */\n  tag_21\n  jump\t// in\ntag_46:\n    /* \"#utility.yul\":1482:1556   */\n  swap3\n  pop\n    /* \"#utility.yul\":1438:1566   */\n  pop\n    /* \"#utility.yul\":1605:1607   */\n  0x20\n    /* \"#utility.yul\":1631:1695   */\n  tag_47\n    /* \"#utility.yul\":1687:1694   */\n  dup6\n    /* \"#utility.yul\":1678:1684   */\n  dup3\n    /* \"#utility.yul\":1667:1676   */\n  dup7\n    /* \"#utility.yul\":1663:1685   */\n  add\n    /* \"#utility.yul\":1631:1695   */\n  tag_24\n  jump\t// in\ntag_47:\n    /* \"#utility.yul\":1621:1695   */\n  swap2\n  pop\n    /* \"#utility.yul\":1576:1705   */\n  pop\n    /* \"#utility.yul\":1205:1712   */\n  swap3\n  pop\n  swap3\n  swap1\n  pop\n  jump\t// out\n    /* \"votingDAO/News.sol\":718:3827  contract News is Ownable {... */\ntag_12:\n  dataSize(sub_0)\n  dup1\n  dataOffset(sub_0)\n  0x00\n  codecopy\n  0x00\n  return\nstop\n\nsub_0: assembly {\n        /* \"votingDAO/News.sol\":718:3827  contract News is Ownable {... */\n      mstore(0x40, 0x80)\n      callvalue\n      dup1\n      iszero\n      tag_1\n      jumpi\n      0x00\n      dup1\n      revert\n    tag_1:\n      pop\n      jumpi(tag_2, lt(calldatasize, 0x04))\n      shr(0xe0, calldataload(0x00))\n      dup1\n      0x8d6cc56d\n      gt\n      tag_20\n      jumpi\n      dup1\n      0xc71daccb\n      gt\n      tag_21\n      jumpi\n      dup1\n      0xc71daccb\n      eq\n      tag_15\n      jumpi\n      dup1\n      0xdc3e7bc6\n      eq\n      tag_16\n      jumpi\n      dup1\n      0xedcfafe6\n      eq\n      tag_17\n      jumpi\n      dup1\n      0xf2fde38b\n      eq\n      tag_18\n      jumpi\n      dup1\n      0xffc325d2\n      eq\n      tag_19\n      jumpi\n      jump(tag_2)\n    tag_21:\n      dup1\n      0x8d6cc56d\n      eq\n      tag_11\n      jumpi\n      dup1\n      0x8da5cb5b\n      eq\n      tag_12\n      jumpi\n      dup1\n      0xb42cde33\n      eq\n      tag_13\n      jumpi\n      dup1\n      0xc4076876\n      eq\n      tag_14\n      jumpi\n      jump(tag_2)\n    tag_20:\n      dup1\n      0x5d30e84d\n      gt\n      tag_22\n      jumpi\n      dup1\n      0x5d30e84d\n      eq\n      tag_7\n      jumpi\n      dup1\n      0x6b1b5a28\n      eq\n      tag_8\n      jumpi\n      dup1\n      0x715018a6\n      eq\n      tag_9\n      jumpi\n      dup1\n      0x760f2c15\n      eq\n      tag_10\n      jumpi\n      jump(tag_2)\n    tag_22:\n      dup1\n      0x0c975765\n      eq\n      tag_3\n      jumpi\n      dup1\n      0x30c2c157\n      eq\n      tag_4\n      jumpi\n      dup1\n      0x3a4e74a1\n      eq\n      tag_5\n      jumpi\n      dup1\n      0x3e5353ec\n      eq\n      tag_6\n      jumpi\n    tag_2:\n      0x00\n      dup1\n      revert\n        /* \"votingDAO/News.sol\":1185:1231  mapping(uint256 => uint256) public ratingCount */\n    tag_3:\n      tag_23\n      0x04\n      dup1\n      calldatasize\n      sub\n      dup2\n      add\n      swap1\n      tag_24\n      swap2\n      swap1\n      tag_25\n      jump\t// in\n    tag_24:\n      tag_26\n      jump\t// in\n    tag_23:\n      mload(0x40)\n      tag_27\n      swap2\n      swap1\n      tag_28\n      jump\t// in\n    tag_27:\n      mload(0x40)\n      dup1\n      swap2\n      sub\n      swap1\n      return\n        /* \"votingDAO/News.sol\":777:806  uint256 public priceUploadNew */\n    tag_4:\n      tag_29\n      tag_30\n      jump\t// in\n    tag_29:\n      mload(0x40)\n      tag_31\n      swap2\n      swap1\n      tag_28\n      jump\t// in\n    tag_31:\n      mload(0x40)\n      dup1\n      swap2\n      sub\n      swap1\n      return\n        /* \"votingDAO/News.sol\":812:843  uint256 public articleIdCounter */\n    tag_5:\n      tag_32\n      tag_33\n      jump\t// in\n    tag_32:\n      mload(0x40)\n      tag_34\n      swap2\n      swap1\n      tag_28\n      jump\t// in\n    tag_34:\n      mload(0x40)\n      dup1\n      swap2\n      sub\n      swap1\n      return\n        /* \"votingDAO/News.sol\":1289:1333  mapping(address => uint256) public timesUsed */\n    tag_6:\n      tag_35\n      0x04\n      dup1\n      calldatasize\n      sub\n      dup2\n      add\n      swap1\n      tag_36\n      swap2\n      swap1\n      tag_37\n      jump\t// in\n    tag_36:\n      tag_38\n      jump\t// in\n    tag_35:\n      mload(0x40)\n      tag_39\n      swap2\n      swap1\n      tag_28\n      jump\t// in\n    tag_39:\n      mload(0x40)\n      dup1\n      swap2\n      sub\n      swap1\n      return\n        /* \"votingDAO/News.sol\":1064:1106  mapping(uint256 => uint256) public ratings */\n    tag_7:\n      tag_40\n      0x04\n      dup1\n      calldatasize\n      sub\n      dup2\n      add\n      swap1\n      tag_41\n      swap2\n      swap1\n      tag_25\n      jump\t// in\n    tag_41:\n      tag_42\n      jump\t// in\n    tag_40:\n      mload(0x40)\n      tag_43\n      swap2\n      swap1\n      tag_28\n      jump\t// in\n    tag_43:\n      mload(0x40)\n      dup1\n      swap2\n      sub\n      swap1\n      return\n        /* \"votingDAO/News.sol\":1238:1283  mapping(address => uint256) public ratedTimes */\n    tag_8:\n      tag_44\n      0x04\n      dup1\n      calldatasize\n      sub\n      dup2\n      add\n      swap1\n      tag_45\n      swap2\n      swap1\n      tag_37\n      jump\t// in\n    tag_45:\n      tag_46\n      jump\t// in\n    tag_44:\n      mload(0x40)\n      tag_47\n      swap2\n      swap1\n      tag_28\n      jump\t// in\n    tag_47:\n      mload(0x40)\n      dup1\n      swap2\n      sub\n      swap1\n      return\n        /* \"@openzeppelin/contracts/access/Ownable.sol\":1824:1925  function renounceOwnership() public virtual onlyOwner {... */\n    tag_9:\n      tag_48\n      tag_49\n      jump\t// in\n    tag_48:\n      stop\n        /* \"votingDAO/News.sol\":2082:3559  function rateArticle(uint256 _articleId, uint256 _rating) public {... */\n    tag_10:\n      tag_50\n      0x04\n      dup1\n      calldatasize\n      sub\n      dup2\n      add\n      swap1\n      tag_51\n      swap2\n      swap1\n      tag_52\n      jump\t// in\n    tag_51:\n      tag_53\n      jump\t// in\n    tag_50:\n      stop\n        /* \"votingDAO/News.sol\":1518:1630  function updatePrice(uint256 _newPriceUpload) public onlyOwner {... */\n    tag_11:\n      tag_54\n      0x04\n      dup1\n      calldatasize\n      sub\n      dup2\n      add\n      swap1\n      tag_55\n      swap2\n      swap1\n      tag_25\n      jump\t// in\n    tag_55:\n      tag_56\n      jump\t// in\n    tag_54:\n      stop\n        /* \"@openzeppelin/contracts/access/Ownable.sol\":1201:1286  function owner() public view virtual returns (address) {... */\n    tag_12:\n      tag_57\n      tag_58\n      jump\t// in\n    tag_57:\n      mload(0x40)\n      tag_59\n      swap2\n      swap1\n      tag_60\n      jump\t// in\n    tag_59:\n      mload(0x40)\n      dup1\n      swap2\n      sub\n      swap1\n      return\n        /* \"votingDAO/News.sol\":749:771  IToken public tokenDAO */\n    tag_13:\n      tag_61\n      tag_62\n      jump\t// in\n    tag_61:\n      mload(0x40)\n      tag_63\n      swap2\n      swap1\n      tag_64\n      jump\t// in\n    tag_63:\n      mload(0x40)\n      dup1\n      swap2\n      sub\n      swap1\n      return\n        /* \"votingDAO/News.sol\":3565:3674  function pay(address _to , uint256 _amount) public onlyOwner{... */\n    tag_14:\n      tag_65\n      0x04\n      dup1\n      calldatasize\n      sub\n      dup2\n      add\n      swap1\n      tag_66\n      swap2\n      swap1\n      tag_67\n      jump\t// in\n    tag_66:\n      tag_68\n      jump\t// in\n    tag_65:\n      stop\n        /* \"votingDAO/News.sol\":3679:3825  function checkBalance() public view returns(uint256){... */\n    tag_15:\n      tag_69\n      tag_70\n      jump\t// in\n    tag_69:\n      mload(0x40)\n      tag_71\n      swap2\n      swap1\n      tag_28\n      jump\t// in\n    tag_71:\n      mload(0x40)\n      dup1\n      swap2\n      sub\n      swap1\n      return\n        /* \"votingDAO/News.sol\":1636:2076  function createArticle(string memory _metadata) public {... */\n    tag_16:\n      tag_72\n      0x04\n      dup1\n      calldatasize\n      sub\n      dup2\n      add\n      swap1\n      tag_73\n      swap2\n      swap1\n      tag_74\n      jump\t// in\n    tag_73:\n      tag_75\n      jump\t// in\n    tag_72:\n      stop\n        /* \"votingDAO/News.sol\":1033:1058  Article[] public articles */\n    tag_17:\n      tag_76\n      0x04\n      dup1\n      calldatasize\n      sub\n      dup2\n      add\n      swap1\n      tag_77\n      swap2\n      swap1\n      tag_25\n      jump\t// in\n    tag_77:\n      tag_78\n      jump\t// in\n    tag_76:\n      mload(0x40)\n      tag_79\n      swap5\n      swap4\n      swap3\n      swap2\n      swap1\n      tag_80\n      jump\t// in\n    tag_79:\n      mload(0x40)\n      dup1\n      swap2\n      sub\n      swap1\n      return\n        /* \"@openzeppelin/contracts/access/Ownable.sol\":2074:2272  function transferOwnership(address newOwner) public virtual onlyOwner {... */\n    tag_18:\n      tag_81\n      0x04\n      dup1\n      calldatasize\n      sub\n      dup2\n      add\n      swap1\n      tag_82\n      swap2\n      swap1\n      tag_37\n      jump\t// in\n    tag_82:\n      tag_83\n      jump\t// in\n    tag_81:\n      stop\n        /* \"votingDAO/News.sol\":1112:1179  mapping(address => mapping(uint256 => bool)) public hasRatedArticle */\n    tag_19:\n      tag_84\n      0x04\n      dup1\n      calldatasize\n      sub\n      dup2\n      add\n      swap1\n      tag_85\n      swap2\n      swap1\n      tag_67\n      jump\t// in\n    tag_85:\n      tag_86\n      jump\t// in\n    tag_84:\n      mload(0x40)\n      tag_87\n      swap2\n      swap1\n      tag_88\n      jump\t// in\n    tag_87:\n      mload(0x40)\n      dup1\n      swap2\n      sub\n      swap1\n      return\n        /* \"votingDAO/News.sol\":1185:1231  mapping(uint256 => uint256) public ratingCount */\n    tag_26:\n      mstore(0x20, 0x07)\n      dup1\n      0x00\n      mstore\n      keccak256(0x00, 0x40)\n      0x00\n      swap2\n      pop\n      swap1\n      pop\n      sload\n      dup2\n      jump\t// out\n        /* \"votingDAO/News.sol\":777:806  uint256 public priceUploadNew */\n    tag_30:\n      sload(0x02)\n      dup2\n      jump\t// out\n        /* \"votingDAO/News.sol\":812:843  uint256 public articleIdCounter */\n    tag_33:\n      sload(0x03)\n      dup2\n      jump\t// out\n        /* \"votingDAO/News.sol\":1289:1333  mapping(address => uint256) public timesUsed */\n    tag_38:\n      mstore(0x20, 0x09)\n      dup1\n      0x00\n      mstore\n      keccak256(0x00, 0x40)\n      0x00\n      swap2\n      pop\n      swap1\n      pop\n      sload\n      dup2\n      jump\t// out\n        /* \"votingDAO/News.sol\":1064:1106  mapping(uint256 => uint256) public ratings */\n    tag_42:\n      mstore(0x20, 0x05)\n      dup1\n      0x00\n      mstore\n      keccak256(0x00, 0x40)\n      0x00\n      swap2\n      pop\n      swap1\n      pop\n      sload\n      dup2\n      jump\t// out\n        /* \"votingDAO/News.sol\":1238:1283  mapping(address => uint256) public ratedTimes */\n    tag_46:\n      mstore(0x20, 0x08)\n      dup1\n      0x00\n      mstore\n      keccak256(0x00, 0x40)\n      0x00\n      swap2\n      pop\n      swap1\n      pop\n      sload\n      dup2\n      jump\t// out\n        /* \"@openzeppelin/contracts/access/Ownable.sol\":1824:1925  function renounceOwnership() public virtual onlyOwner {... */\n    tag_49:\n        /* \"@openzeppelin/contracts/access/Ownable.sol\":1094:1107  _checkOwner() */\n      tag_90\n        /* \"@openzeppelin/contracts/access/Ownable.sol\":1094:1105  _checkOwner */\n      tag_91\n        /* \"@openzeppelin/contracts/access/Ownable.sol\":1094:1107  _checkOwner() */\n      jump\t// in\n    tag_90:\n        /* \"@openzeppelin/contracts/access/Ownable.sol\":1888:1918  _transferOwnership(address(0)) */\n      tag_93\n        /* \"@openzeppelin/contracts/access/Ownable.sol\":1915:1916  0 */\n      0x00\n        /* \"@openzeppelin/contracts/access/Ownable.sol\":1888:1906  _transferOwnership */\n      tag_94\n        /* \"@openzeppelin/contracts/access/Ownable.sol\":1888:1918  _transferOwnership(address(0)) */\n      jump\t// in\n    tag_93:\n        /* \"@openzeppelin/contracts/access/Ownable.sol\":1824:1925  function renounceOwnership() public virtual onlyOwner {... */\n      jump\t// out\n        /* \"votingDAO/News.sol\":2082:3559  function rateArticle(uint256 _articleId, uint256 _rating) public {... */\n    tag_53:\n        /* \"votingDAO/News.sol\":2178:2179  0 */\n      0x00\n        /* \"votingDAO/News.sol\":2165:2175  _articleId */\n      dup3\n        /* \"votingDAO/News.sol\":2165:2179  _articleId > 0 */\n      gt\n        /* \"votingDAO/News.sol\":2165:2213  _articleId > 0 && _articleId <= articleIdCounter */\n      dup1\n      iszero\n      tag_96\n      jumpi\n      pop\n        /* \"votingDAO/News.sol\":2197:2213  articleIdCounter */\n      sload(0x03)\n        /* \"votingDAO/News.sol\":2183:2193  _articleId */\n      dup3\n        /* \"votingDAO/News.sol\":2183:2213  _articleId <= articleIdCounter */\n      gt\n      iszero\n        /* \"votingDAO/News.sol\":2165:2213  _articleId > 0 && _articleId <= articleIdCounter */\n    tag_96:\n        /* \"votingDAO/News.sol\":2157:2242  require(_articleId > 0 && _articleId <= articleIdCounter, \"ID de articulo no valido\") */\n      tag_97\n      jumpi\n      mload(0x40)\n      0x08c379a000000000000000000000000000000000000000000000000000000000\n      dup2\n      mstore\n      0x04\n      add\n      tag_98\n      swap1\n      tag_99\n      jump\t// in\n    tag_98:\n      mload(0x40)\n      dup1\n      swap2\n      sub\n      swap1\n      revert\n    tag_97:\n        /* \"votingDAO/News.sol\":2271:2272  1 */\n      0x01\n        /* \"votingDAO/News.sol\":2260:2267  _rating */\n      dup2\n        /* \"votingDAO/News.sol\":2260:2272  _rating >= 1 */\n      lt\n      iszero\n        /* \"votingDAO/News.sol\":2260:2288  _rating >= 1 && _rating <= 5 */\n      dup1\n      iszero\n      tag_100\n      jumpi\n      pop\n        /* \"votingDAO/News.sol\":2287:2288  5 */\n      0x05\n        /* \"votingDAO/News.sol\":2276:2283  _rating */\n      dup2\n        /* \"votingDAO/News.sol\":2276:2288  _rating <= 5 */\n      gt\n      iszero\n        /* \"votingDAO/News.sol\":2260:2288  _rating >= 1 && _rating <= 5 */\n    tag_100:\n        /* \"votingDAO/News.sol\":2252:2339  require(_rating >= 1 && _rating <= 5, \"Calificacion no valida; debe estar entre 1 y 5\") */\n      tag_101\n      jumpi\n      mload(0x40)\n      0x08c379a000000000000000000000000000000000000000000000000000000000\n      dup2\n      mstore\n      0x04\n      add\n      tag_102\n      swap1\n      tag_103\n      jump\t// in\n    tag_102:\n      mload(0x40)\n      dup1\n      swap2\n      sub\n      swap1\n      revert\n    tag_101:\n        /* \"votingDAO/News.sol\":2358:2373  hasRatedArticle */\n      0x06\n        /* \"votingDAO/News.sol\":2358:2385  hasRatedArticle[msg.sender] */\n      0x00\n        /* \"votingDAO/News.sol\":2374:2384  msg.sender */\n      caller\n        /* \"votingDAO/News.sol\":2358:2385  hasRatedArticle[msg.sender] */\n      0xffffffffffffffffffffffffffffffffffffffff\n      and\n      0xffffffffffffffffffffffffffffffffffffffff\n      and\n      dup2\n      mstore\n      0x20\n      add\n      swap1\n      dup2\n      mstore\n      0x20\n      add\n      0x00\n      keccak256\n        /* \"votingDAO/News.sol\":2358:2397  hasRatedArticle[msg.sender][_articleId] */\n      0x00\n        /* \"votingDAO/News.sol\":2386:2396  _articleId */\n      dup4\n        /* \"votingDAO/News.sol\":2358:2397  hasRatedArticle[msg.sender][_articleId] */\n      dup2\n      mstore\n      0x20\n      add\n      swap1\n      dup2\n      mstore\n      0x20\n      add\n      0x00\n      keccak256\n      0x00\n      swap1\n      sload\n      swap1\n      0x0100\n      exp\n      swap1\n      div\n      0xff\n      and\n        /* \"votingDAO/News.sol\":2357:2397  !hasRatedArticle[msg.sender][_articleId] */\n      iszero\n        /* \"votingDAO/News.sol\":2349:2433  require(!hasRatedArticle[msg.sender][_articleId], \"Ya has calificado este articulo\") */\n      tag_104\n      jumpi\n      mload(0x40)\n      0x08c379a000000000000000000000000000000000000000000000000000000000\n      dup2\n      mstore\n      0x04\n      add\n      tag_105\n      swap1\n      tag_106\n      jump\t// in\n    tag_105:\n      mload(0x40)\n      dup1\n      swap2\n      sub\n      swap1\n      revert\n    tag_104:\n        /* \"votingDAO/News.sol\":2484:2485  0 */\n      0x00\n        /* \"votingDAO/News.sol\":2451:2459  tokenDAO */\n      0x01\n      0x00\n      swap1\n      sload\n      swap1\n      0x0100\n      exp\n      swap1\n      div\n      0xffffffffffffffffffffffffffffffffffffffff\n      and\n        /* \"votingDAO/News.sol\":2451:2469  tokenDAO.balanceOf */\n      0xffffffffffffffffffffffffffffffffffffffff\n      and\n      0x70a08231\n        /* \"votingDAO/News.sol\":2470:2480  msg.sender */\n      caller\n        /* \"votingDAO/News.sol\":2451:2481  tokenDAO.balanceOf(msg.sender) */\n      mload(0x40)\n      dup3\n      0xffffffff\n      and\n      0xe0\n      shl\n      dup2\n      mstore\n      0x04\n      add\n      tag_107\n      swap2\n      swap1\n      tag_60\n      jump\t// in\n    tag_107:\n      0x20\n      mload(0x40)\n      dup1\n      dup4\n      sub\n      dup2\n      dup7\n      gas\n      staticcall\n      iszero\n      dup1\n      iszero\n      tag_109\n      jumpi\n      returndatasize\n      0x00\n      dup1\n      returndatacopy\n      revert(0x00, returndatasize)\n    tag_109:\n      pop\n      pop\n      pop\n      pop\n      mload(0x40)\n      returndatasize\n      not(0x1f)\n      0x1f\n      dup3\n      add\n      and\n      dup3\n      add\n      dup1\n      0x40\n      mstore\n      pop\n      dup2\n      add\n      swap1\n      tag_110\n      swap2\n      swap1\n      tag_111\n      jump\t// in\n    tag_110:\n        /* \"votingDAO/News.sol\":2451:2485  tokenDAO.balanceOf(msg.sender) > 0 */\n      gt\n        /* \"votingDAO/News.sol\":2443:2518  require(tokenDAO.balanceOf(msg.sender) > 0, \"Saldo de tokens insuficiente\") */\n      tag_112\n      jumpi\n      mload(0x40)\n      0x08c379a000000000000000000000000000000000000000000000000000000000\n      dup2\n      mstore\n      0x04\n      add\n      tag_113\n      swap1\n      tag_114\n      jump\t// in\n    tag_113:\n      mload(0x40)\n      dup1\n      swap2\n      sub\n      swap1\n      revert\n    tag_112:\n        /* \"votingDAO/News.sol\":2575:2594  uint256 userBalance */\n      0x00\n        /* \"votingDAO/News.sol\":2597:2605  tokenDAO */\n      0x01\n      0x00\n      swap1\n      sload\n      swap1\n      0x0100\n      exp\n      swap1\n      div\n      0xffffffffffffffffffffffffffffffffffffffff\n      and\n        /* \"votingDAO/News.sol\":2597:2615  tokenDAO.balanceOf */\n      0xffffffffffffffffffffffffffffffffffffffff\n      and\n      0x70a08231\n        /* \"votingDAO/News.sol\":2616:2626  msg.sender */\n      caller\n        /* \"votingDAO/News.sol\":2597:2627  tokenDAO.balanceOf(msg.sender) */\n      mload(0x40)\n      dup3\n      0xffffffff\n      and\n      0xe0\n      shl\n      dup2\n      mstore\n      0x04\n      add\n      tag_115\n      swap2\n      swap1\n      tag_60\n      jump\t// in\n    tag_115:\n      0x20\n      mload(0x40)\n      dup1\n      dup4\n      sub\n      dup2\n      dup7\n      gas\n      staticcall\n      iszero\n      dup1\n      iszero\n      tag_117\n      jumpi\n      returndatasize\n      0x00\n      dup1\n      returndatacopy\n      revert(0x00, returndatasize)\n    tag_117:\n      pop\n      pop\n      pop\n      pop\n      mload(0x40)\n      returndatasize\n      not(0x1f)\n      0x1f\n      dup3\n      add\n      and\n      dup3\n      add\n      dup1\n      0x40\n      mstore\n      pop\n      dup2\n      add\n      swap1\n      tag_118\n      swap2\n      swap1\n      tag_111\n      jump\t// in\n    tag_118:\n        /* \"votingDAO/News.sol\":2575:2627  uint256 userBalance = tokenDAO.balanceOf(msg.sender) */\n      swap1\n      pop\n        /* \"votingDAO/News.sol\":2637:2656  uint256 totalSupply */\n      0x00\n        /* \"votingDAO/News.sol\":2659:2667  tokenDAO */\n      0x01\n      0x00\n      swap1\n      sload\n      swap1\n      0x0100\n      exp\n      swap1\n      div\n      0xffffffffffffffffffffffffffffffffffffffff\n      and\n        /* \"votingDAO/News.sol\":2659:2679  tokenDAO.totalSupply */\n      0xffffffffffffffffffffffffffffffffffffffff\n      and\n      0x18160ddd\n        /* \"votingDAO/News.sol\":2659:2681  tokenDAO.totalSupply() */\n      mload(0x40)\n      dup2\n      0xffffffff\n      and\n      0xe0\n      shl\n      dup2\n      mstore\n      0x04\n      add\n      0x20\n      mload(0x40)\n      dup1\n      dup4\n      sub\n      dup2\n      dup7\n      gas\n      staticcall\n      iszero\n      dup1\n      iszero\n      tag_120\n      jumpi\n      returndatasize\n      0x00\n      dup1\n      returndatacopy\n      revert(0x00, returndatasize)\n    tag_120:\n      pop\n      pop\n      pop\n      pop\n      mload(0x40)\n      returndatasize\n      not(0x1f)\n      0x1f\n      dup3\n      add\n      and\n      dup3\n      add\n      dup1\n      0x40\n      mstore\n      pop\n      dup2\n      add\n      swap1\n      tag_121\n      swap2\n      swap1\n      tag_111\n      jump\t// in\n    tag_121:\n        /* \"votingDAO/News.sol\":2637:2681  uint256 totalSupply = tokenDAO.totalSupply() */\n      swap1\n      pop\n        /* \"votingDAO/News.sol\":2691:2709  uint256 userWeight */\n      0x00\n        /* \"votingDAO/News.sol\":2756:2767  totalSupply */\n      dup2\n        /* \"votingDAO/News.sol\":2727:2752  1000000000000000000000000 */\n      0xd3c21bcecceda1000000\n        /* \"votingDAO/News.sol\":2713:2724  userBalance */\n      dup5\n        /* \"votingDAO/News.sol\":2713:2752  userBalance * 1000000000000000000000000 */\n      tag_122\n      swap2\n      swap1\n      tag_123\n      jump\t// in\n    tag_122:\n        /* \"votingDAO/News.sol\":2712:2767  (userBalance * 1000000000000000000000000) / totalSupply */\n      tag_124\n      swap2\n      swap1\n      tag_125\n      jump\t// in\n    tag_124:\n        /* \"votingDAO/News.sol\":2691:2767  uint256 userWeight = (userBalance * 1000000000000000000000000) / totalSupply */\n      swap1\n      pop\n        /* \"votingDAO/News.sol\":2861:2883  uint256 weightedRating */\n      0x00\n        /* \"votingDAO/News.sol\":2911:2914  100 */\n      0x64\n        /* \"votingDAO/News.sol\":2897:2907  userWeight */\n      dup3\n        /* \"votingDAO/News.sol\":2887:2894  _rating */\n      dup7\n        /* \"votingDAO/News.sol\":2887:2907  _rating * userWeight */\n      tag_126\n      swap2\n      swap1\n      tag_123\n      jump\t// in\n    tag_126:\n        /* \"votingDAO/News.sol\":2886:2914  (_rating * userWeight) / 100 */\n      tag_127\n      swap2\n      swap1\n      tag_125\n      jump\t// in\n    tag_127:\n        /* \"votingDAO/News.sol\":2861:2914  uint256 weightedRating = (_rating * userWeight) / 100 */\n      swap1\n      pop\n        /* \"votingDAO/News.sol\":3010:3024  weightedRating */\n      dup1\n        /* \"votingDAO/News.sol\":2987:2994  ratings */\n      0x05\n        /* \"votingDAO/News.sol\":2987:3006  ratings[_articleId] */\n      0x00\n        /* \"votingDAO/News.sol\":2995:3005  _articleId */\n      dup9\n        /* \"votingDAO/News.sol\":2987:3006  ratings[_articleId] */\n      dup2\n      mstore\n      0x20\n      add\n      swap1\n      dup2\n      mstore\n      0x20\n      add\n      0x00\n      keccak256\n      0x00\n        /* \"votingDAO/News.sol\":2987:3024  ratings[_articleId] += weightedRating */\n      dup3\n      dup3\n      sload\n      tag_128\n      swap2\n      swap1\n      tag_129\n      jump\t// in\n    tag_128:\n      swap3\n      pop\n      pop\n      dup2\n      swap1\n      sstore\n      pop\n        /* \"votingDAO/News.sol\":3034:3045  ratingCount */\n      0x07\n        /* \"votingDAO/News.sol\":3034:3057  ratingCount[_articleId] */\n      0x00\n        /* \"votingDAO/News.sol\":3046:3056  _articleId */\n      dup8\n        /* \"votingDAO/News.sol\":3034:3057  ratingCount[_articleId] */\n      dup2\n      mstore\n      0x20\n      add\n      swap1\n      dup2\n      mstore\n      0x20\n      add\n      0x00\n      keccak256\n      0x00\n        /* \"votingDAO/News.sol\":3034:3059  ratingCount[_articleId]++ */\n      dup2\n      sload\n      dup1\n      swap3\n      swap2\n      swap1\n      tag_130\n      swap1\n      tag_131\n      jump\t// in\n    tag_130:\n      swap2\n      swap1\n      pop\n      sstore\n      pop\n        /* \"votingDAO/News.sol\":3132:3160  uint256 totalWeightedRatings */\n      0x00\n        /* \"votingDAO/News.sol\":3163:3170  ratings */\n      0x05\n        /* \"votingDAO/News.sol\":3163:3182  ratings[_articleId] */\n      0x00\n        /* \"votingDAO/News.sol\":3171:3181  _articleId */\n      dup9\n        /* \"votingDAO/News.sol\":3163:3182  ratings[_articleId] */\n      dup2\n      mstore\n      0x20\n      add\n      swap1\n      dup2\n      mstore\n      0x20\n      add\n      0x00\n      keccak256\n      sload\n        /* \"votingDAO/News.sol\":3132:3182  uint256 totalWeightedRatings = ratings[_articleId] */\n      swap1\n      pop\n        /* \"votingDAO/News.sol\":3192:3217  uint256 totalRatingsCount */\n      0x00\n        /* \"votingDAO/News.sol\":3220:3231  ratingCount */\n      0x07\n        /* \"votingDAO/News.sol\":3220:3243  ratingCount[_articleId] */\n      0x00\n        /* \"votingDAO/News.sol\":3232:3242  _articleId */\n      dup10\n        /* \"votingDAO/News.sol\":3220:3243  ratingCount[_articleId] */\n      dup2\n      mstore\n      0x20\n      add\n      swap1\n      dup2\n      mstore\n      0x20\n      add\n      0x00\n      keccak256\n      sload\n        /* \"votingDAO/News.sol\":3192:3243  uint256 totalRatingsCount = ratingCount[_articleId] */\n      swap1\n      pop\n        /* \"votingDAO/News.sol\":3253:3276  uint256 weightedAverage */\n      0x00\n        /* \"votingDAO/News.sol\":3302:3319  totalRatingsCount */\n      dup2\n        /* \"votingDAO/News.sol\":3279:3299  totalWeightedRatings */\n      dup4\n        /* \"votingDAO/News.sol\":3279:3319  totalWeightedRatings / totalRatingsCount */\n      tag_132\n      swap2\n      swap1\n      tag_125\n      jump\t// in\n    tag_132:\n        /* \"votingDAO/News.sol\":3253:3319  uint256 weightedAverage = totalWeightedRatings / totalRatingsCount */\n      swap1\n      pop\n        /* \"votingDAO/News.sol\":3427:3442  weightedAverage */\n      dup1\n        /* \"votingDAO/News.sol\":3384:3392  articles */\n      0x04\n        /* \"votingDAO/News.sol\":3406:3407  1 */\n      0x01\n        /* \"votingDAO/News.sol\":3393:3403  _articleId */\n      dup12\n        /* \"votingDAO/News.sol\":3393:3407  _articleId - 1 */\n      tag_133\n      swap2\n      swap1\n      tag_134\n      jump\t// in\n    tag_133:\n        /* \"votingDAO/News.sol\":3384:3408  articles[_articleId - 1] */\n      dup2\n      sload\n      dup2\n      lt\n      tag_135\n      jumpi\n      tag_136\n      tag_137\n      jump\t// in\n    tag_136:\n    tag_135:\n      swap1\n      0x00\n      mstore\n      keccak256(0x00, 0x20)\n      swap1\n      0x04\n      mul\n      add\n        /* \"votingDAO/News.sol\":3384:3424  articles[_articleId - 1].weightedAverage */\n      0x03\n      add\n        /* \"votingDAO/News.sol\":3384:3442  articles[_articleId - 1].weightedAverage = weightedAverage */\n      dup2\n      swap1\n      sstore\n      pop\n        /* \"votingDAO/News.sol\":3548:3552  true */\n      0x01\n        /* \"votingDAO/News.sol\":3506:3521  hasRatedArticle */\n      0x06\n        /* \"votingDAO/News.sol\":3506:3533  hasRatedArticle[msg.sender] */\n      0x00\n        /* \"votingDAO/News.sol\":3522:3532  msg.sender */\n      caller\n        /* \"votingDAO/News.sol\":3506:3533  hasRatedArticle[msg.sender] */\n      0xffffffffffffffffffffffffffffffffffffffff\n      and\n      0xffffffffffffffffffffffffffffffffffffffff\n      and\n      dup2\n      mstore\n      0x20\n      add\n      swap1\n      dup2\n      mstore\n      0x20\n      add\n      0x00\n      keccak256\n        /* \"votingDAO/News.sol\":3506:3545  hasRatedArticle[msg.sender][_articleId] */\n      0x00\n        /* \"votingDAO/News.sol\":3534:3544  _articleId */\n      dup12\n        /* \"votingDAO/News.sol\":3506:3545  hasRatedArticle[msg.sender][_articleId] */\n      dup2\n      mstore\n      0x20\n      add\n      swap1\n      dup2\n      mstore\n      0x20\n      add\n      0x00\n      keccak256\n      0x00\n        /* \"votingDAO/News.sol\":3506:3552  hasRatedArticle[msg.sender][_articleId] = true */\n      0x0100\n      exp\n      dup2\n      sload\n      dup2\n      0xff\n      mul\n      not\n      and\n      swap1\n      dup4\n      iszero\n      iszero\n      mul\n      or\n      swap1\n      sstore\n      pop\n        /* \"votingDAO/News.sol\":2147:3559  {... */\n      pop\n      pop\n      pop\n      pop\n      pop\n      pop\n      pop\n        /* \"votingDAO/News.sol\":2082:3559  function rateArticle(uint256 _articleId, uint256 _rating) public {... */\n      pop\n      pop\n      jump\t// out\n        /* \"votingDAO/News.sol\":1518:1630  function updatePrice(uint256 _newPriceUpload) public onlyOwner {... */\n    tag_56:\n        /* \"@openzeppelin/contracts/access/Ownable.sol\":1094:1107  _checkOwner() */\n      tag_140\n        /* \"@openzeppelin/contracts/access/Ownable.sol\":1094:1105  _checkOwner */\n      tag_91\n        /* \"@openzeppelin/contracts/access/Ownable.sol\":1094:1107  _checkOwner() */\n      jump\t// in\n    tag_140:\n        /* \"votingDAO/News.sol\":1608:1623  _newPriceUpload */\n      dup1\n        /* \"votingDAO/News.sol\":1591:1605  priceUploadNew */\n      0x02\n        /* \"votingDAO/News.sol\":1591:1623  priceUploadNew = _newPriceUpload */\n      dup2\n      swap1\n      sstore\n      pop\n        /* \"votingDAO/News.sol\":1518:1630  function updatePrice(uint256 _newPriceUpload) public onlyOwner {... */\n      pop\n      jump\t// out\n        /* \"@openzeppelin/contracts/access/Ownable.sol\":1201:1286  function owner() public view virtual returns (address) {... */\n    tag_58:\n        /* \"@openzeppelin/contracts/access/Ownable.sol\":1247:1254  address */\n      0x00\n        /* \"@openzeppelin/contracts/access/Ownable.sol\":1273:1279  _owner */\n      dup1\n      0x00\n      swap1\n      sload\n      swap1\n      0x0100\n      exp\n      swap1\n      div\n      0xffffffffffffffffffffffffffffffffffffffff\n      and\n        /* \"@openzeppelin/contracts/access/Ownable.sol\":1266:1279  return _owner */\n      swap1\n      pop\n        /* \"@openzeppelin/contracts/access/Ownable.sol\":1201:1286  function owner() public view virtual returns (address) {... */\n      swap1\n      jump\t// out\n        /* \"votingDAO/News.sol\":749:771  IToken public tokenDAO */\n    tag_62:\n      0x01\n      0x00\n      swap1\n      sload\n      swap1\n      0x0100\n      exp\n      swap1\n      div\n      0xffffffffffffffffffffffffffffffffffffffff\n      and\n      dup2\n      jump\t// out\n        /* \"votingDAO/News.sol\":3565:3674  function pay(address _to , uint256 _amount) public onlyOwner{... */\n    tag_68:\n        /* \"@openzeppelin/contracts/access/Ownable.sol\":1094:1107  _checkOwner() */\n      tag_144\n        /* \"@openzeppelin/contracts/access/Ownable.sol\":1094:1105  _checkOwner */\n      tag_91\n        /* \"@openzeppelin/contracts/access/Ownable.sol\":1094:1107  _checkOwner() */\n      jump\t// in\n    tag_144:\n        /* \"votingDAO/News.sol\":3635:3643  tokenDAO */\n      0x01\n      0x00\n      swap1\n      sload\n      swap1\n      0x0100\n      exp\n      swap1\n      div\n      0xffffffffffffffffffffffffffffffffffffffff\n      and\n        /* \"votingDAO/News.sol\":3635:3652  tokenDAO.transfer */\n      0xffffffffffffffffffffffffffffffffffffffff\n      and\n      0xa9059cbb\n        /* \"votingDAO/News.sol\":3653:3656  _to */\n      dup4\n        /* \"votingDAO/News.sol\":3658:3665  _amount */\n      dup4\n        /* \"votingDAO/News.sol\":3635:3666  tokenDAO.transfer(_to, _amount) */\n      mload(0x40)\n      dup4\n      0xffffffff\n      and\n      0xe0\n      shl\n      dup2\n      mstore\n      0x04\n      add\n      tag_146\n      swap3\n      swap2\n      swap1\n      tag_147\n      jump\t// in\n    tag_146:\n      0x20\n      mload(0x40)\n      dup1\n      dup4\n      sub\n      dup2\n      0x00\n      dup8\n      gas\n      call\n      iszero\n      dup1\n      iszero\n      tag_149\n      jumpi\n      returndatasize\n      0x00\n      dup1\n      returndatacopy\n      revert(0x00, returndatasize)\n    tag_149:\n      pop\n      pop\n      pop\n      pop\n      mload(0x40)\n      returndatasize\n      not(0x1f)\n      0x1f\n      dup3\n      add\n      and\n      dup3\n      add\n      dup1\n      0x40\n      mstore\n      pop\n      dup2\n      add\n      swap1\n      tag_150\n      swap2\n      swap1\n      tag_151\n      jump\t// in\n    tag_150:\n      pop\n        /* \"votingDAO/News.sol\":3565:3674  function pay(address _to , uint256 _amount) public onlyOwner{... */\n      pop\n      pop\n      jump\t// out\n        /* \"votingDAO/News.sol\":3679:3825  function checkBalance() public view returns(uint256){... */\n    tag_70:\n        /* \"votingDAO/News.sol\":3723:3730  uint256 */\n      0x00\n        /* \"votingDAO/News.sol\":3741:3757  uint256 quantity */\n      dup1\n        /* \"votingDAO/News.sol\":3759:3767  tokenDAO */\n      0x01\n      0x00\n      swap1\n      sload\n      swap1\n      0x0100\n      exp\n      swap1\n      div\n      0xffffffffffffffffffffffffffffffffffffffff\n      and\n        /* \"votingDAO/News.sol\":3759:3777  tokenDAO.balanceOf */\n      0xffffffffffffffffffffffffffffffffffffffff\n      and\n      0x70a08231\n        /* \"votingDAO/News.sol\":3786:3790  this */\n      address\n        /* \"votingDAO/News.sol\":3759:3792  tokenDAO.balanceOf(address(this)) */\n      mload(0x40)\n      dup3\n      0xffffffff\n      and\n      0xe0\n      shl\n      dup2\n      mstore\n      0x04\n      add\n      tag_153\n      swap2\n      swap1\n      tag_60\n      jump\t// in\n    tag_153:\n      0x20\n      mload(0x40)\n      dup1\n      dup4\n      sub\n      dup2\n      dup7\n      gas\n      staticcall\n      iszero\n      dup1\n      iszero\n      tag_155\n      jumpi\n      returndatasize\n      0x00\n      dup1\n      returndatacopy\n      revert(0x00, returndatasize)\n    tag_155:\n      pop\n      pop\n      pop\n      pop\n      mload(0x40)\n      returndatasize\n      not(0x1f)\n      0x1f\n      dup3\n      add\n      and\n      dup3\n      add\n      dup1\n      0x40\n      mstore\n      pop\n      dup2\n      add\n      swap1\n      tag_156\n      swap2\n      swap1\n      tag_111\n      jump\t// in\n    tag_156:\n        /* \"votingDAO/News.sol\":3741:3792  uint256 quantity =tokenDAO.balanceOf(address(this)) */\n      swap1\n      pop\n        /* \"votingDAO/News.sol\":3809:3817  quantity */\n      dup1\n        /* \"votingDAO/News.sol\":3802:3818  return(quantity) */\n      swap2\n      pop\n      pop\n        /* \"votingDAO/News.sol\":3679:3825  function checkBalance() public view returns(uint256){... */\n      swap1\n      jump\t// out\n        /* \"votingDAO/News.sol\":1636:2076  function createArticle(string memory _metadata) public {... */\n    tag_75:\n        /* \"votingDAO/News.sol\":1709:1717  tokenDAO */\n      0x01\n      0x00\n      swap1\n      sload\n      swap1\n      0x0100\n      exp\n      swap1\n      div\n      0xffffffffffffffffffffffffffffffffffffffff\n      and\n        /* \"votingDAO/News.sol\":1709:1730  tokenDAO.transferFrom */\n      0xffffffffffffffffffffffffffffffffffffffff\n      and\n      0x23b872dd\n        /* \"votingDAO/News.sol\":1731:1741  msg.sender */\n      caller\n        /* \"votingDAO/News.sol\":1751:1755  this */\n      address\n        /* \"votingDAO/News.sol\":1758:1772  priceUploadNew */\n      sload(0x02)\n        /* \"votingDAO/News.sol\":1709:1773  tokenDAO.transferFrom(msg.sender, address(this), priceUploadNew) */\n      mload(0x40)\n      dup5\n      0xffffffff\n      and\n      0xe0\n      shl\n      dup2\n      mstore\n      0x04\n      add\n      tag_158\n      swap4\n      swap3\n      swap2\n      swap1\n      tag_159\n      jump\t// in\n    tag_158:\n      0x20\n      mload(0x40)\n      dup1\n      dup4\n      sub\n      dup2\n      0x00\n      dup8\n      gas\n      call\n      iszero\n      dup1\n      iszero\n      tag_161\n      jumpi\n      returndatasize\n      0x00\n      dup1\n      returndatacopy\n      revert(0x00, returndatasize)\n    tag_161:\n      pop\n      pop\n      pop\n      pop\n      mload(0x40)\n      returndatasize\n      not(0x1f)\n      0x1f\n      dup3\n      add\n      and\n      dup3\n      add\n      dup1\n      0x40\n      mstore\n      pop\n      dup2\n      add\n      swap1\n      tag_162\n      swap2\n      swap1\n      tag_151\n      jump\t// in\n    tag_162:\n        /* \"votingDAO/News.sol\":1701:1803  require(tokenDAO.transferFrom(msg.sender, address(this), priceUploadNew), \"Failed to transfer tokens\") */\n      tag_163\n      jumpi\n      mload(0x40)\n      0x08c379a000000000000000000000000000000000000000000000000000000000\n      dup2\n      mstore\n      0x04\n      add\n      tag_164\n      swap1\n      tag_165\n      jump\t// in\n    tag_164:\n      mload(0x40)\n      dup1\n      swap2\n      sub\n      swap1\n      revert\n    tag_163:\n        /* \"votingDAO/News.sol\":1813:1829  articleIdCounter */\n      0x03\n      0x00\n        /* \"votingDAO/News.sol\":1813:1831  articleIdCounter++ */\n      dup2\n      sload\n      dup1\n      swap3\n      swap2\n      swap1\n      tag_166\n      swap1\n      tag_131\n      jump\t// in\n    tag_166:\n      swap2\n      swap1\n      pop\n      sstore\n      pop\n        /* \"votingDAO/News.sol\":1841:1849  articles */\n      0x04\n        /* \"votingDAO/News.sol\":1855:2068  Article({... */\n      mload(0x40)\n      dup1\n      0x80\n      add\n      0x40\n      mstore\n      dup1\n        /* \"votingDAO/News.sol\":1885:1895  msg.sender */\n      caller\n        /* \"votingDAO/News.sol\":1855:2068  Article({... */\n      0xffffffffffffffffffffffffffffffffffffffff\n      and\n      dup2\n      mstore\n      0x20\n      add\n        /* \"votingDAO/News.sol\":1919:1928  _metadata */\n      dup4\n        /* \"votingDAO/News.sol\":1855:2068  Article({... */\n      dup2\n      mstore\n      0x20\n      add\n        /* \"votingDAO/News.sol\":1946:1962  articleIdCounter */\n      sload(0x03)\n        /* \"votingDAO/News.sol\":1855:2068  Article({... */\n      dup2\n      mstore\n      0x20\n      add\n        /* \"votingDAO/News.sol\":1993:1994  0 */\n      0x00\n        /* \"votingDAO/News.sol\":1855:2068  Article({... */\n      dup2\n      mstore\n      pop\n        /* \"votingDAO/News.sol\":1841:2069  articles.push(Article({... */\n      swap1\n      dup1\n      0x01\n      dup2\n      sload\n      add\n      dup1\n      dup3\n      sstore\n      dup1\n      swap2\n      pop\n      pop\n      0x01\n      swap1\n      sub\n      swap1\n      0x00\n      mstore\n      keccak256(0x00, 0x20)\n      swap1\n      0x04\n      mul\n      add\n      0x00\n      swap1\n      swap2\n      swap1\n      swap2\n      swap1\n      swap2\n      pop\n      0x00\n      dup3\n      add\n      mload\n      dup2\n      0x00\n      add\n      exp(0x0100, 0x00)\n      dup2\n      sload\n      dup2\n      0xffffffffffffffffffffffffffffffffffffffff\n      mul\n      not\n      and\n      swap1\n      dup4\n      0xffffffffffffffffffffffffffffffffffffffff\n      and\n      mul\n      or\n      swap1\n      sstore\n      pop\n      0x20\n      dup3\n      add\n      mload\n      dup2\n      0x01\n      add\n      swap1\n      dup2\n      tag_168\n      swap2\n      swap1\n      tag_169\n      jump\t// in\n    tag_168:\n      pop\n      0x40\n      dup3\n      add\n      mload\n      dup2\n      0x02\n      add\n      sstore\n      0x60\n      dup3\n      add\n      mload\n      dup2\n      0x03\n      add\n      sstore\n      pop\n      pop\n        /* \"votingDAO/News.sol\":1636:2076  function createArticle(string memory _metadata) public {... */\n      pop\n      jump\t// out\n        /* \"votingDAO/News.sol\":1033:1058  Article[] public articles */\n    tag_78:\n      0x04\n      dup2\n      dup2\n      sload\n      dup2\n      lt\n      tag_170\n      jumpi\n      0x00\n      dup1\n      revert\n    tag_170:\n      swap1\n      0x00\n      mstore\n      keccak256(0x00, 0x20)\n      swap1\n      0x04\n      mul\n      add\n      0x00\n      swap2\n      pop\n      swap1\n      pop\n      dup1\n      0x00\n      add\n      0x00\n      swap1\n      sload\n      swap1\n      0x0100\n      exp\n      swap1\n      div\n      0xffffffffffffffffffffffffffffffffffffffff\n      and\n      swap1\n      dup1\n      0x01\n      add\n      dup1\n      sload\n      tag_172\n      swap1\n      tag_173\n      jump\t// in\n    tag_172:\n      dup1\n      0x1f\n      add\n      0x20\n      dup1\n      swap2\n      div\n      mul\n      0x20\n      add\n      mload(0x40)\n      swap1\n      dup2\n      add\n      0x40\n      mstore\n      dup1\n      swap3\n      swap2\n      swap1\n      dup2\n      dup2\n      mstore\n      0x20\n      add\n      dup3\n      dup1\n      sload\n      tag_174\n      swap1\n      tag_173\n      jump\t// in\n    tag_174:\n      dup1\n      iszero\n      tag_175\n      jumpi\n      dup1\n      0x1f\n      lt\n      tag_176\n      jumpi\n      0x0100\n      dup1\n      dup4\n      sload\n      div\n      mul\n      dup4\n      mstore\n      swap2\n      0x20\n      add\n      swap2\n      jump(tag_175)\n    tag_176:\n      dup3\n      add\n      swap2\n      swap1\n      0x00\n      mstore\n      keccak256(0x00, 0x20)\n      swap1\n    tag_177:\n      dup2\n      sload\n      dup2\n      mstore\n      swap1\n      0x01\n      add\n      swap1\n      0x20\n      add\n      dup1\n      dup4\n      gt\n      tag_177\n      jumpi\n      dup3\n      swap1\n      sub\n      0x1f\n      and\n      dup3\n      add\n      swap2\n    tag_175:\n      pop\n      pop\n      pop\n      pop\n      pop\n      swap1\n      dup1\n      0x02\n      add\n      sload\n      swap1\n      dup1\n      0x03\n      add\n      sload\n      swap1\n      pop\n      dup5\n      jump\t// out\n        /* \"@openzeppelin/contracts/access/Ownable.sol\":2074:2272  function transferOwnership(address newOwner) public virtual onlyOwner {... */\n    tag_83:\n        /* \"@openzeppelin/contracts/access/Ownable.sol\":1094:1107  _checkOwner() */\n      tag_179\n        /* \"@openzeppelin/contracts/access/Ownable.sol\":1094:1105  _checkOwner */\n      tag_91\n        /* \"@openzeppelin/contracts/access/Ownable.sol\":1094:1107  _checkOwner() */\n      jump\t// in\n    tag_179:\n        /* \"@openzeppelin/contracts/access/Ownable.sol\":2182:2183  0 */\n      0x00\n        /* \"@openzeppelin/contracts/access/Ownable.sol\":2162:2184  newOwner != address(0) */\n      0xffffffffffffffffffffffffffffffffffffffff\n      and\n        /* \"@openzeppelin/contracts/access/Ownable.sol\":2162:2170  newOwner */\n      dup2\n        /* \"@openzeppelin/contracts/access/Ownable.sol\":2162:2184  newOwner != address(0) */\n      0xffffffffffffffffffffffffffffffffffffffff\n      and\n      sub\n        /* \"@openzeppelin/contracts/access/Ownable.sol\":2154:2227  require(newOwner != address(0), \"Ownable: new owner is the zero address\") */\n      tag_181\n      jumpi\n      mload(0x40)\n      0x08c379a000000000000000000000000000000000000000000000000000000000\n      dup2\n      mstore\n      0x04\n      add\n      tag_182\n      swap1\n      tag_183\n      jump\t// in\n    tag_182:\n      mload(0x40)\n      dup1\n      swap2\n      sub\n      swap1\n      revert\n    tag_181:\n        /* \"@openzeppelin/contracts/access/Ownable.sol\":2237:2265  _transferOwnership(newOwner) */\n      tag_184\n        /* \"@openzeppelin/contracts/access/Ownable.sol\":2256:2264  newOwner */\n      dup2\n        /* \"@openzeppelin/contracts/access/Ownable.sol\":2237:2255  _transferOwnership */\n      tag_94\n        /* \"@openzeppelin/contracts/access/Ownable.sol\":2237:2265  _transferOwnership(newOwner) */\n      jump\t// in\n    tag_184:\n        /* \"@openzeppelin/contracts/access/Ownable.sol\":2074:2272  function transferOwnership(address newOwner) public virtual onlyOwner {... */\n      pop\n      jump\t// out\n        /* \"votingDAO/News.sol\":1112:1179  mapping(address => mapping(uint256 => bool)) public hasRatedArticle */\n    tag_86:\n      mstore(0x20, 0x06)\n      dup2\n      0x00\n      mstore\n      mstore(0x20, keccak256(0x00, 0x40))\n      dup1\n      0x00\n      mstore\n      keccak256(0x00, 0x40)\n      0x00\n      swap2\n      pop\n      swap2\n      pop\n      swap1\n      sload\n      swap1\n      0x0100\n      exp\n      swap1\n      div\n      0xff\n      and\n      dup2\n      jump\t// out\n        /* \"@openzeppelin/contracts/access/Ownable.sol\":1359:1489  function _checkOwner() internal view virtual {... */\n    tag_91:\n        /* \"@openzeppelin/contracts/access/Ownable.sol\":1433:1445  _msgSender() */\n      tag_186\n        /* \"@openzeppelin/contracts/access/Ownable.sol\":1433:1443  _msgSender */\n      tag_187\n        /* \"@openzeppelin/contracts/access/Ownable.sol\":1433:1445  _msgSender() */\n      jump\t// in\n    tag_186:\n        /* \"@openzeppelin/contracts/access/Ownable.sol\":1422:1445  owner() == _msgSender() */\n      0xffffffffffffffffffffffffffffffffffffffff\n      and\n        /* \"@openzeppelin/contracts/access/Ownable.sol\":1422:1429  owner() */\n      tag_188\n        /* \"@openzeppelin/contracts/access/Ownable.sol\":1422:1427  owner */\n      tag_58\n        /* \"@openzeppelin/contracts/access/Ownable.sol\":1422:1429  owner() */\n      jump\t// in\n    tag_188:\n        /* \"@openzeppelin/contracts/access/Ownable.sol\":1422:1445  owner() == _msgSender() */\n      0xffffffffffffffffffffffffffffffffffffffff\n      and\n      eq\n        /* \"@openzeppelin/contracts/access/Ownable.sol\":1414:1482  require(owner() == _msgSender(), \"Ownable: caller is not the owner\") */\n      tag_189\n      jumpi\n      mload(0x40)\n      0x08c379a000000000000000000000000000000000000000000000000000000000\n      dup2\n      mstore\n      0x04\n      add\n      tag_190\n      swap1\n      tag_191\n      jump\t// in\n    tag_190:\n      mload(0x40)\n      dup1\n      swap2\n      sub\n      swap1\n      revert\n    tag_189:\n        /* \"@openzeppelin/contracts/access/Ownable.sol\":1359:1489  function _checkOwner() internal view virtual {... */\n      jump\t// out\n        /* \"@openzeppelin/contracts/access/Ownable.sol\":2426:2613  function _transferOwnership(address newOwner) internal virtual {... */\n    tag_94:\n        /* \"@openzeppelin/contracts/access/Ownable.sol\":2499:2515  address oldOwner */\n      0x00\n        /* \"@openzeppelin/contracts/access/Ownable.sol\":2518:2524  _owner */\n      dup1\n      0x00\n      swap1\n      sload\n      swap1\n      0x0100\n      exp\n      swap1\n      div\n      0xffffffffffffffffffffffffffffffffffffffff\n      and\n        /* \"@openzeppelin/contracts/access/Ownable.sol\":2499:2524  address oldOwner = _owner */\n      swap1\n      pop\n        /* \"@openzeppelin/contracts/access/Ownable.sol\":2543:2551  newOwner */\n      dup2\n        /* \"@openzeppelin/contracts/access/Ownable.sol\":2534:2540  _owner */\n      0x00\n      dup1\n        /* \"@openzeppelin/contracts/access/Ownable.sol\":2534:2551  _owner = newOwner */\n      0x0100\n      exp\n      dup2\n      sload\n      dup2\n      0xffffffffffffffffffffffffffffffffffffffff\n      mul\n      not\n      and\n      swap1\n      dup4\n      0xffffffffffffffffffffffffffffffffffffffff\n      and\n      mul\n      or\n      swap1\n      sstore\n      pop\n        /* \"@openzeppelin/contracts/access/Ownable.sol\":2597:2605  newOwner */\n      dup2\n        /* \"@openzeppelin/contracts/access/Ownable.sol\":2566:2606  OwnershipTransferred(oldOwner, newOwner) */\n      0xffffffffffffffffffffffffffffffffffffffff\n      and\n        /* \"@openzeppelin/contracts/access/Ownable.sol\":2587:2595  oldOwner */\n      dup2\n        /* \"@openzeppelin/contracts/access/Ownable.sol\":2566:2606  OwnershipTransferred(oldOwner, newOwner) */\n      0xffffffffffffffffffffffffffffffffffffffff\n      and\n      0x8be0079c531659141344cd1fd0a4f28419497f9722a3daafe3b4186f6b6457e0\n      mload(0x40)\n      mload(0x40)\n      dup1\n      swap2\n      sub\n      swap1\n      log3\n        /* \"@openzeppelin/contracts/access/Ownable.sol\":2489:2613  {... */\n      pop\n        /* \"@openzeppelin/contracts/access/Ownable.sol\":2426:2613  function _transferOwnership(address newOwner) internal virtual {... */\n      pop\n      jump\t// out\n        /* \"@openzeppelin/contracts/utils/Context.sol\":640:736  function _msgSender() internal view virtual returns (address) {... */\n    tag_187:\n        /* \"@openzeppelin/contracts/utils/Context.sol\":693:700  address */\n      0x00\n        /* \"@openzeppelin/contracts/utils/Context.sol\":719:729  msg.sender */\n      caller\n        /* \"@openzeppelin/contracts/utils/Context.sol\":712:729  return msg.sender */\n      swap1\n      pop\n        /* \"@openzeppelin/contracts/utils/Context.sol\":640:736  function _msgSender() internal view virtual returns (address) {... */\n      swap1\n      jump\t// out\n        /* \"#utility.yul\":7:82   */\n    tag_194:\n        /* \"#utility.yul\":40:46   */\n      0x00\n        /* \"#utility.yul\":73:75   */\n      0x40\n        /* \"#utility.yul\":67:76   */\n      mload\n        /* \"#utility.yul\":57:76   */\n      swap1\n      pop\n        /* \"#utility.yul\":7:82   */\n      swap1\n      jump\t// out\n        /* \"#utility.yul\":88:205   */\n    tag_195:\n        /* \"#utility.yul\":197:198   */\n      0x00\n        /* \"#utility.yul\":194:195   */\n      dup1\n        /* \"#utility.yul\":187:199   */\n      revert\n        /* \"#utility.yul\":211:328   */\n    tag_196:\n        /* \"#utility.yul\":320:321   */\n      0x00\n        /* \"#utility.yul\":317:318   */\n      dup1\n        /* \"#utility.yul\":310:322   */\n      revert\n        /* \"#utility.yul\":334:411   */\n    tag_197:\n        /* \"#utility.yul\":371:378   */\n      0x00\n        /* \"#utility.yul\":400:405   */\n      dup2\n        /* \"#utility.yul\":389:405   */\n      swap1\n      pop\n        /* \"#utility.yul\":334:411   */\n      swap2\n      swap1\n      pop\n      jump\t// out\n        /* \"#utility.yul\":417:539   */\n    tag_198:\n        /* \"#utility.yul\":490:514   */\n      tag_267\n        /* \"#utility.yul\":508:513   */\n      dup2\n        /* \"#utility.yul\":490:514   */\n      tag_197\n      jump\t// in\n    tag_267:\n        /* \"#utility.yul\":483:488   */\n      dup2\n        /* \"#utility.yul\":480:515   */\n      eq\n        /* \"#utility.yul\":470:533   */\n      tag_268\n      jumpi\n        /* \"#utility.yul\":529:530   */\n      0x00\n        /* \"#utility.yul\":526:527   */\n      dup1\n        /* \"#utility.yul\":519:531   */\n      revert\n        /* \"#utility.yul\":470:533   */\n    tag_268:\n        /* \"#utility.yul\":417:539   */\n      pop\n      jump\t// out\n        /* \"#utility.yul\":545:684   */\n    tag_199:\n        /* \"#utility.yul\":591:596   */\n      0x00\n        /* \"#utility.yul\":629:635   */\n      dup2\n        /* \"#utility.yul\":616:636   */\n      calldataload\n        /* \"#utility.yul\":607:636   */\n      swap1\n      pop\n        /* \"#utility.yul\":645:678   */\n      tag_270\n        /* \"#utility.yul\":672:677   */\n      dup2\n        /* \"#utility.yul\":645:678   */\n      tag_198\n      jump\t// in\n    tag_270:\n        /* \"#utility.yul\":545:684   */\n      swap3\n      swap2\n      pop\n      pop\n      jump\t// out\n        /* \"#utility.yul\":690:1019   */\n    tag_25:\n        /* \"#utility.yul\":749:755   */\n      0x00\n        /* \"#utility.yul\":798:800   */\n      0x20\n        /* \"#utility.yul\":786:795   */\n      dup3\n        /* \"#utility.yul\":777:784   */\n      dup5\n        /* \"#utility.yul\":773:796   */\n      sub\n        /* \"#utility.yul\":769:801   */\n      slt\n        /* \"#utility.yul\":766:885   */\n      iszero\n      tag_272\n      jumpi\n        /* \"#utility.yul\":804:883   */\n      tag_273\n      tag_195\n      jump\t// in\n    tag_273:\n        /* \"#utility.yul\":766:885   */\n    tag_272:\n        /* \"#utility.yul\":924:925   */\n      0x00\n        /* \"#utility.yul\":949:1002   */\n      tag_274\n        /* \"#utility.yul\":994:1001   */\n      dup5\n        /* \"#utility.yul\":985:991   */\n      dup3\n        /* \"#utility.yul\":974:983   */\n      dup6\n        /* \"#utility.yul\":970:992   */\n      add\n        /* \"#utility.yul\":949:1002   */\n      tag_199\n      jump\t// in\n    tag_274:\n        /* \"#utility.yul\":939:1002   */\n      swap2\n      pop\n        /* \"#utility.yul\":895:1012   */\n      pop\n        /* \"#utility.yul\":690:1019   */\n      swap3\n      swap2\n      pop\n      pop\n      jump\t// out\n        /* \"#utility.yul\":1025:1143   */\n    tag_200:\n        /* \"#utility.yul\":1112:1136   */\n      tag_276\n        /* \"#utility.yul\":1130:1135   */\n      dup2\n        /* \"#utility.yul\":1112:1136   */\n      tag_197\n      jump\t// in\n    tag_276:\n        /* \"#utility.yul\":1107:1110   */\n      dup3\n        /* \"#utility.yul\":1100:1137   */\n      mstore\n        /* \"#utility.yul\":1025:1143   */\n      pop\n      pop\n      jump\t// out\n        /* \"#utility.yul\":1149:1371   */\n    tag_28:\n        /* \"#utility.yul\":1242:1246   */\n      0x00\n        /* \"#utility.yul\":1280:1282   */\n      0x20\n        /* \"#utility.yul\":1269:1278   */\n      dup3\n        /* \"#utility.yul\":1265:1283   */\n      add\n        /* \"#utility.yul\":1257:1283   */\n      swap1\n      pop\n        /* \"#utility.yul\":1293:1364   */\n      tag_278\n        /* \"#utility.yul\":1361:1362   */\n      0x00\n        /* \"#utility.yul\":1350:1359   */\n      dup4\n        /* \"#utility.yul\":1346:1363   */\n      add\n        /* \"#utility.yul\":1337:1343   */\n      dup5\n        /* \"#utility.yul\":1293:1364   */\n      tag_200\n      jump\t// in\n    tag_278:\n        /* \"#utility.yul\":1149:1371   */\n      swap3\n      swap2\n      pop\n      pop\n      jump\t// out\n        /* \"#utility.yul\":1377:1503   */\n    tag_201:\n        /* \"#utility.yul\":1414:1421   */\n      0x00\n        /* \"#utility.yul\":1454:1496   */\n      0xffffffffffffffffffffffffffffffffffffffff\n        /* \"#utility.yul\":1447:1452   */\n      dup3\n        /* \"#utility.yul\":1443:1497   */\n      and\n        /* \"#utility.yul\":1432:1497   */\n      swap1\n      pop\n        /* \"#utility.yul\":1377:1503   */\n      swap2\n      swap1\n      pop\n      jump\t// out\n        /* \"#utility.yul\":1509:1605   */\n    tag_202:\n        /* \"#utility.yul\":1546:1553   */\n      0x00\n        /* \"#utility.yul\":1575:1599   */\n      tag_281\n        /* \"#utility.yul\":1593:1598   */\n      dup3\n        /* \"#utility.yul\":1575:1599   */\n      tag_201\n      jump\t// in\n    tag_281:\n        /* \"#utility.yul\":1564:1599   */\n      swap1\n      pop\n        /* \"#utility.yul\":1509:1605   */\n      swap2\n      swap1\n      pop\n      jump\t// out\n        /* \"#utility.yul\":1611:1733   */\n    tag_203:\n        /* \"#utility.yul\":1684:1708   */\n      tag_283\n        /* \"#utility.yul\":1702:1707   */\n      dup2\n        /* \"#utility.yul\":1684:1708   */\n      tag_202\n      jump\t// in\n    tag_283:\n        /* \"#utility.yul\":1677:1682   */\n      dup2\n        /* \"#utility.yul\":1674:1709   */\n      eq\n        /* \"#utility.yul\":1664:1727   */\n      tag_284\n      jumpi\n        /* \"#utility.yul\":1723:1724   */\n      0x00\n        /* \"#utility.yul\":1720:1721   */\n      dup1\n        /* \"#utility.yul\":1713:1725   */\n      revert\n        /* \"#utility.yul\":1664:1727   */\n    tag_284:\n        /* \"#utility.yul\":1611:1733   */\n      pop\n      jump\t// out\n        /* \"#utility.yul\":1739:1878   */\n    tag_204:\n        /* \"#utility.yul\":1785:1790   */\n      0x00\n        /* \"#utility.yul\":1823:1829   */\n      dup2\n        /* \"#utility.yul\":1810:1830   */\n      calldataload\n        /* \"#utility.yul\":1801:1830   */\n      swap1\n      pop\n        /* \"#utility.yul\":1839:1872   */\n      tag_286\n        /* \"#utility.yul\":1866:1871   */\n      dup2\n        /* \"#utility.yul\":1839:1872   */\n      tag_203\n      jump\t// in\n    tag_286:\n        /* \"#utility.yul\":1739:1878   */\n      swap3\n      swap2\n      pop\n      pop\n      jump\t// out\n        /* \"#utility.yul\":1884:2213   */\n    tag_37:\n        /* \"#utility.yul\":1943:1949   */\n      0x00\n        /* \"#utility.yul\":1992:1994   */\n      0x20\n        /* \"#utility.yul\":1980:1989   */\n      dup3\n        /* \"#utility.yul\":1971:1978   */\n      dup5\n        /* \"#utility.yul\":1967:1990   */\n      sub\n        /* \"#utility.yul\":1963:1995   */\n      slt\n        /* \"#utility.yul\":1960:2079   */\n      iszero\n      tag_288\n      jumpi\n        /* \"#utility.yul\":1998:2077   */\n      tag_289\n      tag_195\n      jump\t// in\n    tag_289:\n        /* \"#utility.yul\":1960:2079   */\n    tag_288:\n        /* \"#utility.yul\":2118:2119   */\n      0x00\n        /* \"#utility.yul\":2143:2196   */\n      tag_290\n        /* \"#utility.yul\":2188:2195   */\n      dup5\n        /* \"#utility.yul\":2179:2185   */\n      dup3\n        /* \"#utility.yul\":2168:2177   */\n      dup6\n        /* \"#utility.yul\":2164:2186   */\n      add\n        /* \"#utility.yul\":2143:2196   */\n      tag_204\n      jump\t// in\n    tag_290:\n        /* \"#utility.yul\":2133:2196   */\n      swap2\n      pop\n        /* \"#utility.yul\":2089:2206   */\n      pop\n        /* \"#utility.yul\":1884:2213   */\n      swap3\n      swap2\n      pop\n      pop\n      jump\t// out\n        /* \"#utility.yul\":2219:2693   */\n    tag_52:\n        /* \"#utility.yul\":2287:2293   */\n      0x00\n        /* \"#utility.yul\":2295:2301   */\n      dup1\n        /* \"#utility.yul\":2344:2346   */\n      0x40\n        /* \"#utility.yul\":2332:2341   */\n      dup4\n        /* \"#utility.yul\":2323:2330   */\n      dup6\n        /* \"#utility.yul\":2319:2342   */\n      sub\n        /* \"#utility.yul\":2315:2347   */\n      slt\n        /* \"#utility.yul\":2312:2431   */\n      iszero\n      tag_292\n      jumpi\n        /* \"#utility.yul\":2350:2429   */\n      tag_293\n      tag_195\n      jump\t// in\n    tag_293:\n        /* \"#utility.yul\":2312:2431   */\n    tag_292:\n        /* \"#utility.yul\":2470:2471   */\n      0x00\n        /* \"#utility.yul\":2495:2548   */\n      tag_294\n        /* \"#utility.yul\":2540:2547   */\n      dup6\n        /* \"#utility.yul\":2531:2537   */\n      dup3\n        /* \"#utility.yul\":2520:2529   */\n      dup7\n        /* \"#utility.yul\":2516:2538   */\n      add\n        /* \"#utility.yul\":2495:2548   */\n      tag_199\n      jump\t// in\n    tag_294:\n        /* \"#utility.yul\":2485:2548   */\n      swap3\n      pop\n        /* \"#utility.yul\":2441:2558   */\n      pop\n        /* \"#utility.yul\":2597:2599   */\n      0x20\n        /* \"#utility.yul\":2623:2676   */\n      tag_295\n        /* \"#utility.yul\":2668:2675   */\n      dup6\n        /* \"#utility.yul\":2659:2665   */\n      dup3\n        /* \"#utility.yul\":2648:2657   */\n      dup7\n        /* \"#utility.yul\":2644:2666   */\n      add\n        /* \"#utility.yul\":2623:2676   */\n      tag_199\n      jump\t// in\n    tag_295:\n        /* \"#utility.yul\":2613:2676   */\n      swap2\n      pop\n        /* \"#utility.yul\":2568:2686   */\n      pop\n        /* \"#utility.yul\":2219:2693   */\n      swap3\n      pop\n      swap3\n      swap1\n      pop\n      jump\t// out\n        /* \"#utility.yul\":2699:2817   */\n    tag_205:\n        /* \"#utility.yul\":2786:2810   */\n      tag_297\n        /* \"#utility.yul\":2804:2809   */\n      dup2\n        /* \"#utility.yul\":2786:2810   */\n      tag_202\n      jump\t// in\n    tag_297:\n        /* \"#utility.yul\":2781:2784   */\n      dup3\n        /* \"#utility.yul\":2774:2811   */\n      mstore\n        /* \"#utility.yul\":2699:2817   */\n      pop\n      pop\n      jump\t// out\n        /* \"#utility.yul\":2823:3045   */\n    tag_60:\n        /* \"#utility.yul\":2916:2920   */\n      0x00\n        /* \"#utility.yul\":2954:2956   */\n      0x20\n        /* \"#utility.yul\":2943:2952   */\n      dup3\n        /* \"#utility.yul\":2939:2957   */\n      add\n        /* \"#utility.yul\":2931:2957   */\n      swap1\n      pop\n        /* \"#utility.yul\":2967:3038   */\n      tag_299\n        /* \"#utility.yul\":3035:3036   */\n      0x00\n        /* \"#utility.yul\":3024:3033   */\n      dup4\n        /* \"#utility.yul\":3020:3037   */\n      add\n        /* \"#utility.yul\":3011:3017   */\n      dup5\n        /* \"#utility.yul\":2967:3038   */\n      tag_205\n      jump\t// in\n    tag_299:\n        /* \"#utility.yul\":2823:3045   */\n      swap3\n      swap2\n      pop\n      pop\n      jump\t// out\n        /* \"#utility.yul\":3051:3111   */\n    tag_206:\n        /* \"#utility.yul\":3079:3082   */\n      0x00\n        /* \"#utility.yul\":3100:3105   */\n      dup2\n        /* \"#utility.yul\":3093:3105   */\n      swap1\n      pop\n        /* \"#utility.yul\":3051:3111   */\n      swap2\n      swap1\n      pop\n      jump\t// out\n        /* \"#utility.yul\":3117:3259   */\n    tag_207:\n        /* \"#utility.yul\":3167:3176   */\n      0x00\n        /* \"#utility.yul\":3200:3253   */\n      tag_302\n        /* \"#utility.yul\":3218:3252   */\n      tag_303\n        /* \"#utility.yul\":3227:3251   */\n      tag_304\n        /* \"#utility.yul\":3245:3250   */\n      dup5\n        /* \"#utility.yul\":3227:3251   */\n      tag_201\n      jump\t// in\n    tag_304:\n        /* \"#utility.yul\":3218:3252   */\n      tag_206\n      jump\t// in\n    tag_303:\n        /* \"#utility.yul\":3200:3253   */\n      tag_201\n      jump\t// in\n    tag_302:\n        /* \"#utility.yul\":3187:3253   */\n      swap1\n      pop\n        /* \"#utility.yul\":3117:3259   */\n      swap2\n      swap1\n      pop\n      jump\t// out\n        /* \"#utility.yul\":3265:3391   */\n    tag_208:\n        /* \"#utility.yul\":3315:3324   */\n      0x00\n        /* \"#utility.yul\":3348:3385   */\n      tag_306\n        /* \"#utility.yul\":3379:3384   */\n      dup3\n        /* \"#utility.yul\":3348:3385   */\n      tag_207\n      jump\t// in\n    tag_306:\n        /* \"#utility.yul\":3335:3385   */\n      swap1\n      pop\n        /* \"#utility.yul\":3265:3391   */\n      swap2\n      swap1\n      pop\n      jump\t// out\n        /* \"#utility.yul\":3397:3537   */\n    tag_209:\n        /* \"#utility.yul\":3461:3470   */\n      0x00\n        /* \"#utility.yul\":3494:3531   */\n      tag_308\n        /* \"#utility.yul\":3525:3530   */\n      dup3\n        /* \"#utility.yul\":3494:3531   */\n      tag_208\n      jump\t// in\n    tag_308:\n        /* \"#utility.yul\":3481:3531   */\n      swap1\n      pop\n        /* \"#utility.yul\":3397:3537   */\n      swap2\n      swap1\n      pop\n      jump\t// out\n        /* \"#utility.yul\":3543:3702   */\n    tag_210:\n        /* \"#utility.yul\":3644:3695   */\n      tag_310\n        /* \"#utility.yul\":3689:3694   */\n      dup2\n        /* \"#utility.yul\":3644:3695   */\n      tag_209\n      jump\t// in\n    tag_310:\n        /* \"#utility.yul\":3639:3642   */\n      dup3\n        /* \"#utility.yul\":3632:3696   */\n      mstore\n        /* \"#utility.yul\":3543:3702   */\n      pop\n      pop\n      jump\t// out\n        /* \"#utility.yul\":3708:3958   */\n    tag_64:\n        /* \"#utility.yul\":3815:3819   */\n      0x00\n        /* \"#utility.yul\":3853:3855   */\n      0x20\n        /* \"#utility.yul\":3842:3851   */\n      dup3\n        /* \"#utility.yul\":3838:3856   */\n      add\n        /* \"#utility.yul\":3830:3856   */\n      swap1\n      pop\n        /* \"#utility.yul\":3866:3951   */\n      tag_312\n        /* \"#utility.yul\":3948:3949   */\n      0x00\n        /* \"#utility.yul\":3937:3946   */\n      dup4\n        /* \"#utility.yul\":3933:3950   */\n      add\n        /* \"#utility.yul\":3924:3930   */\n      dup5\n        /* \"#utility.yul\":3866:3951   */\n      tag_210\n      jump\t// in\n    tag_312:\n        /* \"#utility.yul\":3708:3958   */\n      swap3\n      swap2\n      pop\n      pop\n      jump\t// out\n        /* \"#utility.yul\":3964:4438   */\n    tag_67:\n        /* \"#utility.yul\":4032:4038   */\n      0x00\n        /* \"#utility.yul\":4040:4046   */\n      dup1\n        /* \"#utility.yul\":4089:4091   */\n      0x40\n        /* \"#utility.yul\":4077:4086   */\n      dup4\n        /* \"#utility.yul\":4068:4075   */\n      dup6\n        /* \"#utility.yul\":4064:4087   */\n      sub\n        /* \"#utility.yul\":4060:4092   */\n      slt\n        /* \"#utility.yul\":4057:4176   */\n      iszero\n      tag_314\n      jumpi\n        /* \"#utility.yul\":4095:4174   */\n      tag_315\n      tag_195\n      jump\t// in\n    tag_315:\n        /* \"#utility.yul\":4057:4176   */\n    tag_314:\n        /* \"#utility.yul\":4215:4216   */\n      0x00\n        /* \"#utility.yul\":4240:4293   */\n      tag_316\n        /* \"#utility.yul\":4285:4292   */\n      dup6\n        /* \"#utility.yul\":4276:4282   */\n      dup3\n        /* \"#utility.yul\":4265:4274   */\n      dup7\n        /* \"#utility.yul\":4261:4283   */\n      add\n        /* \"#utility.yul\":4240:4293   */\n      tag_204\n      jump\t// in\n    tag_316:\n        /* \"#utility.yul\":4230:4293   */\n      swap3\n      pop\n        /* \"#utility.yul\":4186:4303   */\n      pop\n        /* \"#utility.yul\":4342:4344   */\n      0x20\n        /* \"#utility.yul\":4368:4421   */\n      tag_317\n        /* \"#utility.yul\":4413:4420   */\n      dup6\n        /* \"#utility.yul\":4404:4410   */\n      dup3\n        /* \"#utility.yul\":4393:4402   */\n      dup7\n        /* \"#utility.yul\":4389:4411   */\n      add\n        /* \"#utility.yul\":4368:4421   */\n      tag_199\n      jump\t// in\n    tag_317:\n        /* \"#utility.yul\":4358:4421   */\n      swap2\n      pop\n        /* \"#utility.yul\":4313:4431   */\n      pop\n        /* \"#utility.yul\":3964:4438   */\n      swap3\n      pop\n      swap3\n      swap1\n      pop\n      jump\t// out\n        /* \"#utility.yul\":4444:4561   */\n    tag_211:\n        /* \"#utility.yul\":4553:4554   */\n      0x00\n        /* \"#utility.yul\":4550:4551   */\n      dup1\n        /* \"#utility.yul\":4543:4555   */\n      revert\n        /* \"#utility.yul\":4567:4684   */\n    tag_212:\n        /* \"#utility.yul\":4676:4677   */\n      0x00\n        /* \"#utility.yul\":4673:4674   */\n      dup1\n        /* \"#utility.yul\":4666:4678   */\n      revert\n        /* \"#utility.yul\":4690:4792   */\n    tag_213:\n        /* \"#utility.yul\":4731:4737   */\n      0x00\n        /* \"#utility.yul\":4782:4784   */\n      0x1f\n        /* \"#utility.yul\":4778:4785   */\n      not\n        /* \"#utility.yul\":4773:4775   */\n      0x1f\n        /* \"#utility.yul\":4766:4771   */\n      dup4\n        /* \"#utility.yul\":4762:4776   */\n      add\n        /* \"#utility.yul\":4758:4786   */\n      and\n        /* \"#utility.yul\":4748:4786   */\n      swap1\n      pop\n        /* \"#utility.yul\":4690:4792   */\n      swap2\n      swap1\n      pop\n      jump\t// out\n        /* \"#utility.yul\":4798:4978   */\n    tag_214:\n        /* \"#utility.yul\":4846:4923   */\n      0x4e487b7100000000000000000000000000000000000000000000000000000000\n        /* \"#utility.yul\":4843:4844   */\n      0x00\n        /* \"#utility.yul\":4836:4924   */\n      mstore\n        /* \"#utility.yul\":4943:4947   */\n      0x41\n        /* \"#utility.yul\":4940:4941   */\n      0x04\n        /* \"#utility.yul\":4933:4948   */\n      mstore\n        /* \"#utility.yul\":4967:4971   */\n      0x24\n        /* \"#utility.yul\":4964:4965   */\n      0x00\n        /* \"#utility.yul\":4957:4972   */\n      revert\n        /* \"#utility.yul\":4984:5265   */\n    tag_215:\n        /* \"#utility.yul\":5067:5094   */\n      tag_323\n        /* \"#utility.yul\":5089:5093   */\n      dup3\n        /* \"#utility.yul\":5067:5094   */\n      tag_213\n      jump\t// in\n    tag_323:\n        /* \"#utility.yul\":5059:5065   */\n      dup2\n        /* \"#utility.yul\":5055:5095   */\n      add\n        /* \"#utility.yul\":5197:5203   */\n      dup2\n        /* \"#utility.yul\":5185:5195   */\n      dup2\n        /* \"#utility.yul\":5182:5204   */\n      lt\n        /* \"#utility.yul\":5161:5179   */\n      0xffffffffffffffff\n        /* \"#utility.yul\":5149:5159   */\n      dup3\n        /* \"#utility.yul\":5146:5180   */\n      gt\n        /* \"#utility.yul\":5143:5205   */\n      or\n        /* \"#utility.yul\":5140:5228   */\n      iszero\n      tag_324\n      jumpi\n        /* \"#utility.yul\":5208:5226   */\n      tag_325\n      tag_214\n      jump\t// in\n    tag_325:\n        /* \"#utility.yul\":5140:5228   */\n    tag_324:\n        /* \"#utility.yul\":5248:5258   */\n      dup1\n        /* \"#utility.yul\":5244:5246   */\n      0x40\n        /* \"#utility.yul\":5237:5259   */\n      mstore\n        /* \"#utility.yul\":5027:5265   */\n      pop\n        /* \"#utility.yul\":4984:5265   */\n      pop\n      pop\n      jump\t// out\n        /* \"#utility.yul\":5271:5400   */\n    tag_216:\n        /* \"#utility.yul\":5305:5311   */\n      0x00\n        /* \"#utility.yul\":5332:5352   */\n      tag_327\n      tag_194\n      jump\t// in\n    tag_327:\n        /* \"#utility.yul\":5322:5352   */\n      swap1\n      pop\n        /* \"#utility.yul\":5361:5394   */\n      tag_328\n        /* \"#utility.yul\":5389:5393   */\n      dup3\n        /* \"#utility.yul\":5381:5387   */\n      dup3\n        /* \"#utility.yul\":5361:5394   */\n      tag_215\n      jump\t// in\n    tag_328:\n        /* \"#utility.yul\":5271:5400   */\n      swap2\n      swap1\n      pop\n      jump\t// out\n        /* \"#utility.yul\":5406:5714   */\n    tag_217:\n        /* \"#utility.yul\":5468:5472   */\n      0x00\n        /* \"#utility.yul\":5558:5576   */\n      0xffffffffffffffff\n        /* \"#utility.yul\":5550:5556   */\n      dup3\n        /* \"#utility.yul\":5547:5577   */\n      gt\n        /* \"#utility.yul\":5544:5600   */\n      iszero\n      tag_330\n      jumpi\n        /* \"#utility.yul\":5580:5598   */\n      tag_331\n      tag_214\n      jump\t// in\n    tag_331:\n        /* \"#utility.yul\":5544:5600   */\n    tag_330:\n        /* \"#utility.yul\":5618:5647   */\n      tag_332\n        /* \"#utility.yul\":5640:5646   */\n      dup3\n        /* \"#utility.yul\":5618:5647   */\n      tag_213\n      jump\t// in\n    tag_332:\n        /* \"#utility.yul\":5610:5647   */\n      swap1\n      pop\n        /* \"#utility.yul\":5702:5706   */\n      0x20\n        /* \"#utility.yul\":5696:5700   */\n      dup2\n        /* \"#utility.yul\":5692:5707   */\n      add\n        /* \"#utility.yul\":5684:5707   */\n      swap1\n      pop\n        /* \"#utility.yul\":5406:5714   */\n      swap2\n      swap1\n      pop\n      jump\t// out\n        /* \"#utility.yul\":5720:5866   */\n    tag_218:\n        /* \"#utility.yul\":5817:5823   */\n      dup3\n        /* \"#utility.yul\":5812:5815   */\n      dup2\n        /* \"#utility.yul\":5807:5810   */\n      dup4\n        /* \"#utility.yul\":5794:5824   */\n      calldatacopy\n        /* \"#utility.yul\":5858:5859   */\n      0x00\n        /* \"#utility.yul\":5849:5855   */\n      dup4\n        /* \"#utility.yul\":5844:5847   */\n      dup4\n        /* \"#utility.yul\":5840:5856   */\n      add\n        /* \"#utility.yul\":5833:5860   */\n      mstore\n        /* \"#utility.yul\":5720:5866   */\n      pop\n      pop\n      pop\n      jump\t// out\n        /* \"#utility.yul\":5872:6297   */\n    tag_219:\n        /* \"#utility.yul\":5950:5955   */\n      0x00\n        /* \"#utility.yul\":5975:6041   */\n      tag_335\n        /* \"#utility.yul\":5991:6040   */\n      tag_336\n        /* \"#utility.yul\":6033:6039   */\n      dup5\n        /* \"#utility.yul\":5991:6040   */\n      tag_217\n      jump\t// in\n    tag_336:\n        /* \"#utility.yul\":5975:6041   */\n      tag_216\n      jump\t// in\n    tag_335:\n        /* \"#utility.yul\":5966:6041   */\n      swap1\n      pop\n        /* \"#utility.yul\":6064:6070   */\n      dup3\n        /* \"#utility.yul\":6057:6062   */\n      dup2\n        /* \"#utility.yul\":6050:6071   */\n      mstore\n        /* \"#utility.yul\":6102:6106   */\n      0x20\n        /* \"#utility.yul\":6095:6100   */\n      dup2\n        /* \"#utility.yul\":6091:6107   */\n      add\n        /* \"#utility.yul\":6140:6143   */\n      dup5\n        /* \"#utility.yul\":6131:6137   */\n      dup5\n        /* \"#utility.yul\":6126:6129   */\n      dup5\n        /* \"#utility.yul\":6122:6138   */\n      add\n        /* \"#utility.yul\":6119:6144   */\n      gt\n        /* \"#utility.yul\":6116:6228   */\n      iszero\n      tag_337\n      jumpi\n        /* \"#utility.yul\":6147:6226   */\n      tag_338\n      tag_212\n      jump\t// in\n    tag_338:\n        /* \"#utility.yul\":6116:6228   */\n    tag_337:\n        /* \"#utility.yul\":6237:6291   */\n      tag_339\n        /* \"#utility.yul\":6284:6290   */\n      dup5\n        /* \"#utility.yul\":6279:6282   */\n      dup3\n        /* \"#utility.yul\":6274:6277   */\n      dup6\n        /* \"#utility.yul\":6237:6291   */\n      tag_218\n      jump\t// in\n    tag_339:\n        /* \"#utility.yul\":5956:6297   */\n      pop\n        /* \"#utility.yul\":5872:6297   */\n      swap4\n      swap3\n      pop\n      pop\n      pop\n      jump\t// out\n        /* \"#utility.yul\":6317:6657   */\n    tag_220:\n        /* \"#utility.yul\":6373:6378   */\n      0x00\n        /* \"#utility.yul\":6422:6425   */\n      dup3\n        /* \"#utility.yul\":6415:6419   */\n      0x1f\n        /* \"#utility.yul\":6407:6413   */\n      dup4\n        /* \"#utility.yul\":6403:6420   */\n      add\n        /* \"#utility.yul\":6399:6426   */\n      slt\n        /* \"#utility.yul\":6389:6511   */\n      tag_341\n      jumpi\n        /* \"#utility.yul\":6430:6509   */\n      tag_342\n      tag_211\n      jump\t// in\n    tag_342:\n        /* \"#utility.yul\":6389:6511   */\n    tag_341:\n        /* \"#utility.yul\":6547:6553   */\n      dup2\n        /* \"#utility.yul\":6534:6554   */\n      calldataload\n        /* \"#utility.yul\":6572:6651   */\n      tag_343\n        /* \"#utility.yul\":6647:6650   */\n      dup5\n        /* \"#utility.yul\":6639:6645   */\n      dup3\n        /* \"#utility.yul\":6632:6636   */\n      0x20\n        /* \"#utility.yul\":6624:6630   */\n      dup7\n        /* \"#utility.yul\":6620:6637   */\n      add\n        /* \"#utility.yul\":6572:6651   */\n      tag_219\n      jump\t// in\n    tag_343:\n        /* \"#utility.yul\":6563:6651   */\n      swap2\n      pop\n        /* \"#utility.yul\":6379:6657   */\n      pop\n        /* \"#utility.yul\":6317:6657   */\n      swap3\n      swap2\n      pop\n      pop\n      jump\t// out\n        /* \"#utility.yul\":6663:7172   */\n    tag_74:\n        /* \"#utility.yul\":6732:6738   */\n      0x00\n        /* \"#utility.yul\":6781:6783   */\n      0x20\n        /* \"#utility.yul\":6769:6778   */\n      dup3\n        /* \"#utility.yul\":6760:6767   */\n      dup5\n        /* \"#utility.yul\":6756:6779   */\n      sub\n        /* \"#utility.yul\":6752:6784   */\n      slt\n        /* \"#utility.yul\":6749:6868   */\n      iszero\n      tag_345\n      jumpi\n        /* \"#utility.yul\":6787:6866   */\n      tag_346\n      tag_195\n      jump\t// in\n    tag_346:\n        /* \"#utility.yul\":6749:6868   */\n    tag_345:\n        /* \"#utility.yul\":6935:6936   */\n      0x00\n        /* \"#utility.yul\":6924:6933   */\n      dup3\n        /* \"#utility.yul\":6920:6937   */\n      add\n        /* \"#utility.yul\":6907:6938   */\n      calldataload\n        /* \"#utility.yul\":6965:6983   */\n      0xffffffffffffffff\n        /* \"#utility.yul\":6957:6963   */\n      dup2\n        /* \"#utility.yul\":6954:6984   */\n      gt\n        /* \"#utility.yul\":6951:7068   */\n      iszero\n      tag_347\n      jumpi\n        /* \"#utility.yul\":6987:7066   */\n      tag_348\n      tag_196\n      jump\t// in\n    tag_348:\n        /* \"#utility.yul\":6951:7068   */\n    tag_347:\n        /* \"#utility.yul\":7092:7155   */\n      tag_349\n        /* \"#utility.yul\":7147:7154   */\n      dup5\n        /* \"#utility.yul\":7138:7144   */\n      dup3\n        /* \"#utility.yul\":7127:7136   */\n      dup6\n        /* \"#utility.yul\":7123:7145   */\n      add\n        /* \"#utility.yul\":7092:7155   */\n      tag_220\n      jump\t// in\n    tag_349:\n        /* \"#utility.yul\":7082:7155   */\n      swap2\n      pop\n        /* \"#utility.yul\":6878:7165   */\n      pop\n        /* \"#utility.yul\":6663:7172   */\n      swap3\n      swap2\n      pop\n      pop\n      jump\t// out\n        /* \"#utility.yul\":7178:7277   */\n    tag_221:\n        /* \"#utility.yul\":7230:7236   */\n      0x00\n        /* \"#utility.yul\":7264:7269   */\n      dup2\n        /* \"#utility.yul\":7258:7270   */\n      mload\n        /* \"#utility.yul\":7248:7270   */\n      swap1\n      pop\n        /* \"#utility.yul\":7178:7277   */\n      swap2\n      swap1\n      pop\n      jump\t// out\n        /* \"#utility.yul\":7283:7452   */\n    tag_222:\n        /* \"#utility.yul\":7367:7378   */\n      0x00\n        /* \"#utility.yul\":7401:7407   */\n      dup3\n        /* \"#utility.yul\":7396:7399   */\n      dup3\n        /* \"#utility.yul\":7389:7408   */\n      mstore\n        /* \"#utility.yul\":7441:7445   */\n      0x20\n        /* \"#utility.yul\":7436:7439   */\n      dup3\n        /* \"#utility.yul\":7432:7446   */\n      add\n        /* \"#utility.yul\":7417:7446   */\n      swap1\n      pop\n        /* \"#utility.yul\":7283:7452   */\n      swap3\n      swap2\n      pop\n      pop\n      jump\t// out\n        /* \"#utility.yul\":7458:7704   */\n    tag_223:\n        /* \"#utility.yul\":7539:7540   */\n      0x00\n        /* \"#utility.yul\":7549:7662   */\n    tag_353:\n        /* \"#utility.yul\":7563:7569   */\n      dup4\n        /* \"#utility.yul\":7560:7561   */\n      dup2\n        /* \"#utility.yul\":7557:7570   */\n      lt\n        /* \"#utility.yul\":7549:7662   */\n      iszero\n      tag_355\n      jumpi\n        /* \"#utility.yul\":7648:7649   */\n      dup1\n        /* \"#utility.yul\":7643:7646   */\n      dup3\n        /* \"#utility.yul\":7639:7650   */\n      add\n        /* \"#utility.yul\":7633:7651   */\n      mload\n        /* \"#utility.yul\":7629:7630   */\n      dup2\n        /* \"#utility.yul\":7624:7627   */\n      dup5\n        /* \"#utility.yul\":7620:7631   */\n      add\n        /* \"#utility.yul\":7613:7652   */\n      mstore\n        /* \"#utility.yul\":7585:7587   */\n      0x20\n        /* \"#utility.yul\":7582:7583   */\n      dup2\n        /* \"#utility.yul\":7578:7588   */\n      add\n        /* \"#utility.yul\":7573:7588   */\n      swap1\n      pop\n        /* \"#utility.yul\":7549:7662   */\n      jump(tag_353)\n    tag_355:\n        /* \"#utility.yul\":7696:7697   */\n      0x00\n        /* \"#utility.yul\":7687:7693   */\n      dup5\n        /* \"#utility.yul\":7682:7685   */\n      dup5\n        /* \"#utility.yul\":7678:7694   */\n      add\n        /* \"#utility.yul\":7671:7698   */\n      mstore\n        /* \"#utility.yul\":7520:7704   */\n      pop\n        /* \"#utility.yul\":7458:7704   */\n      pop\n      pop\n      pop\n      jump\t// out\n        /* \"#utility.yul\":7710:8087   */\n    tag_224:\n        /* \"#utility.yul\":7798:7801   */\n      0x00\n        /* \"#utility.yul\":7826:7865   */\n      tag_357\n        /* \"#utility.yul\":7859:7864   */\n      dup3\n        /* \"#utility.yul\":7826:7865   */\n      tag_221\n      jump\t// in\n    tag_357:\n        /* \"#utility.yul\":7881:7952   */\n      tag_358\n        /* \"#utility.yul\":7945:7951   */\n      dup2\n        /* \"#utility.yul\":7940:7943   */\n      dup6\n        /* \"#utility.yul\":7881:7952   */\n      tag_222\n      jump\t// in\n    tag_358:\n        /* \"#utility.yul\":7874:7952   */\n      swap4\n      pop\n        /* \"#utility.yul\":7961:8026   */\n      tag_359\n        /* \"#utility.yul\":8019:8025   */\n      dup2\n        /* \"#utility.yul\":8014:8017   */\n      dup6\n        /* \"#utility.yul\":8007:8011   */\n      0x20\n        /* \"#utility.yul\":8000:8005   */\n      dup7\n        /* \"#utility.yul\":7996:8012   */\n      add\n        /* \"#utility.yul\":7961:8026   */\n      tag_223\n      jump\t// in\n    tag_359:\n        /* \"#utility.yul\":8051:8080   */\n      tag_360\n        /* \"#utility.yul\":8073:8079   */\n      dup2\n        /* \"#utility.yul\":8051:8080   */\n      tag_213\n      jump\t// in\n    tag_360:\n        /* \"#utility.yul\":8046:8049   */\n      dup5\n        /* \"#utility.yul\":8042:8081   */\n      add\n        /* \"#utility.yul\":8035:8081   */\n      swap2\n      pop\n        /* \"#utility.yul\":7802:8087   */\n      pop\n        /* \"#utility.yul\":7710:8087   */\n      swap3\n      swap2\n      pop\n      pop\n      jump\t// out\n        /* \"#utility.yul\":8093:8737   */\n    tag_80:\n        /* \"#utility.yul\":8290:8294   */\n      0x00\n        /* \"#utility.yul\":8328:8331   */\n      0x80\n        /* \"#utility.yul\":8317:8326   */\n      dup3\n        /* \"#utility.yul\":8313:8332   */\n      add\n        /* \"#utility.yul\":8305:8332   */\n      swap1\n      pop\n        /* \"#utility.yul\":8342:8413   */\n      tag_362\n        /* \"#utility.yul\":8410:8411   */\n      0x00\n        /* \"#utility.yul\":8399:8408   */\n      dup4\n        /* \"#utility.yul\":8395:8412   */\n      add\n        /* \"#utility.yul\":8386:8392   */\n      dup8\n        /* \"#utility.yul\":8342:8413   */\n      tag_205\n      jump\t// in\n    tag_362:\n        /* \"#utility.yul\":8460:8469   */\n      dup2\n        /* \"#utility.yul\":8454:8458   */\n      dup2\n        /* \"#utility.yul\":8450:8470   */\n      sub\n        /* \"#utility.yul\":8445:8447   */\n      0x20\n        /* \"#utility.yul\":8434:8443   */\n      dup4\n        /* \"#utility.yul\":8430:8448   */\n      add\n        /* \"#utility.yul\":8423:8471   */\n      mstore\n        /* \"#utility.yul\":8488:8566   */\n      tag_363\n        /* \"#utility.yul\":8561:8565   */\n      dup2\n        /* \"#utility.yul\":8552:8558   */\n      dup7\n        /* \"#utility.yul\":8488:8566   */\n      tag_224\n      jump\t// in\n    tag_363:\n        /* \"#utility.yul\":8480:8566   */\n      swap1\n      pop\n        /* \"#utility.yul\":8576:8648   */\n      tag_364\n        /* \"#utility.yul\":8644:8646   */\n      0x40\n        /* \"#utility.yul\":8633:8642   */\n      dup4\n        /* \"#utility.yul\":8629:8647   */\n      add\n        /* \"#utility.yul\":8620:8626   */\n      dup6\n        /* \"#utility.yul\":8576:8648   */\n      tag_200\n      jump\t// in\n    tag_364:\n        /* \"#utility.yul\":8658:8730   */\n      tag_365\n        /* \"#utility.yul\":8726:8728   */\n      0x60\n        /* \"#utility.yul\":8715:8724   */\n      dup4\n        /* \"#utility.yul\":8711:8729   */\n      add\n        /* \"#utility.yul\":8702:8708   */\n      dup5\n        /* \"#utility.yul\":8658:8730   */\n      tag_200\n      jump\t// in\n    tag_365:\n        /* \"#utility.yul\":8093:8737   */\n      swap6\n      swap5\n      pop\n      pop\n      pop\n      pop\n      pop\n      jump\t// out\n        /* \"#utility.yul\":8743:8833   */\n    tag_225:\n        /* \"#utility.yul\":8777:8784   */\n      0x00\n        /* \"#utility.yul\":8820:8825   */\n      dup2\n        /* \"#utility.yul\":8813:8826   */\n      iszero\n        /* \"#utility.yul\":8806:8827   */\n      iszero\n        /* \"#utility.yul\":8795:8827   */\n      swap1\n      pop\n        /* \"#utility.yul\":8743:8833   */\n      swap2\n      swap1\n      pop\n      jump\t// out\n        /* \"#utility.yul\":8839:8948   */\n    tag_226:\n        /* \"#utility.yul\":8920:8941   */\n      tag_368\n        /* \"#utility.yul\":8935:8940   */\n      dup2\n        /* \"#utility.yul\":8920:8941   */\n      tag_225\n      jump\t// in\n    tag_368:\n        /* \"#utility.yul\":8915:8918   */\n      dup3\n        /* \"#utility.yul\":8908:8942   */\n      mstore\n        /* \"#utility.yul\":8839:8948   */\n      pop\n      pop\n      jump\t// out\n        /* \"#utility.yul\":8954:9164   */\n    tag_88:\n        /* \"#utility.yul\":9041:9045   */\n      0x00\n        /* \"#utility.yul\":9079:9081   */\n      0x20\n        /* \"#utility.yul\":9068:9077   */\n      dup3\n        /* \"#utility.yul\":9064:9082   */\n      add\n        /* \"#utility.yul\":9056:9082   */\n      swap1\n      pop\n        /* \"#utility.yul\":9092:9157   */\n      tag_370\n        /* \"#utility.yul\":9154:9155   */\n      0x00\n        /* \"#utility.yul\":9143:9152   */\n      dup4\n        /* \"#utility.yul\":9139:9156   */\n      add\n        /* \"#utility.yul\":9130:9136   */\n      dup5\n        /* \"#utility.yul\":9092:9157   */\n      tag_226\n      jump\t// in\n    tag_370:\n        /* \"#utility.yul\":8954:9164   */\n      swap3\n      swap2\n      pop\n      pop\n      jump\t// out\n        /* \"#utility.yul\":9170:9344   */\n    tag_227:\n        /* \"#utility.yul\":9310:9336   */\n      0x4944206465206172746963756c6f206e6f2076616c69646f0000000000000000\n        /* \"#utility.yul\":9306:9307   */\n      0x00\n        /* \"#utility.yul\":9298:9304   */\n      dup3\n        /* \"#utility.yul\":9294:9308   */\n      add\n        /* \"#utility.yul\":9287:9337   */\n      mstore\n        /* \"#utility.yul\":9170:9344   */\n      pop\n      jump\t// out\n        /* \"#utility.yul\":9350:9716   */\n    tag_228:\n        /* \"#utility.yul\":9492:9495   */\n      0x00\n        /* \"#utility.yul\":9513:9580   */\n      tag_373\n        /* \"#utility.yul\":9577:9579   */\n      0x18\n        /* \"#utility.yul\":9572:9575   */\n      dup4\n        /* \"#utility.yul\":9513:9580   */\n      tag_222\n      jump\t// in\n    tag_373:\n        /* \"#utility.yul\":9506:9580   */\n      swap2\n      pop\n        /* \"#utility.yul\":9589:9682   */\n      tag_374\n        /* \"#utility.yul\":9678:9681   */\n      dup3\n        /* \"#utility.yul\":9589:9682   */\n      tag_227\n      jump\t// in\n    tag_374:\n        /* \"#utility.yul\":9707:9709   */\n      0x20\n        /* \"#utility.yul\":9702:9705   */\n      dup3\n        /* \"#utility.yul\":9698:9710   */\n      add\n        /* \"#utility.yul\":9691:9710   */\n      swap1\n      pop\n        /* \"#utility.yul\":9350:9716   */\n      swap2\n      swap1\n      pop\n      jump\t// out\n        /* \"#utility.yul\":9722:10141   */\n    tag_99:\n        /* \"#utility.yul\":9888:9892   */\n      0x00\n        /* \"#utility.yul\":9926:9928   */\n      0x20\n        /* \"#utility.yul\":9915:9924   */\n      dup3\n        /* \"#utility.yul\":9911:9929   */\n      add\n        /* \"#utility.yul\":9903:9929   */\n      swap1\n      pop\n        /* \"#utility.yul\":9975:9984   */\n      dup2\n        /* \"#utility.yul\":9969:9973   */\n      dup2\n        /* \"#utility.yul\":9965:9985   */\n      sub\n        /* \"#utility.yul\":9961:9962   */\n      0x00\n        /* \"#utility.yul\":9950:9959   */\n      dup4\n        /* \"#utility.yul\":9946:9963   */\n      add\n        /* \"#utility.yul\":9939:9986   */\n      mstore\n        /* \"#utility.yul\":10003:10134   */\n      tag_376\n        /* \"#utility.yul\":10129:10133   */\n      dup2\n        /* \"#utility.yul\":10003:10134   */\n      tag_228\n      jump\t// in\n    tag_376:\n        /* \"#utility.yul\":9995:10134   */\n      swap1\n      pop\n        /* \"#utility.yul\":9722:10141   */\n      swap2\n      swap1\n      pop\n      jump\t// out\n        /* \"#utility.yul\":10147:10380   */\n    tag_229:\n        /* \"#utility.yul\":10287:10321   */\n      0x43616c696669636163696f6e206e6f2076616c6964613b206465626520657374\n        /* \"#utility.yul\":10283:10284   */\n      0x00\n        /* \"#utility.yul\":10275:10281   */\n      dup3\n        /* \"#utility.yul\":10271:10285   */\n      add\n        /* \"#utility.yul\":10264:10322   */\n      mstore\n        /* \"#utility.yul\":10356:10372   */\n      0x617220656e747265203120792035000000000000000000000000000000000000\n        /* \"#utility.yul\":10351:10353   */\n      0x20\n        /* \"#utility.yul\":10343:10349   */\n      dup3\n        /* \"#utility.yul\":10339:10354   */\n      add\n        /* \"#utility.yul\":10332:10373   */\n      mstore\n        /* \"#utility.yul\":10147:10380   */\n      pop\n      jump\t// out\n        /* \"#utility.yul\":10386:10752   */\n    tag_230:\n        /* \"#utility.yul\":10528:10531   */\n      0x00\n        /* \"#utility.yul\":10549:10616   */\n      tag_379\n        /* \"#utility.yul\":10613:10615   */\n      0x2e\n        /* \"#utility.yul\":10608:10611   */\n      dup4\n        /* \"#utility.yul\":10549:10616   */\n      tag_222\n      jump\t// in\n    tag_379:\n        /* \"#utility.yul\":10542:10616   */\n      swap2\n      pop\n        /* \"#utility.yul\":10625:10718   */\n      tag_380\n        /* \"#utility.yul\":10714:10717   */\n      dup3\n        /* \"#utility.yul\":10625:10718   */\n      tag_229\n      jump\t// in\n    tag_380:\n        /* \"#utility.yul\":10743:10745   */\n      0x40\n        /* \"#utility.yul\":10738:10741   */\n      dup3\n        /* \"#utility.yul\":10734:10746   */\n      add\n        /* \"#utility.yul\":10727:10746   */\n      swap1\n      pop\n        /* \"#utility.yul\":10386:10752   */\n      swap2\n      swap1\n      pop\n      jump\t// out\n        /* \"#utility.yul\":10758:11177   */\n    tag_103:\n        /* \"#utility.yul\":10924:10928   */\n      0x00\n        /* \"#utility.yul\":10962:10964   */\n      0x20\n        /* \"#utility.yul\":10951:10960   */\n      dup3\n        /* \"#utility.yul\":10947:10965   */\n      add\n        /* \"#utility.yul\":10939:10965   */\n      swap1\n      pop\n        /* \"#utility.yul\":11011:11020   */\n      dup2\n        /* \"#utility.yul\":11005:11009   */\n      dup2\n        /* \"#utility.yul\":11001:11021   */\n      sub\n        /* \"#utility.yul\":10997:10998   */\n      0x00\n        /* \"#utility.yul\":10986:10995   */\n      dup4\n        /* \"#utility.yul\":10982:10999   */\n      add\n        /* \"#utility.yul\":10975:11022   */\n      mstore\n        /* \"#utility.yul\":11039:11170   */\n      tag_382\n        /* \"#utility.yul\":11165:11169   */\n      dup2\n        /* \"#utility.yul\":11039:11170   */\n      tag_230\n      jump\t// in\n    tag_382:\n        /* \"#utility.yul\":11031:11170   */\n      swap1\n      pop\n        /* \"#utility.yul\":10758:11177   */\n      swap2\n      swap1\n      pop\n      jump\t// out\n        /* \"#utility.yul\":11183:11364   */\n    tag_231:\n        /* \"#utility.yul\":11323:11356   */\n      0x5961206861732063616c6966696361646f2065737465206172746963756c6f00\n        /* \"#utility.yul\":11319:11320   */\n      0x00\n        /* \"#utility.yul\":11311:11317   */\n      dup3\n        /* \"#utility.yul\":11307:11321   */\n      add\n        /* \"#utility.yul\":11300:11357   */\n      mstore\n        /* \"#utility.yul\":11183:11364   */\n      pop\n      jump\t// out\n        /* \"#utility.yul\":11370:11736   */\n    tag_232:\n        /* \"#utility.yul\":11512:11515   */\n      0x00\n        /* \"#utility.yul\":11533:11600   */\n      tag_385\n        /* \"#utility.yul\":11597:11599   */\n      0x1f\n        /* \"#utility.yul\":11592:11595   */\n      dup4\n        /* \"#utility.yul\":11533:11600   */\n      tag_222\n      jump\t// in\n    tag_385:\n        /* \"#utility.yul\":11526:11600   */\n      swap2\n      pop\n        /* \"#utility.yul\":11609:11702   */\n      tag_386\n        /* \"#utility.yul\":11698:11701   */\n      dup3\n        /* \"#utility.yul\":11609:11702   */\n      tag_231\n      jump\t// in\n    tag_386:\n        /* \"#utility.yul\":11727:11729   */\n      0x20\n        /* \"#utility.yul\":11722:11725   */\n      dup3\n        /* \"#utility.yul\":11718:11730   */\n      add\n        /* \"#utility.yul\":11711:11730   */\n      swap1\n      pop\n        /* \"#utility.yul\":11370:11736   */\n      swap2\n      swap1\n      pop\n      jump\t// out\n        /* \"#utility.yul\":11742:12161   */\n    tag_106:\n        /* \"#utility.yul\":11908:11912   */\n      0x00\n        /* \"#utility.yul\":11946:11948   */\n      0x20\n        /* \"#utility.yul\":11935:11944   */\n      dup3\n        /* \"#utility.yul\":11931:11949   */\n      add\n        /* \"#utility.yul\":11923:11949   */\n      swap1\n      pop\n        /* \"#utility.yul\":11995:12004   */\n      dup2\n        /* \"#utility.yul\":11989:11993   */\n      dup2\n        /* \"#utility.yul\":11985:12005   */\n      sub\n        /* \"#utility.yul\":11981:11982   */\n      0x00\n        /* \"#utility.yul\":11970:11979   */\n      dup4\n        /* \"#utility.yul\":11966:11983   */\n      add\n        /* \"#utility.yul\":11959:12006   */\n      mstore\n        /* \"#utility.yul\":12023:12154   */\n      tag_388\n        /* \"#utility.yul\":12149:12153   */\n      dup2\n        /* \"#utility.yul\":12023:12154   */\n      tag_232\n      jump\t// in\n    tag_388:\n        /* \"#utility.yul\":12015:12154   */\n      swap1\n      pop\n        /* \"#utility.yul\":11742:12161   */\n      swap2\n      swap1\n      pop\n      jump\t// out\n        /* \"#utility.yul\":12167:12310   */\n    tag_233:\n        /* \"#utility.yul\":12224:12229   */\n      0x00\n        /* \"#utility.yul\":12255:12261   */\n      dup2\n        /* \"#utility.yul\":12249:12262   */\n      mload\n        /* \"#utility.yul\":12240:12262   */\n      swap1\n      pop\n        /* \"#utility.yul\":12271:12304   */\n      tag_390\n        /* \"#utility.yul\":12298:12303   */\n      dup2\n        /* \"#utility.yul\":12271:12304   */\n      tag_198\n      jump\t// in\n    tag_390:\n        /* \"#utility.yul\":12167:12310   */\n      swap3\n      swap2\n      pop\n      pop\n      jump\t// out\n        /* \"#utility.yul\":12316:12667   */\n    tag_111:\n        /* \"#utility.yul\":12386:12392   */\n      0x00\n        /* \"#utility.yul\":12435:12437   */\n      0x20\n        /* \"#utility.yul\":12423:12432   */\n      dup3\n        /* \"#utility.yul\":12414:12421   */\n      dup5\n        /* \"#utility.yul\":12410:12433   */\n      sub\n        /* \"#utility.yul\":12406:12438   */\n      slt\n        /* \"#utility.yul\":12403:12522   */\n      iszero\n      tag_392\n      jumpi\n        /* \"#utility.yul\":12441:12520   */\n      tag_393\n      tag_195\n      jump\t// in\n    tag_393:\n        /* \"#utility.yul\":12403:12522   */\n    tag_392:\n        /* \"#utility.yul\":12561:12562   */\n      0x00\n        /* \"#utility.yul\":12586:12650   */\n      tag_394\n        /* \"#utility.yul\":12642:12649   */\n      dup5\n        /* \"#utility.yul\":12633:12639   */\n      dup3\n        /* \"#utility.yul\":12622:12631   */\n      dup6\n        /* \"#utility.yul\":12618:12640   */\n      add\n        /* \"#utility.yul\":12586:12650   */\n      tag_233\n      jump\t// in\n    tag_394:\n        /* \"#utility.yul\":12576:12650   */\n      swap2\n      pop\n        /* \"#utility.yul\":12532:12660   */\n      pop\n        /* \"#utility.yul\":12316:12667   */\n      swap3\n      swap2\n      pop\n      pop\n      jump\t// out\n        /* \"#utility.yul\":12673:12851   */\n    tag_234:\n        /* \"#utility.yul\":12813:12843   */\n      0x53616c646f20646520746f6b656e7320696e737566696369656e746500000000\n        /* \"#utility.yul\":12809:12810   */\n      0x00\n        /* \"#utility.yul\":12801:12807   */\n      dup3\n        /* \"#utility.yul\":12797:12811   */\n      add\n        /* \"#utility.yul\":12790:12844   */\n      mstore\n        /* \"#utility.yul\":12673:12851   */\n      pop\n      jump\t// out\n        /* \"#utility.yul\":12857:13223   */\n    tag_235:\n        /* \"#utility.yul\":12999:13002   */\n      0x00\n        /* \"#utility.yul\":13020:13087   */\n      tag_397\n        /* \"#utility.yul\":13084:13086   */\n      0x1c\n        /* \"#utility.yul\":13079:13082   */\n      dup4\n        /* \"#utility.yul\":13020:13087   */\n      tag_222\n      jump\t// in\n    tag_397:\n        /* \"#utility.yul\":13013:13087   */\n      swap2\n      pop\n        /* \"#utility.yul\":13096:13189   */\n      tag_398\n        /* \"#utility.yul\":13185:13188   */\n      dup3\n        /* \"#utility.yul\":13096:13189   */\n      tag_234\n      jump\t// in\n    tag_398:\n        /* \"#utility.yul\":13214:13216   */\n      0x20\n        /* \"#utility.yul\":13209:13212   */\n      dup3\n        /* \"#utility.yul\":13205:13217   */\n      add\n        /* \"#utility.yul\":13198:13217   */\n      swap1\n      pop\n        /* \"#utility.yul\":12857:13223   */\n      swap2\n      swap1\n      pop\n      jump\t// out\n        /* \"#utility.yul\":13229:13648   */\n    tag_114:\n        /* \"#utility.yul\":13395:13399   */\n      0x00\n        /* \"#utility.yul\":13433:13435   */\n      0x20\n        /* \"#utility.yul\":13422:13431   */\n      dup3\n        /* \"#utility.yul\":13418:13436   */\n      add\n        /* \"#utility.yul\":13410:13436   */\n      swap1\n      pop\n        /* \"#utility.yul\":13482:13491   */\n      dup2\n        /* \"#utility.yul\":13476:13480   */\n      dup2\n        /* \"#utility.yul\":13472:13492   */\n      sub\n        /* \"#utility.yul\":13468:13469   */\n      0x00\n        /* \"#utility.yul\":13457:13466   */\n      dup4\n        /* \"#utility.yul\":13453:13470   */\n      add\n        /* \"#utility.yul\":13446:13493   */\n      mstore\n        /* \"#utility.yul\":13510:13641   */\n      tag_400\n        /* \"#utility.yul\":13636:13640   */\n      dup2\n        /* \"#utility.yul\":13510:13641   */\n      tag_235\n      jump\t// in\n    tag_400:\n        /* \"#utility.yul\":13502:13641   */\n      swap1\n      pop\n        /* \"#utility.yul\":13229:13648   */\n      swap2\n      swap1\n      pop\n      jump\t// out\n        /* \"#utility.yul\":13654:13834   */\n    tag_236:\n        /* \"#utility.yul\":13702:13779   */\n      0x4e487b7100000000000000000000000000000000000000000000000000000000\n        /* \"#utility.yul\":13699:13700   */\n      0x00\n        /* \"#utility.yul\":13692:13780   */\n      mstore\n        /* \"#utility.yul\":13799:13803   */\n      0x11\n        /* \"#utility.yul\":13796:13797   */\n      0x04\n        /* \"#utility.yul\":13789:13804   */\n      mstore\n        /* \"#utility.yul\":13823:13827   */\n      0x24\n        /* \"#utility.yul\":13820:13821   */\n      0x00\n        /* \"#utility.yul\":13813:13828   */\n      revert\n        /* \"#utility.yul\":13840:14250   */\n    tag_123:\n        /* \"#utility.yul\":13880:13887   */\n      0x00\n        /* \"#utility.yul\":13903:13923   */\n      tag_403\n        /* \"#utility.yul\":13921:13922   */\n      dup3\n        /* \"#utility.yul\":13903:13923   */\n      tag_197\n      jump\t// in\n    tag_403:\n        /* \"#utility.yul\":13898:13923   */\n      swap2\n      pop\n        /* \"#utility.yul\":13937:13957   */\n      tag_404\n        /* \"#utility.yul\":13955:13956   */\n      dup4\n        /* \"#utility.yul\":13937:13957   */\n      tag_197\n      jump\t// in\n    tag_404:\n        /* \"#utility.yul\":13932:13957   */\n      swap3\n      pop\n        /* \"#utility.yul\":13992:13993   */\n      dup3\n        /* \"#utility.yul\":13989:13990   */\n      dup3\n        /* \"#utility.yul\":13985:13994   */\n      mul\n        /* \"#utility.yul\":14014:14044   */\n      tag_405\n        /* \"#utility.yul\":14032:14043   */\n      dup2\n        /* \"#utility.yul\":14014:14044   */\n      tag_197\n      jump\t// in\n    tag_405:\n        /* \"#utility.yul\":14003:14044   */\n      swap2\n      pop\n        /* \"#utility.yul\":14193:14194   */\n      dup3\n        /* \"#utility.yul\":14184:14191   */\n      dup3\n        /* \"#utility.yul\":14180:14195   */\n      div\n        /* \"#utility.yul\":14177:14178   */\n      dup5\n        /* \"#utility.yul\":14174:14196   */\n      eq\n        /* \"#utility.yul\":14154:14155   */\n      dup4\n        /* \"#utility.yul\":14147:14156   */\n      iszero\n        /* \"#utility.yul\":14127:14210   */\n      or\n        /* \"#utility.yul\":14104:14243   */\n      tag_406\n      jumpi\n        /* \"#utility.yul\":14223:14241   */\n      tag_407\n      tag_236\n      jump\t// in\n    tag_407:\n        /* \"#utility.yul\":14104:14243   */\n    tag_406:\n        /* \"#utility.yul\":13888:14250   */\n      pop\n        /* \"#utility.yul\":13840:14250   */\n      swap3\n      swap2\n      pop\n      pop\n      jump\t// out\n        /* \"#utility.yul\":14256:14436   */\n    tag_237:\n        /* \"#utility.yul\":14304:14381   */\n      0x4e487b7100000000000000000000000000000000000000000000000000000000\n        /* \"#utility.yul\":14301:14302   */\n      0x00\n        /* \"#utility.yul\":14294:14382   */\n      mstore\n        /* \"#utility.yul\":14401:14405   */\n      0x12\n        /* \"#utility.yul\":14398:14399   */\n      0x04\n        /* \"#utility.yul\":14391:14406   */\n      mstore\n        /* \"#utility.yul\":14425:14429   */\n      0x24\n        /* \"#utility.yul\":14422:14423   */\n      0x00\n        /* \"#utility.yul\":14415:14430   */\n      revert\n        /* \"#utility.yul\":14442:14627   */\n    tag_125:\n        /* \"#utility.yul\":14482:14483   */\n      0x00\n        /* \"#utility.yul\":14499:14519   */\n      tag_410\n        /* \"#utility.yul\":14517:14518   */\n      dup3\n        /* \"#utility.yul\":14499:14519   */\n      tag_197\n      jump\t// in\n    tag_410:\n        /* \"#utility.yul\":14494:14519   */\n      swap2\n      pop\n        /* \"#utility.yul\":14533:14553   */\n      tag_411\n        /* \"#utility.yul\":14551:14552   */\n      dup4\n        /* \"#utility.yul\":14533:14553   */\n      tag_197\n      jump\t// in\n    tag_411:\n        /* \"#utility.yul\":14528:14553   */\n      swap3\n      pop\n        /* \"#utility.yul\":14572:14573   */\n      dup3\n        /* \"#utility.yul\":14562:14597   */\n      tag_412\n      jumpi\n        /* \"#utility.yul\":14577:14595   */\n      tag_413\n      tag_237\n      jump\t// in\n    tag_413:\n        /* \"#utility.yul\":14562:14597   */\n    tag_412:\n        /* \"#utility.yul\":14619:14620   */\n      dup3\n        /* \"#utility.yul\":14616:14617   */\n      dup3\n        /* \"#utility.yul\":14612:14621   */\n      div\n        /* \"#utility.yul\":14607:14621   */\n      swap1\n      pop\n        /* \"#utility.yul\":14442:14627   */\n      swap3\n      swap2\n      pop\n      pop\n      jump\t// out\n        /* \"#utility.yul\":14633:14824   */\n    tag_129:\n        /* \"#utility.yul\":14673:14676   */\n      0x00\n        /* \"#utility.yul\":14692:14712   */\n      tag_415\n        /* \"#utility.yul\":14710:14711   */\n      dup3\n        /* \"#utility.yul\":14692:14712   */\n      tag_197\n      jump\t// in\n    tag_415:\n        /* \"#utility.yul\":14687:14712   */\n      swap2\n      pop\n        /* \"#utility.yul\":14726:14746   */\n      tag_416\n        /* \"#utility.yul\":14744:14745   */\n      dup4\n        /* \"#utility.yul\":14726:14746   */\n      tag_197\n      jump\t// in\n    tag_416:\n        /* \"#utility.yul\":14721:14746   */\n      swap3\n      pop\n        /* \"#utility.yul\":14769:14770   */\n      dup3\n        /* \"#utility.yul\":14766:14767   */\n      dup3\n        /* \"#utility.yul\":14762:14771   */\n      add\n        /* \"#utility.yul\":14755:14771   */\n      swap1\n      pop\n        /* \"#utility.yul\":14790:14793   */\n      dup1\n        /* \"#utility.yul\":14787:14788   */\n      dup3\n        /* \"#utility.yul\":14784:14794   */\n      gt\n        /* \"#utility.yul\":14781:14817   */\n      iszero\n      tag_417\n      jumpi\n        /* \"#utility.yul\":14797:14815   */\n      tag_418\n      tag_236\n      jump\t// in\n    tag_418:\n        /* \"#utility.yul\":14781:14817   */\n    tag_417:\n        /* \"#utility.yul\":14633:14824   */\n      swap3\n      swap2\n      pop\n      pop\n      jump\t// out\n        /* \"#utility.yul\":14830:15063   */\n    tag_131:\n        /* \"#utility.yul\":14869:14872   */\n      0x00\n        /* \"#utility.yul\":14892:14916   */\n      tag_420\n        /* \"#utility.yul\":14910:14915   */\n      dup3\n        /* \"#utility.yul\":14892:14916   */\n      tag_197\n      jump\t// in\n    tag_420:\n        /* \"#utility.yul\":14883:14916   */\n      swap2\n      pop\n        /* \"#utility.yul\":14938:15004   */\n      0xffffffffffffffffffffffffffffffffffffffffffffffffffffffffffffffff\n        /* \"#utility.yul\":14931:14936   */\n      dup3\n        /* \"#utility.yul\":14928:15005   */\n      sub\n        /* \"#utility.yul\":14925:15028   */\n      tag_421\n      jumpi\n        /* \"#utility.yul\":15008:15026   */\n      tag_422\n      tag_236\n      jump\t// in\n    tag_422:\n        /* \"#utility.yul\":14925:15028   */\n    tag_421:\n        /* \"#utility.yul\":15055:15056   */\n      0x01\n        /* \"#utility.yul\":15048:15053   */\n      dup3\n        /* \"#utility.yul\":15044:15057   */\n      add\n        /* \"#utility.yul\":15037:15057   */\n      swap1\n      pop\n        /* \"#utility.yul\":14830:15063   */\n      swap2\n      swap1\n      pop\n      jump\t// out\n        /* \"#utility.yul\":15069:15263   */\n    tag_134:\n        /* \"#utility.yul\":15109:15113   */\n      0x00\n        /* \"#utility.yul\":15129:15149   */\n      tag_424\n        /* \"#utility.yul\":15147:15148   */\n      dup3\n        /* \"#utility.yul\":15129:15149   */\n      tag_197\n      jump\t// in\n    tag_424:\n        /* \"#utility.yul\":15124:15149   */\n      swap2\n      pop\n        /* \"#utility.yul\":15163:15183   */\n      tag_425\n        /* \"#utility.yul\":15181:15182   */\n      dup4\n        /* \"#utility.yul\":15163:15183   */\n      tag_197\n      jump\t// in\n    tag_425:\n        /* \"#utility.yul\":15158:15183   */\n      swap3\n      pop\n        /* \"#utility.yul\":15207:15208   */\n      dup3\n        /* \"#utility.yul\":15204:15205   */\n      dup3\n        /* \"#utility.yul\":15200:15209   */\n      sub\n        /* \"#utility.yul\":15192:15209   */\n      swap1\n      pop\n        /* \"#utility.yul\":15231:15232   */\n      dup2\n        /* \"#utility.yul\":15225:15229   */\n      dup2\n        /* \"#utility.yul\":15222:15233   */\n      gt\n        /* \"#utility.yul\":15219:15256   */\n      iszero\n      tag_426\n      jumpi\n        /* \"#utility.yul\":15236:15254   */\n      tag_427\n      tag_236\n      jump\t// in\n    tag_427:\n        /* \"#utility.yul\":15219:15256   */\n    tag_426:\n        /* \"#utility.yul\":15069:15263   */\n      swap3\n      swap2\n      pop\n      pop\n      jump\t// out\n        /* \"#utility.yul\":15269:15449   */\n    tag_137:\n        /* \"#utility.yul\":15317:15394   */\n      0x4e487b7100000000000000000000000000000000000000000000000000000000\n        /* \"#utility.yul\":15314:15315   */\n      0x00\n        /* \"#utility.yul\":15307:15395   */\n      mstore\n        /* \"#utility.yul\":15414:15418   */\n      0x32\n        /* \"#utility.yul\":15411:15412   */\n      0x04\n        /* \"#utility.yul\":15404:15419   */\n      mstore\n        /* \"#utility.yul\":15438:15442   */\n      0x24\n        /* \"#utility.yul\":15435:15436   */\n      0x00\n        /* \"#utility.yul\":15428:15443   */\n      revert\n        /* \"#utility.yul\":15455:15787   */\n    tag_147:\n        /* \"#utility.yul\":15576:15580   */\n      0x00\n        /* \"#utility.yul\":15614:15616   */\n      0x40\n        /* \"#utility.yul\":15603:15612   */\n      dup3\n        /* \"#utility.yul\":15599:15617   */\n      add\n        /* \"#utility.yul\":15591:15617   */\n      swap1\n      pop\n        /* \"#utility.yul\":15627:15698   */\n      tag_430\n        /* \"#utility.yul\":15695:15696   */\n      0x00\n        /* \"#utility.yul\":15684:15693   */\n      dup4\n        /* \"#utility.yul\":15680:15697   */\n      add\n        /* \"#utility.yul\":15671:15677   */\n      dup6\n        /* \"#utility.yul\":15627:15698   */\n      tag_205\n      jump\t// in\n    tag_430:\n        /* \"#utility.yul\":15708:15780   */\n      tag_431\n        /* \"#utility.yul\":15776:15778   */\n      0x20\n        /* \"#utility.yul\":15765:15774   */\n      dup4\n        /* \"#utility.yul\":15761:15779   */\n      add\n        /* \"#utility.yul\":15752:15758   */\n      dup5\n        /* \"#utility.yul\":15708:15780   */\n      tag_200\n      jump\t// in\n    tag_431:\n        /* \"#utility.yul\":15455:15787   */\n      swap4\n      swap3\n      pop\n      pop\n      pop\n      jump\t// out\n        /* \"#utility.yul\":15793:15909   */\n    tag_238:\n        /* \"#utility.yul\":15863:15884   */\n      tag_433\n        /* \"#utility.yul\":15878:15883   */\n      dup2\n        /* \"#utility.yul\":15863:15884   */\n      tag_225\n      jump\t// in\n    tag_433:\n        /* \"#utility.yul\":15856:15861   */\n      dup2\n        /* \"#utility.yul\":15853:15885   */\n      eq\n        /* \"#utility.yul\":15843:15903   */\n      tag_434\n      jumpi\n        /* \"#utility.yul\":15899:15900   */\n      0x00\n        /* \"#utility.yul\":15896:15897   */\n      dup1\n        /* \"#utility.yul\":15889:15901   */\n      revert\n        /* \"#utility.yul\":15843:15903   */\n    tag_434:\n        /* \"#utility.yul\":15793:15909   */\n      pop\n      jump\t// out\n        /* \"#utility.yul\":15915:16052   */\n    tag_239:\n        /* \"#utility.yul\":15969:15974   */\n      0x00\n        /* \"#utility.yul\":16000:16006   */\n      dup2\n        /* \"#utility.yul\":15994:16007   */\n      mload\n        /* \"#utility.yul\":15985:16007   */\n      swap1\n      pop\n        /* \"#utility.yul\":16016:16046   */\n      tag_436\n        /* \"#utility.yul\":16040:16045   */\n      dup2\n        /* \"#utility.yul\":16016:16046   */\n      tag_238\n      jump\t// in\n    tag_436:\n        /* \"#utility.yul\":15915:16052   */\n      swap3\n      swap2\n      pop\n      pop\n      jump\t// out\n        /* \"#utility.yul\":16058:16403   */\n    tag_151:\n        /* \"#utility.yul\":16125:16131   */\n      0x00\n        /* \"#utility.yul\":16174:16176   */\n      0x20\n        /* \"#utility.yul\":16162:16171   */\n      dup3\n        /* \"#utility.yul\":16153:16160   */\n      dup5\n        /* \"#utility.yul\":16149:16172   */\n      sub\n        /* \"#utility.yul\":16145:16177   */\n      slt\n        /* \"#utility.yul\":16142:16261   */\n      iszero\n      tag_438\n      jumpi\n        /* \"#utility.yul\":16180:16259   */\n      tag_439\n      tag_195\n      jump\t// in\n    tag_439:\n        /* \"#utility.yul\":16142:16261   */\n    tag_438:\n        /* \"#utility.yul\":16300:16301   */\n      0x00\n        /* \"#utility.yul\":16325:16386   */\n      tag_440\n        /* \"#utility.yul\":16378:16385   */\n      dup5\n        /* \"#utility.yul\":16369:16375   */\n      dup3\n        /* \"#utility.yul\":16358:16367   */\n      dup6\n        /* \"#utility.yul\":16354:16376   */\n      add\n        /* \"#utility.yul\":16325:16386   */\n      tag_239\n      jump\t// in\n    tag_440:\n        /* \"#utility.yul\":16315:16386   */\n      swap2\n      pop\n        /* \"#utility.yul\":16271:16396   */\n      pop\n        /* \"#utility.yul\":16058:16403   */\n      swap3\n      swap2\n      pop\n      pop\n      jump\t// out\n        /* \"#utility.yul\":16409:16851   */\n    tag_159:\n        /* \"#utility.yul\":16558:16562   */\n      0x00\n        /* \"#utility.yul\":16596:16598   */\n      0x60\n        /* \"#utility.yul\":16585:16594   */\n      dup3\n        /* \"#utility.yul\":16581:16599   */\n      add\n        /* \"#utility.yul\":16573:16599   */\n      swap1\n      pop\n        /* \"#utility.yul\":16609:16680   */\n      tag_442\n        /* \"#utility.yul\":16677:16678   */\n      0x00\n        /* \"#utility.yul\":16666:16675   */\n      dup4\n        /* \"#utility.yul\":16662:16679   */\n      add\n        /* \"#utility.yul\":16653:16659   */\n      dup7\n        /* \"#utility.yul\":16609:16680   */\n      tag_205\n      jump\t// in\n    tag_442:\n        /* \"#utility.yul\":16690:16762   */\n      tag_443\n        /* \"#utility.yul\":16758:16760   */\n      0x20\n        /* \"#utility.yul\":16747:16756   */\n      dup4\n        /* \"#utility.yul\":16743:16761   */\n      add\n        /* \"#utility.yul\":16734:16740   */\n      dup6\n        /* \"#utility.yul\":16690:16762   */\n      tag_205\n      jump\t// in\n    tag_443:\n        /* \"#utility.yul\":16772:16844   */\n      tag_444\n        /* \"#utility.yul\":16840:16842   */\n      0x40\n        /* \"#utility.yul\":16829:16838   */\n      dup4\n        /* \"#utility.yul\":16825:16843   */\n      add\n        /* \"#utility.yul\":16816:16822   */\n      dup5\n        /* \"#utility.yul\":16772:16844   */\n      tag_200\n      jump\t// in\n    tag_444:\n        /* \"#utility.yul\":16409:16851   */\n      swap5\n      swap4\n      pop\n      pop\n      pop\n      pop\n      jump\t// out\n        /* \"#utility.yul\":16857:17032   */\n    tag_240:\n        /* \"#utility.yul\":16997:17024   */\n      0x4661696c656420746f207472616e7366657220746f6b656e7300000000000000\n        /* \"#utility.yul\":16993:16994   */\n      0x00\n        /* \"#utility.yul\":16985:16991   */\n      dup3\n        /* \"#utility.yul\":16981:16995   */\n      add\n        /* \"#utility.yul\":16974:17025   */\n      mstore\n        /* \"#utility.yul\":16857:17032   */\n      pop\n      jump\t// out\n        /* \"#utility.yul\":17038:17404   */\n    tag_241:\n        /* \"#utility.yul\":17180:17183   */\n      0x00\n        /* \"#utility.yul\":17201:17268   */\n      tag_447\n        /* \"#utility.yul\":17265:17267   */\n      0x19\n        /* \"#utility.yul\":17260:17263   */\n      dup4\n        /* \"#utility.yul\":17201:17268   */\n      tag_222\n      jump\t// in\n    tag_447:\n        /* \"#utility.yul\":17194:17268   */\n      swap2\n      pop\n        /* \"#utility.yul\":17277:17370   */\n      tag_448\n        /* \"#utility.yul\":17366:17369   */\n      dup3\n        /* \"#utility.yul\":17277:17370   */\n      tag_240\n      jump\t// in\n    tag_448:\n        /* \"#utility.yul\":17395:17397   */\n      0x20\n        /* \"#utility.yul\":17390:17393   */\n      dup3\n        /* \"#utility.yul\":17386:17398   */\n      add\n        /* \"#utility.yul\":17379:17398   */\n      swap1\n      pop\n        /* \"#utility.yul\":17038:17404   */\n      swap2\n      swap1\n      pop\n      jump\t// out\n        /* \"#utility.yul\":17410:17829   */\n    tag_165:\n        /* \"#utility.yul\":17576:17580   */\n      0x00\n        /* \"#utility.yul\":17614:17616   */\n      0x20\n        /* \"#utility.yul\":17603:17612   */\n      dup3\n        /* \"#utility.yul\":17599:17617   */\n      add\n        /* \"#utility.yul\":17591:17617   */\n      swap1\n      pop\n        /* \"#utility.yul\":17663:17672   */\n      dup2\n        /* \"#utility.yul\":17657:17661   */\n      dup2\n        /* \"#utility.yul\":17653:17673   */\n      sub\n        /* \"#utility.yul\":17649:17650   */\n      0x00\n        /* \"#utility.yul\":17638:17647   */\n      dup4\n        /* \"#utility.yul\":17634:17651   */\n      add\n        /* \"#utility.yul\":17627:17674   */\n      mstore\n        /* \"#utility.yul\":17691:17822   */\n      tag_450\n        /* \"#utility.yul\":17817:17821   */\n      dup2\n        /* \"#utility.yul\":17691:17822   */\n      tag_241\n      jump\t// in\n    tag_450:\n        /* \"#utility.yul\":17683:17822   */\n      swap1\n      pop\n        /* \"#utility.yul\":17410:17829   */\n      swap2\n      swap1\n      pop\n      jump\t// out\n        /* \"#utility.yul\":17835:18015   */\n    tag_242:\n        /* \"#utility.yul\":17883:17960   */\n      0x4e487b7100000000000000000000000000000000000000000000000000000000\n        /* \"#utility.yul\":17880:17881   */\n      0x00\n        /* \"#utility.yul\":17873:17961   */\n      mstore\n        /* \"#utility.yul\":17980:17984   */\n      0x22\n        /* \"#utility.yul\":17977:17978   */\n      0x04\n        /* \"#utility.yul\":17970:17985   */\n      mstore\n        /* \"#utility.yul\":18004:18008   */\n      0x24\n        /* \"#utility.yul\":18001:18002   */\n      0x00\n        /* \"#utility.yul\":17994:18009   */\n      revert\n        /* \"#utility.yul\":18021:18341   */\n    tag_173:\n        /* \"#utility.yul\":18065:18071   */\n      0x00\n        /* \"#utility.yul\":18102:18103   */\n      0x02\n        /* \"#utility.yul\":18096:18100   */\n      dup3\n        /* \"#utility.yul\":18092:18104   */\n      div\n        /* \"#utility.yul\":18082:18104   */\n      swap1\n      pop\n        /* \"#utility.yul\":18149:18150   */\n      0x01\n        /* \"#utility.yul\":18143:18147   */\n      dup3\n        /* \"#utility.yul\":18139:18151   */\n      and\n        /* \"#utility.yul\":18170:18188   */\n      dup1\n        /* \"#utility.yul\":18160:18241   */\n      tag_453\n      jumpi\n        /* \"#utility.yul\":18226:18230   */\n      0x7f\n        /* \"#utility.yul\":18218:18224   */\n      dup3\n        /* \"#utility.yul\":18214:18231   */\n      and\n        /* \"#utility.yul\":18204:18231   */\n      swap2\n      pop\n        /* \"#utility.yul\":18160:18241   */\n    tag_453:\n        /* \"#utility.yul\":18288:18290   */\n      0x20\n        /* \"#utility.yul\":18280:18286   */\n      dup3\n        /* \"#utility.yul\":18277:18291   */\n      lt\n        /* \"#utility.yul\":18257:18275   */\n      dup2\n        /* \"#utility.yul\":18254:18292   */\n      sub\n        /* \"#utility.yul\":18251:18335   */\n      tag_454\n      jumpi\n        /* \"#utility.yul\":18307:18325   */\n      tag_455\n      tag_242\n      jump\t// in\n    tag_455:\n        /* \"#utility.yul\":18251:18335   */\n    tag_454:\n        /* \"#utility.yul\":18072:18341   */\n      pop\n        /* \"#utility.yul\":18021:18341   */\n      swap2\n      swap1\n      pop\n      jump\t// out\n        /* \"#utility.yul\":18347:18488   */\n    tag_243:\n        /* \"#utility.yul\":18396:18400   */\n      0x00\n        /* \"#utility.yul\":18419:18422   */\n      dup2\n        /* \"#utility.yul\":18411:18422   */\n      swap1\n      pop\n        /* \"#utility.yul\":18442:18445   */\n      dup2\n        /* \"#utility.yul\":18439:18440   */\n      0x00\n        /* \"#utility.yul\":18432:18446   */\n      mstore\n        /* \"#utility.yul\":18476:18480   */\n      0x20\n        /* \"#utility.yul\":18473:18474   */\n      0x00\n        /* \"#utility.yul\":18463:18481   */\n      keccak256\n        /* \"#utility.yul\":18455:18481   */\n      swap1\n      pop\n        /* \"#utility.yul\":18347:18488   */\n      swap2\n      swap1\n      pop\n      jump\t// out\n        /* \"#utility.yul\":18494:18587   */\n    tag_244:\n        /* \"#utility.yul\":18531:18537   */\n      0x00\n        /* \"#utility.yul\":18578:18580   */\n      0x20\n        /* \"#utility.yul\":18573:18575   */\n      0x1f\n        /* \"#utility.yul\":18566:18571   */\n      dup4\n        /* \"#utility.yul\":18562:18576   */\n      add\n        /* \"#utility.yul\":18558:18581   */\n      div\n        /* \"#utility.yul\":18548:18581   */\n      swap1\n      pop\n        /* \"#utility.yul\":18494:18587   */\n      swap2\n      swap1\n      pop\n      jump\t// out\n        /* \"#utility.yul\":18593:18700   */\n    tag_245:\n        /* \"#utility.yul\":18637:18645   */\n      0x00\n        /* \"#utility.yul\":18687:18692   */\n      dup3\n        /* \"#utility.yul\":18681:18685   */\n      dup3\n        /* \"#utility.yul\":18677:18693   */\n      shl\n        /* \"#utility.yul\":18656:18693   */\n      swap1\n      pop\n        /* \"#utility.yul\":18593:18700   */\n      swap3\n      swap2\n      pop\n      pop\n      jump\t// out\n        /* \"#utility.yul\":18706:19099   */\n    tag_246:\n        /* \"#utility.yul\":18775:18781   */\n      0x00\n        /* \"#utility.yul\":18825:18826   */\n      0x08\n        /* \"#utility.yul\":18813:18823   */\n      dup4\n        /* \"#utility.yul\":18809:18827   */\n      mul\n        /* \"#utility.yul\":18848:18945   */\n      tag_460\n        /* \"#utility.yul\":18878:18944   */\n      0xffffffffffffffffffffffffffffffffffffffffffffffffffffffffffffffff\n        /* \"#utility.yul\":18867:18876   */\n      dup3\n        /* \"#utility.yul\":18848:18945   */\n      tag_245\n      jump\t// in\n    tag_460:\n        /* \"#utility.yul\":18966:19005   */\n      tag_461\n        /* \"#utility.yul\":18996:19004   */\n      dup7\n        /* \"#utility.yul\":18985:18994   */\n      dup4\n        /* \"#utility.yul\":18966:19005   */\n      tag_245\n      jump\t// in\n    tag_461:\n        /* \"#utility.yul\":18954:19005   */\n      swap6\n      pop\n        /* \"#utility.yul\":19038:19042   */\n      dup1\n        /* \"#utility.yul\":19034:19043   */\n      not\n        /* \"#utility.yul\":19027:19032   */\n      dup5\n        /* \"#utility.yul\":19023:19044   */\n      and\n        /* \"#utility.yul\":19014:19044   */\n      swap4\n      pop\n        /* \"#utility.yul\":19087:19091   */\n      dup1\n        /* \"#utility.yul\":19077:19085   */\n      dup7\n        /* \"#utility.yul\":19073:19092   */\n      and\n        /* \"#utility.yul\":19066:19071   */\n      dup5\n        /* \"#utility.yul\":19063:19093   */\n      or\n        /* \"#utility.yul\":19053:19093   */\n      swap3\n      pop\n        /* \"#utility.yul\":18782:19099   */\n      pop\n      pop\n        /* \"#utility.yul\":18706:19099   */\n      swap4\n      swap3\n      pop\n      pop\n      pop\n      jump\t// out\n        /* \"#utility.yul\":19105:19247   */\n    tag_247:\n        /* \"#utility.yul\":19155:19164   */\n      0x00\n        /* \"#utility.yul\":19188:19241   */\n      tag_463\n        /* \"#utility.yul\":19206:19240   */\n      tag_464\n        /* \"#utility.yul\":19215:19239   */\n      tag_465\n        /* \"#utility.yul\":19233:19238   */\n      dup5\n        /* \"#utility.yul\":19215:19239   */\n      tag_197\n      jump\t// in\n    tag_465:\n        /* \"#utility.yul\":19206:19240   */\n      tag_206\n      jump\t// in\n    tag_464:\n        /* \"#utility.yul\":19188:19241   */\n      tag_197\n      jump\t// in\n    tag_463:\n        /* \"#utility.yul\":19175:19241   */\n      swap1\n      pop\n        /* \"#utility.yul\":19105:19247   */\n      swap2\n      swap1\n      pop\n      jump\t// out\n        /* \"#utility.yul\":19253:19328   */\n    tag_248:\n        /* \"#utility.yul\":19296:19299   */\n      0x00\n        /* \"#utility.yul\":19317:19322   */\n      dup2\n        /* \"#utility.yul\":19310:19322   */\n      swap1\n      pop\n        /* \"#utility.yul\":19253:19328   */\n      swap2\n      swap1\n      pop\n      jump\t// out\n        /* \"#utility.yul\":19334:19603   */\n    tag_249:\n        /* \"#utility.yul\":19444:19483   */\n      tag_468\n        /* \"#utility.yul\":19475:19482   */\n      dup4\n        /* \"#utility.yul\":19444:19483   */\n      tag_247\n      jump\t// in\n    tag_468:\n        /* \"#utility.yul\":19505:19596   */\n      tag_469\n        /* \"#utility.yul\":19554:19595   */\n      tag_470\n        /* \"#utility.yul\":19578:19594   */\n      dup3\n        /* \"#utility.yul\":19554:19595   */\n      tag_248\n      jump\t// in\n    tag_470:\n        /* \"#utility.yul\":19546:19552   */\n      dup5\n        /* \"#utility.yul\":19539:19543   */\n      dup5\n        /* \"#utility.yul\":19533:19544   */\n      sload\n        /* \"#utility.yul\":19505:19596   */\n      tag_246\n      jump\t// in\n    tag_469:\n        /* \"#utility.yul\":19499:19503   */\n      dup3\n        /* \"#utility.yul\":19492:19597   */\n      sstore\n        /* \"#utility.yul\":19410:19603   */\n      pop\n        /* \"#utility.yul\":19334:19603   */\n      pop\n      pop\n      pop\n      jump\t// out\n        /* \"#utility.yul\":19609:19682   */\n    tag_250:\n        /* \"#utility.yul\":19654:19657   */\n      0x00\n        /* \"#utility.yul\":19609:19682   */\n      swap1\n      jump\t// out\n        /* \"#utility.yul\":19688:19877   */\n    tag_251:\n        /* \"#utility.yul\":19765:19797   */\n      tag_473\n      tag_250\n      jump\t// in\n    tag_473:\n        /* \"#utility.yul\":19806:19871   */\n      tag_474\n        /* \"#utility.yul\":19864:19870   */\n      dup2\n        /* \"#utility.yul\":19856:19862   */\n      dup5\n        /* \"#utility.yul\":19850:19854   */\n      dup5\n        /* \"#utility.yul\":19806:19871   */\n      tag_249\n      jump\t// in\n    tag_474:\n        /* \"#utility.yul\":19741:19877   */\n      pop\n        /* \"#utility.yul\":19688:19877   */\n      pop\n      pop\n      jump\t// out\n        /* \"#utility.yul\":19883:20069   */\n    tag_252:\n        /* \"#utility.yul\":19943:20063   */\n    tag_476:\n        /* \"#utility.yul\":19960:19963   */\n      dup2\n        /* \"#utility.yul\":19953:19958   */\n      dup2\n        /* \"#utility.yul\":19950:19964   */\n      lt\n        /* \"#utility.yul\":19943:20063   */\n      iszero\n      tag_478\n      jumpi\n        /* \"#utility.yul\":20014:20053   */\n      tag_479\n        /* \"#utility.yul\":20051:20052   */\n      0x00\n        /* \"#utility.yul\":20044:20049   */\n      dup3\n        /* \"#utility.yul\":20014:20053   */\n      tag_251\n      jump\t// in\n    tag_479:\n        /* \"#utility.yul\":19987:19988   */\n      0x01\n        /* \"#utility.yul\":19980:19985   */\n      dup2\n        /* \"#utility.yul\":19976:19989   */\n      add\n        /* \"#utility.yul\":19967:19989   */\n      swap1\n      pop\n        /* \"#utility.yul\":19943:20063   */\n      jump(tag_476)\n    tag_478:\n        /* \"#utility.yul\":19883:20069   */\n      pop\n      pop\n      jump\t// out\n        /* \"#utility.yul\":20075:20618   */\n    tag_253:\n        /* \"#utility.yul\":20176:20178   */\n      0x1f\n        /* \"#utility.yul\":20171:20174   */\n      dup3\n        /* \"#utility.yul\":20168:20179   */\n      gt\n        /* \"#utility.yul\":20165:20611   */\n      iszero\n      tag_481\n      jumpi\n        /* \"#utility.yul\":20210:20248   */\n      tag_482\n        /* \"#utility.yul\":20242:20247   */\n      dup2\n        /* \"#utility.yul\":20210:20248   */\n      tag_243\n      jump\t// in\n    tag_482:\n        /* \"#utility.yul\":20294:20323   */\n      tag_483\n        /* \"#utility.yul\":20312:20322   */\n      dup5\n        /* \"#utility.yul\":20294:20323   */\n      tag_244\n      jump\t// in\n    tag_483:\n        /* \"#utility.yul\":20284:20292   */\n      dup2\n        /* \"#utility.yul\":20280:20324   */\n      add\n        /* \"#utility.yul\":20477:20479   */\n      0x20\n        /* \"#utility.yul\":20465:20475   */\n      dup6\n        /* \"#utility.yul\":20462:20480   */\n      lt\n        /* \"#utility.yul\":20459:20508   */\n      iszero\n      tag_484\n      jumpi\n        /* \"#utility.yul\":20498:20506   */\n      dup2\n        /* \"#utility.yul\":20483:20506   */\n      swap1\n      pop\n        /* \"#utility.yul\":20459:20508   */\n    tag_484:\n        /* \"#utility.yul\":20521:20601   */\n      tag_485\n        /* \"#utility.yul\":20577:20599   */\n      tag_486\n        /* \"#utility.yul\":20595:20598   */\n      dup6\n        /* \"#utility.yul\":20577:20599   */\n      tag_244\n      jump\t// in\n    tag_486:\n        /* \"#utility.yul\":20567:20575   */\n      dup4\n        /* \"#utility.yul\":20563:20600   */\n      add\n        /* \"#utility.yul\":20550:20561   */\n      dup3\n        /* \"#utility.yul\":20521:20601   */\n      tag_252\n      jump\t// in\n    tag_485:\n        /* \"#utility.yul\":20180:20611   */\n      pop\n      pop\n        /* \"#utility.yul\":20165:20611   */\n    tag_481:\n        /* \"#utility.yul\":20075:20618   */\n      pop\n      pop\n      pop\n      jump\t// out\n        /* \"#utility.yul\":20624:20741   */\n    tag_254:\n        /* \"#utility.yul\":20678:20686   */\n      0x00\n        /* \"#utility.yul\":20728:20733   */\n      dup3\n        /* \"#utility.yul\":20722:20726   */\n      dup3\n        /* \"#utility.yul\":20718:20734   */\n      shr\n        /* \"#utility.yul\":20697:20734   */\n      swap1\n      pop\n        /* \"#utility.yul\":20624:20741   */\n      swap3\n      swap2\n      pop\n      pop\n      jump\t// out\n        /* \"#utility.yul\":20747:20916   */\n    tag_255:\n        /* \"#utility.yul\":20791:20797   */\n      0x00\n        /* \"#utility.yul\":20824:20875   */\n      tag_489\n        /* \"#utility.yul\":20872:20873   */\n      0x00\n        /* \"#utility.yul\":20868:20874   */\n      not\n        /* \"#utility.yul\":20860:20865   */\n      dup5\n        /* \"#utility.yul\":20857:20858   */\n      0x08\n        /* \"#utility.yul\":20853:20866   */\n      mul\n        /* \"#utility.yul\":20824:20875   */\n      tag_254\n      jump\t// in\n    tag_489:\n        /* \"#utility.yul\":20820:20876   */\n      not\n        /* \"#utility.yul\":20905:20909   */\n      dup1\n        /* \"#utility.yul\":20899:20903   */\n      dup4\n        /* \"#utility.yul\":20895:20910   */\n      and\n        /* \"#utility.yul\":20885:20910   */\n      swap2\n      pop\n        /* \"#utility.yul\":20798:20916   */\n      pop\n        /* \"#utility.yul\":20747:20916   */\n      swap3\n      swap2\n      pop\n      pop\n      jump\t// out\n        /* \"#utility.yul\":20921:21216   */\n    tag_256:\n        /* \"#utility.yul\":20997:21001   */\n      0x00\n        /* \"#utility.yul\":21143:21172   */\n      tag_491\n        /* \"#utility.yul\":21168:21171   */\n      dup4\n        /* \"#utility.yul\":21162:21166   */\n      dup4\n        /* \"#utility.yul\":21143:21172   */\n      tag_255\n      jump\t// in\n    tag_491:\n        /* \"#utility.yul\":21135:21172   */\n      swap2\n      pop\n        /* \"#utility.yul\":21205:21208   */\n      dup3\n        /* \"#utility.yul\":21202:21203   */\n      0x02\n        /* \"#utility.yul\":21198:21209   */\n      mul\n        /* \"#utility.yul\":21192:21196   */\n      dup3\n        /* \"#utility.yul\":21189:21210   */\n      or\n        /* \"#utility.yul\":21181:21210   */\n      swap1\n      pop\n        /* \"#utility.yul\":20921:21216   */\n      swap3\n      swap2\n      pop\n      pop\n      jump\t// out\n        /* \"#utility.yul\":21221:22616   */\n    tag_169:\n        /* \"#utility.yul\":21338:21375   */\n      tag_493\n        /* \"#utility.yul\":21371:21374   */\n      dup3\n        /* \"#utility.yul\":21338:21375   */\n      tag_221\n      jump\t// in\n    tag_493:\n        /* \"#utility.yul\":21440:21458   */\n      0xffffffffffffffff\n        /* \"#utility.yul\":21432:21438   */\n      dup2\n        /* \"#utility.yul\":21429:21459   */\n      gt\n        /* \"#utility.yul\":21426:21482   */\n      iszero\n      tag_494\n      jumpi\n        /* \"#utility.yul\":21462:21480   */\n      tag_495\n      tag_214\n      jump\t// in\n    tag_495:\n        /* \"#utility.yul\":21426:21482   */\n    tag_494:\n        /* \"#utility.yul\":21506:21544   */\n      tag_496\n        /* \"#utility.yul\":21538:21542   */\n      dup3\n        /* \"#utility.yul\":21532:21543   */\n      sload\n        /* \"#utility.yul\":21506:21544   */\n      tag_173\n      jump\t// in\n    tag_496:\n        /* \"#utility.yul\":21591:21658   */\n      tag_497\n        /* \"#utility.yul\":21651:21657   */\n      dup3\n        /* \"#utility.yul\":21643:21649   */\n      dup3\n        /* \"#utility.yul\":21637:21641   */\n      dup6\n        /* \"#utility.yul\":21591:21658   */\n      tag_253\n      jump\t// in\n    tag_497:\n        /* \"#utility.yul\":21685:21686   */\n      0x00\n        /* \"#utility.yul\":21709:21713   */\n      0x20\n        /* \"#utility.yul\":21696:21713   */\n      swap1\n      pop\n        /* \"#utility.yul\":21741:21743   */\n      0x1f\n        /* \"#utility.yul\":21733:21739   */\n      dup4\n        /* \"#utility.yul\":21730:21744   */\n      gt\n        /* \"#utility.yul\":21758:21759   */\n      0x01\n        /* \"#utility.yul\":21753:22371   */\n      dup2\n      eq\n      tag_499\n      jumpi\n        /* \"#utility.yul\":22415:22416   */\n      0x00\n        /* \"#utility.yul\":22432:22438   */\n      dup5\n        /* \"#utility.yul\":22429:22506   */\n      iszero\n      tag_500\n      jumpi\n        /* \"#utility.yul\":22481:22490   */\n      dup3\n        /* \"#utility.yul\":22476:22479   */\n      dup8\n        /* \"#utility.yul\":22472:22491   */\n      add\n        /* \"#utility.yul\":22466:22492   */\n      mload\n        /* \"#utility.yul\":22457:22492   */\n      swap1\n      pop\n        /* \"#utility.yul\":22429:22506   */\n    tag_500:\n        /* \"#utility.yul\":22532:22599   */\n      tag_501\n        /* \"#utility.yul\":22592:22598   */\n      dup6\n        /* \"#utility.yul\":22585:22590   */\n      dup3\n        /* \"#utility.yul\":22532:22599   */\n      tag_256\n      jump\t// in\n    tag_501:\n        /* \"#utility.yul\":22526:22530   */\n      dup7\n        /* \"#utility.yul\":22519:22600   */\n      sstore\n        /* \"#utility.yul\":22388:22610   */\n      pop\n        /* \"#utility.yul\":21723:22610   */\n      jump(tag_498)\n        /* \"#utility.yul\":21753:22371   */\n    tag_499:\n        /* \"#utility.yul\":21805:21809   */\n      0x1f\n        /* \"#utility.yul\":21801:21810   */\n      not\n        /* \"#utility.yul\":21793:21799   */\n      dup5\n        /* \"#utility.yul\":21789:21811   */\n      and\n        /* \"#utility.yul\":21839:21876   */\n      tag_502\n        /* \"#utility.yul\":21871:21875   */\n      dup7\n        /* \"#utility.yul\":21839:21876   */\n      tag_243\n      jump\t// in\n    tag_502:\n        /* \"#utility.yul\":21898:21899   */\n      0x00\n        /* \"#utility.yul\":21912:22120   */\n    tag_503:\n        /* \"#utility.yul\":21926:21933   */\n      dup3\n        /* \"#utility.yul\":21923:21924   */\n      dup2\n        /* \"#utility.yul\":21920:21934   */\n      lt\n        /* \"#utility.yul\":21912:22120   */\n      iszero\n      tag_505\n      jumpi\n        /* \"#utility.yul\":22005:22014   */\n      dup5\n        /* \"#utility.yul\":22000:22003   */\n      dup10\n        /* \"#utility.yul\":21996:22015   */\n      add\n        /* \"#utility.yul\":21990:22016   */\n      mload\n        /* \"#utility.yul\":21982:21988   */\n      dup3\n        /* \"#utility.yul\":21975:22017   */\n      sstore\n        /* \"#utility.yul\":22056:22057   */\n      0x01\n        /* \"#utility.yul\":22048:22054   */\n      dup3\n        /* \"#utility.yul\":22044:22058   */\n      add\n        /* \"#utility.yul\":22034:22058   */\n      swap2\n      pop\n        /* \"#utility.yul\":22103:22105   */\n      0x20\n        /* \"#utility.yul\":22092:22101   */\n      dup6\n        /* \"#utility.yul\":22088:22106   */\n      add\n        /* \"#utility.yul\":22075:22106   */\n      swap5\n      pop\n        /* \"#utility.yul\":21949:21953   */\n      0x20\n        /* \"#utility.yul\":21946:21947   */\n      dup2\n        /* \"#utility.yul\":21942:21954   */\n      add\n        /* \"#utility.yul\":21937:21954   */\n      swap1\n      pop\n        /* \"#utility.yul\":21912:22120   */\n      jump(tag_503)\n    tag_505:\n        /* \"#utility.yul\":22148:22154   */\n      dup7\n        /* \"#utility.yul\":22139:22146   */\n      dup4\n        /* \"#utility.yul\":22136:22155   */\n      lt\n        /* \"#utility.yul\":22133:22312   */\n      iszero\n      tag_506\n      jumpi\n        /* \"#utility.yul\":22206:22215   */\n      dup5\n        /* \"#utility.yul\":22201:22204   */\n      dup10\n        /* \"#utility.yul\":22197:22216   */\n      add\n        /* \"#utility.yul\":22191:22217   */\n      mload\n        /* \"#utility.yul\":22249:22297   */\n      tag_507\n        /* \"#utility.yul\":22291:22295   */\n      0x1f\n        /* \"#utility.yul\":22283:22289   */\n      dup10\n        /* \"#utility.yul\":22279:22296   */\n      and\n        /* \"#utility.yul\":22268:22277   */\n      dup3\n        /* \"#utility.yul\":22249:22297   */\n      tag_255\n      jump\t// in\n    tag_507:\n        /* \"#utility.yul\":22241:22247   */\n      dup4\n        /* \"#utility.yul\":22234:22298   */\n      sstore\n        /* \"#utility.yul\":22156:22312   */\n      pop\n        /* \"#utility.yul\":22133:22312   */\n    tag_506:\n        /* \"#utility.yul\":22358:22359   */\n      0x01\n        /* \"#utility.yul\":22354:22355   */\n      0x02\n        /* \"#utility.yul\":22346:22352   */\n      dup9\n        /* \"#utility.yul\":22342:22356   */\n      mul\n        /* \"#utility.yul\":22338:22360   */\n      add\n        /* \"#utility.yul\":22332:22336   */\n      dup9\n        /* \"#utility.yul\":22325:22361   */\n      sstore\n        /* \"#utility.yul\":21760:22371   */\n      pop\n      pop\n      pop\n        /* \"#utility.yul\":21723:22610   */\n    tag_498:\n      pop\n        /* \"#utility.yul\":21313:22616   */\n      pop\n      pop\n      pop\n        /* \"#utility.yul\":21221:22616   */\n      pop\n      pop\n      jump\t// out\n        /* \"#utility.yul\":22622:22847   */\n    tag_257:\n        /* \"#utility.yul\":22762:22796   */\n      0x4f776e61626c653a206e6577206f776e657220697320746865207a65726f2061\n        /* \"#utility.yul\":22758:22759   */\n      0x00\n        /* \"#utility.yul\":22750:22756   */\n      dup3\n        /* \"#utility.yul\":22746:22760   */\n      add\n        /* \"#utility.yul\":22739:22797   */\n      mstore\n        /* \"#utility.yul\":22831:22839   */\n      0x6464726573730000000000000000000000000000000000000000000000000000\n        /* \"#utility.yul\":22826:22828   */\n      0x20\n        /* \"#utility.yul\":22818:22824   */\n      dup3\n        /* \"#utility.yul\":22814:22829   */\n      add\n        /* \"#utility.yul\":22807:22840   */\n      mstore\n        /* \"#utility.yul\":22622:22847   */\n      pop\n      jump\t// out\n        /* \"#utility.yul\":22853:23219   */\n    tag_258:\n        /* \"#utility.yul\":22995:22998   */\n      0x00\n        /* \"#utility.yul\":23016:23083   */\n      tag_510\n        /* \"#utility.yul\":23080:23082   */\n      0x26\n        /* \"#utility.yul\":23075:23078   */\n      dup4\n        /* \"#utility.yul\":23016:23083   */\n      tag_222\n      jump\t// in\n    tag_510:\n        /* \"#utility.yul\":23009:23083   */\n      swap2\n      pop\n        /* \"#utility.yul\":23092:23185   */\n      tag_511\n        /* \"#utility.yul\":23181:23184   */\n      dup3\n        /* \"#utility.yul\":23092:23185   */\n      tag_257\n      jump\t// in\n    tag_511:\n        /* \"#utility.yul\":23210:23212   */\n      0x40\n        /* \"#utility.yul\":23205:23208   */\n      dup3\n        /* \"#utility.yul\":23201:23213   */\n      add\n        /* \"#utility.yul\":23194:23213   */\n      swap1\n      pop\n        /* \"#utility.yul\":22853:23219   */\n      swap2\n      swap1\n      pop\n      jump\t// out\n        /* \"#utility.yul\":23225:23644   */\n    tag_183:\n        /* \"#utility.yul\":23391:23395   */\n      0x00\n        /* \"#utility.yul\":23429:23431   */\n      0x20\n        /* \"#utility.yul\":23418:23427   */\n      dup3\n        /* \"#utility.yul\":23414:23432   */\n      add\n        /* \"#utility.yul\":23406:23432   */\n      swap1\n      pop\n        /* \"#utility.yul\":23478:23487   */\n      dup2\n        /* \"#utility.yul\":23472:23476   */\n      dup2\n        /* \"#utility.yul\":23468:23488   */\n      sub\n        /* \"#utility.yul\":23464:23465   */\n      0x00\n        /* \"#utility.yul\":23453:23462   */\n      dup4\n        /* \"#utility.yul\":23449:23466   */\n      add\n        /* \"#utility.yul\":23442:23489   */\n      mstore\n        /* \"#utility.yul\":23506:23637   */\n      tag_513\n        /* \"#utility.yul\":23632:23636   */\n      dup2\n        /* \"#utility.yul\":23506:23637   */\n      tag_258\n      jump\t// in\n    tag_513:\n        /* \"#utility.yul\":23498:23637   */\n      swap1\n      pop\n        /* \"#utility.yul\":23225:23644   */\n      swap2\n      swap1\n      pop\n      jump\t// out\n        /* \"#utility.yul\":23650:23832   */\n    tag_259:\n        /* \"#utility.yul\":23790:23824   */\n      0x4f776e61626c653a2063616c6c6572206973206e6f7420746865206f776e6572\n        /* \"#utility.yul\":23786:23787   */\n      0x00\n        /* \"#utility.yul\":23778:23784   */\n      dup3\n        /* \"#utility.yul\":23774:23788   */\n      add\n        /* \"#utility.yul\":23767:23825   */\n      mstore\n        /* \"#utility.yul\":23650:23832   */\n      pop\n      jump\t// out\n        /* \"#utility.yul\":23838:24204   */\n    tag_260:\n        /* \"#utility.yul\":23980:23983   */\n      0x00\n        /* \"#utility.yul\":24001:24068   */\n      tag_516\n        /* \"#utility.yul\":24065:24067   */\n      0x20\n        /* \"#utility.yul\":24060:24063   */\n      dup4\n        /* \"#utility.yul\":24001:24068   */\n      tag_222\n      jump\t// in\n    tag_516:\n        /* \"#utility.yul\":23994:24068   */\n      swap2\n      pop\n        /* \"#utility.yul\":24077:24170   */\n      tag_517\n        /* \"#utility.yul\":24166:24169   */\n      dup3\n        /* \"#utility.yul\":24077:24170   */\n      tag_259\n      jump\t// in\n    tag_517:\n        /* \"#utility.yul\":24195:24197   */\n      0x20\n        /* \"#utility.yul\":24190:24193   */\n      dup3\n        /* \"#utility.yul\":24186:24198   */\n      add\n        /* \"#utility.yul\":24179:24198   */\n      swap1\n      pop\n        /* \"#utility.yul\":23838:24204   */\n      swap2\n      swap1\n      pop\n      jump\t// out\n        /* \"#utility.yul\":24210:24629   */\n    tag_191:\n        /* \"#utility.yul\":24376:24380   */\n      0x00\n        /* \"#utility.yul\":24414:24416   */\n      0x20\n        /* \"#utility.yul\":24403:24412   */\n      dup3\n        /* \"#utility.yul\":24399:24417   */\n      add\n        /* \"#utility.yul\":24391:24417   */\n      swap1\n      pop\n        /* \"#utility.yul\":24463:24472   */\n      dup2\n        /* \"#utility.yul\":24457:24461   */\n      dup2\n        /* \"#utility.yul\":24453:24473   */\n      sub\n        /* \"#utility.yul\":24449:24450   */\n      0x00\n        /* \"#utility.yul\":24438:24447   */\n      dup4\n        /* \"#utility.yul\":24434:24451   */\n      add\n        /* \"#utility.yul\":24427:24474   */\n      mstore\n        /* \"#utility.yul\":24491:24622   */\n      tag_519\n        /* \"#utility.yul\":24617:24621   */\n      dup2\n        /* \"#utility.yul\":24491:24622   */\n      tag_260\n      jump\t// in\n    tag_519:\n        /* \"#utility.yul\":24483:24622   */\n      swap1\n      pop\n        /* \"#utility.yul\":24210:24629   */\n      swap2\n      swap1\n      pop\n      jump\t// out\n\n    auxdata: 0xa2646970667358221220bbdead9ee132524ee0c6077308307b8ce58a7d52755010f95c10340a34de19aa64736f6c63430008150033\n}\n",
				"bytecode": {
					"linkReferences": {},
					"object": "608060405234801562000010575f80fd5b5060405162001e8038038062001e80833981810160405281019062000036919062000211565b620000566200004a620000ac60201b60201c565b620000b360201b60201c565b8160015f6101000a81548173ffffffffffffffffffffffffffffffffffffffff021916908373ffffffffffffffffffffffffffffffffffffffff160217905550806002819055505f600381905550505062000256565b5f33905090565b5f805f9054906101000a900473ffffffffffffffffffffffffffffffffffffffff169050815f806101000a81548173ffffffffffffffffffffffffffffffffffffffff021916908373ffffffffffffffffffffffffffffffffffffffff1602179055508173ffffffffffffffffffffffffffffffffffffffff168173ffffffffffffffffffffffffffffffffffffffff167f8be0079c531659141344cd1fd0a4f28419497f9722a3daafe3b4186f6b6457e060405160405180910390a35050565b5f80fd5b5f73ffffffffffffffffffffffffffffffffffffffff82169050919050565b5f620001a38262000178565b9050919050565b620001b58162000197565b8114620001c0575f80fd5b50565b5f81519050620001d381620001aa565b92915050565b5f819050919050565b620001ed81620001d9565b8114620001f8575f80fd5b50565b5f815190506200020b81620001e2565b92915050565b5f80604083850312156200022a576200022962000174565b5b5f6200023985828601620001c3565b92505060206200024c85828601620001fb565b9150509250929050565b611c1c80620002645f395ff3fe608060405234801561000f575f80fd5b5060043610610109575f3560e01c80638d6cc56d116100a0578063c71daccb1161006f578063c71daccb146102a3578063dc3e7bc6146102c1578063edcfafe6146102dd578063f2fde38b14610310578063ffc325d21461032c57610109565b80638d6cc56d1461022f5780638da5cb5b1461024b578063b42cde3314610269578063c40768761461028757610109565b80635d30e84d116100dc5780635d30e84d146101a95780636b1b5a28146101d9578063715018a614610209578063760f2c151461021357610109565b80630c9757651461010d57806330c2c1571461013d5780633a4e74a11461015b5780633e5353ec14610179575b5f80fd5b61012760048036038101906101229190610f03565b61035c565b6040516101349190610f3d565b60405180910390f35b610145610371565b6040516101529190610f3d565b60405180910390f35b610163610377565b6040516101709190610f3d565b60405180910390f35b610193600480360381019061018e9190610fb0565b61037d565b6040516101a09190610f3d565b60405180910390f35b6101c360048036038101906101be9190610f03565b610392565b6040516101d09190610f3d565b60405180910390f35b6101f360048036038101906101ee9190610fb0565b6103a7565b6040516102009190610f3d565b60405180910390f35b6102116103bc565b005b61022d60048036038101906102289190610fdb565b6103cf565b005b61024960048036038101906102449190610f03565b610878565b005b61025361088a565b6040516102609190611028565b60405180910390f35b6102716108b1565b60405161027e919061109c565b60405180910390f35b6102a1600480360381019061029c91906110b5565b6108d6565b005b6102ab61097f565b6040516102b89190610f3d565b60405180910390f35b6102db60048036038101906102d6919061122f565b610a23565b005b6102f760048036038101906102f29190610f03565b610bed565b60405161030794939291906112f0565b60405180910390f35b61032a60048036038101906103259190610fb0565b610ccd565b005b610346600480360381019061034191906110b5565b610d4f565b6040516103539190611354565b60405180910390f35b6007602052805f5260405f205f915090505481565b60025481565b60035481565b6009602052805f5260405f205f915090505481565b6005602052805f5260405f205f915090505481565b6008602052805f5260405f205f915090505481565b6103c4610d79565b6103cd5f610df7565b565b5f821180156103e057506003548211155b61041f576040517f08c379a0000000000000000000000000000000000000000000000000000000008152600401610416906113b7565b60405180910390fd5b60018110158015610431575060058111155b610470576040517f08c379a000000000000000000000000000000000000000000000000000000000815260040161046790611445565b60405180910390fd5b60065f3373ffffffffffffffffffffffffffffffffffffffff1673ffffffffffffffffffffffffffffffffffffffff1681526020019081526020015f205f8381526020019081526020015f205f9054906101000a900460ff1615610509576040517f08c379a0000000000000000000000000000000000000000000000000000000008152600401610500906114ad565b60405180910390fd5b5f60015f9054906101000a900473ffffffffffffffffffffffffffffffffffffffff1673ffffffffffffffffffffffffffffffffffffffff166370a08231336040518263ffffffff1660e01b81526004016105649190611028565b602060405180830381865afa15801561057f573d5f803e3d5ffd5b505050506040513d601f19601f820116820180604052508101906105a391906114df565b116105e3576040517f08c379a00000000000000000000000000000000000000000000000000000000081526004016105da90611554565b60405180910390fd5b5f60015f9054906101000a900473ffffffffffffffffffffffffffffffffffffffff1673ffffffffffffffffffffffffffffffffffffffff166370a08231336040518263ffffffff1660e01b815260040161063e9190611028565b602060405180830381865afa158015610659573d5f803e3d5ffd5b505050506040513d601f19601f8201168201806040525081019061067d91906114df565b90505f60015f9054906101000a900473ffffffffffffffffffffffffffffffffffffffff1673ffffffffffffffffffffffffffffffffffffffff166318160ddd6040518163ffffffff1660e01b8152600401602060405180830381865afa1580156106ea573d5f803e3d5ffd5b505050506040513d601f19601f8201168201806040525081019061070e91906114df565b90505f8169d3c21bcecceda100000084610728919061159f565b610732919061160d565b90505f60648286610743919061159f565b61074d919061160d565b90508060055f8881526020019081526020015f205f82825461076f919061163d565b9250508190555060075f8781526020019081526020015f205f81548092919061079790611670565b91905055505f60055f8881526020019081526020015f205490505f60075f8981526020019081526020015f205490505f81836107d3919061160d565b905080600460018b6107e591906116b7565b815481106107f6576107f56116ea565b5b905f5260205f20906004020160030181905550600160065f3373ffffffffffffffffffffffffffffffffffffffff1673ffffffffffffffffffffffffffffffffffffffff1681526020019081526020015f205f8b81526020019081526020015f205f6101000a81548160ff021916908315150217905550505050505050505050565b610880610d79565b8060028190555050565b5f805f9054906101000a900473ffffffffffffffffffffffffffffffffffffffff16905090565b60015f9054906101000a900473ffffffffffffffffffffffffffffffffffffffff1681565b6108de610d79565b60015f9054906101000a900473ffffffffffffffffffffffffffffffffffffffff1673ffffffffffffffffffffffffffffffffffffffff1663a9059cbb83836040518363ffffffff1660e01b815260040161093a929190611717565b6020604051808303815f875af1158015610956573d5f803e3d5ffd5b505050506040513d601f19601f8201168201806040525081019061097a9190611768565b505050565b5f8060015f9054906101000a900473ffffffffffffffffffffffffffffffffffffffff1673ffffffffffffffffffffffffffffffffffffffff166370a08231306040518263ffffffff1660e01b81526004016109db9190611028565b602060405180830381865afa1580156109f6573d5f803e3d5ffd5b505050506040513d601f19601f82011682018060405250810190610a1a91906114df565b90508091505090565b60015f9054906101000a900473ffffffffffffffffffffffffffffffffffffffff1673ffffffffffffffffffffffffffffffffffffffff166323b872dd33306002546040518463ffffffff1660e01b8152600401610a8393929190611793565b6020604051808303815f875af1158015610a9f573d5f803e3d5ffd5b505050506040513d601f19601f82011682018060405250810190610ac39190611768565b610b02576040517f08c379a0000000000000000000000000000000000000000000000000000000008152600401610af990611812565b60405180910390fd5b60035f815480929190610b1490611670565b9190505550600460405180608001604052803373ffffffffffffffffffffffffffffffffffffffff16815260200183815260200160035481526020015f815250908060018154018082558091505060019003905f5260205f2090600402015f909190919091505f820151815f015f6101000a81548173ffffffffffffffffffffffffffffffffffffffff021916908373ffffffffffffffffffffffffffffffffffffffff1602179055506020820151816001019081610bd39190611a21565b506040820151816002015560608201518160030155505050565b60048181548110610bfc575f80fd5b905f5260205f2090600402015f91509050805f015f9054906101000a900473ffffffffffffffffffffffffffffffffffffffff1690806001018054610c409061185d565b80601f0160208091040260200160405190810160405280929190818152602001828054610c6c9061185d565b8015610cb75780601f10610c8e57610100808354040283529160200191610cb7565b820191905f5260205f20905b815481529060010190602001808311610c9a57829003601f168201915b5050505050908060020154908060030154905084565b610cd5610d79565b5f73ffffffffffffffffffffffffffffffffffffffff168173ffffffffffffffffffffffffffffffffffffffff1603610d43576040517f08c379a0000000000000000000000000000000000000000000000000000000008152600401610d3a90611b60565b60405180910390fd5b610d4c81610df7565b50565b6006602052815f5260405f20602052805f5260405f205f915091509054906101000a900460ff1681565b610d81610eb8565b73ffffffffffffffffffffffffffffffffffffffff16610d9f61088a565b73ffffffffffffffffffffffffffffffffffffffff1614610df5576040517f08c379a0000000000000000000000000000000000000000000000000000000008152600401610dec90611bc8565b60405180910390fd5b565b5f805f9054906101000a900473ffffffffffffffffffffffffffffffffffffffff169050815f806101000a81548173ffffffffffffffffffffffffffffffffffffffff021916908373ffffffffffffffffffffffffffffffffffffffff1602179055508173ffffffffffffffffffffffffffffffffffffffff168173ffffffffffffffffffffffffffffffffffffffff167f8be0079c531659141344cd1fd0a4f28419497f9722a3daafe3b4186f6b6457e060405160405180910390a35050565b5f33905090565b5f604051905090565b5f80fd5b5f80fd5b5f819050919050565b610ee281610ed0565b8114610eec575f80fd5b50565b5f81359050610efd81610ed9565b92915050565b5f60208284031215610f1857610f17610ec8565b5b5f610f2584828501610eef565b91505092915050565b610f3781610ed0565b82525050565b5f602082019050610f505f830184610f2e565b92915050565b5f73ffffffffffffffffffffffffffffffffffffffff82169050919050565b5f610f7f82610f56565b9050919050565b610f8f81610f75565b8114610f99575f80fd5b50565b5f81359050610faa81610f86565b92915050565b5f60208284031215610fc557610fc4610ec8565b5b5f610fd284828501610f9c565b91505092915050565b5f8060408385031215610ff157610ff0610ec8565b5b5f610ffe85828601610eef565b925050602061100f85828601610eef565b9150509250929050565b61102281610f75565b82525050565b5f60208201905061103b5f830184611019565b92915050565b5f819050919050565b5f61106461105f61105a84610f56565b611041565b610f56565b9050919050565b5f6110758261104a565b9050919050565b5f6110868261106b565b9050919050565b6110968161107c565b82525050565b5f6020820190506110af5f83018461108d565b92915050565b5f80604083850312156110cb576110ca610ec8565b5b5f6110d885828601610f9c565b92505060206110e985828601610eef565b9150509250929050565b5f80fd5b5f80fd5b5f601f19601f8301169050919050565b7f4e487b71000000000000000000000000000000000000000000000000000000005f52604160045260245ffd5b611141826110fb565b810181811067ffffffffffffffff821117156111605761115f61110b565b5b80604052505050565b5f611172610ebf565b905061117e8282611138565b919050565b5f67ffffffffffffffff82111561119d5761119c61110b565b5b6111a6826110fb565b9050602081019050919050565b828183375f83830152505050565b5f6111d36111ce84611183565b611169565b9050828152602081018484840111156111ef576111ee6110f7565b5b6111fa8482856111b3565b509392505050565b5f82601f830112611216576112156110f3565b5b81356112268482602086016111c1565b91505092915050565b5f6020828403121561124457611243610ec8565b5b5f82013567ffffffffffffffff81111561126157611260610ecc565b5b61126d84828501611202565b91505092915050565b5f81519050919050565b5f82825260208201905092915050565b5f5b838110156112ad578082015181840152602081019050611292565b5f8484015250505050565b5f6112c282611276565b6112cc8185611280565b93506112dc818560208601611290565b6112e5816110fb565b840191505092915050565b5f6080820190506113035f830187611019565b818103602083015261131581866112b8565b90506113246040830185610f2e565b6113316060830184610f2e565b95945050505050565b5f8115159050919050565b61134e8161133a565b82525050565b5f6020820190506113675f830184611345565b92915050565b7f4944206465206172746963756c6f206e6f2076616c69646f00000000000000005f82015250565b5f6113a1601883611280565b91506113ac8261136d565b602082019050919050565b5f6020820190508181035f8301526113ce81611395565b9050919050565b7f43616c696669636163696f6e206e6f2076616c6964613b2064656265206573745f8201527f617220656e747265203120792035000000000000000000000000000000000000602082015250565b5f61142f602e83611280565b915061143a826113d5565b604082019050919050565b5f6020820190508181035f83015261145c81611423565b9050919050565b7f5961206861732063616c6966696361646f2065737465206172746963756c6f005f82015250565b5f611497601f83611280565b91506114a282611463565b602082019050919050565b5f6020820190508181035f8301526114c48161148b565b9050919050565b5f815190506114d981610ed9565b92915050565b5f602082840312156114f4576114f3610ec8565b5b5f611501848285016114cb565b91505092915050565b7f53616c646f20646520746f6b656e7320696e737566696369656e7465000000005f82015250565b5f61153e601c83611280565b91506115498261150a565b602082019050919050565b5f6020820190508181035f83015261156b81611532565b9050919050565b7f4e487b71000000000000000000000000000000000000000000000000000000005f52601160045260245ffd5b5f6115a982610ed0565b91506115b483610ed0565b92508282026115c281610ed0565b915082820484148315176115d9576115d8611572565b5b5092915050565b7f4e487b71000000000000000000000000000000000000000000000000000000005f52601260045260245ffd5b5f61161782610ed0565b915061162283610ed0565b925082611632576116316115e0565b5b828204905092915050565b5f61164782610ed0565b915061165283610ed0565b925082820190508082111561166a57611669611572565b5b92915050565b5f61167a82610ed0565b91507fffffffffffffffffffffffffffffffffffffffffffffffffffffffffffffffff82036116ac576116ab611572565b5b600182019050919050565b5f6116c182610ed0565b91506116cc83610ed0565b92508282039050818111156116e4576116e3611572565b5b92915050565b7f4e487b71000000000000000000000000000000000000000000000000000000005f52603260045260245ffd5b5f60408201905061172a5f830185611019565b6117376020830184610f2e565b9392505050565b6117478161133a565b8114611751575f80fd5b50565b5f815190506117628161173e565b92915050565b5f6020828403121561177d5761177c610ec8565b5b5f61178a84828501611754565b91505092915050565b5f6060820190506117a65f830186611019565b6117b36020830185611019565b6117c06040830184610f2e565b949350505050565b7f4661696c656420746f207472616e7366657220746f6b656e73000000000000005f82015250565b5f6117fc601983611280565b9150611807826117c8565b602082019050919050565b5f6020820190508181035f830152611829816117f0565b9050919050565b7f4e487b71000000000000000000000000000000000000000000000000000000005f52602260045260245ffd5b5f600282049050600182168061187457607f821691505b60208210810361188757611886611830565b5b50919050565b5f819050815f5260205f209050919050565b5f6020601f8301049050919050565b5f82821b905092915050565b5f600883026118e97fffffffffffffffffffffffffffffffffffffffffffffffffffffffffffffffff826118ae565b6118f386836118ae565b95508019841693508086168417925050509392505050565b5f61192561192061191b84610ed0565b611041565b610ed0565b9050919050565b5f819050919050565b61193e8361190b565b61195261194a8261192c565b8484546118ba565b825550505050565b5f90565b61196661195a565b611971818484611935565b505050565b5b81811015611994576119895f8261195e565b600181019050611977565b5050565b601f8211156119d9576119aa8161188d565b6119b38461189f565b810160208510156119c2578190505b6119d66119ce8561189f565b830182611976565b50505b505050565b5f82821c905092915050565b5f6119f95f19846008026119de565b1980831691505092915050565b5f611a1183836119ea565b9150826002028217905092915050565b611a2a82611276565b67ffffffffffffffff811115611a4357611a4261110b565b5b611a4d825461185d565b611a58828285611998565b5f60209050601f831160018114611a89575f8415611a77578287015190505b611a818582611a06565b865550611ae8565b601f198416611a978661188d565b5f5b82811015611abe57848901518255600182019150602085019450602081019050611a99565b86831015611adb5784890151611ad7601f8916826119ea565b8355505b6001600288020188555050505b505050505050565b7f4f776e61626c653a206e6577206f776e657220697320746865207a65726f20615f8201527f6464726573730000000000000000000000000000000000000000000000000000602082015250565b5f611b4a602683611280565b9150611b5582611af0565b604082019050919050565b5f6020820190508181035f830152611b7781611b3e565b9050919050565b7f4f776e61626c653a2063616c6c6572206973206e6f7420746865206f776e65725f82015250565b5f611bb2602083611280565b9150611bbd82611b7e565b602082019050919050565b5f6020820190508181035f830152611bdf81611ba6565b905091905056fea2646970667358221220bbdead9ee132524ee0c6077308307b8ce58a7d52755010f95c10340a34de19aa64736f6c63430008150033",
					"opcodes": "PUSH1 0x80 PUSH1 0x40 MSTORE CALLVALUE DUP1 ISZERO PUSH3 0x10 JUMPI PUSH0 DUP1 REVERT JUMPDEST POP PUSH1 0x40 MLOAD PUSH3 0x1E80 CODESIZE SUB DUP1 PUSH3 0x1E80 DUP4 CODECOPY DUP2 DUP2 ADD PUSH1 0x40 MSTORE DUP2 ADD SWAP1 PUSH3 0x36 SWAP2 SWAP1 PUSH3 0x211 JUMP JUMPDEST PUSH3 0x56 PUSH3 0x4A PUSH3 0xAC PUSH1 0x20 SHL PUSH1 0x20 SHR JUMP JUMPDEST PUSH3 0xB3 PUSH1 0x20 SHL PUSH1 0x20 SHR JUMP JUMPDEST DUP2 PUSH1 0x1 PUSH0 PUSH2 0x100 EXP DUP2 SLOAD DUP2 PUSH20 0xFFFFFFFFFFFFFFFFFFFFFFFFFFFFFFFFFFFFFFFF MUL NOT AND SWAP1 DUP4 PUSH20 0xFFFFFFFFFFFFFFFFFFFFFFFFFFFFFFFFFFFFFFFF AND MUL OR SWAP1 SSTORE POP DUP1 PUSH1 0x2 DUP2 SWAP1 SSTORE POP PUSH0 PUSH1 0x3 DUP2 SWAP1 SSTORE POP POP POP PUSH3 0x256 JUMP JUMPDEST PUSH0 CALLER SWAP1 POP SWAP1 JUMP JUMPDEST PUSH0 DUP1 PUSH0 SWAP1 SLOAD SWAP1 PUSH2 0x100 EXP SWAP1 DIV PUSH20 0xFFFFFFFFFFFFFFFFFFFFFFFFFFFFFFFFFFFFFFFF AND SWAP1 POP DUP2 PUSH0 DUP1 PUSH2 0x100 EXP DUP2 SLOAD DUP2 PUSH20 0xFFFFFFFFFFFFFFFFFFFFFFFFFFFFFFFFFFFFFFFF MUL NOT AND SWAP1 DUP4 PUSH20 0xFFFFFFFFFFFFFFFFFFFFFFFFFFFFFFFFFFFFFFFF AND MUL OR SWAP1 SSTORE POP DUP2 PUSH20 0xFFFFFFFFFFFFFFFFFFFFFFFFFFFFFFFFFFFFFFFF AND DUP2 PUSH20 0xFFFFFFFFFFFFFFFFFFFFFFFFFFFFFFFFFFFFFFFF AND PUSH32 0x8BE0079C531659141344CD1FD0A4F28419497F9722A3DAAFE3B4186F6B6457E0 PUSH1 0x40 MLOAD PUSH1 0x40 MLOAD DUP1 SWAP2 SUB SWAP1 LOG3 POP POP JUMP JUMPDEST PUSH0 DUP1 REVERT JUMPDEST PUSH0 PUSH20 0xFFFFFFFFFFFFFFFFFFFFFFFFFFFFFFFFFFFFFFFF DUP3 AND SWAP1 POP SWAP2 SWAP1 POP JUMP JUMPDEST PUSH0 PUSH3 0x1A3 DUP3 PUSH3 0x178 JUMP JUMPDEST SWAP1 POP SWAP2 SWAP1 POP JUMP JUMPDEST PUSH3 0x1B5 DUP2 PUSH3 0x197 JUMP JUMPDEST DUP2 EQ PUSH3 0x1C0 JUMPI PUSH0 DUP1 REVERT JUMPDEST POP JUMP JUMPDEST PUSH0 DUP2 MLOAD SWAP1 POP PUSH3 0x1D3 DUP2 PUSH3 0x1AA JUMP JUMPDEST SWAP3 SWAP2 POP POP JUMP JUMPDEST PUSH0 DUP2 SWAP1 POP SWAP2 SWAP1 POP JUMP JUMPDEST PUSH3 0x1ED DUP2 PUSH3 0x1D9 JUMP JUMPDEST DUP2 EQ PUSH3 0x1F8 JUMPI PUSH0 DUP1 REVERT JUMPDEST POP JUMP JUMPDEST PUSH0 DUP2 MLOAD SWAP1 POP PUSH3 0x20B DUP2 PUSH3 0x1E2 JUMP JUMPDEST SWAP3 SWAP2 POP POP JUMP JUMPDEST PUSH0 DUP1 PUSH1 0x40 DUP4 DUP6 SUB SLT ISZERO PUSH3 0x22A JUMPI PUSH3 0x229 PUSH3 0x174 JUMP JUMPDEST JUMPDEST PUSH0 PUSH3 0x239 DUP6 DUP3 DUP7 ADD PUSH3 0x1C3 JUMP JUMPDEST SWAP3 POP POP PUSH1 0x20 PUSH3 0x24C DUP6 DUP3 DUP7 ADD PUSH3 0x1FB JUMP JUMPDEST SWAP2 POP POP SWAP3 POP SWAP3 SWAP1 POP JUMP JUMPDEST PUSH2 0x1C1C DUP1 PUSH3 0x264 PUSH0 CODECOPY PUSH0 RETURN INVALID PUSH1 0x80 PUSH1 0x40 MSTORE CALLVALUE DUP1 ISZERO PUSH2 0xF JUMPI PUSH0 DUP1 REVERT JUMPDEST POP PUSH1 0x4 CALLDATASIZE LT PUSH2 0x109 JUMPI PUSH0 CALLDATALOAD PUSH1 0xE0 SHR DUP1 PUSH4 0x8D6CC56D GT PUSH2 0xA0 JUMPI DUP1 PUSH4 0xC71DACCB GT PUSH2 0x6F JUMPI DUP1 PUSH4 0xC71DACCB EQ PUSH2 0x2A3 JUMPI DUP1 PUSH4 0xDC3E7BC6 EQ PUSH2 0x2C1 JUMPI DUP1 PUSH4 0xEDCFAFE6 EQ PUSH2 0x2DD JUMPI DUP1 PUSH4 0xF2FDE38B EQ PUSH2 0x310 JUMPI DUP1 PUSH4 0xFFC325D2 EQ PUSH2 0x32C JUMPI PUSH2 0x109 JUMP JUMPDEST DUP1 PUSH4 0x8D6CC56D EQ PUSH2 0x22F JUMPI DUP1 PUSH4 0x8DA5CB5B EQ PUSH2 0x24B JUMPI DUP1 PUSH4 0xB42CDE33 EQ PUSH2 0x269 JUMPI DUP1 PUSH4 0xC4076876 EQ PUSH2 0x287 JUMPI PUSH2 0x109 JUMP JUMPDEST DUP1 PUSH4 0x5D30E84D GT PUSH2 0xDC JUMPI DUP1 PUSH4 0x5D30E84D EQ PUSH2 0x1A9 JUMPI DUP1 PUSH4 0x6B1B5A28 EQ PUSH2 0x1D9 JUMPI DUP1 PUSH4 0x715018A6 EQ PUSH2 0x209 JUMPI DUP1 PUSH4 0x760F2C15 EQ PUSH2 0x213 JUMPI PUSH2 0x109 JUMP JUMPDEST DUP1 PUSH4 0xC975765 EQ PUSH2 0x10D JUMPI DUP1 PUSH4 0x30C2C157 EQ PUSH2 0x13D JUMPI DUP1 PUSH4 0x3A4E74A1 EQ PUSH2 0x15B JUMPI DUP1 PUSH4 0x3E5353EC EQ PUSH2 0x179 JUMPI JUMPDEST PUSH0 DUP1 REVERT JUMPDEST PUSH2 0x127 PUSH1 0x4 DUP1 CALLDATASIZE SUB DUP2 ADD SWAP1 PUSH2 0x122 SWAP2 SWAP1 PUSH2 0xF03 JUMP JUMPDEST PUSH2 0x35C JUMP JUMPDEST PUSH1 0x40 MLOAD PUSH2 0x134 SWAP2 SWAP1 PUSH2 0xF3D JUMP JUMPDEST PUSH1 0x40 MLOAD DUP1 SWAP2 SUB SWAP1 RETURN JUMPDEST PUSH2 0x145 PUSH2 0x371 JUMP JUMPDEST PUSH1 0x40 MLOAD PUSH2 0x152 SWAP2 SWAP1 PUSH2 0xF3D JUMP JUMPDEST PUSH1 0x40 MLOAD DUP1 SWAP2 SUB SWAP1 RETURN JUMPDEST PUSH2 0x163 PUSH2 0x377 JUMP JUMPDEST PUSH1 0x40 MLOAD PUSH2 0x170 SWAP2 SWAP1 PUSH2 0xF3D JUMP JUMPDEST PUSH1 0x40 MLOAD DUP1 SWAP2 SUB SWAP1 RETURN JUMPDEST PUSH2 0x193 PUSH1 0x4 DUP1 CALLDATASIZE SUB DUP2 ADD SWAP1 PUSH2 0x18E SWAP2 SWAP1 PUSH2 0xFB0 JUMP JUMPDEST PUSH2 0x37D JUMP JUMPDEST PUSH1 0x40 MLOAD PUSH2 0x1A0 SWAP2 SWAP1 PUSH2 0xF3D JUMP JUMPDEST PUSH1 0x40 MLOAD DUP1 SWAP2 SUB SWAP1 RETURN JUMPDEST PUSH2 0x1C3 PUSH1 0x4 DUP1 CALLDATASIZE SUB DUP2 ADD SWAP1 PUSH2 0x1BE SWAP2 SWAP1 PUSH2 0xF03 JUMP JUMPDEST PUSH2 0x392 JUMP JUMPDEST PUSH1 0x40 MLOAD PUSH2 0x1D0 SWAP2 SWAP1 PUSH2 0xF3D JUMP JUMPDEST PUSH1 0x40 MLOAD DUP1 SWAP2 SUB SWAP1 RETURN JUMPDEST PUSH2 0x1F3 PUSH1 0x4 DUP1 CALLDATASIZE SUB DUP2 ADD SWAP1 PUSH2 0x1EE SWAP2 SWAP1 PUSH2 0xFB0 JUMP JUMPDEST PUSH2 0x3A7 JUMP JUMPDEST PUSH1 0x40 MLOAD PUSH2 0x200 SWAP2 SWAP1 PUSH2 0xF3D JUMP JUMPDEST PUSH1 0x40 MLOAD DUP1 SWAP2 SUB SWAP1 RETURN JUMPDEST PUSH2 0x211 PUSH2 0x3BC JUMP JUMPDEST STOP JUMPDEST PUSH2 0x22D PUSH1 0x4 DUP1 CALLDATASIZE SUB DUP2 ADD SWAP1 PUSH2 0x228 SWAP2 SWAP1 PUSH2 0xFDB JUMP JUMPDEST PUSH2 0x3CF JUMP JUMPDEST STOP JUMPDEST PUSH2 0x249 PUSH1 0x4 DUP1 CALLDATASIZE SUB DUP2 ADD SWAP1 PUSH2 0x244 SWAP2 SWAP1 PUSH2 0xF03 JUMP JUMPDEST PUSH2 0x878 JUMP JUMPDEST STOP JUMPDEST PUSH2 0x253 PUSH2 0x88A JUMP JUMPDEST PUSH1 0x40 MLOAD PUSH2 0x260 SWAP2 SWAP1 PUSH2 0x1028 JUMP JUMPDEST PUSH1 0x40 MLOAD DUP1 SWAP2 SUB SWAP1 RETURN JUMPDEST PUSH2 0x271 PUSH2 0x8B1 JUMP JUMPDEST PUSH1 0x40 MLOAD PUSH2 0x27E SWAP2 SWAP1 PUSH2 0x109C JUMP JUMPDEST PUSH1 0x40 MLOAD DUP1 SWAP2 SUB SWAP1 RETURN JUMPDEST PUSH2 0x2A1 PUSH1 0x4 DUP1 CALLDATASIZE SUB DUP2 ADD SWAP1 PUSH2 0x29C SWAP2 SWAP1 PUSH2 0x10B5 JUMP JUMPDEST PUSH2 0x8D6 JUMP JUMPDEST STOP JUMPDEST PUSH2 0x2AB PUSH2 0x97F JUMP JUMPDEST PUSH1 0x40 MLOAD PUSH2 0x2B8 SWAP2 SWAP1 PUSH2 0xF3D JUMP JUMPDEST PUSH1 0x40 MLOAD DUP1 SWAP2 SUB SWAP1 RETURN JUMPDEST PUSH2 0x2DB PUSH1 0x4 DUP1 CALLDATASIZE SUB DUP2 ADD SWAP1 PUSH2 0x2D6 SWAP2 SWAP1 PUSH2 0x122F JUMP JUMPDEST PUSH2 0xA23 JUMP JUMPDEST STOP JUMPDEST PUSH2 0x2F7 PUSH1 0x4 DUP1 CALLDATASIZE SUB DUP2 ADD SWAP1 PUSH2 0x2F2 SWAP2 SWAP1 PUSH2 0xF03 JUMP JUMPDEST PUSH2 0xBED JUMP JUMPDEST PUSH1 0x40 MLOAD PUSH2 0x307 SWAP5 SWAP4 SWAP3 SWAP2 SWAP1 PUSH2 0x12F0 JUMP JUMPDEST PUSH1 0x40 MLOAD DUP1 SWAP2 SUB SWAP1 RETURN JUMPDEST PUSH2 0x32A PUSH1 0x4 DUP1 CALLDATASIZE SUB DUP2 ADD SWAP1 PUSH2 0x325 SWAP2 SWAP1 PUSH2 0xFB0 JUMP JUMPDEST PUSH2 0xCCD JUMP JUMPDEST STOP JUMPDEST PUSH2 0x346 PUSH1 0x4 DUP1 CALLDATASIZE SUB DUP2 ADD SWAP1 PUSH2 0x341 SWAP2 SWAP1 PUSH2 0x10B5 JUMP JUMPDEST PUSH2 0xD4F JUMP JUMPDEST PUSH1 0x40 MLOAD PUSH2 0x353 SWAP2 SWAP1 PUSH2 0x1354 JUMP JUMPDEST PUSH1 0x40 MLOAD DUP1 SWAP2 SUB SWAP1 RETURN JUMPDEST PUSH1 0x7 PUSH1 0x20 MSTORE DUP1 PUSH0 MSTORE PUSH1 0x40 PUSH0 KECCAK256 PUSH0 SWAP2 POP SWAP1 POP SLOAD DUP2 JUMP JUMPDEST PUSH1 0x2 SLOAD DUP2 JUMP JUMPDEST PUSH1 0x3 SLOAD DUP2 JUMP JUMPDEST PUSH1 0x9 PUSH1 0x20 MSTORE DUP1 PUSH0 MSTORE PUSH1 0x40 PUSH0 KECCAK256 PUSH0 SWAP2 POP SWAP1 POP SLOAD DUP2 JUMP JUMPDEST PUSH1 0x5 PUSH1 0x20 MSTORE DUP1 PUSH0 MSTORE PUSH1 0x40 PUSH0 KECCAK256 PUSH0 SWAP2 POP SWAP1 POP SLOAD DUP2 JUMP JUMPDEST PUSH1 0x8 PUSH1 0x20 MSTORE DUP1 PUSH0 MSTORE PUSH1 0x40 PUSH0 KECCAK256 PUSH0 SWAP2 POP SWAP1 POP SLOAD DUP2 JUMP JUMPDEST PUSH2 0x3C4 PUSH2 0xD79 JUMP JUMPDEST PUSH2 0x3CD PUSH0 PUSH2 0xDF7 JUMP JUMPDEST JUMP JUMPDEST PUSH0 DUP3 GT DUP1 ISZERO PUSH2 0x3E0 JUMPI POP PUSH1 0x3 SLOAD DUP3 GT ISZERO JUMPDEST PUSH2 0x41F JUMPI PUSH1 0x40 MLOAD PUSH32 0x8C379A000000000000000000000000000000000000000000000000000000000 DUP2 MSTORE PUSH1 0x4 ADD PUSH2 0x416 SWAP1 PUSH2 0x13B7 JUMP JUMPDEST PUSH1 0x40 MLOAD DUP1 SWAP2 SUB SWAP1 REVERT JUMPDEST PUSH1 0x1 DUP2 LT ISZERO DUP1 ISZERO PUSH2 0x431 JUMPI POP PUSH1 0x5 DUP2 GT ISZERO JUMPDEST PUSH2 0x470 JUMPI PUSH1 0x40 MLOAD PUSH32 0x8C379A000000000000000000000000000000000000000000000000000000000 DUP2 MSTORE PUSH1 0x4 ADD PUSH2 0x467 SWAP1 PUSH2 0x1445 JUMP JUMPDEST PUSH1 0x40 MLOAD DUP1 SWAP2 SUB SWAP1 REVERT JUMPDEST PUSH1 0x6 PUSH0 CALLER PUSH20 0xFFFFFFFFFFFFFFFFFFFFFFFFFFFFFFFFFFFFFFFF AND PUSH20 0xFFFFFFFFFFFFFFFFFFFFFFFFFFFFFFFFFFFFFFFF AND DUP2 MSTORE PUSH1 0x20 ADD SWAP1 DUP2 MSTORE PUSH1 0x20 ADD PUSH0 KECCAK256 PUSH0 DUP4 DUP2 MSTORE PUSH1 0x20 ADD SWAP1 DUP2 MSTORE PUSH1 0x20 ADD PUSH0 KECCAK256 PUSH0 SWAP1 SLOAD SWAP1 PUSH2 0x100 EXP SWAP1 DIV PUSH1 0xFF AND ISZERO PUSH2 0x509 JUMPI PUSH1 0x40 MLOAD PUSH32 0x8C379A000000000000000000000000000000000000000000000000000000000 DUP2 MSTORE PUSH1 0x4 ADD PUSH2 0x500 SWAP1 PUSH2 0x14AD JUMP JUMPDEST PUSH1 0x40 MLOAD DUP1 SWAP2 SUB SWAP1 REVERT JUMPDEST PUSH0 PUSH1 0x1 PUSH0 SWAP1 SLOAD SWAP1 PUSH2 0x100 EXP SWAP1 DIV PUSH20 0xFFFFFFFFFFFFFFFFFFFFFFFFFFFFFFFFFFFFFFFF AND PUSH20 0xFFFFFFFFFFFFFFFFFFFFFFFFFFFFFFFFFFFFFFFF AND PUSH4 0x70A08231 CALLER PUSH1 0x40 MLOAD DUP3 PUSH4 0xFFFFFFFF AND PUSH1 0xE0 SHL DUP2 MSTORE PUSH1 0x4 ADD PUSH2 0x564 SWAP2 SWAP1 PUSH2 0x1028 JUMP JUMPDEST PUSH1 0x20 PUSH1 0x40 MLOAD DUP1 DUP4 SUB DUP2 DUP7 GAS STATICCALL ISZERO DUP1 ISZERO PUSH2 0x57F JUMPI RETURNDATASIZE PUSH0 DUP1 RETURNDATACOPY RETURNDATASIZE PUSH0 REVERT JUMPDEST POP POP POP POP PUSH1 0x40 MLOAD RETURNDATASIZE PUSH1 0x1F NOT PUSH1 0x1F DUP3 ADD AND DUP3 ADD DUP1 PUSH1 0x40 MSTORE POP DUP2 ADD SWAP1 PUSH2 0x5A3 SWAP2 SWAP1 PUSH2 0x14DF JUMP JUMPDEST GT PUSH2 0x5E3 JUMPI PUSH1 0x40 MLOAD PUSH32 0x8C379A000000000000000000000000000000000000000000000000000000000 DUP2 MSTORE PUSH1 0x4 ADD PUSH2 0x5DA SWAP1 PUSH2 0x1554 JUMP JUMPDEST PUSH1 0x40 MLOAD DUP1 SWAP2 SUB SWAP1 REVERT JUMPDEST PUSH0 PUSH1 0x1 PUSH0 SWAP1 SLOAD SWAP1 PUSH2 0x100 EXP SWAP1 DIV PUSH20 0xFFFFFFFFFFFFFFFFFFFFFFFFFFFFFFFFFFFFFFFF AND PUSH20 0xFFFFFFFFFFFFFFFFFFFFFFFFFFFFFFFFFFFFFFFF AND PUSH4 0x70A08231 CALLER PUSH1 0x40 MLOAD DUP3 PUSH4 0xFFFFFFFF AND PUSH1 0xE0 SHL DUP2 MSTORE PUSH1 0x4 ADD PUSH2 0x63E SWAP2 SWAP1 PUSH2 0x1028 JUMP JUMPDEST PUSH1 0x20 PUSH1 0x40 MLOAD DUP1 DUP4 SUB DUP2 DUP7 GAS STATICCALL ISZERO DUP1 ISZERO PUSH2 0x659 JUMPI RETURNDATASIZE PUSH0 DUP1 RETURNDATACOPY RETURNDATASIZE PUSH0 REVERT JUMPDEST POP POP POP POP PUSH1 0x40 MLOAD RETURNDATASIZE PUSH1 0x1F NOT PUSH1 0x1F DUP3 ADD AND DUP3 ADD DUP1 PUSH1 0x40 MSTORE POP DUP2 ADD SWAP1 PUSH2 0x67D SWAP2 SWAP1 PUSH2 0x14DF JUMP JUMPDEST SWAP1 POP PUSH0 PUSH1 0x1 PUSH0 SWAP1 SLOAD SWAP1 PUSH2 0x100 EXP SWAP1 DIV PUSH20 0xFFFFFFFFFFFFFFFFFFFFFFFFFFFFFFFFFFFFFFFF AND PUSH20 0xFFFFFFFFFFFFFFFFFFFFFFFFFFFFFFFFFFFFFFFF AND PUSH4 0x18160DDD PUSH1 0x40 MLOAD DUP2 PUSH4 0xFFFFFFFF AND PUSH1 0xE0 SHL DUP2 MSTORE PUSH1 0x4 ADD PUSH1 0x20 PUSH1 0x40 MLOAD DUP1 DUP4 SUB DUP2 DUP7 GAS STATICCALL ISZERO DUP1 ISZERO PUSH2 0x6EA JUMPI RETURNDATASIZE PUSH0 DUP1 RETURNDATACOPY RETURNDATASIZE PUSH0 REVERT JUMPDEST POP POP POP POP PUSH1 0x40 MLOAD RETURNDATASIZE PUSH1 0x1F NOT PUSH1 0x1F DUP3 ADD AND DUP3 ADD DUP1 PUSH1 0x40 MSTORE POP DUP2 ADD SWAP1 PUSH2 0x70E SWAP2 SWAP1 PUSH2 0x14DF JUMP JUMPDEST SWAP1 POP PUSH0 DUP2 PUSH10 0xD3C21BCECCEDA1000000 DUP5 PUSH2 0x728 SWAP2 SWAP1 PUSH2 0x159F JUMP JUMPDEST PUSH2 0x732 SWAP2 SWAP1 PUSH2 0x160D JUMP JUMPDEST SWAP1 POP PUSH0 PUSH1 0x64 DUP3 DUP7 PUSH2 0x743 SWAP2 SWAP1 PUSH2 0x159F JUMP JUMPDEST PUSH2 0x74D SWAP2 SWAP1 PUSH2 0x160D JUMP JUMPDEST SWAP1 POP DUP1 PUSH1 0x5 PUSH0 DUP9 DUP2 MSTORE PUSH1 0x20 ADD SWAP1 DUP2 MSTORE PUSH1 0x20 ADD PUSH0 KECCAK256 PUSH0 DUP3 DUP3 SLOAD PUSH2 0x76F SWAP2 SWAP1 PUSH2 0x163D JUMP JUMPDEST SWAP3 POP POP DUP2 SWAP1 SSTORE POP PUSH1 0x7 PUSH0 DUP8 DUP2 MSTORE PUSH1 0x20 ADD SWAP1 DUP2 MSTORE PUSH1 0x20 ADD PUSH0 KECCAK256 PUSH0 DUP2 SLOAD DUP1 SWAP3 SWAP2 SWAP1 PUSH2 0x797 SWAP1 PUSH2 0x1670 JUMP JUMPDEST SWAP2 SWAP1 POP SSTORE POP PUSH0 PUSH1 0x5 PUSH0 DUP9 DUP2 MSTORE PUSH1 0x20 ADD SWAP1 DUP2 MSTORE PUSH1 0x20 ADD PUSH0 KECCAK256 SLOAD SWAP1 POP PUSH0 PUSH1 0x7 PUSH0 DUP10 DUP2 MSTORE PUSH1 0x20 ADD SWAP1 DUP2 MSTORE PUSH1 0x20 ADD PUSH0 KECCAK256 SLOAD SWAP1 POP PUSH0 DUP2 DUP4 PUSH2 0x7D3 SWAP2 SWAP1 PUSH2 0x160D JUMP JUMPDEST SWAP1 POP DUP1 PUSH1 0x4 PUSH1 0x1 DUP12 PUSH2 0x7E5 SWAP2 SWAP1 PUSH2 0x16B7 JUMP JUMPDEST DUP2 SLOAD DUP2 LT PUSH2 0x7F6 JUMPI PUSH2 0x7F5 PUSH2 0x16EA JUMP JUMPDEST JUMPDEST SWAP1 PUSH0 MSTORE PUSH1 0x20 PUSH0 KECCAK256 SWAP1 PUSH1 0x4 MUL ADD PUSH1 0x3 ADD DUP2 SWAP1 SSTORE POP PUSH1 0x1 PUSH1 0x6 PUSH0 CALLER PUSH20 0xFFFFFFFFFFFFFFFFFFFFFFFFFFFFFFFFFFFFFFFF AND PUSH20 0xFFFFFFFFFFFFFFFFFFFFFFFFFFFFFFFFFFFFFFFF AND DUP2 MSTORE PUSH1 0x20 ADD SWAP1 DUP2 MSTORE PUSH1 0x20 ADD PUSH0 KECCAK256 PUSH0 DUP12 DUP2 MSTORE PUSH1 0x20 ADD SWAP1 DUP2 MSTORE PUSH1 0x20 ADD PUSH0 KECCAK256 PUSH0 PUSH2 0x100 EXP DUP2 SLOAD DUP2 PUSH1 0xFF MUL NOT AND SWAP1 DUP4 ISZERO ISZERO MUL OR SWAP1 SSTORE POP POP POP POP POP POP POP POP POP POP JUMP JUMPDEST PUSH2 0x880 PUSH2 0xD79 JUMP JUMPDEST DUP1 PUSH1 0x2 DUP2 SWAP1 SSTORE POP POP JUMP JUMPDEST PUSH0 DUP1 PUSH0 SWAP1 SLOAD SWAP1 PUSH2 0x100 EXP SWAP1 DIV PUSH20 0xFFFFFFFFFFFFFFFFFFFFFFFFFFFFFFFFFFFFFFFF AND SWAP1 POP SWAP1 JUMP JUMPDEST PUSH1 0x1 PUSH0 SWAP1 SLOAD SWAP1 PUSH2 0x100 EXP SWAP1 DIV PUSH20 0xFFFFFFFFFFFFFFFFFFFFFFFFFFFFFFFFFFFFFFFF AND DUP2 JUMP JUMPDEST PUSH2 0x8DE PUSH2 0xD79 JUMP JUMPDEST PUSH1 0x1 PUSH0 SWAP1 SLOAD SWAP1 PUSH2 0x100 EXP SWAP1 DIV PUSH20 0xFFFFFFFFFFFFFFFFFFFFFFFFFFFFFFFFFFFFFFFF AND PUSH20 0xFFFFFFFFFFFFFFFFFFFFFFFFFFFFFFFFFFFFFFFF AND PUSH4 0xA9059CBB DUP4 DUP4 PUSH1 0x40 MLOAD DUP4 PUSH4 0xFFFFFFFF AND PUSH1 0xE0 SHL DUP2 MSTORE PUSH1 0x4 ADD PUSH2 0x93A SWAP3 SWAP2 SWAP1 PUSH2 0x1717 JUMP JUMPDEST PUSH1 0x20 PUSH1 0x40 MLOAD DUP1 DUP4 SUB DUP2 PUSH0 DUP8 GAS CALL ISZERO DUP1 ISZERO PUSH2 0x956 JUMPI RETURNDATASIZE PUSH0 DUP1 RETURNDATACOPY RETURNDATASIZE PUSH0 REVERT JUMPDEST POP POP POP POP PUSH1 0x40 MLOAD RETURNDATASIZE PUSH1 0x1F NOT PUSH1 0x1F DUP3 ADD AND DUP3 ADD DUP1 PUSH1 0x40 MSTORE POP DUP2 ADD SWAP1 PUSH2 0x97A SWAP2 SWAP1 PUSH2 0x1768 JUMP JUMPDEST POP POP POP JUMP JUMPDEST PUSH0 DUP1 PUSH1 0x1 PUSH0 SWAP1 SLOAD SWAP1 PUSH2 0x100 EXP SWAP1 DIV PUSH20 0xFFFFFFFFFFFFFFFFFFFFFFFFFFFFFFFFFFFFFFFF AND PUSH20 0xFFFFFFFFFFFFFFFFFFFFFFFFFFFFFFFFFFFFFFFF AND PUSH4 0x70A08231 ADDRESS PUSH1 0x40 MLOAD DUP3 PUSH4 0xFFFFFFFF AND PUSH1 0xE0 SHL DUP2 MSTORE PUSH1 0x4 ADD PUSH2 0x9DB SWAP2 SWAP1 PUSH2 0x1028 JUMP JUMPDEST PUSH1 0x20 PUSH1 0x40 MLOAD DUP1 DUP4 SUB DUP2 DUP7 GAS STATICCALL ISZERO DUP1 ISZERO PUSH2 0x9F6 JUMPI RETURNDATASIZE PUSH0 DUP1 RETURNDATACOPY RETURNDATASIZE PUSH0 REVERT JUMPDEST POP POP POP POP PUSH1 0x40 MLOAD RETURNDATASIZE PUSH1 0x1F NOT PUSH1 0x1F DUP3 ADD AND DUP3 ADD DUP1 PUSH1 0x40 MSTORE POP DUP2 ADD SWAP1 PUSH2 0xA1A SWAP2 SWAP1 PUSH2 0x14DF JUMP JUMPDEST SWAP1 POP DUP1 SWAP2 POP POP SWAP1 JUMP JUMPDEST PUSH1 0x1 PUSH0 SWAP1 SLOAD SWAP1 PUSH2 0x100 EXP SWAP1 DIV PUSH20 0xFFFFFFFFFFFFFFFFFFFFFFFFFFFFFFFFFFFFFFFF AND PUSH20 0xFFFFFFFFFFFFFFFFFFFFFFFFFFFFFFFFFFFFFFFF AND PUSH4 0x23B872DD CALLER ADDRESS PUSH1 0x2 SLOAD PUSH1 0x40 MLOAD DUP5 PUSH4 0xFFFFFFFF AND PUSH1 0xE0 SHL DUP2 MSTORE PUSH1 0x4 ADD PUSH2 0xA83 SWAP4 SWAP3 SWAP2 SWAP1 PUSH2 0x1793 JUMP JUMPDEST PUSH1 0x20 PUSH1 0x40 MLOAD DUP1 DUP4 SUB DUP2 PUSH0 DUP8 GAS CALL ISZERO DUP1 ISZERO PUSH2 0xA9F JUMPI RETURNDATASIZE PUSH0 DUP1 RETURNDATACOPY RETURNDATASIZE PUSH0 REVERT JUMPDEST POP POP POP POP PUSH1 0x40 MLOAD RETURNDATASIZE PUSH1 0x1F NOT PUSH1 0x1F DUP3 ADD AND DUP3 ADD DUP1 PUSH1 0x40 MSTORE POP DUP2 ADD SWAP1 PUSH2 0xAC3 SWAP2 SWAP1 PUSH2 0x1768 JUMP JUMPDEST PUSH2 0xB02 JUMPI PUSH1 0x40 MLOAD PUSH32 0x8C379A000000000000000000000000000000000000000000000000000000000 DUP2 MSTORE PUSH1 0x4 ADD PUSH2 0xAF9 SWAP1 PUSH2 0x1812 JUMP JUMPDEST PUSH1 0x40 MLOAD DUP1 SWAP2 SUB SWAP1 REVERT JUMPDEST PUSH1 0x3 PUSH0 DUP2 SLOAD DUP1 SWAP3 SWAP2 SWAP1 PUSH2 0xB14 SWAP1 PUSH2 0x1670 JUMP JUMPDEST SWAP2 SWAP1 POP SSTORE POP PUSH1 0x4 PUSH1 0x40 MLOAD DUP1 PUSH1 0x80 ADD PUSH1 0x40 MSTORE DUP1 CALLER PUSH20 0xFFFFFFFFFFFFFFFFFFFFFFFFFFFFFFFFFFFFFFFF AND DUP2 MSTORE PUSH1 0x20 ADD DUP4 DUP2 MSTORE PUSH1 0x20 ADD PUSH1 0x3 SLOAD DUP2 MSTORE PUSH1 0x20 ADD PUSH0 DUP2 MSTORE POP SWAP1 DUP1 PUSH1 0x1 DUP2 SLOAD ADD DUP1 DUP3 SSTORE DUP1 SWAP2 POP POP PUSH1 0x1 SWAP1 SUB SWAP1 PUSH0 MSTORE PUSH1 0x20 PUSH0 KECCAK256 SWAP1 PUSH1 0x4 MUL ADD PUSH0 SWAP1 SWAP2 SWAP1 SWAP2 SWAP1 SWAP2 POP PUSH0 DUP3 ADD MLOAD DUP2 PUSH0 ADD PUSH0 PUSH2 0x100 EXP DUP2 SLOAD DUP2 PUSH20 0xFFFFFFFFFFFFFFFFFFFFFFFFFFFFFFFFFFFFFFFF MUL NOT AND SWAP1 DUP4 PUSH20 0xFFFFFFFFFFFFFFFFFFFFFFFFFFFFFFFFFFFFFFFF AND MUL OR SWAP1 SSTORE POP PUSH1 0x20 DUP3 ADD MLOAD DUP2 PUSH1 0x1 ADD SWAP1 DUP2 PUSH2 0xBD3 SWAP2 SWAP1 PUSH2 0x1A21 JUMP JUMPDEST POP PUSH1 0x40 DUP3 ADD MLOAD DUP2 PUSH1 0x2 ADD SSTORE PUSH1 0x60 DUP3 ADD MLOAD DUP2 PUSH1 0x3 ADD SSTORE POP POP POP JUMP JUMPDEST PUSH1 0x4 DUP2 DUP2 SLOAD DUP2 LT PUSH2 0xBFC JUMPI PUSH0 DUP1 REVERT JUMPDEST SWAP1 PUSH0 MSTORE PUSH1 0x20 PUSH0 KECCAK256 SWAP1 PUSH1 0x4 MUL ADD PUSH0 SWAP2 POP SWAP1 POP DUP1 PUSH0 ADD PUSH0 SWAP1 SLOAD SWAP1 PUSH2 0x100 EXP SWAP1 DIV PUSH20 0xFFFFFFFFFFFFFFFFFFFFFFFFFFFFFFFFFFFFFFFF AND SWAP1 DUP1 PUSH1 0x1 ADD DUP1 SLOAD PUSH2 0xC40 SWAP1 PUSH2 0x185D JUMP JUMPDEST DUP1 PUSH1 0x1F ADD PUSH1 0x20 DUP1 SWAP2 DIV MUL PUSH1 0x20 ADD PUSH1 0x40 MLOAD SWAP1 DUP2 ADD PUSH1 0x40 MSTORE DUP1 SWAP3 SWAP2 SWAP1 DUP2 DUP2 MSTORE PUSH1 0x20 ADD DUP3 DUP1 SLOAD PUSH2 0xC6C SWAP1 PUSH2 0x185D JUMP JUMPDEST DUP1 ISZERO PUSH2 0xCB7 JUMPI DUP1 PUSH1 0x1F LT PUSH2 0xC8E JUMPI PUSH2 0x100 DUP1 DUP4 SLOAD DIV MUL DUP4 MSTORE SWAP2 PUSH1 0x20 ADD SWAP2 PUSH2 0xCB7 JUMP JUMPDEST DUP3 ADD SWAP2 SWAP1 PUSH0 MSTORE PUSH1 0x20 PUSH0 KECCAK256 SWAP1 JUMPDEST DUP2 SLOAD DUP2 MSTORE SWAP1 PUSH1 0x1 ADD SWAP1 PUSH1 0x20 ADD DUP1 DUP4 GT PUSH2 0xC9A JUMPI DUP3 SWAP1 SUB PUSH1 0x1F AND DUP3 ADD SWAP2 JUMPDEST POP POP POP POP POP SWAP1 DUP1 PUSH1 0x2 ADD SLOAD SWAP1 DUP1 PUSH1 0x3 ADD SLOAD SWAP1 POP DUP5 JUMP JUMPDEST PUSH2 0xCD5 PUSH2 0xD79 JUMP JUMPDEST PUSH0 PUSH20 0xFFFFFFFFFFFFFFFFFFFFFFFFFFFFFFFFFFFFFFFF AND DUP2 PUSH20 0xFFFFFFFFFFFFFFFFFFFFFFFFFFFFFFFFFFFFFFFF AND SUB PUSH2 0xD43 JUMPI PUSH1 0x40 MLOAD PUSH32 0x8C379A000000000000000000000000000000000000000000000000000000000 DUP2 MSTORE PUSH1 0x4 ADD PUSH2 0xD3A SWAP1 PUSH2 0x1B60 JUMP JUMPDEST PUSH1 0x40 MLOAD DUP1 SWAP2 SUB SWAP1 REVERT JUMPDEST PUSH2 0xD4C DUP2 PUSH2 0xDF7 JUMP JUMPDEST POP JUMP JUMPDEST PUSH1 0x6 PUSH1 0x20 MSTORE DUP2 PUSH0 MSTORE PUSH1 0x40 PUSH0 KECCAK256 PUSH1 0x20 MSTORE DUP1 PUSH0 MSTORE PUSH1 0x40 PUSH0 KECCAK256 PUSH0 SWAP2 POP SWAP2 POP SWAP1 SLOAD SWAP1 PUSH2 0x100 EXP SWAP1 DIV PUSH1 0xFF AND DUP2 JUMP JUMPDEST PUSH2 0xD81 PUSH2 0xEB8 JUMP JUMPDEST PUSH20 0xFFFFFFFFFFFFFFFFFFFFFFFFFFFFFFFFFFFFFFFF AND PUSH2 0xD9F PUSH2 0x88A JUMP JUMPDEST PUSH20 0xFFFFFFFFFFFFFFFFFFFFFFFFFFFFFFFFFFFFFFFF AND EQ PUSH2 0xDF5 JUMPI PUSH1 0x40 MLOAD PUSH32 0x8C379A000000000000000000000000000000000000000000000000000000000 DUP2 MSTORE PUSH1 0x4 ADD PUSH2 0xDEC SWAP1 PUSH2 0x1BC8 JUMP JUMPDEST PUSH1 0x40 MLOAD DUP1 SWAP2 SUB SWAP1 REVERT JUMPDEST JUMP JUMPDEST PUSH0 DUP1 PUSH0 SWAP1 SLOAD SWAP1 PUSH2 0x100 EXP SWAP1 DIV PUSH20 0xFFFFFFFFFFFFFFFFFFFFFFFFFFFFFFFFFFFFFFFF AND SWAP1 POP DUP2 PUSH0 DUP1 PUSH2 0x100 EXP DUP2 SLOAD DUP2 PUSH20 0xFFFFFFFFFFFFFFFFFFFFFFFFFFFFFFFFFFFFFFFF MUL NOT AND SWAP1 DUP4 PUSH20 0xFFFFFFFFFFFFFFFFFFFFFFFFFFFFFFFFFFFFFFFF AND MUL OR SWAP1 SSTORE POP DUP2 PUSH20 0xFFFFFFFFFFFFFFFFFFFFFFFFFFFFFFFFFFFFFFFF AND DUP2 PUSH20 0xFFFFFFFFFFFFFFFFFFFFFFFFFFFFFFFFFFFFFFFF AND PUSH32 0x8BE0079C531659141344CD1FD0A4F28419497F9722A3DAAFE3B4186F6B6457E0 PUSH1 0x40 MLOAD PUSH1 0x40 MLOAD DUP1 SWAP2 SUB SWAP1 LOG3 POP POP JUMP JUMPDEST PUSH0 CALLER SWAP1 POP SWAP1 JUMP JUMPDEST PUSH0 PUSH1 0x40 MLOAD SWAP1 POP SWAP1 JUMP JUMPDEST PUSH0 DUP1 REVERT JUMPDEST PUSH0 DUP1 REVERT JUMPDEST PUSH0 DUP2 SWAP1 POP SWAP2 SWAP1 POP JUMP JUMPDEST PUSH2 0xEE2 DUP2 PUSH2 0xED0 JUMP JUMPDEST DUP2 EQ PUSH2 0xEEC JUMPI PUSH0 DUP1 REVERT JUMPDEST POP JUMP JUMPDEST PUSH0 DUP2 CALLDATALOAD SWAP1 POP PUSH2 0xEFD DUP2 PUSH2 0xED9 JUMP JUMPDEST SWAP3 SWAP2 POP POP JUMP JUMPDEST PUSH0 PUSH1 0x20 DUP3 DUP5 SUB SLT ISZERO PUSH2 0xF18 JUMPI PUSH2 0xF17 PUSH2 0xEC8 JUMP JUMPDEST JUMPDEST PUSH0 PUSH2 0xF25 DUP5 DUP3 DUP6 ADD PUSH2 0xEEF JUMP JUMPDEST SWAP2 POP POP SWAP3 SWAP2 POP POP JUMP JUMPDEST PUSH2 0xF37 DUP2 PUSH2 0xED0 JUMP JUMPDEST DUP3 MSTORE POP POP JUMP JUMPDEST PUSH0 PUSH1 0x20 DUP3 ADD SWAP1 POP PUSH2 0xF50 PUSH0 DUP4 ADD DUP5 PUSH2 0xF2E JUMP JUMPDEST SWAP3 SWAP2 POP POP JUMP JUMPDEST PUSH0 PUSH20 0xFFFFFFFFFFFFFFFFFFFFFFFFFFFFFFFFFFFFFFFF DUP3 AND SWAP1 POP SWAP2 SWAP1 POP JUMP JUMPDEST PUSH0 PUSH2 0xF7F DUP3 PUSH2 0xF56 JUMP JUMPDEST SWAP1 POP SWAP2 SWAP1 POP JUMP JUMPDEST PUSH2 0xF8F DUP2 PUSH2 0xF75 JUMP JUMPDEST DUP2 EQ PUSH2 0xF99 JUMPI PUSH0 DUP1 REVERT JUMPDEST POP JUMP JUMPDEST PUSH0 DUP2 CALLDATALOAD SWAP1 POP PUSH2 0xFAA DUP2 PUSH2 0xF86 JUMP JUMPDEST SWAP3 SWAP2 POP POP JUMP JUMPDEST PUSH0 PUSH1 0x20 DUP3 DUP5 SUB SLT ISZERO PUSH2 0xFC5 JUMPI PUSH2 0xFC4 PUSH2 0xEC8 JUMP JUMPDEST JUMPDEST PUSH0 PUSH2 0xFD2 DUP5 DUP3 DUP6 ADD PUSH2 0xF9C JUMP JUMPDEST SWAP2 POP POP SWAP3 SWAP2 POP POP JUMP JUMPDEST PUSH0 DUP1 PUSH1 0x40 DUP4 DUP6 SUB SLT ISZERO PUSH2 0xFF1 JUMPI PUSH2 0xFF0 PUSH2 0xEC8 JUMP JUMPDEST JUMPDEST PUSH0 PUSH2 0xFFE DUP6 DUP3 DUP7 ADD PUSH2 0xEEF JUMP JUMPDEST SWAP3 POP POP PUSH1 0x20 PUSH2 0x100F DUP6 DUP3 DUP7 ADD PUSH2 0xEEF JUMP JUMPDEST SWAP2 POP POP SWAP3 POP SWAP3 SWAP1 POP JUMP JUMPDEST PUSH2 0x1022 DUP2 PUSH2 0xF75 JUMP JUMPDEST DUP3 MSTORE POP POP JUMP JUMPDEST PUSH0 PUSH1 0x20 DUP3 ADD SWAP1 POP PUSH2 0x103B PUSH0 DUP4 ADD DUP5 PUSH2 0x1019 JUMP JUMPDEST SWAP3 SWAP2 POP POP JUMP JUMPDEST PUSH0 DUP2 SWAP1 POP SWAP2 SWAP1 POP JUMP JUMPDEST PUSH0 PUSH2 0x1064 PUSH2 0x105F PUSH2 0x105A DUP5 PUSH2 0xF56 JUMP JUMPDEST PUSH2 0x1041 JUMP JUMPDEST PUSH2 0xF56 JUMP JUMPDEST SWAP1 POP SWAP2 SWAP1 POP JUMP JUMPDEST PUSH0 PUSH2 0x1075 DUP3 PUSH2 0x104A JUMP JUMPDEST SWAP1 POP SWAP2 SWAP1 POP JUMP JUMPDEST PUSH0 PUSH2 0x1086 DUP3 PUSH2 0x106B JUMP JUMPDEST SWAP1 POP SWAP2 SWAP1 POP JUMP JUMPDEST PUSH2 0x1096 DUP2 PUSH2 0x107C JUMP JUMPDEST DUP3 MSTORE POP POP JUMP JUMPDEST PUSH0 PUSH1 0x20 DUP3 ADD SWAP1 POP PUSH2 0x10AF PUSH0 DUP4 ADD DUP5 PUSH2 0x108D JUMP JUMPDEST SWAP3 SWAP2 POP POP JUMP JUMPDEST PUSH0 DUP1 PUSH1 0x40 DUP4 DUP6 SUB SLT ISZERO PUSH2 0x10CB JUMPI PUSH2 0x10CA PUSH2 0xEC8 JUMP JUMPDEST JUMPDEST PUSH0 PUSH2 0x10D8 DUP6 DUP3 DUP7 ADD PUSH2 0xF9C JUMP JUMPDEST SWAP3 POP POP PUSH1 0x20 PUSH2 0x10E9 DUP6 DUP3 DUP7 ADD PUSH2 0xEEF JUMP JUMPDEST SWAP2 POP POP SWAP3 POP SWAP3 SWAP1 POP JUMP JUMPDEST PUSH0 DUP1 REVERT JUMPDEST PUSH0 DUP1 REVERT JUMPDEST PUSH0 PUSH1 0x1F NOT PUSH1 0x1F DUP4 ADD AND SWAP1 POP SWAP2 SWAP1 POP JUMP JUMPDEST PUSH32 0x4E487B7100000000000000000000000000000000000000000000000000000000 PUSH0 MSTORE PUSH1 0x41 PUSH1 0x4 MSTORE PUSH1 0x24 PUSH0 REVERT JUMPDEST PUSH2 0x1141 DUP3 PUSH2 0x10FB JUMP JUMPDEST DUP2 ADD DUP2 DUP2 LT PUSH8 0xFFFFFFFFFFFFFFFF DUP3 GT OR ISZERO PUSH2 0x1160 JUMPI PUSH2 0x115F PUSH2 0x110B JUMP JUMPDEST JUMPDEST DUP1 PUSH1 0x40 MSTORE POP POP POP JUMP JUMPDEST PUSH0 PUSH2 0x1172 PUSH2 0xEBF JUMP JUMPDEST SWAP1 POP PUSH2 0x117E DUP3 DUP3 PUSH2 0x1138 JUMP JUMPDEST SWAP2 SWAP1 POP JUMP JUMPDEST PUSH0 PUSH8 0xFFFFFFFFFFFFFFFF DUP3 GT ISZERO PUSH2 0x119D JUMPI PUSH2 0x119C PUSH2 0x110B JUMP JUMPDEST JUMPDEST PUSH2 0x11A6 DUP3 PUSH2 0x10FB JUMP JUMPDEST SWAP1 POP PUSH1 0x20 DUP2 ADD SWAP1 POP SWAP2 SWAP1 POP JUMP JUMPDEST DUP3 DUP2 DUP4 CALLDATACOPY PUSH0 DUP4 DUP4 ADD MSTORE POP POP POP JUMP JUMPDEST PUSH0 PUSH2 0x11D3 PUSH2 0x11CE DUP5 PUSH2 0x1183 JUMP JUMPDEST PUSH2 0x1169 JUMP JUMPDEST SWAP1 POP DUP3 DUP2 MSTORE PUSH1 0x20 DUP2 ADD DUP5 DUP5 DUP5 ADD GT ISZERO PUSH2 0x11EF JUMPI PUSH2 0x11EE PUSH2 0x10F7 JUMP JUMPDEST JUMPDEST PUSH2 0x11FA DUP5 DUP3 DUP6 PUSH2 0x11B3 JUMP JUMPDEST POP SWAP4 SWAP3 POP POP POP JUMP JUMPDEST PUSH0 DUP3 PUSH1 0x1F DUP4 ADD SLT PUSH2 0x1216 JUMPI PUSH2 0x1215 PUSH2 0x10F3 JUMP JUMPDEST JUMPDEST DUP2 CALLDATALOAD PUSH2 0x1226 DUP5 DUP3 PUSH1 0x20 DUP7 ADD PUSH2 0x11C1 JUMP JUMPDEST SWAP2 POP POP SWAP3 SWAP2 POP POP JUMP JUMPDEST PUSH0 PUSH1 0x20 DUP3 DUP5 SUB SLT ISZERO PUSH2 0x1244 JUMPI PUSH2 0x1243 PUSH2 0xEC8 JUMP JUMPDEST JUMPDEST PUSH0 DUP3 ADD CALLDATALOAD PUSH8 0xFFFFFFFFFFFFFFFF DUP2 GT ISZERO PUSH2 0x1261 JUMPI PUSH2 0x1260 PUSH2 0xECC JUMP JUMPDEST JUMPDEST PUSH2 0x126D DUP5 DUP3 DUP6 ADD PUSH2 0x1202 JUMP JUMPDEST SWAP2 POP POP SWAP3 SWAP2 POP POP JUMP JUMPDEST PUSH0 DUP2 MLOAD SWAP1 POP SWAP2 SWAP1 POP JUMP JUMPDEST PUSH0 DUP3 DUP3 MSTORE PUSH1 0x20 DUP3 ADD SWAP1 POP SWAP3 SWAP2 POP POP JUMP JUMPDEST PUSH0 JUMPDEST DUP4 DUP2 LT ISZERO PUSH2 0x12AD JUMPI DUP1 DUP3 ADD MLOAD DUP2 DUP5 ADD MSTORE PUSH1 0x20 DUP2 ADD SWAP1 POP PUSH2 0x1292 JUMP JUMPDEST PUSH0 DUP5 DUP5 ADD MSTORE POP POP POP POP JUMP JUMPDEST PUSH0 PUSH2 0x12C2 DUP3 PUSH2 0x1276 JUMP JUMPDEST PUSH2 0x12CC DUP2 DUP6 PUSH2 0x1280 JUMP JUMPDEST SWAP4 POP PUSH2 0x12DC DUP2 DUP6 PUSH1 0x20 DUP7 ADD PUSH2 0x1290 JUMP JUMPDEST PUSH2 0x12E5 DUP2 PUSH2 0x10FB JUMP JUMPDEST DUP5 ADD SWAP2 POP POP SWAP3 SWAP2 POP POP JUMP JUMPDEST PUSH0 PUSH1 0x80 DUP3 ADD SWAP1 POP PUSH2 0x1303 PUSH0 DUP4 ADD DUP8 PUSH2 0x1019 JUMP JUMPDEST DUP2 DUP2 SUB PUSH1 0x20 DUP4 ADD MSTORE PUSH2 0x1315 DUP2 DUP7 PUSH2 0x12B8 JUMP JUMPDEST SWAP1 POP PUSH2 0x1324 PUSH1 0x40 DUP4 ADD DUP6 PUSH2 0xF2E JUMP JUMPDEST PUSH2 0x1331 PUSH1 0x60 DUP4 ADD DUP5 PUSH2 0xF2E JUMP JUMPDEST SWAP6 SWAP5 POP POP POP POP POP JUMP JUMPDEST PUSH0 DUP2 ISZERO ISZERO SWAP1 POP SWAP2 SWAP1 POP JUMP JUMPDEST PUSH2 0x134E DUP2 PUSH2 0x133A JUMP JUMPDEST DUP3 MSTORE POP POP JUMP JUMPDEST PUSH0 PUSH1 0x20 DUP3 ADD SWAP1 POP PUSH2 0x1367 PUSH0 DUP4 ADD DUP5 PUSH2 0x1345 JUMP JUMPDEST SWAP3 SWAP2 POP POP JUMP JUMPDEST PUSH32 0x4944206465206172746963756C6F206E6F2076616C69646F0000000000000000 PUSH0 DUP3 ADD MSTORE POP JUMP JUMPDEST PUSH0 PUSH2 0x13A1 PUSH1 0x18 DUP4 PUSH2 0x1280 JUMP JUMPDEST SWAP2 POP PUSH2 0x13AC DUP3 PUSH2 0x136D JUMP JUMPDEST PUSH1 0x20 DUP3 ADD SWAP1 POP SWAP2 SWAP1 POP JUMP JUMPDEST PUSH0 PUSH1 0x20 DUP3 ADD SWAP1 POP DUP2 DUP2 SUB PUSH0 DUP4 ADD MSTORE PUSH2 0x13CE DUP2 PUSH2 0x1395 JUMP JUMPDEST SWAP1 POP SWAP2 SWAP1 POP JUMP JUMPDEST PUSH32 0x43616C696669636163696F6E206E6F2076616C6964613B206465626520657374 PUSH0 DUP3 ADD MSTORE PUSH32 0x617220656E747265203120792035000000000000000000000000000000000000 PUSH1 0x20 DUP3 ADD MSTORE POP JUMP JUMPDEST PUSH0 PUSH2 0x142F PUSH1 0x2E DUP4 PUSH2 0x1280 JUMP JUMPDEST SWAP2 POP PUSH2 0x143A DUP3 PUSH2 0x13D5 JUMP JUMPDEST PUSH1 0x40 DUP3 ADD SWAP1 POP SWAP2 SWAP1 POP JUMP JUMPDEST PUSH0 PUSH1 0x20 DUP3 ADD SWAP1 POP DUP2 DUP2 SUB PUSH0 DUP4 ADD MSTORE PUSH2 0x145C DUP2 PUSH2 0x1423 JUMP JUMPDEST SWAP1 POP SWAP2 SWAP1 POP JUMP JUMPDEST PUSH32 0x5961206861732063616C6966696361646F2065737465206172746963756C6F00 PUSH0 DUP3 ADD MSTORE POP JUMP JUMPDEST PUSH0 PUSH2 0x1497 PUSH1 0x1F DUP4 PUSH2 0x1280 JUMP JUMPDEST SWAP2 POP PUSH2 0x14A2 DUP3 PUSH2 0x1463 JUMP JUMPDEST PUSH1 0x20 DUP3 ADD SWAP1 POP SWAP2 SWAP1 POP JUMP JUMPDEST PUSH0 PUSH1 0x20 DUP3 ADD SWAP1 POP DUP2 DUP2 SUB PUSH0 DUP4 ADD MSTORE PUSH2 0x14C4 DUP2 PUSH2 0x148B JUMP JUMPDEST SWAP1 POP SWAP2 SWAP1 POP JUMP JUMPDEST PUSH0 DUP2 MLOAD SWAP1 POP PUSH2 0x14D9 DUP2 PUSH2 0xED9 JUMP JUMPDEST SWAP3 SWAP2 POP POP JUMP JUMPDEST PUSH0 PUSH1 0x20 DUP3 DUP5 SUB SLT ISZERO PUSH2 0x14F4 JUMPI PUSH2 0x14F3 PUSH2 0xEC8 JUMP JUMPDEST JUMPDEST PUSH0 PUSH2 0x1501 DUP5 DUP3 DUP6 ADD PUSH2 0x14CB JUMP JUMPDEST SWAP2 POP POP SWAP3 SWAP2 POP POP JUMP JUMPDEST PUSH32 0x53616C646F20646520746F6B656E7320696E737566696369656E746500000000 PUSH0 DUP3 ADD MSTORE POP JUMP JUMPDEST PUSH0 PUSH2 0x153E PUSH1 0x1C DUP4 PUSH2 0x1280 JUMP JUMPDEST SWAP2 POP PUSH2 0x1549 DUP3 PUSH2 0x150A JUMP JUMPDEST PUSH1 0x20 DUP3 ADD SWAP1 POP SWAP2 SWAP1 POP JUMP JUMPDEST PUSH0 PUSH1 0x20 DUP3 ADD SWAP1 POP DUP2 DUP2 SUB PUSH0 DUP4 ADD MSTORE PUSH2 0x156B DUP2 PUSH2 0x1532 JUMP JUMPDEST SWAP1 POP SWAP2 SWAP1 POP JUMP JUMPDEST PUSH32 0x4E487B7100000000000000000000000000000000000000000000000000000000 PUSH0 MSTORE PUSH1 0x11 PUSH1 0x4 MSTORE PUSH1 0x24 PUSH0 REVERT JUMPDEST PUSH0 PUSH2 0x15A9 DUP3 PUSH2 0xED0 JUMP JUMPDEST SWAP2 POP PUSH2 0x15B4 DUP4 PUSH2 0xED0 JUMP JUMPDEST SWAP3 POP DUP3 DUP3 MUL PUSH2 0x15C2 DUP2 PUSH2 0xED0 JUMP JUMPDEST SWAP2 POP DUP3 DUP3 DIV DUP5 EQ DUP4 ISZERO OR PUSH2 0x15D9 JUMPI PUSH2 0x15D8 PUSH2 0x1572 JUMP JUMPDEST JUMPDEST POP SWAP3 SWAP2 POP POP JUMP JUMPDEST PUSH32 0x4E487B7100000000000000000000000000000000000000000000000000000000 PUSH0 MSTORE PUSH1 0x12 PUSH1 0x4 MSTORE PUSH1 0x24 PUSH0 REVERT JUMPDEST PUSH0 PUSH2 0x1617 DUP3 PUSH2 0xED0 JUMP JUMPDEST SWAP2 POP PUSH2 0x1622 DUP4 PUSH2 0xED0 JUMP JUMPDEST SWAP3 POP DUP3 PUSH2 0x1632 JUMPI PUSH2 0x1631 PUSH2 0x15E0 JUMP JUMPDEST JUMPDEST DUP3 DUP3 DIV SWAP1 POP SWAP3 SWAP2 POP POP JUMP JUMPDEST PUSH0 PUSH2 0x1647 DUP3 PUSH2 0xED0 JUMP JUMPDEST SWAP2 POP PUSH2 0x1652 DUP4 PUSH2 0xED0 JUMP JUMPDEST SWAP3 POP DUP3 DUP3 ADD SWAP1 POP DUP1 DUP3 GT ISZERO PUSH2 0x166A JUMPI PUSH2 0x1669 PUSH2 0x1572 JUMP JUMPDEST JUMPDEST SWAP3 SWAP2 POP POP JUMP JUMPDEST PUSH0 PUSH2 0x167A DUP3 PUSH2 0xED0 JUMP JUMPDEST SWAP2 POP PUSH32 0xFFFFFFFFFFFFFFFFFFFFFFFFFFFFFFFFFFFFFFFFFFFFFFFFFFFFFFFFFFFFFFFF DUP3 SUB PUSH2 0x16AC JUMPI PUSH2 0x16AB PUSH2 0x1572 JUMP JUMPDEST JUMPDEST PUSH1 0x1 DUP3 ADD SWAP1 POP SWAP2 SWAP1 POP JUMP JUMPDEST PUSH0 PUSH2 0x16C1 DUP3 PUSH2 0xED0 JUMP JUMPDEST SWAP2 POP PUSH2 0x16CC DUP4 PUSH2 0xED0 JUMP JUMPDEST SWAP3 POP DUP3 DUP3 SUB SWAP1 POP DUP2 DUP2 GT ISZERO PUSH2 0x16E4 JUMPI PUSH2 0x16E3 PUSH2 0x1572 JUMP JUMPDEST JUMPDEST SWAP3 SWAP2 POP POP JUMP JUMPDEST PUSH32 0x4E487B7100000000000000000000000000000000000000000000000000000000 PUSH0 MSTORE PUSH1 0x32 PUSH1 0x4 MSTORE PUSH1 0x24 PUSH0 REVERT JUMPDEST PUSH0 PUSH1 0x40 DUP3 ADD SWAP1 POP PUSH2 0x172A PUSH0 DUP4 ADD DUP6 PUSH2 0x1019 JUMP JUMPDEST PUSH2 0x1737 PUSH1 0x20 DUP4 ADD DUP5 PUSH2 0xF2E JUMP JUMPDEST SWAP4 SWAP3 POP POP POP JUMP JUMPDEST PUSH2 0x1747 DUP2 PUSH2 0x133A JUMP JUMPDEST DUP2 EQ PUSH2 0x1751 JUMPI PUSH0 DUP1 REVERT JUMPDEST POP JUMP JUMPDEST PUSH0 DUP2 MLOAD SWAP1 POP PUSH2 0x1762 DUP2 PUSH2 0x173E JUMP JUMPDEST SWAP3 SWAP2 POP POP JUMP JUMPDEST PUSH0 PUSH1 0x20 DUP3 DUP5 SUB SLT ISZERO PUSH2 0x177D JUMPI PUSH2 0x177C PUSH2 0xEC8 JUMP JUMPDEST JUMPDEST PUSH0 PUSH2 0x178A DUP5 DUP3 DUP6 ADD PUSH2 0x1754 JUMP JUMPDEST SWAP2 POP POP SWAP3 SWAP2 POP POP JUMP JUMPDEST PUSH0 PUSH1 0x60 DUP3 ADD SWAP1 POP PUSH2 0x17A6 PUSH0 DUP4 ADD DUP7 PUSH2 0x1019 JUMP JUMPDEST PUSH2 0x17B3 PUSH1 0x20 DUP4 ADD DUP6 PUSH2 0x1019 JUMP JUMPDEST PUSH2 0x17C0 PUSH1 0x40 DUP4 ADD DUP5 PUSH2 0xF2E JUMP JUMPDEST SWAP5 SWAP4 POP POP POP POP JUMP JUMPDEST PUSH32 0x4661696C656420746F207472616E7366657220746F6B656E7300000000000000 PUSH0 DUP3 ADD MSTORE POP JUMP JUMPDEST PUSH0 PUSH2 0x17FC PUSH1 0x19 DUP4 PUSH2 0x1280 JUMP JUMPDEST SWAP2 POP PUSH2 0x1807 DUP3 PUSH2 0x17C8 JUMP JUMPDEST PUSH1 0x20 DUP3 ADD SWAP1 POP SWAP2 SWAP1 POP JUMP JUMPDEST PUSH0 PUSH1 0x20 DUP3 ADD SWAP1 POP DUP2 DUP2 SUB PUSH0 DUP4 ADD MSTORE PUSH2 0x1829 DUP2 PUSH2 0x17F0 JUMP JUMPDEST SWAP1 POP SWAP2 SWAP1 POP JUMP JUMPDEST PUSH32 0x4E487B7100000000000000000000000000000000000000000000000000000000 PUSH0 MSTORE PUSH1 0x22 PUSH1 0x4 MSTORE PUSH1 0x24 PUSH0 REVERT JUMPDEST PUSH0 PUSH1 0x2 DUP3 DIV SWAP1 POP PUSH1 0x1 DUP3 AND DUP1 PUSH2 0x1874 JUMPI PUSH1 0x7F DUP3 AND SWAP2 POP JUMPDEST PUSH1 0x20 DUP3 LT DUP2 SUB PUSH2 0x1887 JUMPI PUSH2 0x1886 PUSH2 0x1830 JUMP JUMPDEST JUMPDEST POP SWAP2 SWAP1 POP JUMP JUMPDEST PUSH0 DUP2 SWAP1 POP DUP2 PUSH0 MSTORE PUSH1 0x20 PUSH0 KECCAK256 SWAP1 POP SWAP2 SWAP1 POP JUMP JUMPDEST PUSH0 PUSH1 0x20 PUSH1 0x1F DUP4 ADD DIV SWAP1 POP SWAP2 SWAP1 POP JUMP JUMPDEST PUSH0 DUP3 DUP3 SHL SWAP1 POP SWAP3 SWAP2 POP POP JUMP JUMPDEST PUSH0 PUSH1 0x8 DUP4 MUL PUSH2 0x18E9 PUSH32 0xFFFFFFFFFFFFFFFFFFFFFFFFFFFFFFFFFFFFFFFFFFFFFFFFFFFFFFFFFFFFFFFF DUP3 PUSH2 0x18AE JUMP JUMPDEST PUSH2 0x18F3 DUP7 DUP4 PUSH2 0x18AE JUMP JUMPDEST SWAP6 POP DUP1 NOT DUP5 AND SWAP4 POP DUP1 DUP7 AND DUP5 OR SWAP3 POP POP POP SWAP4 SWAP3 POP POP POP JUMP JUMPDEST PUSH0 PUSH2 0x1925 PUSH2 0x1920 PUSH2 0x191B DUP5 PUSH2 0xED0 JUMP JUMPDEST PUSH2 0x1041 JUMP JUMPDEST PUSH2 0xED0 JUMP JUMPDEST SWAP1 POP SWAP2 SWAP1 POP JUMP JUMPDEST PUSH0 DUP2 SWAP1 POP SWAP2 SWAP1 POP JUMP JUMPDEST PUSH2 0x193E DUP4 PUSH2 0x190B JUMP JUMPDEST PUSH2 0x1952 PUSH2 0x194A DUP3 PUSH2 0x192C JUMP JUMPDEST DUP5 DUP5 SLOAD PUSH2 0x18BA JUMP JUMPDEST DUP3 SSTORE POP POP POP POP JUMP JUMPDEST PUSH0 SWAP1 JUMP JUMPDEST PUSH2 0x1966 PUSH2 0x195A JUMP JUMPDEST PUSH2 0x1971 DUP2 DUP5 DUP5 PUSH2 0x1935 JUMP JUMPDEST POP POP POP JUMP JUMPDEST JUMPDEST DUP2 DUP2 LT ISZERO PUSH2 0x1994 JUMPI PUSH2 0x1989 PUSH0 DUP3 PUSH2 0x195E JUMP JUMPDEST PUSH1 0x1 DUP2 ADD SWAP1 POP PUSH2 0x1977 JUMP JUMPDEST POP POP JUMP JUMPDEST PUSH1 0x1F DUP3 GT ISZERO PUSH2 0x19D9 JUMPI PUSH2 0x19AA DUP2 PUSH2 0x188D JUMP JUMPDEST PUSH2 0x19B3 DUP5 PUSH2 0x189F JUMP JUMPDEST DUP2 ADD PUSH1 0x20 DUP6 LT ISZERO PUSH2 0x19C2 JUMPI DUP2 SWAP1 POP JUMPDEST PUSH2 0x19D6 PUSH2 0x19CE DUP6 PUSH2 0x189F JUMP JUMPDEST DUP4 ADD DUP3 PUSH2 0x1976 JUMP JUMPDEST POP POP JUMPDEST POP POP POP JUMP JUMPDEST PUSH0 DUP3 DUP3 SHR SWAP1 POP SWAP3 SWAP2 POP POP JUMP JUMPDEST PUSH0 PUSH2 0x19F9 PUSH0 NOT DUP5 PUSH1 0x8 MUL PUSH2 0x19DE JUMP JUMPDEST NOT DUP1 DUP4 AND SWAP2 POP POP SWAP3 SWAP2 POP POP JUMP JUMPDEST PUSH0 PUSH2 0x1A11 DUP4 DUP4 PUSH2 0x19EA JUMP JUMPDEST SWAP2 POP DUP3 PUSH1 0x2 MUL DUP3 OR SWAP1 POP SWAP3 SWAP2 POP POP JUMP JUMPDEST PUSH2 0x1A2A DUP3 PUSH2 0x1276 JUMP JUMPDEST PUSH8 0xFFFFFFFFFFFFFFFF DUP2 GT ISZERO PUSH2 0x1A43 JUMPI PUSH2 0x1A42 PUSH2 0x110B JUMP JUMPDEST JUMPDEST PUSH2 0x1A4D DUP3 SLOAD PUSH2 0x185D JUMP JUMPDEST PUSH2 0x1A58 DUP3 DUP3 DUP6 PUSH2 0x1998 JUMP JUMPDEST PUSH0 PUSH1 0x20 SWAP1 POP PUSH1 0x1F DUP4 GT PUSH1 0x1 DUP2 EQ PUSH2 0x1A89 JUMPI PUSH0 DUP5 ISZERO PUSH2 0x1A77 JUMPI DUP3 DUP8 ADD MLOAD SWAP1 POP JUMPDEST PUSH2 0x1A81 DUP6 DUP3 PUSH2 0x1A06 JUMP JUMPDEST DUP7 SSTORE POP PUSH2 0x1AE8 JUMP JUMPDEST PUSH1 0x1F NOT DUP5 AND PUSH2 0x1A97 DUP7 PUSH2 0x188D JUMP JUMPDEST PUSH0 JUMPDEST DUP3 DUP2 LT ISZERO PUSH2 0x1ABE JUMPI DUP5 DUP10 ADD MLOAD DUP3 SSTORE PUSH1 0x1 DUP3 ADD SWAP2 POP PUSH1 0x20 DUP6 ADD SWAP5 POP PUSH1 0x20 DUP2 ADD SWAP1 POP PUSH2 0x1A99 JUMP JUMPDEST DUP7 DUP4 LT ISZERO PUSH2 0x1ADB JUMPI DUP5 DUP10 ADD MLOAD PUSH2 0x1AD7 PUSH1 0x1F DUP10 AND DUP3 PUSH2 0x19EA JUMP JUMPDEST DUP4 SSTORE POP JUMPDEST PUSH1 0x1 PUSH1 0x2 DUP9 MUL ADD DUP9 SSTORE POP POP POP JUMPDEST POP POP POP POP POP POP JUMP JUMPDEST PUSH32 0x4F776E61626C653A206E6577206F776E657220697320746865207A65726F2061 PUSH0 DUP3 ADD MSTORE PUSH32 0x6464726573730000000000000000000000000000000000000000000000000000 PUSH1 0x20 DUP3 ADD MSTORE POP JUMP JUMPDEST PUSH0 PUSH2 0x1B4A PUSH1 0x26 DUP4 PUSH2 0x1280 JUMP JUMPDEST SWAP2 POP PUSH2 0x1B55 DUP3 PUSH2 0x1AF0 JUMP JUMPDEST PUSH1 0x40 DUP3 ADD SWAP1 POP SWAP2 SWAP1 POP JUMP JUMPDEST PUSH0 PUSH1 0x20 DUP3 ADD SWAP1 POP DUP2 DUP2 SUB PUSH0 DUP4 ADD MSTORE PUSH2 0x1B77 DUP2 PUSH2 0x1B3E JUMP JUMPDEST SWAP1 POP SWAP2 SWAP1 POP JUMP JUMPDEST PUSH32 0x4F776E61626C653A2063616C6C6572206973206E6F7420746865206F776E6572 PUSH0 DUP3 ADD MSTORE POP JUMP JUMPDEST PUSH0 PUSH2 0x1BB2 PUSH1 0x20 DUP4 PUSH2 0x1280 JUMP JUMPDEST SWAP2 POP PUSH2 0x1BBD DUP3 PUSH2 0x1B7E JUMP JUMPDEST PUSH1 0x20 DUP3 ADD SWAP1 POP SWAP2 SWAP1 POP JUMP JUMPDEST PUSH0 PUSH1 0x20 DUP3 ADD SWAP1 POP DUP2 DUP2 SUB PUSH0 DUP4 ADD MSTORE PUSH2 0x1BDF DUP2 PUSH2 0x1BA6 JUMP JUMPDEST SWAP1 POP SWAP2 SWAP1 POP JUMP INVALID LOG2 PUSH5 0x6970667358 0x22 SLT KECCAK256 0xBB 0xDE 0xAD SWAP15 0xE1 ORIGIN MSTORE 0x4E 0xE0 0xC6 SMOD PUSH20 0x8307B8CE58A7D52755010F95C10340A34DE19AA PUSH5 0x736F6C6343 STOP ADDMOD ISZERO STOP CALLER "
				},
				"gasEstimates": {
					"creation": {
						"codeDepositCost": "1439200",
						"executionCost": "infinite",
						"totalCost": "infinite"
					},
					"external": {
						"articleIdCounter()": "2493",
						"articles(uint256)": "infinite",
						"checkBalance()": "infinite",
						"createArticle(string)": "infinite",
						"hasRatedArticle(address,uint256)": "3181",
						"owner()": "2560",
						"pay(address,uint256)": "infinite",
						"priceUploadNew()": "2471",
						"rateArticle(uint256,uint256)": "infinite",
						"ratedTimes(address)": "2847",
						"ratingCount(uint256)": "infinite",
						"ratings(uint256)": "infinite",
						"renounceOwnership()": "30457",
						"timesUsed(address)": "2892",
						"tokenDAO()": "infinite",
						"transferOwnership(address)": "30819",
						"updatePrice(uint256)": "24799"
					}
				},
				"methodIdentifiers": {
					"articleIdCounter()": "3a4e74a1",
					"articles(uint256)": "edcfafe6",
					"checkBalance()": "c71daccb",
					"createArticle(string)": "dc3e7bc6",
					"hasRatedArticle(address,uint256)": "ffc325d2",
					"owner()": "8da5cb5b",
					"pay(address,uint256)": "c4076876",
					"priceUploadNew()": "30c2c157",
					"rateArticle(uint256,uint256)": "760f2c15",
					"ratedTimes(address)": "6b1b5a28",
					"ratingCount(uint256)": "0c975765",
					"ratings(uint256)": "5d30e84d",
					"renounceOwnership()": "715018a6",
					"timesUsed(address)": "3e5353ec",
					"tokenDAO()": "b42cde33",
					"transferOwnership(address)": "f2fde38b",
					"updatePrice(uint256)": "8d6cc56d"
				}
			},
			"storageLayout": {
				"storage": [
					{
						"astId": 7,
						"contract": "votingDAO/News.sol:News",
						"label": "_owner",
						"offset": 0,
						"slot": "0",
						"type": "t_address"
					},
					{
						"astId": 201,
						"contract": "votingDAO/News.sol:News",
						"label": "tokenDAO",
						"offset": 0,
						"slot": "1",
						"type": "t_contract(IToken)196"
					},
					{
						"astId": 203,
						"contract": "votingDAO/News.sol:News",
						"label": "priceUploadNew",
						"offset": 0,
						"slot": "2",
						"type": "t_uint256"
					},
					{
						"astId": 205,
						"contract": "votingDAO/News.sol:News",
						"label": "articleIdCounter",
						"offset": 0,
						"slot": "3",
						"type": "t_uint256"
					},
					{
						"astId": 218,
						"contract": "votingDAO/News.sol:News",
						"label": "articles",
						"offset": 0,
						"slot": "4",
						"type": "t_array(t_struct(Article)214_storage)dyn_storage"
					},
					{
						"astId": 222,
						"contract": "votingDAO/News.sol:News",
						"label": "ratings",
						"offset": 0,
						"slot": "5",
						"type": "t_mapping(t_uint256,t_uint256)"
					},
					{
						"astId": 228,
						"contract": "votingDAO/News.sol:News",
						"label": "hasRatedArticle",
						"offset": 0,
						"slot": "6",
						"type": "t_mapping(t_address,t_mapping(t_uint256,t_bool))"
					},
					{
						"astId": 232,
						"contract": "votingDAO/News.sol:News",
						"label": "ratingCount",
						"offset": 0,
						"slot": "7",
						"type": "t_mapping(t_uint256,t_uint256)"
					},
					{
						"astId": 236,
						"contract": "votingDAO/News.sol:News",
						"label": "ratedTimes",
						"offset": 0,
						"slot": "8",
						"type": "t_mapping(t_address,t_uint256)"
					},
					{
						"astId": 240,
						"contract": "votingDAO/News.sol:News",
						"label": "timesUsed",
						"offset": 0,
						"slot": "9",
						"type": "t_mapping(t_address,t_uint256)"
					}
				],
				"types": {
					"t_address": {
						"encoding": "inplace",
						"label": "address",
						"numberOfBytes": "20"
					},
					"t_array(t_struct(Article)214_storage)dyn_storage": {
						"base": "t_struct(Article)214_storage",
						"encoding": "dynamic_array",
						"label": "struct News.Article[]",
						"numberOfBytes": "32"
					},
					"t_bool": {
						"encoding": "inplace",
						"label": "bool",
						"numberOfBytes": "1"
					},
					"t_contract(IToken)196": {
						"encoding": "inplace",
						"label": "contract IToken",
						"numberOfBytes": "20"
					},
					"t_mapping(t_address,t_mapping(t_uint256,t_bool))": {
						"encoding": "mapping",
						"key": "t_address",
						"label": "mapping(address => mapping(uint256 => bool))",
						"numberOfBytes": "32",
						"value": "t_mapping(t_uint256,t_bool)"
					},
					"t_mapping(t_address,t_uint256)": {
						"encoding": "mapping",
						"key": "t_address",
						"label": "mapping(address => uint256)",
						"numberOfBytes": "32",
						"value": "t_uint256"
					},
					"t_mapping(t_uint256,t_bool)": {
						"encoding": "mapping",
						"key": "t_uint256",
						"label": "mapping(uint256 => bool)",
						"numberOfBytes": "32",
						"value": "t_bool"
					},
					"t_mapping(t_uint256,t_uint256)": {
						"encoding": "mapping",
						"key": "t_uint256",
						"label": "mapping(uint256 => uint256)",
						"numberOfBytes": "32",
						"value": "t_uint256"
					},
					"t_string_storage": {
						"encoding": "bytes",
						"label": "string",
						"numberOfBytes": "32"
					},
					"t_struct(Article)214_storage": {
						"encoding": "inplace",
						"label": "struct News.Article",
						"members": [
							{
								"astId": 207,
								"contract": "votingDAO/News.sol:News",
								"label": "writer",
								"offset": 0,
								"slot": "0",
								"type": "t_address"
							},
							{
								"astId": 209,
								"contract": "votingDAO/News.sol:News",
								"label": "metadata",
								"offset": 0,
								"slot": "1",
								"type": "t_string_storage"
							},
							{
								"astId": 211,
								"contract": "votingDAO/News.sol:News",
								"label": "id",
								"offset": 0,
								"slot": "2",
								"type": "t_uint256"
							},
							{
								"astId": 213,
								"contract": "votingDAO/News.sol:News",
								"label": "weightedAverage",
								"offset": 0,
								"slot": "3",
								"type": "t_uint256"
							}
						],
						"numberOfBytes": "128"
					},
					"t_uint256": {
						"encoding": "inplace",
						"label": "uint256",
						"numberOfBytes": "32"
					}
				}
			},
			"userdoc": {
				"kind": "user",
				"methods": {},
				"version": 1
			}
		}
	}
}