{
	"data": {
		"bytecode": {
			"linkReferences": {},
			"object": "60806040523480156200001157600080fd5b5060405162000cd838038062000cd883398181016040528101906200003791906200023e565b81600360006101000a81548173ffffffffffffffffffffffffffffffffffffffff021916908373ffffffffffffffffffffffffffffffffffffffff16021790555033600260006101000a81548173ffffffffffffffffffffffffffffffffffffffff021916908373ffffffffffffffffffffffffffffffffffffffff1602179055508260009080519060200190620000d1929190620000e2565b5080600181905550505050620004c3565b828054620000f090620003a0565b90600052602060002090601f01602090048101928262000114576000855562000160565b82601f106200012f57805160ff191683800117855562000160565b8280016001018555821562000160579182015b828111156200015f57825182559160200191906001019062000142565b5b5090506200016f919062000173565b5090565b5b808211156200018e57600081600090555060010162000174565b5090565b6000620001a9620001a384620002e2565b620002b9565b905082815260208101848484011115620001c857620001c76200046f565b5b620001d58482856200036a565b509392505050565b600081519050620001ee816200048f565b92915050565b600082601f8301126200020c576200020b6200046a565b5b81516200021e84826020860162000192565b91505092915050565b6000815190506200023881620004a9565b92915050565b6000806000606084860312156200025a576200025962000479565b5b600084015167ffffffffffffffff8111156200027b576200027a62000474565b5b6200028986828701620001f4565b93505060206200029c86828701620001dd565b9250506040620002af8682870162000227565b9150509250925092565b6000620002c5620002d8565b9050620002d38282620003d6565b919050565b6000604051905090565b600067ffffffffffffffff8211156200030057620002ff6200043b565b5b6200030b826200047e565b9050602081019050919050565b6000620003258262000340565b9050919050565b6000620003398262000318565b9050919050565b600073ffffffffffffffffffffffffffffffffffffffff82169050919050565b6000819050919050565b60005b838110156200038a5780820151818401526020810190506200036d565b838111156200039a576000848401525b50505050565b60006002820490506001821680620003b957607f821691505b60208210811415620003d057620003cf6200040c565b5b50919050565b620003e1826200047e565b810181811067ffffffffffffffff821117156200040357620004026200043b565b5b80604052505050565b7f4e487b7100000000000000000000000000000000000000000000000000000000600052602260045260246000fd5b7f4e487b7100000000000000000000000000000000000000000000000000000000600052604160045260246000fd5b600080fd5b600080fd5b600080fd5b600080fd5b6000601f19601f8301169050919050565b6200049a816200032c565b8114620004a657600080fd5b50565b620004b48162000360565b8114620004c057600080fd5b50565b61080580620004d36000396000f3fe608060405234801561001057600080fd5b506004361061004c5760003560e01c80630748f40a146100515780632e52d6061461006d5780638da5cb5b1461008b578063f9633930146100a9575b600080fd5b61006b60048036038101906100669190610379565b6100c7565b005b61007561019b565b60405161008291906104c2565b60405180910390f35b6100936101c1565b6040516100a091906104a7565b60405180910390f35b6100b16101e7565b6040516100be91906104dd565b60405180910390f35b600080600360009054906101000a900473ffffffffffffffffffffffffffffffffffffffff1673ffffffffffffffffffffffffffffffffffffffff16836040516101119190610490565b600060405180830381855af49150503d806000811461014c576040519150601f19603f3d011682016040523d82523d6000602084013e610151565b606091505b509150915081610196576040517f08c379a000000000000000000000000000000000000000000000000000000000815260040161018d906104ff565b60405180910390fd5b505050565b600360009054906101000a900473ffffffffffffffffffffffffffffffffffffffff1681565b600260009054906101000a900473ffffffffffffffffffffffffffffffffffffffff1681565b60603373ffffffffffffffffffffffffffffffffffffffff16600260009054906101000a900473ffffffffffffffffffffffffffffffffffffffff1673ffffffffffffffffffffffffffffffffffffffff1614610279576040517f08c379a00000000000000000000000000000000000000000000000000000000081526004016102709061051f565b60405180910390fd5b6000805461028690610671565b80601f01602080910402602001604051908101604052809291908181526020018280546102b290610671565b80156102ff5780601f106102d4576101008083540402835291602001916102ff565b820191906000526020600020905b8154815290600101906020018083116102e257829003601f168201915b5050505050905090565b600061031c61031784610564565b61053f565b90508281526020810184848401111561033857610337610737565b5b61034384828561062f565b509392505050565b600082601f8301126103605761035f610732565b5b8135610370848260208601610309565b91505092915050565b60006020828403121561038f5761038e610741565b5b600082013567ffffffffffffffff8111156103ad576103ac61073c565b5b6103b98482850161034b565b91505092915050565b6103cb816105c7565b82525050565b60006103dc82610595565b6103e681856105ab565b93506103f681856020860161063e565b80840191505092915050565b61040b816105f9565b82525050565b600061041c826105a0565b61042681856105b6565b935061043681856020860161063e565b61043f81610746565b840191505092915050565b6000610457600b836105b6565b915061046282610757565b602082019050919050565b600061047a6023836105b6565b915061048582610780565b604082019050919050565b600061049c82846103d1565b915081905092915050565b60006020820190506104bc60008301846103c2565b92915050565b60006020820190506104d76000830184610402565b92915050565b600060208201905081810360008301526104f78184610411565b905092915050565b600060208201905081810360008301526105188161044a565b9050919050565b600060208201905081810360008301526105388161046d565b9050919050565b600061054961055a565b905061055582826106a3565b919050565b6000604051905090565b600067ffffffffffffffff82111561057f5761057e610703565b5b61058882610746565b9050602081019050919050565b600081519050919050565b600081519050919050565b600081905092915050565b600082825260208201905092915050565b60006105d2826105d9565b9050919050565b600073ffffffffffffffffffffffffffffffffffffffff82169050919050565b60006106048261060b565b9050919050565b60006106168261061d565b9050919050565b6000610628826105d9565b9050919050565b82818337600083830152505050565b60005b8381101561065c578082015181840152602081019050610641565b8381111561066b576000848401525b50505050565b6000600282049050600182168061068957607f821691505b6020821081141561069d5761069c6106d4565b5b50919050565b6106ac82610746565b810181811067ffffffffffffffff821117156106cb576106ca610703565b5b80604052505050565b7f4e487b7100000000000000000000000000000000000000000000000000000000600052602260045260246000fd5b7f4e487b7100000000000000000000000000000000000000000000000000000000600052604160045260246000fd5b600080fd5b600080fd5b600080fd5b600080fd5b6000601f19601f8301169050919050565b7f4e6f20636f72726563746f000000000000000000000000000000000000000000600082015250565b7f4e6f206572657320656c2070726f706965746172696f2064656c20636f6e747260008201527f61746f000000000000000000000000000000000000000000000000000000000060208201525056fea2646970667358221220047d5c5cd8e565d349d38977357b581f0c6d6714215c38f6e4a922652c92754e64736f6c63430008070033",
			"opcodes": "PUSH1 0x80 PUSH1 0x40 MSTORE CALLVALUE DUP1 ISZERO PUSH3 0x11 JUMPI PUSH1 0x0 DUP1 REVERT JUMPDEST POP PUSH1 0x40 MLOAD PUSH3 0xCD8 CODESIZE SUB DUP1 PUSH3 0xCD8 DUP4 CODECOPY DUP2 DUP2 ADD PUSH1 0x40 MSTORE DUP2 ADD SWAP1 PUSH3 0x37 SWAP2 SWAP1 PUSH3 0x23E JUMP JUMPDEST DUP2 PUSH1 0x3 PUSH1 0x0 PUSH2 0x100 EXP DUP2 SLOAD DUP2 PUSH20 0xFFFFFFFFFFFFFFFFFFFFFFFFFFFFFFFFFFFFFFFF MUL NOT AND SWAP1 DUP4 PUSH20 0xFFFFFFFFFFFFFFFFFFFFFFFFFFFFFFFFFFFFFFFF AND MUL OR SWAP1 SSTORE POP CALLER PUSH1 0x2 PUSH1 0x0 PUSH2 0x100 EXP DUP2 SLOAD DUP2 PUSH20 0xFFFFFFFFFFFFFFFFFFFFFFFFFFFFFFFFFFFFFFFF MUL NOT AND SWAP1 DUP4 PUSH20 0xFFFFFFFFFFFFFFFFFFFFFFFFFFFFFFFFFFFFFFFF AND MUL OR SWAP1 SSTORE POP DUP3 PUSH1 0x0 SWAP1 DUP1 MLOAD SWAP1 PUSH1 0x20 ADD SWAP1 PUSH3 0xD1 SWAP3 SWAP2 SWAP1 PUSH3 0xE2 JUMP JUMPDEST POP DUP1 PUSH1 0x1 DUP2 SWAP1 SSTORE POP POP POP POP PUSH3 0x4C3 JUMP JUMPDEST DUP3 DUP1 SLOAD PUSH3 0xF0 SWAP1 PUSH3 0x3A0 JUMP JUMPDEST SWAP1 PUSH1 0x0 MSTORE PUSH1 0x20 PUSH1 0x0 KECCAK256 SWAP1 PUSH1 0x1F ADD PUSH1 0x20 SWAP1 DIV DUP2 ADD SWAP3 DUP3 PUSH3 0x114 JUMPI PUSH1 0x0 DUP6 SSTORE PUSH3 0x160 JUMP JUMPDEST DUP3 PUSH1 0x1F LT PUSH3 0x12F JUMPI DUP1 MLOAD PUSH1 0xFF NOT AND DUP4 DUP1 ADD OR DUP6 SSTORE PUSH3 0x160 JUMP JUMPDEST DUP3 DUP1 ADD PUSH1 0x1 ADD DUP6 SSTORE DUP3 ISZERO PUSH3 0x160 JUMPI SWAP2 DUP3 ADD JUMPDEST DUP3 DUP2 GT ISZERO PUSH3 0x15F JUMPI DUP3 MLOAD DUP3 SSTORE SWAP2 PUSH1 0x20 ADD SWAP2 SWAP1 PUSH1 0x1 ADD SWAP1 PUSH3 0x142 JUMP JUMPDEST JUMPDEST POP SWAP1 POP PUSH3 0x16F SWAP2 SWAP1 PUSH3 0x173 JUMP JUMPDEST POP SWAP1 JUMP JUMPDEST JUMPDEST DUP1 DUP3 GT ISZERO PUSH3 0x18E JUMPI PUSH1 0x0 DUP2 PUSH1 0x0 SWAP1 SSTORE POP PUSH1 0x1 ADD PUSH3 0x174 JUMP JUMPDEST POP SWAP1 JUMP JUMPDEST PUSH1 0x0 PUSH3 0x1A9 PUSH3 0x1A3 DUP5 PUSH3 0x2E2 JUMP JUMPDEST PUSH3 0x2B9 JUMP JUMPDEST SWAP1 POP DUP3 DUP2 MSTORE PUSH1 0x20 DUP2 ADD DUP5 DUP5 DUP5 ADD GT ISZERO PUSH3 0x1C8 JUMPI PUSH3 0x1C7 PUSH3 0x46F JUMP JUMPDEST JUMPDEST PUSH3 0x1D5 DUP5 DUP3 DUP6 PUSH3 0x36A JUMP JUMPDEST POP SWAP4 SWAP3 POP POP POP JUMP JUMPDEST PUSH1 0x0 DUP2 MLOAD SWAP1 POP PUSH3 0x1EE DUP2 PUSH3 0x48F JUMP JUMPDEST SWAP3 SWAP2 POP POP JUMP JUMPDEST PUSH1 0x0 DUP3 PUSH1 0x1F DUP4 ADD SLT PUSH3 0x20C JUMPI PUSH3 0x20B PUSH3 0x46A JUMP JUMPDEST JUMPDEST DUP2 MLOAD PUSH3 0x21E DUP5 DUP3 PUSH1 0x20 DUP7 ADD PUSH3 0x192 JUMP JUMPDEST SWAP2 POP POP SWAP3 SWAP2 POP POP JUMP JUMPDEST PUSH1 0x0 DUP2 MLOAD SWAP1 POP PUSH3 0x238 DUP2 PUSH3 0x4A9 JUMP JUMPDEST SWAP3 SWAP2 POP POP JUMP JUMPDEST PUSH1 0x0 DUP1 PUSH1 0x0 PUSH1 0x60 DUP5 DUP7 SUB SLT ISZERO PUSH3 0x25A JUMPI PUSH3 0x259 PUSH3 0x479 JUMP JUMPDEST JUMPDEST PUSH1 0x0 DUP5 ADD MLOAD PUSH8 0xFFFFFFFFFFFFFFFF DUP2 GT ISZERO PUSH3 0x27B JUMPI PUSH3 0x27A PUSH3 0x474 JUMP JUMPDEST JUMPDEST PUSH3 0x289 DUP7 DUP3 DUP8 ADD PUSH3 0x1F4 JUMP JUMPDEST SWAP4 POP POP PUSH1 0x20 PUSH3 0x29C DUP7 DUP3 DUP8 ADD PUSH3 0x1DD JUMP JUMPDEST SWAP3 POP POP PUSH1 0x40 PUSH3 0x2AF DUP7 DUP3 DUP8 ADD PUSH3 0x227 JUMP JUMPDEST SWAP2 POP POP SWAP3 POP SWAP3 POP SWAP3 JUMP JUMPDEST PUSH1 0x0 PUSH3 0x2C5 PUSH3 0x2D8 JUMP JUMPDEST SWAP1 POP PUSH3 0x2D3 DUP3 DUP3 PUSH3 0x3D6 JUMP JUMPDEST SWAP2 SWAP1 POP JUMP JUMPDEST PUSH1 0x0 PUSH1 0x40 MLOAD SWAP1 POP SWAP1 JUMP JUMPDEST PUSH1 0x0 PUSH8 0xFFFFFFFFFFFFFFFF DUP3 GT ISZERO PUSH3 0x300 JUMPI PUSH3 0x2FF PUSH3 0x43B JUMP JUMPDEST JUMPDEST PUSH3 0x30B DUP3 PUSH3 0x47E JUMP JUMPDEST SWAP1 POP PUSH1 0x20 DUP2 ADD SWAP1 POP SWAP2 SWAP1 POP JUMP JUMPDEST PUSH1 0x0 PUSH3 0x325 DUP3 PUSH3 0x340 JUMP JUMPDEST SWAP1 POP SWAP2 SWAP1 POP JUMP JUMPDEST PUSH1 0x0 PUSH3 0x339 DUP3 PUSH3 0x318 JUMP JUMPDEST SWAP1 POP SWAP2 SWAP1 POP JUMP JUMPDEST PUSH1 0x0 PUSH20 0xFFFFFFFFFFFFFFFFFFFFFFFFFFFFFFFFFFFFFFFF DUP3 AND SWAP1 POP SWAP2 SWAP1 POP JUMP JUMPDEST PUSH1 0x0 DUP2 SWAP1 POP SWAP2 SWAP1 POP JUMP JUMPDEST PUSH1 0x0 JUMPDEST DUP4 DUP2 LT ISZERO PUSH3 0x38A JUMPI DUP1 DUP3 ADD MLOAD DUP2 DUP5 ADD MSTORE PUSH1 0x20 DUP2 ADD SWAP1 POP PUSH3 0x36D JUMP JUMPDEST DUP4 DUP2 GT ISZERO PUSH3 0x39A JUMPI PUSH1 0x0 DUP5 DUP5 ADD MSTORE JUMPDEST POP POP POP POP JUMP JUMPDEST PUSH1 0x0 PUSH1 0x2 DUP3 DIV SWAP1 POP PUSH1 0x1 DUP3 AND DUP1 PUSH3 0x3B9 JUMPI PUSH1 0x7F DUP3 AND SWAP2 POP JUMPDEST PUSH1 0x20 DUP3 LT DUP2 EQ ISZERO PUSH3 0x3D0 JUMPI PUSH3 0x3CF PUSH3 0x40C JUMP JUMPDEST JUMPDEST POP SWAP2 SWAP1 POP JUMP JUMPDEST PUSH3 0x3E1 DUP3 PUSH3 0x47E JUMP JUMPDEST DUP2 ADD DUP2 DUP2 LT PUSH8 0xFFFFFFFFFFFFFFFF DUP3 GT OR ISZERO PUSH3 0x403 JUMPI PUSH3 0x402 PUSH3 0x43B JUMP JUMPDEST JUMPDEST DUP1 PUSH1 0x40 MSTORE POP POP POP JUMP JUMPDEST PUSH32 0x4E487B7100000000000000000000000000000000000000000000000000000000 PUSH1 0x0 MSTORE PUSH1 0x22 PUSH1 0x4 MSTORE PUSH1 0x24 PUSH1 0x0 REVERT JUMPDEST PUSH32 0x4E487B7100000000000000000000000000000000000000000000000000000000 PUSH1 0x0 MSTORE PUSH1 0x41 PUSH1 0x4 MSTORE PUSH1 0x24 PUSH1 0x0 REVERT JUMPDEST PUSH1 0x0 DUP1 REVERT JUMPDEST PUSH1 0x0 DUP1 REVERT JUMPDEST PUSH1 0x0 DUP1 REVERT JUMPDEST PUSH1 0x0 DUP1 REVERT JUMPDEST PUSH1 0x0 PUSH1 0x1F NOT PUSH1 0x1F DUP4 ADD AND SWAP1 POP SWAP2 SWAP1 POP JUMP JUMPDEST PUSH3 0x49A DUP2 PUSH3 0x32C JUMP JUMPDEST DUP2 EQ PUSH3 0x4A6 JUMPI PUSH1 0x0 DUP1 REVERT JUMPDEST POP JUMP JUMPDEST PUSH3 0x4B4 DUP2 PUSH3 0x360 JUMP JUMPDEST DUP2 EQ PUSH3 0x4C0 JUMPI PUSH1 0x0 DUP1 REVERT JUMPDEST POP JUMP JUMPDEST PUSH2 0x805 DUP1 PUSH3 0x4D3 PUSH1 0x0 CODECOPY PUSH1 0x0 RETURN INVALID PUSH1 0x80 PUSH1 0x40 MSTORE CALLVALUE DUP1 ISZERO PUSH2 0x10 JUMPI PUSH1 0x0 DUP1 REVERT JUMPDEST POP PUSH1 0x4 CALLDATASIZE LT PUSH2 0x4C JUMPI PUSH1 0x0 CALLDATALOAD PUSH1 0xE0 SHR DUP1 PUSH4 0x748F40A EQ PUSH2 0x51 JUMPI DUP1 PUSH4 0x2E52D606 EQ PUSH2 0x6D JUMPI DUP1 PUSH4 0x8DA5CB5B EQ PUSH2 0x8B JUMPI DUP1 PUSH4 0xF9633930 EQ PUSH2 0xA9 JUMPI JUMPDEST PUSH1 0x0 DUP1 REVERT JUMPDEST PUSH2 0x6B PUSH1 0x4 DUP1 CALLDATASIZE SUB DUP2 ADD SWAP1 PUSH2 0x66 SWAP2 SWAP1 PUSH2 0x379 JUMP JUMPDEST PUSH2 0xC7 JUMP JUMPDEST STOP JUMPDEST PUSH2 0x75 PUSH2 0x19B JUMP JUMPDEST PUSH1 0x40 MLOAD PUSH2 0x82 SWAP2 SWAP1 PUSH2 0x4C2 JUMP JUMPDEST PUSH1 0x40 MLOAD DUP1 SWAP2 SUB SWAP1 RETURN JUMPDEST PUSH2 0x93 PUSH2 0x1C1 JUMP JUMPDEST PUSH1 0x40 MLOAD PUSH2 0xA0 SWAP2 SWAP1 PUSH2 0x4A7 JUMP JUMPDEST PUSH1 0x40 MLOAD DUP1 SWAP2 SUB SWAP1 RETURN JUMPDEST PUSH2 0xB1 PUSH2 0x1E7 JUMP JUMPDEST PUSH1 0x40 MLOAD PUSH2 0xBE SWAP2 SWAP1 PUSH2 0x4DD JUMP JUMPDEST PUSH1 0x40 MLOAD DUP1 SWAP2 SUB SWAP1 RETURN JUMPDEST PUSH1 0x0 DUP1 PUSH1 0x3 PUSH1 0x0 SWAP1 SLOAD SWAP1 PUSH2 0x100 EXP SWAP1 DIV PUSH20 0xFFFFFFFFFFFFFFFFFFFFFFFFFFFFFFFFFFFFFFFF AND PUSH20 0xFFFFFFFFFFFFFFFFFFFFFFFFFFFFFFFFFFFFFFFF AND DUP4 PUSH1 0x40 MLOAD PUSH2 0x111 SWAP2 SWAP1 PUSH2 0x490 JUMP JUMPDEST PUSH1 0x0 PUSH1 0x40 MLOAD DUP1 DUP4 SUB DUP2 DUP6 GAS DELEGATECALL SWAP2 POP POP RETURNDATASIZE DUP1 PUSH1 0x0 DUP2 EQ PUSH2 0x14C JUMPI PUSH1 0x40 MLOAD SWAP2 POP PUSH1 0x1F NOT PUSH1 0x3F RETURNDATASIZE ADD AND DUP3 ADD PUSH1 0x40 MSTORE RETURNDATASIZE DUP3 MSTORE RETURNDATASIZE PUSH1 0x0 PUSH1 0x20 DUP5 ADD RETURNDATACOPY PUSH2 0x151 JUMP JUMPDEST PUSH1 0x60 SWAP2 POP JUMPDEST POP SWAP2 POP SWAP2 POP DUP2 PUSH2 0x196 JUMPI PUSH1 0x40 MLOAD PUSH32 0x8C379A000000000000000000000000000000000000000000000000000000000 DUP2 MSTORE PUSH1 0x4 ADD PUSH2 0x18D SWAP1 PUSH2 0x4FF JUMP JUMPDEST PUSH1 0x40 MLOAD DUP1 SWAP2 SUB SWAP1 REVERT JUMPDEST POP POP POP JUMP JUMPDEST PUSH1 0x3 PUSH1 0x0 SWAP1 SLOAD SWAP1 PUSH2 0x100 EXP SWAP1 DIV PUSH20 0xFFFFFFFFFFFFFFFFFFFFFFFFFFFFFFFFFFFFFFFF AND DUP2 JUMP JUMPDEST PUSH1 0x2 PUSH1 0x0 SWAP1 SLOAD SWAP1 PUSH2 0x100 EXP SWAP1 DIV PUSH20 0xFFFFFFFFFFFFFFFFFFFFFFFFFFFFFFFFFFFFFFFF AND DUP2 JUMP JUMPDEST PUSH1 0x60 CALLER PUSH20 0xFFFFFFFFFFFFFFFFFFFFFFFFFFFFFFFFFFFFFFFF AND PUSH1 0x2 PUSH1 0x0 SWAP1 SLOAD SWAP1 PUSH2 0x100 EXP SWAP1 DIV PUSH20 0xFFFFFFFFFFFFFFFFFFFFFFFFFFFFFFFFFFFFFFFF AND PUSH20 0xFFFFFFFFFFFFFFFFFFFFFFFFFFFFFFFFFFFFFFFF AND EQ PUSH2 0x279 JUMPI PUSH1 0x40 MLOAD PUSH32 0x8C379A000000000000000000000000000000000000000000000000000000000 DUP2 MSTORE PUSH1 0x4 ADD PUSH2 0x270 SWAP1 PUSH2 0x51F JUMP JUMPDEST PUSH1 0x40 MLOAD DUP1 SWAP2 SUB SWAP1 REVERT JUMPDEST PUSH1 0x0 DUP1 SLOAD PUSH2 0x286 SWAP1 PUSH2 0x671 JUMP JUMPDEST DUP1 PUSH1 0x1F ADD PUSH1 0x20 DUP1 SWAP2 DIV MUL PUSH1 0x20 ADD PUSH1 0x40 MLOAD SWAP1 DUP2 ADD PUSH1 0x40 MSTORE DUP1 SWAP3 SWAP2 SWAP1 DUP2 DUP2 MSTORE PUSH1 0x20 ADD DUP3 DUP1 SLOAD PUSH2 0x2B2 SWAP1 PUSH2 0x671 JUMP JUMPDEST DUP1 ISZERO PUSH2 0x2FF JUMPI DUP1 PUSH1 0x1F LT PUSH2 0x2D4 JUMPI PUSH2 0x100 DUP1 DUP4 SLOAD DIV MUL DUP4 MSTORE SWAP2 PUSH1 0x20 ADD SWAP2 PUSH2 0x2FF JUMP JUMPDEST DUP3 ADD SWAP2 SWAP1 PUSH1 0x0 MSTORE PUSH1 0x20 PUSH1 0x0 KECCAK256 SWAP1 JUMPDEST DUP2 SLOAD DUP2 MSTORE SWAP1 PUSH1 0x1 ADD SWAP1 PUSH1 0x20 ADD DUP1 DUP4 GT PUSH2 0x2E2 JUMPI DUP3 SWAP1 SUB PUSH1 0x1F AND DUP3 ADD SWAP2 JUMPDEST POP POP POP POP POP SWAP1 POP SWAP1 JUMP JUMPDEST PUSH1 0x0 PUSH2 0x31C PUSH2 0x317 DUP5 PUSH2 0x564 JUMP JUMPDEST PUSH2 0x53F JUMP JUMPDEST SWAP1 POP DUP3 DUP2 MSTORE PUSH1 0x20 DUP2 ADD DUP5 DUP5 DUP5 ADD GT ISZERO PUSH2 0x338 JUMPI PUSH2 0x337 PUSH2 0x737 JUMP JUMPDEST JUMPDEST PUSH2 0x343 DUP5 DUP3 DUP6 PUSH2 0x62F JUMP JUMPDEST POP SWAP4 SWAP3 POP POP POP JUMP JUMPDEST PUSH1 0x0 DUP3 PUSH1 0x1F DUP4 ADD SLT PUSH2 0x360 JUMPI PUSH2 0x35F PUSH2 0x732 JUMP JUMPDEST JUMPDEST DUP2 CALLDATALOAD PUSH2 0x370 DUP5 DUP3 PUSH1 0x20 DUP7 ADD PUSH2 0x309 JUMP JUMPDEST SWAP2 POP POP SWAP3 SWAP2 POP POP JUMP JUMPDEST PUSH1 0x0 PUSH1 0x20 DUP3 DUP5 SUB SLT ISZERO PUSH2 0x38F JUMPI PUSH2 0x38E PUSH2 0x741 JUMP JUMPDEST JUMPDEST PUSH1 0x0 DUP3 ADD CALLDATALOAD PUSH8 0xFFFFFFFFFFFFFFFF DUP2 GT ISZERO PUSH2 0x3AD JUMPI PUSH2 0x3AC PUSH2 0x73C JUMP JUMPDEST JUMPDEST PUSH2 0x3B9 DUP5 DUP3 DUP6 ADD PUSH2 0x34B JUMP JUMPDEST SWAP2 POP POP SWAP3 SWAP2 POP POP JUMP JUMPDEST PUSH2 0x3CB DUP2 PUSH2 0x5C7 JUMP JUMPDEST DUP3 MSTORE POP POP JUMP JUMPDEST PUSH1 0x0 PUSH2 0x3DC DUP3 PUSH2 0x595 JUMP JUMPDEST PUSH2 0x3E6 DUP2 DUP6 PUSH2 0x5AB JUMP JUMPDEST SWAP4 POP PUSH2 0x3F6 DUP2 DUP6 PUSH1 0x20 DUP7 ADD PUSH2 0x63E JUMP JUMPDEST DUP1 DUP5 ADD SWAP2 POP POP SWAP3 SWAP2 POP POP JUMP JUMPDEST PUSH2 0x40B DUP2 PUSH2 0x5F9 JUMP JUMPDEST DUP3 MSTORE POP POP JUMP JUMPDEST PUSH1 0x0 PUSH2 0x41C DUP3 PUSH2 0x5A0 JUMP JUMPDEST PUSH2 0x426 DUP2 DUP6 PUSH2 0x5B6 JUMP JUMPDEST SWAP4 POP PUSH2 0x436 DUP2 DUP6 PUSH1 0x20 DUP7 ADD PUSH2 0x63E JUMP JUMPDEST PUSH2 0x43F DUP2 PUSH2 0x746 JUMP JUMPDEST DUP5 ADD SWAP2 POP POP SWAP3 SWAP2 POP POP JUMP JUMPDEST PUSH1 0x0 PUSH2 0x457 PUSH1 0xB DUP4 PUSH2 0x5B6 JUMP JUMPDEST SWAP2 POP PUSH2 0x462 DUP3 PUSH2 0x757 JUMP JUMPDEST PUSH1 0x20 DUP3 ADD SWAP1 POP SWAP2 SWAP1 POP JUMP JUMPDEST PUSH1 0x0 PUSH2 0x47A PUSH1 0x23 DUP4 PUSH2 0x5B6 JUMP JUMPDEST SWAP2 POP PUSH2 0x485 DUP3 PUSH2 0x780 JUMP JUMPDEST PUSH1 0x40 DUP3 ADD SWAP1 POP SWAP2 SWAP1 POP JUMP JUMPDEST PUSH1 0x0 PUSH2 0x49C DUP3 DUP5 PUSH2 0x3D1 JUMP JUMPDEST SWAP2 POP DUP2 SWAP1 POP SWAP3 SWAP2 POP POP JUMP JUMPDEST PUSH1 0x0 PUSH1 0x20 DUP3 ADD SWAP1 POP PUSH2 0x4BC PUSH1 0x0 DUP4 ADD DUP5 PUSH2 0x3C2 JUMP JUMPDEST SWAP3 SWAP2 POP POP JUMP JUMPDEST PUSH1 0x0 PUSH1 0x20 DUP3 ADD SWAP1 POP PUSH2 0x4D7 PUSH1 0x0 DUP4 ADD DUP5 PUSH2 0x402 JUMP JUMPDEST SWAP3 SWAP2 POP POP JUMP JUMPDEST PUSH1 0x0 PUSH1 0x20 DUP3 ADD SWAP1 POP DUP2 DUP2 SUB PUSH1 0x0 DUP4 ADD MSTORE PUSH2 0x4F7 DUP2 DUP5 PUSH2 0x411 JUMP JUMPDEST SWAP1 POP SWAP3 SWAP2 POP POP JUMP JUMPDEST PUSH1 0x0 PUSH1 0x20 DUP3 ADD SWAP1 POP DUP2 DUP2 SUB PUSH1 0x0 DUP4 ADD MSTORE PUSH2 0x518 DUP2 PUSH2 0x44A JUMP JUMPDEST SWAP1 POP SWAP2 SWAP1 POP JUMP JUMPDEST PUSH1 0x0 PUSH1 0x20 DUP3 ADD SWAP1 POP DUP2 DUP2 SUB PUSH1 0x0 DUP4 ADD MSTORE PUSH2 0x538 DUP2 PUSH2 0x46D JUMP JUMPDEST SWAP1 POP SWAP2 SWAP1 POP JUMP JUMPDEST PUSH1 0x0 PUSH2 0x549 PUSH2 0x55A JUMP JUMPDEST SWAP1 POP PUSH2 0x555 DUP3 DUP3 PUSH2 0x6A3 JUMP JUMPDEST SWAP2 SWAP1 POP JUMP JUMPDEST PUSH1 0x0 PUSH1 0x40 MLOAD SWAP1 POP SWAP1 JUMP JUMPDEST PUSH1 0x0 PUSH8 0xFFFFFFFFFFFFFFFF DUP3 GT ISZERO PUSH2 0x57F JUMPI PUSH2 0x57E PUSH2 0x703 JUMP JUMPDEST JUMPDEST PUSH2 0x588 DUP3 PUSH2 0x746 JUMP JUMPDEST SWAP1 POP PUSH1 0x20 DUP2 ADD SWAP1 POP SWAP2 SWAP1 POP JUMP JUMPDEST PUSH1 0x0 DUP2 MLOAD SWAP1 POP SWAP2 SWAP1 POP JUMP JUMPDEST PUSH1 0x0 DUP2 MLOAD SWAP1 POP SWAP2 SWAP1 POP JUMP JUMPDEST PUSH1 0x0 DUP2 SWAP1 POP SWAP3 SWAP2 POP POP JUMP JUMPDEST PUSH1 0x0 DUP3 DUP3 MSTORE PUSH1 0x20 DUP3 ADD SWAP1 POP SWAP3 SWAP2 POP POP JUMP JUMPDEST PUSH1 0x0 PUSH2 0x5D2 DUP3 PUSH2 0x5D9 JUMP JUMPDEST SWAP1 POP SWAP2 SWAP1 POP JUMP JUMPDEST PUSH1 0x0 PUSH20 0xFFFFFFFFFFFFFFFFFFFFFFFFFFFFFFFFFFFFFFFF DUP3 AND SWAP1 POP SWAP2 SWAP1 POP JUMP JUMPDEST PUSH1 0x0 PUSH2 0x604 DUP3 PUSH2 0x60B JUMP JUMPDEST SWAP1 POP SWAP2 SWAP1 POP JUMP JUMPDEST PUSH1 0x0 PUSH2 0x616 DUP3 PUSH2 0x61D JUMP JUMPDEST SWAP1 POP SWAP2 SWAP1 POP JUMP JUMPDEST PUSH1 0x0 PUSH2 0x628 DUP3 PUSH2 0x5D9 JUMP JUMPDEST SWAP1 POP SWAP2 SWAP1 POP JUMP JUMPDEST DUP3 DUP2 DUP4 CALLDATACOPY PUSH1 0x0 DUP4 DUP4 ADD MSTORE POP POP POP JUMP JUMPDEST PUSH1 0x0 JUMPDEST DUP4 DUP2 LT ISZERO PUSH2 0x65C JUMPI DUP1 DUP3 ADD MLOAD DUP2 DUP5 ADD MSTORE PUSH1 0x20 DUP2 ADD SWAP1 POP PUSH2 0x641 JUMP JUMPDEST DUP4 DUP2 GT ISZERO PUSH2 0x66B JUMPI PUSH1 0x0 DUP5 DUP5 ADD MSTORE JUMPDEST POP POP POP POP JUMP JUMPDEST PUSH1 0x0 PUSH1 0x2 DUP3 DIV SWAP1 POP PUSH1 0x1 DUP3 AND DUP1 PUSH2 0x689 JUMPI PUSH1 0x7F DUP3 AND SWAP2 POP JUMPDEST PUSH1 0x20 DUP3 LT DUP2 EQ ISZERO PUSH2 0x69D JUMPI PUSH2 0x69C PUSH2 0x6D4 JUMP JUMPDEST JUMPDEST POP SWAP2 SWAP1 POP JUMP JUMPDEST PUSH2 0x6AC DUP3 PUSH2 0x746 JUMP JUMPDEST DUP2 ADD DUP2 DUP2 LT PUSH8 0xFFFFFFFFFFFFFFFF DUP3 GT OR ISZERO PUSH2 0x6CB JUMPI PUSH2 0x6CA PUSH2 0x703 JUMP JUMPDEST JUMPDEST DUP1 PUSH1 0x40 MSTORE POP POP POP JUMP JUMPDEST PUSH32 0x4E487B7100000000000000000000000000000000000000000000000000000000 PUSH1 0x0 MSTORE PUSH1 0x22 PUSH1 0x4 MSTORE PUSH1 0x24 PUSH1 0x0 REVERT JUMPDEST PUSH32 0x4E487B7100000000000000000000000000000000000000000000000000000000 PUSH1 0x0 MSTORE PUSH1 0x41 PUSH1 0x4 MSTORE PUSH1 0x24 PUSH1 0x0 REVERT JUMPDEST PUSH1 0x0 DUP1 REVERT JUMPDEST PUSH1 0x0 DUP1 REVERT JUMPDEST PUSH1 0x0 DUP1 REVERT JUMPDEST PUSH1 0x0 DUP1 REVERT JUMPDEST PUSH1 0x0 PUSH1 0x1F NOT PUSH1 0x1F DUP4 ADD AND SWAP1 POP SWAP2 SWAP1 POP JUMP JUMPDEST PUSH32 0x4E6F20636F72726563746F000000000000000000000000000000000000000000 PUSH1 0x0 DUP3 ADD MSTORE POP JUMP JUMPDEST PUSH32 0x4E6F206572657320656C2070726F706965746172696F2064656C20636F6E7472 PUSH1 0x0 DUP3 ADD MSTORE PUSH32 0x61746F0000000000000000000000000000000000000000000000000000000000 PUSH1 0x20 DUP3 ADD MSTORE POP JUMP INVALID LOG2 PUSH5 0x6970667358 0x22 SLT KECCAK256 DIV PUSH30 0x5C5CD8E565D349D38977357B581F0C6D6714215C38F6E4A922652C92754E PUSH5 0x736F6C6343 STOP ADDMOD SMOD STOP CALLER "
		},
		"gasEstimates": {
			"creation": {
				"codeDepositCost": "410600",
				"executionCost": "infinite",
				"totalCost": "infinite"
			},
			"external": {
				"execution_function(bytes)": "infinite",
				"getFlag()": "infinite",
				"n()": "2600",
				"owner()": "2536"
			}
		},
		"methodIdentifiers": {
			"execution_function(bytes)": "0748f40a",
			"getFlag()": "f9633930",
			"n()": "2e52d606",
			"owner()": "8da5cb5b"
		}
	},
	"abi": [
		{
			"inputs": [
				{
					"internalType": "string",
					"name": "_flag",
					"type": "string"
				},
				{
					"internalType": "contract Numbers",
					"name": "_n",
					"type": "address"
				},
				{
					"internalType": "uint256",
					"name": "_number",
					"type": "uint256"
				}
			],
			"stateMutability": "nonpayable",
			"type": "constructor"
		},
		{
			"inputs": [
				{
					"internalType": "bytes",
					"name": "_data",
					"type": "bytes"
				}
			],
			"name": "execution_function",
			"outputs": [],
			"stateMutability": "nonpayable",
			"type": "function"
		},
		{
			"inputs": [],
			"name": "getFlag",
			"outputs": [
				{
					"internalType": "string",
					"name": "",
					"type": "string"
				}
			],
			"stateMutability": "view",
			"type": "function"
		},
		{
			"inputs": [],
			"name": "n",
			"outputs": [
				{
					"internalType": "contract Numbers",
					"name": "",
					"type": "address"
				}
			],
			"stateMutability": "view",
			"type": "function"
		},
		{
			"inputs": [],
			"name": "owner",
			"outputs": [
				{
					"internalType": "address",
					"name": "",
					"type": "address"
				}
			],
			"stateMutability": "view",
			"type": "function"
		}
	]
}