{
	"data": {
		"bytecode": {
			"linkReferences": {},
			"object": "608060405234801561001057600080fd5b506040516107cf3803806107cf83398181016040528101906100329190610143565b6040518060400160405280600181526020017f30000000000000000000000000000000000000000000000000000000000000008152506000908051906020019061007d92919061008b565b5080600181905550506101f7565b8280546100979061017a565b90600052602060002090601f0160209004810192826100b95760008555610100565b82601f106100d257805160ff1916838001178555610100565b82800160010185558215610100579182015b828111156100ff5782518255916020019190600101906100e4565b5b50905061010d9190610111565b5090565b5b8082111561012a576000816000905550600101610112565b5090565b60008151905061013d816101e0565b92915050565b600060208284031215610159576101586101db565b5b60006101678482850161012e565b91505092915050565b6000819050919050565b6000600282049050600182168061019257607f821691505b602082108114156101a6576101a56101ac565b5b50919050565b7f4e487b7100000000000000000000000000000000000000000000000000000000600052602260045260246000fd5b600080fd5b6101e981610170565b81146101f457600080fd5b50565b6105c9806102066000396000f3fe608060405234801561001057600080fd5b506004361061004c5760003560e01c806339cffa45146100515780638da5cb5b1461005b5780639189fec114610079578063967ff23e14610095575b600080fd5b6100596100b3565b005b610063610163565b6040516100709190610401565b60405180910390f35b610093600480360381019061008e9190610370565b610189565b005b61009d610211565b6040516100aa919061045c565b60405180910390f35b3373ffffffffffffffffffffffffffffffffffffffff16600260009054906101000a900473ffffffffffffffffffffffffffffffffffffffff1673ffffffffffffffffffffffffffffffffffffffff1614610143576040517f08c379a000000000000000000000000000000000000000000000000000000000815260040161013a9061043c565b60405180910390fd5b61014b610219565b600090805190602001906101609291906102b8565b50565b600260009054906101000a900473ffffffffffffffffffffffffffffffffffffffff1681565b80600154146101cd576040517f08c379a00000000000000000000000000000000000000000000000000000000081526004016101c49061041c565b60405180910390fd5b33600260006101000a81548173ffffffffffffffffffffffffffffffffffffffff021916908373ffffffffffffffffffffffffffffffffffffffff16021790555050565b600043905090565b60603373ffffffffffffffffffffffffffffffffffffffff16600260009054906101000a900473ffffffffffffffffffffffffffffffffffffffff1673ffffffffffffffffffffffffffffffffffffffff16146102ab576040517f08c379a00000000000000000000000000000000000000000000000000000000081526004016102a29061043c565b60405180910390fd5b6102b3610219565b905090565b8280546102c4906104c4565b90600052602060002090601f0160209004810192826102e6576000855561032d565b82601f106102ff57805160ff191683800117855561032d565b8280016001018555821561032d579182015b8281111561032c578251825591602001919060010190610311565b5b50905061033a919061033e565b5090565b5b8082111561035757600081600090555060010161033f565b5090565b60008135905061036a8161057c565b92915050565b60006020828403121561038657610385610525565b5b60006103948482850161035b565b91505092915050565b6103a681610488565b82525050565b60006103b9600f83610477565b91506103c48261052a565b602082019050919050565b60006103dc601383610477565b91506103e782610553565b602082019050919050565b6103fb816104ba565b82525050565b6000602082019050610416600083018461039d565b92915050565b60006020820190508181036000830152610435816103ac565b9050919050565b60006020820190508181036000830152610455816103cf565b9050919050565b600060208201905061047160008301846103f2565b92915050565b600082825260208201905092915050565b60006104938261049a565b9050919050565b600073ffffffffffffffffffffffffffffffffffffffff82169050919050565b6000819050919050565b600060028204905060018216806104dc57607f821691505b602082108114156104f0576104ef6104f6565b5b50919050565b7f4e487b7100000000000000000000000000000000000000000000000000000000600052602260045260246000fd5b600080fd5b7f4e6f2068617320616365727461646f0000000000000000000000000000000000600082015250565b7f4e6f20657265732070726f706965746172696f00000000000000000000000000600082015250565b610585816104ba565b811461059057600080fd5b5056fea26469706673582212208befe87f2c93f40f5213bb6dec82c48418ca9f29e126fc5963af17e1da03db2864736f6c63430008070033",
			"opcodes": "PUSH1 0x80 PUSH1 0x40 MSTORE CALLVALUE DUP1 ISZERO PUSH2 0x10 JUMPI PUSH1 0x0 DUP1 REVERT JUMPDEST POP PUSH1 0x40 MLOAD PUSH2 0x7CF CODESIZE SUB DUP1 PUSH2 0x7CF DUP4 CODECOPY DUP2 DUP2 ADD PUSH1 0x40 MSTORE DUP2 ADD SWAP1 PUSH2 0x32 SWAP2 SWAP1 PUSH2 0x143 JUMP JUMPDEST PUSH1 0x40 MLOAD DUP1 PUSH1 0x40 ADD PUSH1 0x40 MSTORE DUP1 PUSH1 0x1 DUP2 MSTORE PUSH1 0x20 ADD PUSH32 0x3000000000000000000000000000000000000000000000000000000000000000 DUP2 MSTORE POP PUSH1 0x0 SWAP1 DUP1 MLOAD SWAP1 PUSH1 0x20 ADD SWAP1 PUSH2 0x7D SWAP3 SWAP2 SWAP1 PUSH2 0x8B JUMP JUMPDEST POP DUP1 PUSH1 0x1 DUP2 SWAP1 SSTORE POP POP PUSH2 0x1F7 JUMP JUMPDEST DUP3 DUP1 SLOAD PUSH2 0x97 SWAP1 PUSH2 0x17A JUMP JUMPDEST SWAP1 PUSH1 0x0 MSTORE PUSH1 0x20 PUSH1 0x0 KECCAK256 SWAP1 PUSH1 0x1F ADD PUSH1 0x20 SWAP1 DIV DUP2 ADD SWAP3 DUP3 PUSH2 0xB9 JUMPI PUSH1 0x0 DUP6 SSTORE PUSH2 0x100 JUMP JUMPDEST DUP3 PUSH1 0x1F LT PUSH2 0xD2 JUMPI DUP1 MLOAD PUSH1 0xFF NOT AND DUP4 DUP1 ADD OR DUP6 SSTORE PUSH2 0x100 JUMP JUMPDEST DUP3 DUP1 ADD PUSH1 0x1 ADD DUP6 SSTORE DUP3 ISZERO PUSH2 0x100 JUMPI SWAP2 DUP3 ADD JUMPDEST DUP3 DUP2 GT ISZERO PUSH2 0xFF JUMPI DUP3 MLOAD DUP3 SSTORE SWAP2 PUSH1 0x20 ADD SWAP2 SWAP1 PUSH1 0x1 ADD SWAP1 PUSH2 0xE4 JUMP JUMPDEST JUMPDEST POP SWAP1 POP PUSH2 0x10D SWAP2 SWAP1 PUSH2 0x111 JUMP JUMPDEST POP SWAP1 JUMP JUMPDEST JUMPDEST DUP1 DUP3 GT ISZERO PUSH2 0x12A JUMPI PUSH1 0x0 DUP2 PUSH1 0x0 SWAP1 SSTORE POP PUSH1 0x1 ADD PUSH2 0x112 JUMP JUMPDEST POP SWAP1 JUMP JUMPDEST PUSH1 0x0 DUP2 MLOAD SWAP1 POP PUSH2 0x13D DUP2 PUSH2 0x1E0 JUMP JUMPDEST SWAP3 SWAP2 POP POP JUMP JUMPDEST PUSH1 0x0 PUSH1 0x20 DUP3 DUP5 SUB SLT ISZERO PUSH2 0x159 JUMPI PUSH2 0x158 PUSH2 0x1DB JUMP JUMPDEST JUMPDEST PUSH1 0x0 PUSH2 0x167 DUP5 DUP3 DUP6 ADD PUSH2 0x12E JUMP JUMPDEST SWAP2 POP POP SWAP3 SWAP2 POP POP JUMP JUMPDEST PUSH1 0x0 DUP2 SWAP1 POP SWAP2 SWAP1 POP JUMP JUMPDEST PUSH1 0x0 PUSH1 0x2 DUP3 DIV SWAP1 POP PUSH1 0x1 DUP3 AND DUP1 PUSH2 0x192 JUMPI PUSH1 0x7F DUP3 AND SWAP2 POP JUMPDEST PUSH1 0x20 DUP3 LT DUP2 EQ ISZERO PUSH2 0x1A6 JUMPI PUSH2 0x1A5 PUSH2 0x1AC JUMP JUMPDEST JUMPDEST POP SWAP2 SWAP1 POP JUMP JUMPDEST PUSH32 0x4E487B7100000000000000000000000000000000000000000000000000000000 PUSH1 0x0 MSTORE PUSH1 0x22 PUSH1 0x4 MSTORE PUSH1 0x24 PUSH1 0x0 REVERT JUMPDEST PUSH1 0x0 DUP1 REVERT JUMPDEST PUSH2 0x1E9 DUP2 PUSH2 0x170 JUMP JUMPDEST DUP2 EQ PUSH2 0x1F4 JUMPI PUSH1 0x0 DUP1 REVERT JUMPDEST POP JUMP JUMPDEST PUSH2 0x5C9 DUP1 PUSH2 0x206 PUSH1 0x0 CODECOPY PUSH1 0x0 RETURN INVALID PUSH1 0x80 PUSH1 0x40 MSTORE CALLVALUE DUP1 ISZERO PUSH2 0x10 JUMPI PUSH1 0x0 DUP1 REVERT JUMPDEST POP PUSH1 0x4 CALLDATASIZE LT PUSH2 0x4C JUMPI PUSH1 0x0 CALLDATALOAD PUSH1 0xE0 SHR DUP1 PUSH4 0x39CFFA45 EQ PUSH2 0x51 JUMPI DUP1 PUSH4 0x8DA5CB5B EQ PUSH2 0x5B JUMPI DUP1 PUSH4 0x9189FEC1 EQ PUSH2 0x79 JUMPI DUP1 PUSH4 0x967FF23E EQ PUSH2 0x95 JUMPI JUMPDEST PUSH1 0x0 DUP1 REVERT JUMPDEST PUSH2 0x59 PUSH2 0xB3 JUMP JUMPDEST STOP JUMPDEST PUSH2 0x63 PUSH2 0x163 JUMP JUMPDEST PUSH1 0x40 MLOAD PUSH2 0x70 SWAP2 SWAP1 PUSH2 0x401 JUMP JUMPDEST PUSH1 0x40 MLOAD DUP1 SWAP2 SUB SWAP1 RETURN JUMPDEST PUSH2 0x93 PUSH1 0x4 DUP1 CALLDATASIZE SUB DUP2 ADD SWAP1 PUSH2 0x8E SWAP2 SWAP1 PUSH2 0x370 JUMP JUMPDEST PUSH2 0x189 JUMP JUMPDEST STOP JUMPDEST PUSH2 0x9D PUSH2 0x211 JUMP JUMPDEST PUSH1 0x40 MLOAD PUSH2 0xAA SWAP2 SWAP1 PUSH2 0x45C JUMP JUMPDEST PUSH1 0x40 MLOAD DUP1 SWAP2 SUB SWAP1 RETURN JUMPDEST CALLER PUSH20 0xFFFFFFFFFFFFFFFFFFFFFFFFFFFFFFFFFFFFFFFF AND PUSH1 0x2 PUSH1 0x0 SWAP1 SLOAD SWAP1 PUSH2 0x100 EXP SWAP1 DIV PUSH20 0xFFFFFFFFFFFFFFFFFFFFFFFFFFFFFFFFFFFFFFFF AND PUSH20 0xFFFFFFFFFFFFFFFFFFFFFFFFFFFFFFFFFFFFFFFF AND EQ PUSH2 0x143 JUMPI PUSH1 0x40 MLOAD PUSH32 0x8C379A000000000000000000000000000000000000000000000000000000000 DUP2 MSTORE PUSH1 0x4 ADD PUSH2 0x13A SWAP1 PUSH2 0x43C JUMP JUMPDEST PUSH1 0x40 MLOAD DUP1 SWAP2 SUB SWAP1 REVERT JUMPDEST PUSH2 0x14B PUSH2 0x219 JUMP JUMPDEST PUSH1 0x0 SWAP1 DUP1 MLOAD SWAP1 PUSH1 0x20 ADD SWAP1 PUSH2 0x160 SWAP3 SWAP2 SWAP1 PUSH2 0x2B8 JUMP JUMPDEST POP JUMP JUMPDEST PUSH1 0x2 PUSH1 0x0 SWAP1 SLOAD SWAP1 PUSH2 0x100 EXP SWAP1 DIV PUSH20 0xFFFFFFFFFFFFFFFFFFFFFFFFFFFFFFFFFFFFFFFF AND DUP2 JUMP JUMPDEST DUP1 PUSH1 0x1 SLOAD EQ PUSH2 0x1CD JUMPI PUSH1 0x40 MLOAD PUSH32 0x8C379A000000000000000000000000000000000000000000000000000000000 DUP2 MSTORE PUSH1 0x4 ADD PUSH2 0x1C4 SWAP1 PUSH2 0x41C JUMP JUMPDEST PUSH1 0x40 MLOAD DUP1 SWAP2 SUB SWAP1 REVERT JUMPDEST CALLER PUSH1 0x2 PUSH1 0x0 PUSH2 0x100 EXP DUP2 SLOAD DUP2 PUSH20 0xFFFFFFFFFFFFFFFFFFFFFFFFFFFFFFFFFFFFFFFF MUL NOT AND SWAP1 DUP4 PUSH20 0xFFFFFFFFFFFFFFFFFFFFFFFFFFFFFFFFFFFFFFFF AND MUL OR SWAP1 SSTORE POP POP JUMP JUMPDEST PUSH1 0x0 NUMBER SWAP1 POP SWAP1 JUMP JUMPDEST PUSH1 0x60 CALLER PUSH20 0xFFFFFFFFFFFFFFFFFFFFFFFFFFFFFFFFFFFFFFFF AND PUSH1 0x2 PUSH1 0x0 SWAP1 SLOAD SWAP1 PUSH2 0x100 EXP SWAP1 DIV PUSH20 0xFFFFFFFFFFFFFFFFFFFFFFFFFFFFFFFFFFFFFFFF AND PUSH20 0xFFFFFFFFFFFFFFFFFFFFFFFFFFFFFFFFFFFFFFFF AND EQ PUSH2 0x2AB JUMPI PUSH1 0x40 MLOAD PUSH32 0x8C379A000000000000000000000000000000000000000000000000000000000 DUP2 MSTORE PUSH1 0x4 ADD PUSH2 0x2A2 SWAP1 PUSH2 0x43C JUMP JUMPDEST PUSH1 0x40 MLOAD DUP1 SWAP2 SUB SWAP1 REVERT JUMPDEST PUSH2 0x2B3 PUSH2 0x219 JUMP JUMPDEST SWAP1 POP SWAP1 JUMP JUMPDEST DUP3 DUP1 SLOAD PUSH2 0x2C4 SWAP1 PUSH2 0x4C4 JUMP JUMPDEST SWAP1 PUSH1 0x0 MSTORE PUSH1 0x20 PUSH1 0x0 KECCAK256 SWAP1 PUSH1 0x1F ADD PUSH1 0x20 SWAP1 DIV DUP2 ADD SWAP3 DUP3 PUSH2 0x2E6 JUMPI PUSH1 0x0 DUP6 SSTORE PUSH2 0x32D JUMP JUMPDEST DUP3 PUSH1 0x1F LT PUSH2 0x2FF JUMPI DUP1 MLOAD PUSH1 0xFF NOT AND DUP4 DUP1 ADD OR DUP6 SSTORE PUSH2 0x32D JUMP JUMPDEST DUP3 DUP1 ADD PUSH1 0x1 ADD DUP6 SSTORE DUP3 ISZERO PUSH2 0x32D JUMPI SWAP2 DUP3 ADD JUMPDEST DUP3 DUP2 GT ISZERO PUSH2 0x32C JUMPI DUP3 MLOAD DUP3 SSTORE SWAP2 PUSH1 0x20 ADD SWAP2 SWAP1 PUSH1 0x1 ADD SWAP1 PUSH2 0x311 JUMP JUMPDEST JUMPDEST POP SWAP1 POP PUSH2 0x33A SWAP2 SWAP1 PUSH2 0x33E JUMP JUMPDEST POP SWAP1 JUMP JUMPDEST JUMPDEST DUP1 DUP3 GT ISZERO PUSH2 0x357 JUMPI PUSH1 0x0 DUP2 PUSH1 0x0 SWAP1 SSTORE POP PUSH1 0x1 ADD PUSH2 0x33F JUMP JUMPDEST POP SWAP1 JUMP JUMPDEST PUSH1 0x0 DUP2 CALLDATALOAD SWAP1 POP PUSH2 0x36A DUP2 PUSH2 0x57C JUMP JUMPDEST SWAP3 SWAP2 POP POP JUMP JUMPDEST PUSH1 0x0 PUSH1 0x20 DUP3 DUP5 SUB SLT ISZERO PUSH2 0x386 JUMPI PUSH2 0x385 PUSH2 0x525 JUMP JUMPDEST JUMPDEST PUSH1 0x0 PUSH2 0x394 DUP5 DUP3 DUP6 ADD PUSH2 0x35B JUMP JUMPDEST SWAP2 POP POP SWAP3 SWAP2 POP POP JUMP JUMPDEST PUSH2 0x3A6 DUP2 PUSH2 0x488 JUMP JUMPDEST DUP3 MSTORE POP POP JUMP JUMPDEST PUSH1 0x0 PUSH2 0x3B9 PUSH1 0xF DUP4 PUSH2 0x477 JUMP JUMPDEST SWAP2 POP PUSH2 0x3C4 DUP3 PUSH2 0x52A JUMP JUMPDEST PUSH1 0x20 DUP3 ADD SWAP1 POP SWAP2 SWAP1 POP JUMP JUMPDEST PUSH1 0x0 PUSH2 0x3DC PUSH1 0x13 DUP4 PUSH2 0x477 JUMP JUMPDEST SWAP2 POP PUSH2 0x3E7 DUP3 PUSH2 0x553 JUMP JUMPDEST PUSH1 0x20 DUP3 ADD SWAP1 POP SWAP2 SWAP1 POP JUMP JUMPDEST PUSH2 0x3FB DUP2 PUSH2 0x4BA JUMP JUMPDEST DUP3 MSTORE POP POP JUMP JUMPDEST PUSH1 0x0 PUSH1 0x20 DUP3 ADD SWAP1 POP PUSH2 0x416 PUSH1 0x0 DUP4 ADD DUP5 PUSH2 0x39D JUMP JUMPDEST SWAP3 SWAP2 POP POP JUMP JUMPDEST PUSH1 0x0 PUSH1 0x20 DUP3 ADD SWAP1 POP DUP2 DUP2 SUB PUSH1 0x0 DUP4 ADD MSTORE PUSH2 0x435 DUP2 PUSH2 0x3AC JUMP JUMPDEST SWAP1 POP SWAP2 SWAP1 POP JUMP JUMPDEST PUSH1 0x0 PUSH1 0x20 DUP3 ADD SWAP1 POP DUP2 DUP2 SUB PUSH1 0x0 DUP4 ADD MSTORE PUSH2 0x455 DUP2 PUSH2 0x3CF JUMP JUMPDEST SWAP1 POP SWAP2 SWAP1 POP JUMP JUMPDEST PUSH1 0x0 PUSH1 0x20 DUP3 ADD SWAP1 POP PUSH2 0x471 PUSH1 0x0 DUP4 ADD DUP5 PUSH2 0x3F2 JUMP JUMPDEST SWAP3 SWAP2 POP POP JUMP JUMPDEST PUSH1 0x0 DUP3 DUP3 MSTORE PUSH1 0x20 DUP3 ADD SWAP1 POP SWAP3 SWAP2 POP POP JUMP JUMPDEST PUSH1 0x0 PUSH2 0x493 DUP3 PUSH2 0x49A JUMP JUMPDEST SWAP1 POP SWAP2 SWAP1 POP JUMP JUMPDEST PUSH1 0x0 PUSH20 0xFFFFFFFFFFFFFFFFFFFFFFFFFFFFFFFFFFFFFFFF DUP3 AND SWAP1 POP SWAP2 SWAP1 POP JUMP JUMPDEST PUSH1 0x0 DUP2 SWAP1 POP SWAP2 SWAP1 POP JUMP JUMPDEST PUSH1 0x0 PUSH1 0x2 DUP3 DIV SWAP1 POP PUSH1 0x1 DUP3 AND DUP1 PUSH2 0x4DC JUMPI PUSH1 0x7F DUP3 AND SWAP2 POP JUMPDEST PUSH1 0x20 DUP3 LT DUP2 EQ ISZERO PUSH2 0x4F0 JUMPI PUSH2 0x4EF PUSH2 0x4F6 JUMP JUMPDEST JUMPDEST POP SWAP2 SWAP1 POP JUMP JUMPDEST PUSH32 0x4E487B7100000000000000000000000000000000000000000000000000000000 PUSH1 0x0 MSTORE PUSH1 0x22 PUSH1 0x4 MSTORE PUSH1 0x24 PUSH1 0x0 REVERT JUMPDEST PUSH1 0x0 DUP1 REVERT JUMPDEST PUSH32 0x4E6F2068617320616365727461646F0000000000000000000000000000000000 PUSH1 0x0 DUP3 ADD MSTORE POP JUMP JUMPDEST PUSH32 0x4E6F20657265732070726F706965746172696F00000000000000000000000000 PUSH1 0x0 DUP3 ADD MSTORE POP JUMP JUMPDEST PUSH2 0x585 DUP2 PUSH2 0x4BA JUMP JUMPDEST DUP2 EQ PUSH2 0x590 JUMPI PUSH1 0x0 DUP1 REVERT JUMPDEST POP JUMP INVALID LOG2 PUSH5 0x6970667358 0x22 SLT KECCAK256 DUP12 0xEF 0xE8 PUSH32 0x2C93F40F5213BB6DEC82C48418CA9F29E126FC5963AF17E1DA03DB2864736F6C PUSH4 0x43000807 STOP CALLER "
		},
		"gasEstimates": {
			"creation": {
				"codeDepositCost": "296200",
				"executionCost": "infinite",
				"totalCost": "infinite"
			},
			"external": {
				"blocks()": "380",
				"guess(uint256)": "26817",
				"owner()": "2514",
				"setNumberFlag()": "infinite"
			},
			"internal": {
				"getFlag()": "infinite"
			}
		},
		"methodIdentifiers": {
			"blocks()": "967ff23e",
			"guess(uint256)": "9189fec1",
			"owner()": "8da5cb5b",
			"setNumberFlag()": "39cffa45"
		}
	},
	"abi": [
		{
			"inputs": [
				{
					"internalType": "uint256",
					"name": "_number_flag",
					"type": "uint256"
				}
			],
			"stateMutability": "nonpayable",
			"type": "constructor"
		},
		{
			"inputs": [],
			"name": "blocks",
			"outputs": [
				{
					"internalType": "uint256",
					"name": "",
					"type": "uint256"
				}
			],
			"stateMutability": "view",
			"type": "function"
		},
		{
			"inputs": [
				{
					"internalType": "uint256",
					"name": "_number",
					"type": "uint256"
				}
			],
			"name": "guess",
			"outputs": [],
			"stateMutability": "nonpayable",
			"type": "function"
		},
		{
			"inputs": [],
			"name": "owner",
			"outputs": [
				{
					"internalType": "address",
					"name": "",
					"type": "address"
				}
			],
			"stateMutability": "view",
			"type": "function"
		},
		{
			"inputs": [],
			"name": "setNumberFlag",
			"outputs": [],
			"stateMutability": "nonpayable",
			"type": "function"
		}
	]
}